{
	"data": {
		"bytecode": {
			"linkReferences": {
				"contracts/nfts/NFT.sol_flattened.sol": {
					"GenesUtil": [
						{
							"length": 20,
							"start": 977
						},
						{
							"length": 20,
							"start": 1184
						},
						{
							"length": 20,
							"start": 1545
						},
						{
							"length": 20,
							"start": 1661
						},
						{
							"length": 20,
							"start": 2069
						},
						{
							"length": 20,
							"start": 2201
						},
						{
							"length": 20,
							"start": 2457
						},
						{
							"length": 20,
							"start": 2592
						},
						{
							"length": 20,
							"start": 2690
						},
						{
							"length": 20,
							"start": 2911
						},
						{
							"length": 20,
							"start": 3144
						},
						{
							"length": 20,
							"start": 3187
						},
						{
							"length": 20,
							"start": 3458
						},
						{
							"length": 20,
							"start": 3584
						}
					]
				}
			},
			"object": "60806040526000805460ff60a01b191690556001808055600560028190556003829055601e60045555602460065534801561003957600080fd5b5061004333610048565b610098565b600080546001600160a01b038381166001600160a01b0319831681178455604051919092169283917f8be0079c531659141344cd1fd0a4f28419497f9722a3daafe3b4186f6b6457e09190a35050565b6111ca806100a76000396000f3fe608060405234801561001057600080fd5b50600436106101165760003560e01c80638da5cb5b116100a2578063e238b8c611610071578063e238b8c614610200578063e2e3a0db14610208578063e4a13fb71461021b578063eb4b0e5114610249578063f2fde38b1461025157600080fd5b80638da5cb5b146101b757806391b66725146101d2578063d477a712146101e5578063d6412cfd146101ed57600080fd5b806332099cc4116100e957806332099cc41461016957806343aed9dc14610180578063615ebe281461019f578063715018a6146101a7578063878cf3a6146101af57600080fd5b806302aff3781461011b578063054fee6a1461013057806316bd8646146101435780631bb39f8414610156575b600080fd5b61012e610129366004610f72565b610264565b005b61012e61013e366004610f72565b610271565b61012e610151366004610f72565b61027e565b61012e610164366004610f72565b61028b565b6003545b6040519081526020015b60405180910390f35b600054600160a01b900460ff1660405160ff9091168152602001610177565b60045461016d565b61012e610298565b60015461016d565b6000546040516001600160a01b039091168152602001610177565b61012e6101e0366004610f72565b6102ac565b60065461016d565b61012e6101fb366004610f9a565b6102b9565b60025461016d565b61012e610216366004610f72565b6102e1565b61022e610229366004610fbe565b6102ee565b60408051938452602084019290925290820152606001610177565b60055461016d565b61012e61025f366004610fe0565b610dc4565b61026c610e3d565b600155565b610279610e3d565b600255565b610286610e3d565b600655565b610293610e3d565b600455565b6102a0610e3d565b6102aa6000610e97565b565b6102b4610e3d565b600355565b6102c1610e3d565b6000805460ff909216600160a01b0260ff60a01b19909216919091179055565b6102e9610e3d565b600555565b6000805481908190600160a01b900460ff161561049e57600054604051630317f43560e01b815260048101879052600160a01b90910460ff169073__$73b9dc11f94164f4a83fc40bc3aa068b80$__90630317f43590602401602060405180830381865af4158015610364573d6000803e3d6000fd5b505050506040513d601f19601f820116820180604052508101906103889190611009565b60ff1610156103d45760405162461bcd60e51b8152602060048201526013602482015272696e73756666696369656e742063686172676560681b60448201526064015b60405180910390fd5b600054604051630317f43560e01b815260048101869052600160a01b90910460ff169073__$73b9dc11f94164f4a83fc40bc3aa068b80$__90630317f43590602401602060405180830381865af4158015610433573d6000803e3d6000fd5b505050506040513d601f19601f820116820180604052508101906104579190611009565b60ff16101561049e5760405162461bcd60e51b8152602060048201526013602482015272696e73756666696369656e742063686172676560681b60448201526064016103cb565b600154604080514260208083019190915243828401524460608301526080820189905260a0820188905260c0808301949094528251808303909401845260e0909101909152815191012060008190036105315760405162461bcd60e51b8152602060048201526015602482015274072616e646f6d536565642063616e2774206265203605c1b60448201526064016103cb565b600180549060006105418361103c565b90915550506040516356e3df9760e01b81526004810186905260009060029073__$73b9dc11f94164f4a83fc40bc3aa068b80$__906356e3df9790602401602060405180830381865af415801561059c573d6000803e3d6000fd5b505050506040513d601f19601f820116820180604052508101906105c09190611055565b6040516356e3df9760e01b8152600481018a905273__$73b9dc11f94164f4a83fc40bc3aa068b80$__906356e3df9790602401602060405180830381865af4158015610610573d6000803e3d6000fd5b505050506040513d601f19601f820116820180604052508101906106349190611055565b61063e919061107b565b61064891906110b5565b61065390600161107b565b879550869450600093509050600983805b828160ff161015610a8c5760006106898563ffffffff166003546004546103e8610ee7565b905060006106cd878561069b8161103c565b965060006004546003546004546106b291906110d8565b6106be906103e86110f1565b6106c89190611108565b610f23565b821015905060016106ee88866106e28161103c565b975060006103e8610f23565b6002546106fc90600a6110f1565b1061072d57610723888661070f8161103c565b975060055460065460016106c8919061111c565b60ff169050610853565b6101f461074a898761073e8161103c565b985060006103e8610f23565b106107d357604051635d2029f160e01b8152600481018d905260ff8516602482015273__$73b9dc11f94164f4a83fc40bc3aa068b80$__90635d2029f190604401602060405180830381865af41580156107a8573d6000803e3d6000fd5b505050506040513d601f19601f820116820180604052508101906107cc9190611009565b9050610853565b604051635d2029f160e01b8152600481018e905260ff8516602482015273__$73b9dc11f94164f4a83fc40bc3aa068b80$__90635d2029f190604401602060405180830381865af415801561082c573d6000803e3d6000fd5b505050506040513d601f19601f820116820180604052508101906108509190611009565b90505b6005548160ff161015801561086d57506006548160ff1611155b6108cb5760405162461bcd60e51b815260206004820152602960248201527f6572726f722c206272656164696e672c2070617274206964206d75737420626560448201526820696e2072616e676560b81b60648201526084016103cb565b6040516334a51d0f60e01b8152600481018a905260ff80861660248301528216604482015273__$73b9dc11f94164f4a83fc40bc3aa068b80$__906334a51d0f90606401602060405180830381865af415801561092c573d6000803e3d6000fd5b505050506040513d601f19601f82011682018060405250810190610950919061112f565b60405163e1b30ab760e01b81526004810182905260ff861660248201526001604482015290995073__$73b9dc11f94164f4a83fc40bc3aa068b80$__9063e1b30ab790606401602060405180830381865af41580156109b3573d6000803e3d6000fd5b505050506040513d601f19601f820116820180604052508101906109d7919061112f565b985073__$73b9dc11f94164f4a83fc40bc3aa068b80$__6355d6ed438a8685610a01576000610a04565b60015b6040516001600160e01b031960e086901b168152600481019390935260ff9182166024840152166044820152606401602060405180830381865af4158015610a50573d6000803e3d6000fd5b505050506040513d601f19601f82011682018060405250810190610a74919061112f565b98505050508080610a8490611148565b915050610664565b50600054600160a01b900460ff1615610cb957600054604051630317f43560e01b8152600481018b905273__$73b9dc11f94164f4a83fc40bc3aa068b80$__9163b52b6659918c91600160a01b900460ff16908490630317f43590602401602060405180830381865af4158015610b07573d6000803e3d6000fd5b505050506040513d601f19601f82011682018060405250810190610b2b9190611009565b610b359190611167565b6040516001600160e01b031960e085901b168152600481019290925260ff166024820152604401602060405180830381865af4158015610b79573d6000803e3d6000fd5b505050506040513d601f19601f82011682018060405250810190610b9d919061112f565b965073__$73b9dc11f94164f4a83fc40bc3aa068b80$__63b52b665989600060149054906101000a900460ff1673__$73b9dc11f94164f4a83fc40bc3aa068b80$__630317f4358d6040518263ffffffff1660e01b8152600401610c0391815260200190565b602060405180830381865af4158015610c20573d6000803e3d6000fd5b505050506040513d601f19601f82011682018060405250810190610c449190611009565b610c4e9190611167565b6040516001600160e01b031960e085901b168152600481019290925260ff166024820152604401602060405180830381865af4158015610c92573d6000803e3d6000fd5b505050506040513d601f19601f82011682018060405250810190610cb6919061112f565b95505b604051638de97f4f60e01b81526004810186905263ffffffff8416602482015273__$73b9dc11f94164f4a83fc40bc3aa068b80$__90638de97f4f90604401602060405180830381865af4158015610d15573d6000803e3d6000fd5b505050506040513d601f19601f82011682018060405250810190610d39919061112f565b60405163b52b665960e01b8152600481018290526001602482015290955073__$73b9dc11f94164f4a83fc40bc3aa068b80$__9063b52b665990604401602060405180830381865af4158015610d93573d6000803e3d6000fd5b505050506040513d601f19601f82011682018060405250810190610db7919061112f565b9450505050509250925092565b610dcc610e3d565b6001600160a01b038116610e315760405162461bcd60e51b815260206004820152602660248201527f4f776e61626c653a206e6577206f776e657220697320746865207a65726f206160448201526564647265737360d01b60648201526084016103cb565b610e3a81610e97565b50565b6000546001600160a01b031633146102aa5760405162461bcd60e51b815260206004820181905260248201527f4f776e61626c653a2063616c6c6572206973206e6f7420746865206f776e657260448201526064016103cb565b600080546001600160a01b038381166001600160a01b0319831681178455604051919092169283917f8be0079c531659141344cd1fd0a4f28419497f9722a3daafe3b4186f6b6457e09190a35050565b6000838511610ef857506000610f1b565b8282610f0486886110d8565b610f0e91906110f1565b610f189190611108565b90505b949350505050565b6000610f2f83836110d8565b60408051602081018890529081018690526060016040516020818303038152906040528051906020012060001c610f669190611180565b9050610f18818461111c565b600060208284031215610f8457600080fd5b5035919050565b60ff81168114610e3a57600080fd5b600060208284031215610fac57600080fd5b8135610fb781610f8b565b9392505050565b60008060408385031215610fd157600080fd5b50508035926020909101359150565b600060208284031215610ff257600080fd5b81356001600160a01b0381168114610fb757600080fd5b60006020828403121561101b57600080fd5b8151610fb781610f8b565b634e487b7160e01b600052601160045260246000fd5b60006001820161104e5761104e611026565b5060010190565b60006020828403121561106757600080fd5b815163ffffffff81168114610fb757600080fd5b63ffffffff81811683821601908082111561109857611098611026565b5092915050565b634e487b7160e01b600052601260045260246000fd5b600063ffffffff808416806110cc576110cc61109f565b92169190910492915050565b818103818111156110eb576110eb611026565b92915050565b80820281158282048414176110eb576110eb611026565b6000826111175761111761109f565b500490565b808201808211156110eb576110eb611026565b60006020828403121561114157600080fd5b5051919050565b600060ff821660ff810361115e5761115e611026565b60010192915050565b60ff82811682821603908111156110eb576110eb611026565b60008261118f5761118f61109f565b50069056fea2646970667358221220eb7b3dfd59d12b614c8ef35e95704c186086562b55fbdb6fb8e02c94eff8a8b164736f6c63430008130033",
			"opcodes": "PUSH1 0x80 PUSH1 0x40 MSTORE PUSH1 0x0 DUP1 SLOAD PUSH1 0xFF PUSH1 0xA0 SHL NOT AND SWAP1 SSTORE PUSH1 0x1 DUP1 DUP1 SSTORE PUSH1 0x5 PUSH1 0x2 DUP2 SWAP1 SSTORE PUSH1 0x3 DUP3 SWAP1 SSTORE PUSH1 0x1E PUSH1 0x4 SSTORE SSTORE PUSH1 0x24 PUSH1 0x6 SSTORE CALLVALUE DUP1 ISZERO PUSH2 0x39 JUMPI PUSH1 0x0 DUP1 REVERT JUMPDEST POP PUSH2 0x43 CALLER PUSH2 0x48 JUMP JUMPDEST PUSH2 0x98 JUMP JUMPDEST PUSH1 0x0 DUP1 SLOAD PUSH1 0x1 PUSH1 0x1 PUSH1 0xA0 SHL SUB DUP4 DUP2 AND PUSH1 0x1 PUSH1 0x1 PUSH1 0xA0 SHL SUB NOT DUP4 AND DUP2 OR DUP5 SSTORE PUSH1 0x40 MLOAD SWAP2 SWAP1 SWAP3 AND SWAP3 DUP4 SWAP2 PUSH32 0x8BE0079C531659141344CD1FD0A4F28419497F9722A3DAAFE3B4186F6B6457E0 SWAP2 SWAP1 LOG3 POP POP JUMP JUMPDEST PUSH2 0x11CA DUP1 PUSH2 0xA7 PUSH1 0x0 CODECOPY PUSH1 0x0 RETURN INVALID PUSH1 0x80 PUSH1 0x40 MSTORE CALLVALUE DUP1 ISZERO PUSH2 0x10 JUMPI PUSH1 0x0 DUP1 REVERT JUMPDEST POP PUSH1 0x4 CALLDATASIZE LT PUSH2 0x116 JUMPI PUSH1 0x0 CALLDATALOAD PUSH1 0xE0 SHR DUP1 PUSH4 0x8DA5CB5B GT PUSH2 0xA2 JUMPI DUP1 PUSH4 0xE238B8C6 GT PUSH2 0x71 JUMPI DUP1 PUSH4 0xE238B8C6 EQ PUSH2 0x200 JUMPI DUP1 PUSH4 0xE2E3A0DB EQ PUSH2 0x208 JUMPI DUP1 PUSH4 0xE4A13FB7 EQ PUSH2 0x21B JUMPI DUP1 PUSH4 0xEB4B0E51 EQ PUSH2 0x249 JUMPI DUP1 PUSH4 0xF2FDE38B EQ PUSH2 0x251 JUMPI PUSH1 0x0 DUP1 REVERT JUMPDEST DUP1 PUSH4 0x8DA5CB5B EQ PUSH2 0x1B7 JUMPI DUP1 PUSH4 0x91B66725 EQ PUSH2 0x1D2 JUMPI DUP1 PUSH4 0xD477A712 EQ PUSH2 0x1E5 JUMPI DUP1 PUSH4 0xD6412CFD EQ PUSH2 0x1ED JUMPI PUSH1 0x0 DUP1 REVERT JUMPDEST DUP1 PUSH4 0x32099CC4 GT PUSH2 0xE9 JUMPI DUP1 PUSH4 0x32099CC4 EQ PUSH2 0x169 JUMPI DUP1 PUSH4 0x43AED9DC EQ PUSH2 0x180 JUMPI DUP1 PUSH4 0x615EBE28 EQ PUSH2 0x19F JUMPI DUP1 PUSH4 0x715018A6 EQ PUSH2 0x1A7 JUMPI DUP1 PUSH4 0x878CF3A6 EQ PUSH2 0x1AF JUMPI PUSH1 0x0 DUP1 REVERT JUMPDEST DUP1 PUSH4 0x2AFF378 EQ PUSH2 0x11B JUMPI DUP1 PUSH4 0x54FEE6A EQ PUSH2 0x130 JUMPI DUP1 PUSH4 0x16BD8646 EQ PUSH2 0x143 JUMPI DUP1 PUSH4 0x1BB39F84 EQ PUSH2 0x156 JUMPI JUMPDEST PUSH1 0x0 DUP1 REVERT JUMPDEST PUSH2 0x12E PUSH2 0x129 CALLDATASIZE PUSH1 0x4 PUSH2 0xF72 JUMP JUMPDEST PUSH2 0x264 JUMP JUMPDEST STOP JUMPDEST PUSH2 0x12E PUSH2 0x13E CALLDATASIZE PUSH1 0x4 PUSH2 0xF72 JUMP JUMPDEST PUSH2 0x271 JUMP JUMPDEST PUSH2 0x12E PUSH2 0x151 CALLDATASIZE PUSH1 0x4 PUSH2 0xF72 JUMP JUMPDEST PUSH2 0x27E JUMP JUMPDEST PUSH2 0x12E PUSH2 0x164 CALLDATASIZE PUSH1 0x4 PUSH2 0xF72 JUMP JUMPDEST PUSH2 0x28B JUMP JUMPDEST PUSH1 0x3 SLOAD JUMPDEST PUSH1 0x40 MLOAD SWAP1 DUP2 MSTORE PUSH1 0x20 ADD JUMPDEST PUSH1 0x40 MLOAD DUP1 SWAP2 SUB SWAP1 RETURN JUMPDEST PUSH1 0x0 SLOAD PUSH1 0x1 PUSH1 0xA0 SHL SWAP1 DIV PUSH1 0xFF AND PUSH1 0x40 MLOAD PUSH1 0xFF SWAP1 SWAP2 AND DUP2 MSTORE PUSH1 0x20 ADD PUSH2 0x177 JUMP JUMPDEST PUSH1 0x4 SLOAD PUSH2 0x16D JUMP JUMPDEST PUSH2 0x12E PUSH2 0x298 JUMP JUMPDEST PUSH1 0x1 SLOAD PUSH2 0x16D JUMP JUMPDEST PUSH1 0x0 SLOAD PUSH1 0x40 MLOAD PUSH1 0x1 PUSH1 0x1 PUSH1 0xA0 SHL SUB SWAP1 SWAP2 AND DUP2 MSTORE PUSH1 0x20 ADD PUSH2 0x177 JUMP JUMPDEST PUSH2 0x12E PUSH2 0x1E0 CALLDATASIZE PUSH1 0x4 PUSH2 0xF72 JUMP JUMPDEST PUSH2 0x2AC JUMP JUMPDEST PUSH1 0x6 SLOAD PUSH2 0x16D JUMP JUMPDEST PUSH2 0x12E PUSH2 0x1FB CALLDATASIZE PUSH1 0x4 PUSH2 0xF9A JUMP JUMPDEST PUSH2 0x2B9 JUMP JUMPDEST PUSH1 0x2 SLOAD PUSH2 0x16D JUMP JUMPDEST PUSH2 0x12E PUSH2 0x216 CALLDATASIZE PUSH1 0x4 PUSH2 0xF72 JUMP JUMPDEST PUSH2 0x2E1 JUMP JUMPDEST PUSH2 0x22E PUSH2 0x229 CALLDATASIZE PUSH1 0x4 PUSH2 0xFBE JUMP JUMPDEST PUSH2 0x2EE JUMP JUMPDEST PUSH1 0x40 DUP1 MLOAD SWAP4 DUP5 MSTORE PUSH1 0x20 DUP5 ADD SWAP3 SWAP1 SWAP3 MSTORE SWAP1 DUP3 ADD MSTORE PUSH1 0x60 ADD PUSH2 0x177 JUMP JUMPDEST PUSH1 0x5 SLOAD PUSH2 0x16D JUMP JUMPDEST PUSH2 0x12E PUSH2 0x25F CALLDATASIZE PUSH1 0x4 PUSH2 0xFE0 JUMP JUMPDEST PUSH2 0xDC4 JUMP JUMPDEST PUSH2 0x26C PUSH2 0xE3D JUMP JUMPDEST PUSH1 0x1 SSTORE JUMP JUMPDEST PUSH2 0x279 PUSH2 0xE3D JUMP JUMPDEST PUSH1 0x2 SSTORE JUMP JUMPDEST PUSH2 0x286 PUSH2 0xE3D JUMP JUMPDEST PUSH1 0x6 SSTORE JUMP JUMPDEST PUSH2 0x293 PUSH2 0xE3D JUMP JUMPDEST PUSH1 0x4 SSTORE JUMP JUMPDEST PUSH2 0x2A0 PUSH2 0xE3D JUMP JUMPDEST PUSH2 0x2AA PUSH1 0x0 PUSH2 0xE97 JUMP JUMPDEST JUMP JUMPDEST PUSH2 0x2B4 PUSH2 0xE3D JUMP JUMPDEST PUSH1 0x3 SSTORE JUMP JUMPDEST PUSH2 0x2C1 PUSH2 0xE3D JUMP JUMPDEST PUSH1 0x0 DUP1 SLOAD PUSH1 0xFF SWAP1 SWAP3 AND PUSH1 0x1 PUSH1 0xA0 SHL MUL PUSH1 0xFF PUSH1 0xA0 SHL NOT SWAP1 SWAP3 AND SWAP2 SWAP1 SWAP2 OR SWAP1 SSTORE JUMP JUMPDEST PUSH2 0x2E9 PUSH2 0xE3D JUMP JUMPDEST PUSH1 0x5 SSTORE JUMP JUMPDEST PUSH1 0x0 DUP1 SLOAD DUP2 SWAP1 DUP2 SWAP1 PUSH1 0x1 PUSH1 0xA0 SHL SWAP1 DIV PUSH1 0xFF AND ISZERO PUSH2 0x49E JUMPI PUSH1 0x0 SLOAD PUSH1 0x40 MLOAD PUSH4 0x317F435 PUSH1 0xE0 SHL DUP2 MSTORE PUSH1 0x4 DUP2 ADD DUP8 SWAP1 MSTORE PUSH1 0x1 PUSH1 0xA0 SHL SWAP1 SWAP2 DIV PUSH1 0xFF AND SWAP1 PUSH20 0x0 SWAP1 PUSH4 0x317F435 SWAP1 PUSH1 0x24 ADD PUSH1 0x20 PUSH1 0x40 MLOAD DUP1 DUP4 SUB DUP2 DUP7 GAS DELEGATECALL ISZERO DUP1 ISZERO PUSH2 0x364 JUMPI RETURNDATASIZE PUSH1 0x0 DUP1 RETURNDATACOPY RETURNDATASIZE PUSH1 0x0 REVERT JUMPDEST POP POP POP POP PUSH1 0x40 MLOAD RETURNDATASIZE PUSH1 0x1F NOT PUSH1 0x1F DUP3 ADD AND DUP3 ADD DUP1 PUSH1 0x40 MSTORE POP DUP2 ADD SWAP1 PUSH2 0x388 SWAP2 SWAP1 PUSH2 0x1009 JUMP JUMPDEST PUSH1 0xFF AND LT ISZERO PUSH2 0x3D4 JUMPI PUSH1 0x40 MLOAD PUSH3 0x461BCD PUSH1 0xE5 SHL DUP2 MSTORE PUSH1 0x20 PUSH1 0x4 DUP3 ADD MSTORE PUSH1 0x13 PUSH1 0x24 DUP3 ADD MSTORE PUSH19 0x696E73756666696369656E7420636861726765 PUSH1 0x68 SHL PUSH1 0x44 DUP3 ADD MSTORE PUSH1 0x64 ADD JUMPDEST PUSH1 0x40 MLOAD DUP1 SWAP2 SUB SWAP1 REVERT JUMPDEST PUSH1 0x0 SLOAD PUSH1 0x40 MLOAD PUSH4 0x317F435 PUSH1 0xE0 SHL DUP2 MSTORE PUSH1 0x4 DUP2 ADD DUP7 SWAP1 MSTORE PUSH1 0x1 PUSH1 0xA0 SHL SWAP1 SWAP2 DIV PUSH1 0xFF AND SWAP1 PUSH20 0x0 SWAP1 PUSH4 0x317F435 SWAP1 PUSH1 0x24 ADD PUSH1 0x20 PUSH1 0x40 MLOAD DUP1 DUP4 SUB DUP2 DUP7 GAS DELEGATECALL ISZERO DUP1 ISZERO PUSH2 0x433 JUMPI RETURNDATASIZE PUSH1 0x0 DUP1 RETURNDATACOPY RETURNDATASIZE PUSH1 0x0 REVERT JUMPDEST POP POP POP POP PUSH1 0x40 MLOAD RETURNDATASIZE PUSH1 0x1F NOT PUSH1 0x1F DUP3 ADD AND DUP3 ADD DUP1 PUSH1 0x40 MSTORE POP DUP2 ADD SWAP1 PUSH2 0x457 SWAP2 SWAP1 PUSH2 0x1009 JUMP JUMPDEST PUSH1 0xFF AND LT ISZERO PUSH2 0x49E JUMPI PUSH1 0x40 MLOAD PUSH3 0x461BCD PUSH1 0xE5 SHL DUP2 MSTORE PUSH1 0x20 PUSH1 0x4 DUP3 ADD MSTORE PUSH1 0x13 PUSH1 0x24 DUP3 ADD MSTORE PUSH19 0x696E73756666696369656E7420636861726765 PUSH1 0x68 SHL PUSH1 0x44 DUP3 ADD MSTORE PUSH1 0x64 ADD PUSH2 0x3CB JUMP JUMPDEST PUSH1 0x1 SLOAD PUSH1 0x40 DUP1 MLOAD TIMESTAMP PUSH1 0x20 DUP1 DUP4 ADD SWAP2 SWAP1 SWAP2 MSTORE NUMBER DUP3 DUP5 ADD MSTORE PREVRANDAO PUSH1 0x60 DUP4 ADD MSTORE PUSH1 0x80 DUP3 ADD DUP10 SWAP1 MSTORE PUSH1 0xA0 DUP3 ADD DUP9 SWAP1 MSTORE PUSH1 0xC0 DUP1 DUP4 ADD SWAP5 SWAP1 SWAP5 MSTORE DUP3 MLOAD DUP1 DUP4 SUB SWAP1 SWAP5 ADD DUP5 MSTORE PUSH1 0xE0 SWAP1 SWAP2 ADD SWAP1 SWAP2 MSTORE DUP2 MLOAD SWAP2 ADD KECCAK256 PUSH1 0x0 DUP2 SWAP1 SUB PUSH2 0x531 JUMPI PUSH1 0x40 MLOAD PUSH3 0x461BCD PUSH1 0xE5 SHL DUP2 MSTORE PUSH1 0x20 PUSH1 0x4 DUP3 ADD MSTORE PUSH1 0x15 PUSH1 0x24 DUP3 ADD MSTORE PUSH21 0x72616E646F6D536565642063616E2774206265203 PUSH1 0x5C SHL PUSH1 0x44 DUP3 ADD MSTORE PUSH1 0x64 ADD PUSH2 0x3CB JUMP JUMPDEST PUSH1 0x1 DUP1 SLOAD SWAP1 PUSH1 0x0 PUSH2 0x541 DUP4 PUSH2 0x103C JUMP JUMPDEST SWAP1 SWAP2 SSTORE POP POP PUSH1 0x40 MLOAD PUSH4 0x56E3DF97 PUSH1 0xE0 SHL DUP2 MSTORE PUSH1 0x4 DUP2 ADD DUP7 SWAP1 MSTORE PUSH1 0x0 SWAP1 PUSH1 0x2 SWAP1 PUSH20 0x0 SWAP1 PUSH4 0x56E3DF97 SWAP1 PUSH1 0x24 ADD PUSH1 0x20 PUSH1 0x40 MLOAD DUP1 DUP4 SUB DUP2 DUP7 GAS DELEGATECALL ISZERO DUP1 ISZERO PUSH2 0x59C JUMPI RETURNDATASIZE PUSH1 0x0 DUP1 RETURNDATACOPY RETURNDATASIZE PUSH1 0x0 REVERT JUMPDEST POP POP POP POP PUSH1 0x40 MLOAD RETURNDATASIZE PUSH1 0x1F NOT PUSH1 0x1F DUP3 ADD AND DUP3 ADD DUP1 PUSH1 0x40 MSTORE POP DUP2 ADD SWAP1 PUSH2 0x5C0 SWAP2 SWAP1 PUSH2 0x1055 JUMP JUMPDEST PUSH1 0x40 MLOAD PUSH4 0x56E3DF97 PUSH1 0xE0 SHL DUP2 MSTORE PUSH1 0x4 DUP2 ADD DUP11 SWAP1 MSTORE PUSH20 0x0 SWAP1 PUSH4 0x56E3DF97 SWAP1 PUSH1 0x24 ADD PUSH1 0x20 PUSH1 0x40 MLOAD DUP1 DUP4 SUB DUP2 DUP7 GAS DELEGATECALL ISZERO DUP1 ISZERO PUSH2 0x610 JUMPI RETURNDATASIZE PUSH1 0x0 DUP1 RETURNDATACOPY RETURNDATASIZE PUSH1 0x0 REVERT JUMPDEST POP POP POP POP PUSH1 0x40 MLOAD RETURNDATASIZE PUSH1 0x1F NOT PUSH1 0x1F DUP3 ADD AND DUP3 ADD DUP1 PUSH1 0x40 MSTORE POP DUP2 ADD SWAP1 PUSH2 0x634 SWAP2 SWAP1 PUSH2 0x1055 JUMP JUMPDEST PUSH2 0x63E SWAP2 SWAP1 PUSH2 0x107B JUMP JUMPDEST PUSH2 0x648 SWAP2 SWAP1 PUSH2 0x10B5 JUMP JUMPDEST PUSH2 0x653 SWAP1 PUSH1 0x1 PUSH2 0x107B JUMP JUMPDEST DUP8 SWAP6 POP DUP7 SWAP5 POP PUSH1 0x0 SWAP4 POP SWAP1 POP PUSH1 0x9 DUP4 DUP1 JUMPDEST DUP3 DUP2 PUSH1 0xFF AND LT ISZERO PUSH2 0xA8C JUMPI PUSH1 0x0 PUSH2 0x689 DUP6 PUSH4 0xFFFFFFFF AND PUSH1 0x3 SLOAD PUSH1 0x4 SLOAD PUSH2 0x3E8 PUSH2 0xEE7 JUMP JUMPDEST SWAP1 POP PUSH1 0x0 PUSH2 0x6CD DUP8 DUP6 PUSH2 0x69B DUP2 PUSH2 0x103C JUMP JUMPDEST SWAP7 POP PUSH1 0x0 PUSH1 0x4 SLOAD PUSH1 0x3 SLOAD PUSH1 0x4 SLOAD PUSH2 0x6B2 SWAP2 SWAP1 PUSH2 0x10D8 JUMP JUMPDEST PUSH2 0x6BE SWAP1 PUSH2 0x3E8 PUSH2 0x10F1 JUMP JUMPDEST PUSH2 0x6C8 SWAP2 SWAP1 PUSH2 0x1108 JUMP JUMPDEST PUSH2 0xF23 JUMP JUMPDEST DUP3 LT ISZERO SWAP1 POP PUSH1 0x1 PUSH2 0x6EE DUP9 DUP7 PUSH2 0x6E2 DUP2 PUSH2 0x103C JUMP JUMPDEST SWAP8 POP PUSH1 0x0 PUSH2 0x3E8 PUSH2 0xF23 JUMP JUMPDEST PUSH1 0x2 SLOAD PUSH2 0x6FC SWAP1 PUSH1 0xA PUSH2 0x10F1 JUMP JUMPDEST LT PUSH2 0x72D JUMPI PUSH2 0x723 DUP9 DUP7 PUSH2 0x70F DUP2 PUSH2 0x103C JUMP JUMPDEST SWAP8 POP PUSH1 0x5 SLOAD PUSH1 0x6 SLOAD PUSH1 0x1 PUSH2 0x6C8 SWAP2 SWAP1 PUSH2 0x111C JUMP JUMPDEST PUSH1 0xFF AND SWAP1 POP PUSH2 0x853 JUMP JUMPDEST PUSH2 0x1F4 PUSH2 0x74A DUP10 DUP8 PUSH2 0x73E DUP2 PUSH2 0x103C JUMP JUMPDEST SWAP9 POP PUSH1 0x0 PUSH2 0x3E8 PUSH2 0xF23 JUMP JUMPDEST LT PUSH2 0x7D3 JUMPI PUSH1 0x40 MLOAD PUSH4 0x5D2029F1 PUSH1 0xE0 SHL DUP2 MSTORE PUSH1 0x4 DUP2 ADD DUP14 SWAP1 MSTORE PUSH1 0xFF DUP6 AND PUSH1 0x24 DUP3 ADD MSTORE PUSH20 0x0 SWAP1 PUSH4 0x5D2029F1 SWAP1 PUSH1 0x44 ADD PUSH1 0x20 PUSH1 0x40 MLOAD DUP1 DUP4 SUB DUP2 DUP7 GAS DELEGATECALL ISZERO DUP1 ISZERO PUSH2 0x7A8 JUMPI RETURNDATASIZE PUSH1 0x0 DUP1 RETURNDATACOPY RETURNDATASIZE PUSH1 0x0 REVERT JUMPDEST POP POP POP POP PUSH1 0x40 MLOAD RETURNDATASIZE PUSH1 0x1F NOT PUSH1 0x1F DUP3 ADD AND DUP3 ADD DUP1 PUSH1 0x40 MSTORE POP DUP2 ADD SWAP1 PUSH2 0x7CC SWAP2 SWAP1 PUSH2 0x1009 JUMP JUMPDEST SWAP1 POP PUSH2 0x853 JUMP JUMPDEST PUSH1 0x40 MLOAD PUSH4 0x5D2029F1 PUSH1 0xE0 SHL DUP2 MSTORE PUSH1 0x4 DUP2 ADD DUP15 SWAP1 MSTORE PUSH1 0xFF DUP6 AND PUSH1 0x24 DUP3 ADD MSTORE PUSH20 0x0 SWAP1 PUSH4 0x5D2029F1 SWAP1 PUSH1 0x44 ADD PUSH1 0x20 PUSH1 0x40 MLOAD DUP1 DUP4 SUB DUP2 DUP7 GAS DELEGATECALL ISZERO DUP1 ISZERO PUSH2 0x82C JUMPI RETURNDATASIZE PUSH1 0x0 DUP1 RETURNDATACOPY RETURNDATASIZE PUSH1 0x0 REVERT JUMPDEST POP POP POP POP PUSH1 0x40 MLOAD RETURNDATASIZE PUSH1 0x1F NOT PUSH1 0x1F DUP3 ADD AND DUP3 ADD DUP1 PUSH1 0x40 MSTORE POP DUP2 ADD SWAP1 PUSH2 0x850 SWAP2 SWAP1 PUSH2 0x1009 JUMP JUMPDEST SWAP1 POP JUMPDEST PUSH1 0x5 SLOAD DUP2 PUSH1 0xFF AND LT ISZERO DUP1 ISZERO PUSH2 0x86D JUMPI POP PUSH1 0x6 SLOAD DUP2 PUSH1 0xFF AND GT ISZERO JUMPDEST PUSH2 0x8CB JUMPI PUSH1 0x40 MLOAD PUSH3 0x461BCD PUSH1 0xE5 SHL DUP2 MSTORE PUSH1 0x20 PUSH1 0x4 DUP3 ADD MSTORE PUSH1 0x29 PUSH1 0x24 DUP3 ADD MSTORE PUSH32 0x6572726F722C206272656164696E672C2070617274206964206D757374206265 PUSH1 0x44 DUP3 ADD MSTORE PUSH9 0x20696E2072616E6765 PUSH1 0xB8 SHL PUSH1 0x64 DUP3 ADD MSTORE PUSH1 0x84 ADD PUSH2 0x3CB JUMP JUMPDEST PUSH1 0x40 MLOAD PUSH4 0x34A51D0F PUSH1 0xE0 SHL DUP2 MSTORE PUSH1 0x4 DUP2 ADD DUP11 SWAP1 MSTORE PUSH1 0xFF DUP1 DUP7 AND PUSH1 0x24 DUP4 ADD MSTORE DUP3 AND PUSH1 0x44 DUP3 ADD MSTORE PUSH20 0x0 SWAP1 PUSH4 0x34A51D0F SWAP1 PUSH1 0x64 ADD PUSH1 0x20 PUSH1 0x40 MLOAD DUP1 DUP4 SUB DUP2 DUP7 GAS DELEGATECALL ISZERO DUP1 ISZERO PUSH2 0x92C JUMPI RETURNDATASIZE PUSH1 0x0 DUP1 RETURNDATACOPY RETURNDATASIZE PUSH1 0x0 REVERT JUMPDEST POP POP POP POP PUSH1 0x40 MLOAD RETURNDATASIZE PUSH1 0x1F NOT PUSH1 0x1F DUP3 ADD AND DUP3 ADD DUP1 PUSH1 0x40 MSTORE POP DUP2 ADD SWAP1 PUSH2 0x950 SWAP2 SWAP1 PUSH2 0x112F JUMP JUMPDEST PUSH1 0x40 MLOAD PUSH4 0xE1B30AB7 PUSH1 0xE0 SHL DUP2 MSTORE PUSH1 0x4 DUP2 ADD DUP3 SWAP1 MSTORE PUSH1 0xFF DUP7 AND PUSH1 0x24 DUP3 ADD MSTORE PUSH1 0x1 PUSH1 0x44 DUP3 ADD MSTORE SWAP1 SWAP10 POP PUSH20 0x0 SWAP1 PUSH4 0xE1B30AB7 SWAP1 PUSH1 0x64 ADD PUSH1 0x20 PUSH1 0x40 MLOAD DUP1 DUP4 SUB DUP2 DUP7 GAS DELEGATECALL ISZERO DUP1 ISZERO PUSH2 0x9B3 JUMPI RETURNDATASIZE PUSH1 0x0 DUP1 RETURNDATACOPY RETURNDATASIZE PUSH1 0x0 REVERT JUMPDEST POP POP POP POP PUSH1 0x40 MLOAD RETURNDATASIZE PUSH1 0x1F NOT PUSH1 0x1F DUP3 ADD AND DUP3 ADD DUP1 PUSH1 0x40 MSTORE POP DUP2 ADD SWAP1 PUSH2 0x9D7 SWAP2 SWAP1 PUSH2 0x112F JUMP JUMPDEST SWAP9 POP PUSH20 0x0 PUSH4 0x55D6ED43 DUP11 DUP7 DUP6 PUSH2 0xA01 JUMPI PUSH1 0x0 PUSH2 0xA04 JUMP JUMPDEST PUSH1 0x1 JUMPDEST PUSH1 0x40 MLOAD PUSH1 0x1 PUSH1 0x1 PUSH1 0xE0 SHL SUB NOT PUSH1 0xE0 DUP7 SWAP1 SHL AND DUP2 MSTORE PUSH1 0x4 DUP2 ADD SWAP4 SWAP1 SWAP4 MSTORE PUSH1 0xFF SWAP2 DUP3 AND PUSH1 0x24 DUP5 ADD MSTORE AND PUSH1 0x44 DUP3 ADD MSTORE PUSH1 0x64 ADD PUSH1 0x20 PUSH1 0x40 MLOAD DUP1 DUP4 SUB DUP2 DUP7 GAS DELEGATECALL ISZERO DUP1 ISZERO PUSH2 0xA50 JUMPI RETURNDATASIZE PUSH1 0x0 DUP1 RETURNDATACOPY RETURNDATASIZE PUSH1 0x0 REVERT JUMPDEST POP POP POP POP PUSH1 0x40 MLOAD RETURNDATASIZE PUSH1 0x1F NOT PUSH1 0x1F DUP3 ADD AND DUP3 ADD DUP1 PUSH1 0x40 MSTORE POP DUP2 ADD SWAP1 PUSH2 0xA74 SWAP2 SWAP1 PUSH2 0x112F JUMP JUMPDEST SWAP9 POP POP POP POP DUP1 DUP1 PUSH2 0xA84 SWAP1 PUSH2 0x1148 JUMP JUMPDEST SWAP2 POP POP PUSH2 0x664 JUMP JUMPDEST POP PUSH1 0x0 SLOAD PUSH1 0x1 PUSH1 0xA0 SHL SWAP1 DIV PUSH1 0xFF AND ISZERO PUSH2 0xCB9 JUMPI PUSH1 0x0 SLOAD PUSH1 0x40 MLOAD PUSH4 0x317F435 PUSH1 0xE0 SHL DUP2 MSTORE PUSH1 0x4 DUP2 ADD DUP12 SWAP1 MSTORE PUSH20 0x0 SWAP2 PUSH4 0xB52B6659 SWAP2 DUP13 SWAP2 PUSH1 0x1 PUSH1 0xA0 SHL SWAP1 DIV PUSH1 0xFF AND SWAP1 DUP5 SWAP1 PUSH4 0x317F435 SWAP1 PUSH1 0x24 ADD PUSH1 0x20 PUSH1 0x40 MLOAD DUP1 DUP4 SUB DUP2 DUP7 GAS DELEGATECALL ISZERO DUP1 ISZERO PUSH2 0xB07 JUMPI RETURNDATASIZE PUSH1 0x0 DUP1 RETURNDATACOPY RETURNDATASIZE PUSH1 0x0 REVERT JUMPDEST POP POP POP POP PUSH1 0x40 MLOAD RETURNDATASIZE PUSH1 0x1F NOT PUSH1 0x1F DUP3 ADD AND DUP3 ADD DUP1 PUSH1 0x40 MSTORE POP DUP2 ADD SWAP1 PUSH2 0xB2B SWAP2 SWAP1 PUSH2 0x1009 JUMP JUMPDEST PUSH2 0xB35 SWAP2 SWAP1 PUSH2 0x1167 JUMP JUMPDEST PUSH1 0x40 MLOAD PUSH1 0x1 PUSH1 0x1 PUSH1 0xE0 SHL SUB NOT PUSH1 0xE0 DUP6 SWAP1 SHL AND DUP2 MSTORE PUSH1 0x4 DUP2 ADD SWAP3 SWAP1 SWAP3 MSTORE PUSH1 0xFF AND PUSH1 0x24 DUP3 ADD MSTORE PUSH1 0x44 ADD PUSH1 0x20 PUSH1 0x40 MLOAD DUP1 DUP4 SUB DUP2 DUP7 GAS DELEGATECALL ISZERO DUP1 ISZERO PUSH2 0xB79 JUMPI RETURNDATASIZE PUSH1 0x0 DUP1 RETURNDATACOPY RETURNDATASIZE PUSH1 0x0 REVERT JUMPDEST POP POP POP POP PUSH1 0x40 MLOAD RETURNDATASIZE PUSH1 0x1F NOT PUSH1 0x1F DUP3 ADD AND DUP3 ADD DUP1 PUSH1 0x40 MSTORE POP DUP2 ADD SWAP1 PUSH2 0xB9D SWAP2 SWAP1 PUSH2 0x112F JUMP JUMPDEST SWAP7 POP PUSH20 0x0 PUSH4 0xB52B6659 DUP10 PUSH1 0x0 PUSH1 0x14 SWAP1 SLOAD SWAP1 PUSH2 0x100 EXP SWAP1 DIV PUSH1 0xFF AND PUSH20 0x0 PUSH4 0x317F435 DUP14 PUSH1 0x40 MLOAD DUP3 PUSH4 0xFFFFFFFF AND PUSH1 0xE0 SHL DUP2 MSTORE PUSH1 0x4 ADD PUSH2 0xC03 SWAP2 DUP2 MSTORE PUSH1 0x20 ADD SWAP1 JUMP JUMPDEST PUSH1 0x20 PUSH1 0x40 MLOAD DUP1 DUP4 SUB DUP2 DUP7 GAS DELEGATECALL ISZERO DUP1 ISZERO PUSH2 0xC20 JUMPI RETURNDATASIZE PUSH1 0x0 DUP1 RETURNDATACOPY RETURNDATASIZE PUSH1 0x0 REVERT JUMPDEST POP POP POP POP PUSH1 0x40 MLOAD RETURNDATASIZE PUSH1 0x1F NOT PUSH1 0x1F DUP3 ADD AND DUP3 ADD DUP1 PUSH1 0x40 MSTORE POP DUP2 ADD SWAP1 PUSH2 0xC44 SWAP2 SWAP1 PUSH2 0x1009 JUMP JUMPDEST PUSH2 0xC4E SWAP2 SWAP1 PUSH2 0x1167 JUMP JUMPDEST PUSH1 0x40 MLOAD PUSH1 0x1 PUSH1 0x1 PUSH1 0xE0 SHL SUB NOT PUSH1 0xE0 DUP6 SWAP1 SHL AND DUP2 MSTORE PUSH1 0x4 DUP2 ADD SWAP3 SWAP1 SWAP3 MSTORE PUSH1 0xFF AND PUSH1 0x24 DUP3 ADD MSTORE PUSH1 0x44 ADD PUSH1 0x20 PUSH1 0x40 MLOAD DUP1 DUP4 SUB DUP2 DUP7 GAS DELEGATECALL ISZERO DUP1 ISZERO PUSH2 0xC92 JUMPI RETURNDATASIZE PUSH1 0x0 DUP1 RETURNDATACOPY RETURNDATASIZE PUSH1 0x0 REVERT JUMPDEST POP POP POP POP PUSH1 0x40 MLOAD RETURNDATASIZE PUSH1 0x1F NOT PUSH1 0x1F DUP3 ADD AND DUP3 ADD DUP1 PUSH1 0x40 MSTORE POP DUP2 ADD SWAP1 PUSH2 0xCB6 SWAP2 SWAP1 PUSH2 0x112F JUMP JUMPDEST SWAP6 POP JUMPDEST PUSH1 0x40 MLOAD PUSH4 0x8DE97F4F PUSH1 0xE0 SHL DUP2 MSTORE PUSH1 0x4 DUP2 ADD DUP7 SWAP1 MSTORE PUSH4 0xFFFFFFFF DUP5 AND PUSH1 0x24 DUP3 ADD MSTORE PUSH20 0x0 SWAP1 PUSH4 0x8DE97F4F SWAP1 PUSH1 0x44 ADD PUSH1 0x20 PUSH1 0x40 MLOAD DUP1 DUP4 SUB DUP2 DUP7 GAS DELEGATECALL ISZERO DUP1 ISZERO PUSH2 0xD15 JUMPI RETURNDATASIZE PUSH1 0x0 DUP1 RETURNDATACOPY RETURNDATASIZE PUSH1 0x0 REVERT JUMPDEST POP POP POP POP PUSH1 0x40 MLOAD RETURNDATASIZE PUSH1 0x1F NOT PUSH1 0x1F DUP3 ADD AND DUP3 ADD DUP1 PUSH1 0x40 MSTORE POP DUP2 ADD SWAP1 PUSH2 0xD39 SWAP2 SWAP1 PUSH2 0x112F JUMP JUMPDEST PUSH1 0x40 MLOAD PUSH4 0xB52B6659 PUSH1 0xE0 SHL DUP2 MSTORE PUSH1 0x4 DUP2 ADD DUP3 SWAP1 MSTORE PUSH1 0x1 PUSH1 0x24 DUP3 ADD MSTORE SWAP1 SWAP6 POP PUSH20 0x0 SWAP1 PUSH4 0xB52B6659 SWAP1 PUSH1 0x44 ADD PUSH1 0x20 PUSH1 0x40 MLOAD DUP1 DUP4 SUB DUP2 DUP7 GAS DELEGATECALL ISZERO DUP1 ISZERO PUSH2 0xD93 JUMPI RETURNDATASIZE PUSH1 0x0 DUP1 RETURNDATACOPY RETURNDATASIZE PUSH1 0x0 REVERT JUMPDEST POP POP POP POP PUSH1 0x40 MLOAD RETURNDATASIZE PUSH1 0x1F NOT PUSH1 0x1F DUP3 ADD AND DUP3 ADD DUP1 PUSH1 0x40 MSTORE POP DUP2 ADD SWAP1 PUSH2 0xDB7 SWAP2 SWAP1 PUSH2 0x112F JUMP JUMPDEST SWAP5 POP POP POP POP POP SWAP3 POP SWAP3 POP SWAP3 JUMP JUMPDEST PUSH2 0xDCC PUSH2 0xE3D JUMP JUMPDEST PUSH1 0x1 PUSH1 0x1 PUSH1 0xA0 SHL SUB DUP2 AND PUSH2 0xE31 JUMPI PUSH1 0x40 MLOAD PUSH3 0x461BCD PUSH1 0xE5 SHL DUP2 MSTORE PUSH1 0x20 PUSH1 0x4 DUP3 ADD MSTORE PUSH1 0x26 PUSH1 0x24 DUP3 ADD MSTORE PUSH32 0x4F776E61626C653A206E6577206F776E657220697320746865207A65726F2061 PUSH1 0x44 DUP3 ADD MSTORE PUSH6 0x646472657373 PUSH1 0xD0 SHL PUSH1 0x64 DUP3 ADD MSTORE PUSH1 0x84 ADD PUSH2 0x3CB JUMP JUMPDEST PUSH2 0xE3A DUP2 PUSH2 0xE97 JUMP JUMPDEST POP JUMP JUMPDEST PUSH1 0x0 SLOAD PUSH1 0x1 PUSH1 0x1 PUSH1 0xA0 SHL SUB AND CALLER EQ PUSH2 0x2AA JUMPI PUSH1 0x40 MLOAD PUSH3 0x461BCD PUSH1 0xE5 SHL DUP2 MSTORE PUSH1 0x20 PUSH1 0x4 DUP3 ADD DUP2 SWAP1 MSTORE PUSH1 0x24 DUP3 ADD MSTORE PUSH32 0x4F776E61626C653A2063616C6C6572206973206E6F7420746865206F776E6572 PUSH1 0x44 DUP3 ADD MSTORE PUSH1 0x64 ADD PUSH2 0x3CB JUMP JUMPDEST PUSH1 0x0 DUP1 SLOAD PUSH1 0x1 PUSH1 0x1 PUSH1 0xA0 SHL SUB DUP4 DUP2 AND PUSH1 0x1 PUSH1 0x1 PUSH1 0xA0 SHL SUB NOT DUP4 AND DUP2 OR DUP5 SSTORE PUSH1 0x40 MLOAD SWAP2 SWAP1 SWAP3 AND SWAP3 DUP4 SWAP2 PUSH32 0x8BE0079C531659141344CD1FD0A4F28419497F9722A3DAAFE3B4186F6B6457E0 SWAP2 SWAP1 LOG3 POP POP JUMP JUMPDEST PUSH1 0x0 DUP4 DUP6 GT PUSH2 0xEF8 JUMPI POP PUSH1 0x0 PUSH2 0xF1B JUMP JUMPDEST DUP3 DUP3 PUSH2 0xF04 DUP7 DUP9 PUSH2 0x10D8 JUMP JUMPDEST PUSH2 0xF0E SWAP2 SWAP1 PUSH2 0x10F1 JUMP JUMPDEST PUSH2 0xF18 SWAP2 SWAP1 PUSH2 0x1108 JUMP JUMPDEST SWAP1 POP JUMPDEST SWAP5 SWAP4 POP POP POP POP JUMP JUMPDEST PUSH1 0x0 PUSH2 0xF2F DUP4 DUP4 PUSH2 0x10D8 JUMP JUMPDEST PUSH1 0x40 DUP1 MLOAD PUSH1 0x20 DUP2 ADD DUP9 SWAP1 MSTORE SWAP1 DUP2 ADD DUP7 SWAP1 MSTORE PUSH1 0x60 ADD PUSH1 0x40 MLOAD PUSH1 0x20 DUP2 DUP4 SUB SUB DUP2 MSTORE SWAP1 PUSH1 0x40 MSTORE DUP1 MLOAD SWAP1 PUSH1 0x20 ADD KECCAK256 PUSH1 0x0 SHR PUSH2 0xF66 SWAP2 SWAP1 PUSH2 0x1180 JUMP JUMPDEST SWAP1 POP PUSH2 0xF18 DUP2 DUP5 PUSH2 0x111C JUMP JUMPDEST PUSH1 0x0 PUSH1 0x20 DUP3 DUP5 SUB SLT ISZERO PUSH2 0xF84 JUMPI PUSH1 0x0 DUP1 REVERT JUMPDEST POP CALLDATALOAD SWAP2 SWAP1 POP JUMP JUMPDEST PUSH1 0xFF DUP2 AND DUP2 EQ PUSH2 0xE3A JUMPI PUSH1 0x0 DUP1 REVERT JUMPDEST PUSH1 0x0 PUSH1 0x20 DUP3 DUP5 SUB SLT ISZERO PUSH2 0xFAC JUMPI PUSH1 0x0 DUP1 REVERT JUMPDEST DUP2 CALLDATALOAD PUSH2 0xFB7 DUP2 PUSH2 0xF8B JUMP JUMPDEST SWAP4 SWAP3 POP POP POP JUMP JUMPDEST PUSH1 0x0 DUP1 PUSH1 0x40 DUP4 DUP6 SUB SLT ISZERO PUSH2 0xFD1 JUMPI PUSH1 0x0 DUP1 REVERT JUMPDEST POP POP DUP1 CALLDATALOAD SWAP3 PUSH1 0x20 SWAP1 SWAP2 ADD CALLDATALOAD SWAP2 POP JUMP JUMPDEST PUSH1 0x0 PUSH1 0x20 DUP3 DUP5 SUB SLT ISZERO PUSH2 0xFF2 JUMPI PUSH1 0x0 DUP1 REVERT JUMPDEST DUP2 CALLDATALOAD PUSH1 0x1 PUSH1 0x1 PUSH1 0xA0 SHL SUB DUP2 AND DUP2 EQ PUSH2 0xFB7 JUMPI PUSH1 0x0 DUP1 REVERT JUMPDEST PUSH1 0x0 PUSH1 0x20 DUP3 DUP5 SUB SLT ISZERO PUSH2 0x101B JUMPI PUSH1 0x0 DUP1 REVERT JUMPDEST DUP2 MLOAD PUSH2 0xFB7 DUP2 PUSH2 0xF8B JUMP JUMPDEST PUSH4 0x4E487B71 PUSH1 0xE0 SHL PUSH1 0x0 MSTORE PUSH1 0x11 PUSH1 0x4 MSTORE PUSH1 0x24 PUSH1 0x0 REVERT JUMPDEST PUSH1 0x0 PUSH1 0x1 DUP3 ADD PUSH2 0x104E JUMPI PUSH2 0x104E PUSH2 0x1026 JUMP JUMPDEST POP PUSH1 0x1 ADD SWAP1 JUMP JUMPDEST PUSH1 0x0 PUSH1 0x20 DUP3 DUP5 SUB SLT ISZERO PUSH2 0x1067 JUMPI PUSH1 0x0 DUP1 REVERT JUMPDEST DUP2 MLOAD PUSH4 0xFFFFFFFF DUP2 AND DUP2 EQ PUSH2 0xFB7 JUMPI PUSH1 0x0 DUP1 REVERT JUMPDEST PUSH4 0xFFFFFFFF DUP2 DUP2 AND DUP4 DUP3 AND ADD SWAP1 DUP1 DUP3 GT ISZERO PUSH2 0x1098 JUMPI PUSH2 0x1098 PUSH2 0x1026 JUMP JUMPDEST POP SWAP3 SWAP2 POP POP JUMP JUMPDEST PUSH4 0x4E487B71 PUSH1 0xE0 SHL PUSH1 0x0 MSTORE PUSH1 0x12 PUSH1 0x4 MSTORE PUSH1 0x24 PUSH1 0x0 REVERT JUMPDEST PUSH1 0x0 PUSH4 0xFFFFFFFF DUP1 DUP5 AND DUP1 PUSH2 0x10CC JUMPI PUSH2 0x10CC PUSH2 0x109F JUMP JUMPDEST SWAP3 AND SWAP2 SWAP1 SWAP2 DIV SWAP3 SWAP2 POP POP JUMP JUMPDEST DUP2 DUP2 SUB DUP2 DUP2 GT ISZERO PUSH2 0x10EB JUMPI PUSH2 0x10EB PUSH2 0x1026 JUMP JUMPDEST SWAP3 SWAP2 POP POP JUMP JUMPDEST DUP1 DUP3 MUL DUP2 ISZERO DUP3 DUP3 DIV DUP5 EQ OR PUSH2 0x10EB JUMPI PUSH2 0x10EB PUSH2 0x1026 JUMP JUMPDEST PUSH1 0x0 DUP3 PUSH2 0x1117 JUMPI PUSH2 0x1117 PUSH2 0x109F JUMP JUMPDEST POP DIV SWAP1 JUMP JUMPDEST DUP1 DUP3 ADD DUP1 DUP3 GT ISZERO PUSH2 0x10EB JUMPI PUSH2 0x10EB PUSH2 0x1026 JUMP JUMPDEST PUSH1 0x0 PUSH1 0x20 DUP3 DUP5 SUB SLT ISZERO PUSH2 0x1141 JUMPI PUSH1 0x0 DUP1 REVERT JUMPDEST POP MLOAD SWAP2 SWAP1 POP JUMP JUMPDEST PUSH1 0x0 PUSH1 0xFF DUP3 AND PUSH1 0xFF DUP2 SUB PUSH2 0x115E JUMPI PUSH2 0x115E PUSH2 0x1026 JUMP JUMPDEST PUSH1 0x1 ADD SWAP3 SWAP2 POP POP JUMP JUMPDEST PUSH1 0xFF DUP3 DUP2 AND DUP3 DUP3 AND SUB SWAP1 DUP2 GT ISZERO PUSH2 0x10EB JUMPI PUSH2 0x10EB PUSH2 0x1026 JUMP JUMPDEST PUSH1 0x0 DUP3 PUSH2 0x118F JUMPI PUSH2 0x118F PUSH2 0x109F JUMP JUMPDEST POP MOD SWAP1 JUMP INVALID LOG2 PUSH5 0x6970667358 0x22 SLT KECCAK256 0xEB PUSH28 0x3DFD59D12B614C8EF35E95704C186086562B55FBDB6FB8E02C94EFF8 0xA8 0xB1 PUSH5 0x736F6C6343 STOP ADDMOD SGT STOP CALLER "
		},
		"gasEstimates": {
			"creation": {
				"codeDepositCost": "910800",
				"executionCost": "183655",
				"totalCost": "1094455"
			},
			"external": {
				"breading(uint256,uint256)": "infinite",
				"getBreedingChargePrice()": "2357",
				"getGlobalSeed()": "2392",
				"getMaxArcane()": "2348",
				"getMaxId()": "2348",
				"getMinArcane()": "2293",
				"getMinId()": "2369",
				"getRandomPercent()": "2303",
				"owner()": "2324",
				"renounceOwnership()": "infinite",
				"setBreedingChargePrice(uint8)": "26805",
				"setGlobalSeed(uint256)": "24512",
				"setMaxArcane(uint256)": "24578",
				"setMaxId(uint256)": "24556",
				"setMinArcane(uint256)": "24533",
				"setMinId(uint256)": "24532",
				"setRandomPercent(uint256)": "24534",
				"transferOwnership(address)": "28408"
			},
			"internal": {
				"getArcanePercent(uint256,uint256,uint256,uint256)": "infinite",
				"random(uint256,uint256,uint256,uint256)": "infinite"
			}
		},
		"methodIdentifiers": {
			"breading(uint256,uint256)": "e4a13fb7",
			"getBreedingChargePrice()": "43aed9dc",
			"getGlobalSeed()": "878cf3a6",
			"getMaxArcane()": "615ebe28",
			"getMaxId()": "d477a712",
			"getMinArcane()": "32099cc4",
			"getMinId()": "eb4b0e51",
			"getRandomPercent()": "e238b8c6",
			"owner()": "8da5cb5b",
			"renounceOwnership()": "715018a6",
			"setBreedingChargePrice(uint8)": "d6412cfd",
			"setGlobalSeed(uint256)": "02aff378",
			"setMaxArcane(uint256)": "1bb39f84",
			"setMaxId(uint256)": "16bd8646",
			"setMinArcane(uint256)": "91b66725",
			"setMinId(uint256)": "e2e3a0db",
			"setRandomPercent(uint256)": "054fee6a",
			"transferOwnership(address)": "f2fde38b"
		}
	},
	"abi": [
		{
			"anonymous": false,
			"inputs": [
				{
					"indexed": true,
					"internalType": "address",
					"name": "previousOwner",
					"type": "address"
				},
				{
					"indexed": true,
					"internalType": "address",
					"name": "newOwner",
					"type": "address"
				}
			],
			"name": "OwnershipTransferred",
			"type": "event"
		},
		{
			"inputs": [
				{
					"internalType": "uint256",
					"name": "momIn",
					"type": "uint256"
				},
				{
					"internalType": "uint256",
					"name": "dadIn",
					"type": "uint256"
				}
			],
			"name": "breading",
			"outputs": [
				{
					"internalType": "uint256",
					"name": "momOut",
					"type": "uint256"
				},
				{
					"internalType": "uint256",
					"name": "dadOut",
					"type": "uint256"
				},
				{
					"internalType": "uint256",
					"name": "genes",
					"type": "uint256"
				}
			],
			"stateMutability": "nonpayable",
			"type": "function"
		},
		{
			"inputs": [],
			"name": "getBreedingChargePrice",
			"outputs": [
				{
					"internalType": "uint8",
					"name": "",
					"type": "uint8"
				}
			],
			"stateMutability": "view",
			"type": "function"
		},
		{
			"inputs": [],
			"name": "getGlobalSeed",
			"outputs": [
				{
					"internalType": "uint256",
					"name": "",
					"type": "uint256"
				}
			],
			"stateMutability": "view",
			"type": "function"
		},
		{
			"inputs": [],
			"name": "getMaxArcane",
			"outputs": [
				{
					"internalType": "uint256",
					"name": "",
					"type": "uint256"
				}
			],
			"stateMutability": "view",
			"type": "function"
		},
		{
			"inputs": [],
			"name": "getMaxId",
			"outputs": [
				{
					"internalType": "uint256",
					"name": "",
					"type": "uint256"
				}
			],
			"stateMutability": "view",
			"type": "function"
		},
		{
			"inputs": [],
			"name": "getMinArcane",
			"outputs": [
				{
					"internalType": "uint256",
					"name": "",
					"type": "uint256"
				}
			],
			"stateMutability": "view",
			"type": "function"
		},
		{
			"inputs": [],
			"name": "getMinId",
			"outputs": [
				{
					"internalType": "uint256",
					"name": "",
					"type": "uint256"
				}
			],
			"stateMutability": "view",
			"type": "function"
		},
		{
			"inputs": [],
			"name": "getRandomPercent",
			"outputs": [
				{
					"internalType": "uint256",
					"name": "",
					"type": "uint256"
				}
			],
			"stateMutability": "view",
			"type": "function"
		},
		{
			"inputs": [],
			"name": "owner",
			"outputs": [
				{
					"internalType": "address",
					"name": "",
					"type": "address"
				}
			],
			"stateMutability": "view",
			"type": "function"
		},
		{
			"inputs": [],
			"name": "renounceOwnership",
			"outputs": [],
			"stateMutability": "nonpayable",
			"type": "function"
		},
		{
			"inputs": [
				{
					"internalType": "uint8",
					"name": "price",
					"type": "uint8"
				}
			],
			"name": "setBreedingChargePrice",
			"outputs": [],
			"stateMutability": "nonpayable",
			"type": "function"
		},
		{
			"inputs": [
				{
					"internalType": "uint256",
					"name": "value",
					"type": "uint256"
				}
			],
			"name": "setGlobalSeed",
			"outputs": [],
			"stateMutability": "nonpayable",
			"type": "function"
		},
		{
			"inputs": [
				{
					"internalType": "uint256",
					"name": "value",
					"type": "uint256"
				}
			],
			"name": "setMaxArcane",
			"outputs": [],
			"stateMutability": "nonpayable",
			"type": "function"
		},
		{
			"inputs": [
				{
					"internalType": "uint256",
					"name": "value",
					"type": "uint256"
				}
			],
			"name": "setMaxId",
			"outputs": [],
			"stateMutability": "nonpayable",
			"type": "function"
		},
		{
			"inputs": [
				{
					"internalType": "uint256",
					"name": "value",
					"type": "uint256"
				}
			],
			"name": "setMinArcane",
			"outputs": [],
			"stateMutability": "nonpayable",
			"type": "function"
		},
		{
			"inputs": [
				{
					"internalType": "uint256",
					"name": "value",
					"type": "uint256"
				}
			],
			"name": "setMinId",
			"outputs": [],
			"stateMutability": "nonpayable",
			"type": "function"
		},
		{
			"inputs": [
				{
					"internalType": "uint256",
					"name": "value",
					"type": "uint256"
				}
			],
			"name": "setRandomPercent",
			"outputs": [],
			"stateMutability": "nonpayable",
			"type": "function"
		},
		{
			"inputs": [
				{
					"internalType": "address",
					"name": "newOwner",
					"type": "address"
				}
			],
			"name": "transferOwnership",
			"outputs": [],
			"stateMutability": "nonpayable",
			"type": "function"
		}
	]
}