{
	"data": {
		"bytecode": {
			"linkReferences": {
				"contracts/common/GenesUtil.sol": {
					"GenesUtil": [
						{
							"length": 20,
							"start": 3346
						},
						{
							"length": 20,
							"start": 5346
						},
						{
							"length": 20,
							"start": 5599
						}
					]
				}
			},
			"object": "60c06040526005608090815264173539b7b760d91b60a052600d9062000026908262000239565b506001600e556024600f553480156200003e57600080fd5b506040518060400160405280600881526020016729b437aa37b5b2b760c11b8152506040518060400160405280600681526020016529a427aa25a760d11b815250816000908162000090919062000239565b5060016200009f828262000239565b505050620000bc620000b6620000c260201b60201c565b620000de565b62000305565b6000620000d96200013060201b62000dd51760201c565b905090565b600680546001600160a01b038381166001600160a01b0319831681179093556040519116919082907f8be0079c531659141344cd1fd0a4f28419497f9722a3daafe3b4186f6b6457e090600090a35050565b6000601436108015906200014a57506200014a3362000162565b156200015d575060131936013560601c90565b503390565b60006200017a826200018060201b62000e031760201c565b92915050565b6007546001600160a01b0391821691161490565b634e487b7160e01b600052604160045260246000fd5b600181811c90821680620001bf57607f821691505b602082108103620001e057634e487b7160e01b600052602260045260246000fd5b50919050565b601f8211156200023457600081815260208120601f850160051c810160208610156200020f5750805b601f850160051c820191505b8181101562000230578281556001016200021b565b5050505b505050565b81516001600160401b0381111562000255576200025562000194565b6200026d81620002668454620001aa565b84620001e6565b602080601f831160018114620002a557600084156200028c5750858301515b600019600386901b1c1916600185901b17855562000230565b600085815260208120601f198616915b82811015620002d657888601518255948401946001909101908401620002b5565b5085821015620002f55787850151600019600388901b60f8161c191681555b5050505050600190811b01905550565b61236580620003156000396000f3fe608060405234801561001057600080fd5b50600436106102065760003560e01c806395d89b411161011a578063d477a712116100ad578063e8a3d4851161007c578063e8a3d48514610469578063e985e9c514610471578063eb4b0e51146104ad578063f2fde38b146104b5578063fbbe20a9146104c857600080fd5b8063d477a712146103f3578063da3ef23f146103fb578063e2e3a0db1461040e578063e4b50cb81461042157600080fd5b8063b88d4fde116100e9578063b88d4fde146103ab578063c3b1f0b4146103be578063c87b56dd146103cf578063ce1b815f146103e257600080fd5b806395d89b411461036a578063a0712d6814610372578063a22cb46514610385578063afa69d491461039857600080fd5b806342842e0e1161019d57806370a082311161016c57806370a0823114610318578063715018a61461032b5780638c5527cf146103335780638da5cb5b14610346578063938e3d7b1461035757600080fd5b806342842e0e146102cc57806355f804b3146102df578063572b6c05146102f25780636352211e1461030557600080fd5b806316bd8646116101d957806316bd86461461028857806318160ddd1461029b57806323b872dd146102b15780633ccfd60b146102c457600080fd5b806301ffc9a71461020b57806306fdde0314610233578063081812fc14610248578063095ea7b314610273575b600080fd5b61021e610219366004611a73565b6104db565b60405190151581526020015b60405180910390f35b61023b61052d565b60405161022a9190611ae7565b61025b610256366004611afa565b6105bf565b6040516001600160a01b03909116815260200161022a565b610286610281366004611b2a565b6105e6565b005b610286610296366004611afa565b610712565b6102a361071f565b60405190815260200161022a565b6102866102bf366004611b54565b61072f565b610286610767565b6102866102da366004611b54565b6107e3565b6102866102ed366004611c1c565b6107fe565b61021e610300366004611c65565b610816565b61025b610313366004611afa565b610830565b6102a3610326366004611c65565b610890565b610286610916565b610286610341366004611c65565b61092a565b6006546001600160a01b031661025b565b610286610365366004611c80565b610954565b61023b610969565b6102a3610380366004611afa565b610978565b610286610393366004611cf2565b610993565b6102866103a6366004611d3d565b6109a5565b6102866103b9366004611d62565b610b30565b600a546001600160a01b031661025b565b61023b6103dd366004611afa565b610b6f565b6007546001600160a01b031661025b565b600f546102a3565b610286610409366004611c1c565b610c13565b61028661041c366004611afa565b610c27565b61044e61042f366004611afa565b6000908152600960205260409020805460018201546002909201549092565b6040805193845260208401929092529082015260600161022a565b61023b610c34565b61021e61047f366004611dde565b6001600160a01b03918216600090815260056020908152604080832093909416825291909152205460ff1690565b600e546102a3565b6102866104c3366004611c65565b610c43565b6102a36104d6366004611e11565b610cb9565b60006001600160e01b031982166380ac58cd60e01b148061050c57506001600160e01b03198216635b5e139f60e01b145b8061052757506301ffc9a760e01b6001600160e01b03198316145b92915050565b60606000805461053c90611e33565b80601f016020809104026020016040519081016040528092919081815260200182805461056890611e33565b80156105b55780601f1061058a576101008083540402835291602001916105b5565b820191906000526020600020905b81548152906001019060200180831161059857829003601f168201915b5050505050905090565b60006105ca82610e17565b506000908152600460205260409020546001600160a01b031690565b60006105f182610830565b9050806001600160a01b0316836001600160a01b0316036106635760405162461bcd60e51b815260206004820152602160248201527f4552433732313a20617070726f76616c20746f2063757272656e74206f776e656044820152603960f91b60648201526084015b60405180910390fd5b806001600160a01b0316610675610e67565b6001600160a01b0316148061069157506106918161047f610e67565b6107035760405162461bcd60e51b815260206004820152603d60248201527f4552433732313a20617070726f76652063616c6c6572206973206e6f7420746f60448201527f6b656e206f776e6572206f7220617070726f76656420666f7220616c6c000000606482015260840161065a565b61070d8383610e71565b505050565b61071a610edf565b600f55565b600061072a60085490565b905090565b61074061073a610e67565b82610f58565b61075c5760405162461bcd60e51b815260040161065a90611e6d565b61070d838383610fd7565b61076f610edf565b60006107836006546001600160a01b031690565b6001600160a01b03164760405160006040518083038185875af1925050503d80600081146107cd576040519150601f19603f3d011682016040523d82523d6000602084013e6107d2565b606091505b50509050806107e057600080fd5b50565b61070d83838360405180602001604052806000815250610b30565b610806610edf565b600c6108128282611f08565b5050565b6000610527826007546001600160a01b0391821691161490565b6000818152600260205260408120546001600160a01b0316806105275760405162461bcd60e51b8152602060048201526018602482015277115490cdcc8c4e881a5b9d985b1a59081d1bdad95b88125160421b604482015260640161065a565b60006001600160a01b0382166108fa5760405162461bcd60e51b815260206004820152602960248201527f4552433732313a2061646472657373207a65726f206973206e6f7420612076616044820152683634b21037bbb732b960b91b606482015260840161065a565b506001600160a01b031660009081526003602052604090205490565b61091e610edf565b6109286000611148565b565b610932610edf565b600a80546001600160a01b0319166001600160a01b0392909216919091179055565b61095c610edf565b600b61070d828483611fc8565b60606001805461053c90611e33565b6000610982610edf565b6105276000808461119a565b919050565b61081261099e610e67565b838361147c565b6109ad610edf565b6109b68261154a565b6109d25760405162461bcd60e51b815260040161065a90612089565b600082815260096020526040808220600201549051630317f43560e01b81526004810182905290919073__$bc34c519aa7d1b67b54ee96cd6fbdfb8db$__9063b52b665990849086908490630317f43590602401602060405180830381865af4158015610a43573d6000803e3d6000fd5b505050506040513d601f19601f82011682018060405250810190610a6791906120c0565b610a7191906120f3565b6040516001600160e01b031960e085901b168152600481019290925260ff166024820152604401602060405180830381865af4158015610ab5573d6000803e3d6000fd5b505050506040513d601f19601f82011682018060405250810190610ad9919061210c565b60008581526009602090815260409182902060020183905581518781529081018390529192507fa4b06760d9e334049c680f60b4beff0728af9bb459b8698d252972b10c4f3e55910160405180910390a150505050565b610b41610b3b610e67565b83610f58565b610b5d5760405162461bcd60e51b815260040161065a90611e6d565b610b6984848484611567565b50505050565b6060610b7a8261154a565b610bde5760405162461bcd60e51b815260206004820152602f60248201527f4552433732314d657461646174613a2055524920717565727920666f72206e6f60448201526e3732bc34b9ba32b73a103a37b5b2b760891b606482015260840161065a565b600c610be98361159a565b600d604051602001610bfd93929190612198565b6040516020818303038152906040529050919050565b610c1b610edf565b600d6108128282611f08565b610c2f610edf565b600e55565b6060600b805461053c90611e33565b610c4b610edf565b6001600160a01b038116610cb05760405162461bcd60e51b815260206004820152602660248201527f4f776e61626c653a206e6577206f776e657220697320746865207a65726f206160448201526564647265737360d01b606482015260840161065a565b6107e081611148565b6000610cc3610edf565b610ccc8361154a565b610ce85760405162461bcd60e51b815260040161065a90612089565b610cf18261154a565b610d0d5760405162461bcd60e51b815260040161065a90612089565b600083815260096020526040808220848352818320600a5460028084015490830154945163e4a13fb760e01b8152939592949293849384936001600160a01b03169263e4a13fb792610d6b9290600401918252602082015260400190565b6060604051808303816000875af1158015610d8a573d6000803e3d6000fd5b505050506040513d601f19601f82011682018060405250810190610dae91906121cb565b925092509250610dbf88888361119a565b6002958601939093555091909201559392505050565b600060143610801590610dec5750610dec33610816565b15610dfe575060131936013560601c90565b503390565b6007546001600160a01b0391821691161490565b610e208161154a565b6107e05760405162461bcd60e51b8152602060048201526018602482015277115490cdcc8c4e881a5b9d985b1a59081d1bdad95b88125160421b604482015260640161065a565b600061072a610dd5565b600081815260046020526040902080546001600160a01b0319166001600160a01b0384169081179091558190610ea682610830565b6001600160a01b03167f8c5be1e5ebec7d5bd14f71427d1e84f3dd0314c0f7b2291e5b200ac8c7c3b92560405160405180910390a45050565b610ee7610e67565b6001600160a01b0316610f026006546001600160a01b031690565b6001600160a01b0316146109285760405162461bcd60e51b815260206004820181905260248201527f4f776e61626c653a2063616c6c6572206973206e6f7420746865206f776e6572604482015260640161065a565b600080610f6483610830565b9050806001600160a01b0316846001600160a01b03161480610fab57506001600160a01b0380821660009081526005602090815260408083209388168352929052205460ff165b80610fcf5750836001600160a01b0316610fc4846105bf565b6001600160a01b0316145b949350505050565b826001600160a01b0316610fea82610830565b6001600160a01b0316146110105760405162461bcd60e51b815260040161065a906121f9565b6001600160a01b0382166110725760405162461bcd60e51b8152602060048201526024808201527f4552433732313a207472616e7366657220746f20746865207a65726f206164646044820152637265737360e01b606482015260840161065a565b61107f838383600161162d565b826001600160a01b031661109282610830565b6001600160a01b0316146110b85760405162461bcd60e51b815260040161065a906121f9565b600081815260046020908152604080832080546001600160a01b03199081169091556001600160a01b0387811680865260038552838620805460001901905590871680865283862080546001019055868652600290945282852080549092168417909155905184937fddf252ad1be2c89b69c2b068fc378daa952ba7f163c4a11628f55a4df523b3ef91a4505050565b600680546001600160a01b038381166001600160a01b0319831681179093556040519116919082907f8be0079c531659141344cd1fd0a4f28419497f9722a3daafe3b4186f6b6457e090600090a35050565b60006009815b818160ff1610156113b057604051635d2029f160e01b81526004810185905260ff8216602482015260009073__$bc34c519aa7d1b67b54ee96cd6fbdfb8db$__90635d2029f190604401602060405180830381865af4158015611207573d6000803e3d6000fd5b505050506040513d601f19601f8201168201806040525081019061122b91906120c0565b9050600e548160ff16101580156112475750600f548160ff1611155b6112a85760405162461bcd60e51b815260206004820152602c60248201527f6572726f722c20637265617465546f6b656e2c2070617274206964206d75737460448201526b20626520696e2072616e676560a01b606482015260840161065a565b604051631a4cd3f560e11b81526004810186905260ff8316602482015260009073__$bc34c519aa7d1b67b54ee96cd6fbdfb8db$__90633499a7ea90604401602060405180830381865af4158015611304573d6000803e3d6000fd5b505050506040513d601f19601f8201168201806040525081019061132891906120c0565b905060008160ff161161139b5760405162461bcd60e51b815260206004820152603560248201527f6572726f722c20637265617465546f6b656e2c2070617274206c6576656c206d60448201527407573742062652067726561746572207468616e203605c1b606482015260840161065a565b505080806113a89061223e565b9150506111a0565b5060408051606081018252868152602081018690529081018490526113d9600880546001019055565b60006113e460085490565b6000818152600960209081526040918290208551815590850151600182015590840151600290910155905061142a6114246006546001600160a01b031690565b826116b5565b6040805182815260208101899052908101879052606081018690527fb6da9597f5553d5deafc722dcc1f69d5463612674a36bae2aa8698bd86af1c7c9060800160405180910390a19695505050505050565b816001600160a01b0316836001600160a01b0316036114dd5760405162461bcd60e51b815260206004820152601960248201527f4552433732313a20617070726f766520746f2063616c6c657200000000000000604482015260640161065a565b6001600160a01b03838116600081815260056020908152604080832094871680845294825291829020805460ff191686151590811790915591519182527f17307eab39ab6107e8899845ad3d59bd9653f200f220920489ca2b5937696c31910160405180910390a3505050565b6000908152600260205260409020546001600160a01b0316151590565b611572848484610fd7565b61157e848484846116cf565b610b695760405162461bcd60e51b815260040161065a9061225d565b606060006115a7836117d7565b600101905060008167ffffffffffffffff8111156115c7576115c7611b90565b6040519080825280601f01601f1916602001820160405280156115f1576020820181803683370190505b5090508181016020015b600019016f181899199a1a9b1b9c1cb0b131b232b360811b600a86061a8153600a85049450846115fb57509392505050565b6001811115610b69576001600160a01b03841615611673576001600160a01b0384166000908152600360205260408120805483929061166d9084906122af565b90915550505b6001600160a01b03831615610b69576001600160a01b038316600090815260036020526040812080548392906116aa9084906122c2565b909155505050505050565b6108128282604051806020016040528060008152506118af565b60006001600160a01b0384163b156117cc57836001600160a01b031663150b7a026116f8610e67565b8786866040518563ffffffff1660e01b815260040161171a94939291906122d5565b6020604051808303816000875af1925050508015611755575060408051601f3d908101601f1916820190925261175291810190612312565b60015b6117b2573d808015611783576040519150601f19603f3d011682016040523d82523d6000602084013e611788565b606091505b5080516000036117aa5760405162461bcd60e51b815260040161065a9061225d565b805181602001fd5b6001600160e01b031916630a85bd0160e11b149050610fcf565b506001949350505050565b60008072184f03e93ff9f4daa797ed6e38ed64bf6a1f0160401b83106118165772184f03e93ff9f4daa797ed6e38ed64bf6a1f0160401b830492506040015b6d04ee2d6d415b85acef81000000008310611842576d04ee2d6d415b85acef8100000000830492506020015b662386f26fc10000831061186057662386f26fc10000830492506010015b6305f5e1008310611878576305f5e100830492506008015b612710831061188c57612710830492506004015b6064831061189e576064830492506002015b600a83106105275760010192915050565b6118b983836118e2565b6118c660008484846116cf565b61070d5760405162461bcd60e51b815260040161065a9061225d565b6001600160a01b0382166119385760405162461bcd60e51b815260206004820181905260248201527f4552433732313a206d696e7420746f20746865207a65726f2061646472657373604482015260640161065a565b6119418161154a565b1561198e5760405162461bcd60e51b815260206004820152601c60248201527f4552433732313a20746f6b656e20616c7265616479206d696e74656400000000604482015260640161065a565b61199c60008383600161162d565b6119a58161154a565b156119f25760405162461bcd60e51b815260206004820152601c60248201527f4552433732313a20746f6b656e20616c7265616479206d696e74656400000000604482015260640161065a565b6001600160a01b038216600081815260036020908152604080832080546001019055848352600290915280822080546001600160a01b0319168417905551839291907fddf252ad1be2c89b69c2b068fc378daa952ba7f163c4a11628f55a4df523b3ef908290a45050565b6001600160e01b0319811681146107e057600080fd5b600060208284031215611a8557600080fd5b8135611a9081611a5d565b9392505050565b60005b83811015611ab2578181015183820152602001611a9a565b50506000910152565b60008151808452611ad3816020860160208601611a97565b601f01601f19169290920160200192915050565b602081526000611a906020830184611abb565b600060208284031215611b0c57600080fd5b5035919050565b80356001600160a01b038116811461098e57600080fd5b60008060408385031215611b3d57600080fd5b611b4683611b13565b946020939093013593505050565b600080600060608486031215611b6957600080fd5b611b7284611b13565b9250611b8060208501611b13565b9150604084013590509250925092565b634e487b7160e01b600052604160045260246000fd5b600067ffffffffffffffff80841115611bc157611bc1611b90565b604051601f8501601f19908116603f01168101908282118183101715611be957611be9611b90565b81604052809350858152868686011115611c0257600080fd5b858560208301376000602087830101525050509392505050565b600060208284031215611c2e57600080fd5b813567ffffffffffffffff811115611c4557600080fd5b8201601f81018413611c5657600080fd5b610fcf84823560208401611ba6565b600060208284031215611c7757600080fd5b611a9082611b13565b60008060208385031215611c9357600080fd5b823567ffffffffffffffff80821115611cab57600080fd5b818501915085601f830112611cbf57600080fd5b813581811115611cce57600080fd5b866020828501011115611ce057600080fd5b60209290920196919550909350505050565b60008060408385031215611d0557600080fd5b611d0e83611b13565b915060208301358015158114611d2357600080fd5b809150509250929050565b60ff811681146107e057600080fd5b60008060408385031215611d5057600080fd5b823591506020830135611d2381611d2e565b60008060008060808587031215611d7857600080fd5b611d8185611b13565b9350611d8f60208601611b13565b925060408501359150606085013567ffffffffffffffff811115611db257600080fd5b8501601f81018713611dc357600080fd5b611dd287823560208401611ba6565b91505092959194509250565b60008060408385031215611df157600080fd5b611dfa83611b13565b9150611e0860208401611b13565b90509250929050565b60008060408385031215611e2457600080fd5b50508035926020909101359150565b600181811c90821680611e4757607f821691505b602082108103611e6757634e487b7160e01b600052602260045260246000fd5b50919050565b6020808252602d908201527f4552433732313a2063616c6c6572206973206e6f7420746f6b656e206f776e6560408201526c1c881bdc88185c1c1c9bdd9959609a1b606082015260800190565b601f82111561070d57600081815260208120601f850160051c81016020861015611ee15750805b601f850160051c820191505b81811015611f0057828155600101611eed565b505050505050565b815167ffffffffffffffff811115611f2257611f22611b90565b611f3681611f308454611e33565b84611eba565b602080601f831160018114611f6b5760008415611f535750858301515b600019600386901b1c1916600185901b178555611f00565b600085815260208120601f198616915b82811015611f9a57888601518255948401946001909101908401611f7b565b5085821015611fb85787850151600019600388901b60f8161c191681555b5050505050600190811b01905550565b67ffffffffffffffff831115611fe057611fe0611b90565b611ff483611fee8354611e33565b83611eba565b6000601f84116001811461202857600085156120105750838201355b600019600387901b1c1916600186901b178355612082565b600083815260209020601f19861690835b828110156120595786850135825560209485019460019092019101612039565b50868210156120765760001960f88860031b161c19848701351681555b505060018560011b0183555b5050505050565b6020808252601b908201527f717565727920666f72206e6f6e6578697374656e7420746f6b656e0000000000604082015260600190565b6000602082840312156120d257600080fd5b8151611a9081611d2e565b634e487b7160e01b600052601160045260246000fd5b60ff8181168382160190811115610527576105276120dd565b60006020828403121561211e57600080fd5b5051919050565b6000815461213281611e33565b6001828116801561214a576001811461215f5761218e565b60ff198416875282151583028701945061218e565b8560005260208060002060005b858110156121855781548a82015290840190820161216c565b50505082870194505b5050505092915050565b60006121a48286612125565b84516121b4818360208901611a97565b6121c081830186612125565b979650505050505050565b6000806000606084860312156121e057600080fd5b8351925060208401519150604084015190509250925092565b60208082526025908201527f4552433732313a207472616e736665722066726f6d20696e636f72726563742060408201526437bbb732b960d91b606082015260800190565b600060ff821660ff8103612254576122546120dd565b60010192915050565b60208082526032908201527f4552433732313a207472616e7366657220746f206e6f6e20455243373231526560408201527131b2b4bb32b91034b6b83632b6b2b73a32b960711b606082015260800190565b81810381811115610527576105276120dd565b80820180821115610527576105276120dd565b6001600160a01b038581168252841660208201526040810183905260806060820181905260009061230890830184611abb565b9695505050505050565b60006020828403121561232457600080fd5b8151611a9081611a5d56fea2646970667358221220e1053b9973fdda0bde0b4806c75c09509a9ce09e34848957a59ddbd74f67dcea64736f6c63430008120033",
			"opcodes": "PUSH1 0xC0 PUSH1 0x40 MSTORE PUSH1 0x5 PUSH1 0x80 SWAP1 DUP2 MSTORE PUSH5 0x173539B7B7 PUSH1 0xD9 SHL PUSH1 0xA0 MSTORE PUSH1 0xD SWAP1 PUSH3 0x26 SWAP1 DUP3 PUSH3 0x239 JUMP JUMPDEST POP PUSH1 0x1 PUSH1 0xE SSTORE PUSH1 0x24 PUSH1 0xF SSTORE CALLVALUE DUP1 ISZERO PUSH3 0x3E JUMPI PUSH1 0x0 DUP1 REVERT JUMPDEST POP PUSH1 0x40 MLOAD DUP1 PUSH1 0x40 ADD PUSH1 0x40 MSTORE DUP1 PUSH1 0x8 DUP2 MSTORE PUSH1 0x20 ADD PUSH8 0x29B437AA37B5B2B7 PUSH1 0xC1 SHL DUP2 MSTORE POP PUSH1 0x40 MLOAD DUP1 PUSH1 0x40 ADD PUSH1 0x40 MSTORE DUP1 PUSH1 0x6 DUP2 MSTORE PUSH1 0x20 ADD PUSH6 0x29A427AA25A7 PUSH1 0xD1 SHL DUP2 MSTORE POP DUP2 PUSH1 0x0 SWAP1 DUP2 PUSH3 0x90 SWAP2 SWAP1 PUSH3 0x239 JUMP JUMPDEST POP PUSH1 0x1 PUSH3 0x9F DUP3 DUP3 PUSH3 0x239 JUMP JUMPDEST POP POP POP PUSH3 0xBC PUSH3 0xB6 PUSH3 0xC2 PUSH1 0x20 SHL PUSH1 0x20 SHR JUMP JUMPDEST PUSH3 0xDE JUMP JUMPDEST PUSH3 0x305 JUMP JUMPDEST PUSH1 0x0 PUSH3 0xD9 PUSH3 0x130 PUSH1 0x20 SHL PUSH3 0xDD5 OR PUSH1 0x20 SHR JUMP JUMPDEST SWAP1 POP SWAP1 JUMP JUMPDEST PUSH1 0x6 DUP1 SLOAD PUSH1 0x1 PUSH1 0x1 PUSH1 0xA0 SHL SUB DUP4 DUP2 AND PUSH1 0x1 PUSH1 0x1 PUSH1 0xA0 SHL SUB NOT DUP4 AND DUP2 OR SWAP1 SWAP4 SSTORE PUSH1 0x40 MLOAD SWAP2 AND SWAP2 SWAP1 DUP3 SWAP1 PUSH32 0x8BE0079C531659141344CD1FD0A4F28419497F9722A3DAAFE3B4186F6B6457E0 SWAP1 PUSH1 0x0 SWAP1 LOG3 POP POP JUMP JUMPDEST PUSH1 0x0 PUSH1 0x14 CALLDATASIZE LT DUP1 ISZERO SWAP1 PUSH3 0x14A JUMPI POP PUSH3 0x14A CALLER PUSH3 0x162 JUMP JUMPDEST ISZERO PUSH3 0x15D JUMPI POP PUSH1 0x13 NOT CALLDATASIZE ADD CALLDATALOAD PUSH1 0x60 SHR SWAP1 JUMP JUMPDEST POP CALLER SWAP1 JUMP JUMPDEST PUSH1 0x0 PUSH3 0x17A DUP3 PUSH3 0x180 PUSH1 0x20 SHL PUSH3 0xE03 OR PUSH1 0x20 SHR JUMP JUMPDEST SWAP3 SWAP2 POP POP JUMP JUMPDEST PUSH1 0x7 SLOAD PUSH1 0x1 PUSH1 0x1 PUSH1 0xA0 SHL SUB SWAP2 DUP3 AND SWAP2 AND EQ SWAP1 JUMP JUMPDEST PUSH4 0x4E487B71 PUSH1 0xE0 SHL PUSH1 0x0 MSTORE PUSH1 0x41 PUSH1 0x4 MSTORE PUSH1 0x24 PUSH1 0x0 REVERT JUMPDEST PUSH1 0x1 DUP2 DUP2 SHR SWAP1 DUP3 AND DUP1 PUSH3 0x1BF JUMPI PUSH1 0x7F DUP3 AND SWAP2 POP JUMPDEST PUSH1 0x20 DUP3 LT DUP2 SUB PUSH3 0x1E0 JUMPI PUSH4 0x4E487B71 PUSH1 0xE0 SHL PUSH1 0x0 MSTORE PUSH1 0x22 PUSH1 0x4 MSTORE PUSH1 0x24 PUSH1 0x0 REVERT JUMPDEST POP SWAP2 SWAP1 POP JUMP JUMPDEST PUSH1 0x1F DUP3 GT ISZERO PUSH3 0x234 JUMPI PUSH1 0x0 DUP2 DUP2 MSTORE PUSH1 0x20 DUP2 KECCAK256 PUSH1 0x1F DUP6 ADD PUSH1 0x5 SHR DUP2 ADD PUSH1 0x20 DUP7 LT ISZERO PUSH3 0x20F JUMPI POP DUP1 JUMPDEST PUSH1 0x1F DUP6 ADD PUSH1 0x5 SHR DUP3 ADD SWAP2 POP JUMPDEST DUP2 DUP2 LT ISZERO PUSH3 0x230 JUMPI DUP3 DUP2 SSTORE PUSH1 0x1 ADD PUSH3 0x21B JUMP JUMPDEST POP POP POP JUMPDEST POP POP POP JUMP JUMPDEST DUP2 MLOAD PUSH1 0x1 PUSH1 0x1 PUSH1 0x40 SHL SUB DUP2 GT ISZERO PUSH3 0x255 JUMPI PUSH3 0x255 PUSH3 0x194 JUMP JUMPDEST PUSH3 0x26D DUP2 PUSH3 0x266 DUP5 SLOAD PUSH3 0x1AA JUMP JUMPDEST DUP5 PUSH3 0x1E6 JUMP JUMPDEST PUSH1 0x20 DUP1 PUSH1 0x1F DUP4 GT PUSH1 0x1 DUP2 EQ PUSH3 0x2A5 JUMPI PUSH1 0x0 DUP5 ISZERO PUSH3 0x28C JUMPI POP DUP6 DUP4 ADD MLOAD JUMPDEST PUSH1 0x0 NOT PUSH1 0x3 DUP7 SWAP1 SHL SHR NOT AND PUSH1 0x1 DUP6 SWAP1 SHL OR DUP6 SSTORE PUSH3 0x230 JUMP JUMPDEST PUSH1 0x0 DUP6 DUP2 MSTORE PUSH1 0x20 DUP2 KECCAK256 PUSH1 0x1F NOT DUP7 AND SWAP2 JUMPDEST DUP3 DUP2 LT ISZERO PUSH3 0x2D6 JUMPI DUP9 DUP7 ADD MLOAD DUP3 SSTORE SWAP5 DUP5 ADD SWAP5 PUSH1 0x1 SWAP1 SWAP2 ADD SWAP1 DUP5 ADD PUSH3 0x2B5 JUMP JUMPDEST POP DUP6 DUP3 LT ISZERO PUSH3 0x2F5 JUMPI DUP8 DUP6 ADD MLOAD PUSH1 0x0 NOT PUSH1 0x3 DUP9 SWAP1 SHL PUSH1 0xF8 AND SHR NOT AND DUP2 SSTORE JUMPDEST POP POP POP POP POP PUSH1 0x1 SWAP1 DUP2 SHL ADD SWAP1 SSTORE POP JUMP JUMPDEST PUSH2 0x2365 DUP1 PUSH3 0x315 PUSH1 0x0 CODECOPY PUSH1 0x0 RETURN INVALID PUSH1 0x80 PUSH1 0x40 MSTORE CALLVALUE DUP1 ISZERO PUSH2 0x10 JUMPI PUSH1 0x0 DUP1 REVERT JUMPDEST POP PUSH1 0x4 CALLDATASIZE LT PUSH2 0x206 JUMPI PUSH1 0x0 CALLDATALOAD PUSH1 0xE0 SHR DUP1 PUSH4 0x95D89B41 GT PUSH2 0x11A JUMPI DUP1 PUSH4 0xD477A712 GT PUSH2 0xAD JUMPI DUP1 PUSH4 0xE8A3D485 GT PUSH2 0x7C JUMPI DUP1 PUSH4 0xE8A3D485 EQ PUSH2 0x469 JUMPI DUP1 PUSH4 0xE985E9C5 EQ PUSH2 0x471 JUMPI DUP1 PUSH4 0xEB4B0E51 EQ PUSH2 0x4AD JUMPI DUP1 PUSH4 0xF2FDE38B EQ PUSH2 0x4B5 JUMPI DUP1 PUSH4 0xFBBE20A9 EQ PUSH2 0x4C8 JUMPI PUSH1 0x0 DUP1 REVERT JUMPDEST DUP1 PUSH4 0xD477A712 EQ PUSH2 0x3F3 JUMPI DUP1 PUSH4 0xDA3EF23F EQ PUSH2 0x3FB JUMPI DUP1 PUSH4 0xE2E3A0DB EQ PUSH2 0x40E JUMPI DUP1 PUSH4 0xE4B50CB8 EQ PUSH2 0x421 JUMPI PUSH1 0x0 DUP1 REVERT JUMPDEST DUP1 PUSH4 0xB88D4FDE GT PUSH2 0xE9 JUMPI DUP1 PUSH4 0xB88D4FDE EQ PUSH2 0x3AB JUMPI DUP1 PUSH4 0xC3B1F0B4 EQ PUSH2 0x3BE JUMPI DUP1 PUSH4 0xC87B56DD EQ PUSH2 0x3CF JUMPI DUP1 PUSH4 0xCE1B815F EQ PUSH2 0x3E2 JUMPI PUSH1 0x0 DUP1 REVERT JUMPDEST DUP1 PUSH4 0x95D89B41 EQ PUSH2 0x36A JUMPI DUP1 PUSH4 0xA0712D68 EQ PUSH2 0x372 JUMPI DUP1 PUSH4 0xA22CB465 EQ PUSH2 0x385 JUMPI DUP1 PUSH4 0xAFA69D49 EQ PUSH2 0x398 JUMPI PUSH1 0x0 DUP1 REVERT JUMPDEST DUP1 PUSH4 0x42842E0E GT PUSH2 0x19D JUMPI DUP1 PUSH4 0x70A08231 GT PUSH2 0x16C JUMPI DUP1 PUSH4 0x70A08231 EQ PUSH2 0x318 JUMPI DUP1 PUSH4 0x715018A6 EQ PUSH2 0x32B JUMPI DUP1 PUSH4 0x8C5527CF EQ PUSH2 0x333 JUMPI DUP1 PUSH4 0x8DA5CB5B EQ PUSH2 0x346 JUMPI DUP1 PUSH4 0x938E3D7B EQ PUSH2 0x357 JUMPI PUSH1 0x0 DUP1 REVERT JUMPDEST DUP1 PUSH4 0x42842E0E EQ PUSH2 0x2CC JUMPI DUP1 PUSH4 0x55F804B3 EQ PUSH2 0x2DF JUMPI DUP1 PUSH4 0x572B6C05 EQ PUSH2 0x2F2 JUMPI DUP1 PUSH4 0x6352211E EQ PUSH2 0x305 JUMPI PUSH1 0x0 DUP1 REVERT JUMPDEST DUP1 PUSH4 0x16BD8646 GT PUSH2 0x1D9 JUMPI DUP1 PUSH4 0x16BD8646 EQ PUSH2 0x288 JUMPI DUP1 PUSH4 0x18160DDD EQ PUSH2 0x29B JUMPI DUP1 PUSH4 0x23B872DD EQ PUSH2 0x2B1 JUMPI DUP1 PUSH4 0x3CCFD60B EQ PUSH2 0x2C4 JUMPI PUSH1 0x0 DUP1 REVERT JUMPDEST DUP1 PUSH4 0x1FFC9A7 EQ PUSH2 0x20B JUMPI DUP1 PUSH4 0x6FDDE03 EQ PUSH2 0x233 JUMPI DUP1 PUSH4 0x81812FC EQ PUSH2 0x248 JUMPI DUP1 PUSH4 0x95EA7B3 EQ PUSH2 0x273 JUMPI JUMPDEST PUSH1 0x0 DUP1 REVERT JUMPDEST PUSH2 0x21E PUSH2 0x219 CALLDATASIZE PUSH1 0x4 PUSH2 0x1A73 JUMP JUMPDEST PUSH2 0x4DB JUMP JUMPDEST PUSH1 0x40 MLOAD SWAP1 ISZERO ISZERO DUP2 MSTORE PUSH1 0x20 ADD JUMPDEST PUSH1 0x40 MLOAD DUP1 SWAP2 SUB SWAP1 RETURN JUMPDEST PUSH2 0x23B PUSH2 0x52D JUMP JUMPDEST PUSH1 0x40 MLOAD PUSH2 0x22A SWAP2 SWAP1 PUSH2 0x1AE7 JUMP JUMPDEST PUSH2 0x25B PUSH2 0x256 CALLDATASIZE PUSH1 0x4 PUSH2 0x1AFA JUMP JUMPDEST PUSH2 0x5BF JUMP JUMPDEST PUSH1 0x40 MLOAD PUSH1 0x1 PUSH1 0x1 PUSH1 0xA0 SHL SUB SWAP1 SWAP2 AND DUP2 MSTORE PUSH1 0x20 ADD PUSH2 0x22A JUMP JUMPDEST PUSH2 0x286 PUSH2 0x281 CALLDATASIZE PUSH1 0x4 PUSH2 0x1B2A JUMP JUMPDEST PUSH2 0x5E6 JUMP JUMPDEST STOP JUMPDEST PUSH2 0x286 PUSH2 0x296 CALLDATASIZE PUSH1 0x4 PUSH2 0x1AFA JUMP JUMPDEST PUSH2 0x712 JUMP JUMPDEST PUSH2 0x2A3 PUSH2 0x71F JUMP JUMPDEST PUSH1 0x40 MLOAD SWAP1 DUP2 MSTORE PUSH1 0x20 ADD PUSH2 0x22A JUMP JUMPDEST PUSH2 0x286 PUSH2 0x2BF CALLDATASIZE PUSH1 0x4 PUSH2 0x1B54 JUMP JUMPDEST PUSH2 0x72F JUMP JUMPDEST PUSH2 0x286 PUSH2 0x767 JUMP JUMPDEST PUSH2 0x286 PUSH2 0x2DA CALLDATASIZE PUSH1 0x4 PUSH2 0x1B54 JUMP JUMPDEST PUSH2 0x7E3 JUMP JUMPDEST PUSH2 0x286 PUSH2 0x2ED CALLDATASIZE PUSH1 0x4 PUSH2 0x1C1C JUMP JUMPDEST PUSH2 0x7FE JUMP JUMPDEST PUSH2 0x21E PUSH2 0x300 CALLDATASIZE PUSH1 0x4 PUSH2 0x1C65 JUMP JUMPDEST PUSH2 0x816 JUMP JUMPDEST PUSH2 0x25B PUSH2 0x313 CALLDATASIZE PUSH1 0x4 PUSH2 0x1AFA JUMP JUMPDEST PUSH2 0x830 JUMP JUMPDEST PUSH2 0x2A3 PUSH2 0x326 CALLDATASIZE PUSH1 0x4 PUSH2 0x1C65 JUMP JUMPDEST PUSH2 0x890 JUMP JUMPDEST PUSH2 0x286 PUSH2 0x916 JUMP JUMPDEST PUSH2 0x286 PUSH2 0x341 CALLDATASIZE PUSH1 0x4 PUSH2 0x1C65 JUMP JUMPDEST PUSH2 0x92A JUMP JUMPDEST PUSH1 0x6 SLOAD PUSH1 0x1 PUSH1 0x1 PUSH1 0xA0 SHL SUB AND PUSH2 0x25B JUMP JUMPDEST PUSH2 0x286 PUSH2 0x365 CALLDATASIZE PUSH1 0x4 PUSH2 0x1C80 JUMP JUMPDEST PUSH2 0x954 JUMP JUMPDEST PUSH2 0x23B PUSH2 0x969 JUMP JUMPDEST PUSH2 0x2A3 PUSH2 0x380 CALLDATASIZE PUSH1 0x4 PUSH2 0x1AFA JUMP JUMPDEST PUSH2 0x978 JUMP JUMPDEST PUSH2 0x286 PUSH2 0x393 CALLDATASIZE PUSH1 0x4 PUSH2 0x1CF2 JUMP JUMPDEST PUSH2 0x993 JUMP JUMPDEST PUSH2 0x286 PUSH2 0x3A6 CALLDATASIZE PUSH1 0x4 PUSH2 0x1D3D JUMP JUMPDEST PUSH2 0x9A5 JUMP JUMPDEST PUSH2 0x286 PUSH2 0x3B9 CALLDATASIZE PUSH1 0x4 PUSH2 0x1D62 JUMP JUMPDEST PUSH2 0xB30 JUMP JUMPDEST PUSH1 0xA SLOAD PUSH1 0x1 PUSH1 0x1 PUSH1 0xA0 SHL SUB AND PUSH2 0x25B JUMP JUMPDEST PUSH2 0x23B PUSH2 0x3DD CALLDATASIZE PUSH1 0x4 PUSH2 0x1AFA JUMP JUMPDEST PUSH2 0xB6F JUMP JUMPDEST PUSH1 0x7 SLOAD PUSH1 0x1 PUSH1 0x1 PUSH1 0xA0 SHL SUB AND PUSH2 0x25B JUMP JUMPDEST PUSH1 0xF SLOAD PUSH2 0x2A3 JUMP JUMPDEST PUSH2 0x286 PUSH2 0x409 CALLDATASIZE PUSH1 0x4 PUSH2 0x1C1C JUMP JUMPDEST PUSH2 0xC13 JUMP JUMPDEST PUSH2 0x286 PUSH2 0x41C CALLDATASIZE PUSH1 0x4 PUSH2 0x1AFA JUMP JUMPDEST PUSH2 0xC27 JUMP JUMPDEST PUSH2 0x44E PUSH2 0x42F CALLDATASIZE PUSH1 0x4 PUSH2 0x1AFA JUMP JUMPDEST PUSH1 0x0 SWAP1 DUP2 MSTORE PUSH1 0x9 PUSH1 0x20 MSTORE PUSH1 0x40 SWAP1 KECCAK256 DUP1 SLOAD PUSH1 0x1 DUP3 ADD SLOAD PUSH1 0x2 SWAP1 SWAP3 ADD SLOAD SWAP1 SWAP3 JUMP JUMPDEST PUSH1 0x40 DUP1 MLOAD SWAP4 DUP5 MSTORE PUSH1 0x20 DUP5 ADD SWAP3 SWAP1 SWAP3 MSTORE SWAP1 DUP3 ADD MSTORE PUSH1 0x60 ADD PUSH2 0x22A JUMP JUMPDEST PUSH2 0x23B PUSH2 0xC34 JUMP JUMPDEST PUSH2 0x21E PUSH2 0x47F CALLDATASIZE PUSH1 0x4 PUSH2 0x1DDE JUMP JUMPDEST PUSH1 0x1 PUSH1 0x1 PUSH1 0xA0 SHL SUB SWAP2 DUP3 AND PUSH1 0x0 SWAP1 DUP2 MSTORE PUSH1 0x5 PUSH1 0x20 SWAP1 DUP2 MSTORE PUSH1 0x40 DUP1 DUP4 KECCAK256 SWAP4 SWAP1 SWAP5 AND DUP3 MSTORE SWAP2 SWAP1 SWAP2 MSTORE KECCAK256 SLOAD PUSH1 0xFF AND SWAP1 JUMP JUMPDEST PUSH1 0xE SLOAD PUSH2 0x2A3 JUMP JUMPDEST PUSH2 0x286 PUSH2 0x4C3 CALLDATASIZE PUSH1 0x4 PUSH2 0x1C65 JUMP JUMPDEST PUSH2 0xC43 JUMP JUMPDEST PUSH2 0x2A3 PUSH2 0x4D6 CALLDATASIZE PUSH1 0x4 PUSH2 0x1E11 JUMP JUMPDEST PUSH2 0xCB9 JUMP JUMPDEST PUSH1 0x0 PUSH1 0x1 PUSH1 0x1 PUSH1 0xE0 SHL SUB NOT DUP3 AND PUSH4 0x80AC58CD PUSH1 0xE0 SHL EQ DUP1 PUSH2 0x50C JUMPI POP PUSH1 0x1 PUSH1 0x1 PUSH1 0xE0 SHL SUB NOT DUP3 AND PUSH4 0x5B5E139F PUSH1 0xE0 SHL EQ JUMPDEST DUP1 PUSH2 0x527 JUMPI POP PUSH4 0x1FFC9A7 PUSH1 0xE0 SHL PUSH1 0x1 PUSH1 0x1 PUSH1 0xE0 SHL SUB NOT DUP4 AND EQ JUMPDEST SWAP3 SWAP2 POP POP JUMP JUMPDEST PUSH1 0x60 PUSH1 0x0 DUP1 SLOAD PUSH2 0x53C SWAP1 PUSH2 0x1E33 JUMP JUMPDEST DUP1 PUSH1 0x1F ADD PUSH1 0x20 DUP1 SWAP2 DIV MUL PUSH1 0x20 ADD PUSH1 0x40 MLOAD SWAP1 DUP2 ADD PUSH1 0x40 MSTORE DUP1 SWAP3 SWAP2 SWAP1 DUP2 DUP2 MSTORE PUSH1 0x20 ADD DUP3 DUP1 SLOAD PUSH2 0x568 SWAP1 PUSH2 0x1E33 JUMP JUMPDEST DUP1 ISZERO PUSH2 0x5B5 JUMPI DUP1 PUSH1 0x1F LT PUSH2 0x58A JUMPI PUSH2 0x100 DUP1 DUP4 SLOAD DIV MUL DUP4 MSTORE SWAP2 PUSH1 0x20 ADD SWAP2 PUSH2 0x5B5 JUMP JUMPDEST DUP3 ADD SWAP2 SWAP1 PUSH1 0x0 MSTORE PUSH1 0x20 PUSH1 0x0 KECCAK256 SWAP1 JUMPDEST DUP2 SLOAD DUP2 MSTORE SWAP1 PUSH1 0x1 ADD SWAP1 PUSH1 0x20 ADD DUP1 DUP4 GT PUSH2 0x598 JUMPI DUP3 SWAP1 SUB PUSH1 0x1F AND DUP3 ADD SWAP2 JUMPDEST POP POP POP POP POP SWAP1 POP SWAP1 JUMP JUMPDEST PUSH1 0x0 PUSH2 0x5CA DUP3 PUSH2 0xE17 JUMP JUMPDEST POP PUSH1 0x0 SWAP1 DUP2 MSTORE PUSH1 0x4 PUSH1 0x20 MSTORE PUSH1 0x40 SWAP1 KECCAK256 SLOAD PUSH1 0x1 PUSH1 0x1 PUSH1 0xA0 SHL SUB AND SWAP1 JUMP JUMPDEST PUSH1 0x0 PUSH2 0x5F1 DUP3 PUSH2 0x830 JUMP JUMPDEST SWAP1 POP DUP1 PUSH1 0x1 PUSH1 0x1 PUSH1 0xA0 SHL SUB AND DUP4 PUSH1 0x1 PUSH1 0x1 PUSH1 0xA0 SHL SUB AND SUB PUSH2 0x663 JUMPI PUSH1 0x40 MLOAD PUSH3 0x461BCD PUSH1 0xE5 SHL DUP2 MSTORE PUSH1 0x20 PUSH1 0x4 DUP3 ADD MSTORE PUSH1 0x21 PUSH1 0x24 DUP3 ADD MSTORE PUSH32 0x4552433732313A20617070726F76616C20746F2063757272656E74206F776E65 PUSH1 0x44 DUP3 ADD MSTORE PUSH1 0x39 PUSH1 0xF9 SHL PUSH1 0x64 DUP3 ADD MSTORE PUSH1 0x84 ADD JUMPDEST PUSH1 0x40 MLOAD DUP1 SWAP2 SUB SWAP1 REVERT JUMPDEST DUP1 PUSH1 0x1 PUSH1 0x1 PUSH1 0xA0 SHL SUB AND PUSH2 0x675 PUSH2 0xE67 JUMP JUMPDEST PUSH1 0x1 PUSH1 0x1 PUSH1 0xA0 SHL SUB AND EQ DUP1 PUSH2 0x691 JUMPI POP PUSH2 0x691 DUP2 PUSH2 0x47F PUSH2 0xE67 JUMP JUMPDEST PUSH2 0x703 JUMPI PUSH1 0x40 MLOAD PUSH3 0x461BCD PUSH1 0xE5 SHL DUP2 MSTORE PUSH1 0x20 PUSH1 0x4 DUP3 ADD MSTORE PUSH1 0x3D PUSH1 0x24 DUP3 ADD MSTORE PUSH32 0x4552433732313A20617070726F76652063616C6C6572206973206E6F7420746F PUSH1 0x44 DUP3 ADD MSTORE PUSH32 0x6B656E206F776E6572206F7220617070726F76656420666F7220616C6C000000 PUSH1 0x64 DUP3 ADD MSTORE PUSH1 0x84 ADD PUSH2 0x65A JUMP JUMPDEST PUSH2 0x70D DUP4 DUP4 PUSH2 0xE71 JUMP JUMPDEST POP POP POP JUMP JUMPDEST PUSH2 0x71A PUSH2 0xEDF JUMP JUMPDEST PUSH1 0xF SSTORE JUMP JUMPDEST PUSH1 0x0 PUSH2 0x72A PUSH1 0x8 SLOAD SWAP1 JUMP JUMPDEST SWAP1 POP SWAP1 JUMP JUMPDEST PUSH2 0x740 PUSH2 0x73A PUSH2 0xE67 JUMP JUMPDEST DUP3 PUSH2 0xF58 JUMP JUMPDEST PUSH2 0x75C JUMPI PUSH1 0x40 MLOAD PUSH3 0x461BCD PUSH1 0xE5 SHL DUP2 MSTORE PUSH1 0x4 ADD PUSH2 0x65A SWAP1 PUSH2 0x1E6D JUMP JUMPDEST PUSH2 0x70D DUP4 DUP4 DUP4 PUSH2 0xFD7 JUMP JUMPDEST PUSH2 0x76F PUSH2 0xEDF JUMP JUMPDEST PUSH1 0x0 PUSH2 0x783 PUSH1 0x6 SLOAD PUSH1 0x1 PUSH1 0x1 PUSH1 0xA0 SHL SUB AND SWAP1 JUMP JUMPDEST PUSH1 0x1 PUSH1 0x1 PUSH1 0xA0 SHL SUB AND SELFBALANCE PUSH1 0x40 MLOAD PUSH1 0x0 PUSH1 0x40 MLOAD DUP1 DUP4 SUB DUP2 DUP6 DUP8 GAS CALL SWAP3 POP POP POP RETURNDATASIZE DUP1 PUSH1 0x0 DUP2 EQ PUSH2 0x7CD JUMPI PUSH1 0x40 MLOAD SWAP2 POP PUSH1 0x1F NOT PUSH1 0x3F RETURNDATASIZE ADD AND DUP3 ADD PUSH1 0x40 MSTORE RETURNDATASIZE DUP3 MSTORE RETURNDATASIZE PUSH1 0x0 PUSH1 0x20 DUP5 ADD RETURNDATACOPY PUSH2 0x7D2 JUMP JUMPDEST PUSH1 0x60 SWAP2 POP JUMPDEST POP POP SWAP1 POP DUP1 PUSH2 0x7E0 JUMPI PUSH1 0x0 DUP1 REVERT JUMPDEST POP JUMP JUMPDEST PUSH2 0x70D DUP4 DUP4 DUP4 PUSH1 0x40 MLOAD DUP1 PUSH1 0x20 ADD PUSH1 0x40 MSTORE DUP1 PUSH1 0x0 DUP2 MSTORE POP PUSH2 0xB30 JUMP JUMPDEST PUSH2 0x806 PUSH2 0xEDF JUMP JUMPDEST PUSH1 0xC PUSH2 0x812 DUP3 DUP3 PUSH2 0x1F08 JUMP JUMPDEST POP POP JUMP JUMPDEST PUSH1 0x0 PUSH2 0x527 DUP3 PUSH1 0x7 SLOAD PUSH1 0x1 PUSH1 0x1 PUSH1 0xA0 SHL SUB SWAP2 DUP3 AND SWAP2 AND EQ SWAP1 JUMP JUMPDEST PUSH1 0x0 DUP2 DUP2 MSTORE PUSH1 0x2 PUSH1 0x20 MSTORE PUSH1 0x40 DUP2 KECCAK256 SLOAD PUSH1 0x1 PUSH1 0x1 PUSH1 0xA0 SHL SUB AND DUP1 PUSH2 0x527 JUMPI PUSH1 0x40 MLOAD PUSH3 0x461BCD PUSH1 0xE5 SHL DUP2 MSTORE PUSH1 0x20 PUSH1 0x4 DUP3 ADD MSTORE PUSH1 0x18 PUSH1 0x24 DUP3 ADD MSTORE PUSH24 0x115490CDCC8C4E881A5B9D985B1A59081D1BDAD95B881251 PUSH1 0x42 SHL PUSH1 0x44 DUP3 ADD MSTORE PUSH1 0x64 ADD PUSH2 0x65A JUMP JUMPDEST PUSH1 0x0 PUSH1 0x1 PUSH1 0x1 PUSH1 0xA0 SHL SUB DUP3 AND PUSH2 0x8FA JUMPI PUSH1 0x40 MLOAD PUSH3 0x461BCD PUSH1 0xE5 SHL DUP2 MSTORE PUSH1 0x20 PUSH1 0x4 DUP3 ADD MSTORE PUSH1 0x29 PUSH1 0x24 DUP3 ADD MSTORE PUSH32 0x4552433732313A2061646472657373207A65726F206973206E6F742061207661 PUSH1 0x44 DUP3 ADD MSTORE PUSH9 0x3634B21037BBB732B9 PUSH1 0xB9 SHL PUSH1 0x64 DUP3 ADD MSTORE PUSH1 0x84 ADD PUSH2 0x65A JUMP JUMPDEST POP PUSH1 0x1 PUSH1 0x1 PUSH1 0xA0 SHL SUB AND PUSH1 0x0 SWAP1 DUP2 MSTORE PUSH1 0x3 PUSH1 0x20 MSTORE PUSH1 0x40 SWAP1 KECCAK256 SLOAD SWAP1 JUMP JUMPDEST PUSH2 0x91E PUSH2 0xEDF JUMP JUMPDEST PUSH2 0x928 PUSH1 0x0 PUSH2 0x1148 JUMP JUMPDEST JUMP JUMPDEST PUSH2 0x932 PUSH2 0xEDF JUMP JUMPDEST PUSH1 0xA DUP1 SLOAD PUSH1 0x1 PUSH1 0x1 PUSH1 0xA0 SHL SUB NOT AND PUSH1 0x1 PUSH1 0x1 PUSH1 0xA0 SHL SUB SWAP3 SWAP1 SWAP3 AND SWAP2 SWAP1 SWAP2 OR SWAP1 SSTORE JUMP JUMPDEST PUSH2 0x95C PUSH2 0xEDF JUMP JUMPDEST PUSH1 0xB PUSH2 0x70D DUP3 DUP5 DUP4 PUSH2 0x1FC8 JUMP JUMPDEST PUSH1 0x60 PUSH1 0x1 DUP1 SLOAD PUSH2 0x53C SWAP1 PUSH2 0x1E33 JUMP JUMPDEST PUSH1 0x0 PUSH2 0x982 PUSH2 0xEDF JUMP JUMPDEST PUSH2 0x527 PUSH1 0x0 DUP1 DUP5 PUSH2 0x119A JUMP JUMPDEST SWAP2 SWAP1 POP JUMP JUMPDEST PUSH2 0x812 PUSH2 0x99E PUSH2 0xE67 JUMP JUMPDEST DUP4 DUP4 PUSH2 0x147C JUMP JUMPDEST PUSH2 0x9AD PUSH2 0xEDF JUMP JUMPDEST PUSH2 0x9B6 DUP3 PUSH2 0x154A JUMP JUMPDEST PUSH2 0x9D2 JUMPI PUSH1 0x40 MLOAD PUSH3 0x461BCD PUSH1 0xE5 SHL DUP2 MSTORE PUSH1 0x4 ADD PUSH2 0x65A SWAP1 PUSH2 0x2089 JUMP JUMPDEST PUSH1 0x0 DUP3 DUP2 MSTORE PUSH1 0x9 PUSH1 0x20 MSTORE PUSH1 0x40 DUP1 DUP3 KECCAK256 PUSH1 0x2 ADD SLOAD SWAP1 MLOAD PUSH4 0x317F435 PUSH1 0xE0 SHL DUP2 MSTORE PUSH1 0x4 DUP2 ADD DUP3 SWAP1 MSTORE SWAP1 SWAP2 SWAP1 PUSH20 0x0 SWAP1 PUSH4 0xB52B6659 SWAP1 DUP5 SWAP1 DUP7 SWAP1 DUP5 SWAP1 PUSH4 0x317F435 SWAP1 PUSH1 0x24 ADD PUSH1 0x20 PUSH1 0x40 MLOAD DUP1 DUP4 SUB DUP2 DUP7 GAS DELEGATECALL ISZERO DUP1 ISZERO PUSH2 0xA43 JUMPI RETURNDATASIZE PUSH1 0x0 DUP1 RETURNDATACOPY RETURNDATASIZE PUSH1 0x0 REVERT JUMPDEST POP POP POP POP PUSH1 0x40 MLOAD RETURNDATASIZE PUSH1 0x1F NOT PUSH1 0x1F DUP3 ADD AND DUP3 ADD DUP1 PUSH1 0x40 MSTORE POP DUP2 ADD SWAP1 PUSH2 0xA67 SWAP2 SWAP1 PUSH2 0x20C0 JUMP JUMPDEST PUSH2 0xA71 SWAP2 SWAP1 PUSH2 0x20F3 JUMP JUMPDEST PUSH1 0x40 MLOAD PUSH1 0x1 PUSH1 0x1 PUSH1 0xE0 SHL SUB NOT PUSH1 0xE0 DUP6 SWAP1 SHL AND DUP2 MSTORE PUSH1 0x4 DUP2 ADD SWAP3 SWAP1 SWAP3 MSTORE PUSH1 0xFF AND PUSH1 0x24 DUP3 ADD MSTORE PUSH1 0x44 ADD PUSH1 0x20 PUSH1 0x40 MLOAD DUP1 DUP4 SUB DUP2 DUP7 GAS DELEGATECALL ISZERO DUP1 ISZERO PUSH2 0xAB5 JUMPI RETURNDATASIZE PUSH1 0x0 DUP1 RETURNDATACOPY RETURNDATASIZE PUSH1 0x0 REVERT JUMPDEST POP POP POP POP PUSH1 0x40 MLOAD RETURNDATASIZE PUSH1 0x1F NOT PUSH1 0x1F DUP3 ADD AND DUP3 ADD DUP1 PUSH1 0x40 MSTORE POP DUP2 ADD SWAP1 PUSH2 0xAD9 SWAP2 SWAP1 PUSH2 0x210C JUMP JUMPDEST PUSH1 0x0 DUP6 DUP2 MSTORE PUSH1 0x9 PUSH1 0x20 SWAP1 DUP2 MSTORE PUSH1 0x40 SWAP2 DUP3 SWAP1 KECCAK256 PUSH1 0x2 ADD DUP4 SWAP1 SSTORE DUP2 MLOAD DUP8 DUP2 MSTORE SWAP1 DUP2 ADD DUP4 SWAP1 MSTORE SWAP2 SWAP3 POP PUSH32 0xA4B06760D9E334049C680F60B4BEFF0728AF9BB459B8698D252972B10C4F3E55 SWAP2 ADD PUSH1 0x40 MLOAD DUP1 SWAP2 SUB SWAP1 LOG1 POP POP POP POP JUMP JUMPDEST PUSH2 0xB41 PUSH2 0xB3B PUSH2 0xE67 JUMP JUMPDEST DUP4 PUSH2 0xF58 JUMP JUMPDEST PUSH2 0xB5D JUMPI PUSH1 0x40 MLOAD PUSH3 0x461BCD PUSH1 0xE5 SHL DUP2 MSTORE PUSH1 0x4 ADD PUSH2 0x65A SWAP1 PUSH2 0x1E6D JUMP JUMPDEST PUSH2 0xB69 DUP5 DUP5 DUP5 DUP5 PUSH2 0x1567 JUMP JUMPDEST POP POP POP POP JUMP JUMPDEST PUSH1 0x60 PUSH2 0xB7A DUP3 PUSH2 0x154A JUMP JUMPDEST PUSH2 0xBDE JUMPI PUSH1 0x40 MLOAD PUSH3 0x461BCD PUSH1 0xE5 SHL DUP2 MSTORE PUSH1 0x20 PUSH1 0x4 DUP3 ADD MSTORE PUSH1 0x2F PUSH1 0x24 DUP3 ADD MSTORE PUSH32 0x4552433732314D657461646174613A2055524920717565727920666F72206E6F PUSH1 0x44 DUP3 ADD MSTORE PUSH15 0x3732BC34B9BA32B73A103A37B5B2B7 PUSH1 0x89 SHL PUSH1 0x64 DUP3 ADD MSTORE PUSH1 0x84 ADD PUSH2 0x65A JUMP JUMPDEST PUSH1 0xC PUSH2 0xBE9 DUP4 PUSH2 0x159A JUMP JUMPDEST PUSH1 0xD PUSH1 0x40 MLOAD PUSH1 0x20 ADD PUSH2 0xBFD SWAP4 SWAP3 SWAP2 SWAP1 PUSH2 0x2198 JUMP JUMPDEST PUSH1 0x40 MLOAD PUSH1 0x20 DUP2 DUP4 SUB SUB DUP2 MSTORE SWAP1 PUSH1 0x40 MSTORE SWAP1 POP SWAP2 SWAP1 POP JUMP JUMPDEST PUSH2 0xC1B PUSH2 0xEDF JUMP JUMPDEST PUSH1 0xD PUSH2 0x812 DUP3 DUP3 PUSH2 0x1F08 JUMP JUMPDEST PUSH2 0xC2F PUSH2 0xEDF JUMP JUMPDEST PUSH1 0xE SSTORE JUMP JUMPDEST PUSH1 0x60 PUSH1 0xB DUP1 SLOAD PUSH2 0x53C SWAP1 PUSH2 0x1E33 JUMP JUMPDEST PUSH2 0xC4B PUSH2 0xEDF JUMP JUMPDEST PUSH1 0x1 PUSH1 0x1 PUSH1 0xA0 SHL SUB DUP2 AND PUSH2 0xCB0 JUMPI PUSH1 0x40 MLOAD PUSH3 0x461BCD PUSH1 0xE5 SHL DUP2 MSTORE PUSH1 0x20 PUSH1 0x4 DUP3 ADD MSTORE PUSH1 0x26 PUSH1 0x24 DUP3 ADD MSTORE PUSH32 0x4F776E61626C653A206E6577206F776E657220697320746865207A65726F2061 PUSH1 0x44 DUP3 ADD MSTORE PUSH6 0x646472657373 PUSH1 0xD0 SHL PUSH1 0x64 DUP3 ADD MSTORE PUSH1 0x84 ADD PUSH2 0x65A JUMP JUMPDEST PUSH2 0x7E0 DUP2 PUSH2 0x1148 JUMP JUMPDEST PUSH1 0x0 PUSH2 0xCC3 PUSH2 0xEDF JUMP JUMPDEST PUSH2 0xCCC DUP4 PUSH2 0x154A JUMP JUMPDEST PUSH2 0xCE8 JUMPI PUSH1 0x40 MLOAD PUSH3 0x461BCD PUSH1 0xE5 SHL DUP2 MSTORE PUSH1 0x4 ADD PUSH2 0x65A SWAP1 PUSH2 0x2089 JUMP JUMPDEST PUSH2 0xCF1 DUP3 PUSH2 0x154A JUMP JUMPDEST PUSH2 0xD0D JUMPI PUSH1 0x40 MLOAD PUSH3 0x461BCD PUSH1 0xE5 SHL DUP2 MSTORE PUSH1 0x4 ADD PUSH2 0x65A SWAP1 PUSH2 0x2089 JUMP JUMPDEST PUSH1 0x0 DUP4 DUP2 MSTORE PUSH1 0x9 PUSH1 0x20 MSTORE PUSH1 0x40 DUP1 DUP3 KECCAK256 DUP5 DUP4 MSTORE DUP2 DUP4 KECCAK256 PUSH1 0xA SLOAD PUSH1 0x2 DUP1 DUP5 ADD SLOAD SWAP1 DUP4 ADD SLOAD SWAP5 MLOAD PUSH4 0xE4A13FB7 PUSH1 0xE0 SHL DUP2 MSTORE SWAP4 SWAP6 SWAP3 SWAP5 SWAP3 SWAP4 DUP5 SWAP4 DUP5 SWAP4 PUSH1 0x1 PUSH1 0x1 PUSH1 0xA0 SHL SUB AND SWAP3 PUSH4 0xE4A13FB7 SWAP3 PUSH2 0xD6B SWAP3 SWAP1 PUSH1 0x4 ADD SWAP2 DUP3 MSTORE PUSH1 0x20 DUP3 ADD MSTORE PUSH1 0x40 ADD SWAP1 JUMP JUMPDEST PUSH1 0x60 PUSH1 0x40 MLOAD DUP1 DUP4 SUB DUP2 PUSH1 0x0 DUP8 GAS CALL ISZERO DUP1 ISZERO PUSH2 0xD8A JUMPI RETURNDATASIZE PUSH1 0x0 DUP1 RETURNDATACOPY RETURNDATASIZE PUSH1 0x0 REVERT JUMPDEST POP POP POP POP PUSH1 0x40 MLOAD RETURNDATASIZE PUSH1 0x1F NOT PUSH1 0x1F DUP3 ADD AND DUP3 ADD DUP1 PUSH1 0x40 MSTORE POP DUP2 ADD SWAP1 PUSH2 0xDAE SWAP2 SWAP1 PUSH2 0x21CB JUMP JUMPDEST SWAP3 POP SWAP3 POP SWAP3 POP PUSH2 0xDBF DUP9 DUP9 DUP4 PUSH2 0x119A JUMP JUMPDEST PUSH1 0x2 SWAP6 DUP7 ADD SWAP4 SWAP1 SWAP4 SSTORE POP SWAP2 SWAP1 SWAP3 ADD SSTORE SWAP4 SWAP3 POP POP POP JUMP JUMPDEST PUSH1 0x0 PUSH1 0x14 CALLDATASIZE LT DUP1 ISZERO SWAP1 PUSH2 0xDEC JUMPI POP PUSH2 0xDEC CALLER PUSH2 0x816 JUMP JUMPDEST ISZERO PUSH2 0xDFE JUMPI POP PUSH1 0x13 NOT CALLDATASIZE ADD CALLDATALOAD PUSH1 0x60 SHR SWAP1 JUMP JUMPDEST POP CALLER SWAP1 JUMP JUMPDEST PUSH1 0x7 SLOAD PUSH1 0x1 PUSH1 0x1 PUSH1 0xA0 SHL SUB SWAP2 DUP3 AND SWAP2 AND EQ SWAP1 JUMP JUMPDEST PUSH2 0xE20 DUP2 PUSH2 0x154A JUMP JUMPDEST PUSH2 0x7E0 JUMPI PUSH1 0x40 MLOAD PUSH3 0x461BCD PUSH1 0xE5 SHL DUP2 MSTORE PUSH1 0x20 PUSH1 0x4 DUP3 ADD MSTORE PUSH1 0x18 PUSH1 0x24 DUP3 ADD MSTORE PUSH24 0x115490CDCC8C4E881A5B9D985B1A59081D1BDAD95B881251 PUSH1 0x42 SHL PUSH1 0x44 DUP3 ADD MSTORE PUSH1 0x64 ADD PUSH2 0x65A JUMP JUMPDEST PUSH1 0x0 PUSH2 0x72A PUSH2 0xDD5 JUMP JUMPDEST PUSH1 0x0 DUP2 DUP2 MSTORE PUSH1 0x4 PUSH1 0x20 MSTORE PUSH1 0x40 SWAP1 KECCAK256 DUP1 SLOAD PUSH1 0x1 PUSH1 0x1 PUSH1 0xA0 SHL SUB NOT AND PUSH1 0x1 PUSH1 0x1 PUSH1 0xA0 SHL SUB DUP5 AND SWAP1 DUP2 OR SWAP1 SWAP2 SSTORE DUP2 SWAP1 PUSH2 0xEA6 DUP3 PUSH2 0x830 JUMP JUMPDEST PUSH1 0x1 PUSH1 0x1 PUSH1 0xA0 SHL SUB AND PUSH32 0x8C5BE1E5EBEC7D5BD14F71427D1E84F3DD0314C0F7B2291E5B200AC8C7C3B925 PUSH1 0x40 MLOAD PUSH1 0x40 MLOAD DUP1 SWAP2 SUB SWAP1 LOG4 POP POP JUMP JUMPDEST PUSH2 0xEE7 PUSH2 0xE67 JUMP JUMPDEST PUSH1 0x1 PUSH1 0x1 PUSH1 0xA0 SHL SUB AND PUSH2 0xF02 PUSH1 0x6 SLOAD PUSH1 0x1 PUSH1 0x1 PUSH1 0xA0 SHL SUB AND SWAP1 JUMP JUMPDEST PUSH1 0x1 PUSH1 0x1 PUSH1 0xA0 SHL SUB AND EQ PUSH2 0x928 JUMPI PUSH1 0x40 MLOAD PUSH3 0x461BCD PUSH1 0xE5 SHL DUP2 MSTORE PUSH1 0x20 PUSH1 0x4 DUP3 ADD DUP2 SWAP1 MSTORE PUSH1 0x24 DUP3 ADD MSTORE PUSH32 0x4F776E61626C653A2063616C6C6572206973206E6F7420746865206F776E6572 PUSH1 0x44 DUP3 ADD MSTORE PUSH1 0x64 ADD PUSH2 0x65A JUMP JUMPDEST PUSH1 0x0 DUP1 PUSH2 0xF64 DUP4 PUSH2 0x830 JUMP JUMPDEST SWAP1 POP DUP1 PUSH1 0x1 PUSH1 0x1 PUSH1 0xA0 SHL SUB AND DUP5 PUSH1 0x1 PUSH1 0x1 PUSH1 0xA0 SHL SUB AND EQ DUP1 PUSH2 0xFAB JUMPI POP PUSH1 0x1 PUSH1 0x1 PUSH1 0xA0 SHL SUB DUP1 DUP3 AND PUSH1 0x0 SWAP1 DUP2 MSTORE PUSH1 0x5 PUSH1 0x20 SWAP1 DUP2 MSTORE PUSH1 0x40 DUP1 DUP4 KECCAK256 SWAP4 DUP9 AND DUP4 MSTORE SWAP3 SWAP1 MSTORE KECCAK256 SLOAD PUSH1 0xFF AND JUMPDEST DUP1 PUSH2 0xFCF JUMPI POP DUP4 PUSH1 0x1 PUSH1 0x1 PUSH1 0xA0 SHL SUB AND PUSH2 0xFC4 DUP5 PUSH2 0x5BF JUMP JUMPDEST PUSH1 0x1 PUSH1 0x1 PUSH1 0xA0 SHL SUB AND EQ JUMPDEST SWAP5 SWAP4 POP POP POP POP JUMP JUMPDEST DUP3 PUSH1 0x1 PUSH1 0x1 PUSH1 0xA0 SHL SUB AND PUSH2 0xFEA DUP3 PUSH2 0x830 JUMP JUMPDEST PUSH1 0x1 PUSH1 0x1 PUSH1 0xA0 SHL SUB AND EQ PUSH2 0x1010 JUMPI PUSH1 0x40 MLOAD PUSH3 0x461BCD PUSH1 0xE5 SHL DUP2 MSTORE PUSH1 0x4 ADD PUSH2 0x65A SWAP1 PUSH2 0x21F9 JUMP JUMPDEST PUSH1 0x1 PUSH1 0x1 PUSH1 0xA0 SHL SUB DUP3 AND PUSH2 0x1072 JUMPI PUSH1 0x40 MLOAD PUSH3 0x461BCD PUSH1 0xE5 SHL DUP2 MSTORE PUSH1 0x20 PUSH1 0x4 DUP3 ADD MSTORE PUSH1 0x24 DUP1 DUP3 ADD MSTORE PUSH32 0x4552433732313A207472616E7366657220746F20746865207A65726F20616464 PUSH1 0x44 DUP3 ADD MSTORE PUSH4 0x72657373 PUSH1 0xE0 SHL PUSH1 0x64 DUP3 ADD MSTORE PUSH1 0x84 ADD PUSH2 0x65A JUMP JUMPDEST PUSH2 0x107F DUP4 DUP4 DUP4 PUSH1 0x1 PUSH2 0x162D JUMP JUMPDEST DUP3 PUSH1 0x1 PUSH1 0x1 PUSH1 0xA0 SHL SUB AND PUSH2 0x1092 DUP3 PUSH2 0x830 JUMP JUMPDEST PUSH1 0x1 PUSH1 0x1 PUSH1 0xA0 SHL SUB AND EQ PUSH2 0x10B8 JUMPI PUSH1 0x40 MLOAD PUSH3 0x461BCD PUSH1 0xE5 SHL DUP2 MSTORE PUSH1 0x4 ADD PUSH2 0x65A SWAP1 PUSH2 0x21F9 JUMP JUMPDEST PUSH1 0x0 DUP2 DUP2 MSTORE PUSH1 0x4 PUSH1 0x20 SWAP1 DUP2 MSTORE PUSH1 0x40 DUP1 DUP4 KECCAK256 DUP1 SLOAD PUSH1 0x1 PUSH1 0x1 PUSH1 0xA0 SHL SUB NOT SWAP1 DUP2 AND SWAP1 SWAP2 SSTORE PUSH1 0x1 PUSH1 0x1 PUSH1 0xA0 SHL SUB DUP8 DUP2 AND DUP1 DUP7 MSTORE PUSH1 0x3 DUP6 MSTORE DUP4 DUP7 KECCAK256 DUP1 SLOAD PUSH1 0x0 NOT ADD SWAP1 SSTORE SWAP1 DUP8 AND DUP1 DUP7 MSTORE DUP4 DUP7 KECCAK256 DUP1 SLOAD PUSH1 0x1 ADD SWAP1 SSTORE DUP7 DUP7 MSTORE PUSH1 0x2 SWAP1 SWAP5 MSTORE DUP3 DUP6 KECCAK256 DUP1 SLOAD SWAP1 SWAP3 AND DUP5 OR SWAP1 SWAP2 SSTORE SWAP1 MLOAD DUP5 SWAP4 PUSH32 0xDDF252AD1BE2C89B69C2B068FC378DAA952BA7F163C4A11628F55A4DF523B3EF SWAP2 LOG4 POP POP POP JUMP JUMPDEST PUSH1 0x6 DUP1 SLOAD PUSH1 0x1 PUSH1 0x1 PUSH1 0xA0 SHL SUB DUP4 DUP2 AND PUSH1 0x1 PUSH1 0x1 PUSH1 0xA0 SHL SUB NOT DUP4 AND DUP2 OR SWAP1 SWAP4 SSTORE PUSH1 0x40 MLOAD SWAP2 AND SWAP2 SWAP1 DUP3 SWAP1 PUSH32 0x8BE0079C531659141344CD1FD0A4F28419497F9722A3DAAFE3B4186F6B6457E0 SWAP1 PUSH1 0x0 SWAP1 LOG3 POP POP JUMP JUMPDEST PUSH1 0x0 PUSH1 0x9 DUP2 JUMPDEST DUP2 DUP2 PUSH1 0xFF AND LT ISZERO PUSH2 0x13B0 JUMPI PUSH1 0x40 MLOAD PUSH4 0x5D2029F1 PUSH1 0xE0 SHL DUP2 MSTORE PUSH1 0x4 DUP2 ADD DUP6 SWAP1 MSTORE PUSH1 0xFF DUP3 AND PUSH1 0x24 DUP3 ADD MSTORE PUSH1 0x0 SWAP1 PUSH20 0x0 SWAP1 PUSH4 0x5D2029F1 SWAP1 PUSH1 0x44 ADD PUSH1 0x20 PUSH1 0x40 MLOAD DUP1 DUP4 SUB DUP2 DUP7 GAS DELEGATECALL ISZERO DUP1 ISZERO PUSH2 0x1207 JUMPI RETURNDATASIZE PUSH1 0x0 DUP1 RETURNDATACOPY RETURNDATASIZE PUSH1 0x0 REVERT JUMPDEST POP POP POP POP PUSH1 0x40 MLOAD RETURNDATASIZE PUSH1 0x1F NOT PUSH1 0x1F DUP3 ADD AND DUP3 ADD DUP1 PUSH1 0x40 MSTORE POP DUP2 ADD SWAP1 PUSH2 0x122B SWAP2 SWAP1 PUSH2 0x20C0 JUMP JUMPDEST SWAP1 POP PUSH1 0xE SLOAD DUP2 PUSH1 0xFF AND LT ISZERO DUP1 ISZERO PUSH2 0x1247 JUMPI POP PUSH1 0xF SLOAD DUP2 PUSH1 0xFF AND GT ISZERO JUMPDEST PUSH2 0x12A8 JUMPI PUSH1 0x40 MLOAD PUSH3 0x461BCD PUSH1 0xE5 SHL DUP2 MSTORE PUSH1 0x20 PUSH1 0x4 DUP3 ADD MSTORE PUSH1 0x2C PUSH1 0x24 DUP3 ADD MSTORE PUSH32 0x6572726F722C20637265617465546F6B656E2C2070617274206964206D757374 PUSH1 0x44 DUP3 ADD MSTORE PUSH12 0x20626520696E2072616E6765 PUSH1 0xA0 SHL PUSH1 0x64 DUP3 ADD MSTORE PUSH1 0x84 ADD PUSH2 0x65A JUMP JUMPDEST PUSH1 0x40 MLOAD PUSH4 0x1A4CD3F5 PUSH1 0xE1 SHL DUP2 MSTORE PUSH1 0x4 DUP2 ADD DUP7 SWAP1 MSTORE PUSH1 0xFF DUP4 AND PUSH1 0x24 DUP3 ADD MSTORE PUSH1 0x0 SWAP1 PUSH20 0x0 SWAP1 PUSH4 0x3499A7EA SWAP1 PUSH1 0x44 ADD PUSH1 0x20 PUSH1 0x40 MLOAD DUP1 DUP4 SUB DUP2 DUP7 GAS DELEGATECALL ISZERO DUP1 ISZERO PUSH2 0x1304 JUMPI RETURNDATASIZE PUSH1 0x0 DUP1 RETURNDATACOPY RETURNDATASIZE PUSH1 0x0 REVERT JUMPDEST POP POP POP POP PUSH1 0x40 MLOAD RETURNDATASIZE PUSH1 0x1F NOT PUSH1 0x1F DUP3 ADD AND DUP3 ADD DUP1 PUSH1 0x40 MSTORE POP DUP2 ADD SWAP1 PUSH2 0x1328 SWAP2 SWAP1 PUSH2 0x20C0 JUMP JUMPDEST SWAP1 POP PUSH1 0x0 DUP2 PUSH1 0xFF AND GT PUSH2 0x139B JUMPI PUSH1 0x40 MLOAD PUSH3 0x461BCD PUSH1 0xE5 SHL DUP2 MSTORE PUSH1 0x20 PUSH1 0x4 DUP3 ADD MSTORE PUSH1 0x35 PUSH1 0x24 DUP3 ADD MSTORE PUSH32 0x6572726F722C20637265617465546F6B656E2C2070617274206C6576656C206D PUSH1 0x44 DUP3 ADD MSTORE PUSH21 0x7573742062652067726561746572207468616E203 PUSH1 0x5C SHL PUSH1 0x64 DUP3 ADD MSTORE PUSH1 0x84 ADD PUSH2 0x65A JUMP JUMPDEST POP POP DUP1 DUP1 PUSH2 0x13A8 SWAP1 PUSH2 0x223E JUMP JUMPDEST SWAP2 POP POP PUSH2 0x11A0 JUMP JUMPDEST POP PUSH1 0x40 DUP1 MLOAD PUSH1 0x60 DUP2 ADD DUP3 MSTORE DUP7 DUP2 MSTORE PUSH1 0x20 DUP2 ADD DUP7 SWAP1 MSTORE SWAP1 DUP2 ADD DUP5 SWAP1 MSTORE PUSH2 0x13D9 PUSH1 0x8 DUP1 SLOAD PUSH1 0x1 ADD SWAP1 SSTORE JUMP JUMPDEST PUSH1 0x0 PUSH2 0x13E4 PUSH1 0x8 SLOAD SWAP1 JUMP JUMPDEST PUSH1 0x0 DUP2 DUP2 MSTORE PUSH1 0x9 PUSH1 0x20 SWAP1 DUP2 MSTORE PUSH1 0x40 SWAP2 DUP3 SWAP1 KECCAK256 DUP6 MLOAD DUP2 SSTORE SWAP1 DUP6 ADD MLOAD PUSH1 0x1 DUP3 ADD SSTORE SWAP1 DUP5 ADD MLOAD PUSH1 0x2 SWAP1 SWAP2 ADD SSTORE SWAP1 POP PUSH2 0x142A PUSH2 0x1424 PUSH1 0x6 SLOAD PUSH1 0x1 PUSH1 0x1 PUSH1 0xA0 SHL SUB AND SWAP1 JUMP JUMPDEST DUP3 PUSH2 0x16B5 JUMP JUMPDEST PUSH1 0x40 DUP1 MLOAD DUP3 DUP2 MSTORE PUSH1 0x20 DUP2 ADD DUP10 SWAP1 MSTORE SWAP1 DUP2 ADD DUP8 SWAP1 MSTORE PUSH1 0x60 DUP2 ADD DUP7 SWAP1 MSTORE PUSH32 0xB6DA9597F5553D5DEAFC722DCC1F69D5463612674A36BAE2AA8698BD86AF1C7C SWAP1 PUSH1 0x80 ADD PUSH1 0x40 MLOAD DUP1 SWAP2 SUB SWAP1 LOG1 SWAP7 SWAP6 POP POP POP POP POP POP JUMP JUMPDEST DUP2 PUSH1 0x1 PUSH1 0x1 PUSH1 0xA0 SHL SUB AND DUP4 PUSH1 0x1 PUSH1 0x1 PUSH1 0xA0 SHL SUB AND SUB PUSH2 0x14DD JUMPI PUSH1 0x40 MLOAD PUSH3 0x461BCD PUSH1 0xE5 SHL DUP2 MSTORE PUSH1 0x20 PUSH1 0x4 DUP3 ADD MSTORE PUSH1 0x19 PUSH1 0x24 DUP3 ADD MSTORE PUSH32 0x4552433732313A20617070726F766520746F2063616C6C657200000000000000 PUSH1 0x44 DUP3 ADD MSTORE PUSH1 0x64 ADD PUSH2 0x65A JUMP JUMPDEST PUSH1 0x1 PUSH1 0x1 PUSH1 0xA0 SHL SUB DUP4 DUP2 AND PUSH1 0x0 DUP2 DUP2 MSTORE PUSH1 0x5 PUSH1 0x20 SWAP1 DUP2 MSTORE PUSH1 0x40 DUP1 DUP4 KECCAK256 SWAP5 DUP8 AND DUP1 DUP5 MSTORE SWAP5 DUP3 MSTORE SWAP2 DUP3 SWAP1 KECCAK256 DUP1 SLOAD PUSH1 0xFF NOT AND DUP7 ISZERO ISZERO SWAP1 DUP2 OR SWAP1 SWAP2 SSTORE SWAP2 MLOAD SWAP2 DUP3 MSTORE PUSH32 0x17307EAB39AB6107E8899845AD3D59BD9653F200F220920489CA2B5937696C31 SWAP2 ADD PUSH1 0x40 MLOAD DUP1 SWAP2 SUB SWAP1 LOG3 POP POP POP JUMP JUMPDEST PUSH1 0x0 SWAP1 DUP2 MSTORE PUSH1 0x2 PUSH1 0x20 MSTORE PUSH1 0x40 SWAP1 KECCAK256 SLOAD PUSH1 0x1 PUSH1 0x1 PUSH1 0xA0 SHL SUB AND ISZERO ISZERO SWAP1 JUMP JUMPDEST PUSH2 0x1572 DUP5 DUP5 DUP5 PUSH2 0xFD7 JUMP JUMPDEST PUSH2 0x157E DUP5 DUP5 DUP5 DUP5 PUSH2 0x16CF JUMP JUMPDEST PUSH2 0xB69 JUMPI PUSH1 0x40 MLOAD PUSH3 0x461BCD PUSH1 0xE5 SHL DUP2 MSTORE PUSH1 0x4 ADD PUSH2 0x65A SWAP1 PUSH2 0x225D JUMP JUMPDEST PUSH1 0x60 PUSH1 0x0 PUSH2 0x15A7 DUP4 PUSH2 0x17D7 JUMP JUMPDEST PUSH1 0x1 ADD SWAP1 POP PUSH1 0x0 DUP2 PUSH8 0xFFFFFFFFFFFFFFFF DUP2 GT ISZERO PUSH2 0x15C7 JUMPI PUSH2 0x15C7 PUSH2 0x1B90 JUMP JUMPDEST PUSH1 0x40 MLOAD SWAP1 DUP1 DUP3 MSTORE DUP1 PUSH1 0x1F ADD PUSH1 0x1F NOT AND PUSH1 0x20 ADD DUP3 ADD PUSH1 0x40 MSTORE DUP1 ISZERO PUSH2 0x15F1 JUMPI PUSH1 0x20 DUP3 ADD DUP2 DUP1 CALLDATASIZE DUP4 CALLDATACOPY ADD SWAP1 POP JUMPDEST POP SWAP1 POP DUP2 DUP2 ADD PUSH1 0x20 ADD JUMPDEST PUSH1 0x0 NOT ADD PUSH16 0x181899199A1A9B1B9C1CB0B131B232B3 PUSH1 0x81 SHL PUSH1 0xA DUP7 MOD BYTE DUP2 MSTORE8 PUSH1 0xA DUP6 DIV SWAP5 POP DUP5 PUSH2 0x15FB JUMPI POP SWAP4 SWAP3 POP POP POP JUMP JUMPDEST PUSH1 0x1 DUP2 GT ISZERO PUSH2 0xB69 JUMPI PUSH1 0x1 PUSH1 0x1 PUSH1 0xA0 SHL SUB DUP5 AND ISZERO PUSH2 0x1673 JUMPI PUSH1 0x1 PUSH1 0x1 PUSH1 0xA0 SHL SUB DUP5 AND PUSH1 0x0 SWAP1 DUP2 MSTORE PUSH1 0x3 PUSH1 0x20 MSTORE PUSH1 0x40 DUP2 KECCAK256 DUP1 SLOAD DUP4 SWAP3 SWAP1 PUSH2 0x166D SWAP1 DUP5 SWAP1 PUSH2 0x22AF JUMP JUMPDEST SWAP1 SWAP2 SSTORE POP POP JUMPDEST PUSH1 0x1 PUSH1 0x1 PUSH1 0xA0 SHL SUB DUP4 AND ISZERO PUSH2 0xB69 JUMPI PUSH1 0x1 PUSH1 0x1 PUSH1 0xA0 SHL SUB DUP4 AND PUSH1 0x0 SWAP1 DUP2 MSTORE PUSH1 0x3 PUSH1 0x20 MSTORE PUSH1 0x40 DUP2 KECCAK256 DUP1 SLOAD DUP4 SWAP3 SWAP1 PUSH2 0x16AA SWAP1 DUP5 SWAP1 PUSH2 0x22C2 JUMP JUMPDEST SWAP1 SWAP2 SSTORE POP POP POP POP POP POP JUMP JUMPDEST PUSH2 0x812 DUP3 DUP3 PUSH1 0x40 MLOAD DUP1 PUSH1 0x20 ADD PUSH1 0x40 MSTORE DUP1 PUSH1 0x0 DUP2 MSTORE POP PUSH2 0x18AF JUMP JUMPDEST PUSH1 0x0 PUSH1 0x1 PUSH1 0x1 PUSH1 0xA0 SHL SUB DUP5 AND EXTCODESIZE ISZERO PUSH2 0x17CC JUMPI DUP4 PUSH1 0x1 PUSH1 0x1 PUSH1 0xA0 SHL SUB AND PUSH4 0x150B7A02 PUSH2 0x16F8 PUSH2 0xE67 JUMP JUMPDEST DUP8 DUP7 DUP7 PUSH1 0x40 MLOAD DUP6 PUSH4 0xFFFFFFFF AND PUSH1 0xE0 SHL DUP2 MSTORE PUSH1 0x4 ADD PUSH2 0x171A SWAP5 SWAP4 SWAP3 SWAP2 SWAP1 PUSH2 0x22D5 JUMP JUMPDEST PUSH1 0x20 PUSH1 0x40 MLOAD DUP1 DUP4 SUB DUP2 PUSH1 0x0 DUP8 GAS CALL SWAP3 POP POP POP DUP1 ISZERO PUSH2 0x1755 JUMPI POP PUSH1 0x40 DUP1 MLOAD PUSH1 0x1F RETURNDATASIZE SWAP1 DUP2 ADD PUSH1 0x1F NOT AND DUP3 ADD SWAP1 SWAP3 MSTORE PUSH2 0x1752 SWAP2 DUP2 ADD SWAP1 PUSH2 0x2312 JUMP JUMPDEST PUSH1 0x1 JUMPDEST PUSH2 0x17B2 JUMPI RETURNDATASIZE DUP1 DUP1 ISZERO PUSH2 0x1783 JUMPI PUSH1 0x40 MLOAD SWAP2 POP PUSH1 0x1F NOT PUSH1 0x3F RETURNDATASIZE ADD AND DUP3 ADD PUSH1 0x40 MSTORE RETURNDATASIZE DUP3 MSTORE RETURNDATASIZE PUSH1 0x0 PUSH1 0x20 DUP5 ADD RETURNDATACOPY PUSH2 0x1788 JUMP JUMPDEST PUSH1 0x60 SWAP2 POP JUMPDEST POP DUP1 MLOAD PUSH1 0x0 SUB PUSH2 0x17AA JUMPI PUSH1 0x40 MLOAD PUSH3 0x461BCD PUSH1 0xE5 SHL DUP2 MSTORE PUSH1 0x4 ADD PUSH2 0x65A SWAP1 PUSH2 0x225D JUMP JUMPDEST DUP1 MLOAD DUP2 PUSH1 0x20 ADD REVERT JUMPDEST PUSH1 0x1 PUSH1 0x1 PUSH1 0xE0 SHL SUB NOT AND PUSH4 0xA85BD01 PUSH1 0xE1 SHL EQ SWAP1 POP PUSH2 0xFCF JUMP JUMPDEST POP PUSH1 0x1 SWAP5 SWAP4 POP POP POP POP JUMP JUMPDEST PUSH1 0x0 DUP1 PUSH19 0x184F03E93FF9F4DAA797ED6E38ED64BF6A1F01 PUSH1 0x40 SHL DUP4 LT PUSH2 0x1816 JUMPI PUSH19 0x184F03E93FF9F4DAA797ED6E38ED64BF6A1F01 PUSH1 0x40 SHL DUP4 DIV SWAP3 POP PUSH1 0x40 ADD JUMPDEST PUSH14 0x4EE2D6D415B85ACEF8100000000 DUP4 LT PUSH2 0x1842 JUMPI PUSH14 0x4EE2D6D415B85ACEF8100000000 DUP4 DIV SWAP3 POP PUSH1 0x20 ADD JUMPDEST PUSH7 0x2386F26FC10000 DUP4 LT PUSH2 0x1860 JUMPI PUSH7 0x2386F26FC10000 DUP4 DIV SWAP3 POP PUSH1 0x10 ADD JUMPDEST PUSH4 0x5F5E100 DUP4 LT PUSH2 0x1878 JUMPI PUSH4 0x5F5E100 DUP4 DIV SWAP3 POP PUSH1 0x8 ADD JUMPDEST PUSH2 0x2710 DUP4 LT PUSH2 0x188C JUMPI PUSH2 0x2710 DUP4 DIV SWAP3 POP PUSH1 0x4 ADD JUMPDEST PUSH1 0x64 DUP4 LT PUSH2 0x189E JUMPI PUSH1 0x64 DUP4 DIV SWAP3 POP PUSH1 0x2 ADD JUMPDEST PUSH1 0xA DUP4 LT PUSH2 0x527 JUMPI PUSH1 0x1 ADD SWAP3 SWAP2 POP POP JUMP JUMPDEST PUSH2 0x18B9 DUP4 DUP4 PUSH2 0x18E2 JUMP JUMPDEST PUSH2 0x18C6 PUSH1 0x0 DUP5 DUP5 DUP5 PUSH2 0x16CF JUMP JUMPDEST PUSH2 0x70D JUMPI PUSH1 0x40 MLOAD PUSH3 0x461BCD PUSH1 0xE5 SHL DUP2 MSTORE PUSH1 0x4 ADD PUSH2 0x65A SWAP1 PUSH2 0x225D JUMP JUMPDEST PUSH1 0x1 PUSH1 0x1 PUSH1 0xA0 SHL SUB DUP3 AND PUSH2 0x1938 JUMPI PUSH1 0x40 MLOAD PUSH3 0x461BCD PUSH1 0xE5 SHL DUP2 MSTORE PUSH1 0x20 PUSH1 0x4 DUP3 ADD DUP2 SWAP1 MSTORE PUSH1 0x24 DUP3 ADD MSTORE PUSH32 0x4552433732313A206D696E7420746F20746865207A65726F2061646472657373 PUSH1 0x44 DUP3 ADD MSTORE PUSH1 0x64 ADD PUSH2 0x65A JUMP JUMPDEST PUSH2 0x1941 DUP2 PUSH2 0x154A JUMP JUMPDEST ISZERO PUSH2 0x198E JUMPI PUSH1 0x40 MLOAD PUSH3 0x461BCD PUSH1 0xE5 SHL DUP2 MSTORE PUSH1 0x20 PUSH1 0x4 DUP3 ADD MSTORE PUSH1 0x1C PUSH1 0x24 DUP3 ADD MSTORE PUSH32 0x4552433732313A20746F6B656E20616C7265616479206D696E74656400000000 PUSH1 0x44 DUP3 ADD MSTORE PUSH1 0x64 ADD PUSH2 0x65A JUMP JUMPDEST PUSH2 0x199C PUSH1 0x0 DUP4 DUP4 PUSH1 0x1 PUSH2 0x162D JUMP JUMPDEST PUSH2 0x19A5 DUP2 PUSH2 0x154A JUMP JUMPDEST ISZERO PUSH2 0x19F2 JUMPI PUSH1 0x40 MLOAD PUSH3 0x461BCD PUSH1 0xE5 SHL DUP2 MSTORE PUSH1 0x20 PUSH1 0x4 DUP3 ADD MSTORE PUSH1 0x1C PUSH1 0x24 DUP3 ADD MSTORE PUSH32 0x4552433732313A20746F6B656E20616C7265616479206D696E74656400000000 PUSH1 0x44 DUP3 ADD MSTORE PUSH1 0x64 ADD PUSH2 0x65A JUMP JUMPDEST PUSH1 0x1 PUSH1 0x1 PUSH1 0xA0 SHL SUB DUP3 AND PUSH1 0x0 DUP2 DUP2 MSTORE PUSH1 0x3 PUSH1 0x20 SWAP1 DUP2 MSTORE PUSH1 0x40 DUP1 DUP4 KECCAK256 DUP1 SLOAD PUSH1 0x1 ADD SWAP1 SSTORE DUP5 DUP4 MSTORE PUSH1 0x2 SWAP1 SWAP2 MSTORE DUP1 DUP3 KECCAK256 DUP1 SLOAD PUSH1 0x1 PUSH1 0x1 PUSH1 0xA0 SHL SUB NOT AND DUP5 OR SWAP1 SSTORE MLOAD DUP4 SWAP3 SWAP2 SWAP1 PUSH32 0xDDF252AD1BE2C89B69C2B068FC378DAA952BA7F163C4A11628F55A4DF523B3EF SWAP1 DUP3 SWAP1 LOG4 POP POP JUMP JUMPDEST PUSH1 0x1 PUSH1 0x1 PUSH1 0xE0 SHL SUB NOT DUP2 AND DUP2 EQ PUSH2 0x7E0 JUMPI PUSH1 0x0 DUP1 REVERT JUMPDEST PUSH1 0x0 PUSH1 0x20 DUP3 DUP5 SUB SLT ISZERO PUSH2 0x1A85 JUMPI PUSH1 0x0 DUP1 REVERT JUMPDEST DUP2 CALLDATALOAD PUSH2 0x1A90 DUP2 PUSH2 0x1A5D JUMP JUMPDEST SWAP4 SWAP3 POP POP POP JUMP JUMPDEST PUSH1 0x0 JUMPDEST DUP4 DUP2 LT ISZERO PUSH2 0x1AB2 JUMPI DUP2 DUP2 ADD MLOAD DUP4 DUP3 ADD MSTORE PUSH1 0x20 ADD PUSH2 0x1A9A JUMP JUMPDEST POP POP PUSH1 0x0 SWAP2 ADD MSTORE JUMP JUMPDEST PUSH1 0x0 DUP2 MLOAD DUP1 DUP5 MSTORE PUSH2 0x1AD3 DUP2 PUSH1 0x20 DUP7 ADD PUSH1 0x20 DUP7 ADD PUSH2 0x1A97 JUMP JUMPDEST PUSH1 0x1F ADD PUSH1 0x1F NOT AND SWAP3 SWAP1 SWAP3 ADD PUSH1 0x20 ADD SWAP3 SWAP2 POP POP JUMP JUMPDEST PUSH1 0x20 DUP2 MSTORE PUSH1 0x0 PUSH2 0x1A90 PUSH1 0x20 DUP4 ADD DUP5 PUSH2 0x1ABB JUMP JUMPDEST PUSH1 0x0 PUSH1 0x20 DUP3 DUP5 SUB SLT ISZERO PUSH2 0x1B0C JUMPI PUSH1 0x0 DUP1 REVERT JUMPDEST POP CALLDATALOAD SWAP2 SWAP1 POP JUMP JUMPDEST DUP1 CALLDATALOAD PUSH1 0x1 PUSH1 0x1 PUSH1 0xA0 SHL SUB DUP2 AND DUP2 EQ PUSH2 0x98E JUMPI PUSH1 0x0 DUP1 REVERT JUMPDEST PUSH1 0x0 DUP1 PUSH1 0x40 DUP4 DUP6 SUB SLT ISZERO PUSH2 0x1B3D JUMPI PUSH1 0x0 DUP1 REVERT JUMPDEST PUSH2 0x1B46 DUP4 PUSH2 0x1B13 JUMP JUMPDEST SWAP5 PUSH1 0x20 SWAP4 SWAP1 SWAP4 ADD CALLDATALOAD SWAP4 POP POP POP JUMP JUMPDEST PUSH1 0x0 DUP1 PUSH1 0x0 PUSH1 0x60 DUP5 DUP7 SUB SLT ISZERO PUSH2 0x1B69 JUMPI PUSH1 0x0 DUP1 REVERT JUMPDEST PUSH2 0x1B72 DUP5 PUSH2 0x1B13 JUMP JUMPDEST SWAP3 POP PUSH2 0x1B80 PUSH1 0x20 DUP6 ADD PUSH2 0x1B13 JUMP JUMPDEST SWAP2 POP PUSH1 0x40 DUP5 ADD CALLDATALOAD SWAP1 POP SWAP3 POP SWAP3 POP SWAP3 JUMP JUMPDEST PUSH4 0x4E487B71 PUSH1 0xE0 SHL PUSH1 0x0 MSTORE PUSH1 0x41 PUSH1 0x4 MSTORE PUSH1 0x24 PUSH1 0x0 REVERT JUMPDEST PUSH1 0x0 PUSH8 0xFFFFFFFFFFFFFFFF DUP1 DUP5 GT ISZERO PUSH2 0x1BC1 JUMPI PUSH2 0x1BC1 PUSH2 0x1B90 JUMP JUMPDEST PUSH1 0x40 MLOAD PUSH1 0x1F DUP6 ADD PUSH1 0x1F NOT SWAP1 DUP2 AND PUSH1 0x3F ADD AND DUP2 ADD SWAP1 DUP3 DUP3 GT DUP2 DUP4 LT OR ISZERO PUSH2 0x1BE9 JUMPI PUSH2 0x1BE9 PUSH2 0x1B90 JUMP JUMPDEST DUP2 PUSH1 0x40 MSTORE DUP1 SWAP4 POP DUP6 DUP2 MSTORE DUP7 DUP7 DUP7 ADD GT ISZERO PUSH2 0x1C02 JUMPI PUSH1 0x0 DUP1 REVERT JUMPDEST DUP6 DUP6 PUSH1 0x20 DUP4 ADD CALLDATACOPY PUSH1 0x0 PUSH1 0x20 DUP8 DUP4 ADD ADD MSTORE POP POP POP SWAP4 SWAP3 POP POP POP JUMP JUMPDEST PUSH1 0x0 PUSH1 0x20 DUP3 DUP5 SUB SLT ISZERO PUSH2 0x1C2E JUMPI PUSH1 0x0 DUP1 REVERT JUMPDEST DUP2 CALLDATALOAD PUSH8 0xFFFFFFFFFFFFFFFF DUP2 GT ISZERO PUSH2 0x1C45 JUMPI PUSH1 0x0 DUP1 REVERT JUMPDEST DUP3 ADD PUSH1 0x1F DUP2 ADD DUP5 SGT PUSH2 0x1C56 JUMPI PUSH1 0x0 DUP1 REVERT JUMPDEST PUSH2 0xFCF DUP5 DUP3 CALLDATALOAD PUSH1 0x20 DUP5 ADD PUSH2 0x1BA6 JUMP JUMPDEST PUSH1 0x0 PUSH1 0x20 DUP3 DUP5 SUB SLT ISZERO PUSH2 0x1C77 JUMPI PUSH1 0x0 DUP1 REVERT JUMPDEST PUSH2 0x1A90 DUP3 PUSH2 0x1B13 JUMP JUMPDEST PUSH1 0x0 DUP1 PUSH1 0x20 DUP4 DUP6 SUB SLT ISZERO PUSH2 0x1C93 JUMPI PUSH1 0x0 DUP1 REVERT JUMPDEST DUP3 CALLDATALOAD PUSH8 0xFFFFFFFFFFFFFFFF DUP1 DUP3 GT ISZERO PUSH2 0x1CAB JUMPI PUSH1 0x0 DUP1 REVERT JUMPDEST DUP2 DUP6 ADD SWAP2 POP DUP6 PUSH1 0x1F DUP4 ADD SLT PUSH2 0x1CBF JUMPI PUSH1 0x0 DUP1 REVERT JUMPDEST DUP2 CALLDATALOAD DUP2 DUP2 GT ISZERO PUSH2 0x1CCE JUMPI PUSH1 0x0 DUP1 REVERT JUMPDEST DUP7 PUSH1 0x20 DUP3 DUP6 ADD ADD GT ISZERO PUSH2 0x1CE0 JUMPI PUSH1 0x0 DUP1 REVERT JUMPDEST PUSH1 0x20 SWAP3 SWAP1 SWAP3 ADD SWAP7 SWAP2 SWAP6 POP SWAP1 SWAP4 POP POP POP POP JUMP JUMPDEST PUSH1 0x0 DUP1 PUSH1 0x40 DUP4 DUP6 SUB SLT ISZERO PUSH2 0x1D05 JUMPI PUSH1 0x0 DUP1 REVERT JUMPDEST PUSH2 0x1D0E DUP4 PUSH2 0x1B13 JUMP JUMPDEST SWAP2 POP PUSH1 0x20 DUP4 ADD CALLDATALOAD DUP1 ISZERO ISZERO DUP2 EQ PUSH2 0x1D23 JUMPI PUSH1 0x0 DUP1 REVERT JUMPDEST DUP1 SWAP2 POP POP SWAP3 POP SWAP3 SWAP1 POP JUMP JUMPDEST PUSH1 0xFF DUP2 AND DUP2 EQ PUSH2 0x7E0 JUMPI PUSH1 0x0 DUP1 REVERT JUMPDEST PUSH1 0x0 DUP1 PUSH1 0x40 DUP4 DUP6 SUB SLT ISZERO PUSH2 0x1D50 JUMPI PUSH1 0x0 DUP1 REVERT JUMPDEST DUP3 CALLDATALOAD SWAP2 POP PUSH1 0x20 DUP4 ADD CALLDATALOAD PUSH2 0x1D23 DUP2 PUSH2 0x1D2E JUMP JUMPDEST PUSH1 0x0 DUP1 PUSH1 0x0 DUP1 PUSH1 0x80 DUP6 DUP8 SUB SLT ISZERO PUSH2 0x1D78 JUMPI PUSH1 0x0 DUP1 REVERT JUMPDEST PUSH2 0x1D81 DUP6 PUSH2 0x1B13 JUMP JUMPDEST SWAP4 POP PUSH2 0x1D8F PUSH1 0x20 DUP7 ADD PUSH2 0x1B13 JUMP JUMPDEST SWAP3 POP PUSH1 0x40 DUP6 ADD CALLDATALOAD SWAP2 POP PUSH1 0x60 DUP6 ADD CALLDATALOAD PUSH8 0xFFFFFFFFFFFFFFFF DUP2 GT ISZERO PUSH2 0x1DB2 JUMPI PUSH1 0x0 DUP1 REVERT JUMPDEST DUP6 ADD PUSH1 0x1F DUP2 ADD DUP8 SGT PUSH2 0x1DC3 JUMPI PUSH1 0x0 DUP1 REVERT JUMPDEST PUSH2 0x1DD2 DUP8 DUP3 CALLDATALOAD PUSH1 0x20 DUP5 ADD PUSH2 0x1BA6 JUMP JUMPDEST SWAP2 POP POP SWAP3 SWAP6 SWAP2 SWAP5 POP SWAP3 POP JUMP JUMPDEST PUSH1 0x0 DUP1 PUSH1 0x40 DUP4 DUP6 SUB SLT ISZERO PUSH2 0x1DF1 JUMPI PUSH1 0x0 DUP1 REVERT JUMPDEST PUSH2 0x1DFA DUP4 PUSH2 0x1B13 JUMP JUMPDEST SWAP2 POP PUSH2 0x1E08 PUSH1 0x20 DUP5 ADD PUSH2 0x1B13 JUMP JUMPDEST SWAP1 POP SWAP3 POP SWAP3 SWAP1 POP JUMP JUMPDEST PUSH1 0x0 DUP1 PUSH1 0x40 DUP4 DUP6 SUB SLT ISZERO PUSH2 0x1E24 JUMPI PUSH1 0x0 DUP1 REVERT JUMPDEST POP POP DUP1 CALLDATALOAD SWAP3 PUSH1 0x20 SWAP1 SWAP2 ADD CALLDATALOAD SWAP2 POP JUMP JUMPDEST PUSH1 0x1 DUP2 DUP2 SHR SWAP1 DUP3 AND DUP1 PUSH2 0x1E47 JUMPI PUSH1 0x7F DUP3 AND SWAP2 POP JUMPDEST PUSH1 0x20 DUP3 LT DUP2 SUB PUSH2 0x1E67 JUMPI PUSH4 0x4E487B71 PUSH1 0xE0 SHL PUSH1 0x0 MSTORE PUSH1 0x22 PUSH1 0x4 MSTORE PUSH1 0x24 PUSH1 0x0 REVERT JUMPDEST POP SWAP2 SWAP1 POP JUMP JUMPDEST PUSH1 0x20 DUP1 DUP3 MSTORE PUSH1 0x2D SWAP1 DUP3 ADD MSTORE PUSH32 0x4552433732313A2063616C6C6572206973206E6F7420746F6B656E206F776E65 PUSH1 0x40 DUP3 ADD MSTORE PUSH13 0x1C881BDC88185C1C1C9BDD9959 PUSH1 0x9A SHL PUSH1 0x60 DUP3 ADD MSTORE PUSH1 0x80 ADD SWAP1 JUMP JUMPDEST PUSH1 0x1F DUP3 GT ISZERO PUSH2 0x70D JUMPI PUSH1 0x0 DUP2 DUP2 MSTORE PUSH1 0x20 DUP2 KECCAK256 PUSH1 0x1F DUP6 ADD PUSH1 0x5 SHR DUP2 ADD PUSH1 0x20 DUP7 LT ISZERO PUSH2 0x1EE1 JUMPI POP DUP1 JUMPDEST PUSH1 0x1F DUP6 ADD PUSH1 0x5 SHR DUP3 ADD SWAP2 POP JUMPDEST DUP2 DUP2 LT ISZERO PUSH2 0x1F00 JUMPI DUP3 DUP2 SSTORE PUSH1 0x1 ADD PUSH2 0x1EED JUMP JUMPDEST POP POP POP POP POP POP JUMP JUMPDEST DUP2 MLOAD PUSH8 0xFFFFFFFFFFFFFFFF DUP2 GT ISZERO PUSH2 0x1F22 JUMPI PUSH2 0x1F22 PUSH2 0x1B90 JUMP JUMPDEST PUSH2 0x1F36 DUP2 PUSH2 0x1F30 DUP5 SLOAD PUSH2 0x1E33 JUMP JUMPDEST DUP5 PUSH2 0x1EBA JUMP JUMPDEST PUSH1 0x20 DUP1 PUSH1 0x1F DUP4 GT PUSH1 0x1 DUP2 EQ PUSH2 0x1F6B JUMPI PUSH1 0x0 DUP5 ISZERO PUSH2 0x1F53 JUMPI POP DUP6 DUP4 ADD MLOAD JUMPDEST PUSH1 0x0 NOT PUSH1 0x3 DUP7 SWAP1 SHL SHR NOT AND PUSH1 0x1 DUP6 SWAP1 SHL OR DUP6 SSTORE PUSH2 0x1F00 JUMP JUMPDEST PUSH1 0x0 DUP6 DUP2 MSTORE PUSH1 0x20 DUP2 KECCAK256 PUSH1 0x1F NOT DUP7 AND SWAP2 JUMPDEST DUP3 DUP2 LT ISZERO PUSH2 0x1F9A JUMPI DUP9 DUP7 ADD MLOAD DUP3 SSTORE SWAP5 DUP5 ADD SWAP5 PUSH1 0x1 SWAP1 SWAP2 ADD SWAP1 DUP5 ADD PUSH2 0x1F7B JUMP JUMPDEST POP DUP6 DUP3 LT ISZERO PUSH2 0x1FB8 JUMPI DUP8 DUP6 ADD MLOAD PUSH1 0x0 NOT PUSH1 0x3 DUP9 SWAP1 SHL PUSH1 0xF8 AND SHR NOT AND DUP2 SSTORE JUMPDEST POP POP POP POP POP PUSH1 0x1 SWAP1 DUP2 SHL ADD SWAP1 SSTORE POP JUMP JUMPDEST PUSH8 0xFFFFFFFFFFFFFFFF DUP4 GT ISZERO PUSH2 0x1FE0 JUMPI PUSH2 0x1FE0 PUSH2 0x1B90 JUMP JUMPDEST PUSH2 0x1FF4 DUP4 PUSH2 0x1FEE DUP4 SLOAD PUSH2 0x1E33 JUMP JUMPDEST DUP4 PUSH2 0x1EBA JUMP JUMPDEST PUSH1 0x0 PUSH1 0x1F DUP5 GT PUSH1 0x1 DUP2 EQ PUSH2 0x2028 JUMPI PUSH1 0x0 DUP6 ISZERO PUSH2 0x2010 JUMPI POP DUP4 DUP3 ADD CALLDATALOAD JUMPDEST PUSH1 0x0 NOT PUSH1 0x3 DUP8 SWAP1 SHL SHR NOT AND PUSH1 0x1 DUP7 SWAP1 SHL OR DUP4 SSTORE PUSH2 0x2082 JUMP JUMPDEST PUSH1 0x0 DUP4 DUP2 MSTORE PUSH1 0x20 SWAP1 KECCAK256 PUSH1 0x1F NOT DUP7 AND SWAP1 DUP4 JUMPDEST DUP3 DUP2 LT ISZERO PUSH2 0x2059 JUMPI DUP7 DUP6 ADD CALLDATALOAD DUP3 SSTORE PUSH1 0x20 SWAP5 DUP6 ADD SWAP5 PUSH1 0x1 SWAP1 SWAP3 ADD SWAP2 ADD PUSH2 0x2039 JUMP JUMPDEST POP DUP7 DUP3 LT ISZERO PUSH2 0x2076 JUMPI PUSH1 0x0 NOT PUSH1 0xF8 DUP9 PUSH1 0x3 SHL AND SHR NOT DUP5 DUP8 ADD CALLDATALOAD AND DUP2 SSTORE JUMPDEST POP POP PUSH1 0x1 DUP6 PUSH1 0x1 SHL ADD DUP4 SSTORE JUMPDEST POP POP POP POP POP JUMP JUMPDEST PUSH1 0x20 DUP1 DUP3 MSTORE PUSH1 0x1B SWAP1 DUP3 ADD MSTORE PUSH32 0x717565727920666F72206E6F6E6578697374656E7420746F6B656E0000000000 PUSH1 0x40 DUP3 ADD MSTORE PUSH1 0x60 ADD SWAP1 JUMP JUMPDEST PUSH1 0x0 PUSH1 0x20 DUP3 DUP5 SUB SLT ISZERO PUSH2 0x20D2 JUMPI PUSH1 0x0 DUP1 REVERT JUMPDEST DUP2 MLOAD PUSH2 0x1A90 DUP2 PUSH2 0x1D2E JUMP JUMPDEST PUSH4 0x4E487B71 PUSH1 0xE0 SHL PUSH1 0x0 MSTORE PUSH1 0x11 PUSH1 0x4 MSTORE PUSH1 0x24 PUSH1 0x0 REVERT JUMPDEST PUSH1 0xFF DUP2 DUP2 AND DUP4 DUP3 AND ADD SWAP1 DUP2 GT ISZERO PUSH2 0x527 JUMPI PUSH2 0x527 PUSH2 0x20DD JUMP JUMPDEST PUSH1 0x0 PUSH1 0x20 DUP3 DUP5 SUB SLT ISZERO PUSH2 0x211E JUMPI PUSH1 0x0 DUP1 REVERT JUMPDEST POP MLOAD SWAP2 SWAP1 POP JUMP JUMPDEST PUSH1 0x0 DUP2 SLOAD PUSH2 0x2132 DUP2 PUSH2 0x1E33 JUMP JUMPDEST PUSH1 0x1 DUP3 DUP2 AND DUP1 ISZERO PUSH2 0x214A JUMPI PUSH1 0x1 DUP2 EQ PUSH2 0x215F JUMPI PUSH2 0x218E JUMP JUMPDEST PUSH1 0xFF NOT DUP5 AND DUP8 MSTORE DUP3 ISZERO ISZERO DUP4 MUL DUP8 ADD SWAP5 POP PUSH2 0x218E JUMP JUMPDEST DUP6 PUSH1 0x0 MSTORE PUSH1 0x20 DUP1 PUSH1 0x0 KECCAK256 PUSH1 0x0 JUMPDEST DUP6 DUP2 LT ISZERO PUSH2 0x2185 JUMPI DUP2 SLOAD DUP11 DUP3 ADD MSTORE SWAP1 DUP5 ADD SWAP1 DUP3 ADD PUSH2 0x216C JUMP JUMPDEST POP POP POP DUP3 DUP8 ADD SWAP5 POP JUMPDEST POP POP POP POP SWAP3 SWAP2 POP POP JUMP JUMPDEST PUSH1 0x0 PUSH2 0x21A4 DUP3 DUP7 PUSH2 0x2125 JUMP JUMPDEST DUP5 MLOAD PUSH2 0x21B4 DUP2 DUP4 PUSH1 0x20 DUP10 ADD PUSH2 0x1A97 JUMP JUMPDEST PUSH2 0x21C0 DUP2 DUP4 ADD DUP7 PUSH2 0x2125 JUMP JUMPDEST SWAP8 SWAP7 POP POP POP POP POP POP POP JUMP JUMPDEST PUSH1 0x0 DUP1 PUSH1 0x0 PUSH1 0x60 DUP5 DUP7 SUB SLT ISZERO PUSH2 0x21E0 JUMPI PUSH1 0x0 DUP1 REVERT JUMPDEST DUP4 MLOAD SWAP3 POP PUSH1 0x20 DUP5 ADD MLOAD SWAP2 POP PUSH1 0x40 DUP5 ADD MLOAD SWAP1 POP SWAP3 POP SWAP3 POP SWAP3 JUMP JUMPDEST PUSH1 0x20 DUP1 DUP3 MSTORE PUSH1 0x25 SWAP1 DUP3 ADD MSTORE PUSH32 0x4552433732313A207472616E736665722066726F6D20696E636F727265637420 PUSH1 0x40 DUP3 ADD MSTORE PUSH5 0x37BBB732B9 PUSH1 0xD9 SHL PUSH1 0x60 DUP3 ADD MSTORE PUSH1 0x80 ADD SWAP1 JUMP JUMPDEST PUSH1 0x0 PUSH1 0xFF DUP3 AND PUSH1 0xFF DUP2 SUB PUSH2 0x2254 JUMPI PUSH2 0x2254 PUSH2 0x20DD JUMP JUMPDEST PUSH1 0x1 ADD SWAP3 SWAP2 POP POP JUMP JUMPDEST PUSH1 0x20 DUP1 DUP3 MSTORE PUSH1 0x32 SWAP1 DUP3 ADD MSTORE PUSH32 0x4552433732313A207472616E7366657220746F206E6F6E204552433732315265 PUSH1 0x40 DUP3 ADD MSTORE PUSH18 0x31B2B4BB32B91034B6B83632B6B2B73A32B9 PUSH1 0x71 SHL PUSH1 0x60 DUP3 ADD MSTORE PUSH1 0x80 ADD SWAP1 JUMP JUMPDEST DUP2 DUP2 SUB DUP2 DUP2 GT ISZERO PUSH2 0x527 JUMPI PUSH2 0x527 PUSH2 0x20DD JUMP JUMPDEST DUP1 DUP3 ADD DUP1 DUP3 GT ISZERO PUSH2 0x527 JUMPI PUSH2 0x527 PUSH2 0x20DD JUMP JUMPDEST PUSH1 0x1 PUSH1 0x1 PUSH1 0xA0 SHL SUB DUP6 DUP2 AND DUP3 MSTORE DUP5 AND PUSH1 0x20 DUP3 ADD MSTORE PUSH1 0x40 DUP2 ADD DUP4 SWAP1 MSTORE PUSH1 0x80 PUSH1 0x60 DUP3 ADD DUP2 SWAP1 MSTORE PUSH1 0x0 SWAP1 PUSH2 0x2308 SWAP1 DUP4 ADD DUP5 PUSH2 0x1ABB JUMP JUMPDEST SWAP7 SWAP6 POP POP POP POP POP POP JUMP JUMPDEST PUSH1 0x0 PUSH1 0x20 DUP3 DUP5 SUB SLT ISZERO PUSH2 0x2324 JUMPI PUSH1 0x0 DUP1 REVERT JUMPDEST DUP2 MLOAD PUSH2 0x1A90 DUP2 PUSH2 0x1A5D JUMP INVALID LOG2 PUSH5 0x6970667358 0x22 SLT KECCAK256 0xE1 SDIV EXTCODESIZE SWAP10 PUSH20 0xFDDA0BDE0B4806C75C09509A9CE09E34848957A5 SWAP14 0xDB 0xD7 0x4F PUSH8 0xDCEA64736F6C6343 STOP ADDMOD SLT STOP CALLER "
		},
		"gasEstimates": {
			"creation": {
				"codeDepositCost": "1812200",
				"executionCost": "infinite",
				"totalCost": "infinite"
			},
			"external": {
				"approve(address,uint256)": "infinite",
				"balanceOf(address)": "2634",
				"breeding(uint256,uint256)": "infinite",
				"charge(uint256,uint8)": "infinite",
				"contractURI()": "infinite",
				"getApproved(uint256)": "4851",
				"getBreedingContract()": "2398",
				"getMaxId()": "2337",
				"getMinId()": "2380",
				"getToken(uint256)": "6818",
				"getTrustedForwarder()": "2442",
				"isApprovedForAll(address,address)": "infinite",
				"isTrustedForwarder(address)": "2611",
				"mint(uint256)": "infinite",
				"name()": "infinite",
				"owner()": "2442",
				"ownerOf(uint256)": "2650",
				"renounceOwnership()": "infinite",
				"safeTransferFrom(address,address,uint256)": "infinite",
				"safeTransferFrom(address,address,uint256,bytes)": "infinite",
				"setApprovalForAll(address,bool)": "29099",
				"setBaseExtension(string)": "infinite",
				"setBaseURI(string)": "infinite",
				"setBreedingContract(address)": "29201",
				"setContractURI(string)": "infinite",
				"setMaxId(uint256)": "26911",
				"setMinId(uint256)": "26954",
				"supportsInterface(bytes4)": "557",
				"symbol()": "infinite",
				"tokenURI(uint256)": "infinite",
				"totalSupply()": "2398",
				"transferFrom(address,address,uint256)": "infinite",
				"transferOwnership(address)": "30823",
				"withdraw()": "infinite"
			},
			"internal": {
				"_msgData()": "infinite",
				"_msgSender()": "2313",
				"createToken(uint256,uint256,uint256)": "infinite"
			}
		},
		"methodIdentifiers": {
			"approve(address,uint256)": "095ea7b3",
			"balanceOf(address)": "70a08231",
			"breeding(uint256,uint256)": "fbbe20a9",
			"charge(uint256,uint8)": "afa69d49",
			"contractURI()": "e8a3d485",
			"getApproved(uint256)": "081812fc",
			"getBreedingContract()": "c3b1f0b4",
			"getMaxId()": "d477a712",
			"getMinId()": "eb4b0e51",
			"getToken(uint256)": "e4b50cb8",
			"getTrustedForwarder()": "ce1b815f",
			"isApprovedForAll(address,address)": "e985e9c5",
			"isTrustedForwarder(address)": "572b6c05",
			"mint(uint256)": "a0712d68",
			"name()": "06fdde03",
			"owner()": "8da5cb5b",
			"ownerOf(uint256)": "6352211e",
			"renounceOwnership()": "715018a6",
			"safeTransferFrom(address,address,uint256)": "42842e0e",
			"safeTransferFrom(address,address,uint256,bytes)": "b88d4fde",
			"setApprovalForAll(address,bool)": "a22cb465",
			"setBaseExtension(string)": "da3ef23f",
			"setBaseURI(string)": "55f804b3",
			"setBreedingContract(address)": "8c5527cf",
			"setContractURI(string)": "938e3d7b",
			"setMaxId(uint256)": "16bd8646",
			"setMinId(uint256)": "e2e3a0db",
			"supportsInterface(bytes4)": "01ffc9a7",
			"symbol()": "95d89b41",
			"tokenURI(uint256)": "c87b56dd",
			"totalSupply()": "18160ddd",
			"transferFrom(address,address,uint256)": "23b872dd",
			"transferOwnership(address)": "f2fde38b",
			"withdraw()": "3ccfd60b"
		}
	},
	"abi": [
		{
			"inputs": [],
			"stateMutability": "nonpayable",
			"type": "constructor"
		},
		{
			"anonymous": false,
			"inputs": [
				{
					"indexed": true,
					"internalType": "address",
					"name": "owner",
					"type": "address"
				},
				{
					"indexed": true,
					"internalType": "address",
					"name": "approved",
					"type": "address"
				},
				{
					"indexed": true,
					"internalType": "uint256",
					"name": "tokenId",
					"type": "uint256"
				}
			],
			"name": "Approval",
			"type": "event"
		},
		{
			"anonymous": false,
			"inputs": [
				{
					"indexed": true,
					"internalType": "address",
					"name": "owner",
					"type": "address"
				},
				{
					"indexed": true,
					"internalType": "address",
					"name": "operator",
					"type": "address"
				},
				{
					"indexed": false,
					"internalType": "bool",
					"name": "approved",
					"type": "bool"
				}
			],
			"name": "ApprovalForAll",
			"type": "event"
		},
		{
			"anonymous": false,
			"inputs": [
				{
					"indexed": false,
					"internalType": "uint256",
					"name": "tokenId",
					"type": "uint256"
				},
				{
					"indexed": false,
					"internalType": "uint256",
					"name": "genes",
					"type": "uint256"
				}
			],
			"name": "Charged",
			"type": "event"
		},
		{
			"anonymous": false,
			"inputs": [
				{
					"indexed": true,
					"internalType": "address",
					"name": "previousOwner",
					"type": "address"
				},
				{
					"indexed": true,
					"internalType": "address",
					"name": "newOwner",
					"type": "address"
				}
			],
			"name": "OwnershipTransferred",
			"type": "event"
		},
		{
			"anonymous": false,
			"inputs": [
				{
					"indexed": true,
					"internalType": "address",
					"name": "from",
					"type": "address"
				},
				{
					"indexed": true,
					"internalType": "address",
					"name": "to",
					"type": "address"
				},
				{
					"indexed": true,
					"internalType": "uint256",
					"name": "tokenId",
					"type": "uint256"
				}
			],
			"name": "Transfer",
			"type": "event"
		},
		{
			"anonymous": false,
			"inputs": [
				{
					"indexed": false,
					"internalType": "uint256",
					"name": "tokenId",
					"type": "uint256"
				},
				{
					"indexed": false,
					"internalType": "uint256",
					"name": "parent1",
					"type": "uint256"
				},
				{
					"indexed": false,
					"internalType": "uint256",
					"name": "parent2",
					"type": "uint256"
				},
				{
					"indexed": false,
					"internalType": "uint256",
					"name": "genes",
					"type": "uint256"
				}
			],
			"name": "WasBorn",
			"type": "event"
		},
		{
			"inputs": [
				{
					"internalType": "address",
					"name": "to",
					"type": "address"
				},
				{
					"internalType": "uint256",
					"name": "tokenId",
					"type": "uint256"
				}
			],
			"name": "approve",
			"outputs": [],
			"stateMutability": "nonpayable",
			"type": "function"
		},
		{
			"inputs": [
				{
					"internalType": "address",
					"name": "owner",
					"type": "address"
				}
			],
			"name": "balanceOf",
			"outputs": [
				{
					"internalType": "uint256",
					"name": "",
					"type": "uint256"
				}
			],
			"stateMutability": "view",
			"type": "function"
		},
		{
			"inputs": [
				{
					"internalType": "uint256",
					"name": "token1",
					"type": "uint256"
				},
				{
					"internalType": "uint256",
					"name": "token2",
					"type": "uint256"
				}
			],
			"name": "breeding",
			"outputs": [
				{
					"internalType": "uint256",
					"name": "newTokenId",
					"type": "uint256"
				}
			],
			"stateMutability": "nonpayable",
			"type": "function"
		},
		{
			"inputs": [
				{
					"internalType": "uint256",
					"name": "tokenId",
					"type": "uint256"
				},
				{
					"internalType": "uint8",
					"name": "value",
					"type": "uint8"
				}
			],
			"name": "charge",
			"outputs": [],
			"stateMutability": "nonpayable",
			"type": "function"
		},
		{
			"inputs": [],
			"name": "contractURI",
			"outputs": [
				{
					"internalType": "string",
					"name": "",
					"type": "string"
				}
			],
			"stateMutability": "view",
			"type": "function"
		},
		{
			"inputs": [
				{
					"internalType": "uint256",
					"name": "tokenId",
					"type": "uint256"
				}
			],
			"name": "getApproved",
			"outputs": [
				{
					"internalType": "address",
					"name": "",
					"type": "address"
				}
			],
			"stateMutability": "view",
			"type": "function"
		},
		{
			"inputs": [],
			"name": "getBreedingContract",
			"outputs": [
				{
					"internalType": "address",
					"name": "",
					"type": "address"
				}
			],
			"stateMutability": "view",
			"type": "function"
		},
		{
			"inputs": [],
			"name": "getMaxId",
			"outputs": [
				{
					"internalType": "uint256",
					"name": "",
					"type": "uint256"
				}
			],
			"stateMutability": "view",
			"type": "function"
		},
		{
			"inputs": [],
			"name": "getMinId",
			"outputs": [
				{
					"internalType": "uint256",
					"name": "",
					"type": "uint256"
				}
			],
			"stateMutability": "view",
			"type": "function"
		},
		{
			"inputs": [
				{
					"internalType": "uint256",
					"name": "tokenId",
					"type": "uint256"
				}
			],
			"name": "getToken",
			"outputs": [
				{
					"internalType": "uint256",
					"name": "mom",
					"type": "uint256"
				},
				{
					"internalType": "uint256",
					"name": "dad",
					"type": "uint256"
				},
				{
					"internalType": "uint256",
					"name": "genes",
					"type": "uint256"
				}
			],
			"stateMutability": "view",
			"type": "function"
		},
		{
			"inputs": [],
			"name": "getTrustedForwarder",
			"outputs": [
				{
					"internalType": "address",
					"name": "forwarder",
					"type": "address"
				}
			],
			"stateMutability": "view",
			"type": "function"
		},
		{
			"inputs": [
				{
					"internalType": "address",
					"name": "owner",
					"type": "address"
				},
				{
					"internalType": "address",
					"name": "operator",
					"type": "address"
				}
			],
			"name": "isApprovedForAll",
			"outputs": [
				{
					"internalType": "bool",
					"name": "",
					"type": "bool"
				}
			],
			"stateMutability": "view",
			"type": "function"
		},
		{
			"inputs": [
				{
					"internalType": "address",
					"name": "forwarder",
					"type": "address"
				}
			],
			"name": "isTrustedForwarder",
			"outputs": [
				{
					"internalType": "bool",
					"name": "",
					"type": "bool"
				}
			],
			"stateMutability": "view",
			"type": "function"
		},
		{
			"inputs": [
				{
					"internalType": "uint256",
					"name": "genes",
					"type": "uint256"
				}
			],
			"name": "mint",
			"outputs": [
				{
					"internalType": "uint256",
					"name": "",
					"type": "uint256"
				}
			],
			"stateMutability": "nonpayable",
			"type": "function"
		},
		{
			"inputs": [],
			"name": "name",
			"outputs": [
				{
					"internalType": "string",
					"name": "",
					"type": "string"
				}
			],
			"stateMutability": "view",
			"type": "function"
		},
		{
			"inputs": [],
			"name": "owner",
			"outputs": [
				{
					"internalType": "address",
					"name": "",
					"type": "address"
				}
			],
			"stateMutability": "view",
			"type": "function"
		},
		{
			"inputs": [
				{
					"internalType": "uint256",
					"name": "tokenId",
					"type": "uint256"
				}
			],
			"name": "ownerOf",
			"outputs": [
				{
					"internalType": "address",
					"name": "",
					"type": "address"
				}
			],
			"stateMutability": "view",
			"type": "function"
		},
		{
			"inputs": [],
			"name": "renounceOwnership",
			"outputs": [],
			"stateMutability": "nonpayable",
			"type": "function"
		},
		{
			"inputs": [
				{
					"internalType": "address",
					"name": "from",
					"type": "address"
				},
				{
					"internalType": "address",
					"name": "to",
					"type": "address"
				},
				{
					"internalType": "uint256",
					"name": "tokenId",
					"type": "uint256"
				}
			],
			"name": "safeTransferFrom",
			"outputs": [],
			"stateMutability": "nonpayable",
			"type": "function"
		},
		{
			"inputs": [
				{
					"internalType": "address",
					"name": "from",
					"type": "address"
				},
				{
					"internalType": "address",
					"name": "to",
					"type": "address"
				},
				{
					"internalType": "uint256",
					"name": "tokenId",
					"type": "uint256"
				},
				{
					"internalType": "bytes",
					"name": "data",
					"type": "bytes"
				}
			],
			"name": "safeTransferFrom",
			"outputs": [],
			"stateMutability": "nonpayable",
			"type": "function"
		},
		{
			"inputs": [
				{
					"internalType": "address",
					"name": "operator",
					"type": "address"
				},
				{
					"internalType": "bool",
					"name": "approved",
					"type": "bool"
				}
			],
			"name": "setApprovalForAll",
			"outputs": [],
			"stateMutability": "nonpayable",
			"type": "function"
		},
		{
			"inputs": [
				{
					"internalType": "string",
					"name": "extension",
					"type": "string"
				}
			],
			"name": "setBaseExtension",
			"outputs": [],
			"stateMutability": "nonpayable",
			"type": "function"
		},
		{
			"inputs": [
				{
					"internalType": "string",
					"name": "uri",
					"type": "string"
				}
			],
			"name": "setBaseURI",
			"outputs": [],
			"stateMutability": "nonpayable",
			"type": "function"
		},
		{
			"inputs": [
				{
					"internalType": "address",
					"name": "breedingContract",
					"type": "address"
				}
			],
			"name": "setBreedingContract",
			"outputs": [],
			"stateMutability": "nonpayable",
			"type": "function"
		},
		{
			"inputs": [
				{
					"internalType": "string",
					"name": "uri",
					"type": "string"
				}
			],
			"name": "setContractURI",
			"outputs": [],
			"stateMutability": "nonpayable",
			"type": "function"
		},
		{
			"inputs": [
				{
					"internalType": "uint256",
					"name": "value",
					"type": "uint256"
				}
			],
			"name": "setMaxId",
			"outputs": [],
			"stateMutability": "nonpayable",
			"type": "function"
		},
		{
			"inputs": [
				{
					"internalType": "uint256",
					"name": "value",
					"type": "uint256"
				}
			],
			"name": "setMinId",
			"outputs": [],
			"stateMutability": "nonpayable",
			"type": "function"
		},
		{
			"inputs": [
				{
					"internalType": "bytes4",
					"name": "interfaceId",
					"type": "bytes4"
				}
			],
			"name": "supportsInterface",
			"outputs": [
				{
					"internalType": "bool",
					"name": "",
					"type": "bool"
				}
			],
			"stateMutability": "view",
			"type": "function"
		},
		{
			"inputs": [],
			"name": "symbol",
			"outputs": [
				{
					"internalType": "string",
					"name": "",
					"type": "string"
				}
			],
			"stateMutability": "view",
			"type": "function"
		},
		{
			"inputs": [
				{
					"internalType": "uint256",
					"name": "tokenId",
					"type": "uint256"
				}
			],
			"name": "tokenURI",
			"outputs": [
				{
					"internalType": "string",
					"name": "",
					"type": "string"
				}
			],
			"stateMutability": "view",
			"type": "function"
		},
		{
			"inputs": [],
			"name": "totalSupply",
			"outputs": [
				{
					"internalType": "uint256",
					"name": "",
					"type": "uint256"
				}
			],
			"stateMutability": "view",
			"type": "function"
		},
		{
			"inputs": [
				{
					"internalType": "address",
					"name": "from",
					"type": "address"
				},
				{
					"internalType": "address",
					"name": "to",
					"type": "address"
				},
				{
					"internalType": "uint256",
					"name": "tokenId",
					"type": "uint256"
				}
			],
			"name": "transferFrom",
			"outputs": [],
			"stateMutability": "nonpayable",
			"type": "function"
		},
		{
			"inputs": [
				{
					"internalType": "address",
					"name": "newOwner",
					"type": "address"
				}
			],
			"name": "transferOwnership",
			"outputs": [],
			"stateMutability": "nonpayable",
			"type": "function"
		},
		{
			"inputs": [],
			"name": "withdraw",
			"outputs": [],
			"stateMutability": "nonpayable",
			"type": "function"
		}
	]
}