{
	"data": {
		"bytecode": {
			"linkReferences": {},
			"object": "60806040526040518060400160405280600581526020017f2e6a736f6e000000000000000000000000000000000000000000000000000000815250600f90816200004a919062000528565b503480156200005857600080fd5b506040518060400160405280600881526020017f53686f546f6b656e0000000000000000000000000000000000000000000000008152506040518060400160405280600681526020017f53484f544b4e00000000000000000000000000000000000000000000000000008152508160009081620000d6919062000528565b508060019081620000e8919062000528565b5050506200010b620000ff6200011160201b60201c565b6200012d60201b60201c565b6200060f565b600062000128620001f360201b620014071760201c565b905090565b6000600660009054906101000a900473ffffffffffffffffffffffffffffffffffffffff16905081600660006101000a81548173ffffffffffffffffffffffffffffffffffffffff021916908373ffffffffffffffffffffffffffffffffffffffff1602179055508173ffffffffffffffffffffffffffffffffffffffff168173ffffffffffffffffffffffffffffffffffffffff167f8be0079c531659141344cd1fd0a4f28419497f9722a3daafe3b4186f6b6457e060405160405180910390a35050565b6000601460003690501015801562000218575062000217336200023560201b60201c565b5b156200022e57601436033560601c905062000232565b3390505b90565b60006200024d826200025460201b6200143e1760201c565b9050919050565b6000600760009054906101000a900473ffffffffffffffffffffffffffffffffffffffff1673ffffffffffffffffffffffffffffffffffffffff168273ffffffffffffffffffffffffffffffffffffffff16149050919050565b600081519050919050565b7f4e487b7100000000000000000000000000000000000000000000000000000000600052604160045260246000fd5b7f4e487b7100000000000000000000000000000000000000000000000000000000600052602260045260246000fd5b600060028204905060018216806200033057607f821691505b602082108103620003465762000345620002e8565b5b50919050565b60008190508160005260206000209050919050565b60006020601f8301049050919050565b600082821b905092915050565b600060088302620003b07fffffffffffffffffffffffffffffffffffffffffffffffffffffffffffffffff8262000371565b620003bc868362000371565b95508019841693508086168417925050509392505050565b6000819050919050565b6000819050919050565b60006200040962000403620003fd84620003d4565b620003de565b620003d4565b9050919050565b6000819050919050565b6200042583620003e8565b6200043d620004348262000410565b8484546200037e565b825550505050565b600090565b6200045462000445565b620004618184846200041a565b505050565b5b8181101562000489576200047d6000826200044a565b60018101905062000467565b5050565b601f821115620004d857620004a2816200034c565b620004ad8462000361565b81016020851015620004bd578190505b620004d5620004cc8562000361565b83018262000466565b50505b505050565b600082821c905092915050565b6000620004fd60001984600802620004dd565b1980831691505092915050565b6000620005188383620004ea565b9150826002028217905092915050565b6200053382620002ae565b67ffffffffffffffff8111156200054f576200054e620002b9565b5b6200055b825462000317565b620005688282856200048d565b600060209050601f831160018114620005a057600084156200058b578287015190505b6200059785826200050a565b86555062000607565b601f198416620005b0866200034c565b60005b82811015620005da57848901518255600182019150602085019450602081019050620005b3565b86831015620005fa5784890151620005f6601f891682620004ea565b8355505b6001600288020188555050505b505050505050565b613e99806200061f6000396000f3fe608060405234801561001057600080fd5b50600436106101da5760003560e01c8063938e3d7b11610104578063c87b56dd116100a2578063e8a3d48511610071578063e8a3d4851461053d578063e985e9c51461055b578063f2fde38b1461058b578063fcbc4cee146105a7576101da565b8063c87b56dd146104b7578063ce1b815f146104e7578063da3ef23f14610505578063de405b1814610521576101da565b8063b88d4fde116100de578063b88d4fde1461041f578063b921a4001461043b578063bc4ddb521461046b578063c6be88a41461049b576101da565b8063938e3d7b146103c957806395d89b41146103e5578063a22cb46514610403576101da565b806342842e0e1161017c57806370a082311161014b57806370a0823114610355578063715018a6146103855780638c5527cf1461038f5780638da5cb5b146103ab576101da565b806342842e0e146102bd57806355f804b3146102d9578063572b6c05146102f55780636352211e14610325576101da565b8063095ea7b3116101b8578063095ea7b31461025d57806318160ddd1461027957806323b872dd146102975780633ccfd60b146102b3576101da565b806301ffc9a7146101df57806306fdde031461020f578063081812fc1461022d575b600080fd5b6101f960048036038101906101f4919061263e565b6105c3565b6040516102069190612686565b60405180910390f35b6102176106a5565b6040516102249190612731565b60405180910390f35b61024760048036038101906102429190612789565b610737565b60405161025491906127f7565b60405180910390f35b6102776004803603810190610272919061283e565b61077d565b005b610281610894565b60405161028e919061288d565b60405180910390f35b6102b160048036038101906102ac91906128a8565b6108a5565b005b6102bb610905565b005b6102d760048036038101906102d291906128a8565b61098d565b005b6102f360048036038101906102ee9190612a30565b6109ad565b005b61030f600480360381019061030a9190612a79565b6109c8565b60405161031c9190612686565b60405180910390f35b61033f600480360381019061033a9190612789565b6109da565b60405161034c91906127f7565b60405180910390f35b61036f600480360381019061036a9190612a79565b610a60565b60405161037c919061288d565b60405180910390f35b61038d610b17565b005b6103a960048036038101906103a49190612a79565b610b2b565b005b6103b3610b77565b6040516103c091906127f7565b60405180910390f35b6103e360048036038101906103de9190612b06565b610ba1565b005b6103ed610bbf565b6040516103fa9190612731565b60405180910390f35b61041d60048036038101906104189190612b7f565b610c51565b005b61043960048036038101906104349190612c60565b610c67565b005b61045560048036038101906104509190612ce3565b610cc9565b604051610462919061288d565b60405180910390f35b61048560048036038101906104809190612d5c565b610fb5565b604051610492919061288d565b60405180910390f35b6104b560048036038101906104b09190612d5c565b610fd4565b005b6104d160048036038101906104cc9190612789565b611138565b6040516104de9190612731565b60405180910390f35b6104ef6111b7565b6040516104fc91906127f7565b60405180910390f35b61051f600480360381019061051a9190612a30565b6111e1565b005b61053b60048036038101906105369190612d9c565b6111ec565b005b610545611212565b6040516105529190612731565b60405180910390f35b61057560048036038101906105709190612dc9565b6112a4565b6040516105829190612686565b60405180910390f35b6105a560048036038101906105a09190612a79565b611338565b005b6105c160048036038101906105bc9190612a79565b6113bb565b005b60007f80ac58cd000000000000000000000000000000000000000000000000000000007bffffffffffffffffffffffffffffffffffffffffffffffffffffffff1916827bffffffffffffffffffffffffffffffffffffffffffffffffffffffff1916148061068e57507f5b5e139f000000000000000000000000000000000000000000000000000000007bffffffffffffffffffffffffffffffffffffffffffffffffffffffff1916827bffffffffffffffffffffffffffffffffffffffffffffffffffffffff1916145b8061069e575061069d82611498565b5b9050919050565b6060600080546106b490612e38565b80601f01602080910402602001604051908101604052809291908181526020018280546106e090612e38565b801561072d5780601f106107025761010080835404028352916020019161072d565b820191906000526020600020905b81548152906001019060200180831161071057829003601f168201915b5050505050905090565b600061074282611502565b6004600083815260200190815260200160002060009054906101000a900473ffffffffffffffffffffffffffffffffffffffff169050919050565b6000610788826109da565b90508073ffffffffffffffffffffffffffffffffffffffff168373ffffffffffffffffffffffffffffffffffffffff16036107f8576040517f08c379a00000000000000000000000000000000000000000000000000000000081526004016107ef90612edb565b60405180910390fd5b8073ffffffffffffffffffffffffffffffffffffffff1661081761154d565b73ffffffffffffffffffffffffffffffffffffffff16148061084657506108458161084061154d565b6112a4565b5b610885576040517f08c379a000000000000000000000000000000000000000000000000000000000815260040161087c90612f6d565b60405180910390fd5b61088f838361155c565b505050565b60006108a06008611615565b905090565b6108b66108b061154d565b82611623565b6108f5576040517f08c379a00000000000000000000000000000000000000000000000000000000081526004016108ec90612fff565b60405180910390fd5b6109008383836116b8565b505050565b61090d6119b1565b6000610917610b77565b73ffffffffffffffffffffffffffffffffffffffff164760405161093a90613050565b60006040518083038185875af1925050503d8060008114610977576040519150601f19603f3d011682016040523d82523d6000602084013e61097c565b606091505b505090508061098a57600080fd5b50565b6109a883838360405180602001604052806000815250610c67565b505050565b6109b56119b1565b80600e90816109c49190613211565b5050565b60006109d38261143e565b9050919050565b6000806109e683611a2f565b9050600073ffffffffffffffffffffffffffffffffffffffff168173ffffffffffffffffffffffffffffffffffffffff1603610a57576040517f08c379a0000000000000000000000000000000000000000000000000000000008152600401610a4e9061332f565b60405180910390fd5b80915050919050565b60008073ffffffffffffffffffffffffffffffffffffffff168273ffffffffffffffffffffffffffffffffffffffff1603610ad0576040517f08c379a0000000000000000000000000000000000000000000000000000000008152600401610ac7906133c1565b60405180910390fd5b600360008373ffffffffffffffffffffffffffffffffffffffff1673ffffffffffffffffffffffffffffffffffffffff168152602001908152602001600020549050919050565b610b1f6119b1565b610b296000611a6c565b565b610b336119b1565b80600c60006101000a81548173ffffffffffffffffffffffffffffffffffffffff021916908373ffffffffffffffffffffffffffffffffffffffff16021790555050565b6000600660009054906101000a900473ffffffffffffffffffffffffffffffffffffffff16905090565b610ba96119b1565b8181600d9182610bba9291906133ec565b505050565b606060018054610bce90612e38565b80601f0160208091040260200160405190810160405280929190818152602001828054610bfa90612e38565b8015610c475780601f10610c1c57610100808354040283529160200191610c47565b820191906000526020600020905b815481529060010190602001808311610c2a57829003601f168201915b5050505050905090565b610c63610c5c61154d565b8383611b32565b5050565b610c78610c7261154d565b83611623565b610cb7576040517f08c379a0000000000000000000000000000000000000000000000000000000008152600401610cae90612fff565b60405180910390fd5b610cc384848484611c9e565b50505050565b6000610cd36119b1565b610cdc83611cfa565b610d1b576040517f08c379a0000000000000000000000000000000000000000000000000000000008152600401610d1290613508565b60405180910390fd5b610d2482611cfa565b610d63576040517f08c379a0000000000000000000000000000000000000000000000000000000008152600401610d5a90613508565b60405180910390fd5b6000600a600085815260200190815260200160002090506000600a60008581526020019081526020016000209050600960009054906101000a900460ff1660ff168260030160009054906101000a900460ff1660ff161015610dfa576040517f08c379a0000000000000000000000000000000000000000000000000000000008152600401610df190613574565b60405180910390fd5b600960009054906101000a900460ff1660ff168160030160009054906101000a900460ff1660ff161015610e63576040517f08c379a0000000000000000000000000000000000000000000000000000000008152600401610e5a90613574565b60405180910390fd5b6000600c60009054906101000a900473ffffffffffffffffffffffffffffffffffffffff1673ffffffffffffffffffffffffffffffffffffffff1663e4a13fb7846002015484600201546040518363ffffffff1660e01b8152600401610eca929190613594565b6020604051808303816000875af1158015610ee9573d6000803e3d6000fd5b505050506040513d601f19601f82011682018060405250810190610f0d91906135d2565b9050610f1c8686836001611d3b565b9350600960009054906101000a900460ff168360030160008282829054906101000a900460ff16610f4d919061362e565b92506101000a81548160ff021916908360ff160217905550600960009054906101000a900460ff168260030160008282829054906101000a900460ff16610f94919061362e565b92506101000a81548160ff021916908360ff16021790555050505092915050565b6000610fbf6119b1565b610fcc6000808585611d3b565b905092915050565b610fdc6119b1565b610fe582611cfa565b611024576040517f08c379a000000000000000000000000000000000000000000000000000000000815260040161101b90613508565b60405180910390fd5b600b60009054906101000a900473ffffffffffffffffffffffffffffffffffffffff1673ffffffffffffffffffffffffffffffffffffffff1663c290d691826040518263ffffffff1660e01b815260040161107f9190613694565b600060405180830381600087803b15801561109957600080fd5b505af11580156110ad573d6000803e3d6000fd5b5050505080600a600084815260200190815260200160002060030160008282829054906101000a900460ff166110e391906136af565b92506101000a81548160ff021916908360ff1602179055507ff4d8c9183c1ae5f9d1dde6edf0d08ab75f4e38c8896340f590b8a8e20acea9b6828260405161112c9291906136f3565b60405180910390a15050565b606061114382611cfa565b611182576040517f08c379a00000000000000000000000000000000000000000000000000000000081526004016111799061378e565b60405180910390fd5b600e61118d83611e2f565b600f6040516020016111a19392919061386d565b6040516020818303038152906040529050919050565b6000600760009054906101000a900473ffffffffffffffffffffffffffffffffffffffff16905090565b6111e96119b1565b50565b6111f46119b1565b80600960006101000a81548160ff021916908360ff16021790555050565b6060600d805461122190612e38565b80601f016020809104026020016040519081016040528092919081815260200182805461124d90612e38565b801561129a5780601f1061126f5761010080835404028352916020019161129a565b820191906000526020600020905b81548152906001019060200180831161127d57829003601f168201915b5050505050905090565b6000600560008473ffffffffffffffffffffffffffffffffffffffff1673ffffffffffffffffffffffffffffffffffffffff16815260200190815260200160002060008373ffffffffffffffffffffffffffffffffffffffff1673ffffffffffffffffffffffffffffffffffffffff16815260200190815260200160002060009054906101000a900460ff16905092915050565b6113406119b1565b600073ffffffffffffffffffffffffffffffffffffffff168173ffffffffffffffffffffffffffffffffffffffff16036113af576040517f08c379a00000000000000000000000000000000000000000000000000000000081526004016113a690613910565b60405180910390fd5b6113b881611a6c565b50565b6113c36119b1565b80600b60006101000a81548173ffffffffffffffffffffffffffffffffffffffff021916908373ffffffffffffffffffffffffffffffffffffffff16021790555050565b600060146000369050101580156114235750611422336109c8565b5b1561143757601436033560601c905061143b565b3390505b90565b6000600760009054906101000a900473ffffffffffffffffffffffffffffffffffffffff1673ffffffffffffffffffffffffffffffffffffffff168273ffffffffffffffffffffffffffffffffffffffff16149050919050565b60007f01ffc9a7000000000000000000000000000000000000000000000000000000007bffffffffffffffffffffffffffffffffffffffffffffffffffffffff1916827bffffffffffffffffffffffffffffffffffffffffffffffffffffffff1916149050919050565b61150b81611cfa565b61154a576040517f08c379a00000000000000000000000000000000000000000000000000000000081526004016115419061332f565b60405180910390fd5b50565b6000611557611407565b905090565b816004600083815260200190815260200160002060006101000a81548173ffffffffffffffffffffffffffffffffffffffff021916908373ffffffffffffffffffffffffffffffffffffffff160217905550808273ffffffffffffffffffffffffffffffffffffffff166115cf836109da565b73ffffffffffffffffffffffffffffffffffffffff167f8c5be1e5ebec7d5bd14f71427d1e84f3dd0314c0f7b2291e5b200ac8c7c3b92560405160405180910390a45050565b600081600001549050919050565b60008061162f836109da565b90508073ffffffffffffffffffffffffffffffffffffffff168473ffffffffffffffffffffffffffffffffffffffff161480611671575061167081856112a4565b5b806116af57508373ffffffffffffffffffffffffffffffffffffffff1661169784610737565b73ffffffffffffffffffffffffffffffffffffffff16145b91505092915050565b8273ffffffffffffffffffffffffffffffffffffffff166116d8826109da565b73ffffffffffffffffffffffffffffffffffffffff161461172e576040517f08c379a0000000000000000000000000000000000000000000000000000000008152600401611725906139a2565b60405180910390fd5b600073ffffffffffffffffffffffffffffffffffffffff168273ffffffffffffffffffffffffffffffffffffffff160361179d576040517f08c379a000000000000000000000000000000000000000000000000000000000815260040161179490613a34565b60405180910390fd5b6117aa8383836001611efd565b8273ffffffffffffffffffffffffffffffffffffffff166117ca826109da565b73ffffffffffffffffffffffffffffffffffffffff1614611820576040517f08c379a0000000000000000000000000000000000000000000000000000000008152600401611817906139a2565b60405180910390fd5b6004600082815260200190815260200160002060006101000a81549073ffffffffffffffffffffffffffffffffffffffff02191690556001600360008573ffffffffffffffffffffffffffffffffffffffff1673ffffffffffffffffffffffffffffffffffffffff168152602001908152602001600020600082825403925050819055506001600360008473ffffffffffffffffffffffffffffffffffffffff1673ffffffffffffffffffffffffffffffffffffffff16815260200190815260200160002060008282540192505081905550816002600083815260200190815260200160002060006101000a81548173ffffffffffffffffffffffffffffffffffffffff021916908373ffffffffffffffffffffffffffffffffffffffff160217905550808273ffffffffffffffffffffffffffffffffffffffff168473ffffffffffffffffffffffffffffffffffffffff167fddf252ad1be2c89b69c2b068fc378daa952ba7f163c4a11628f55a4df523b3ef60405160405180910390a46119ac8383836001612023565b505050565b6119b961154d565b73ffffffffffffffffffffffffffffffffffffffff166119d7610b77565b73ffffffffffffffffffffffffffffffffffffffff1614611a2d576040517f08c379a0000000000000000000000000000000000000000000000000000000008152600401611a2490613aa0565b60405180910390fd5b565b60006002600083815260200190815260200160002060009054906101000a900473ffffffffffffffffffffffffffffffffffffffff169050919050565b6000600660009054906101000a900473ffffffffffffffffffffffffffffffffffffffff16905081600660006101000a81548173ffffffffffffffffffffffffffffffffffffffff021916908373ffffffffffffffffffffffffffffffffffffffff1602179055508173ffffffffffffffffffffffffffffffffffffffff168173ffffffffffffffffffffffffffffffffffffffff167f8be0079c531659141344cd1fd0a4f28419497f9722a3daafe3b4186f6b6457e060405160405180910390a35050565b8173ffffffffffffffffffffffffffffffffffffffff168373ffffffffffffffffffffffffffffffffffffffff1603611ba0576040517f08c379a0000000000000000000000000000000000000000000000000000000008152600401611b9790613b0c565b60405180910390fd5b80600560008573ffffffffffffffffffffffffffffffffffffffff1673ffffffffffffffffffffffffffffffffffffffff16815260200190815260200160002060008473ffffffffffffffffffffffffffffffffffffffff1673ffffffffffffffffffffffffffffffffffffffff16815260200190815260200160002060006101000a81548160ff0219169083151502179055508173ffffffffffffffffffffffffffffffffffffffff168373ffffffffffffffffffffffffffffffffffffffff167f17307eab39ab6107e8899845ad3d59bd9653f200f220920489ca2b5937696c3183604051611c919190612686565b60405180910390a3505050565b611ca98484846116b8565b611cb584848484612029565b611cf4576040517f08c379a0000000000000000000000000000000000000000000000000000000008152600401611ceb90613b9e565b60405180910390fd5b50505050565b60008073ffffffffffffffffffffffffffffffffffffffff16611d1c83611a2f565b73ffffffffffffffffffffffffffffffffffffffff1614159050919050565b60008060405180608001604052808781526020018681526020018581526020018460ff168152509050611d6e60086121b0565b6000611d7a6008611615565b905081600a600083815260200190815260200160002060008201518160000155602082015181600101556040820151816002015560608201518160030160006101000a81548160ff021916908360ff160217905550905050611de3611ddd610b77565b826121c6565b7f81210e9473326a0df5d95fa9c4f679b03f5904cd6f2aab7e686c1431f337ea468188888888604051611e1a959493929190613bbe565b60405180910390a18092505050949350505050565b606060006001611e3e846121e4565b01905060008167ffffffffffffffff811115611e5d57611e5c612905565b5b6040519080825280601f01601f191660200182016040528015611e8f5781602001600182028036833780820191505090505b509050600082602001820190505b600115611ef2578080600190039150507f3031323334353637383961626364656600000000000000000000000000000000600a86061a8153600a8581611ee657611ee5613c11565b5b04945060008503611e9d575b819350505050919050565b600181111561201d57600073ffffffffffffffffffffffffffffffffffffffff168473ffffffffffffffffffffffffffffffffffffffff1614611f915780600360008673ffffffffffffffffffffffffffffffffffffffff1673ffffffffffffffffffffffffffffffffffffffff1681526020019081526020016000206000828254611f899190613c40565b925050819055505b600073ffffffffffffffffffffffffffffffffffffffff168373ffffffffffffffffffffffffffffffffffffffff161461201c5780600360008573ffffffffffffffffffffffffffffffffffffffff1673ffffffffffffffffffffffffffffffffffffffff16815260200190815260200160002060008282546120149190613c74565b925050819055505b5b50505050565b50505050565b600061204a8473ffffffffffffffffffffffffffffffffffffffff16612337565b156121a3578373ffffffffffffffffffffffffffffffffffffffff1663150b7a0261207361154d565b8786866040518563ffffffff1660e01b81526004016120959493929190613cfd565b6020604051808303816000875af19250505080156120d157506040513d601f19601f820116820180604052508101906120ce9190613d5e565b60015b612153573d8060008114612101576040519150601f19603f3d011682016040523d82523d6000602084013e612106565b606091505b50600081510361214b576040517f08c379a000000000000000000000000000000000000000000000000000000000815260040161214290613b9e565b60405180910390fd5b805181602001fd5b63150b7a0260e01b7bffffffffffffffffffffffffffffffffffffffffffffffffffffffff1916817bffffffffffffffffffffffffffffffffffffffffffffffffffffffff1916149150506121a8565b600190505b949350505050565b6001816000016000828254019250508190555050565b6121e082826040518060200160405280600081525061235a565b5050565b600080600090507a184f03e93ff9f4daa797ed6e38ed64bf6a1f0100000000000000008310612242577a184f03e93ff9f4daa797ed6e38ed64bf6a1f010000000000000000838161223857612237613c11565b5b0492506040810190505b6d04ee2d6d415b85acef8100000000831061227f576d04ee2d6d415b85acef8100000000838161227557612274613c11565b5b0492506020810190505b662386f26fc1000083106122ae57662386f26fc1000083816122a4576122a3613c11565b5b0492506010810190505b6305f5e10083106122d7576305f5e10083816122cd576122cc613c11565b5b0492506008810190505b61271083106122fc5761271083816122f2576122f1613c11565b5b0492506004810190505b6064831061231f576064838161231557612314613c11565b5b0492506002810190505b600a831061232e576001810190505b80915050919050565b6000808273ffffffffffffffffffffffffffffffffffffffff163b119050919050565b61236483836123b5565b6123716000848484612029565b6123b0576040517f08c379a00000000000000000000000000000000000000000000000000000000081526004016123a790613b9e565b60405180910390fd5b505050565b600073ffffffffffffffffffffffffffffffffffffffff168273ffffffffffffffffffffffffffffffffffffffff1603612424576040517f08c379a000000000000000000000000000000000000000000000000000000000815260040161241b90613dd7565b60405180910390fd5b61242d81611cfa565b1561246d576040517f08c379a000000000000000000000000000000000000000000000000000000000815260040161246490613e43565b60405180910390fd5b61247b600083836001611efd565b61248481611cfa565b156124c4576040517f08c379a00000000000000000000000000000000000000000000000000000000081526004016124bb90613e43565b60405180910390fd5b6001600360008473ffffffffffffffffffffffffffffffffffffffff1673ffffffffffffffffffffffffffffffffffffffff16815260200190815260200160002060008282540192505081905550816002600083815260200190815260200160002060006101000a81548173ffffffffffffffffffffffffffffffffffffffff021916908373ffffffffffffffffffffffffffffffffffffffff160217905550808273ffffffffffffffffffffffffffffffffffffffff16600073ffffffffffffffffffffffffffffffffffffffff167fddf252ad1be2c89b69c2b068fc378daa952ba7f163c4a11628f55a4df523b3ef60405160405180910390a46125ce600083836001612023565b5050565b6000604051905090565b600080fd5b600080fd5b60007fffffffff0000000000000000000000000000000000000000000000000000000082169050919050565b61261b816125e6565b811461262657600080fd5b50565b60008135905061263881612612565b92915050565b600060208284031215612654576126536125dc565b5b600061266284828501612629565b91505092915050565b60008115159050919050565b6126808161266b565b82525050565b600060208201905061269b6000830184612677565b92915050565b600081519050919050565b600082825260208201905092915050565b60005b838110156126db5780820151818401526020810190506126c0565b60008484015250505050565b6000601f19601f8301169050919050565b6000612703826126a1565b61270d81856126ac565b935061271d8185602086016126bd565b612726816126e7565b840191505092915050565b6000602082019050818103600083015261274b81846126f8565b905092915050565b6000819050919050565b61276681612753565b811461277157600080fd5b50565b6000813590506127838161275d565b92915050565b60006020828403121561279f5761279e6125dc565b5b60006127ad84828501612774565b91505092915050565b600073ffffffffffffffffffffffffffffffffffffffff82169050919050565b60006127e1826127b6565b9050919050565b6127f1816127d6565b82525050565b600060208201905061280c60008301846127e8565b92915050565b61281b816127d6565b811461282657600080fd5b50565b60008135905061283881612812565b92915050565b60008060408385031215612855576128546125dc565b5b600061286385828601612829565b925050602061287485828601612774565b9150509250929050565b61288781612753565b82525050565b60006020820190506128a2600083018461287e565b92915050565b6000806000606084860312156128c1576128c06125dc565b5b60006128cf86828701612829565b93505060206128e086828701612829565b92505060406128f186828701612774565b9150509250925092565b600080fd5b600080fd5b7f4e487b7100000000000000000000000000000000000000000000000000000000600052604160045260246000fd5b61293d826126e7565b810181811067ffffffffffffffff8211171561295c5761295b612905565b5b80604052505050565b600061296f6125d2565b905061297b8282612934565b919050565b600067ffffffffffffffff82111561299b5761299a612905565b5b6129a4826126e7565b9050602081019050919050565b82818337600083830152505050565b60006129d36129ce84612980565b612965565b9050828152602081018484840111156129ef576129ee612900565b5b6129fa8482856129b1565b509392505050565b600082601f830112612a1757612a166128fb565b5b8135612a278482602086016129c0565b91505092915050565b600060208284031215612a4657612a456125dc565b5b600082013567ffffffffffffffff811115612a6457612a636125e1565b5b612a7084828501612a02565b91505092915050565b600060208284031215612a8f57612a8e6125dc565b5b6000612a9d84828501612829565b91505092915050565b600080fd5b600080fd5b60008083601f840112612ac657612ac56128fb565b5b8235905067ffffffffffffffff811115612ae357612ae2612aa6565b5b602083019150836001820283011115612aff57612afe612aab565b5b9250929050565b60008060208385031215612b1d57612b1c6125dc565b5b600083013567ffffffffffffffff811115612b3b57612b3a6125e1565b5b612b4785828601612ab0565b92509250509250929050565b612b5c8161266b565b8114612b6757600080fd5b50565b600081359050612b7981612b53565b92915050565b60008060408385031215612b9657612b956125dc565b5b6000612ba485828601612829565b9250506020612bb585828601612b6a565b9150509250929050565b600067ffffffffffffffff821115612bda57612bd9612905565b5b612be3826126e7565b9050602081019050919050565b6000612c03612bfe84612bbf565b612965565b905082815260208101848484011115612c1f57612c1e612900565b5b612c2a8482856129b1565b509392505050565b600082601f830112612c4757612c466128fb565b5b8135612c57848260208601612bf0565b91505092915050565b60008060008060808587031215612c7a57612c796125dc565b5b6000612c8887828801612829565b9450506020612c9987828801612829565b9350506040612caa87828801612774565b925050606085013567ffffffffffffffff811115612ccb57612cca6125e1565b5b612cd787828801612c32565b91505092959194509250565b60008060408385031215612cfa57612cf96125dc565b5b6000612d0885828601612774565b9250506020612d1985828601612774565b9150509250929050565b600060ff82169050919050565b612d3981612d23565b8114612d4457600080fd5b50565b600081359050612d5681612d30565b92915050565b60008060408385031215612d7357612d726125dc565b5b6000612d8185828601612774565b9250506020612d9285828601612d47565b9150509250929050565b600060208284031215612db257612db16125dc565b5b6000612dc084828501612d47565b91505092915050565b60008060408385031215612de057612ddf6125dc565b5b6000612dee85828601612829565b9250506020612dff85828601612829565b9150509250929050565b7f4e487b7100000000000000000000000000000000000000000000000000000000600052602260045260246000fd5b60006002820490506001821680612e5057607f821691505b602082108103612e6357612e62612e09565b5b50919050565b7f4552433732313a20617070726f76616c20746f2063757272656e74206f776e6560008201527f7200000000000000000000000000000000000000000000000000000000000000602082015250565b6000612ec56021836126ac565b9150612ed082612e69565b604082019050919050565b60006020820190508181036000830152612ef481612eb8565b9050919050565b7f4552433732313a20617070726f76652063616c6c6572206973206e6f7420746f60008201527f6b656e206f776e6572206f7220617070726f76656420666f7220616c6c000000602082015250565b6000612f57603d836126ac565b9150612f6282612efb565b604082019050919050565b60006020820190508181036000830152612f8681612f4a565b9050919050565b7f4552433732313a2063616c6c6572206973206e6f7420746f6b656e206f776e6560008201527f72206f7220617070726f76656400000000000000000000000000000000000000602082015250565b6000612fe9602d836126ac565b9150612ff482612f8d565b604082019050919050565b6000602082019050818103600083015261301881612fdc565b9050919050565b600081905092915050565b50565b600061303a60008361301f565b91506130458261302a565b600082019050919050565b600061305b8261302d565b9150819050919050565b60008190508160005260206000209050919050565b60006020601f8301049050919050565b600082821b905092915050565b6000600883026130c77fffffffffffffffffffffffffffffffffffffffffffffffffffffffffffffffff8261308a565b6130d1868361308a565b95508019841693508086168417925050509392505050565b6000819050919050565b600061310e61310961310484612753565b6130e9565b612753565b9050919050565b6000819050919050565b613128836130f3565b61313c61313482613115565b848454613097565b825550505050565b600090565b613151613144565b61315c81848461311f565b505050565b5b8181101561318057613175600082613149565b600181019050613162565b5050565b601f8211156131c55761319681613065565b61319f8461307a565b810160208510156131ae578190505b6131c26131ba8561307a565b830182613161565b50505b505050565b600082821c905092915050565b60006131e8600019846008026131ca565b1980831691505092915050565b600061320183836131d7565b9150826002028217905092915050565b61321a826126a1565b67ffffffffffffffff81111561323357613232612905565b5b61323d8254612e38565b613248828285613184565b600060209050601f83116001811461327b5760008415613269578287015190505b61327385826131f5565b8655506132db565b601f19841661328986613065565b60005b828110156132b15784890151825560018201915060208501945060208101905061328c565b868310156132ce57848901516132ca601f8916826131d7565b8355505b6001600288020188555050505b505050505050565b7f4552433732313a20696e76616c696420746f6b656e2049440000000000000000600082015250565b60006133196018836126ac565b9150613324826132e3565b602082019050919050565b600060208201905081810360008301526133488161330c565b9050919050565b7f4552433732313a2061646472657373207a65726f206973206e6f74206120766160008201527f6c6964206f776e65720000000000000000000000000000000000000000000000602082015250565b60006133ab6029836126ac565b91506133b68261334f565b604082019050919050565b600060208201905081810360008301526133da8161339e565b9050919050565b600082905092915050565b6133f683836133e1565b67ffffffffffffffff81111561340f5761340e612905565b5b6134198254612e38565b613424828285613184565b6000601f8311600181146134535760008415613441578287013590505b61344b85826131f5565b8655506134b3565b601f19841661346186613065565b60005b8281101561348957848901358255600182019150602085019450602081019050613464565b868310156134a657848901356134a2601f8916826131d7565b8355505b6001600288020188555050505b50505050505050565b7f717565727920666f72206e6f6e6578697374656e7420746f6b656e0000000000600082015250565b60006134f2601b836126ac565b91506134fd826134bc565b602082019050919050565b60006020820190508181036000830152613521816134e5565b9050919050565b7f696e73756666696369656e742063686172676500000000000000000000000000600082015250565b600061355e6013836126ac565b915061356982613528565b602082019050919050565b6000602082019050818103600083015261358d81613551565b9050919050565b60006040820190506135a9600083018561287e565b6135b6602083018461287e565b9392505050565b6000815190506135cc8161275d565b92915050565b6000602082840312156135e8576135e76125dc565b5b60006135f6848285016135bd565b91505092915050565b7f4e487b7100000000000000000000000000000000000000000000000000000000600052601160045260246000fd5b600061363982612d23565b915061364483612d23565b9250828203905060ff81111561365d5761365c6135ff565b5b92915050565b600061367e61367961367484612d23565b6130e9565b612753565b9050919050565b61368e81613663565b82525050565b60006020820190506136a96000830184613685565b92915050565b60006136ba82612d23565b91506136c583612d23565b9250828201905060ff8111156136de576136dd6135ff565b5b92915050565b6136ed81612d23565b82525050565b6000604082019050613708600083018561287e565b61371560208301846136e4565b9392505050565b7f4552433732314d657461646174613a2055524920717565727920666f72206e6f60008201527f6e6578697374656e7420746f6b656e0000000000000000000000000000000000602082015250565b6000613778602f836126ac565b91506137838261371c565b604082019050919050565b600060208201905081810360008301526137a78161376b565b9050919050565b600081905092915050565b600081546137c681612e38565b6137d081866137ae565b945060018216600081146137eb576001811461380057613833565b60ff1983168652811515820286019350613833565b61380985613065565b60005b8381101561382b5781548189015260018201915060208101905061380c565b838801955050505b50505092915050565b6000613847826126a1565b61385181856137ae565b93506138618185602086016126bd565b80840191505092915050565b600061387982866137b9565b9150613885828561383c565b915061389182846137b9565b9150819050949350505050565b7f4f776e61626c653a206e6577206f776e657220697320746865207a65726f206160008201527f6464726573730000000000000000000000000000000000000000000000000000602082015250565b60006138fa6026836126ac565b91506139058261389e565b604082019050919050565b60006020820190508181036000830152613929816138ed565b9050919050565b7f4552433732313a207472616e736665722066726f6d20696e636f72726563742060008201527f6f776e6572000000000000000000000000000000000000000000000000000000602082015250565b600061398c6025836126ac565b915061399782613930565b604082019050919050565b600060208201905081810360008301526139bb8161397f565b9050919050565b7f4552433732313a207472616e7366657220746f20746865207a65726f2061646460008201527f7265737300000000000000000000000000000000000000000000000000000000602082015250565b6000613a1e6024836126ac565b9150613a29826139c2565b604082019050919050565b60006020820190508181036000830152613a4d81613a11565b9050919050565b7f4f776e61626c653a2063616c6c6572206973206e6f7420746865206f776e6572600082015250565b6000613a8a6020836126ac565b9150613a9582613a54565b602082019050919050565b60006020820190508181036000830152613ab981613a7d565b9050919050565b7f4552433732313a20617070726f766520746f2063616c6c657200000000000000600082015250565b6000613af66019836126ac565b9150613b0182613ac0565b602082019050919050565b60006020820190508181036000830152613b2581613ae9565b9050919050565b7f4552433732313a207472616e7366657220746f206e6f6e20455243373231526560008201527f63656976657220696d706c656d656e7465720000000000000000000000000000602082015250565b6000613b886032836126ac565b9150613b9382613b2c565b604082019050919050565b60006020820190508181036000830152613bb781613b7b565b9050919050565b600060a082019050613bd3600083018861287e565b613be0602083018761287e565b613bed604083018661287e565b613bfa606083018561287e565b613c0760808301846136e4565b9695505050505050565b7f4e487b7100000000000000000000000000000000000000000000000000000000600052601260045260246000fd5b6000613c4b82612753565b9150613c5683612753565b9250828203905081811115613c6e57613c6d6135ff565b5b92915050565b6000613c7f82612753565b9150613c8a83612753565b9250828201905080821115613ca257613ca16135ff565b5b92915050565b600081519050919050565b600082825260208201905092915050565b6000613ccf82613ca8565b613cd98185613cb3565b9350613ce98185602086016126bd565b613cf2816126e7565b840191505092915050565b6000608082019050613d1260008301876127e8565b613d1f60208301866127e8565b613d2c604083018561287e565b8181036060830152613d3e8184613cc4565b905095945050505050565b600081519050613d5881612612565b92915050565b600060208284031215613d7457613d736125dc565b5b6000613d8284828501613d49565b91505092915050565b7f4552433732313a206d696e7420746f20746865207a65726f2061646472657373600082015250565b6000613dc16020836126ac565b9150613dcc82613d8b565b602082019050919050565b60006020820190508181036000830152613df081613db4565b9050919050565b7f4552433732313a20746f6b656e20616c7265616479206d696e74656400000000600082015250565b6000613e2d601c836126ac565b9150613e3882613df7565b602082019050919050565b60006020820190508181036000830152613e5c81613e20565b905091905056fea2646970667358221220613b2307a3dff473611d9fe460589c49d446fa8126d7a24bda2ee5f4854d676064736f6c63430008120033",
			"opcodes": "PUSH1 0x80 PUSH1 0x40 MSTORE PUSH1 0x40 MLOAD DUP1 PUSH1 0x40 ADD PUSH1 0x40 MSTORE DUP1 PUSH1 0x5 DUP2 MSTORE PUSH1 0x20 ADD PUSH32 0x2E6A736F6E000000000000000000000000000000000000000000000000000000 DUP2 MSTORE POP PUSH1 0xF SWAP1 DUP2 PUSH3 0x4A SWAP2 SWAP1 PUSH3 0x528 JUMP JUMPDEST POP CALLVALUE DUP1 ISZERO PUSH3 0x58 JUMPI PUSH1 0x0 DUP1 REVERT JUMPDEST POP PUSH1 0x40 MLOAD DUP1 PUSH1 0x40 ADD PUSH1 0x40 MSTORE DUP1 PUSH1 0x8 DUP2 MSTORE PUSH1 0x20 ADD PUSH32 0x53686F546F6B656E000000000000000000000000000000000000000000000000 DUP2 MSTORE POP PUSH1 0x40 MLOAD DUP1 PUSH1 0x40 ADD PUSH1 0x40 MSTORE DUP1 PUSH1 0x6 DUP2 MSTORE PUSH1 0x20 ADD PUSH32 0x53484F544B4E0000000000000000000000000000000000000000000000000000 DUP2 MSTORE POP DUP2 PUSH1 0x0 SWAP1 DUP2 PUSH3 0xD6 SWAP2 SWAP1 PUSH3 0x528 JUMP JUMPDEST POP DUP1 PUSH1 0x1 SWAP1 DUP2 PUSH3 0xE8 SWAP2 SWAP1 PUSH3 0x528 JUMP JUMPDEST POP POP POP PUSH3 0x10B PUSH3 0xFF PUSH3 0x111 PUSH1 0x20 SHL PUSH1 0x20 SHR JUMP JUMPDEST PUSH3 0x12D PUSH1 0x20 SHL PUSH1 0x20 SHR JUMP JUMPDEST PUSH3 0x60F JUMP JUMPDEST PUSH1 0x0 PUSH3 0x128 PUSH3 0x1F3 PUSH1 0x20 SHL PUSH3 0x1407 OR PUSH1 0x20 SHR JUMP JUMPDEST SWAP1 POP SWAP1 JUMP JUMPDEST PUSH1 0x0 PUSH1 0x6 PUSH1 0x0 SWAP1 SLOAD SWAP1 PUSH2 0x100 EXP SWAP1 DIV PUSH20 0xFFFFFFFFFFFFFFFFFFFFFFFFFFFFFFFFFFFFFFFF AND SWAP1 POP DUP2 PUSH1 0x6 PUSH1 0x0 PUSH2 0x100 EXP DUP2 SLOAD DUP2 PUSH20 0xFFFFFFFFFFFFFFFFFFFFFFFFFFFFFFFFFFFFFFFF MUL NOT AND SWAP1 DUP4 PUSH20 0xFFFFFFFFFFFFFFFFFFFFFFFFFFFFFFFFFFFFFFFF AND MUL OR SWAP1 SSTORE POP DUP2 PUSH20 0xFFFFFFFFFFFFFFFFFFFFFFFFFFFFFFFFFFFFFFFF AND DUP2 PUSH20 0xFFFFFFFFFFFFFFFFFFFFFFFFFFFFFFFFFFFFFFFF AND PUSH32 0x8BE0079C531659141344CD1FD0A4F28419497F9722A3DAAFE3B4186F6B6457E0 PUSH1 0x40 MLOAD PUSH1 0x40 MLOAD DUP1 SWAP2 SUB SWAP1 LOG3 POP POP JUMP JUMPDEST PUSH1 0x0 PUSH1 0x14 PUSH1 0x0 CALLDATASIZE SWAP1 POP LT ISZERO DUP1 ISZERO PUSH3 0x218 JUMPI POP PUSH3 0x217 CALLER PUSH3 0x235 PUSH1 0x20 SHL PUSH1 0x20 SHR JUMP JUMPDEST JUMPDEST ISZERO PUSH3 0x22E JUMPI PUSH1 0x14 CALLDATASIZE SUB CALLDATALOAD PUSH1 0x60 SHR SWAP1 POP PUSH3 0x232 JUMP JUMPDEST CALLER SWAP1 POP JUMPDEST SWAP1 JUMP JUMPDEST PUSH1 0x0 PUSH3 0x24D DUP3 PUSH3 0x254 PUSH1 0x20 SHL PUSH3 0x143E OR PUSH1 0x20 SHR JUMP JUMPDEST SWAP1 POP SWAP2 SWAP1 POP JUMP JUMPDEST PUSH1 0x0 PUSH1 0x7 PUSH1 0x0 SWAP1 SLOAD SWAP1 PUSH2 0x100 EXP SWAP1 DIV PUSH20 0xFFFFFFFFFFFFFFFFFFFFFFFFFFFFFFFFFFFFFFFF AND PUSH20 0xFFFFFFFFFFFFFFFFFFFFFFFFFFFFFFFFFFFFFFFF AND DUP3 PUSH20 0xFFFFFFFFFFFFFFFFFFFFFFFFFFFFFFFFFFFFFFFF AND EQ SWAP1 POP SWAP2 SWAP1 POP JUMP JUMPDEST PUSH1 0x0 DUP2 MLOAD SWAP1 POP SWAP2 SWAP1 POP JUMP JUMPDEST PUSH32 0x4E487B7100000000000000000000000000000000000000000000000000000000 PUSH1 0x0 MSTORE PUSH1 0x41 PUSH1 0x4 MSTORE PUSH1 0x24 PUSH1 0x0 REVERT JUMPDEST PUSH32 0x4E487B7100000000000000000000000000000000000000000000000000000000 PUSH1 0x0 MSTORE PUSH1 0x22 PUSH1 0x4 MSTORE PUSH1 0x24 PUSH1 0x0 REVERT JUMPDEST PUSH1 0x0 PUSH1 0x2 DUP3 DIV SWAP1 POP PUSH1 0x1 DUP3 AND DUP1 PUSH3 0x330 JUMPI PUSH1 0x7F DUP3 AND SWAP2 POP JUMPDEST PUSH1 0x20 DUP3 LT DUP2 SUB PUSH3 0x346 JUMPI PUSH3 0x345 PUSH3 0x2E8 JUMP JUMPDEST JUMPDEST POP SWAP2 SWAP1 POP JUMP JUMPDEST PUSH1 0x0 DUP2 SWAP1 POP DUP2 PUSH1 0x0 MSTORE PUSH1 0x20 PUSH1 0x0 KECCAK256 SWAP1 POP SWAP2 SWAP1 POP JUMP JUMPDEST PUSH1 0x0 PUSH1 0x20 PUSH1 0x1F DUP4 ADD DIV SWAP1 POP SWAP2 SWAP1 POP JUMP JUMPDEST PUSH1 0x0 DUP3 DUP3 SHL SWAP1 POP SWAP3 SWAP2 POP POP JUMP JUMPDEST PUSH1 0x0 PUSH1 0x8 DUP4 MUL PUSH3 0x3B0 PUSH32 0xFFFFFFFFFFFFFFFFFFFFFFFFFFFFFFFFFFFFFFFFFFFFFFFFFFFFFFFFFFFFFFFF DUP3 PUSH3 0x371 JUMP JUMPDEST PUSH3 0x3BC DUP7 DUP4 PUSH3 0x371 JUMP JUMPDEST SWAP6 POP DUP1 NOT DUP5 AND SWAP4 POP DUP1 DUP7 AND DUP5 OR SWAP3 POP POP POP SWAP4 SWAP3 POP POP POP JUMP JUMPDEST PUSH1 0x0 DUP2 SWAP1 POP SWAP2 SWAP1 POP JUMP JUMPDEST PUSH1 0x0 DUP2 SWAP1 POP SWAP2 SWAP1 POP JUMP JUMPDEST PUSH1 0x0 PUSH3 0x409 PUSH3 0x403 PUSH3 0x3FD DUP5 PUSH3 0x3D4 JUMP JUMPDEST PUSH3 0x3DE JUMP JUMPDEST PUSH3 0x3D4 JUMP JUMPDEST SWAP1 POP SWAP2 SWAP1 POP JUMP JUMPDEST PUSH1 0x0 DUP2 SWAP1 POP SWAP2 SWAP1 POP JUMP JUMPDEST PUSH3 0x425 DUP4 PUSH3 0x3E8 JUMP JUMPDEST PUSH3 0x43D PUSH3 0x434 DUP3 PUSH3 0x410 JUMP JUMPDEST DUP5 DUP5 SLOAD PUSH3 0x37E JUMP JUMPDEST DUP3 SSTORE POP POP POP POP JUMP JUMPDEST PUSH1 0x0 SWAP1 JUMP JUMPDEST PUSH3 0x454 PUSH3 0x445 JUMP JUMPDEST PUSH3 0x461 DUP2 DUP5 DUP5 PUSH3 0x41A JUMP JUMPDEST POP POP POP JUMP JUMPDEST JUMPDEST DUP2 DUP2 LT ISZERO PUSH3 0x489 JUMPI PUSH3 0x47D PUSH1 0x0 DUP3 PUSH3 0x44A JUMP JUMPDEST PUSH1 0x1 DUP2 ADD SWAP1 POP PUSH3 0x467 JUMP JUMPDEST POP POP JUMP JUMPDEST PUSH1 0x1F DUP3 GT ISZERO PUSH3 0x4D8 JUMPI PUSH3 0x4A2 DUP2 PUSH3 0x34C JUMP JUMPDEST PUSH3 0x4AD DUP5 PUSH3 0x361 JUMP JUMPDEST DUP2 ADD PUSH1 0x20 DUP6 LT ISZERO PUSH3 0x4BD JUMPI DUP2 SWAP1 POP JUMPDEST PUSH3 0x4D5 PUSH3 0x4CC DUP6 PUSH3 0x361 JUMP JUMPDEST DUP4 ADD DUP3 PUSH3 0x466 JUMP JUMPDEST POP POP JUMPDEST POP POP POP JUMP JUMPDEST PUSH1 0x0 DUP3 DUP3 SHR SWAP1 POP SWAP3 SWAP2 POP POP JUMP JUMPDEST PUSH1 0x0 PUSH3 0x4FD PUSH1 0x0 NOT DUP5 PUSH1 0x8 MUL PUSH3 0x4DD JUMP JUMPDEST NOT DUP1 DUP4 AND SWAP2 POP POP SWAP3 SWAP2 POP POP JUMP JUMPDEST PUSH1 0x0 PUSH3 0x518 DUP4 DUP4 PUSH3 0x4EA JUMP JUMPDEST SWAP2 POP DUP3 PUSH1 0x2 MUL DUP3 OR SWAP1 POP SWAP3 SWAP2 POP POP JUMP JUMPDEST PUSH3 0x533 DUP3 PUSH3 0x2AE JUMP JUMPDEST PUSH8 0xFFFFFFFFFFFFFFFF DUP2 GT ISZERO PUSH3 0x54F JUMPI PUSH3 0x54E PUSH3 0x2B9 JUMP JUMPDEST JUMPDEST PUSH3 0x55B DUP3 SLOAD PUSH3 0x317 JUMP JUMPDEST PUSH3 0x568 DUP3 DUP3 DUP6 PUSH3 0x48D JUMP JUMPDEST PUSH1 0x0 PUSH1 0x20 SWAP1 POP PUSH1 0x1F DUP4 GT PUSH1 0x1 DUP2 EQ PUSH3 0x5A0 JUMPI PUSH1 0x0 DUP5 ISZERO PUSH3 0x58B JUMPI DUP3 DUP8 ADD MLOAD SWAP1 POP JUMPDEST PUSH3 0x597 DUP6 DUP3 PUSH3 0x50A JUMP JUMPDEST DUP7 SSTORE POP PUSH3 0x607 JUMP JUMPDEST PUSH1 0x1F NOT DUP5 AND PUSH3 0x5B0 DUP7 PUSH3 0x34C JUMP JUMPDEST PUSH1 0x0 JUMPDEST DUP3 DUP2 LT ISZERO PUSH3 0x5DA JUMPI DUP5 DUP10 ADD MLOAD DUP3 SSTORE PUSH1 0x1 DUP3 ADD SWAP2 POP PUSH1 0x20 DUP6 ADD SWAP5 POP PUSH1 0x20 DUP2 ADD SWAP1 POP PUSH3 0x5B3 JUMP JUMPDEST DUP7 DUP4 LT ISZERO PUSH3 0x5FA JUMPI DUP5 DUP10 ADD MLOAD PUSH3 0x5F6 PUSH1 0x1F DUP10 AND DUP3 PUSH3 0x4EA JUMP JUMPDEST DUP4 SSTORE POP JUMPDEST PUSH1 0x1 PUSH1 0x2 DUP9 MUL ADD DUP9 SSTORE POP POP POP JUMPDEST POP POP POP POP POP POP JUMP JUMPDEST PUSH2 0x3E99 DUP1 PUSH3 0x61F PUSH1 0x0 CODECOPY PUSH1 0x0 RETURN INVALID PUSH1 0x80 PUSH1 0x40 MSTORE CALLVALUE DUP1 ISZERO PUSH2 0x10 JUMPI PUSH1 0x0 DUP1 REVERT JUMPDEST POP PUSH1 0x4 CALLDATASIZE LT PUSH2 0x1DA JUMPI PUSH1 0x0 CALLDATALOAD PUSH1 0xE0 SHR DUP1 PUSH4 0x938E3D7B GT PUSH2 0x104 JUMPI DUP1 PUSH4 0xC87B56DD GT PUSH2 0xA2 JUMPI DUP1 PUSH4 0xE8A3D485 GT PUSH2 0x71 JUMPI DUP1 PUSH4 0xE8A3D485 EQ PUSH2 0x53D JUMPI DUP1 PUSH4 0xE985E9C5 EQ PUSH2 0x55B JUMPI DUP1 PUSH4 0xF2FDE38B EQ PUSH2 0x58B JUMPI DUP1 PUSH4 0xFCBC4CEE EQ PUSH2 0x5A7 JUMPI PUSH2 0x1DA JUMP JUMPDEST DUP1 PUSH4 0xC87B56DD EQ PUSH2 0x4B7 JUMPI DUP1 PUSH4 0xCE1B815F EQ PUSH2 0x4E7 JUMPI DUP1 PUSH4 0xDA3EF23F EQ PUSH2 0x505 JUMPI DUP1 PUSH4 0xDE405B18 EQ PUSH2 0x521 JUMPI PUSH2 0x1DA JUMP JUMPDEST DUP1 PUSH4 0xB88D4FDE GT PUSH2 0xDE JUMPI DUP1 PUSH4 0xB88D4FDE EQ PUSH2 0x41F JUMPI DUP1 PUSH4 0xB921A400 EQ PUSH2 0x43B JUMPI DUP1 PUSH4 0xBC4DDB52 EQ PUSH2 0x46B JUMPI DUP1 PUSH4 0xC6BE88A4 EQ PUSH2 0x49B JUMPI PUSH2 0x1DA JUMP JUMPDEST DUP1 PUSH4 0x938E3D7B EQ PUSH2 0x3C9 JUMPI DUP1 PUSH4 0x95D89B41 EQ PUSH2 0x3E5 JUMPI DUP1 PUSH4 0xA22CB465 EQ PUSH2 0x403 JUMPI PUSH2 0x1DA JUMP JUMPDEST DUP1 PUSH4 0x42842E0E GT PUSH2 0x17C JUMPI DUP1 PUSH4 0x70A08231 GT PUSH2 0x14B JUMPI DUP1 PUSH4 0x70A08231 EQ PUSH2 0x355 JUMPI DUP1 PUSH4 0x715018A6 EQ PUSH2 0x385 JUMPI DUP1 PUSH4 0x8C5527CF EQ PUSH2 0x38F JUMPI DUP1 PUSH4 0x8DA5CB5B EQ PUSH2 0x3AB JUMPI PUSH2 0x1DA JUMP JUMPDEST DUP1 PUSH4 0x42842E0E EQ PUSH2 0x2BD JUMPI DUP1 PUSH4 0x55F804B3 EQ PUSH2 0x2D9 JUMPI DUP1 PUSH4 0x572B6C05 EQ PUSH2 0x2F5 JUMPI DUP1 PUSH4 0x6352211E EQ PUSH2 0x325 JUMPI PUSH2 0x1DA JUMP JUMPDEST DUP1 PUSH4 0x95EA7B3 GT PUSH2 0x1B8 JUMPI DUP1 PUSH4 0x95EA7B3 EQ PUSH2 0x25D JUMPI DUP1 PUSH4 0x18160DDD EQ PUSH2 0x279 JUMPI DUP1 PUSH4 0x23B872DD EQ PUSH2 0x297 JUMPI DUP1 PUSH4 0x3CCFD60B EQ PUSH2 0x2B3 JUMPI PUSH2 0x1DA JUMP JUMPDEST DUP1 PUSH4 0x1FFC9A7 EQ PUSH2 0x1DF JUMPI DUP1 PUSH4 0x6FDDE03 EQ PUSH2 0x20F JUMPI DUP1 PUSH4 0x81812FC EQ PUSH2 0x22D JUMPI JUMPDEST PUSH1 0x0 DUP1 REVERT JUMPDEST PUSH2 0x1F9 PUSH1 0x4 DUP1 CALLDATASIZE SUB DUP2 ADD SWAP1 PUSH2 0x1F4 SWAP2 SWAP1 PUSH2 0x263E JUMP JUMPDEST PUSH2 0x5C3 JUMP JUMPDEST PUSH1 0x40 MLOAD PUSH2 0x206 SWAP2 SWAP1 PUSH2 0x2686 JUMP JUMPDEST PUSH1 0x40 MLOAD DUP1 SWAP2 SUB SWAP1 RETURN JUMPDEST PUSH2 0x217 PUSH2 0x6A5 JUMP JUMPDEST PUSH1 0x40 MLOAD PUSH2 0x224 SWAP2 SWAP1 PUSH2 0x2731 JUMP JUMPDEST PUSH1 0x40 MLOAD DUP1 SWAP2 SUB SWAP1 RETURN JUMPDEST PUSH2 0x247 PUSH1 0x4 DUP1 CALLDATASIZE SUB DUP2 ADD SWAP1 PUSH2 0x242 SWAP2 SWAP1 PUSH2 0x2789 JUMP JUMPDEST PUSH2 0x737 JUMP JUMPDEST PUSH1 0x40 MLOAD PUSH2 0x254 SWAP2 SWAP1 PUSH2 0x27F7 JUMP JUMPDEST PUSH1 0x40 MLOAD DUP1 SWAP2 SUB SWAP1 RETURN JUMPDEST PUSH2 0x277 PUSH1 0x4 DUP1 CALLDATASIZE SUB DUP2 ADD SWAP1 PUSH2 0x272 SWAP2 SWAP1 PUSH2 0x283E JUMP JUMPDEST PUSH2 0x77D JUMP JUMPDEST STOP JUMPDEST PUSH2 0x281 PUSH2 0x894 JUMP JUMPDEST PUSH1 0x40 MLOAD PUSH2 0x28E SWAP2 SWAP1 PUSH2 0x288D JUMP JUMPDEST PUSH1 0x40 MLOAD DUP1 SWAP2 SUB SWAP1 RETURN JUMPDEST PUSH2 0x2B1 PUSH1 0x4 DUP1 CALLDATASIZE SUB DUP2 ADD SWAP1 PUSH2 0x2AC SWAP2 SWAP1 PUSH2 0x28A8 JUMP JUMPDEST PUSH2 0x8A5 JUMP JUMPDEST STOP JUMPDEST PUSH2 0x2BB PUSH2 0x905 JUMP JUMPDEST STOP JUMPDEST PUSH2 0x2D7 PUSH1 0x4 DUP1 CALLDATASIZE SUB DUP2 ADD SWAP1 PUSH2 0x2D2 SWAP2 SWAP1 PUSH2 0x28A8 JUMP JUMPDEST PUSH2 0x98D JUMP JUMPDEST STOP JUMPDEST PUSH2 0x2F3 PUSH1 0x4 DUP1 CALLDATASIZE SUB DUP2 ADD SWAP1 PUSH2 0x2EE SWAP2 SWAP1 PUSH2 0x2A30 JUMP JUMPDEST PUSH2 0x9AD JUMP JUMPDEST STOP JUMPDEST PUSH2 0x30F PUSH1 0x4 DUP1 CALLDATASIZE SUB DUP2 ADD SWAP1 PUSH2 0x30A SWAP2 SWAP1 PUSH2 0x2A79 JUMP JUMPDEST PUSH2 0x9C8 JUMP JUMPDEST PUSH1 0x40 MLOAD PUSH2 0x31C SWAP2 SWAP1 PUSH2 0x2686 JUMP JUMPDEST PUSH1 0x40 MLOAD DUP1 SWAP2 SUB SWAP1 RETURN JUMPDEST PUSH2 0x33F PUSH1 0x4 DUP1 CALLDATASIZE SUB DUP2 ADD SWAP1 PUSH2 0x33A SWAP2 SWAP1 PUSH2 0x2789 JUMP JUMPDEST PUSH2 0x9DA JUMP JUMPDEST PUSH1 0x40 MLOAD PUSH2 0x34C SWAP2 SWAP1 PUSH2 0x27F7 JUMP JUMPDEST PUSH1 0x40 MLOAD DUP1 SWAP2 SUB SWAP1 RETURN JUMPDEST PUSH2 0x36F PUSH1 0x4 DUP1 CALLDATASIZE SUB DUP2 ADD SWAP1 PUSH2 0x36A SWAP2 SWAP1 PUSH2 0x2A79 JUMP JUMPDEST PUSH2 0xA60 JUMP JUMPDEST PUSH1 0x40 MLOAD PUSH2 0x37C SWAP2 SWAP1 PUSH2 0x288D JUMP JUMPDEST PUSH1 0x40 MLOAD DUP1 SWAP2 SUB SWAP1 RETURN JUMPDEST PUSH2 0x38D PUSH2 0xB17 JUMP JUMPDEST STOP JUMPDEST PUSH2 0x3A9 PUSH1 0x4 DUP1 CALLDATASIZE SUB DUP2 ADD SWAP1 PUSH2 0x3A4 SWAP2 SWAP1 PUSH2 0x2A79 JUMP JUMPDEST PUSH2 0xB2B JUMP JUMPDEST STOP JUMPDEST PUSH2 0x3B3 PUSH2 0xB77 JUMP JUMPDEST PUSH1 0x40 MLOAD PUSH2 0x3C0 SWAP2 SWAP1 PUSH2 0x27F7 JUMP JUMPDEST PUSH1 0x40 MLOAD DUP1 SWAP2 SUB SWAP1 RETURN JUMPDEST PUSH2 0x3E3 PUSH1 0x4 DUP1 CALLDATASIZE SUB DUP2 ADD SWAP1 PUSH2 0x3DE SWAP2 SWAP1 PUSH2 0x2B06 JUMP JUMPDEST PUSH2 0xBA1 JUMP JUMPDEST STOP JUMPDEST PUSH2 0x3ED PUSH2 0xBBF JUMP JUMPDEST PUSH1 0x40 MLOAD PUSH2 0x3FA SWAP2 SWAP1 PUSH2 0x2731 JUMP JUMPDEST PUSH1 0x40 MLOAD DUP1 SWAP2 SUB SWAP1 RETURN JUMPDEST PUSH2 0x41D PUSH1 0x4 DUP1 CALLDATASIZE SUB DUP2 ADD SWAP1 PUSH2 0x418 SWAP2 SWAP1 PUSH2 0x2B7F JUMP JUMPDEST PUSH2 0xC51 JUMP JUMPDEST STOP JUMPDEST PUSH2 0x439 PUSH1 0x4 DUP1 CALLDATASIZE SUB DUP2 ADD SWAP1 PUSH2 0x434 SWAP2 SWAP1 PUSH2 0x2C60 JUMP JUMPDEST PUSH2 0xC67 JUMP JUMPDEST STOP JUMPDEST PUSH2 0x455 PUSH1 0x4 DUP1 CALLDATASIZE SUB DUP2 ADD SWAP1 PUSH2 0x450 SWAP2 SWAP1 PUSH2 0x2CE3 JUMP JUMPDEST PUSH2 0xCC9 JUMP JUMPDEST PUSH1 0x40 MLOAD PUSH2 0x462 SWAP2 SWAP1 PUSH2 0x288D JUMP JUMPDEST PUSH1 0x40 MLOAD DUP1 SWAP2 SUB SWAP1 RETURN JUMPDEST PUSH2 0x485 PUSH1 0x4 DUP1 CALLDATASIZE SUB DUP2 ADD SWAP1 PUSH2 0x480 SWAP2 SWAP1 PUSH2 0x2D5C JUMP JUMPDEST PUSH2 0xFB5 JUMP JUMPDEST PUSH1 0x40 MLOAD PUSH2 0x492 SWAP2 SWAP1 PUSH2 0x288D JUMP JUMPDEST PUSH1 0x40 MLOAD DUP1 SWAP2 SUB SWAP1 RETURN JUMPDEST PUSH2 0x4B5 PUSH1 0x4 DUP1 CALLDATASIZE SUB DUP2 ADD SWAP1 PUSH2 0x4B0 SWAP2 SWAP1 PUSH2 0x2D5C JUMP JUMPDEST PUSH2 0xFD4 JUMP JUMPDEST STOP JUMPDEST PUSH2 0x4D1 PUSH1 0x4 DUP1 CALLDATASIZE SUB DUP2 ADD SWAP1 PUSH2 0x4CC SWAP2 SWAP1 PUSH2 0x2789 JUMP JUMPDEST PUSH2 0x1138 JUMP JUMPDEST PUSH1 0x40 MLOAD PUSH2 0x4DE SWAP2 SWAP1 PUSH2 0x2731 JUMP JUMPDEST PUSH1 0x40 MLOAD DUP1 SWAP2 SUB SWAP1 RETURN JUMPDEST PUSH2 0x4EF PUSH2 0x11B7 JUMP JUMPDEST PUSH1 0x40 MLOAD PUSH2 0x4FC SWAP2 SWAP1 PUSH2 0x27F7 JUMP JUMPDEST PUSH1 0x40 MLOAD DUP1 SWAP2 SUB SWAP1 RETURN JUMPDEST PUSH2 0x51F PUSH1 0x4 DUP1 CALLDATASIZE SUB DUP2 ADD SWAP1 PUSH2 0x51A SWAP2 SWAP1 PUSH2 0x2A30 JUMP JUMPDEST PUSH2 0x11E1 JUMP JUMPDEST STOP JUMPDEST PUSH2 0x53B PUSH1 0x4 DUP1 CALLDATASIZE SUB DUP2 ADD SWAP1 PUSH2 0x536 SWAP2 SWAP1 PUSH2 0x2D9C JUMP JUMPDEST PUSH2 0x11EC JUMP JUMPDEST STOP JUMPDEST PUSH2 0x545 PUSH2 0x1212 JUMP JUMPDEST PUSH1 0x40 MLOAD PUSH2 0x552 SWAP2 SWAP1 PUSH2 0x2731 JUMP JUMPDEST PUSH1 0x40 MLOAD DUP1 SWAP2 SUB SWAP1 RETURN JUMPDEST PUSH2 0x575 PUSH1 0x4 DUP1 CALLDATASIZE SUB DUP2 ADD SWAP1 PUSH2 0x570 SWAP2 SWAP1 PUSH2 0x2DC9 JUMP JUMPDEST PUSH2 0x12A4 JUMP JUMPDEST PUSH1 0x40 MLOAD PUSH2 0x582 SWAP2 SWAP1 PUSH2 0x2686 JUMP JUMPDEST PUSH1 0x40 MLOAD DUP1 SWAP2 SUB SWAP1 RETURN JUMPDEST PUSH2 0x5A5 PUSH1 0x4 DUP1 CALLDATASIZE SUB DUP2 ADD SWAP1 PUSH2 0x5A0 SWAP2 SWAP1 PUSH2 0x2A79 JUMP JUMPDEST PUSH2 0x1338 JUMP JUMPDEST STOP JUMPDEST PUSH2 0x5C1 PUSH1 0x4 DUP1 CALLDATASIZE SUB DUP2 ADD SWAP1 PUSH2 0x5BC SWAP2 SWAP1 PUSH2 0x2A79 JUMP JUMPDEST PUSH2 0x13BB JUMP JUMPDEST STOP JUMPDEST PUSH1 0x0 PUSH32 0x80AC58CD00000000000000000000000000000000000000000000000000000000 PUSH28 0xFFFFFFFFFFFFFFFFFFFFFFFFFFFFFFFFFFFFFFFFFFFFFFFFFFFFFFFF NOT AND DUP3 PUSH28 0xFFFFFFFFFFFFFFFFFFFFFFFFFFFFFFFFFFFFFFFFFFFFFFFFFFFFFFFF NOT AND EQ DUP1 PUSH2 0x68E JUMPI POP PUSH32 0x5B5E139F00000000000000000000000000000000000000000000000000000000 PUSH28 0xFFFFFFFFFFFFFFFFFFFFFFFFFFFFFFFFFFFFFFFFFFFFFFFFFFFFFFFF NOT AND DUP3 PUSH28 0xFFFFFFFFFFFFFFFFFFFFFFFFFFFFFFFFFFFFFFFFFFFFFFFFFFFFFFFF NOT AND EQ JUMPDEST DUP1 PUSH2 0x69E JUMPI POP PUSH2 0x69D DUP3 PUSH2 0x1498 JUMP JUMPDEST JUMPDEST SWAP1 POP SWAP2 SWAP1 POP JUMP JUMPDEST PUSH1 0x60 PUSH1 0x0 DUP1 SLOAD PUSH2 0x6B4 SWAP1 PUSH2 0x2E38 JUMP JUMPDEST DUP1 PUSH1 0x1F ADD PUSH1 0x20 DUP1 SWAP2 DIV MUL PUSH1 0x20 ADD PUSH1 0x40 MLOAD SWAP1 DUP2 ADD PUSH1 0x40 MSTORE DUP1 SWAP3 SWAP2 SWAP1 DUP2 DUP2 MSTORE PUSH1 0x20 ADD DUP3 DUP1 SLOAD PUSH2 0x6E0 SWAP1 PUSH2 0x2E38 JUMP JUMPDEST DUP1 ISZERO PUSH2 0x72D JUMPI DUP1 PUSH1 0x1F LT PUSH2 0x702 JUMPI PUSH2 0x100 DUP1 DUP4 SLOAD DIV MUL DUP4 MSTORE SWAP2 PUSH1 0x20 ADD SWAP2 PUSH2 0x72D JUMP JUMPDEST DUP3 ADD SWAP2 SWAP1 PUSH1 0x0 MSTORE PUSH1 0x20 PUSH1 0x0 KECCAK256 SWAP1 JUMPDEST DUP2 SLOAD DUP2 MSTORE SWAP1 PUSH1 0x1 ADD SWAP1 PUSH1 0x20 ADD DUP1 DUP4 GT PUSH2 0x710 JUMPI DUP3 SWAP1 SUB PUSH1 0x1F AND DUP3 ADD SWAP2 JUMPDEST POP POP POP POP POP SWAP1 POP SWAP1 JUMP JUMPDEST PUSH1 0x0 PUSH2 0x742 DUP3 PUSH2 0x1502 JUMP JUMPDEST PUSH1 0x4 PUSH1 0x0 DUP4 DUP2 MSTORE PUSH1 0x20 ADD SWAP1 DUP2 MSTORE PUSH1 0x20 ADD PUSH1 0x0 KECCAK256 PUSH1 0x0 SWAP1 SLOAD SWAP1 PUSH2 0x100 EXP SWAP1 DIV PUSH20 0xFFFFFFFFFFFFFFFFFFFFFFFFFFFFFFFFFFFFFFFF AND SWAP1 POP SWAP2 SWAP1 POP JUMP JUMPDEST PUSH1 0x0 PUSH2 0x788 DUP3 PUSH2 0x9DA JUMP JUMPDEST SWAP1 POP DUP1 PUSH20 0xFFFFFFFFFFFFFFFFFFFFFFFFFFFFFFFFFFFFFFFF AND DUP4 PUSH20 0xFFFFFFFFFFFFFFFFFFFFFFFFFFFFFFFFFFFFFFFF AND SUB PUSH2 0x7F8 JUMPI PUSH1 0x40 MLOAD PUSH32 0x8C379A000000000000000000000000000000000000000000000000000000000 DUP2 MSTORE PUSH1 0x4 ADD PUSH2 0x7EF SWAP1 PUSH2 0x2EDB JUMP JUMPDEST PUSH1 0x40 MLOAD DUP1 SWAP2 SUB SWAP1 REVERT JUMPDEST DUP1 PUSH20 0xFFFFFFFFFFFFFFFFFFFFFFFFFFFFFFFFFFFFFFFF AND PUSH2 0x817 PUSH2 0x154D JUMP JUMPDEST PUSH20 0xFFFFFFFFFFFFFFFFFFFFFFFFFFFFFFFFFFFFFFFF AND EQ DUP1 PUSH2 0x846 JUMPI POP PUSH2 0x845 DUP2 PUSH2 0x840 PUSH2 0x154D JUMP JUMPDEST PUSH2 0x12A4 JUMP JUMPDEST JUMPDEST PUSH2 0x885 JUMPI PUSH1 0x40 MLOAD PUSH32 0x8C379A000000000000000000000000000000000000000000000000000000000 DUP2 MSTORE PUSH1 0x4 ADD PUSH2 0x87C SWAP1 PUSH2 0x2F6D JUMP JUMPDEST PUSH1 0x40 MLOAD DUP1 SWAP2 SUB SWAP1 REVERT JUMPDEST PUSH2 0x88F DUP4 DUP4 PUSH2 0x155C JUMP JUMPDEST POP POP POP JUMP JUMPDEST PUSH1 0x0 PUSH2 0x8A0 PUSH1 0x8 PUSH2 0x1615 JUMP JUMPDEST SWAP1 POP SWAP1 JUMP JUMPDEST PUSH2 0x8B6 PUSH2 0x8B0 PUSH2 0x154D JUMP JUMPDEST DUP3 PUSH2 0x1623 JUMP JUMPDEST PUSH2 0x8F5 JUMPI PUSH1 0x40 MLOAD PUSH32 0x8C379A000000000000000000000000000000000000000000000000000000000 DUP2 MSTORE PUSH1 0x4 ADD PUSH2 0x8EC SWAP1 PUSH2 0x2FFF JUMP JUMPDEST PUSH1 0x40 MLOAD DUP1 SWAP2 SUB SWAP1 REVERT JUMPDEST PUSH2 0x900 DUP4 DUP4 DUP4 PUSH2 0x16B8 JUMP JUMPDEST POP POP POP JUMP JUMPDEST PUSH2 0x90D PUSH2 0x19B1 JUMP JUMPDEST PUSH1 0x0 PUSH2 0x917 PUSH2 0xB77 JUMP JUMPDEST PUSH20 0xFFFFFFFFFFFFFFFFFFFFFFFFFFFFFFFFFFFFFFFF AND SELFBALANCE PUSH1 0x40 MLOAD PUSH2 0x93A SWAP1 PUSH2 0x3050 JUMP JUMPDEST PUSH1 0x0 PUSH1 0x40 MLOAD DUP1 DUP4 SUB DUP2 DUP6 DUP8 GAS CALL SWAP3 POP POP POP RETURNDATASIZE DUP1 PUSH1 0x0 DUP2 EQ PUSH2 0x977 JUMPI PUSH1 0x40 MLOAD SWAP2 POP PUSH1 0x1F NOT PUSH1 0x3F RETURNDATASIZE ADD AND DUP3 ADD PUSH1 0x40 MSTORE RETURNDATASIZE DUP3 MSTORE RETURNDATASIZE PUSH1 0x0 PUSH1 0x20 DUP5 ADD RETURNDATACOPY PUSH2 0x97C JUMP JUMPDEST PUSH1 0x60 SWAP2 POP JUMPDEST POP POP SWAP1 POP DUP1 PUSH2 0x98A JUMPI PUSH1 0x0 DUP1 REVERT JUMPDEST POP JUMP JUMPDEST PUSH2 0x9A8 DUP4 DUP4 DUP4 PUSH1 0x40 MLOAD DUP1 PUSH1 0x20 ADD PUSH1 0x40 MSTORE DUP1 PUSH1 0x0 DUP2 MSTORE POP PUSH2 0xC67 JUMP JUMPDEST POP POP POP JUMP JUMPDEST PUSH2 0x9B5 PUSH2 0x19B1 JUMP JUMPDEST DUP1 PUSH1 0xE SWAP1 DUP2 PUSH2 0x9C4 SWAP2 SWAP1 PUSH2 0x3211 JUMP JUMPDEST POP POP JUMP JUMPDEST PUSH1 0x0 PUSH2 0x9D3 DUP3 PUSH2 0x143E JUMP JUMPDEST SWAP1 POP SWAP2 SWAP1 POP JUMP JUMPDEST PUSH1 0x0 DUP1 PUSH2 0x9E6 DUP4 PUSH2 0x1A2F JUMP JUMPDEST SWAP1 POP PUSH1 0x0 PUSH20 0xFFFFFFFFFFFFFFFFFFFFFFFFFFFFFFFFFFFFFFFF AND DUP2 PUSH20 0xFFFFFFFFFFFFFFFFFFFFFFFFFFFFFFFFFFFFFFFF AND SUB PUSH2 0xA57 JUMPI PUSH1 0x40 MLOAD PUSH32 0x8C379A000000000000000000000000000000000000000000000000000000000 DUP2 MSTORE PUSH1 0x4 ADD PUSH2 0xA4E SWAP1 PUSH2 0x332F JUMP JUMPDEST PUSH1 0x40 MLOAD DUP1 SWAP2 SUB SWAP1 REVERT JUMPDEST DUP1 SWAP2 POP POP SWAP2 SWAP1 POP JUMP JUMPDEST PUSH1 0x0 DUP1 PUSH20 0xFFFFFFFFFFFFFFFFFFFFFFFFFFFFFFFFFFFFFFFF AND DUP3 PUSH20 0xFFFFFFFFFFFFFFFFFFFFFFFFFFFFFFFFFFFFFFFF AND SUB PUSH2 0xAD0 JUMPI PUSH1 0x40 MLOAD PUSH32 0x8C379A000000000000000000000000000000000000000000000000000000000 DUP2 MSTORE PUSH1 0x4 ADD PUSH2 0xAC7 SWAP1 PUSH2 0x33C1 JUMP JUMPDEST PUSH1 0x40 MLOAD DUP1 SWAP2 SUB SWAP1 REVERT JUMPDEST PUSH1 0x3 PUSH1 0x0 DUP4 PUSH20 0xFFFFFFFFFFFFFFFFFFFFFFFFFFFFFFFFFFFFFFFF AND PUSH20 0xFFFFFFFFFFFFFFFFFFFFFFFFFFFFFFFFFFFFFFFF AND DUP2 MSTORE PUSH1 0x20 ADD SWAP1 DUP2 MSTORE PUSH1 0x20 ADD PUSH1 0x0 KECCAK256 SLOAD SWAP1 POP SWAP2 SWAP1 POP JUMP JUMPDEST PUSH2 0xB1F PUSH2 0x19B1 JUMP JUMPDEST PUSH2 0xB29 PUSH1 0x0 PUSH2 0x1A6C JUMP JUMPDEST JUMP JUMPDEST PUSH2 0xB33 PUSH2 0x19B1 JUMP JUMPDEST DUP1 PUSH1 0xC PUSH1 0x0 PUSH2 0x100 EXP DUP2 SLOAD DUP2 PUSH20 0xFFFFFFFFFFFFFFFFFFFFFFFFFFFFFFFFFFFFFFFF MUL NOT AND SWAP1 DUP4 PUSH20 0xFFFFFFFFFFFFFFFFFFFFFFFFFFFFFFFFFFFFFFFF AND MUL OR SWAP1 SSTORE POP POP JUMP JUMPDEST PUSH1 0x0 PUSH1 0x6 PUSH1 0x0 SWAP1 SLOAD SWAP1 PUSH2 0x100 EXP SWAP1 DIV PUSH20 0xFFFFFFFFFFFFFFFFFFFFFFFFFFFFFFFFFFFFFFFF AND SWAP1 POP SWAP1 JUMP JUMPDEST PUSH2 0xBA9 PUSH2 0x19B1 JUMP JUMPDEST DUP2 DUP2 PUSH1 0xD SWAP2 DUP3 PUSH2 0xBBA SWAP3 SWAP2 SWAP1 PUSH2 0x33EC JUMP JUMPDEST POP POP POP JUMP JUMPDEST PUSH1 0x60 PUSH1 0x1 DUP1 SLOAD PUSH2 0xBCE SWAP1 PUSH2 0x2E38 JUMP JUMPDEST DUP1 PUSH1 0x1F ADD PUSH1 0x20 DUP1 SWAP2 DIV MUL PUSH1 0x20 ADD PUSH1 0x40 MLOAD SWAP1 DUP2 ADD PUSH1 0x40 MSTORE DUP1 SWAP3 SWAP2 SWAP1 DUP2 DUP2 MSTORE PUSH1 0x20 ADD DUP3 DUP1 SLOAD PUSH2 0xBFA SWAP1 PUSH2 0x2E38 JUMP JUMPDEST DUP1 ISZERO PUSH2 0xC47 JUMPI DUP1 PUSH1 0x1F LT PUSH2 0xC1C JUMPI PUSH2 0x100 DUP1 DUP4 SLOAD DIV MUL DUP4 MSTORE SWAP2 PUSH1 0x20 ADD SWAP2 PUSH2 0xC47 JUMP JUMPDEST DUP3 ADD SWAP2 SWAP1 PUSH1 0x0 MSTORE PUSH1 0x20 PUSH1 0x0 KECCAK256 SWAP1 JUMPDEST DUP2 SLOAD DUP2 MSTORE SWAP1 PUSH1 0x1 ADD SWAP1 PUSH1 0x20 ADD DUP1 DUP4 GT PUSH2 0xC2A JUMPI DUP3 SWAP1 SUB PUSH1 0x1F AND DUP3 ADD SWAP2 JUMPDEST POP POP POP POP POP SWAP1 POP SWAP1 JUMP JUMPDEST PUSH2 0xC63 PUSH2 0xC5C PUSH2 0x154D JUMP JUMPDEST DUP4 DUP4 PUSH2 0x1B32 JUMP JUMPDEST POP POP JUMP JUMPDEST PUSH2 0xC78 PUSH2 0xC72 PUSH2 0x154D JUMP JUMPDEST DUP4 PUSH2 0x1623 JUMP JUMPDEST PUSH2 0xCB7 JUMPI PUSH1 0x40 MLOAD PUSH32 0x8C379A000000000000000000000000000000000000000000000000000000000 DUP2 MSTORE PUSH1 0x4 ADD PUSH2 0xCAE SWAP1 PUSH2 0x2FFF JUMP JUMPDEST PUSH1 0x40 MLOAD DUP1 SWAP2 SUB SWAP1 REVERT JUMPDEST PUSH2 0xCC3 DUP5 DUP5 DUP5 DUP5 PUSH2 0x1C9E JUMP JUMPDEST POP POP POP POP JUMP JUMPDEST PUSH1 0x0 PUSH2 0xCD3 PUSH2 0x19B1 JUMP JUMPDEST PUSH2 0xCDC DUP4 PUSH2 0x1CFA JUMP JUMPDEST PUSH2 0xD1B JUMPI PUSH1 0x40 MLOAD PUSH32 0x8C379A000000000000000000000000000000000000000000000000000000000 DUP2 MSTORE PUSH1 0x4 ADD PUSH2 0xD12 SWAP1 PUSH2 0x3508 JUMP JUMPDEST PUSH1 0x40 MLOAD DUP1 SWAP2 SUB SWAP1 REVERT JUMPDEST PUSH2 0xD24 DUP3 PUSH2 0x1CFA JUMP JUMPDEST PUSH2 0xD63 JUMPI PUSH1 0x40 MLOAD PUSH32 0x8C379A000000000000000000000000000000000000000000000000000000000 DUP2 MSTORE PUSH1 0x4 ADD PUSH2 0xD5A SWAP1 PUSH2 0x3508 JUMP JUMPDEST PUSH1 0x40 MLOAD DUP1 SWAP2 SUB SWAP1 REVERT JUMPDEST PUSH1 0x0 PUSH1 0xA PUSH1 0x0 DUP6 DUP2 MSTORE PUSH1 0x20 ADD SWAP1 DUP2 MSTORE PUSH1 0x20 ADD PUSH1 0x0 KECCAK256 SWAP1 POP PUSH1 0x0 PUSH1 0xA PUSH1 0x0 DUP6 DUP2 MSTORE PUSH1 0x20 ADD SWAP1 DUP2 MSTORE PUSH1 0x20 ADD PUSH1 0x0 KECCAK256 SWAP1 POP PUSH1 0x9 PUSH1 0x0 SWAP1 SLOAD SWAP1 PUSH2 0x100 EXP SWAP1 DIV PUSH1 0xFF AND PUSH1 0xFF AND DUP3 PUSH1 0x3 ADD PUSH1 0x0 SWAP1 SLOAD SWAP1 PUSH2 0x100 EXP SWAP1 DIV PUSH1 0xFF AND PUSH1 0xFF AND LT ISZERO PUSH2 0xDFA JUMPI PUSH1 0x40 MLOAD PUSH32 0x8C379A000000000000000000000000000000000000000000000000000000000 DUP2 MSTORE PUSH1 0x4 ADD PUSH2 0xDF1 SWAP1 PUSH2 0x3574 JUMP JUMPDEST PUSH1 0x40 MLOAD DUP1 SWAP2 SUB SWAP1 REVERT JUMPDEST PUSH1 0x9 PUSH1 0x0 SWAP1 SLOAD SWAP1 PUSH2 0x100 EXP SWAP1 DIV PUSH1 0xFF AND PUSH1 0xFF AND DUP2 PUSH1 0x3 ADD PUSH1 0x0 SWAP1 SLOAD SWAP1 PUSH2 0x100 EXP SWAP1 DIV PUSH1 0xFF AND PUSH1 0xFF AND LT ISZERO PUSH2 0xE63 JUMPI PUSH1 0x40 MLOAD PUSH32 0x8C379A000000000000000000000000000000000000000000000000000000000 DUP2 MSTORE PUSH1 0x4 ADD PUSH2 0xE5A SWAP1 PUSH2 0x3574 JUMP JUMPDEST PUSH1 0x40 MLOAD DUP1 SWAP2 SUB SWAP1 REVERT JUMPDEST PUSH1 0x0 PUSH1 0xC PUSH1 0x0 SWAP1 SLOAD SWAP1 PUSH2 0x100 EXP SWAP1 DIV PUSH20 0xFFFFFFFFFFFFFFFFFFFFFFFFFFFFFFFFFFFFFFFF AND PUSH20 0xFFFFFFFFFFFFFFFFFFFFFFFFFFFFFFFFFFFFFFFF AND PUSH4 0xE4A13FB7 DUP5 PUSH1 0x2 ADD SLOAD DUP5 PUSH1 0x2 ADD SLOAD PUSH1 0x40 MLOAD DUP4 PUSH4 0xFFFFFFFF AND PUSH1 0xE0 SHL DUP2 MSTORE PUSH1 0x4 ADD PUSH2 0xECA SWAP3 SWAP2 SWAP1 PUSH2 0x3594 JUMP JUMPDEST PUSH1 0x20 PUSH1 0x40 MLOAD DUP1 DUP4 SUB DUP2 PUSH1 0x0 DUP8 GAS CALL ISZERO DUP1 ISZERO PUSH2 0xEE9 JUMPI RETURNDATASIZE PUSH1 0x0 DUP1 RETURNDATACOPY RETURNDATASIZE PUSH1 0x0 REVERT JUMPDEST POP POP POP POP PUSH1 0x40 MLOAD RETURNDATASIZE PUSH1 0x1F NOT PUSH1 0x1F DUP3 ADD AND DUP3 ADD DUP1 PUSH1 0x40 MSTORE POP DUP2 ADD SWAP1 PUSH2 0xF0D SWAP2 SWAP1 PUSH2 0x35D2 JUMP JUMPDEST SWAP1 POP PUSH2 0xF1C DUP7 DUP7 DUP4 PUSH1 0x1 PUSH2 0x1D3B JUMP JUMPDEST SWAP4 POP PUSH1 0x9 PUSH1 0x0 SWAP1 SLOAD SWAP1 PUSH2 0x100 EXP SWAP1 DIV PUSH1 0xFF AND DUP4 PUSH1 0x3 ADD PUSH1 0x0 DUP3 DUP3 DUP3 SWAP1 SLOAD SWAP1 PUSH2 0x100 EXP SWAP1 DIV PUSH1 0xFF AND PUSH2 0xF4D SWAP2 SWAP1 PUSH2 0x362E JUMP JUMPDEST SWAP3 POP PUSH2 0x100 EXP DUP2 SLOAD DUP2 PUSH1 0xFF MUL NOT AND SWAP1 DUP4 PUSH1 0xFF AND MUL OR SWAP1 SSTORE POP PUSH1 0x9 PUSH1 0x0 SWAP1 SLOAD SWAP1 PUSH2 0x100 EXP SWAP1 DIV PUSH1 0xFF AND DUP3 PUSH1 0x3 ADD PUSH1 0x0 DUP3 DUP3 DUP3 SWAP1 SLOAD SWAP1 PUSH2 0x100 EXP SWAP1 DIV PUSH1 0xFF AND PUSH2 0xF94 SWAP2 SWAP1 PUSH2 0x362E JUMP JUMPDEST SWAP3 POP PUSH2 0x100 EXP DUP2 SLOAD DUP2 PUSH1 0xFF MUL NOT AND SWAP1 DUP4 PUSH1 0xFF AND MUL OR SWAP1 SSTORE POP POP POP POP SWAP3 SWAP2 POP POP JUMP JUMPDEST PUSH1 0x0 PUSH2 0xFBF PUSH2 0x19B1 JUMP JUMPDEST PUSH2 0xFCC PUSH1 0x0 DUP1 DUP6 DUP6 PUSH2 0x1D3B JUMP JUMPDEST SWAP1 POP SWAP3 SWAP2 POP POP JUMP JUMPDEST PUSH2 0xFDC PUSH2 0x19B1 JUMP JUMPDEST PUSH2 0xFE5 DUP3 PUSH2 0x1CFA JUMP JUMPDEST PUSH2 0x1024 JUMPI PUSH1 0x40 MLOAD PUSH32 0x8C379A000000000000000000000000000000000000000000000000000000000 DUP2 MSTORE PUSH1 0x4 ADD PUSH2 0x101B SWAP1 PUSH2 0x3508 JUMP JUMPDEST PUSH1 0x40 MLOAD DUP1 SWAP2 SUB SWAP1 REVERT JUMPDEST PUSH1 0xB PUSH1 0x0 SWAP1 SLOAD SWAP1 PUSH2 0x100 EXP SWAP1 DIV PUSH20 0xFFFFFFFFFFFFFFFFFFFFFFFFFFFFFFFFFFFFFFFF AND PUSH20 0xFFFFFFFFFFFFFFFFFFFFFFFFFFFFFFFFFFFFFFFF AND PUSH4 0xC290D691 DUP3 PUSH1 0x40 MLOAD DUP3 PUSH4 0xFFFFFFFF AND PUSH1 0xE0 SHL DUP2 MSTORE PUSH1 0x4 ADD PUSH2 0x107F SWAP2 SWAP1 PUSH2 0x3694 JUMP JUMPDEST PUSH1 0x0 PUSH1 0x40 MLOAD DUP1 DUP4 SUB DUP2 PUSH1 0x0 DUP8 DUP1 EXTCODESIZE ISZERO DUP1 ISZERO PUSH2 0x1099 JUMPI PUSH1 0x0 DUP1 REVERT JUMPDEST POP GAS CALL ISZERO DUP1 ISZERO PUSH2 0x10AD JUMPI RETURNDATASIZE PUSH1 0x0 DUP1 RETURNDATACOPY RETURNDATASIZE PUSH1 0x0 REVERT JUMPDEST POP POP POP POP DUP1 PUSH1 0xA PUSH1 0x0 DUP5 DUP2 MSTORE PUSH1 0x20 ADD SWAP1 DUP2 MSTORE PUSH1 0x20 ADD PUSH1 0x0 KECCAK256 PUSH1 0x3 ADD PUSH1 0x0 DUP3 DUP3 DUP3 SWAP1 SLOAD SWAP1 PUSH2 0x100 EXP SWAP1 DIV PUSH1 0xFF AND PUSH2 0x10E3 SWAP2 SWAP1 PUSH2 0x36AF JUMP JUMPDEST SWAP3 POP PUSH2 0x100 EXP DUP2 SLOAD DUP2 PUSH1 0xFF MUL NOT AND SWAP1 DUP4 PUSH1 0xFF AND MUL OR SWAP1 SSTORE POP PUSH32 0xF4D8C9183C1AE5F9D1DDE6EDF0D08AB75F4E38C8896340F590B8A8E20ACEA9B6 DUP3 DUP3 PUSH1 0x40 MLOAD PUSH2 0x112C SWAP3 SWAP2 SWAP1 PUSH2 0x36F3 JUMP JUMPDEST PUSH1 0x40 MLOAD DUP1 SWAP2 SUB SWAP1 LOG1 POP POP JUMP JUMPDEST PUSH1 0x60 PUSH2 0x1143 DUP3 PUSH2 0x1CFA JUMP JUMPDEST PUSH2 0x1182 JUMPI PUSH1 0x40 MLOAD PUSH32 0x8C379A000000000000000000000000000000000000000000000000000000000 DUP2 MSTORE PUSH1 0x4 ADD PUSH2 0x1179 SWAP1 PUSH2 0x378E JUMP JUMPDEST PUSH1 0x40 MLOAD DUP1 SWAP2 SUB SWAP1 REVERT JUMPDEST PUSH1 0xE PUSH2 0x118D DUP4 PUSH2 0x1E2F JUMP JUMPDEST PUSH1 0xF PUSH1 0x40 MLOAD PUSH1 0x20 ADD PUSH2 0x11A1 SWAP4 SWAP3 SWAP2 SWAP1 PUSH2 0x386D JUMP JUMPDEST PUSH1 0x40 MLOAD PUSH1 0x20 DUP2 DUP4 SUB SUB DUP2 MSTORE SWAP1 PUSH1 0x40 MSTORE SWAP1 POP SWAP2 SWAP1 POP JUMP JUMPDEST PUSH1 0x0 PUSH1 0x7 PUSH1 0x0 SWAP1 SLOAD SWAP1 PUSH2 0x100 EXP SWAP1 DIV PUSH20 0xFFFFFFFFFFFFFFFFFFFFFFFFFFFFFFFFFFFFFFFF AND SWAP1 POP SWAP1 JUMP JUMPDEST PUSH2 0x11E9 PUSH2 0x19B1 JUMP JUMPDEST POP JUMP JUMPDEST PUSH2 0x11F4 PUSH2 0x19B1 JUMP JUMPDEST DUP1 PUSH1 0x9 PUSH1 0x0 PUSH2 0x100 EXP DUP2 SLOAD DUP2 PUSH1 0xFF MUL NOT AND SWAP1 DUP4 PUSH1 0xFF AND MUL OR SWAP1 SSTORE POP POP JUMP JUMPDEST PUSH1 0x60 PUSH1 0xD DUP1 SLOAD PUSH2 0x1221 SWAP1 PUSH2 0x2E38 JUMP JUMPDEST DUP1 PUSH1 0x1F ADD PUSH1 0x20 DUP1 SWAP2 DIV MUL PUSH1 0x20 ADD PUSH1 0x40 MLOAD SWAP1 DUP2 ADD PUSH1 0x40 MSTORE DUP1 SWAP3 SWAP2 SWAP1 DUP2 DUP2 MSTORE PUSH1 0x20 ADD DUP3 DUP1 SLOAD PUSH2 0x124D SWAP1 PUSH2 0x2E38 JUMP JUMPDEST DUP1 ISZERO PUSH2 0x129A JUMPI DUP1 PUSH1 0x1F LT PUSH2 0x126F JUMPI PUSH2 0x100 DUP1 DUP4 SLOAD DIV MUL DUP4 MSTORE SWAP2 PUSH1 0x20 ADD SWAP2 PUSH2 0x129A JUMP JUMPDEST DUP3 ADD SWAP2 SWAP1 PUSH1 0x0 MSTORE PUSH1 0x20 PUSH1 0x0 KECCAK256 SWAP1 JUMPDEST DUP2 SLOAD DUP2 MSTORE SWAP1 PUSH1 0x1 ADD SWAP1 PUSH1 0x20 ADD DUP1 DUP4 GT PUSH2 0x127D JUMPI DUP3 SWAP1 SUB PUSH1 0x1F AND DUP3 ADD SWAP2 JUMPDEST POP POP POP POP POP SWAP1 POP SWAP1 JUMP JUMPDEST PUSH1 0x0 PUSH1 0x5 PUSH1 0x0 DUP5 PUSH20 0xFFFFFFFFFFFFFFFFFFFFFFFFFFFFFFFFFFFFFFFF AND PUSH20 0xFFFFFFFFFFFFFFFFFFFFFFFFFFFFFFFFFFFFFFFF AND DUP2 MSTORE PUSH1 0x20 ADD SWAP1 DUP2 MSTORE PUSH1 0x20 ADD PUSH1 0x0 KECCAK256 PUSH1 0x0 DUP4 PUSH20 0xFFFFFFFFFFFFFFFFFFFFFFFFFFFFFFFFFFFFFFFF AND PUSH20 0xFFFFFFFFFFFFFFFFFFFFFFFFFFFFFFFFFFFFFFFF AND DUP2 MSTORE PUSH1 0x20 ADD SWAP1 DUP2 MSTORE PUSH1 0x20 ADD PUSH1 0x0 KECCAK256 PUSH1 0x0 SWAP1 SLOAD SWAP1 PUSH2 0x100 EXP SWAP1 DIV PUSH1 0xFF AND SWAP1 POP SWAP3 SWAP2 POP POP JUMP JUMPDEST PUSH2 0x1340 PUSH2 0x19B1 JUMP JUMPDEST PUSH1 0x0 PUSH20 0xFFFFFFFFFFFFFFFFFFFFFFFFFFFFFFFFFFFFFFFF AND DUP2 PUSH20 0xFFFFFFFFFFFFFFFFFFFFFFFFFFFFFFFFFFFFFFFF AND SUB PUSH2 0x13AF JUMPI PUSH1 0x40 MLOAD PUSH32 0x8C379A000000000000000000000000000000000000000000000000000000000 DUP2 MSTORE PUSH1 0x4 ADD PUSH2 0x13A6 SWAP1 PUSH2 0x3910 JUMP JUMPDEST PUSH1 0x40 MLOAD DUP1 SWAP2 SUB SWAP1 REVERT JUMPDEST PUSH2 0x13B8 DUP2 PUSH2 0x1A6C JUMP JUMPDEST POP JUMP JUMPDEST PUSH2 0x13C3 PUSH2 0x19B1 JUMP JUMPDEST DUP1 PUSH1 0xB PUSH1 0x0 PUSH2 0x100 EXP DUP2 SLOAD DUP2 PUSH20 0xFFFFFFFFFFFFFFFFFFFFFFFFFFFFFFFFFFFFFFFF MUL NOT AND SWAP1 DUP4 PUSH20 0xFFFFFFFFFFFFFFFFFFFFFFFFFFFFFFFFFFFFFFFF AND MUL OR SWAP1 SSTORE POP POP JUMP JUMPDEST PUSH1 0x0 PUSH1 0x14 PUSH1 0x0 CALLDATASIZE SWAP1 POP LT ISZERO DUP1 ISZERO PUSH2 0x1423 JUMPI POP PUSH2 0x1422 CALLER PUSH2 0x9C8 JUMP JUMPDEST JUMPDEST ISZERO PUSH2 0x1437 JUMPI PUSH1 0x14 CALLDATASIZE SUB CALLDATALOAD PUSH1 0x60 SHR SWAP1 POP PUSH2 0x143B JUMP JUMPDEST CALLER SWAP1 POP JUMPDEST SWAP1 JUMP JUMPDEST PUSH1 0x0 PUSH1 0x7 PUSH1 0x0 SWAP1 SLOAD SWAP1 PUSH2 0x100 EXP SWAP1 DIV PUSH20 0xFFFFFFFFFFFFFFFFFFFFFFFFFFFFFFFFFFFFFFFF AND PUSH20 0xFFFFFFFFFFFFFFFFFFFFFFFFFFFFFFFFFFFFFFFF AND DUP3 PUSH20 0xFFFFFFFFFFFFFFFFFFFFFFFFFFFFFFFFFFFFFFFF AND EQ SWAP1 POP SWAP2 SWAP1 POP JUMP JUMPDEST PUSH1 0x0 PUSH32 0x1FFC9A700000000000000000000000000000000000000000000000000000000 PUSH28 0xFFFFFFFFFFFFFFFFFFFFFFFFFFFFFFFFFFFFFFFFFFFFFFFFFFFFFFFF NOT AND DUP3 PUSH28 0xFFFFFFFFFFFFFFFFFFFFFFFFFFFFFFFFFFFFFFFFFFFFFFFFFFFFFFFF NOT AND EQ SWAP1 POP SWAP2 SWAP1 POP JUMP JUMPDEST PUSH2 0x150B DUP2 PUSH2 0x1CFA JUMP JUMPDEST PUSH2 0x154A JUMPI PUSH1 0x40 MLOAD PUSH32 0x8C379A000000000000000000000000000000000000000000000000000000000 DUP2 MSTORE PUSH1 0x4 ADD PUSH2 0x1541 SWAP1 PUSH2 0x332F JUMP JUMPDEST PUSH1 0x40 MLOAD DUP1 SWAP2 SUB SWAP1 REVERT JUMPDEST POP JUMP JUMPDEST PUSH1 0x0 PUSH2 0x1557 PUSH2 0x1407 JUMP JUMPDEST SWAP1 POP SWAP1 JUMP JUMPDEST DUP2 PUSH1 0x4 PUSH1 0x0 DUP4 DUP2 MSTORE PUSH1 0x20 ADD SWAP1 DUP2 MSTORE PUSH1 0x20 ADD PUSH1 0x0 KECCAK256 PUSH1 0x0 PUSH2 0x100 EXP DUP2 SLOAD DUP2 PUSH20 0xFFFFFFFFFFFFFFFFFFFFFFFFFFFFFFFFFFFFFFFF MUL NOT AND SWAP1 DUP4 PUSH20 0xFFFFFFFFFFFFFFFFFFFFFFFFFFFFFFFFFFFFFFFF AND MUL OR SWAP1 SSTORE POP DUP1 DUP3 PUSH20 0xFFFFFFFFFFFFFFFFFFFFFFFFFFFFFFFFFFFFFFFF AND PUSH2 0x15CF DUP4 PUSH2 0x9DA JUMP JUMPDEST PUSH20 0xFFFFFFFFFFFFFFFFFFFFFFFFFFFFFFFFFFFFFFFF AND PUSH32 0x8C5BE1E5EBEC7D5BD14F71427D1E84F3DD0314C0F7B2291E5B200AC8C7C3B925 PUSH1 0x40 MLOAD PUSH1 0x40 MLOAD DUP1 SWAP2 SUB SWAP1 LOG4 POP POP JUMP JUMPDEST PUSH1 0x0 DUP2 PUSH1 0x0 ADD SLOAD SWAP1 POP SWAP2 SWAP1 POP JUMP JUMPDEST PUSH1 0x0 DUP1 PUSH2 0x162F DUP4 PUSH2 0x9DA JUMP JUMPDEST SWAP1 POP DUP1 PUSH20 0xFFFFFFFFFFFFFFFFFFFFFFFFFFFFFFFFFFFFFFFF AND DUP5 PUSH20 0xFFFFFFFFFFFFFFFFFFFFFFFFFFFFFFFFFFFFFFFF AND EQ DUP1 PUSH2 0x1671 JUMPI POP PUSH2 0x1670 DUP2 DUP6 PUSH2 0x12A4 JUMP JUMPDEST JUMPDEST DUP1 PUSH2 0x16AF JUMPI POP DUP4 PUSH20 0xFFFFFFFFFFFFFFFFFFFFFFFFFFFFFFFFFFFFFFFF AND PUSH2 0x1697 DUP5 PUSH2 0x737 JUMP JUMPDEST PUSH20 0xFFFFFFFFFFFFFFFFFFFFFFFFFFFFFFFFFFFFFFFF AND EQ JUMPDEST SWAP2 POP POP SWAP3 SWAP2 POP POP JUMP JUMPDEST DUP3 PUSH20 0xFFFFFFFFFFFFFFFFFFFFFFFFFFFFFFFFFFFFFFFF AND PUSH2 0x16D8 DUP3 PUSH2 0x9DA JUMP JUMPDEST PUSH20 0xFFFFFFFFFFFFFFFFFFFFFFFFFFFFFFFFFFFFFFFF AND EQ PUSH2 0x172E JUMPI PUSH1 0x40 MLOAD PUSH32 0x8C379A000000000000000000000000000000000000000000000000000000000 DUP2 MSTORE PUSH1 0x4 ADD PUSH2 0x1725 SWAP1 PUSH2 0x39A2 JUMP JUMPDEST PUSH1 0x40 MLOAD DUP1 SWAP2 SUB SWAP1 REVERT JUMPDEST PUSH1 0x0 PUSH20 0xFFFFFFFFFFFFFFFFFFFFFFFFFFFFFFFFFFFFFFFF AND DUP3 PUSH20 0xFFFFFFFFFFFFFFFFFFFFFFFFFFFFFFFFFFFFFFFF AND SUB PUSH2 0x179D JUMPI PUSH1 0x40 MLOAD PUSH32 0x8C379A000000000000000000000000000000000000000000000000000000000 DUP2 MSTORE PUSH1 0x4 ADD PUSH2 0x1794 SWAP1 PUSH2 0x3A34 JUMP JUMPDEST PUSH1 0x40 MLOAD DUP1 SWAP2 SUB SWAP1 REVERT JUMPDEST PUSH2 0x17AA DUP4 DUP4 DUP4 PUSH1 0x1 PUSH2 0x1EFD JUMP JUMPDEST DUP3 PUSH20 0xFFFFFFFFFFFFFFFFFFFFFFFFFFFFFFFFFFFFFFFF AND PUSH2 0x17CA DUP3 PUSH2 0x9DA JUMP JUMPDEST PUSH20 0xFFFFFFFFFFFFFFFFFFFFFFFFFFFFFFFFFFFFFFFF AND EQ PUSH2 0x1820 JUMPI PUSH1 0x40 MLOAD PUSH32 0x8C379A000000000000000000000000000000000000000000000000000000000 DUP2 MSTORE PUSH1 0x4 ADD PUSH2 0x1817 SWAP1 PUSH2 0x39A2 JUMP JUMPDEST PUSH1 0x40 MLOAD DUP1 SWAP2 SUB SWAP1 REVERT JUMPDEST PUSH1 0x4 PUSH1 0x0 DUP3 DUP2 MSTORE PUSH1 0x20 ADD SWAP1 DUP2 MSTORE PUSH1 0x20 ADD PUSH1 0x0 KECCAK256 PUSH1 0x0 PUSH2 0x100 EXP DUP2 SLOAD SWAP1 PUSH20 0xFFFFFFFFFFFFFFFFFFFFFFFFFFFFFFFFFFFFFFFF MUL NOT AND SWAP1 SSTORE PUSH1 0x1 PUSH1 0x3 PUSH1 0x0 DUP6 PUSH20 0xFFFFFFFFFFFFFFFFFFFFFFFFFFFFFFFFFFFFFFFF AND PUSH20 0xFFFFFFFFFFFFFFFFFFFFFFFFFFFFFFFFFFFFFFFF AND DUP2 MSTORE PUSH1 0x20 ADD SWAP1 DUP2 MSTORE PUSH1 0x20 ADD PUSH1 0x0 KECCAK256 PUSH1 0x0 DUP3 DUP3 SLOAD SUB SWAP3 POP POP DUP2 SWAP1 SSTORE POP PUSH1 0x1 PUSH1 0x3 PUSH1 0x0 DUP5 PUSH20 0xFFFFFFFFFFFFFFFFFFFFFFFFFFFFFFFFFFFFFFFF AND PUSH20 0xFFFFFFFFFFFFFFFFFFFFFFFFFFFFFFFFFFFFFFFF AND DUP2 MSTORE PUSH1 0x20 ADD SWAP1 DUP2 MSTORE PUSH1 0x20 ADD PUSH1 0x0 KECCAK256 PUSH1 0x0 DUP3 DUP3 SLOAD ADD SWAP3 POP POP DUP2 SWAP1 SSTORE POP DUP2 PUSH1 0x2 PUSH1 0x0 DUP4 DUP2 MSTORE PUSH1 0x20 ADD SWAP1 DUP2 MSTORE PUSH1 0x20 ADD PUSH1 0x0 KECCAK256 PUSH1 0x0 PUSH2 0x100 EXP DUP2 SLOAD DUP2 PUSH20 0xFFFFFFFFFFFFFFFFFFFFFFFFFFFFFFFFFFFFFFFF MUL NOT AND SWAP1 DUP4 PUSH20 0xFFFFFFFFFFFFFFFFFFFFFFFFFFFFFFFFFFFFFFFF AND MUL OR SWAP1 SSTORE POP DUP1 DUP3 PUSH20 0xFFFFFFFFFFFFFFFFFFFFFFFFFFFFFFFFFFFFFFFF AND DUP5 PUSH20 0xFFFFFFFFFFFFFFFFFFFFFFFFFFFFFFFFFFFFFFFF AND PUSH32 0xDDF252AD1BE2C89B69C2B068FC378DAA952BA7F163C4A11628F55A4DF523B3EF PUSH1 0x40 MLOAD PUSH1 0x40 MLOAD DUP1 SWAP2 SUB SWAP1 LOG4 PUSH2 0x19AC DUP4 DUP4 DUP4 PUSH1 0x1 PUSH2 0x2023 JUMP JUMPDEST POP POP POP JUMP JUMPDEST PUSH2 0x19B9 PUSH2 0x154D JUMP JUMPDEST PUSH20 0xFFFFFFFFFFFFFFFFFFFFFFFFFFFFFFFFFFFFFFFF AND PUSH2 0x19D7 PUSH2 0xB77 JUMP JUMPDEST PUSH20 0xFFFFFFFFFFFFFFFFFFFFFFFFFFFFFFFFFFFFFFFF AND EQ PUSH2 0x1A2D JUMPI PUSH1 0x40 MLOAD PUSH32 0x8C379A000000000000000000000000000000000000000000000000000000000 DUP2 MSTORE PUSH1 0x4 ADD PUSH2 0x1A24 SWAP1 PUSH2 0x3AA0 JUMP JUMPDEST PUSH1 0x40 MLOAD DUP1 SWAP2 SUB SWAP1 REVERT JUMPDEST JUMP JUMPDEST PUSH1 0x0 PUSH1 0x2 PUSH1 0x0 DUP4 DUP2 MSTORE PUSH1 0x20 ADD SWAP1 DUP2 MSTORE PUSH1 0x20 ADD PUSH1 0x0 KECCAK256 PUSH1 0x0 SWAP1 SLOAD SWAP1 PUSH2 0x100 EXP SWAP1 DIV PUSH20 0xFFFFFFFFFFFFFFFFFFFFFFFFFFFFFFFFFFFFFFFF AND SWAP1 POP SWAP2 SWAP1 POP JUMP JUMPDEST PUSH1 0x0 PUSH1 0x6 PUSH1 0x0 SWAP1 SLOAD SWAP1 PUSH2 0x100 EXP SWAP1 DIV PUSH20 0xFFFFFFFFFFFFFFFFFFFFFFFFFFFFFFFFFFFFFFFF AND SWAP1 POP DUP2 PUSH1 0x6 PUSH1 0x0 PUSH2 0x100 EXP DUP2 SLOAD DUP2 PUSH20 0xFFFFFFFFFFFFFFFFFFFFFFFFFFFFFFFFFFFFFFFF MUL NOT AND SWAP1 DUP4 PUSH20 0xFFFFFFFFFFFFFFFFFFFFFFFFFFFFFFFFFFFFFFFF AND MUL OR SWAP1 SSTORE POP DUP2 PUSH20 0xFFFFFFFFFFFFFFFFFFFFFFFFFFFFFFFFFFFFFFFF AND DUP2 PUSH20 0xFFFFFFFFFFFFFFFFFFFFFFFFFFFFFFFFFFFFFFFF AND PUSH32 0x8BE0079C531659141344CD1FD0A4F28419497F9722A3DAAFE3B4186F6B6457E0 PUSH1 0x40 MLOAD PUSH1 0x40 MLOAD DUP1 SWAP2 SUB SWAP1 LOG3 POP POP JUMP JUMPDEST DUP2 PUSH20 0xFFFFFFFFFFFFFFFFFFFFFFFFFFFFFFFFFFFFFFFF AND DUP4 PUSH20 0xFFFFFFFFFFFFFFFFFFFFFFFFFFFFFFFFFFFFFFFF AND SUB PUSH2 0x1BA0 JUMPI PUSH1 0x40 MLOAD PUSH32 0x8C379A000000000000000000000000000000000000000000000000000000000 DUP2 MSTORE PUSH1 0x4 ADD PUSH2 0x1B97 SWAP1 PUSH2 0x3B0C JUMP JUMPDEST PUSH1 0x40 MLOAD DUP1 SWAP2 SUB SWAP1 REVERT JUMPDEST DUP1 PUSH1 0x5 PUSH1 0x0 DUP6 PUSH20 0xFFFFFFFFFFFFFFFFFFFFFFFFFFFFFFFFFFFFFFFF AND PUSH20 0xFFFFFFFFFFFFFFFFFFFFFFFFFFFFFFFFFFFFFFFF AND DUP2 MSTORE PUSH1 0x20 ADD SWAP1 DUP2 MSTORE PUSH1 0x20 ADD PUSH1 0x0 KECCAK256 PUSH1 0x0 DUP5 PUSH20 0xFFFFFFFFFFFFFFFFFFFFFFFFFFFFFFFFFFFFFFFF AND PUSH20 0xFFFFFFFFFFFFFFFFFFFFFFFFFFFFFFFFFFFFFFFF AND DUP2 MSTORE PUSH1 0x20 ADD SWAP1 DUP2 MSTORE PUSH1 0x20 ADD PUSH1 0x0 KECCAK256 PUSH1 0x0 PUSH2 0x100 EXP DUP2 SLOAD DUP2 PUSH1 0xFF MUL NOT AND SWAP1 DUP4 ISZERO ISZERO MUL OR SWAP1 SSTORE POP DUP2 PUSH20 0xFFFFFFFFFFFFFFFFFFFFFFFFFFFFFFFFFFFFFFFF AND DUP4 PUSH20 0xFFFFFFFFFFFFFFFFFFFFFFFFFFFFFFFFFFFFFFFF AND PUSH32 0x17307EAB39AB6107E8899845AD3D59BD9653F200F220920489CA2B5937696C31 DUP4 PUSH1 0x40 MLOAD PUSH2 0x1C91 SWAP2 SWAP1 PUSH2 0x2686 JUMP JUMPDEST PUSH1 0x40 MLOAD DUP1 SWAP2 SUB SWAP1 LOG3 POP POP POP JUMP JUMPDEST PUSH2 0x1CA9 DUP5 DUP5 DUP5 PUSH2 0x16B8 JUMP JUMPDEST PUSH2 0x1CB5 DUP5 DUP5 DUP5 DUP5 PUSH2 0x2029 JUMP JUMPDEST PUSH2 0x1CF4 JUMPI PUSH1 0x40 MLOAD PUSH32 0x8C379A000000000000000000000000000000000000000000000000000000000 DUP2 MSTORE PUSH1 0x4 ADD PUSH2 0x1CEB SWAP1 PUSH2 0x3B9E JUMP JUMPDEST PUSH1 0x40 MLOAD DUP1 SWAP2 SUB SWAP1 REVERT JUMPDEST POP POP POP POP JUMP JUMPDEST PUSH1 0x0 DUP1 PUSH20 0xFFFFFFFFFFFFFFFFFFFFFFFFFFFFFFFFFFFFFFFF AND PUSH2 0x1D1C DUP4 PUSH2 0x1A2F JUMP JUMPDEST PUSH20 0xFFFFFFFFFFFFFFFFFFFFFFFFFFFFFFFFFFFFFFFF AND EQ ISZERO SWAP1 POP SWAP2 SWAP1 POP JUMP JUMPDEST PUSH1 0x0 DUP1 PUSH1 0x40 MLOAD DUP1 PUSH1 0x80 ADD PUSH1 0x40 MSTORE DUP1 DUP8 DUP2 MSTORE PUSH1 0x20 ADD DUP7 DUP2 MSTORE PUSH1 0x20 ADD DUP6 DUP2 MSTORE PUSH1 0x20 ADD DUP5 PUSH1 0xFF AND DUP2 MSTORE POP SWAP1 POP PUSH2 0x1D6E PUSH1 0x8 PUSH2 0x21B0 JUMP JUMPDEST PUSH1 0x0 PUSH2 0x1D7A PUSH1 0x8 PUSH2 0x1615 JUMP JUMPDEST SWAP1 POP DUP2 PUSH1 0xA PUSH1 0x0 DUP4 DUP2 MSTORE PUSH1 0x20 ADD SWAP1 DUP2 MSTORE PUSH1 0x20 ADD PUSH1 0x0 KECCAK256 PUSH1 0x0 DUP3 ADD MLOAD DUP2 PUSH1 0x0 ADD SSTORE PUSH1 0x20 DUP3 ADD MLOAD DUP2 PUSH1 0x1 ADD SSTORE PUSH1 0x40 DUP3 ADD MLOAD DUP2 PUSH1 0x2 ADD SSTORE PUSH1 0x60 DUP3 ADD MLOAD DUP2 PUSH1 0x3 ADD PUSH1 0x0 PUSH2 0x100 EXP DUP2 SLOAD DUP2 PUSH1 0xFF MUL NOT AND SWAP1 DUP4 PUSH1 0xFF AND MUL OR SWAP1 SSTORE POP SWAP1 POP POP PUSH2 0x1DE3 PUSH2 0x1DDD PUSH2 0xB77 JUMP JUMPDEST DUP3 PUSH2 0x21C6 JUMP JUMPDEST PUSH32 0x81210E9473326A0DF5D95FA9C4F679B03F5904CD6F2AAB7E686C1431F337EA46 DUP2 DUP9 DUP9 DUP9 DUP9 PUSH1 0x40 MLOAD PUSH2 0x1E1A SWAP6 SWAP5 SWAP4 SWAP3 SWAP2 SWAP1 PUSH2 0x3BBE JUMP JUMPDEST PUSH1 0x40 MLOAD DUP1 SWAP2 SUB SWAP1 LOG1 DUP1 SWAP3 POP POP POP SWAP5 SWAP4 POP POP POP POP JUMP JUMPDEST PUSH1 0x60 PUSH1 0x0 PUSH1 0x1 PUSH2 0x1E3E DUP5 PUSH2 0x21E4 JUMP JUMPDEST ADD SWAP1 POP PUSH1 0x0 DUP2 PUSH8 0xFFFFFFFFFFFFFFFF DUP2 GT ISZERO PUSH2 0x1E5D JUMPI PUSH2 0x1E5C PUSH2 0x2905 JUMP JUMPDEST JUMPDEST PUSH1 0x40 MLOAD SWAP1 DUP1 DUP3 MSTORE DUP1 PUSH1 0x1F ADD PUSH1 0x1F NOT AND PUSH1 0x20 ADD DUP3 ADD PUSH1 0x40 MSTORE DUP1 ISZERO PUSH2 0x1E8F JUMPI DUP2 PUSH1 0x20 ADD PUSH1 0x1 DUP3 MUL DUP1 CALLDATASIZE DUP4 CALLDATACOPY DUP1 DUP3 ADD SWAP2 POP POP SWAP1 POP JUMPDEST POP SWAP1 POP PUSH1 0x0 DUP3 PUSH1 0x20 ADD DUP3 ADD SWAP1 POP JUMPDEST PUSH1 0x1 ISZERO PUSH2 0x1EF2 JUMPI DUP1 DUP1 PUSH1 0x1 SWAP1 SUB SWAP2 POP POP PUSH32 0x3031323334353637383961626364656600000000000000000000000000000000 PUSH1 0xA DUP7 MOD BYTE DUP2 MSTORE8 PUSH1 0xA DUP6 DUP2 PUSH2 0x1EE6 JUMPI PUSH2 0x1EE5 PUSH2 0x3C11 JUMP JUMPDEST JUMPDEST DIV SWAP5 POP PUSH1 0x0 DUP6 SUB PUSH2 0x1E9D JUMPI JUMPDEST DUP2 SWAP4 POP POP POP POP SWAP2 SWAP1 POP JUMP JUMPDEST PUSH1 0x1 DUP2 GT ISZERO PUSH2 0x201D JUMPI PUSH1 0x0 PUSH20 0xFFFFFFFFFFFFFFFFFFFFFFFFFFFFFFFFFFFFFFFF AND DUP5 PUSH20 0xFFFFFFFFFFFFFFFFFFFFFFFFFFFFFFFFFFFFFFFF AND EQ PUSH2 0x1F91 JUMPI DUP1 PUSH1 0x3 PUSH1 0x0 DUP7 PUSH20 0xFFFFFFFFFFFFFFFFFFFFFFFFFFFFFFFFFFFFFFFF AND PUSH20 0xFFFFFFFFFFFFFFFFFFFFFFFFFFFFFFFFFFFFFFFF AND DUP2 MSTORE PUSH1 0x20 ADD SWAP1 DUP2 MSTORE PUSH1 0x20 ADD PUSH1 0x0 KECCAK256 PUSH1 0x0 DUP3 DUP3 SLOAD PUSH2 0x1F89 SWAP2 SWAP1 PUSH2 0x3C40 JUMP JUMPDEST SWAP3 POP POP DUP2 SWAP1 SSTORE POP JUMPDEST PUSH1 0x0 PUSH20 0xFFFFFFFFFFFFFFFFFFFFFFFFFFFFFFFFFFFFFFFF AND DUP4 PUSH20 0xFFFFFFFFFFFFFFFFFFFFFFFFFFFFFFFFFFFFFFFF AND EQ PUSH2 0x201C JUMPI DUP1 PUSH1 0x3 PUSH1 0x0 DUP6 PUSH20 0xFFFFFFFFFFFFFFFFFFFFFFFFFFFFFFFFFFFFFFFF AND PUSH20 0xFFFFFFFFFFFFFFFFFFFFFFFFFFFFFFFFFFFFFFFF AND DUP2 MSTORE PUSH1 0x20 ADD SWAP1 DUP2 MSTORE PUSH1 0x20 ADD PUSH1 0x0 KECCAK256 PUSH1 0x0 DUP3 DUP3 SLOAD PUSH2 0x2014 SWAP2 SWAP1 PUSH2 0x3C74 JUMP JUMPDEST SWAP3 POP POP DUP2 SWAP1 SSTORE POP JUMPDEST JUMPDEST POP POP POP POP JUMP JUMPDEST POP POP POP POP JUMP JUMPDEST PUSH1 0x0 PUSH2 0x204A DUP5 PUSH20 0xFFFFFFFFFFFFFFFFFFFFFFFFFFFFFFFFFFFFFFFF AND PUSH2 0x2337 JUMP JUMPDEST ISZERO PUSH2 0x21A3 JUMPI DUP4 PUSH20 0xFFFFFFFFFFFFFFFFFFFFFFFFFFFFFFFFFFFFFFFF AND PUSH4 0x150B7A02 PUSH2 0x2073 PUSH2 0x154D JUMP JUMPDEST DUP8 DUP7 DUP7 PUSH1 0x40 MLOAD DUP6 PUSH4 0xFFFFFFFF AND PUSH1 0xE0 SHL DUP2 MSTORE PUSH1 0x4 ADD PUSH2 0x2095 SWAP5 SWAP4 SWAP3 SWAP2 SWAP1 PUSH2 0x3CFD JUMP JUMPDEST PUSH1 0x20 PUSH1 0x40 MLOAD DUP1 DUP4 SUB DUP2 PUSH1 0x0 DUP8 GAS CALL SWAP3 POP POP POP DUP1 ISZERO PUSH2 0x20D1 JUMPI POP PUSH1 0x40 MLOAD RETURNDATASIZE PUSH1 0x1F NOT PUSH1 0x1F DUP3 ADD AND DUP3 ADD DUP1 PUSH1 0x40 MSTORE POP DUP2 ADD SWAP1 PUSH2 0x20CE SWAP2 SWAP1 PUSH2 0x3D5E JUMP JUMPDEST PUSH1 0x1 JUMPDEST PUSH2 0x2153 JUMPI RETURNDATASIZE DUP1 PUSH1 0x0 DUP2 EQ PUSH2 0x2101 JUMPI PUSH1 0x40 MLOAD SWAP2 POP PUSH1 0x1F NOT PUSH1 0x3F RETURNDATASIZE ADD AND DUP3 ADD PUSH1 0x40 MSTORE RETURNDATASIZE DUP3 MSTORE RETURNDATASIZE PUSH1 0x0 PUSH1 0x20 DUP5 ADD RETURNDATACOPY PUSH2 0x2106 JUMP JUMPDEST PUSH1 0x60 SWAP2 POP JUMPDEST POP PUSH1 0x0 DUP2 MLOAD SUB PUSH2 0x214B JUMPI PUSH1 0x40 MLOAD PUSH32 0x8C379A000000000000000000000000000000000000000000000000000000000 DUP2 MSTORE PUSH1 0x4 ADD PUSH2 0x2142 SWAP1 PUSH2 0x3B9E JUMP JUMPDEST PUSH1 0x40 MLOAD DUP1 SWAP2 SUB SWAP1 REVERT JUMPDEST DUP1 MLOAD DUP2 PUSH1 0x20 ADD REVERT JUMPDEST PUSH4 0x150B7A02 PUSH1 0xE0 SHL PUSH28 0xFFFFFFFFFFFFFFFFFFFFFFFFFFFFFFFFFFFFFFFFFFFFFFFFFFFFFFFF NOT AND DUP2 PUSH28 0xFFFFFFFFFFFFFFFFFFFFFFFFFFFFFFFFFFFFFFFFFFFFFFFFFFFFFFFF NOT AND EQ SWAP2 POP POP PUSH2 0x21A8 JUMP JUMPDEST PUSH1 0x1 SWAP1 POP JUMPDEST SWAP5 SWAP4 POP POP POP POP JUMP JUMPDEST PUSH1 0x1 DUP2 PUSH1 0x0 ADD PUSH1 0x0 DUP3 DUP3 SLOAD ADD SWAP3 POP POP DUP2 SWAP1 SSTORE POP POP JUMP JUMPDEST PUSH2 0x21E0 DUP3 DUP3 PUSH1 0x40 MLOAD DUP1 PUSH1 0x20 ADD PUSH1 0x40 MSTORE DUP1 PUSH1 0x0 DUP2 MSTORE POP PUSH2 0x235A JUMP JUMPDEST POP POP JUMP JUMPDEST PUSH1 0x0 DUP1 PUSH1 0x0 SWAP1 POP PUSH27 0x184F03E93FF9F4DAA797ED6E38ED64BF6A1F010000000000000000 DUP4 LT PUSH2 0x2242 JUMPI PUSH27 0x184F03E93FF9F4DAA797ED6E38ED64BF6A1F010000000000000000 DUP4 DUP2 PUSH2 0x2238 JUMPI PUSH2 0x2237 PUSH2 0x3C11 JUMP JUMPDEST JUMPDEST DIV SWAP3 POP PUSH1 0x40 DUP2 ADD SWAP1 POP JUMPDEST PUSH14 0x4EE2D6D415B85ACEF8100000000 DUP4 LT PUSH2 0x227F JUMPI PUSH14 0x4EE2D6D415B85ACEF8100000000 DUP4 DUP2 PUSH2 0x2275 JUMPI PUSH2 0x2274 PUSH2 0x3C11 JUMP JUMPDEST JUMPDEST DIV SWAP3 POP PUSH1 0x20 DUP2 ADD SWAP1 POP JUMPDEST PUSH7 0x2386F26FC10000 DUP4 LT PUSH2 0x22AE JUMPI PUSH7 0x2386F26FC10000 DUP4 DUP2 PUSH2 0x22A4 JUMPI PUSH2 0x22A3 PUSH2 0x3C11 JUMP JUMPDEST JUMPDEST DIV SWAP3 POP PUSH1 0x10 DUP2 ADD SWAP1 POP JUMPDEST PUSH4 0x5F5E100 DUP4 LT PUSH2 0x22D7 JUMPI PUSH4 0x5F5E100 DUP4 DUP2 PUSH2 0x22CD JUMPI PUSH2 0x22CC PUSH2 0x3C11 JUMP JUMPDEST JUMPDEST DIV SWAP3 POP PUSH1 0x8 DUP2 ADD SWAP1 POP JUMPDEST PUSH2 0x2710 DUP4 LT PUSH2 0x22FC JUMPI PUSH2 0x2710 DUP4 DUP2 PUSH2 0x22F2 JUMPI PUSH2 0x22F1 PUSH2 0x3C11 JUMP JUMPDEST JUMPDEST DIV SWAP3 POP PUSH1 0x4 DUP2 ADD SWAP1 POP JUMPDEST PUSH1 0x64 DUP4 LT PUSH2 0x231F JUMPI PUSH1 0x64 DUP4 DUP2 PUSH2 0x2315 JUMPI PUSH2 0x2314 PUSH2 0x3C11 JUMP JUMPDEST JUMPDEST DIV SWAP3 POP PUSH1 0x2 DUP2 ADD SWAP1 POP JUMPDEST PUSH1 0xA DUP4 LT PUSH2 0x232E JUMPI PUSH1 0x1 DUP2 ADD SWAP1 POP JUMPDEST DUP1 SWAP2 POP POP SWAP2 SWAP1 POP JUMP JUMPDEST PUSH1 0x0 DUP1 DUP3 PUSH20 0xFFFFFFFFFFFFFFFFFFFFFFFFFFFFFFFFFFFFFFFF AND EXTCODESIZE GT SWAP1 POP SWAP2 SWAP1 POP JUMP JUMPDEST PUSH2 0x2364 DUP4 DUP4 PUSH2 0x23B5 JUMP JUMPDEST PUSH2 0x2371 PUSH1 0x0 DUP5 DUP5 DUP5 PUSH2 0x2029 JUMP JUMPDEST PUSH2 0x23B0 JUMPI PUSH1 0x40 MLOAD PUSH32 0x8C379A000000000000000000000000000000000000000000000000000000000 DUP2 MSTORE PUSH1 0x4 ADD PUSH2 0x23A7 SWAP1 PUSH2 0x3B9E JUMP JUMPDEST PUSH1 0x40 MLOAD DUP1 SWAP2 SUB SWAP1 REVERT JUMPDEST POP POP POP JUMP JUMPDEST PUSH1 0x0 PUSH20 0xFFFFFFFFFFFFFFFFFFFFFFFFFFFFFFFFFFFFFFFF AND DUP3 PUSH20 0xFFFFFFFFFFFFFFFFFFFFFFFFFFFFFFFFFFFFFFFF AND SUB PUSH2 0x2424 JUMPI PUSH1 0x40 MLOAD PUSH32 0x8C379A000000000000000000000000000000000000000000000000000000000 DUP2 MSTORE PUSH1 0x4 ADD PUSH2 0x241B SWAP1 PUSH2 0x3DD7 JUMP JUMPDEST PUSH1 0x40 MLOAD DUP1 SWAP2 SUB SWAP1 REVERT JUMPDEST PUSH2 0x242D DUP2 PUSH2 0x1CFA JUMP JUMPDEST ISZERO PUSH2 0x246D JUMPI PUSH1 0x40 MLOAD PUSH32 0x8C379A000000000000000000000000000000000000000000000000000000000 DUP2 MSTORE PUSH1 0x4 ADD PUSH2 0x2464 SWAP1 PUSH2 0x3E43 JUMP JUMPDEST PUSH1 0x40 MLOAD DUP1 SWAP2 SUB SWAP1 REVERT JUMPDEST PUSH2 0x247B PUSH1 0x0 DUP4 DUP4 PUSH1 0x1 PUSH2 0x1EFD JUMP JUMPDEST PUSH2 0x2484 DUP2 PUSH2 0x1CFA JUMP JUMPDEST ISZERO PUSH2 0x24C4 JUMPI PUSH1 0x40 MLOAD PUSH32 0x8C379A000000000000000000000000000000000000000000000000000000000 DUP2 MSTORE PUSH1 0x4 ADD PUSH2 0x24BB SWAP1 PUSH2 0x3E43 JUMP JUMPDEST PUSH1 0x40 MLOAD DUP1 SWAP2 SUB SWAP1 REVERT JUMPDEST PUSH1 0x1 PUSH1 0x3 PUSH1 0x0 DUP5 PUSH20 0xFFFFFFFFFFFFFFFFFFFFFFFFFFFFFFFFFFFFFFFF AND PUSH20 0xFFFFFFFFFFFFFFFFFFFFFFFFFFFFFFFFFFFFFFFF AND DUP2 MSTORE PUSH1 0x20 ADD SWAP1 DUP2 MSTORE PUSH1 0x20 ADD PUSH1 0x0 KECCAK256 PUSH1 0x0 DUP3 DUP3 SLOAD ADD SWAP3 POP POP DUP2 SWAP1 SSTORE POP DUP2 PUSH1 0x2 PUSH1 0x0 DUP4 DUP2 MSTORE PUSH1 0x20 ADD SWAP1 DUP2 MSTORE PUSH1 0x20 ADD PUSH1 0x0 KECCAK256 PUSH1 0x0 PUSH2 0x100 EXP DUP2 SLOAD DUP2 PUSH20 0xFFFFFFFFFFFFFFFFFFFFFFFFFFFFFFFFFFFFFFFF MUL NOT AND SWAP1 DUP4 PUSH20 0xFFFFFFFFFFFFFFFFFFFFFFFFFFFFFFFFFFFFFFFF AND MUL OR SWAP1 SSTORE POP DUP1 DUP3 PUSH20 0xFFFFFFFFFFFFFFFFFFFFFFFFFFFFFFFFFFFFFFFF AND PUSH1 0x0 PUSH20 0xFFFFFFFFFFFFFFFFFFFFFFFFFFFFFFFFFFFFFFFF AND PUSH32 0xDDF252AD1BE2C89B69C2B068FC378DAA952BA7F163C4A11628F55A4DF523B3EF PUSH1 0x40 MLOAD PUSH1 0x40 MLOAD DUP1 SWAP2 SUB SWAP1 LOG4 PUSH2 0x25CE PUSH1 0x0 DUP4 DUP4 PUSH1 0x1 PUSH2 0x2023 JUMP JUMPDEST POP POP JUMP JUMPDEST PUSH1 0x0 PUSH1 0x40 MLOAD SWAP1 POP SWAP1 JUMP JUMPDEST PUSH1 0x0 DUP1 REVERT JUMPDEST PUSH1 0x0 DUP1 REVERT JUMPDEST PUSH1 0x0 PUSH32 0xFFFFFFFF00000000000000000000000000000000000000000000000000000000 DUP3 AND SWAP1 POP SWAP2 SWAP1 POP JUMP JUMPDEST PUSH2 0x261B DUP2 PUSH2 0x25E6 JUMP JUMPDEST DUP2 EQ PUSH2 0x2626 JUMPI PUSH1 0x0 DUP1 REVERT JUMPDEST POP JUMP JUMPDEST PUSH1 0x0 DUP2 CALLDATALOAD SWAP1 POP PUSH2 0x2638 DUP2 PUSH2 0x2612 JUMP JUMPDEST SWAP3 SWAP2 POP POP JUMP JUMPDEST PUSH1 0x0 PUSH1 0x20 DUP3 DUP5 SUB SLT ISZERO PUSH2 0x2654 JUMPI PUSH2 0x2653 PUSH2 0x25DC JUMP JUMPDEST JUMPDEST PUSH1 0x0 PUSH2 0x2662 DUP5 DUP3 DUP6 ADD PUSH2 0x2629 JUMP JUMPDEST SWAP2 POP POP SWAP3 SWAP2 POP POP JUMP JUMPDEST PUSH1 0x0 DUP2 ISZERO ISZERO SWAP1 POP SWAP2 SWAP1 POP JUMP JUMPDEST PUSH2 0x2680 DUP2 PUSH2 0x266B JUMP JUMPDEST DUP3 MSTORE POP POP JUMP JUMPDEST PUSH1 0x0 PUSH1 0x20 DUP3 ADD SWAP1 POP PUSH2 0x269B PUSH1 0x0 DUP4 ADD DUP5 PUSH2 0x2677 JUMP JUMPDEST SWAP3 SWAP2 POP POP JUMP JUMPDEST PUSH1 0x0 DUP2 MLOAD SWAP1 POP SWAP2 SWAP1 POP JUMP JUMPDEST PUSH1 0x0 DUP3 DUP3 MSTORE PUSH1 0x20 DUP3 ADD SWAP1 POP SWAP3 SWAP2 POP POP JUMP JUMPDEST PUSH1 0x0 JUMPDEST DUP4 DUP2 LT ISZERO PUSH2 0x26DB JUMPI DUP1 DUP3 ADD MLOAD DUP2 DUP5 ADD MSTORE PUSH1 0x20 DUP2 ADD SWAP1 POP PUSH2 0x26C0 JUMP JUMPDEST PUSH1 0x0 DUP5 DUP5 ADD MSTORE POP POP POP POP JUMP JUMPDEST PUSH1 0x0 PUSH1 0x1F NOT PUSH1 0x1F DUP4 ADD AND SWAP1 POP SWAP2 SWAP1 POP JUMP JUMPDEST PUSH1 0x0 PUSH2 0x2703 DUP3 PUSH2 0x26A1 JUMP JUMPDEST PUSH2 0x270D DUP2 DUP6 PUSH2 0x26AC JUMP JUMPDEST SWAP4 POP PUSH2 0x271D DUP2 DUP6 PUSH1 0x20 DUP7 ADD PUSH2 0x26BD JUMP JUMPDEST PUSH2 0x2726 DUP2 PUSH2 0x26E7 JUMP JUMPDEST DUP5 ADD SWAP2 POP POP SWAP3 SWAP2 POP POP JUMP JUMPDEST PUSH1 0x0 PUSH1 0x20 DUP3 ADD SWAP1 POP DUP2 DUP2 SUB PUSH1 0x0 DUP4 ADD MSTORE PUSH2 0x274B DUP2 DUP5 PUSH2 0x26F8 JUMP JUMPDEST SWAP1 POP SWAP3 SWAP2 POP POP JUMP JUMPDEST PUSH1 0x0 DUP2 SWAP1 POP SWAP2 SWAP1 POP JUMP JUMPDEST PUSH2 0x2766 DUP2 PUSH2 0x2753 JUMP JUMPDEST DUP2 EQ PUSH2 0x2771 JUMPI PUSH1 0x0 DUP1 REVERT JUMPDEST POP JUMP JUMPDEST PUSH1 0x0 DUP2 CALLDATALOAD SWAP1 POP PUSH2 0x2783 DUP2 PUSH2 0x275D JUMP JUMPDEST SWAP3 SWAP2 POP POP JUMP JUMPDEST PUSH1 0x0 PUSH1 0x20 DUP3 DUP5 SUB SLT ISZERO PUSH2 0x279F JUMPI PUSH2 0x279E PUSH2 0x25DC JUMP JUMPDEST JUMPDEST PUSH1 0x0 PUSH2 0x27AD DUP5 DUP3 DUP6 ADD PUSH2 0x2774 JUMP JUMPDEST SWAP2 POP POP SWAP3 SWAP2 POP POP JUMP JUMPDEST PUSH1 0x0 PUSH20 0xFFFFFFFFFFFFFFFFFFFFFFFFFFFFFFFFFFFFFFFF DUP3 AND SWAP1 POP SWAP2 SWAP1 POP JUMP JUMPDEST PUSH1 0x0 PUSH2 0x27E1 DUP3 PUSH2 0x27B6 JUMP JUMPDEST SWAP1 POP SWAP2 SWAP1 POP JUMP JUMPDEST PUSH2 0x27F1 DUP2 PUSH2 0x27D6 JUMP JUMPDEST DUP3 MSTORE POP POP JUMP JUMPDEST PUSH1 0x0 PUSH1 0x20 DUP3 ADD SWAP1 POP PUSH2 0x280C PUSH1 0x0 DUP4 ADD DUP5 PUSH2 0x27E8 JUMP JUMPDEST SWAP3 SWAP2 POP POP JUMP JUMPDEST PUSH2 0x281B DUP2 PUSH2 0x27D6 JUMP JUMPDEST DUP2 EQ PUSH2 0x2826 JUMPI PUSH1 0x0 DUP1 REVERT JUMPDEST POP JUMP JUMPDEST PUSH1 0x0 DUP2 CALLDATALOAD SWAP1 POP PUSH2 0x2838 DUP2 PUSH2 0x2812 JUMP JUMPDEST SWAP3 SWAP2 POP POP JUMP JUMPDEST PUSH1 0x0 DUP1 PUSH1 0x40 DUP4 DUP6 SUB SLT ISZERO PUSH2 0x2855 JUMPI PUSH2 0x2854 PUSH2 0x25DC JUMP JUMPDEST JUMPDEST PUSH1 0x0 PUSH2 0x2863 DUP6 DUP3 DUP7 ADD PUSH2 0x2829 JUMP JUMPDEST SWAP3 POP POP PUSH1 0x20 PUSH2 0x2874 DUP6 DUP3 DUP7 ADD PUSH2 0x2774 JUMP JUMPDEST SWAP2 POP POP SWAP3 POP SWAP3 SWAP1 POP JUMP JUMPDEST PUSH2 0x2887 DUP2 PUSH2 0x2753 JUMP JUMPDEST DUP3 MSTORE POP POP JUMP JUMPDEST PUSH1 0x0 PUSH1 0x20 DUP3 ADD SWAP1 POP PUSH2 0x28A2 PUSH1 0x0 DUP4 ADD DUP5 PUSH2 0x287E JUMP JUMPDEST SWAP3 SWAP2 POP POP JUMP JUMPDEST PUSH1 0x0 DUP1 PUSH1 0x0 PUSH1 0x60 DUP5 DUP7 SUB SLT ISZERO PUSH2 0x28C1 JUMPI PUSH2 0x28C0 PUSH2 0x25DC JUMP JUMPDEST JUMPDEST PUSH1 0x0 PUSH2 0x28CF DUP7 DUP3 DUP8 ADD PUSH2 0x2829 JUMP JUMPDEST SWAP4 POP POP PUSH1 0x20 PUSH2 0x28E0 DUP7 DUP3 DUP8 ADD PUSH2 0x2829 JUMP JUMPDEST SWAP3 POP POP PUSH1 0x40 PUSH2 0x28F1 DUP7 DUP3 DUP8 ADD PUSH2 0x2774 JUMP JUMPDEST SWAP2 POP POP SWAP3 POP SWAP3 POP SWAP3 JUMP JUMPDEST PUSH1 0x0 DUP1 REVERT JUMPDEST PUSH1 0x0 DUP1 REVERT JUMPDEST PUSH32 0x4E487B7100000000000000000000000000000000000000000000000000000000 PUSH1 0x0 MSTORE PUSH1 0x41 PUSH1 0x4 MSTORE PUSH1 0x24 PUSH1 0x0 REVERT JUMPDEST PUSH2 0x293D DUP3 PUSH2 0x26E7 JUMP JUMPDEST DUP2 ADD DUP2 DUP2 LT PUSH8 0xFFFFFFFFFFFFFFFF DUP3 GT OR ISZERO PUSH2 0x295C JUMPI PUSH2 0x295B PUSH2 0x2905 JUMP JUMPDEST JUMPDEST DUP1 PUSH1 0x40 MSTORE POP POP POP JUMP JUMPDEST PUSH1 0x0 PUSH2 0x296F PUSH2 0x25D2 JUMP JUMPDEST SWAP1 POP PUSH2 0x297B DUP3 DUP3 PUSH2 0x2934 JUMP JUMPDEST SWAP2 SWAP1 POP JUMP JUMPDEST PUSH1 0x0 PUSH8 0xFFFFFFFFFFFFFFFF DUP3 GT ISZERO PUSH2 0x299B JUMPI PUSH2 0x299A PUSH2 0x2905 JUMP JUMPDEST JUMPDEST PUSH2 0x29A4 DUP3 PUSH2 0x26E7 JUMP JUMPDEST SWAP1 POP PUSH1 0x20 DUP2 ADD SWAP1 POP SWAP2 SWAP1 POP JUMP JUMPDEST DUP3 DUP2 DUP4 CALLDATACOPY PUSH1 0x0 DUP4 DUP4 ADD MSTORE POP POP POP JUMP JUMPDEST PUSH1 0x0 PUSH2 0x29D3 PUSH2 0x29CE DUP5 PUSH2 0x2980 JUMP JUMPDEST PUSH2 0x2965 JUMP JUMPDEST SWAP1 POP DUP3 DUP2 MSTORE PUSH1 0x20 DUP2 ADD DUP5 DUP5 DUP5 ADD GT ISZERO PUSH2 0x29EF JUMPI PUSH2 0x29EE PUSH2 0x2900 JUMP JUMPDEST JUMPDEST PUSH2 0x29FA DUP5 DUP3 DUP6 PUSH2 0x29B1 JUMP JUMPDEST POP SWAP4 SWAP3 POP POP POP JUMP JUMPDEST PUSH1 0x0 DUP3 PUSH1 0x1F DUP4 ADD SLT PUSH2 0x2A17 JUMPI PUSH2 0x2A16 PUSH2 0x28FB JUMP JUMPDEST JUMPDEST DUP2 CALLDATALOAD PUSH2 0x2A27 DUP5 DUP3 PUSH1 0x20 DUP7 ADD PUSH2 0x29C0 JUMP JUMPDEST SWAP2 POP POP SWAP3 SWAP2 POP POP JUMP JUMPDEST PUSH1 0x0 PUSH1 0x20 DUP3 DUP5 SUB SLT ISZERO PUSH2 0x2A46 JUMPI PUSH2 0x2A45 PUSH2 0x25DC JUMP JUMPDEST JUMPDEST PUSH1 0x0 DUP3 ADD CALLDATALOAD PUSH8 0xFFFFFFFFFFFFFFFF DUP2 GT ISZERO PUSH2 0x2A64 JUMPI PUSH2 0x2A63 PUSH2 0x25E1 JUMP JUMPDEST JUMPDEST PUSH2 0x2A70 DUP5 DUP3 DUP6 ADD PUSH2 0x2A02 JUMP JUMPDEST SWAP2 POP POP SWAP3 SWAP2 POP POP JUMP JUMPDEST PUSH1 0x0 PUSH1 0x20 DUP3 DUP5 SUB SLT ISZERO PUSH2 0x2A8F JUMPI PUSH2 0x2A8E PUSH2 0x25DC JUMP JUMPDEST JUMPDEST PUSH1 0x0 PUSH2 0x2A9D DUP5 DUP3 DUP6 ADD PUSH2 0x2829 JUMP JUMPDEST SWAP2 POP POP SWAP3 SWAP2 POP POP JUMP JUMPDEST PUSH1 0x0 DUP1 REVERT JUMPDEST PUSH1 0x0 DUP1 REVERT JUMPDEST PUSH1 0x0 DUP1 DUP4 PUSH1 0x1F DUP5 ADD SLT PUSH2 0x2AC6 JUMPI PUSH2 0x2AC5 PUSH2 0x28FB JUMP JUMPDEST JUMPDEST DUP3 CALLDATALOAD SWAP1 POP PUSH8 0xFFFFFFFFFFFFFFFF DUP2 GT ISZERO PUSH2 0x2AE3 JUMPI PUSH2 0x2AE2 PUSH2 0x2AA6 JUMP JUMPDEST JUMPDEST PUSH1 0x20 DUP4 ADD SWAP2 POP DUP4 PUSH1 0x1 DUP3 MUL DUP4 ADD GT ISZERO PUSH2 0x2AFF JUMPI PUSH2 0x2AFE PUSH2 0x2AAB JUMP JUMPDEST JUMPDEST SWAP3 POP SWAP3 SWAP1 POP JUMP JUMPDEST PUSH1 0x0 DUP1 PUSH1 0x20 DUP4 DUP6 SUB SLT ISZERO PUSH2 0x2B1D JUMPI PUSH2 0x2B1C PUSH2 0x25DC JUMP JUMPDEST JUMPDEST PUSH1 0x0 DUP4 ADD CALLDATALOAD PUSH8 0xFFFFFFFFFFFFFFFF DUP2 GT ISZERO PUSH2 0x2B3B JUMPI PUSH2 0x2B3A PUSH2 0x25E1 JUMP JUMPDEST JUMPDEST PUSH2 0x2B47 DUP6 DUP3 DUP7 ADD PUSH2 0x2AB0 JUMP JUMPDEST SWAP3 POP SWAP3 POP POP SWAP3 POP SWAP3 SWAP1 POP JUMP JUMPDEST PUSH2 0x2B5C DUP2 PUSH2 0x266B JUMP JUMPDEST DUP2 EQ PUSH2 0x2B67 JUMPI PUSH1 0x0 DUP1 REVERT JUMPDEST POP JUMP JUMPDEST PUSH1 0x0 DUP2 CALLDATALOAD SWAP1 POP PUSH2 0x2B79 DUP2 PUSH2 0x2B53 JUMP JUMPDEST SWAP3 SWAP2 POP POP JUMP JUMPDEST PUSH1 0x0 DUP1 PUSH1 0x40 DUP4 DUP6 SUB SLT ISZERO PUSH2 0x2B96 JUMPI PUSH2 0x2B95 PUSH2 0x25DC JUMP JUMPDEST JUMPDEST PUSH1 0x0 PUSH2 0x2BA4 DUP6 DUP3 DUP7 ADD PUSH2 0x2829 JUMP JUMPDEST SWAP3 POP POP PUSH1 0x20 PUSH2 0x2BB5 DUP6 DUP3 DUP7 ADD PUSH2 0x2B6A JUMP JUMPDEST SWAP2 POP POP SWAP3 POP SWAP3 SWAP1 POP JUMP JUMPDEST PUSH1 0x0 PUSH8 0xFFFFFFFFFFFFFFFF DUP3 GT ISZERO PUSH2 0x2BDA JUMPI PUSH2 0x2BD9 PUSH2 0x2905 JUMP JUMPDEST JUMPDEST PUSH2 0x2BE3 DUP3 PUSH2 0x26E7 JUMP JUMPDEST SWAP1 POP PUSH1 0x20 DUP2 ADD SWAP1 POP SWAP2 SWAP1 POP JUMP JUMPDEST PUSH1 0x0 PUSH2 0x2C03 PUSH2 0x2BFE DUP5 PUSH2 0x2BBF JUMP JUMPDEST PUSH2 0x2965 JUMP JUMPDEST SWAP1 POP DUP3 DUP2 MSTORE PUSH1 0x20 DUP2 ADD DUP5 DUP5 DUP5 ADD GT ISZERO PUSH2 0x2C1F JUMPI PUSH2 0x2C1E PUSH2 0x2900 JUMP JUMPDEST JUMPDEST PUSH2 0x2C2A DUP5 DUP3 DUP6 PUSH2 0x29B1 JUMP JUMPDEST POP SWAP4 SWAP3 POP POP POP JUMP JUMPDEST PUSH1 0x0 DUP3 PUSH1 0x1F DUP4 ADD SLT PUSH2 0x2C47 JUMPI PUSH2 0x2C46 PUSH2 0x28FB JUMP JUMPDEST JUMPDEST DUP2 CALLDATALOAD PUSH2 0x2C57 DUP5 DUP3 PUSH1 0x20 DUP7 ADD PUSH2 0x2BF0 JUMP JUMPDEST SWAP2 POP POP SWAP3 SWAP2 POP POP JUMP JUMPDEST PUSH1 0x0 DUP1 PUSH1 0x0 DUP1 PUSH1 0x80 DUP6 DUP8 SUB SLT ISZERO PUSH2 0x2C7A JUMPI PUSH2 0x2C79 PUSH2 0x25DC JUMP JUMPDEST JUMPDEST PUSH1 0x0 PUSH2 0x2C88 DUP8 DUP3 DUP9 ADD PUSH2 0x2829 JUMP JUMPDEST SWAP5 POP POP PUSH1 0x20 PUSH2 0x2C99 DUP8 DUP3 DUP9 ADD PUSH2 0x2829 JUMP JUMPDEST SWAP4 POP POP PUSH1 0x40 PUSH2 0x2CAA DUP8 DUP3 DUP9 ADD PUSH2 0x2774 JUMP JUMPDEST SWAP3 POP POP PUSH1 0x60 DUP6 ADD CALLDATALOAD PUSH8 0xFFFFFFFFFFFFFFFF DUP2 GT ISZERO PUSH2 0x2CCB JUMPI PUSH2 0x2CCA PUSH2 0x25E1 JUMP JUMPDEST JUMPDEST PUSH2 0x2CD7 DUP8 DUP3 DUP9 ADD PUSH2 0x2C32 JUMP JUMPDEST SWAP2 POP POP SWAP3 SWAP6 SWAP2 SWAP5 POP SWAP3 POP JUMP JUMPDEST PUSH1 0x0 DUP1 PUSH1 0x40 DUP4 DUP6 SUB SLT ISZERO PUSH2 0x2CFA JUMPI PUSH2 0x2CF9 PUSH2 0x25DC JUMP JUMPDEST JUMPDEST PUSH1 0x0 PUSH2 0x2D08 DUP6 DUP3 DUP7 ADD PUSH2 0x2774 JUMP JUMPDEST SWAP3 POP POP PUSH1 0x20 PUSH2 0x2D19 DUP6 DUP3 DUP7 ADD PUSH2 0x2774 JUMP JUMPDEST SWAP2 POP POP SWAP3 POP SWAP3 SWAP1 POP JUMP JUMPDEST PUSH1 0x0 PUSH1 0xFF DUP3 AND SWAP1 POP SWAP2 SWAP1 POP JUMP JUMPDEST PUSH2 0x2D39 DUP2 PUSH2 0x2D23 JUMP JUMPDEST DUP2 EQ PUSH2 0x2D44 JUMPI PUSH1 0x0 DUP1 REVERT JUMPDEST POP JUMP JUMPDEST PUSH1 0x0 DUP2 CALLDATALOAD SWAP1 POP PUSH2 0x2D56 DUP2 PUSH2 0x2D30 JUMP JUMPDEST SWAP3 SWAP2 POP POP JUMP JUMPDEST PUSH1 0x0 DUP1 PUSH1 0x40 DUP4 DUP6 SUB SLT ISZERO PUSH2 0x2D73 JUMPI PUSH2 0x2D72 PUSH2 0x25DC JUMP JUMPDEST JUMPDEST PUSH1 0x0 PUSH2 0x2D81 DUP6 DUP3 DUP7 ADD PUSH2 0x2774 JUMP JUMPDEST SWAP3 POP POP PUSH1 0x20 PUSH2 0x2D92 DUP6 DUP3 DUP7 ADD PUSH2 0x2D47 JUMP JUMPDEST SWAP2 POP POP SWAP3 POP SWAP3 SWAP1 POP JUMP JUMPDEST PUSH1 0x0 PUSH1 0x20 DUP3 DUP5 SUB SLT ISZERO PUSH2 0x2DB2 JUMPI PUSH2 0x2DB1 PUSH2 0x25DC JUMP JUMPDEST JUMPDEST PUSH1 0x0 PUSH2 0x2DC0 DUP5 DUP3 DUP6 ADD PUSH2 0x2D47 JUMP JUMPDEST SWAP2 POP POP SWAP3 SWAP2 POP POP JUMP JUMPDEST PUSH1 0x0 DUP1 PUSH1 0x40 DUP4 DUP6 SUB SLT ISZERO PUSH2 0x2DE0 JUMPI PUSH2 0x2DDF PUSH2 0x25DC JUMP JUMPDEST JUMPDEST PUSH1 0x0 PUSH2 0x2DEE DUP6 DUP3 DUP7 ADD PUSH2 0x2829 JUMP JUMPDEST SWAP3 POP POP PUSH1 0x20 PUSH2 0x2DFF DUP6 DUP3 DUP7 ADD PUSH2 0x2829 JUMP JUMPDEST SWAP2 POP POP SWAP3 POP SWAP3 SWAP1 POP JUMP JUMPDEST PUSH32 0x4E487B7100000000000000000000000000000000000000000000000000000000 PUSH1 0x0 MSTORE PUSH1 0x22 PUSH1 0x4 MSTORE PUSH1 0x24 PUSH1 0x0 REVERT JUMPDEST PUSH1 0x0 PUSH1 0x2 DUP3 DIV SWAP1 POP PUSH1 0x1 DUP3 AND DUP1 PUSH2 0x2E50 JUMPI PUSH1 0x7F DUP3 AND SWAP2 POP JUMPDEST PUSH1 0x20 DUP3 LT DUP2 SUB PUSH2 0x2E63 JUMPI PUSH2 0x2E62 PUSH2 0x2E09 JUMP JUMPDEST JUMPDEST POP SWAP2 SWAP1 POP JUMP JUMPDEST PUSH32 0x4552433732313A20617070726F76616C20746F2063757272656E74206F776E65 PUSH1 0x0 DUP3 ADD MSTORE PUSH32 0x7200000000000000000000000000000000000000000000000000000000000000 PUSH1 0x20 DUP3 ADD MSTORE POP JUMP JUMPDEST PUSH1 0x0 PUSH2 0x2EC5 PUSH1 0x21 DUP4 PUSH2 0x26AC JUMP JUMPDEST SWAP2 POP PUSH2 0x2ED0 DUP3 PUSH2 0x2E69 JUMP JUMPDEST PUSH1 0x40 DUP3 ADD SWAP1 POP SWAP2 SWAP1 POP JUMP JUMPDEST PUSH1 0x0 PUSH1 0x20 DUP3 ADD SWAP1 POP DUP2 DUP2 SUB PUSH1 0x0 DUP4 ADD MSTORE PUSH2 0x2EF4 DUP2 PUSH2 0x2EB8 JUMP JUMPDEST SWAP1 POP SWAP2 SWAP1 POP JUMP JUMPDEST PUSH32 0x4552433732313A20617070726F76652063616C6C6572206973206E6F7420746F PUSH1 0x0 DUP3 ADD MSTORE PUSH32 0x6B656E206F776E6572206F7220617070726F76656420666F7220616C6C000000 PUSH1 0x20 DUP3 ADD MSTORE POP JUMP JUMPDEST PUSH1 0x0 PUSH2 0x2F57 PUSH1 0x3D DUP4 PUSH2 0x26AC JUMP JUMPDEST SWAP2 POP PUSH2 0x2F62 DUP3 PUSH2 0x2EFB JUMP JUMPDEST PUSH1 0x40 DUP3 ADD SWAP1 POP SWAP2 SWAP1 POP JUMP JUMPDEST PUSH1 0x0 PUSH1 0x20 DUP3 ADD SWAP1 POP DUP2 DUP2 SUB PUSH1 0x0 DUP4 ADD MSTORE PUSH2 0x2F86 DUP2 PUSH2 0x2F4A JUMP JUMPDEST SWAP1 POP SWAP2 SWAP1 POP JUMP JUMPDEST PUSH32 0x4552433732313A2063616C6C6572206973206E6F7420746F6B656E206F776E65 PUSH1 0x0 DUP3 ADD MSTORE PUSH32 0x72206F7220617070726F76656400000000000000000000000000000000000000 PUSH1 0x20 DUP3 ADD MSTORE POP JUMP JUMPDEST PUSH1 0x0 PUSH2 0x2FE9 PUSH1 0x2D DUP4 PUSH2 0x26AC JUMP JUMPDEST SWAP2 POP PUSH2 0x2FF4 DUP3 PUSH2 0x2F8D JUMP JUMPDEST PUSH1 0x40 DUP3 ADD SWAP1 POP SWAP2 SWAP1 POP JUMP JUMPDEST PUSH1 0x0 PUSH1 0x20 DUP3 ADD SWAP1 POP DUP2 DUP2 SUB PUSH1 0x0 DUP4 ADD MSTORE PUSH2 0x3018 DUP2 PUSH2 0x2FDC JUMP JUMPDEST SWAP1 POP SWAP2 SWAP1 POP JUMP JUMPDEST PUSH1 0x0 DUP2 SWAP1 POP SWAP3 SWAP2 POP POP JUMP JUMPDEST POP JUMP JUMPDEST PUSH1 0x0 PUSH2 0x303A PUSH1 0x0 DUP4 PUSH2 0x301F JUMP JUMPDEST SWAP2 POP PUSH2 0x3045 DUP3 PUSH2 0x302A JUMP JUMPDEST PUSH1 0x0 DUP3 ADD SWAP1 POP SWAP2 SWAP1 POP JUMP JUMPDEST PUSH1 0x0 PUSH2 0x305B DUP3 PUSH2 0x302D JUMP JUMPDEST SWAP2 POP DUP2 SWAP1 POP SWAP2 SWAP1 POP JUMP JUMPDEST PUSH1 0x0 DUP2 SWAP1 POP DUP2 PUSH1 0x0 MSTORE PUSH1 0x20 PUSH1 0x0 KECCAK256 SWAP1 POP SWAP2 SWAP1 POP JUMP JUMPDEST PUSH1 0x0 PUSH1 0x20 PUSH1 0x1F DUP4 ADD DIV SWAP1 POP SWAP2 SWAP1 POP JUMP JUMPDEST PUSH1 0x0 DUP3 DUP3 SHL SWAP1 POP SWAP3 SWAP2 POP POP JUMP JUMPDEST PUSH1 0x0 PUSH1 0x8 DUP4 MUL PUSH2 0x30C7 PUSH32 0xFFFFFFFFFFFFFFFFFFFFFFFFFFFFFFFFFFFFFFFFFFFFFFFFFFFFFFFFFFFFFFFF DUP3 PUSH2 0x308A JUMP JUMPDEST PUSH2 0x30D1 DUP7 DUP4 PUSH2 0x308A JUMP JUMPDEST SWAP6 POP DUP1 NOT DUP5 AND SWAP4 POP DUP1 DUP7 AND DUP5 OR SWAP3 POP POP POP SWAP4 SWAP3 POP POP POP JUMP JUMPDEST PUSH1 0x0 DUP2 SWAP1 POP SWAP2 SWAP1 POP JUMP JUMPDEST PUSH1 0x0 PUSH2 0x310E PUSH2 0x3109 PUSH2 0x3104 DUP5 PUSH2 0x2753 JUMP JUMPDEST PUSH2 0x30E9 JUMP JUMPDEST PUSH2 0x2753 JUMP JUMPDEST SWAP1 POP SWAP2 SWAP1 POP JUMP JUMPDEST PUSH1 0x0 DUP2 SWAP1 POP SWAP2 SWAP1 POP JUMP JUMPDEST PUSH2 0x3128 DUP4 PUSH2 0x30F3 JUMP JUMPDEST PUSH2 0x313C PUSH2 0x3134 DUP3 PUSH2 0x3115 JUMP JUMPDEST DUP5 DUP5 SLOAD PUSH2 0x3097 JUMP JUMPDEST DUP3 SSTORE POP POP POP POP JUMP JUMPDEST PUSH1 0x0 SWAP1 JUMP JUMPDEST PUSH2 0x3151 PUSH2 0x3144 JUMP JUMPDEST PUSH2 0x315C DUP2 DUP5 DUP5 PUSH2 0x311F JUMP JUMPDEST POP POP POP JUMP JUMPDEST JUMPDEST DUP2 DUP2 LT ISZERO PUSH2 0x3180 JUMPI PUSH2 0x3175 PUSH1 0x0 DUP3 PUSH2 0x3149 JUMP JUMPDEST PUSH1 0x1 DUP2 ADD SWAP1 POP PUSH2 0x3162 JUMP JUMPDEST POP POP JUMP JUMPDEST PUSH1 0x1F DUP3 GT ISZERO PUSH2 0x31C5 JUMPI PUSH2 0x3196 DUP2 PUSH2 0x3065 JUMP JUMPDEST PUSH2 0x319F DUP5 PUSH2 0x307A JUMP JUMPDEST DUP2 ADD PUSH1 0x20 DUP6 LT ISZERO PUSH2 0x31AE JUMPI DUP2 SWAP1 POP JUMPDEST PUSH2 0x31C2 PUSH2 0x31BA DUP6 PUSH2 0x307A JUMP JUMPDEST DUP4 ADD DUP3 PUSH2 0x3161 JUMP JUMPDEST POP POP JUMPDEST POP POP POP JUMP JUMPDEST PUSH1 0x0 DUP3 DUP3 SHR SWAP1 POP SWAP3 SWAP2 POP POP JUMP JUMPDEST PUSH1 0x0 PUSH2 0x31E8 PUSH1 0x0 NOT DUP5 PUSH1 0x8 MUL PUSH2 0x31CA JUMP JUMPDEST NOT DUP1 DUP4 AND SWAP2 POP POP SWAP3 SWAP2 POP POP JUMP JUMPDEST PUSH1 0x0 PUSH2 0x3201 DUP4 DUP4 PUSH2 0x31D7 JUMP JUMPDEST SWAP2 POP DUP3 PUSH1 0x2 MUL DUP3 OR SWAP1 POP SWAP3 SWAP2 POP POP JUMP JUMPDEST PUSH2 0x321A DUP3 PUSH2 0x26A1 JUMP JUMPDEST PUSH8 0xFFFFFFFFFFFFFFFF DUP2 GT ISZERO PUSH2 0x3233 JUMPI PUSH2 0x3232 PUSH2 0x2905 JUMP JUMPDEST JUMPDEST PUSH2 0x323D DUP3 SLOAD PUSH2 0x2E38 JUMP JUMPDEST PUSH2 0x3248 DUP3 DUP3 DUP6 PUSH2 0x3184 JUMP JUMPDEST PUSH1 0x0 PUSH1 0x20 SWAP1 POP PUSH1 0x1F DUP4 GT PUSH1 0x1 DUP2 EQ PUSH2 0x327B JUMPI PUSH1 0x0 DUP5 ISZERO PUSH2 0x3269 JUMPI DUP3 DUP8 ADD MLOAD SWAP1 POP JUMPDEST PUSH2 0x3273 DUP6 DUP3 PUSH2 0x31F5 JUMP JUMPDEST DUP7 SSTORE POP PUSH2 0x32DB JUMP JUMPDEST PUSH1 0x1F NOT DUP5 AND PUSH2 0x3289 DUP7 PUSH2 0x3065 JUMP JUMPDEST PUSH1 0x0 JUMPDEST DUP3 DUP2 LT ISZERO PUSH2 0x32B1 JUMPI DUP5 DUP10 ADD MLOAD DUP3 SSTORE PUSH1 0x1 DUP3 ADD SWAP2 POP PUSH1 0x20 DUP6 ADD SWAP5 POP PUSH1 0x20 DUP2 ADD SWAP1 POP PUSH2 0x328C JUMP JUMPDEST DUP7 DUP4 LT ISZERO PUSH2 0x32CE JUMPI DUP5 DUP10 ADD MLOAD PUSH2 0x32CA PUSH1 0x1F DUP10 AND DUP3 PUSH2 0x31D7 JUMP JUMPDEST DUP4 SSTORE POP JUMPDEST PUSH1 0x1 PUSH1 0x2 DUP9 MUL ADD DUP9 SSTORE POP POP POP JUMPDEST POP POP POP POP POP POP JUMP JUMPDEST PUSH32 0x4552433732313A20696E76616C696420746F6B656E2049440000000000000000 PUSH1 0x0 DUP3 ADD MSTORE POP JUMP JUMPDEST PUSH1 0x0 PUSH2 0x3319 PUSH1 0x18 DUP4 PUSH2 0x26AC JUMP JUMPDEST SWAP2 POP PUSH2 0x3324 DUP3 PUSH2 0x32E3 JUMP JUMPDEST PUSH1 0x20 DUP3 ADD SWAP1 POP SWAP2 SWAP1 POP JUMP JUMPDEST PUSH1 0x0 PUSH1 0x20 DUP3 ADD SWAP1 POP DUP2 DUP2 SUB PUSH1 0x0 DUP4 ADD MSTORE PUSH2 0x3348 DUP2 PUSH2 0x330C JUMP JUMPDEST SWAP1 POP SWAP2 SWAP1 POP JUMP JUMPDEST PUSH32 0x4552433732313A2061646472657373207A65726F206973206E6F742061207661 PUSH1 0x0 DUP3 ADD MSTORE PUSH32 0x6C6964206F776E65720000000000000000000000000000000000000000000000 PUSH1 0x20 DUP3 ADD MSTORE POP JUMP JUMPDEST PUSH1 0x0 PUSH2 0x33AB PUSH1 0x29 DUP4 PUSH2 0x26AC JUMP JUMPDEST SWAP2 POP PUSH2 0x33B6 DUP3 PUSH2 0x334F JUMP JUMPDEST PUSH1 0x40 DUP3 ADD SWAP1 POP SWAP2 SWAP1 POP JUMP JUMPDEST PUSH1 0x0 PUSH1 0x20 DUP3 ADD SWAP1 POP DUP2 DUP2 SUB PUSH1 0x0 DUP4 ADD MSTORE PUSH2 0x33DA DUP2 PUSH2 0x339E JUMP JUMPDEST SWAP1 POP SWAP2 SWAP1 POP JUMP JUMPDEST PUSH1 0x0 DUP3 SWAP1 POP SWAP3 SWAP2 POP POP JUMP JUMPDEST PUSH2 0x33F6 DUP4 DUP4 PUSH2 0x33E1 JUMP JUMPDEST PUSH8 0xFFFFFFFFFFFFFFFF DUP2 GT ISZERO PUSH2 0x340F JUMPI PUSH2 0x340E PUSH2 0x2905 JUMP JUMPDEST JUMPDEST PUSH2 0x3419 DUP3 SLOAD PUSH2 0x2E38 JUMP JUMPDEST PUSH2 0x3424 DUP3 DUP3 DUP6 PUSH2 0x3184 JUMP JUMPDEST PUSH1 0x0 PUSH1 0x1F DUP4 GT PUSH1 0x1 DUP2 EQ PUSH2 0x3453 JUMPI PUSH1 0x0 DUP5 ISZERO PUSH2 0x3441 JUMPI DUP3 DUP8 ADD CALLDATALOAD SWAP1 POP JUMPDEST PUSH2 0x344B DUP6 DUP3 PUSH2 0x31F5 JUMP JUMPDEST DUP7 SSTORE POP PUSH2 0x34B3 JUMP JUMPDEST PUSH1 0x1F NOT DUP5 AND PUSH2 0x3461 DUP7 PUSH2 0x3065 JUMP JUMPDEST PUSH1 0x0 JUMPDEST DUP3 DUP2 LT ISZERO PUSH2 0x3489 JUMPI DUP5 DUP10 ADD CALLDATALOAD DUP3 SSTORE PUSH1 0x1 DUP3 ADD SWAP2 POP PUSH1 0x20 DUP6 ADD SWAP5 POP PUSH1 0x20 DUP2 ADD SWAP1 POP PUSH2 0x3464 JUMP JUMPDEST DUP7 DUP4 LT ISZERO PUSH2 0x34A6 JUMPI DUP5 DUP10 ADD CALLDATALOAD PUSH2 0x34A2 PUSH1 0x1F DUP10 AND DUP3 PUSH2 0x31D7 JUMP JUMPDEST DUP4 SSTORE POP JUMPDEST PUSH1 0x1 PUSH1 0x2 DUP9 MUL ADD DUP9 SSTORE POP POP POP JUMPDEST POP POP POP POP POP POP POP JUMP JUMPDEST PUSH32 0x717565727920666F72206E6F6E6578697374656E7420746F6B656E0000000000 PUSH1 0x0 DUP3 ADD MSTORE POP JUMP JUMPDEST PUSH1 0x0 PUSH2 0x34F2 PUSH1 0x1B DUP4 PUSH2 0x26AC JUMP JUMPDEST SWAP2 POP PUSH2 0x34FD DUP3 PUSH2 0x34BC JUMP JUMPDEST PUSH1 0x20 DUP3 ADD SWAP1 POP SWAP2 SWAP1 POP JUMP JUMPDEST PUSH1 0x0 PUSH1 0x20 DUP3 ADD SWAP1 POP DUP2 DUP2 SUB PUSH1 0x0 DUP4 ADD MSTORE PUSH2 0x3521 DUP2 PUSH2 0x34E5 JUMP JUMPDEST SWAP1 POP SWAP2 SWAP1 POP JUMP JUMPDEST PUSH32 0x696E73756666696369656E742063686172676500000000000000000000000000 PUSH1 0x0 DUP3 ADD MSTORE POP JUMP JUMPDEST PUSH1 0x0 PUSH2 0x355E PUSH1 0x13 DUP4 PUSH2 0x26AC JUMP JUMPDEST SWAP2 POP PUSH2 0x3569 DUP3 PUSH2 0x3528 JUMP JUMPDEST PUSH1 0x20 DUP3 ADD SWAP1 POP SWAP2 SWAP1 POP JUMP JUMPDEST PUSH1 0x0 PUSH1 0x20 DUP3 ADD SWAP1 POP DUP2 DUP2 SUB PUSH1 0x0 DUP4 ADD MSTORE PUSH2 0x358D DUP2 PUSH2 0x3551 JUMP JUMPDEST SWAP1 POP SWAP2 SWAP1 POP JUMP JUMPDEST PUSH1 0x0 PUSH1 0x40 DUP3 ADD SWAP1 POP PUSH2 0x35A9 PUSH1 0x0 DUP4 ADD DUP6 PUSH2 0x287E JUMP JUMPDEST PUSH2 0x35B6 PUSH1 0x20 DUP4 ADD DUP5 PUSH2 0x287E JUMP JUMPDEST SWAP4 SWAP3 POP POP POP JUMP JUMPDEST PUSH1 0x0 DUP2 MLOAD SWAP1 POP PUSH2 0x35CC DUP2 PUSH2 0x275D JUMP JUMPDEST SWAP3 SWAP2 POP POP JUMP JUMPDEST PUSH1 0x0 PUSH1 0x20 DUP3 DUP5 SUB SLT ISZERO PUSH2 0x35E8 JUMPI PUSH2 0x35E7 PUSH2 0x25DC JUMP JUMPDEST JUMPDEST PUSH1 0x0 PUSH2 0x35F6 DUP5 DUP3 DUP6 ADD PUSH2 0x35BD JUMP JUMPDEST SWAP2 POP POP SWAP3 SWAP2 POP POP JUMP JUMPDEST PUSH32 0x4E487B7100000000000000000000000000000000000000000000000000000000 PUSH1 0x0 MSTORE PUSH1 0x11 PUSH1 0x4 MSTORE PUSH1 0x24 PUSH1 0x0 REVERT JUMPDEST PUSH1 0x0 PUSH2 0x3639 DUP3 PUSH2 0x2D23 JUMP JUMPDEST SWAP2 POP PUSH2 0x3644 DUP4 PUSH2 0x2D23 JUMP JUMPDEST SWAP3 POP DUP3 DUP3 SUB SWAP1 POP PUSH1 0xFF DUP2 GT ISZERO PUSH2 0x365D JUMPI PUSH2 0x365C PUSH2 0x35FF JUMP JUMPDEST JUMPDEST SWAP3 SWAP2 POP POP JUMP JUMPDEST PUSH1 0x0 PUSH2 0x367E PUSH2 0x3679 PUSH2 0x3674 DUP5 PUSH2 0x2D23 JUMP JUMPDEST PUSH2 0x30E9 JUMP JUMPDEST PUSH2 0x2753 JUMP JUMPDEST SWAP1 POP SWAP2 SWAP1 POP JUMP JUMPDEST PUSH2 0x368E DUP2 PUSH2 0x3663 JUMP JUMPDEST DUP3 MSTORE POP POP JUMP JUMPDEST PUSH1 0x0 PUSH1 0x20 DUP3 ADD SWAP1 POP PUSH2 0x36A9 PUSH1 0x0 DUP4 ADD DUP5 PUSH2 0x3685 JUMP JUMPDEST SWAP3 SWAP2 POP POP JUMP JUMPDEST PUSH1 0x0 PUSH2 0x36BA DUP3 PUSH2 0x2D23 JUMP JUMPDEST SWAP2 POP PUSH2 0x36C5 DUP4 PUSH2 0x2D23 JUMP JUMPDEST SWAP3 POP DUP3 DUP3 ADD SWAP1 POP PUSH1 0xFF DUP2 GT ISZERO PUSH2 0x36DE JUMPI PUSH2 0x36DD PUSH2 0x35FF JUMP JUMPDEST JUMPDEST SWAP3 SWAP2 POP POP JUMP JUMPDEST PUSH2 0x36ED DUP2 PUSH2 0x2D23 JUMP JUMPDEST DUP3 MSTORE POP POP JUMP JUMPDEST PUSH1 0x0 PUSH1 0x40 DUP3 ADD SWAP1 POP PUSH2 0x3708 PUSH1 0x0 DUP4 ADD DUP6 PUSH2 0x287E JUMP JUMPDEST PUSH2 0x3715 PUSH1 0x20 DUP4 ADD DUP5 PUSH2 0x36E4 JUMP JUMPDEST SWAP4 SWAP3 POP POP POP JUMP JUMPDEST PUSH32 0x4552433732314D657461646174613A2055524920717565727920666F72206E6F PUSH1 0x0 DUP3 ADD MSTORE PUSH32 0x6E6578697374656E7420746F6B656E0000000000000000000000000000000000 PUSH1 0x20 DUP3 ADD MSTORE POP JUMP JUMPDEST PUSH1 0x0 PUSH2 0x3778 PUSH1 0x2F DUP4 PUSH2 0x26AC JUMP JUMPDEST SWAP2 POP PUSH2 0x3783 DUP3 PUSH2 0x371C JUMP JUMPDEST PUSH1 0x40 DUP3 ADD SWAP1 POP SWAP2 SWAP1 POP JUMP JUMPDEST PUSH1 0x0 PUSH1 0x20 DUP3 ADD SWAP1 POP DUP2 DUP2 SUB PUSH1 0x0 DUP4 ADD MSTORE PUSH2 0x37A7 DUP2 PUSH2 0x376B JUMP JUMPDEST SWAP1 POP SWAP2 SWAP1 POP JUMP JUMPDEST PUSH1 0x0 DUP2 SWAP1 POP SWAP3 SWAP2 POP POP JUMP JUMPDEST PUSH1 0x0 DUP2 SLOAD PUSH2 0x37C6 DUP2 PUSH2 0x2E38 JUMP JUMPDEST PUSH2 0x37D0 DUP2 DUP7 PUSH2 0x37AE JUMP JUMPDEST SWAP5 POP PUSH1 0x1 DUP3 AND PUSH1 0x0 DUP2 EQ PUSH2 0x37EB JUMPI PUSH1 0x1 DUP2 EQ PUSH2 0x3800 JUMPI PUSH2 0x3833 JUMP JUMPDEST PUSH1 0xFF NOT DUP4 AND DUP7 MSTORE DUP2 ISZERO ISZERO DUP3 MUL DUP7 ADD SWAP4 POP PUSH2 0x3833 JUMP JUMPDEST PUSH2 0x3809 DUP6 PUSH2 0x3065 JUMP JUMPDEST PUSH1 0x0 JUMPDEST DUP4 DUP2 LT ISZERO PUSH2 0x382B JUMPI DUP2 SLOAD DUP2 DUP10 ADD MSTORE PUSH1 0x1 DUP3 ADD SWAP2 POP PUSH1 0x20 DUP2 ADD SWAP1 POP PUSH2 0x380C JUMP JUMPDEST DUP4 DUP9 ADD SWAP6 POP POP POP JUMPDEST POP POP POP SWAP3 SWAP2 POP POP JUMP JUMPDEST PUSH1 0x0 PUSH2 0x3847 DUP3 PUSH2 0x26A1 JUMP JUMPDEST PUSH2 0x3851 DUP2 DUP6 PUSH2 0x37AE JUMP JUMPDEST SWAP4 POP PUSH2 0x3861 DUP2 DUP6 PUSH1 0x20 DUP7 ADD PUSH2 0x26BD JUMP JUMPDEST DUP1 DUP5 ADD SWAP2 POP POP SWAP3 SWAP2 POP POP JUMP JUMPDEST PUSH1 0x0 PUSH2 0x3879 DUP3 DUP7 PUSH2 0x37B9 JUMP JUMPDEST SWAP2 POP PUSH2 0x3885 DUP3 DUP6 PUSH2 0x383C JUMP JUMPDEST SWAP2 POP PUSH2 0x3891 DUP3 DUP5 PUSH2 0x37B9 JUMP JUMPDEST SWAP2 POP DUP2 SWAP1 POP SWAP5 SWAP4 POP POP POP POP JUMP JUMPDEST PUSH32 0x4F776E61626C653A206E6577206F776E657220697320746865207A65726F2061 PUSH1 0x0 DUP3 ADD MSTORE PUSH32 0x6464726573730000000000000000000000000000000000000000000000000000 PUSH1 0x20 DUP3 ADD MSTORE POP JUMP JUMPDEST PUSH1 0x0 PUSH2 0x38FA PUSH1 0x26 DUP4 PUSH2 0x26AC JUMP JUMPDEST SWAP2 POP PUSH2 0x3905 DUP3 PUSH2 0x389E JUMP JUMPDEST PUSH1 0x40 DUP3 ADD SWAP1 POP SWAP2 SWAP1 POP JUMP JUMPDEST PUSH1 0x0 PUSH1 0x20 DUP3 ADD SWAP1 POP DUP2 DUP2 SUB PUSH1 0x0 DUP4 ADD MSTORE PUSH2 0x3929 DUP2 PUSH2 0x38ED JUMP JUMPDEST SWAP1 POP SWAP2 SWAP1 POP JUMP JUMPDEST PUSH32 0x4552433732313A207472616E736665722066726F6D20696E636F727265637420 PUSH1 0x0 DUP3 ADD MSTORE PUSH32 0x6F776E6572000000000000000000000000000000000000000000000000000000 PUSH1 0x20 DUP3 ADD MSTORE POP JUMP JUMPDEST PUSH1 0x0 PUSH2 0x398C PUSH1 0x25 DUP4 PUSH2 0x26AC JUMP JUMPDEST SWAP2 POP PUSH2 0x3997 DUP3 PUSH2 0x3930 JUMP JUMPDEST PUSH1 0x40 DUP3 ADD SWAP1 POP SWAP2 SWAP1 POP JUMP JUMPDEST PUSH1 0x0 PUSH1 0x20 DUP3 ADD SWAP1 POP DUP2 DUP2 SUB PUSH1 0x0 DUP4 ADD MSTORE PUSH2 0x39BB DUP2 PUSH2 0x397F JUMP JUMPDEST SWAP1 POP SWAP2 SWAP1 POP JUMP JUMPDEST PUSH32 0x4552433732313A207472616E7366657220746F20746865207A65726F20616464 PUSH1 0x0 DUP3 ADD MSTORE PUSH32 0x7265737300000000000000000000000000000000000000000000000000000000 PUSH1 0x20 DUP3 ADD MSTORE POP JUMP JUMPDEST PUSH1 0x0 PUSH2 0x3A1E PUSH1 0x24 DUP4 PUSH2 0x26AC JUMP JUMPDEST SWAP2 POP PUSH2 0x3A29 DUP3 PUSH2 0x39C2 JUMP JUMPDEST PUSH1 0x40 DUP3 ADD SWAP1 POP SWAP2 SWAP1 POP JUMP JUMPDEST PUSH1 0x0 PUSH1 0x20 DUP3 ADD SWAP1 POP DUP2 DUP2 SUB PUSH1 0x0 DUP4 ADD MSTORE PUSH2 0x3A4D DUP2 PUSH2 0x3A11 JUMP JUMPDEST SWAP1 POP SWAP2 SWAP1 POP JUMP JUMPDEST PUSH32 0x4F776E61626C653A2063616C6C6572206973206E6F7420746865206F776E6572 PUSH1 0x0 DUP3 ADD MSTORE POP JUMP JUMPDEST PUSH1 0x0 PUSH2 0x3A8A PUSH1 0x20 DUP4 PUSH2 0x26AC JUMP JUMPDEST SWAP2 POP PUSH2 0x3A95 DUP3 PUSH2 0x3A54 JUMP JUMPDEST PUSH1 0x20 DUP3 ADD SWAP1 POP SWAP2 SWAP1 POP JUMP JUMPDEST PUSH1 0x0 PUSH1 0x20 DUP3 ADD SWAP1 POP DUP2 DUP2 SUB PUSH1 0x0 DUP4 ADD MSTORE PUSH2 0x3AB9 DUP2 PUSH2 0x3A7D JUMP JUMPDEST SWAP1 POP SWAP2 SWAP1 POP JUMP JUMPDEST PUSH32 0x4552433732313A20617070726F766520746F2063616C6C657200000000000000 PUSH1 0x0 DUP3 ADD MSTORE POP JUMP JUMPDEST PUSH1 0x0 PUSH2 0x3AF6 PUSH1 0x19 DUP4 PUSH2 0x26AC JUMP JUMPDEST SWAP2 POP PUSH2 0x3B01 DUP3 PUSH2 0x3AC0 JUMP JUMPDEST PUSH1 0x20 DUP3 ADD SWAP1 POP SWAP2 SWAP1 POP JUMP JUMPDEST PUSH1 0x0 PUSH1 0x20 DUP3 ADD SWAP1 POP DUP2 DUP2 SUB PUSH1 0x0 DUP4 ADD MSTORE PUSH2 0x3B25 DUP2 PUSH2 0x3AE9 JUMP JUMPDEST SWAP1 POP SWAP2 SWAP1 POP JUMP JUMPDEST PUSH32 0x4552433732313A207472616E7366657220746F206E6F6E204552433732315265 PUSH1 0x0 DUP3 ADD MSTORE PUSH32 0x63656976657220696D706C656D656E7465720000000000000000000000000000 PUSH1 0x20 DUP3 ADD MSTORE POP JUMP JUMPDEST PUSH1 0x0 PUSH2 0x3B88 PUSH1 0x32 DUP4 PUSH2 0x26AC JUMP JUMPDEST SWAP2 POP PUSH2 0x3B93 DUP3 PUSH2 0x3B2C JUMP JUMPDEST PUSH1 0x40 DUP3 ADD SWAP1 POP SWAP2 SWAP1 POP JUMP JUMPDEST PUSH1 0x0 PUSH1 0x20 DUP3 ADD SWAP1 POP DUP2 DUP2 SUB PUSH1 0x0 DUP4 ADD MSTORE PUSH2 0x3BB7 DUP2 PUSH2 0x3B7B JUMP JUMPDEST SWAP1 POP SWAP2 SWAP1 POP JUMP JUMPDEST PUSH1 0x0 PUSH1 0xA0 DUP3 ADD SWAP1 POP PUSH2 0x3BD3 PUSH1 0x0 DUP4 ADD DUP9 PUSH2 0x287E JUMP JUMPDEST PUSH2 0x3BE0 PUSH1 0x20 DUP4 ADD DUP8 PUSH2 0x287E JUMP JUMPDEST PUSH2 0x3BED PUSH1 0x40 DUP4 ADD DUP7 PUSH2 0x287E JUMP JUMPDEST PUSH2 0x3BFA PUSH1 0x60 DUP4 ADD DUP6 PUSH2 0x287E JUMP JUMPDEST PUSH2 0x3C07 PUSH1 0x80 DUP4 ADD DUP5 PUSH2 0x36E4 JUMP JUMPDEST SWAP7 SWAP6 POP POP POP POP POP POP JUMP JUMPDEST PUSH32 0x4E487B7100000000000000000000000000000000000000000000000000000000 PUSH1 0x0 MSTORE PUSH1 0x12 PUSH1 0x4 MSTORE PUSH1 0x24 PUSH1 0x0 REVERT JUMPDEST PUSH1 0x0 PUSH2 0x3C4B DUP3 PUSH2 0x2753 JUMP JUMPDEST SWAP2 POP PUSH2 0x3C56 DUP4 PUSH2 0x2753 JUMP JUMPDEST SWAP3 POP DUP3 DUP3 SUB SWAP1 POP DUP2 DUP2 GT ISZERO PUSH2 0x3C6E JUMPI PUSH2 0x3C6D PUSH2 0x35FF JUMP JUMPDEST JUMPDEST SWAP3 SWAP2 POP POP JUMP JUMPDEST PUSH1 0x0 PUSH2 0x3C7F DUP3 PUSH2 0x2753 JUMP JUMPDEST SWAP2 POP PUSH2 0x3C8A DUP4 PUSH2 0x2753 JUMP JUMPDEST SWAP3 POP DUP3 DUP3 ADD SWAP1 POP DUP1 DUP3 GT ISZERO PUSH2 0x3CA2 JUMPI PUSH2 0x3CA1 PUSH2 0x35FF JUMP JUMPDEST JUMPDEST SWAP3 SWAP2 POP POP JUMP JUMPDEST PUSH1 0x0 DUP2 MLOAD SWAP1 POP SWAP2 SWAP1 POP JUMP JUMPDEST PUSH1 0x0 DUP3 DUP3 MSTORE PUSH1 0x20 DUP3 ADD SWAP1 POP SWAP3 SWAP2 POP POP JUMP JUMPDEST PUSH1 0x0 PUSH2 0x3CCF DUP3 PUSH2 0x3CA8 JUMP JUMPDEST PUSH2 0x3CD9 DUP2 DUP6 PUSH2 0x3CB3 JUMP JUMPDEST SWAP4 POP PUSH2 0x3CE9 DUP2 DUP6 PUSH1 0x20 DUP7 ADD PUSH2 0x26BD JUMP JUMPDEST PUSH2 0x3CF2 DUP2 PUSH2 0x26E7 JUMP JUMPDEST DUP5 ADD SWAP2 POP POP SWAP3 SWAP2 POP POP JUMP JUMPDEST PUSH1 0x0 PUSH1 0x80 DUP3 ADD SWAP1 POP PUSH2 0x3D12 PUSH1 0x0 DUP4 ADD DUP8 PUSH2 0x27E8 JUMP JUMPDEST PUSH2 0x3D1F PUSH1 0x20 DUP4 ADD DUP7 PUSH2 0x27E8 JUMP JUMPDEST PUSH2 0x3D2C PUSH1 0x40 DUP4 ADD DUP6 PUSH2 0x287E JUMP JUMPDEST DUP2 DUP2 SUB PUSH1 0x60 DUP4 ADD MSTORE PUSH2 0x3D3E DUP2 DUP5 PUSH2 0x3CC4 JUMP JUMPDEST SWAP1 POP SWAP6 SWAP5 POP POP POP POP POP JUMP JUMPDEST PUSH1 0x0 DUP2 MLOAD SWAP1 POP PUSH2 0x3D58 DUP2 PUSH2 0x2612 JUMP JUMPDEST SWAP3 SWAP2 POP POP JUMP JUMPDEST PUSH1 0x0 PUSH1 0x20 DUP3 DUP5 SUB SLT ISZERO PUSH2 0x3D74 JUMPI PUSH2 0x3D73 PUSH2 0x25DC JUMP JUMPDEST JUMPDEST PUSH1 0x0 PUSH2 0x3D82 DUP5 DUP3 DUP6 ADD PUSH2 0x3D49 JUMP JUMPDEST SWAP2 POP POP SWAP3 SWAP2 POP POP JUMP JUMPDEST PUSH32 0x4552433732313A206D696E7420746F20746865207A65726F2061646472657373 PUSH1 0x0 DUP3 ADD MSTORE POP JUMP JUMPDEST PUSH1 0x0 PUSH2 0x3DC1 PUSH1 0x20 DUP4 PUSH2 0x26AC JUMP JUMPDEST SWAP2 POP PUSH2 0x3DCC DUP3 PUSH2 0x3D8B JUMP JUMPDEST PUSH1 0x20 DUP3 ADD SWAP1 POP SWAP2 SWAP1 POP JUMP JUMPDEST PUSH1 0x0 PUSH1 0x20 DUP3 ADD SWAP1 POP DUP2 DUP2 SUB PUSH1 0x0 DUP4 ADD MSTORE PUSH2 0x3DF0 DUP2 PUSH2 0x3DB4 JUMP JUMPDEST SWAP1 POP SWAP2 SWAP1 POP JUMP JUMPDEST PUSH32 0x4552433732313A20746F6B656E20616C7265616479206D696E74656400000000 PUSH1 0x0 DUP3 ADD MSTORE POP JUMP JUMPDEST PUSH1 0x0 PUSH2 0x3E2D PUSH1 0x1C DUP4 PUSH2 0x26AC JUMP JUMPDEST SWAP2 POP PUSH2 0x3E38 DUP3 PUSH2 0x3DF7 JUMP JUMPDEST PUSH1 0x20 DUP3 ADD SWAP1 POP SWAP2 SWAP1 POP JUMP JUMPDEST PUSH1 0x0 PUSH1 0x20 DUP3 ADD SWAP1 POP DUP2 DUP2 SUB PUSH1 0x0 DUP4 ADD MSTORE PUSH2 0x3E5C DUP2 PUSH2 0x3E20 JUMP JUMPDEST SWAP1 POP SWAP2 SWAP1 POP JUMP INVALID LOG2 PUSH5 0x6970667358 0x22 SLT KECCAK256 PUSH2 0x3B23 SMOD LOG3 0xDF DELEGATECALL PUSH20 0x611D9FE460589C49D446FA8126D7A24BDA2EE5F4 DUP6 0x4D PUSH8 0x6064736F6C634300 ADDMOD SLT STOP CALLER "
		},
		"gasEstimates": {
			"creation": {
				"codeDepositCost": "3205000",
				"executionCost": "infinite",
				"totalCost": "infinite"
			},
			"external": {
				"Breeding(uint256,uint256)": "infinite",
				"Charge(uint256,uint8)": "infinite",
				"Mint(uint256,uint8)": "infinite",
				"approve(address,uint256)": "infinite",
				"balanceOf(address)": "2921",
				"contractURI()": "infinite",
				"getApproved(uint256)": "5323",
				"getTrustedForwarder()": "2589",
				"isApprovedForAll(address,address)": "infinite",
				"isTrustedForwarder(address)": "2944",
				"name()": "infinite",
				"owner()": "2633",
				"ownerOf(uint256)": "3111",
				"renounceOwnership()": "32826",
				"safeTransferFrom(address,address,uint256)": "infinite",
				"safeTransferFrom(address,address,uint256,bytes)": "infinite",
				"setApprovalForAll(address,bool)": "infinite",
				"setBaseExtension(string)": "infinite",
				"setBaseURI(string)": "infinite",
				"setBreedingContract(address)": "29436",
				"setBreedingPrice(uint8)": "29415",
				"setCoinContract(address)": "29457",
				"setContractURI(string)": "infinite",
				"supportsInterface(bytes4)": "820",
				"symbol()": "infinite",
				"tokenURI(uint256)": "infinite",
				"totalSupply()": "2554",
				"transferFrom(address,address,uint256)": "infinite",
				"transferOwnership(address)": "33193",
				"withdraw()": "infinite"
			},
			"internal": {
				"CreateToken(uint256,uint256,uint256,uint8)": "infinite",
				"_msgData()": "infinite",
				"_msgSender()": "2383"
			}
		},
		"methodIdentifiers": {
			"Breeding(uint256,uint256)": "b921a400",
			"Charge(uint256,uint8)": "c6be88a4",
			"Mint(uint256,uint8)": "bc4ddb52",
			"approve(address,uint256)": "095ea7b3",
			"balanceOf(address)": "70a08231",
			"contractURI()": "e8a3d485",
			"getApproved(uint256)": "081812fc",
			"getTrustedForwarder()": "ce1b815f",
			"isApprovedForAll(address,address)": "e985e9c5",
			"isTrustedForwarder(address)": "572b6c05",
			"name()": "06fdde03",
			"owner()": "8da5cb5b",
			"ownerOf(uint256)": "6352211e",
			"renounceOwnership()": "715018a6",
			"safeTransferFrom(address,address,uint256)": "42842e0e",
			"safeTransferFrom(address,address,uint256,bytes)": "b88d4fde",
			"setApprovalForAll(address,bool)": "a22cb465",
			"setBaseExtension(string)": "da3ef23f",
			"setBaseURI(string)": "55f804b3",
			"setBreedingContract(address)": "8c5527cf",
			"setBreedingPrice(uint8)": "de405b18",
			"setCoinContract(address)": "fcbc4cee",
			"setContractURI(string)": "938e3d7b",
			"supportsInterface(bytes4)": "01ffc9a7",
			"symbol()": "95d89b41",
			"tokenURI(uint256)": "c87b56dd",
			"totalSupply()": "18160ddd",
			"transferFrom(address,address,uint256)": "23b872dd",
			"transferOwnership(address)": "f2fde38b",
			"withdraw()": "3ccfd60b"
		}
	},
	"abi": [
		{
			"inputs": [],
			"stateMutability": "nonpayable",
			"type": "constructor"
		},
		{
			"anonymous": false,
			"inputs": [
				{
					"indexed": true,
					"internalType": "address",
					"name": "owner",
					"type": "address"
				},
				{
					"indexed": true,
					"internalType": "address",
					"name": "approved",
					"type": "address"
				},
				{
					"indexed": true,
					"internalType": "uint256",
					"name": "tokenId",
					"type": "uint256"
				}
			],
			"name": "Approval",
			"type": "event"
		},
		{
			"anonymous": false,
			"inputs": [
				{
					"indexed": true,
					"internalType": "address",
					"name": "owner",
					"type": "address"
				},
				{
					"indexed": true,
					"internalType": "address",
					"name": "operator",
					"type": "address"
				},
				{
					"indexed": false,
					"internalType": "bool",
					"name": "approved",
					"type": "bool"
				}
			],
			"name": "ApprovalForAll",
			"type": "event"
		},
		{
			"anonymous": false,
			"inputs": [
				{
					"indexed": false,
					"internalType": "uint256",
					"name": "tokenId",
					"type": "uint256"
				},
				{
					"indexed": false,
					"internalType": "uint8",
					"name": "charge",
					"type": "uint8"
				}
			],
			"name": "Charged",
			"type": "event"
		},
		{
			"anonymous": false,
			"inputs": [
				{
					"indexed": true,
					"internalType": "address",
					"name": "previousOwner",
					"type": "address"
				},
				{
					"indexed": true,
					"internalType": "address",
					"name": "newOwner",
					"type": "address"
				}
			],
			"name": "OwnershipTransferred",
			"type": "event"
		},
		{
			"anonymous": false,
			"inputs": [
				{
					"indexed": true,
					"internalType": "address",
					"name": "from",
					"type": "address"
				},
				{
					"indexed": true,
					"internalType": "address",
					"name": "to",
					"type": "address"
				},
				{
					"indexed": true,
					"internalType": "uint256",
					"name": "tokenId",
					"type": "uint256"
				}
			],
			"name": "Transfer",
			"type": "event"
		},
		{
			"anonymous": false,
			"inputs": [
				{
					"indexed": false,
					"internalType": "uint256",
					"name": "tokenId",
					"type": "uint256"
				},
				{
					"indexed": false,
					"internalType": "uint256",
					"name": "parent1",
					"type": "uint256"
				},
				{
					"indexed": false,
					"internalType": "uint256",
					"name": "parent2",
					"type": "uint256"
				},
				{
					"indexed": false,
					"internalType": "uint256",
					"name": "genes",
					"type": "uint256"
				},
				{
					"indexed": false,
					"internalType": "uint8",
					"name": "charge",
					"type": "uint8"
				}
			],
			"name": "WasBorn",
			"type": "event"
		},
		{
			"inputs": [
				{
					"internalType": "uint256",
					"name": "token1",
					"type": "uint256"
				},
				{
					"internalType": "uint256",
					"name": "token2",
					"type": "uint256"
				}
			],
			"name": "Breeding",
			"outputs": [
				{
					"internalType": "uint256",
					"name": "_newTokenId",
					"type": "uint256"
				}
			],
			"stateMutability": "nonpayable",
			"type": "function"
		},
		{
			"inputs": [
				{
					"internalType": "uint256",
					"name": "tokenId",
					"type": "uint256"
				},
				{
					"internalType": "uint8",
					"name": "value",
					"type": "uint8"
				}
			],
			"name": "Charge",
			"outputs": [],
			"stateMutability": "nonpayable",
			"type": "function"
		},
		{
			"inputs": [
				{
					"internalType": "uint256",
					"name": "_genes",
					"type": "uint256"
				},
				{
					"internalType": "uint8",
					"name": "_charge",
					"type": "uint8"
				}
			],
			"name": "Mint",
			"outputs": [
				{
					"internalType": "uint256",
					"name": "",
					"type": "uint256"
				}
			],
			"stateMutability": "nonpayable",
			"type": "function"
		},
		{
			"inputs": [
				{
					"internalType": "address",
					"name": "to",
					"type": "address"
				},
				{
					"internalType": "uint256",
					"name": "tokenId",
					"type": "uint256"
				}
			],
			"name": "approve",
			"outputs": [],
			"stateMutability": "nonpayable",
			"type": "function"
		},
		{
			"inputs": [
				{
					"internalType": "address",
					"name": "owner",
					"type": "address"
				}
			],
			"name": "balanceOf",
			"outputs": [
				{
					"internalType": "uint256",
					"name": "",
					"type": "uint256"
				}
			],
			"stateMutability": "view",
			"type": "function"
		},
		{
			"inputs": [],
			"name": "contractURI",
			"outputs": [
				{
					"internalType": "string",
					"name": "",
					"type": "string"
				}
			],
			"stateMutability": "view",
			"type": "function"
		},
		{
			"inputs": [
				{
					"internalType": "uint256",
					"name": "tokenId",
					"type": "uint256"
				}
			],
			"name": "getApproved",
			"outputs": [
				{
					"internalType": "address",
					"name": "",
					"type": "address"
				}
			],
			"stateMutability": "view",
			"type": "function"
		},
		{
			"inputs": [],
			"name": "getTrustedForwarder",
			"outputs": [
				{
					"internalType": "address",
					"name": "forwarder",
					"type": "address"
				}
			],
			"stateMutability": "view",
			"type": "function"
		},
		{
			"inputs": [
				{
					"internalType": "address",
					"name": "owner",
					"type": "address"
				},
				{
					"internalType": "address",
					"name": "operator",
					"type": "address"
				}
			],
			"name": "isApprovedForAll",
			"outputs": [
				{
					"internalType": "bool",
					"name": "",
					"type": "bool"
				}
			],
			"stateMutability": "view",
			"type": "function"
		},
		{
			"inputs": [
				{
					"internalType": "address",
					"name": "forwarder",
					"type": "address"
				}
			],
			"name": "isTrustedForwarder",
			"outputs": [
				{
					"internalType": "bool",
					"name": "",
					"type": "bool"
				}
			],
			"stateMutability": "view",
			"type": "function"
		},
		{
			"inputs": [],
			"name": "name",
			"outputs": [
				{
					"internalType": "string",
					"name": "",
					"type": "string"
				}
			],
			"stateMutability": "view",
			"type": "function"
		},
		{
			"inputs": [],
			"name": "owner",
			"outputs": [
				{
					"internalType": "address",
					"name": "",
					"type": "address"
				}
			],
			"stateMutability": "view",
			"type": "function"
		},
		{
			"inputs": [
				{
					"internalType": "uint256",
					"name": "tokenId",
					"type": "uint256"
				}
			],
			"name": "ownerOf",
			"outputs": [
				{
					"internalType": "address",
					"name": "",
					"type": "address"
				}
			],
			"stateMutability": "view",
			"type": "function"
		},
		{
			"inputs": [],
			"name": "renounceOwnership",
			"outputs": [],
			"stateMutability": "nonpayable",
			"type": "function"
		},
		{
			"inputs": [
				{
					"internalType": "address",
					"name": "from",
					"type": "address"
				},
				{
					"internalType": "address",
					"name": "to",
					"type": "address"
				},
				{
					"internalType": "uint256",
					"name": "tokenId",
					"type": "uint256"
				}
			],
			"name": "safeTransferFrom",
			"outputs": [],
			"stateMutability": "nonpayable",
			"type": "function"
		},
		{
			"inputs": [
				{
					"internalType": "address",
					"name": "from",
					"type": "address"
				},
				{
					"internalType": "address",
					"name": "to",
					"type": "address"
				},
				{
					"internalType": "uint256",
					"name": "tokenId",
					"type": "uint256"
				},
				{
					"internalType": "bytes",
					"name": "data",
					"type": "bytes"
				}
			],
			"name": "safeTransferFrom",
			"outputs": [],
			"stateMutability": "nonpayable",
			"type": "function"
		},
		{
			"inputs": [
				{
					"internalType": "address",
					"name": "operator",
					"type": "address"
				},
				{
					"internalType": "bool",
					"name": "approved",
					"type": "bool"
				}
			],
			"name": "setApprovalForAll",
			"outputs": [],
			"stateMutability": "nonpayable",
			"type": "function"
		},
		{
			"inputs": [
				{
					"internalType": "string",
					"name": "extension",
					"type": "string"
				}
			],
			"name": "setBaseExtension",
			"outputs": [],
			"stateMutability": "nonpayable",
			"type": "function"
		},
		{
			"inputs": [
				{
					"internalType": "string",
					"name": "URI",
					"type": "string"
				}
			],
			"name": "setBaseURI",
			"outputs": [],
			"stateMutability": "nonpayable",
			"type": "function"
		},
		{
			"inputs": [
				{
					"internalType": "address",
					"name": "breedingContract",
					"type": "address"
				}
			],
			"name": "setBreedingContract",
			"outputs": [],
			"stateMutability": "nonpayable",
			"type": "function"
		},
		{
			"inputs": [
				{
					"internalType": "uint8",
					"name": "breedingPrice",
					"type": "uint8"
				}
			],
			"name": "setBreedingPrice",
			"outputs": [],
			"stateMutability": "nonpayable",
			"type": "function"
		},
		{
			"inputs": [
				{
					"internalType": "address",
					"name": "coinContract",
					"type": "address"
				}
			],
			"name": "setCoinContract",
			"outputs": [],
			"stateMutability": "nonpayable",
			"type": "function"
		},
		{
			"inputs": [
				{
					"internalType": "string",
					"name": "URI",
					"type": "string"
				}
			],
			"name": "setContractURI",
			"outputs": [],
			"stateMutability": "nonpayable",
			"type": "function"
		},
		{
			"inputs": [
				{
					"internalType": "bytes4",
					"name": "interfaceId",
					"type": "bytes4"
				}
			],
			"name": "supportsInterface",
			"outputs": [
				{
					"internalType": "bool",
					"name": "",
					"type": "bool"
				}
			],
			"stateMutability": "view",
			"type": "function"
		},
		{
			"inputs": [],
			"name": "symbol",
			"outputs": [
				{
					"internalType": "string",
					"name": "",
					"type": "string"
				}
			],
			"stateMutability": "view",
			"type": "function"
		},
		{
			"inputs": [
				{
					"internalType": "uint256",
					"name": "tokenId",
					"type": "uint256"
				}
			],
			"name": "tokenURI",
			"outputs": [
				{
					"internalType": "string",
					"name": "",
					"type": "string"
				}
			],
			"stateMutability": "view",
			"type": "function"
		},
		{
			"inputs": [],
			"name": "totalSupply",
			"outputs": [
				{
					"internalType": "uint256",
					"name": "",
					"type": "uint256"
				}
			],
			"stateMutability": "view",
			"type": "function"
		},
		{
			"inputs": [
				{
					"internalType": "address",
					"name": "from",
					"type": "address"
				},
				{
					"internalType": "address",
					"name": "to",
					"type": "address"
				},
				{
					"internalType": "uint256",
					"name": "tokenId",
					"type": "uint256"
				}
			],
			"name": "transferFrom",
			"outputs": [],
			"stateMutability": "nonpayable",
			"type": "function"
		},
		{
			"inputs": [
				{
					"internalType": "address",
					"name": "newOwner",
					"type": "address"
				}
			],
			"name": "transferOwnership",
			"outputs": [],
			"stateMutability": "nonpayable",
			"type": "function"
		},
		{
			"inputs": [],
			"name": "withdraw",
			"outputs": [],
			"stateMutability": "nonpayable",
			"type": "function"
		}
	]
}