{
	"data": {
		"bytecode": {
			"linkReferences": {},
			"object": "60806040526040518060400160405280600581526020017f2e6a736f6e000000000000000000000000000000000000000000000000000000815250600f90816200004a919062000528565b503480156200005857600080fd5b506040518060400160405280600881526020017f415442546f6b656e0000000000000000000000000000000000000000000000008152506040518060400160405280600481526020017f41544254000000000000000000000000000000000000000000000000000000008152508160009081620000d6919062000528565b508060019081620000e8919062000528565b5050506200010b620000ff6200011160201b60201c565b6200012d60201b60201c565b6200060f565b600062000128620001f360201b6200143d1760201c565b905090565b6000600660009054906101000a900473ffffffffffffffffffffffffffffffffffffffff16905081600660006101000a81548173ffffffffffffffffffffffffffffffffffffffff021916908373ffffffffffffffffffffffffffffffffffffffff1602179055508173ffffffffffffffffffffffffffffffffffffffff168173ffffffffffffffffffffffffffffffffffffffff167f8be0079c531659141344cd1fd0a4f28419497f9722a3daafe3b4186f6b6457e060405160405180910390a35050565b6000601460003690501015801562000218575062000217336200023560201b60201c565b5b156200022e57601436033560601c905062000232565b3390505b90565b60006200024d826200025460201b620014741760201c565b9050919050565b6000600760009054906101000a900473ffffffffffffffffffffffffffffffffffffffff1673ffffffffffffffffffffffffffffffffffffffff168273ffffffffffffffffffffffffffffffffffffffff16149050919050565b600081519050919050565b7f4e487b7100000000000000000000000000000000000000000000000000000000600052604160045260246000fd5b7f4e487b7100000000000000000000000000000000000000000000000000000000600052602260045260246000fd5b600060028204905060018216806200033057607f821691505b602082108103620003465762000345620002e8565b5b50919050565b60008190508160005260206000209050919050565b60006020601f8301049050919050565b600082821b905092915050565b600060088302620003b07fffffffffffffffffffffffffffffffffffffffffffffffffffffffffffffffff8262000371565b620003bc868362000371565b95508019841693508086168417925050509392505050565b6000819050919050565b6000819050919050565b60006200040962000403620003fd84620003d4565b620003de565b620003d4565b9050919050565b6000819050919050565b6200042583620003e8565b6200043d620004348262000410565b8484546200037e565b825550505050565b600090565b6200045462000445565b620004618184846200041a565b505050565b5b8181101562000489576200047d6000826200044a565b60018101905062000467565b5050565b601f821115620004d857620004a2816200034c565b620004ad8462000361565b81016020851015620004bd578190505b620004d5620004cc8562000361565b83018262000466565b50505b505050565b600082821c905092915050565b6000620004fd60001984600802620004dd565b1980831691505092915050565b6000620005188383620004ea565b9150826002028217905092915050565b6200053382620002ae565b67ffffffffffffffff8111156200054f576200054e620002b9565b5b6200055b825462000317565b620005688282856200048d565b600060209050601f831160018114620005a057600084156200058b578287015190505b6200059785826200050a565b86555062000607565b601f198416620005b0866200034c565b60005b82811015620005da57848901518255600182019150602085019450602081019050620005b3565b86831015620005fa5784890151620005f6601f891682620004ea565b8355505b6001600288020188555050505b505050505050565b613f0f806200061f6000396000f3fe608060405234801561001057600080fd5b50600436106101da5760003560e01c8063938e3d7b11610104578063c87b56dd116100a2578063e8a3d48511610071578063e8a3d4851461053d578063e985e9c51461055b578063f2fde38b1461058b578063fcbc4cee146105a7576101da565b8063c87b56dd146104b7578063ce1b815f146104e7578063da3ef23f14610505578063de405b1814610521576101da565b8063b88d4fde116100de578063b88d4fde1461041f578063b921a4001461043b578063bc4ddb521461046b578063c6be88a41461049b576101da565b8063938e3d7b146103c957806395d89b41146103e5578063a22cb46514610403576101da565b806342842e0e1161017c57806370a082311161014b57806370a0823114610355578063715018a6146103855780638c5527cf1461038f5780638da5cb5b146103ab576101da565b806342842e0e146102bd57806355f804b3146102d9578063572b6c05146102f55780636352211e14610325576101da565b8063095ea7b3116101b8578063095ea7b31461025d57806318160ddd1461027957806323b872dd146102975780633ccfd60b146102b3576101da565b806301ffc9a7146101df57806306fdde031461020f578063081812fc1461022d575b600080fd5b6101f960048036038101906101f49190612683565b6105c3565b60405161020691906126cb565b60405180910390f35b6102176106a5565b6040516102249190612776565b60405180910390f35b610247600480360381019061024291906127ce565b610737565b604051610254919061283c565b60405180910390f35b61027760048036038101906102729190612883565b61077d565b005b610281610894565b60405161028e91906128d2565b60405180910390f35b6102b160048036038101906102ac91906128ed565b6108a5565b005b6102bb610905565b005b6102d760048036038101906102d291906128ed565b61098d565b005b6102f360048036038101906102ee9190612a75565b6109ad565b005b61030f600480360381019061030a9190612abe565b6109c8565b60405161031c91906126cb565b60405180910390f35b61033f600480360381019061033a91906127ce565b6109da565b60405161034c919061283c565b60405180910390f35b61036f600480360381019061036a9190612abe565b610a60565b60405161037c91906128d2565b60405180910390f35b61038d610b17565b005b6103a960048036038101906103a49190612abe565b610b2b565b005b6103b3610b77565b6040516103c0919061283c565b60405180910390f35b6103e360048036038101906103de9190612b4b565b610ba1565b005b6103ed610bbf565b6040516103fa9190612776565b60405180910390f35b61041d60048036038101906104189190612bc4565b610c51565b005b61043960048036038101906104349190612ca5565b610c67565b005b61045560048036038101906104509190612d28565b610cc9565b60405161046291906128d2565b60405180910390f35b61048560048036038101906104809190612da1565b610fe9565b60405161049291906128d2565b60405180910390f35b6104b560048036038101906104b09190612da1565b61100a565b005b6104d160048036038101906104cc91906127ce565b61116e565b6040516104de9190612776565b60405180910390f35b6104ef6111ed565b6040516104fc919061283c565b60405180910390f35b61051f600480360381019061051a9190612a75565b611217565b005b61053b60048036038101906105369190612de1565b611222565b005b610545611248565b6040516105529190612776565b60405180910390f35b61057560048036038101906105709190612e0e565b6112da565b60405161058291906126cb565b60405180910390f35b6105a560048036038101906105a09190612abe565b61136e565b005b6105c160048036038101906105bc9190612abe565b6113f1565b005b60007f80ac58cd000000000000000000000000000000000000000000000000000000007bffffffffffffffffffffffffffffffffffffffffffffffffffffffff1916827bffffffffffffffffffffffffffffffffffffffffffffffffffffffff1916148061068e57507f5b5e139f000000000000000000000000000000000000000000000000000000007bffffffffffffffffffffffffffffffffffffffffffffffffffffffff1916827bffffffffffffffffffffffffffffffffffffffffffffffffffffffff1916145b8061069e575061069d826114ce565b5b9050919050565b6060600080546106b490612e7d565b80601f01602080910402602001604051908101604052809291908181526020018280546106e090612e7d565b801561072d5780601f106107025761010080835404028352916020019161072d565b820191906000526020600020905b81548152906001019060200180831161071057829003601f168201915b5050505050905090565b600061074282611538565b6004600083815260200190815260200160002060009054906101000a900473ffffffffffffffffffffffffffffffffffffffff169050919050565b6000610788826109da565b90508073ffffffffffffffffffffffffffffffffffffffff168373ffffffffffffffffffffffffffffffffffffffff16036107f8576040517f08c379a00000000000000000000000000000000000000000000000000000000081526004016107ef90612f20565b60405180910390fd5b8073ffffffffffffffffffffffffffffffffffffffff16610817611583565b73ffffffffffffffffffffffffffffffffffffffff161480610846575061084581610840611583565b6112da565b5b610885576040517f08c379a000000000000000000000000000000000000000000000000000000000815260040161087c90612fb2565b60405180910390fd5b61088f8383611592565b505050565b60006108a0600861164b565b905090565b6108b66108b0611583565b82611659565b6108f5576040517f08c379a00000000000000000000000000000000000000000000000000000000081526004016108ec90613044565b60405180910390fd5b6109008383836116ee565b505050565b61090d6119e7565b6000610917610b77565b73ffffffffffffffffffffffffffffffffffffffff164760405161093a90613095565b60006040518083038185875af1925050503d8060008114610977576040519150601f19603f3d011682016040523d82523d6000602084013e61097c565b606091505b505090508061098a57600080fd5b50565b6109a883838360405180602001604052806000815250610c67565b505050565b6109b56119e7565b80600e90816109c49190613256565b5050565b60006109d382611474565b9050919050565b6000806109e683611a65565b9050600073ffffffffffffffffffffffffffffffffffffffff168173ffffffffffffffffffffffffffffffffffffffff1603610a57576040517f08c379a0000000000000000000000000000000000000000000000000000000008152600401610a4e90613374565b60405180910390fd5b80915050919050565b60008073ffffffffffffffffffffffffffffffffffffffff168273ffffffffffffffffffffffffffffffffffffffff1603610ad0576040517f08c379a0000000000000000000000000000000000000000000000000000000008152600401610ac790613406565b60405180910390fd5b600360008373ffffffffffffffffffffffffffffffffffffffff1673ffffffffffffffffffffffffffffffffffffffff168152602001908152602001600020549050919050565b610b1f6119e7565b610b296000611aa2565b565b610b336119e7565b80600c60006101000a81548173ffffffffffffffffffffffffffffffffffffffff021916908373ffffffffffffffffffffffffffffffffffffffff16021790555050565b6000600660009054906101000a900473ffffffffffffffffffffffffffffffffffffffff16905090565b610ba96119e7565b8181600d9182610bba929190613431565b505050565b606060018054610bce90612e7d565b80601f0160208091040260200160405190810160405280929190818152602001828054610bfa90612e7d565b8015610c475780601f10610c1c57610100808354040283529160200191610c47565b820191906000526020600020905b815481529060010190602001808311610c2a57829003601f168201915b5050505050905090565b610c63610c5c611583565b8383611b68565b5050565b610c78610c72611583565b83611659565b610cb7576040517f08c379a0000000000000000000000000000000000000000000000000000000008152600401610cae90613044565b60405180910390fd5b610cc384848484611cd4565b50505050565b6000610cd36119e7565b610cdc83611d30565b610d1b576040517f08c379a0000000000000000000000000000000000000000000000000000000008152600401610d129061354d565b60405180910390fd5b610d2482611d30565b610d63576040517f08c379a0000000000000000000000000000000000000000000000000000000008152600401610d5a9061354d565b60405180910390fd5b6000600a600085815260200190815260200160002090506000600a60008581526020019081526020016000209050600960009054906101000a900460ff1660ff168260040160009054906101000a900460ff1660ff161015610dfa576040517f08c379a0000000000000000000000000000000000000000000000000000000008152600401610df1906135b9565b60405180910390fd5b600960009054906101000a900460ff1660ff168160040160009054906101000a900460ff1660ff161015610e63576040517f08c379a0000000000000000000000000000000000000000000000000000000008152600401610e5a906135b9565b60405180910390fd5b60006001600283600301548560030154610e7d9190613608565b610e87919061366b565b610e919190613608565b90506000600c60009054906101000a900473ffffffffffffffffffffffffffffffffffffffff1673ffffffffffffffffffffffffffffffffffffffff1663a7cc0f5085600201548560020154856040518463ffffffff1660e01b8152600401610efc9392919061369c565b6020604051808303816000875af1158015610f1b573d6000803e3d6000fd5b505050506040513d601f19601f82011682018060405250810190610f3f91906136e8565b9050610f4f878784846001611d71565b9450600960009054906101000a900460ff168460040160008282829054906101000a900460ff16610f809190613715565b92506101000a81548160ff021916908360ff160217905550600960009054906101000a900460ff168360040160008282829054906101000a900460ff16610fc79190613715565b92506101000a81548160ff021916908360ff1602179055505050505092915050565b6000610ff36119e7565b61100260008060008686611d71565b905092915050565b6110126119e7565b61101b82611d30565b61105a576040517f08c379a00000000000000000000000000000000000000000000000000000000081526004016110519061354d565b60405180910390fd5b600b60009054906101000a900473ffffffffffffffffffffffffffffffffffffffff1673ffffffffffffffffffffffffffffffffffffffff1663c290d691826040518263ffffffff1660e01b81526004016110b5919061377b565b600060405180830381600087803b1580156110cf57600080fd5b505af11580156110e3573d6000803e3d6000fd5b5050505080600a600084815260200190815260200160002060040160008282829054906101000a900460ff166111199190613796565b92506101000a81548160ff021916908360ff1602179055507ff4d8c9183c1ae5f9d1dde6edf0d08ab75f4e38c8896340f590b8a8e20acea9b682826040516111629291906137da565b60405180910390a15050565b606061117982611d30565b6111b8576040517f08c379a00000000000000000000000000000000000000000000000000000000081526004016111af90613875565b60405180910390fd5b600e6111c383611e74565b600f6040516020016111d793929190613954565b6040516020818303038152906040529050919050565b6000600760009054906101000a900473ffffffffffffffffffffffffffffffffffffffff16905090565b61121f6119e7565b50565b61122a6119e7565b80600960006101000a81548160ff021916908360ff16021790555050565b6060600d805461125790612e7d565b80601f016020809104026020016040519081016040528092919081815260200182805461128390612e7d565b80156112d05780601f106112a5576101008083540402835291602001916112d0565b820191906000526020600020905b8154815290600101906020018083116112b357829003601f168201915b5050505050905090565b6000600560008473ffffffffffffffffffffffffffffffffffffffff1673ffffffffffffffffffffffffffffffffffffffff16815260200190815260200160002060008373ffffffffffffffffffffffffffffffffffffffff1673ffffffffffffffffffffffffffffffffffffffff16815260200190815260200160002060009054906101000a900460ff16905092915050565b6113766119e7565b600073ffffffffffffffffffffffffffffffffffffffff168173ffffffffffffffffffffffffffffffffffffffff16036113e5576040517f08c379a00000000000000000000000000000000000000000000000000000000081526004016113dc906139f7565b60405180910390fd5b6113ee81611aa2565b50565b6113f96119e7565b80600b60006101000a81548173ffffffffffffffffffffffffffffffffffffffff021916908373ffffffffffffffffffffffffffffffffffffffff16021790555050565b600060146000369050101580156114595750611458336109c8565b5b1561146d57601436033560601c9050611471565b3390505b90565b6000600760009054906101000a900473ffffffffffffffffffffffffffffffffffffffff1673ffffffffffffffffffffffffffffffffffffffff168273ffffffffffffffffffffffffffffffffffffffff16149050919050565b60007f01ffc9a7000000000000000000000000000000000000000000000000000000007bffffffffffffffffffffffffffffffffffffffffffffffffffffffff1916827bffffffffffffffffffffffffffffffffffffffffffffffffffffffff1916149050919050565b61154181611d30565b611580576040517f08c379a000000000000000000000000000000000000000000000000000000000815260040161157790613374565b60405180910390fd5b50565b600061158d61143d565b905090565b816004600083815260200190815260200160002060006101000a81548173ffffffffffffffffffffffffffffffffffffffff021916908373ffffffffffffffffffffffffffffffffffffffff160217905550808273ffffffffffffffffffffffffffffffffffffffff16611605836109da565b73ffffffffffffffffffffffffffffffffffffffff167f8c5be1e5ebec7d5bd14f71427d1e84f3dd0314c0f7b2291e5b200ac8c7c3b92560405160405180910390a45050565b600081600001549050919050565b600080611665836109da565b90508073ffffffffffffffffffffffffffffffffffffffff168473ffffffffffffffffffffffffffffffffffffffff1614806116a757506116a681856112da565b5b806116e557508373ffffffffffffffffffffffffffffffffffffffff166116cd84610737565b73ffffffffffffffffffffffffffffffffffffffff16145b91505092915050565b8273ffffffffffffffffffffffffffffffffffffffff1661170e826109da565b73ffffffffffffffffffffffffffffffffffffffff1614611764576040517f08c379a000000000000000000000000000000000000000000000000000000000815260040161175b90613a89565b60405180910390fd5b600073ffffffffffffffffffffffffffffffffffffffff168273ffffffffffffffffffffffffffffffffffffffff16036117d3576040517f08c379a00000000000000000000000000000000000000000000000000000000081526004016117ca90613b1b565b60405180910390fd5b6117e08383836001611f42565b8273ffffffffffffffffffffffffffffffffffffffff16611800826109da565b73ffffffffffffffffffffffffffffffffffffffff1614611856576040517f08c379a000000000000000000000000000000000000000000000000000000000815260040161184d90613a89565b60405180910390fd5b6004600082815260200190815260200160002060006101000a81549073ffffffffffffffffffffffffffffffffffffffff02191690556001600360008573ffffffffffffffffffffffffffffffffffffffff1673ffffffffffffffffffffffffffffffffffffffff168152602001908152602001600020600082825403925050819055506001600360008473ffffffffffffffffffffffffffffffffffffffff1673ffffffffffffffffffffffffffffffffffffffff16815260200190815260200160002060008282540192505081905550816002600083815260200190815260200160002060006101000a81548173ffffffffffffffffffffffffffffffffffffffff021916908373ffffffffffffffffffffffffffffffffffffffff160217905550808273ffffffffffffffffffffffffffffffffffffffff168473ffffffffffffffffffffffffffffffffffffffff167fddf252ad1be2c89b69c2b068fc378daa952ba7f163c4a11628f55a4df523b3ef60405160405180910390a46119e28383836001612068565b505050565b6119ef611583565b73ffffffffffffffffffffffffffffffffffffffff16611a0d610b77565b73ffffffffffffffffffffffffffffffffffffffff1614611a63576040517f08c379a0000000000000000000000000000000000000000000000000000000008152600401611a5a90613b87565b60405180910390fd5b565b60006002600083815260200190815260200160002060009054906101000a900473ffffffffffffffffffffffffffffffffffffffff169050919050565b6000600660009054906101000a900473ffffffffffffffffffffffffffffffffffffffff16905081600660006101000a81548173ffffffffffffffffffffffffffffffffffffffff021916908373ffffffffffffffffffffffffffffffffffffffff1602179055508173ffffffffffffffffffffffffffffffffffffffff168173ffffffffffffffffffffffffffffffffffffffff167f8be0079c531659141344cd1fd0a4f28419497f9722a3daafe3b4186f6b6457e060405160405180910390a35050565b8173ffffffffffffffffffffffffffffffffffffffff168373ffffffffffffffffffffffffffffffffffffffff1603611bd6576040517f08c379a0000000000000000000000000000000000000000000000000000000008152600401611bcd90613bf3565b60405180910390fd5b80600560008573ffffffffffffffffffffffffffffffffffffffff1673ffffffffffffffffffffffffffffffffffffffff16815260200190815260200160002060008473ffffffffffffffffffffffffffffffffffffffff1673ffffffffffffffffffffffffffffffffffffffff16815260200190815260200160002060006101000a81548160ff0219169083151502179055508173ffffffffffffffffffffffffffffffffffffffff168373ffffffffffffffffffffffffffffffffffffffff167f17307eab39ab6107e8899845ad3d59bd9653f200f220920489ca2b5937696c3183604051611cc791906126cb565b60405180910390a3505050565b611cdf8484846116ee565b611ceb8484848461206e565b611d2a576040517f08c379a0000000000000000000000000000000000000000000000000000000008152600401611d2190613c85565b60405180910390fd5b50505050565b60008073ffffffffffffffffffffffffffffffffffffffff16611d5283611a65565b73ffffffffffffffffffffffffffffffffffffffff1614159050919050565b6000806040518060a001604052808881526020018781526020018581526020018681526020018460ff168152509050611daa60086121f5565b6000611db6600861164b565b905081600a60008381526020019081526020016000206000820151816000015560208201518160010155604082015181600201556060820151816003015560808201518160040160006101000a81548160ff021916908360ff160217905550905050611e29611e23610b77565b8261220b565b7fb6da9597f5553d5deafc722dcc1f69d5463612674a36bae2aa8698bd86af1c7c81898988604051611e5e9493929190613ca5565b60405180910390a1809250505095945050505050565b606060006001611e8384612229565b01905060008167ffffffffffffffff811115611ea257611ea161294a565b5b6040519080825280601f01601f191660200182016040528015611ed45781602001600182028036833780820191505090505b509050600082602001820190505b600115611f37578080600190039150507f3031323334353637383961626364656600000000000000000000000000000000600a86061a8153600a8581611f2b57611f2a61363c565b5b04945060008503611ee2575b819350505050919050565b600181111561206257600073ffffffffffffffffffffffffffffffffffffffff168473ffffffffffffffffffffffffffffffffffffffff1614611fd65780600360008673ffffffffffffffffffffffffffffffffffffffff1673ffffffffffffffffffffffffffffffffffffffff1681526020019081526020016000206000828254611fce9190613cea565b925050819055505b600073ffffffffffffffffffffffffffffffffffffffff168373ffffffffffffffffffffffffffffffffffffffff16146120615780600360008573ffffffffffffffffffffffffffffffffffffffff1673ffffffffffffffffffffffffffffffffffffffff16815260200190815260200160002060008282546120599190613608565b925050819055505b5b50505050565b50505050565b600061208f8473ffffffffffffffffffffffffffffffffffffffff1661237c565b156121e8578373ffffffffffffffffffffffffffffffffffffffff1663150b7a026120b8611583565b8786866040518563ffffffff1660e01b81526004016120da9493929190613d73565b6020604051808303816000875af192505050801561211657506040513d601f19601f820116820180604052508101906121139190613dd4565b60015b612198573d8060008114612146576040519150601f19603f3d011682016040523d82523d6000602084013e61214b565b606091505b506000815103612190576040517f08c379a000000000000000000000000000000000000000000000000000000000815260040161218790613c85565b60405180910390fd5b805181602001fd5b63150b7a0260e01b7bffffffffffffffffffffffffffffffffffffffffffffffffffffffff1916817bffffffffffffffffffffffffffffffffffffffffffffffffffffffff1916149150506121ed565b600190505b949350505050565b6001816000016000828254019250508190555050565b61222582826040518060200160405280600081525061239f565b5050565b600080600090507a184f03e93ff9f4daa797ed6e38ed64bf6a1f0100000000000000008310612287577a184f03e93ff9f4daa797ed6e38ed64bf6a1f010000000000000000838161227d5761227c61363c565b5b0492506040810190505b6d04ee2d6d415b85acef810000000083106122c4576d04ee2d6d415b85acef810000000083816122ba576122b961363c565b5b0492506020810190505b662386f26fc1000083106122f357662386f26fc1000083816122e9576122e861363c565b5b0492506010810190505b6305f5e100831061231c576305f5e10083816123125761231161363c565b5b0492506008810190505b61271083106123415761271083816123375761233661363c565b5b0492506004810190505b60648310612364576064838161235a5761235961363c565b5b0492506002810190505b600a8310612373576001810190505b80915050919050565b6000808273ffffffffffffffffffffffffffffffffffffffff163b119050919050565b6123a983836123fa565b6123b6600084848461206e565b6123f5576040517f08c379a00000000000000000000000000000000000000000000000000000000081526004016123ec90613c85565b60405180910390fd5b505050565b600073ffffffffffffffffffffffffffffffffffffffff168273ffffffffffffffffffffffffffffffffffffffff1603612469576040517f08c379a000000000000000000000000000000000000000000000000000000000815260040161246090613e4d565b60405180910390fd5b61247281611d30565b156124b2576040517f08c379a00000000000000000000000000000000000000000000000000000000081526004016124a990613eb9565b60405180910390fd5b6124c0600083836001611f42565b6124c981611d30565b15612509576040517f08c379a000000000000000000000000000000000000000000000000000000000815260040161250090613eb9565b60405180910390fd5b6001600360008473ffffffffffffffffffffffffffffffffffffffff1673ffffffffffffffffffffffffffffffffffffffff16815260200190815260200160002060008282540192505081905550816002600083815260200190815260200160002060006101000a81548173ffffffffffffffffffffffffffffffffffffffff021916908373ffffffffffffffffffffffffffffffffffffffff160217905550808273ffffffffffffffffffffffffffffffffffffffff16600073ffffffffffffffffffffffffffffffffffffffff167fddf252ad1be2c89b69c2b068fc378daa952ba7f163c4a11628f55a4df523b3ef60405160405180910390a4612613600083836001612068565b5050565b6000604051905090565b600080fd5b600080fd5b60007fffffffff0000000000000000000000000000000000000000000000000000000082169050919050565b6126608161262b565b811461266b57600080fd5b50565b60008135905061267d81612657565b92915050565b60006020828403121561269957612698612621565b5b60006126a78482850161266e565b91505092915050565b60008115159050919050565b6126c5816126b0565b82525050565b60006020820190506126e060008301846126bc565b92915050565b600081519050919050565b600082825260208201905092915050565b60005b83811015612720578082015181840152602081019050612705565b60008484015250505050565b6000601f19601f8301169050919050565b6000612748826126e6565b61275281856126f1565b9350612762818560208601612702565b61276b8161272c565b840191505092915050565b60006020820190508181036000830152612790818461273d565b905092915050565b6000819050919050565b6127ab81612798565b81146127b657600080fd5b50565b6000813590506127c8816127a2565b92915050565b6000602082840312156127e4576127e3612621565b5b60006127f2848285016127b9565b91505092915050565b600073ffffffffffffffffffffffffffffffffffffffff82169050919050565b6000612826826127fb565b9050919050565b6128368161281b565b82525050565b6000602082019050612851600083018461282d565b92915050565b6128608161281b565b811461286b57600080fd5b50565b60008135905061287d81612857565b92915050565b6000806040838503121561289a57612899612621565b5b60006128a88582860161286e565b92505060206128b9858286016127b9565b9150509250929050565b6128cc81612798565b82525050565b60006020820190506128e760008301846128c3565b92915050565b60008060006060848603121561290657612905612621565b5b60006129148682870161286e565b93505060206129258682870161286e565b9250506040612936868287016127b9565b9150509250925092565b600080fd5b600080fd5b7f4e487b7100000000000000000000000000000000000000000000000000000000600052604160045260246000fd5b6129828261272c565b810181811067ffffffffffffffff821117156129a1576129a061294a565b5b80604052505050565b60006129b4612617565b90506129c08282612979565b919050565b600067ffffffffffffffff8211156129e0576129df61294a565b5b6129e98261272c565b9050602081019050919050565b82818337600083830152505050565b6000612a18612a13846129c5565b6129aa565b905082815260208101848484011115612a3457612a33612945565b5b612a3f8482856129f6565b509392505050565b600082601f830112612a5c57612a5b612940565b5b8135612a6c848260208601612a05565b91505092915050565b600060208284031215612a8b57612a8a612621565b5b600082013567ffffffffffffffff811115612aa957612aa8612626565b5b612ab584828501612a47565b91505092915050565b600060208284031215612ad457612ad3612621565b5b6000612ae28482850161286e565b91505092915050565b600080fd5b600080fd5b60008083601f840112612b0b57612b0a612940565b5b8235905067ffffffffffffffff811115612b2857612b27612aeb565b5b602083019150836001820283011115612b4457612b43612af0565b5b9250929050565b60008060208385031215612b6257612b61612621565b5b600083013567ffffffffffffffff811115612b8057612b7f612626565b5b612b8c85828601612af5565b92509250509250929050565b612ba1816126b0565b8114612bac57600080fd5b50565b600081359050612bbe81612b98565b92915050565b60008060408385031215612bdb57612bda612621565b5b6000612be98582860161286e565b9250506020612bfa85828601612baf565b9150509250929050565b600067ffffffffffffffff821115612c1f57612c1e61294a565b5b612c288261272c565b9050602081019050919050565b6000612c48612c4384612c04565b6129aa565b905082815260208101848484011115612c6457612c63612945565b5b612c6f8482856129f6565b509392505050565b600082601f830112612c8c57612c8b612940565b5b8135612c9c848260208601612c35565b91505092915050565b60008060008060808587031215612cbf57612cbe612621565b5b6000612ccd8782880161286e565b9450506020612cde8782880161286e565b9350506040612cef878288016127b9565b925050606085013567ffffffffffffffff811115612d1057612d0f612626565b5b612d1c87828801612c77565b91505092959194509250565b60008060408385031215612d3f57612d3e612621565b5b6000612d4d858286016127b9565b9250506020612d5e858286016127b9565b9150509250929050565b600060ff82169050919050565b612d7e81612d68565b8114612d8957600080fd5b50565b600081359050612d9b81612d75565b92915050565b60008060408385031215612db857612db7612621565b5b6000612dc6858286016127b9565b9250506020612dd785828601612d8c565b9150509250929050565b600060208284031215612df757612df6612621565b5b6000612e0584828501612d8c565b91505092915050565b60008060408385031215612e2557612e24612621565b5b6000612e338582860161286e565b9250506020612e448582860161286e565b9150509250929050565b7f4e487b7100000000000000000000000000000000000000000000000000000000600052602260045260246000fd5b60006002820490506001821680612e9557607f821691505b602082108103612ea857612ea7612e4e565b5b50919050565b7f4552433732313a20617070726f76616c20746f2063757272656e74206f776e6560008201527f7200000000000000000000000000000000000000000000000000000000000000602082015250565b6000612f0a6021836126f1565b9150612f1582612eae565b604082019050919050565b60006020820190508181036000830152612f3981612efd565b9050919050565b7f4552433732313a20617070726f76652063616c6c6572206973206e6f7420746f60008201527f6b656e206f776e6572206f7220617070726f76656420666f7220616c6c000000602082015250565b6000612f9c603d836126f1565b9150612fa782612f40565b604082019050919050565b60006020820190508181036000830152612fcb81612f8f565b9050919050565b7f4552433732313a2063616c6c6572206973206e6f7420746f6b656e206f776e6560008201527f72206f7220617070726f76656400000000000000000000000000000000000000602082015250565b600061302e602d836126f1565b915061303982612fd2565b604082019050919050565b6000602082019050818103600083015261305d81613021565b9050919050565b600081905092915050565b50565b600061307f600083613064565b915061308a8261306f565b600082019050919050565b60006130a082613072565b9150819050919050565b60008190508160005260206000209050919050565b60006020601f8301049050919050565b600082821b905092915050565b60006008830261310c7fffffffffffffffffffffffffffffffffffffffffffffffffffffffffffffffff826130cf565b61311686836130cf565b95508019841693508086168417925050509392505050565b6000819050919050565b600061315361314e61314984612798565b61312e565b612798565b9050919050565b6000819050919050565b61316d83613138565b6131816131798261315a565b8484546130dc565b825550505050565b600090565b613196613189565b6131a1818484613164565b505050565b5b818110156131c5576131ba60008261318e565b6001810190506131a7565b5050565b601f82111561320a576131db816130aa565b6131e4846130bf565b810160208510156131f3578190505b6132076131ff856130bf565b8301826131a6565b50505b505050565b600082821c905092915050565b600061322d6000198460080261320f565b1980831691505092915050565b6000613246838361321c565b9150826002028217905092915050565b61325f826126e6565b67ffffffffffffffff8111156132785761327761294a565b5b6132828254612e7d565b61328d8282856131c9565b600060209050601f8311600181146132c057600084156132ae578287015190505b6132b8858261323a565b865550613320565b601f1984166132ce866130aa565b60005b828110156132f6578489015182556001820191506020850194506020810190506132d1565b86831015613313578489015161330f601f89168261321c565b8355505b6001600288020188555050505b505050505050565b7f4552433732313a20696e76616c696420746f6b656e2049440000000000000000600082015250565b600061335e6018836126f1565b915061336982613328565b602082019050919050565b6000602082019050818103600083015261338d81613351565b9050919050565b7f4552433732313a2061646472657373207a65726f206973206e6f74206120766160008201527f6c6964206f776e65720000000000000000000000000000000000000000000000602082015250565b60006133f06029836126f1565b91506133fb82613394565b604082019050919050565b6000602082019050818103600083015261341f816133e3565b9050919050565b600082905092915050565b61343b8383613426565b67ffffffffffffffff8111156134545761345361294a565b5b61345e8254612e7d565b6134698282856131c9565b6000601f8311600181146134985760008415613486578287013590505b613490858261323a565b8655506134f8565b601f1984166134a6866130aa565b60005b828110156134ce578489013582556001820191506020850194506020810190506134a9565b868310156134eb57848901356134e7601f89168261321c565b8355505b6001600288020188555050505b50505050505050565b7f717565727920666f72206e6f6e6578697374656e7420746f6b656e0000000000600082015250565b6000613537601b836126f1565b915061354282613501565b602082019050919050565b600060208201905081810360008301526135668161352a565b9050919050565b7f696e73756666696369656e742063686172676500000000000000000000000000600082015250565b60006135a36013836126f1565b91506135ae8261356d565b602082019050919050565b600060208201905081810360008301526135d281613596565b9050919050565b7f4e487b7100000000000000000000000000000000000000000000000000000000600052601160045260246000fd5b600061361382612798565b915061361e83612798565b9250828201905080821115613636576136356135d9565b5b92915050565b7f4e487b7100000000000000000000000000000000000000000000000000000000600052601260045260246000fd5b600061367682612798565b915061368183612798565b9250826136915761369061363c565b5b828204905092915050565b60006060820190506136b160008301866128c3565b6136be60208301856128c3565b6136cb60408301846128c3565b949350505050565b6000815190506136e2816127a2565b92915050565b6000602082840312156136fe576136fd612621565b5b600061370c848285016136d3565b91505092915050565b600061372082612d68565b915061372b83612d68565b9250828203905060ff811115613744576137436135d9565b5b92915050565b600061376561376061375b84612d68565b61312e565b612798565b9050919050565b6137758161374a565b82525050565b6000602082019050613790600083018461376c565b92915050565b60006137a182612d68565b91506137ac83612d68565b9250828201905060ff8111156137c5576137c46135d9565b5b92915050565b6137d481612d68565b82525050565b60006040820190506137ef60008301856128c3565b6137fc60208301846137cb565b9392505050565b7f4552433732314d657461646174613a2055524920717565727920666f72206e6f60008201527f6e6578697374656e7420746f6b656e0000000000000000000000000000000000602082015250565b600061385f602f836126f1565b915061386a82613803565b604082019050919050565b6000602082019050818103600083015261388e81613852565b9050919050565b600081905092915050565b600081546138ad81612e7d565b6138b78186613895565b945060018216600081146138d257600181146138e75761391a565b60ff198316865281151582028601935061391a565b6138f0856130aa565b60005b83811015613912578154818901526001820191506020810190506138f3565b838801955050505b50505092915050565b600061392e826126e6565b6139388185613895565b9350613948818560208601612702565b80840191505092915050565b600061396082866138a0565b915061396c8285613923565b915061397882846138a0565b9150819050949350505050565b7f4f776e61626c653a206e6577206f776e657220697320746865207a65726f206160008201527f6464726573730000000000000000000000000000000000000000000000000000602082015250565b60006139e16026836126f1565b91506139ec82613985565b604082019050919050565b60006020820190508181036000830152613a10816139d4565b9050919050565b7f4552433732313a207472616e736665722066726f6d20696e636f72726563742060008201527f6f776e6572000000000000000000000000000000000000000000000000000000602082015250565b6000613a736025836126f1565b9150613a7e82613a17565b604082019050919050565b60006020820190508181036000830152613aa281613a66565b9050919050565b7f4552433732313a207472616e7366657220746f20746865207a65726f2061646460008201527f7265737300000000000000000000000000000000000000000000000000000000602082015250565b6000613b056024836126f1565b9150613b1082613aa9565b604082019050919050565b60006020820190508181036000830152613b3481613af8565b9050919050565b7f4f776e61626c653a2063616c6c6572206973206e6f7420746865206f776e6572600082015250565b6000613b716020836126f1565b9150613b7c82613b3b565b602082019050919050565b60006020820190508181036000830152613ba081613b64565b9050919050565b7f4552433732313a20617070726f766520746f2063616c6c657200000000000000600082015250565b6000613bdd6019836126f1565b9150613be882613ba7565b602082019050919050565b60006020820190508181036000830152613c0c81613bd0565b9050919050565b7f4552433732313a207472616e7366657220746f206e6f6e20455243373231526560008201527f63656976657220696d706c656d656e7465720000000000000000000000000000602082015250565b6000613c6f6032836126f1565b9150613c7a82613c13565b604082019050919050565b60006020820190508181036000830152613c9e81613c62565b9050919050565b6000608082019050613cba60008301876128c3565b613cc760208301866128c3565b613cd460408301856128c3565b613ce160608301846128c3565b95945050505050565b6000613cf582612798565b9150613d0083612798565b9250828203905081811115613d1857613d176135d9565b5b92915050565b600081519050919050565b600082825260208201905092915050565b6000613d4582613d1e565b613d4f8185613d29565b9350613d5f818560208601612702565b613d688161272c565b840191505092915050565b6000608082019050613d88600083018761282d565b613d95602083018661282d565b613da260408301856128c3565b8181036060830152613db48184613d3a565b905095945050505050565b600081519050613dce81612657565b92915050565b600060208284031215613dea57613de9612621565b5b6000613df884828501613dbf565b91505092915050565b7f4552433732313a206d696e7420746f20746865207a65726f2061646472657373600082015250565b6000613e376020836126f1565b9150613e4282613e01565b602082019050919050565b60006020820190508181036000830152613e6681613e2a565b9050919050565b7f4552433732313a20746f6b656e20616c7265616479206d696e74656400000000600082015250565b6000613ea3601c836126f1565b9150613eae82613e6d565b602082019050919050565b60006020820190508181036000830152613ed281613e96565b905091905056fea2646970667358221220b7b77aaa0b394493e79bc12585feb96162513e240c20ebba8ef7b07cbbf312fc64736f6c63430008110033",
			"opcodes": "PUSH1 0x80 PUSH1 0x40 MSTORE PUSH1 0x40 MLOAD DUP1 PUSH1 0x40 ADD PUSH1 0x40 MSTORE DUP1 PUSH1 0x5 DUP2 MSTORE PUSH1 0x20 ADD PUSH32 0x2E6A736F6E000000000000000000000000000000000000000000000000000000 DUP2 MSTORE POP PUSH1 0xF SWAP1 DUP2 PUSH3 0x4A SWAP2 SWAP1 PUSH3 0x528 JUMP JUMPDEST POP CALLVALUE DUP1 ISZERO PUSH3 0x58 JUMPI PUSH1 0x0 DUP1 REVERT JUMPDEST POP PUSH1 0x40 MLOAD DUP1 PUSH1 0x40 ADD PUSH1 0x40 MSTORE DUP1 PUSH1 0x8 DUP2 MSTORE PUSH1 0x20 ADD PUSH32 0x415442546F6B656E000000000000000000000000000000000000000000000000 DUP2 MSTORE POP PUSH1 0x40 MLOAD DUP1 PUSH1 0x40 ADD PUSH1 0x40 MSTORE DUP1 PUSH1 0x4 DUP2 MSTORE PUSH1 0x20 ADD PUSH32 0x4154425400000000000000000000000000000000000000000000000000000000 DUP2 MSTORE POP DUP2 PUSH1 0x0 SWAP1 DUP2 PUSH3 0xD6 SWAP2 SWAP1 PUSH3 0x528 JUMP JUMPDEST POP DUP1 PUSH1 0x1 SWAP1 DUP2 PUSH3 0xE8 SWAP2 SWAP1 PUSH3 0x528 JUMP JUMPDEST POP POP POP PUSH3 0x10B PUSH3 0xFF PUSH3 0x111 PUSH1 0x20 SHL PUSH1 0x20 SHR JUMP JUMPDEST PUSH3 0x12D PUSH1 0x20 SHL PUSH1 0x20 SHR JUMP JUMPDEST PUSH3 0x60F JUMP JUMPDEST PUSH1 0x0 PUSH3 0x128 PUSH3 0x1F3 PUSH1 0x20 SHL PUSH3 0x143D OR PUSH1 0x20 SHR JUMP JUMPDEST SWAP1 POP SWAP1 JUMP JUMPDEST PUSH1 0x0 PUSH1 0x6 PUSH1 0x0 SWAP1 SLOAD SWAP1 PUSH2 0x100 EXP SWAP1 DIV PUSH20 0xFFFFFFFFFFFFFFFFFFFFFFFFFFFFFFFFFFFFFFFF AND SWAP1 POP DUP2 PUSH1 0x6 PUSH1 0x0 PUSH2 0x100 EXP DUP2 SLOAD DUP2 PUSH20 0xFFFFFFFFFFFFFFFFFFFFFFFFFFFFFFFFFFFFFFFF MUL NOT AND SWAP1 DUP4 PUSH20 0xFFFFFFFFFFFFFFFFFFFFFFFFFFFFFFFFFFFFFFFF AND MUL OR SWAP1 SSTORE POP DUP2 PUSH20 0xFFFFFFFFFFFFFFFFFFFFFFFFFFFFFFFFFFFFFFFF AND DUP2 PUSH20 0xFFFFFFFFFFFFFFFFFFFFFFFFFFFFFFFFFFFFFFFF AND PUSH32 0x8BE0079C531659141344CD1FD0A4F28419497F9722A3DAAFE3B4186F6B6457E0 PUSH1 0x40 MLOAD PUSH1 0x40 MLOAD DUP1 SWAP2 SUB SWAP1 LOG3 POP POP JUMP JUMPDEST PUSH1 0x0 PUSH1 0x14 PUSH1 0x0 CALLDATASIZE SWAP1 POP LT ISZERO DUP1 ISZERO PUSH3 0x218 JUMPI POP PUSH3 0x217 CALLER PUSH3 0x235 PUSH1 0x20 SHL PUSH1 0x20 SHR JUMP JUMPDEST JUMPDEST ISZERO PUSH3 0x22E JUMPI PUSH1 0x14 CALLDATASIZE SUB CALLDATALOAD PUSH1 0x60 SHR SWAP1 POP PUSH3 0x232 JUMP JUMPDEST CALLER SWAP1 POP JUMPDEST SWAP1 JUMP JUMPDEST PUSH1 0x0 PUSH3 0x24D DUP3 PUSH3 0x254 PUSH1 0x20 SHL PUSH3 0x1474 OR PUSH1 0x20 SHR JUMP JUMPDEST SWAP1 POP SWAP2 SWAP1 POP JUMP JUMPDEST PUSH1 0x0 PUSH1 0x7 PUSH1 0x0 SWAP1 SLOAD SWAP1 PUSH2 0x100 EXP SWAP1 DIV PUSH20 0xFFFFFFFFFFFFFFFFFFFFFFFFFFFFFFFFFFFFFFFF AND PUSH20 0xFFFFFFFFFFFFFFFFFFFFFFFFFFFFFFFFFFFFFFFF AND DUP3 PUSH20 0xFFFFFFFFFFFFFFFFFFFFFFFFFFFFFFFFFFFFFFFF AND EQ SWAP1 POP SWAP2 SWAP1 POP JUMP JUMPDEST PUSH1 0x0 DUP2 MLOAD SWAP1 POP SWAP2 SWAP1 POP JUMP JUMPDEST PUSH32 0x4E487B7100000000000000000000000000000000000000000000000000000000 PUSH1 0x0 MSTORE PUSH1 0x41 PUSH1 0x4 MSTORE PUSH1 0x24 PUSH1 0x0 REVERT JUMPDEST PUSH32 0x4E487B7100000000000000000000000000000000000000000000000000000000 PUSH1 0x0 MSTORE PUSH1 0x22 PUSH1 0x4 MSTORE PUSH1 0x24 PUSH1 0x0 REVERT JUMPDEST PUSH1 0x0 PUSH1 0x2 DUP3 DIV SWAP1 POP PUSH1 0x1 DUP3 AND DUP1 PUSH3 0x330 JUMPI PUSH1 0x7F DUP3 AND SWAP2 POP JUMPDEST PUSH1 0x20 DUP3 LT DUP2 SUB PUSH3 0x346 JUMPI PUSH3 0x345 PUSH3 0x2E8 JUMP JUMPDEST JUMPDEST POP SWAP2 SWAP1 POP JUMP JUMPDEST PUSH1 0x0 DUP2 SWAP1 POP DUP2 PUSH1 0x0 MSTORE PUSH1 0x20 PUSH1 0x0 KECCAK256 SWAP1 POP SWAP2 SWAP1 POP JUMP JUMPDEST PUSH1 0x0 PUSH1 0x20 PUSH1 0x1F DUP4 ADD DIV SWAP1 POP SWAP2 SWAP1 POP JUMP JUMPDEST PUSH1 0x0 DUP3 DUP3 SHL SWAP1 POP SWAP3 SWAP2 POP POP JUMP JUMPDEST PUSH1 0x0 PUSH1 0x8 DUP4 MUL PUSH3 0x3B0 PUSH32 0xFFFFFFFFFFFFFFFFFFFFFFFFFFFFFFFFFFFFFFFFFFFFFFFFFFFFFFFFFFFFFFFF DUP3 PUSH3 0x371 JUMP JUMPDEST PUSH3 0x3BC DUP7 DUP4 PUSH3 0x371 JUMP JUMPDEST SWAP6 POP DUP1 NOT DUP5 AND SWAP4 POP DUP1 DUP7 AND DUP5 OR SWAP3 POP POP POP SWAP4 SWAP3 POP POP POP JUMP JUMPDEST PUSH1 0x0 DUP2 SWAP1 POP SWAP2 SWAP1 POP JUMP JUMPDEST PUSH1 0x0 DUP2 SWAP1 POP SWAP2 SWAP1 POP JUMP JUMPDEST PUSH1 0x0 PUSH3 0x409 PUSH3 0x403 PUSH3 0x3FD DUP5 PUSH3 0x3D4 JUMP JUMPDEST PUSH3 0x3DE JUMP JUMPDEST PUSH3 0x3D4 JUMP JUMPDEST SWAP1 POP SWAP2 SWAP1 POP JUMP JUMPDEST PUSH1 0x0 DUP2 SWAP1 POP SWAP2 SWAP1 POP JUMP JUMPDEST PUSH3 0x425 DUP4 PUSH3 0x3E8 JUMP JUMPDEST PUSH3 0x43D PUSH3 0x434 DUP3 PUSH3 0x410 JUMP JUMPDEST DUP5 DUP5 SLOAD PUSH3 0x37E JUMP JUMPDEST DUP3 SSTORE POP POP POP POP JUMP JUMPDEST PUSH1 0x0 SWAP1 JUMP JUMPDEST PUSH3 0x454 PUSH3 0x445 JUMP JUMPDEST PUSH3 0x461 DUP2 DUP5 DUP5 PUSH3 0x41A JUMP JUMPDEST POP POP POP JUMP JUMPDEST JUMPDEST DUP2 DUP2 LT ISZERO PUSH3 0x489 JUMPI PUSH3 0x47D PUSH1 0x0 DUP3 PUSH3 0x44A JUMP JUMPDEST PUSH1 0x1 DUP2 ADD SWAP1 POP PUSH3 0x467 JUMP JUMPDEST POP POP JUMP JUMPDEST PUSH1 0x1F DUP3 GT ISZERO PUSH3 0x4D8 JUMPI PUSH3 0x4A2 DUP2 PUSH3 0x34C JUMP JUMPDEST PUSH3 0x4AD DUP5 PUSH3 0x361 JUMP JUMPDEST DUP2 ADD PUSH1 0x20 DUP6 LT ISZERO PUSH3 0x4BD JUMPI DUP2 SWAP1 POP JUMPDEST PUSH3 0x4D5 PUSH3 0x4CC DUP6 PUSH3 0x361 JUMP JUMPDEST DUP4 ADD DUP3 PUSH3 0x466 JUMP JUMPDEST POP POP JUMPDEST POP POP POP JUMP JUMPDEST PUSH1 0x0 DUP3 DUP3 SHR SWAP1 POP SWAP3 SWAP2 POP POP JUMP JUMPDEST PUSH1 0x0 PUSH3 0x4FD PUSH1 0x0 NOT DUP5 PUSH1 0x8 MUL PUSH3 0x4DD JUMP JUMPDEST NOT DUP1 DUP4 AND SWAP2 POP POP SWAP3 SWAP2 POP POP JUMP JUMPDEST PUSH1 0x0 PUSH3 0x518 DUP4 DUP4 PUSH3 0x4EA JUMP JUMPDEST SWAP2 POP DUP3 PUSH1 0x2 MUL DUP3 OR SWAP1 POP SWAP3 SWAP2 POP POP JUMP JUMPDEST PUSH3 0x533 DUP3 PUSH3 0x2AE JUMP JUMPDEST PUSH8 0xFFFFFFFFFFFFFFFF DUP2 GT ISZERO PUSH3 0x54F JUMPI PUSH3 0x54E PUSH3 0x2B9 JUMP JUMPDEST JUMPDEST PUSH3 0x55B DUP3 SLOAD PUSH3 0x317 JUMP JUMPDEST PUSH3 0x568 DUP3 DUP3 DUP6 PUSH3 0x48D JUMP JUMPDEST PUSH1 0x0 PUSH1 0x20 SWAP1 POP PUSH1 0x1F DUP4 GT PUSH1 0x1 DUP2 EQ PUSH3 0x5A0 JUMPI PUSH1 0x0 DUP5 ISZERO PUSH3 0x58B JUMPI DUP3 DUP8 ADD MLOAD SWAP1 POP JUMPDEST PUSH3 0x597 DUP6 DUP3 PUSH3 0x50A JUMP JUMPDEST DUP7 SSTORE POP PUSH3 0x607 JUMP JUMPDEST PUSH1 0x1F NOT DUP5 AND PUSH3 0x5B0 DUP7 PUSH3 0x34C JUMP JUMPDEST PUSH1 0x0 JUMPDEST DUP3 DUP2 LT ISZERO PUSH3 0x5DA JUMPI DUP5 DUP10 ADD MLOAD DUP3 SSTORE PUSH1 0x1 DUP3 ADD SWAP2 POP PUSH1 0x20 DUP6 ADD SWAP5 POP PUSH1 0x20 DUP2 ADD SWAP1 POP PUSH3 0x5B3 JUMP JUMPDEST DUP7 DUP4 LT ISZERO PUSH3 0x5FA JUMPI DUP5 DUP10 ADD MLOAD PUSH3 0x5F6 PUSH1 0x1F DUP10 AND DUP3 PUSH3 0x4EA JUMP JUMPDEST DUP4 SSTORE POP JUMPDEST PUSH1 0x1 PUSH1 0x2 DUP9 MUL ADD DUP9 SSTORE POP POP POP JUMPDEST POP POP POP POP POP POP JUMP JUMPDEST PUSH2 0x3F0F DUP1 PUSH3 0x61F PUSH1 0x0 CODECOPY PUSH1 0x0 RETURN INVALID PUSH1 0x80 PUSH1 0x40 MSTORE CALLVALUE DUP1 ISZERO PUSH2 0x10 JUMPI PUSH1 0x0 DUP1 REVERT JUMPDEST POP PUSH1 0x4 CALLDATASIZE LT PUSH2 0x1DA JUMPI PUSH1 0x0 CALLDATALOAD PUSH1 0xE0 SHR DUP1 PUSH4 0x938E3D7B GT PUSH2 0x104 JUMPI DUP1 PUSH4 0xC87B56DD GT PUSH2 0xA2 JUMPI DUP1 PUSH4 0xE8A3D485 GT PUSH2 0x71 JUMPI DUP1 PUSH4 0xE8A3D485 EQ PUSH2 0x53D JUMPI DUP1 PUSH4 0xE985E9C5 EQ PUSH2 0x55B JUMPI DUP1 PUSH4 0xF2FDE38B EQ PUSH2 0x58B JUMPI DUP1 PUSH4 0xFCBC4CEE EQ PUSH2 0x5A7 JUMPI PUSH2 0x1DA JUMP JUMPDEST DUP1 PUSH4 0xC87B56DD EQ PUSH2 0x4B7 JUMPI DUP1 PUSH4 0xCE1B815F EQ PUSH2 0x4E7 JUMPI DUP1 PUSH4 0xDA3EF23F EQ PUSH2 0x505 JUMPI DUP1 PUSH4 0xDE405B18 EQ PUSH2 0x521 JUMPI PUSH2 0x1DA JUMP JUMPDEST DUP1 PUSH4 0xB88D4FDE GT PUSH2 0xDE JUMPI DUP1 PUSH4 0xB88D4FDE EQ PUSH2 0x41F JUMPI DUP1 PUSH4 0xB921A400 EQ PUSH2 0x43B JUMPI DUP1 PUSH4 0xBC4DDB52 EQ PUSH2 0x46B JUMPI DUP1 PUSH4 0xC6BE88A4 EQ PUSH2 0x49B JUMPI PUSH2 0x1DA JUMP JUMPDEST DUP1 PUSH4 0x938E3D7B EQ PUSH2 0x3C9 JUMPI DUP1 PUSH4 0x95D89B41 EQ PUSH2 0x3E5 JUMPI DUP1 PUSH4 0xA22CB465 EQ PUSH2 0x403 JUMPI PUSH2 0x1DA JUMP JUMPDEST DUP1 PUSH4 0x42842E0E GT PUSH2 0x17C JUMPI DUP1 PUSH4 0x70A08231 GT PUSH2 0x14B JUMPI DUP1 PUSH4 0x70A08231 EQ PUSH2 0x355 JUMPI DUP1 PUSH4 0x715018A6 EQ PUSH2 0x385 JUMPI DUP1 PUSH4 0x8C5527CF EQ PUSH2 0x38F JUMPI DUP1 PUSH4 0x8DA5CB5B EQ PUSH2 0x3AB JUMPI PUSH2 0x1DA JUMP JUMPDEST DUP1 PUSH4 0x42842E0E EQ PUSH2 0x2BD JUMPI DUP1 PUSH4 0x55F804B3 EQ PUSH2 0x2D9 JUMPI DUP1 PUSH4 0x572B6C05 EQ PUSH2 0x2F5 JUMPI DUP1 PUSH4 0x6352211E EQ PUSH2 0x325 JUMPI PUSH2 0x1DA JUMP JUMPDEST DUP1 PUSH4 0x95EA7B3 GT PUSH2 0x1B8 JUMPI DUP1 PUSH4 0x95EA7B3 EQ PUSH2 0x25D JUMPI DUP1 PUSH4 0x18160DDD EQ PUSH2 0x279 JUMPI DUP1 PUSH4 0x23B872DD EQ PUSH2 0x297 JUMPI DUP1 PUSH4 0x3CCFD60B EQ PUSH2 0x2B3 JUMPI PUSH2 0x1DA JUMP JUMPDEST DUP1 PUSH4 0x1FFC9A7 EQ PUSH2 0x1DF JUMPI DUP1 PUSH4 0x6FDDE03 EQ PUSH2 0x20F JUMPI DUP1 PUSH4 0x81812FC EQ PUSH2 0x22D JUMPI JUMPDEST PUSH1 0x0 DUP1 REVERT JUMPDEST PUSH2 0x1F9 PUSH1 0x4 DUP1 CALLDATASIZE SUB DUP2 ADD SWAP1 PUSH2 0x1F4 SWAP2 SWAP1 PUSH2 0x2683 JUMP JUMPDEST PUSH2 0x5C3 JUMP JUMPDEST PUSH1 0x40 MLOAD PUSH2 0x206 SWAP2 SWAP1 PUSH2 0x26CB JUMP JUMPDEST PUSH1 0x40 MLOAD DUP1 SWAP2 SUB SWAP1 RETURN JUMPDEST PUSH2 0x217 PUSH2 0x6A5 JUMP JUMPDEST PUSH1 0x40 MLOAD PUSH2 0x224 SWAP2 SWAP1 PUSH2 0x2776 JUMP JUMPDEST PUSH1 0x40 MLOAD DUP1 SWAP2 SUB SWAP1 RETURN JUMPDEST PUSH2 0x247 PUSH1 0x4 DUP1 CALLDATASIZE SUB DUP2 ADD SWAP1 PUSH2 0x242 SWAP2 SWAP1 PUSH2 0x27CE JUMP JUMPDEST PUSH2 0x737 JUMP JUMPDEST PUSH1 0x40 MLOAD PUSH2 0x254 SWAP2 SWAP1 PUSH2 0x283C JUMP JUMPDEST PUSH1 0x40 MLOAD DUP1 SWAP2 SUB SWAP1 RETURN JUMPDEST PUSH2 0x277 PUSH1 0x4 DUP1 CALLDATASIZE SUB DUP2 ADD SWAP1 PUSH2 0x272 SWAP2 SWAP1 PUSH2 0x2883 JUMP JUMPDEST PUSH2 0x77D JUMP JUMPDEST STOP JUMPDEST PUSH2 0x281 PUSH2 0x894 JUMP JUMPDEST PUSH1 0x40 MLOAD PUSH2 0x28E SWAP2 SWAP1 PUSH2 0x28D2 JUMP JUMPDEST PUSH1 0x40 MLOAD DUP1 SWAP2 SUB SWAP1 RETURN JUMPDEST PUSH2 0x2B1 PUSH1 0x4 DUP1 CALLDATASIZE SUB DUP2 ADD SWAP1 PUSH2 0x2AC SWAP2 SWAP1 PUSH2 0x28ED JUMP JUMPDEST PUSH2 0x8A5 JUMP JUMPDEST STOP JUMPDEST PUSH2 0x2BB PUSH2 0x905 JUMP JUMPDEST STOP JUMPDEST PUSH2 0x2D7 PUSH1 0x4 DUP1 CALLDATASIZE SUB DUP2 ADD SWAP1 PUSH2 0x2D2 SWAP2 SWAP1 PUSH2 0x28ED JUMP JUMPDEST PUSH2 0x98D JUMP JUMPDEST STOP JUMPDEST PUSH2 0x2F3 PUSH1 0x4 DUP1 CALLDATASIZE SUB DUP2 ADD SWAP1 PUSH2 0x2EE SWAP2 SWAP1 PUSH2 0x2A75 JUMP JUMPDEST PUSH2 0x9AD JUMP JUMPDEST STOP JUMPDEST PUSH2 0x30F PUSH1 0x4 DUP1 CALLDATASIZE SUB DUP2 ADD SWAP1 PUSH2 0x30A SWAP2 SWAP1 PUSH2 0x2ABE JUMP JUMPDEST PUSH2 0x9C8 JUMP JUMPDEST PUSH1 0x40 MLOAD PUSH2 0x31C SWAP2 SWAP1 PUSH2 0x26CB JUMP JUMPDEST PUSH1 0x40 MLOAD DUP1 SWAP2 SUB SWAP1 RETURN JUMPDEST PUSH2 0x33F PUSH1 0x4 DUP1 CALLDATASIZE SUB DUP2 ADD SWAP1 PUSH2 0x33A SWAP2 SWAP1 PUSH2 0x27CE JUMP JUMPDEST PUSH2 0x9DA JUMP JUMPDEST PUSH1 0x40 MLOAD PUSH2 0x34C SWAP2 SWAP1 PUSH2 0x283C JUMP JUMPDEST PUSH1 0x40 MLOAD DUP1 SWAP2 SUB SWAP1 RETURN JUMPDEST PUSH2 0x36F PUSH1 0x4 DUP1 CALLDATASIZE SUB DUP2 ADD SWAP1 PUSH2 0x36A SWAP2 SWAP1 PUSH2 0x2ABE JUMP JUMPDEST PUSH2 0xA60 JUMP JUMPDEST PUSH1 0x40 MLOAD PUSH2 0x37C SWAP2 SWAP1 PUSH2 0x28D2 JUMP JUMPDEST PUSH1 0x40 MLOAD DUP1 SWAP2 SUB SWAP1 RETURN JUMPDEST PUSH2 0x38D PUSH2 0xB17 JUMP JUMPDEST STOP JUMPDEST PUSH2 0x3A9 PUSH1 0x4 DUP1 CALLDATASIZE SUB DUP2 ADD SWAP1 PUSH2 0x3A4 SWAP2 SWAP1 PUSH2 0x2ABE JUMP JUMPDEST PUSH2 0xB2B JUMP JUMPDEST STOP JUMPDEST PUSH2 0x3B3 PUSH2 0xB77 JUMP JUMPDEST PUSH1 0x40 MLOAD PUSH2 0x3C0 SWAP2 SWAP1 PUSH2 0x283C JUMP JUMPDEST PUSH1 0x40 MLOAD DUP1 SWAP2 SUB SWAP1 RETURN JUMPDEST PUSH2 0x3E3 PUSH1 0x4 DUP1 CALLDATASIZE SUB DUP2 ADD SWAP1 PUSH2 0x3DE SWAP2 SWAP1 PUSH2 0x2B4B JUMP JUMPDEST PUSH2 0xBA1 JUMP JUMPDEST STOP JUMPDEST PUSH2 0x3ED PUSH2 0xBBF JUMP JUMPDEST PUSH1 0x40 MLOAD PUSH2 0x3FA SWAP2 SWAP1 PUSH2 0x2776 JUMP JUMPDEST PUSH1 0x40 MLOAD DUP1 SWAP2 SUB SWAP1 RETURN JUMPDEST PUSH2 0x41D PUSH1 0x4 DUP1 CALLDATASIZE SUB DUP2 ADD SWAP1 PUSH2 0x418 SWAP2 SWAP1 PUSH2 0x2BC4 JUMP JUMPDEST PUSH2 0xC51 JUMP JUMPDEST STOP JUMPDEST PUSH2 0x439 PUSH1 0x4 DUP1 CALLDATASIZE SUB DUP2 ADD SWAP1 PUSH2 0x434 SWAP2 SWAP1 PUSH2 0x2CA5 JUMP JUMPDEST PUSH2 0xC67 JUMP JUMPDEST STOP JUMPDEST PUSH2 0x455 PUSH1 0x4 DUP1 CALLDATASIZE SUB DUP2 ADD SWAP1 PUSH2 0x450 SWAP2 SWAP1 PUSH2 0x2D28 JUMP JUMPDEST PUSH2 0xCC9 JUMP JUMPDEST PUSH1 0x40 MLOAD PUSH2 0x462 SWAP2 SWAP1 PUSH2 0x28D2 JUMP JUMPDEST PUSH1 0x40 MLOAD DUP1 SWAP2 SUB SWAP1 RETURN JUMPDEST PUSH2 0x485 PUSH1 0x4 DUP1 CALLDATASIZE SUB DUP2 ADD SWAP1 PUSH2 0x480 SWAP2 SWAP1 PUSH2 0x2DA1 JUMP JUMPDEST PUSH2 0xFE9 JUMP JUMPDEST PUSH1 0x40 MLOAD PUSH2 0x492 SWAP2 SWAP1 PUSH2 0x28D2 JUMP JUMPDEST PUSH1 0x40 MLOAD DUP1 SWAP2 SUB SWAP1 RETURN JUMPDEST PUSH2 0x4B5 PUSH1 0x4 DUP1 CALLDATASIZE SUB DUP2 ADD SWAP1 PUSH2 0x4B0 SWAP2 SWAP1 PUSH2 0x2DA1 JUMP JUMPDEST PUSH2 0x100A JUMP JUMPDEST STOP JUMPDEST PUSH2 0x4D1 PUSH1 0x4 DUP1 CALLDATASIZE SUB DUP2 ADD SWAP1 PUSH2 0x4CC SWAP2 SWAP1 PUSH2 0x27CE JUMP JUMPDEST PUSH2 0x116E JUMP JUMPDEST PUSH1 0x40 MLOAD PUSH2 0x4DE SWAP2 SWAP1 PUSH2 0x2776 JUMP JUMPDEST PUSH1 0x40 MLOAD DUP1 SWAP2 SUB SWAP1 RETURN JUMPDEST PUSH2 0x4EF PUSH2 0x11ED JUMP JUMPDEST PUSH1 0x40 MLOAD PUSH2 0x4FC SWAP2 SWAP1 PUSH2 0x283C JUMP JUMPDEST PUSH1 0x40 MLOAD DUP1 SWAP2 SUB SWAP1 RETURN JUMPDEST PUSH2 0x51F PUSH1 0x4 DUP1 CALLDATASIZE SUB DUP2 ADD SWAP1 PUSH2 0x51A SWAP2 SWAP1 PUSH2 0x2A75 JUMP JUMPDEST PUSH2 0x1217 JUMP JUMPDEST STOP JUMPDEST PUSH2 0x53B PUSH1 0x4 DUP1 CALLDATASIZE SUB DUP2 ADD SWAP1 PUSH2 0x536 SWAP2 SWAP1 PUSH2 0x2DE1 JUMP JUMPDEST PUSH2 0x1222 JUMP JUMPDEST STOP JUMPDEST PUSH2 0x545 PUSH2 0x1248 JUMP JUMPDEST PUSH1 0x40 MLOAD PUSH2 0x552 SWAP2 SWAP1 PUSH2 0x2776 JUMP JUMPDEST PUSH1 0x40 MLOAD DUP1 SWAP2 SUB SWAP1 RETURN JUMPDEST PUSH2 0x575 PUSH1 0x4 DUP1 CALLDATASIZE SUB DUP2 ADD SWAP1 PUSH2 0x570 SWAP2 SWAP1 PUSH2 0x2E0E JUMP JUMPDEST PUSH2 0x12DA JUMP JUMPDEST PUSH1 0x40 MLOAD PUSH2 0x582 SWAP2 SWAP1 PUSH2 0x26CB JUMP JUMPDEST PUSH1 0x40 MLOAD DUP1 SWAP2 SUB SWAP1 RETURN JUMPDEST PUSH2 0x5A5 PUSH1 0x4 DUP1 CALLDATASIZE SUB DUP2 ADD SWAP1 PUSH2 0x5A0 SWAP2 SWAP1 PUSH2 0x2ABE JUMP JUMPDEST PUSH2 0x136E JUMP JUMPDEST STOP JUMPDEST PUSH2 0x5C1 PUSH1 0x4 DUP1 CALLDATASIZE SUB DUP2 ADD SWAP1 PUSH2 0x5BC SWAP2 SWAP1 PUSH2 0x2ABE JUMP JUMPDEST PUSH2 0x13F1 JUMP JUMPDEST STOP JUMPDEST PUSH1 0x0 PUSH32 0x80AC58CD00000000000000000000000000000000000000000000000000000000 PUSH28 0xFFFFFFFFFFFFFFFFFFFFFFFFFFFFFFFFFFFFFFFFFFFFFFFFFFFFFFFF NOT AND DUP3 PUSH28 0xFFFFFFFFFFFFFFFFFFFFFFFFFFFFFFFFFFFFFFFFFFFFFFFFFFFFFFFF NOT AND EQ DUP1 PUSH2 0x68E JUMPI POP PUSH32 0x5B5E139F00000000000000000000000000000000000000000000000000000000 PUSH28 0xFFFFFFFFFFFFFFFFFFFFFFFFFFFFFFFFFFFFFFFFFFFFFFFFFFFFFFFF NOT AND DUP3 PUSH28 0xFFFFFFFFFFFFFFFFFFFFFFFFFFFFFFFFFFFFFFFFFFFFFFFFFFFFFFFF NOT AND EQ JUMPDEST DUP1 PUSH2 0x69E JUMPI POP PUSH2 0x69D DUP3 PUSH2 0x14CE JUMP JUMPDEST JUMPDEST SWAP1 POP SWAP2 SWAP1 POP JUMP JUMPDEST PUSH1 0x60 PUSH1 0x0 DUP1 SLOAD PUSH2 0x6B4 SWAP1 PUSH2 0x2E7D JUMP JUMPDEST DUP1 PUSH1 0x1F ADD PUSH1 0x20 DUP1 SWAP2 DIV MUL PUSH1 0x20 ADD PUSH1 0x40 MLOAD SWAP1 DUP2 ADD PUSH1 0x40 MSTORE DUP1 SWAP3 SWAP2 SWAP1 DUP2 DUP2 MSTORE PUSH1 0x20 ADD DUP3 DUP1 SLOAD PUSH2 0x6E0 SWAP1 PUSH2 0x2E7D JUMP JUMPDEST DUP1 ISZERO PUSH2 0x72D JUMPI DUP1 PUSH1 0x1F LT PUSH2 0x702 JUMPI PUSH2 0x100 DUP1 DUP4 SLOAD DIV MUL DUP4 MSTORE SWAP2 PUSH1 0x20 ADD SWAP2 PUSH2 0x72D JUMP JUMPDEST DUP3 ADD SWAP2 SWAP1 PUSH1 0x0 MSTORE PUSH1 0x20 PUSH1 0x0 KECCAK256 SWAP1 JUMPDEST DUP2 SLOAD DUP2 MSTORE SWAP1 PUSH1 0x1 ADD SWAP1 PUSH1 0x20 ADD DUP1 DUP4 GT PUSH2 0x710 JUMPI DUP3 SWAP1 SUB PUSH1 0x1F AND DUP3 ADD SWAP2 JUMPDEST POP POP POP POP POP SWAP1 POP SWAP1 JUMP JUMPDEST PUSH1 0x0 PUSH2 0x742 DUP3 PUSH2 0x1538 JUMP JUMPDEST PUSH1 0x4 PUSH1 0x0 DUP4 DUP2 MSTORE PUSH1 0x20 ADD SWAP1 DUP2 MSTORE PUSH1 0x20 ADD PUSH1 0x0 KECCAK256 PUSH1 0x0 SWAP1 SLOAD SWAP1 PUSH2 0x100 EXP SWAP1 DIV PUSH20 0xFFFFFFFFFFFFFFFFFFFFFFFFFFFFFFFFFFFFFFFF AND SWAP1 POP SWAP2 SWAP1 POP JUMP JUMPDEST PUSH1 0x0 PUSH2 0x788 DUP3 PUSH2 0x9DA JUMP JUMPDEST SWAP1 POP DUP1 PUSH20 0xFFFFFFFFFFFFFFFFFFFFFFFFFFFFFFFFFFFFFFFF AND DUP4 PUSH20 0xFFFFFFFFFFFFFFFFFFFFFFFFFFFFFFFFFFFFFFFF AND SUB PUSH2 0x7F8 JUMPI PUSH1 0x40 MLOAD PUSH32 0x8C379A000000000000000000000000000000000000000000000000000000000 DUP2 MSTORE PUSH1 0x4 ADD PUSH2 0x7EF SWAP1 PUSH2 0x2F20 JUMP JUMPDEST PUSH1 0x40 MLOAD DUP1 SWAP2 SUB SWAP1 REVERT JUMPDEST DUP1 PUSH20 0xFFFFFFFFFFFFFFFFFFFFFFFFFFFFFFFFFFFFFFFF AND PUSH2 0x817 PUSH2 0x1583 JUMP JUMPDEST PUSH20 0xFFFFFFFFFFFFFFFFFFFFFFFFFFFFFFFFFFFFFFFF AND EQ DUP1 PUSH2 0x846 JUMPI POP PUSH2 0x845 DUP2 PUSH2 0x840 PUSH2 0x1583 JUMP JUMPDEST PUSH2 0x12DA JUMP JUMPDEST JUMPDEST PUSH2 0x885 JUMPI PUSH1 0x40 MLOAD PUSH32 0x8C379A000000000000000000000000000000000000000000000000000000000 DUP2 MSTORE PUSH1 0x4 ADD PUSH2 0x87C SWAP1 PUSH2 0x2FB2 JUMP JUMPDEST PUSH1 0x40 MLOAD DUP1 SWAP2 SUB SWAP1 REVERT JUMPDEST PUSH2 0x88F DUP4 DUP4 PUSH2 0x1592 JUMP JUMPDEST POP POP POP JUMP JUMPDEST PUSH1 0x0 PUSH2 0x8A0 PUSH1 0x8 PUSH2 0x164B JUMP JUMPDEST SWAP1 POP SWAP1 JUMP JUMPDEST PUSH2 0x8B6 PUSH2 0x8B0 PUSH2 0x1583 JUMP JUMPDEST DUP3 PUSH2 0x1659 JUMP JUMPDEST PUSH2 0x8F5 JUMPI PUSH1 0x40 MLOAD PUSH32 0x8C379A000000000000000000000000000000000000000000000000000000000 DUP2 MSTORE PUSH1 0x4 ADD PUSH2 0x8EC SWAP1 PUSH2 0x3044 JUMP JUMPDEST PUSH1 0x40 MLOAD DUP1 SWAP2 SUB SWAP1 REVERT JUMPDEST PUSH2 0x900 DUP4 DUP4 DUP4 PUSH2 0x16EE JUMP JUMPDEST POP POP POP JUMP JUMPDEST PUSH2 0x90D PUSH2 0x19E7 JUMP JUMPDEST PUSH1 0x0 PUSH2 0x917 PUSH2 0xB77 JUMP JUMPDEST PUSH20 0xFFFFFFFFFFFFFFFFFFFFFFFFFFFFFFFFFFFFFFFF AND SELFBALANCE PUSH1 0x40 MLOAD PUSH2 0x93A SWAP1 PUSH2 0x3095 JUMP JUMPDEST PUSH1 0x0 PUSH1 0x40 MLOAD DUP1 DUP4 SUB DUP2 DUP6 DUP8 GAS CALL SWAP3 POP POP POP RETURNDATASIZE DUP1 PUSH1 0x0 DUP2 EQ PUSH2 0x977 JUMPI PUSH1 0x40 MLOAD SWAP2 POP PUSH1 0x1F NOT PUSH1 0x3F RETURNDATASIZE ADD AND DUP3 ADD PUSH1 0x40 MSTORE RETURNDATASIZE DUP3 MSTORE RETURNDATASIZE PUSH1 0x0 PUSH1 0x20 DUP5 ADD RETURNDATACOPY PUSH2 0x97C JUMP JUMPDEST PUSH1 0x60 SWAP2 POP JUMPDEST POP POP SWAP1 POP DUP1 PUSH2 0x98A JUMPI PUSH1 0x0 DUP1 REVERT JUMPDEST POP JUMP JUMPDEST PUSH2 0x9A8 DUP4 DUP4 DUP4 PUSH1 0x40 MLOAD DUP1 PUSH1 0x20 ADD PUSH1 0x40 MSTORE DUP1 PUSH1 0x0 DUP2 MSTORE POP PUSH2 0xC67 JUMP JUMPDEST POP POP POP JUMP JUMPDEST PUSH2 0x9B5 PUSH2 0x19E7 JUMP JUMPDEST DUP1 PUSH1 0xE SWAP1 DUP2 PUSH2 0x9C4 SWAP2 SWAP1 PUSH2 0x3256 JUMP JUMPDEST POP POP JUMP JUMPDEST PUSH1 0x0 PUSH2 0x9D3 DUP3 PUSH2 0x1474 JUMP JUMPDEST SWAP1 POP SWAP2 SWAP1 POP JUMP JUMPDEST PUSH1 0x0 DUP1 PUSH2 0x9E6 DUP4 PUSH2 0x1A65 JUMP JUMPDEST SWAP1 POP PUSH1 0x0 PUSH20 0xFFFFFFFFFFFFFFFFFFFFFFFFFFFFFFFFFFFFFFFF AND DUP2 PUSH20 0xFFFFFFFFFFFFFFFFFFFFFFFFFFFFFFFFFFFFFFFF AND SUB PUSH2 0xA57 JUMPI PUSH1 0x40 MLOAD PUSH32 0x8C379A000000000000000000000000000000000000000000000000000000000 DUP2 MSTORE PUSH1 0x4 ADD PUSH2 0xA4E SWAP1 PUSH2 0x3374 JUMP JUMPDEST PUSH1 0x40 MLOAD DUP1 SWAP2 SUB SWAP1 REVERT JUMPDEST DUP1 SWAP2 POP POP SWAP2 SWAP1 POP JUMP JUMPDEST PUSH1 0x0 DUP1 PUSH20 0xFFFFFFFFFFFFFFFFFFFFFFFFFFFFFFFFFFFFFFFF AND DUP3 PUSH20 0xFFFFFFFFFFFFFFFFFFFFFFFFFFFFFFFFFFFFFFFF AND SUB PUSH2 0xAD0 JUMPI PUSH1 0x40 MLOAD PUSH32 0x8C379A000000000000000000000000000000000000000000000000000000000 DUP2 MSTORE PUSH1 0x4 ADD PUSH2 0xAC7 SWAP1 PUSH2 0x3406 JUMP JUMPDEST PUSH1 0x40 MLOAD DUP1 SWAP2 SUB SWAP1 REVERT JUMPDEST PUSH1 0x3 PUSH1 0x0 DUP4 PUSH20 0xFFFFFFFFFFFFFFFFFFFFFFFFFFFFFFFFFFFFFFFF AND PUSH20 0xFFFFFFFFFFFFFFFFFFFFFFFFFFFFFFFFFFFFFFFF AND DUP2 MSTORE PUSH1 0x20 ADD SWAP1 DUP2 MSTORE PUSH1 0x20 ADD PUSH1 0x0 KECCAK256 SLOAD SWAP1 POP SWAP2 SWAP1 POP JUMP JUMPDEST PUSH2 0xB1F PUSH2 0x19E7 JUMP JUMPDEST PUSH2 0xB29 PUSH1 0x0 PUSH2 0x1AA2 JUMP JUMPDEST JUMP JUMPDEST PUSH2 0xB33 PUSH2 0x19E7 JUMP JUMPDEST DUP1 PUSH1 0xC PUSH1 0x0 PUSH2 0x100 EXP DUP2 SLOAD DUP2 PUSH20 0xFFFFFFFFFFFFFFFFFFFFFFFFFFFFFFFFFFFFFFFF MUL NOT AND SWAP1 DUP4 PUSH20 0xFFFFFFFFFFFFFFFFFFFFFFFFFFFFFFFFFFFFFFFF AND MUL OR SWAP1 SSTORE POP POP JUMP JUMPDEST PUSH1 0x0 PUSH1 0x6 PUSH1 0x0 SWAP1 SLOAD SWAP1 PUSH2 0x100 EXP SWAP1 DIV PUSH20 0xFFFFFFFFFFFFFFFFFFFFFFFFFFFFFFFFFFFFFFFF AND SWAP1 POP SWAP1 JUMP JUMPDEST PUSH2 0xBA9 PUSH2 0x19E7 JUMP JUMPDEST DUP2 DUP2 PUSH1 0xD SWAP2 DUP3 PUSH2 0xBBA SWAP3 SWAP2 SWAP1 PUSH2 0x3431 JUMP JUMPDEST POP POP POP JUMP JUMPDEST PUSH1 0x60 PUSH1 0x1 DUP1 SLOAD PUSH2 0xBCE SWAP1 PUSH2 0x2E7D JUMP JUMPDEST DUP1 PUSH1 0x1F ADD PUSH1 0x20 DUP1 SWAP2 DIV MUL PUSH1 0x20 ADD PUSH1 0x40 MLOAD SWAP1 DUP2 ADD PUSH1 0x40 MSTORE DUP1 SWAP3 SWAP2 SWAP1 DUP2 DUP2 MSTORE PUSH1 0x20 ADD DUP3 DUP1 SLOAD PUSH2 0xBFA SWAP1 PUSH2 0x2E7D JUMP JUMPDEST DUP1 ISZERO PUSH2 0xC47 JUMPI DUP1 PUSH1 0x1F LT PUSH2 0xC1C JUMPI PUSH2 0x100 DUP1 DUP4 SLOAD DIV MUL DUP4 MSTORE SWAP2 PUSH1 0x20 ADD SWAP2 PUSH2 0xC47 JUMP JUMPDEST DUP3 ADD SWAP2 SWAP1 PUSH1 0x0 MSTORE PUSH1 0x20 PUSH1 0x0 KECCAK256 SWAP1 JUMPDEST DUP2 SLOAD DUP2 MSTORE SWAP1 PUSH1 0x1 ADD SWAP1 PUSH1 0x20 ADD DUP1 DUP4 GT PUSH2 0xC2A JUMPI DUP3 SWAP1 SUB PUSH1 0x1F AND DUP3 ADD SWAP2 JUMPDEST POP POP POP POP POP SWAP1 POP SWAP1 JUMP JUMPDEST PUSH2 0xC63 PUSH2 0xC5C PUSH2 0x1583 JUMP JUMPDEST DUP4 DUP4 PUSH2 0x1B68 JUMP JUMPDEST POP POP JUMP JUMPDEST PUSH2 0xC78 PUSH2 0xC72 PUSH2 0x1583 JUMP JUMPDEST DUP4 PUSH2 0x1659 JUMP JUMPDEST PUSH2 0xCB7 JUMPI PUSH1 0x40 MLOAD PUSH32 0x8C379A000000000000000000000000000000000000000000000000000000000 DUP2 MSTORE PUSH1 0x4 ADD PUSH2 0xCAE SWAP1 PUSH2 0x3044 JUMP JUMPDEST PUSH1 0x40 MLOAD DUP1 SWAP2 SUB SWAP1 REVERT JUMPDEST PUSH2 0xCC3 DUP5 DUP5 DUP5 DUP5 PUSH2 0x1CD4 JUMP JUMPDEST POP POP POP POP JUMP JUMPDEST PUSH1 0x0 PUSH2 0xCD3 PUSH2 0x19E7 JUMP JUMPDEST PUSH2 0xCDC DUP4 PUSH2 0x1D30 JUMP JUMPDEST PUSH2 0xD1B JUMPI PUSH1 0x40 MLOAD PUSH32 0x8C379A000000000000000000000000000000000000000000000000000000000 DUP2 MSTORE PUSH1 0x4 ADD PUSH2 0xD12 SWAP1 PUSH2 0x354D JUMP JUMPDEST PUSH1 0x40 MLOAD DUP1 SWAP2 SUB SWAP1 REVERT JUMPDEST PUSH2 0xD24 DUP3 PUSH2 0x1D30 JUMP JUMPDEST PUSH2 0xD63 JUMPI PUSH1 0x40 MLOAD PUSH32 0x8C379A000000000000000000000000000000000000000000000000000000000 DUP2 MSTORE PUSH1 0x4 ADD PUSH2 0xD5A SWAP1 PUSH2 0x354D JUMP JUMPDEST PUSH1 0x40 MLOAD DUP1 SWAP2 SUB SWAP1 REVERT JUMPDEST PUSH1 0x0 PUSH1 0xA PUSH1 0x0 DUP6 DUP2 MSTORE PUSH1 0x20 ADD SWAP1 DUP2 MSTORE PUSH1 0x20 ADD PUSH1 0x0 KECCAK256 SWAP1 POP PUSH1 0x0 PUSH1 0xA PUSH1 0x0 DUP6 DUP2 MSTORE PUSH1 0x20 ADD SWAP1 DUP2 MSTORE PUSH1 0x20 ADD PUSH1 0x0 KECCAK256 SWAP1 POP PUSH1 0x9 PUSH1 0x0 SWAP1 SLOAD SWAP1 PUSH2 0x100 EXP SWAP1 DIV PUSH1 0xFF AND PUSH1 0xFF AND DUP3 PUSH1 0x4 ADD PUSH1 0x0 SWAP1 SLOAD SWAP1 PUSH2 0x100 EXP SWAP1 DIV PUSH1 0xFF AND PUSH1 0xFF AND LT ISZERO PUSH2 0xDFA JUMPI PUSH1 0x40 MLOAD PUSH32 0x8C379A000000000000000000000000000000000000000000000000000000000 DUP2 MSTORE PUSH1 0x4 ADD PUSH2 0xDF1 SWAP1 PUSH2 0x35B9 JUMP JUMPDEST PUSH1 0x40 MLOAD DUP1 SWAP2 SUB SWAP1 REVERT JUMPDEST PUSH1 0x9 PUSH1 0x0 SWAP1 SLOAD SWAP1 PUSH2 0x100 EXP SWAP1 DIV PUSH1 0xFF AND PUSH1 0xFF AND DUP2 PUSH1 0x4 ADD PUSH1 0x0 SWAP1 SLOAD SWAP1 PUSH2 0x100 EXP SWAP1 DIV PUSH1 0xFF AND PUSH1 0xFF AND LT ISZERO PUSH2 0xE63 JUMPI PUSH1 0x40 MLOAD PUSH32 0x8C379A000000000000000000000000000000000000000000000000000000000 DUP2 MSTORE PUSH1 0x4 ADD PUSH2 0xE5A SWAP1 PUSH2 0x35B9 JUMP JUMPDEST PUSH1 0x40 MLOAD DUP1 SWAP2 SUB SWAP1 REVERT JUMPDEST PUSH1 0x0 PUSH1 0x1 PUSH1 0x2 DUP4 PUSH1 0x3 ADD SLOAD DUP6 PUSH1 0x3 ADD SLOAD PUSH2 0xE7D SWAP2 SWAP1 PUSH2 0x3608 JUMP JUMPDEST PUSH2 0xE87 SWAP2 SWAP1 PUSH2 0x366B JUMP JUMPDEST PUSH2 0xE91 SWAP2 SWAP1 PUSH2 0x3608 JUMP JUMPDEST SWAP1 POP PUSH1 0x0 PUSH1 0xC PUSH1 0x0 SWAP1 SLOAD SWAP1 PUSH2 0x100 EXP SWAP1 DIV PUSH20 0xFFFFFFFFFFFFFFFFFFFFFFFFFFFFFFFFFFFFFFFF AND PUSH20 0xFFFFFFFFFFFFFFFFFFFFFFFFFFFFFFFFFFFFFFFF AND PUSH4 0xA7CC0F50 DUP6 PUSH1 0x2 ADD SLOAD DUP6 PUSH1 0x2 ADD SLOAD DUP6 PUSH1 0x40 MLOAD DUP5 PUSH4 0xFFFFFFFF AND PUSH1 0xE0 SHL DUP2 MSTORE PUSH1 0x4 ADD PUSH2 0xEFC SWAP4 SWAP3 SWAP2 SWAP1 PUSH2 0x369C JUMP JUMPDEST PUSH1 0x20 PUSH1 0x40 MLOAD DUP1 DUP4 SUB DUP2 PUSH1 0x0 DUP8 GAS CALL ISZERO DUP1 ISZERO PUSH2 0xF1B JUMPI RETURNDATASIZE PUSH1 0x0 DUP1 RETURNDATACOPY RETURNDATASIZE PUSH1 0x0 REVERT JUMPDEST POP POP POP POP PUSH1 0x40 MLOAD RETURNDATASIZE PUSH1 0x1F NOT PUSH1 0x1F DUP3 ADD AND DUP3 ADD DUP1 PUSH1 0x40 MSTORE POP DUP2 ADD SWAP1 PUSH2 0xF3F SWAP2 SWAP1 PUSH2 0x36E8 JUMP JUMPDEST SWAP1 POP PUSH2 0xF4F DUP8 DUP8 DUP5 DUP5 PUSH1 0x1 PUSH2 0x1D71 JUMP JUMPDEST SWAP5 POP PUSH1 0x9 PUSH1 0x0 SWAP1 SLOAD SWAP1 PUSH2 0x100 EXP SWAP1 DIV PUSH1 0xFF AND DUP5 PUSH1 0x4 ADD PUSH1 0x0 DUP3 DUP3 DUP3 SWAP1 SLOAD SWAP1 PUSH2 0x100 EXP SWAP1 DIV PUSH1 0xFF AND PUSH2 0xF80 SWAP2 SWAP1 PUSH2 0x3715 JUMP JUMPDEST SWAP3 POP PUSH2 0x100 EXP DUP2 SLOAD DUP2 PUSH1 0xFF MUL NOT AND SWAP1 DUP4 PUSH1 0xFF AND MUL OR SWAP1 SSTORE POP PUSH1 0x9 PUSH1 0x0 SWAP1 SLOAD SWAP1 PUSH2 0x100 EXP SWAP1 DIV PUSH1 0xFF AND DUP4 PUSH1 0x4 ADD PUSH1 0x0 DUP3 DUP3 DUP3 SWAP1 SLOAD SWAP1 PUSH2 0x100 EXP SWAP1 DIV PUSH1 0xFF AND PUSH2 0xFC7 SWAP2 SWAP1 PUSH2 0x3715 JUMP JUMPDEST SWAP3 POP PUSH2 0x100 EXP DUP2 SLOAD DUP2 PUSH1 0xFF MUL NOT AND SWAP1 DUP4 PUSH1 0xFF AND MUL OR SWAP1 SSTORE POP POP POP POP POP SWAP3 SWAP2 POP POP JUMP JUMPDEST PUSH1 0x0 PUSH2 0xFF3 PUSH2 0x19E7 JUMP JUMPDEST PUSH2 0x1002 PUSH1 0x0 DUP1 PUSH1 0x0 DUP7 DUP7 PUSH2 0x1D71 JUMP JUMPDEST SWAP1 POP SWAP3 SWAP2 POP POP JUMP JUMPDEST PUSH2 0x1012 PUSH2 0x19E7 JUMP JUMPDEST PUSH2 0x101B DUP3 PUSH2 0x1D30 JUMP JUMPDEST PUSH2 0x105A JUMPI PUSH1 0x40 MLOAD PUSH32 0x8C379A000000000000000000000000000000000000000000000000000000000 DUP2 MSTORE PUSH1 0x4 ADD PUSH2 0x1051 SWAP1 PUSH2 0x354D JUMP JUMPDEST PUSH1 0x40 MLOAD DUP1 SWAP2 SUB SWAP1 REVERT JUMPDEST PUSH1 0xB PUSH1 0x0 SWAP1 SLOAD SWAP1 PUSH2 0x100 EXP SWAP1 DIV PUSH20 0xFFFFFFFFFFFFFFFFFFFFFFFFFFFFFFFFFFFFFFFF AND PUSH20 0xFFFFFFFFFFFFFFFFFFFFFFFFFFFFFFFFFFFFFFFF AND PUSH4 0xC290D691 DUP3 PUSH1 0x40 MLOAD DUP3 PUSH4 0xFFFFFFFF AND PUSH1 0xE0 SHL DUP2 MSTORE PUSH1 0x4 ADD PUSH2 0x10B5 SWAP2 SWAP1 PUSH2 0x377B JUMP JUMPDEST PUSH1 0x0 PUSH1 0x40 MLOAD DUP1 DUP4 SUB DUP2 PUSH1 0x0 DUP8 DUP1 EXTCODESIZE ISZERO DUP1 ISZERO PUSH2 0x10CF JUMPI PUSH1 0x0 DUP1 REVERT JUMPDEST POP GAS CALL ISZERO DUP1 ISZERO PUSH2 0x10E3 JUMPI RETURNDATASIZE PUSH1 0x0 DUP1 RETURNDATACOPY RETURNDATASIZE PUSH1 0x0 REVERT JUMPDEST POP POP POP POP DUP1 PUSH1 0xA PUSH1 0x0 DUP5 DUP2 MSTORE PUSH1 0x20 ADD SWAP1 DUP2 MSTORE PUSH1 0x20 ADD PUSH1 0x0 KECCAK256 PUSH1 0x4 ADD PUSH1 0x0 DUP3 DUP3 DUP3 SWAP1 SLOAD SWAP1 PUSH2 0x100 EXP SWAP1 DIV PUSH1 0xFF AND PUSH2 0x1119 SWAP2 SWAP1 PUSH2 0x3796 JUMP JUMPDEST SWAP3 POP PUSH2 0x100 EXP DUP2 SLOAD DUP2 PUSH1 0xFF MUL NOT AND SWAP1 DUP4 PUSH1 0xFF AND MUL OR SWAP1 SSTORE POP PUSH32 0xF4D8C9183C1AE5F9D1DDE6EDF0D08AB75F4E38C8896340F590B8A8E20ACEA9B6 DUP3 DUP3 PUSH1 0x40 MLOAD PUSH2 0x1162 SWAP3 SWAP2 SWAP1 PUSH2 0x37DA JUMP JUMPDEST PUSH1 0x40 MLOAD DUP1 SWAP2 SUB SWAP1 LOG1 POP POP JUMP JUMPDEST PUSH1 0x60 PUSH2 0x1179 DUP3 PUSH2 0x1D30 JUMP JUMPDEST PUSH2 0x11B8 JUMPI PUSH1 0x40 MLOAD PUSH32 0x8C379A000000000000000000000000000000000000000000000000000000000 DUP2 MSTORE PUSH1 0x4 ADD PUSH2 0x11AF SWAP1 PUSH2 0x3875 JUMP JUMPDEST PUSH1 0x40 MLOAD DUP1 SWAP2 SUB SWAP1 REVERT JUMPDEST PUSH1 0xE PUSH2 0x11C3 DUP4 PUSH2 0x1E74 JUMP JUMPDEST PUSH1 0xF PUSH1 0x40 MLOAD PUSH1 0x20 ADD PUSH2 0x11D7 SWAP4 SWAP3 SWAP2 SWAP1 PUSH2 0x3954 JUMP JUMPDEST PUSH1 0x40 MLOAD PUSH1 0x20 DUP2 DUP4 SUB SUB DUP2 MSTORE SWAP1 PUSH1 0x40 MSTORE SWAP1 POP SWAP2 SWAP1 POP JUMP JUMPDEST PUSH1 0x0 PUSH1 0x7 PUSH1 0x0 SWAP1 SLOAD SWAP1 PUSH2 0x100 EXP SWAP1 DIV PUSH20 0xFFFFFFFFFFFFFFFFFFFFFFFFFFFFFFFFFFFFFFFF AND SWAP1 POP SWAP1 JUMP JUMPDEST PUSH2 0x121F PUSH2 0x19E7 JUMP JUMPDEST POP JUMP JUMPDEST PUSH2 0x122A PUSH2 0x19E7 JUMP JUMPDEST DUP1 PUSH1 0x9 PUSH1 0x0 PUSH2 0x100 EXP DUP2 SLOAD DUP2 PUSH1 0xFF MUL NOT AND SWAP1 DUP4 PUSH1 0xFF AND MUL OR SWAP1 SSTORE POP POP JUMP JUMPDEST PUSH1 0x60 PUSH1 0xD DUP1 SLOAD PUSH2 0x1257 SWAP1 PUSH2 0x2E7D JUMP JUMPDEST DUP1 PUSH1 0x1F ADD PUSH1 0x20 DUP1 SWAP2 DIV MUL PUSH1 0x20 ADD PUSH1 0x40 MLOAD SWAP1 DUP2 ADD PUSH1 0x40 MSTORE DUP1 SWAP3 SWAP2 SWAP1 DUP2 DUP2 MSTORE PUSH1 0x20 ADD DUP3 DUP1 SLOAD PUSH2 0x1283 SWAP1 PUSH2 0x2E7D JUMP JUMPDEST DUP1 ISZERO PUSH2 0x12D0 JUMPI DUP1 PUSH1 0x1F LT PUSH2 0x12A5 JUMPI PUSH2 0x100 DUP1 DUP4 SLOAD DIV MUL DUP4 MSTORE SWAP2 PUSH1 0x20 ADD SWAP2 PUSH2 0x12D0 JUMP JUMPDEST DUP3 ADD SWAP2 SWAP1 PUSH1 0x0 MSTORE PUSH1 0x20 PUSH1 0x0 KECCAK256 SWAP1 JUMPDEST DUP2 SLOAD DUP2 MSTORE SWAP1 PUSH1 0x1 ADD SWAP1 PUSH1 0x20 ADD DUP1 DUP4 GT PUSH2 0x12B3 JUMPI DUP3 SWAP1 SUB PUSH1 0x1F AND DUP3 ADD SWAP2 JUMPDEST POP POP POP POP POP SWAP1 POP SWAP1 JUMP JUMPDEST PUSH1 0x0 PUSH1 0x5 PUSH1 0x0 DUP5 PUSH20 0xFFFFFFFFFFFFFFFFFFFFFFFFFFFFFFFFFFFFFFFF AND PUSH20 0xFFFFFFFFFFFFFFFFFFFFFFFFFFFFFFFFFFFFFFFF AND DUP2 MSTORE PUSH1 0x20 ADD SWAP1 DUP2 MSTORE PUSH1 0x20 ADD PUSH1 0x0 KECCAK256 PUSH1 0x0 DUP4 PUSH20 0xFFFFFFFFFFFFFFFFFFFFFFFFFFFFFFFFFFFFFFFF AND PUSH20 0xFFFFFFFFFFFFFFFFFFFFFFFFFFFFFFFFFFFFFFFF AND DUP2 MSTORE PUSH1 0x20 ADD SWAP1 DUP2 MSTORE PUSH1 0x20 ADD PUSH1 0x0 KECCAK256 PUSH1 0x0 SWAP1 SLOAD SWAP1 PUSH2 0x100 EXP SWAP1 DIV PUSH1 0xFF AND SWAP1 POP SWAP3 SWAP2 POP POP JUMP JUMPDEST PUSH2 0x1376 PUSH2 0x19E7 JUMP JUMPDEST PUSH1 0x0 PUSH20 0xFFFFFFFFFFFFFFFFFFFFFFFFFFFFFFFFFFFFFFFF AND DUP2 PUSH20 0xFFFFFFFFFFFFFFFFFFFFFFFFFFFFFFFFFFFFFFFF AND SUB PUSH2 0x13E5 JUMPI PUSH1 0x40 MLOAD PUSH32 0x8C379A000000000000000000000000000000000000000000000000000000000 DUP2 MSTORE PUSH1 0x4 ADD PUSH2 0x13DC SWAP1 PUSH2 0x39F7 JUMP JUMPDEST PUSH1 0x40 MLOAD DUP1 SWAP2 SUB SWAP1 REVERT JUMPDEST PUSH2 0x13EE DUP2 PUSH2 0x1AA2 JUMP JUMPDEST POP JUMP JUMPDEST PUSH2 0x13F9 PUSH2 0x19E7 JUMP JUMPDEST DUP1 PUSH1 0xB PUSH1 0x0 PUSH2 0x100 EXP DUP2 SLOAD DUP2 PUSH20 0xFFFFFFFFFFFFFFFFFFFFFFFFFFFFFFFFFFFFFFFF MUL NOT AND SWAP1 DUP4 PUSH20 0xFFFFFFFFFFFFFFFFFFFFFFFFFFFFFFFFFFFFFFFF AND MUL OR SWAP1 SSTORE POP POP JUMP JUMPDEST PUSH1 0x0 PUSH1 0x14 PUSH1 0x0 CALLDATASIZE SWAP1 POP LT ISZERO DUP1 ISZERO PUSH2 0x1459 JUMPI POP PUSH2 0x1458 CALLER PUSH2 0x9C8 JUMP JUMPDEST JUMPDEST ISZERO PUSH2 0x146D JUMPI PUSH1 0x14 CALLDATASIZE SUB CALLDATALOAD PUSH1 0x60 SHR SWAP1 POP PUSH2 0x1471 JUMP JUMPDEST CALLER SWAP1 POP JUMPDEST SWAP1 JUMP JUMPDEST PUSH1 0x0 PUSH1 0x7 PUSH1 0x0 SWAP1 SLOAD SWAP1 PUSH2 0x100 EXP SWAP1 DIV PUSH20 0xFFFFFFFFFFFFFFFFFFFFFFFFFFFFFFFFFFFFFFFF AND PUSH20 0xFFFFFFFFFFFFFFFFFFFFFFFFFFFFFFFFFFFFFFFF AND DUP3 PUSH20 0xFFFFFFFFFFFFFFFFFFFFFFFFFFFFFFFFFFFFFFFF AND EQ SWAP1 POP SWAP2 SWAP1 POP JUMP JUMPDEST PUSH1 0x0 PUSH32 0x1FFC9A700000000000000000000000000000000000000000000000000000000 PUSH28 0xFFFFFFFFFFFFFFFFFFFFFFFFFFFFFFFFFFFFFFFFFFFFFFFFFFFFFFFF NOT AND DUP3 PUSH28 0xFFFFFFFFFFFFFFFFFFFFFFFFFFFFFFFFFFFFFFFFFFFFFFFFFFFFFFFF NOT AND EQ SWAP1 POP SWAP2 SWAP1 POP JUMP JUMPDEST PUSH2 0x1541 DUP2 PUSH2 0x1D30 JUMP JUMPDEST PUSH2 0x1580 JUMPI PUSH1 0x40 MLOAD PUSH32 0x8C379A000000000000000000000000000000000000000000000000000000000 DUP2 MSTORE PUSH1 0x4 ADD PUSH2 0x1577 SWAP1 PUSH2 0x3374 JUMP JUMPDEST PUSH1 0x40 MLOAD DUP1 SWAP2 SUB SWAP1 REVERT JUMPDEST POP JUMP JUMPDEST PUSH1 0x0 PUSH2 0x158D PUSH2 0x143D JUMP JUMPDEST SWAP1 POP SWAP1 JUMP JUMPDEST DUP2 PUSH1 0x4 PUSH1 0x0 DUP4 DUP2 MSTORE PUSH1 0x20 ADD SWAP1 DUP2 MSTORE PUSH1 0x20 ADD PUSH1 0x0 KECCAK256 PUSH1 0x0 PUSH2 0x100 EXP DUP2 SLOAD DUP2 PUSH20 0xFFFFFFFFFFFFFFFFFFFFFFFFFFFFFFFFFFFFFFFF MUL NOT AND SWAP1 DUP4 PUSH20 0xFFFFFFFFFFFFFFFFFFFFFFFFFFFFFFFFFFFFFFFF AND MUL OR SWAP1 SSTORE POP DUP1 DUP3 PUSH20 0xFFFFFFFFFFFFFFFFFFFFFFFFFFFFFFFFFFFFFFFF AND PUSH2 0x1605 DUP4 PUSH2 0x9DA JUMP JUMPDEST PUSH20 0xFFFFFFFFFFFFFFFFFFFFFFFFFFFFFFFFFFFFFFFF AND PUSH32 0x8C5BE1E5EBEC7D5BD14F71427D1E84F3DD0314C0F7B2291E5B200AC8C7C3B925 PUSH1 0x40 MLOAD PUSH1 0x40 MLOAD DUP1 SWAP2 SUB SWAP1 LOG4 POP POP JUMP JUMPDEST PUSH1 0x0 DUP2 PUSH1 0x0 ADD SLOAD SWAP1 POP SWAP2 SWAP1 POP JUMP JUMPDEST PUSH1 0x0 DUP1 PUSH2 0x1665 DUP4 PUSH2 0x9DA JUMP JUMPDEST SWAP1 POP DUP1 PUSH20 0xFFFFFFFFFFFFFFFFFFFFFFFFFFFFFFFFFFFFFFFF AND DUP5 PUSH20 0xFFFFFFFFFFFFFFFFFFFFFFFFFFFFFFFFFFFFFFFF AND EQ DUP1 PUSH2 0x16A7 JUMPI POP PUSH2 0x16A6 DUP2 DUP6 PUSH2 0x12DA JUMP JUMPDEST JUMPDEST DUP1 PUSH2 0x16E5 JUMPI POP DUP4 PUSH20 0xFFFFFFFFFFFFFFFFFFFFFFFFFFFFFFFFFFFFFFFF AND PUSH2 0x16CD DUP5 PUSH2 0x737 JUMP JUMPDEST PUSH20 0xFFFFFFFFFFFFFFFFFFFFFFFFFFFFFFFFFFFFFFFF AND EQ JUMPDEST SWAP2 POP POP SWAP3 SWAP2 POP POP JUMP JUMPDEST DUP3 PUSH20 0xFFFFFFFFFFFFFFFFFFFFFFFFFFFFFFFFFFFFFFFF AND PUSH2 0x170E DUP3 PUSH2 0x9DA JUMP JUMPDEST PUSH20 0xFFFFFFFFFFFFFFFFFFFFFFFFFFFFFFFFFFFFFFFF AND EQ PUSH2 0x1764 JUMPI PUSH1 0x40 MLOAD PUSH32 0x8C379A000000000000000000000000000000000000000000000000000000000 DUP2 MSTORE PUSH1 0x4 ADD PUSH2 0x175B SWAP1 PUSH2 0x3A89 JUMP JUMPDEST PUSH1 0x40 MLOAD DUP1 SWAP2 SUB SWAP1 REVERT JUMPDEST PUSH1 0x0 PUSH20 0xFFFFFFFFFFFFFFFFFFFFFFFFFFFFFFFFFFFFFFFF AND DUP3 PUSH20 0xFFFFFFFFFFFFFFFFFFFFFFFFFFFFFFFFFFFFFFFF AND SUB PUSH2 0x17D3 JUMPI PUSH1 0x40 MLOAD PUSH32 0x8C379A000000000000000000000000000000000000000000000000000000000 DUP2 MSTORE PUSH1 0x4 ADD PUSH2 0x17CA SWAP1 PUSH2 0x3B1B JUMP JUMPDEST PUSH1 0x40 MLOAD DUP1 SWAP2 SUB SWAP1 REVERT JUMPDEST PUSH2 0x17E0 DUP4 DUP4 DUP4 PUSH1 0x1 PUSH2 0x1F42 JUMP JUMPDEST DUP3 PUSH20 0xFFFFFFFFFFFFFFFFFFFFFFFFFFFFFFFFFFFFFFFF AND PUSH2 0x1800 DUP3 PUSH2 0x9DA JUMP JUMPDEST PUSH20 0xFFFFFFFFFFFFFFFFFFFFFFFFFFFFFFFFFFFFFFFF AND EQ PUSH2 0x1856 JUMPI PUSH1 0x40 MLOAD PUSH32 0x8C379A000000000000000000000000000000000000000000000000000000000 DUP2 MSTORE PUSH1 0x4 ADD PUSH2 0x184D SWAP1 PUSH2 0x3A89 JUMP JUMPDEST PUSH1 0x40 MLOAD DUP1 SWAP2 SUB SWAP1 REVERT JUMPDEST PUSH1 0x4 PUSH1 0x0 DUP3 DUP2 MSTORE PUSH1 0x20 ADD SWAP1 DUP2 MSTORE PUSH1 0x20 ADD PUSH1 0x0 KECCAK256 PUSH1 0x0 PUSH2 0x100 EXP DUP2 SLOAD SWAP1 PUSH20 0xFFFFFFFFFFFFFFFFFFFFFFFFFFFFFFFFFFFFFFFF MUL NOT AND SWAP1 SSTORE PUSH1 0x1 PUSH1 0x3 PUSH1 0x0 DUP6 PUSH20 0xFFFFFFFFFFFFFFFFFFFFFFFFFFFFFFFFFFFFFFFF AND PUSH20 0xFFFFFFFFFFFFFFFFFFFFFFFFFFFFFFFFFFFFFFFF AND DUP2 MSTORE PUSH1 0x20 ADD SWAP1 DUP2 MSTORE PUSH1 0x20 ADD PUSH1 0x0 KECCAK256 PUSH1 0x0 DUP3 DUP3 SLOAD SUB SWAP3 POP POP DUP2 SWAP1 SSTORE POP PUSH1 0x1 PUSH1 0x3 PUSH1 0x0 DUP5 PUSH20 0xFFFFFFFFFFFFFFFFFFFFFFFFFFFFFFFFFFFFFFFF AND PUSH20 0xFFFFFFFFFFFFFFFFFFFFFFFFFFFFFFFFFFFFFFFF AND DUP2 MSTORE PUSH1 0x20 ADD SWAP1 DUP2 MSTORE PUSH1 0x20 ADD PUSH1 0x0 KECCAK256 PUSH1 0x0 DUP3 DUP3 SLOAD ADD SWAP3 POP POP DUP2 SWAP1 SSTORE POP DUP2 PUSH1 0x2 PUSH1 0x0 DUP4 DUP2 MSTORE PUSH1 0x20 ADD SWAP1 DUP2 MSTORE PUSH1 0x20 ADD PUSH1 0x0 KECCAK256 PUSH1 0x0 PUSH2 0x100 EXP DUP2 SLOAD DUP2 PUSH20 0xFFFFFFFFFFFFFFFFFFFFFFFFFFFFFFFFFFFFFFFF MUL NOT AND SWAP1 DUP4 PUSH20 0xFFFFFFFFFFFFFFFFFFFFFFFFFFFFFFFFFFFFFFFF AND MUL OR SWAP1 SSTORE POP DUP1 DUP3 PUSH20 0xFFFFFFFFFFFFFFFFFFFFFFFFFFFFFFFFFFFFFFFF AND DUP5 PUSH20 0xFFFFFFFFFFFFFFFFFFFFFFFFFFFFFFFFFFFFFFFF AND PUSH32 0xDDF252AD1BE2C89B69C2B068FC378DAA952BA7F163C4A11628F55A4DF523B3EF PUSH1 0x40 MLOAD PUSH1 0x40 MLOAD DUP1 SWAP2 SUB SWAP1 LOG4 PUSH2 0x19E2 DUP4 DUP4 DUP4 PUSH1 0x1 PUSH2 0x2068 JUMP JUMPDEST POP POP POP JUMP JUMPDEST PUSH2 0x19EF PUSH2 0x1583 JUMP JUMPDEST PUSH20 0xFFFFFFFFFFFFFFFFFFFFFFFFFFFFFFFFFFFFFFFF AND PUSH2 0x1A0D PUSH2 0xB77 JUMP JUMPDEST PUSH20 0xFFFFFFFFFFFFFFFFFFFFFFFFFFFFFFFFFFFFFFFF AND EQ PUSH2 0x1A63 JUMPI PUSH1 0x40 MLOAD PUSH32 0x8C379A000000000000000000000000000000000000000000000000000000000 DUP2 MSTORE PUSH1 0x4 ADD PUSH2 0x1A5A SWAP1 PUSH2 0x3B87 JUMP JUMPDEST PUSH1 0x40 MLOAD DUP1 SWAP2 SUB SWAP1 REVERT JUMPDEST JUMP JUMPDEST PUSH1 0x0 PUSH1 0x2 PUSH1 0x0 DUP4 DUP2 MSTORE PUSH1 0x20 ADD SWAP1 DUP2 MSTORE PUSH1 0x20 ADD PUSH1 0x0 KECCAK256 PUSH1 0x0 SWAP1 SLOAD SWAP1 PUSH2 0x100 EXP SWAP1 DIV PUSH20 0xFFFFFFFFFFFFFFFFFFFFFFFFFFFFFFFFFFFFFFFF AND SWAP1 POP SWAP2 SWAP1 POP JUMP JUMPDEST PUSH1 0x0 PUSH1 0x6 PUSH1 0x0 SWAP1 SLOAD SWAP1 PUSH2 0x100 EXP SWAP1 DIV PUSH20 0xFFFFFFFFFFFFFFFFFFFFFFFFFFFFFFFFFFFFFFFF AND SWAP1 POP DUP2 PUSH1 0x6 PUSH1 0x0 PUSH2 0x100 EXP DUP2 SLOAD DUP2 PUSH20 0xFFFFFFFFFFFFFFFFFFFFFFFFFFFFFFFFFFFFFFFF MUL NOT AND SWAP1 DUP4 PUSH20 0xFFFFFFFFFFFFFFFFFFFFFFFFFFFFFFFFFFFFFFFF AND MUL OR SWAP1 SSTORE POP DUP2 PUSH20 0xFFFFFFFFFFFFFFFFFFFFFFFFFFFFFFFFFFFFFFFF AND DUP2 PUSH20 0xFFFFFFFFFFFFFFFFFFFFFFFFFFFFFFFFFFFFFFFF AND PUSH32 0x8BE0079C531659141344CD1FD0A4F28419497F9722A3DAAFE3B4186F6B6457E0 PUSH1 0x40 MLOAD PUSH1 0x40 MLOAD DUP1 SWAP2 SUB SWAP1 LOG3 POP POP JUMP JUMPDEST DUP2 PUSH20 0xFFFFFFFFFFFFFFFFFFFFFFFFFFFFFFFFFFFFFFFF AND DUP4 PUSH20 0xFFFFFFFFFFFFFFFFFFFFFFFFFFFFFFFFFFFFFFFF AND SUB PUSH2 0x1BD6 JUMPI PUSH1 0x40 MLOAD PUSH32 0x8C379A000000000000000000000000000000000000000000000000000000000 DUP2 MSTORE PUSH1 0x4 ADD PUSH2 0x1BCD SWAP1 PUSH2 0x3BF3 JUMP JUMPDEST PUSH1 0x40 MLOAD DUP1 SWAP2 SUB SWAP1 REVERT JUMPDEST DUP1 PUSH1 0x5 PUSH1 0x0 DUP6 PUSH20 0xFFFFFFFFFFFFFFFFFFFFFFFFFFFFFFFFFFFFFFFF AND PUSH20 0xFFFFFFFFFFFFFFFFFFFFFFFFFFFFFFFFFFFFFFFF AND DUP2 MSTORE PUSH1 0x20 ADD SWAP1 DUP2 MSTORE PUSH1 0x20 ADD PUSH1 0x0 KECCAK256 PUSH1 0x0 DUP5 PUSH20 0xFFFFFFFFFFFFFFFFFFFFFFFFFFFFFFFFFFFFFFFF AND PUSH20 0xFFFFFFFFFFFFFFFFFFFFFFFFFFFFFFFFFFFFFFFF AND DUP2 MSTORE PUSH1 0x20 ADD SWAP1 DUP2 MSTORE PUSH1 0x20 ADD PUSH1 0x0 KECCAK256 PUSH1 0x0 PUSH2 0x100 EXP DUP2 SLOAD DUP2 PUSH1 0xFF MUL NOT AND SWAP1 DUP4 ISZERO ISZERO MUL OR SWAP1 SSTORE POP DUP2 PUSH20 0xFFFFFFFFFFFFFFFFFFFFFFFFFFFFFFFFFFFFFFFF AND DUP4 PUSH20 0xFFFFFFFFFFFFFFFFFFFFFFFFFFFFFFFFFFFFFFFF AND PUSH32 0x17307EAB39AB6107E8899845AD3D59BD9653F200F220920489CA2B5937696C31 DUP4 PUSH1 0x40 MLOAD PUSH2 0x1CC7 SWAP2 SWAP1 PUSH2 0x26CB JUMP JUMPDEST PUSH1 0x40 MLOAD DUP1 SWAP2 SUB SWAP1 LOG3 POP POP POP JUMP JUMPDEST PUSH2 0x1CDF DUP5 DUP5 DUP5 PUSH2 0x16EE JUMP JUMPDEST PUSH2 0x1CEB DUP5 DUP5 DUP5 DUP5 PUSH2 0x206E JUMP JUMPDEST PUSH2 0x1D2A JUMPI PUSH1 0x40 MLOAD PUSH32 0x8C379A000000000000000000000000000000000000000000000000000000000 DUP2 MSTORE PUSH1 0x4 ADD PUSH2 0x1D21 SWAP1 PUSH2 0x3C85 JUMP JUMPDEST PUSH1 0x40 MLOAD DUP1 SWAP2 SUB SWAP1 REVERT JUMPDEST POP POP POP POP JUMP JUMPDEST PUSH1 0x0 DUP1 PUSH20 0xFFFFFFFFFFFFFFFFFFFFFFFFFFFFFFFFFFFFFFFF AND PUSH2 0x1D52 DUP4 PUSH2 0x1A65 JUMP JUMPDEST PUSH20 0xFFFFFFFFFFFFFFFFFFFFFFFFFFFFFFFFFFFFFFFF AND EQ ISZERO SWAP1 POP SWAP2 SWAP1 POP JUMP JUMPDEST PUSH1 0x0 DUP1 PUSH1 0x40 MLOAD DUP1 PUSH1 0xA0 ADD PUSH1 0x40 MSTORE DUP1 DUP9 DUP2 MSTORE PUSH1 0x20 ADD DUP8 DUP2 MSTORE PUSH1 0x20 ADD DUP6 DUP2 MSTORE PUSH1 0x20 ADD DUP7 DUP2 MSTORE PUSH1 0x20 ADD DUP5 PUSH1 0xFF AND DUP2 MSTORE POP SWAP1 POP PUSH2 0x1DAA PUSH1 0x8 PUSH2 0x21F5 JUMP JUMPDEST PUSH1 0x0 PUSH2 0x1DB6 PUSH1 0x8 PUSH2 0x164B JUMP JUMPDEST SWAP1 POP DUP2 PUSH1 0xA PUSH1 0x0 DUP4 DUP2 MSTORE PUSH1 0x20 ADD SWAP1 DUP2 MSTORE PUSH1 0x20 ADD PUSH1 0x0 KECCAK256 PUSH1 0x0 DUP3 ADD MLOAD DUP2 PUSH1 0x0 ADD SSTORE PUSH1 0x20 DUP3 ADD MLOAD DUP2 PUSH1 0x1 ADD SSTORE PUSH1 0x40 DUP3 ADD MLOAD DUP2 PUSH1 0x2 ADD SSTORE PUSH1 0x60 DUP3 ADD MLOAD DUP2 PUSH1 0x3 ADD SSTORE PUSH1 0x80 DUP3 ADD MLOAD DUP2 PUSH1 0x4 ADD PUSH1 0x0 PUSH2 0x100 EXP DUP2 SLOAD DUP2 PUSH1 0xFF MUL NOT AND SWAP1 DUP4 PUSH1 0xFF AND MUL OR SWAP1 SSTORE POP SWAP1 POP POP PUSH2 0x1E29 PUSH2 0x1E23 PUSH2 0xB77 JUMP JUMPDEST DUP3 PUSH2 0x220B JUMP JUMPDEST PUSH32 0xB6DA9597F5553D5DEAFC722DCC1F69D5463612674A36BAE2AA8698BD86AF1C7C DUP2 DUP10 DUP10 DUP9 PUSH1 0x40 MLOAD PUSH2 0x1E5E SWAP5 SWAP4 SWAP3 SWAP2 SWAP1 PUSH2 0x3CA5 JUMP JUMPDEST PUSH1 0x40 MLOAD DUP1 SWAP2 SUB SWAP1 LOG1 DUP1 SWAP3 POP POP POP SWAP6 SWAP5 POP POP POP POP POP JUMP JUMPDEST PUSH1 0x60 PUSH1 0x0 PUSH1 0x1 PUSH2 0x1E83 DUP5 PUSH2 0x2229 JUMP JUMPDEST ADD SWAP1 POP PUSH1 0x0 DUP2 PUSH8 0xFFFFFFFFFFFFFFFF DUP2 GT ISZERO PUSH2 0x1EA2 JUMPI PUSH2 0x1EA1 PUSH2 0x294A JUMP JUMPDEST JUMPDEST PUSH1 0x40 MLOAD SWAP1 DUP1 DUP3 MSTORE DUP1 PUSH1 0x1F ADD PUSH1 0x1F NOT AND PUSH1 0x20 ADD DUP3 ADD PUSH1 0x40 MSTORE DUP1 ISZERO PUSH2 0x1ED4 JUMPI DUP2 PUSH1 0x20 ADD PUSH1 0x1 DUP3 MUL DUP1 CALLDATASIZE DUP4 CALLDATACOPY DUP1 DUP3 ADD SWAP2 POP POP SWAP1 POP JUMPDEST POP SWAP1 POP PUSH1 0x0 DUP3 PUSH1 0x20 ADD DUP3 ADD SWAP1 POP JUMPDEST PUSH1 0x1 ISZERO PUSH2 0x1F37 JUMPI DUP1 DUP1 PUSH1 0x1 SWAP1 SUB SWAP2 POP POP PUSH32 0x3031323334353637383961626364656600000000000000000000000000000000 PUSH1 0xA DUP7 MOD BYTE DUP2 MSTORE8 PUSH1 0xA DUP6 DUP2 PUSH2 0x1F2B JUMPI PUSH2 0x1F2A PUSH2 0x363C JUMP JUMPDEST JUMPDEST DIV SWAP5 POP PUSH1 0x0 DUP6 SUB PUSH2 0x1EE2 JUMPI JUMPDEST DUP2 SWAP4 POP POP POP POP SWAP2 SWAP1 POP JUMP JUMPDEST PUSH1 0x1 DUP2 GT ISZERO PUSH2 0x2062 JUMPI PUSH1 0x0 PUSH20 0xFFFFFFFFFFFFFFFFFFFFFFFFFFFFFFFFFFFFFFFF AND DUP5 PUSH20 0xFFFFFFFFFFFFFFFFFFFFFFFFFFFFFFFFFFFFFFFF AND EQ PUSH2 0x1FD6 JUMPI DUP1 PUSH1 0x3 PUSH1 0x0 DUP7 PUSH20 0xFFFFFFFFFFFFFFFFFFFFFFFFFFFFFFFFFFFFFFFF AND PUSH20 0xFFFFFFFFFFFFFFFFFFFFFFFFFFFFFFFFFFFFFFFF AND DUP2 MSTORE PUSH1 0x20 ADD SWAP1 DUP2 MSTORE PUSH1 0x20 ADD PUSH1 0x0 KECCAK256 PUSH1 0x0 DUP3 DUP3 SLOAD PUSH2 0x1FCE SWAP2 SWAP1 PUSH2 0x3CEA JUMP JUMPDEST SWAP3 POP POP DUP2 SWAP1 SSTORE POP JUMPDEST PUSH1 0x0 PUSH20 0xFFFFFFFFFFFFFFFFFFFFFFFFFFFFFFFFFFFFFFFF AND DUP4 PUSH20 0xFFFFFFFFFFFFFFFFFFFFFFFFFFFFFFFFFFFFFFFF AND EQ PUSH2 0x2061 JUMPI DUP1 PUSH1 0x3 PUSH1 0x0 DUP6 PUSH20 0xFFFFFFFFFFFFFFFFFFFFFFFFFFFFFFFFFFFFFFFF AND PUSH20 0xFFFFFFFFFFFFFFFFFFFFFFFFFFFFFFFFFFFFFFFF AND DUP2 MSTORE PUSH1 0x20 ADD SWAP1 DUP2 MSTORE PUSH1 0x20 ADD PUSH1 0x0 KECCAK256 PUSH1 0x0 DUP3 DUP3 SLOAD PUSH2 0x2059 SWAP2 SWAP1 PUSH2 0x3608 JUMP JUMPDEST SWAP3 POP POP DUP2 SWAP1 SSTORE POP JUMPDEST JUMPDEST POP POP POP POP JUMP JUMPDEST POP POP POP POP JUMP JUMPDEST PUSH1 0x0 PUSH2 0x208F DUP5 PUSH20 0xFFFFFFFFFFFFFFFFFFFFFFFFFFFFFFFFFFFFFFFF AND PUSH2 0x237C JUMP JUMPDEST ISZERO PUSH2 0x21E8 JUMPI DUP4 PUSH20 0xFFFFFFFFFFFFFFFFFFFFFFFFFFFFFFFFFFFFFFFF AND PUSH4 0x150B7A02 PUSH2 0x20B8 PUSH2 0x1583 JUMP JUMPDEST DUP8 DUP7 DUP7 PUSH1 0x40 MLOAD DUP6 PUSH4 0xFFFFFFFF AND PUSH1 0xE0 SHL DUP2 MSTORE PUSH1 0x4 ADD PUSH2 0x20DA SWAP5 SWAP4 SWAP3 SWAP2 SWAP1 PUSH2 0x3D73 JUMP JUMPDEST PUSH1 0x20 PUSH1 0x40 MLOAD DUP1 DUP4 SUB DUP2 PUSH1 0x0 DUP8 GAS CALL SWAP3 POP POP POP DUP1 ISZERO PUSH2 0x2116 JUMPI POP PUSH1 0x40 MLOAD RETURNDATASIZE PUSH1 0x1F NOT PUSH1 0x1F DUP3 ADD AND DUP3 ADD DUP1 PUSH1 0x40 MSTORE POP DUP2 ADD SWAP1 PUSH2 0x2113 SWAP2 SWAP1 PUSH2 0x3DD4 JUMP JUMPDEST PUSH1 0x1 JUMPDEST PUSH2 0x2198 JUMPI RETURNDATASIZE DUP1 PUSH1 0x0 DUP2 EQ PUSH2 0x2146 JUMPI PUSH1 0x40 MLOAD SWAP2 POP PUSH1 0x1F NOT PUSH1 0x3F RETURNDATASIZE ADD AND DUP3 ADD PUSH1 0x40 MSTORE RETURNDATASIZE DUP3 MSTORE RETURNDATASIZE PUSH1 0x0 PUSH1 0x20 DUP5 ADD RETURNDATACOPY PUSH2 0x214B JUMP JUMPDEST PUSH1 0x60 SWAP2 POP JUMPDEST POP PUSH1 0x0 DUP2 MLOAD SUB PUSH2 0x2190 JUMPI PUSH1 0x40 MLOAD PUSH32 0x8C379A000000000000000000000000000000000000000000000000000000000 DUP2 MSTORE PUSH1 0x4 ADD PUSH2 0x2187 SWAP1 PUSH2 0x3C85 JUMP JUMPDEST PUSH1 0x40 MLOAD DUP1 SWAP2 SUB SWAP1 REVERT JUMPDEST DUP1 MLOAD DUP2 PUSH1 0x20 ADD REVERT JUMPDEST PUSH4 0x150B7A02 PUSH1 0xE0 SHL PUSH28 0xFFFFFFFFFFFFFFFFFFFFFFFFFFFFFFFFFFFFFFFFFFFFFFFFFFFFFFFF NOT AND DUP2 PUSH28 0xFFFFFFFFFFFFFFFFFFFFFFFFFFFFFFFFFFFFFFFFFFFFFFFFFFFFFFFF NOT AND EQ SWAP2 POP POP PUSH2 0x21ED JUMP JUMPDEST PUSH1 0x1 SWAP1 POP JUMPDEST SWAP5 SWAP4 POP POP POP POP JUMP JUMPDEST PUSH1 0x1 DUP2 PUSH1 0x0 ADD PUSH1 0x0 DUP3 DUP3 SLOAD ADD SWAP3 POP POP DUP2 SWAP1 SSTORE POP POP JUMP JUMPDEST PUSH2 0x2225 DUP3 DUP3 PUSH1 0x40 MLOAD DUP1 PUSH1 0x20 ADD PUSH1 0x40 MSTORE DUP1 PUSH1 0x0 DUP2 MSTORE POP PUSH2 0x239F JUMP JUMPDEST POP POP JUMP JUMPDEST PUSH1 0x0 DUP1 PUSH1 0x0 SWAP1 POP PUSH27 0x184F03E93FF9F4DAA797ED6E38ED64BF6A1F010000000000000000 DUP4 LT PUSH2 0x2287 JUMPI PUSH27 0x184F03E93FF9F4DAA797ED6E38ED64BF6A1F010000000000000000 DUP4 DUP2 PUSH2 0x227D JUMPI PUSH2 0x227C PUSH2 0x363C JUMP JUMPDEST JUMPDEST DIV SWAP3 POP PUSH1 0x40 DUP2 ADD SWAP1 POP JUMPDEST PUSH14 0x4EE2D6D415B85ACEF8100000000 DUP4 LT PUSH2 0x22C4 JUMPI PUSH14 0x4EE2D6D415B85ACEF8100000000 DUP4 DUP2 PUSH2 0x22BA JUMPI PUSH2 0x22B9 PUSH2 0x363C JUMP JUMPDEST JUMPDEST DIV SWAP3 POP PUSH1 0x20 DUP2 ADD SWAP1 POP JUMPDEST PUSH7 0x2386F26FC10000 DUP4 LT PUSH2 0x22F3 JUMPI PUSH7 0x2386F26FC10000 DUP4 DUP2 PUSH2 0x22E9 JUMPI PUSH2 0x22E8 PUSH2 0x363C JUMP JUMPDEST JUMPDEST DIV SWAP3 POP PUSH1 0x10 DUP2 ADD SWAP1 POP JUMPDEST PUSH4 0x5F5E100 DUP4 LT PUSH2 0x231C JUMPI PUSH4 0x5F5E100 DUP4 DUP2 PUSH2 0x2312 JUMPI PUSH2 0x2311 PUSH2 0x363C JUMP JUMPDEST JUMPDEST DIV SWAP3 POP PUSH1 0x8 DUP2 ADD SWAP1 POP JUMPDEST PUSH2 0x2710 DUP4 LT PUSH2 0x2341 JUMPI PUSH2 0x2710 DUP4 DUP2 PUSH2 0x2337 JUMPI PUSH2 0x2336 PUSH2 0x363C JUMP JUMPDEST JUMPDEST DIV SWAP3 POP PUSH1 0x4 DUP2 ADD SWAP1 POP JUMPDEST PUSH1 0x64 DUP4 LT PUSH2 0x2364 JUMPI PUSH1 0x64 DUP4 DUP2 PUSH2 0x235A JUMPI PUSH2 0x2359 PUSH2 0x363C JUMP JUMPDEST JUMPDEST DIV SWAP3 POP PUSH1 0x2 DUP2 ADD SWAP1 POP JUMPDEST PUSH1 0xA DUP4 LT PUSH2 0x2373 JUMPI PUSH1 0x1 DUP2 ADD SWAP1 POP JUMPDEST DUP1 SWAP2 POP POP SWAP2 SWAP1 POP JUMP JUMPDEST PUSH1 0x0 DUP1 DUP3 PUSH20 0xFFFFFFFFFFFFFFFFFFFFFFFFFFFFFFFFFFFFFFFF AND EXTCODESIZE GT SWAP1 POP SWAP2 SWAP1 POP JUMP JUMPDEST PUSH2 0x23A9 DUP4 DUP4 PUSH2 0x23FA JUMP JUMPDEST PUSH2 0x23B6 PUSH1 0x0 DUP5 DUP5 DUP5 PUSH2 0x206E JUMP JUMPDEST PUSH2 0x23F5 JUMPI PUSH1 0x40 MLOAD PUSH32 0x8C379A000000000000000000000000000000000000000000000000000000000 DUP2 MSTORE PUSH1 0x4 ADD PUSH2 0x23EC SWAP1 PUSH2 0x3C85 JUMP JUMPDEST PUSH1 0x40 MLOAD DUP1 SWAP2 SUB SWAP1 REVERT JUMPDEST POP POP POP JUMP JUMPDEST PUSH1 0x0 PUSH20 0xFFFFFFFFFFFFFFFFFFFFFFFFFFFFFFFFFFFFFFFF AND DUP3 PUSH20 0xFFFFFFFFFFFFFFFFFFFFFFFFFFFFFFFFFFFFFFFF AND SUB PUSH2 0x2469 JUMPI PUSH1 0x40 MLOAD PUSH32 0x8C379A000000000000000000000000000000000000000000000000000000000 DUP2 MSTORE PUSH1 0x4 ADD PUSH2 0x2460 SWAP1 PUSH2 0x3E4D JUMP JUMPDEST PUSH1 0x40 MLOAD DUP1 SWAP2 SUB SWAP1 REVERT JUMPDEST PUSH2 0x2472 DUP2 PUSH2 0x1D30 JUMP JUMPDEST ISZERO PUSH2 0x24B2 JUMPI PUSH1 0x40 MLOAD PUSH32 0x8C379A000000000000000000000000000000000000000000000000000000000 DUP2 MSTORE PUSH1 0x4 ADD PUSH2 0x24A9 SWAP1 PUSH2 0x3EB9 JUMP JUMPDEST PUSH1 0x40 MLOAD DUP1 SWAP2 SUB SWAP1 REVERT JUMPDEST PUSH2 0x24C0 PUSH1 0x0 DUP4 DUP4 PUSH1 0x1 PUSH2 0x1F42 JUMP JUMPDEST PUSH2 0x24C9 DUP2 PUSH2 0x1D30 JUMP JUMPDEST ISZERO PUSH2 0x2509 JUMPI PUSH1 0x40 MLOAD PUSH32 0x8C379A000000000000000000000000000000000000000000000000000000000 DUP2 MSTORE PUSH1 0x4 ADD PUSH2 0x2500 SWAP1 PUSH2 0x3EB9 JUMP JUMPDEST PUSH1 0x40 MLOAD DUP1 SWAP2 SUB SWAP1 REVERT JUMPDEST PUSH1 0x1 PUSH1 0x3 PUSH1 0x0 DUP5 PUSH20 0xFFFFFFFFFFFFFFFFFFFFFFFFFFFFFFFFFFFFFFFF AND PUSH20 0xFFFFFFFFFFFFFFFFFFFFFFFFFFFFFFFFFFFFFFFF AND DUP2 MSTORE PUSH1 0x20 ADD SWAP1 DUP2 MSTORE PUSH1 0x20 ADD PUSH1 0x0 KECCAK256 PUSH1 0x0 DUP3 DUP3 SLOAD ADD SWAP3 POP POP DUP2 SWAP1 SSTORE POP DUP2 PUSH1 0x2 PUSH1 0x0 DUP4 DUP2 MSTORE PUSH1 0x20 ADD SWAP1 DUP2 MSTORE PUSH1 0x20 ADD PUSH1 0x0 KECCAK256 PUSH1 0x0 PUSH2 0x100 EXP DUP2 SLOAD DUP2 PUSH20 0xFFFFFFFFFFFFFFFFFFFFFFFFFFFFFFFFFFFFFFFF MUL NOT AND SWAP1 DUP4 PUSH20 0xFFFFFFFFFFFFFFFFFFFFFFFFFFFFFFFFFFFFFFFF AND MUL OR SWAP1 SSTORE POP DUP1 DUP3 PUSH20 0xFFFFFFFFFFFFFFFFFFFFFFFFFFFFFFFFFFFFFFFF AND PUSH1 0x0 PUSH20 0xFFFFFFFFFFFFFFFFFFFFFFFFFFFFFFFFFFFFFFFF AND PUSH32 0xDDF252AD1BE2C89B69C2B068FC378DAA952BA7F163C4A11628F55A4DF523B3EF PUSH1 0x40 MLOAD PUSH1 0x40 MLOAD DUP1 SWAP2 SUB SWAP1 LOG4 PUSH2 0x2613 PUSH1 0x0 DUP4 DUP4 PUSH1 0x1 PUSH2 0x2068 JUMP JUMPDEST POP POP JUMP JUMPDEST PUSH1 0x0 PUSH1 0x40 MLOAD SWAP1 POP SWAP1 JUMP JUMPDEST PUSH1 0x0 DUP1 REVERT JUMPDEST PUSH1 0x0 DUP1 REVERT JUMPDEST PUSH1 0x0 PUSH32 0xFFFFFFFF00000000000000000000000000000000000000000000000000000000 DUP3 AND SWAP1 POP SWAP2 SWAP1 POP JUMP JUMPDEST PUSH2 0x2660 DUP2 PUSH2 0x262B JUMP JUMPDEST DUP2 EQ PUSH2 0x266B JUMPI PUSH1 0x0 DUP1 REVERT JUMPDEST POP JUMP JUMPDEST PUSH1 0x0 DUP2 CALLDATALOAD SWAP1 POP PUSH2 0x267D DUP2 PUSH2 0x2657 JUMP JUMPDEST SWAP3 SWAP2 POP POP JUMP JUMPDEST PUSH1 0x0 PUSH1 0x20 DUP3 DUP5 SUB SLT ISZERO PUSH2 0x2699 JUMPI PUSH2 0x2698 PUSH2 0x2621 JUMP JUMPDEST JUMPDEST PUSH1 0x0 PUSH2 0x26A7 DUP5 DUP3 DUP6 ADD PUSH2 0x266E JUMP JUMPDEST SWAP2 POP POP SWAP3 SWAP2 POP POP JUMP JUMPDEST PUSH1 0x0 DUP2 ISZERO ISZERO SWAP1 POP SWAP2 SWAP1 POP JUMP JUMPDEST PUSH2 0x26C5 DUP2 PUSH2 0x26B0 JUMP JUMPDEST DUP3 MSTORE POP POP JUMP JUMPDEST PUSH1 0x0 PUSH1 0x20 DUP3 ADD SWAP1 POP PUSH2 0x26E0 PUSH1 0x0 DUP4 ADD DUP5 PUSH2 0x26BC JUMP JUMPDEST SWAP3 SWAP2 POP POP JUMP JUMPDEST PUSH1 0x0 DUP2 MLOAD SWAP1 POP SWAP2 SWAP1 POP JUMP JUMPDEST PUSH1 0x0 DUP3 DUP3 MSTORE PUSH1 0x20 DUP3 ADD SWAP1 POP SWAP3 SWAP2 POP POP JUMP JUMPDEST PUSH1 0x0 JUMPDEST DUP4 DUP2 LT ISZERO PUSH2 0x2720 JUMPI DUP1 DUP3 ADD MLOAD DUP2 DUP5 ADD MSTORE PUSH1 0x20 DUP2 ADD SWAP1 POP PUSH2 0x2705 JUMP JUMPDEST PUSH1 0x0 DUP5 DUP5 ADD MSTORE POP POP POP POP JUMP JUMPDEST PUSH1 0x0 PUSH1 0x1F NOT PUSH1 0x1F DUP4 ADD AND SWAP1 POP SWAP2 SWAP1 POP JUMP JUMPDEST PUSH1 0x0 PUSH2 0x2748 DUP3 PUSH2 0x26E6 JUMP JUMPDEST PUSH2 0x2752 DUP2 DUP6 PUSH2 0x26F1 JUMP JUMPDEST SWAP4 POP PUSH2 0x2762 DUP2 DUP6 PUSH1 0x20 DUP7 ADD PUSH2 0x2702 JUMP JUMPDEST PUSH2 0x276B DUP2 PUSH2 0x272C JUMP JUMPDEST DUP5 ADD SWAP2 POP POP SWAP3 SWAP2 POP POP JUMP JUMPDEST PUSH1 0x0 PUSH1 0x20 DUP3 ADD SWAP1 POP DUP2 DUP2 SUB PUSH1 0x0 DUP4 ADD MSTORE PUSH2 0x2790 DUP2 DUP5 PUSH2 0x273D JUMP JUMPDEST SWAP1 POP SWAP3 SWAP2 POP POP JUMP JUMPDEST PUSH1 0x0 DUP2 SWAP1 POP SWAP2 SWAP1 POP JUMP JUMPDEST PUSH2 0x27AB DUP2 PUSH2 0x2798 JUMP JUMPDEST DUP2 EQ PUSH2 0x27B6 JUMPI PUSH1 0x0 DUP1 REVERT JUMPDEST POP JUMP JUMPDEST PUSH1 0x0 DUP2 CALLDATALOAD SWAP1 POP PUSH2 0x27C8 DUP2 PUSH2 0x27A2 JUMP JUMPDEST SWAP3 SWAP2 POP POP JUMP JUMPDEST PUSH1 0x0 PUSH1 0x20 DUP3 DUP5 SUB SLT ISZERO PUSH2 0x27E4 JUMPI PUSH2 0x27E3 PUSH2 0x2621 JUMP JUMPDEST JUMPDEST PUSH1 0x0 PUSH2 0x27F2 DUP5 DUP3 DUP6 ADD PUSH2 0x27B9 JUMP JUMPDEST SWAP2 POP POP SWAP3 SWAP2 POP POP JUMP JUMPDEST PUSH1 0x0 PUSH20 0xFFFFFFFFFFFFFFFFFFFFFFFFFFFFFFFFFFFFFFFF DUP3 AND SWAP1 POP SWAP2 SWAP1 POP JUMP JUMPDEST PUSH1 0x0 PUSH2 0x2826 DUP3 PUSH2 0x27FB JUMP JUMPDEST SWAP1 POP SWAP2 SWAP1 POP JUMP JUMPDEST PUSH2 0x2836 DUP2 PUSH2 0x281B JUMP JUMPDEST DUP3 MSTORE POP POP JUMP JUMPDEST PUSH1 0x0 PUSH1 0x20 DUP3 ADD SWAP1 POP PUSH2 0x2851 PUSH1 0x0 DUP4 ADD DUP5 PUSH2 0x282D JUMP JUMPDEST SWAP3 SWAP2 POP POP JUMP JUMPDEST PUSH2 0x2860 DUP2 PUSH2 0x281B JUMP JUMPDEST DUP2 EQ PUSH2 0x286B JUMPI PUSH1 0x0 DUP1 REVERT JUMPDEST POP JUMP JUMPDEST PUSH1 0x0 DUP2 CALLDATALOAD SWAP1 POP PUSH2 0x287D DUP2 PUSH2 0x2857 JUMP JUMPDEST SWAP3 SWAP2 POP POP JUMP JUMPDEST PUSH1 0x0 DUP1 PUSH1 0x40 DUP4 DUP6 SUB SLT ISZERO PUSH2 0x289A JUMPI PUSH2 0x2899 PUSH2 0x2621 JUMP JUMPDEST JUMPDEST PUSH1 0x0 PUSH2 0x28A8 DUP6 DUP3 DUP7 ADD PUSH2 0x286E JUMP JUMPDEST SWAP3 POP POP PUSH1 0x20 PUSH2 0x28B9 DUP6 DUP3 DUP7 ADD PUSH2 0x27B9 JUMP JUMPDEST SWAP2 POP POP SWAP3 POP SWAP3 SWAP1 POP JUMP JUMPDEST PUSH2 0x28CC DUP2 PUSH2 0x2798 JUMP JUMPDEST DUP3 MSTORE POP POP JUMP JUMPDEST PUSH1 0x0 PUSH1 0x20 DUP3 ADD SWAP1 POP PUSH2 0x28E7 PUSH1 0x0 DUP4 ADD DUP5 PUSH2 0x28C3 JUMP JUMPDEST SWAP3 SWAP2 POP POP JUMP JUMPDEST PUSH1 0x0 DUP1 PUSH1 0x0 PUSH1 0x60 DUP5 DUP7 SUB SLT ISZERO PUSH2 0x2906 JUMPI PUSH2 0x2905 PUSH2 0x2621 JUMP JUMPDEST JUMPDEST PUSH1 0x0 PUSH2 0x2914 DUP7 DUP3 DUP8 ADD PUSH2 0x286E JUMP JUMPDEST SWAP4 POP POP PUSH1 0x20 PUSH2 0x2925 DUP7 DUP3 DUP8 ADD PUSH2 0x286E JUMP JUMPDEST SWAP3 POP POP PUSH1 0x40 PUSH2 0x2936 DUP7 DUP3 DUP8 ADD PUSH2 0x27B9 JUMP JUMPDEST SWAP2 POP POP SWAP3 POP SWAP3 POP SWAP3 JUMP JUMPDEST PUSH1 0x0 DUP1 REVERT JUMPDEST PUSH1 0x0 DUP1 REVERT JUMPDEST PUSH32 0x4E487B7100000000000000000000000000000000000000000000000000000000 PUSH1 0x0 MSTORE PUSH1 0x41 PUSH1 0x4 MSTORE PUSH1 0x24 PUSH1 0x0 REVERT JUMPDEST PUSH2 0x2982 DUP3 PUSH2 0x272C JUMP JUMPDEST DUP2 ADD DUP2 DUP2 LT PUSH8 0xFFFFFFFFFFFFFFFF DUP3 GT OR ISZERO PUSH2 0x29A1 JUMPI PUSH2 0x29A0 PUSH2 0x294A JUMP JUMPDEST JUMPDEST DUP1 PUSH1 0x40 MSTORE POP POP POP JUMP JUMPDEST PUSH1 0x0 PUSH2 0x29B4 PUSH2 0x2617 JUMP JUMPDEST SWAP1 POP PUSH2 0x29C0 DUP3 DUP3 PUSH2 0x2979 JUMP JUMPDEST SWAP2 SWAP1 POP JUMP JUMPDEST PUSH1 0x0 PUSH8 0xFFFFFFFFFFFFFFFF DUP3 GT ISZERO PUSH2 0x29E0 JUMPI PUSH2 0x29DF PUSH2 0x294A JUMP JUMPDEST JUMPDEST PUSH2 0x29E9 DUP3 PUSH2 0x272C JUMP JUMPDEST SWAP1 POP PUSH1 0x20 DUP2 ADD SWAP1 POP SWAP2 SWAP1 POP JUMP JUMPDEST DUP3 DUP2 DUP4 CALLDATACOPY PUSH1 0x0 DUP4 DUP4 ADD MSTORE POP POP POP JUMP JUMPDEST PUSH1 0x0 PUSH2 0x2A18 PUSH2 0x2A13 DUP5 PUSH2 0x29C5 JUMP JUMPDEST PUSH2 0x29AA JUMP JUMPDEST SWAP1 POP DUP3 DUP2 MSTORE PUSH1 0x20 DUP2 ADD DUP5 DUP5 DUP5 ADD GT ISZERO PUSH2 0x2A34 JUMPI PUSH2 0x2A33 PUSH2 0x2945 JUMP JUMPDEST JUMPDEST PUSH2 0x2A3F DUP5 DUP3 DUP6 PUSH2 0x29F6 JUMP JUMPDEST POP SWAP4 SWAP3 POP POP POP JUMP JUMPDEST PUSH1 0x0 DUP3 PUSH1 0x1F DUP4 ADD SLT PUSH2 0x2A5C JUMPI PUSH2 0x2A5B PUSH2 0x2940 JUMP JUMPDEST JUMPDEST DUP2 CALLDATALOAD PUSH2 0x2A6C DUP5 DUP3 PUSH1 0x20 DUP7 ADD PUSH2 0x2A05 JUMP JUMPDEST SWAP2 POP POP SWAP3 SWAP2 POP POP JUMP JUMPDEST PUSH1 0x0 PUSH1 0x20 DUP3 DUP5 SUB SLT ISZERO PUSH2 0x2A8B JUMPI PUSH2 0x2A8A PUSH2 0x2621 JUMP JUMPDEST JUMPDEST PUSH1 0x0 DUP3 ADD CALLDATALOAD PUSH8 0xFFFFFFFFFFFFFFFF DUP2 GT ISZERO PUSH2 0x2AA9 JUMPI PUSH2 0x2AA8 PUSH2 0x2626 JUMP JUMPDEST JUMPDEST PUSH2 0x2AB5 DUP5 DUP3 DUP6 ADD PUSH2 0x2A47 JUMP JUMPDEST SWAP2 POP POP SWAP3 SWAP2 POP POP JUMP JUMPDEST PUSH1 0x0 PUSH1 0x20 DUP3 DUP5 SUB SLT ISZERO PUSH2 0x2AD4 JUMPI PUSH2 0x2AD3 PUSH2 0x2621 JUMP JUMPDEST JUMPDEST PUSH1 0x0 PUSH2 0x2AE2 DUP5 DUP3 DUP6 ADD PUSH2 0x286E JUMP JUMPDEST SWAP2 POP POP SWAP3 SWAP2 POP POP JUMP JUMPDEST PUSH1 0x0 DUP1 REVERT JUMPDEST PUSH1 0x0 DUP1 REVERT JUMPDEST PUSH1 0x0 DUP1 DUP4 PUSH1 0x1F DUP5 ADD SLT PUSH2 0x2B0B JUMPI PUSH2 0x2B0A PUSH2 0x2940 JUMP JUMPDEST JUMPDEST DUP3 CALLDATALOAD SWAP1 POP PUSH8 0xFFFFFFFFFFFFFFFF DUP2 GT ISZERO PUSH2 0x2B28 JUMPI PUSH2 0x2B27 PUSH2 0x2AEB JUMP JUMPDEST JUMPDEST PUSH1 0x20 DUP4 ADD SWAP2 POP DUP4 PUSH1 0x1 DUP3 MUL DUP4 ADD GT ISZERO PUSH2 0x2B44 JUMPI PUSH2 0x2B43 PUSH2 0x2AF0 JUMP JUMPDEST JUMPDEST SWAP3 POP SWAP3 SWAP1 POP JUMP JUMPDEST PUSH1 0x0 DUP1 PUSH1 0x20 DUP4 DUP6 SUB SLT ISZERO PUSH2 0x2B62 JUMPI PUSH2 0x2B61 PUSH2 0x2621 JUMP JUMPDEST JUMPDEST PUSH1 0x0 DUP4 ADD CALLDATALOAD PUSH8 0xFFFFFFFFFFFFFFFF DUP2 GT ISZERO PUSH2 0x2B80 JUMPI PUSH2 0x2B7F PUSH2 0x2626 JUMP JUMPDEST JUMPDEST PUSH2 0x2B8C DUP6 DUP3 DUP7 ADD PUSH2 0x2AF5 JUMP JUMPDEST SWAP3 POP SWAP3 POP POP SWAP3 POP SWAP3 SWAP1 POP JUMP JUMPDEST PUSH2 0x2BA1 DUP2 PUSH2 0x26B0 JUMP JUMPDEST DUP2 EQ PUSH2 0x2BAC JUMPI PUSH1 0x0 DUP1 REVERT JUMPDEST POP JUMP JUMPDEST PUSH1 0x0 DUP2 CALLDATALOAD SWAP1 POP PUSH2 0x2BBE DUP2 PUSH2 0x2B98 JUMP JUMPDEST SWAP3 SWAP2 POP POP JUMP JUMPDEST PUSH1 0x0 DUP1 PUSH1 0x40 DUP4 DUP6 SUB SLT ISZERO PUSH2 0x2BDB JUMPI PUSH2 0x2BDA PUSH2 0x2621 JUMP JUMPDEST JUMPDEST PUSH1 0x0 PUSH2 0x2BE9 DUP6 DUP3 DUP7 ADD PUSH2 0x286E JUMP JUMPDEST SWAP3 POP POP PUSH1 0x20 PUSH2 0x2BFA DUP6 DUP3 DUP7 ADD PUSH2 0x2BAF JUMP JUMPDEST SWAP2 POP POP SWAP3 POP SWAP3 SWAP1 POP JUMP JUMPDEST PUSH1 0x0 PUSH8 0xFFFFFFFFFFFFFFFF DUP3 GT ISZERO PUSH2 0x2C1F JUMPI PUSH2 0x2C1E PUSH2 0x294A JUMP JUMPDEST JUMPDEST PUSH2 0x2C28 DUP3 PUSH2 0x272C JUMP JUMPDEST SWAP1 POP PUSH1 0x20 DUP2 ADD SWAP1 POP SWAP2 SWAP1 POP JUMP JUMPDEST PUSH1 0x0 PUSH2 0x2C48 PUSH2 0x2C43 DUP5 PUSH2 0x2C04 JUMP JUMPDEST PUSH2 0x29AA JUMP JUMPDEST SWAP1 POP DUP3 DUP2 MSTORE PUSH1 0x20 DUP2 ADD DUP5 DUP5 DUP5 ADD GT ISZERO PUSH2 0x2C64 JUMPI PUSH2 0x2C63 PUSH2 0x2945 JUMP JUMPDEST JUMPDEST PUSH2 0x2C6F DUP5 DUP3 DUP6 PUSH2 0x29F6 JUMP JUMPDEST POP SWAP4 SWAP3 POP POP POP JUMP JUMPDEST PUSH1 0x0 DUP3 PUSH1 0x1F DUP4 ADD SLT PUSH2 0x2C8C JUMPI PUSH2 0x2C8B PUSH2 0x2940 JUMP JUMPDEST JUMPDEST DUP2 CALLDATALOAD PUSH2 0x2C9C DUP5 DUP3 PUSH1 0x20 DUP7 ADD PUSH2 0x2C35 JUMP JUMPDEST SWAP2 POP POP SWAP3 SWAP2 POP POP JUMP JUMPDEST PUSH1 0x0 DUP1 PUSH1 0x0 DUP1 PUSH1 0x80 DUP6 DUP8 SUB SLT ISZERO PUSH2 0x2CBF JUMPI PUSH2 0x2CBE PUSH2 0x2621 JUMP JUMPDEST JUMPDEST PUSH1 0x0 PUSH2 0x2CCD DUP8 DUP3 DUP9 ADD PUSH2 0x286E JUMP JUMPDEST SWAP5 POP POP PUSH1 0x20 PUSH2 0x2CDE DUP8 DUP3 DUP9 ADD PUSH2 0x286E JUMP JUMPDEST SWAP4 POP POP PUSH1 0x40 PUSH2 0x2CEF DUP8 DUP3 DUP9 ADD PUSH2 0x27B9 JUMP JUMPDEST SWAP3 POP POP PUSH1 0x60 DUP6 ADD CALLDATALOAD PUSH8 0xFFFFFFFFFFFFFFFF DUP2 GT ISZERO PUSH2 0x2D10 JUMPI PUSH2 0x2D0F PUSH2 0x2626 JUMP JUMPDEST JUMPDEST PUSH2 0x2D1C DUP8 DUP3 DUP9 ADD PUSH2 0x2C77 JUMP JUMPDEST SWAP2 POP POP SWAP3 SWAP6 SWAP2 SWAP5 POP SWAP3 POP JUMP JUMPDEST PUSH1 0x0 DUP1 PUSH1 0x40 DUP4 DUP6 SUB SLT ISZERO PUSH2 0x2D3F JUMPI PUSH2 0x2D3E PUSH2 0x2621 JUMP JUMPDEST JUMPDEST PUSH1 0x0 PUSH2 0x2D4D DUP6 DUP3 DUP7 ADD PUSH2 0x27B9 JUMP JUMPDEST SWAP3 POP POP PUSH1 0x20 PUSH2 0x2D5E DUP6 DUP3 DUP7 ADD PUSH2 0x27B9 JUMP JUMPDEST SWAP2 POP POP SWAP3 POP SWAP3 SWAP1 POP JUMP JUMPDEST PUSH1 0x0 PUSH1 0xFF DUP3 AND SWAP1 POP SWAP2 SWAP1 POP JUMP JUMPDEST PUSH2 0x2D7E DUP2 PUSH2 0x2D68 JUMP JUMPDEST DUP2 EQ PUSH2 0x2D89 JUMPI PUSH1 0x0 DUP1 REVERT JUMPDEST POP JUMP JUMPDEST PUSH1 0x0 DUP2 CALLDATALOAD SWAP1 POP PUSH2 0x2D9B DUP2 PUSH2 0x2D75 JUMP JUMPDEST SWAP3 SWAP2 POP POP JUMP JUMPDEST PUSH1 0x0 DUP1 PUSH1 0x40 DUP4 DUP6 SUB SLT ISZERO PUSH2 0x2DB8 JUMPI PUSH2 0x2DB7 PUSH2 0x2621 JUMP JUMPDEST JUMPDEST PUSH1 0x0 PUSH2 0x2DC6 DUP6 DUP3 DUP7 ADD PUSH2 0x27B9 JUMP JUMPDEST SWAP3 POP POP PUSH1 0x20 PUSH2 0x2DD7 DUP6 DUP3 DUP7 ADD PUSH2 0x2D8C JUMP JUMPDEST SWAP2 POP POP SWAP3 POP SWAP3 SWAP1 POP JUMP JUMPDEST PUSH1 0x0 PUSH1 0x20 DUP3 DUP5 SUB SLT ISZERO PUSH2 0x2DF7 JUMPI PUSH2 0x2DF6 PUSH2 0x2621 JUMP JUMPDEST JUMPDEST PUSH1 0x0 PUSH2 0x2E05 DUP5 DUP3 DUP6 ADD PUSH2 0x2D8C JUMP JUMPDEST SWAP2 POP POP SWAP3 SWAP2 POP POP JUMP JUMPDEST PUSH1 0x0 DUP1 PUSH1 0x40 DUP4 DUP6 SUB SLT ISZERO PUSH2 0x2E25 JUMPI PUSH2 0x2E24 PUSH2 0x2621 JUMP JUMPDEST JUMPDEST PUSH1 0x0 PUSH2 0x2E33 DUP6 DUP3 DUP7 ADD PUSH2 0x286E JUMP JUMPDEST SWAP3 POP POP PUSH1 0x20 PUSH2 0x2E44 DUP6 DUP3 DUP7 ADD PUSH2 0x286E JUMP JUMPDEST SWAP2 POP POP SWAP3 POP SWAP3 SWAP1 POP JUMP JUMPDEST PUSH32 0x4E487B7100000000000000000000000000000000000000000000000000000000 PUSH1 0x0 MSTORE PUSH1 0x22 PUSH1 0x4 MSTORE PUSH1 0x24 PUSH1 0x0 REVERT JUMPDEST PUSH1 0x0 PUSH1 0x2 DUP3 DIV SWAP1 POP PUSH1 0x1 DUP3 AND DUP1 PUSH2 0x2E95 JUMPI PUSH1 0x7F DUP3 AND SWAP2 POP JUMPDEST PUSH1 0x20 DUP3 LT DUP2 SUB PUSH2 0x2EA8 JUMPI PUSH2 0x2EA7 PUSH2 0x2E4E JUMP JUMPDEST JUMPDEST POP SWAP2 SWAP1 POP JUMP JUMPDEST PUSH32 0x4552433732313A20617070726F76616C20746F2063757272656E74206F776E65 PUSH1 0x0 DUP3 ADD MSTORE PUSH32 0x7200000000000000000000000000000000000000000000000000000000000000 PUSH1 0x20 DUP3 ADD MSTORE POP JUMP JUMPDEST PUSH1 0x0 PUSH2 0x2F0A PUSH1 0x21 DUP4 PUSH2 0x26F1 JUMP JUMPDEST SWAP2 POP PUSH2 0x2F15 DUP3 PUSH2 0x2EAE JUMP JUMPDEST PUSH1 0x40 DUP3 ADD SWAP1 POP SWAP2 SWAP1 POP JUMP JUMPDEST PUSH1 0x0 PUSH1 0x20 DUP3 ADD SWAP1 POP DUP2 DUP2 SUB PUSH1 0x0 DUP4 ADD MSTORE PUSH2 0x2F39 DUP2 PUSH2 0x2EFD JUMP JUMPDEST SWAP1 POP SWAP2 SWAP1 POP JUMP JUMPDEST PUSH32 0x4552433732313A20617070726F76652063616C6C6572206973206E6F7420746F PUSH1 0x0 DUP3 ADD MSTORE PUSH32 0x6B656E206F776E6572206F7220617070726F76656420666F7220616C6C000000 PUSH1 0x20 DUP3 ADD MSTORE POP JUMP JUMPDEST PUSH1 0x0 PUSH2 0x2F9C PUSH1 0x3D DUP4 PUSH2 0x26F1 JUMP JUMPDEST SWAP2 POP PUSH2 0x2FA7 DUP3 PUSH2 0x2F40 JUMP JUMPDEST PUSH1 0x40 DUP3 ADD SWAP1 POP SWAP2 SWAP1 POP JUMP JUMPDEST PUSH1 0x0 PUSH1 0x20 DUP3 ADD SWAP1 POP DUP2 DUP2 SUB PUSH1 0x0 DUP4 ADD MSTORE PUSH2 0x2FCB DUP2 PUSH2 0x2F8F JUMP JUMPDEST SWAP1 POP SWAP2 SWAP1 POP JUMP JUMPDEST PUSH32 0x4552433732313A2063616C6C6572206973206E6F7420746F6B656E206F776E65 PUSH1 0x0 DUP3 ADD MSTORE PUSH32 0x72206F7220617070726F76656400000000000000000000000000000000000000 PUSH1 0x20 DUP3 ADD MSTORE POP JUMP JUMPDEST PUSH1 0x0 PUSH2 0x302E PUSH1 0x2D DUP4 PUSH2 0x26F1 JUMP JUMPDEST SWAP2 POP PUSH2 0x3039 DUP3 PUSH2 0x2FD2 JUMP JUMPDEST PUSH1 0x40 DUP3 ADD SWAP1 POP SWAP2 SWAP1 POP JUMP JUMPDEST PUSH1 0x0 PUSH1 0x20 DUP3 ADD SWAP1 POP DUP2 DUP2 SUB PUSH1 0x0 DUP4 ADD MSTORE PUSH2 0x305D DUP2 PUSH2 0x3021 JUMP JUMPDEST SWAP1 POP SWAP2 SWAP1 POP JUMP JUMPDEST PUSH1 0x0 DUP2 SWAP1 POP SWAP3 SWAP2 POP POP JUMP JUMPDEST POP JUMP JUMPDEST PUSH1 0x0 PUSH2 0x307F PUSH1 0x0 DUP4 PUSH2 0x3064 JUMP JUMPDEST SWAP2 POP PUSH2 0x308A DUP3 PUSH2 0x306F JUMP JUMPDEST PUSH1 0x0 DUP3 ADD SWAP1 POP SWAP2 SWAP1 POP JUMP JUMPDEST PUSH1 0x0 PUSH2 0x30A0 DUP3 PUSH2 0x3072 JUMP JUMPDEST SWAP2 POP DUP2 SWAP1 POP SWAP2 SWAP1 POP JUMP JUMPDEST PUSH1 0x0 DUP2 SWAP1 POP DUP2 PUSH1 0x0 MSTORE PUSH1 0x20 PUSH1 0x0 KECCAK256 SWAP1 POP SWAP2 SWAP1 POP JUMP JUMPDEST PUSH1 0x0 PUSH1 0x20 PUSH1 0x1F DUP4 ADD DIV SWAP1 POP SWAP2 SWAP1 POP JUMP JUMPDEST PUSH1 0x0 DUP3 DUP3 SHL SWAP1 POP SWAP3 SWAP2 POP POP JUMP JUMPDEST PUSH1 0x0 PUSH1 0x8 DUP4 MUL PUSH2 0x310C PUSH32 0xFFFFFFFFFFFFFFFFFFFFFFFFFFFFFFFFFFFFFFFFFFFFFFFFFFFFFFFFFFFFFFFF DUP3 PUSH2 0x30CF JUMP JUMPDEST PUSH2 0x3116 DUP7 DUP4 PUSH2 0x30CF JUMP JUMPDEST SWAP6 POP DUP1 NOT DUP5 AND SWAP4 POP DUP1 DUP7 AND DUP5 OR SWAP3 POP POP POP SWAP4 SWAP3 POP POP POP JUMP JUMPDEST PUSH1 0x0 DUP2 SWAP1 POP SWAP2 SWAP1 POP JUMP JUMPDEST PUSH1 0x0 PUSH2 0x3153 PUSH2 0x314E PUSH2 0x3149 DUP5 PUSH2 0x2798 JUMP JUMPDEST PUSH2 0x312E JUMP JUMPDEST PUSH2 0x2798 JUMP JUMPDEST SWAP1 POP SWAP2 SWAP1 POP JUMP JUMPDEST PUSH1 0x0 DUP2 SWAP1 POP SWAP2 SWAP1 POP JUMP JUMPDEST PUSH2 0x316D DUP4 PUSH2 0x3138 JUMP JUMPDEST PUSH2 0x3181 PUSH2 0x3179 DUP3 PUSH2 0x315A JUMP JUMPDEST DUP5 DUP5 SLOAD PUSH2 0x30DC JUMP JUMPDEST DUP3 SSTORE POP POP POP POP JUMP JUMPDEST PUSH1 0x0 SWAP1 JUMP JUMPDEST PUSH2 0x3196 PUSH2 0x3189 JUMP JUMPDEST PUSH2 0x31A1 DUP2 DUP5 DUP5 PUSH2 0x3164 JUMP JUMPDEST POP POP POP JUMP JUMPDEST JUMPDEST DUP2 DUP2 LT ISZERO PUSH2 0x31C5 JUMPI PUSH2 0x31BA PUSH1 0x0 DUP3 PUSH2 0x318E JUMP JUMPDEST PUSH1 0x1 DUP2 ADD SWAP1 POP PUSH2 0x31A7 JUMP JUMPDEST POP POP JUMP JUMPDEST PUSH1 0x1F DUP3 GT ISZERO PUSH2 0x320A JUMPI PUSH2 0x31DB DUP2 PUSH2 0x30AA JUMP JUMPDEST PUSH2 0x31E4 DUP5 PUSH2 0x30BF JUMP JUMPDEST DUP2 ADD PUSH1 0x20 DUP6 LT ISZERO PUSH2 0x31F3 JUMPI DUP2 SWAP1 POP JUMPDEST PUSH2 0x3207 PUSH2 0x31FF DUP6 PUSH2 0x30BF JUMP JUMPDEST DUP4 ADD DUP3 PUSH2 0x31A6 JUMP JUMPDEST POP POP JUMPDEST POP POP POP JUMP JUMPDEST PUSH1 0x0 DUP3 DUP3 SHR SWAP1 POP SWAP3 SWAP2 POP POP JUMP JUMPDEST PUSH1 0x0 PUSH2 0x322D PUSH1 0x0 NOT DUP5 PUSH1 0x8 MUL PUSH2 0x320F JUMP JUMPDEST NOT DUP1 DUP4 AND SWAP2 POP POP SWAP3 SWAP2 POP POP JUMP JUMPDEST PUSH1 0x0 PUSH2 0x3246 DUP4 DUP4 PUSH2 0x321C JUMP JUMPDEST SWAP2 POP DUP3 PUSH1 0x2 MUL DUP3 OR SWAP1 POP SWAP3 SWAP2 POP POP JUMP JUMPDEST PUSH2 0x325F DUP3 PUSH2 0x26E6 JUMP JUMPDEST PUSH8 0xFFFFFFFFFFFFFFFF DUP2 GT ISZERO PUSH2 0x3278 JUMPI PUSH2 0x3277 PUSH2 0x294A JUMP JUMPDEST JUMPDEST PUSH2 0x3282 DUP3 SLOAD PUSH2 0x2E7D JUMP JUMPDEST PUSH2 0x328D DUP3 DUP3 DUP6 PUSH2 0x31C9 JUMP JUMPDEST PUSH1 0x0 PUSH1 0x20 SWAP1 POP PUSH1 0x1F DUP4 GT PUSH1 0x1 DUP2 EQ PUSH2 0x32C0 JUMPI PUSH1 0x0 DUP5 ISZERO PUSH2 0x32AE JUMPI DUP3 DUP8 ADD MLOAD SWAP1 POP JUMPDEST PUSH2 0x32B8 DUP6 DUP3 PUSH2 0x323A JUMP JUMPDEST DUP7 SSTORE POP PUSH2 0x3320 JUMP JUMPDEST PUSH1 0x1F NOT DUP5 AND PUSH2 0x32CE DUP7 PUSH2 0x30AA JUMP JUMPDEST PUSH1 0x0 JUMPDEST DUP3 DUP2 LT ISZERO PUSH2 0x32F6 JUMPI DUP5 DUP10 ADD MLOAD DUP3 SSTORE PUSH1 0x1 DUP3 ADD SWAP2 POP PUSH1 0x20 DUP6 ADD SWAP5 POP PUSH1 0x20 DUP2 ADD SWAP1 POP PUSH2 0x32D1 JUMP JUMPDEST DUP7 DUP4 LT ISZERO PUSH2 0x3313 JUMPI DUP5 DUP10 ADD MLOAD PUSH2 0x330F PUSH1 0x1F DUP10 AND DUP3 PUSH2 0x321C JUMP JUMPDEST DUP4 SSTORE POP JUMPDEST PUSH1 0x1 PUSH1 0x2 DUP9 MUL ADD DUP9 SSTORE POP POP POP JUMPDEST POP POP POP POP POP POP JUMP JUMPDEST PUSH32 0x4552433732313A20696E76616C696420746F6B656E2049440000000000000000 PUSH1 0x0 DUP3 ADD MSTORE POP JUMP JUMPDEST PUSH1 0x0 PUSH2 0x335E PUSH1 0x18 DUP4 PUSH2 0x26F1 JUMP JUMPDEST SWAP2 POP PUSH2 0x3369 DUP3 PUSH2 0x3328 JUMP JUMPDEST PUSH1 0x20 DUP3 ADD SWAP1 POP SWAP2 SWAP1 POP JUMP JUMPDEST PUSH1 0x0 PUSH1 0x20 DUP3 ADD SWAP1 POP DUP2 DUP2 SUB PUSH1 0x0 DUP4 ADD MSTORE PUSH2 0x338D DUP2 PUSH2 0x3351 JUMP JUMPDEST SWAP1 POP SWAP2 SWAP1 POP JUMP JUMPDEST PUSH32 0x4552433732313A2061646472657373207A65726F206973206E6F742061207661 PUSH1 0x0 DUP3 ADD MSTORE PUSH32 0x6C6964206F776E65720000000000000000000000000000000000000000000000 PUSH1 0x20 DUP3 ADD MSTORE POP JUMP JUMPDEST PUSH1 0x0 PUSH2 0x33F0 PUSH1 0x29 DUP4 PUSH2 0x26F1 JUMP JUMPDEST SWAP2 POP PUSH2 0x33FB DUP3 PUSH2 0x3394 JUMP JUMPDEST PUSH1 0x40 DUP3 ADD SWAP1 POP SWAP2 SWAP1 POP JUMP JUMPDEST PUSH1 0x0 PUSH1 0x20 DUP3 ADD SWAP1 POP DUP2 DUP2 SUB PUSH1 0x0 DUP4 ADD MSTORE PUSH2 0x341F DUP2 PUSH2 0x33E3 JUMP JUMPDEST SWAP1 POP SWAP2 SWAP1 POP JUMP JUMPDEST PUSH1 0x0 DUP3 SWAP1 POP SWAP3 SWAP2 POP POP JUMP JUMPDEST PUSH2 0x343B DUP4 DUP4 PUSH2 0x3426 JUMP JUMPDEST PUSH8 0xFFFFFFFFFFFFFFFF DUP2 GT ISZERO PUSH2 0x3454 JUMPI PUSH2 0x3453 PUSH2 0x294A JUMP JUMPDEST JUMPDEST PUSH2 0x345E DUP3 SLOAD PUSH2 0x2E7D JUMP JUMPDEST PUSH2 0x3469 DUP3 DUP3 DUP6 PUSH2 0x31C9 JUMP JUMPDEST PUSH1 0x0 PUSH1 0x1F DUP4 GT PUSH1 0x1 DUP2 EQ PUSH2 0x3498 JUMPI PUSH1 0x0 DUP5 ISZERO PUSH2 0x3486 JUMPI DUP3 DUP8 ADD CALLDATALOAD SWAP1 POP JUMPDEST PUSH2 0x3490 DUP6 DUP3 PUSH2 0x323A JUMP JUMPDEST DUP7 SSTORE POP PUSH2 0x34F8 JUMP JUMPDEST PUSH1 0x1F NOT DUP5 AND PUSH2 0x34A6 DUP7 PUSH2 0x30AA JUMP JUMPDEST PUSH1 0x0 JUMPDEST DUP3 DUP2 LT ISZERO PUSH2 0x34CE JUMPI DUP5 DUP10 ADD CALLDATALOAD DUP3 SSTORE PUSH1 0x1 DUP3 ADD SWAP2 POP PUSH1 0x20 DUP6 ADD SWAP5 POP PUSH1 0x20 DUP2 ADD SWAP1 POP PUSH2 0x34A9 JUMP JUMPDEST DUP7 DUP4 LT ISZERO PUSH2 0x34EB JUMPI DUP5 DUP10 ADD CALLDATALOAD PUSH2 0x34E7 PUSH1 0x1F DUP10 AND DUP3 PUSH2 0x321C JUMP JUMPDEST DUP4 SSTORE POP JUMPDEST PUSH1 0x1 PUSH1 0x2 DUP9 MUL ADD DUP9 SSTORE POP POP POP JUMPDEST POP POP POP POP POP POP POP JUMP JUMPDEST PUSH32 0x717565727920666F72206E6F6E6578697374656E7420746F6B656E0000000000 PUSH1 0x0 DUP3 ADD MSTORE POP JUMP JUMPDEST PUSH1 0x0 PUSH2 0x3537 PUSH1 0x1B DUP4 PUSH2 0x26F1 JUMP JUMPDEST SWAP2 POP PUSH2 0x3542 DUP3 PUSH2 0x3501 JUMP JUMPDEST PUSH1 0x20 DUP3 ADD SWAP1 POP SWAP2 SWAP1 POP JUMP JUMPDEST PUSH1 0x0 PUSH1 0x20 DUP3 ADD SWAP1 POP DUP2 DUP2 SUB PUSH1 0x0 DUP4 ADD MSTORE PUSH2 0x3566 DUP2 PUSH2 0x352A JUMP JUMPDEST SWAP1 POP SWAP2 SWAP1 POP JUMP JUMPDEST PUSH32 0x696E73756666696369656E742063686172676500000000000000000000000000 PUSH1 0x0 DUP3 ADD MSTORE POP JUMP JUMPDEST PUSH1 0x0 PUSH2 0x35A3 PUSH1 0x13 DUP4 PUSH2 0x26F1 JUMP JUMPDEST SWAP2 POP PUSH2 0x35AE DUP3 PUSH2 0x356D JUMP JUMPDEST PUSH1 0x20 DUP3 ADD SWAP1 POP SWAP2 SWAP1 POP JUMP JUMPDEST PUSH1 0x0 PUSH1 0x20 DUP3 ADD SWAP1 POP DUP2 DUP2 SUB PUSH1 0x0 DUP4 ADD MSTORE PUSH2 0x35D2 DUP2 PUSH2 0x3596 JUMP JUMPDEST SWAP1 POP SWAP2 SWAP1 POP JUMP JUMPDEST PUSH32 0x4E487B7100000000000000000000000000000000000000000000000000000000 PUSH1 0x0 MSTORE PUSH1 0x11 PUSH1 0x4 MSTORE PUSH1 0x24 PUSH1 0x0 REVERT JUMPDEST PUSH1 0x0 PUSH2 0x3613 DUP3 PUSH2 0x2798 JUMP JUMPDEST SWAP2 POP PUSH2 0x361E DUP4 PUSH2 0x2798 JUMP JUMPDEST SWAP3 POP DUP3 DUP3 ADD SWAP1 POP DUP1 DUP3 GT ISZERO PUSH2 0x3636 JUMPI PUSH2 0x3635 PUSH2 0x35D9 JUMP JUMPDEST JUMPDEST SWAP3 SWAP2 POP POP JUMP JUMPDEST PUSH32 0x4E487B7100000000000000000000000000000000000000000000000000000000 PUSH1 0x0 MSTORE PUSH1 0x12 PUSH1 0x4 MSTORE PUSH1 0x24 PUSH1 0x0 REVERT JUMPDEST PUSH1 0x0 PUSH2 0x3676 DUP3 PUSH2 0x2798 JUMP JUMPDEST SWAP2 POP PUSH2 0x3681 DUP4 PUSH2 0x2798 JUMP JUMPDEST SWAP3 POP DUP3 PUSH2 0x3691 JUMPI PUSH2 0x3690 PUSH2 0x363C JUMP JUMPDEST JUMPDEST DUP3 DUP3 DIV SWAP1 POP SWAP3 SWAP2 POP POP JUMP JUMPDEST PUSH1 0x0 PUSH1 0x60 DUP3 ADD SWAP1 POP PUSH2 0x36B1 PUSH1 0x0 DUP4 ADD DUP7 PUSH2 0x28C3 JUMP JUMPDEST PUSH2 0x36BE PUSH1 0x20 DUP4 ADD DUP6 PUSH2 0x28C3 JUMP JUMPDEST PUSH2 0x36CB PUSH1 0x40 DUP4 ADD DUP5 PUSH2 0x28C3 JUMP JUMPDEST SWAP5 SWAP4 POP POP POP POP JUMP JUMPDEST PUSH1 0x0 DUP2 MLOAD SWAP1 POP PUSH2 0x36E2 DUP2 PUSH2 0x27A2 JUMP JUMPDEST SWAP3 SWAP2 POP POP JUMP JUMPDEST PUSH1 0x0 PUSH1 0x20 DUP3 DUP5 SUB SLT ISZERO PUSH2 0x36FE JUMPI PUSH2 0x36FD PUSH2 0x2621 JUMP JUMPDEST JUMPDEST PUSH1 0x0 PUSH2 0x370C DUP5 DUP3 DUP6 ADD PUSH2 0x36D3 JUMP JUMPDEST SWAP2 POP POP SWAP3 SWAP2 POP POP JUMP JUMPDEST PUSH1 0x0 PUSH2 0x3720 DUP3 PUSH2 0x2D68 JUMP JUMPDEST SWAP2 POP PUSH2 0x372B DUP4 PUSH2 0x2D68 JUMP JUMPDEST SWAP3 POP DUP3 DUP3 SUB SWAP1 POP PUSH1 0xFF DUP2 GT ISZERO PUSH2 0x3744 JUMPI PUSH2 0x3743 PUSH2 0x35D9 JUMP JUMPDEST JUMPDEST SWAP3 SWAP2 POP POP JUMP JUMPDEST PUSH1 0x0 PUSH2 0x3765 PUSH2 0x3760 PUSH2 0x375B DUP5 PUSH2 0x2D68 JUMP JUMPDEST PUSH2 0x312E JUMP JUMPDEST PUSH2 0x2798 JUMP JUMPDEST SWAP1 POP SWAP2 SWAP1 POP JUMP JUMPDEST PUSH2 0x3775 DUP2 PUSH2 0x374A JUMP JUMPDEST DUP3 MSTORE POP POP JUMP JUMPDEST PUSH1 0x0 PUSH1 0x20 DUP3 ADD SWAP1 POP PUSH2 0x3790 PUSH1 0x0 DUP4 ADD DUP5 PUSH2 0x376C JUMP JUMPDEST SWAP3 SWAP2 POP POP JUMP JUMPDEST PUSH1 0x0 PUSH2 0x37A1 DUP3 PUSH2 0x2D68 JUMP JUMPDEST SWAP2 POP PUSH2 0x37AC DUP4 PUSH2 0x2D68 JUMP JUMPDEST SWAP3 POP DUP3 DUP3 ADD SWAP1 POP PUSH1 0xFF DUP2 GT ISZERO PUSH2 0x37C5 JUMPI PUSH2 0x37C4 PUSH2 0x35D9 JUMP JUMPDEST JUMPDEST SWAP3 SWAP2 POP POP JUMP JUMPDEST PUSH2 0x37D4 DUP2 PUSH2 0x2D68 JUMP JUMPDEST DUP3 MSTORE POP POP JUMP JUMPDEST PUSH1 0x0 PUSH1 0x40 DUP3 ADD SWAP1 POP PUSH2 0x37EF PUSH1 0x0 DUP4 ADD DUP6 PUSH2 0x28C3 JUMP JUMPDEST PUSH2 0x37FC PUSH1 0x20 DUP4 ADD DUP5 PUSH2 0x37CB JUMP JUMPDEST SWAP4 SWAP3 POP POP POP JUMP JUMPDEST PUSH32 0x4552433732314D657461646174613A2055524920717565727920666F72206E6F PUSH1 0x0 DUP3 ADD MSTORE PUSH32 0x6E6578697374656E7420746F6B656E0000000000000000000000000000000000 PUSH1 0x20 DUP3 ADD MSTORE POP JUMP JUMPDEST PUSH1 0x0 PUSH2 0x385F PUSH1 0x2F DUP4 PUSH2 0x26F1 JUMP JUMPDEST SWAP2 POP PUSH2 0x386A DUP3 PUSH2 0x3803 JUMP JUMPDEST PUSH1 0x40 DUP3 ADD SWAP1 POP SWAP2 SWAP1 POP JUMP JUMPDEST PUSH1 0x0 PUSH1 0x20 DUP3 ADD SWAP1 POP DUP2 DUP2 SUB PUSH1 0x0 DUP4 ADD MSTORE PUSH2 0x388E DUP2 PUSH2 0x3852 JUMP JUMPDEST SWAP1 POP SWAP2 SWAP1 POP JUMP JUMPDEST PUSH1 0x0 DUP2 SWAP1 POP SWAP3 SWAP2 POP POP JUMP JUMPDEST PUSH1 0x0 DUP2 SLOAD PUSH2 0x38AD DUP2 PUSH2 0x2E7D JUMP JUMPDEST PUSH2 0x38B7 DUP2 DUP7 PUSH2 0x3895 JUMP JUMPDEST SWAP5 POP PUSH1 0x1 DUP3 AND PUSH1 0x0 DUP2 EQ PUSH2 0x38D2 JUMPI PUSH1 0x1 DUP2 EQ PUSH2 0x38E7 JUMPI PUSH2 0x391A JUMP JUMPDEST PUSH1 0xFF NOT DUP4 AND DUP7 MSTORE DUP2 ISZERO ISZERO DUP3 MUL DUP7 ADD SWAP4 POP PUSH2 0x391A JUMP JUMPDEST PUSH2 0x38F0 DUP6 PUSH2 0x30AA JUMP JUMPDEST PUSH1 0x0 JUMPDEST DUP4 DUP2 LT ISZERO PUSH2 0x3912 JUMPI DUP2 SLOAD DUP2 DUP10 ADD MSTORE PUSH1 0x1 DUP3 ADD SWAP2 POP PUSH1 0x20 DUP2 ADD SWAP1 POP PUSH2 0x38F3 JUMP JUMPDEST DUP4 DUP9 ADD SWAP6 POP POP POP JUMPDEST POP POP POP SWAP3 SWAP2 POP POP JUMP JUMPDEST PUSH1 0x0 PUSH2 0x392E DUP3 PUSH2 0x26E6 JUMP JUMPDEST PUSH2 0x3938 DUP2 DUP6 PUSH2 0x3895 JUMP JUMPDEST SWAP4 POP PUSH2 0x3948 DUP2 DUP6 PUSH1 0x20 DUP7 ADD PUSH2 0x2702 JUMP JUMPDEST DUP1 DUP5 ADD SWAP2 POP POP SWAP3 SWAP2 POP POP JUMP JUMPDEST PUSH1 0x0 PUSH2 0x3960 DUP3 DUP7 PUSH2 0x38A0 JUMP JUMPDEST SWAP2 POP PUSH2 0x396C DUP3 DUP6 PUSH2 0x3923 JUMP JUMPDEST SWAP2 POP PUSH2 0x3978 DUP3 DUP5 PUSH2 0x38A0 JUMP JUMPDEST SWAP2 POP DUP2 SWAP1 POP SWAP5 SWAP4 POP POP POP POP JUMP JUMPDEST PUSH32 0x4F776E61626C653A206E6577206F776E657220697320746865207A65726F2061 PUSH1 0x0 DUP3 ADD MSTORE PUSH32 0x6464726573730000000000000000000000000000000000000000000000000000 PUSH1 0x20 DUP3 ADD MSTORE POP JUMP JUMPDEST PUSH1 0x0 PUSH2 0x39E1 PUSH1 0x26 DUP4 PUSH2 0x26F1 JUMP JUMPDEST SWAP2 POP PUSH2 0x39EC DUP3 PUSH2 0x3985 JUMP JUMPDEST PUSH1 0x40 DUP3 ADD SWAP1 POP SWAP2 SWAP1 POP JUMP JUMPDEST PUSH1 0x0 PUSH1 0x20 DUP3 ADD SWAP1 POP DUP2 DUP2 SUB PUSH1 0x0 DUP4 ADD MSTORE PUSH2 0x3A10 DUP2 PUSH2 0x39D4 JUMP JUMPDEST SWAP1 POP SWAP2 SWAP1 POP JUMP JUMPDEST PUSH32 0x4552433732313A207472616E736665722066726F6D20696E636F727265637420 PUSH1 0x0 DUP3 ADD MSTORE PUSH32 0x6F776E6572000000000000000000000000000000000000000000000000000000 PUSH1 0x20 DUP3 ADD MSTORE POP JUMP JUMPDEST PUSH1 0x0 PUSH2 0x3A73 PUSH1 0x25 DUP4 PUSH2 0x26F1 JUMP JUMPDEST SWAP2 POP PUSH2 0x3A7E DUP3 PUSH2 0x3A17 JUMP JUMPDEST PUSH1 0x40 DUP3 ADD SWAP1 POP SWAP2 SWAP1 POP JUMP JUMPDEST PUSH1 0x0 PUSH1 0x20 DUP3 ADD SWAP1 POP DUP2 DUP2 SUB PUSH1 0x0 DUP4 ADD MSTORE PUSH2 0x3AA2 DUP2 PUSH2 0x3A66 JUMP JUMPDEST SWAP1 POP SWAP2 SWAP1 POP JUMP JUMPDEST PUSH32 0x4552433732313A207472616E7366657220746F20746865207A65726F20616464 PUSH1 0x0 DUP3 ADD MSTORE PUSH32 0x7265737300000000000000000000000000000000000000000000000000000000 PUSH1 0x20 DUP3 ADD MSTORE POP JUMP JUMPDEST PUSH1 0x0 PUSH2 0x3B05 PUSH1 0x24 DUP4 PUSH2 0x26F1 JUMP JUMPDEST SWAP2 POP PUSH2 0x3B10 DUP3 PUSH2 0x3AA9 JUMP JUMPDEST PUSH1 0x40 DUP3 ADD SWAP1 POP SWAP2 SWAP1 POP JUMP JUMPDEST PUSH1 0x0 PUSH1 0x20 DUP3 ADD SWAP1 POP DUP2 DUP2 SUB PUSH1 0x0 DUP4 ADD MSTORE PUSH2 0x3B34 DUP2 PUSH2 0x3AF8 JUMP JUMPDEST SWAP1 POP SWAP2 SWAP1 POP JUMP JUMPDEST PUSH32 0x4F776E61626C653A2063616C6C6572206973206E6F7420746865206F776E6572 PUSH1 0x0 DUP3 ADD MSTORE POP JUMP JUMPDEST PUSH1 0x0 PUSH2 0x3B71 PUSH1 0x20 DUP4 PUSH2 0x26F1 JUMP JUMPDEST SWAP2 POP PUSH2 0x3B7C DUP3 PUSH2 0x3B3B JUMP JUMPDEST PUSH1 0x20 DUP3 ADD SWAP1 POP SWAP2 SWAP1 POP JUMP JUMPDEST PUSH1 0x0 PUSH1 0x20 DUP3 ADD SWAP1 POP DUP2 DUP2 SUB PUSH1 0x0 DUP4 ADD MSTORE PUSH2 0x3BA0 DUP2 PUSH2 0x3B64 JUMP JUMPDEST SWAP1 POP SWAP2 SWAP1 POP JUMP JUMPDEST PUSH32 0x4552433732313A20617070726F766520746F2063616C6C657200000000000000 PUSH1 0x0 DUP3 ADD MSTORE POP JUMP JUMPDEST PUSH1 0x0 PUSH2 0x3BDD PUSH1 0x19 DUP4 PUSH2 0x26F1 JUMP JUMPDEST SWAP2 POP PUSH2 0x3BE8 DUP3 PUSH2 0x3BA7 JUMP JUMPDEST PUSH1 0x20 DUP3 ADD SWAP1 POP SWAP2 SWAP1 POP JUMP JUMPDEST PUSH1 0x0 PUSH1 0x20 DUP3 ADD SWAP1 POP DUP2 DUP2 SUB PUSH1 0x0 DUP4 ADD MSTORE PUSH2 0x3C0C DUP2 PUSH2 0x3BD0 JUMP JUMPDEST SWAP1 POP SWAP2 SWAP1 POP JUMP JUMPDEST PUSH32 0x4552433732313A207472616E7366657220746F206E6F6E204552433732315265 PUSH1 0x0 DUP3 ADD MSTORE PUSH32 0x63656976657220696D706C656D656E7465720000000000000000000000000000 PUSH1 0x20 DUP3 ADD MSTORE POP JUMP JUMPDEST PUSH1 0x0 PUSH2 0x3C6F PUSH1 0x32 DUP4 PUSH2 0x26F1 JUMP JUMPDEST SWAP2 POP PUSH2 0x3C7A DUP3 PUSH2 0x3C13 JUMP JUMPDEST PUSH1 0x40 DUP3 ADD SWAP1 POP SWAP2 SWAP1 POP JUMP JUMPDEST PUSH1 0x0 PUSH1 0x20 DUP3 ADD SWAP1 POP DUP2 DUP2 SUB PUSH1 0x0 DUP4 ADD MSTORE PUSH2 0x3C9E DUP2 PUSH2 0x3C62 JUMP JUMPDEST SWAP1 POP SWAP2 SWAP1 POP JUMP JUMPDEST PUSH1 0x0 PUSH1 0x80 DUP3 ADD SWAP1 POP PUSH2 0x3CBA PUSH1 0x0 DUP4 ADD DUP8 PUSH2 0x28C3 JUMP JUMPDEST PUSH2 0x3CC7 PUSH1 0x20 DUP4 ADD DUP7 PUSH2 0x28C3 JUMP JUMPDEST PUSH2 0x3CD4 PUSH1 0x40 DUP4 ADD DUP6 PUSH2 0x28C3 JUMP JUMPDEST PUSH2 0x3CE1 PUSH1 0x60 DUP4 ADD DUP5 PUSH2 0x28C3 JUMP JUMPDEST SWAP6 SWAP5 POP POP POP POP POP JUMP JUMPDEST PUSH1 0x0 PUSH2 0x3CF5 DUP3 PUSH2 0x2798 JUMP JUMPDEST SWAP2 POP PUSH2 0x3D00 DUP4 PUSH2 0x2798 JUMP JUMPDEST SWAP3 POP DUP3 DUP3 SUB SWAP1 POP DUP2 DUP2 GT ISZERO PUSH2 0x3D18 JUMPI PUSH2 0x3D17 PUSH2 0x35D9 JUMP JUMPDEST JUMPDEST SWAP3 SWAP2 POP POP JUMP JUMPDEST PUSH1 0x0 DUP2 MLOAD SWAP1 POP SWAP2 SWAP1 POP JUMP JUMPDEST PUSH1 0x0 DUP3 DUP3 MSTORE PUSH1 0x20 DUP3 ADD SWAP1 POP SWAP3 SWAP2 POP POP JUMP JUMPDEST PUSH1 0x0 PUSH2 0x3D45 DUP3 PUSH2 0x3D1E JUMP JUMPDEST PUSH2 0x3D4F DUP2 DUP6 PUSH2 0x3D29 JUMP JUMPDEST SWAP4 POP PUSH2 0x3D5F DUP2 DUP6 PUSH1 0x20 DUP7 ADD PUSH2 0x2702 JUMP JUMPDEST PUSH2 0x3D68 DUP2 PUSH2 0x272C JUMP JUMPDEST DUP5 ADD SWAP2 POP POP SWAP3 SWAP2 POP POP JUMP JUMPDEST PUSH1 0x0 PUSH1 0x80 DUP3 ADD SWAP1 POP PUSH2 0x3D88 PUSH1 0x0 DUP4 ADD DUP8 PUSH2 0x282D JUMP JUMPDEST PUSH2 0x3D95 PUSH1 0x20 DUP4 ADD DUP7 PUSH2 0x282D JUMP JUMPDEST PUSH2 0x3DA2 PUSH1 0x40 DUP4 ADD DUP6 PUSH2 0x28C3 JUMP JUMPDEST DUP2 DUP2 SUB PUSH1 0x60 DUP4 ADD MSTORE PUSH2 0x3DB4 DUP2 DUP5 PUSH2 0x3D3A JUMP JUMPDEST SWAP1 POP SWAP6 SWAP5 POP POP POP POP POP JUMP JUMPDEST PUSH1 0x0 DUP2 MLOAD SWAP1 POP PUSH2 0x3DCE DUP2 PUSH2 0x2657 JUMP JUMPDEST SWAP3 SWAP2 POP POP JUMP JUMPDEST PUSH1 0x0 PUSH1 0x20 DUP3 DUP5 SUB SLT ISZERO PUSH2 0x3DEA JUMPI PUSH2 0x3DE9 PUSH2 0x2621 JUMP JUMPDEST JUMPDEST PUSH1 0x0 PUSH2 0x3DF8 DUP5 DUP3 DUP6 ADD PUSH2 0x3DBF JUMP JUMPDEST SWAP2 POP POP SWAP3 SWAP2 POP POP JUMP JUMPDEST PUSH32 0x4552433732313A206D696E7420746F20746865207A65726F2061646472657373 PUSH1 0x0 DUP3 ADD MSTORE POP JUMP JUMPDEST PUSH1 0x0 PUSH2 0x3E37 PUSH1 0x20 DUP4 PUSH2 0x26F1 JUMP JUMPDEST SWAP2 POP PUSH2 0x3E42 DUP3 PUSH2 0x3E01 JUMP JUMPDEST PUSH1 0x20 DUP3 ADD SWAP1 POP SWAP2 SWAP1 POP JUMP JUMPDEST PUSH1 0x0 PUSH1 0x20 DUP3 ADD SWAP1 POP DUP2 DUP2 SUB PUSH1 0x0 DUP4 ADD MSTORE PUSH2 0x3E66 DUP2 PUSH2 0x3E2A JUMP JUMPDEST SWAP1 POP SWAP2 SWAP1 POP JUMP JUMPDEST PUSH32 0x4552433732313A20746F6B656E20616C7265616479206D696E74656400000000 PUSH1 0x0 DUP3 ADD MSTORE POP JUMP JUMPDEST PUSH1 0x0 PUSH2 0x3EA3 PUSH1 0x1C DUP4 PUSH2 0x26F1 JUMP JUMPDEST SWAP2 POP PUSH2 0x3EAE DUP3 PUSH2 0x3E6D JUMP JUMPDEST PUSH1 0x20 DUP3 ADD SWAP1 POP SWAP2 SWAP1 POP JUMP JUMPDEST PUSH1 0x0 PUSH1 0x20 DUP3 ADD SWAP1 POP DUP2 DUP2 SUB PUSH1 0x0 DUP4 ADD MSTORE PUSH2 0x3ED2 DUP2 PUSH2 0x3E96 JUMP JUMPDEST SWAP1 POP SWAP2 SWAP1 POP JUMP INVALID LOG2 PUSH5 0x6970667358 0x22 SLT KECCAK256 0xB7 0xB7 PUSH27 0xAA0B394493E79BC12585FEB96162513E240C20EBBA8EF7B07CBBF3 SLT 0xFC PUSH5 0x736F6C6343 STOP ADDMOD GT STOP CALLER "
		},
		"gasEstimates": {
			"creation": {
				"codeDepositCost": "3228600",
				"executionCost": "infinite",
				"totalCost": "infinite"
			},
			"external": {
				"Breeding(uint256,uint256)": "infinite",
				"Charge(uint256,uint8)": "infinite",
				"Mint(uint256,uint8)": "infinite",
				"approve(address,uint256)": "infinite",
				"balanceOf(address)": "2921",
				"contractURI()": "infinite",
				"getApproved(uint256)": "5323",
				"getTrustedForwarder()": "2589",
				"isApprovedForAll(address,address)": "infinite",
				"isTrustedForwarder(address)": "2944",
				"name()": "infinite",
				"owner()": "2633",
				"ownerOf(uint256)": "3111",
				"renounceOwnership()": "32826",
				"safeTransferFrom(address,address,uint256)": "infinite",
				"safeTransferFrom(address,address,uint256,bytes)": "infinite",
				"setApprovalForAll(address,bool)": "infinite",
				"setBaseExtension(string)": "infinite",
				"setBaseURI(string)": "infinite",
				"setBreedingContract(address)": "29436",
				"setBreedingPrice(uint8)": "29415",
				"setCoinContract(address)": "29457",
				"setContractURI(string)": "infinite",
				"supportsInterface(bytes4)": "820",
				"symbol()": "infinite",
				"tokenURI(uint256)": "infinite",
				"totalSupply()": "2554",
				"transferFrom(address,address,uint256)": "infinite",
				"transferOwnership(address)": "33193",
				"withdraw()": "infinite"
			},
			"internal": {
				"CreateToken(uint256,uint256,uint256,uint256,uint8)": "infinite",
				"_msgData()": "infinite",
				"_msgSender()": "2383"
			}
		},
		"methodIdentifiers": {
			"Breeding(uint256,uint256)": "b921a400",
			"Charge(uint256,uint8)": "c6be88a4",
			"Mint(uint256,uint8)": "bc4ddb52",
			"approve(address,uint256)": "095ea7b3",
			"balanceOf(address)": "70a08231",
			"contractURI()": "e8a3d485",
			"getApproved(uint256)": "081812fc",
			"getTrustedForwarder()": "ce1b815f",
			"isApprovedForAll(address,address)": "e985e9c5",
			"isTrustedForwarder(address)": "572b6c05",
			"name()": "06fdde03",
			"owner()": "8da5cb5b",
			"ownerOf(uint256)": "6352211e",
			"renounceOwnership()": "715018a6",
			"safeTransferFrom(address,address,uint256)": "42842e0e",
			"safeTransferFrom(address,address,uint256,bytes)": "b88d4fde",
			"setApprovalForAll(address,bool)": "a22cb465",
			"setBaseExtension(string)": "da3ef23f",
			"setBaseURI(string)": "55f804b3",
			"setBreedingContract(address)": "8c5527cf",
			"setBreedingPrice(uint8)": "de405b18",
			"setCoinContract(address)": "fcbc4cee",
			"setContractURI(string)": "938e3d7b",
			"supportsInterface(bytes4)": "01ffc9a7",
			"symbol()": "95d89b41",
			"tokenURI(uint256)": "c87b56dd",
			"totalSupply()": "18160ddd",
			"transferFrom(address,address,uint256)": "23b872dd",
			"transferOwnership(address)": "f2fde38b",
			"withdraw()": "3ccfd60b"
		}
	},
	"abi": [
		{
			"inputs": [],
			"stateMutability": "nonpayable",
			"type": "constructor"
		},
		{
			"anonymous": false,
			"inputs": [
				{
					"indexed": true,
					"internalType": "address",
					"name": "owner",
					"type": "address"
				},
				{
					"indexed": true,
					"internalType": "address",
					"name": "approved",
					"type": "address"
				},
				{
					"indexed": true,
					"internalType": "uint256",
					"name": "tokenId",
					"type": "uint256"
				}
			],
			"name": "Approval",
			"type": "event"
		},
		{
			"anonymous": false,
			"inputs": [
				{
					"indexed": true,
					"internalType": "address",
					"name": "owner",
					"type": "address"
				},
				{
					"indexed": true,
					"internalType": "address",
					"name": "operator",
					"type": "address"
				},
				{
					"indexed": false,
					"internalType": "bool",
					"name": "approved",
					"type": "bool"
				}
			],
			"name": "ApprovalForAll",
			"type": "event"
		},
		{
			"anonymous": false,
			"inputs": [
				{
					"indexed": false,
					"internalType": "uint256",
					"name": "tokenId",
					"type": "uint256"
				},
				{
					"indexed": false,
					"internalType": "uint8",
					"name": "charge",
					"type": "uint8"
				}
			],
			"name": "Charged",
			"type": "event"
		},
		{
			"anonymous": false,
			"inputs": [
				{
					"indexed": true,
					"internalType": "address",
					"name": "previousOwner",
					"type": "address"
				},
				{
					"indexed": true,
					"internalType": "address",
					"name": "newOwner",
					"type": "address"
				}
			],
			"name": "OwnershipTransferred",
			"type": "event"
		},
		{
			"anonymous": false,
			"inputs": [
				{
					"indexed": true,
					"internalType": "address",
					"name": "from",
					"type": "address"
				},
				{
					"indexed": true,
					"internalType": "address",
					"name": "to",
					"type": "address"
				},
				{
					"indexed": true,
					"internalType": "uint256",
					"name": "tokenId",
					"type": "uint256"
				}
			],
			"name": "Transfer",
			"type": "event"
		},
		{
			"anonymous": false,
			"inputs": [
				{
					"indexed": false,
					"internalType": "uint256",
					"name": "tokenId",
					"type": "uint256"
				},
				{
					"indexed": false,
					"internalType": "uint256",
					"name": "parent1",
					"type": "uint256"
				},
				{
					"indexed": false,
					"internalType": "uint256",
					"name": "parent2",
					"type": "uint256"
				},
				{
					"indexed": false,
					"internalType": "uint256",
					"name": "genes",
					"type": "uint256"
				}
			],
			"name": "WasBorn",
			"type": "event"
		},
		{
			"inputs": [
				{
					"internalType": "uint256",
					"name": "token1",
					"type": "uint256"
				},
				{
					"internalType": "uint256",
					"name": "token2",
					"type": "uint256"
				}
			],
			"name": "Breeding",
			"outputs": [
				{
					"internalType": "uint256",
					"name": "_newTokenId",
					"type": "uint256"
				}
			],
			"stateMutability": "nonpayable",
			"type": "function"
		},
		{
			"inputs": [
				{
					"internalType": "uint256",
					"name": "tokenId",
					"type": "uint256"
				},
				{
					"internalType": "uint8",
					"name": "value",
					"type": "uint8"
				}
			],
			"name": "Charge",
			"outputs": [],
			"stateMutability": "nonpayable",
			"type": "function"
		},
		{
			"inputs": [
				{
					"internalType": "uint256",
					"name": "_genes",
					"type": "uint256"
				},
				{
					"internalType": "uint8",
					"name": "_charge",
					"type": "uint8"
				}
			],
			"name": "Mint",
			"outputs": [
				{
					"internalType": "uint256",
					"name": "",
					"type": "uint256"
				}
			],
			"stateMutability": "nonpayable",
			"type": "function"
		},
		{
			"inputs": [
				{
					"internalType": "address",
					"name": "to",
					"type": "address"
				},
				{
					"internalType": "uint256",
					"name": "tokenId",
					"type": "uint256"
				}
			],
			"name": "approve",
			"outputs": [],
			"stateMutability": "nonpayable",
			"type": "function"
		},
		{
			"inputs": [
				{
					"internalType": "address",
					"name": "owner",
					"type": "address"
				}
			],
			"name": "balanceOf",
			"outputs": [
				{
					"internalType": "uint256",
					"name": "",
					"type": "uint256"
				}
			],
			"stateMutability": "view",
			"type": "function"
		},
		{
			"inputs": [],
			"name": "contractURI",
			"outputs": [
				{
					"internalType": "string",
					"name": "",
					"type": "string"
				}
			],
			"stateMutability": "view",
			"type": "function"
		},
		{
			"inputs": [
				{
					"internalType": "uint256",
					"name": "tokenId",
					"type": "uint256"
				}
			],
			"name": "getApproved",
			"outputs": [
				{
					"internalType": "address",
					"name": "",
					"type": "address"
				}
			],
			"stateMutability": "view",
			"type": "function"
		},
		{
			"inputs": [],
			"name": "getTrustedForwarder",
			"outputs": [
				{
					"internalType": "address",
					"name": "forwarder",
					"type": "address"
				}
			],
			"stateMutability": "view",
			"type": "function"
		},
		{
			"inputs": [
				{
					"internalType": "address",
					"name": "owner",
					"type": "address"
				},
				{
					"internalType": "address",
					"name": "operator",
					"type": "address"
				}
			],
			"name": "isApprovedForAll",
			"outputs": [
				{
					"internalType": "bool",
					"name": "",
					"type": "bool"
				}
			],
			"stateMutability": "view",
			"type": "function"
		},
		{
			"inputs": [
				{
					"internalType": "address",
					"name": "forwarder",
					"type": "address"
				}
			],
			"name": "isTrustedForwarder",
			"outputs": [
				{
					"internalType": "bool",
					"name": "",
					"type": "bool"
				}
			],
			"stateMutability": "view",
			"type": "function"
		},
		{
			"inputs": [],
			"name": "name",
			"outputs": [
				{
					"internalType": "string",
					"name": "",
					"type": "string"
				}
			],
			"stateMutability": "view",
			"type": "function"
		},
		{
			"inputs": [],
			"name": "owner",
			"outputs": [
				{
					"internalType": "address",
					"name": "",
					"type": "address"
				}
			],
			"stateMutability": "view",
			"type": "function"
		},
		{
			"inputs": [
				{
					"internalType": "uint256",
					"name": "tokenId",
					"type": "uint256"
				}
			],
			"name": "ownerOf",
			"outputs": [
				{
					"internalType": "address",
					"name": "",
					"type": "address"
				}
			],
			"stateMutability": "view",
			"type": "function"
		},
		{
			"inputs": [],
			"name": "renounceOwnership",
			"outputs": [],
			"stateMutability": "nonpayable",
			"type": "function"
		},
		{
			"inputs": [
				{
					"internalType": "address",
					"name": "from",
					"type": "address"
				},
				{
					"internalType": "address",
					"name": "to",
					"type": "address"
				},
				{
					"internalType": "uint256",
					"name": "tokenId",
					"type": "uint256"
				}
			],
			"name": "safeTransferFrom",
			"outputs": [],
			"stateMutability": "nonpayable",
			"type": "function"
		},
		{
			"inputs": [
				{
					"internalType": "address",
					"name": "from",
					"type": "address"
				},
				{
					"internalType": "address",
					"name": "to",
					"type": "address"
				},
				{
					"internalType": "uint256",
					"name": "tokenId",
					"type": "uint256"
				},
				{
					"internalType": "bytes",
					"name": "data",
					"type": "bytes"
				}
			],
			"name": "safeTransferFrom",
			"outputs": [],
			"stateMutability": "nonpayable",
			"type": "function"
		},
		{
			"inputs": [
				{
					"internalType": "address",
					"name": "operator",
					"type": "address"
				},
				{
					"internalType": "bool",
					"name": "approved",
					"type": "bool"
				}
			],
			"name": "setApprovalForAll",
			"outputs": [],
			"stateMutability": "nonpayable",
			"type": "function"
		},
		{
			"inputs": [
				{
					"internalType": "string",
					"name": "extension",
					"type": "string"
				}
			],
			"name": "setBaseExtension",
			"outputs": [],
			"stateMutability": "nonpayable",
			"type": "function"
		},
		{
			"inputs": [
				{
					"internalType": "string",
					"name": "URI",
					"type": "string"
				}
			],
			"name": "setBaseURI",
			"outputs": [],
			"stateMutability": "nonpayable",
			"type": "function"
		},
		{
			"inputs": [
				{
					"internalType": "address",
					"name": "breedingContract",
					"type": "address"
				}
			],
			"name": "setBreedingContract",
			"outputs": [],
			"stateMutability": "nonpayable",
			"type": "function"
		},
		{
			"inputs": [
				{
					"internalType": "uint8",
					"name": "breedingPrice",
					"type": "uint8"
				}
			],
			"name": "setBreedingPrice",
			"outputs": [],
			"stateMutability": "nonpayable",
			"type": "function"
		},
		{
			"inputs": [
				{
					"internalType": "address",
					"name": "coinContract",
					"type": "address"
				}
			],
			"name": "setCoinContract",
			"outputs": [],
			"stateMutability": "nonpayable",
			"type": "function"
		},
		{
			"inputs": [
				{
					"internalType": "string",
					"name": "URI",
					"type": "string"
				}
			],
			"name": "setContractURI",
			"outputs": [],
			"stateMutability": "nonpayable",
			"type": "function"
		},
		{
			"inputs": [
				{
					"internalType": "bytes4",
					"name": "interfaceId",
					"type": "bytes4"
				}
			],
			"name": "supportsInterface",
			"outputs": [
				{
					"internalType": "bool",
					"name": "",
					"type": "bool"
				}
			],
			"stateMutability": "view",
			"type": "function"
		},
		{
			"inputs": [],
			"name": "symbol",
			"outputs": [
				{
					"internalType": "string",
					"name": "",
					"type": "string"
				}
			],
			"stateMutability": "view",
			"type": "function"
		},
		{
			"inputs": [
				{
					"internalType": "uint256",
					"name": "tokenId",
					"type": "uint256"
				}
			],
			"name": "tokenURI",
			"outputs": [
				{
					"internalType": "string",
					"name": "",
					"type": "string"
				}
			],
			"stateMutability": "view",
			"type": "function"
		},
		{
			"inputs": [],
			"name": "totalSupply",
			"outputs": [
				{
					"internalType": "uint256",
					"name": "",
					"type": "uint256"
				}
			],
			"stateMutability": "view",
			"type": "function"
		},
		{
			"inputs": [
				{
					"internalType": "address",
					"name": "from",
					"type": "address"
				},
				{
					"internalType": "address",
					"name": "to",
					"type": "address"
				},
				{
					"internalType": "uint256",
					"name": "tokenId",
					"type": "uint256"
				}
			],
			"name": "transferFrom",
			"outputs": [],
			"stateMutability": "nonpayable",
			"type": "function"
		},
		{
			"inputs": [
				{
					"internalType": "address",
					"name": "newOwner",
					"type": "address"
				}
			],
			"name": "transferOwnership",
			"outputs": [],
			"stateMutability": "nonpayable",
			"type": "function"
		},
		{
			"inputs": [],
			"name": "withdraw",
			"outputs": [],
			"stateMutability": "nonpayable",
			"type": "function"
		}
	]
}