{
	"data": {
		"bytecode": {
			"linkReferences": {},
			"object": "60806040526001600a556024600b553480156200001b57600080fd5b506040518060400160405280600881526020017f53686f546f6b656e0000000000000000000000000000000000000000000000008152506040518060400160405280600681526020017f53484f544b4e00000000000000000000000000000000000000000000000000008152508160009081620000999190620004b1565b508060019081620000ab9190620004b1565b5050506000600660006101000a81548160ff021916908315150217905550620000e9620000dd6200015b60201b60201c565b6200016360201b60201c565b604051620000f79062000229565b604051809103906000f08015801562000114573d6000803e3d6000fd5b50600960006101000a81548173ffffffffffffffffffffffffffffffffffffffff021916908373ffffffffffffffffffffffffffffffffffffffff16021790555062000598565b600033905090565b6000600660019054906101000a900473ffffffffffffffffffffffffffffffffffffffff16905081600660016101000a81548173ffffffffffffffffffffffffffffffffffffffff021916908373ffffffffffffffffffffffffffffffffffffffff1602179055508173ffffffffffffffffffffffffffffffffffffffff168173ffffffffffffffffffffffffffffffffffffffff167f8be0079c531659141344cd1fd0a4f28419497f9722a3daafe3b4186f6b6457e060405160405180910390a35050565b61165980620042bb83390190565b600081519050919050565b7f4e487b7100000000000000000000000000000000000000000000000000000000600052604160045260246000fd5b7f4e487b7100000000000000000000000000000000000000000000000000000000600052602260045260246000fd5b60006002820490506001821680620002b957607f821691505b602082108103620002cf57620002ce62000271565b5b50919050565b60008190508160005260206000209050919050565b60006020601f8301049050919050565b600082821b905092915050565b600060088302620003397fffffffffffffffffffffffffffffffffffffffffffffffffffffffffffffffff82620002fa565b620003458683620002fa565b95508019841693508086168417925050509392505050565b6000819050919050565b6000819050919050565b6000620003926200038c62000386846200035d565b62000367565b6200035d565b9050919050565b6000819050919050565b620003ae8362000371565b620003c6620003bd8262000399565b84845462000307565b825550505050565b600090565b620003dd620003ce565b620003ea818484620003a3565b505050565b5b81811015620004125762000406600082620003d3565b600181019050620003f0565b5050565b601f82111562000461576200042b81620002d5565b6200043684620002ea565b8101602085101562000446578190505b6200045e6200045585620002ea565b830182620003ef565b50505b505050565b600082821c905092915050565b6000620004866000198460080262000466565b1980831691505092915050565b6000620004a1838362000473565b9150826002028217905092915050565b620004bc8262000237565b67ffffffffffffffff811115620004d857620004d762000242565b5b620004e48254620002a0565b620004f182828562000416565b600060209050601f83116001811462000529576000841562000514578287015190505b62000520858262000493565b86555062000590565b601f1984166200053986620002d5565b60005b8281101562000563578489015182556001820191506020850194506020810190506200053c565b868310156200058357848901516200057f601f89168262000473565b8355505b6001600288020188555050505b505050505050565b613d1380620005a86000396000f3fe608060405234801561001057600080fd5b50600436106101f05760003560e01c80638c5527cf1161010f578063c87b56dd116100a2578063e985e9c511610071578063e985e9c514610559578063eb4b0e5114610589578063f2fde38b146105a7578063fbbe20a9146105c3576101f0565b8063c87b56dd146104bd578063d477a712146104ed578063e2e3a0db1461050b578063e4b50cb814610527576101f0565b8063a22cb465116100de578063a22cb4651461044b578063afa69d4914610467578063b88d4fde14610483578063c3b1f0b41461049f576101f0565b80638c5527cf146103c35780638da5cb5b146103df57806395d89b41146103fd578063a0712d681461041b576101f0565b80633f4ba83a116101875780636352211e116101565780636352211e1461034f57806370a082311461037f578063715018a6146103af5780638456cb59146103b9576101f0565b80633f4ba83a146102ef57806342842e0e146102f957806342966c68146103155780635c975abb14610331576101f0565b806316bd8646116101c357806316bd86461461028f57806318160ddd146102ab57806323b872dd146102c95780633ccfd60b146102e5576101f0565b806301ffc9a7146101f557806306fdde0314610225578063081812fc14610243578063095ea7b314610273575b600080fd5b61020f600480360381019061020a9190612840565b6105f3565b60405161021c9190612888565b60405180910390f35b61022d6106d5565b60405161023a9190612933565b60405180910390f35b61025d6004803603810190610258919061298b565b610767565b60405161026a91906129f9565b60405180910390f35b61028d60048036038101906102889190612a40565b6107ad565b005b6102a960048036038101906102a4919061298b565b6108c4565b005b6102b36108d6565b6040516102c09190612a8f565b60405180910390f35b6102e360048036038101906102de9190612aaa565b6108e7565b005b6102ed610947565b005b6102f76109cf565b005b610313600480360381019061030e9190612aaa565b6109e1565b005b61032f600480360381019061032a919061298b565b610a01565b005b610339610a5d565b6040516103469190612888565b60405180910390f35b6103696004803603810190610364919061298b565b610a74565b60405161037691906129f9565b60405180910390f35b61039960048036038101906103949190612afd565b610afa565b6040516103a69190612a8f565b60405180910390f35b6103b7610bb1565b005b6103c1610bc5565b005b6103dd60048036038101906103d89190612afd565b610bd7565b005b6103e7610c23565b6040516103f491906129f9565b60405180910390f35b610405610c4d565b6040516104129190612933565b60405180910390f35b6104356004803603810190610430919061298b565b610cdf565b6040516104429190612a8f565b60405180910390f35b61046560048036038101906104609190612b56565b610cfc565b005b610481600480360381019061047c9190612bcf565b610d12565b005b61049d60048036038101906104989190612d44565b610df8565b005b6104a7610e5a565b6040516104b491906129f9565b60405180910390f35b6104d760048036038101906104d2919061298b565b610e84565b6040516104e49190612933565b60405180910390f35b6104f5610f06565b6040516105029190612a8f565b60405180910390f35b6105256004803603810190610520919061298b565b610f10565b005b610541600480360381019061053c919061298b565b610f22565b60405161055093929190612dc7565b60405180910390f35b610573600480360381019061056e9190612dfe565b610f5a565b6040516105809190612888565b60405180910390f35b610591610fee565b60405161059e9190612a8f565b60405180910390f35b6105c160048036038101906105bc9190612afd565b610ff8565b005b6105dd60048036038101906105d89190612e3e565b61107b565b6040516105ea9190612a8f565b60405180910390f35b60007f80ac58cd000000000000000000000000000000000000000000000000000000007bffffffffffffffffffffffffffffffffffffffffffffffffffffffff1916827bffffffffffffffffffffffffffffffffffffffffffffffffffffffff191614806106be57507f5b5e139f000000000000000000000000000000000000000000000000000000007bffffffffffffffffffffffffffffffffffffffffffffffffffffffff1916827bffffffffffffffffffffffffffffffffffffffffffffffffffffffff1916145b806106ce57506106cd82611220565b5b9050919050565b6060600080546106e490612ead565b80601f016020809104026020016040519081016040528092919081815260200182805461071090612ead565b801561075d5780601f106107325761010080835404028352916020019161075d565b820191906000526020600020905b81548152906001019060200180831161074057829003601f168201915b5050505050905090565b60006107728261128a565b6004600083815260200190815260200160002060009054906101000a900473ffffffffffffffffffffffffffffffffffffffff169050919050565b60006107b882610a74565b90508073ffffffffffffffffffffffffffffffffffffffff168373ffffffffffffffffffffffffffffffffffffffff1603610828576040517f08c379a000000000000000000000000000000000000000000000000000000000815260040161081f90612f50565b60405180910390fd5b8073ffffffffffffffffffffffffffffffffffffffff166108476112d5565b73ffffffffffffffffffffffffffffffffffffffff1614806108765750610875816108706112d5565b610f5a565b5b6108b5576040517f08c379a00000000000000000000000000000000000000000000000000000000081526004016108ac90612fe2565b60405180910390fd5b6108bf83836112dd565b505050565b6108cc611396565b80600b8190555050565b60006108e26007611414565b905090565b6108f86108f26112d5565b82611422565b610937576040517f08c379a000000000000000000000000000000000000000000000000000000000815260040161092e90613074565b60405180910390fd5b6109428383836114b7565b505050565b61094f611396565b6000610959610c23565b73ffffffffffffffffffffffffffffffffffffffff164760405161097c906130c5565b60006040518083038185875af1925050503d80600081146109b9576040519150601f19603f3d011682016040523d82523d6000602084013e6109be565b606091505b50509050806109cc57600080fd5b50565b6109d7611396565b6109df6117b0565b565b6109fc83838360405180602001604052806000815250610df8565b505050565b610a12610a0c6112d5565b82611422565b610a51576040517f08c379a0000000000000000000000000000000000000000000000000000000008152600401610a4890613074565b60405180910390fd5b610a5a81611813565b50565b6000600660009054906101000a900460ff16905090565b600080610a8083611961565b9050600073ffffffffffffffffffffffffffffffffffffffff168173ffffffffffffffffffffffffffffffffffffffff1603610af1576040517f08c379a0000000000000000000000000000000000000000000000000000000008152600401610ae890613126565b60405180910390fd5b80915050919050565b60008073ffffffffffffffffffffffffffffffffffffffff168273ffffffffffffffffffffffffffffffffffffffff1603610b6a576040517f08c379a0000000000000000000000000000000000000000000000000000000008152600401610b61906131b8565b60405180910390fd5b600360008373ffffffffffffffffffffffffffffffffffffffff1673ffffffffffffffffffffffffffffffffffffffff168152602001908152602001600020549050919050565b610bb9611396565b610bc3600061199e565b565b610bcd611396565b610bd5611a64565b565b610bdf611396565b80600960006101000a81548173ffffffffffffffffffffffffffffffffffffffff021916908373ffffffffffffffffffffffffffffffffffffffff16021790555050565b6000600660019054906101000a900473ffffffffffffffffffffffffffffffffffffffff16905090565b606060018054610c5c90612ead565b80601f0160208091040260200160405190810160405280929190818152602001828054610c8890612ead565b8015610cd55780601f10610caa57610100808354040283529160200191610cd5565b820191906000526020600020905b815481529060010190602001808311610cb857829003601f168201915b5050505050905090565b6000610ce9611396565b610cf560008084611ac7565b9050919050565b610d0e610d076112d5565b8383611c74565b5050565b610d1a611396565b610d2382611de0565b610d62576040517f08c379a0000000000000000000000000000000000000000000000000000000008152600401610d5990613224565b60405180910390fd5b6000600860008481526020019081526020016000206002015490506000610d9c8284610d8d85611e21565b610d979190613273565b611e32565b90508060086000868152602001908152602001600020600201819055507fa4b06760d9e334049c680f60b4beff0728af9bb459b8698d252972b10c4f3e558482604051610dea9291906132a8565b60405180910390a150505050565b610e09610e036112d5565b83611422565b610e48576040517f08c379a0000000000000000000000000000000000000000000000000000000008152600401610e3f90613074565b60405180910390fd5b610e5484848484611e4d565b50505050565b6000600960009054906101000a900473ffffffffffffffffffffffffffffffffffffffff16905090565b6060610e8f82611de0565b610ece576040517f08c379a0000000000000000000000000000000000000000000000000000000008152600401610ec590613343565b60405180910390fd5b610ed6611ea9565b610edf83611ee6565b604051602001610ef09291906133eb565b6040516020818303038152906040529050919050565b6000600b54905090565b610f18611396565b80600a8190555050565b600080600080600860008681526020019081526020016000209050806000015481600101548260020154935093509350509193909250565b6000600560008473ffffffffffffffffffffffffffffffffffffffff1673ffffffffffffffffffffffffffffffffffffffff16815260200190815260200160002060008373ffffffffffffffffffffffffffffffffffffffff1673ffffffffffffffffffffffffffffffffffffffff16815260200190815260200160002060009054906101000a900460ff16905092915050565b6000600a54905090565b611000611396565b600073ffffffffffffffffffffffffffffffffffffffff168173ffffffffffffffffffffffffffffffffffffffff160361106f576040517f08c379a00000000000000000000000000000000000000000000000000000000081526004016110669061348c565b60405180910390fd5b6110788161199e565b50565b6000611085611396565b61108e83611de0565b6110cd576040517f08c379a00000000000000000000000000000000000000000000000000000000081526004016110c490613224565b60405180910390fd5b6110d682611de0565b611115576040517f08c379a000000000000000000000000000000000000000000000000000000000815260040161110c90613224565b60405180910390fd5b600060086000858152602001908152602001600020905060006008600085815260200190815260200160002090506000806000600960009054906101000a900473ffffffffffffffffffffffffffffffffffffffff1673ffffffffffffffffffffffffffffffffffffffff1663e4a13fb7866002015486600201546040518363ffffffff1660e01b81526004016111ad9291906132a8565b6060604051808303816000875af11580156111cc573d6000803e3d6000fd5b505050506040513d601f19601f820116820180604052508101906111f091906134c1565b925092509250611201888883611ac7565b9550828560020181905550818460020181905550505050505092915050565b60007f01ffc9a7000000000000000000000000000000000000000000000000000000007bffffffffffffffffffffffffffffffffffffffffffffffffffffffff1916827bffffffffffffffffffffffffffffffffffffffffffffffffffffffff1916149050919050565b61129381611de0565b6112d2576040517f08c379a00000000000000000000000000000000000000000000000000000000081526004016112c990613126565b60405180910390fd5b50565b600033905090565b816004600083815260200190815260200160002060006101000a81548173ffffffffffffffffffffffffffffffffffffffff021916908373ffffffffffffffffffffffffffffffffffffffff160217905550808273ffffffffffffffffffffffffffffffffffffffff1661135083610a74565b73ffffffffffffffffffffffffffffffffffffffff167f8c5be1e5ebec7d5bd14f71427d1e84f3dd0314c0f7b2291e5b200ac8c7c3b92560405160405180910390a45050565b61139e6112d5565b73ffffffffffffffffffffffffffffffffffffffff166113bc610c23565b73ffffffffffffffffffffffffffffffffffffffff1614611412576040517f08c379a000000000000000000000000000000000000000000000000000000000815260040161140990613560565b60405180910390fd5b565b600081600001549050919050565b60008061142e83610a74565b90508073ffffffffffffffffffffffffffffffffffffffff168473ffffffffffffffffffffffffffffffffffffffff161480611470575061146f8185610f5a565b5b806114ae57508373ffffffffffffffffffffffffffffffffffffffff1661149684610767565b73ffffffffffffffffffffffffffffffffffffffff16145b91505092915050565b8273ffffffffffffffffffffffffffffffffffffffff166114d782610a74565b73ffffffffffffffffffffffffffffffffffffffff161461152d576040517f08c379a0000000000000000000000000000000000000000000000000000000008152600401611524906135f2565b60405180910390fd5b600073ffffffffffffffffffffffffffffffffffffffff168273ffffffffffffffffffffffffffffffffffffffff160361159c576040517f08c379a000000000000000000000000000000000000000000000000000000000815260040161159390613684565b60405180910390fd5b6115a98383836001611fb4565b8273ffffffffffffffffffffffffffffffffffffffff166115c982610a74565b73ffffffffffffffffffffffffffffffffffffffff161461161f576040517f08c379a0000000000000000000000000000000000000000000000000000000008152600401611616906135f2565b60405180910390fd5b6004600082815260200190815260200160002060006101000a81549073ffffffffffffffffffffffffffffffffffffffff02191690556001600360008573ffffffffffffffffffffffffffffffffffffffff1673ffffffffffffffffffffffffffffffffffffffff168152602001908152602001600020600082825403925050819055506001600360008473ffffffffffffffffffffffffffffffffffffffff1673ffffffffffffffffffffffffffffffffffffffff16815260200190815260200160002060008282540192505081905550816002600083815260200190815260200160002060006101000a81548173ffffffffffffffffffffffffffffffffffffffff021916908373ffffffffffffffffffffffffffffffffffffffff160217905550808273ffffffffffffffffffffffffffffffffffffffff168473ffffffffffffffffffffffffffffffffffffffff167fddf252ad1be2c89b69c2b068fc378daa952ba7f163c4a11628f55a4df523b3ef60405160405180910390a46117ab8383836001611fce565b505050565b6117b8611fd4565b6000600660006101000a81548160ff0219169083151502179055507f5db9ee0a495bf2e6ff9c91a7834c1ba4fdd244a5e8aa4e537bd38aeae4b073aa6117fc6112d5565b60405161180991906129f9565b60405180910390a1565b600061181e82610a74565b905061182e816000846001611fb4565b61183782610a74565b90506004600083815260200190815260200160002060006101000a81549073ffffffffffffffffffffffffffffffffffffffff02191690556001600360008373ffffffffffffffffffffffffffffffffffffffff1673ffffffffffffffffffffffffffffffffffffffff168152602001908152602001600020600082825403925050819055506002600083815260200190815260200160002060006101000a81549073ffffffffffffffffffffffffffffffffffffffff021916905581600073ffffffffffffffffffffffffffffffffffffffff168273ffffffffffffffffffffffffffffffffffffffff167fddf252ad1be2c89b69c2b068fc378daa952ba7f163c4a11628f55a4df523b3ef60405160405180910390a461195d816000846001611fce565b5050565b60006002600083815260200190815260200160002060009054906101000a900473ffffffffffffffffffffffffffffffffffffffff169050919050565b6000600660019054906101000a900473ffffffffffffffffffffffffffffffffffffffff16905081600660016101000a81548173ffffffffffffffffffffffffffffffffffffffff021916908373ffffffffffffffffffffffffffffffffffffffff1602179055508173ffffffffffffffffffffffffffffffffffffffff168173ffffffffffffffffffffffffffffffffffffffff167f8be0079c531659141344cd1fd0a4f28419497f9722a3daafe3b4186f6b6457e060405160405180910390a35050565b611a6c61201d565b6001600660006101000a81548160ff0219169083151502179055507f62e78cea01bee320cd4e420270b5ea74000d11b0c9f74754ebdbfc544b05a258611ab06112d5565b604051611abd91906129f9565b60405180910390a1565b6000806009905060005b818160ff161015611bac576000611ae88583612067565b9050600a548160ff1610158015611b045750600b548160ff1611155b611b43576040517f08c379a0000000000000000000000000000000000000000000000000000000008152600401611b3a90613716565b60405180910390fd5b6000611b4f86846120b6565b905060008160ff1611611b97576040517f08c379a0000000000000000000000000000000000000000000000000000000008152600401611b8e906137a8565b60405180910390fd5b50508080611ba4906137c8565b915050611ad1565b5060006040518060600160405280878152602001868152602001858152509050611bd66007612105565b6000611be26007611414565b90508160086000838152602001908152602001600020600082015181600001556020820151816001015560408201518160020155905050611c2a611c24610c23565b8261211b565b7fb6da9597f5553d5deafc722dcc1f69d5463612674a36bae2aa8698bd86af1c7c81888888604051611c5f94939291906137f1565b60405180910390a18093505050509392505050565b8173ffffffffffffffffffffffffffffffffffffffff168373ffffffffffffffffffffffffffffffffffffffff1603611ce2576040517f08c379a0000000000000000000000000000000000000000000000000000000008152600401611cd990613882565b60405180910390fd5b80600560008573ffffffffffffffffffffffffffffffffffffffff1673ffffffffffffffffffffffffffffffffffffffff16815260200190815260200160002060008473ffffffffffffffffffffffffffffffffffffffff1673ffffffffffffffffffffffffffffffffffffffff16815260200190815260200160002060006101000a81548160ff0219169083151502179055508173ffffffffffffffffffffffffffffffffffffffff168373ffffffffffffffffffffffffffffffffffffffff167f17307eab39ab6107e8899845ad3d59bd9653f200f220920489ca2b5937696c3183604051611dd39190612888565b60405180910390a3505050565b60008073ffffffffffffffffffffffffffffffffffffffff16611e0283611961565b73ffffffffffffffffffffffffffffffffffffffff1614159050919050565b600060ff60f883901c169050919050565b600060f88260ff16901b60088085901b901c17905092915050565b611e588484846114b7565b611e6484848484612139565b611ea3576040517f08c379a0000000000000000000000000000000000000000000000000000000008152600401611e9a90613914565b60405180910390fd5b50505050565b60606040518060400160405280601f81526020017f6e66742e63727970746f73686f7065652e6e74696c6f79616c74792e636f6d00815250905090565b606060006001611ef5846122c0565b01905060008167ffffffffffffffff811115611f1457611f13612c19565b5b6040519080825280601f01601f191660200182016040528015611f465781602001600182028036833780820191505090505b509050600082602001820190505b600115611fa9578080600190039150507f3031323334353637383961626364656600000000000000000000000000000000600a86061a8153600a8581611f9d57611f9c613934565b5b04945060008503611f54575b819350505050919050565b611fbc61201d565b611fc884848484612413565b50505050565b50505050565b611fdc610a5d565b61201b576040517f08c379a0000000000000000000000000000000000000000000000000000000008152600401612012906139af565b60405180910390fd5b565b612025610a5d565b15612065576040517f08c379a000000000000000000000000000000000000000000000000000000000815260040161205c90613a1b565b60405180910390fd5b565b60008060049050600060038461207d9190613a3b565b60ff16905060ff6008600083856120949190613a78565b61209e9190613a78565b6120a89190613aac565b86901c169250505092915050565b6000806004905060006003846120cc9190613a3b565b60ff16905060ff6008600183856120e39190613a78565b6120ed9190613a78565b6120f79190613aac565b86901c169250505092915050565b6001816000016000828254019250508190555050565b612135828260405180602001604052806000815250612539565b5050565b600061215a8473ffffffffffffffffffffffffffffffffffffffff16612594565b156122b3578373ffffffffffffffffffffffffffffffffffffffff1663150b7a026121836112d5565b8786866040518563ffffffff1660e01b81526004016121a59493929190613b43565b6020604051808303816000875af19250505080156121e157506040513d601f19601f820116820180604052508101906121de9190613ba4565b60015b612263573d8060008114612211576040519150601f19603f3d011682016040523d82523d6000602084013e612216565b606091505b50600081510361225b576040517f08c379a000000000000000000000000000000000000000000000000000000000815260040161225290613914565b60405180910390fd5b805181602001fd5b63150b7a0260e01b7bffffffffffffffffffffffffffffffffffffffffffffffffffffffff1916817bffffffffffffffffffffffffffffffffffffffffffffffffffffffff1916149150506122b8565b600190505b949350505050565b600080600090507a184f03e93ff9f4daa797ed6e38ed64bf6a1f010000000000000000831061231e577a184f03e93ff9f4daa797ed6e38ed64bf6a1f010000000000000000838161231457612313613934565b5b0492506040810190505b6d04ee2d6d415b85acef8100000000831061235b576d04ee2d6d415b85acef8100000000838161235157612350613934565b5b0492506020810190505b662386f26fc10000831061238a57662386f26fc1000083816123805761237f613934565b5b0492506010810190505b6305f5e10083106123b3576305f5e10083816123a9576123a8613934565b5b0492506008810190505b61271083106123d85761271083816123ce576123cd613934565b5b0492506004810190505b606483106123fb57606483816123f1576123f0613934565b5b0492506002810190505b600a831061240a576001810190505b80915050919050565b600181111561253357600073ffffffffffffffffffffffffffffffffffffffff168473ffffffffffffffffffffffffffffffffffffffff16146124a75780600360008673ffffffffffffffffffffffffffffffffffffffff1673ffffffffffffffffffffffffffffffffffffffff168152602001908152602001600020600082825461249f9190613bd1565b925050819055505b600073ffffffffffffffffffffffffffffffffffffffff168373ffffffffffffffffffffffffffffffffffffffff16146125325780600360008573ffffffffffffffffffffffffffffffffffffffff1673ffffffffffffffffffffffffffffffffffffffff168152602001908152602001600020600082825461252a9190613a78565b925050819055505b5b50505050565b61254383836125b7565b6125506000848484612139565b61258f576040517f08c379a000000000000000000000000000000000000000000000000000000000815260040161258690613914565b60405180910390fd5b505050565b6000808273ffffffffffffffffffffffffffffffffffffffff163b119050919050565b600073ffffffffffffffffffffffffffffffffffffffff168273ffffffffffffffffffffffffffffffffffffffff1603612626576040517f08c379a000000000000000000000000000000000000000000000000000000000815260040161261d90613c51565b60405180910390fd5b61262f81611de0565b1561266f576040517f08c379a000000000000000000000000000000000000000000000000000000000815260040161266690613cbd565b60405180910390fd5b61267d600083836001611fb4565b61268681611de0565b156126c6576040517f08c379a00000000000000000000000000000000000000000000000000000000081526004016126bd90613cbd565b60405180910390fd5b6001600360008473ffffffffffffffffffffffffffffffffffffffff1673ffffffffffffffffffffffffffffffffffffffff16815260200190815260200160002060008282540192505081905550816002600083815260200190815260200160002060006101000a81548173ffffffffffffffffffffffffffffffffffffffff021916908373ffffffffffffffffffffffffffffffffffffffff160217905550808273ffffffffffffffffffffffffffffffffffffffff16600073ffffffffffffffffffffffffffffffffffffffff167fddf252ad1be2c89b69c2b068fc378daa952ba7f163c4a11628f55a4df523b3ef60405160405180910390a46127d0600083836001611fce565b5050565b6000604051905090565b600080fd5b600080fd5b60007fffffffff0000000000000000000000000000000000000000000000000000000082169050919050565b61281d816127e8565b811461282857600080fd5b50565b60008135905061283a81612814565b92915050565b600060208284031215612856576128556127de565b5b60006128648482850161282b565b91505092915050565b60008115159050919050565b6128828161286d565b82525050565b600060208201905061289d6000830184612879565b92915050565b600081519050919050565b600082825260208201905092915050565b60005b838110156128dd5780820151818401526020810190506128c2565b60008484015250505050565b6000601f19601f8301169050919050565b6000612905826128a3565b61290f81856128ae565b935061291f8185602086016128bf565b612928816128e9565b840191505092915050565b6000602082019050818103600083015261294d81846128fa565b905092915050565b6000819050919050565b61296881612955565b811461297357600080fd5b50565b6000813590506129858161295f565b92915050565b6000602082840312156129a1576129a06127de565b5b60006129af84828501612976565b91505092915050565b600073ffffffffffffffffffffffffffffffffffffffff82169050919050565b60006129e3826129b8565b9050919050565b6129f3816129d8565b82525050565b6000602082019050612a0e60008301846129ea565b92915050565b612a1d816129d8565b8114612a2857600080fd5b50565b600081359050612a3a81612a14565b92915050565b60008060408385031215612a5757612a566127de565b5b6000612a6585828601612a2b565b9250506020612a7685828601612976565b9150509250929050565b612a8981612955565b82525050565b6000602082019050612aa46000830184612a80565b92915050565b600080600060608486031215612ac357612ac26127de565b5b6000612ad186828701612a2b565b9350506020612ae286828701612a2b565b9250506040612af386828701612976565b9150509250925092565b600060208284031215612b1357612b126127de565b5b6000612b2184828501612a2b565b91505092915050565b612b338161286d565b8114612b3e57600080fd5b50565b600081359050612b5081612b2a565b92915050565b60008060408385031215612b6d57612b6c6127de565b5b6000612b7b85828601612a2b565b9250506020612b8c85828601612b41565b9150509250929050565b600060ff82169050919050565b612bac81612b96565b8114612bb757600080fd5b50565b600081359050612bc981612ba3565b92915050565b60008060408385031215612be657612be56127de565b5b6000612bf485828601612976565b9250506020612c0585828601612bba565b9150509250929050565b600080fd5b600080fd5b7f4e487b7100000000000000000000000000000000000000000000000000000000600052604160045260246000fd5b612c51826128e9565b810181811067ffffffffffffffff82111715612c7057612c6f612c19565b5b80604052505050565b6000612c836127d4565b9050612c8f8282612c48565b919050565b600067ffffffffffffffff821115612caf57612cae612c19565b5b612cb8826128e9565b9050602081019050919050565b82818337600083830152505050565b6000612ce7612ce284612c94565b612c79565b905082815260208101848484011115612d0357612d02612c14565b5b612d0e848285612cc5565b509392505050565b600082601f830112612d2b57612d2a612c0f565b5b8135612d3b848260208601612cd4565b91505092915050565b60008060008060808587031215612d5e57612d5d6127de565b5b6000612d6c87828801612a2b565b9450506020612d7d87828801612a2b565b9350506040612d8e87828801612976565b925050606085013567ffffffffffffffff811115612daf57612dae6127e3565b5b612dbb87828801612d16565b91505092959194509250565b6000606082019050612ddc6000830186612a80565b612de96020830185612a80565b612df66040830184612a80565b949350505050565b60008060408385031215612e1557612e146127de565b5b6000612e2385828601612a2b565b9250506020612e3485828601612a2b565b9150509250929050565b60008060408385031215612e5557612e546127de565b5b6000612e6385828601612976565b9250506020612e7485828601612976565b9150509250929050565b7f4e487b7100000000000000000000000000000000000000000000000000000000600052602260045260246000fd5b60006002820490506001821680612ec557607f821691505b602082108103612ed857612ed7612e7e565b5b50919050565b7f4552433732313a20617070726f76616c20746f2063757272656e74206f776e6560008201527f7200000000000000000000000000000000000000000000000000000000000000602082015250565b6000612f3a6021836128ae565b9150612f4582612ede565b604082019050919050565b60006020820190508181036000830152612f6981612f2d565b9050919050565b7f4552433732313a20617070726f76652063616c6c6572206973206e6f7420746f60008201527f6b656e206f776e6572206f7220617070726f76656420666f7220616c6c000000602082015250565b6000612fcc603d836128ae565b9150612fd782612f70565b604082019050919050565b60006020820190508181036000830152612ffb81612fbf565b9050919050565b7f4552433732313a2063616c6c6572206973206e6f7420746f6b656e206f776e6560008201527f72206f7220617070726f76656400000000000000000000000000000000000000602082015250565b600061305e602d836128ae565b915061306982613002565b604082019050919050565b6000602082019050818103600083015261308d81613051565b9050919050565b600081905092915050565b50565b60006130af600083613094565b91506130ba8261309f565b600082019050919050565b60006130d0826130a2565b9150819050919050565b7f4552433732313a20696e76616c696420746f6b656e2049440000000000000000600082015250565b60006131106018836128ae565b915061311b826130da565b602082019050919050565b6000602082019050818103600083015261313f81613103565b9050919050565b7f4552433732313a2061646472657373207a65726f206973206e6f74206120766160008201527f6c6964206f776e65720000000000000000000000000000000000000000000000602082015250565b60006131a26029836128ae565b91506131ad82613146565b604082019050919050565b600060208201905081810360008301526131d181613195565b9050919050565b7f717565727920666f72206e6f6e6578697374656e7420746f6b656e0000000000600082015250565b600061320e601b836128ae565b9150613219826131d8565b602082019050919050565b6000602082019050818103600083015261323d81613201565b9050919050565b7f4e487b7100000000000000000000000000000000000000000000000000000000600052601160045260246000fd5b600061327e82612b96565b915061328983612b96565b9250828201905060ff8111156132a2576132a1613244565b5b92915050565b60006040820190506132bd6000830185612a80565b6132ca6020830184612a80565b9392505050565b7f4552433732314d657461646174613a2055524920717565727920666f72206e6f60008201527f6e6578697374656e7420746f6b656e0000000000000000000000000000000000602082015250565b600061332d602f836128ae565b9150613338826132d1565b604082019050919050565b6000602082019050818103600083015261335c81613320565b9050919050565b600081905092915050565b6000613379826128a3565b6133838185613363565b93506133938185602086016128bf565b80840191505092915050565b7f2e6a736f6e000000000000000000000000000000000000000000000000000000600082015250565b60006133d5600583613363565b91506133e08261339f565b600582019050919050565b60006133f7828561336e565b9150613403828461336e565b915061340e826133c8565b91508190509392505050565b7f4f776e61626c653a206e6577206f776e657220697320746865207a65726f206160008201527f6464726573730000000000000000000000000000000000000000000000000000602082015250565b60006134766026836128ae565b91506134818261341a565b604082019050919050565b600060208201905081810360008301526134a581613469565b9050919050565b6000815190506134bb8161295f565b92915050565b6000806000606084860312156134da576134d96127de565b5b60006134e8868287016134ac565b93505060206134f9868287016134ac565b925050604061350a868287016134ac565b9150509250925092565b7f4f776e61626c653a2063616c6c6572206973206e6f7420746865206f776e6572600082015250565b600061354a6020836128ae565b915061355582613514565b602082019050919050565b600060208201905081810360008301526135798161353d565b9050919050565b7f4552433732313a207472616e736665722066726f6d20696e636f72726563742060008201527f6f776e6572000000000000000000000000000000000000000000000000000000602082015250565b60006135dc6025836128ae565b91506135e782613580565b604082019050919050565b6000602082019050818103600083015261360b816135cf565b9050919050565b7f4552433732313a207472616e7366657220746f20746865207a65726f2061646460008201527f7265737300000000000000000000000000000000000000000000000000000000602082015250565b600061366e6024836128ae565b915061367982613612565b604082019050919050565b6000602082019050818103600083015261369d81613661565b9050919050565b7f6572726f722c20637265617465546f6b656e2c2070617274206964206d75737460008201527f20626520696e2072616e67650000000000000000000000000000000000000000602082015250565b6000613700602c836128ae565b915061370b826136a4565b604082019050919050565b6000602082019050818103600083015261372f816136f3565b9050919050565b7f6572726f722c20637265617465546f6b656e2c2070617274206c6576656c206d60008201527f7573742062652067726561746572207468616e20300000000000000000000000602082015250565b60006137926035836128ae565b915061379d82613736565b604082019050919050565b600060208201905081810360008301526137c181613785565b9050919050565b60006137d382612b96565b915060ff82036137e6576137e5613244565b5b600182019050919050565b60006080820190506138066000830187612a80565b6138136020830186612a80565b6138206040830185612a80565b61382d6060830184612a80565b95945050505050565b7f4552433732313a20617070726f766520746f2063616c6c657200000000000000600082015250565b600061386c6019836128ae565b915061387782613836565b602082019050919050565b6000602082019050818103600083015261389b8161385f565b9050919050565b7f4552433732313a207472616e7366657220746f206e6f6e20455243373231526560008201527f63656976657220696d706c656d656e7465720000000000000000000000000000602082015250565b60006138fe6032836128ae565b9150613909826138a2565b604082019050919050565b6000602082019050818103600083015261392d816138f1565b9050919050565b7f4e487b7100000000000000000000000000000000000000000000000000000000600052601260045260246000fd5b7f5061757361626c653a206e6f7420706175736564000000000000000000000000600082015250565b60006139996014836128ae565b91506139a482613963565b602082019050919050565b600060208201905081810360008301526139c88161398c565b9050919050565b7f5061757361626c653a2070617573656400000000000000000000000000000000600082015250565b6000613a056010836128ae565b9150613a10826139cf565b602082019050919050565b60006020820190508181036000830152613a34816139f8565b9050919050565b6000613a4682612b96565b9150613a5183612b96565b9250828202613a5f81612b96565b9150808214613a7157613a70613244565b5b5092915050565b6000613a8382612955565b9150613a8e83612955565b9250828201905080821115613aa657613aa5613244565b5b92915050565b6000613ab782612955565b9150613ac283612955565b9250828202613ad081612955565b91508282048414831517613ae757613ae6613244565b5b5092915050565b600081519050919050565b600082825260208201905092915050565b6000613b1582613aee565b613b1f8185613af9565b9350613b2f8185602086016128bf565b613b38816128e9565b840191505092915050565b6000608082019050613b5860008301876129ea565b613b6560208301866129ea565b613b726040830185612a80565b8181036060830152613b848184613b0a565b905095945050505050565b600081519050613b9e81612814565b92915050565b600060208284031215613bba57613bb96127de565b5b6000613bc884828501613b8f565b91505092915050565b6000613bdc82612955565b9150613be783612955565b9250828203905081811115613bff57613bfe613244565b5b92915050565b7f4552433732313a206d696e7420746f20746865207a65726f2061646472657373600082015250565b6000613c3b6020836128ae565b9150613c4682613c05565b602082019050919050565b60006020820190508181036000830152613c6a81613c2e565b9050919050565b7f4552433732313a20746f6b656e20616c7265616479206d696e74656400000000600082015250565b6000613ca7601c836128ae565b9150613cb282613c71565b602082019050919050565b60006020820190508181036000830152613cd681613c9a565b905091905056fea26469706673582212204a62fcdd7042c53f28270823ecfcb8ad466807572da65827039e7cbe7ee2602964736f6c63430008130033608060405260008060146101000a81548160ff021916908360ff1602179055506001805560056002556001600355601e6004556001600555602460065534801561004857600080fd5b5061006561005a61006a60201b60201c565b61007260201b60201c565b610136565b600033905090565b60008060009054906101000a900473ffffffffffffffffffffffffffffffffffffffff169050816000806101000a81548173ffffffffffffffffffffffffffffffffffffffff021916908373ffffffffffffffffffffffffffffffffffffffff1602179055508173ffffffffffffffffffffffffffffffffffffffff168173ffffffffffffffffffffffffffffffffffffffff167f8be0079c531659141344cd1fd0a4f28419497f9722a3daafe3b4186f6b6457e060405160405180910390a35050565b611514806101456000396000f3fe608060405234801561001057600080fd5b50600436106101165760003560e01c80638da5cb5b116100a2578063e238b8c611610071578063e238b8c614610281578063e2e3a0db1461029f578063e4a13fb7146102bb578063eb4b0e51146102ed578063f2fde38b1461030b57610116565b80638da5cb5b1461020d57806391b667251461022b578063d477a71214610247578063d6412cfd1461026557610116565b806332099cc4116100e957806332099cc41461018b57806343aed9dc146101a9578063615ebe28146101c7578063715018a6146101e5578063878cf3a6146101ef57610116565b806302aff3781461011b578063054fee6a1461013757806316bd8646146101535780631bb39f841461016f575b600080fd5b61013560048036038101906101309190610ccf565b610327565b005b610151600480360381019061014c9190610ccf565b610339565b005b61016d60048036038101906101689190610ccf565b61034b565b005b61018960048036038101906101849190610ccf565b61035d565b005b61019361036f565b6040516101a09190610d0b565b60405180910390f35b6101b1610379565b6040516101be9190610d42565b60405180910390f35b6101cf61038f565b6040516101dc9190610d0b565b60405180910390f35b6101ed610399565b005b6101f76103ad565b6040516102049190610d0b565b60405180910390f35b6102156103b7565b6040516102229190610d9e565b60405180910390f35b61024560048036038101906102409190610ccf565b6103e0565b005b61024f6103f2565b60405161025c9190610d0b565b60405180910390f35b61027f600480360381019061027a9190610de5565b6103fc565b005b610289610422565b6040516102969190610d0b565b60405180910390f35b6102b960048036038101906102b49190610ccf565b61042c565b005b6102d560048036038101906102d09190610e12565b61043e565b6040516102e493929190610e52565b60405180910390f35b6102f5610860565b6040516103029190610d0b565b60405180910390f35b61032560048036038101906103209190610eb5565b61086a565b005b61032f6108ed565b8060018190555050565b6103416108ed565b8060028190555050565b6103536108ed565b8060068190555050565b6103656108ed565b8060048190555050565b6000600354905090565b60008060149054906101000a900460ff16905090565b6000600454905090565b6103a16108ed565b6103ab600061096b565b565b6000600154905090565b60008060009054906101000a900473ffffffffffffffffffffffffffffffffffffffff16905090565b6103e86108ed565b8060038190555050565b6000600654905090565b6104046108ed565b80600060146101000a81548160ff021916908360ff16021790555050565b6000600254905090565b6104346108ed565b8060058190555050565b600080600080600060149054906101000a900460ff1660ff161461051d57600060149054906101000a900460ff1660ff1661047886610a2f565b60ff1610156104bc576040517f08c379a00000000000000000000000000000000000000000000000000000000081526004016104b390610f3f565b60405180910390fd5b600060149054906101000a900460ff1660ff166104d885610a2f565b60ff16101561051c576040517f08c379a000000000000000000000000000000000000000000000000000000000815260040161051390610f3f565b60405180910390fd5b5b6000424344888860015460405160200161053c96959493929190610f80565b6040516020818303038152906040528051906020012060001c90506000810361059a576040517f08c379a00000000000000000000000000000000000000000000000000000000081526004016105919061103c565b60405180910390fd5b600160008154809291906105ad9061108b565b91905055506000600160026105c188610a40565b6105ca8a610a40565b6105d491906110e3565b6105de919061114a565b6105e891906110e3565b9050600060099050600080945088965087955060005b828160ff1610156107c55760006106238563ffffffff166003546004546103e8610a50565b905060006106698785806106369061108b565b965060006004546103e8600354600454610650919061117b565b61065a91906111af565b61066491906111f1565b610a8f565b821015905060006001905061068f8886806106839061108b565b975060006103e8610a8f565b600a60025461069e91906111af565b106106d55760ff6106cd8987806106b49061108b565b985060055460016006546106c89190611222565b610a8f565b169050610717565b6101f46106f38987806106e79061108b565b985060006103e8610a8f565b10610709576107028c85610aeb565b9050610716565b6107138d85610aeb565b90505b5b6005548160ff161015801561073157506006548160ff1611155b610770576040517f08c379a0000000000000000000000000000000000000000000000000000000008152600401610767906112c8565b60405180910390fd5b61077e898560ff1683610b3a565b985061078f898560ff166001610b99565b98506107ad898560ff16846107a55760006107a8565b60015b610bf8565b985050505080806107bd906112e8565b9150506105fe565b5060008060149054906101000a900460ff1660ff161461083c5761080b89600060149054906101000a900460ff166107fc8c610a2f565b6108069190611311565b610c57565b965061083988600060149054906101000a900460ff1661082a8b610a2f565b6108349190611311565b610c57565b95505b6108468584610c72565b9450610853856001610c57565b9450505050509250925092565b6000600554905090565b6108726108ed565b600073ffffffffffffffffffffffffffffffffffffffff168173ffffffffffffffffffffffffffffffffffffffff16036108e1576040517f08c379a00000000000000000000000000000000000000000000000000000000081526004016108d8906113b8565b60405180910390fd5b6108ea8161096b565b50565b6108f5610c8c565b73ffffffffffffffffffffffffffffffffffffffff166109136103b7565b73ffffffffffffffffffffffffffffffffffffffff1614610969576040517f08c379a000000000000000000000000000000000000000000000000000000000815260040161096090611424565b60405180910390fd5b565b60008060009054906101000a900473ffffffffffffffffffffffffffffffffffffffff169050816000806101000a81548173ffffffffffffffffffffffffffffffffffffffff021916908373ffffffffffffffffffffffffffffffffffffffff1602179055508173ffffffffffffffffffffffffffffffffffffffff168173ffffffffffffffffffffffffffffffffffffffff167f8be0079c531659141344cd1fd0a4f28419497f9722a3daafe3b4186f6b6457e060405160405180910390a35050565b600060ff60f883901c169050919050565b600063ffffffff82169050919050565b6000838511610a625760009050610a87565b82828587610a70919061117b565b610a7a91906111af565b610a8491906111f1565b90505b949350505050565b60008282610a9d919061117b565b8585604051602001610ab0929190611444565b6040516020818303038152906040528051906020012060001c610ad39190611470565b90508083610ae19190611222565b9050949350505050565b600080600490506000600384610b0191906114a1565b60ff16905060ff600860008385610b189190611222565b610b229190611222565b610b2c91906111af565b86901c169250505092915050565b600080600490506000600385610b5091906111af565b90506000600860008385610b649190611222565b610b6e9190611222565b610b7891906111af565b90508060ff901b1987169650808560ff16901b871793505050509392505050565b600080600490506000600385610baf91906111af565b90506000600860018385610bc39190611222565b610bcd9190611222565b610bd791906111af565b90508060ff901b1987169650808560ff16901b871793505050509392505050565b600080600490506000600385610c0e91906111af565b90506000600860028385610c229190611222565b610c2c9190611222565b610c3691906111af565b90508060ff901b1987169650808560ff16901b871793505050509392505050565b600060f88260ff16901b60088085901b901c17905092915050565b60008163ffffffff1660048085901c901b17905092915050565b600033905090565b600080fd5b6000819050919050565b610cac81610c99565b8114610cb757600080fd5b50565b600081359050610cc981610ca3565b92915050565b600060208284031215610ce557610ce4610c94565b5b6000610cf384828501610cba565b91505092915050565b610d0581610c99565b82525050565b6000602082019050610d206000830184610cfc565b92915050565b600060ff82169050919050565b610d3c81610d26565b82525050565b6000602082019050610d576000830184610d33565b92915050565b600073ffffffffffffffffffffffffffffffffffffffff82169050919050565b6000610d8882610d5d565b9050919050565b610d9881610d7d565b82525050565b6000602082019050610db36000830184610d8f565b92915050565b610dc281610d26565b8114610dcd57600080fd5b50565b600081359050610ddf81610db9565b92915050565b600060208284031215610dfb57610dfa610c94565b5b6000610e0984828501610dd0565b91505092915050565b60008060408385031215610e2957610e28610c94565b5b6000610e3785828601610cba565b9250506020610e4885828601610cba565b9150509250929050565b6000606082019050610e676000830186610cfc565b610e746020830185610cfc565b610e816040830184610cfc565b949350505050565b610e9281610d7d565b8114610e9d57600080fd5b50565b600081359050610eaf81610e89565b92915050565b600060208284031215610ecb57610eca610c94565b5b6000610ed984828501610ea0565b91505092915050565b600082825260208201905092915050565b7f696e73756666696369656e742063686172676500000000000000000000000000600082015250565b6000610f29601383610ee2565b9150610f3482610ef3565b602082019050919050565b60006020820190508181036000830152610f5881610f1c565b9050919050565b6000819050919050565b610f7a610f7582610c99565b610f5f565b82525050565b6000610f8c8289610f69565b602082019150610f9c8288610f69565b602082019150610fac8287610f69565b602082019150610fbc8286610f69565b602082019150610fcc8285610f69565b602082019150610fdc8284610f69565b602082019150819050979650505050505050565b7f72616e646f6d536565642063616e277420626520300000000000000000000000600082015250565b6000611026601583610ee2565b915061103182610ff0565b602082019050919050565b6000602082019050818103600083015261105581611019565b9050919050565b7f4e487b7100000000000000000000000000000000000000000000000000000000600052601160045260246000fd5b600061109682610c99565b91507fffffffffffffffffffffffffffffffffffffffffffffffffffffffffffffffff82036110c8576110c761105c565b5b600182019050919050565b600063ffffffff82169050919050565b60006110ee826110d3565b91506110f9836110d3565b9250828201905063ffffffff8111156111155761111461105c565b5b92915050565b7f4e487b7100000000000000000000000000000000000000000000000000000000600052601260045260246000fd5b6000611155826110d3565b9150611160836110d3565b9250826111705761116f61111b565b5b828204905092915050565b600061118682610c99565b915061119183610c99565b92508282039050818111156111a9576111a861105c565b5b92915050565b60006111ba82610c99565b91506111c583610c99565b92508282026111d381610c99565b915082820484148315176111ea576111e961105c565b5b5092915050565b60006111fc82610c99565b915061120783610c99565b9250826112175761121661111b565b5b828204905092915050565b600061122d82610c99565b915061123883610c99565b92508282019050808211156112505761124f61105c565b5b92915050565b7f6572726f722c206272656164696e672c2070617274206964206d75737420626560008201527f20696e2072616e67650000000000000000000000000000000000000000000000602082015250565b60006112b2602983610ee2565b91506112bd82611256565b604082019050919050565b600060208201905081810360008301526112e1816112a5565b9050919050565b60006112f382610d26565b915060ff82036113065761130561105c565b5b600182019050919050565b600061131c82610d26565b915061132783610d26565b9250828203905060ff8111156113405761133f61105c565b5b92915050565b7f4f776e61626c653a206e6577206f776e657220697320746865207a65726f206160008201527f6464726573730000000000000000000000000000000000000000000000000000602082015250565b60006113a2602683610ee2565b91506113ad82611346565b604082019050919050565b600060208201905081810360008301526113d181611395565b9050919050565b7f4f776e61626c653a2063616c6c6572206973206e6f7420746865206f776e6572600082015250565b600061140e602083610ee2565b9150611419826113d8565b602082019050919050565b6000602082019050818103600083015261143d81611401565b9050919050565b60006114508285610f69565b6020820191506114608284610f69565b6020820191508190509392505050565b600061147b82610c99565b915061148683610c99565b9250826114965761149561111b565b5b828206905092915050565b60006114ac82610d26565b91506114b783610d26565b92508282026114c581610d26565b91508082146114d7576114d661105c565b5b509291505056fea2646970667358221220b781f9f71d793f5a33c9374f369bdbce50dda86a24f96cabfb17d1e52a69cb9d64736f6c63430008130033",
			"opcodes": "PUSH1 0x80 PUSH1 0x40 MSTORE PUSH1 0x1 PUSH1 0xA SSTORE PUSH1 0x24 PUSH1 0xB SSTORE CALLVALUE DUP1 ISZERO PUSH3 0x1B JUMPI PUSH1 0x0 DUP1 REVERT JUMPDEST POP PUSH1 0x40 MLOAD DUP1 PUSH1 0x40 ADD PUSH1 0x40 MSTORE DUP1 PUSH1 0x8 DUP2 MSTORE PUSH1 0x20 ADD PUSH32 0x53686F546F6B656E000000000000000000000000000000000000000000000000 DUP2 MSTORE POP PUSH1 0x40 MLOAD DUP1 PUSH1 0x40 ADD PUSH1 0x40 MSTORE DUP1 PUSH1 0x6 DUP2 MSTORE PUSH1 0x20 ADD PUSH32 0x53484F544B4E0000000000000000000000000000000000000000000000000000 DUP2 MSTORE POP DUP2 PUSH1 0x0 SWAP1 DUP2 PUSH3 0x99 SWAP2 SWAP1 PUSH3 0x4B1 JUMP JUMPDEST POP DUP1 PUSH1 0x1 SWAP1 DUP2 PUSH3 0xAB SWAP2 SWAP1 PUSH3 0x4B1 JUMP JUMPDEST POP POP POP PUSH1 0x0 PUSH1 0x6 PUSH1 0x0 PUSH2 0x100 EXP DUP2 SLOAD DUP2 PUSH1 0xFF MUL NOT AND SWAP1 DUP4 ISZERO ISZERO MUL OR SWAP1 SSTORE POP PUSH3 0xE9 PUSH3 0xDD PUSH3 0x15B PUSH1 0x20 SHL PUSH1 0x20 SHR JUMP JUMPDEST PUSH3 0x163 PUSH1 0x20 SHL PUSH1 0x20 SHR JUMP JUMPDEST PUSH1 0x40 MLOAD PUSH3 0xF7 SWAP1 PUSH3 0x229 JUMP JUMPDEST PUSH1 0x40 MLOAD DUP1 SWAP2 SUB SWAP1 PUSH1 0x0 CREATE DUP1 ISZERO DUP1 ISZERO PUSH3 0x114 JUMPI RETURNDATASIZE PUSH1 0x0 DUP1 RETURNDATACOPY RETURNDATASIZE PUSH1 0x0 REVERT JUMPDEST POP PUSH1 0x9 PUSH1 0x0 PUSH2 0x100 EXP DUP2 SLOAD DUP2 PUSH20 0xFFFFFFFFFFFFFFFFFFFFFFFFFFFFFFFFFFFFFFFF MUL NOT AND SWAP1 DUP4 PUSH20 0xFFFFFFFFFFFFFFFFFFFFFFFFFFFFFFFFFFFFFFFF AND MUL OR SWAP1 SSTORE POP PUSH3 0x598 JUMP JUMPDEST PUSH1 0x0 CALLER SWAP1 POP SWAP1 JUMP JUMPDEST PUSH1 0x0 PUSH1 0x6 PUSH1 0x1 SWAP1 SLOAD SWAP1 PUSH2 0x100 EXP SWAP1 DIV PUSH20 0xFFFFFFFFFFFFFFFFFFFFFFFFFFFFFFFFFFFFFFFF AND SWAP1 POP DUP2 PUSH1 0x6 PUSH1 0x1 PUSH2 0x100 EXP DUP2 SLOAD DUP2 PUSH20 0xFFFFFFFFFFFFFFFFFFFFFFFFFFFFFFFFFFFFFFFF MUL NOT AND SWAP1 DUP4 PUSH20 0xFFFFFFFFFFFFFFFFFFFFFFFFFFFFFFFFFFFFFFFF AND MUL OR SWAP1 SSTORE POP DUP2 PUSH20 0xFFFFFFFFFFFFFFFFFFFFFFFFFFFFFFFFFFFFFFFF AND DUP2 PUSH20 0xFFFFFFFFFFFFFFFFFFFFFFFFFFFFFFFFFFFFFFFF AND PUSH32 0x8BE0079C531659141344CD1FD0A4F28419497F9722A3DAAFE3B4186F6B6457E0 PUSH1 0x40 MLOAD PUSH1 0x40 MLOAD DUP1 SWAP2 SUB SWAP1 LOG3 POP POP JUMP JUMPDEST PUSH2 0x1659 DUP1 PUSH3 0x42BB DUP4 CODECOPY ADD SWAP1 JUMP JUMPDEST PUSH1 0x0 DUP2 MLOAD SWAP1 POP SWAP2 SWAP1 POP JUMP JUMPDEST PUSH32 0x4E487B7100000000000000000000000000000000000000000000000000000000 PUSH1 0x0 MSTORE PUSH1 0x41 PUSH1 0x4 MSTORE PUSH1 0x24 PUSH1 0x0 REVERT JUMPDEST PUSH32 0x4E487B7100000000000000000000000000000000000000000000000000000000 PUSH1 0x0 MSTORE PUSH1 0x22 PUSH1 0x4 MSTORE PUSH1 0x24 PUSH1 0x0 REVERT JUMPDEST PUSH1 0x0 PUSH1 0x2 DUP3 DIV SWAP1 POP PUSH1 0x1 DUP3 AND DUP1 PUSH3 0x2B9 JUMPI PUSH1 0x7F DUP3 AND SWAP2 POP JUMPDEST PUSH1 0x20 DUP3 LT DUP2 SUB PUSH3 0x2CF JUMPI PUSH3 0x2CE PUSH3 0x271 JUMP JUMPDEST JUMPDEST POP SWAP2 SWAP1 POP JUMP JUMPDEST PUSH1 0x0 DUP2 SWAP1 POP DUP2 PUSH1 0x0 MSTORE PUSH1 0x20 PUSH1 0x0 KECCAK256 SWAP1 POP SWAP2 SWAP1 POP JUMP JUMPDEST PUSH1 0x0 PUSH1 0x20 PUSH1 0x1F DUP4 ADD DIV SWAP1 POP SWAP2 SWAP1 POP JUMP JUMPDEST PUSH1 0x0 DUP3 DUP3 SHL SWAP1 POP SWAP3 SWAP2 POP POP JUMP JUMPDEST PUSH1 0x0 PUSH1 0x8 DUP4 MUL PUSH3 0x339 PUSH32 0xFFFFFFFFFFFFFFFFFFFFFFFFFFFFFFFFFFFFFFFFFFFFFFFFFFFFFFFFFFFFFFFF DUP3 PUSH3 0x2FA JUMP JUMPDEST PUSH3 0x345 DUP7 DUP4 PUSH3 0x2FA JUMP JUMPDEST SWAP6 POP DUP1 NOT DUP5 AND SWAP4 POP DUP1 DUP7 AND DUP5 OR SWAP3 POP POP POP SWAP4 SWAP3 POP POP POP JUMP JUMPDEST PUSH1 0x0 DUP2 SWAP1 POP SWAP2 SWAP1 POP JUMP JUMPDEST PUSH1 0x0 DUP2 SWAP1 POP SWAP2 SWAP1 POP JUMP JUMPDEST PUSH1 0x0 PUSH3 0x392 PUSH3 0x38C PUSH3 0x386 DUP5 PUSH3 0x35D JUMP JUMPDEST PUSH3 0x367 JUMP JUMPDEST PUSH3 0x35D JUMP JUMPDEST SWAP1 POP SWAP2 SWAP1 POP JUMP JUMPDEST PUSH1 0x0 DUP2 SWAP1 POP SWAP2 SWAP1 POP JUMP JUMPDEST PUSH3 0x3AE DUP4 PUSH3 0x371 JUMP JUMPDEST PUSH3 0x3C6 PUSH3 0x3BD DUP3 PUSH3 0x399 JUMP JUMPDEST DUP5 DUP5 SLOAD PUSH3 0x307 JUMP JUMPDEST DUP3 SSTORE POP POP POP POP JUMP JUMPDEST PUSH1 0x0 SWAP1 JUMP JUMPDEST PUSH3 0x3DD PUSH3 0x3CE JUMP JUMPDEST PUSH3 0x3EA DUP2 DUP5 DUP5 PUSH3 0x3A3 JUMP JUMPDEST POP POP POP JUMP JUMPDEST JUMPDEST DUP2 DUP2 LT ISZERO PUSH3 0x412 JUMPI PUSH3 0x406 PUSH1 0x0 DUP3 PUSH3 0x3D3 JUMP JUMPDEST PUSH1 0x1 DUP2 ADD SWAP1 POP PUSH3 0x3F0 JUMP JUMPDEST POP POP JUMP JUMPDEST PUSH1 0x1F DUP3 GT ISZERO PUSH3 0x461 JUMPI PUSH3 0x42B DUP2 PUSH3 0x2D5 JUMP JUMPDEST PUSH3 0x436 DUP5 PUSH3 0x2EA JUMP JUMPDEST DUP2 ADD PUSH1 0x20 DUP6 LT ISZERO PUSH3 0x446 JUMPI DUP2 SWAP1 POP JUMPDEST PUSH3 0x45E PUSH3 0x455 DUP6 PUSH3 0x2EA JUMP JUMPDEST DUP4 ADD DUP3 PUSH3 0x3EF JUMP JUMPDEST POP POP JUMPDEST POP POP POP JUMP JUMPDEST PUSH1 0x0 DUP3 DUP3 SHR SWAP1 POP SWAP3 SWAP2 POP POP JUMP JUMPDEST PUSH1 0x0 PUSH3 0x486 PUSH1 0x0 NOT DUP5 PUSH1 0x8 MUL PUSH3 0x466 JUMP JUMPDEST NOT DUP1 DUP4 AND SWAP2 POP POP SWAP3 SWAP2 POP POP JUMP JUMPDEST PUSH1 0x0 PUSH3 0x4A1 DUP4 DUP4 PUSH3 0x473 JUMP JUMPDEST SWAP2 POP DUP3 PUSH1 0x2 MUL DUP3 OR SWAP1 POP SWAP3 SWAP2 POP POP JUMP JUMPDEST PUSH3 0x4BC DUP3 PUSH3 0x237 JUMP JUMPDEST PUSH8 0xFFFFFFFFFFFFFFFF DUP2 GT ISZERO PUSH3 0x4D8 JUMPI PUSH3 0x4D7 PUSH3 0x242 JUMP JUMPDEST JUMPDEST PUSH3 0x4E4 DUP3 SLOAD PUSH3 0x2A0 JUMP JUMPDEST PUSH3 0x4F1 DUP3 DUP3 DUP6 PUSH3 0x416 JUMP JUMPDEST PUSH1 0x0 PUSH1 0x20 SWAP1 POP PUSH1 0x1F DUP4 GT PUSH1 0x1 DUP2 EQ PUSH3 0x529 JUMPI PUSH1 0x0 DUP5 ISZERO PUSH3 0x514 JUMPI DUP3 DUP8 ADD MLOAD SWAP1 POP JUMPDEST PUSH3 0x520 DUP6 DUP3 PUSH3 0x493 JUMP JUMPDEST DUP7 SSTORE POP PUSH3 0x590 JUMP JUMPDEST PUSH1 0x1F NOT DUP5 AND PUSH3 0x539 DUP7 PUSH3 0x2D5 JUMP JUMPDEST PUSH1 0x0 JUMPDEST DUP3 DUP2 LT ISZERO PUSH3 0x563 JUMPI DUP5 DUP10 ADD MLOAD DUP3 SSTORE PUSH1 0x1 DUP3 ADD SWAP2 POP PUSH1 0x20 DUP6 ADD SWAP5 POP PUSH1 0x20 DUP2 ADD SWAP1 POP PUSH3 0x53C JUMP JUMPDEST DUP7 DUP4 LT ISZERO PUSH3 0x583 JUMPI DUP5 DUP10 ADD MLOAD PUSH3 0x57F PUSH1 0x1F DUP10 AND DUP3 PUSH3 0x473 JUMP JUMPDEST DUP4 SSTORE POP JUMPDEST PUSH1 0x1 PUSH1 0x2 DUP9 MUL ADD DUP9 SSTORE POP POP POP JUMPDEST POP POP POP POP POP POP JUMP JUMPDEST PUSH2 0x3D13 DUP1 PUSH3 0x5A8 PUSH1 0x0 CODECOPY PUSH1 0x0 RETURN INVALID PUSH1 0x80 PUSH1 0x40 MSTORE CALLVALUE DUP1 ISZERO PUSH2 0x10 JUMPI PUSH1 0x0 DUP1 REVERT JUMPDEST POP PUSH1 0x4 CALLDATASIZE LT PUSH2 0x1F0 JUMPI PUSH1 0x0 CALLDATALOAD PUSH1 0xE0 SHR DUP1 PUSH4 0x8C5527CF GT PUSH2 0x10F JUMPI DUP1 PUSH4 0xC87B56DD GT PUSH2 0xA2 JUMPI DUP1 PUSH4 0xE985E9C5 GT PUSH2 0x71 JUMPI DUP1 PUSH4 0xE985E9C5 EQ PUSH2 0x559 JUMPI DUP1 PUSH4 0xEB4B0E51 EQ PUSH2 0x589 JUMPI DUP1 PUSH4 0xF2FDE38B EQ PUSH2 0x5A7 JUMPI DUP1 PUSH4 0xFBBE20A9 EQ PUSH2 0x5C3 JUMPI PUSH2 0x1F0 JUMP JUMPDEST DUP1 PUSH4 0xC87B56DD EQ PUSH2 0x4BD JUMPI DUP1 PUSH4 0xD477A712 EQ PUSH2 0x4ED JUMPI DUP1 PUSH4 0xE2E3A0DB EQ PUSH2 0x50B JUMPI DUP1 PUSH4 0xE4B50CB8 EQ PUSH2 0x527 JUMPI PUSH2 0x1F0 JUMP JUMPDEST DUP1 PUSH4 0xA22CB465 GT PUSH2 0xDE JUMPI DUP1 PUSH4 0xA22CB465 EQ PUSH2 0x44B JUMPI DUP1 PUSH4 0xAFA69D49 EQ PUSH2 0x467 JUMPI DUP1 PUSH4 0xB88D4FDE EQ PUSH2 0x483 JUMPI DUP1 PUSH4 0xC3B1F0B4 EQ PUSH2 0x49F JUMPI PUSH2 0x1F0 JUMP JUMPDEST DUP1 PUSH4 0x8C5527CF EQ PUSH2 0x3C3 JUMPI DUP1 PUSH4 0x8DA5CB5B EQ PUSH2 0x3DF JUMPI DUP1 PUSH4 0x95D89B41 EQ PUSH2 0x3FD JUMPI DUP1 PUSH4 0xA0712D68 EQ PUSH2 0x41B JUMPI PUSH2 0x1F0 JUMP JUMPDEST DUP1 PUSH4 0x3F4BA83A GT PUSH2 0x187 JUMPI DUP1 PUSH4 0x6352211E GT PUSH2 0x156 JUMPI DUP1 PUSH4 0x6352211E EQ PUSH2 0x34F JUMPI DUP1 PUSH4 0x70A08231 EQ PUSH2 0x37F JUMPI DUP1 PUSH4 0x715018A6 EQ PUSH2 0x3AF JUMPI DUP1 PUSH4 0x8456CB59 EQ PUSH2 0x3B9 JUMPI PUSH2 0x1F0 JUMP JUMPDEST DUP1 PUSH4 0x3F4BA83A EQ PUSH2 0x2EF JUMPI DUP1 PUSH4 0x42842E0E EQ PUSH2 0x2F9 JUMPI DUP1 PUSH4 0x42966C68 EQ PUSH2 0x315 JUMPI DUP1 PUSH4 0x5C975ABB EQ PUSH2 0x331 JUMPI PUSH2 0x1F0 JUMP JUMPDEST DUP1 PUSH4 0x16BD8646 GT PUSH2 0x1C3 JUMPI DUP1 PUSH4 0x16BD8646 EQ PUSH2 0x28F JUMPI DUP1 PUSH4 0x18160DDD EQ PUSH2 0x2AB JUMPI DUP1 PUSH4 0x23B872DD EQ PUSH2 0x2C9 JUMPI DUP1 PUSH4 0x3CCFD60B EQ PUSH2 0x2E5 JUMPI PUSH2 0x1F0 JUMP JUMPDEST DUP1 PUSH4 0x1FFC9A7 EQ PUSH2 0x1F5 JUMPI DUP1 PUSH4 0x6FDDE03 EQ PUSH2 0x225 JUMPI DUP1 PUSH4 0x81812FC EQ PUSH2 0x243 JUMPI DUP1 PUSH4 0x95EA7B3 EQ PUSH2 0x273 JUMPI JUMPDEST PUSH1 0x0 DUP1 REVERT JUMPDEST PUSH2 0x20F PUSH1 0x4 DUP1 CALLDATASIZE SUB DUP2 ADD SWAP1 PUSH2 0x20A SWAP2 SWAP1 PUSH2 0x2840 JUMP JUMPDEST PUSH2 0x5F3 JUMP JUMPDEST PUSH1 0x40 MLOAD PUSH2 0x21C SWAP2 SWAP1 PUSH2 0x2888 JUMP JUMPDEST PUSH1 0x40 MLOAD DUP1 SWAP2 SUB SWAP1 RETURN JUMPDEST PUSH2 0x22D PUSH2 0x6D5 JUMP JUMPDEST PUSH1 0x40 MLOAD PUSH2 0x23A SWAP2 SWAP1 PUSH2 0x2933 JUMP JUMPDEST PUSH1 0x40 MLOAD DUP1 SWAP2 SUB SWAP1 RETURN JUMPDEST PUSH2 0x25D PUSH1 0x4 DUP1 CALLDATASIZE SUB DUP2 ADD SWAP1 PUSH2 0x258 SWAP2 SWAP1 PUSH2 0x298B JUMP JUMPDEST PUSH2 0x767 JUMP JUMPDEST PUSH1 0x40 MLOAD PUSH2 0x26A SWAP2 SWAP1 PUSH2 0x29F9 JUMP JUMPDEST PUSH1 0x40 MLOAD DUP1 SWAP2 SUB SWAP1 RETURN JUMPDEST PUSH2 0x28D PUSH1 0x4 DUP1 CALLDATASIZE SUB DUP2 ADD SWAP1 PUSH2 0x288 SWAP2 SWAP1 PUSH2 0x2A40 JUMP JUMPDEST PUSH2 0x7AD JUMP JUMPDEST STOP JUMPDEST PUSH2 0x2A9 PUSH1 0x4 DUP1 CALLDATASIZE SUB DUP2 ADD SWAP1 PUSH2 0x2A4 SWAP2 SWAP1 PUSH2 0x298B JUMP JUMPDEST PUSH2 0x8C4 JUMP JUMPDEST STOP JUMPDEST PUSH2 0x2B3 PUSH2 0x8D6 JUMP JUMPDEST PUSH1 0x40 MLOAD PUSH2 0x2C0 SWAP2 SWAP1 PUSH2 0x2A8F JUMP JUMPDEST PUSH1 0x40 MLOAD DUP1 SWAP2 SUB SWAP1 RETURN JUMPDEST PUSH2 0x2E3 PUSH1 0x4 DUP1 CALLDATASIZE SUB DUP2 ADD SWAP1 PUSH2 0x2DE SWAP2 SWAP1 PUSH2 0x2AAA JUMP JUMPDEST PUSH2 0x8E7 JUMP JUMPDEST STOP JUMPDEST PUSH2 0x2ED PUSH2 0x947 JUMP JUMPDEST STOP JUMPDEST PUSH2 0x2F7 PUSH2 0x9CF JUMP JUMPDEST STOP JUMPDEST PUSH2 0x313 PUSH1 0x4 DUP1 CALLDATASIZE SUB DUP2 ADD SWAP1 PUSH2 0x30E SWAP2 SWAP1 PUSH2 0x2AAA JUMP JUMPDEST PUSH2 0x9E1 JUMP JUMPDEST STOP JUMPDEST PUSH2 0x32F PUSH1 0x4 DUP1 CALLDATASIZE SUB DUP2 ADD SWAP1 PUSH2 0x32A SWAP2 SWAP1 PUSH2 0x298B JUMP JUMPDEST PUSH2 0xA01 JUMP JUMPDEST STOP JUMPDEST PUSH2 0x339 PUSH2 0xA5D JUMP JUMPDEST PUSH1 0x40 MLOAD PUSH2 0x346 SWAP2 SWAP1 PUSH2 0x2888 JUMP JUMPDEST PUSH1 0x40 MLOAD DUP1 SWAP2 SUB SWAP1 RETURN JUMPDEST PUSH2 0x369 PUSH1 0x4 DUP1 CALLDATASIZE SUB DUP2 ADD SWAP1 PUSH2 0x364 SWAP2 SWAP1 PUSH2 0x298B JUMP JUMPDEST PUSH2 0xA74 JUMP JUMPDEST PUSH1 0x40 MLOAD PUSH2 0x376 SWAP2 SWAP1 PUSH2 0x29F9 JUMP JUMPDEST PUSH1 0x40 MLOAD DUP1 SWAP2 SUB SWAP1 RETURN JUMPDEST PUSH2 0x399 PUSH1 0x4 DUP1 CALLDATASIZE SUB DUP2 ADD SWAP1 PUSH2 0x394 SWAP2 SWAP1 PUSH2 0x2AFD JUMP JUMPDEST PUSH2 0xAFA JUMP JUMPDEST PUSH1 0x40 MLOAD PUSH2 0x3A6 SWAP2 SWAP1 PUSH2 0x2A8F JUMP JUMPDEST PUSH1 0x40 MLOAD DUP1 SWAP2 SUB SWAP1 RETURN JUMPDEST PUSH2 0x3B7 PUSH2 0xBB1 JUMP JUMPDEST STOP JUMPDEST PUSH2 0x3C1 PUSH2 0xBC5 JUMP JUMPDEST STOP JUMPDEST PUSH2 0x3DD PUSH1 0x4 DUP1 CALLDATASIZE SUB DUP2 ADD SWAP1 PUSH2 0x3D8 SWAP2 SWAP1 PUSH2 0x2AFD JUMP JUMPDEST PUSH2 0xBD7 JUMP JUMPDEST STOP JUMPDEST PUSH2 0x3E7 PUSH2 0xC23 JUMP JUMPDEST PUSH1 0x40 MLOAD PUSH2 0x3F4 SWAP2 SWAP1 PUSH2 0x29F9 JUMP JUMPDEST PUSH1 0x40 MLOAD DUP1 SWAP2 SUB SWAP1 RETURN JUMPDEST PUSH2 0x405 PUSH2 0xC4D JUMP JUMPDEST PUSH1 0x40 MLOAD PUSH2 0x412 SWAP2 SWAP1 PUSH2 0x2933 JUMP JUMPDEST PUSH1 0x40 MLOAD DUP1 SWAP2 SUB SWAP1 RETURN JUMPDEST PUSH2 0x435 PUSH1 0x4 DUP1 CALLDATASIZE SUB DUP2 ADD SWAP1 PUSH2 0x430 SWAP2 SWAP1 PUSH2 0x298B JUMP JUMPDEST PUSH2 0xCDF JUMP JUMPDEST PUSH1 0x40 MLOAD PUSH2 0x442 SWAP2 SWAP1 PUSH2 0x2A8F JUMP JUMPDEST PUSH1 0x40 MLOAD DUP1 SWAP2 SUB SWAP1 RETURN JUMPDEST PUSH2 0x465 PUSH1 0x4 DUP1 CALLDATASIZE SUB DUP2 ADD SWAP1 PUSH2 0x460 SWAP2 SWAP1 PUSH2 0x2B56 JUMP JUMPDEST PUSH2 0xCFC JUMP JUMPDEST STOP JUMPDEST PUSH2 0x481 PUSH1 0x4 DUP1 CALLDATASIZE SUB DUP2 ADD SWAP1 PUSH2 0x47C SWAP2 SWAP1 PUSH2 0x2BCF JUMP JUMPDEST PUSH2 0xD12 JUMP JUMPDEST STOP JUMPDEST PUSH2 0x49D PUSH1 0x4 DUP1 CALLDATASIZE SUB DUP2 ADD SWAP1 PUSH2 0x498 SWAP2 SWAP1 PUSH2 0x2D44 JUMP JUMPDEST PUSH2 0xDF8 JUMP JUMPDEST STOP JUMPDEST PUSH2 0x4A7 PUSH2 0xE5A JUMP JUMPDEST PUSH1 0x40 MLOAD PUSH2 0x4B4 SWAP2 SWAP1 PUSH2 0x29F9 JUMP JUMPDEST PUSH1 0x40 MLOAD DUP1 SWAP2 SUB SWAP1 RETURN JUMPDEST PUSH2 0x4D7 PUSH1 0x4 DUP1 CALLDATASIZE SUB DUP2 ADD SWAP1 PUSH2 0x4D2 SWAP2 SWAP1 PUSH2 0x298B JUMP JUMPDEST PUSH2 0xE84 JUMP JUMPDEST PUSH1 0x40 MLOAD PUSH2 0x4E4 SWAP2 SWAP1 PUSH2 0x2933 JUMP JUMPDEST PUSH1 0x40 MLOAD DUP1 SWAP2 SUB SWAP1 RETURN JUMPDEST PUSH2 0x4F5 PUSH2 0xF06 JUMP JUMPDEST PUSH1 0x40 MLOAD PUSH2 0x502 SWAP2 SWAP1 PUSH2 0x2A8F JUMP JUMPDEST PUSH1 0x40 MLOAD DUP1 SWAP2 SUB SWAP1 RETURN JUMPDEST PUSH2 0x525 PUSH1 0x4 DUP1 CALLDATASIZE SUB DUP2 ADD SWAP1 PUSH2 0x520 SWAP2 SWAP1 PUSH2 0x298B JUMP JUMPDEST PUSH2 0xF10 JUMP JUMPDEST STOP JUMPDEST PUSH2 0x541 PUSH1 0x4 DUP1 CALLDATASIZE SUB DUP2 ADD SWAP1 PUSH2 0x53C SWAP2 SWAP1 PUSH2 0x298B JUMP JUMPDEST PUSH2 0xF22 JUMP JUMPDEST PUSH1 0x40 MLOAD PUSH2 0x550 SWAP4 SWAP3 SWAP2 SWAP1 PUSH2 0x2DC7 JUMP JUMPDEST PUSH1 0x40 MLOAD DUP1 SWAP2 SUB SWAP1 RETURN JUMPDEST PUSH2 0x573 PUSH1 0x4 DUP1 CALLDATASIZE SUB DUP2 ADD SWAP1 PUSH2 0x56E SWAP2 SWAP1 PUSH2 0x2DFE JUMP JUMPDEST PUSH2 0xF5A JUMP JUMPDEST PUSH1 0x40 MLOAD PUSH2 0x580 SWAP2 SWAP1 PUSH2 0x2888 JUMP JUMPDEST PUSH1 0x40 MLOAD DUP1 SWAP2 SUB SWAP1 RETURN JUMPDEST PUSH2 0x591 PUSH2 0xFEE JUMP JUMPDEST PUSH1 0x40 MLOAD PUSH2 0x59E SWAP2 SWAP1 PUSH2 0x2A8F JUMP JUMPDEST PUSH1 0x40 MLOAD DUP1 SWAP2 SUB SWAP1 RETURN JUMPDEST PUSH2 0x5C1 PUSH1 0x4 DUP1 CALLDATASIZE SUB DUP2 ADD SWAP1 PUSH2 0x5BC SWAP2 SWAP1 PUSH2 0x2AFD JUMP JUMPDEST PUSH2 0xFF8 JUMP JUMPDEST STOP JUMPDEST PUSH2 0x5DD PUSH1 0x4 DUP1 CALLDATASIZE SUB DUP2 ADD SWAP1 PUSH2 0x5D8 SWAP2 SWAP1 PUSH2 0x2E3E JUMP JUMPDEST PUSH2 0x107B JUMP JUMPDEST PUSH1 0x40 MLOAD PUSH2 0x5EA SWAP2 SWAP1 PUSH2 0x2A8F JUMP JUMPDEST PUSH1 0x40 MLOAD DUP1 SWAP2 SUB SWAP1 RETURN JUMPDEST PUSH1 0x0 PUSH32 0x80AC58CD00000000000000000000000000000000000000000000000000000000 PUSH28 0xFFFFFFFFFFFFFFFFFFFFFFFFFFFFFFFFFFFFFFFFFFFFFFFFFFFFFFFF NOT AND DUP3 PUSH28 0xFFFFFFFFFFFFFFFFFFFFFFFFFFFFFFFFFFFFFFFFFFFFFFFFFFFFFFFF NOT AND EQ DUP1 PUSH2 0x6BE JUMPI POP PUSH32 0x5B5E139F00000000000000000000000000000000000000000000000000000000 PUSH28 0xFFFFFFFFFFFFFFFFFFFFFFFFFFFFFFFFFFFFFFFFFFFFFFFFFFFFFFFF NOT AND DUP3 PUSH28 0xFFFFFFFFFFFFFFFFFFFFFFFFFFFFFFFFFFFFFFFFFFFFFFFFFFFFFFFF NOT AND EQ JUMPDEST DUP1 PUSH2 0x6CE JUMPI POP PUSH2 0x6CD DUP3 PUSH2 0x1220 JUMP JUMPDEST JUMPDEST SWAP1 POP SWAP2 SWAP1 POP JUMP JUMPDEST PUSH1 0x60 PUSH1 0x0 DUP1 SLOAD PUSH2 0x6E4 SWAP1 PUSH2 0x2EAD JUMP JUMPDEST DUP1 PUSH1 0x1F ADD PUSH1 0x20 DUP1 SWAP2 DIV MUL PUSH1 0x20 ADD PUSH1 0x40 MLOAD SWAP1 DUP2 ADD PUSH1 0x40 MSTORE DUP1 SWAP3 SWAP2 SWAP1 DUP2 DUP2 MSTORE PUSH1 0x20 ADD DUP3 DUP1 SLOAD PUSH2 0x710 SWAP1 PUSH2 0x2EAD JUMP JUMPDEST DUP1 ISZERO PUSH2 0x75D JUMPI DUP1 PUSH1 0x1F LT PUSH2 0x732 JUMPI PUSH2 0x100 DUP1 DUP4 SLOAD DIV MUL DUP4 MSTORE SWAP2 PUSH1 0x20 ADD SWAP2 PUSH2 0x75D JUMP JUMPDEST DUP3 ADD SWAP2 SWAP1 PUSH1 0x0 MSTORE PUSH1 0x20 PUSH1 0x0 KECCAK256 SWAP1 JUMPDEST DUP2 SLOAD DUP2 MSTORE SWAP1 PUSH1 0x1 ADD SWAP1 PUSH1 0x20 ADD DUP1 DUP4 GT PUSH2 0x740 JUMPI DUP3 SWAP1 SUB PUSH1 0x1F AND DUP3 ADD SWAP2 JUMPDEST POP POP POP POP POP SWAP1 POP SWAP1 JUMP JUMPDEST PUSH1 0x0 PUSH2 0x772 DUP3 PUSH2 0x128A JUMP JUMPDEST PUSH1 0x4 PUSH1 0x0 DUP4 DUP2 MSTORE PUSH1 0x20 ADD SWAP1 DUP2 MSTORE PUSH1 0x20 ADD PUSH1 0x0 KECCAK256 PUSH1 0x0 SWAP1 SLOAD SWAP1 PUSH2 0x100 EXP SWAP1 DIV PUSH20 0xFFFFFFFFFFFFFFFFFFFFFFFFFFFFFFFFFFFFFFFF AND SWAP1 POP SWAP2 SWAP1 POP JUMP JUMPDEST PUSH1 0x0 PUSH2 0x7B8 DUP3 PUSH2 0xA74 JUMP JUMPDEST SWAP1 POP DUP1 PUSH20 0xFFFFFFFFFFFFFFFFFFFFFFFFFFFFFFFFFFFFFFFF AND DUP4 PUSH20 0xFFFFFFFFFFFFFFFFFFFFFFFFFFFFFFFFFFFFFFFF AND SUB PUSH2 0x828 JUMPI PUSH1 0x40 MLOAD PUSH32 0x8C379A000000000000000000000000000000000000000000000000000000000 DUP2 MSTORE PUSH1 0x4 ADD PUSH2 0x81F SWAP1 PUSH2 0x2F50 JUMP JUMPDEST PUSH1 0x40 MLOAD DUP1 SWAP2 SUB SWAP1 REVERT JUMPDEST DUP1 PUSH20 0xFFFFFFFFFFFFFFFFFFFFFFFFFFFFFFFFFFFFFFFF AND PUSH2 0x847 PUSH2 0x12D5 JUMP JUMPDEST PUSH20 0xFFFFFFFFFFFFFFFFFFFFFFFFFFFFFFFFFFFFFFFF AND EQ DUP1 PUSH2 0x876 JUMPI POP PUSH2 0x875 DUP2 PUSH2 0x870 PUSH2 0x12D5 JUMP JUMPDEST PUSH2 0xF5A JUMP JUMPDEST JUMPDEST PUSH2 0x8B5 JUMPI PUSH1 0x40 MLOAD PUSH32 0x8C379A000000000000000000000000000000000000000000000000000000000 DUP2 MSTORE PUSH1 0x4 ADD PUSH2 0x8AC SWAP1 PUSH2 0x2FE2 JUMP JUMPDEST PUSH1 0x40 MLOAD DUP1 SWAP2 SUB SWAP1 REVERT JUMPDEST PUSH2 0x8BF DUP4 DUP4 PUSH2 0x12DD JUMP JUMPDEST POP POP POP JUMP JUMPDEST PUSH2 0x8CC PUSH2 0x1396 JUMP JUMPDEST DUP1 PUSH1 0xB DUP2 SWAP1 SSTORE POP POP JUMP JUMPDEST PUSH1 0x0 PUSH2 0x8E2 PUSH1 0x7 PUSH2 0x1414 JUMP JUMPDEST SWAP1 POP SWAP1 JUMP JUMPDEST PUSH2 0x8F8 PUSH2 0x8F2 PUSH2 0x12D5 JUMP JUMPDEST DUP3 PUSH2 0x1422 JUMP JUMPDEST PUSH2 0x937 JUMPI PUSH1 0x40 MLOAD PUSH32 0x8C379A000000000000000000000000000000000000000000000000000000000 DUP2 MSTORE PUSH1 0x4 ADD PUSH2 0x92E SWAP1 PUSH2 0x3074 JUMP JUMPDEST PUSH1 0x40 MLOAD DUP1 SWAP2 SUB SWAP1 REVERT JUMPDEST PUSH2 0x942 DUP4 DUP4 DUP4 PUSH2 0x14B7 JUMP JUMPDEST POP POP POP JUMP JUMPDEST PUSH2 0x94F PUSH2 0x1396 JUMP JUMPDEST PUSH1 0x0 PUSH2 0x959 PUSH2 0xC23 JUMP JUMPDEST PUSH20 0xFFFFFFFFFFFFFFFFFFFFFFFFFFFFFFFFFFFFFFFF AND SELFBALANCE PUSH1 0x40 MLOAD PUSH2 0x97C SWAP1 PUSH2 0x30C5 JUMP JUMPDEST PUSH1 0x0 PUSH1 0x40 MLOAD DUP1 DUP4 SUB DUP2 DUP6 DUP8 GAS CALL SWAP3 POP POP POP RETURNDATASIZE DUP1 PUSH1 0x0 DUP2 EQ PUSH2 0x9B9 JUMPI PUSH1 0x40 MLOAD SWAP2 POP PUSH1 0x1F NOT PUSH1 0x3F RETURNDATASIZE ADD AND DUP3 ADD PUSH1 0x40 MSTORE RETURNDATASIZE DUP3 MSTORE RETURNDATASIZE PUSH1 0x0 PUSH1 0x20 DUP5 ADD RETURNDATACOPY PUSH2 0x9BE JUMP JUMPDEST PUSH1 0x60 SWAP2 POP JUMPDEST POP POP SWAP1 POP DUP1 PUSH2 0x9CC JUMPI PUSH1 0x0 DUP1 REVERT JUMPDEST POP JUMP JUMPDEST PUSH2 0x9D7 PUSH2 0x1396 JUMP JUMPDEST PUSH2 0x9DF PUSH2 0x17B0 JUMP JUMPDEST JUMP JUMPDEST PUSH2 0x9FC DUP4 DUP4 DUP4 PUSH1 0x40 MLOAD DUP1 PUSH1 0x20 ADD PUSH1 0x40 MSTORE DUP1 PUSH1 0x0 DUP2 MSTORE POP PUSH2 0xDF8 JUMP JUMPDEST POP POP POP JUMP JUMPDEST PUSH2 0xA12 PUSH2 0xA0C PUSH2 0x12D5 JUMP JUMPDEST DUP3 PUSH2 0x1422 JUMP JUMPDEST PUSH2 0xA51 JUMPI PUSH1 0x40 MLOAD PUSH32 0x8C379A000000000000000000000000000000000000000000000000000000000 DUP2 MSTORE PUSH1 0x4 ADD PUSH2 0xA48 SWAP1 PUSH2 0x3074 JUMP JUMPDEST PUSH1 0x40 MLOAD DUP1 SWAP2 SUB SWAP1 REVERT JUMPDEST PUSH2 0xA5A DUP2 PUSH2 0x1813 JUMP JUMPDEST POP JUMP JUMPDEST PUSH1 0x0 PUSH1 0x6 PUSH1 0x0 SWAP1 SLOAD SWAP1 PUSH2 0x100 EXP SWAP1 DIV PUSH1 0xFF AND SWAP1 POP SWAP1 JUMP JUMPDEST PUSH1 0x0 DUP1 PUSH2 0xA80 DUP4 PUSH2 0x1961 JUMP JUMPDEST SWAP1 POP PUSH1 0x0 PUSH20 0xFFFFFFFFFFFFFFFFFFFFFFFFFFFFFFFFFFFFFFFF AND DUP2 PUSH20 0xFFFFFFFFFFFFFFFFFFFFFFFFFFFFFFFFFFFFFFFF AND SUB PUSH2 0xAF1 JUMPI PUSH1 0x40 MLOAD PUSH32 0x8C379A000000000000000000000000000000000000000000000000000000000 DUP2 MSTORE PUSH1 0x4 ADD PUSH2 0xAE8 SWAP1 PUSH2 0x3126 JUMP JUMPDEST PUSH1 0x40 MLOAD DUP1 SWAP2 SUB SWAP1 REVERT JUMPDEST DUP1 SWAP2 POP POP SWAP2 SWAP1 POP JUMP JUMPDEST PUSH1 0x0 DUP1 PUSH20 0xFFFFFFFFFFFFFFFFFFFFFFFFFFFFFFFFFFFFFFFF AND DUP3 PUSH20 0xFFFFFFFFFFFFFFFFFFFFFFFFFFFFFFFFFFFFFFFF AND SUB PUSH2 0xB6A JUMPI PUSH1 0x40 MLOAD PUSH32 0x8C379A000000000000000000000000000000000000000000000000000000000 DUP2 MSTORE PUSH1 0x4 ADD PUSH2 0xB61 SWAP1 PUSH2 0x31B8 JUMP JUMPDEST PUSH1 0x40 MLOAD DUP1 SWAP2 SUB SWAP1 REVERT JUMPDEST PUSH1 0x3 PUSH1 0x0 DUP4 PUSH20 0xFFFFFFFFFFFFFFFFFFFFFFFFFFFFFFFFFFFFFFFF AND PUSH20 0xFFFFFFFFFFFFFFFFFFFFFFFFFFFFFFFFFFFFFFFF AND DUP2 MSTORE PUSH1 0x20 ADD SWAP1 DUP2 MSTORE PUSH1 0x20 ADD PUSH1 0x0 KECCAK256 SLOAD SWAP1 POP SWAP2 SWAP1 POP JUMP JUMPDEST PUSH2 0xBB9 PUSH2 0x1396 JUMP JUMPDEST PUSH2 0xBC3 PUSH1 0x0 PUSH2 0x199E JUMP JUMPDEST JUMP JUMPDEST PUSH2 0xBCD PUSH2 0x1396 JUMP JUMPDEST PUSH2 0xBD5 PUSH2 0x1A64 JUMP JUMPDEST JUMP JUMPDEST PUSH2 0xBDF PUSH2 0x1396 JUMP JUMPDEST DUP1 PUSH1 0x9 PUSH1 0x0 PUSH2 0x100 EXP DUP2 SLOAD DUP2 PUSH20 0xFFFFFFFFFFFFFFFFFFFFFFFFFFFFFFFFFFFFFFFF MUL NOT AND SWAP1 DUP4 PUSH20 0xFFFFFFFFFFFFFFFFFFFFFFFFFFFFFFFFFFFFFFFF AND MUL OR SWAP1 SSTORE POP POP JUMP JUMPDEST PUSH1 0x0 PUSH1 0x6 PUSH1 0x1 SWAP1 SLOAD SWAP1 PUSH2 0x100 EXP SWAP1 DIV PUSH20 0xFFFFFFFFFFFFFFFFFFFFFFFFFFFFFFFFFFFFFFFF AND SWAP1 POP SWAP1 JUMP JUMPDEST PUSH1 0x60 PUSH1 0x1 DUP1 SLOAD PUSH2 0xC5C SWAP1 PUSH2 0x2EAD JUMP JUMPDEST DUP1 PUSH1 0x1F ADD PUSH1 0x20 DUP1 SWAP2 DIV MUL PUSH1 0x20 ADD PUSH1 0x40 MLOAD SWAP1 DUP2 ADD PUSH1 0x40 MSTORE DUP1 SWAP3 SWAP2 SWAP1 DUP2 DUP2 MSTORE PUSH1 0x20 ADD DUP3 DUP1 SLOAD PUSH2 0xC88 SWAP1 PUSH2 0x2EAD JUMP JUMPDEST DUP1 ISZERO PUSH2 0xCD5 JUMPI DUP1 PUSH1 0x1F LT PUSH2 0xCAA JUMPI PUSH2 0x100 DUP1 DUP4 SLOAD DIV MUL DUP4 MSTORE SWAP2 PUSH1 0x20 ADD SWAP2 PUSH2 0xCD5 JUMP JUMPDEST DUP3 ADD SWAP2 SWAP1 PUSH1 0x0 MSTORE PUSH1 0x20 PUSH1 0x0 KECCAK256 SWAP1 JUMPDEST DUP2 SLOAD DUP2 MSTORE SWAP1 PUSH1 0x1 ADD SWAP1 PUSH1 0x20 ADD DUP1 DUP4 GT PUSH2 0xCB8 JUMPI DUP3 SWAP1 SUB PUSH1 0x1F AND DUP3 ADD SWAP2 JUMPDEST POP POP POP POP POP SWAP1 POP SWAP1 JUMP JUMPDEST PUSH1 0x0 PUSH2 0xCE9 PUSH2 0x1396 JUMP JUMPDEST PUSH2 0xCF5 PUSH1 0x0 DUP1 DUP5 PUSH2 0x1AC7 JUMP JUMPDEST SWAP1 POP SWAP2 SWAP1 POP JUMP JUMPDEST PUSH2 0xD0E PUSH2 0xD07 PUSH2 0x12D5 JUMP JUMPDEST DUP4 DUP4 PUSH2 0x1C74 JUMP JUMPDEST POP POP JUMP JUMPDEST PUSH2 0xD1A PUSH2 0x1396 JUMP JUMPDEST PUSH2 0xD23 DUP3 PUSH2 0x1DE0 JUMP JUMPDEST PUSH2 0xD62 JUMPI PUSH1 0x40 MLOAD PUSH32 0x8C379A000000000000000000000000000000000000000000000000000000000 DUP2 MSTORE PUSH1 0x4 ADD PUSH2 0xD59 SWAP1 PUSH2 0x3224 JUMP JUMPDEST PUSH1 0x40 MLOAD DUP1 SWAP2 SUB SWAP1 REVERT JUMPDEST PUSH1 0x0 PUSH1 0x8 PUSH1 0x0 DUP5 DUP2 MSTORE PUSH1 0x20 ADD SWAP1 DUP2 MSTORE PUSH1 0x20 ADD PUSH1 0x0 KECCAK256 PUSH1 0x2 ADD SLOAD SWAP1 POP PUSH1 0x0 PUSH2 0xD9C DUP3 DUP5 PUSH2 0xD8D DUP6 PUSH2 0x1E21 JUMP JUMPDEST PUSH2 0xD97 SWAP2 SWAP1 PUSH2 0x3273 JUMP JUMPDEST PUSH2 0x1E32 JUMP JUMPDEST SWAP1 POP DUP1 PUSH1 0x8 PUSH1 0x0 DUP7 DUP2 MSTORE PUSH1 0x20 ADD SWAP1 DUP2 MSTORE PUSH1 0x20 ADD PUSH1 0x0 KECCAK256 PUSH1 0x2 ADD DUP2 SWAP1 SSTORE POP PUSH32 0xA4B06760D9E334049C680F60B4BEFF0728AF9BB459B8698D252972B10C4F3E55 DUP5 DUP3 PUSH1 0x40 MLOAD PUSH2 0xDEA SWAP3 SWAP2 SWAP1 PUSH2 0x32A8 JUMP JUMPDEST PUSH1 0x40 MLOAD DUP1 SWAP2 SUB SWAP1 LOG1 POP POP POP POP JUMP JUMPDEST PUSH2 0xE09 PUSH2 0xE03 PUSH2 0x12D5 JUMP JUMPDEST DUP4 PUSH2 0x1422 JUMP JUMPDEST PUSH2 0xE48 JUMPI PUSH1 0x40 MLOAD PUSH32 0x8C379A000000000000000000000000000000000000000000000000000000000 DUP2 MSTORE PUSH1 0x4 ADD PUSH2 0xE3F SWAP1 PUSH2 0x3074 JUMP JUMPDEST PUSH1 0x40 MLOAD DUP1 SWAP2 SUB SWAP1 REVERT JUMPDEST PUSH2 0xE54 DUP5 DUP5 DUP5 DUP5 PUSH2 0x1E4D JUMP JUMPDEST POP POP POP POP JUMP JUMPDEST PUSH1 0x0 PUSH1 0x9 PUSH1 0x0 SWAP1 SLOAD SWAP1 PUSH2 0x100 EXP SWAP1 DIV PUSH20 0xFFFFFFFFFFFFFFFFFFFFFFFFFFFFFFFFFFFFFFFF AND SWAP1 POP SWAP1 JUMP JUMPDEST PUSH1 0x60 PUSH2 0xE8F DUP3 PUSH2 0x1DE0 JUMP JUMPDEST PUSH2 0xECE JUMPI PUSH1 0x40 MLOAD PUSH32 0x8C379A000000000000000000000000000000000000000000000000000000000 DUP2 MSTORE PUSH1 0x4 ADD PUSH2 0xEC5 SWAP1 PUSH2 0x3343 JUMP JUMPDEST PUSH1 0x40 MLOAD DUP1 SWAP2 SUB SWAP1 REVERT JUMPDEST PUSH2 0xED6 PUSH2 0x1EA9 JUMP JUMPDEST PUSH2 0xEDF DUP4 PUSH2 0x1EE6 JUMP JUMPDEST PUSH1 0x40 MLOAD PUSH1 0x20 ADD PUSH2 0xEF0 SWAP3 SWAP2 SWAP1 PUSH2 0x33EB JUMP JUMPDEST PUSH1 0x40 MLOAD PUSH1 0x20 DUP2 DUP4 SUB SUB DUP2 MSTORE SWAP1 PUSH1 0x40 MSTORE SWAP1 POP SWAP2 SWAP1 POP JUMP JUMPDEST PUSH1 0x0 PUSH1 0xB SLOAD SWAP1 POP SWAP1 JUMP JUMPDEST PUSH2 0xF18 PUSH2 0x1396 JUMP JUMPDEST DUP1 PUSH1 0xA DUP2 SWAP1 SSTORE POP POP JUMP JUMPDEST PUSH1 0x0 DUP1 PUSH1 0x0 DUP1 PUSH1 0x8 PUSH1 0x0 DUP7 DUP2 MSTORE PUSH1 0x20 ADD SWAP1 DUP2 MSTORE PUSH1 0x20 ADD PUSH1 0x0 KECCAK256 SWAP1 POP DUP1 PUSH1 0x0 ADD SLOAD DUP2 PUSH1 0x1 ADD SLOAD DUP3 PUSH1 0x2 ADD SLOAD SWAP4 POP SWAP4 POP SWAP4 POP POP SWAP2 SWAP4 SWAP1 SWAP3 POP JUMP JUMPDEST PUSH1 0x0 PUSH1 0x5 PUSH1 0x0 DUP5 PUSH20 0xFFFFFFFFFFFFFFFFFFFFFFFFFFFFFFFFFFFFFFFF AND PUSH20 0xFFFFFFFFFFFFFFFFFFFFFFFFFFFFFFFFFFFFFFFF AND DUP2 MSTORE PUSH1 0x20 ADD SWAP1 DUP2 MSTORE PUSH1 0x20 ADD PUSH1 0x0 KECCAK256 PUSH1 0x0 DUP4 PUSH20 0xFFFFFFFFFFFFFFFFFFFFFFFFFFFFFFFFFFFFFFFF AND PUSH20 0xFFFFFFFFFFFFFFFFFFFFFFFFFFFFFFFFFFFFFFFF AND DUP2 MSTORE PUSH1 0x20 ADD SWAP1 DUP2 MSTORE PUSH1 0x20 ADD PUSH1 0x0 KECCAK256 PUSH1 0x0 SWAP1 SLOAD SWAP1 PUSH2 0x100 EXP SWAP1 DIV PUSH1 0xFF AND SWAP1 POP SWAP3 SWAP2 POP POP JUMP JUMPDEST PUSH1 0x0 PUSH1 0xA SLOAD SWAP1 POP SWAP1 JUMP JUMPDEST PUSH2 0x1000 PUSH2 0x1396 JUMP JUMPDEST PUSH1 0x0 PUSH20 0xFFFFFFFFFFFFFFFFFFFFFFFFFFFFFFFFFFFFFFFF AND DUP2 PUSH20 0xFFFFFFFFFFFFFFFFFFFFFFFFFFFFFFFFFFFFFFFF AND SUB PUSH2 0x106F JUMPI PUSH1 0x40 MLOAD PUSH32 0x8C379A000000000000000000000000000000000000000000000000000000000 DUP2 MSTORE PUSH1 0x4 ADD PUSH2 0x1066 SWAP1 PUSH2 0x348C JUMP JUMPDEST PUSH1 0x40 MLOAD DUP1 SWAP2 SUB SWAP1 REVERT JUMPDEST PUSH2 0x1078 DUP2 PUSH2 0x199E JUMP JUMPDEST POP JUMP JUMPDEST PUSH1 0x0 PUSH2 0x1085 PUSH2 0x1396 JUMP JUMPDEST PUSH2 0x108E DUP4 PUSH2 0x1DE0 JUMP JUMPDEST PUSH2 0x10CD JUMPI PUSH1 0x40 MLOAD PUSH32 0x8C379A000000000000000000000000000000000000000000000000000000000 DUP2 MSTORE PUSH1 0x4 ADD PUSH2 0x10C4 SWAP1 PUSH2 0x3224 JUMP JUMPDEST PUSH1 0x40 MLOAD DUP1 SWAP2 SUB SWAP1 REVERT JUMPDEST PUSH2 0x10D6 DUP3 PUSH2 0x1DE0 JUMP JUMPDEST PUSH2 0x1115 JUMPI PUSH1 0x40 MLOAD PUSH32 0x8C379A000000000000000000000000000000000000000000000000000000000 DUP2 MSTORE PUSH1 0x4 ADD PUSH2 0x110C SWAP1 PUSH2 0x3224 JUMP JUMPDEST PUSH1 0x40 MLOAD DUP1 SWAP2 SUB SWAP1 REVERT JUMPDEST PUSH1 0x0 PUSH1 0x8 PUSH1 0x0 DUP6 DUP2 MSTORE PUSH1 0x20 ADD SWAP1 DUP2 MSTORE PUSH1 0x20 ADD PUSH1 0x0 KECCAK256 SWAP1 POP PUSH1 0x0 PUSH1 0x8 PUSH1 0x0 DUP6 DUP2 MSTORE PUSH1 0x20 ADD SWAP1 DUP2 MSTORE PUSH1 0x20 ADD PUSH1 0x0 KECCAK256 SWAP1 POP PUSH1 0x0 DUP1 PUSH1 0x0 PUSH1 0x9 PUSH1 0x0 SWAP1 SLOAD SWAP1 PUSH2 0x100 EXP SWAP1 DIV PUSH20 0xFFFFFFFFFFFFFFFFFFFFFFFFFFFFFFFFFFFFFFFF AND PUSH20 0xFFFFFFFFFFFFFFFFFFFFFFFFFFFFFFFFFFFFFFFF AND PUSH4 0xE4A13FB7 DUP7 PUSH1 0x2 ADD SLOAD DUP7 PUSH1 0x2 ADD SLOAD PUSH1 0x40 MLOAD DUP4 PUSH4 0xFFFFFFFF AND PUSH1 0xE0 SHL DUP2 MSTORE PUSH1 0x4 ADD PUSH2 0x11AD SWAP3 SWAP2 SWAP1 PUSH2 0x32A8 JUMP JUMPDEST PUSH1 0x60 PUSH1 0x40 MLOAD DUP1 DUP4 SUB DUP2 PUSH1 0x0 DUP8 GAS CALL ISZERO DUP1 ISZERO PUSH2 0x11CC JUMPI RETURNDATASIZE PUSH1 0x0 DUP1 RETURNDATACOPY RETURNDATASIZE PUSH1 0x0 REVERT JUMPDEST POP POP POP POP PUSH1 0x40 MLOAD RETURNDATASIZE PUSH1 0x1F NOT PUSH1 0x1F DUP3 ADD AND DUP3 ADD DUP1 PUSH1 0x40 MSTORE POP DUP2 ADD SWAP1 PUSH2 0x11F0 SWAP2 SWAP1 PUSH2 0x34C1 JUMP JUMPDEST SWAP3 POP SWAP3 POP SWAP3 POP PUSH2 0x1201 DUP9 DUP9 DUP4 PUSH2 0x1AC7 JUMP JUMPDEST SWAP6 POP DUP3 DUP6 PUSH1 0x2 ADD DUP2 SWAP1 SSTORE POP DUP2 DUP5 PUSH1 0x2 ADD DUP2 SWAP1 SSTORE POP POP POP POP POP POP SWAP3 SWAP2 POP POP JUMP JUMPDEST PUSH1 0x0 PUSH32 0x1FFC9A700000000000000000000000000000000000000000000000000000000 PUSH28 0xFFFFFFFFFFFFFFFFFFFFFFFFFFFFFFFFFFFFFFFFFFFFFFFFFFFFFFFF NOT AND DUP3 PUSH28 0xFFFFFFFFFFFFFFFFFFFFFFFFFFFFFFFFFFFFFFFFFFFFFFFFFFFFFFFF NOT AND EQ SWAP1 POP SWAP2 SWAP1 POP JUMP JUMPDEST PUSH2 0x1293 DUP2 PUSH2 0x1DE0 JUMP JUMPDEST PUSH2 0x12D2 JUMPI PUSH1 0x40 MLOAD PUSH32 0x8C379A000000000000000000000000000000000000000000000000000000000 DUP2 MSTORE PUSH1 0x4 ADD PUSH2 0x12C9 SWAP1 PUSH2 0x3126 JUMP JUMPDEST PUSH1 0x40 MLOAD DUP1 SWAP2 SUB SWAP1 REVERT JUMPDEST POP JUMP JUMPDEST PUSH1 0x0 CALLER SWAP1 POP SWAP1 JUMP JUMPDEST DUP2 PUSH1 0x4 PUSH1 0x0 DUP4 DUP2 MSTORE PUSH1 0x20 ADD SWAP1 DUP2 MSTORE PUSH1 0x20 ADD PUSH1 0x0 KECCAK256 PUSH1 0x0 PUSH2 0x100 EXP DUP2 SLOAD DUP2 PUSH20 0xFFFFFFFFFFFFFFFFFFFFFFFFFFFFFFFFFFFFFFFF MUL NOT AND SWAP1 DUP4 PUSH20 0xFFFFFFFFFFFFFFFFFFFFFFFFFFFFFFFFFFFFFFFF AND MUL OR SWAP1 SSTORE POP DUP1 DUP3 PUSH20 0xFFFFFFFFFFFFFFFFFFFFFFFFFFFFFFFFFFFFFFFF AND PUSH2 0x1350 DUP4 PUSH2 0xA74 JUMP JUMPDEST PUSH20 0xFFFFFFFFFFFFFFFFFFFFFFFFFFFFFFFFFFFFFFFF AND PUSH32 0x8C5BE1E5EBEC7D5BD14F71427D1E84F3DD0314C0F7B2291E5B200AC8C7C3B925 PUSH1 0x40 MLOAD PUSH1 0x40 MLOAD DUP1 SWAP2 SUB SWAP1 LOG4 POP POP JUMP JUMPDEST PUSH2 0x139E PUSH2 0x12D5 JUMP JUMPDEST PUSH20 0xFFFFFFFFFFFFFFFFFFFFFFFFFFFFFFFFFFFFFFFF AND PUSH2 0x13BC PUSH2 0xC23 JUMP JUMPDEST PUSH20 0xFFFFFFFFFFFFFFFFFFFFFFFFFFFFFFFFFFFFFFFF AND EQ PUSH2 0x1412 JUMPI PUSH1 0x40 MLOAD PUSH32 0x8C379A000000000000000000000000000000000000000000000000000000000 DUP2 MSTORE PUSH1 0x4 ADD PUSH2 0x1409 SWAP1 PUSH2 0x3560 JUMP JUMPDEST PUSH1 0x40 MLOAD DUP1 SWAP2 SUB SWAP1 REVERT JUMPDEST JUMP JUMPDEST PUSH1 0x0 DUP2 PUSH1 0x0 ADD SLOAD SWAP1 POP SWAP2 SWAP1 POP JUMP JUMPDEST PUSH1 0x0 DUP1 PUSH2 0x142E DUP4 PUSH2 0xA74 JUMP JUMPDEST SWAP1 POP DUP1 PUSH20 0xFFFFFFFFFFFFFFFFFFFFFFFFFFFFFFFFFFFFFFFF AND DUP5 PUSH20 0xFFFFFFFFFFFFFFFFFFFFFFFFFFFFFFFFFFFFFFFF AND EQ DUP1 PUSH2 0x1470 JUMPI POP PUSH2 0x146F DUP2 DUP6 PUSH2 0xF5A JUMP JUMPDEST JUMPDEST DUP1 PUSH2 0x14AE JUMPI POP DUP4 PUSH20 0xFFFFFFFFFFFFFFFFFFFFFFFFFFFFFFFFFFFFFFFF AND PUSH2 0x1496 DUP5 PUSH2 0x767 JUMP JUMPDEST PUSH20 0xFFFFFFFFFFFFFFFFFFFFFFFFFFFFFFFFFFFFFFFF AND EQ JUMPDEST SWAP2 POP POP SWAP3 SWAP2 POP POP JUMP JUMPDEST DUP3 PUSH20 0xFFFFFFFFFFFFFFFFFFFFFFFFFFFFFFFFFFFFFFFF AND PUSH2 0x14D7 DUP3 PUSH2 0xA74 JUMP JUMPDEST PUSH20 0xFFFFFFFFFFFFFFFFFFFFFFFFFFFFFFFFFFFFFFFF AND EQ PUSH2 0x152D JUMPI PUSH1 0x40 MLOAD PUSH32 0x8C379A000000000000000000000000000000000000000000000000000000000 DUP2 MSTORE PUSH1 0x4 ADD PUSH2 0x1524 SWAP1 PUSH2 0x35F2 JUMP JUMPDEST PUSH1 0x40 MLOAD DUP1 SWAP2 SUB SWAP1 REVERT JUMPDEST PUSH1 0x0 PUSH20 0xFFFFFFFFFFFFFFFFFFFFFFFFFFFFFFFFFFFFFFFF AND DUP3 PUSH20 0xFFFFFFFFFFFFFFFFFFFFFFFFFFFFFFFFFFFFFFFF AND SUB PUSH2 0x159C JUMPI PUSH1 0x40 MLOAD PUSH32 0x8C379A000000000000000000000000000000000000000000000000000000000 DUP2 MSTORE PUSH1 0x4 ADD PUSH2 0x1593 SWAP1 PUSH2 0x3684 JUMP JUMPDEST PUSH1 0x40 MLOAD DUP1 SWAP2 SUB SWAP1 REVERT JUMPDEST PUSH2 0x15A9 DUP4 DUP4 DUP4 PUSH1 0x1 PUSH2 0x1FB4 JUMP JUMPDEST DUP3 PUSH20 0xFFFFFFFFFFFFFFFFFFFFFFFFFFFFFFFFFFFFFFFF AND PUSH2 0x15C9 DUP3 PUSH2 0xA74 JUMP JUMPDEST PUSH20 0xFFFFFFFFFFFFFFFFFFFFFFFFFFFFFFFFFFFFFFFF AND EQ PUSH2 0x161F JUMPI PUSH1 0x40 MLOAD PUSH32 0x8C379A000000000000000000000000000000000000000000000000000000000 DUP2 MSTORE PUSH1 0x4 ADD PUSH2 0x1616 SWAP1 PUSH2 0x35F2 JUMP JUMPDEST PUSH1 0x40 MLOAD DUP1 SWAP2 SUB SWAP1 REVERT JUMPDEST PUSH1 0x4 PUSH1 0x0 DUP3 DUP2 MSTORE PUSH1 0x20 ADD SWAP1 DUP2 MSTORE PUSH1 0x20 ADD PUSH1 0x0 KECCAK256 PUSH1 0x0 PUSH2 0x100 EXP DUP2 SLOAD SWAP1 PUSH20 0xFFFFFFFFFFFFFFFFFFFFFFFFFFFFFFFFFFFFFFFF MUL NOT AND SWAP1 SSTORE PUSH1 0x1 PUSH1 0x3 PUSH1 0x0 DUP6 PUSH20 0xFFFFFFFFFFFFFFFFFFFFFFFFFFFFFFFFFFFFFFFF AND PUSH20 0xFFFFFFFFFFFFFFFFFFFFFFFFFFFFFFFFFFFFFFFF AND DUP2 MSTORE PUSH1 0x20 ADD SWAP1 DUP2 MSTORE PUSH1 0x20 ADD PUSH1 0x0 KECCAK256 PUSH1 0x0 DUP3 DUP3 SLOAD SUB SWAP3 POP POP DUP2 SWAP1 SSTORE POP PUSH1 0x1 PUSH1 0x3 PUSH1 0x0 DUP5 PUSH20 0xFFFFFFFFFFFFFFFFFFFFFFFFFFFFFFFFFFFFFFFF AND PUSH20 0xFFFFFFFFFFFFFFFFFFFFFFFFFFFFFFFFFFFFFFFF AND DUP2 MSTORE PUSH1 0x20 ADD SWAP1 DUP2 MSTORE PUSH1 0x20 ADD PUSH1 0x0 KECCAK256 PUSH1 0x0 DUP3 DUP3 SLOAD ADD SWAP3 POP POP DUP2 SWAP1 SSTORE POP DUP2 PUSH1 0x2 PUSH1 0x0 DUP4 DUP2 MSTORE PUSH1 0x20 ADD SWAP1 DUP2 MSTORE PUSH1 0x20 ADD PUSH1 0x0 KECCAK256 PUSH1 0x0 PUSH2 0x100 EXP DUP2 SLOAD DUP2 PUSH20 0xFFFFFFFFFFFFFFFFFFFFFFFFFFFFFFFFFFFFFFFF MUL NOT AND SWAP1 DUP4 PUSH20 0xFFFFFFFFFFFFFFFFFFFFFFFFFFFFFFFFFFFFFFFF AND MUL OR SWAP1 SSTORE POP DUP1 DUP3 PUSH20 0xFFFFFFFFFFFFFFFFFFFFFFFFFFFFFFFFFFFFFFFF AND DUP5 PUSH20 0xFFFFFFFFFFFFFFFFFFFFFFFFFFFFFFFFFFFFFFFF AND PUSH32 0xDDF252AD1BE2C89B69C2B068FC378DAA952BA7F163C4A11628F55A4DF523B3EF PUSH1 0x40 MLOAD PUSH1 0x40 MLOAD DUP1 SWAP2 SUB SWAP1 LOG4 PUSH2 0x17AB DUP4 DUP4 DUP4 PUSH1 0x1 PUSH2 0x1FCE JUMP JUMPDEST POP POP POP JUMP JUMPDEST PUSH2 0x17B8 PUSH2 0x1FD4 JUMP JUMPDEST PUSH1 0x0 PUSH1 0x6 PUSH1 0x0 PUSH2 0x100 EXP DUP2 SLOAD DUP2 PUSH1 0xFF MUL NOT AND SWAP1 DUP4 ISZERO ISZERO MUL OR SWAP1 SSTORE POP PUSH32 0x5DB9EE0A495BF2E6FF9C91A7834C1BA4FDD244A5E8AA4E537BD38AEAE4B073AA PUSH2 0x17FC PUSH2 0x12D5 JUMP JUMPDEST PUSH1 0x40 MLOAD PUSH2 0x1809 SWAP2 SWAP1 PUSH2 0x29F9 JUMP JUMPDEST PUSH1 0x40 MLOAD DUP1 SWAP2 SUB SWAP1 LOG1 JUMP JUMPDEST PUSH1 0x0 PUSH2 0x181E DUP3 PUSH2 0xA74 JUMP JUMPDEST SWAP1 POP PUSH2 0x182E DUP2 PUSH1 0x0 DUP5 PUSH1 0x1 PUSH2 0x1FB4 JUMP JUMPDEST PUSH2 0x1837 DUP3 PUSH2 0xA74 JUMP JUMPDEST SWAP1 POP PUSH1 0x4 PUSH1 0x0 DUP4 DUP2 MSTORE PUSH1 0x20 ADD SWAP1 DUP2 MSTORE PUSH1 0x20 ADD PUSH1 0x0 KECCAK256 PUSH1 0x0 PUSH2 0x100 EXP DUP2 SLOAD SWAP1 PUSH20 0xFFFFFFFFFFFFFFFFFFFFFFFFFFFFFFFFFFFFFFFF MUL NOT AND SWAP1 SSTORE PUSH1 0x1 PUSH1 0x3 PUSH1 0x0 DUP4 PUSH20 0xFFFFFFFFFFFFFFFFFFFFFFFFFFFFFFFFFFFFFFFF AND PUSH20 0xFFFFFFFFFFFFFFFFFFFFFFFFFFFFFFFFFFFFFFFF AND DUP2 MSTORE PUSH1 0x20 ADD SWAP1 DUP2 MSTORE PUSH1 0x20 ADD PUSH1 0x0 KECCAK256 PUSH1 0x0 DUP3 DUP3 SLOAD SUB SWAP3 POP POP DUP2 SWAP1 SSTORE POP PUSH1 0x2 PUSH1 0x0 DUP4 DUP2 MSTORE PUSH1 0x20 ADD SWAP1 DUP2 MSTORE PUSH1 0x20 ADD PUSH1 0x0 KECCAK256 PUSH1 0x0 PUSH2 0x100 EXP DUP2 SLOAD SWAP1 PUSH20 0xFFFFFFFFFFFFFFFFFFFFFFFFFFFFFFFFFFFFFFFF MUL NOT AND SWAP1 SSTORE DUP2 PUSH1 0x0 PUSH20 0xFFFFFFFFFFFFFFFFFFFFFFFFFFFFFFFFFFFFFFFF AND DUP3 PUSH20 0xFFFFFFFFFFFFFFFFFFFFFFFFFFFFFFFFFFFFFFFF AND PUSH32 0xDDF252AD1BE2C89B69C2B068FC378DAA952BA7F163C4A11628F55A4DF523B3EF PUSH1 0x40 MLOAD PUSH1 0x40 MLOAD DUP1 SWAP2 SUB SWAP1 LOG4 PUSH2 0x195D DUP2 PUSH1 0x0 DUP5 PUSH1 0x1 PUSH2 0x1FCE JUMP JUMPDEST POP POP JUMP JUMPDEST PUSH1 0x0 PUSH1 0x2 PUSH1 0x0 DUP4 DUP2 MSTORE PUSH1 0x20 ADD SWAP1 DUP2 MSTORE PUSH1 0x20 ADD PUSH1 0x0 KECCAK256 PUSH1 0x0 SWAP1 SLOAD SWAP1 PUSH2 0x100 EXP SWAP1 DIV PUSH20 0xFFFFFFFFFFFFFFFFFFFFFFFFFFFFFFFFFFFFFFFF AND SWAP1 POP SWAP2 SWAP1 POP JUMP JUMPDEST PUSH1 0x0 PUSH1 0x6 PUSH1 0x1 SWAP1 SLOAD SWAP1 PUSH2 0x100 EXP SWAP1 DIV PUSH20 0xFFFFFFFFFFFFFFFFFFFFFFFFFFFFFFFFFFFFFFFF AND SWAP1 POP DUP2 PUSH1 0x6 PUSH1 0x1 PUSH2 0x100 EXP DUP2 SLOAD DUP2 PUSH20 0xFFFFFFFFFFFFFFFFFFFFFFFFFFFFFFFFFFFFFFFF MUL NOT AND SWAP1 DUP4 PUSH20 0xFFFFFFFFFFFFFFFFFFFFFFFFFFFFFFFFFFFFFFFF AND MUL OR SWAP1 SSTORE POP DUP2 PUSH20 0xFFFFFFFFFFFFFFFFFFFFFFFFFFFFFFFFFFFFFFFF AND DUP2 PUSH20 0xFFFFFFFFFFFFFFFFFFFFFFFFFFFFFFFFFFFFFFFF AND PUSH32 0x8BE0079C531659141344CD1FD0A4F28419497F9722A3DAAFE3B4186F6B6457E0 PUSH1 0x40 MLOAD PUSH1 0x40 MLOAD DUP1 SWAP2 SUB SWAP1 LOG3 POP POP JUMP JUMPDEST PUSH2 0x1A6C PUSH2 0x201D JUMP JUMPDEST PUSH1 0x1 PUSH1 0x6 PUSH1 0x0 PUSH2 0x100 EXP DUP2 SLOAD DUP2 PUSH1 0xFF MUL NOT AND SWAP1 DUP4 ISZERO ISZERO MUL OR SWAP1 SSTORE POP PUSH32 0x62E78CEA01BEE320CD4E420270B5EA74000D11B0C9F74754EBDBFC544B05A258 PUSH2 0x1AB0 PUSH2 0x12D5 JUMP JUMPDEST PUSH1 0x40 MLOAD PUSH2 0x1ABD SWAP2 SWAP1 PUSH2 0x29F9 JUMP JUMPDEST PUSH1 0x40 MLOAD DUP1 SWAP2 SUB SWAP1 LOG1 JUMP JUMPDEST PUSH1 0x0 DUP1 PUSH1 0x9 SWAP1 POP PUSH1 0x0 JUMPDEST DUP2 DUP2 PUSH1 0xFF AND LT ISZERO PUSH2 0x1BAC JUMPI PUSH1 0x0 PUSH2 0x1AE8 DUP6 DUP4 PUSH2 0x2067 JUMP JUMPDEST SWAP1 POP PUSH1 0xA SLOAD DUP2 PUSH1 0xFF AND LT ISZERO DUP1 ISZERO PUSH2 0x1B04 JUMPI POP PUSH1 0xB SLOAD DUP2 PUSH1 0xFF AND GT ISZERO JUMPDEST PUSH2 0x1B43 JUMPI PUSH1 0x40 MLOAD PUSH32 0x8C379A000000000000000000000000000000000000000000000000000000000 DUP2 MSTORE PUSH1 0x4 ADD PUSH2 0x1B3A SWAP1 PUSH2 0x3716 JUMP JUMPDEST PUSH1 0x40 MLOAD DUP1 SWAP2 SUB SWAP1 REVERT JUMPDEST PUSH1 0x0 PUSH2 0x1B4F DUP7 DUP5 PUSH2 0x20B6 JUMP JUMPDEST SWAP1 POP PUSH1 0x0 DUP2 PUSH1 0xFF AND GT PUSH2 0x1B97 JUMPI PUSH1 0x40 MLOAD PUSH32 0x8C379A000000000000000000000000000000000000000000000000000000000 DUP2 MSTORE PUSH1 0x4 ADD PUSH2 0x1B8E SWAP1 PUSH2 0x37A8 JUMP JUMPDEST PUSH1 0x40 MLOAD DUP1 SWAP2 SUB SWAP1 REVERT JUMPDEST POP POP DUP1 DUP1 PUSH2 0x1BA4 SWAP1 PUSH2 0x37C8 JUMP JUMPDEST SWAP2 POP POP PUSH2 0x1AD1 JUMP JUMPDEST POP PUSH1 0x0 PUSH1 0x40 MLOAD DUP1 PUSH1 0x60 ADD PUSH1 0x40 MSTORE DUP1 DUP8 DUP2 MSTORE PUSH1 0x20 ADD DUP7 DUP2 MSTORE PUSH1 0x20 ADD DUP6 DUP2 MSTORE POP SWAP1 POP PUSH2 0x1BD6 PUSH1 0x7 PUSH2 0x2105 JUMP JUMPDEST PUSH1 0x0 PUSH2 0x1BE2 PUSH1 0x7 PUSH2 0x1414 JUMP JUMPDEST SWAP1 POP DUP2 PUSH1 0x8 PUSH1 0x0 DUP4 DUP2 MSTORE PUSH1 0x20 ADD SWAP1 DUP2 MSTORE PUSH1 0x20 ADD PUSH1 0x0 KECCAK256 PUSH1 0x0 DUP3 ADD MLOAD DUP2 PUSH1 0x0 ADD SSTORE PUSH1 0x20 DUP3 ADD MLOAD DUP2 PUSH1 0x1 ADD SSTORE PUSH1 0x40 DUP3 ADD MLOAD DUP2 PUSH1 0x2 ADD SSTORE SWAP1 POP POP PUSH2 0x1C2A PUSH2 0x1C24 PUSH2 0xC23 JUMP JUMPDEST DUP3 PUSH2 0x211B JUMP JUMPDEST PUSH32 0xB6DA9597F5553D5DEAFC722DCC1F69D5463612674A36BAE2AA8698BD86AF1C7C DUP2 DUP9 DUP9 DUP9 PUSH1 0x40 MLOAD PUSH2 0x1C5F SWAP5 SWAP4 SWAP3 SWAP2 SWAP1 PUSH2 0x37F1 JUMP JUMPDEST PUSH1 0x40 MLOAD DUP1 SWAP2 SUB SWAP1 LOG1 DUP1 SWAP4 POP POP POP POP SWAP4 SWAP3 POP POP POP JUMP JUMPDEST DUP2 PUSH20 0xFFFFFFFFFFFFFFFFFFFFFFFFFFFFFFFFFFFFFFFF AND DUP4 PUSH20 0xFFFFFFFFFFFFFFFFFFFFFFFFFFFFFFFFFFFFFFFF AND SUB PUSH2 0x1CE2 JUMPI PUSH1 0x40 MLOAD PUSH32 0x8C379A000000000000000000000000000000000000000000000000000000000 DUP2 MSTORE PUSH1 0x4 ADD PUSH2 0x1CD9 SWAP1 PUSH2 0x3882 JUMP JUMPDEST PUSH1 0x40 MLOAD DUP1 SWAP2 SUB SWAP1 REVERT JUMPDEST DUP1 PUSH1 0x5 PUSH1 0x0 DUP6 PUSH20 0xFFFFFFFFFFFFFFFFFFFFFFFFFFFFFFFFFFFFFFFF AND PUSH20 0xFFFFFFFFFFFFFFFFFFFFFFFFFFFFFFFFFFFFFFFF AND DUP2 MSTORE PUSH1 0x20 ADD SWAP1 DUP2 MSTORE PUSH1 0x20 ADD PUSH1 0x0 KECCAK256 PUSH1 0x0 DUP5 PUSH20 0xFFFFFFFFFFFFFFFFFFFFFFFFFFFFFFFFFFFFFFFF AND PUSH20 0xFFFFFFFFFFFFFFFFFFFFFFFFFFFFFFFFFFFFFFFF AND DUP2 MSTORE PUSH1 0x20 ADD SWAP1 DUP2 MSTORE PUSH1 0x20 ADD PUSH1 0x0 KECCAK256 PUSH1 0x0 PUSH2 0x100 EXP DUP2 SLOAD DUP2 PUSH1 0xFF MUL NOT AND SWAP1 DUP4 ISZERO ISZERO MUL OR SWAP1 SSTORE POP DUP2 PUSH20 0xFFFFFFFFFFFFFFFFFFFFFFFFFFFFFFFFFFFFFFFF AND DUP4 PUSH20 0xFFFFFFFFFFFFFFFFFFFFFFFFFFFFFFFFFFFFFFFF AND PUSH32 0x17307EAB39AB6107E8899845AD3D59BD9653F200F220920489CA2B5937696C31 DUP4 PUSH1 0x40 MLOAD PUSH2 0x1DD3 SWAP2 SWAP1 PUSH2 0x2888 JUMP JUMPDEST PUSH1 0x40 MLOAD DUP1 SWAP2 SUB SWAP1 LOG3 POP POP POP JUMP JUMPDEST PUSH1 0x0 DUP1 PUSH20 0xFFFFFFFFFFFFFFFFFFFFFFFFFFFFFFFFFFFFFFFF AND PUSH2 0x1E02 DUP4 PUSH2 0x1961 JUMP JUMPDEST PUSH20 0xFFFFFFFFFFFFFFFFFFFFFFFFFFFFFFFFFFFFFFFF AND EQ ISZERO SWAP1 POP SWAP2 SWAP1 POP JUMP JUMPDEST PUSH1 0x0 PUSH1 0xFF PUSH1 0xF8 DUP4 SWAP1 SHR AND SWAP1 POP SWAP2 SWAP1 POP JUMP JUMPDEST PUSH1 0x0 PUSH1 0xF8 DUP3 PUSH1 0xFF AND SWAP1 SHL PUSH1 0x8 DUP1 DUP6 SWAP1 SHL SWAP1 SHR OR SWAP1 POP SWAP3 SWAP2 POP POP JUMP JUMPDEST PUSH2 0x1E58 DUP5 DUP5 DUP5 PUSH2 0x14B7 JUMP JUMPDEST PUSH2 0x1E64 DUP5 DUP5 DUP5 DUP5 PUSH2 0x2139 JUMP JUMPDEST PUSH2 0x1EA3 JUMPI PUSH1 0x40 MLOAD PUSH32 0x8C379A000000000000000000000000000000000000000000000000000000000 DUP2 MSTORE PUSH1 0x4 ADD PUSH2 0x1E9A SWAP1 PUSH2 0x3914 JUMP JUMPDEST PUSH1 0x40 MLOAD DUP1 SWAP2 SUB SWAP1 REVERT JUMPDEST POP POP POP POP JUMP JUMPDEST PUSH1 0x60 PUSH1 0x40 MLOAD DUP1 PUSH1 0x40 ADD PUSH1 0x40 MSTORE DUP1 PUSH1 0x1F DUP2 MSTORE PUSH1 0x20 ADD PUSH32 0x6E66742E63727970746F73686F7065652E6E74696C6F79616C74792E636F6D00 DUP2 MSTORE POP SWAP1 POP SWAP1 JUMP JUMPDEST PUSH1 0x60 PUSH1 0x0 PUSH1 0x1 PUSH2 0x1EF5 DUP5 PUSH2 0x22C0 JUMP JUMPDEST ADD SWAP1 POP PUSH1 0x0 DUP2 PUSH8 0xFFFFFFFFFFFFFFFF DUP2 GT ISZERO PUSH2 0x1F14 JUMPI PUSH2 0x1F13 PUSH2 0x2C19 JUMP JUMPDEST JUMPDEST PUSH1 0x40 MLOAD SWAP1 DUP1 DUP3 MSTORE DUP1 PUSH1 0x1F ADD PUSH1 0x1F NOT AND PUSH1 0x20 ADD DUP3 ADD PUSH1 0x40 MSTORE DUP1 ISZERO PUSH2 0x1F46 JUMPI DUP2 PUSH1 0x20 ADD PUSH1 0x1 DUP3 MUL DUP1 CALLDATASIZE DUP4 CALLDATACOPY DUP1 DUP3 ADD SWAP2 POP POP SWAP1 POP JUMPDEST POP SWAP1 POP PUSH1 0x0 DUP3 PUSH1 0x20 ADD DUP3 ADD SWAP1 POP JUMPDEST PUSH1 0x1 ISZERO PUSH2 0x1FA9 JUMPI DUP1 DUP1 PUSH1 0x1 SWAP1 SUB SWAP2 POP POP PUSH32 0x3031323334353637383961626364656600000000000000000000000000000000 PUSH1 0xA DUP7 MOD BYTE DUP2 MSTORE8 PUSH1 0xA DUP6 DUP2 PUSH2 0x1F9D JUMPI PUSH2 0x1F9C PUSH2 0x3934 JUMP JUMPDEST JUMPDEST DIV SWAP5 POP PUSH1 0x0 DUP6 SUB PUSH2 0x1F54 JUMPI JUMPDEST DUP2 SWAP4 POP POP POP POP SWAP2 SWAP1 POP JUMP JUMPDEST PUSH2 0x1FBC PUSH2 0x201D JUMP JUMPDEST PUSH2 0x1FC8 DUP5 DUP5 DUP5 DUP5 PUSH2 0x2413 JUMP JUMPDEST POP POP POP POP JUMP JUMPDEST POP POP POP POP JUMP JUMPDEST PUSH2 0x1FDC PUSH2 0xA5D JUMP JUMPDEST PUSH2 0x201B JUMPI PUSH1 0x40 MLOAD PUSH32 0x8C379A000000000000000000000000000000000000000000000000000000000 DUP2 MSTORE PUSH1 0x4 ADD PUSH2 0x2012 SWAP1 PUSH2 0x39AF JUMP JUMPDEST PUSH1 0x40 MLOAD DUP1 SWAP2 SUB SWAP1 REVERT JUMPDEST JUMP JUMPDEST PUSH2 0x2025 PUSH2 0xA5D JUMP JUMPDEST ISZERO PUSH2 0x2065 JUMPI PUSH1 0x40 MLOAD PUSH32 0x8C379A000000000000000000000000000000000000000000000000000000000 DUP2 MSTORE PUSH1 0x4 ADD PUSH2 0x205C SWAP1 PUSH2 0x3A1B JUMP JUMPDEST PUSH1 0x40 MLOAD DUP1 SWAP2 SUB SWAP1 REVERT JUMPDEST JUMP JUMPDEST PUSH1 0x0 DUP1 PUSH1 0x4 SWAP1 POP PUSH1 0x0 PUSH1 0x3 DUP5 PUSH2 0x207D SWAP2 SWAP1 PUSH2 0x3A3B JUMP JUMPDEST PUSH1 0xFF AND SWAP1 POP PUSH1 0xFF PUSH1 0x8 PUSH1 0x0 DUP4 DUP6 PUSH2 0x2094 SWAP2 SWAP1 PUSH2 0x3A78 JUMP JUMPDEST PUSH2 0x209E SWAP2 SWAP1 PUSH2 0x3A78 JUMP JUMPDEST PUSH2 0x20A8 SWAP2 SWAP1 PUSH2 0x3AAC JUMP JUMPDEST DUP7 SWAP1 SHR AND SWAP3 POP POP POP SWAP3 SWAP2 POP POP JUMP JUMPDEST PUSH1 0x0 DUP1 PUSH1 0x4 SWAP1 POP PUSH1 0x0 PUSH1 0x3 DUP5 PUSH2 0x20CC SWAP2 SWAP1 PUSH2 0x3A3B JUMP JUMPDEST PUSH1 0xFF AND SWAP1 POP PUSH1 0xFF PUSH1 0x8 PUSH1 0x1 DUP4 DUP6 PUSH2 0x20E3 SWAP2 SWAP1 PUSH2 0x3A78 JUMP JUMPDEST PUSH2 0x20ED SWAP2 SWAP1 PUSH2 0x3A78 JUMP JUMPDEST PUSH2 0x20F7 SWAP2 SWAP1 PUSH2 0x3AAC JUMP JUMPDEST DUP7 SWAP1 SHR AND SWAP3 POP POP POP SWAP3 SWAP2 POP POP JUMP JUMPDEST PUSH1 0x1 DUP2 PUSH1 0x0 ADD PUSH1 0x0 DUP3 DUP3 SLOAD ADD SWAP3 POP POP DUP2 SWAP1 SSTORE POP POP JUMP JUMPDEST PUSH2 0x2135 DUP3 DUP3 PUSH1 0x40 MLOAD DUP1 PUSH1 0x20 ADD PUSH1 0x40 MSTORE DUP1 PUSH1 0x0 DUP2 MSTORE POP PUSH2 0x2539 JUMP JUMPDEST POP POP JUMP JUMPDEST PUSH1 0x0 PUSH2 0x215A DUP5 PUSH20 0xFFFFFFFFFFFFFFFFFFFFFFFFFFFFFFFFFFFFFFFF AND PUSH2 0x2594 JUMP JUMPDEST ISZERO PUSH2 0x22B3 JUMPI DUP4 PUSH20 0xFFFFFFFFFFFFFFFFFFFFFFFFFFFFFFFFFFFFFFFF AND PUSH4 0x150B7A02 PUSH2 0x2183 PUSH2 0x12D5 JUMP JUMPDEST DUP8 DUP7 DUP7 PUSH1 0x40 MLOAD DUP6 PUSH4 0xFFFFFFFF AND PUSH1 0xE0 SHL DUP2 MSTORE PUSH1 0x4 ADD PUSH2 0x21A5 SWAP5 SWAP4 SWAP3 SWAP2 SWAP1 PUSH2 0x3B43 JUMP JUMPDEST PUSH1 0x20 PUSH1 0x40 MLOAD DUP1 DUP4 SUB DUP2 PUSH1 0x0 DUP8 GAS CALL SWAP3 POP POP POP DUP1 ISZERO PUSH2 0x21E1 JUMPI POP PUSH1 0x40 MLOAD RETURNDATASIZE PUSH1 0x1F NOT PUSH1 0x1F DUP3 ADD AND DUP3 ADD DUP1 PUSH1 0x40 MSTORE POP DUP2 ADD SWAP1 PUSH2 0x21DE SWAP2 SWAP1 PUSH2 0x3BA4 JUMP JUMPDEST PUSH1 0x1 JUMPDEST PUSH2 0x2263 JUMPI RETURNDATASIZE DUP1 PUSH1 0x0 DUP2 EQ PUSH2 0x2211 JUMPI PUSH1 0x40 MLOAD SWAP2 POP PUSH1 0x1F NOT PUSH1 0x3F RETURNDATASIZE ADD AND DUP3 ADD PUSH1 0x40 MSTORE RETURNDATASIZE DUP3 MSTORE RETURNDATASIZE PUSH1 0x0 PUSH1 0x20 DUP5 ADD RETURNDATACOPY PUSH2 0x2216 JUMP JUMPDEST PUSH1 0x60 SWAP2 POP JUMPDEST POP PUSH1 0x0 DUP2 MLOAD SUB PUSH2 0x225B JUMPI PUSH1 0x40 MLOAD PUSH32 0x8C379A000000000000000000000000000000000000000000000000000000000 DUP2 MSTORE PUSH1 0x4 ADD PUSH2 0x2252 SWAP1 PUSH2 0x3914 JUMP JUMPDEST PUSH1 0x40 MLOAD DUP1 SWAP2 SUB SWAP1 REVERT JUMPDEST DUP1 MLOAD DUP2 PUSH1 0x20 ADD REVERT JUMPDEST PUSH4 0x150B7A02 PUSH1 0xE0 SHL PUSH28 0xFFFFFFFFFFFFFFFFFFFFFFFFFFFFFFFFFFFFFFFFFFFFFFFFFFFFFFFF NOT AND DUP2 PUSH28 0xFFFFFFFFFFFFFFFFFFFFFFFFFFFFFFFFFFFFFFFFFFFFFFFFFFFFFFFF NOT AND EQ SWAP2 POP POP PUSH2 0x22B8 JUMP JUMPDEST PUSH1 0x1 SWAP1 POP JUMPDEST SWAP5 SWAP4 POP POP POP POP JUMP JUMPDEST PUSH1 0x0 DUP1 PUSH1 0x0 SWAP1 POP PUSH27 0x184F03E93FF9F4DAA797ED6E38ED64BF6A1F010000000000000000 DUP4 LT PUSH2 0x231E JUMPI PUSH27 0x184F03E93FF9F4DAA797ED6E38ED64BF6A1F010000000000000000 DUP4 DUP2 PUSH2 0x2314 JUMPI PUSH2 0x2313 PUSH2 0x3934 JUMP JUMPDEST JUMPDEST DIV SWAP3 POP PUSH1 0x40 DUP2 ADD SWAP1 POP JUMPDEST PUSH14 0x4EE2D6D415B85ACEF8100000000 DUP4 LT PUSH2 0x235B JUMPI PUSH14 0x4EE2D6D415B85ACEF8100000000 DUP4 DUP2 PUSH2 0x2351 JUMPI PUSH2 0x2350 PUSH2 0x3934 JUMP JUMPDEST JUMPDEST DIV SWAP3 POP PUSH1 0x20 DUP2 ADD SWAP1 POP JUMPDEST PUSH7 0x2386F26FC10000 DUP4 LT PUSH2 0x238A JUMPI PUSH7 0x2386F26FC10000 DUP4 DUP2 PUSH2 0x2380 JUMPI PUSH2 0x237F PUSH2 0x3934 JUMP JUMPDEST JUMPDEST DIV SWAP3 POP PUSH1 0x10 DUP2 ADD SWAP1 POP JUMPDEST PUSH4 0x5F5E100 DUP4 LT PUSH2 0x23B3 JUMPI PUSH4 0x5F5E100 DUP4 DUP2 PUSH2 0x23A9 JUMPI PUSH2 0x23A8 PUSH2 0x3934 JUMP JUMPDEST JUMPDEST DIV SWAP3 POP PUSH1 0x8 DUP2 ADD SWAP1 POP JUMPDEST PUSH2 0x2710 DUP4 LT PUSH2 0x23D8 JUMPI PUSH2 0x2710 DUP4 DUP2 PUSH2 0x23CE JUMPI PUSH2 0x23CD PUSH2 0x3934 JUMP JUMPDEST JUMPDEST DIV SWAP3 POP PUSH1 0x4 DUP2 ADD SWAP1 POP JUMPDEST PUSH1 0x64 DUP4 LT PUSH2 0x23FB JUMPI PUSH1 0x64 DUP4 DUP2 PUSH2 0x23F1 JUMPI PUSH2 0x23F0 PUSH2 0x3934 JUMP JUMPDEST JUMPDEST DIV SWAP3 POP PUSH1 0x2 DUP2 ADD SWAP1 POP JUMPDEST PUSH1 0xA DUP4 LT PUSH2 0x240A JUMPI PUSH1 0x1 DUP2 ADD SWAP1 POP JUMPDEST DUP1 SWAP2 POP POP SWAP2 SWAP1 POP JUMP JUMPDEST PUSH1 0x1 DUP2 GT ISZERO PUSH2 0x2533 JUMPI PUSH1 0x0 PUSH20 0xFFFFFFFFFFFFFFFFFFFFFFFFFFFFFFFFFFFFFFFF AND DUP5 PUSH20 0xFFFFFFFFFFFFFFFFFFFFFFFFFFFFFFFFFFFFFFFF AND EQ PUSH2 0x24A7 JUMPI DUP1 PUSH1 0x3 PUSH1 0x0 DUP7 PUSH20 0xFFFFFFFFFFFFFFFFFFFFFFFFFFFFFFFFFFFFFFFF AND PUSH20 0xFFFFFFFFFFFFFFFFFFFFFFFFFFFFFFFFFFFFFFFF AND DUP2 MSTORE PUSH1 0x20 ADD SWAP1 DUP2 MSTORE PUSH1 0x20 ADD PUSH1 0x0 KECCAK256 PUSH1 0x0 DUP3 DUP3 SLOAD PUSH2 0x249F SWAP2 SWAP1 PUSH2 0x3BD1 JUMP JUMPDEST SWAP3 POP POP DUP2 SWAP1 SSTORE POP JUMPDEST PUSH1 0x0 PUSH20 0xFFFFFFFFFFFFFFFFFFFFFFFFFFFFFFFFFFFFFFFF AND DUP4 PUSH20 0xFFFFFFFFFFFFFFFFFFFFFFFFFFFFFFFFFFFFFFFF AND EQ PUSH2 0x2532 JUMPI DUP1 PUSH1 0x3 PUSH1 0x0 DUP6 PUSH20 0xFFFFFFFFFFFFFFFFFFFFFFFFFFFFFFFFFFFFFFFF AND PUSH20 0xFFFFFFFFFFFFFFFFFFFFFFFFFFFFFFFFFFFFFFFF AND DUP2 MSTORE PUSH1 0x20 ADD SWAP1 DUP2 MSTORE PUSH1 0x20 ADD PUSH1 0x0 KECCAK256 PUSH1 0x0 DUP3 DUP3 SLOAD PUSH2 0x252A SWAP2 SWAP1 PUSH2 0x3A78 JUMP JUMPDEST SWAP3 POP POP DUP2 SWAP1 SSTORE POP JUMPDEST JUMPDEST POP POP POP POP JUMP JUMPDEST PUSH2 0x2543 DUP4 DUP4 PUSH2 0x25B7 JUMP JUMPDEST PUSH2 0x2550 PUSH1 0x0 DUP5 DUP5 DUP5 PUSH2 0x2139 JUMP JUMPDEST PUSH2 0x258F JUMPI PUSH1 0x40 MLOAD PUSH32 0x8C379A000000000000000000000000000000000000000000000000000000000 DUP2 MSTORE PUSH1 0x4 ADD PUSH2 0x2586 SWAP1 PUSH2 0x3914 JUMP JUMPDEST PUSH1 0x40 MLOAD DUP1 SWAP2 SUB SWAP1 REVERT JUMPDEST POP POP POP JUMP JUMPDEST PUSH1 0x0 DUP1 DUP3 PUSH20 0xFFFFFFFFFFFFFFFFFFFFFFFFFFFFFFFFFFFFFFFF AND EXTCODESIZE GT SWAP1 POP SWAP2 SWAP1 POP JUMP JUMPDEST PUSH1 0x0 PUSH20 0xFFFFFFFFFFFFFFFFFFFFFFFFFFFFFFFFFFFFFFFF AND DUP3 PUSH20 0xFFFFFFFFFFFFFFFFFFFFFFFFFFFFFFFFFFFFFFFF AND SUB PUSH2 0x2626 JUMPI PUSH1 0x40 MLOAD PUSH32 0x8C379A000000000000000000000000000000000000000000000000000000000 DUP2 MSTORE PUSH1 0x4 ADD PUSH2 0x261D SWAP1 PUSH2 0x3C51 JUMP JUMPDEST PUSH1 0x40 MLOAD DUP1 SWAP2 SUB SWAP1 REVERT JUMPDEST PUSH2 0x262F DUP2 PUSH2 0x1DE0 JUMP JUMPDEST ISZERO PUSH2 0x266F JUMPI PUSH1 0x40 MLOAD PUSH32 0x8C379A000000000000000000000000000000000000000000000000000000000 DUP2 MSTORE PUSH1 0x4 ADD PUSH2 0x2666 SWAP1 PUSH2 0x3CBD JUMP JUMPDEST PUSH1 0x40 MLOAD DUP1 SWAP2 SUB SWAP1 REVERT JUMPDEST PUSH2 0x267D PUSH1 0x0 DUP4 DUP4 PUSH1 0x1 PUSH2 0x1FB4 JUMP JUMPDEST PUSH2 0x2686 DUP2 PUSH2 0x1DE0 JUMP JUMPDEST ISZERO PUSH2 0x26C6 JUMPI PUSH1 0x40 MLOAD PUSH32 0x8C379A000000000000000000000000000000000000000000000000000000000 DUP2 MSTORE PUSH1 0x4 ADD PUSH2 0x26BD SWAP1 PUSH2 0x3CBD JUMP JUMPDEST PUSH1 0x40 MLOAD DUP1 SWAP2 SUB SWAP1 REVERT JUMPDEST PUSH1 0x1 PUSH1 0x3 PUSH1 0x0 DUP5 PUSH20 0xFFFFFFFFFFFFFFFFFFFFFFFFFFFFFFFFFFFFFFFF AND PUSH20 0xFFFFFFFFFFFFFFFFFFFFFFFFFFFFFFFFFFFFFFFF AND DUP2 MSTORE PUSH1 0x20 ADD SWAP1 DUP2 MSTORE PUSH1 0x20 ADD PUSH1 0x0 KECCAK256 PUSH1 0x0 DUP3 DUP3 SLOAD ADD SWAP3 POP POP DUP2 SWAP1 SSTORE POP DUP2 PUSH1 0x2 PUSH1 0x0 DUP4 DUP2 MSTORE PUSH1 0x20 ADD SWAP1 DUP2 MSTORE PUSH1 0x20 ADD PUSH1 0x0 KECCAK256 PUSH1 0x0 PUSH2 0x100 EXP DUP2 SLOAD DUP2 PUSH20 0xFFFFFFFFFFFFFFFFFFFFFFFFFFFFFFFFFFFFFFFF MUL NOT AND SWAP1 DUP4 PUSH20 0xFFFFFFFFFFFFFFFFFFFFFFFFFFFFFFFFFFFFFFFF AND MUL OR SWAP1 SSTORE POP DUP1 DUP3 PUSH20 0xFFFFFFFFFFFFFFFFFFFFFFFFFFFFFFFFFFFFFFFF AND PUSH1 0x0 PUSH20 0xFFFFFFFFFFFFFFFFFFFFFFFFFFFFFFFFFFFFFFFF AND PUSH32 0xDDF252AD1BE2C89B69C2B068FC378DAA952BA7F163C4A11628F55A4DF523B3EF PUSH1 0x40 MLOAD PUSH1 0x40 MLOAD DUP1 SWAP2 SUB SWAP1 LOG4 PUSH2 0x27D0 PUSH1 0x0 DUP4 DUP4 PUSH1 0x1 PUSH2 0x1FCE JUMP JUMPDEST POP POP JUMP JUMPDEST PUSH1 0x0 PUSH1 0x40 MLOAD SWAP1 POP SWAP1 JUMP JUMPDEST PUSH1 0x0 DUP1 REVERT JUMPDEST PUSH1 0x0 DUP1 REVERT JUMPDEST PUSH1 0x0 PUSH32 0xFFFFFFFF00000000000000000000000000000000000000000000000000000000 DUP3 AND SWAP1 POP SWAP2 SWAP1 POP JUMP JUMPDEST PUSH2 0x281D DUP2 PUSH2 0x27E8 JUMP JUMPDEST DUP2 EQ PUSH2 0x2828 JUMPI PUSH1 0x0 DUP1 REVERT JUMPDEST POP JUMP JUMPDEST PUSH1 0x0 DUP2 CALLDATALOAD SWAP1 POP PUSH2 0x283A DUP2 PUSH2 0x2814 JUMP JUMPDEST SWAP3 SWAP2 POP POP JUMP JUMPDEST PUSH1 0x0 PUSH1 0x20 DUP3 DUP5 SUB SLT ISZERO PUSH2 0x2856 JUMPI PUSH2 0x2855 PUSH2 0x27DE JUMP JUMPDEST JUMPDEST PUSH1 0x0 PUSH2 0x2864 DUP5 DUP3 DUP6 ADD PUSH2 0x282B JUMP JUMPDEST SWAP2 POP POP SWAP3 SWAP2 POP POP JUMP JUMPDEST PUSH1 0x0 DUP2 ISZERO ISZERO SWAP1 POP SWAP2 SWAP1 POP JUMP JUMPDEST PUSH2 0x2882 DUP2 PUSH2 0x286D JUMP JUMPDEST DUP3 MSTORE POP POP JUMP JUMPDEST PUSH1 0x0 PUSH1 0x20 DUP3 ADD SWAP1 POP PUSH2 0x289D PUSH1 0x0 DUP4 ADD DUP5 PUSH2 0x2879 JUMP JUMPDEST SWAP3 SWAP2 POP POP JUMP JUMPDEST PUSH1 0x0 DUP2 MLOAD SWAP1 POP SWAP2 SWAP1 POP JUMP JUMPDEST PUSH1 0x0 DUP3 DUP3 MSTORE PUSH1 0x20 DUP3 ADD SWAP1 POP SWAP3 SWAP2 POP POP JUMP JUMPDEST PUSH1 0x0 JUMPDEST DUP4 DUP2 LT ISZERO PUSH2 0x28DD JUMPI DUP1 DUP3 ADD MLOAD DUP2 DUP5 ADD MSTORE PUSH1 0x20 DUP2 ADD SWAP1 POP PUSH2 0x28C2 JUMP JUMPDEST PUSH1 0x0 DUP5 DUP5 ADD MSTORE POP POP POP POP JUMP JUMPDEST PUSH1 0x0 PUSH1 0x1F NOT PUSH1 0x1F DUP4 ADD AND SWAP1 POP SWAP2 SWAP1 POP JUMP JUMPDEST PUSH1 0x0 PUSH2 0x2905 DUP3 PUSH2 0x28A3 JUMP JUMPDEST PUSH2 0x290F DUP2 DUP6 PUSH2 0x28AE JUMP JUMPDEST SWAP4 POP PUSH2 0x291F DUP2 DUP6 PUSH1 0x20 DUP7 ADD PUSH2 0x28BF JUMP JUMPDEST PUSH2 0x2928 DUP2 PUSH2 0x28E9 JUMP JUMPDEST DUP5 ADD SWAP2 POP POP SWAP3 SWAP2 POP POP JUMP JUMPDEST PUSH1 0x0 PUSH1 0x20 DUP3 ADD SWAP1 POP DUP2 DUP2 SUB PUSH1 0x0 DUP4 ADD MSTORE PUSH2 0x294D DUP2 DUP5 PUSH2 0x28FA JUMP JUMPDEST SWAP1 POP SWAP3 SWAP2 POP POP JUMP JUMPDEST PUSH1 0x0 DUP2 SWAP1 POP SWAP2 SWAP1 POP JUMP JUMPDEST PUSH2 0x2968 DUP2 PUSH2 0x2955 JUMP JUMPDEST DUP2 EQ PUSH2 0x2973 JUMPI PUSH1 0x0 DUP1 REVERT JUMPDEST POP JUMP JUMPDEST PUSH1 0x0 DUP2 CALLDATALOAD SWAP1 POP PUSH2 0x2985 DUP2 PUSH2 0x295F JUMP JUMPDEST SWAP3 SWAP2 POP POP JUMP JUMPDEST PUSH1 0x0 PUSH1 0x20 DUP3 DUP5 SUB SLT ISZERO PUSH2 0x29A1 JUMPI PUSH2 0x29A0 PUSH2 0x27DE JUMP JUMPDEST JUMPDEST PUSH1 0x0 PUSH2 0x29AF DUP5 DUP3 DUP6 ADD PUSH2 0x2976 JUMP JUMPDEST SWAP2 POP POP SWAP3 SWAP2 POP POP JUMP JUMPDEST PUSH1 0x0 PUSH20 0xFFFFFFFFFFFFFFFFFFFFFFFFFFFFFFFFFFFFFFFF DUP3 AND SWAP1 POP SWAP2 SWAP1 POP JUMP JUMPDEST PUSH1 0x0 PUSH2 0x29E3 DUP3 PUSH2 0x29B8 JUMP JUMPDEST SWAP1 POP SWAP2 SWAP1 POP JUMP JUMPDEST PUSH2 0x29F3 DUP2 PUSH2 0x29D8 JUMP JUMPDEST DUP3 MSTORE POP POP JUMP JUMPDEST PUSH1 0x0 PUSH1 0x20 DUP3 ADD SWAP1 POP PUSH2 0x2A0E PUSH1 0x0 DUP4 ADD DUP5 PUSH2 0x29EA JUMP JUMPDEST SWAP3 SWAP2 POP POP JUMP JUMPDEST PUSH2 0x2A1D DUP2 PUSH2 0x29D8 JUMP JUMPDEST DUP2 EQ PUSH2 0x2A28 JUMPI PUSH1 0x0 DUP1 REVERT JUMPDEST POP JUMP JUMPDEST PUSH1 0x0 DUP2 CALLDATALOAD SWAP1 POP PUSH2 0x2A3A DUP2 PUSH2 0x2A14 JUMP JUMPDEST SWAP3 SWAP2 POP POP JUMP JUMPDEST PUSH1 0x0 DUP1 PUSH1 0x40 DUP4 DUP6 SUB SLT ISZERO PUSH2 0x2A57 JUMPI PUSH2 0x2A56 PUSH2 0x27DE JUMP JUMPDEST JUMPDEST PUSH1 0x0 PUSH2 0x2A65 DUP6 DUP3 DUP7 ADD PUSH2 0x2A2B JUMP JUMPDEST SWAP3 POP POP PUSH1 0x20 PUSH2 0x2A76 DUP6 DUP3 DUP7 ADD PUSH2 0x2976 JUMP JUMPDEST SWAP2 POP POP SWAP3 POP SWAP3 SWAP1 POP JUMP JUMPDEST PUSH2 0x2A89 DUP2 PUSH2 0x2955 JUMP JUMPDEST DUP3 MSTORE POP POP JUMP JUMPDEST PUSH1 0x0 PUSH1 0x20 DUP3 ADD SWAP1 POP PUSH2 0x2AA4 PUSH1 0x0 DUP4 ADD DUP5 PUSH2 0x2A80 JUMP JUMPDEST SWAP3 SWAP2 POP POP JUMP JUMPDEST PUSH1 0x0 DUP1 PUSH1 0x0 PUSH1 0x60 DUP5 DUP7 SUB SLT ISZERO PUSH2 0x2AC3 JUMPI PUSH2 0x2AC2 PUSH2 0x27DE JUMP JUMPDEST JUMPDEST PUSH1 0x0 PUSH2 0x2AD1 DUP7 DUP3 DUP8 ADD PUSH2 0x2A2B JUMP JUMPDEST SWAP4 POP POP PUSH1 0x20 PUSH2 0x2AE2 DUP7 DUP3 DUP8 ADD PUSH2 0x2A2B JUMP JUMPDEST SWAP3 POP POP PUSH1 0x40 PUSH2 0x2AF3 DUP7 DUP3 DUP8 ADD PUSH2 0x2976 JUMP JUMPDEST SWAP2 POP POP SWAP3 POP SWAP3 POP SWAP3 JUMP JUMPDEST PUSH1 0x0 PUSH1 0x20 DUP3 DUP5 SUB SLT ISZERO PUSH2 0x2B13 JUMPI PUSH2 0x2B12 PUSH2 0x27DE JUMP JUMPDEST JUMPDEST PUSH1 0x0 PUSH2 0x2B21 DUP5 DUP3 DUP6 ADD PUSH2 0x2A2B JUMP JUMPDEST SWAP2 POP POP SWAP3 SWAP2 POP POP JUMP JUMPDEST PUSH2 0x2B33 DUP2 PUSH2 0x286D JUMP JUMPDEST DUP2 EQ PUSH2 0x2B3E JUMPI PUSH1 0x0 DUP1 REVERT JUMPDEST POP JUMP JUMPDEST PUSH1 0x0 DUP2 CALLDATALOAD SWAP1 POP PUSH2 0x2B50 DUP2 PUSH2 0x2B2A JUMP JUMPDEST SWAP3 SWAP2 POP POP JUMP JUMPDEST PUSH1 0x0 DUP1 PUSH1 0x40 DUP4 DUP6 SUB SLT ISZERO PUSH2 0x2B6D JUMPI PUSH2 0x2B6C PUSH2 0x27DE JUMP JUMPDEST JUMPDEST PUSH1 0x0 PUSH2 0x2B7B DUP6 DUP3 DUP7 ADD PUSH2 0x2A2B JUMP JUMPDEST SWAP3 POP POP PUSH1 0x20 PUSH2 0x2B8C DUP6 DUP3 DUP7 ADD PUSH2 0x2B41 JUMP JUMPDEST SWAP2 POP POP SWAP3 POP SWAP3 SWAP1 POP JUMP JUMPDEST PUSH1 0x0 PUSH1 0xFF DUP3 AND SWAP1 POP SWAP2 SWAP1 POP JUMP JUMPDEST PUSH2 0x2BAC DUP2 PUSH2 0x2B96 JUMP JUMPDEST DUP2 EQ PUSH2 0x2BB7 JUMPI PUSH1 0x0 DUP1 REVERT JUMPDEST POP JUMP JUMPDEST PUSH1 0x0 DUP2 CALLDATALOAD SWAP1 POP PUSH2 0x2BC9 DUP2 PUSH2 0x2BA3 JUMP JUMPDEST SWAP3 SWAP2 POP POP JUMP JUMPDEST PUSH1 0x0 DUP1 PUSH1 0x40 DUP4 DUP6 SUB SLT ISZERO PUSH2 0x2BE6 JUMPI PUSH2 0x2BE5 PUSH2 0x27DE JUMP JUMPDEST JUMPDEST PUSH1 0x0 PUSH2 0x2BF4 DUP6 DUP3 DUP7 ADD PUSH2 0x2976 JUMP JUMPDEST SWAP3 POP POP PUSH1 0x20 PUSH2 0x2C05 DUP6 DUP3 DUP7 ADD PUSH2 0x2BBA JUMP JUMPDEST SWAP2 POP POP SWAP3 POP SWAP3 SWAP1 POP JUMP JUMPDEST PUSH1 0x0 DUP1 REVERT JUMPDEST PUSH1 0x0 DUP1 REVERT JUMPDEST PUSH32 0x4E487B7100000000000000000000000000000000000000000000000000000000 PUSH1 0x0 MSTORE PUSH1 0x41 PUSH1 0x4 MSTORE PUSH1 0x24 PUSH1 0x0 REVERT JUMPDEST PUSH2 0x2C51 DUP3 PUSH2 0x28E9 JUMP JUMPDEST DUP2 ADD DUP2 DUP2 LT PUSH8 0xFFFFFFFFFFFFFFFF DUP3 GT OR ISZERO PUSH2 0x2C70 JUMPI PUSH2 0x2C6F PUSH2 0x2C19 JUMP JUMPDEST JUMPDEST DUP1 PUSH1 0x40 MSTORE POP POP POP JUMP JUMPDEST PUSH1 0x0 PUSH2 0x2C83 PUSH2 0x27D4 JUMP JUMPDEST SWAP1 POP PUSH2 0x2C8F DUP3 DUP3 PUSH2 0x2C48 JUMP JUMPDEST SWAP2 SWAP1 POP JUMP JUMPDEST PUSH1 0x0 PUSH8 0xFFFFFFFFFFFFFFFF DUP3 GT ISZERO PUSH2 0x2CAF JUMPI PUSH2 0x2CAE PUSH2 0x2C19 JUMP JUMPDEST JUMPDEST PUSH2 0x2CB8 DUP3 PUSH2 0x28E9 JUMP JUMPDEST SWAP1 POP PUSH1 0x20 DUP2 ADD SWAP1 POP SWAP2 SWAP1 POP JUMP JUMPDEST DUP3 DUP2 DUP4 CALLDATACOPY PUSH1 0x0 DUP4 DUP4 ADD MSTORE POP POP POP JUMP JUMPDEST PUSH1 0x0 PUSH2 0x2CE7 PUSH2 0x2CE2 DUP5 PUSH2 0x2C94 JUMP JUMPDEST PUSH2 0x2C79 JUMP JUMPDEST SWAP1 POP DUP3 DUP2 MSTORE PUSH1 0x20 DUP2 ADD DUP5 DUP5 DUP5 ADD GT ISZERO PUSH2 0x2D03 JUMPI PUSH2 0x2D02 PUSH2 0x2C14 JUMP JUMPDEST JUMPDEST PUSH2 0x2D0E DUP5 DUP3 DUP6 PUSH2 0x2CC5 JUMP JUMPDEST POP SWAP4 SWAP3 POP POP POP JUMP JUMPDEST PUSH1 0x0 DUP3 PUSH1 0x1F DUP4 ADD SLT PUSH2 0x2D2B JUMPI PUSH2 0x2D2A PUSH2 0x2C0F JUMP JUMPDEST JUMPDEST DUP2 CALLDATALOAD PUSH2 0x2D3B DUP5 DUP3 PUSH1 0x20 DUP7 ADD PUSH2 0x2CD4 JUMP JUMPDEST SWAP2 POP POP SWAP3 SWAP2 POP POP JUMP JUMPDEST PUSH1 0x0 DUP1 PUSH1 0x0 DUP1 PUSH1 0x80 DUP6 DUP8 SUB SLT ISZERO PUSH2 0x2D5E JUMPI PUSH2 0x2D5D PUSH2 0x27DE JUMP JUMPDEST JUMPDEST PUSH1 0x0 PUSH2 0x2D6C DUP8 DUP3 DUP9 ADD PUSH2 0x2A2B JUMP JUMPDEST SWAP5 POP POP PUSH1 0x20 PUSH2 0x2D7D DUP8 DUP3 DUP9 ADD PUSH2 0x2A2B JUMP JUMPDEST SWAP4 POP POP PUSH1 0x40 PUSH2 0x2D8E DUP8 DUP3 DUP9 ADD PUSH2 0x2976 JUMP JUMPDEST SWAP3 POP POP PUSH1 0x60 DUP6 ADD CALLDATALOAD PUSH8 0xFFFFFFFFFFFFFFFF DUP2 GT ISZERO PUSH2 0x2DAF JUMPI PUSH2 0x2DAE PUSH2 0x27E3 JUMP JUMPDEST JUMPDEST PUSH2 0x2DBB DUP8 DUP3 DUP9 ADD PUSH2 0x2D16 JUMP JUMPDEST SWAP2 POP POP SWAP3 SWAP6 SWAP2 SWAP5 POP SWAP3 POP JUMP JUMPDEST PUSH1 0x0 PUSH1 0x60 DUP3 ADD SWAP1 POP PUSH2 0x2DDC PUSH1 0x0 DUP4 ADD DUP7 PUSH2 0x2A80 JUMP JUMPDEST PUSH2 0x2DE9 PUSH1 0x20 DUP4 ADD DUP6 PUSH2 0x2A80 JUMP JUMPDEST PUSH2 0x2DF6 PUSH1 0x40 DUP4 ADD DUP5 PUSH2 0x2A80 JUMP JUMPDEST SWAP5 SWAP4 POP POP POP POP JUMP JUMPDEST PUSH1 0x0 DUP1 PUSH1 0x40 DUP4 DUP6 SUB SLT ISZERO PUSH2 0x2E15 JUMPI PUSH2 0x2E14 PUSH2 0x27DE JUMP JUMPDEST JUMPDEST PUSH1 0x0 PUSH2 0x2E23 DUP6 DUP3 DUP7 ADD PUSH2 0x2A2B JUMP JUMPDEST SWAP3 POP POP PUSH1 0x20 PUSH2 0x2E34 DUP6 DUP3 DUP7 ADD PUSH2 0x2A2B JUMP JUMPDEST SWAP2 POP POP SWAP3 POP SWAP3 SWAP1 POP JUMP JUMPDEST PUSH1 0x0 DUP1 PUSH1 0x40 DUP4 DUP6 SUB SLT ISZERO PUSH2 0x2E55 JUMPI PUSH2 0x2E54 PUSH2 0x27DE JUMP JUMPDEST JUMPDEST PUSH1 0x0 PUSH2 0x2E63 DUP6 DUP3 DUP7 ADD PUSH2 0x2976 JUMP JUMPDEST SWAP3 POP POP PUSH1 0x20 PUSH2 0x2E74 DUP6 DUP3 DUP7 ADD PUSH2 0x2976 JUMP JUMPDEST SWAP2 POP POP SWAP3 POP SWAP3 SWAP1 POP JUMP JUMPDEST PUSH32 0x4E487B7100000000000000000000000000000000000000000000000000000000 PUSH1 0x0 MSTORE PUSH1 0x22 PUSH1 0x4 MSTORE PUSH1 0x24 PUSH1 0x0 REVERT JUMPDEST PUSH1 0x0 PUSH1 0x2 DUP3 DIV SWAP1 POP PUSH1 0x1 DUP3 AND DUP1 PUSH2 0x2EC5 JUMPI PUSH1 0x7F DUP3 AND SWAP2 POP JUMPDEST PUSH1 0x20 DUP3 LT DUP2 SUB PUSH2 0x2ED8 JUMPI PUSH2 0x2ED7 PUSH2 0x2E7E JUMP JUMPDEST JUMPDEST POP SWAP2 SWAP1 POP JUMP JUMPDEST PUSH32 0x4552433732313A20617070726F76616C20746F2063757272656E74206F776E65 PUSH1 0x0 DUP3 ADD MSTORE PUSH32 0x7200000000000000000000000000000000000000000000000000000000000000 PUSH1 0x20 DUP3 ADD MSTORE POP JUMP JUMPDEST PUSH1 0x0 PUSH2 0x2F3A PUSH1 0x21 DUP4 PUSH2 0x28AE JUMP JUMPDEST SWAP2 POP PUSH2 0x2F45 DUP3 PUSH2 0x2EDE JUMP JUMPDEST PUSH1 0x40 DUP3 ADD SWAP1 POP SWAP2 SWAP1 POP JUMP JUMPDEST PUSH1 0x0 PUSH1 0x20 DUP3 ADD SWAP1 POP DUP2 DUP2 SUB PUSH1 0x0 DUP4 ADD MSTORE PUSH2 0x2F69 DUP2 PUSH2 0x2F2D JUMP JUMPDEST SWAP1 POP SWAP2 SWAP1 POP JUMP JUMPDEST PUSH32 0x4552433732313A20617070726F76652063616C6C6572206973206E6F7420746F PUSH1 0x0 DUP3 ADD MSTORE PUSH32 0x6B656E206F776E6572206F7220617070726F76656420666F7220616C6C000000 PUSH1 0x20 DUP3 ADD MSTORE POP JUMP JUMPDEST PUSH1 0x0 PUSH2 0x2FCC PUSH1 0x3D DUP4 PUSH2 0x28AE JUMP JUMPDEST SWAP2 POP PUSH2 0x2FD7 DUP3 PUSH2 0x2F70 JUMP JUMPDEST PUSH1 0x40 DUP3 ADD SWAP1 POP SWAP2 SWAP1 POP JUMP JUMPDEST PUSH1 0x0 PUSH1 0x20 DUP3 ADD SWAP1 POP DUP2 DUP2 SUB PUSH1 0x0 DUP4 ADD MSTORE PUSH2 0x2FFB DUP2 PUSH2 0x2FBF JUMP JUMPDEST SWAP1 POP SWAP2 SWAP1 POP JUMP JUMPDEST PUSH32 0x4552433732313A2063616C6C6572206973206E6F7420746F6B656E206F776E65 PUSH1 0x0 DUP3 ADD MSTORE PUSH32 0x72206F7220617070726F76656400000000000000000000000000000000000000 PUSH1 0x20 DUP3 ADD MSTORE POP JUMP JUMPDEST PUSH1 0x0 PUSH2 0x305E PUSH1 0x2D DUP4 PUSH2 0x28AE JUMP JUMPDEST SWAP2 POP PUSH2 0x3069 DUP3 PUSH2 0x3002 JUMP JUMPDEST PUSH1 0x40 DUP3 ADD SWAP1 POP SWAP2 SWAP1 POP JUMP JUMPDEST PUSH1 0x0 PUSH1 0x20 DUP3 ADD SWAP1 POP DUP2 DUP2 SUB PUSH1 0x0 DUP4 ADD MSTORE PUSH2 0x308D DUP2 PUSH2 0x3051 JUMP JUMPDEST SWAP1 POP SWAP2 SWAP1 POP JUMP JUMPDEST PUSH1 0x0 DUP2 SWAP1 POP SWAP3 SWAP2 POP POP JUMP JUMPDEST POP JUMP JUMPDEST PUSH1 0x0 PUSH2 0x30AF PUSH1 0x0 DUP4 PUSH2 0x3094 JUMP JUMPDEST SWAP2 POP PUSH2 0x30BA DUP3 PUSH2 0x309F JUMP JUMPDEST PUSH1 0x0 DUP3 ADD SWAP1 POP SWAP2 SWAP1 POP JUMP JUMPDEST PUSH1 0x0 PUSH2 0x30D0 DUP3 PUSH2 0x30A2 JUMP JUMPDEST SWAP2 POP DUP2 SWAP1 POP SWAP2 SWAP1 POP JUMP JUMPDEST PUSH32 0x4552433732313A20696E76616C696420746F6B656E2049440000000000000000 PUSH1 0x0 DUP3 ADD MSTORE POP JUMP JUMPDEST PUSH1 0x0 PUSH2 0x3110 PUSH1 0x18 DUP4 PUSH2 0x28AE JUMP JUMPDEST SWAP2 POP PUSH2 0x311B DUP3 PUSH2 0x30DA JUMP JUMPDEST PUSH1 0x20 DUP3 ADD SWAP1 POP SWAP2 SWAP1 POP JUMP JUMPDEST PUSH1 0x0 PUSH1 0x20 DUP3 ADD SWAP1 POP DUP2 DUP2 SUB PUSH1 0x0 DUP4 ADD MSTORE PUSH2 0x313F DUP2 PUSH2 0x3103 JUMP JUMPDEST SWAP1 POP SWAP2 SWAP1 POP JUMP JUMPDEST PUSH32 0x4552433732313A2061646472657373207A65726F206973206E6F742061207661 PUSH1 0x0 DUP3 ADD MSTORE PUSH32 0x6C6964206F776E65720000000000000000000000000000000000000000000000 PUSH1 0x20 DUP3 ADD MSTORE POP JUMP JUMPDEST PUSH1 0x0 PUSH2 0x31A2 PUSH1 0x29 DUP4 PUSH2 0x28AE JUMP JUMPDEST SWAP2 POP PUSH2 0x31AD DUP3 PUSH2 0x3146 JUMP JUMPDEST PUSH1 0x40 DUP3 ADD SWAP1 POP SWAP2 SWAP1 POP JUMP JUMPDEST PUSH1 0x0 PUSH1 0x20 DUP3 ADD SWAP1 POP DUP2 DUP2 SUB PUSH1 0x0 DUP4 ADD MSTORE PUSH2 0x31D1 DUP2 PUSH2 0x3195 JUMP JUMPDEST SWAP1 POP SWAP2 SWAP1 POP JUMP JUMPDEST PUSH32 0x717565727920666F72206E6F6E6578697374656E7420746F6B656E0000000000 PUSH1 0x0 DUP3 ADD MSTORE POP JUMP JUMPDEST PUSH1 0x0 PUSH2 0x320E PUSH1 0x1B DUP4 PUSH2 0x28AE JUMP JUMPDEST SWAP2 POP PUSH2 0x3219 DUP3 PUSH2 0x31D8 JUMP JUMPDEST PUSH1 0x20 DUP3 ADD SWAP1 POP SWAP2 SWAP1 POP JUMP JUMPDEST PUSH1 0x0 PUSH1 0x20 DUP3 ADD SWAP1 POP DUP2 DUP2 SUB PUSH1 0x0 DUP4 ADD MSTORE PUSH2 0x323D DUP2 PUSH2 0x3201 JUMP JUMPDEST SWAP1 POP SWAP2 SWAP1 POP JUMP JUMPDEST PUSH32 0x4E487B7100000000000000000000000000000000000000000000000000000000 PUSH1 0x0 MSTORE PUSH1 0x11 PUSH1 0x4 MSTORE PUSH1 0x24 PUSH1 0x0 REVERT JUMPDEST PUSH1 0x0 PUSH2 0x327E DUP3 PUSH2 0x2B96 JUMP JUMPDEST SWAP2 POP PUSH2 0x3289 DUP4 PUSH2 0x2B96 JUMP JUMPDEST SWAP3 POP DUP3 DUP3 ADD SWAP1 POP PUSH1 0xFF DUP2 GT ISZERO PUSH2 0x32A2 JUMPI PUSH2 0x32A1 PUSH2 0x3244 JUMP JUMPDEST JUMPDEST SWAP3 SWAP2 POP POP JUMP JUMPDEST PUSH1 0x0 PUSH1 0x40 DUP3 ADD SWAP1 POP PUSH2 0x32BD PUSH1 0x0 DUP4 ADD DUP6 PUSH2 0x2A80 JUMP JUMPDEST PUSH2 0x32CA PUSH1 0x20 DUP4 ADD DUP5 PUSH2 0x2A80 JUMP JUMPDEST SWAP4 SWAP3 POP POP POP JUMP JUMPDEST PUSH32 0x4552433732314D657461646174613A2055524920717565727920666F72206E6F PUSH1 0x0 DUP3 ADD MSTORE PUSH32 0x6E6578697374656E7420746F6B656E0000000000000000000000000000000000 PUSH1 0x20 DUP3 ADD MSTORE POP JUMP JUMPDEST PUSH1 0x0 PUSH2 0x332D PUSH1 0x2F DUP4 PUSH2 0x28AE JUMP JUMPDEST SWAP2 POP PUSH2 0x3338 DUP3 PUSH2 0x32D1 JUMP JUMPDEST PUSH1 0x40 DUP3 ADD SWAP1 POP SWAP2 SWAP1 POP JUMP JUMPDEST PUSH1 0x0 PUSH1 0x20 DUP3 ADD SWAP1 POP DUP2 DUP2 SUB PUSH1 0x0 DUP4 ADD MSTORE PUSH2 0x335C DUP2 PUSH2 0x3320 JUMP JUMPDEST SWAP1 POP SWAP2 SWAP1 POP JUMP JUMPDEST PUSH1 0x0 DUP2 SWAP1 POP SWAP3 SWAP2 POP POP JUMP JUMPDEST PUSH1 0x0 PUSH2 0x3379 DUP3 PUSH2 0x28A3 JUMP JUMPDEST PUSH2 0x3383 DUP2 DUP6 PUSH2 0x3363 JUMP JUMPDEST SWAP4 POP PUSH2 0x3393 DUP2 DUP6 PUSH1 0x20 DUP7 ADD PUSH2 0x28BF JUMP JUMPDEST DUP1 DUP5 ADD SWAP2 POP POP SWAP3 SWAP2 POP POP JUMP JUMPDEST PUSH32 0x2E6A736F6E000000000000000000000000000000000000000000000000000000 PUSH1 0x0 DUP3 ADD MSTORE POP JUMP JUMPDEST PUSH1 0x0 PUSH2 0x33D5 PUSH1 0x5 DUP4 PUSH2 0x3363 JUMP JUMPDEST SWAP2 POP PUSH2 0x33E0 DUP3 PUSH2 0x339F JUMP JUMPDEST PUSH1 0x5 DUP3 ADD SWAP1 POP SWAP2 SWAP1 POP JUMP JUMPDEST PUSH1 0x0 PUSH2 0x33F7 DUP3 DUP6 PUSH2 0x336E JUMP JUMPDEST SWAP2 POP PUSH2 0x3403 DUP3 DUP5 PUSH2 0x336E JUMP JUMPDEST SWAP2 POP PUSH2 0x340E DUP3 PUSH2 0x33C8 JUMP JUMPDEST SWAP2 POP DUP2 SWAP1 POP SWAP4 SWAP3 POP POP POP JUMP JUMPDEST PUSH32 0x4F776E61626C653A206E6577206F776E657220697320746865207A65726F2061 PUSH1 0x0 DUP3 ADD MSTORE PUSH32 0x6464726573730000000000000000000000000000000000000000000000000000 PUSH1 0x20 DUP3 ADD MSTORE POP JUMP JUMPDEST PUSH1 0x0 PUSH2 0x3476 PUSH1 0x26 DUP4 PUSH2 0x28AE JUMP JUMPDEST SWAP2 POP PUSH2 0x3481 DUP3 PUSH2 0x341A JUMP JUMPDEST PUSH1 0x40 DUP3 ADD SWAP1 POP SWAP2 SWAP1 POP JUMP JUMPDEST PUSH1 0x0 PUSH1 0x20 DUP3 ADD SWAP1 POP DUP2 DUP2 SUB PUSH1 0x0 DUP4 ADD MSTORE PUSH2 0x34A5 DUP2 PUSH2 0x3469 JUMP JUMPDEST SWAP1 POP SWAP2 SWAP1 POP JUMP JUMPDEST PUSH1 0x0 DUP2 MLOAD SWAP1 POP PUSH2 0x34BB DUP2 PUSH2 0x295F JUMP JUMPDEST SWAP3 SWAP2 POP POP JUMP JUMPDEST PUSH1 0x0 DUP1 PUSH1 0x0 PUSH1 0x60 DUP5 DUP7 SUB SLT ISZERO PUSH2 0x34DA JUMPI PUSH2 0x34D9 PUSH2 0x27DE JUMP JUMPDEST JUMPDEST PUSH1 0x0 PUSH2 0x34E8 DUP7 DUP3 DUP8 ADD PUSH2 0x34AC JUMP JUMPDEST SWAP4 POP POP PUSH1 0x20 PUSH2 0x34F9 DUP7 DUP3 DUP8 ADD PUSH2 0x34AC JUMP JUMPDEST SWAP3 POP POP PUSH1 0x40 PUSH2 0x350A DUP7 DUP3 DUP8 ADD PUSH2 0x34AC JUMP JUMPDEST SWAP2 POP POP SWAP3 POP SWAP3 POP SWAP3 JUMP JUMPDEST PUSH32 0x4F776E61626C653A2063616C6C6572206973206E6F7420746865206F776E6572 PUSH1 0x0 DUP3 ADD MSTORE POP JUMP JUMPDEST PUSH1 0x0 PUSH2 0x354A PUSH1 0x20 DUP4 PUSH2 0x28AE JUMP JUMPDEST SWAP2 POP PUSH2 0x3555 DUP3 PUSH2 0x3514 JUMP JUMPDEST PUSH1 0x20 DUP3 ADD SWAP1 POP SWAP2 SWAP1 POP JUMP JUMPDEST PUSH1 0x0 PUSH1 0x20 DUP3 ADD SWAP1 POP DUP2 DUP2 SUB PUSH1 0x0 DUP4 ADD MSTORE PUSH2 0x3579 DUP2 PUSH2 0x353D JUMP JUMPDEST SWAP1 POP SWAP2 SWAP1 POP JUMP JUMPDEST PUSH32 0x4552433732313A207472616E736665722066726F6D20696E636F727265637420 PUSH1 0x0 DUP3 ADD MSTORE PUSH32 0x6F776E6572000000000000000000000000000000000000000000000000000000 PUSH1 0x20 DUP3 ADD MSTORE POP JUMP JUMPDEST PUSH1 0x0 PUSH2 0x35DC PUSH1 0x25 DUP4 PUSH2 0x28AE JUMP JUMPDEST SWAP2 POP PUSH2 0x35E7 DUP3 PUSH2 0x3580 JUMP JUMPDEST PUSH1 0x40 DUP3 ADD SWAP1 POP SWAP2 SWAP1 POP JUMP JUMPDEST PUSH1 0x0 PUSH1 0x20 DUP3 ADD SWAP1 POP DUP2 DUP2 SUB PUSH1 0x0 DUP4 ADD MSTORE PUSH2 0x360B DUP2 PUSH2 0x35CF JUMP JUMPDEST SWAP1 POP SWAP2 SWAP1 POP JUMP JUMPDEST PUSH32 0x4552433732313A207472616E7366657220746F20746865207A65726F20616464 PUSH1 0x0 DUP3 ADD MSTORE PUSH32 0x7265737300000000000000000000000000000000000000000000000000000000 PUSH1 0x20 DUP3 ADD MSTORE POP JUMP JUMPDEST PUSH1 0x0 PUSH2 0x366E PUSH1 0x24 DUP4 PUSH2 0x28AE JUMP JUMPDEST SWAP2 POP PUSH2 0x3679 DUP3 PUSH2 0x3612 JUMP JUMPDEST PUSH1 0x40 DUP3 ADD SWAP1 POP SWAP2 SWAP1 POP JUMP JUMPDEST PUSH1 0x0 PUSH1 0x20 DUP3 ADD SWAP1 POP DUP2 DUP2 SUB PUSH1 0x0 DUP4 ADD MSTORE PUSH2 0x369D DUP2 PUSH2 0x3661 JUMP JUMPDEST SWAP1 POP SWAP2 SWAP1 POP JUMP JUMPDEST PUSH32 0x6572726F722C20637265617465546F6B656E2C2070617274206964206D757374 PUSH1 0x0 DUP3 ADD MSTORE PUSH32 0x20626520696E2072616E67650000000000000000000000000000000000000000 PUSH1 0x20 DUP3 ADD MSTORE POP JUMP JUMPDEST PUSH1 0x0 PUSH2 0x3700 PUSH1 0x2C DUP4 PUSH2 0x28AE JUMP JUMPDEST SWAP2 POP PUSH2 0x370B DUP3 PUSH2 0x36A4 JUMP JUMPDEST PUSH1 0x40 DUP3 ADD SWAP1 POP SWAP2 SWAP1 POP JUMP JUMPDEST PUSH1 0x0 PUSH1 0x20 DUP3 ADD SWAP1 POP DUP2 DUP2 SUB PUSH1 0x0 DUP4 ADD MSTORE PUSH2 0x372F DUP2 PUSH2 0x36F3 JUMP JUMPDEST SWAP1 POP SWAP2 SWAP1 POP JUMP JUMPDEST PUSH32 0x6572726F722C20637265617465546F6B656E2C2070617274206C6576656C206D PUSH1 0x0 DUP3 ADD MSTORE PUSH32 0x7573742062652067726561746572207468616E20300000000000000000000000 PUSH1 0x20 DUP3 ADD MSTORE POP JUMP JUMPDEST PUSH1 0x0 PUSH2 0x3792 PUSH1 0x35 DUP4 PUSH2 0x28AE JUMP JUMPDEST SWAP2 POP PUSH2 0x379D DUP3 PUSH2 0x3736 JUMP JUMPDEST PUSH1 0x40 DUP3 ADD SWAP1 POP SWAP2 SWAP1 POP JUMP JUMPDEST PUSH1 0x0 PUSH1 0x20 DUP3 ADD SWAP1 POP DUP2 DUP2 SUB PUSH1 0x0 DUP4 ADD MSTORE PUSH2 0x37C1 DUP2 PUSH2 0x3785 JUMP JUMPDEST SWAP1 POP SWAP2 SWAP1 POP JUMP JUMPDEST PUSH1 0x0 PUSH2 0x37D3 DUP3 PUSH2 0x2B96 JUMP JUMPDEST SWAP2 POP PUSH1 0xFF DUP3 SUB PUSH2 0x37E6 JUMPI PUSH2 0x37E5 PUSH2 0x3244 JUMP JUMPDEST JUMPDEST PUSH1 0x1 DUP3 ADD SWAP1 POP SWAP2 SWAP1 POP JUMP JUMPDEST PUSH1 0x0 PUSH1 0x80 DUP3 ADD SWAP1 POP PUSH2 0x3806 PUSH1 0x0 DUP4 ADD DUP8 PUSH2 0x2A80 JUMP JUMPDEST PUSH2 0x3813 PUSH1 0x20 DUP4 ADD DUP7 PUSH2 0x2A80 JUMP JUMPDEST PUSH2 0x3820 PUSH1 0x40 DUP4 ADD DUP6 PUSH2 0x2A80 JUMP JUMPDEST PUSH2 0x382D PUSH1 0x60 DUP4 ADD DUP5 PUSH2 0x2A80 JUMP JUMPDEST SWAP6 SWAP5 POP POP POP POP POP JUMP JUMPDEST PUSH32 0x4552433732313A20617070726F766520746F2063616C6C657200000000000000 PUSH1 0x0 DUP3 ADD MSTORE POP JUMP JUMPDEST PUSH1 0x0 PUSH2 0x386C PUSH1 0x19 DUP4 PUSH2 0x28AE JUMP JUMPDEST SWAP2 POP PUSH2 0x3877 DUP3 PUSH2 0x3836 JUMP JUMPDEST PUSH1 0x20 DUP3 ADD SWAP1 POP SWAP2 SWAP1 POP JUMP JUMPDEST PUSH1 0x0 PUSH1 0x20 DUP3 ADD SWAP1 POP DUP2 DUP2 SUB PUSH1 0x0 DUP4 ADD MSTORE PUSH2 0x389B DUP2 PUSH2 0x385F JUMP JUMPDEST SWAP1 POP SWAP2 SWAP1 POP JUMP JUMPDEST PUSH32 0x4552433732313A207472616E7366657220746F206E6F6E204552433732315265 PUSH1 0x0 DUP3 ADD MSTORE PUSH32 0x63656976657220696D706C656D656E7465720000000000000000000000000000 PUSH1 0x20 DUP3 ADD MSTORE POP JUMP JUMPDEST PUSH1 0x0 PUSH2 0x38FE PUSH1 0x32 DUP4 PUSH2 0x28AE JUMP JUMPDEST SWAP2 POP PUSH2 0x3909 DUP3 PUSH2 0x38A2 JUMP JUMPDEST PUSH1 0x40 DUP3 ADD SWAP1 POP SWAP2 SWAP1 POP JUMP JUMPDEST PUSH1 0x0 PUSH1 0x20 DUP3 ADD SWAP1 POP DUP2 DUP2 SUB PUSH1 0x0 DUP4 ADD MSTORE PUSH2 0x392D DUP2 PUSH2 0x38F1 JUMP JUMPDEST SWAP1 POP SWAP2 SWAP1 POP JUMP JUMPDEST PUSH32 0x4E487B7100000000000000000000000000000000000000000000000000000000 PUSH1 0x0 MSTORE PUSH1 0x12 PUSH1 0x4 MSTORE PUSH1 0x24 PUSH1 0x0 REVERT JUMPDEST PUSH32 0x5061757361626C653A206E6F7420706175736564000000000000000000000000 PUSH1 0x0 DUP3 ADD MSTORE POP JUMP JUMPDEST PUSH1 0x0 PUSH2 0x3999 PUSH1 0x14 DUP4 PUSH2 0x28AE JUMP JUMPDEST SWAP2 POP PUSH2 0x39A4 DUP3 PUSH2 0x3963 JUMP JUMPDEST PUSH1 0x20 DUP3 ADD SWAP1 POP SWAP2 SWAP1 POP JUMP JUMPDEST PUSH1 0x0 PUSH1 0x20 DUP3 ADD SWAP1 POP DUP2 DUP2 SUB PUSH1 0x0 DUP4 ADD MSTORE PUSH2 0x39C8 DUP2 PUSH2 0x398C JUMP JUMPDEST SWAP1 POP SWAP2 SWAP1 POP JUMP JUMPDEST PUSH32 0x5061757361626C653A2070617573656400000000000000000000000000000000 PUSH1 0x0 DUP3 ADD MSTORE POP JUMP JUMPDEST PUSH1 0x0 PUSH2 0x3A05 PUSH1 0x10 DUP4 PUSH2 0x28AE JUMP JUMPDEST SWAP2 POP PUSH2 0x3A10 DUP3 PUSH2 0x39CF JUMP JUMPDEST PUSH1 0x20 DUP3 ADD SWAP1 POP SWAP2 SWAP1 POP JUMP JUMPDEST PUSH1 0x0 PUSH1 0x20 DUP3 ADD SWAP1 POP DUP2 DUP2 SUB PUSH1 0x0 DUP4 ADD MSTORE PUSH2 0x3A34 DUP2 PUSH2 0x39F8 JUMP JUMPDEST SWAP1 POP SWAP2 SWAP1 POP JUMP JUMPDEST PUSH1 0x0 PUSH2 0x3A46 DUP3 PUSH2 0x2B96 JUMP JUMPDEST SWAP2 POP PUSH2 0x3A51 DUP4 PUSH2 0x2B96 JUMP JUMPDEST SWAP3 POP DUP3 DUP3 MUL PUSH2 0x3A5F DUP2 PUSH2 0x2B96 JUMP JUMPDEST SWAP2 POP DUP1 DUP3 EQ PUSH2 0x3A71 JUMPI PUSH2 0x3A70 PUSH2 0x3244 JUMP JUMPDEST JUMPDEST POP SWAP3 SWAP2 POP POP JUMP JUMPDEST PUSH1 0x0 PUSH2 0x3A83 DUP3 PUSH2 0x2955 JUMP JUMPDEST SWAP2 POP PUSH2 0x3A8E DUP4 PUSH2 0x2955 JUMP JUMPDEST SWAP3 POP DUP3 DUP3 ADD SWAP1 POP DUP1 DUP3 GT ISZERO PUSH2 0x3AA6 JUMPI PUSH2 0x3AA5 PUSH2 0x3244 JUMP JUMPDEST JUMPDEST SWAP3 SWAP2 POP POP JUMP JUMPDEST PUSH1 0x0 PUSH2 0x3AB7 DUP3 PUSH2 0x2955 JUMP JUMPDEST SWAP2 POP PUSH2 0x3AC2 DUP4 PUSH2 0x2955 JUMP JUMPDEST SWAP3 POP DUP3 DUP3 MUL PUSH2 0x3AD0 DUP2 PUSH2 0x2955 JUMP JUMPDEST SWAP2 POP DUP3 DUP3 DIV DUP5 EQ DUP4 ISZERO OR PUSH2 0x3AE7 JUMPI PUSH2 0x3AE6 PUSH2 0x3244 JUMP JUMPDEST JUMPDEST POP SWAP3 SWAP2 POP POP JUMP JUMPDEST PUSH1 0x0 DUP2 MLOAD SWAP1 POP SWAP2 SWAP1 POP JUMP JUMPDEST PUSH1 0x0 DUP3 DUP3 MSTORE PUSH1 0x20 DUP3 ADD SWAP1 POP SWAP3 SWAP2 POP POP JUMP JUMPDEST PUSH1 0x0 PUSH2 0x3B15 DUP3 PUSH2 0x3AEE JUMP JUMPDEST PUSH2 0x3B1F DUP2 DUP6 PUSH2 0x3AF9 JUMP JUMPDEST SWAP4 POP PUSH2 0x3B2F DUP2 DUP6 PUSH1 0x20 DUP7 ADD PUSH2 0x28BF JUMP JUMPDEST PUSH2 0x3B38 DUP2 PUSH2 0x28E9 JUMP JUMPDEST DUP5 ADD SWAP2 POP POP SWAP3 SWAP2 POP POP JUMP JUMPDEST PUSH1 0x0 PUSH1 0x80 DUP3 ADD SWAP1 POP PUSH2 0x3B58 PUSH1 0x0 DUP4 ADD DUP8 PUSH2 0x29EA JUMP JUMPDEST PUSH2 0x3B65 PUSH1 0x20 DUP4 ADD DUP7 PUSH2 0x29EA JUMP JUMPDEST PUSH2 0x3B72 PUSH1 0x40 DUP4 ADD DUP6 PUSH2 0x2A80 JUMP JUMPDEST DUP2 DUP2 SUB PUSH1 0x60 DUP4 ADD MSTORE PUSH2 0x3B84 DUP2 DUP5 PUSH2 0x3B0A JUMP JUMPDEST SWAP1 POP SWAP6 SWAP5 POP POP POP POP POP JUMP JUMPDEST PUSH1 0x0 DUP2 MLOAD SWAP1 POP PUSH2 0x3B9E DUP2 PUSH2 0x2814 JUMP JUMPDEST SWAP3 SWAP2 POP POP JUMP JUMPDEST PUSH1 0x0 PUSH1 0x20 DUP3 DUP5 SUB SLT ISZERO PUSH2 0x3BBA JUMPI PUSH2 0x3BB9 PUSH2 0x27DE JUMP JUMPDEST JUMPDEST PUSH1 0x0 PUSH2 0x3BC8 DUP5 DUP3 DUP6 ADD PUSH2 0x3B8F JUMP JUMPDEST SWAP2 POP POP SWAP3 SWAP2 POP POP JUMP JUMPDEST PUSH1 0x0 PUSH2 0x3BDC DUP3 PUSH2 0x2955 JUMP JUMPDEST SWAP2 POP PUSH2 0x3BE7 DUP4 PUSH2 0x2955 JUMP JUMPDEST SWAP3 POP DUP3 DUP3 SUB SWAP1 POP DUP2 DUP2 GT ISZERO PUSH2 0x3BFF JUMPI PUSH2 0x3BFE PUSH2 0x3244 JUMP JUMPDEST JUMPDEST SWAP3 SWAP2 POP POP JUMP JUMPDEST PUSH32 0x4552433732313A206D696E7420746F20746865207A65726F2061646472657373 PUSH1 0x0 DUP3 ADD MSTORE POP JUMP JUMPDEST PUSH1 0x0 PUSH2 0x3C3B PUSH1 0x20 DUP4 PUSH2 0x28AE JUMP JUMPDEST SWAP2 POP PUSH2 0x3C46 DUP3 PUSH2 0x3C05 JUMP JUMPDEST PUSH1 0x20 DUP3 ADD SWAP1 POP SWAP2 SWAP1 POP JUMP JUMPDEST PUSH1 0x0 PUSH1 0x20 DUP3 ADD SWAP1 POP DUP2 DUP2 SUB PUSH1 0x0 DUP4 ADD MSTORE PUSH2 0x3C6A DUP2 PUSH2 0x3C2E JUMP JUMPDEST SWAP1 POP SWAP2 SWAP1 POP JUMP JUMPDEST PUSH32 0x4552433732313A20746F6B656E20616C7265616479206D696E74656400000000 PUSH1 0x0 DUP3 ADD MSTORE POP JUMP JUMPDEST PUSH1 0x0 PUSH2 0x3CA7 PUSH1 0x1C DUP4 PUSH2 0x28AE JUMP JUMPDEST SWAP2 POP PUSH2 0x3CB2 DUP3 PUSH2 0x3C71 JUMP JUMPDEST PUSH1 0x20 DUP3 ADD SWAP1 POP SWAP2 SWAP1 POP JUMP JUMPDEST PUSH1 0x0 PUSH1 0x20 DUP3 ADD SWAP1 POP DUP2 DUP2 SUB PUSH1 0x0 DUP4 ADD MSTORE PUSH2 0x3CD6 DUP2 PUSH2 0x3C9A JUMP JUMPDEST SWAP1 POP SWAP2 SWAP1 POP JUMP INVALID LOG2 PUSH5 0x6970667358 0x22 SLT KECCAK256 0x4A PUSH3 0xFCDD70 TIMESTAMP 0xC5 EXTCODEHASH 0x28 0x27 ADDMOD 0x23 0xEC 0xFC 0xB8 0xAD CHAINID PUSH9 0x7572DA65827039E7C 0xBE PUSH31 0xE2602964736F6C63430008130033608060405260008060146101000A815481 PUSH1 0xFF MUL NOT AND SWAP1 DUP4 PUSH1 0xFF AND MUL OR SWAP1 SSTORE POP PUSH1 0x1 DUP1 SSTORE PUSH1 0x5 PUSH1 0x2 SSTORE PUSH1 0x1 PUSH1 0x3 SSTORE PUSH1 0x1E PUSH1 0x4 SSTORE PUSH1 0x1 PUSH1 0x5 SSTORE PUSH1 0x24 PUSH1 0x6 SSTORE CALLVALUE DUP1 ISZERO PUSH2 0x48 JUMPI PUSH1 0x0 DUP1 REVERT JUMPDEST POP PUSH2 0x65 PUSH2 0x5A PUSH2 0x6A PUSH1 0x20 SHL PUSH1 0x20 SHR JUMP JUMPDEST PUSH2 0x72 PUSH1 0x20 SHL PUSH1 0x20 SHR JUMP JUMPDEST PUSH2 0x136 JUMP JUMPDEST PUSH1 0x0 CALLER SWAP1 POP SWAP1 JUMP JUMPDEST PUSH1 0x0 DUP1 PUSH1 0x0 SWAP1 SLOAD SWAP1 PUSH2 0x100 EXP SWAP1 DIV PUSH20 0xFFFFFFFFFFFFFFFFFFFFFFFFFFFFFFFFFFFFFFFF AND SWAP1 POP DUP2 PUSH1 0x0 DUP1 PUSH2 0x100 EXP DUP2 SLOAD DUP2 PUSH20 0xFFFFFFFFFFFFFFFFFFFFFFFFFFFFFFFFFFFFFFFF MUL NOT AND SWAP1 DUP4 PUSH20 0xFFFFFFFFFFFFFFFFFFFFFFFFFFFFFFFFFFFFFFFF AND MUL OR SWAP1 SSTORE POP DUP2 PUSH20 0xFFFFFFFFFFFFFFFFFFFFFFFFFFFFFFFFFFFFFFFF AND DUP2 PUSH20 0xFFFFFFFFFFFFFFFFFFFFFFFFFFFFFFFFFFFFFFFF AND PUSH32 0x8BE0079C531659141344CD1FD0A4F28419497F9722A3DAAFE3B4186F6B6457E0 PUSH1 0x40 MLOAD PUSH1 0x40 MLOAD DUP1 SWAP2 SUB SWAP1 LOG3 POP POP JUMP JUMPDEST PUSH2 0x1514 DUP1 PUSH2 0x145 PUSH1 0x0 CODECOPY PUSH1 0x0 RETURN INVALID PUSH1 0x80 PUSH1 0x40 MSTORE CALLVALUE DUP1 ISZERO PUSH2 0x10 JUMPI PUSH1 0x0 DUP1 REVERT JUMPDEST POP PUSH1 0x4 CALLDATASIZE LT PUSH2 0x116 JUMPI PUSH1 0x0 CALLDATALOAD PUSH1 0xE0 SHR DUP1 PUSH4 0x8DA5CB5B GT PUSH2 0xA2 JUMPI DUP1 PUSH4 0xE238B8C6 GT PUSH2 0x71 JUMPI DUP1 PUSH4 0xE238B8C6 EQ PUSH2 0x281 JUMPI DUP1 PUSH4 0xE2E3A0DB EQ PUSH2 0x29F JUMPI DUP1 PUSH4 0xE4A13FB7 EQ PUSH2 0x2BB JUMPI DUP1 PUSH4 0xEB4B0E51 EQ PUSH2 0x2ED JUMPI DUP1 PUSH4 0xF2FDE38B EQ PUSH2 0x30B JUMPI PUSH2 0x116 JUMP JUMPDEST DUP1 PUSH4 0x8DA5CB5B EQ PUSH2 0x20D JUMPI DUP1 PUSH4 0x91B66725 EQ PUSH2 0x22B JUMPI DUP1 PUSH4 0xD477A712 EQ PUSH2 0x247 JUMPI DUP1 PUSH4 0xD6412CFD EQ PUSH2 0x265 JUMPI PUSH2 0x116 JUMP JUMPDEST DUP1 PUSH4 0x32099CC4 GT PUSH2 0xE9 JUMPI DUP1 PUSH4 0x32099CC4 EQ PUSH2 0x18B JUMPI DUP1 PUSH4 0x43AED9DC EQ PUSH2 0x1A9 JUMPI DUP1 PUSH4 0x615EBE28 EQ PUSH2 0x1C7 JUMPI DUP1 PUSH4 0x715018A6 EQ PUSH2 0x1E5 JUMPI DUP1 PUSH4 0x878CF3A6 EQ PUSH2 0x1EF JUMPI PUSH2 0x116 JUMP JUMPDEST DUP1 PUSH4 0x2AFF378 EQ PUSH2 0x11B JUMPI DUP1 PUSH4 0x54FEE6A EQ PUSH2 0x137 JUMPI DUP1 PUSH4 0x16BD8646 EQ PUSH2 0x153 JUMPI DUP1 PUSH4 0x1BB39F84 EQ PUSH2 0x16F JUMPI JUMPDEST PUSH1 0x0 DUP1 REVERT JUMPDEST PUSH2 0x135 PUSH1 0x4 DUP1 CALLDATASIZE SUB DUP2 ADD SWAP1 PUSH2 0x130 SWAP2 SWAP1 PUSH2 0xCCF JUMP JUMPDEST PUSH2 0x327 JUMP JUMPDEST STOP JUMPDEST PUSH2 0x151 PUSH1 0x4 DUP1 CALLDATASIZE SUB DUP2 ADD SWAP1 PUSH2 0x14C SWAP2 SWAP1 PUSH2 0xCCF JUMP JUMPDEST PUSH2 0x339 JUMP JUMPDEST STOP JUMPDEST PUSH2 0x16D PUSH1 0x4 DUP1 CALLDATASIZE SUB DUP2 ADD SWAP1 PUSH2 0x168 SWAP2 SWAP1 PUSH2 0xCCF JUMP JUMPDEST PUSH2 0x34B JUMP JUMPDEST STOP JUMPDEST PUSH2 0x189 PUSH1 0x4 DUP1 CALLDATASIZE SUB DUP2 ADD SWAP1 PUSH2 0x184 SWAP2 SWAP1 PUSH2 0xCCF JUMP JUMPDEST PUSH2 0x35D JUMP JUMPDEST STOP JUMPDEST PUSH2 0x193 PUSH2 0x36F JUMP JUMPDEST PUSH1 0x40 MLOAD PUSH2 0x1A0 SWAP2 SWAP1 PUSH2 0xD0B JUMP JUMPDEST PUSH1 0x40 MLOAD DUP1 SWAP2 SUB SWAP1 RETURN JUMPDEST PUSH2 0x1B1 PUSH2 0x379 JUMP JUMPDEST PUSH1 0x40 MLOAD PUSH2 0x1BE SWAP2 SWAP1 PUSH2 0xD42 JUMP JUMPDEST PUSH1 0x40 MLOAD DUP1 SWAP2 SUB SWAP1 RETURN JUMPDEST PUSH2 0x1CF PUSH2 0x38F JUMP JUMPDEST PUSH1 0x40 MLOAD PUSH2 0x1DC SWAP2 SWAP1 PUSH2 0xD0B JUMP JUMPDEST PUSH1 0x40 MLOAD DUP1 SWAP2 SUB SWAP1 RETURN JUMPDEST PUSH2 0x1ED PUSH2 0x399 JUMP JUMPDEST STOP JUMPDEST PUSH2 0x1F7 PUSH2 0x3AD JUMP JUMPDEST PUSH1 0x40 MLOAD PUSH2 0x204 SWAP2 SWAP1 PUSH2 0xD0B JUMP JUMPDEST PUSH1 0x40 MLOAD DUP1 SWAP2 SUB SWAP1 RETURN JUMPDEST PUSH2 0x215 PUSH2 0x3B7 JUMP JUMPDEST PUSH1 0x40 MLOAD PUSH2 0x222 SWAP2 SWAP1 PUSH2 0xD9E JUMP JUMPDEST PUSH1 0x40 MLOAD DUP1 SWAP2 SUB SWAP1 RETURN JUMPDEST PUSH2 0x245 PUSH1 0x4 DUP1 CALLDATASIZE SUB DUP2 ADD SWAP1 PUSH2 0x240 SWAP2 SWAP1 PUSH2 0xCCF JUMP JUMPDEST PUSH2 0x3E0 JUMP JUMPDEST STOP JUMPDEST PUSH2 0x24F PUSH2 0x3F2 JUMP JUMPDEST PUSH1 0x40 MLOAD PUSH2 0x25C SWAP2 SWAP1 PUSH2 0xD0B JUMP JUMPDEST PUSH1 0x40 MLOAD DUP1 SWAP2 SUB SWAP1 RETURN JUMPDEST PUSH2 0x27F PUSH1 0x4 DUP1 CALLDATASIZE SUB DUP2 ADD SWAP1 PUSH2 0x27A SWAP2 SWAP1 PUSH2 0xDE5 JUMP JUMPDEST PUSH2 0x3FC JUMP JUMPDEST STOP JUMPDEST PUSH2 0x289 PUSH2 0x422 JUMP JUMPDEST PUSH1 0x40 MLOAD PUSH2 0x296 SWAP2 SWAP1 PUSH2 0xD0B JUMP JUMPDEST PUSH1 0x40 MLOAD DUP1 SWAP2 SUB SWAP1 RETURN JUMPDEST PUSH2 0x2B9 PUSH1 0x4 DUP1 CALLDATASIZE SUB DUP2 ADD SWAP1 PUSH2 0x2B4 SWAP2 SWAP1 PUSH2 0xCCF JUMP JUMPDEST PUSH2 0x42C JUMP JUMPDEST STOP JUMPDEST PUSH2 0x2D5 PUSH1 0x4 DUP1 CALLDATASIZE SUB DUP2 ADD SWAP1 PUSH2 0x2D0 SWAP2 SWAP1 PUSH2 0xE12 JUMP JUMPDEST PUSH2 0x43E JUMP JUMPDEST PUSH1 0x40 MLOAD PUSH2 0x2E4 SWAP4 SWAP3 SWAP2 SWAP1 PUSH2 0xE52 JUMP JUMPDEST PUSH1 0x40 MLOAD DUP1 SWAP2 SUB SWAP1 RETURN JUMPDEST PUSH2 0x2F5 PUSH2 0x860 JUMP JUMPDEST PUSH1 0x40 MLOAD PUSH2 0x302 SWAP2 SWAP1 PUSH2 0xD0B JUMP JUMPDEST PUSH1 0x40 MLOAD DUP1 SWAP2 SUB SWAP1 RETURN JUMPDEST PUSH2 0x325 PUSH1 0x4 DUP1 CALLDATASIZE SUB DUP2 ADD SWAP1 PUSH2 0x320 SWAP2 SWAP1 PUSH2 0xEB5 JUMP JUMPDEST PUSH2 0x86A JUMP JUMPDEST STOP JUMPDEST PUSH2 0x32F PUSH2 0x8ED JUMP JUMPDEST DUP1 PUSH1 0x1 DUP2 SWAP1 SSTORE POP POP JUMP JUMPDEST PUSH2 0x341 PUSH2 0x8ED JUMP JUMPDEST DUP1 PUSH1 0x2 DUP2 SWAP1 SSTORE POP POP JUMP JUMPDEST PUSH2 0x353 PUSH2 0x8ED JUMP JUMPDEST DUP1 PUSH1 0x6 DUP2 SWAP1 SSTORE POP POP JUMP JUMPDEST PUSH2 0x365 PUSH2 0x8ED JUMP JUMPDEST DUP1 PUSH1 0x4 DUP2 SWAP1 SSTORE POP POP JUMP JUMPDEST PUSH1 0x0 PUSH1 0x3 SLOAD SWAP1 POP SWAP1 JUMP JUMPDEST PUSH1 0x0 DUP1 PUSH1 0x14 SWAP1 SLOAD SWAP1 PUSH2 0x100 EXP SWAP1 DIV PUSH1 0xFF AND SWAP1 POP SWAP1 JUMP JUMPDEST PUSH1 0x0 PUSH1 0x4 SLOAD SWAP1 POP SWAP1 JUMP JUMPDEST PUSH2 0x3A1 PUSH2 0x8ED JUMP JUMPDEST PUSH2 0x3AB PUSH1 0x0 PUSH2 0x96B JUMP JUMPDEST JUMP JUMPDEST PUSH1 0x0 PUSH1 0x1 SLOAD SWAP1 POP SWAP1 JUMP JUMPDEST PUSH1 0x0 DUP1 PUSH1 0x0 SWAP1 SLOAD SWAP1 PUSH2 0x100 EXP SWAP1 DIV PUSH20 0xFFFFFFFFFFFFFFFFFFFFFFFFFFFFFFFFFFFFFFFF AND SWAP1 POP SWAP1 JUMP JUMPDEST PUSH2 0x3E8 PUSH2 0x8ED JUMP JUMPDEST DUP1 PUSH1 0x3 DUP2 SWAP1 SSTORE POP POP JUMP JUMPDEST PUSH1 0x0 PUSH1 0x6 SLOAD SWAP1 POP SWAP1 JUMP JUMPDEST PUSH2 0x404 PUSH2 0x8ED JUMP JUMPDEST DUP1 PUSH1 0x0 PUSH1 0x14 PUSH2 0x100 EXP DUP2 SLOAD DUP2 PUSH1 0xFF MUL NOT AND SWAP1 DUP4 PUSH1 0xFF AND MUL OR SWAP1 SSTORE POP POP JUMP JUMPDEST PUSH1 0x0 PUSH1 0x2 SLOAD SWAP1 POP SWAP1 JUMP JUMPDEST PUSH2 0x434 PUSH2 0x8ED JUMP JUMPDEST DUP1 PUSH1 0x5 DUP2 SWAP1 SSTORE POP POP JUMP JUMPDEST PUSH1 0x0 DUP1 PUSH1 0x0 DUP1 PUSH1 0x0 PUSH1 0x14 SWAP1 SLOAD SWAP1 PUSH2 0x100 EXP SWAP1 DIV PUSH1 0xFF AND PUSH1 0xFF AND EQ PUSH2 0x51D JUMPI PUSH1 0x0 PUSH1 0x14 SWAP1 SLOAD SWAP1 PUSH2 0x100 EXP SWAP1 DIV PUSH1 0xFF AND PUSH1 0xFF AND PUSH2 0x478 DUP7 PUSH2 0xA2F JUMP JUMPDEST PUSH1 0xFF AND LT ISZERO PUSH2 0x4BC JUMPI PUSH1 0x40 MLOAD PUSH32 0x8C379A000000000000000000000000000000000000000000000000000000000 DUP2 MSTORE PUSH1 0x4 ADD PUSH2 0x4B3 SWAP1 PUSH2 0xF3F JUMP JUMPDEST PUSH1 0x40 MLOAD DUP1 SWAP2 SUB SWAP1 REVERT JUMPDEST PUSH1 0x0 PUSH1 0x14 SWAP1 SLOAD SWAP1 PUSH2 0x100 EXP SWAP1 DIV PUSH1 0xFF AND PUSH1 0xFF AND PUSH2 0x4D8 DUP6 PUSH2 0xA2F JUMP JUMPDEST PUSH1 0xFF AND LT ISZERO PUSH2 0x51C JUMPI PUSH1 0x40 MLOAD PUSH32 0x8C379A000000000000000000000000000000000000000000000000000000000 DUP2 MSTORE PUSH1 0x4 ADD PUSH2 0x513 SWAP1 PUSH2 0xF3F JUMP JUMPDEST PUSH1 0x40 MLOAD DUP1 SWAP2 SUB SWAP1 REVERT JUMPDEST JUMPDEST PUSH1 0x0 TIMESTAMP NUMBER PREVRANDAO DUP9 DUP9 PUSH1 0x1 SLOAD PUSH1 0x40 MLOAD PUSH1 0x20 ADD PUSH2 0x53C SWAP7 SWAP6 SWAP5 SWAP4 SWAP3 SWAP2 SWAP1 PUSH2 0xF80 JUMP JUMPDEST PUSH1 0x40 MLOAD PUSH1 0x20 DUP2 DUP4 SUB SUB DUP2 MSTORE SWAP1 PUSH1 0x40 MSTORE DUP1 MLOAD SWAP1 PUSH1 0x20 ADD KECCAK256 PUSH1 0x0 SHR SWAP1 POP PUSH1 0x0 DUP2 SUB PUSH2 0x59A JUMPI PUSH1 0x40 MLOAD PUSH32 0x8C379A000000000000000000000000000000000000000000000000000000000 DUP2 MSTORE PUSH1 0x4 ADD PUSH2 0x591 SWAP1 PUSH2 0x103C JUMP JUMPDEST PUSH1 0x40 MLOAD DUP1 SWAP2 SUB SWAP1 REVERT JUMPDEST PUSH1 0x1 PUSH1 0x0 DUP2 SLOAD DUP1 SWAP3 SWAP2 SWAP1 PUSH2 0x5AD SWAP1 PUSH2 0x108B JUMP JUMPDEST SWAP2 SWAP1 POP SSTORE POP PUSH1 0x0 PUSH1 0x1 PUSH1 0x2 PUSH2 0x5C1 DUP9 PUSH2 0xA40 JUMP JUMPDEST PUSH2 0x5CA DUP11 PUSH2 0xA40 JUMP JUMPDEST PUSH2 0x5D4 SWAP2 SWAP1 PUSH2 0x10E3 JUMP JUMPDEST PUSH2 0x5DE SWAP2 SWAP1 PUSH2 0x114A JUMP JUMPDEST PUSH2 0x5E8 SWAP2 SWAP1 PUSH2 0x10E3 JUMP JUMPDEST SWAP1 POP PUSH1 0x0 PUSH1 0x9 SWAP1 POP PUSH1 0x0 DUP1 SWAP5 POP DUP9 SWAP7 POP DUP8 SWAP6 POP PUSH1 0x0 JUMPDEST DUP3 DUP2 PUSH1 0xFF AND LT ISZERO PUSH2 0x7C5 JUMPI PUSH1 0x0 PUSH2 0x623 DUP6 PUSH4 0xFFFFFFFF AND PUSH1 0x3 SLOAD PUSH1 0x4 SLOAD PUSH2 0x3E8 PUSH2 0xA50 JUMP JUMPDEST SWAP1 POP PUSH1 0x0 PUSH2 0x669 DUP8 DUP6 DUP1 PUSH2 0x636 SWAP1 PUSH2 0x108B JUMP JUMPDEST SWAP7 POP PUSH1 0x0 PUSH1 0x4 SLOAD PUSH2 0x3E8 PUSH1 0x3 SLOAD PUSH1 0x4 SLOAD PUSH2 0x650 SWAP2 SWAP1 PUSH2 0x117B JUMP JUMPDEST PUSH2 0x65A SWAP2 SWAP1 PUSH2 0x11AF JUMP JUMPDEST PUSH2 0x664 SWAP2 SWAP1 PUSH2 0x11F1 JUMP JUMPDEST PUSH2 0xA8F JUMP JUMPDEST DUP3 LT ISZERO SWAP1 POP PUSH1 0x0 PUSH1 0x1 SWAP1 POP PUSH2 0x68F DUP9 DUP7 DUP1 PUSH2 0x683 SWAP1 PUSH2 0x108B JUMP JUMPDEST SWAP8 POP PUSH1 0x0 PUSH2 0x3E8 PUSH2 0xA8F JUMP JUMPDEST PUSH1 0xA PUSH1 0x2 SLOAD PUSH2 0x69E SWAP2 SWAP1 PUSH2 0x11AF JUMP JUMPDEST LT PUSH2 0x6D5 JUMPI PUSH1 0xFF PUSH2 0x6CD DUP10 DUP8 DUP1 PUSH2 0x6B4 SWAP1 PUSH2 0x108B JUMP JUMPDEST SWAP9 POP PUSH1 0x5 SLOAD PUSH1 0x1 PUSH1 0x6 SLOAD PUSH2 0x6C8 SWAP2 SWAP1 PUSH2 0x1222 JUMP JUMPDEST PUSH2 0xA8F JUMP JUMPDEST AND SWAP1 POP PUSH2 0x717 JUMP JUMPDEST PUSH2 0x1F4 PUSH2 0x6F3 DUP10 DUP8 DUP1 PUSH2 0x6E7 SWAP1 PUSH2 0x108B JUMP JUMPDEST SWAP9 POP PUSH1 0x0 PUSH2 0x3E8 PUSH2 0xA8F JUMP JUMPDEST LT PUSH2 0x709 JUMPI PUSH2 0x702 DUP13 DUP6 PUSH2 0xAEB JUMP JUMPDEST SWAP1 POP PUSH2 0x716 JUMP JUMPDEST PUSH2 0x713 DUP14 DUP6 PUSH2 0xAEB JUMP JUMPDEST SWAP1 POP JUMPDEST JUMPDEST PUSH1 0x5 SLOAD DUP2 PUSH1 0xFF AND LT ISZERO DUP1 ISZERO PUSH2 0x731 JUMPI POP PUSH1 0x6 SLOAD DUP2 PUSH1 0xFF AND GT ISZERO JUMPDEST PUSH2 0x770 JUMPI PUSH1 0x40 MLOAD PUSH32 0x8C379A000000000000000000000000000000000000000000000000000000000 DUP2 MSTORE PUSH1 0x4 ADD PUSH2 0x767 SWAP1 PUSH2 0x12C8 JUMP JUMPDEST PUSH1 0x40 MLOAD DUP1 SWAP2 SUB SWAP1 REVERT JUMPDEST PUSH2 0x77E DUP10 DUP6 PUSH1 0xFF AND DUP4 PUSH2 0xB3A JUMP JUMPDEST SWAP9 POP PUSH2 0x78F DUP10 DUP6 PUSH1 0xFF AND PUSH1 0x1 PUSH2 0xB99 JUMP JUMPDEST SWAP9 POP PUSH2 0x7AD DUP10 DUP6 PUSH1 0xFF AND DUP5 PUSH2 0x7A5 JUMPI PUSH1 0x0 PUSH2 0x7A8 JUMP JUMPDEST PUSH1 0x1 JUMPDEST PUSH2 0xBF8 JUMP JUMPDEST SWAP9 POP POP POP POP DUP1 DUP1 PUSH2 0x7BD SWAP1 PUSH2 0x12E8 JUMP JUMPDEST SWAP2 POP POP PUSH2 0x5FE JUMP JUMPDEST POP PUSH1 0x0 DUP1 PUSH1 0x14 SWAP1 SLOAD SWAP1 PUSH2 0x100 EXP SWAP1 DIV PUSH1 0xFF AND PUSH1 0xFF AND EQ PUSH2 0x83C JUMPI PUSH2 0x80B DUP10 PUSH1 0x0 PUSH1 0x14 SWAP1 SLOAD SWAP1 PUSH2 0x100 EXP SWAP1 DIV PUSH1 0xFF AND PUSH2 0x7FC DUP13 PUSH2 0xA2F JUMP JUMPDEST PUSH2 0x806 SWAP2 SWAP1 PUSH2 0x1311 JUMP JUMPDEST PUSH2 0xC57 JUMP JUMPDEST SWAP7 POP PUSH2 0x839 DUP9 PUSH1 0x0 PUSH1 0x14 SWAP1 SLOAD SWAP1 PUSH2 0x100 EXP SWAP1 DIV PUSH1 0xFF AND PUSH2 0x82A DUP12 PUSH2 0xA2F JUMP JUMPDEST PUSH2 0x834 SWAP2 SWAP1 PUSH2 0x1311 JUMP JUMPDEST PUSH2 0xC57 JUMP JUMPDEST SWAP6 POP JUMPDEST PUSH2 0x846 DUP6 DUP5 PUSH2 0xC72 JUMP JUMPDEST SWAP5 POP PUSH2 0x853 DUP6 PUSH1 0x1 PUSH2 0xC57 JUMP JUMPDEST SWAP5 POP POP POP POP POP SWAP3 POP SWAP3 POP SWAP3 JUMP JUMPDEST PUSH1 0x0 PUSH1 0x5 SLOAD SWAP1 POP SWAP1 JUMP JUMPDEST PUSH2 0x872 PUSH2 0x8ED JUMP JUMPDEST PUSH1 0x0 PUSH20 0xFFFFFFFFFFFFFFFFFFFFFFFFFFFFFFFFFFFFFFFF AND DUP2 PUSH20 0xFFFFFFFFFFFFFFFFFFFFFFFFFFFFFFFFFFFFFFFF AND SUB PUSH2 0x8E1 JUMPI PUSH1 0x40 MLOAD PUSH32 0x8C379A000000000000000000000000000000000000000000000000000000000 DUP2 MSTORE PUSH1 0x4 ADD PUSH2 0x8D8 SWAP1 PUSH2 0x13B8 JUMP JUMPDEST PUSH1 0x40 MLOAD DUP1 SWAP2 SUB SWAP1 REVERT JUMPDEST PUSH2 0x8EA DUP2 PUSH2 0x96B JUMP JUMPDEST POP JUMP JUMPDEST PUSH2 0x8F5 PUSH2 0xC8C JUMP JUMPDEST PUSH20 0xFFFFFFFFFFFFFFFFFFFFFFFFFFFFFFFFFFFFFFFF AND PUSH2 0x913 PUSH2 0x3B7 JUMP JUMPDEST PUSH20 0xFFFFFFFFFFFFFFFFFFFFFFFFFFFFFFFFFFFFFFFF AND EQ PUSH2 0x969 JUMPI PUSH1 0x40 MLOAD PUSH32 0x8C379A000000000000000000000000000000000000000000000000000000000 DUP2 MSTORE PUSH1 0x4 ADD PUSH2 0x960 SWAP1 PUSH2 0x1424 JUMP JUMPDEST PUSH1 0x40 MLOAD DUP1 SWAP2 SUB SWAP1 REVERT JUMPDEST JUMP JUMPDEST PUSH1 0x0 DUP1 PUSH1 0x0 SWAP1 SLOAD SWAP1 PUSH2 0x100 EXP SWAP1 DIV PUSH20 0xFFFFFFFFFFFFFFFFFFFFFFFFFFFFFFFFFFFFFFFF AND SWAP1 POP DUP2 PUSH1 0x0 DUP1 PUSH2 0x100 EXP DUP2 SLOAD DUP2 PUSH20 0xFFFFFFFFFFFFFFFFFFFFFFFFFFFFFFFFFFFFFFFF MUL NOT AND SWAP1 DUP4 PUSH20 0xFFFFFFFFFFFFFFFFFFFFFFFFFFFFFFFFFFFFFFFF AND MUL OR SWAP1 SSTORE POP DUP2 PUSH20 0xFFFFFFFFFFFFFFFFFFFFFFFFFFFFFFFFFFFFFFFF AND DUP2 PUSH20 0xFFFFFFFFFFFFFFFFFFFFFFFFFFFFFFFFFFFFFFFF AND PUSH32 0x8BE0079C531659141344CD1FD0A4F28419497F9722A3DAAFE3B4186F6B6457E0 PUSH1 0x40 MLOAD PUSH1 0x40 MLOAD DUP1 SWAP2 SUB SWAP1 LOG3 POP POP JUMP JUMPDEST PUSH1 0x0 PUSH1 0xFF PUSH1 0xF8 DUP4 SWAP1 SHR AND SWAP1 POP SWAP2 SWAP1 POP JUMP JUMPDEST PUSH1 0x0 PUSH4 0xFFFFFFFF DUP3 AND SWAP1 POP SWAP2 SWAP1 POP JUMP JUMPDEST PUSH1 0x0 DUP4 DUP6 GT PUSH2 0xA62 JUMPI PUSH1 0x0 SWAP1 POP PUSH2 0xA87 JUMP JUMPDEST DUP3 DUP3 DUP6 DUP8 PUSH2 0xA70 SWAP2 SWAP1 PUSH2 0x117B JUMP JUMPDEST PUSH2 0xA7A SWAP2 SWAP1 PUSH2 0x11AF JUMP JUMPDEST PUSH2 0xA84 SWAP2 SWAP1 PUSH2 0x11F1 JUMP JUMPDEST SWAP1 POP JUMPDEST SWAP5 SWAP4 POP POP POP POP JUMP JUMPDEST PUSH1 0x0 DUP3 DUP3 PUSH2 0xA9D SWAP2 SWAP1 PUSH2 0x117B JUMP JUMPDEST DUP6 DUP6 PUSH1 0x40 MLOAD PUSH1 0x20 ADD PUSH2 0xAB0 SWAP3 SWAP2 SWAP1 PUSH2 0x1444 JUMP JUMPDEST PUSH1 0x40 MLOAD PUSH1 0x20 DUP2 DUP4 SUB SUB DUP2 MSTORE SWAP1 PUSH1 0x40 MSTORE DUP1 MLOAD SWAP1 PUSH1 0x20 ADD KECCAK256 PUSH1 0x0 SHR PUSH2 0xAD3 SWAP2 SWAP1 PUSH2 0x1470 JUMP JUMPDEST SWAP1 POP DUP1 DUP4 PUSH2 0xAE1 SWAP2 SWAP1 PUSH2 0x1222 JUMP JUMPDEST SWAP1 POP SWAP5 SWAP4 POP POP POP POP JUMP JUMPDEST PUSH1 0x0 DUP1 PUSH1 0x4 SWAP1 POP PUSH1 0x0 PUSH1 0x3 DUP5 PUSH2 0xB01 SWAP2 SWAP1 PUSH2 0x14A1 JUMP JUMPDEST PUSH1 0xFF AND SWAP1 POP PUSH1 0xFF PUSH1 0x8 PUSH1 0x0 DUP4 DUP6 PUSH2 0xB18 SWAP2 SWAP1 PUSH2 0x1222 JUMP JUMPDEST PUSH2 0xB22 SWAP2 SWAP1 PUSH2 0x1222 JUMP JUMPDEST PUSH2 0xB2C SWAP2 SWAP1 PUSH2 0x11AF JUMP JUMPDEST DUP7 SWAP1 SHR AND SWAP3 POP POP POP SWAP3 SWAP2 POP POP JUMP JUMPDEST PUSH1 0x0 DUP1 PUSH1 0x4 SWAP1 POP PUSH1 0x0 PUSH1 0x3 DUP6 PUSH2 0xB50 SWAP2 SWAP1 PUSH2 0x11AF JUMP JUMPDEST SWAP1 POP PUSH1 0x0 PUSH1 0x8 PUSH1 0x0 DUP4 DUP6 PUSH2 0xB64 SWAP2 SWAP1 PUSH2 0x1222 JUMP JUMPDEST PUSH2 0xB6E SWAP2 SWAP1 PUSH2 0x1222 JUMP JUMPDEST PUSH2 0xB78 SWAP2 SWAP1 PUSH2 0x11AF JUMP JUMPDEST SWAP1 POP DUP1 PUSH1 0xFF SWAP1 SHL NOT DUP8 AND SWAP7 POP DUP1 DUP6 PUSH1 0xFF AND SWAP1 SHL DUP8 OR SWAP4 POP POP POP POP SWAP4 SWAP3 POP POP POP JUMP JUMPDEST PUSH1 0x0 DUP1 PUSH1 0x4 SWAP1 POP PUSH1 0x0 PUSH1 0x3 DUP6 PUSH2 0xBAF SWAP2 SWAP1 PUSH2 0x11AF JUMP JUMPDEST SWAP1 POP PUSH1 0x0 PUSH1 0x8 PUSH1 0x1 DUP4 DUP6 PUSH2 0xBC3 SWAP2 SWAP1 PUSH2 0x1222 JUMP JUMPDEST PUSH2 0xBCD SWAP2 SWAP1 PUSH2 0x1222 JUMP JUMPDEST PUSH2 0xBD7 SWAP2 SWAP1 PUSH2 0x11AF JUMP JUMPDEST SWAP1 POP DUP1 PUSH1 0xFF SWAP1 SHL NOT DUP8 AND SWAP7 POP DUP1 DUP6 PUSH1 0xFF AND SWAP1 SHL DUP8 OR SWAP4 POP POP POP POP SWAP4 SWAP3 POP POP POP JUMP JUMPDEST PUSH1 0x0 DUP1 PUSH1 0x4 SWAP1 POP PUSH1 0x0 PUSH1 0x3 DUP6 PUSH2 0xC0E SWAP2 SWAP1 PUSH2 0x11AF JUMP JUMPDEST SWAP1 POP PUSH1 0x0 PUSH1 0x8 PUSH1 0x2 DUP4 DUP6 PUSH2 0xC22 SWAP2 SWAP1 PUSH2 0x1222 JUMP JUMPDEST PUSH2 0xC2C SWAP2 SWAP1 PUSH2 0x1222 JUMP JUMPDEST PUSH2 0xC36 SWAP2 SWAP1 PUSH2 0x11AF JUMP JUMPDEST SWAP1 POP DUP1 PUSH1 0xFF SWAP1 SHL NOT DUP8 AND SWAP7 POP DUP1 DUP6 PUSH1 0xFF AND SWAP1 SHL DUP8 OR SWAP4 POP POP POP POP SWAP4 SWAP3 POP POP POP JUMP JUMPDEST PUSH1 0x0 PUSH1 0xF8 DUP3 PUSH1 0xFF AND SWAP1 SHL PUSH1 0x8 DUP1 DUP6 SWAP1 SHL SWAP1 SHR OR SWAP1 POP SWAP3 SWAP2 POP POP JUMP JUMPDEST PUSH1 0x0 DUP2 PUSH4 0xFFFFFFFF AND PUSH1 0x4 DUP1 DUP6 SWAP1 SHR SWAP1 SHL OR SWAP1 POP SWAP3 SWAP2 POP POP JUMP JUMPDEST PUSH1 0x0 CALLER SWAP1 POP SWAP1 JUMP JUMPDEST PUSH1 0x0 DUP1 REVERT JUMPDEST PUSH1 0x0 DUP2 SWAP1 POP SWAP2 SWAP1 POP JUMP JUMPDEST PUSH2 0xCAC DUP2 PUSH2 0xC99 JUMP JUMPDEST DUP2 EQ PUSH2 0xCB7 JUMPI PUSH1 0x0 DUP1 REVERT JUMPDEST POP JUMP JUMPDEST PUSH1 0x0 DUP2 CALLDATALOAD SWAP1 POP PUSH2 0xCC9 DUP2 PUSH2 0xCA3 JUMP JUMPDEST SWAP3 SWAP2 POP POP JUMP JUMPDEST PUSH1 0x0 PUSH1 0x20 DUP3 DUP5 SUB SLT ISZERO PUSH2 0xCE5 JUMPI PUSH2 0xCE4 PUSH2 0xC94 JUMP JUMPDEST JUMPDEST PUSH1 0x0 PUSH2 0xCF3 DUP5 DUP3 DUP6 ADD PUSH2 0xCBA JUMP JUMPDEST SWAP2 POP POP SWAP3 SWAP2 POP POP JUMP JUMPDEST PUSH2 0xD05 DUP2 PUSH2 0xC99 JUMP JUMPDEST DUP3 MSTORE POP POP JUMP JUMPDEST PUSH1 0x0 PUSH1 0x20 DUP3 ADD SWAP1 POP PUSH2 0xD20 PUSH1 0x0 DUP4 ADD DUP5 PUSH2 0xCFC JUMP JUMPDEST SWAP3 SWAP2 POP POP JUMP JUMPDEST PUSH1 0x0 PUSH1 0xFF DUP3 AND SWAP1 POP SWAP2 SWAP1 POP JUMP JUMPDEST PUSH2 0xD3C DUP2 PUSH2 0xD26 JUMP JUMPDEST DUP3 MSTORE POP POP JUMP JUMPDEST PUSH1 0x0 PUSH1 0x20 DUP3 ADD SWAP1 POP PUSH2 0xD57 PUSH1 0x0 DUP4 ADD DUP5 PUSH2 0xD33 JUMP JUMPDEST SWAP3 SWAP2 POP POP JUMP JUMPDEST PUSH1 0x0 PUSH20 0xFFFFFFFFFFFFFFFFFFFFFFFFFFFFFFFFFFFFFFFF DUP3 AND SWAP1 POP SWAP2 SWAP1 POP JUMP JUMPDEST PUSH1 0x0 PUSH2 0xD88 DUP3 PUSH2 0xD5D JUMP JUMPDEST SWAP1 POP SWAP2 SWAP1 POP JUMP JUMPDEST PUSH2 0xD98 DUP2 PUSH2 0xD7D JUMP JUMPDEST DUP3 MSTORE POP POP JUMP JUMPDEST PUSH1 0x0 PUSH1 0x20 DUP3 ADD SWAP1 POP PUSH2 0xDB3 PUSH1 0x0 DUP4 ADD DUP5 PUSH2 0xD8F JUMP JUMPDEST SWAP3 SWAP2 POP POP JUMP JUMPDEST PUSH2 0xDC2 DUP2 PUSH2 0xD26 JUMP JUMPDEST DUP2 EQ PUSH2 0xDCD JUMPI PUSH1 0x0 DUP1 REVERT JUMPDEST POP JUMP JUMPDEST PUSH1 0x0 DUP2 CALLDATALOAD SWAP1 POP PUSH2 0xDDF DUP2 PUSH2 0xDB9 JUMP JUMPDEST SWAP3 SWAP2 POP POP JUMP JUMPDEST PUSH1 0x0 PUSH1 0x20 DUP3 DUP5 SUB SLT ISZERO PUSH2 0xDFB JUMPI PUSH2 0xDFA PUSH2 0xC94 JUMP JUMPDEST JUMPDEST PUSH1 0x0 PUSH2 0xE09 DUP5 DUP3 DUP6 ADD PUSH2 0xDD0 JUMP JUMPDEST SWAP2 POP POP SWAP3 SWAP2 POP POP JUMP JUMPDEST PUSH1 0x0 DUP1 PUSH1 0x40 DUP4 DUP6 SUB SLT ISZERO PUSH2 0xE29 JUMPI PUSH2 0xE28 PUSH2 0xC94 JUMP JUMPDEST JUMPDEST PUSH1 0x0 PUSH2 0xE37 DUP6 DUP3 DUP7 ADD PUSH2 0xCBA JUMP JUMPDEST SWAP3 POP POP PUSH1 0x20 PUSH2 0xE48 DUP6 DUP3 DUP7 ADD PUSH2 0xCBA JUMP JUMPDEST SWAP2 POP POP SWAP3 POP SWAP3 SWAP1 POP JUMP JUMPDEST PUSH1 0x0 PUSH1 0x60 DUP3 ADD SWAP1 POP PUSH2 0xE67 PUSH1 0x0 DUP4 ADD DUP7 PUSH2 0xCFC JUMP JUMPDEST PUSH2 0xE74 PUSH1 0x20 DUP4 ADD DUP6 PUSH2 0xCFC JUMP JUMPDEST PUSH2 0xE81 PUSH1 0x40 DUP4 ADD DUP5 PUSH2 0xCFC JUMP JUMPDEST SWAP5 SWAP4 POP POP POP POP JUMP JUMPDEST PUSH2 0xE92 DUP2 PUSH2 0xD7D JUMP JUMPDEST DUP2 EQ PUSH2 0xE9D JUMPI PUSH1 0x0 DUP1 REVERT JUMPDEST POP JUMP JUMPDEST PUSH1 0x0 DUP2 CALLDATALOAD SWAP1 POP PUSH2 0xEAF DUP2 PUSH2 0xE89 JUMP JUMPDEST SWAP3 SWAP2 POP POP JUMP JUMPDEST PUSH1 0x0 PUSH1 0x20 DUP3 DUP5 SUB SLT ISZERO PUSH2 0xECB JUMPI PUSH2 0xECA PUSH2 0xC94 JUMP JUMPDEST JUMPDEST PUSH1 0x0 PUSH2 0xED9 DUP5 DUP3 DUP6 ADD PUSH2 0xEA0 JUMP JUMPDEST SWAP2 POP POP SWAP3 SWAP2 POP POP JUMP JUMPDEST PUSH1 0x0 DUP3 DUP3 MSTORE PUSH1 0x20 DUP3 ADD SWAP1 POP SWAP3 SWAP2 POP POP JUMP JUMPDEST PUSH32 0x696E73756666696369656E742063686172676500000000000000000000000000 PUSH1 0x0 DUP3 ADD MSTORE POP JUMP JUMPDEST PUSH1 0x0 PUSH2 0xF29 PUSH1 0x13 DUP4 PUSH2 0xEE2 JUMP JUMPDEST SWAP2 POP PUSH2 0xF34 DUP3 PUSH2 0xEF3 JUMP JUMPDEST PUSH1 0x20 DUP3 ADD SWAP1 POP SWAP2 SWAP1 POP JUMP JUMPDEST PUSH1 0x0 PUSH1 0x20 DUP3 ADD SWAP1 POP DUP2 DUP2 SUB PUSH1 0x0 DUP4 ADD MSTORE PUSH2 0xF58 DUP2 PUSH2 0xF1C JUMP JUMPDEST SWAP1 POP SWAP2 SWAP1 POP JUMP JUMPDEST PUSH1 0x0 DUP2 SWAP1 POP SWAP2 SWAP1 POP JUMP JUMPDEST PUSH2 0xF7A PUSH2 0xF75 DUP3 PUSH2 0xC99 JUMP JUMPDEST PUSH2 0xF5F JUMP JUMPDEST DUP3 MSTORE POP POP JUMP JUMPDEST PUSH1 0x0 PUSH2 0xF8C DUP3 DUP10 PUSH2 0xF69 JUMP JUMPDEST PUSH1 0x20 DUP3 ADD SWAP2 POP PUSH2 0xF9C DUP3 DUP9 PUSH2 0xF69 JUMP JUMPDEST PUSH1 0x20 DUP3 ADD SWAP2 POP PUSH2 0xFAC DUP3 DUP8 PUSH2 0xF69 JUMP JUMPDEST PUSH1 0x20 DUP3 ADD SWAP2 POP PUSH2 0xFBC DUP3 DUP7 PUSH2 0xF69 JUMP JUMPDEST PUSH1 0x20 DUP3 ADD SWAP2 POP PUSH2 0xFCC DUP3 DUP6 PUSH2 0xF69 JUMP JUMPDEST PUSH1 0x20 DUP3 ADD SWAP2 POP PUSH2 0xFDC DUP3 DUP5 PUSH2 0xF69 JUMP JUMPDEST PUSH1 0x20 DUP3 ADD SWAP2 POP DUP2 SWAP1 POP SWAP8 SWAP7 POP POP POP POP POP POP POP JUMP JUMPDEST PUSH32 0x72616E646F6D536565642063616E277420626520300000000000000000000000 PUSH1 0x0 DUP3 ADD MSTORE POP JUMP JUMPDEST PUSH1 0x0 PUSH2 0x1026 PUSH1 0x15 DUP4 PUSH2 0xEE2 JUMP JUMPDEST SWAP2 POP PUSH2 0x1031 DUP3 PUSH2 0xFF0 JUMP JUMPDEST PUSH1 0x20 DUP3 ADD SWAP1 POP SWAP2 SWAP1 POP JUMP JUMPDEST PUSH1 0x0 PUSH1 0x20 DUP3 ADD SWAP1 POP DUP2 DUP2 SUB PUSH1 0x0 DUP4 ADD MSTORE PUSH2 0x1055 DUP2 PUSH2 0x1019 JUMP JUMPDEST SWAP1 POP SWAP2 SWAP1 POP JUMP JUMPDEST PUSH32 0x4E487B7100000000000000000000000000000000000000000000000000000000 PUSH1 0x0 MSTORE PUSH1 0x11 PUSH1 0x4 MSTORE PUSH1 0x24 PUSH1 0x0 REVERT JUMPDEST PUSH1 0x0 PUSH2 0x1096 DUP3 PUSH2 0xC99 JUMP JUMPDEST SWAP2 POP PUSH32 0xFFFFFFFFFFFFFFFFFFFFFFFFFFFFFFFFFFFFFFFFFFFFFFFFFFFFFFFFFFFFFFFF DUP3 SUB PUSH2 0x10C8 JUMPI PUSH2 0x10C7 PUSH2 0x105C JUMP JUMPDEST JUMPDEST PUSH1 0x1 DUP3 ADD SWAP1 POP SWAP2 SWAP1 POP JUMP JUMPDEST PUSH1 0x0 PUSH4 0xFFFFFFFF DUP3 AND SWAP1 POP SWAP2 SWAP1 POP JUMP JUMPDEST PUSH1 0x0 PUSH2 0x10EE DUP3 PUSH2 0x10D3 JUMP JUMPDEST SWAP2 POP PUSH2 0x10F9 DUP4 PUSH2 0x10D3 JUMP JUMPDEST SWAP3 POP DUP3 DUP3 ADD SWAP1 POP PUSH4 0xFFFFFFFF DUP2 GT ISZERO PUSH2 0x1115 JUMPI PUSH2 0x1114 PUSH2 0x105C JUMP JUMPDEST JUMPDEST SWAP3 SWAP2 POP POP JUMP JUMPDEST PUSH32 0x4E487B7100000000000000000000000000000000000000000000000000000000 PUSH1 0x0 MSTORE PUSH1 0x12 PUSH1 0x4 MSTORE PUSH1 0x24 PUSH1 0x0 REVERT JUMPDEST PUSH1 0x0 PUSH2 0x1155 DUP3 PUSH2 0x10D3 JUMP JUMPDEST SWAP2 POP PUSH2 0x1160 DUP4 PUSH2 0x10D3 JUMP JUMPDEST SWAP3 POP DUP3 PUSH2 0x1170 JUMPI PUSH2 0x116F PUSH2 0x111B JUMP JUMPDEST JUMPDEST DUP3 DUP3 DIV SWAP1 POP SWAP3 SWAP2 POP POP JUMP JUMPDEST PUSH1 0x0 PUSH2 0x1186 DUP3 PUSH2 0xC99 JUMP JUMPDEST SWAP2 POP PUSH2 0x1191 DUP4 PUSH2 0xC99 JUMP JUMPDEST SWAP3 POP DUP3 DUP3 SUB SWAP1 POP DUP2 DUP2 GT ISZERO PUSH2 0x11A9 JUMPI PUSH2 0x11A8 PUSH2 0x105C JUMP JUMPDEST JUMPDEST SWAP3 SWAP2 POP POP JUMP JUMPDEST PUSH1 0x0 PUSH2 0x11BA DUP3 PUSH2 0xC99 JUMP JUMPDEST SWAP2 POP PUSH2 0x11C5 DUP4 PUSH2 0xC99 JUMP JUMPDEST SWAP3 POP DUP3 DUP3 MUL PUSH2 0x11D3 DUP2 PUSH2 0xC99 JUMP JUMPDEST SWAP2 POP DUP3 DUP3 DIV DUP5 EQ DUP4 ISZERO OR PUSH2 0x11EA JUMPI PUSH2 0x11E9 PUSH2 0x105C JUMP JUMPDEST JUMPDEST POP SWAP3 SWAP2 POP POP JUMP JUMPDEST PUSH1 0x0 PUSH2 0x11FC DUP3 PUSH2 0xC99 JUMP JUMPDEST SWAP2 POP PUSH2 0x1207 DUP4 PUSH2 0xC99 JUMP JUMPDEST SWAP3 POP DUP3 PUSH2 0x1217 JUMPI PUSH2 0x1216 PUSH2 0x111B JUMP JUMPDEST JUMPDEST DUP3 DUP3 DIV SWAP1 POP SWAP3 SWAP2 POP POP JUMP JUMPDEST PUSH1 0x0 PUSH2 0x122D DUP3 PUSH2 0xC99 JUMP JUMPDEST SWAP2 POP PUSH2 0x1238 DUP4 PUSH2 0xC99 JUMP JUMPDEST SWAP3 POP DUP3 DUP3 ADD SWAP1 POP DUP1 DUP3 GT ISZERO PUSH2 0x1250 JUMPI PUSH2 0x124F PUSH2 0x105C JUMP JUMPDEST JUMPDEST SWAP3 SWAP2 POP POP JUMP JUMPDEST PUSH32 0x6572726F722C206272656164696E672C2070617274206964206D757374206265 PUSH1 0x0 DUP3 ADD MSTORE PUSH32 0x20696E2072616E67650000000000000000000000000000000000000000000000 PUSH1 0x20 DUP3 ADD MSTORE POP JUMP JUMPDEST PUSH1 0x0 PUSH2 0x12B2 PUSH1 0x29 DUP4 PUSH2 0xEE2 JUMP JUMPDEST SWAP2 POP PUSH2 0x12BD DUP3 PUSH2 0x1256 JUMP JUMPDEST PUSH1 0x40 DUP3 ADD SWAP1 POP SWAP2 SWAP1 POP JUMP JUMPDEST PUSH1 0x0 PUSH1 0x20 DUP3 ADD SWAP1 POP DUP2 DUP2 SUB PUSH1 0x0 DUP4 ADD MSTORE PUSH2 0x12E1 DUP2 PUSH2 0x12A5 JUMP JUMPDEST SWAP1 POP SWAP2 SWAP1 POP JUMP JUMPDEST PUSH1 0x0 PUSH2 0x12F3 DUP3 PUSH2 0xD26 JUMP JUMPDEST SWAP2 POP PUSH1 0xFF DUP3 SUB PUSH2 0x1306 JUMPI PUSH2 0x1305 PUSH2 0x105C JUMP JUMPDEST JUMPDEST PUSH1 0x1 DUP3 ADD SWAP1 POP SWAP2 SWAP1 POP JUMP JUMPDEST PUSH1 0x0 PUSH2 0x131C DUP3 PUSH2 0xD26 JUMP JUMPDEST SWAP2 POP PUSH2 0x1327 DUP4 PUSH2 0xD26 JUMP JUMPDEST SWAP3 POP DUP3 DUP3 SUB SWAP1 POP PUSH1 0xFF DUP2 GT ISZERO PUSH2 0x1340 JUMPI PUSH2 0x133F PUSH2 0x105C JUMP JUMPDEST JUMPDEST SWAP3 SWAP2 POP POP JUMP JUMPDEST PUSH32 0x4F776E61626C653A206E6577206F776E657220697320746865207A65726F2061 PUSH1 0x0 DUP3 ADD MSTORE PUSH32 0x6464726573730000000000000000000000000000000000000000000000000000 PUSH1 0x20 DUP3 ADD MSTORE POP JUMP JUMPDEST PUSH1 0x0 PUSH2 0x13A2 PUSH1 0x26 DUP4 PUSH2 0xEE2 JUMP JUMPDEST SWAP2 POP PUSH2 0x13AD DUP3 PUSH2 0x1346 JUMP JUMPDEST PUSH1 0x40 DUP3 ADD SWAP1 POP SWAP2 SWAP1 POP JUMP JUMPDEST PUSH1 0x0 PUSH1 0x20 DUP3 ADD SWAP1 POP DUP2 DUP2 SUB PUSH1 0x0 DUP4 ADD MSTORE PUSH2 0x13D1 DUP2 PUSH2 0x1395 JUMP JUMPDEST SWAP1 POP SWAP2 SWAP1 POP JUMP JUMPDEST PUSH32 0x4F776E61626C653A2063616C6C6572206973206E6F7420746865206F776E6572 PUSH1 0x0 DUP3 ADD MSTORE POP JUMP JUMPDEST PUSH1 0x0 PUSH2 0x140E PUSH1 0x20 DUP4 PUSH2 0xEE2 JUMP JUMPDEST SWAP2 POP PUSH2 0x1419 DUP3 PUSH2 0x13D8 JUMP JUMPDEST PUSH1 0x20 DUP3 ADD SWAP1 POP SWAP2 SWAP1 POP JUMP JUMPDEST PUSH1 0x0 PUSH1 0x20 DUP3 ADD SWAP1 POP DUP2 DUP2 SUB PUSH1 0x0 DUP4 ADD MSTORE PUSH2 0x143D DUP2 PUSH2 0x1401 JUMP JUMPDEST SWAP1 POP SWAP2 SWAP1 POP JUMP JUMPDEST PUSH1 0x0 PUSH2 0x1450 DUP3 DUP6 PUSH2 0xF69 JUMP JUMPDEST PUSH1 0x20 DUP3 ADD SWAP2 POP PUSH2 0x1460 DUP3 DUP5 PUSH2 0xF69 JUMP JUMPDEST PUSH1 0x20 DUP3 ADD SWAP2 POP DUP2 SWAP1 POP SWAP4 SWAP3 POP POP POP JUMP JUMPDEST PUSH1 0x0 PUSH2 0x147B DUP3 PUSH2 0xC99 JUMP JUMPDEST SWAP2 POP PUSH2 0x1486 DUP4 PUSH2 0xC99 JUMP JUMPDEST SWAP3 POP DUP3 PUSH2 0x1496 JUMPI PUSH2 0x1495 PUSH2 0x111B JUMP JUMPDEST JUMPDEST DUP3 DUP3 MOD SWAP1 POP SWAP3 SWAP2 POP POP JUMP JUMPDEST PUSH1 0x0 PUSH2 0x14AC DUP3 PUSH2 0xD26 JUMP JUMPDEST SWAP2 POP PUSH2 0x14B7 DUP4 PUSH2 0xD26 JUMP JUMPDEST SWAP3 POP DUP3 DUP3 MUL PUSH2 0x14C5 DUP2 PUSH2 0xD26 JUMP JUMPDEST SWAP2 POP DUP1 DUP3 EQ PUSH2 0x14D7 JUMPI PUSH2 0x14D6 PUSH2 0x105C JUMP JUMPDEST JUMPDEST POP SWAP3 SWAP2 POP POP JUMP INVALID LOG2 PUSH5 0x6970667358 0x22 SLT KECCAK256 0xB7 DUP2 0xF9 0xF7 SAR PUSH26 0x3F5A33C9374F369BDBCE50DDA86A24F96CABFB17D1E52A69CB9D PUSH5 0x736F6C6343 STOP ADDMOD SGT STOP CALLER "
		},
		"gasEstimates": {
			"creation": {
				"codeDepositCost": "3127000",
				"executionCost": "infinite",
				"totalCost": "infinite"
			},
			"external": {
				"approve(address,uint256)": "infinite",
				"balanceOf(address)": "2943",
				"breeding(uint256,uint256)": "infinite",
				"burn(uint256)": "infinite",
				"charge(uint256,uint8)": "infinite",
				"getApproved(uint256)": "5323",
				"getBreedingContract()": "2633",
				"getMaxId()": "2504",
				"getMinId()": "2503",
				"getToken(uint256)": "infinite",
				"isApprovedForAll(address,address)": "infinite",
				"mint(uint256)": "infinite",
				"name()": "infinite",
				"owner()": "2640",
				"ownerOf(uint256)": "3044",
				"pause()": "infinite",
				"paused()": "2591",
				"renounceOwnership()": "30637",
				"safeTransferFrom(address,address,uint256)": "infinite",
				"safeTransferFrom(address,address,uint256,bytes)": "infinite",
				"setApprovalForAll(address,bool)": "infinite",
				"setBreedingContract(address)": "27082",
				"setMaxId(uint256)": "24880",
				"setMinId(uint256)": "24923",
				"supportsInterface(bytes4)": "820",
				"symbol()": "infinite",
				"tokenURI(uint256)": "infinite",
				"totalSupply()": "2554",
				"transferFrom(address,address,uint256)": "infinite",
				"transferOwnership(address)": "30982",
				"unpause()": "infinite",
				"withdraw()": "infinite"
			},
			"internal": {
				"_baseURI()": "infinite",
				"_beforeTokenTransfer(address,address,uint256,uint256)": "infinite",
				"createToken(uint256,uint256,uint256)": "infinite"
			}
		},
		"methodIdentifiers": {
			"approve(address,uint256)": "095ea7b3",
			"balanceOf(address)": "70a08231",
			"breeding(uint256,uint256)": "fbbe20a9",
			"burn(uint256)": "42966c68",
			"charge(uint256,uint8)": "afa69d49",
			"getApproved(uint256)": "081812fc",
			"getBreedingContract()": "c3b1f0b4",
			"getMaxId()": "d477a712",
			"getMinId()": "eb4b0e51",
			"getToken(uint256)": "e4b50cb8",
			"isApprovedForAll(address,address)": "e985e9c5",
			"mint(uint256)": "a0712d68",
			"name()": "06fdde03",
			"owner()": "8da5cb5b",
			"ownerOf(uint256)": "6352211e",
			"pause()": "8456cb59",
			"paused()": "5c975abb",
			"renounceOwnership()": "715018a6",
			"safeTransferFrom(address,address,uint256)": "42842e0e",
			"safeTransferFrom(address,address,uint256,bytes)": "b88d4fde",
			"setApprovalForAll(address,bool)": "a22cb465",
			"setBreedingContract(address)": "8c5527cf",
			"setMaxId(uint256)": "16bd8646",
			"setMinId(uint256)": "e2e3a0db",
			"supportsInterface(bytes4)": "01ffc9a7",
			"symbol()": "95d89b41",
			"tokenURI(uint256)": "c87b56dd",
			"totalSupply()": "18160ddd",
			"transferFrom(address,address,uint256)": "23b872dd",
			"transferOwnership(address)": "f2fde38b",
			"unpause()": "3f4ba83a",
			"withdraw()": "3ccfd60b"
		}
	},
	"abi": [
		{
			"inputs": [],
			"stateMutability": "nonpayable",
			"type": "constructor"
		},
		{
			"anonymous": false,
			"inputs": [
				{
					"indexed": true,
					"internalType": "address",
					"name": "owner",
					"type": "address"
				},
				{
					"indexed": true,
					"internalType": "address",
					"name": "approved",
					"type": "address"
				},
				{
					"indexed": true,
					"internalType": "uint256",
					"name": "tokenId",
					"type": "uint256"
				}
			],
			"name": "Approval",
			"type": "event"
		},
		{
			"anonymous": false,
			"inputs": [
				{
					"indexed": true,
					"internalType": "address",
					"name": "owner",
					"type": "address"
				},
				{
					"indexed": true,
					"internalType": "address",
					"name": "operator",
					"type": "address"
				},
				{
					"indexed": false,
					"internalType": "bool",
					"name": "approved",
					"type": "bool"
				}
			],
			"name": "ApprovalForAll",
			"type": "event"
		},
		{
			"anonymous": false,
			"inputs": [
				{
					"indexed": false,
					"internalType": "uint256",
					"name": "tokenId",
					"type": "uint256"
				},
				{
					"indexed": false,
					"internalType": "uint256",
					"name": "genes",
					"type": "uint256"
				}
			],
			"name": "Charged",
			"type": "event"
		},
		{
			"anonymous": false,
			"inputs": [
				{
					"indexed": true,
					"internalType": "address",
					"name": "previousOwner",
					"type": "address"
				},
				{
					"indexed": true,
					"internalType": "address",
					"name": "newOwner",
					"type": "address"
				}
			],
			"name": "OwnershipTransferred",
			"type": "event"
		},
		{
			"anonymous": false,
			"inputs": [
				{
					"indexed": false,
					"internalType": "address",
					"name": "account",
					"type": "address"
				}
			],
			"name": "Paused",
			"type": "event"
		},
		{
			"anonymous": false,
			"inputs": [
				{
					"indexed": true,
					"internalType": "address",
					"name": "from",
					"type": "address"
				},
				{
					"indexed": true,
					"internalType": "address",
					"name": "to",
					"type": "address"
				},
				{
					"indexed": true,
					"internalType": "uint256",
					"name": "tokenId",
					"type": "uint256"
				}
			],
			"name": "Transfer",
			"type": "event"
		},
		{
			"anonymous": false,
			"inputs": [
				{
					"indexed": false,
					"internalType": "address",
					"name": "account",
					"type": "address"
				}
			],
			"name": "Unpaused",
			"type": "event"
		},
		{
			"anonymous": false,
			"inputs": [
				{
					"indexed": false,
					"internalType": "uint256",
					"name": "tokenId",
					"type": "uint256"
				},
				{
					"indexed": false,
					"internalType": "uint256",
					"name": "parent1",
					"type": "uint256"
				},
				{
					"indexed": false,
					"internalType": "uint256",
					"name": "parent2",
					"type": "uint256"
				},
				{
					"indexed": false,
					"internalType": "uint256",
					"name": "genes",
					"type": "uint256"
				}
			],
			"name": "WasBorn",
			"type": "event"
		},
		{
			"inputs": [
				{
					"internalType": "address",
					"name": "to",
					"type": "address"
				},
				{
					"internalType": "uint256",
					"name": "tokenId",
					"type": "uint256"
				}
			],
			"name": "approve",
			"outputs": [],
			"stateMutability": "nonpayable",
			"type": "function"
		},
		{
			"inputs": [
				{
					"internalType": "address",
					"name": "owner",
					"type": "address"
				}
			],
			"name": "balanceOf",
			"outputs": [
				{
					"internalType": "uint256",
					"name": "",
					"type": "uint256"
				}
			],
			"stateMutability": "view",
			"type": "function"
		},
		{
			"inputs": [
				{
					"internalType": "uint256",
					"name": "token1",
					"type": "uint256"
				},
				{
					"internalType": "uint256",
					"name": "token2",
					"type": "uint256"
				}
			],
			"name": "breeding",
			"outputs": [
				{
					"internalType": "uint256",
					"name": "newTokenId",
					"type": "uint256"
				}
			],
			"stateMutability": "nonpayable",
			"type": "function"
		},
		{
			"inputs": [
				{
					"internalType": "uint256",
					"name": "tokenId",
					"type": "uint256"
				}
			],
			"name": "burn",
			"outputs": [],
			"stateMutability": "nonpayable",
			"type": "function"
		},
		{
			"inputs": [
				{
					"internalType": "uint256",
					"name": "tokenId",
					"type": "uint256"
				},
				{
					"internalType": "uint8",
					"name": "value",
					"type": "uint8"
				}
			],
			"name": "charge",
			"outputs": [],
			"stateMutability": "nonpayable",
			"type": "function"
		},
		{
			"inputs": [
				{
					"internalType": "uint256",
					"name": "tokenId",
					"type": "uint256"
				}
			],
			"name": "getApproved",
			"outputs": [
				{
					"internalType": "address",
					"name": "",
					"type": "address"
				}
			],
			"stateMutability": "view",
			"type": "function"
		},
		{
			"inputs": [],
			"name": "getBreedingContract",
			"outputs": [
				{
					"internalType": "address",
					"name": "",
					"type": "address"
				}
			],
			"stateMutability": "view",
			"type": "function"
		},
		{
			"inputs": [],
			"name": "getMaxId",
			"outputs": [
				{
					"internalType": "uint256",
					"name": "",
					"type": "uint256"
				}
			],
			"stateMutability": "view",
			"type": "function"
		},
		{
			"inputs": [],
			"name": "getMinId",
			"outputs": [
				{
					"internalType": "uint256",
					"name": "",
					"type": "uint256"
				}
			],
			"stateMutability": "view",
			"type": "function"
		},
		{
			"inputs": [
				{
					"internalType": "uint256",
					"name": "tokenId",
					"type": "uint256"
				}
			],
			"name": "getToken",
			"outputs": [
				{
					"internalType": "uint256",
					"name": "mom",
					"type": "uint256"
				},
				{
					"internalType": "uint256",
					"name": "dad",
					"type": "uint256"
				},
				{
					"internalType": "uint256",
					"name": "genes",
					"type": "uint256"
				}
			],
			"stateMutability": "view",
			"type": "function"
		},
		{
			"inputs": [
				{
					"internalType": "address",
					"name": "owner",
					"type": "address"
				},
				{
					"internalType": "address",
					"name": "operator",
					"type": "address"
				}
			],
			"name": "isApprovedForAll",
			"outputs": [
				{
					"internalType": "bool",
					"name": "",
					"type": "bool"
				}
			],
			"stateMutability": "view",
			"type": "function"
		},
		{
			"inputs": [
				{
					"internalType": "uint256",
					"name": "genes",
					"type": "uint256"
				}
			],
			"name": "mint",
			"outputs": [
				{
					"internalType": "uint256",
					"name": "",
					"type": "uint256"
				}
			],
			"stateMutability": "nonpayable",
			"type": "function"
		},
		{
			"inputs": [],
			"name": "name",
			"outputs": [
				{
					"internalType": "string",
					"name": "",
					"type": "string"
				}
			],
			"stateMutability": "view",
			"type": "function"
		},
		{
			"inputs": [],
			"name": "owner",
			"outputs": [
				{
					"internalType": "address",
					"name": "",
					"type": "address"
				}
			],
			"stateMutability": "view",
			"type": "function"
		},
		{
			"inputs": [
				{
					"internalType": "uint256",
					"name": "tokenId",
					"type": "uint256"
				}
			],
			"name": "ownerOf",
			"outputs": [
				{
					"internalType": "address",
					"name": "",
					"type": "address"
				}
			],
			"stateMutability": "view",
			"type": "function"
		},
		{
			"inputs": [],
			"name": "pause",
			"outputs": [],
			"stateMutability": "nonpayable",
			"type": "function"
		},
		{
			"inputs": [],
			"name": "paused",
			"outputs": [
				{
					"internalType": "bool",
					"name": "",
					"type": "bool"
				}
			],
			"stateMutability": "view",
			"type": "function"
		},
		{
			"inputs": [],
			"name": "renounceOwnership",
			"outputs": [],
			"stateMutability": "nonpayable",
			"type": "function"
		},
		{
			"inputs": [
				{
					"internalType": "address",
					"name": "from",
					"type": "address"
				},
				{
					"internalType": "address",
					"name": "to",
					"type": "address"
				},
				{
					"internalType": "uint256",
					"name": "tokenId",
					"type": "uint256"
				}
			],
			"name": "safeTransferFrom",
			"outputs": [],
			"stateMutability": "nonpayable",
			"type": "function"
		},
		{
			"inputs": [
				{
					"internalType": "address",
					"name": "from",
					"type": "address"
				},
				{
					"internalType": "address",
					"name": "to",
					"type": "address"
				},
				{
					"internalType": "uint256",
					"name": "tokenId",
					"type": "uint256"
				},
				{
					"internalType": "bytes",
					"name": "data",
					"type": "bytes"
				}
			],
			"name": "safeTransferFrom",
			"outputs": [],
			"stateMutability": "nonpayable",
			"type": "function"
		},
		{
			"inputs": [
				{
					"internalType": "address",
					"name": "operator",
					"type": "address"
				},
				{
					"internalType": "bool",
					"name": "approved",
					"type": "bool"
				}
			],
			"name": "setApprovalForAll",
			"outputs": [],
			"stateMutability": "nonpayable",
			"type": "function"
		},
		{
			"inputs": [
				{
					"internalType": "address",
					"name": "breedingContract",
					"type": "address"
				}
			],
			"name": "setBreedingContract",
			"outputs": [],
			"stateMutability": "nonpayable",
			"type": "function"
		},
		{
			"inputs": [
				{
					"internalType": "uint256",
					"name": "value",
					"type": "uint256"
				}
			],
			"name": "setMaxId",
			"outputs": [],
			"stateMutability": "nonpayable",
			"type": "function"
		},
		{
			"inputs": [
				{
					"internalType": "uint256",
					"name": "value",
					"type": "uint256"
				}
			],
			"name": "setMinId",
			"outputs": [],
			"stateMutability": "nonpayable",
			"type": "function"
		},
		{
			"inputs": [
				{
					"internalType": "bytes4",
					"name": "interfaceId",
					"type": "bytes4"
				}
			],
			"name": "supportsInterface",
			"outputs": [
				{
					"internalType": "bool",
					"name": "",
					"type": "bool"
				}
			],
			"stateMutability": "view",
			"type": "function"
		},
		{
			"inputs": [],
			"name": "symbol",
			"outputs": [
				{
					"internalType": "string",
					"name": "",
					"type": "string"
				}
			],
			"stateMutability": "view",
			"type": "function"
		},
		{
			"inputs": [
				{
					"internalType": "uint256",
					"name": "tokenId",
					"type": "uint256"
				}
			],
			"name": "tokenURI",
			"outputs": [
				{
					"internalType": "string",
					"name": "",
					"type": "string"
				}
			],
			"stateMutability": "view",
			"type": "function"
		},
		{
			"inputs": [],
			"name": "totalSupply",
			"outputs": [
				{
					"internalType": "uint256",
					"name": "",
					"type": "uint256"
				}
			],
			"stateMutability": "view",
			"type": "function"
		},
		{
			"inputs": [
				{
					"internalType": "address",
					"name": "from",
					"type": "address"
				},
				{
					"internalType": "address",
					"name": "to",
					"type": "address"
				},
				{
					"internalType": "uint256",
					"name": "tokenId",
					"type": "uint256"
				}
			],
			"name": "transferFrom",
			"outputs": [],
			"stateMutability": "nonpayable",
			"type": "function"
		},
		{
			"inputs": [
				{
					"internalType": "address",
					"name": "newOwner",
					"type": "address"
				}
			],
			"name": "transferOwnership",
			"outputs": [],
			"stateMutability": "nonpayable",
			"type": "function"
		},
		{
			"inputs": [],
			"name": "unpause",
			"outputs": [],
			"stateMutability": "nonpayable",
			"type": "function"
		},
		{
			"inputs": [],
			"name": "withdraw",
			"outputs": [],
			"stateMutability": "nonpayable",
			"type": "function"
		}
	]
}