{
	"data": {
		"bytecode": {
			"linkReferences": {},
			"object": "60806040526001600a556024600b55348015610019575f80fd5b506040518060400160405280600881526020017f53686f546f6b656e0000000000000000000000000000000000000000000000008152506040518060400160405280600681526020017f53484f544b4e0000000000000000000000000000000000000000000000000000815250815f90816100949190610459565b5080600190816100a49190610459565b5050505f60065f6101000a81548160ff0219169083151502179055506100dc6100d161014660201b60201c565b61014d60201b60201c565b6040516100e890610212565b604051809103905ff080158015610101573d5f803e3d5ffd5b5060095f6101000a81548173ffffffffffffffffffffffffffffffffffffffff021916908373ffffffffffffffffffffffffffffffffffffffff160217905550610528565b5f33905090565b5f600660019054906101000a900473ffffffffffffffffffffffffffffffffffffffff16905081600660016101000a81548173ffffffffffffffffffffffffffffffffffffffff021916908373ffffffffffffffffffffffffffffffffffffffff1602179055508173ffffffffffffffffffffffffffffffffffffffff168173ffffffffffffffffffffffffffffffffffffffff167f8be0079c531659141344cd1fd0a4f28419497f9722a3daafe3b4186f6b6457e060405160405180910390a35050565b6115cf806140d183390190565b5f81519050919050565b7f4e487b71000000000000000000000000000000000000000000000000000000005f52604160045260245ffd5b7f4e487b71000000000000000000000000000000000000000000000000000000005f52602260045260245ffd5b5f600282049050600182168061029a57607f821691505b6020821081036102ad576102ac610256565b5b50919050565b5f819050815f5260205f209050919050565b5f6020601f8301049050919050565b5f82821b905092915050565b5f6008830261030f7fffffffffffffffffffffffffffffffffffffffffffffffffffffffffffffffff826102d4565b61031986836102d4565b95508019841693508086168417925050509392505050565b5f819050919050565b5f819050919050565b5f61035d61035861035384610331565b61033a565b610331565b9050919050565b5f819050919050565b61037683610343565b61038a61038282610364565b8484546102e0565b825550505050565b5f90565b61039e610392565b6103a981848461036d565b505050565b5b818110156103cc576103c15f82610396565b6001810190506103af565b5050565b601f821115610411576103e2816102b3565b6103eb846102c5565b810160208510156103fa578190505b61040e610406856102c5565b8301826103ae565b50505b505050565b5f82821c905092915050565b5f6104315f1984600802610416565b1980831691505092915050565b5f6104498383610422565b9150826002028217905092915050565b6104628261021f565b67ffffffffffffffff81111561047b5761047a610229565b5b6104858254610283565b6104908282856103d0565b5f60209050601f8311600181146104c1575f84156104af578287015190505b6104b9858261043e565b865550610520565b601f1984166104cf866102b3565b5f5b828110156104f6578489015182556001820191506020850194506020810190506104d1565b86831015610513578489015161050f601f891682610422565b8355505b6001600288020188555050505b505050505050565b613b9c806105355f395ff3fe608060405234801561000f575f80fd5b50600436106101ee575f3560e01c80638c5527cf1161010d578063c87b56dd116100a0578063e985e9c51161006f578063e985e9c514610556578063eb4b0e5114610586578063f2fde38b146105a4578063fbbe20a9146105c0576101ee565b8063c87b56dd146104ba578063d477a712146104ea578063e2e3a0db14610508578063e4b50cb814610524576101ee565b8063a22cb465116100dc578063a22cb46514610448578063afa69d4914610464578063b88d4fde14610480578063c3b1f0b41461049c576101ee565b80638c5527cf146103c05780638da5cb5b146103dc57806395d89b41146103fa578063a0712d6814610418576101ee565b80633f4ba83a116101855780636352211e116101545780636352211e1461034c57806370a082311461037c578063715018a6146103ac5780638456cb59146103b6576101ee565b80633f4ba83a146102ec57806342842e0e146102f657806342966c68146103125780635c975abb1461032e576101ee565b806316bd8646116101c157806316bd86461461028c57806318160ddd146102a857806323b872dd146102c65780633ccfd60b146102e2576101ee565b806301ffc9a7146101f257806306fdde0314610222578063081812fc14610240578063095ea7b314610270575b5f80fd5b61020c60048036038101906102079190612792565b6105f0565b60405161021991906127d7565b60405180910390f35b61022a6106d1565b6040516102379190612860565b60405180910390f35b61025a600480360381019061025591906128b3565b610760565b604051610267919061291d565b60405180910390f35b61028a60048036038101906102859190612960565b6107a2565b005b6102a660048036038101906102a191906128b3565b6108b8565b005b6102b06108ca565b6040516102bd91906129ad565b60405180910390f35b6102e060048036038101906102db91906129c6565b6108da565b005b6102ea61093a565b005b6102f46109bd565b005b610310600480360381019061030b91906129c6565b6109cf565b005b61032c600480360381019061032791906128b3565b6109ee565b005b610336610a4a565b60405161034391906127d7565b60405180910390f35b610366600480360381019061036191906128b3565b610a5f565b604051610373919061291d565b60405180910390f35b61039660048036038101906103919190612a16565b610ae3565b6040516103a391906129ad565b60405180910390f35b6103b4610b97565b005b6103be610baa565b005b6103da60048036038101906103d59190612a16565b610bbc565b005b6103e4610c07565b6040516103f1919061291d565b60405180910390f35b610402610c30565b60405161040f9190612860565b60405180910390f35b610432600480360381019061042d91906128b3565b610cc0565b60405161043f91906129ad565b60405180910390f35b610462600480360381019061045d9190612a6b565b610cdb565b005b61047e60048036038101906104799190612adf565b610cf1565b005b61049a60048036038101906104959190612c49565b610dd1565b005b6104a4610e33565b6040516104b1919061291d565b60405180910390f35b6104d460048036038101906104cf91906128b3565b610e5b565b6040516104e19190612860565b60405180910390f35b6104f2610edd565b6040516104ff91906129ad565b60405180910390f35b610522600480360381019061051d91906128b3565b610ee6565b005b61053e600480360381019061053991906128b3565b610ef8565b60405161054d93929190612cc9565b60405180910390f35b610570600480360381019061056b9190612cfe565b610f2b565b60405161057d91906127d7565b60405180910390f35b61058e610fb9565b60405161059b91906129ad565b60405180910390f35b6105be60048036038101906105b99190612a16565b610fc2565b005b6105da60048036038101906105d59190612d3c565b611044565b6040516105e791906129ad565b60405180910390f35b5f7f80ac58cd000000000000000000000000000000000000000000000000000000007bffffffffffffffffffffffffffffffffffffffffffffffffffffffff1916827bffffffffffffffffffffffffffffffffffffffffffffffffffffffff191614806106ba57507f5b5e139f000000000000000000000000000000000000000000000000000000007bffffffffffffffffffffffffffffffffffffffffffffffffffffffff1916827bffffffffffffffffffffffffffffffffffffffffffffffffffffffff1916145b806106ca57506106c9826111dc565b5b9050919050565b60605f80546106df90612da7565b80601f016020809104026020016040519081016040528092919081815260200182805461070b90612da7565b80156107565780601f1061072d57610100808354040283529160200191610756565b820191905f5260205f20905b81548152906001019060200180831161073957829003601f168201915b5050505050905090565b5f61076a82611245565b60045f8381526020019081526020015f205f9054906101000a900473ffffffffffffffffffffffffffffffffffffffff169050919050565b5f6107ac82610a5f565b90508073ffffffffffffffffffffffffffffffffffffffff168373ffffffffffffffffffffffffffffffffffffffff160361081c576040517f08c379a000000000000000000000000000000000000000000000000000000000815260040161081390612e47565b60405180910390fd5b8073ffffffffffffffffffffffffffffffffffffffff1661083b611290565b73ffffffffffffffffffffffffffffffffffffffff16148061086a575061086981610864611290565b610f2b565b5b6108a9576040517f08c379a00000000000000000000000000000000000000000000000000000000081526004016108a090612ed5565b60405180910390fd5b6108b38383611297565b505050565b6108c061134d565b80600b8190555050565b5f6108d560076113cb565b905090565b6108eb6108e5611290565b826113d7565b61092a576040517f08c379a000000000000000000000000000000000000000000000000000000000815260040161092190612f63565b60405180910390fd5b61093583838361146b565b505050565b61094261134d565b5f61094b610c07565b73ffffffffffffffffffffffffffffffffffffffff164760405161096e90612fae565b5f6040518083038185875af1925050503d805f81146109a8576040519150601f19603f3d011682016040523d82523d5f602084013e6109ad565b606091505b50509050806109ba575f80fd5b50565b6109c561134d565b6109cd611757565b565b6109e983838360405180602001604052805f815250610dd1565b505050565b6109ff6109f9611290565b826113d7565b610a3e576040517f08c379a0000000000000000000000000000000000000000000000000000000008152600401610a3590612f63565b60405180910390fd5b610a47816117b8565b50565b5f60065f9054906101000a900460ff16905090565b5f80610a6a836118f9565b90505f73ffffffffffffffffffffffffffffffffffffffff168173ffffffffffffffffffffffffffffffffffffffff1603610ada576040517f08c379a0000000000000000000000000000000000000000000000000000000008152600401610ad19061300c565b60405180910390fd5b80915050919050565b5f8073ffffffffffffffffffffffffffffffffffffffff168273ffffffffffffffffffffffffffffffffffffffff1603610b52576040517f08c379a0000000000000000000000000000000000000000000000000000000008152600401610b499061309a565b60405180910390fd5b60035f8373ffffffffffffffffffffffffffffffffffffffff1673ffffffffffffffffffffffffffffffffffffffff1681526020019081526020015f20549050919050565b610b9f61134d565b610ba85f611932565b565b610bb261134d565b610bba6119f7565b565b610bc461134d565b8060095f6101000a81548173ffffffffffffffffffffffffffffffffffffffff021916908373ffffffffffffffffffffffffffffffffffffffff16021790555050565b5f600660019054906101000a900473ffffffffffffffffffffffffffffffffffffffff16905090565b606060018054610c3f90612da7565b80601f0160208091040260200160405190810160405280929190818152602001828054610c6b90612da7565b8015610cb65780601f10610c8d57610100808354040283529160200191610cb6565b820191905f5260205f20905b815481529060010190602001808311610c9957829003601f168201915b5050505050905090565b5f610cc961134d565b610cd45f8084611a59565b9050919050565b610ced610ce6611290565b8383611bfb565b5050565b610cf961134d565b610d0282611d62565b610d41576040517f08c379a0000000000000000000000000000000000000000000000000000000008152600401610d3890613102565b60405180910390fd5b5f60085f8481526020019081526020015f206002015490505f610d778284610d6885611da2565b610d72919061314d565b611db2565b90508060085f8681526020019081526020015f20600201819055507fa4b06760d9e334049c680f60b4beff0728af9bb459b8698d252972b10c4f3e558482604051610dc3929190613181565b60405180910390a150505050565b610de2610ddc611290565b836113d7565b610e21576040517f08c379a0000000000000000000000000000000000000000000000000000000008152600401610e1890612f63565b60405180910390fd5b610e2d84848484611dcc565b50505050565b5f60095f9054906101000a900473ffffffffffffffffffffffffffffffffffffffff16905090565b6060610e6682611d62565b610ea5576040517f08c379a0000000000000000000000000000000000000000000000000000000008152600401610e9c90613218565b60405180910390fd5b610ead611e28565b610eb683611e65565b604051602001610ec79291906132ba565b6040516020818303038152906040529050919050565b5f600b54905090565b610eee61134d565b80600a8190555050565b5f805f8060085f8681526020019081526020015f209050805f015481600101548260020154935093509350509193909250565b5f60055f8473ffffffffffffffffffffffffffffffffffffffff1673ffffffffffffffffffffffffffffffffffffffff1681526020019081526020015f205f8373ffffffffffffffffffffffffffffffffffffffff1673ffffffffffffffffffffffffffffffffffffffff1681526020019081526020015f205f9054906101000a900460ff16905092915050565b5f600a54905090565b610fca61134d565b5f73ffffffffffffffffffffffffffffffffffffffff168173ffffffffffffffffffffffffffffffffffffffff1603611038576040517f08c379a000000000000000000000000000000000000000000000000000000000815260040161102f90613358565b60405180910390fd5b61104181611932565b50565b5f61104d61134d565b61105683611d62565b611095576040517f08c379a000000000000000000000000000000000000000000000000000000000815260040161108c90613102565b60405180910390fd5b61109e82611d62565b6110dd576040517f08c379a00000000000000000000000000000000000000000000000000000000081526004016110d490613102565b60405180910390fd5b5f60085f8581526020019081526020015f2090505f60085f8581526020019081526020015f2090505f805f60095f9054906101000a900473ffffffffffffffffffffffffffffffffffffffff1673ffffffffffffffffffffffffffffffffffffffff1663e4a13fb7866002015486600201546040518363ffffffff1660e01b815260040161116c929190613181565b6060604051808303815f875af1158015611188573d5f803e3d5ffd5b505050506040513d601f19601f820116820180604052508101906111ac919061338a565b9250925092506111bd888883611a59565b9550828560020181905550818460020181905550505050505092915050565b5f7f01ffc9a7000000000000000000000000000000000000000000000000000000007bffffffffffffffffffffffffffffffffffffffffffffffffffffffff1916827bffffffffffffffffffffffffffffffffffffffffffffffffffffffff1916149050919050565b61124e81611d62565b61128d576040517f08c379a00000000000000000000000000000000000000000000000000000000081526004016112849061300c565b60405180910390fd5b50565b5f33905090565b8160045f8381526020019081526020015f205f6101000a81548173ffffffffffffffffffffffffffffffffffffffff021916908373ffffffffffffffffffffffffffffffffffffffff160217905550808273ffffffffffffffffffffffffffffffffffffffff1661130783610a5f565b73ffffffffffffffffffffffffffffffffffffffff167f8c5be1e5ebec7d5bd14f71427d1e84f3dd0314c0f7b2291e5b200ac8c7c3b92560405160405180910390a45050565b611355611290565b73ffffffffffffffffffffffffffffffffffffffff16611373610c07565b73ffffffffffffffffffffffffffffffffffffffff16146113c9576040517f08c379a00000000000000000000000000000000000000000000000000000000081526004016113c090613424565b60405180910390fd5b565b5f815f01549050919050565b5f806113e283610a5f565b90508073ffffffffffffffffffffffffffffffffffffffff168473ffffffffffffffffffffffffffffffffffffffff16148061142457506114238185610f2b565b5b8061146257508373ffffffffffffffffffffffffffffffffffffffff1661144a84610760565b73ffffffffffffffffffffffffffffffffffffffff16145b91505092915050565b8273ffffffffffffffffffffffffffffffffffffffff1661148b82610a5f565b73ffffffffffffffffffffffffffffffffffffffff16146114e1576040517f08c379a00000000000000000000000000000000000000000000000000000000081526004016114d8906134b2565b60405180910390fd5b5f73ffffffffffffffffffffffffffffffffffffffff168273ffffffffffffffffffffffffffffffffffffffff160361154f576040517f08c379a000000000000000000000000000000000000000000000000000000000815260040161154690613540565b60405180910390fd5b61155c8383836001611f2f565b8273ffffffffffffffffffffffffffffffffffffffff1661157c82610a5f565b73ffffffffffffffffffffffffffffffffffffffff16146115d2576040517f08c379a00000000000000000000000000000000000000000000000000000000081526004016115c9906134b2565b60405180910390fd5b60045f8281526020019081526020015f205f6101000a81549073ffffffffffffffffffffffffffffffffffffffff0219169055600160035f8573ffffffffffffffffffffffffffffffffffffffff1673ffffffffffffffffffffffffffffffffffffffff1681526020019081526020015f205f8282540392505081905550600160035f8473ffffffffffffffffffffffffffffffffffffffff1673ffffffffffffffffffffffffffffffffffffffff1681526020019081526020015f205f82825401925050819055508160025f8381526020019081526020015f205f6101000a81548173ffffffffffffffffffffffffffffffffffffffff021916908373ffffffffffffffffffffffffffffffffffffffff160217905550808273ffffffffffffffffffffffffffffffffffffffff168473ffffffffffffffffffffffffffffffffffffffff167fddf252ad1be2c89b69c2b068fc378daa952ba7f163c4a11628f55a4df523b3ef60405160405180910390a46117528383836001611f49565b505050565b61175f611f4f565b5f60065f6101000a81548160ff0219169083151502179055507f5db9ee0a495bf2e6ff9c91a7834c1ba4fdd244a5e8aa4e537bd38aeae4b073aa6117a1611290565b6040516117ae919061291d565b60405180910390a1565b5f6117c282610a5f565b90506117d1815f846001611f2f565b6117da82610a5f565b905060045f8381526020019081526020015f205f6101000a81549073ffffffffffffffffffffffffffffffffffffffff0219169055600160035f8373ffffffffffffffffffffffffffffffffffffffff1673ffffffffffffffffffffffffffffffffffffffff1681526020019081526020015f205f828254039250508190555060025f8381526020019081526020015f205f6101000a81549073ffffffffffffffffffffffffffffffffffffffff0219169055815f73ffffffffffffffffffffffffffffffffffffffff168273ffffffffffffffffffffffffffffffffffffffff167fddf252ad1be2c89b69c2b068fc378daa952ba7f163c4a11628f55a4df523b3ef60405160405180910390a46118f5815f846001611f49565b5050565b5f60025f8381526020019081526020015f205f9054906101000a900473ffffffffffffffffffffffffffffffffffffffff169050919050565b5f600660019054906101000a900473ffffffffffffffffffffffffffffffffffffffff16905081600660016101000a81548173ffffffffffffffffffffffffffffffffffffffff021916908373ffffffffffffffffffffffffffffffffffffffff1602179055508173ffffffffffffffffffffffffffffffffffffffff168173ffffffffffffffffffffffffffffffffffffffff167f8be0079c531659141344cd1fd0a4f28419497f9722a3daafe3b4186f6b6457e060405160405180910390a35050565b6119ff611f98565b600160065f6101000a81548160ff0219169083151502179055507f62e78cea01bee320cd4e420270b5ea74000d11b0c9f74754ebdbfc544b05a258611a42611290565b604051611a4f919061291d565b60405180910390a1565b5f80600990505f5b818160ff161015611b39575f611a778583611fe2565b9050600a548160ff1610158015611a935750600b548160ff1611155b611ad2576040517f08c379a0000000000000000000000000000000000000000000000000000000008152600401611ac9906135ce565b60405180910390fd5b5f611add868461202e565b90505f8160ff1611611b24576040517f08c379a0000000000000000000000000000000000000000000000000000000008152600401611b1b9061365c565b60405180910390fd5b50508080611b319061367a565b915050611a61565b505f6040518060600160405280878152602001868152602001858152509050611b62600761207b565b5f611b6d60076113cb565b90508160085f8381526020019081526020015f205f820151815f01556020820151816001015560408201518160020155905050611bb1611bab610c07565b8261208f565b7fb6da9597f5553d5deafc722dcc1f69d5463612674a36bae2aa8698bd86af1c7c81888888604051611be694939291906136a2565b60405180910390a18093505050509392505050565b8173ffffffffffffffffffffffffffffffffffffffff168373ffffffffffffffffffffffffffffffffffffffff1603611c69576040517f08c379a0000000000000000000000000000000000000000000000000000000008152600401611c609061372f565b60405180910390fd5b8060055f8573ffffffffffffffffffffffffffffffffffffffff1673ffffffffffffffffffffffffffffffffffffffff1681526020019081526020015f205f8473ffffffffffffffffffffffffffffffffffffffff1673ffffffffffffffffffffffffffffffffffffffff1681526020019081526020015f205f6101000a81548160ff0219169083151502179055508173ffffffffffffffffffffffffffffffffffffffff168373ffffffffffffffffffffffffffffffffffffffff167f17307eab39ab6107e8899845ad3d59bd9653f200f220920489ca2b5937696c3183604051611d5591906127d7565b60405180910390a3505050565b5f8073ffffffffffffffffffffffffffffffffffffffff16611d83836118f9565b73ffffffffffffffffffffffffffffffffffffffff1614159050919050565b5f60ff60f883901c169050919050565b5f60f88260ff16901b60088085901b901c17905092915050565b611dd784848461146b565b611de3848484846120ac565b611e22576040517f08c379a0000000000000000000000000000000000000000000000000000000008152600401611e19906137bd565b60405180910390fd5b50505050565b60606040518060400160405280601f81526020017f6e66742e63727970746f73686f7065652e6e74696c6f79616c74792e636f6d00815250905090565b60605f6001611e738461222e565b0190505f8167ffffffffffffffff811115611e9157611e90612b25565b5b6040519080825280601f01601f191660200182016040528015611ec35781602001600182028036833780820191505090505b5090505f82602001820190505b600115611f24578080600190039150507f3031323334353637383961626364656600000000000000000000000000000000600a86061a8153600a8581611f1957611f186137db565b5b0494505f8503611ed0575b819350505050919050565b611f37611f98565b611f438484848461237f565b50505050565b50505050565b611f57610a4a565b611f96576040517f08c379a0000000000000000000000000000000000000000000000000000000008152600401611f8d90613852565b60405180910390fd5b565b611fa0610a4a565b15611fe0576040517f08c379a0000000000000000000000000000000000000000000000000000000008152600401611fd7906138ba565b60405180910390fd5b565b5f80600490505f600384611ff691906138d8565b60ff16905060ff60085f838561200c9190613914565b6120169190613914565b6120209190613947565b86901c169250505092915050565b5f80600490505f60038461204291906138d8565b60ff16905060ff6008600183856120599190613914565b6120639190613914565b61206d9190613947565b86901c169250505092915050565b6001815f015f828254019250508190555050565b6120a8828260405180602001604052805f81525061249d565b5050565b5f6120cc8473ffffffffffffffffffffffffffffffffffffffff166124f7565b15612221578373ffffffffffffffffffffffffffffffffffffffff1663150b7a026120f5611290565b8786866040518563ffffffff1660e01b815260040161211794939291906139da565b6020604051808303815f875af192505050801561215257506040513d601f19601f8201168201806040525081019061214f9190613a38565b60015b6121d1573d805f8114612180576040519150601f19603f3d011682016040523d82523d5f602084013e612185565b606091505b505f8151036121c9576040517f08c379a00000000000000000000000000000000000000000000000000000000081526004016121c0906137bd565b60405180910390fd5b805181602001fd5b63150b7a0260e01b7bffffffffffffffffffffffffffffffffffffffffffffffffffffffff1916817bffffffffffffffffffffffffffffffffffffffffffffffffffffffff191614915050612226565b600190505b949350505050565b5f805f90507a184f03e93ff9f4daa797ed6e38ed64bf6a1f010000000000000000831061228a577a184f03e93ff9f4daa797ed6e38ed64bf6a1f01000000000000000083816122805761227f6137db565b5b0492506040810190505b6d04ee2d6d415b85acef810000000083106122c7576d04ee2d6d415b85acef810000000083816122bd576122bc6137db565b5b0492506020810190505b662386f26fc1000083106122f657662386f26fc1000083816122ec576122eb6137db565b5b0492506010810190505b6305f5e100831061231f576305f5e1008381612315576123146137db565b5b0492506008810190505b612710831061234457612710838161233a576123396137db565b5b0492506004810190505b60648310612367576064838161235d5761235c6137db565b5b0492506002810190505b600a8310612376576001810190505b80915050919050565b6001811115612497575f73ffffffffffffffffffffffffffffffffffffffff168473ffffffffffffffffffffffffffffffffffffffff161461240f578060035f8673ffffffffffffffffffffffffffffffffffffffff1673ffffffffffffffffffffffffffffffffffffffff1681526020019081526020015f205f8282546124079190613a63565b925050819055505b5f73ffffffffffffffffffffffffffffffffffffffff168373ffffffffffffffffffffffffffffffffffffffff1614612496578060035f8573ffffffffffffffffffffffffffffffffffffffff1673ffffffffffffffffffffffffffffffffffffffff1681526020019081526020015f205f82825461248e9190613914565b925050819055505b5b50505050565b6124a78383612519565b6124b35f8484846120ac565b6124f2576040517f08c379a00000000000000000000000000000000000000000000000000000000081526004016124e9906137bd565b60405180910390fd5b505050565b5f808273ffffffffffffffffffffffffffffffffffffffff163b119050919050565b5f73ffffffffffffffffffffffffffffffffffffffff168273ffffffffffffffffffffffffffffffffffffffff1603612587576040517f08c379a000000000000000000000000000000000000000000000000000000000815260040161257e90613ae0565b60405180910390fd5b61259081611d62565b156125d0576040517f08c379a00000000000000000000000000000000000000000000000000000000081526004016125c790613b48565b60405180910390fd5b6125dd5f83836001611f2f565b6125e681611d62565b15612626576040517f08c379a000000000000000000000000000000000000000000000000000000000815260040161261d90613b48565b60405180910390fd5b600160035f8473ffffffffffffffffffffffffffffffffffffffff1673ffffffffffffffffffffffffffffffffffffffff1681526020019081526020015f205f82825401925050819055508160025f8381526020019081526020015f205f6101000a81548173ffffffffffffffffffffffffffffffffffffffff021916908373ffffffffffffffffffffffffffffffffffffffff160217905550808273ffffffffffffffffffffffffffffffffffffffff165f73ffffffffffffffffffffffffffffffffffffffff167fddf252ad1be2c89b69c2b068fc378daa952ba7f163c4a11628f55a4df523b3ef60405160405180910390a46127285f83836001611f49565b5050565b5f604051905090565b5f80fd5b5f80fd5b5f7fffffffff0000000000000000000000000000000000000000000000000000000082169050919050565b6127718161273d565b811461277b575f80fd5b50565b5f8135905061278c81612768565b92915050565b5f602082840312156127a7576127a6612735565b5b5f6127b48482850161277e565b91505092915050565b5f8115159050919050565b6127d1816127bd565b82525050565b5f6020820190506127ea5f8301846127c8565b92915050565b5f81519050919050565b5f82825260208201905092915050565b8281835e5f83830152505050565b5f601f19601f8301169050919050565b5f612832826127f0565b61283c81856127fa565b935061284c81856020860161280a565b61285581612818565b840191505092915050565b5f6020820190508181035f8301526128788184612828565b905092915050565b5f819050919050565b61289281612880565b811461289c575f80fd5b50565b5f813590506128ad81612889565b92915050565b5f602082840312156128c8576128c7612735565b5b5f6128d58482850161289f565b91505092915050565b5f73ffffffffffffffffffffffffffffffffffffffff82169050919050565b5f612907826128de565b9050919050565b612917816128fd565b82525050565b5f6020820190506129305f83018461290e565b92915050565b61293f816128fd565b8114612949575f80fd5b50565b5f8135905061295a81612936565b92915050565b5f806040838503121561297657612975612735565b5b5f6129838582860161294c565b92505060206129948582860161289f565b9150509250929050565b6129a781612880565b82525050565b5f6020820190506129c05f83018461299e565b92915050565b5f805f606084860312156129dd576129dc612735565b5b5f6129ea8682870161294c565b93505060206129fb8682870161294c565b9250506040612a0c8682870161289f565b9150509250925092565b5f60208284031215612a2b57612a2a612735565b5b5f612a388482850161294c565b91505092915050565b612a4a816127bd565b8114612a54575f80fd5b50565b5f81359050612a6581612a41565b92915050565b5f8060408385031215612a8157612a80612735565b5b5f612a8e8582860161294c565b9250506020612a9f85828601612a57565b9150509250929050565b5f60ff82169050919050565b612abe81612aa9565b8114612ac8575f80fd5b50565b5f81359050612ad981612ab5565b92915050565b5f8060408385031215612af557612af4612735565b5b5f612b028582860161289f565b9250506020612b1385828601612acb565b9150509250929050565b5f80fd5b5f80fd5b7f4e487b71000000000000000000000000000000000000000000000000000000005f52604160045260245ffd5b612b5b82612818565b810181811067ffffffffffffffff82111715612b7a57612b79612b25565b5b80604052505050565b5f612b8c61272c565b9050612b988282612b52565b919050565b5f67ffffffffffffffff821115612bb757612bb6612b25565b5b612bc082612818565b9050602081019050919050565b828183375f83830152505050565b5f612bed612be884612b9d565b612b83565b905082815260208101848484011115612c0957612c08612b21565b5b612c14848285612bcd565b509392505050565b5f82601f830112612c3057612c2f612b1d565b5b8135612c40848260208601612bdb565b91505092915050565b5f805f8060808587031215612c6157612c60612735565b5b5f612c6e8782880161294c565b9450506020612c7f8782880161294c565b9350506040612c908782880161289f565b925050606085013567ffffffffffffffff811115612cb157612cb0612739565b5b612cbd87828801612c1c565b91505092959194509250565b5f606082019050612cdc5f83018661299e565b612ce9602083018561299e565b612cf6604083018461299e565b949350505050565b5f8060408385031215612d1457612d13612735565b5b5f612d218582860161294c565b9250506020612d328582860161294c565b9150509250929050565b5f8060408385031215612d5257612d51612735565b5b5f612d5f8582860161289f565b9250506020612d708582860161289f565b9150509250929050565b7f4e487b71000000000000000000000000000000000000000000000000000000005f52602260045260245ffd5b5f6002820490506001821680612dbe57607f821691505b602082108103612dd157612dd0612d7a565b5b50919050565b7f4552433732313a20617070726f76616c20746f2063757272656e74206f776e655f8201527f7200000000000000000000000000000000000000000000000000000000000000602082015250565b5f612e316021836127fa565b9150612e3c82612dd7565b604082019050919050565b5f6020820190508181035f830152612e5e81612e25565b9050919050565b7f4552433732313a20617070726f76652063616c6c6572206973206e6f7420746f5f8201527f6b656e206f776e6572206f7220617070726f76656420666f7220616c6c000000602082015250565b5f612ebf603d836127fa565b9150612eca82612e65565b604082019050919050565b5f6020820190508181035f830152612eec81612eb3565b9050919050565b7f4552433732313a2063616c6c6572206973206e6f7420746f6b656e206f776e655f8201527f72206f7220617070726f76656400000000000000000000000000000000000000602082015250565b5f612f4d602d836127fa565b9150612f5882612ef3565b604082019050919050565b5f6020820190508181035f830152612f7a81612f41565b9050919050565b5f81905092915050565b50565b5f612f995f83612f81565b9150612fa482612f8b565b5f82019050919050565b5f612fb882612f8e565b9150819050919050565b7f4552433732313a20696e76616c696420746f6b656e20494400000000000000005f82015250565b5f612ff66018836127fa565b915061300182612fc2565b602082019050919050565b5f6020820190508181035f83015261302381612fea565b9050919050565b7f4552433732313a2061646472657373207a65726f206973206e6f7420612076615f8201527f6c6964206f776e65720000000000000000000000000000000000000000000000602082015250565b5f6130846029836127fa565b915061308f8261302a565b604082019050919050565b5f6020820190508181035f8301526130b181613078565b9050919050565b7f717565727920666f72206e6f6e6578697374656e7420746f6b656e00000000005f82015250565b5f6130ec601b836127fa565b91506130f7826130b8565b602082019050919050565b5f6020820190508181035f830152613119816130e0565b9050919050565b7f4e487b71000000000000000000000000000000000000000000000000000000005f52601160045260245ffd5b5f61315782612aa9565b915061316283612aa9565b9250828201905060ff81111561317b5761317a613120565b5b92915050565b5f6040820190506131945f83018561299e565b6131a1602083018461299e565b9392505050565b7f4552433732314d657461646174613a2055524920717565727920666f72206e6f5f8201527f6e6578697374656e7420746f6b656e0000000000000000000000000000000000602082015250565b5f613202602f836127fa565b915061320d826131a8565b604082019050919050565b5f6020820190508181035f83015261322f816131f6565b9050919050565b5f81905092915050565b5f61324a826127f0565b6132548185613236565b935061326481856020860161280a565b80840191505092915050565b7f2e6a736f6e0000000000000000000000000000000000000000000000000000005f82015250565b5f6132a4600583613236565b91506132af82613270565b600582019050919050565b5f6132c58285613240565b91506132d18284613240565b91506132dc82613298565b91508190509392505050565b7f4f776e61626c653a206e6577206f776e657220697320746865207a65726f20615f8201527f6464726573730000000000000000000000000000000000000000000000000000602082015250565b5f6133426026836127fa565b915061334d826132e8565b604082019050919050565b5f6020820190508181035f83015261336f81613336565b9050919050565b5f8151905061338481612889565b92915050565b5f805f606084860312156133a1576133a0612735565b5b5f6133ae86828701613376565b93505060206133bf86828701613376565b92505060406133d086828701613376565b9150509250925092565b7f4f776e61626c653a2063616c6c6572206973206e6f7420746865206f776e65725f82015250565b5f61340e6020836127fa565b9150613419826133da565b602082019050919050565b5f6020820190508181035f83015261343b81613402565b9050919050565b7f4552433732313a207472616e736665722066726f6d20696e636f7272656374205f8201527f6f776e6572000000000000000000000000000000000000000000000000000000602082015250565b5f61349c6025836127fa565b91506134a782613442565b604082019050919050565b5f6020820190508181035f8301526134c981613490565b9050919050565b7f4552433732313a207472616e7366657220746f20746865207a65726f206164645f8201527f7265737300000000000000000000000000000000000000000000000000000000602082015250565b5f61352a6024836127fa565b9150613535826134d0565b604082019050919050565b5f6020820190508181035f8301526135578161351e565b9050919050565b7f6572726f722c20637265617465546f6b656e2c2070617274206964206d7573745f8201527f20626520696e2072616e67650000000000000000000000000000000000000000602082015250565b5f6135b8602c836127fa565b91506135c38261355e565b604082019050919050565b5f6020820190508181035f8301526135e5816135ac565b9050919050565b7f6572726f722c20637265617465546f6b656e2c2070617274206c6576656c206d5f8201527f7573742062652067726561746572207468616e20300000000000000000000000602082015250565b5f6136466035836127fa565b9150613651826135ec565b604082019050919050565b5f6020820190508181035f8301526136738161363a565b9050919050565b5f61368482612aa9565b915060ff820361369757613696613120565b5b600182019050919050565b5f6080820190506136b55f83018761299e565b6136c2602083018661299e565b6136cf604083018561299e565b6136dc606083018461299e565b95945050505050565b7f4552433732313a20617070726f766520746f2063616c6c6572000000000000005f82015250565b5f6137196019836127fa565b9150613724826136e5565b602082019050919050565b5f6020820190508181035f8301526137468161370d565b9050919050565b7f4552433732313a207472616e7366657220746f206e6f6e2045524337323152655f8201527f63656976657220696d706c656d656e7465720000000000000000000000000000602082015250565b5f6137a76032836127fa565b91506137b28261374d565b604082019050919050565b5f6020820190508181035f8301526137d48161379b565b9050919050565b7f4e487b71000000000000000000000000000000000000000000000000000000005f52601260045260245ffd5b7f5061757361626c653a206e6f74207061757365640000000000000000000000005f82015250565b5f61383c6014836127fa565b915061384782613808565b602082019050919050565b5f6020820190508181035f83015261386981613830565b9050919050565b7f5061757361626c653a20706175736564000000000000000000000000000000005f82015250565b5f6138a46010836127fa565b91506138af82613870565b602082019050919050565b5f6020820190508181035f8301526138d181613898565b9050919050565b5f6138e282612aa9565b91506138ed83612aa9565b92508282026138fb81612aa9565b915080821461390d5761390c613120565b5b5092915050565b5f61391e82612880565b915061392983612880565b925082820190508082111561394157613940613120565b5b92915050565b5f61395182612880565b915061395c83612880565b925082820261396a81612880565b9150828204841483151761398157613980613120565b5b5092915050565b5f81519050919050565b5f82825260208201905092915050565b5f6139ac82613988565b6139b68185613992565b93506139c681856020860161280a565b6139cf81612818565b840191505092915050565b5f6080820190506139ed5f83018761290e565b6139fa602083018661290e565b613a07604083018561299e565b8181036060830152613a1981846139a2565b905095945050505050565b5f81519050613a3281612768565b92915050565b5f60208284031215613a4d57613a4c612735565b5b5f613a5a84828501613a24565b91505092915050565b5f613a6d82612880565b9150613a7883612880565b9250828203905081811115613a9057613a8f613120565b5b92915050565b7f4552433732313a206d696e7420746f20746865207a65726f20616464726573735f82015250565b5f613aca6020836127fa565b9150613ad582613a96565b602082019050919050565b5f6020820190508181035f830152613af781613abe565b9050919050565b7f4552433732313a20746f6b656e20616c7265616479206d696e746564000000005f82015250565b5f613b32601c836127fa565b9150613b3d82613afe565b602082019050919050565b5f6020820190508181035f830152613b5f81613b26565b905091905056fea26469706673582212202e2cee138ef0fbed89e68020e2d118c7bcd27fcef26e9e592b0c58de7d43408064736f6c634300081a003360806040525f8060146101000a81548160ff021916908360ff1602179055506001805560056002556001600355601e60045560016005556024600655348015610046575f80fd5b5061006361005861006860201b60201c565b61006f60201b60201c565b610130565b5f33905090565b5f805f9054906101000a900473ffffffffffffffffffffffffffffffffffffffff169050815f806101000a81548173ffffffffffffffffffffffffffffffffffffffff021916908373ffffffffffffffffffffffffffffffffffffffff1602179055508173ffffffffffffffffffffffffffffffffffffffff168173ffffffffffffffffffffffffffffffffffffffff167f8be0079c531659141344cd1fd0a4f28419497f9722a3daafe3b4186f6b6457e060405160405180910390a35050565b6114928061013d5f395ff3fe608060405234801561000f575f80fd5b5060043610610114575f3560e01c80638da5cb5b116100a0578063e238b8c61161006f578063e238b8c61461027e578063e2e3a0db1461029c578063e4a13fb7146102b8578063eb4b0e51146102ea578063f2fde38b1461030857610114565b80638da5cb5b1461020a57806391b6672514610228578063d477a71214610244578063d6412cfd1461026257610114565b806332099cc4116100e757806332099cc41461018857806343aed9dc146101a6578063615ebe28146101c4578063715018a6146101e2578063878cf3a6146101ec57610114565b806302aff37814610118578063054fee6a1461013457806316bd8646146101505780631bb39f841461016c575b5f80fd5b610132600480360381019061012d9190610c8c565b610324565b005b61014e60048036038101906101499190610c8c565b610336565b005b61016a60048036038101906101659190610c8c565b610348565b005b61018660048036038101906101819190610c8c565b61035a565b005b61019061036c565b60405161019d9190610cc6565b60405180910390f35b6101ae610375565b6040516101bb9190610cfa565b60405180910390f35b6101cc61038a565b6040516101d99190610cc6565b60405180910390f35b6101ea610393565b005b6101f46103a6565b6040516102019190610cc6565b60405180910390f35b6102126103af565b60405161021f9190610d52565b60405180910390f35b610242600480360381019061023d9190610c8c565b6103d6565b005b61024c6103e8565b6040516102599190610cc6565b60405180910390f35b61027c60048036038101906102779190610d95565b6103f1565b005b610286610416565b6040516102939190610cc6565b60405180910390f35b6102b660048036038101906102b19190610c8c565b61041f565b005b6102d260048036038101906102cd9190610dc0565b610431565b6040516102e193929190610dfe565b60405180910390f35b6102f261083c565b6040516102ff9190610cc6565b60405180910390f35b610322600480360381019061031d9190610e5d565b610845565b005b61032c6108c7565b8060018190555050565b61033e6108c7565b8060028190555050565b6103506108c7565b8060068190555050565b6103626108c7565b8060048190555050565b5f600354905090565b5f8060149054906101000a900460ff16905090565b5f600454905090565b61039b6108c7565b6103a45f610945565b565b5f600154905090565b5f805f9054906101000a900473ffffffffffffffffffffffffffffffffffffffff16905090565b6103de6108c7565b8060038190555050565b5f600654905090565b6103f96108c7565b805f60146101000a81548160ff021916908360ff16021790555050565b5f600254905090565b6104276108c7565b8060058190555050565b5f805f805f60149054906101000a900460ff1660ff161461050b575f60149054906101000a900460ff1660ff1661046786610a06565b60ff1610156104ab576040517f08c379a00000000000000000000000000000000000000000000000000000000081526004016104a290610ee2565b60405180910390fd5b5f60149054906101000a900460ff1660ff166104c685610a06565b60ff16101561050a576040517f08c379a000000000000000000000000000000000000000000000000000000000815260040161050190610ee2565b60405180910390fd5b5b5f424344888860015460405160200161052996959493929190610f20565b604051602081830303815290604052805190602001205f1c90505f8103610585576040517f08c379a000000000000000000000000000000000000000000000000000000000815260040161057c90610fd9565b60405180910390fd5b60015f81548092919061059790611024565b91905055505f600160026105aa88610a16565b6105b38a610a16565b6105bd919061107a565b6105c791906110de565b6105d1919061107a565b90505f600990505f8094508896508795505f5b828160ff1610156107a4575f6106088563ffffffff166003546004546103e8610a25565b90505f61064c87858061061a90611024565b96505f6004546103e8600354600454610633919061110e565b61063d9190611141565b6106479190611182565b610a62565b82101590505f6001905061067088868061066590611024565b97505f6103e8610a62565b600a60025461067f9190611141565b106106b65760ff6106ae89878061069590611024565b985060055460016006546106a991906111b2565b610a62565b1690506106f7565b6101f46106d38987806106c890611024565b98505f6103e8610a62565b106106e9576106e28c85610abc565b90506106f6565b6106f38d85610abc565b90505b5b6005548160ff161015801561071157506006548160ff1611155b610750576040517f08c379a000000000000000000000000000000000000000000000000000000000815260040161074790611255565b60405180910390fd5b61075e898560ff1683610b08565b985061076f898560ff166001610b63565b985061078c898560ff1684610784575f610787565b60015b610bbf565b9850505050808061079c90611273565b9150506105e4565b505f8060149054906101000a900460ff1660ff1614610818576107e8895f60149054906101000a900460ff166107d98c610a06565b6107e3919061129b565b610c1b565b9650610815885f60149054906101000a900460ff166108068b610a06565b610810919061129b565b610c1b565b95505b6108228584610c35565b945061082f856001610c1b565b9450505050509250925092565b5f600554905090565b61084d6108c7565b5f73ffffffffffffffffffffffffffffffffffffffff168173ffffffffffffffffffffffffffffffffffffffff16036108bb576040517f08c379a00000000000000000000000000000000000000000000000000000000081526004016108b29061133f565b60405180910390fd5b6108c481610945565b50565b6108cf610c4e565b73ffffffffffffffffffffffffffffffffffffffff166108ed6103af565b73ffffffffffffffffffffffffffffffffffffffff1614610943576040517f08c379a000000000000000000000000000000000000000000000000000000000815260040161093a906113a7565b60405180910390fd5b565b5f805f9054906101000a900473ffffffffffffffffffffffffffffffffffffffff169050815f806101000a81548173ffffffffffffffffffffffffffffffffffffffff021916908373ffffffffffffffffffffffffffffffffffffffff1602179055508173ffffffffffffffffffffffffffffffffffffffff168173ffffffffffffffffffffffffffffffffffffffff167f8be0079c531659141344cd1fd0a4f28419497f9722a3daafe3b4186f6b6457e060405160405180910390a35050565b5f60ff60f883901c169050919050565b5f63ffffffff82169050919050565b5f838511610a35575f9050610a5a565b82828587610a43919061110e565b610a4d9190611141565b610a579190611182565b90505b949350505050565b5f8282610a6f919061110e565b8585604051602001610a829291906113c5565b604051602081830303815290604052805190602001205f1c610aa491906113f0565b90508083610ab291906111b2565b9050949350505050565b5f80600490505f600384610ad09190611420565b60ff16905060ff60085f8385610ae691906111b2565b610af091906111b2565b610afa9190611141565b86901c169250505092915050565b5f80600490505f600385610b1c9190611141565b90505f60085f8385610b2e91906111b2565b610b3891906111b2565b610b429190611141565b90508060ff901b1987169650808560ff16901b871793505050509392505050565b5f80600490505f600385610b779190611141565b90505f600860018385610b8a91906111b2565b610b9491906111b2565b610b9e9190611141565b90508060ff901b1987169650808560ff16901b871793505050509392505050565b5f80600490505f600385610bd39190611141565b90505f600860028385610be691906111b2565b610bf091906111b2565b610bfa9190611141565b90508060ff901b1987169650808560ff16901b871793505050509392505050565b5f60f88260ff16901b60088085901b901c17905092915050565b5f8163ffffffff1660048085901c901b17905092915050565b5f33905090565b5f80fd5b5f819050919050565b610c6b81610c59565b8114610c75575f80fd5b50565b5f81359050610c8681610c62565b92915050565b5f60208284031215610ca157610ca0610c55565b5b5f610cae84828501610c78565b91505092915050565b610cc081610c59565b82525050565b5f602082019050610cd95f830184610cb7565b92915050565b5f60ff82169050919050565b610cf481610cdf565b82525050565b5f602082019050610d0d5f830184610ceb565b92915050565b5f73ffffffffffffffffffffffffffffffffffffffff82169050919050565b5f610d3c82610d13565b9050919050565b610d4c81610d32565b82525050565b5f602082019050610d655f830184610d43565b92915050565b610d7481610cdf565b8114610d7e575f80fd5b50565b5f81359050610d8f81610d6b565b92915050565b5f60208284031215610daa57610da9610c55565b5b5f610db784828501610d81565b91505092915050565b5f8060408385031215610dd657610dd5610c55565b5b5f610de385828601610c78565b9250506020610df485828601610c78565b9150509250929050565b5f606082019050610e115f830186610cb7565b610e1e6020830185610cb7565b610e2b6040830184610cb7565b949350505050565b610e3c81610d32565b8114610e46575f80fd5b50565b5f81359050610e5781610e33565b92915050565b5f60208284031215610e7257610e71610c55565b5b5f610e7f84828501610e49565b91505092915050565b5f82825260208201905092915050565b7f696e73756666696369656e7420636861726765000000000000000000000000005f82015250565b5f610ecc601383610e88565b9150610ed782610e98565b602082019050919050565b5f6020820190508181035f830152610ef981610ec0565b9050919050565b5f819050919050565b610f1a610f1582610c59565b610f00565b82525050565b5f610f2b8289610f09565b602082019150610f3b8288610f09565b602082019150610f4b8287610f09565b602082019150610f5b8286610f09565b602082019150610f6b8285610f09565b602082019150610f7b8284610f09565b602082019150819050979650505050505050565b7f72616e646f6d536565642063616e2774206265203000000000000000000000005f82015250565b5f610fc3601583610e88565b9150610fce82610f8f565b602082019050919050565b5f6020820190508181035f830152610ff081610fb7565b9050919050565b7f4e487b71000000000000000000000000000000000000000000000000000000005f52601160045260245ffd5b5f61102e82610c59565b91507fffffffffffffffffffffffffffffffffffffffffffffffffffffffffffffffff82036110605761105f610ff7565b5b600182019050919050565b5f63ffffffff82169050919050565b5f6110848261106b565b915061108f8361106b565b9250828201905063ffffffff8111156110ab576110aa610ff7565b5b92915050565b7f4e487b71000000000000000000000000000000000000000000000000000000005f52601260045260245ffd5b5f6110e88261106b565b91506110f38361106b565b925082611103576111026110b1565b5b828204905092915050565b5f61111882610c59565b915061112383610c59565b925082820390508181111561113b5761113a610ff7565b5b92915050565b5f61114b82610c59565b915061115683610c59565b925082820261116481610c59565b9150828204841483151761117b5761117a610ff7565b5b5092915050565b5f61118c82610c59565b915061119783610c59565b9250826111a7576111a66110b1565b5b828204905092915050565b5f6111bc82610c59565b91506111c783610c59565b92508282019050808211156111df576111de610ff7565b5b92915050565b7f6572726f722c206272656164696e672c2070617274206964206d7573742062655f8201527f20696e2072616e67650000000000000000000000000000000000000000000000602082015250565b5f61123f602983610e88565b915061124a826111e5565b604082019050919050565b5f6020820190508181035f83015261126c81611233565b9050919050565b5f61127d82610cdf565b915060ff82036112905761128f610ff7565b5b600182019050919050565b5f6112a582610cdf565b91506112b083610cdf565b9250828203905060ff8111156112c9576112c8610ff7565b5b92915050565b7f4f776e61626c653a206e6577206f776e657220697320746865207a65726f20615f8201527f6464726573730000000000000000000000000000000000000000000000000000602082015250565b5f611329602683610e88565b9150611334826112cf565b604082019050919050565b5f6020820190508181035f8301526113568161131d565b9050919050565b7f4f776e61626c653a2063616c6c6572206973206e6f7420746865206f776e65725f82015250565b5f611391602083610e88565b915061139c8261135d565b602082019050919050565b5f6020820190508181035f8301526113be81611385565b9050919050565b5f6113d08285610f09565b6020820191506113e08284610f09565b6020820191508190509392505050565b5f6113fa82610c59565b915061140583610c59565b925082611415576114146110b1565b5b828206905092915050565b5f61142a82610cdf565b915061143583610cdf565b925082820261144381610cdf565b915080821461145557611454610ff7565b5b509291505056fea264697066735822122040893eb86ea2e91de36b6994efdc46060242cb828fada12b5a9f398a29306ffc64736f6c634300081a0033",
			"opcodes": "PUSH1 0x80 PUSH1 0x40 MSTORE PUSH1 0x1 PUSH1 0xA SSTORE PUSH1 0x24 PUSH1 0xB SSTORE CALLVALUE DUP1 ISZERO PUSH2 0x19 JUMPI PUSH0 DUP1 REVERT JUMPDEST POP PUSH1 0x40 MLOAD DUP1 PUSH1 0x40 ADD PUSH1 0x40 MSTORE DUP1 PUSH1 0x8 DUP2 MSTORE PUSH1 0x20 ADD PUSH32 0x53686F546F6B656E000000000000000000000000000000000000000000000000 DUP2 MSTORE POP PUSH1 0x40 MLOAD DUP1 PUSH1 0x40 ADD PUSH1 0x40 MSTORE DUP1 PUSH1 0x6 DUP2 MSTORE PUSH1 0x20 ADD PUSH32 0x53484F544B4E0000000000000000000000000000000000000000000000000000 DUP2 MSTORE POP DUP2 PUSH0 SWAP1 DUP2 PUSH2 0x94 SWAP2 SWAP1 PUSH2 0x459 JUMP JUMPDEST POP DUP1 PUSH1 0x1 SWAP1 DUP2 PUSH2 0xA4 SWAP2 SWAP1 PUSH2 0x459 JUMP JUMPDEST POP POP POP PUSH0 PUSH1 0x6 PUSH0 PUSH2 0x100 EXP DUP2 SLOAD DUP2 PUSH1 0xFF MUL NOT AND SWAP1 DUP4 ISZERO ISZERO MUL OR SWAP1 SSTORE POP PUSH2 0xDC PUSH2 0xD1 PUSH2 0x146 PUSH1 0x20 SHL PUSH1 0x20 SHR JUMP JUMPDEST PUSH2 0x14D PUSH1 0x20 SHL PUSH1 0x20 SHR JUMP JUMPDEST PUSH1 0x40 MLOAD PUSH2 0xE8 SWAP1 PUSH2 0x212 JUMP JUMPDEST PUSH1 0x40 MLOAD DUP1 SWAP2 SUB SWAP1 PUSH0 CREATE DUP1 ISZERO DUP1 ISZERO PUSH2 0x101 JUMPI RETURNDATASIZE PUSH0 DUP1 RETURNDATACOPY RETURNDATASIZE PUSH0 REVERT JUMPDEST POP PUSH1 0x9 PUSH0 PUSH2 0x100 EXP DUP2 SLOAD DUP2 PUSH20 0xFFFFFFFFFFFFFFFFFFFFFFFFFFFFFFFFFFFFFFFF MUL NOT AND SWAP1 DUP4 PUSH20 0xFFFFFFFFFFFFFFFFFFFFFFFFFFFFFFFFFFFFFFFF AND MUL OR SWAP1 SSTORE POP PUSH2 0x528 JUMP JUMPDEST PUSH0 CALLER SWAP1 POP SWAP1 JUMP JUMPDEST PUSH0 PUSH1 0x6 PUSH1 0x1 SWAP1 SLOAD SWAP1 PUSH2 0x100 EXP SWAP1 DIV PUSH20 0xFFFFFFFFFFFFFFFFFFFFFFFFFFFFFFFFFFFFFFFF AND SWAP1 POP DUP2 PUSH1 0x6 PUSH1 0x1 PUSH2 0x100 EXP DUP2 SLOAD DUP2 PUSH20 0xFFFFFFFFFFFFFFFFFFFFFFFFFFFFFFFFFFFFFFFF MUL NOT AND SWAP1 DUP4 PUSH20 0xFFFFFFFFFFFFFFFFFFFFFFFFFFFFFFFFFFFFFFFF AND MUL OR SWAP1 SSTORE POP DUP2 PUSH20 0xFFFFFFFFFFFFFFFFFFFFFFFFFFFFFFFFFFFFFFFF AND DUP2 PUSH20 0xFFFFFFFFFFFFFFFFFFFFFFFFFFFFFFFFFFFFFFFF AND PUSH32 0x8BE0079C531659141344CD1FD0A4F28419497F9722A3DAAFE3B4186F6B6457E0 PUSH1 0x40 MLOAD PUSH1 0x40 MLOAD DUP1 SWAP2 SUB SWAP1 LOG3 POP POP JUMP JUMPDEST PUSH2 0x15CF DUP1 PUSH2 0x40D1 DUP4 CODECOPY ADD SWAP1 JUMP JUMPDEST PUSH0 DUP2 MLOAD SWAP1 POP SWAP2 SWAP1 POP JUMP JUMPDEST PUSH32 0x4E487B7100000000000000000000000000000000000000000000000000000000 PUSH0 MSTORE PUSH1 0x41 PUSH1 0x4 MSTORE PUSH1 0x24 PUSH0 REVERT JUMPDEST PUSH32 0x4E487B7100000000000000000000000000000000000000000000000000000000 PUSH0 MSTORE PUSH1 0x22 PUSH1 0x4 MSTORE PUSH1 0x24 PUSH0 REVERT JUMPDEST PUSH0 PUSH1 0x2 DUP3 DIV SWAP1 POP PUSH1 0x1 DUP3 AND DUP1 PUSH2 0x29A JUMPI PUSH1 0x7F DUP3 AND SWAP2 POP JUMPDEST PUSH1 0x20 DUP3 LT DUP2 SUB PUSH2 0x2AD JUMPI PUSH2 0x2AC PUSH2 0x256 JUMP JUMPDEST JUMPDEST POP SWAP2 SWAP1 POP JUMP JUMPDEST PUSH0 DUP2 SWAP1 POP DUP2 PUSH0 MSTORE PUSH1 0x20 PUSH0 KECCAK256 SWAP1 POP SWAP2 SWAP1 POP JUMP JUMPDEST PUSH0 PUSH1 0x20 PUSH1 0x1F DUP4 ADD DIV SWAP1 POP SWAP2 SWAP1 POP JUMP JUMPDEST PUSH0 DUP3 DUP3 SHL SWAP1 POP SWAP3 SWAP2 POP POP JUMP JUMPDEST PUSH0 PUSH1 0x8 DUP4 MUL PUSH2 0x30F PUSH32 0xFFFFFFFFFFFFFFFFFFFFFFFFFFFFFFFFFFFFFFFFFFFFFFFFFFFFFFFFFFFFFFFF DUP3 PUSH2 0x2D4 JUMP JUMPDEST PUSH2 0x319 DUP7 DUP4 PUSH2 0x2D4 JUMP JUMPDEST SWAP6 POP DUP1 NOT DUP5 AND SWAP4 POP DUP1 DUP7 AND DUP5 OR SWAP3 POP POP POP SWAP4 SWAP3 POP POP POP JUMP JUMPDEST PUSH0 DUP2 SWAP1 POP SWAP2 SWAP1 POP JUMP JUMPDEST PUSH0 DUP2 SWAP1 POP SWAP2 SWAP1 POP JUMP JUMPDEST PUSH0 PUSH2 0x35D PUSH2 0x358 PUSH2 0x353 DUP5 PUSH2 0x331 JUMP JUMPDEST PUSH2 0x33A JUMP JUMPDEST PUSH2 0x331 JUMP JUMPDEST SWAP1 POP SWAP2 SWAP1 POP JUMP JUMPDEST PUSH0 DUP2 SWAP1 POP SWAP2 SWAP1 POP JUMP JUMPDEST PUSH2 0x376 DUP4 PUSH2 0x343 JUMP JUMPDEST PUSH2 0x38A PUSH2 0x382 DUP3 PUSH2 0x364 JUMP JUMPDEST DUP5 DUP5 SLOAD PUSH2 0x2E0 JUMP JUMPDEST DUP3 SSTORE POP POP POP POP JUMP JUMPDEST PUSH0 SWAP1 JUMP JUMPDEST PUSH2 0x39E PUSH2 0x392 JUMP JUMPDEST PUSH2 0x3A9 DUP2 DUP5 DUP5 PUSH2 0x36D JUMP JUMPDEST POP POP POP JUMP JUMPDEST JUMPDEST DUP2 DUP2 LT ISZERO PUSH2 0x3CC JUMPI PUSH2 0x3C1 PUSH0 DUP3 PUSH2 0x396 JUMP JUMPDEST PUSH1 0x1 DUP2 ADD SWAP1 POP PUSH2 0x3AF JUMP JUMPDEST POP POP JUMP JUMPDEST PUSH1 0x1F DUP3 GT ISZERO PUSH2 0x411 JUMPI PUSH2 0x3E2 DUP2 PUSH2 0x2B3 JUMP JUMPDEST PUSH2 0x3EB DUP5 PUSH2 0x2C5 JUMP JUMPDEST DUP2 ADD PUSH1 0x20 DUP6 LT ISZERO PUSH2 0x3FA JUMPI DUP2 SWAP1 POP JUMPDEST PUSH2 0x40E PUSH2 0x406 DUP6 PUSH2 0x2C5 JUMP JUMPDEST DUP4 ADD DUP3 PUSH2 0x3AE JUMP JUMPDEST POP POP JUMPDEST POP POP POP JUMP JUMPDEST PUSH0 DUP3 DUP3 SHR SWAP1 POP SWAP3 SWAP2 POP POP JUMP JUMPDEST PUSH0 PUSH2 0x431 PUSH0 NOT DUP5 PUSH1 0x8 MUL PUSH2 0x416 JUMP JUMPDEST NOT DUP1 DUP4 AND SWAP2 POP POP SWAP3 SWAP2 POP POP JUMP JUMPDEST PUSH0 PUSH2 0x449 DUP4 DUP4 PUSH2 0x422 JUMP JUMPDEST SWAP2 POP DUP3 PUSH1 0x2 MUL DUP3 OR SWAP1 POP SWAP3 SWAP2 POP POP JUMP JUMPDEST PUSH2 0x462 DUP3 PUSH2 0x21F JUMP JUMPDEST PUSH8 0xFFFFFFFFFFFFFFFF DUP2 GT ISZERO PUSH2 0x47B JUMPI PUSH2 0x47A PUSH2 0x229 JUMP JUMPDEST JUMPDEST PUSH2 0x485 DUP3 SLOAD PUSH2 0x283 JUMP JUMPDEST PUSH2 0x490 DUP3 DUP3 DUP6 PUSH2 0x3D0 JUMP JUMPDEST PUSH0 PUSH1 0x20 SWAP1 POP PUSH1 0x1F DUP4 GT PUSH1 0x1 DUP2 EQ PUSH2 0x4C1 JUMPI PUSH0 DUP5 ISZERO PUSH2 0x4AF JUMPI DUP3 DUP8 ADD MLOAD SWAP1 POP JUMPDEST PUSH2 0x4B9 DUP6 DUP3 PUSH2 0x43E JUMP JUMPDEST DUP7 SSTORE POP PUSH2 0x520 JUMP JUMPDEST PUSH1 0x1F NOT DUP5 AND PUSH2 0x4CF DUP7 PUSH2 0x2B3 JUMP JUMPDEST PUSH0 JUMPDEST DUP3 DUP2 LT ISZERO PUSH2 0x4F6 JUMPI DUP5 DUP10 ADD MLOAD DUP3 SSTORE PUSH1 0x1 DUP3 ADD SWAP2 POP PUSH1 0x20 DUP6 ADD SWAP5 POP PUSH1 0x20 DUP2 ADD SWAP1 POP PUSH2 0x4D1 JUMP JUMPDEST DUP7 DUP4 LT ISZERO PUSH2 0x513 JUMPI DUP5 DUP10 ADD MLOAD PUSH2 0x50F PUSH1 0x1F DUP10 AND DUP3 PUSH2 0x422 JUMP JUMPDEST DUP4 SSTORE POP JUMPDEST PUSH1 0x1 PUSH1 0x2 DUP9 MUL ADD DUP9 SSTORE POP POP POP JUMPDEST POP POP POP POP POP POP JUMP JUMPDEST PUSH2 0x3B9C DUP1 PUSH2 0x535 PUSH0 CODECOPY PUSH0 RETURN INVALID PUSH1 0x80 PUSH1 0x40 MSTORE CALLVALUE DUP1 ISZERO PUSH2 0xF JUMPI PUSH0 DUP1 REVERT JUMPDEST POP PUSH1 0x4 CALLDATASIZE LT PUSH2 0x1EE JUMPI PUSH0 CALLDATALOAD PUSH1 0xE0 SHR DUP1 PUSH4 0x8C5527CF GT PUSH2 0x10D JUMPI DUP1 PUSH4 0xC87B56DD GT PUSH2 0xA0 JUMPI DUP1 PUSH4 0xE985E9C5 GT PUSH2 0x6F JUMPI DUP1 PUSH4 0xE985E9C5 EQ PUSH2 0x556 JUMPI DUP1 PUSH4 0xEB4B0E51 EQ PUSH2 0x586 JUMPI DUP1 PUSH4 0xF2FDE38B EQ PUSH2 0x5A4 JUMPI DUP1 PUSH4 0xFBBE20A9 EQ PUSH2 0x5C0 JUMPI PUSH2 0x1EE JUMP JUMPDEST DUP1 PUSH4 0xC87B56DD EQ PUSH2 0x4BA JUMPI DUP1 PUSH4 0xD477A712 EQ PUSH2 0x4EA JUMPI DUP1 PUSH4 0xE2E3A0DB EQ PUSH2 0x508 JUMPI DUP1 PUSH4 0xE4B50CB8 EQ PUSH2 0x524 JUMPI PUSH2 0x1EE JUMP JUMPDEST DUP1 PUSH4 0xA22CB465 GT PUSH2 0xDC JUMPI DUP1 PUSH4 0xA22CB465 EQ PUSH2 0x448 JUMPI DUP1 PUSH4 0xAFA69D49 EQ PUSH2 0x464 JUMPI DUP1 PUSH4 0xB88D4FDE EQ PUSH2 0x480 JUMPI DUP1 PUSH4 0xC3B1F0B4 EQ PUSH2 0x49C JUMPI PUSH2 0x1EE JUMP JUMPDEST DUP1 PUSH4 0x8C5527CF EQ PUSH2 0x3C0 JUMPI DUP1 PUSH4 0x8DA5CB5B EQ PUSH2 0x3DC JUMPI DUP1 PUSH4 0x95D89B41 EQ PUSH2 0x3FA JUMPI DUP1 PUSH4 0xA0712D68 EQ PUSH2 0x418 JUMPI PUSH2 0x1EE JUMP JUMPDEST DUP1 PUSH4 0x3F4BA83A GT PUSH2 0x185 JUMPI DUP1 PUSH4 0x6352211E GT PUSH2 0x154 JUMPI DUP1 PUSH4 0x6352211E EQ PUSH2 0x34C JUMPI DUP1 PUSH4 0x70A08231 EQ PUSH2 0x37C JUMPI DUP1 PUSH4 0x715018A6 EQ PUSH2 0x3AC JUMPI DUP1 PUSH4 0x8456CB59 EQ PUSH2 0x3B6 JUMPI PUSH2 0x1EE JUMP JUMPDEST DUP1 PUSH4 0x3F4BA83A EQ PUSH2 0x2EC JUMPI DUP1 PUSH4 0x42842E0E EQ PUSH2 0x2F6 JUMPI DUP1 PUSH4 0x42966C68 EQ PUSH2 0x312 JUMPI DUP1 PUSH4 0x5C975ABB EQ PUSH2 0x32E JUMPI PUSH2 0x1EE JUMP JUMPDEST DUP1 PUSH4 0x16BD8646 GT PUSH2 0x1C1 JUMPI DUP1 PUSH4 0x16BD8646 EQ PUSH2 0x28C JUMPI DUP1 PUSH4 0x18160DDD EQ PUSH2 0x2A8 JUMPI DUP1 PUSH4 0x23B872DD EQ PUSH2 0x2C6 JUMPI DUP1 PUSH4 0x3CCFD60B EQ PUSH2 0x2E2 JUMPI PUSH2 0x1EE JUMP JUMPDEST DUP1 PUSH4 0x1FFC9A7 EQ PUSH2 0x1F2 JUMPI DUP1 PUSH4 0x6FDDE03 EQ PUSH2 0x222 JUMPI DUP1 PUSH4 0x81812FC EQ PUSH2 0x240 JUMPI DUP1 PUSH4 0x95EA7B3 EQ PUSH2 0x270 JUMPI JUMPDEST PUSH0 DUP1 REVERT JUMPDEST PUSH2 0x20C PUSH1 0x4 DUP1 CALLDATASIZE SUB DUP2 ADD SWAP1 PUSH2 0x207 SWAP2 SWAP1 PUSH2 0x2792 JUMP JUMPDEST PUSH2 0x5F0 JUMP JUMPDEST PUSH1 0x40 MLOAD PUSH2 0x219 SWAP2 SWAP1 PUSH2 0x27D7 JUMP JUMPDEST PUSH1 0x40 MLOAD DUP1 SWAP2 SUB SWAP1 RETURN JUMPDEST PUSH2 0x22A PUSH2 0x6D1 JUMP JUMPDEST PUSH1 0x40 MLOAD PUSH2 0x237 SWAP2 SWAP1 PUSH2 0x2860 JUMP JUMPDEST PUSH1 0x40 MLOAD DUP1 SWAP2 SUB SWAP1 RETURN JUMPDEST PUSH2 0x25A PUSH1 0x4 DUP1 CALLDATASIZE SUB DUP2 ADD SWAP1 PUSH2 0x255 SWAP2 SWAP1 PUSH2 0x28B3 JUMP JUMPDEST PUSH2 0x760 JUMP JUMPDEST PUSH1 0x40 MLOAD PUSH2 0x267 SWAP2 SWAP1 PUSH2 0x291D JUMP JUMPDEST PUSH1 0x40 MLOAD DUP1 SWAP2 SUB SWAP1 RETURN JUMPDEST PUSH2 0x28A PUSH1 0x4 DUP1 CALLDATASIZE SUB DUP2 ADD SWAP1 PUSH2 0x285 SWAP2 SWAP1 PUSH2 0x2960 JUMP JUMPDEST PUSH2 0x7A2 JUMP JUMPDEST STOP JUMPDEST PUSH2 0x2A6 PUSH1 0x4 DUP1 CALLDATASIZE SUB DUP2 ADD SWAP1 PUSH2 0x2A1 SWAP2 SWAP1 PUSH2 0x28B3 JUMP JUMPDEST PUSH2 0x8B8 JUMP JUMPDEST STOP JUMPDEST PUSH2 0x2B0 PUSH2 0x8CA JUMP JUMPDEST PUSH1 0x40 MLOAD PUSH2 0x2BD SWAP2 SWAP1 PUSH2 0x29AD JUMP JUMPDEST PUSH1 0x40 MLOAD DUP1 SWAP2 SUB SWAP1 RETURN JUMPDEST PUSH2 0x2E0 PUSH1 0x4 DUP1 CALLDATASIZE SUB DUP2 ADD SWAP1 PUSH2 0x2DB SWAP2 SWAP1 PUSH2 0x29C6 JUMP JUMPDEST PUSH2 0x8DA JUMP JUMPDEST STOP JUMPDEST PUSH2 0x2EA PUSH2 0x93A JUMP JUMPDEST STOP JUMPDEST PUSH2 0x2F4 PUSH2 0x9BD JUMP JUMPDEST STOP JUMPDEST PUSH2 0x310 PUSH1 0x4 DUP1 CALLDATASIZE SUB DUP2 ADD SWAP1 PUSH2 0x30B SWAP2 SWAP1 PUSH2 0x29C6 JUMP JUMPDEST PUSH2 0x9CF JUMP JUMPDEST STOP JUMPDEST PUSH2 0x32C PUSH1 0x4 DUP1 CALLDATASIZE SUB DUP2 ADD SWAP1 PUSH2 0x327 SWAP2 SWAP1 PUSH2 0x28B3 JUMP JUMPDEST PUSH2 0x9EE JUMP JUMPDEST STOP JUMPDEST PUSH2 0x336 PUSH2 0xA4A JUMP JUMPDEST PUSH1 0x40 MLOAD PUSH2 0x343 SWAP2 SWAP1 PUSH2 0x27D7 JUMP JUMPDEST PUSH1 0x40 MLOAD DUP1 SWAP2 SUB SWAP1 RETURN JUMPDEST PUSH2 0x366 PUSH1 0x4 DUP1 CALLDATASIZE SUB DUP2 ADD SWAP1 PUSH2 0x361 SWAP2 SWAP1 PUSH2 0x28B3 JUMP JUMPDEST PUSH2 0xA5F JUMP JUMPDEST PUSH1 0x40 MLOAD PUSH2 0x373 SWAP2 SWAP1 PUSH2 0x291D JUMP JUMPDEST PUSH1 0x40 MLOAD DUP1 SWAP2 SUB SWAP1 RETURN JUMPDEST PUSH2 0x396 PUSH1 0x4 DUP1 CALLDATASIZE SUB DUP2 ADD SWAP1 PUSH2 0x391 SWAP2 SWAP1 PUSH2 0x2A16 JUMP JUMPDEST PUSH2 0xAE3 JUMP JUMPDEST PUSH1 0x40 MLOAD PUSH2 0x3A3 SWAP2 SWAP1 PUSH2 0x29AD JUMP JUMPDEST PUSH1 0x40 MLOAD DUP1 SWAP2 SUB SWAP1 RETURN JUMPDEST PUSH2 0x3B4 PUSH2 0xB97 JUMP JUMPDEST STOP JUMPDEST PUSH2 0x3BE PUSH2 0xBAA JUMP JUMPDEST STOP JUMPDEST PUSH2 0x3DA PUSH1 0x4 DUP1 CALLDATASIZE SUB DUP2 ADD SWAP1 PUSH2 0x3D5 SWAP2 SWAP1 PUSH2 0x2A16 JUMP JUMPDEST PUSH2 0xBBC JUMP JUMPDEST STOP JUMPDEST PUSH2 0x3E4 PUSH2 0xC07 JUMP JUMPDEST PUSH1 0x40 MLOAD PUSH2 0x3F1 SWAP2 SWAP1 PUSH2 0x291D JUMP JUMPDEST PUSH1 0x40 MLOAD DUP1 SWAP2 SUB SWAP1 RETURN JUMPDEST PUSH2 0x402 PUSH2 0xC30 JUMP JUMPDEST PUSH1 0x40 MLOAD PUSH2 0x40F SWAP2 SWAP1 PUSH2 0x2860 JUMP JUMPDEST PUSH1 0x40 MLOAD DUP1 SWAP2 SUB SWAP1 RETURN JUMPDEST PUSH2 0x432 PUSH1 0x4 DUP1 CALLDATASIZE SUB DUP2 ADD SWAP1 PUSH2 0x42D SWAP2 SWAP1 PUSH2 0x28B3 JUMP JUMPDEST PUSH2 0xCC0 JUMP JUMPDEST PUSH1 0x40 MLOAD PUSH2 0x43F SWAP2 SWAP1 PUSH2 0x29AD JUMP JUMPDEST PUSH1 0x40 MLOAD DUP1 SWAP2 SUB SWAP1 RETURN JUMPDEST PUSH2 0x462 PUSH1 0x4 DUP1 CALLDATASIZE SUB DUP2 ADD SWAP1 PUSH2 0x45D SWAP2 SWAP1 PUSH2 0x2A6B JUMP JUMPDEST PUSH2 0xCDB JUMP JUMPDEST STOP JUMPDEST PUSH2 0x47E PUSH1 0x4 DUP1 CALLDATASIZE SUB DUP2 ADD SWAP1 PUSH2 0x479 SWAP2 SWAP1 PUSH2 0x2ADF JUMP JUMPDEST PUSH2 0xCF1 JUMP JUMPDEST STOP JUMPDEST PUSH2 0x49A PUSH1 0x4 DUP1 CALLDATASIZE SUB DUP2 ADD SWAP1 PUSH2 0x495 SWAP2 SWAP1 PUSH2 0x2C49 JUMP JUMPDEST PUSH2 0xDD1 JUMP JUMPDEST STOP JUMPDEST PUSH2 0x4A4 PUSH2 0xE33 JUMP JUMPDEST PUSH1 0x40 MLOAD PUSH2 0x4B1 SWAP2 SWAP1 PUSH2 0x291D JUMP JUMPDEST PUSH1 0x40 MLOAD DUP1 SWAP2 SUB SWAP1 RETURN JUMPDEST PUSH2 0x4D4 PUSH1 0x4 DUP1 CALLDATASIZE SUB DUP2 ADD SWAP1 PUSH2 0x4CF SWAP2 SWAP1 PUSH2 0x28B3 JUMP JUMPDEST PUSH2 0xE5B JUMP JUMPDEST PUSH1 0x40 MLOAD PUSH2 0x4E1 SWAP2 SWAP1 PUSH2 0x2860 JUMP JUMPDEST PUSH1 0x40 MLOAD DUP1 SWAP2 SUB SWAP1 RETURN JUMPDEST PUSH2 0x4F2 PUSH2 0xEDD JUMP JUMPDEST PUSH1 0x40 MLOAD PUSH2 0x4FF SWAP2 SWAP1 PUSH2 0x29AD JUMP JUMPDEST PUSH1 0x40 MLOAD DUP1 SWAP2 SUB SWAP1 RETURN JUMPDEST PUSH2 0x522 PUSH1 0x4 DUP1 CALLDATASIZE SUB DUP2 ADD SWAP1 PUSH2 0x51D SWAP2 SWAP1 PUSH2 0x28B3 JUMP JUMPDEST PUSH2 0xEE6 JUMP JUMPDEST STOP JUMPDEST PUSH2 0x53E PUSH1 0x4 DUP1 CALLDATASIZE SUB DUP2 ADD SWAP1 PUSH2 0x539 SWAP2 SWAP1 PUSH2 0x28B3 JUMP JUMPDEST PUSH2 0xEF8 JUMP JUMPDEST PUSH1 0x40 MLOAD PUSH2 0x54D SWAP4 SWAP3 SWAP2 SWAP1 PUSH2 0x2CC9 JUMP JUMPDEST PUSH1 0x40 MLOAD DUP1 SWAP2 SUB SWAP1 RETURN JUMPDEST PUSH2 0x570 PUSH1 0x4 DUP1 CALLDATASIZE SUB DUP2 ADD SWAP1 PUSH2 0x56B SWAP2 SWAP1 PUSH2 0x2CFE JUMP JUMPDEST PUSH2 0xF2B JUMP JUMPDEST PUSH1 0x40 MLOAD PUSH2 0x57D SWAP2 SWAP1 PUSH2 0x27D7 JUMP JUMPDEST PUSH1 0x40 MLOAD DUP1 SWAP2 SUB SWAP1 RETURN JUMPDEST PUSH2 0x58E PUSH2 0xFB9 JUMP JUMPDEST PUSH1 0x40 MLOAD PUSH2 0x59B SWAP2 SWAP1 PUSH2 0x29AD JUMP JUMPDEST PUSH1 0x40 MLOAD DUP1 SWAP2 SUB SWAP1 RETURN JUMPDEST PUSH2 0x5BE PUSH1 0x4 DUP1 CALLDATASIZE SUB DUP2 ADD SWAP1 PUSH2 0x5B9 SWAP2 SWAP1 PUSH2 0x2A16 JUMP JUMPDEST PUSH2 0xFC2 JUMP JUMPDEST STOP JUMPDEST PUSH2 0x5DA PUSH1 0x4 DUP1 CALLDATASIZE SUB DUP2 ADD SWAP1 PUSH2 0x5D5 SWAP2 SWAP1 PUSH2 0x2D3C JUMP JUMPDEST PUSH2 0x1044 JUMP JUMPDEST PUSH1 0x40 MLOAD PUSH2 0x5E7 SWAP2 SWAP1 PUSH2 0x29AD JUMP JUMPDEST PUSH1 0x40 MLOAD DUP1 SWAP2 SUB SWAP1 RETURN JUMPDEST PUSH0 PUSH32 0x80AC58CD00000000000000000000000000000000000000000000000000000000 PUSH28 0xFFFFFFFFFFFFFFFFFFFFFFFFFFFFFFFFFFFFFFFFFFFFFFFFFFFFFFFF NOT AND DUP3 PUSH28 0xFFFFFFFFFFFFFFFFFFFFFFFFFFFFFFFFFFFFFFFFFFFFFFFFFFFFFFFF NOT AND EQ DUP1 PUSH2 0x6BA JUMPI POP PUSH32 0x5B5E139F00000000000000000000000000000000000000000000000000000000 PUSH28 0xFFFFFFFFFFFFFFFFFFFFFFFFFFFFFFFFFFFFFFFFFFFFFFFFFFFFFFFF NOT AND DUP3 PUSH28 0xFFFFFFFFFFFFFFFFFFFFFFFFFFFFFFFFFFFFFFFFFFFFFFFFFFFFFFFF NOT AND EQ JUMPDEST DUP1 PUSH2 0x6CA JUMPI POP PUSH2 0x6C9 DUP3 PUSH2 0x11DC JUMP JUMPDEST JUMPDEST SWAP1 POP SWAP2 SWAP1 POP JUMP JUMPDEST PUSH1 0x60 PUSH0 DUP1 SLOAD PUSH2 0x6DF SWAP1 PUSH2 0x2DA7 JUMP JUMPDEST DUP1 PUSH1 0x1F ADD PUSH1 0x20 DUP1 SWAP2 DIV MUL PUSH1 0x20 ADD PUSH1 0x40 MLOAD SWAP1 DUP2 ADD PUSH1 0x40 MSTORE DUP1 SWAP3 SWAP2 SWAP1 DUP2 DUP2 MSTORE PUSH1 0x20 ADD DUP3 DUP1 SLOAD PUSH2 0x70B SWAP1 PUSH2 0x2DA7 JUMP JUMPDEST DUP1 ISZERO PUSH2 0x756 JUMPI DUP1 PUSH1 0x1F LT PUSH2 0x72D JUMPI PUSH2 0x100 DUP1 DUP4 SLOAD DIV MUL DUP4 MSTORE SWAP2 PUSH1 0x20 ADD SWAP2 PUSH2 0x756 JUMP JUMPDEST DUP3 ADD SWAP2 SWAP1 PUSH0 MSTORE PUSH1 0x20 PUSH0 KECCAK256 SWAP1 JUMPDEST DUP2 SLOAD DUP2 MSTORE SWAP1 PUSH1 0x1 ADD SWAP1 PUSH1 0x20 ADD DUP1 DUP4 GT PUSH2 0x739 JUMPI DUP3 SWAP1 SUB PUSH1 0x1F AND DUP3 ADD SWAP2 JUMPDEST POP POP POP POP POP SWAP1 POP SWAP1 JUMP JUMPDEST PUSH0 PUSH2 0x76A DUP3 PUSH2 0x1245 JUMP JUMPDEST PUSH1 0x4 PUSH0 DUP4 DUP2 MSTORE PUSH1 0x20 ADD SWAP1 DUP2 MSTORE PUSH1 0x20 ADD PUSH0 KECCAK256 PUSH0 SWAP1 SLOAD SWAP1 PUSH2 0x100 EXP SWAP1 DIV PUSH20 0xFFFFFFFFFFFFFFFFFFFFFFFFFFFFFFFFFFFFFFFF AND SWAP1 POP SWAP2 SWAP1 POP JUMP JUMPDEST PUSH0 PUSH2 0x7AC DUP3 PUSH2 0xA5F JUMP JUMPDEST SWAP1 POP DUP1 PUSH20 0xFFFFFFFFFFFFFFFFFFFFFFFFFFFFFFFFFFFFFFFF AND DUP4 PUSH20 0xFFFFFFFFFFFFFFFFFFFFFFFFFFFFFFFFFFFFFFFF AND SUB PUSH2 0x81C JUMPI PUSH1 0x40 MLOAD PUSH32 0x8C379A000000000000000000000000000000000000000000000000000000000 DUP2 MSTORE PUSH1 0x4 ADD PUSH2 0x813 SWAP1 PUSH2 0x2E47 JUMP JUMPDEST PUSH1 0x40 MLOAD DUP1 SWAP2 SUB SWAP1 REVERT JUMPDEST DUP1 PUSH20 0xFFFFFFFFFFFFFFFFFFFFFFFFFFFFFFFFFFFFFFFF AND PUSH2 0x83B PUSH2 0x1290 JUMP JUMPDEST PUSH20 0xFFFFFFFFFFFFFFFFFFFFFFFFFFFFFFFFFFFFFFFF AND EQ DUP1 PUSH2 0x86A JUMPI POP PUSH2 0x869 DUP2 PUSH2 0x864 PUSH2 0x1290 JUMP JUMPDEST PUSH2 0xF2B JUMP JUMPDEST JUMPDEST PUSH2 0x8A9 JUMPI PUSH1 0x40 MLOAD PUSH32 0x8C379A000000000000000000000000000000000000000000000000000000000 DUP2 MSTORE PUSH1 0x4 ADD PUSH2 0x8A0 SWAP1 PUSH2 0x2ED5 JUMP JUMPDEST PUSH1 0x40 MLOAD DUP1 SWAP2 SUB SWAP1 REVERT JUMPDEST PUSH2 0x8B3 DUP4 DUP4 PUSH2 0x1297 JUMP JUMPDEST POP POP POP JUMP JUMPDEST PUSH2 0x8C0 PUSH2 0x134D JUMP JUMPDEST DUP1 PUSH1 0xB DUP2 SWAP1 SSTORE POP POP JUMP JUMPDEST PUSH0 PUSH2 0x8D5 PUSH1 0x7 PUSH2 0x13CB JUMP JUMPDEST SWAP1 POP SWAP1 JUMP JUMPDEST PUSH2 0x8EB PUSH2 0x8E5 PUSH2 0x1290 JUMP JUMPDEST DUP3 PUSH2 0x13D7 JUMP JUMPDEST PUSH2 0x92A JUMPI PUSH1 0x40 MLOAD PUSH32 0x8C379A000000000000000000000000000000000000000000000000000000000 DUP2 MSTORE PUSH1 0x4 ADD PUSH2 0x921 SWAP1 PUSH2 0x2F63 JUMP JUMPDEST PUSH1 0x40 MLOAD DUP1 SWAP2 SUB SWAP1 REVERT JUMPDEST PUSH2 0x935 DUP4 DUP4 DUP4 PUSH2 0x146B JUMP JUMPDEST POP POP POP JUMP JUMPDEST PUSH2 0x942 PUSH2 0x134D JUMP JUMPDEST PUSH0 PUSH2 0x94B PUSH2 0xC07 JUMP JUMPDEST PUSH20 0xFFFFFFFFFFFFFFFFFFFFFFFFFFFFFFFFFFFFFFFF AND SELFBALANCE PUSH1 0x40 MLOAD PUSH2 0x96E SWAP1 PUSH2 0x2FAE JUMP JUMPDEST PUSH0 PUSH1 0x40 MLOAD DUP1 DUP4 SUB DUP2 DUP6 DUP8 GAS CALL SWAP3 POP POP POP RETURNDATASIZE DUP1 PUSH0 DUP2 EQ PUSH2 0x9A8 JUMPI PUSH1 0x40 MLOAD SWAP2 POP PUSH1 0x1F NOT PUSH1 0x3F RETURNDATASIZE ADD AND DUP3 ADD PUSH1 0x40 MSTORE RETURNDATASIZE DUP3 MSTORE RETURNDATASIZE PUSH0 PUSH1 0x20 DUP5 ADD RETURNDATACOPY PUSH2 0x9AD JUMP JUMPDEST PUSH1 0x60 SWAP2 POP JUMPDEST POP POP SWAP1 POP DUP1 PUSH2 0x9BA JUMPI PUSH0 DUP1 REVERT JUMPDEST POP JUMP JUMPDEST PUSH2 0x9C5 PUSH2 0x134D JUMP JUMPDEST PUSH2 0x9CD PUSH2 0x1757 JUMP JUMPDEST JUMP JUMPDEST PUSH2 0x9E9 DUP4 DUP4 DUP4 PUSH1 0x40 MLOAD DUP1 PUSH1 0x20 ADD PUSH1 0x40 MSTORE DUP1 PUSH0 DUP2 MSTORE POP PUSH2 0xDD1 JUMP JUMPDEST POP POP POP JUMP JUMPDEST PUSH2 0x9FF PUSH2 0x9F9 PUSH2 0x1290 JUMP JUMPDEST DUP3 PUSH2 0x13D7 JUMP JUMPDEST PUSH2 0xA3E JUMPI PUSH1 0x40 MLOAD PUSH32 0x8C379A000000000000000000000000000000000000000000000000000000000 DUP2 MSTORE PUSH1 0x4 ADD PUSH2 0xA35 SWAP1 PUSH2 0x2F63 JUMP JUMPDEST PUSH1 0x40 MLOAD DUP1 SWAP2 SUB SWAP1 REVERT JUMPDEST PUSH2 0xA47 DUP2 PUSH2 0x17B8 JUMP JUMPDEST POP JUMP JUMPDEST PUSH0 PUSH1 0x6 PUSH0 SWAP1 SLOAD SWAP1 PUSH2 0x100 EXP SWAP1 DIV PUSH1 0xFF AND SWAP1 POP SWAP1 JUMP JUMPDEST PUSH0 DUP1 PUSH2 0xA6A DUP4 PUSH2 0x18F9 JUMP JUMPDEST SWAP1 POP PUSH0 PUSH20 0xFFFFFFFFFFFFFFFFFFFFFFFFFFFFFFFFFFFFFFFF AND DUP2 PUSH20 0xFFFFFFFFFFFFFFFFFFFFFFFFFFFFFFFFFFFFFFFF AND SUB PUSH2 0xADA JUMPI PUSH1 0x40 MLOAD PUSH32 0x8C379A000000000000000000000000000000000000000000000000000000000 DUP2 MSTORE PUSH1 0x4 ADD PUSH2 0xAD1 SWAP1 PUSH2 0x300C JUMP JUMPDEST PUSH1 0x40 MLOAD DUP1 SWAP2 SUB SWAP1 REVERT JUMPDEST DUP1 SWAP2 POP POP SWAP2 SWAP1 POP JUMP JUMPDEST PUSH0 DUP1 PUSH20 0xFFFFFFFFFFFFFFFFFFFFFFFFFFFFFFFFFFFFFFFF AND DUP3 PUSH20 0xFFFFFFFFFFFFFFFFFFFFFFFFFFFFFFFFFFFFFFFF AND SUB PUSH2 0xB52 JUMPI PUSH1 0x40 MLOAD PUSH32 0x8C379A000000000000000000000000000000000000000000000000000000000 DUP2 MSTORE PUSH1 0x4 ADD PUSH2 0xB49 SWAP1 PUSH2 0x309A JUMP JUMPDEST PUSH1 0x40 MLOAD DUP1 SWAP2 SUB SWAP1 REVERT JUMPDEST PUSH1 0x3 PUSH0 DUP4 PUSH20 0xFFFFFFFFFFFFFFFFFFFFFFFFFFFFFFFFFFFFFFFF AND PUSH20 0xFFFFFFFFFFFFFFFFFFFFFFFFFFFFFFFFFFFFFFFF AND DUP2 MSTORE PUSH1 0x20 ADD SWAP1 DUP2 MSTORE PUSH1 0x20 ADD PUSH0 KECCAK256 SLOAD SWAP1 POP SWAP2 SWAP1 POP JUMP JUMPDEST PUSH2 0xB9F PUSH2 0x134D JUMP JUMPDEST PUSH2 0xBA8 PUSH0 PUSH2 0x1932 JUMP JUMPDEST JUMP JUMPDEST PUSH2 0xBB2 PUSH2 0x134D JUMP JUMPDEST PUSH2 0xBBA PUSH2 0x19F7 JUMP JUMPDEST JUMP JUMPDEST PUSH2 0xBC4 PUSH2 0x134D JUMP JUMPDEST DUP1 PUSH1 0x9 PUSH0 PUSH2 0x100 EXP DUP2 SLOAD DUP2 PUSH20 0xFFFFFFFFFFFFFFFFFFFFFFFFFFFFFFFFFFFFFFFF MUL NOT AND SWAP1 DUP4 PUSH20 0xFFFFFFFFFFFFFFFFFFFFFFFFFFFFFFFFFFFFFFFF AND MUL OR SWAP1 SSTORE POP POP JUMP JUMPDEST PUSH0 PUSH1 0x6 PUSH1 0x1 SWAP1 SLOAD SWAP1 PUSH2 0x100 EXP SWAP1 DIV PUSH20 0xFFFFFFFFFFFFFFFFFFFFFFFFFFFFFFFFFFFFFFFF AND SWAP1 POP SWAP1 JUMP JUMPDEST PUSH1 0x60 PUSH1 0x1 DUP1 SLOAD PUSH2 0xC3F SWAP1 PUSH2 0x2DA7 JUMP JUMPDEST DUP1 PUSH1 0x1F ADD PUSH1 0x20 DUP1 SWAP2 DIV MUL PUSH1 0x20 ADD PUSH1 0x40 MLOAD SWAP1 DUP2 ADD PUSH1 0x40 MSTORE DUP1 SWAP3 SWAP2 SWAP1 DUP2 DUP2 MSTORE PUSH1 0x20 ADD DUP3 DUP1 SLOAD PUSH2 0xC6B SWAP1 PUSH2 0x2DA7 JUMP JUMPDEST DUP1 ISZERO PUSH2 0xCB6 JUMPI DUP1 PUSH1 0x1F LT PUSH2 0xC8D JUMPI PUSH2 0x100 DUP1 DUP4 SLOAD DIV MUL DUP4 MSTORE SWAP2 PUSH1 0x20 ADD SWAP2 PUSH2 0xCB6 JUMP JUMPDEST DUP3 ADD SWAP2 SWAP1 PUSH0 MSTORE PUSH1 0x20 PUSH0 KECCAK256 SWAP1 JUMPDEST DUP2 SLOAD DUP2 MSTORE SWAP1 PUSH1 0x1 ADD SWAP1 PUSH1 0x20 ADD DUP1 DUP4 GT PUSH2 0xC99 JUMPI DUP3 SWAP1 SUB PUSH1 0x1F AND DUP3 ADD SWAP2 JUMPDEST POP POP POP POP POP SWAP1 POP SWAP1 JUMP JUMPDEST PUSH0 PUSH2 0xCC9 PUSH2 0x134D JUMP JUMPDEST PUSH2 0xCD4 PUSH0 DUP1 DUP5 PUSH2 0x1A59 JUMP JUMPDEST SWAP1 POP SWAP2 SWAP1 POP JUMP JUMPDEST PUSH2 0xCED PUSH2 0xCE6 PUSH2 0x1290 JUMP JUMPDEST DUP4 DUP4 PUSH2 0x1BFB JUMP JUMPDEST POP POP JUMP JUMPDEST PUSH2 0xCF9 PUSH2 0x134D JUMP JUMPDEST PUSH2 0xD02 DUP3 PUSH2 0x1D62 JUMP JUMPDEST PUSH2 0xD41 JUMPI PUSH1 0x40 MLOAD PUSH32 0x8C379A000000000000000000000000000000000000000000000000000000000 DUP2 MSTORE PUSH1 0x4 ADD PUSH2 0xD38 SWAP1 PUSH2 0x3102 JUMP JUMPDEST PUSH1 0x40 MLOAD DUP1 SWAP2 SUB SWAP1 REVERT JUMPDEST PUSH0 PUSH1 0x8 PUSH0 DUP5 DUP2 MSTORE PUSH1 0x20 ADD SWAP1 DUP2 MSTORE PUSH1 0x20 ADD PUSH0 KECCAK256 PUSH1 0x2 ADD SLOAD SWAP1 POP PUSH0 PUSH2 0xD77 DUP3 DUP5 PUSH2 0xD68 DUP6 PUSH2 0x1DA2 JUMP JUMPDEST PUSH2 0xD72 SWAP2 SWAP1 PUSH2 0x314D JUMP JUMPDEST PUSH2 0x1DB2 JUMP JUMPDEST SWAP1 POP DUP1 PUSH1 0x8 PUSH0 DUP7 DUP2 MSTORE PUSH1 0x20 ADD SWAP1 DUP2 MSTORE PUSH1 0x20 ADD PUSH0 KECCAK256 PUSH1 0x2 ADD DUP2 SWAP1 SSTORE POP PUSH32 0xA4B06760D9E334049C680F60B4BEFF0728AF9BB459B8698D252972B10C4F3E55 DUP5 DUP3 PUSH1 0x40 MLOAD PUSH2 0xDC3 SWAP3 SWAP2 SWAP1 PUSH2 0x3181 JUMP JUMPDEST PUSH1 0x40 MLOAD DUP1 SWAP2 SUB SWAP1 LOG1 POP POP POP POP JUMP JUMPDEST PUSH2 0xDE2 PUSH2 0xDDC PUSH2 0x1290 JUMP JUMPDEST DUP4 PUSH2 0x13D7 JUMP JUMPDEST PUSH2 0xE21 JUMPI PUSH1 0x40 MLOAD PUSH32 0x8C379A000000000000000000000000000000000000000000000000000000000 DUP2 MSTORE PUSH1 0x4 ADD PUSH2 0xE18 SWAP1 PUSH2 0x2F63 JUMP JUMPDEST PUSH1 0x40 MLOAD DUP1 SWAP2 SUB SWAP1 REVERT JUMPDEST PUSH2 0xE2D DUP5 DUP5 DUP5 DUP5 PUSH2 0x1DCC JUMP JUMPDEST POP POP POP POP JUMP JUMPDEST PUSH0 PUSH1 0x9 PUSH0 SWAP1 SLOAD SWAP1 PUSH2 0x100 EXP SWAP1 DIV PUSH20 0xFFFFFFFFFFFFFFFFFFFFFFFFFFFFFFFFFFFFFFFF AND SWAP1 POP SWAP1 JUMP JUMPDEST PUSH1 0x60 PUSH2 0xE66 DUP3 PUSH2 0x1D62 JUMP JUMPDEST PUSH2 0xEA5 JUMPI PUSH1 0x40 MLOAD PUSH32 0x8C379A000000000000000000000000000000000000000000000000000000000 DUP2 MSTORE PUSH1 0x4 ADD PUSH2 0xE9C SWAP1 PUSH2 0x3218 JUMP JUMPDEST PUSH1 0x40 MLOAD DUP1 SWAP2 SUB SWAP1 REVERT JUMPDEST PUSH2 0xEAD PUSH2 0x1E28 JUMP JUMPDEST PUSH2 0xEB6 DUP4 PUSH2 0x1E65 JUMP JUMPDEST PUSH1 0x40 MLOAD PUSH1 0x20 ADD PUSH2 0xEC7 SWAP3 SWAP2 SWAP1 PUSH2 0x32BA JUMP JUMPDEST PUSH1 0x40 MLOAD PUSH1 0x20 DUP2 DUP4 SUB SUB DUP2 MSTORE SWAP1 PUSH1 0x40 MSTORE SWAP1 POP SWAP2 SWAP1 POP JUMP JUMPDEST PUSH0 PUSH1 0xB SLOAD SWAP1 POP SWAP1 JUMP JUMPDEST PUSH2 0xEEE PUSH2 0x134D JUMP JUMPDEST DUP1 PUSH1 0xA DUP2 SWAP1 SSTORE POP POP JUMP JUMPDEST PUSH0 DUP1 PUSH0 DUP1 PUSH1 0x8 PUSH0 DUP7 DUP2 MSTORE PUSH1 0x20 ADD SWAP1 DUP2 MSTORE PUSH1 0x20 ADD PUSH0 KECCAK256 SWAP1 POP DUP1 PUSH0 ADD SLOAD DUP2 PUSH1 0x1 ADD SLOAD DUP3 PUSH1 0x2 ADD SLOAD SWAP4 POP SWAP4 POP SWAP4 POP POP SWAP2 SWAP4 SWAP1 SWAP3 POP JUMP JUMPDEST PUSH0 PUSH1 0x5 PUSH0 DUP5 PUSH20 0xFFFFFFFFFFFFFFFFFFFFFFFFFFFFFFFFFFFFFFFF AND PUSH20 0xFFFFFFFFFFFFFFFFFFFFFFFFFFFFFFFFFFFFFFFF AND DUP2 MSTORE PUSH1 0x20 ADD SWAP1 DUP2 MSTORE PUSH1 0x20 ADD PUSH0 KECCAK256 PUSH0 DUP4 PUSH20 0xFFFFFFFFFFFFFFFFFFFFFFFFFFFFFFFFFFFFFFFF AND PUSH20 0xFFFFFFFFFFFFFFFFFFFFFFFFFFFFFFFFFFFFFFFF AND DUP2 MSTORE PUSH1 0x20 ADD SWAP1 DUP2 MSTORE PUSH1 0x20 ADD PUSH0 KECCAK256 PUSH0 SWAP1 SLOAD SWAP1 PUSH2 0x100 EXP SWAP1 DIV PUSH1 0xFF AND SWAP1 POP SWAP3 SWAP2 POP POP JUMP JUMPDEST PUSH0 PUSH1 0xA SLOAD SWAP1 POP SWAP1 JUMP JUMPDEST PUSH2 0xFCA PUSH2 0x134D JUMP JUMPDEST PUSH0 PUSH20 0xFFFFFFFFFFFFFFFFFFFFFFFFFFFFFFFFFFFFFFFF AND DUP2 PUSH20 0xFFFFFFFFFFFFFFFFFFFFFFFFFFFFFFFFFFFFFFFF AND SUB PUSH2 0x1038 JUMPI PUSH1 0x40 MLOAD PUSH32 0x8C379A000000000000000000000000000000000000000000000000000000000 DUP2 MSTORE PUSH1 0x4 ADD PUSH2 0x102F SWAP1 PUSH2 0x3358 JUMP JUMPDEST PUSH1 0x40 MLOAD DUP1 SWAP2 SUB SWAP1 REVERT JUMPDEST PUSH2 0x1041 DUP2 PUSH2 0x1932 JUMP JUMPDEST POP JUMP JUMPDEST PUSH0 PUSH2 0x104D PUSH2 0x134D JUMP JUMPDEST PUSH2 0x1056 DUP4 PUSH2 0x1D62 JUMP JUMPDEST PUSH2 0x1095 JUMPI PUSH1 0x40 MLOAD PUSH32 0x8C379A000000000000000000000000000000000000000000000000000000000 DUP2 MSTORE PUSH1 0x4 ADD PUSH2 0x108C SWAP1 PUSH2 0x3102 JUMP JUMPDEST PUSH1 0x40 MLOAD DUP1 SWAP2 SUB SWAP1 REVERT JUMPDEST PUSH2 0x109E DUP3 PUSH2 0x1D62 JUMP JUMPDEST PUSH2 0x10DD JUMPI PUSH1 0x40 MLOAD PUSH32 0x8C379A000000000000000000000000000000000000000000000000000000000 DUP2 MSTORE PUSH1 0x4 ADD PUSH2 0x10D4 SWAP1 PUSH2 0x3102 JUMP JUMPDEST PUSH1 0x40 MLOAD DUP1 SWAP2 SUB SWAP1 REVERT JUMPDEST PUSH0 PUSH1 0x8 PUSH0 DUP6 DUP2 MSTORE PUSH1 0x20 ADD SWAP1 DUP2 MSTORE PUSH1 0x20 ADD PUSH0 KECCAK256 SWAP1 POP PUSH0 PUSH1 0x8 PUSH0 DUP6 DUP2 MSTORE PUSH1 0x20 ADD SWAP1 DUP2 MSTORE PUSH1 0x20 ADD PUSH0 KECCAK256 SWAP1 POP PUSH0 DUP1 PUSH0 PUSH1 0x9 PUSH0 SWAP1 SLOAD SWAP1 PUSH2 0x100 EXP SWAP1 DIV PUSH20 0xFFFFFFFFFFFFFFFFFFFFFFFFFFFFFFFFFFFFFFFF AND PUSH20 0xFFFFFFFFFFFFFFFFFFFFFFFFFFFFFFFFFFFFFFFF AND PUSH4 0xE4A13FB7 DUP7 PUSH1 0x2 ADD SLOAD DUP7 PUSH1 0x2 ADD SLOAD PUSH1 0x40 MLOAD DUP4 PUSH4 0xFFFFFFFF AND PUSH1 0xE0 SHL DUP2 MSTORE PUSH1 0x4 ADD PUSH2 0x116C SWAP3 SWAP2 SWAP1 PUSH2 0x3181 JUMP JUMPDEST PUSH1 0x60 PUSH1 0x40 MLOAD DUP1 DUP4 SUB DUP2 PUSH0 DUP8 GAS CALL ISZERO DUP1 ISZERO PUSH2 0x1188 JUMPI RETURNDATASIZE PUSH0 DUP1 RETURNDATACOPY RETURNDATASIZE PUSH0 REVERT JUMPDEST POP POP POP POP PUSH1 0x40 MLOAD RETURNDATASIZE PUSH1 0x1F NOT PUSH1 0x1F DUP3 ADD AND DUP3 ADD DUP1 PUSH1 0x40 MSTORE POP DUP2 ADD SWAP1 PUSH2 0x11AC SWAP2 SWAP1 PUSH2 0x338A JUMP JUMPDEST SWAP3 POP SWAP3 POP SWAP3 POP PUSH2 0x11BD DUP9 DUP9 DUP4 PUSH2 0x1A59 JUMP JUMPDEST SWAP6 POP DUP3 DUP6 PUSH1 0x2 ADD DUP2 SWAP1 SSTORE POP DUP2 DUP5 PUSH1 0x2 ADD DUP2 SWAP1 SSTORE POP POP POP POP POP POP SWAP3 SWAP2 POP POP JUMP JUMPDEST PUSH0 PUSH32 0x1FFC9A700000000000000000000000000000000000000000000000000000000 PUSH28 0xFFFFFFFFFFFFFFFFFFFFFFFFFFFFFFFFFFFFFFFFFFFFFFFFFFFFFFFF NOT AND DUP3 PUSH28 0xFFFFFFFFFFFFFFFFFFFFFFFFFFFFFFFFFFFFFFFFFFFFFFFFFFFFFFFF NOT AND EQ SWAP1 POP SWAP2 SWAP1 POP JUMP JUMPDEST PUSH2 0x124E DUP2 PUSH2 0x1D62 JUMP JUMPDEST PUSH2 0x128D JUMPI PUSH1 0x40 MLOAD PUSH32 0x8C379A000000000000000000000000000000000000000000000000000000000 DUP2 MSTORE PUSH1 0x4 ADD PUSH2 0x1284 SWAP1 PUSH2 0x300C JUMP JUMPDEST PUSH1 0x40 MLOAD DUP1 SWAP2 SUB SWAP1 REVERT JUMPDEST POP JUMP JUMPDEST PUSH0 CALLER SWAP1 POP SWAP1 JUMP JUMPDEST DUP2 PUSH1 0x4 PUSH0 DUP4 DUP2 MSTORE PUSH1 0x20 ADD SWAP1 DUP2 MSTORE PUSH1 0x20 ADD PUSH0 KECCAK256 PUSH0 PUSH2 0x100 EXP DUP2 SLOAD DUP2 PUSH20 0xFFFFFFFFFFFFFFFFFFFFFFFFFFFFFFFFFFFFFFFF MUL NOT AND SWAP1 DUP4 PUSH20 0xFFFFFFFFFFFFFFFFFFFFFFFFFFFFFFFFFFFFFFFF AND MUL OR SWAP1 SSTORE POP DUP1 DUP3 PUSH20 0xFFFFFFFFFFFFFFFFFFFFFFFFFFFFFFFFFFFFFFFF AND PUSH2 0x1307 DUP4 PUSH2 0xA5F JUMP JUMPDEST PUSH20 0xFFFFFFFFFFFFFFFFFFFFFFFFFFFFFFFFFFFFFFFF AND PUSH32 0x8C5BE1E5EBEC7D5BD14F71427D1E84F3DD0314C0F7B2291E5B200AC8C7C3B925 PUSH1 0x40 MLOAD PUSH1 0x40 MLOAD DUP1 SWAP2 SUB SWAP1 LOG4 POP POP JUMP JUMPDEST PUSH2 0x1355 PUSH2 0x1290 JUMP JUMPDEST PUSH20 0xFFFFFFFFFFFFFFFFFFFFFFFFFFFFFFFFFFFFFFFF AND PUSH2 0x1373 PUSH2 0xC07 JUMP JUMPDEST PUSH20 0xFFFFFFFFFFFFFFFFFFFFFFFFFFFFFFFFFFFFFFFF AND EQ PUSH2 0x13C9 JUMPI PUSH1 0x40 MLOAD PUSH32 0x8C379A000000000000000000000000000000000000000000000000000000000 DUP2 MSTORE PUSH1 0x4 ADD PUSH2 0x13C0 SWAP1 PUSH2 0x3424 JUMP JUMPDEST PUSH1 0x40 MLOAD DUP1 SWAP2 SUB SWAP1 REVERT JUMPDEST JUMP JUMPDEST PUSH0 DUP2 PUSH0 ADD SLOAD SWAP1 POP SWAP2 SWAP1 POP JUMP JUMPDEST PUSH0 DUP1 PUSH2 0x13E2 DUP4 PUSH2 0xA5F JUMP JUMPDEST SWAP1 POP DUP1 PUSH20 0xFFFFFFFFFFFFFFFFFFFFFFFFFFFFFFFFFFFFFFFF AND DUP5 PUSH20 0xFFFFFFFFFFFFFFFFFFFFFFFFFFFFFFFFFFFFFFFF AND EQ DUP1 PUSH2 0x1424 JUMPI POP PUSH2 0x1423 DUP2 DUP6 PUSH2 0xF2B JUMP JUMPDEST JUMPDEST DUP1 PUSH2 0x1462 JUMPI POP DUP4 PUSH20 0xFFFFFFFFFFFFFFFFFFFFFFFFFFFFFFFFFFFFFFFF AND PUSH2 0x144A DUP5 PUSH2 0x760 JUMP JUMPDEST PUSH20 0xFFFFFFFFFFFFFFFFFFFFFFFFFFFFFFFFFFFFFFFF AND EQ JUMPDEST SWAP2 POP POP SWAP3 SWAP2 POP POP JUMP JUMPDEST DUP3 PUSH20 0xFFFFFFFFFFFFFFFFFFFFFFFFFFFFFFFFFFFFFFFF AND PUSH2 0x148B DUP3 PUSH2 0xA5F JUMP JUMPDEST PUSH20 0xFFFFFFFFFFFFFFFFFFFFFFFFFFFFFFFFFFFFFFFF AND EQ PUSH2 0x14E1 JUMPI PUSH1 0x40 MLOAD PUSH32 0x8C379A000000000000000000000000000000000000000000000000000000000 DUP2 MSTORE PUSH1 0x4 ADD PUSH2 0x14D8 SWAP1 PUSH2 0x34B2 JUMP JUMPDEST PUSH1 0x40 MLOAD DUP1 SWAP2 SUB SWAP1 REVERT JUMPDEST PUSH0 PUSH20 0xFFFFFFFFFFFFFFFFFFFFFFFFFFFFFFFFFFFFFFFF AND DUP3 PUSH20 0xFFFFFFFFFFFFFFFFFFFFFFFFFFFFFFFFFFFFFFFF AND SUB PUSH2 0x154F JUMPI PUSH1 0x40 MLOAD PUSH32 0x8C379A000000000000000000000000000000000000000000000000000000000 DUP2 MSTORE PUSH1 0x4 ADD PUSH2 0x1546 SWAP1 PUSH2 0x3540 JUMP JUMPDEST PUSH1 0x40 MLOAD DUP1 SWAP2 SUB SWAP1 REVERT JUMPDEST PUSH2 0x155C DUP4 DUP4 DUP4 PUSH1 0x1 PUSH2 0x1F2F JUMP JUMPDEST DUP3 PUSH20 0xFFFFFFFFFFFFFFFFFFFFFFFFFFFFFFFFFFFFFFFF AND PUSH2 0x157C DUP3 PUSH2 0xA5F JUMP JUMPDEST PUSH20 0xFFFFFFFFFFFFFFFFFFFFFFFFFFFFFFFFFFFFFFFF AND EQ PUSH2 0x15D2 JUMPI PUSH1 0x40 MLOAD PUSH32 0x8C379A000000000000000000000000000000000000000000000000000000000 DUP2 MSTORE PUSH1 0x4 ADD PUSH2 0x15C9 SWAP1 PUSH2 0x34B2 JUMP JUMPDEST PUSH1 0x40 MLOAD DUP1 SWAP2 SUB SWAP1 REVERT JUMPDEST PUSH1 0x4 PUSH0 DUP3 DUP2 MSTORE PUSH1 0x20 ADD SWAP1 DUP2 MSTORE PUSH1 0x20 ADD PUSH0 KECCAK256 PUSH0 PUSH2 0x100 EXP DUP2 SLOAD SWAP1 PUSH20 0xFFFFFFFFFFFFFFFFFFFFFFFFFFFFFFFFFFFFFFFF MUL NOT AND SWAP1 SSTORE PUSH1 0x1 PUSH1 0x3 PUSH0 DUP6 PUSH20 0xFFFFFFFFFFFFFFFFFFFFFFFFFFFFFFFFFFFFFFFF AND PUSH20 0xFFFFFFFFFFFFFFFFFFFFFFFFFFFFFFFFFFFFFFFF AND DUP2 MSTORE PUSH1 0x20 ADD SWAP1 DUP2 MSTORE PUSH1 0x20 ADD PUSH0 KECCAK256 PUSH0 DUP3 DUP3 SLOAD SUB SWAP3 POP POP DUP2 SWAP1 SSTORE POP PUSH1 0x1 PUSH1 0x3 PUSH0 DUP5 PUSH20 0xFFFFFFFFFFFFFFFFFFFFFFFFFFFFFFFFFFFFFFFF AND PUSH20 0xFFFFFFFFFFFFFFFFFFFFFFFFFFFFFFFFFFFFFFFF AND DUP2 MSTORE PUSH1 0x20 ADD SWAP1 DUP2 MSTORE PUSH1 0x20 ADD PUSH0 KECCAK256 PUSH0 DUP3 DUP3 SLOAD ADD SWAP3 POP POP DUP2 SWAP1 SSTORE POP DUP2 PUSH1 0x2 PUSH0 DUP4 DUP2 MSTORE PUSH1 0x20 ADD SWAP1 DUP2 MSTORE PUSH1 0x20 ADD PUSH0 KECCAK256 PUSH0 PUSH2 0x100 EXP DUP2 SLOAD DUP2 PUSH20 0xFFFFFFFFFFFFFFFFFFFFFFFFFFFFFFFFFFFFFFFF MUL NOT AND SWAP1 DUP4 PUSH20 0xFFFFFFFFFFFFFFFFFFFFFFFFFFFFFFFFFFFFFFFF AND MUL OR SWAP1 SSTORE POP DUP1 DUP3 PUSH20 0xFFFFFFFFFFFFFFFFFFFFFFFFFFFFFFFFFFFFFFFF AND DUP5 PUSH20 0xFFFFFFFFFFFFFFFFFFFFFFFFFFFFFFFFFFFFFFFF AND PUSH32 0xDDF252AD1BE2C89B69C2B068FC378DAA952BA7F163C4A11628F55A4DF523B3EF PUSH1 0x40 MLOAD PUSH1 0x40 MLOAD DUP1 SWAP2 SUB SWAP1 LOG4 PUSH2 0x1752 DUP4 DUP4 DUP4 PUSH1 0x1 PUSH2 0x1F49 JUMP JUMPDEST POP POP POP JUMP JUMPDEST PUSH2 0x175F PUSH2 0x1F4F JUMP JUMPDEST PUSH0 PUSH1 0x6 PUSH0 PUSH2 0x100 EXP DUP2 SLOAD DUP2 PUSH1 0xFF MUL NOT AND SWAP1 DUP4 ISZERO ISZERO MUL OR SWAP1 SSTORE POP PUSH32 0x5DB9EE0A495BF2E6FF9C91A7834C1BA4FDD244A5E8AA4E537BD38AEAE4B073AA PUSH2 0x17A1 PUSH2 0x1290 JUMP JUMPDEST PUSH1 0x40 MLOAD PUSH2 0x17AE SWAP2 SWAP1 PUSH2 0x291D JUMP JUMPDEST PUSH1 0x40 MLOAD DUP1 SWAP2 SUB SWAP1 LOG1 JUMP JUMPDEST PUSH0 PUSH2 0x17C2 DUP3 PUSH2 0xA5F JUMP JUMPDEST SWAP1 POP PUSH2 0x17D1 DUP2 PUSH0 DUP5 PUSH1 0x1 PUSH2 0x1F2F JUMP JUMPDEST PUSH2 0x17DA DUP3 PUSH2 0xA5F JUMP JUMPDEST SWAP1 POP PUSH1 0x4 PUSH0 DUP4 DUP2 MSTORE PUSH1 0x20 ADD SWAP1 DUP2 MSTORE PUSH1 0x20 ADD PUSH0 KECCAK256 PUSH0 PUSH2 0x100 EXP DUP2 SLOAD SWAP1 PUSH20 0xFFFFFFFFFFFFFFFFFFFFFFFFFFFFFFFFFFFFFFFF MUL NOT AND SWAP1 SSTORE PUSH1 0x1 PUSH1 0x3 PUSH0 DUP4 PUSH20 0xFFFFFFFFFFFFFFFFFFFFFFFFFFFFFFFFFFFFFFFF AND PUSH20 0xFFFFFFFFFFFFFFFFFFFFFFFFFFFFFFFFFFFFFFFF AND DUP2 MSTORE PUSH1 0x20 ADD SWAP1 DUP2 MSTORE PUSH1 0x20 ADD PUSH0 KECCAK256 PUSH0 DUP3 DUP3 SLOAD SUB SWAP3 POP POP DUP2 SWAP1 SSTORE POP PUSH1 0x2 PUSH0 DUP4 DUP2 MSTORE PUSH1 0x20 ADD SWAP1 DUP2 MSTORE PUSH1 0x20 ADD PUSH0 KECCAK256 PUSH0 PUSH2 0x100 EXP DUP2 SLOAD SWAP1 PUSH20 0xFFFFFFFFFFFFFFFFFFFFFFFFFFFFFFFFFFFFFFFF MUL NOT AND SWAP1 SSTORE DUP2 PUSH0 PUSH20 0xFFFFFFFFFFFFFFFFFFFFFFFFFFFFFFFFFFFFFFFF AND DUP3 PUSH20 0xFFFFFFFFFFFFFFFFFFFFFFFFFFFFFFFFFFFFFFFF AND PUSH32 0xDDF252AD1BE2C89B69C2B068FC378DAA952BA7F163C4A11628F55A4DF523B3EF PUSH1 0x40 MLOAD PUSH1 0x40 MLOAD DUP1 SWAP2 SUB SWAP1 LOG4 PUSH2 0x18F5 DUP2 PUSH0 DUP5 PUSH1 0x1 PUSH2 0x1F49 JUMP JUMPDEST POP POP JUMP JUMPDEST PUSH0 PUSH1 0x2 PUSH0 DUP4 DUP2 MSTORE PUSH1 0x20 ADD SWAP1 DUP2 MSTORE PUSH1 0x20 ADD PUSH0 KECCAK256 PUSH0 SWAP1 SLOAD SWAP1 PUSH2 0x100 EXP SWAP1 DIV PUSH20 0xFFFFFFFFFFFFFFFFFFFFFFFFFFFFFFFFFFFFFFFF AND SWAP1 POP SWAP2 SWAP1 POP JUMP JUMPDEST PUSH0 PUSH1 0x6 PUSH1 0x1 SWAP1 SLOAD SWAP1 PUSH2 0x100 EXP SWAP1 DIV PUSH20 0xFFFFFFFFFFFFFFFFFFFFFFFFFFFFFFFFFFFFFFFF AND SWAP1 POP DUP2 PUSH1 0x6 PUSH1 0x1 PUSH2 0x100 EXP DUP2 SLOAD DUP2 PUSH20 0xFFFFFFFFFFFFFFFFFFFFFFFFFFFFFFFFFFFFFFFF MUL NOT AND SWAP1 DUP4 PUSH20 0xFFFFFFFFFFFFFFFFFFFFFFFFFFFFFFFFFFFFFFFF AND MUL OR SWAP1 SSTORE POP DUP2 PUSH20 0xFFFFFFFFFFFFFFFFFFFFFFFFFFFFFFFFFFFFFFFF AND DUP2 PUSH20 0xFFFFFFFFFFFFFFFFFFFFFFFFFFFFFFFFFFFFFFFF AND PUSH32 0x8BE0079C531659141344CD1FD0A4F28419497F9722A3DAAFE3B4186F6B6457E0 PUSH1 0x40 MLOAD PUSH1 0x40 MLOAD DUP1 SWAP2 SUB SWAP1 LOG3 POP POP JUMP JUMPDEST PUSH2 0x19FF PUSH2 0x1F98 JUMP JUMPDEST PUSH1 0x1 PUSH1 0x6 PUSH0 PUSH2 0x100 EXP DUP2 SLOAD DUP2 PUSH1 0xFF MUL NOT AND SWAP1 DUP4 ISZERO ISZERO MUL OR SWAP1 SSTORE POP PUSH32 0x62E78CEA01BEE320CD4E420270B5EA74000D11B0C9F74754EBDBFC544B05A258 PUSH2 0x1A42 PUSH2 0x1290 JUMP JUMPDEST PUSH1 0x40 MLOAD PUSH2 0x1A4F SWAP2 SWAP1 PUSH2 0x291D JUMP JUMPDEST PUSH1 0x40 MLOAD DUP1 SWAP2 SUB SWAP1 LOG1 JUMP JUMPDEST PUSH0 DUP1 PUSH1 0x9 SWAP1 POP PUSH0 JUMPDEST DUP2 DUP2 PUSH1 0xFF AND LT ISZERO PUSH2 0x1B39 JUMPI PUSH0 PUSH2 0x1A77 DUP6 DUP4 PUSH2 0x1FE2 JUMP JUMPDEST SWAP1 POP PUSH1 0xA SLOAD DUP2 PUSH1 0xFF AND LT ISZERO DUP1 ISZERO PUSH2 0x1A93 JUMPI POP PUSH1 0xB SLOAD DUP2 PUSH1 0xFF AND GT ISZERO JUMPDEST PUSH2 0x1AD2 JUMPI PUSH1 0x40 MLOAD PUSH32 0x8C379A000000000000000000000000000000000000000000000000000000000 DUP2 MSTORE PUSH1 0x4 ADD PUSH2 0x1AC9 SWAP1 PUSH2 0x35CE JUMP JUMPDEST PUSH1 0x40 MLOAD DUP1 SWAP2 SUB SWAP1 REVERT JUMPDEST PUSH0 PUSH2 0x1ADD DUP7 DUP5 PUSH2 0x202E JUMP JUMPDEST SWAP1 POP PUSH0 DUP2 PUSH1 0xFF AND GT PUSH2 0x1B24 JUMPI PUSH1 0x40 MLOAD PUSH32 0x8C379A000000000000000000000000000000000000000000000000000000000 DUP2 MSTORE PUSH1 0x4 ADD PUSH2 0x1B1B SWAP1 PUSH2 0x365C JUMP JUMPDEST PUSH1 0x40 MLOAD DUP1 SWAP2 SUB SWAP1 REVERT JUMPDEST POP POP DUP1 DUP1 PUSH2 0x1B31 SWAP1 PUSH2 0x367A JUMP JUMPDEST SWAP2 POP POP PUSH2 0x1A61 JUMP JUMPDEST POP PUSH0 PUSH1 0x40 MLOAD DUP1 PUSH1 0x60 ADD PUSH1 0x40 MSTORE DUP1 DUP8 DUP2 MSTORE PUSH1 0x20 ADD DUP7 DUP2 MSTORE PUSH1 0x20 ADD DUP6 DUP2 MSTORE POP SWAP1 POP PUSH2 0x1B62 PUSH1 0x7 PUSH2 0x207B JUMP JUMPDEST PUSH0 PUSH2 0x1B6D PUSH1 0x7 PUSH2 0x13CB JUMP JUMPDEST SWAP1 POP DUP2 PUSH1 0x8 PUSH0 DUP4 DUP2 MSTORE PUSH1 0x20 ADD SWAP1 DUP2 MSTORE PUSH1 0x20 ADD PUSH0 KECCAK256 PUSH0 DUP3 ADD MLOAD DUP2 PUSH0 ADD SSTORE PUSH1 0x20 DUP3 ADD MLOAD DUP2 PUSH1 0x1 ADD SSTORE PUSH1 0x40 DUP3 ADD MLOAD DUP2 PUSH1 0x2 ADD SSTORE SWAP1 POP POP PUSH2 0x1BB1 PUSH2 0x1BAB PUSH2 0xC07 JUMP JUMPDEST DUP3 PUSH2 0x208F JUMP JUMPDEST PUSH32 0xB6DA9597F5553D5DEAFC722DCC1F69D5463612674A36BAE2AA8698BD86AF1C7C DUP2 DUP9 DUP9 DUP9 PUSH1 0x40 MLOAD PUSH2 0x1BE6 SWAP5 SWAP4 SWAP3 SWAP2 SWAP1 PUSH2 0x36A2 JUMP JUMPDEST PUSH1 0x40 MLOAD DUP1 SWAP2 SUB SWAP1 LOG1 DUP1 SWAP4 POP POP POP POP SWAP4 SWAP3 POP POP POP JUMP JUMPDEST DUP2 PUSH20 0xFFFFFFFFFFFFFFFFFFFFFFFFFFFFFFFFFFFFFFFF AND DUP4 PUSH20 0xFFFFFFFFFFFFFFFFFFFFFFFFFFFFFFFFFFFFFFFF AND SUB PUSH2 0x1C69 JUMPI PUSH1 0x40 MLOAD PUSH32 0x8C379A000000000000000000000000000000000000000000000000000000000 DUP2 MSTORE PUSH1 0x4 ADD PUSH2 0x1C60 SWAP1 PUSH2 0x372F JUMP JUMPDEST PUSH1 0x40 MLOAD DUP1 SWAP2 SUB SWAP1 REVERT JUMPDEST DUP1 PUSH1 0x5 PUSH0 DUP6 PUSH20 0xFFFFFFFFFFFFFFFFFFFFFFFFFFFFFFFFFFFFFFFF AND PUSH20 0xFFFFFFFFFFFFFFFFFFFFFFFFFFFFFFFFFFFFFFFF AND DUP2 MSTORE PUSH1 0x20 ADD SWAP1 DUP2 MSTORE PUSH1 0x20 ADD PUSH0 KECCAK256 PUSH0 DUP5 PUSH20 0xFFFFFFFFFFFFFFFFFFFFFFFFFFFFFFFFFFFFFFFF AND PUSH20 0xFFFFFFFFFFFFFFFFFFFFFFFFFFFFFFFFFFFFFFFF AND DUP2 MSTORE PUSH1 0x20 ADD SWAP1 DUP2 MSTORE PUSH1 0x20 ADD PUSH0 KECCAK256 PUSH0 PUSH2 0x100 EXP DUP2 SLOAD DUP2 PUSH1 0xFF MUL NOT AND SWAP1 DUP4 ISZERO ISZERO MUL OR SWAP1 SSTORE POP DUP2 PUSH20 0xFFFFFFFFFFFFFFFFFFFFFFFFFFFFFFFFFFFFFFFF AND DUP4 PUSH20 0xFFFFFFFFFFFFFFFFFFFFFFFFFFFFFFFFFFFFFFFF AND PUSH32 0x17307EAB39AB6107E8899845AD3D59BD9653F200F220920489CA2B5937696C31 DUP4 PUSH1 0x40 MLOAD PUSH2 0x1D55 SWAP2 SWAP1 PUSH2 0x27D7 JUMP JUMPDEST PUSH1 0x40 MLOAD DUP1 SWAP2 SUB SWAP1 LOG3 POP POP POP JUMP JUMPDEST PUSH0 DUP1 PUSH20 0xFFFFFFFFFFFFFFFFFFFFFFFFFFFFFFFFFFFFFFFF AND PUSH2 0x1D83 DUP4 PUSH2 0x18F9 JUMP JUMPDEST PUSH20 0xFFFFFFFFFFFFFFFFFFFFFFFFFFFFFFFFFFFFFFFF AND EQ ISZERO SWAP1 POP SWAP2 SWAP1 POP JUMP JUMPDEST PUSH0 PUSH1 0xFF PUSH1 0xF8 DUP4 SWAP1 SHR AND SWAP1 POP SWAP2 SWAP1 POP JUMP JUMPDEST PUSH0 PUSH1 0xF8 DUP3 PUSH1 0xFF AND SWAP1 SHL PUSH1 0x8 DUP1 DUP6 SWAP1 SHL SWAP1 SHR OR SWAP1 POP SWAP3 SWAP2 POP POP JUMP JUMPDEST PUSH2 0x1DD7 DUP5 DUP5 DUP5 PUSH2 0x146B JUMP JUMPDEST PUSH2 0x1DE3 DUP5 DUP5 DUP5 DUP5 PUSH2 0x20AC JUMP JUMPDEST PUSH2 0x1E22 JUMPI PUSH1 0x40 MLOAD PUSH32 0x8C379A000000000000000000000000000000000000000000000000000000000 DUP2 MSTORE PUSH1 0x4 ADD PUSH2 0x1E19 SWAP1 PUSH2 0x37BD JUMP JUMPDEST PUSH1 0x40 MLOAD DUP1 SWAP2 SUB SWAP1 REVERT JUMPDEST POP POP POP POP JUMP JUMPDEST PUSH1 0x60 PUSH1 0x40 MLOAD DUP1 PUSH1 0x40 ADD PUSH1 0x40 MSTORE DUP1 PUSH1 0x1F DUP2 MSTORE PUSH1 0x20 ADD PUSH32 0x6E66742E63727970746F73686F7065652E6E74696C6F79616C74792E636F6D00 DUP2 MSTORE POP SWAP1 POP SWAP1 JUMP JUMPDEST PUSH1 0x60 PUSH0 PUSH1 0x1 PUSH2 0x1E73 DUP5 PUSH2 0x222E JUMP JUMPDEST ADD SWAP1 POP PUSH0 DUP2 PUSH8 0xFFFFFFFFFFFFFFFF DUP2 GT ISZERO PUSH2 0x1E91 JUMPI PUSH2 0x1E90 PUSH2 0x2B25 JUMP JUMPDEST JUMPDEST PUSH1 0x40 MLOAD SWAP1 DUP1 DUP3 MSTORE DUP1 PUSH1 0x1F ADD PUSH1 0x1F NOT AND PUSH1 0x20 ADD DUP3 ADD PUSH1 0x40 MSTORE DUP1 ISZERO PUSH2 0x1EC3 JUMPI DUP2 PUSH1 0x20 ADD PUSH1 0x1 DUP3 MUL DUP1 CALLDATASIZE DUP4 CALLDATACOPY DUP1 DUP3 ADD SWAP2 POP POP SWAP1 POP JUMPDEST POP SWAP1 POP PUSH0 DUP3 PUSH1 0x20 ADD DUP3 ADD SWAP1 POP JUMPDEST PUSH1 0x1 ISZERO PUSH2 0x1F24 JUMPI DUP1 DUP1 PUSH1 0x1 SWAP1 SUB SWAP2 POP POP PUSH32 0x3031323334353637383961626364656600000000000000000000000000000000 PUSH1 0xA DUP7 MOD BYTE DUP2 MSTORE8 PUSH1 0xA DUP6 DUP2 PUSH2 0x1F19 JUMPI PUSH2 0x1F18 PUSH2 0x37DB JUMP JUMPDEST JUMPDEST DIV SWAP5 POP PUSH0 DUP6 SUB PUSH2 0x1ED0 JUMPI JUMPDEST DUP2 SWAP4 POP POP POP POP SWAP2 SWAP1 POP JUMP JUMPDEST PUSH2 0x1F37 PUSH2 0x1F98 JUMP JUMPDEST PUSH2 0x1F43 DUP5 DUP5 DUP5 DUP5 PUSH2 0x237F JUMP JUMPDEST POP POP POP POP JUMP JUMPDEST POP POP POP POP JUMP JUMPDEST PUSH2 0x1F57 PUSH2 0xA4A JUMP JUMPDEST PUSH2 0x1F96 JUMPI PUSH1 0x40 MLOAD PUSH32 0x8C379A000000000000000000000000000000000000000000000000000000000 DUP2 MSTORE PUSH1 0x4 ADD PUSH2 0x1F8D SWAP1 PUSH2 0x3852 JUMP JUMPDEST PUSH1 0x40 MLOAD DUP1 SWAP2 SUB SWAP1 REVERT JUMPDEST JUMP JUMPDEST PUSH2 0x1FA0 PUSH2 0xA4A JUMP JUMPDEST ISZERO PUSH2 0x1FE0 JUMPI PUSH1 0x40 MLOAD PUSH32 0x8C379A000000000000000000000000000000000000000000000000000000000 DUP2 MSTORE PUSH1 0x4 ADD PUSH2 0x1FD7 SWAP1 PUSH2 0x38BA JUMP JUMPDEST PUSH1 0x40 MLOAD DUP1 SWAP2 SUB SWAP1 REVERT JUMPDEST JUMP JUMPDEST PUSH0 DUP1 PUSH1 0x4 SWAP1 POP PUSH0 PUSH1 0x3 DUP5 PUSH2 0x1FF6 SWAP2 SWAP1 PUSH2 0x38D8 JUMP JUMPDEST PUSH1 0xFF AND SWAP1 POP PUSH1 0xFF PUSH1 0x8 PUSH0 DUP4 DUP6 PUSH2 0x200C SWAP2 SWAP1 PUSH2 0x3914 JUMP JUMPDEST PUSH2 0x2016 SWAP2 SWAP1 PUSH2 0x3914 JUMP JUMPDEST PUSH2 0x2020 SWAP2 SWAP1 PUSH2 0x3947 JUMP JUMPDEST DUP7 SWAP1 SHR AND SWAP3 POP POP POP SWAP3 SWAP2 POP POP JUMP JUMPDEST PUSH0 DUP1 PUSH1 0x4 SWAP1 POP PUSH0 PUSH1 0x3 DUP5 PUSH2 0x2042 SWAP2 SWAP1 PUSH2 0x38D8 JUMP JUMPDEST PUSH1 0xFF AND SWAP1 POP PUSH1 0xFF PUSH1 0x8 PUSH1 0x1 DUP4 DUP6 PUSH2 0x2059 SWAP2 SWAP1 PUSH2 0x3914 JUMP JUMPDEST PUSH2 0x2063 SWAP2 SWAP1 PUSH2 0x3914 JUMP JUMPDEST PUSH2 0x206D SWAP2 SWAP1 PUSH2 0x3947 JUMP JUMPDEST DUP7 SWAP1 SHR AND SWAP3 POP POP POP SWAP3 SWAP2 POP POP JUMP JUMPDEST PUSH1 0x1 DUP2 PUSH0 ADD PUSH0 DUP3 DUP3 SLOAD ADD SWAP3 POP POP DUP2 SWAP1 SSTORE POP POP JUMP JUMPDEST PUSH2 0x20A8 DUP3 DUP3 PUSH1 0x40 MLOAD DUP1 PUSH1 0x20 ADD PUSH1 0x40 MSTORE DUP1 PUSH0 DUP2 MSTORE POP PUSH2 0x249D JUMP JUMPDEST POP POP JUMP JUMPDEST PUSH0 PUSH2 0x20CC DUP5 PUSH20 0xFFFFFFFFFFFFFFFFFFFFFFFFFFFFFFFFFFFFFFFF AND PUSH2 0x24F7 JUMP JUMPDEST ISZERO PUSH2 0x2221 JUMPI DUP4 PUSH20 0xFFFFFFFFFFFFFFFFFFFFFFFFFFFFFFFFFFFFFFFF AND PUSH4 0x150B7A02 PUSH2 0x20F5 PUSH2 0x1290 JUMP JUMPDEST DUP8 DUP7 DUP7 PUSH1 0x40 MLOAD DUP6 PUSH4 0xFFFFFFFF AND PUSH1 0xE0 SHL DUP2 MSTORE PUSH1 0x4 ADD PUSH2 0x2117 SWAP5 SWAP4 SWAP3 SWAP2 SWAP1 PUSH2 0x39DA JUMP JUMPDEST PUSH1 0x20 PUSH1 0x40 MLOAD DUP1 DUP4 SUB DUP2 PUSH0 DUP8 GAS CALL SWAP3 POP POP POP DUP1 ISZERO PUSH2 0x2152 JUMPI POP PUSH1 0x40 MLOAD RETURNDATASIZE PUSH1 0x1F NOT PUSH1 0x1F DUP3 ADD AND DUP3 ADD DUP1 PUSH1 0x40 MSTORE POP DUP2 ADD SWAP1 PUSH2 0x214F SWAP2 SWAP1 PUSH2 0x3A38 JUMP JUMPDEST PUSH1 0x1 JUMPDEST PUSH2 0x21D1 JUMPI RETURNDATASIZE DUP1 PUSH0 DUP2 EQ PUSH2 0x2180 JUMPI PUSH1 0x40 MLOAD SWAP2 POP PUSH1 0x1F NOT PUSH1 0x3F RETURNDATASIZE ADD AND DUP3 ADD PUSH1 0x40 MSTORE RETURNDATASIZE DUP3 MSTORE RETURNDATASIZE PUSH0 PUSH1 0x20 DUP5 ADD RETURNDATACOPY PUSH2 0x2185 JUMP JUMPDEST PUSH1 0x60 SWAP2 POP JUMPDEST POP PUSH0 DUP2 MLOAD SUB PUSH2 0x21C9 JUMPI PUSH1 0x40 MLOAD PUSH32 0x8C379A000000000000000000000000000000000000000000000000000000000 DUP2 MSTORE PUSH1 0x4 ADD PUSH2 0x21C0 SWAP1 PUSH2 0x37BD JUMP JUMPDEST PUSH1 0x40 MLOAD DUP1 SWAP2 SUB SWAP1 REVERT JUMPDEST DUP1 MLOAD DUP2 PUSH1 0x20 ADD REVERT JUMPDEST PUSH4 0x150B7A02 PUSH1 0xE0 SHL PUSH28 0xFFFFFFFFFFFFFFFFFFFFFFFFFFFFFFFFFFFFFFFFFFFFFFFFFFFFFFFF NOT AND DUP2 PUSH28 0xFFFFFFFFFFFFFFFFFFFFFFFFFFFFFFFFFFFFFFFFFFFFFFFFFFFFFFFF NOT AND EQ SWAP2 POP POP PUSH2 0x2226 JUMP JUMPDEST PUSH1 0x1 SWAP1 POP JUMPDEST SWAP5 SWAP4 POP POP POP POP JUMP JUMPDEST PUSH0 DUP1 PUSH0 SWAP1 POP PUSH27 0x184F03E93FF9F4DAA797ED6E38ED64BF6A1F010000000000000000 DUP4 LT PUSH2 0x228A JUMPI PUSH27 0x184F03E93FF9F4DAA797ED6E38ED64BF6A1F010000000000000000 DUP4 DUP2 PUSH2 0x2280 JUMPI PUSH2 0x227F PUSH2 0x37DB JUMP JUMPDEST JUMPDEST DIV SWAP3 POP PUSH1 0x40 DUP2 ADD SWAP1 POP JUMPDEST PUSH14 0x4EE2D6D415B85ACEF8100000000 DUP4 LT PUSH2 0x22C7 JUMPI PUSH14 0x4EE2D6D415B85ACEF8100000000 DUP4 DUP2 PUSH2 0x22BD JUMPI PUSH2 0x22BC PUSH2 0x37DB JUMP JUMPDEST JUMPDEST DIV SWAP3 POP PUSH1 0x20 DUP2 ADD SWAP1 POP JUMPDEST PUSH7 0x2386F26FC10000 DUP4 LT PUSH2 0x22F6 JUMPI PUSH7 0x2386F26FC10000 DUP4 DUP2 PUSH2 0x22EC JUMPI PUSH2 0x22EB PUSH2 0x37DB JUMP JUMPDEST JUMPDEST DIV SWAP3 POP PUSH1 0x10 DUP2 ADD SWAP1 POP JUMPDEST PUSH4 0x5F5E100 DUP4 LT PUSH2 0x231F JUMPI PUSH4 0x5F5E100 DUP4 DUP2 PUSH2 0x2315 JUMPI PUSH2 0x2314 PUSH2 0x37DB JUMP JUMPDEST JUMPDEST DIV SWAP3 POP PUSH1 0x8 DUP2 ADD SWAP1 POP JUMPDEST PUSH2 0x2710 DUP4 LT PUSH2 0x2344 JUMPI PUSH2 0x2710 DUP4 DUP2 PUSH2 0x233A JUMPI PUSH2 0x2339 PUSH2 0x37DB JUMP JUMPDEST JUMPDEST DIV SWAP3 POP PUSH1 0x4 DUP2 ADD SWAP1 POP JUMPDEST PUSH1 0x64 DUP4 LT PUSH2 0x2367 JUMPI PUSH1 0x64 DUP4 DUP2 PUSH2 0x235D JUMPI PUSH2 0x235C PUSH2 0x37DB JUMP JUMPDEST JUMPDEST DIV SWAP3 POP PUSH1 0x2 DUP2 ADD SWAP1 POP JUMPDEST PUSH1 0xA DUP4 LT PUSH2 0x2376 JUMPI PUSH1 0x1 DUP2 ADD SWAP1 POP JUMPDEST DUP1 SWAP2 POP POP SWAP2 SWAP1 POP JUMP JUMPDEST PUSH1 0x1 DUP2 GT ISZERO PUSH2 0x2497 JUMPI PUSH0 PUSH20 0xFFFFFFFFFFFFFFFFFFFFFFFFFFFFFFFFFFFFFFFF AND DUP5 PUSH20 0xFFFFFFFFFFFFFFFFFFFFFFFFFFFFFFFFFFFFFFFF AND EQ PUSH2 0x240F JUMPI DUP1 PUSH1 0x3 PUSH0 DUP7 PUSH20 0xFFFFFFFFFFFFFFFFFFFFFFFFFFFFFFFFFFFFFFFF AND PUSH20 0xFFFFFFFFFFFFFFFFFFFFFFFFFFFFFFFFFFFFFFFF AND DUP2 MSTORE PUSH1 0x20 ADD SWAP1 DUP2 MSTORE PUSH1 0x20 ADD PUSH0 KECCAK256 PUSH0 DUP3 DUP3 SLOAD PUSH2 0x2407 SWAP2 SWAP1 PUSH2 0x3A63 JUMP JUMPDEST SWAP3 POP POP DUP2 SWAP1 SSTORE POP JUMPDEST PUSH0 PUSH20 0xFFFFFFFFFFFFFFFFFFFFFFFFFFFFFFFFFFFFFFFF AND DUP4 PUSH20 0xFFFFFFFFFFFFFFFFFFFFFFFFFFFFFFFFFFFFFFFF AND EQ PUSH2 0x2496 JUMPI DUP1 PUSH1 0x3 PUSH0 DUP6 PUSH20 0xFFFFFFFFFFFFFFFFFFFFFFFFFFFFFFFFFFFFFFFF AND PUSH20 0xFFFFFFFFFFFFFFFFFFFFFFFFFFFFFFFFFFFFFFFF AND DUP2 MSTORE PUSH1 0x20 ADD SWAP1 DUP2 MSTORE PUSH1 0x20 ADD PUSH0 KECCAK256 PUSH0 DUP3 DUP3 SLOAD PUSH2 0x248E SWAP2 SWAP1 PUSH2 0x3914 JUMP JUMPDEST SWAP3 POP POP DUP2 SWAP1 SSTORE POP JUMPDEST JUMPDEST POP POP POP POP JUMP JUMPDEST PUSH2 0x24A7 DUP4 DUP4 PUSH2 0x2519 JUMP JUMPDEST PUSH2 0x24B3 PUSH0 DUP5 DUP5 DUP5 PUSH2 0x20AC JUMP JUMPDEST PUSH2 0x24F2 JUMPI PUSH1 0x40 MLOAD PUSH32 0x8C379A000000000000000000000000000000000000000000000000000000000 DUP2 MSTORE PUSH1 0x4 ADD PUSH2 0x24E9 SWAP1 PUSH2 0x37BD JUMP JUMPDEST PUSH1 0x40 MLOAD DUP1 SWAP2 SUB SWAP1 REVERT JUMPDEST POP POP POP JUMP JUMPDEST PUSH0 DUP1 DUP3 PUSH20 0xFFFFFFFFFFFFFFFFFFFFFFFFFFFFFFFFFFFFFFFF AND EXTCODESIZE GT SWAP1 POP SWAP2 SWAP1 POP JUMP JUMPDEST PUSH0 PUSH20 0xFFFFFFFFFFFFFFFFFFFFFFFFFFFFFFFFFFFFFFFF AND DUP3 PUSH20 0xFFFFFFFFFFFFFFFFFFFFFFFFFFFFFFFFFFFFFFFF AND SUB PUSH2 0x2587 JUMPI PUSH1 0x40 MLOAD PUSH32 0x8C379A000000000000000000000000000000000000000000000000000000000 DUP2 MSTORE PUSH1 0x4 ADD PUSH2 0x257E SWAP1 PUSH2 0x3AE0 JUMP JUMPDEST PUSH1 0x40 MLOAD DUP1 SWAP2 SUB SWAP1 REVERT JUMPDEST PUSH2 0x2590 DUP2 PUSH2 0x1D62 JUMP JUMPDEST ISZERO PUSH2 0x25D0 JUMPI PUSH1 0x40 MLOAD PUSH32 0x8C379A000000000000000000000000000000000000000000000000000000000 DUP2 MSTORE PUSH1 0x4 ADD PUSH2 0x25C7 SWAP1 PUSH2 0x3B48 JUMP JUMPDEST PUSH1 0x40 MLOAD DUP1 SWAP2 SUB SWAP1 REVERT JUMPDEST PUSH2 0x25DD PUSH0 DUP4 DUP4 PUSH1 0x1 PUSH2 0x1F2F JUMP JUMPDEST PUSH2 0x25E6 DUP2 PUSH2 0x1D62 JUMP JUMPDEST ISZERO PUSH2 0x2626 JUMPI PUSH1 0x40 MLOAD PUSH32 0x8C379A000000000000000000000000000000000000000000000000000000000 DUP2 MSTORE PUSH1 0x4 ADD PUSH2 0x261D SWAP1 PUSH2 0x3B48 JUMP JUMPDEST PUSH1 0x40 MLOAD DUP1 SWAP2 SUB SWAP1 REVERT JUMPDEST PUSH1 0x1 PUSH1 0x3 PUSH0 DUP5 PUSH20 0xFFFFFFFFFFFFFFFFFFFFFFFFFFFFFFFFFFFFFFFF AND PUSH20 0xFFFFFFFFFFFFFFFFFFFFFFFFFFFFFFFFFFFFFFFF AND DUP2 MSTORE PUSH1 0x20 ADD SWAP1 DUP2 MSTORE PUSH1 0x20 ADD PUSH0 KECCAK256 PUSH0 DUP3 DUP3 SLOAD ADD SWAP3 POP POP DUP2 SWAP1 SSTORE POP DUP2 PUSH1 0x2 PUSH0 DUP4 DUP2 MSTORE PUSH1 0x20 ADD SWAP1 DUP2 MSTORE PUSH1 0x20 ADD PUSH0 KECCAK256 PUSH0 PUSH2 0x100 EXP DUP2 SLOAD DUP2 PUSH20 0xFFFFFFFFFFFFFFFFFFFFFFFFFFFFFFFFFFFFFFFF MUL NOT AND SWAP1 DUP4 PUSH20 0xFFFFFFFFFFFFFFFFFFFFFFFFFFFFFFFFFFFFFFFF AND MUL OR SWAP1 SSTORE POP DUP1 DUP3 PUSH20 0xFFFFFFFFFFFFFFFFFFFFFFFFFFFFFFFFFFFFFFFF AND PUSH0 PUSH20 0xFFFFFFFFFFFFFFFFFFFFFFFFFFFFFFFFFFFFFFFF AND PUSH32 0xDDF252AD1BE2C89B69C2B068FC378DAA952BA7F163C4A11628F55A4DF523B3EF PUSH1 0x40 MLOAD PUSH1 0x40 MLOAD DUP1 SWAP2 SUB SWAP1 LOG4 PUSH2 0x2728 PUSH0 DUP4 DUP4 PUSH1 0x1 PUSH2 0x1F49 JUMP JUMPDEST POP POP JUMP JUMPDEST PUSH0 PUSH1 0x40 MLOAD SWAP1 POP SWAP1 JUMP JUMPDEST PUSH0 DUP1 REVERT JUMPDEST PUSH0 DUP1 REVERT JUMPDEST PUSH0 PUSH32 0xFFFFFFFF00000000000000000000000000000000000000000000000000000000 DUP3 AND SWAP1 POP SWAP2 SWAP1 POP JUMP JUMPDEST PUSH2 0x2771 DUP2 PUSH2 0x273D JUMP JUMPDEST DUP2 EQ PUSH2 0x277B JUMPI PUSH0 DUP1 REVERT JUMPDEST POP JUMP JUMPDEST PUSH0 DUP2 CALLDATALOAD SWAP1 POP PUSH2 0x278C DUP2 PUSH2 0x2768 JUMP JUMPDEST SWAP3 SWAP2 POP POP JUMP JUMPDEST PUSH0 PUSH1 0x20 DUP3 DUP5 SUB SLT ISZERO PUSH2 0x27A7 JUMPI PUSH2 0x27A6 PUSH2 0x2735 JUMP JUMPDEST JUMPDEST PUSH0 PUSH2 0x27B4 DUP5 DUP3 DUP6 ADD PUSH2 0x277E JUMP JUMPDEST SWAP2 POP POP SWAP3 SWAP2 POP POP JUMP JUMPDEST PUSH0 DUP2 ISZERO ISZERO SWAP1 POP SWAP2 SWAP1 POP JUMP JUMPDEST PUSH2 0x27D1 DUP2 PUSH2 0x27BD JUMP JUMPDEST DUP3 MSTORE POP POP JUMP JUMPDEST PUSH0 PUSH1 0x20 DUP3 ADD SWAP1 POP PUSH2 0x27EA PUSH0 DUP4 ADD DUP5 PUSH2 0x27C8 JUMP JUMPDEST SWAP3 SWAP2 POP POP JUMP JUMPDEST PUSH0 DUP2 MLOAD SWAP1 POP SWAP2 SWAP1 POP JUMP JUMPDEST PUSH0 DUP3 DUP3 MSTORE PUSH1 0x20 DUP3 ADD SWAP1 POP SWAP3 SWAP2 POP POP JUMP JUMPDEST DUP3 DUP2 DUP4 MCOPY PUSH0 DUP4 DUP4 ADD MSTORE POP POP POP JUMP JUMPDEST PUSH0 PUSH1 0x1F NOT PUSH1 0x1F DUP4 ADD AND SWAP1 POP SWAP2 SWAP1 POP JUMP JUMPDEST PUSH0 PUSH2 0x2832 DUP3 PUSH2 0x27F0 JUMP JUMPDEST PUSH2 0x283C DUP2 DUP6 PUSH2 0x27FA JUMP JUMPDEST SWAP4 POP PUSH2 0x284C DUP2 DUP6 PUSH1 0x20 DUP7 ADD PUSH2 0x280A JUMP JUMPDEST PUSH2 0x2855 DUP2 PUSH2 0x2818 JUMP JUMPDEST DUP5 ADD SWAP2 POP POP SWAP3 SWAP2 POP POP JUMP JUMPDEST PUSH0 PUSH1 0x20 DUP3 ADD SWAP1 POP DUP2 DUP2 SUB PUSH0 DUP4 ADD MSTORE PUSH2 0x2878 DUP2 DUP5 PUSH2 0x2828 JUMP JUMPDEST SWAP1 POP SWAP3 SWAP2 POP POP JUMP JUMPDEST PUSH0 DUP2 SWAP1 POP SWAP2 SWAP1 POP JUMP JUMPDEST PUSH2 0x2892 DUP2 PUSH2 0x2880 JUMP JUMPDEST DUP2 EQ PUSH2 0x289C JUMPI PUSH0 DUP1 REVERT JUMPDEST POP JUMP JUMPDEST PUSH0 DUP2 CALLDATALOAD SWAP1 POP PUSH2 0x28AD DUP2 PUSH2 0x2889 JUMP JUMPDEST SWAP3 SWAP2 POP POP JUMP JUMPDEST PUSH0 PUSH1 0x20 DUP3 DUP5 SUB SLT ISZERO PUSH2 0x28C8 JUMPI PUSH2 0x28C7 PUSH2 0x2735 JUMP JUMPDEST JUMPDEST PUSH0 PUSH2 0x28D5 DUP5 DUP3 DUP6 ADD PUSH2 0x289F JUMP JUMPDEST SWAP2 POP POP SWAP3 SWAP2 POP POP JUMP JUMPDEST PUSH0 PUSH20 0xFFFFFFFFFFFFFFFFFFFFFFFFFFFFFFFFFFFFFFFF DUP3 AND SWAP1 POP SWAP2 SWAP1 POP JUMP JUMPDEST PUSH0 PUSH2 0x2907 DUP3 PUSH2 0x28DE JUMP JUMPDEST SWAP1 POP SWAP2 SWAP1 POP JUMP JUMPDEST PUSH2 0x2917 DUP2 PUSH2 0x28FD JUMP JUMPDEST DUP3 MSTORE POP POP JUMP JUMPDEST PUSH0 PUSH1 0x20 DUP3 ADD SWAP1 POP PUSH2 0x2930 PUSH0 DUP4 ADD DUP5 PUSH2 0x290E JUMP JUMPDEST SWAP3 SWAP2 POP POP JUMP JUMPDEST PUSH2 0x293F DUP2 PUSH2 0x28FD JUMP JUMPDEST DUP2 EQ PUSH2 0x2949 JUMPI PUSH0 DUP1 REVERT JUMPDEST POP JUMP JUMPDEST PUSH0 DUP2 CALLDATALOAD SWAP1 POP PUSH2 0x295A DUP2 PUSH2 0x2936 JUMP JUMPDEST SWAP3 SWAP2 POP POP JUMP JUMPDEST PUSH0 DUP1 PUSH1 0x40 DUP4 DUP6 SUB SLT ISZERO PUSH2 0x2976 JUMPI PUSH2 0x2975 PUSH2 0x2735 JUMP JUMPDEST JUMPDEST PUSH0 PUSH2 0x2983 DUP6 DUP3 DUP7 ADD PUSH2 0x294C JUMP JUMPDEST SWAP3 POP POP PUSH1 0x20 PUSH2 0x2994 DUP6 DUP3 DUP7 ADD PUSH2 0x289F JUMP JUMPDEST SWAP2 POP POP SWAP3 POP SWAP3 SWAP1 POP JUMP JUMPDEST PUSH2 0x29A7 DUP2 PUSH2 0x2880 JUMP JUMPDEST DUP3 MSTORE POP POP JUMP JUMPDEST PUSH0 PUSH1 0x20 DUP3 ADD SWAP1 POP PUSH2 0x29C0 PUSH0 DUP4 ADD DUP5 PUSH2 0x299E JUMP JUMPDEST SWAP3 SWAP2 POP POP JUMP JUMPDEST PUSH0 DUP1 PUSH0 PUSH1 0x60 DUP5 DUP7 SUB SLT ISZERO PUSH2 0x29DD JUMPI PUSH2 0x29DC PUSH2 0x2735 JUMP JUMPDEST JUMPDEST PUSH0 PUSH2 0x29EA DUP7 DUP3 DUP8 ADD PUSH2 0x294C JUMP JUMPDEST SWAP4 POP POP PUSH1 0x20 PUSH2 0x29FB DUP7 DUP3 DUP8 ADD PUSH2 0x294C JUMP JUMPDEST SWAP3 POP POP PUSH1 0x40 PUSH2 0x2A0C DUP7 DUP3 DUP8 ADD PUSH2 0x289F JUMP JUMPDEST SWAP2 POP POP SWAP3 POP SWAP3 POP SWAP3 JUMP JUMPDEST PUSH0 PUSH1 0x20 DUP3 DUP5 SUB SLT ISZERO PUSH2 0x2A2B JUMPI PUSH2 0x2A2A PUSH2 0x2735 JUMP JUMPDEST JUMPDEST PUSH0 PUSH2 0x2A38 DUP5 DUP3 DUP6 ADD PUSH2 0x294C JUMP JUMPDEST SWAP2 POP POP SWAP3 SWAP2 POP POP JUMP JUMPDEST PUSH2 0x2A4A DUP2 PUSH2 0x27BD JUMP JUMPDEST DUP2 EQ PUSH2 0x2A54 JUMPI PUSH0 DUP1 REVERT JUMPDEST POP JUMP JUMPDEST PUSH0 DUP2 CALLDATALOAD SWAP1 POP PUSH2 0x2A65 DUP2 PUSH2 0x2A41 JUMP JUMPDEST SWAP3 SWAP2 POP POP JUMP JUMPDEST PUSH0 DUP1 PUSH1 0x40 DUP4 DUP6 SUB SLT ISZERO PUSH2 0x2A81 JUMPI PUSH2 0x2A80 PUSH2 0x2735 JUMP JUMPDEST JUMPDEST PUSH0 PUSH2 0x2A8E DUP6 DUP3 DUP7 ADD PUSH2 0x294C JUMP JUMPDEST SWAP3 POP POP PUSH1 0x20 PUSH2 0x2A9F DUP6 DUP3 DUP7 ADD PUSH2 0x2A57 JUMP JUMPDEST SWAP2 POP POP SWAP3 POP SWAP3 SWAP1 POP JUMP JUMPDEST PUSH0 PUSH1 0xFF DUP3 AND SWAP1 POP SWAP2 SWAP1 POP JUMP JUMPDEST PUSH2 0x2ABE DUP2 PUSH2 0x2AA9 JUMP JUMPDEST DUP2 EQ PUSH2 0x2AC8 JUMPI PUSH0 DUP1 REVERT JUMPDEST POP JUMP JUMPDEST PUSH0 DUP2 CALLDATALOAD SWAP1 POP PUSH2 0x2AD9 DUP2 PUSH2 0x2AB5 JUMP JUMPDEST SWAP3 SWAP2 POP POP JUMP JUMPDEST PUSH0 DUP1 PUSH1 0x40 DUP4 DUP6 SUB SLT ISZERO PUSH2 0x2AF5 JUMPI PUSH2 0x2AF4 PUSH2 0x2735 JUMP JUMPDEST JUMPDEST PUSH0 PUSH2 0x2B02 DUP6 DUP3 DUP7 ADD PUSH2 0x289F JUMP JUMPDEST SWAP3 POP POP PUSH1 0x20 PUSH2 0x2B13 DUP6 DUP3 DUP7 ADD PUSH2 0x2ACB JUMP JUMPDEST SWAP2 POP POP SWAP3 POP SWAP3 SWAP1 POP JUMP JUMPDEST PUSH0 DUP1 REVERT JUMPDEST PUSH0 DUP1 REVERT JUMPDEST PUSH32 0x4E487B7100000000000000000000000000000000000000000000000000000000 PUSH0 MSTORE PUSH1 0x41 PUSH1 0x4 MSTORE PUSH1 0x24 PUSH0 REVERT JUMPDEST PUSH2 0x2B5B DUP3 PUSH2 0x2818 JUMP JUMPDEST DUP2 ADD DUP2 DUP2 LT PUSH8 0xFFFFFFFFFFFFFFFF DUP3 GT OR ISZERO PUSH2 0x2B7A JUMPI PUSH2 0x2B79 PUSH2 0x2B25 JUMP JUMPDEST JUMPDEST DUP1 PUSH1 0x40 MSTORE POP POP POP JUMP JUMPDEST PUSH0 PUSH2 0x2B8C PUSH2 0x272C JUMP JUMPDEST SWAP1 POP PUSH2 0x2B98 DUP3 DUP3 PUSH2 0x2B52 JUMP JUMPDEST SWAP2 SWAP1 POP JUMP JUMPDEST PUSH0 PUSH8 0xFFFFFFFFFFFFFFFF DUP3 GT ISZERO PUSH2 0x2BB7 JUMPI PUSH2 0x2BB6 PUSH2 0x2B25 JUMP JUMPDEST JUMPDEST PUSH2 0x2BC0 DUP3 PUSH2 0x2818 JUMP JUMPDEST SWAP1 POP PUSH1 0x20 DUP2 ADD SWAP1 POP SWAP2 SWAP1 POP JUMP JUMPDEST DUP3 DUP2 DUP4 CALLDATACOPY PUSH0 DUP4 DUP4 ADD MSTORE POP POP POP JUMP JUMPDEST PUSH0 PUSH2 0x2BED PUSH2 0x2BE8 DUP5 PUSH2 0x2B9D JUMP JUMPDEST PUSH2 0x2B83 JUMP JUMPDEST SWAP1 POP DUP3 DUP2 MSTORE PUSH1 0x20 DUP2 ADD DUP5 DUP5 DUP5 ADD GT ISZERO PUSH2 0x2C09 JUMPI PUSH2 0x2C08 PUSH2 0x2B21 JUMP JUMPDEST JUMPDEST PUSH2 0x2C14 DUP5 DUP3 DUP6 PUSH2 0x2BCD JUMP JUMPDEST POP SWAP4 SWAP3 POP POP POP JUMP JUMPDEST PUSH0 DUP3 PUSH1 0x1F DUP4 ADD SLT PUSH2 0x2C30 JUMPI PUSH2 0x2C2F PUSH2 0x2B1D JUMP JUMPDEST JUMPDEST DUP2 CALLDATALOAD PUSH2 0x2C40 DUP5 DUP3 PUSH1 0x20 DUP7 ADD PUSH2 0x2BDB JUMP JUMPDEST SWAP2 POP POP SWAP3 SWAP2 POP POP JUMP JUMPDEST PUSH0 DUP1 PUSH0 DUP1 PUSH1 0x80 DUP6 DUP8 SUB SLT ISZERO PUSH2 0x2C61 JUMPI PUSH2 0x2C60 PUSH2 0x2735 JUMP JUMPDEST JUMPDEST PUSH0 PUSH2 0x2C6E DUP8 DUP3 DUP9 ADD PUSH2 0x294C JUMP JUMPDEST SWAP5 POP POP PUSH1 0x20 PUSH2 0x2C7F DUP8 DUP3 DUP9 ADD PUSH2 0x294C JUMP JUMPDEST SWAP4 POP POP PUSH1 0x40 PUSH2 0x2C90 DUP8 DUP3 DUP9 ADD PUSH2 0x289F JUMP JUMPDEST SWAP3 POP POP PUSH1 0x60 DUP6 ADD CALLDATALOAD PUSH8 0xFFFFFFFFFFFFFFFF DUP2 GT ISZERO PUSH2 0x2CB1 JUMPI PUSH2 0x2CB0 PUSH2 0x2739 JUMP JUMPDEST JUMPDEST PUSH2 0x2CBD DUP8 DUP3 DUP9 ADD PUSH2 0x2C1C JUMP JUMPDEST SWAP2 POP POP SWAP3 SWAP6 SWAP2 SWAP5 POP SWAP3 POP JUMP JUMPDEST PUSH0 PUSH1 0x60 DUP3 ADD SWAP1 POP PUSH2 0x2CDC PUSH0 DUP4 ADD DUP7 PUSH2 0x299E JUMP JUMPDEST PUSH2 0x2CE9 PUSH1 0x20 DUP4 ADD DUP6 PUSH2 0x299E JUMP JUMPDEST PUSH2 0x2CF6 PUSH1 0x40 DUP4 ADD DUP5 PUSH2 0x299E JUMP JUMPDEST SWAP5 SWAP4 POP POP POP POP JUMP JUMPDEST PUSH0 DUP1 PUSH1 0x40 DUP4 DUP6 SUB SLT ISZERO PUSH2 0x2D14 JUMPI PUSH2 0x2D13 PUSH2 0x2735 JUMP JUMPDEST JUMPDEST PUSH0 PUSH2 0x2D21 DUP6 DUP3 DUP7 ADD PUSH2 0x294C JUMP JUMPDEST SWAP3 POP POP PUSH1 0x20 PUSH2 0x2D32 DUP6 DUP3 DUP7 ADD PUSH2 0x294C JUMP JUMPDEST SWAP2 POP POP SWAP3 POP SWAP3 SWAP1 POP JUMP JUMPDEST PUSH0 DUP1 PUSH1 0x40 DUP4 DUP6 SUB SLT ISZERO PUSH2 0x2D52 JUMPI PUSH2 0x2D51 PUSH2 0x2735 JUMP JUMPDEST JUMPDEST PUSH0 PUSH2 0x2D5F DUP6 DUP3 DUP7 ADD PUSH2 0x289F JUMP JUMPDEST SWAP3 POP POP PUSH1 0x20 PUSH2 0x2D70 DUP6 DUP3 DUP7 ADD PUSH2 0x289F JUMP JUMPDEST SWAP2 POP POP SWAP3 POP SWAP3 SWAP1 POP JUMP JUMPDEST PUSH32 0x4E487B7100000000000000000000000000000000000000000000000000000000 PUSH0 MSTORE PUSH1 0x22 PUSH1 0x4 MSTORE PUSH1 0x24 PUSH0 REVERT JUMPDEST PUSH0 PUSH1 0x2 DUP3 DIV SWAP1 POP PUSH1 0x1 DUP3 AND DUP1 PUSH2 0x2DBE JUMPI PUSH1 0x7F DUP3 AND SWAP2 POP JUMPDEST PUSH1 0x20 DUP3 LT DUP2 SUB PUSH2 0x2DD1 JUMPI PUSH2 0x2DD0 PUSH2 0x2D7A JUMP JUMPDEST JUMPDEST POP SWAP2 SWAP1 POP JUMP JUMPDEST PUSH32 0x4552433732313A20617070726F76616C20746F2063757272656E74206F776E65 PUSH0 DUP3 ADD MSTORE PUSH32 0x7200000000000000000000000000000000000000000000000000000000000000 PUSH1 0x20 DUP3 ADD MSTORE POP JUMP JUMPDEST PUSH0 PUSH2 0x2E31 PUSH1 0x21 DUP4 PUSH2 0x27FA JUMP JUMPDEST SWAP2 POP PUSH2 0x2E3C DUP3 PUSH2 0x2DD7 JUMP JUMPDEST PUSH1 0x40 DUP3 ADD SWAP1 POP SWAP2 SWAP1 POP JUMP JUMPDEST PUSH0 PUSH1 0x20 DUP3 ADD SWAP1 POP DUP2 DUP2 SUB PUSH0 DUP4 ADD MSTORE PUSH2 0x2E5E DUP2 PUSH2 0x2E25 JUMP JUMPDEST SWAP1 POP SWAP2 SWAP1 POP JUMP JUMPDEST PUSH32 0x4552433732313A20617070726F76652063616C6C6572206973206E6F7420746F PUSH0 DUP3 ADD MSTORE PUSH32 0x6B656E206F776E6572206F7220617070726F76656420666F7220616C6C000000 PUSH1 0x20 DUP3 ADD MSTORE POP JUMP JUMPDEST PUSH0 PUSH2 0x2EBF PUSH1 0x3D DUP4 PUSH2 0x27FA JUMP JUMPDEST SWAP2 POP PUSH2 0x2ECA DUP3 PUSH2 0x2E65 JUMP JUMPDEST PUSH1 0x40 DUP3 ADD SWAP1 POP SWAP2 SWAP1 POP JUMP JUMPDEST PUSH0 PUSH1 0x20 DUP3 ADD SWAP1 POP DUP2 DUP2 SUB PUSH0 DUP4 ADD MSTORE PUSH2 0x2EEC DUP2 PUSH2 0x2EB3 JUMP JUMPDEST SWAP1 POP SWAP2 SWAP1 POP JUMP JUMPDEST PUSH32 0x4552433732313A2063616C6C6572206973206E6F7420746F6B656E206F776E65 PUSH0 DUP3 ADD MSTORE PUSH32 0x72206F7220617070726F76656400000000000000000000000000000000000000 PUSH1 0x20 DUP3 ADD MSTORE POP JUMP JUMPDEST PUSH0 PUSH2 0x2F4D PUSH1 0x2D DUP4 PUSH2 0x27FA JUMP JUMPDEST SWAP2 POP PUSH2 0x2F58 DUP3 PUSH2 0x2EF3 JUMP JUMPDEST PUSH1 0x40 DUP3 ADD SWAP1 POP SWAP2 SWAP1 POP JUMP JUMPDEST PUSH0 PUSH1 0x20 DUP3 ADD SWAP1 POP DUP2 DUP2 SUB PUSH0 DUP4 ADD MSTORE PUSH2 0x2F7A DUP2 PUSH2 0x2F41 JUMP JUMPDEST SWAP1 POP SWAP2 SWAP1 POP JUMP JUMPDEST PUSH0 DUP2 SWAP1 POP SWAP3 SWAP2 POP POP JUMP JUMPDEST POP JUMP JUMPDEST PUSH0 PUSH2 0x2F99 PUSH0 DUP4 PUSH2 0x2F81 JUMP JUMPDEST SWAP2 POP PUSH2 0x2FA4 DUP3 PUSH2 0x2F8B JUMP JUMPDEST PUSH0 DUP3 ADD SWAP1 POP SWAP2 SWAP1 POP JUMP JUMPDEST PUSH0 PUSH2 0x2FB8 DUP3 PUSH2 0x2F8E JUMP JUMPDEST SWAP2 POP DUP2 SWAP1 POP SWAP2 SWAP1 POP JUMP JUMPDEST PUSH32 0x4552433732313A20696E76616C696420746F6B656E2049440000000000000000 PUSH0 DUP3 ADD MSTORE POP JUMP JUMPDEST PUSH0 PUSH2 0x2FF6 PUSH1 0x18 DUP4 PUSH2 0x27FA JUMP JUMPDEST SWAP2 POP PUSH2 0x3001 DUP3 PUSH2 0x2FC2 JUMP JUMPDEST PUSH1 0x20 DUP3 ADD SWAP1 POP SWAP2 SWAP1 POP JUMP JUMPDEST PUSH0 PUSH1 0x20 DUP3 ADD SWAP1 POP DUP2 DUP2 SUB PUSH0 DUP4 ADD MSTORE PUSH2 0x3023 DUP2 PUSH2 0x2FEA JUMP JUMPDEST SWAP1 POP SWAP2 SWAP1 POP JUMP JUMPDEST PUSH32 0x4552433732313A2061646472657373207A65726F206973206E6F742061207661 PUSH0 DUP3 ADD MSTORE PUSH32 0x6C6964206F776E65720000000000000000000000000000000000000000000000 PUSH1 0x20 DUP3 ADD MSTORE POP JUMP JUMPDEST PUSH0 PUSH2 0x3084 PUSH1 0x29 DUP4 PUSH2 0x27FA JUMP JUMPDEST SWAP2 POP PUSH2 0x308F DUP3 PUSH2 0x302A JUMP JUMPDEST PUSH1 0x40 DUP3 ADD SWAP1 POP SWAP2 SWAP1 POP JUMP JUMPDEST PUSH0 PUSH1 0x20 DUP3 ADD SWAP1 POP DUP2 DUP2 SUB PUSH0 DUP4 ADD MSTORE PUSH2 0x30B1 DUP2 PUSH2 0x3078 JUMP JUMPDEST SWAP1 POP SWAP2 SWAP1 POP JUMP JUMPDEST PUSH32 0x717565727920666F72206E6F6E6578697374656E7420746F6B656E0000000000 PUSH0 DUP3 ADD MSTORE POP JUMP JUMPDEST PUSH0 PUSH2 0x30EC PUSH1 0x1B DUP4 PUSH2 0x27FA JUMP JUMPDEST SWAP2 POP PUSH2 0x30F7 DUP3 PUSH2 0x30B8 JUMP JUMPDEST PUSH1 0x20 DUP3 ADD SWAP1 POP SWAP2 SWAP1 POP JUMP JUMPDEST PUSH0 PUSH1 0x20 DUP3 ADD SWAP1 POP DUP2 DUP2 SUB PUSH0 DUP4 ADD MSTORE PUSH2 0x3119 DUP2 PUSH2 0x30E0 JUMP JUMPDEST SWAP1 POP SWAP2 SWAP1 POP JUMP JUMPDEST PUSH32 0x4E487B7100000000000000000000000000000000000000000000000000000000 PUSH0 MSTORE PUSH1 0x11 PUSH1 0x4 MSTORE PUSH1 0x24 PUSH0 REVERT JUMPDEST PUSH0 PUSH2 0x3157 DUP3 PUSH2 0x2AA9 JUMP JUMPDEST SWAP2 POP PUSH2 0x3162 DUP4 PUSH2 0x2AA9 JUMP JUMPDEST SWAP3 POP DUP3 DUP3 ADD SWAP1 POP PUSH1 0xFF DUP2 GT ISZERO PUSH2 0x317B JUMPI PUSH2 0x317A PUSH2 0x3120 JUMP JUMPDEST JUMPDEST SWAP3 SWAP2 POP POP JUMP JUMPDEST PUSH0 PUSH1 0x40 DUP3 ADD SWAP1 POP PUSH2 0x3194 PUSH0 DUP4 ADD DUP6 PUSH2 0x299E JUMP JUMPDEST PUSH2 0x31A1 PUSH1 0x20 DUP4 ADD DUP5 PUSH2 0x299E JUMP JUMPDEST SWAP4 SWAP3 POP POP POP JUMP JUMPDEST PUSH32 0x4552433732314D657461646174613A2055524920717565727920666F72206E6F PUSH0 DUP3 ADD MSTORE PUSH32 0x6E6578697374656E7420746F6B656E0000000000000000000000000000000000 PUSH1 0x20 DUP3 ADD MSTORE POP JUMP JUMPDEST PUSH0 PUSH2 0x3202 PUSH1 0x2F DUP4 PUSH2 0x27FA JUMP JUMPDEST SWAP2 POP PUSH2 0x320D DUP3 PUSH2 0x31A8 JUMP JUMPDEST PUSH1 0x40 DUP3 ADD SWAP1 POP SWAP2 SWAP1 POP JUMP JUMPDEST PUSH0 PUSH1 0x20 DUP3 ADD SWAP1 POP DUP2 DUP2 SUB PUSH0 DUP4 ADD MSTORE PUSH2 0x322F DUP2 PUSH2 0x31F6 JUMP JUMPDEST SWAP1 POP SWAP2 SWAP1 POP JUMP JUMPDEST PUSH0 DUP2 SWAP1 POP SWAP3 SWAP2 POP POP JUMP JUMPDEST PUSH0 PUSH2 0x324A DUP3 PUSH2 0x27F0 JUMP JUMPDEST PUSH2 0x3254 DUP2 DUP6 PUSH2 0x3236 JUMP JUMPDEST SWAP4 POP PUSH2 0x3264 DUP2 DUP6 PUSH1 0x20 DUP7 ADD PUSH2 0x280A JUMP JUMPDEST DUP1 DUP5 ADD SWAP2 POP POP SWAP3 SWAP2 POP POP JUMP JUMPDEST PUSH32 0x2E6A736F6E000000000000000000000000000000000000000000000000000000 PUSH0 DUP3 ADD MSTORE POP JUMP JUMPDEST PUSH0 PUSH2 0x32A4 PUSH1 0x5 DUP4 PUSH2 0x3236 JUMP JUMPDEST SWAP2 POP PUSH2 0x32AF DUP3 PUSH2 0x3270 JUMP JUMPDEST PUSH1 0x5 DUP3 ADD SWAP1 POP SWAP2 SWAP1 POP JUMP JUMPDEST PUSH0 PUSH2 0x32C5 DUP3 DUP6 PUSH2 0x3240 JUMP JUMPDEST SWAP2 POP PUSH2 0x32D1 DUP3 DUP5 PUSH2 0x3240 JUMP JUMPDEST SWAP2 POP PUSH2 0x32DC DUP3 PUSH2 0x3298 JUMP JUMPDEST SWAP2 POP DUP2 SWAP1 POP SWAP4 SWAP3 POP POP POP JUMP JUMPDEST PUSH32 0x4F776E61626C653A206E6577206F776E657220697320746865207A65726F2061 PUSH0 DUP3 ADD MSTORE PUSH32 0x6464726573730000000000000000000000000000000000000000000000000000 PUSH1 0x20 DUP3 ADD MSTORE POP JUMP JUMPDEST PUSH0 PUSH2 0x3342 PUSH1 0x26 DUP4 PUSH2 0x27FA JUMP JUMPDEST SWAP2 POP PUSH2 0x334D DUP3 PUSH2 0x32E8 JUMP JUMPDEST PUSH1 0x40 DUP3 ADD SWAP1 POP SWAP2 SWAP1 POP JUMP JUMPDEST PUSH0 PUSH1 0x20 DUP3 ADD SWAP1 POP DUP2 DUP2 SUB PUSH0 DUP4 ADD MSTORE PUSH2 0x336F DUP2 PUSH2 0x3336 JUMP JUMPDEST SWAP1 POP SWAP2 SWAP1 POP JUMP JUMPDEST PUSH0 DUP2 MLOAD SWAP1 POP PUSH2 0x3384 DUP2 PUSH2 0x2889 JUMP JUMPDEST SWAP3 SWAP2 POP POP JUMP JUMPDEST PUSH0 DUP1 PUSH0 PUSH1 0x60 DUP5 DUP7 SUB SLT ISZERO PUSH2 0x33A1 JUMPI PUSH2 0x33A0 PUSH2 0x2735 JUMP JUMPDEST JUMPDEST PUSH0 PUSH2 0x33AE DUP7 DUP3 DUP8 ADD PUSH2 0x3376 JUMP JUMPDEST SWAP4 POP POP PUSH1 0x20 PUSH2 0x33BF DUP7 DUP3 DUP8 ADD PUSH2 0x3376 JUMP JUMPDEST SWAP3 POP POP PUSH1 0x40 PUSH2 0x33D0 DUP7 DUP3 DUP8 ADD PUSH2 0x3376 JUMP JUMPDEST SWAP2 POP POP SWAP3 POP SWAP3 POP SWAP3 JUMP JUMPDEST PUSH32 0x4F776E61626C653A2063616C6C6572206973206E6F7420746865206F776E6572 PUSH0 DUP3 ADD MSTORE POP JUMP JUMPDEST PUSH0 PUSH2 0x340E PUSH1 0x20 DUP4 PUSH2 0x27FA JUMP JUMPDEST SWAP2 POP PUSH2 0x3419 DUP3 PUSH2 0x33DA JUMP JUMPDEST PUSH1 0x20 DUP3 ADD SWAP1 POP SWAP2 SWAP1 POP JUMP JUMPDEST PUSH0 PUSH1 0x20 DUP3 ADD SWAP1 POP DUP2 DUP2 SUB PUSH0 DUP4 ADD MSTORE PUSH2 0x343B DUP2 PUSH2 0x3402 JUMP JUMPDEST SWAP1 POP SWAP2 SWAP1 POP JUMP JUMPDEST PUSH32 0x4552433732313A207472616E736665722066726F6D20696E636F727265637420 PUSH0 DUP3 ADD MSTORE PUSH32 0x6F776E6572000000000000000000000000000000000000000000000000000000 PUSH1 0x20 DUP3 ADD MSTORE POP JUMP JUMPDEST PUSH0 PUSH2 0x349C PUSH1 0x25 DUP4 PUSH2 0x27FA JUMP JUMPDEST SWAP2 POP PUSH2 0x34A7 DUP3 PUSH2 0x3442 JUMP JUMPDEST PUSH1 0x40 DUP3 ADD SWAP1 POP SWAP2 SWAP1 POP JUMP JUMPDEST PUSH0 PUSH1 0x20 DUP3 ADD SWAP1 POP DUP2 DUP2 SUB PUSH0 DUP4 ADD MSTORE PUSH2 0x34C9 DUP2 PUSH2 0x3490 JUMP JUMPDEST SWAP1 POP SWAP2 SWAP1 POP JUMP JUMPDEST PUSH32 0x4552433732313A207472616E7366657220746F20746865207A65726F20616464 PUSH0 DUP3 ADD MSTORE PUSH32 0x7265737300000000000000000000000000000000000000000000000000000000 PUSH1 0x20 DUP3 ADD MSTORE POP JUMP JUMPDEST PUSH0 PUSH2 0x352A PUSH1 0x24 DUP4 PUSH2 0x27FA JUMP JUMPDEST SWAP2 POP PUSH2 0x3535 DUP3 PUSH2 0x34D0 JUMP JUMPDEST PUSH1 0x40 DUP3 ADD SWAP1 POP SWAP2 SWAP1 POP JUMP JUMPDEST PUSH0 PUSH1 0x20 DUP3 ADD SWAP1 POP DUP2 DUP2 SUB PUSH0 DUP4 ADD MSTORE PUSH2 0x3557 DUP2 PUSH2 0x351E JUMP JUMPDEST SWAP1 POP SWAP2 SWAP1 POP JUMP JUMPDEST PUSH32 0x6572726F722C20637265617465546F6B656E2C2070617274206964206D757374 PUSH0 DUP3 ADD MSTORE PUSH32 0x20626520696E2072616E67650000000000000000000000000000000000000000 PUSH1 0x20 DUP3 ADD MSTORE POP JUMP JUMPDEST PUSH0 PUSH2 0x35B8 PUSH1 0x2C DUP4 PUSH2 0x27FA JUMP JUMPDEST SWAP2 POP PUSH2 0x35C3 DUP3 PUSH2 0x355E JUMP JUMPDEST PUSH1 0x40 DUP3 ADD SWAP1 POP SWAP2 SWAP1 POP JUMP JUMPDEST PUSH0 PUSH1 0x20 DUP3 ADD SWAP1 POP DUP2 DUP2 SUB PUSH0 DUP4 ADD MSTORE PUSH2 0x35E5 DUP2 PUSH2 0x35AC JUMP JUMPDEST SWAP1 POP SWAP2 SWAP1 POP JUMP JUMPDEST PUSH32 0x6572726F722C20637265617465546F6B656E2C2070617274206C6576656C206D PUSH0 DUP3 ADD MSTORE PUSH32 0x7573742062652067726561746572207468616E20300000000000000000000000 PUSH1 0x20 DUP3 ADD MSTORE POP JUMP JUMPDEST PUSH0 PUSH2 0x3646 PUSH1 0x35 DUP4 PUSH2 0x27FA JUMP JUMPDEST SWAP2 POP PUSH2 0x3651 DUP3 PUSH2 0x35EC JUMP JUMPDEST PUSH1 0x40 DUP3 ADD SWAP1 POP SWAP2 SWAP1 POP JUMP JUMPDEST PUSH0 PUSH1 0x20 DUP3 ADD SWAP1 POP DUP2 DUP2 SUB PUSH0 DUP4 ADD MSTORE PUSH2 0x3673 DUP2 PUSH2 0x363A JUMP JUMPDEST SWAP1 POP SWAP2 SWAP1 POP JUMP JUMPDEST PUSH0 PUSH2 0x3684 DUP3 PUSH2 0x2AA9 JUMP JUMPDEST SWAP2 POP PUSH1 0xFF DUP3 SUB PUSH2 0x3697 JUMPI PUSH2 0x3696 PUSH2 0x3120 JUMP JUMPDEST JUMPDEST PUSH1 0x1 DUP3 ADD SWAP1 POP SWAP2 SWAP1 POP JUMP JUMPDEST PUSH0 PUSH1 0x80 DUP3 ADD SWAP1 POP PUSH2 0x36B5 PUSH0 DUP4 ADD DUP8 PUSH2 0x299E JUMP JUMPDEST PUSH2 0x36C2 PUSH1 0x20 DUP4 ADD DUP7 PUSH2 0x299E JUMP JUMPDEST PUSH2 0x36CF PUSH1 0x40 DUP4 ADD DUP6 PUSH2 0x299E JUMP JUMPDEST PUSH2 0x36DC PUSH1 0x60 DUP4 ADD DUP5 PUSH2 0x299E JUMP JUMPDEST SWAP6 SWAP5 POP POP POP POP POP JUMP JUMPDEST PUSH32 0x4552433732313A20617070726F766520746F2063616C6C657200000000000000 PUSH0 DUP3 ADD MSTORE POP JUMP JUMPDEST PUSH0 PUSH2 0x3719 PUSH1 0x19 DUP4 PUSH2 0x27FA JUMP JUMPDEST SWAP2 POP PUSH2 0x3724 DUP3 PUSH2 0x36E5 JUMP JUMPDEST PUSH1 0x20 DUP3 ADD SWAP1 POP SWAP2 SWAP1 POP JUMP JUMPDEST PUSH0 PUSH1 0x20 DUP3 ADD SWAP1 POP DUP2 DUP2 SUB PUSH0 DUP4 ADD MSTORE PUSH2 0x3746 DUP2 PUSH2 0x370D JUMP JUMPDEST SWAP1 POP SWAP2 SWAP1 POP JUMP JUMPDEST PUSH32 0x4552433732313A207472616E7366657220746F206E6F6E204552433732315265 PUSH0 DUP3 ADD MSTORE PUSH32 0x63656976657220696D706C656D656E7465720000000000000000000000000000 PUSH1 0x20 DUP3 ADD MSTORE POP JUMP JUMPDEST PUSH0 PUSH2 0x37A7 PUSH1 0x32 DUP4 PUSH2 0x27FA JUMP JUMPDEST SWAP2 POP PUSH2 0x37B2 DUP3 PUSH2 0x374D JUMP JUMPDEST PUSH1 0x40 DUP3 ADD SWAP1 POP SWAP2 SWAP1 POP JUMP JUMPDEST PUSH0 PUSH1 0x20 DUP3 ADD SWAP1 POP DUP2 DUP2 SUB PUSH0 DUP4 ADD MSTORE PUSH2 0x37D4 DUP2 PUSH2 0x379B JUMP JUMPDEST SWAP1 POP SWAP2 SWAP1 POP JUMP JUMPDEST PUSH32 0x4E487B7100000000000000000000000000000000000000000000000000000000 PUSH0 MSTORE PUSH1 0x12 PUSH1 0x4 MSTORE PUSH1 0x24 PUSH0 REVERT JUMPDEST PUSH32 0x5061757361626C653A206E6F7420706175736564000000000000000000000000 PUSH0 DUP3 ADD MSTORE POP JUMP JUMPDEST PUSH0 PUSH2 0x383C PUSH1 0x14 DUP4 PUSH2 0x27FA JUMP JUMPDEST SWAP2 POP PUSH2 0x3847 DUP3 PUSH2 0x3808 JUMP JUMPDEST PUSH1 0x20 DUP3 ADD SWAP1 POP SWAP2 SWAP1 POP JUMP JUMPDEST PUSH0 PUSH1 0x20 DUP3 ADD SWAP1 POP DUP2 DUP2 SUB PUSH0 DUP4 ADD MSTORE PUSH2 0x3869 DUP2 PUSH2 0x3830 JUMP JUMPDEST SWAP1 POP SWAP2 SWAP1 POP JUMP JUMPDEST PUSH32 0x5061757361626C653A2070617573656400000000000000000000000000000000 PUSH0 DUP3 ADD MSTORE POP JUMP JUMPDEST PUSH0 PUSH2 0x38A4 PUSH1 0x10 DUP4 PUSH2 0x27FA JUMP JUMPDEST SWAP2 POP PUSH2 0x38AF DUP3 PUSH2 0x3870 JUMP JUMPDEST PUSH1 0x20 DUP3 ADD SWAP1 POP SWAP2 SWAP1 POP JUMP JUMPDEST PUSH0 PUSH1 0x20 DUP3 ADD SWAP1 POP DUP2 DUP2 SUB PUSH0 DUP4 ADD MSTORE PUSH2 0x38D1 DUP2 PUSH2 0x3898 JUMP JUMPDEST SWAP1 POP SWAP2 SWAP1 POP JUMP JUMPDEST PUSH0 PUSH2 0x38E2 DUP3 PUSH2 0x2AA9 JUMP JUMPDEST SWAP2 POP PUSH2 0x38ED DUP4 PUSH2 0x2AA9 JUMP JUMPDEST SWAP3 POP DUP3 DUP3 MUL PUSH2 0x38FB DUP2 PUSH2 0x2AA9 JUMP JUMPDEST SWAP2 POP DUP1 DUP3 EQ PUSH2 0x390D JUMPI PUSH2 0x390C PUSH2 0x3120 JUMP JUMPDEST JUMPDEST POP SWAP3 SWAP2 POP POP JUMP JUMPDEST PUSH0 PUSH2 0x391E DUP3 PUSH2 0x2880 JUMP JUMPDEST SWAP2 POP PUSH2 0x3929 DUP4 PUSH2 0x2880 JUMP JUMPDEST SWAP3 POP DUP3 DUP3 ADD SWAP1 POP DUP1 DUP3 GT ISZERO PUSH2 0x3941 JUMPI PUSH2 0x3940 PUSH2 0x3120 JUMP JUMPDEST JUMPDEST SWAP3 SWAP2 POP POP JUMP JUMPDEST PUSH0 PUSH2 0x3951 DUP3 PUSH2 0x2880 JUMP JUMPDEST SWAP2 POP PUSH2 0x395C DUP4 PUSH2 0x2880 JUMP JUMPDEST SWAP3 POP DUP3 DUP3 MUL PUSH2 0x396A DUP2 PUSH2 0x2880 JUMP JUMPDEST SWAP2 POP DUP3 DUP3 DIV DUP5 EQ DUP4 ISZERO OR PUSH2 0x3981 JUMPI PUSH2 0x3980 PUSH2 0x3120 JUMP JUMPDEST JUMPDEST POP SWAP3 SWAP2 POP POP JUMP JUMPDEST PUSH0 DUP2 MLOAD SWAP1 POP SWAP2 SWAP1 POP JUMP JUMPDEST PUSH0 DUP3 DUP3 MSTORE PUSH1 0x20 DUP3 ADD SWAP1 POP SWAP3 SWAP2 POP POP JUMP JUMPDEST PUSH0 PUSH2 0x39AC DUP3 PUSH2 0x3988 JUMP JUMPDEST PUSH2 0x39B6 DUP2 DUP6 PUSH2 0x3992 JUMP JUMPDEST SWAP4 POP PUSH2 0x39C6 DUP2 DUP6 PUSH1 0x20 DUP7 ADD PUSH2 0x280A JUMP JUMPDEST PUSH2 0x39CF DUP2 PUSH2 0x2818 JUMP JUMPDEST DUP5 ADD SWAP2 POP POP SWAP3 SWAP2 POP POP JUMP JUMPDEST PUSH0 PUSH1 0x80 DUP3 ADD SWAP1 POP PUSH2 0x39ED PUSH0 DUP4 ADD DUP8 PUSH2 0x290E JUMP JUMPDEST PUSH2 0x39FA PUSH1 0x20 DUP4 ADD DUP7 PUSH2 0x290E JUMP JUMPDEST PUSH2 0x3A07 PUSH1 0x40 DUP4 ADD DUP6 PUSH2 0x299E JUMP JUMPDEST DUP2 DUP2 SUB PUSH1 0x60 DUP4 ADD MSTORE PUSH2 0x3A19 DUP2 DUP5 PUSH2 0x39A2 JUMP JUMPDEST SWAP1 POP SWAP6 SWAP5 POP POP POP POP POP JUMP JUMPDEST PUSH0 DUP2 MLOAD SWAP1 POP PUSH2 0x3A32 DUP2 PUSH2 0x2768 JUMP JUMPDEST SWAP3 SWAP2 POP POP JUMP JUMPDEST PUSH0 PUSH1 0x20 DUP3 DUP5 SUB SLT ISZERO PUSH2 0x3A4D JUMPI PUSH2 0x3A4C PUSH2 0x2735 JUMP JUMPDEST JUMPDEST PUSH0 PUSH2 0x3A5A DUP5 DUP3 DUP6 ADD PUSH2 0x3A24 JUMP JUMPDEST SWAP2 POP POP SWAP3 SWAP2 POP POP JUMP JUMPDEST PUSH0 PUSH2 0x3A6D DUP3 PUSH2 0x2880 JUMP JUMPDEST SWAP2 POP PUSH2 0x3A78 DUP4 PUSH2 0x2880 JUMP JUMPDEST SWAP3 POP DUP3 DUP3 SUB SWAP1 POP DUP2 DUP2 GT ISZERO PUSH2 0x3A90 JUMPI PUSH2 0x3A8F PUSH2 0x3120 JUMP JUMPDEST JUMPDEST SWAP3 SWAP2 POP POP JUMP JUMPDEST PUSH32 0x4552433732313A206D696E7420746F20746865207A65726F2061646472657373 PUSH0 DUP3 ADD MSTORE POP JUMP JUMPDEST PUSH0 PUSH2 0x3ACA PUSH1 0x20 DUP4 PUSH2 0x27FA JUMP JUMPDEST SWAP2 POP PUSH2 0x3AD5 DUP3 PUSH2 0x3A96 JUMP JUMPDEST PUSH1 0x20 DUP3 ADD SWAP1 POP SWAP2 SWAP1 POP JUMP JUMPDEST PUSH0 PUSH1 0x20 DUP3 ADD SWAP1 POP DUP2 DUP2 SUB PUSH0 DUP4 ADD MSTORE PUSH2 0x3AF7 DUP2 PUSH2 0x3ABE JUMP JUMPDEST SWAP1 POP SWAP2 SWAP1 POP JUMP JUMPDEST PUSH32 0x4552433732313A20746F6B656E20616C7265616479206D696E74656400000000 PUSH0 DUP3 ADD MSTORE POP JUMP JUMPDEST PUSH0 PUSH2 0x3B32 PUSH1 0x1C DUP4 PUSH2 0x27FA JUMP JUMPDEST SWAP2 POP PUSH2 0x3B3D DUP3 PUSH2 0x3AFE JUMP JUMPDEST PUSH1 0x20 DUP3 ADD SWAP1 POP SWAP2 SWAP1 POP JUMP JUMPDEST PUSH0 PUSH1 0x20 DUP3 ADD SWAP1 POP DUP2 DUP2 SUB PUSH0 DUP4 ADD MSTORE PUSH2 0x3B5F DUP2 PUSH2 0x3B26 JUMP JUMPDEST SWAP1 POP SWAP2 SWAP1 POP JUMP INVALID LOG2 PUSH5 0x6970667358 0x22 SLT KECCAK256 0x2E 0x2C 0xEE SGT DUP15 CREATE 0xFB 0xED DUP10 0xE6 DUP1 KECCAK256 0xE2 0xD1 XOR 0xC7 0xBC 0xD2 PUSH32 0xCEF26E9E592B0C58DE7D43408064736F6C634300081A003360806040525F8060 EQ PUSH2 0x100 EXP DUP2 SLOAD DUP2 PUSH1 0xFF MUL NOT AND SWAP1 DUP4 PUSH1 0xFF AND MUL OR SWAP1 SSTORE POP PUSH1 0x1 DUP1 SSTORE PUSH1 0x5 PUSH1 0x2 SSTORE PUSH1 0x1 PUSH1 0x3 SSTORE PUSH1 0x1E PUSH1 0x4 SSTORE PUSH1 0x1 PUSH1 0x5 SSTORE PUSH1 0x24 PUSH1 0x6 SSTORE CALLVALUE DUP1 ISZERO PUSH2 0x46 JUMPI PUSH0 DUP1 REVERT JUMPDEST POP PUSH2 0x63 PUSH2 0x58 PUSH2 0x68 PUSH1 0x20 SHL PUSH1 0x20 SHR JUMP JUMPDEST PUSH2 0x6F PUSH1 0x20 SHL PUSH1 0x20 SHR JUMP JUMPDEST PUSH2 0x130 JUMP JUMPDEST PUSH0 CALLER SWAP1 POP SWAP1 JUMP JUMPDEST PUSH0 DUP1 PUSH0 SWAP1 SLOAD SWAP1 PUSH2 0x100 EXP SWAP1 DIV PUSH20 0xFFFFFFFFFFFFFFFFFFFFFFFFFFFFFFFFFFFFFFFF AND SWAP1 POP DUP2 PUSH0 DUP1 PUSH2 0x100 EXP DUP2 SLOAD DUP2 PUSH20 0xFFFFFFFFFFFFFFFFFFFFFFFFFFFFFFFFFFFFFFFF MUL NOT AND SWAP1 DUP4 PUSH20 0xFFFFFFFFFFFFFFFFFFFFFFFFFFFFFFFFFFFFFFFF AND MUL OR SWAP1 SSTORE POP DUP2 PUSH20 0xFFFFFFFFFFFFFFFFFFFFFFFFFFFFFFFFFFFFFFFF AND DUP2 PUSH20 0xFFFFFFFFFFFFFFFFFFFFFFFFFFFFFFFFFFFFFFFF AND PUSH32 0x8BE0079C531659141344CD1FD0A4F28419497F9722A3DAAFE3B4186F6B6457E0 PUSH1 0x40 MLOAD PUSH1 0x40 MLOAD DUP1 SWAP2 SUB SWAP1 LOG3 POP POP JUMP JUMPDEST PUSH2 0x1492 DUP1 PUSH2 0x13D PUSH0 CODECOPY PUSH0 RETURN INVALID PUSH1 0x80 PUSH1 0x40 MSTORE CALLVALUE DUP1 ISZERO PUSH2 0xF JUMPI PUSH0 DUP1 REVERT JUMPDEST POP PUSH1 0x4 CALLDATASIZE LT PUSH2 0x114 JUMPI PUSH0 CALLDATALOAD PUSH1 0xE0 SHR DUP1 PUSH4 0x8DA5CB5B GT PUSH2 0xA0 JUMPI DUP1 PUSH4 0xE238B8C6 GT PUSH2 0x6F JUMPI DUP1 PUSH4 0xE238B8C6 EQ PUSH2 0x27E JUMPI DUP1 PUSH4 0xE2E3A0DB EQ PUSH2 0x29C JUMPI DUP1 PUSH4 0xE4A13FB7 EQ PUSH2 0x2B8 JUMPI DUP1 PUSH4 0xEB4B0E51 EQ PUSH2 0x2EA JUMPI DUP1 PUSH4 0xF2FDE38B EQ PUSH2 0x308 JUMPI PUSH2 0x114 JUMP JUMPDEST DUP1 PUSH4 0x8DA5CB5B EQ PUSH2 0x20A JUMPI DUP1 PUSH4 0x91B66725 EQ PUSH2 0x228 JUMPI DUP1 PUSH4 0xD477A712 EQ PUSH2 0x244 JUMPI DUP1 PUSH4 0xD6412CFD EQ PUSH2 0x262 JUMPI PUSH2 0x114 JUMP JUMPDEST DUP1 PUSH4 0x32099CC4 GT PUSH2 0xE7 JUMPI DUP1 PUSH4 0x32099CC4 EQ PUSH2 0x188 JUMPI DUP1 PUSH4 0x43AED9DC EQ PUSH2 0x1A6 JUMPI DUP1 PUSH4 0x615EBE28 EQ PUSH2 0x1C4 JUMPI DUP1 PUSH4 0x715018A6 EQ PUSH2 0x1E2 JUMPI DUP1 PUSH4 0x878CF3A6 EQ PUSH2 0x1EC JUMPI PUSH2 0x114 JUMP JUMPDEST DUP1 PUSH4 0x2AFF378 EQ PUSH2 0x118 JUMPI DUP1 PUSH4 0x54FEE6A EQ PUSH2 0x134 JUMPI DUP1 PUSH4 0x16BD8646 EQ PUSH2 0x150 JUMPI DUP1 PUSH4 0x1BB39F84 EQ PUSH2 0x16C JUMPI JUMPDEST PUSH0 DUP1 REVERT JUMPDEST PUSH2 0x132 PUSH1 0x4 DUP1 CALLDATASIZE SUB DUP2 ADD SWAP1 PUSH2 0x12D SWAP2 SWAP1 PUSH2 0xC8C JUMP JUMPDEST PUSH2 0x324 JUMP JUMPDEST STOP JUMPDEST PUSH2 0x14E PUSH1 0x4 DUP1 CALLDATASIZE SUB DUP2 ADD SWAP1 PUSH2 0x149 SWAP2 SWAP1 PUSH2 0xC8C JUMP JUMPDEST PUSH2 0x336 JUMP JUMPDEST STOP JUMPDEST PUSH2 0x16A PUSH1 0x4 DUP1 CALLDATASIZE SUB DUP2 ADD SWAP1 PUSH2 0x165 SWAP2 SWAP1 PUSH2 0xC8C JUMP JUMPDEST PUSH2 0x348 JUMP JUMPDEST STOP JUMPDEST PUSH2 0x186 PUSH1 0x4 DUP1 CALLDATASIZE SUB DUP2 ADD SWAP1 PUSH2 0x181 SWAP2 SWAP1 PUSH2 0xC8C JUMP JUMPDEST PUSH2 0x35A JUMP JUMPDEST STOP JUMPDEST PUSH2 0x190 PUSH2 0x36C JUMP JUMPDEST PUSH1 0x40 MLOAD PUSH2 0x19D SWAP2 SWAP1 PUSH2 0xCC6 JUMP JUMPDEST PUSH1 0x40 MLOAD DUP1 SWAP2 SUB SWAP1 RETURN JUMPDEST PUSH2 0x1AE PUSH2 0x375 JUMP JUMPDEST PUSH1 0x40 MLOAD PUSH2 0x1BB SWAP2 SWAP1 PUSH2 0xCFA JUMP JUMPDEST PUSH1 0x40 MLOAD DUP1 SWAP2 SUB SWAP1 RETURN JUMPDEST PUSH2 0x1CC PUSH2 0x38A JUMP JUMPDEST PUSH1 0x40 MLOAD PUSH2 0x1D9 SWAP2 SWAP1 PUSH2 0xCC6 JUMP JUMPDEST PUSH1 0x40 MLOAD DUP1 SWAP2 SUB SWAP1 RETURN JUMPDEST PUSH2 0x1EA PUSH2 0x393 JUMP JUMPDEST STOP JUMPDEST PUSH2 0x1F4 PUSH2 0x3A6 JUMP JUMPDEST PUSH1 0x40 MLOAD PUSH2 0x201 SWAP2 SWAP1 PUSH2 0xCC6 JUMP JUMPDEST PUSH1 0x40 MLOAD DUP1 SWAP2 SUB SWAP1 RETURN JUMPDEST PUSH2 0x212 PUSH2 0x3AF JUMP JUMPDEST PUSH1 0x40 MLOAD PUSH2 0x21F SWAP2 SWAP1 PUSH2 0xD52 JUMP JUMPDEST PUSH1 0x40 MLOAD DUP1 SWAP2 SUB SWAP1 RETURN JUMPDEST PUSH2 0x242 PUSH1 0x4 DUP1 CALLDATASIZE SUB DUP2 ADD SWAP1 PUSH2 0x23D SWAP2 SWAP1 PUSH2 0xC8C JUMP JUMPDEST PUSH2 0x3D6 JUMP JUMPDEST STOP JUMPDEST PUSH2 0x24C PUSH2 0x3E8 JUMP JUMPDEST PUSH1 0x40 MLOAD PUSH2 0x259 SWAP2 SWAP1 PUSH2 0xCC6 JUMP JUMPDEST PUSH1 0x40 MLOAD DUP1 SWAP2 SUB SWAP1 RETURN JUMPDEST PUSH2 0x27C PUSH1 0x4 DUP1 CALLDATASIZE SUB DUP2 ADD SWAP1 PUSH2 0x277 SWAP2 SWAP1 PUSH2 0xD95 JUMP JUMPDEST PUSH2 0x3F1 JUMP JUMPDEST STOP JUMPDEST PUSH2 0x286 PUSH2 0x416 JUMP JUMPDEST PUSH1 0x40 MLOAD PUSH2 0x293 SWAP2 SWAP1 PUSH2 0xCC6 JUMP JUMPDEST PUSH1 0x40 MLOAD DUP1 SWAP2 SUB SWAP1 RETURN JUMPDEST PUSH2 0x2B6 PUSH1 0x4 DUP1 CALLDATASIZE SUB DUP2 ADD SWAP1 PUSH2 0x2B1 SWAP2 SWAP1 PUSH2 0xC8C JUMP JUMPDEST PUSH2 0x41F JUMP JUMPDEST STOP JUMPDEST PUSH2 0x2D2 PUSH1 0x4 DUP1 CALLDATASIZE SUB DUP2 ADD SWAP1 PUSH2 0x2CD SWAP2 SWAP1 PUSH2 0xDC0 JUMP JUMPDEST PUSH2 0x431 JUMP JUMPDEST PUSH1 0x40 MLOAD PUSH2 0x2E1 SWAP4 SWAP3 SWAP2 SWAP1 PUSH2 0xDFE JUMP JUMPDEST PUSH1 0x40 MLOAD DUP1 SWAP2 SUB SWAP1 RETURN JUMPDEST PUSH2 0x2F2 PUSH2 0x83C JUMP JUMPDEST PUSH1 0x40 MLOAD PUSH2 0x2FF SWAP2 SWAP1 PUSH2 0xCC6 JUMP JUMPDEST PUSH1 0x40 MLOAD DUP1 SWAP2 SUB SWAP1 RETURN JUMPDEST PUSH2 0x322 PUSH1 0x4 DUP1 CALLDATASIZE SUB DUP2 ADD SWAP1 PUSH2 0x31D SWAP2 SWAP1 PUSH2 0xE5D JUMP JUMPDEST PUSH2 0x845 JUMP JUMPDEST STOP JUMPDEST PUSH2 0x32C PUSH2 0x8C7 JUMP JUMPDEST DUP1 PUSH1 0x1 DUP2 SWAP1 SSTORE POP POP JUMP JUMPDEST PUSH2 0x33E PUSH2 0x8C7 JUMP JUMPDEST DUP1 PUSH1 0x2 DUP2 SWAP1 SSTORE POP POP JUMP JUMPDEST PUSH2 0x350 PUSH2 0x8C7 JUMP JUMPDEST DUP1 PUSH1 0x6 DUP2 SWAP1 SSTORE POP POP JUMP JUMPDEST PUSH2 0x362 PUSH2 0x8C7 JUMP JUMPDEST DUP1 PUSH1 0x4 DUP2 SWAP1 SSTORE POP POP JUMP JUMPDEST PUSH0 PUSH1 0x3 SLOAD SWAP1 POP SWAP1 JUMP JUMPDEST PUSH0 DUP1 PUSH1 0x14 SWAP1 SLOAD SWAP1 PUSH2 0x100 EXP SWAP1 DIV PUSH1 0xFF AND SWAP1 POP SWAP1 JUMP JUMPDEST PUSH0 PUSH1 0x4 SLOAD SWAP1 POP SWAP1 JUMP JUMPDEST PUSH2 0x39B PUSH2 0x8C7 JUMP JUMPDEST PUSH2 0x3A4 PUSH0 PUSH2 0x945 JUMP JUMPDEST JUMP JUMPDEST PUSH0 PUSH1 0x1 SLOAD SWAP1 POP SWAP1 JUMP JUMPDEST PUSH0 DUP1 PUSH0 SWAP1 SLOAD SWAP1 PUSH2 0x100 EXP SWAP1 DIV PUSH20 0xFFFFFFFFFFFFFFFFFFFFFFFFFFFFFFFFFFFFFFFF AND SWAP1 POP SWAP1 JUMP JUMPDEST PUSH2 0x3DE PUSH2 0x8C7 JUMP JUMPDEST DUP1 PUSH1 0x3 DUP2 SWAP1 SSTORE POP POP JUMP JUMPDEST PUSH0 PUSH1 0x6 SLOAD SWAP1 POP SWAP1 JUMP JUMPDEST PUSH2 0x3F9 PUSH2 0x8C7 JUMP JUMPDEST DUP1 PUSH0 PUSH1 0x14 PUSH2 0x100 EXP DUP2 SLOAD DUP2 PUSH1 0xFF MUL NOT AND SWAP1 DUP4 PUSH1 0xFF AND MUL OR SWAP1 SSTORE POP POP JUMP JUMPDEST PUSH0 PUSH1 0x2 SLOAD SWAP1 POP SWAP1 JUMP JUMPDEST PUSH2 0x427 PUSH2 0x8C7 JUMP JUMPDEST DUP1 PUSH1 0x5 DUP2 SWAP1 SSTORE POP POP JUMP JUMPDEST PUSH0 DUP1 PUSH0 DUP1 PUSH0 PUSH1 0x14 SWAP1 SLOAD SWAP1 PUSH2 0x100 EXP SWAP1 DIV PUSH1 0xFF AND PUSH1 0xFF AND EQ PUSH2 0x50B JUMPI PUSH0 PUSH1 0x14 SWAP1 SLOAD SWAP1 PUSH2 0x100 EXP SWAP1 DIV PUSH1 0xFF AND PUSH1 0xFF AND PUSH2 0x467 DUP7 PUSH2 0xA06 JUMP JUMPDEST PUSH1 0xFF AND LT ISZERO PUSH2 0x4AB JUMPI PUSH1 0x40 MLOAD PUSH32 0x8C379A000000000000000000000000000000000000000000000000000000000 DUP2 MSTORE PUSH1 0x4 ADD PUSH2 0x4A2 SWAP1 PUSH2 0xEE2 JUMP JUMPDEST PUSH1 0x40 MLOAD DUP1 SWAP2 SUB SWAP1 REVERT JUMPDEST PUSH0 PUSH1 0x14 SWAP1 SLOAD SWAP1 PUSH2 0x100 EXP SWAP1 DIV PUSH1 0xFF AND PUSH1 0xFF AND PUSH2 0x4C6 DUP6 PUSH2 0xA06 JUMP JUMPDEST PUSH1 0xFF AND LT ISZERO PUSH2 0x50A JUMPI PUSH1 0x40 MLOAD PUSH32 0x8C379A000000000000000000000000000000000000000000000000000000000 DUP2 MSTORE PUSH1 0x4 ADD PUSH2 0x501 SWAP1 PUSH2 0xEE2 JUMP JUMPDEST PUSH1 0x40 MLOAD DUP1 SWAP2 SUB SWAP1 REVERT JUMPDEST JUMPDEST PUSH0 TIMESTAMP NUMBER PREVRANDAO DUP9 DUP9 PUSH1 0x1 SLOAD PUSH1 0x40 MLOAD PUSH1 0x20 ADD PUSH2 0x529 SWAP7 SWAP6 SWAP5 SWAP4 SWAP3 SWAP2 SWAP1 PUSH2 0xF20 JUMP JUMPDEST PUSH1 0x40 MLOAD PUSH1 0x20 DUP2 DUP4 SUB SUB DUP2 MSTORE SWAP1 PUSH1 0x40 MSTORE DUP1 MLOAD SWAP1 PUSH1 0x20 ADD KECCAK256 PUSH0 SHR SWAP1 POP PUSH0 DUP2 SUB PUSH2 0x585 JUMPI PUSH1 0x40 MLOAD PUSH32 0x8C379A000000000000000000000000000000000000000000000000000000000 DUP2 MSTORE PUSH1 0x4 ADD PUSH2 0x57C SWAP1 PUSH2 0xFD9 JUMP JUMPDEST PUSH1 0x40 MLOAD DUP1 SWAP2 SUB SWAP1 REVERT JUMPDEST PUSH1 0x1 PUSH0 DUP2 SLOAD DUP1 SWAP3 SWAP2 SWAP1 PUSH2 0x597 SWAP1 PUSH2 0x1024 JUMP JUMPDEST SWAP2 SWAP1 POP SSTORE POP PUSH0 PUSH1 0x1 PUSH1 0x2 PUSH2 0x5AA DUP9 PUSH2 0xA16 JUMP JUMPDEST PUSH2 0x5B3 DUP11 PUSH2 0xA16 JUMP JUMPDEST PUSH2 0x5BD SWAP2 SWAP1 PUSH2 0x107A JUMP JUMPDEST PUSH2 0x5C7 SWAP2 SWAP1 PUSH2 0x10DE JUMP JUMPDEST PUSH2 0x5D1 SWAP2 SWAP1 PUSH2 0x107A JUMP JUMPDEST SWAP1 POP PUSH0 PUSH1 0x9 SWAP1 POP PUSH0 DUP1 SWAP5 POP DUP9 SWAP7 POP DUP8 SWAP6 POP PUSH0 JUMPDEST DUP3 DUP2 PUSH1 0xFF AND LT ISZERO PUSH2 0x7A4 JUMPI PUSH0 PUSH2 0x608 DUP6 PUSH4 0xFFFFFFFF AND PUSH1 0x3 SLOAD PUSH1 0x4 SLOAD PUSH2 0x3E8 PUSH2 0xA25 JUMP JUMPDEST SWAP1 POP PUSH0 PUSH2 0x64C DUP8 DUP6 DUP1 PUSH2 0x61A SWAP1 PUSH2 0x1024 JUMP JUMPDEST SWAP7 POP PUSH0 PUSH1 0x4 SLOAD PUSH2 0x3E8 PUSH1 0x3 SLOAD PUSH1 0x4 SLOAD PUSH2 0x633 SWAP2 SWAP1 PUSH2 0x110E JUMP JUMPDEST PUSH2 0x63D SWAP2 SWAP1 PUSH2 0x1141 JUMP JUMPDEST PUSH2 0x647 SWAP2 SWAP1 PUSH2 0x1182 JUMP JUMPDEST PUSH2 0xA62 JUMP JUMPDEST DUP3 LT ISZERO SWAP1 POP PUSH0 PUSH1 0x1 SWAP1 POP PUSH2 0x670 DUP9 DUP7 DUP1 PUSH2 0x665 SWAP1 PUSH2 0x1024 JUMP JUMPDEST SWAP8 POP PUSH0 PUSH2 0x3E8 PUSH2 0xA62 JUMP JUMPDEST PUSH1 0xA PUSH1 0x2 SLOAD PUSH2 0x67F SWAP2 SWAP1 PUSH2 0x1141 JUMP JUMPDEST LT PUSH2 0x6B6 JUMPI PUSH1 0xFF PUSH2 0x6AE DUP10 DUP8 DUP1 PUSH2 0x695 SWAP1 PUSH2 0x1024 JUMP JUMPDEST SWAP9 POP PUSH1 0x5 SLOAD PUSH1 0x1 PUSH1 0x6 SLOAD PUSH2 0x6A9 SWAP2 SWAP1 PUSH2 0x11B2 JUMP JUMPDEST PUSH2 0xA62 JUMP JUMPDEST AND SWAP1 POP PUSH2 0x6F7 JUMP JUMPDEST PUSH2 0x1F4 PUSH2 0x6D3 DUP10 DUP8 DUP1 PUSH2 0x6C8 SWAP1 PUSH2 0x1024 JUMP JUMPDEST SWAP9 POP PUSH0 PUSH2 0x3E8 PUSH2 0xA62 JUMP JUMPDEST LT PUSH2 0x6E9 JUMPI PUSH2 0x6E2 DUP13 DUP6 PUSH2 0xABC JUMP JUMPDEST SWAP1 POP PUSH2 0x6F6 JUMP JUMPDEST PUSH2 0x6F3 DUP14 DUP6 PUSH2 0xABC JUMP JUMPDEST SWAP1 POP JUMPDEST JUMPDEST PUSH1 0x5 SLOAD DUP2 PUSH1 0xFF AND LT ISZERO DUP1 ISZERO PUSH2 0x711 JUMPI POP PUSH1 0x6 SLOAD DUP2 PUSH1 0xFF AND GT ISZERO JUMPDEST PUSH2 0x750 JUMPI PUSH1 0x40 MLOAD PUSH32 0x8C379A000000000000000000000000000000000000000000000000000000000 DUP2 MSTORE PUSH1 0x4 ADD PUSH2 0x747 SWAP1 PUSH2 0x1255 JUMP JUMPDEST PUSH1 0x40 MLOAD DUP1 SWAP2 SUB SWAP1 REVERT JUMPDEST PUSH2 0x75E DUP10 DUP6 PUSH1 0xFF AND DUP4 PUSH2 0xB08 JUMP JUMPDEST SWAP9 POP PUSH2 0x76F DUP10 DUP6 PUSH1 0xFF AND PUSH1 0x1 PUSH2 0xB63 JUMP JUMPDEST SWAP9 POP PUSH2 0x78C DUP10 DUP6 PUSH1 0xFF AND DUP5 PUSH2 0x784 JUMPI PUSH0 PUSH2 0x787 JUMP JUMPDEST PUSH1 0x1 JUMPDEST PUSH2 0xBBF JUMP JUMPDEST SWAP9 POP POP POP POP DUP1 DUP1 PUSH2 0x79C SWAP1 PUSH2 0x1273 JUMP JUMPDEST SWAP2 POP POP PUSH2 0x5E4 JUMP JUMPDEST POP PUSH0 DUP1 PUSH1 0x14 SWAP1 SLOAD SWAP1 PUSH2 0x100 EXP SWAP1 DIV PUSH1 0xFF AND PUSH1 0xFF AND EQ PUSH2 0x818 JUMPI PUSH2 0x7E8 DUP10 PUSH0 PUSH1 0x14 SWAP1 SLOAD SWAP1 PUSH2 0x100 EXP SWAP1 DIV PUSH1 0xFF AND PUSH2 0x7D9 DUP13 PUSH2 0xA06 JUMP JUMPDEST PUSH2 0x7E3 SWAP2 SWAP1 PUSH2 0x129B JUMP JUMPDEST PUSH2 0xC1B JUMP JUMPDEST SWAP7 POP PUSH2 0x815 DUP9 PUSH0 PUSH1 0x14 SWAP1 SLOAD SWAP1 PUSH2 0x100 EXP SWAP1 DIV PUSH1 0xFF AND PUSH2 0x806 DUP12 PUSH2 0xA06 JUMP JUMPDEST PUSH2 0x810 SWAP2 SWAP1 PUSH2 0x129B JUMP JUMPDEST PUSH2 0xC1B JUMP JUMPDEST SWAP6 POP JUMPDEST PUSH2 0x822 DUP6 DUP5 PUSH2 0xC35 JUMP JUMPDEST SWAP5 POP PUSH2 0x82F DUP6 PUSH1 0x1 PUSH2 0xC1B JUMP JUMPDEST SWAP5 POP POP POP POP POP SWAP3 POP SWAP3 POP SWAP3 JUMP JUMPDEST PUSH0 PUSH1 0x5 SLOAD SWAP1 POP SWAP1 JUMP JUMPDEST PUSH2 0x84D PUSH2 0x8C7 JUMP JUMPDEST PUSH0 PUSH20 0xFFFFFFFFFFFFFFFFFFFFFFFFFFFFFFFFFFFFFFFF AND DUP2 PUSH20 0xFFFFFFFFFFFFFFFFFFFFFFFFFFFFFFFFFFFFFFFF AND SUB PUSH2 0x8BB JUMPI PUSH1 0x40 MLOAD PUSH32 0x8C379A000000000000000000000000000000000000000000000000000000000 DUP2 MSTORE PUSH1 0x4 ADD PUSH2 0x8B2 SWAP1 PUSH2 0x133F JUMP JUMPDEST PUSH1 0x40 MLOAD DUP1 SWAP2 SUB SWAP1 REVERT JUMPDEST PUSH2 0x8C4 DUP2 PUSH2 0x945 JUMP JUMPDEST POP JUMP JUMPDEST PUSH2 0x8CF PUSH2 0xC4E JUMP JUMPDEST PUSH20 0xFFFFFFFFFFFFFFFFFFFFFFFFFFFFFFFFFFFFFFFF AND PUSH2 0x8ED PUSH2 0x3AF JUMP JUMPDEST PUSH20 0xFFFFFFFFFFFFFFFFFFFFFFFFFFFFFFFFFFFFFFFF AND EQ PUSH2 0x943 JUMPI PUSH1 0x40 MLOAD PUSH32 0x8C379A000000000000000000000000000000000000000000000000000000000 DUP2 MSTORE PUSH1 0x4 ADD PUSH2 0x93A SWAP1 PUSH2 0x13A7 JUMP JUMPDEST PUSH1 0x40 MLOAD DUP1 SWAP2 SUB SWAP1 REVERT JUMPDEST JUMP JUMPDEST PUSH0 DUP1 PUSH0 SWAP1 SLOAD SWAP1 PUSH2 0x100 EXP SWAP1 DIV PUSH20 0xFFFFFFFFFFFFFFFFFFFFFFFFFFFFFFFFFFFFFFFF AND SWAP1 POP DUP2 PUSH0 DUP1 PUSH2 0x100 EXP DUP2 SLOAD DUP2 PUSH20 0xFFFFFFFFFFFFFFFFFFFFFFFFFFFFFFFFFFFFFFFF MUL NOT AND SWAP1 DUP4 PUSH20 0xFFFFFFFFFFFFFFFFFFFFFFFFFFFFFFFFFFFFFFFF AND MUL OR SWAP1 SSTORE POP DUP2 PUSH20 0xFFFFFFFFFFFFFFFFFFFFFFFFFFFFFFFFFFFFFFFF AND DUP2 PUSH20 0xFFFFFFFFFFFFFFFFFFFFFFFFFFFFFFFFFFFFFFFF AND PUSH32 0x8BE0079C531659141344CD1FD0A4F28419497F9722A3DAAFE3B4186F6B6457E0 PUSH1 0x40 MLOAD PUSH1 0x40 MLOAD DUP1 SWAP2 SUB SWAP1 LOG3 POP POP JUMP JUMPDEST PUSH0 PUSH1 0xFF PUSH1 0xF8 DUP4 SWAP1 SHR AND SWAP1 POP SWAP2 SWAP1 POP JUMP JUMPDEST PUSH0 PUSH4 0xFFFFFFFF DUP3 AND SWAP1 POP SWAP2 SWAP1 POP JUMP JUMPDEST PUSH0 DUP4 DUP6 GT PUSH2 0xA35 JUMPI PUSH0 SWAP1 POP PUSH2 0xA5A JUMP JUMPDEST DUP3 DUP3 DUP6 DUP8 PUSH2 0xA43 SWAP2 SWAP1 PUSH2 0x110E JUMP JUMPDEST PUSH2 0xA4D SWAP2 SWAP1 PUSH2 0x1141 JUMP JUMPDEST PUSH2 0xA57 SWAP2 SWAP1 PUSH2 0x1182 JUMP JUMPDEST SWAP1 POP JUMPDEST SWAP5 SWAP4 POP POP POP POP JUMP JUMPDEST PUSH0 DUP3 DUP3 PUSH2 0xA6F SWAP2 SWAP1 PUSH2 0x110E JUMP JUMPDEST DUP6 DUP6 PUSH1 0x40 MLOAD PUSH1 0x20 ADD PUSH2 0xA82 SWAP3 SWAP2 SWAP1 PUSH2 0x13C5 JUMP JUMPDEST PUSH1 0x40 MLOAD PUSH1 0x20 DUP2 DUP4 SUB SUB DUP2 MSTORE SWAP1 PUSH1 0x40 MSTORE DUP1 MLOAD SWAP1 PUSH1 0x20 ADD KECCAK256 PUSH0 SHR PUSH2 0xAA4 SWAP2 SWAP1 PUSH2 0x13F0 JUMP JUMPDEST SWAP1 POP DUP1 DUP4 PUSH2 0xAB2 SWAP2 SWAP1 PUSH2 0x11B2 JUMP JUMPDEST SWAP1 POP SWAP5 SWAP4 POP POP POP POP JUMP JUMPDEST PUSH0 DUP1 PUSH1 0x4 SWAP1 POP PUSH0 PUSH1 0x3 DUP5 PUSH2 0xAD0 SWAP2 SWAP1 PUSH2 0x1420 JUMP JUMPDEST PUSH1 0xFF AND SWAP1 POP PUSH1 0xFF PUSH1 0x8 PUSH0 DUP4 DUP6 PUSH2 0xAE6 SWAP2 SWAP1 PUSH2 0x11B2 JUMP JUMPDEST PUSH2 0xAF0 SWAP2 SWAP1 PUSH2 0x11B2 JUMP JUMPDEST PUSH2 0xAFA SWAP2 SWAP1 PUSH2 0x1141 JUMP JUMPDEST DUP7 SWAP1 SHR AND SWAP3 POP POP POP SWAP3 SWAP2 POP POP JUMP JUMPDEST PUSH0 DUP1 PUSH1 0x4 SWAP1 POP PUSH0 PUSH1 0x3 DUP6 PUSH2 0xB1C SWAP2 SWAP1 PUSH2 0x1141 JUMP JUMPDEST SWAP1 POP PUSH0 PUSH1 0x8 PUSH0 DUP4 DUP6 PUSH2 0xB2E SWAP2 SWAP1 PUSH2 0x11B2 JUMP JUMPDEST PUSH2 0xB38 SWAP2 SWAP1 PUSH2 0x11B2 JUMP JUMPDEST PUSH2 0xB42 SWAP2 SWAP1 PUSH2 0x1141 JUMP JUMPDEST SWAP1 POP DUP1 PUSH1 0xFF SWAP1 SHL NOT DUP8 AND SWAP7 POP DUP1 DUP6 PUSH1 0xFF AND SWAP1 SHL DUP8 OR SWAP4 POP POP POP POP SWAP4 SWAP3 POP POP POP JUMP JUMPDEST PUSH0 DUP1 PUSH1 0x4 SWAP1 POP PUSH0 PUSH1 0x3 DUP6 PUSH2 0xB77 SWAP2 SWAP1 PUSH2 0x1141 JUMP JUMPDEST SWAP1 POP PUSH0 PUSH1 0x8 PUSH1 0x1 DUP4 DUP6 PUSH2 0xB8A SWAP2 SWAP1 PUSH2 0x11B2 JUMP JUMPDEST PUSH2 0xB94 SWAP2 SWAP1 PUSH2 0x11B2 JUMP JUMPDEST PUSH2 0xB9E SWAP2 SWAP1 PUSH2 0x1141 JUMP JUMPDEST SWAP1 POP DUP1 PUSH1 0xFF SWAP1 SHL NOT DUP8 AND SWAP7 POP DUP1 DUP6 PUSH1 0xFF AND SWAP1 SHL DUP8 OR SWAP4 POP POP POP POP SWAP4 SWAP3 POP POP POP JUMP JUMPDEST PUSH0 DUP1 PUSH1 0x4 SWAP1 POP PUSH0 PUSH1 0x3 DUP6 PUSH2 0xBD3 SWAP2 SWAP1 PUSH2 0x1141 JUMP JUMPDEST SWAP1 POP PUSH0 PUSH1 0x8 PUSH1 0x2 DUP4 DUP6 PUSH2 0xBE6 SWAP2 SWAP1 PUSH2 0x11B2 JUMP JUMPDEST PUSH2 0xBF0 SWAP2 SWAP1 PUSH2 0x11B2 JUMP JUMPDEST PUSH2 0xBFA SWAP2 SWAP1 PUSH2 0x1141 JUMP JUMPDEST SWAP1 POP DUP1 PUSH1 0xFF SWAP1 SHL NOT DUP8 AND SWAP7 POP DUP1 DUP6 PUSH1 0xFF AND SWAP1 SHL DUP8 OR SWAP4 POP POP POP POP SWAP4 SWAP3 POP POP POP JUMP JUMPDEST PUSH0 PUSH1 0xF8 DUP3 PUSH1 0xFF AND SWAP1 SHL PUSH1 0x8 DUP1 DUP6 SWAP1 SHL SWAP1 SHR OR SWAP1 POP SWAP3 SWAP2 POP POP JUMP JUMPDEST PUSH0 DUP2 PUSH4 0xFFFFFFFF AND PUSH1 0x4 DUP1 DUP6 SWAP1 SHR SWAP1 SHL OR SWAP1 POP SWAP3 SWAP2 POP POP JUMP JUMPDEST PUSH0 CALLER SWAP1 POP SWAP1 JUMP JUMPDEST PUSH0 DUP1 REVERT JUMPDEST PUSH0 DUP2 SWAP1 POP SWAP2 SWAP1 POP JUMP JUMPDEST PUSH2 0xC6B DUP2 PUSH2 0xC59 JUMP JUMPDEST DUP2 EQ PUSH2 0xC75 JUMPI PUSH0 DUP1 REVERT JUMPDEST POP JUMP JUMPDEST PUSH0 DUP2 CALLDATALOAD SWAP1 POP PUSH2 0xC86 DUP2 PUSH2 0xC62 JUMP JUMPDEST SWAP3 SWAP2 POP POP JUMP JUMPDEST PUSH0 PUSH1 0x20 DUP3 DUP5 SUB SLT ISZERO PUSH2 0xCA1 JUMPI PUSH2 0xCA0 PUSH2 0xC55 JUMP JUMPDEST JUMPDEST PUSH0 PUSH2 0xCAE DUP5 DUP3 DUP6 ADD PUSH2 0xC78 JUMP JUMPDEST SWAP2 POP POP SWAP3 SWAP2 POP POP JUMP JUMPDEST PUSH2 0xCC0 DUP2 PUSH2 0xC59 JUMP JUMPDEST DUP3 MSTORE POP POP JUMP JUMPDEST PUSH0 PUSH1 0x20 DUP3 ADD SWAP1 POP PUSH2 0xCD9 PUSH0 DUP4 ADD DUP5 PUSH2 0xCB7 JUMP JUMPDEST SWAP3 SWAP2 POP POP JUMP JUMPDEST PUSH0 PUSH1 0xFF DUP3 AND SWAP1 POP SWAP2 SWAP1 POP JUMP JUMPDEST PUSH2 0xCF4 DUP2 PUSH2 0xCDF JUMP JUMPDEST DUP3 MSTORE POP POP JUMP JUMPDEST PUSH0 PUSH1 0x20 DUP3 ADD SWAP1 POP PUSH2 0xD0D PUSH0 DUP4 ADD DUP5 PUSH2 0xCEB JUMP JUMPDEST SWAP3 SWAP2 POP POP JUMP JUMPDEST PUSH0 PUSH20 0xFFFFFFFFFFFFFFFFFFFFFFFFFFFFFFFFFFFFFFFF DUP3 AND SWAP1 POP SWAP2 SWAP1 POP JUMP JUMPDEST PUSH0 PUSH2 0xD3C DUP3 PUSH2 0xD13 JUMP JUMPDEST SWAP1 POP SWAP2 SWAP1 POP JUMP JUMPDEST PUSH2 0xD4C DUP2 PUSH2 0xD32 JUMP JUMPDEST DUP3 MSTORE POP POP JUMP JUMPDEST PUSH0 PUSH1 0x20 DUP3 ADD SWAP1 POP PUSH2 0xD65 PUSH0 DUP4 ADD DUP5 PUSH2 0xD43 JUMP JUMPDEST SWAP3 SWAP2 POP POP JUMP JUMPDEST PUSH2 0xD74 DUP2 PUSH2 0xCDF JUMP JUMPDEST DUP2 EQ PUSH2 0xD7E JUMPI PUSH0 DUP1 REVERT JUMPDEST POP JUMP JUMPDEST PUSH0 DUP2 CALLDATALOAD SWAP1 POP PUSH2 0xD8F DUP2 PUSH2 0xD6B JUMP JUMPDEST SWAP3 SWAP2 POP POP JUMP JUMPDEST PUSH0 PUSH1 0x20 DUP3 DUP5 SUB SLT ISZERO PUSH2 0xDAA JUMPI PUSH2 0xDA9 PUSH2 0xC55 JUMP JUMPDEST JUMPDEST PUSH0 PUSH2 0xDB7 DUP5 DUP3 DUP6 ADD PUSH2 0xD81 JUMP JUMPDEST SWAP2 POP POP SWAP3 SWAP2 POP POP JUMP JUMPDEST PUSH0 DUP1 PUSH1 0x40 DUP4 DUP6 SUB SLT ISZERO PUSH2 0xDD6 JUMPI PUSH2 0xDD5 PUSH2 0xC55 JUMP JUMPDEST JUMPDEST PUSH0 PUSH2 0xDE3 DUP6 DUP3 DUP7 ADD PUSH2 0xC78 JUMP JUMPDEST SWAP3 POP POP PUSH1 0x20 PUSH2 0xDF4 DUP6 DUP3 DUP7 ADD PUSH2 0xC78 JUMP JUMPDEST SWAP2 POP POP SWAP3 POP SWAP3 SWAP1 POP JUMP JUMPDEST PUSH0 PUSH1 0x60 DUP3 ADD SWAP1 POP PUSH2 0xE11 PUSH0 DUP4 ADD DUP7 PUSH2 0xCB7 JUMP JUMPDEST PUSH2 0xE1E PUSH1 0x20 DUP4 ADD DUP6 PUSH2 0xCB7 JUMP JUMPDEST PUSH2 0xE2B PUSH1 0x40 DUP4 ADD DUP5 PUSH2 0xCB7 JUMP JUMPDEST SWAP5 SWAP4 POP POP POP POP JUMP JUMPDEST PUSH2 0xE3C DUP2 PUSH2 0xD32 JUMP JUMPDEST DUP2 EQ PUSH2 0xE46 JUMPI PUSH0 DUP1 REVERT JUMPDEST POP JUMP JUMPDEST PUSH0 DUP2 CALLDATALOAD SWAP1 POP PUSH2 0xE57 DUP2 PUSH2 0xE33 JUMP JUMPDEST SWAP3 SWAP2 POP POP JUMP JUMPDEST PUSH0 PUSH1 0x20 DUP3 DUP5 SUB SLT ISZERO PUSH2 0xE72 JUMPI PUSH2 0xE71 PUSH2 0xC55 JUMP JUMPDEST JUMPDEST PUSH0 PUSH2 0xE7F DUP5 DUP3 DUP6 ADD PUSH2 0xE49 JUMP JUMPDEST SWAP2 POP POP SWAP3 SWAP2 POP POP JUMP JUMPDEST PUSH0 DUP3 DUP3 MSTORE PUSH1 0x20 DUP3 ADD SWAP1 POP SWAP3 SWAP2 POP POP JUMP JUMPDEST PUSH32 0x696E73756666696369656E742063686172676500000000000000000000000000 PUSH0 DUP3 ADD MSTORE POP JUMP JUMPDEST PUSH0 PUSH2 0xECC PUSH1 0x13 DUP4 PUSH2 0xE88 JUMP JUMPDEST SWAP2 POP PUSH2 0xED7 DUP3 PUSH2 0xE98 JUMP JUMPDEST PUSH1 0x20 DUP3 ADD SWAP1 POP SWAP2 SWAP1 POP JUMP JUMPDEST PUSH0 PUSH1 0x20 DUP3 ADD SWAP1 POP DUP2 DUP2 SUB PUSH0 DUP4 ADD MSTORE PUSH2 0xEF9 DUP2 PUSH2 0xEC0 JUMP JUMPDEST SWAP1 POP SWAP2 SWAP1 POP JUMP JUMPDEST PUSH0 DUP2 SWAP1 POP SWAP2 SWAP1 POP JUMP JUMPDEST PUSH2 0xF1A PUSH2 0xF15 DUP3 PUSH2 0xC59 JUMP JUMPDEST PUSH2 0xF00 JUMP JUMPDEST DUP3 MSTORE POP POP JUMP JUMPDEST PUSH0 PUSH2 0xF2B DUP3 DUP10 PUSH2 0xF09 JUMP JUMPDEST PUSH1 0x20 DUP3 ADD SWAP2 POP PUSH2 0xF3B DUP3 DUP9 PUSH2 0xF09 JUMP JUMPDEST PUSH1 0x20 DUP3 ADD SWAP2 POP PUSH2 0xF4B DUP3 DUP8 PUSH2 0xF09 JUMP JUMPDEST PUSH1 0x20 DUP3 ADD SWAP2 POP PUSH2 0xF5B DUP3 DUP7 PUSH2 0xF09 JUMP JUMPDEST PUSH1 0x20 DUP3 ADD SWAP2 POP PUSH2 0xF6B DUP3 DUP6 PUSH2 0xF09 JUMP JUMPDEST PUSH1 0x20 DUP3 ADD SWAP2 POP PUSH2 0xF7B DUP3 DUP5 PUSH2 0xF09 JUMP JUMPDEST PUSH1 0x20 DUP3 ADD SWAP2 POP DUP2 SWAP1 POP SWAP8 SWAP7 POP POP POP POP POP POP POP JUMP JUMPDEST PUSH32 0x72616E646F6D536565642063616E277420626520300000000000000000000000 PUSH0 DUP3 ADD MSTORE POP JUMP JUMPDEST PUSH0 PUSH2 0xFC3 PUSH1 0x15 DUP4 PUSH2 0xE88 JUMP JUMPDEST SWAP2 POP PUSH2 0xFCE DUP3 PUSH2 0xF8F JUMP JUMPDEST PUSH1 0x20 DUP3 ADD SWAP1 POP SWAP2 SWAP1 POP JUMP JUMPDEST PUSH0 PUSH1 0x20 DUP3 ADD SWAP1 POP DUP2 DUP2 SUB PUSH0 DUP4 ADD MSTORE PUSH2 0xFF0 DUP2 PUSH2 0xFB7 JUMP JUMPDEST SWAP1 POP SWAP2 SWAP1 POP JUMP JUMPDEST PUSH32 0x4E487B7100000000000000000000000000000000000000000000000000000000 PUSH0 MSTORE PUSH1 0x11 PUSH1 0x4 MSTORE PUSH1 0x24 PUSH0 REVERT JUMPDEST PUSH0 PUSH2 0x102E DUP3 PUSH2 0xC59 JUMP JUMPDEST SWAP2 POP PUSH32 0xFFFFFFFFFFFFFFFFFFFFFFFFFFFFFFFFFFFFFFFFFFFFFFFFFFFFFFFFFFFFFFFF DUP3 SUB PUSH2 0x1060 JUMPI PUSH2 0x105F PUSH2 0xFF7 JUMP JUMPDEST JUMPDEST PUSH1 0x1 DUP3 ADD SWAP1 POP SWAP2 SWAP1 POP JUMP JUMPDEST PUSH0 PUSH4 0xFFFFFFFF DUP3 AND SWAP1 POP SWAP2 SWAP1 POP JUMP JUMPDEST PUSH0 PUSH2 0x1084 DUP3 PUSH2 0x106B JUMP JUMPDEST SWAP2 POP PUSH2 0x108F DUP4 PUSH2 0x106B JUMP JUMPDEST SWAP3 POP DUP3 DUP3 ADD SWAP1 POP PUSH4 0xFFFFFFFF DUP2 GT ISZERO PUSH2 0x10AB JUMPI PUSH2 0x10AA PUSH2 0xFF7 JUMP JUMPDEST JUMPDEST SWAP3 SWAP2 POP POP JUMP JUMPDEST PUSH32 0x4E487B7100000000000000000000000000000000000000000000000000000000 PUSH0 MSTORE PUSH1 0x12 PUSH1 0x4 MSTORE PUSH1 0x24 PUSH0 REVERT JUMPDEST PUSH0 PUSH2 0x10E8 DUP3 PUSH2 0x106B JUMP JUMPDEST SWAP2 POP PUSH2 0x10F3 DUP4 PUSH2 0x106B JUMP JUMPDEST SWAP3 POP DUP3 PUSH2 0x1103 JUMPI PUSH2 0x1102 PUSH2 0x10B1 JUMP JUMPDEST JUMPDEST DUP3 DUP3 DIV SWAP1 POP SWAP3 SWAP2 POP POP JUMP JUMPDEST PUSH0 PUSH2 0x1118 DUP3 PUSH2 0xC59 JUMP JUMPDEST SWAP2 POP PUSH2 0x1123 DUP4 PUSH2 0xC59 JUMP JUMPDEST SWAP3 POP DUP3 DUP3 SUB SWAP1 POP DUP2 DUP2 GT ISZERO PUSH2 0x113B JUMPI PUSH2 0x113A PUSH2 0xFF7 JUMP JUMPDEST JUMPDEST SWAP3 SWAP2 POP POP JUMP JUMPDEST PUSH0 PUSH2 0x114B DUP3 PUSH2 0xC59 JUMP JUMPDEST SWAP2 POP PUSH2 0x1156 DUP4 PUSH2 0xC59 JUMP JUMPDEST SWAP3 POP DUP3 DUP3 MUL PUSH2 0x1164 DUP2 PUSH2 0xC59 JUMP JUMPDEST SWAP2 POP DUP3 DUP3 DIV DUP5 EQ DUP4 ISZERO OR PUSH2 0x117B JUMPI PUSH2 0x117A PUSH2 0xFF7 JUMP JUMPDEST JUMPDEST POP SWAP3 SWAP2 POP POP JUMP JUMPDEST PUSH0 PUSH2 0x118C DUP3 PUSH2 0xC59 JUMP JUMPDEST SWAP2 POP PUSH2 0x1197 DUP4 PUSH2 0xC59 JUMP JUMPDEST SWAP3 POP DUP3 PUSH2 0x11A7 JUMPI PUSH2 0x11A6 PUSH2 0x10B1 JUMP JUMPDEST JUMPDEST DUP3 DUP3 DIV SWAP1 POP SWAP3 SWAP2 POP POP JUMP JUMPDEST PUSH0 PUSH2 0x11BC DUP3 PUSH2 0xC59 JUMP JUMPDEST SWAP2 POP PUSH2 0x11C7 DUP4 PUSH2 0xC59 JUMP JUMPDEST SWAP3 POP DUP3 DUP3 ADD SWAP1 POP DUP1 DUP3 GT ISZERO PUSH2 0x11DF JUMPI PUSH2 0x11DE PUSH2 0xFF7 JUMP JUMPDEST JUMPDEST SWAP3 SWAP2 POP POP JUMP JUMPDEST PUSH32 0x6572726F722C206272656164696E672C2070617274206964206D757374206265 PUSH0 DUP3 ADD MSTORE PUSH32 0x20696E2072616E67650000000000000000000000000000000000000000000000 PUSH1 0x20 DUP3 ADD MSTORE POP JUMP JUMPDEST PUSH0 PUSH2 0x123F PUSH1 0x29 DUP4 PUSH2 0xE88 JUMP JUMPDEST SWAP2 POP PUSH2 0x124A DUP3 PUSH2 0x11E5 JUMP JUMPDEST PUSH1 0x40 DUP3 ADD SWAP1 POP SWAP2 SWAP1 POP JUMP JUMPDEST PUSH0 PUSH1 0x20 DUP3 ADD SWAP1 POP DUP2 DUP2 SUB PUSH0 DUP4 ADD MSTORE PUSH2 0x126C DUP2 PUSH2 0x1233 JUMP JUMPDEST SWAP1 POP SWAP2 SWAP1 POP JUMP JUMPDEST PUSH0 PUSH2 0x127D DUP3 PUSH2 0xCDF JUMP JUMPDEST SWAP2 POP PUSH1 0xFF DUP3 SUB PUSH2 0x1290 JUMPI PUSH2 0x128F PUSH2 0xFF7 JUMP JUMPDEST JUMPDEST PUSH1 0x1 DUP3 ADD SWAP1 POP SWAP2 SWAP1 POP JUMP JUMPDEST PUSH0 PUSH2 0x12A5 DUP3 PUSH2 0xCDF JUMP JUMPDEST SWAP2 POP PUSH2 0x12B0 DUP4 PUSH2 0xCDF JUMP JUMPDEST SWAP3 POP DUP3 DUP3 SUB SWAP1 POP PUSH1 0xFF DUP2 GT ISZERO PUSH2 0x12C9 JUMPI PUSH2 0x12C8 PUSH2 0xFF7 JUMP JUMPDEST JUMPDEST SWAP3 SWAP2 POP POP JUMP JUMPDEST PUSH32 0x4F776E61626C653A206E6577206F776E657220697320746865207A65726F2061 PUSH0 DUP3 ADD MSTORE PUSH32 0x6464726573730000000000000000000000000000000000000000000000000000 PUSH1 0x20 DUP3 ADD MSTORE POP JUMP JUMPDEST PUSH0 PUSH2 0x1329 PUSH1 0x26 DUP4 PUSH2 0xE88 JUMP JUMPDEST SWAP2 POP PUSH2 0x1334 DUP3 PUSH2 0x12CF JUMP JUMPDEST PUSH1 0x40 DUP3 ADD SWAP1 POP SWAP2 SWAP1 POP JUMP JUMPDEST PUSH0 PUSH1 0x20 DUP3 ADD SWAP1 POP DUP2 DUP2 SUB PUSH0 DUP4 ADD MSTORE PUSH2 0x1356 DUP2 PUSH2 0x131D JUMP JUMPDEST SWAP1 POP SWAP2 SWAP1 POP JUMP JUMPDEST PUSH32 0x4F776E61626C653A2063616C6C6572206973206E6F7420746865206F776E6572 PUSH0 DUP3 ADD MSTORE POP JUMP JUMPDEST PUSH0 PUSH2 0x1391 PUSH1 0x20 DUP4 PUSH2 0xE88 JUMP JUMPDEST SWAP2 POP PUSH2 0x139C DUP3 PUSH2 0x135D JUMP JUMPDEST PUSH1 0x20 DUP3 ADD SWAP1 POP SWAP2 SWAP1 POP JUMP JUMPDEST PUSH0 PUSH1 0x20 DUP3 ADD SWAP1 POP DUP2 DUP2 SUB PUSH0 DUP4 ADD MSTORE PUSH2 0x13BE DUP2 PUSH2 0x1385 JUMP JUMPDEST SWAP1 POP SWAP2 SWAP1 POP JUMP JUMPDEST PUSH0 PUSH2 0x13D0 DUP3 DUP6 PUSH2 0xF09 JUMP JUMPDEST PUSH1 0x20 DUP3 ADD SWAP2 POP PUSH2 0x13E0 DUP3 DUP5 PUSH2 0xF09 JUMP JUMPDEST PUSH1 0x20 DUP3 ADD SWAP2 POP DUP2 SWAP1 POP SWAP4 SWAP3 POP POP POP JUMP JUMPDEST PUSH0 PUSH2 0x13FA DUP3 PUSH2 0xC59 JUMP JUMPDEST SWAP2 POP PUSH2 0x1405 DUP4 PUSH2 0xC59 JUMP JUMPDEST SWAP3 POP DUP3 PUSH2 0x1415 JUMPI PUSH2 0x1414 PUSH2 0x10B1 JUMP JUMPDEST JUMPDEST DUP3 DUP3 MOD SWAP1 POP SWAP3 SWAP2 POP POP JUMP JUMPDEST PUSH0 PUSH2 0x142A DUP3 PUSH2 0xCDF JUMP JUMPDEST SWAP2 POP PUSH2 0x1435 DUP4 PUSH2 0xCDF JUMP JUMPDEST SWAP3 POP DUP3 DUP3 MUL PUSH2 0x1443 DUP2 PUSH2 0xCDF JUMP JUMPDEST SWAP2 POP DUP1 DUP3 EQ PUSH2 0x1455 JUMPI PUSH2 0x1454 PUSH2 0xFF7 JUMP JUMPDEST JUMPDEST POP SWAP3 SWAP2 POP POP JUMP INVALID LOG2 PUSH5 0x6970667358 0x22 SLT KECCAK256 BLOCKHASH DUP10 RETURNDATACOPY 0xB8 PUSH15 0xA2E91DE36B6994EFDC46060242CB82 DUP16 0xAD LOG1 0x2B GAS SWAP16 CODECOPY DUP11 0x29 ADDRESS PUSH16 0xFC64736F6C634300081A003300000000 "
		},
		"gasEstimates": {
			"creation": {
				"codeDepositCost": "3052000",
				"executionCost": "infinite",
				"totalCost": "infinite"
			},
			"external": {
				"approve(address,uint256)": "infinite",
				"balanceOf(address)": "2931",
				"breeding(uint256,uint256)": "infinite",
				"burn(uint256)": "infinite",
				"charge(uint256,uint8)": "infinite",
				"getApproved(uint256)": "5305",
				"getBreedingContract()": "2626",
				"getMaxId()": "2499",
				"getMinId()": "2498",
				"getToken(uint256)": "infinite",
				"isApprovedForAll(address,address)": "infinite",
				"mint(uint256)": "infinite",
				"name()": "infinite",
				"owner()": "2634",
				"ownerOf(uint256)": "3028",
				"pause()": "infinite",
				"paused()": "2585",
				"renounceOwnership()": "30632",
				"safeTransferFrom(address,address,uint256)": "infinite",
				"safeTransferFrom(address,address,uint256,bytes)": "infinite",
				"setApprovalForAll(address,bool)": "infinite",
				"setBreedingContract(address)": "27073",
				"setMaxId(uint256)": "24873",
				"setMinId(uint256)": "24916",
				"supportsInterface(bytes4)": "810",
				"symbol()": "infinite",
				"tokenURI(uint256)": "infinite",
				"totalSupply()": "2547",
				"transferFrom(address,address,uint256)": "infinite",
				"transferOwnership(address)": "30972",
				"unpause()": "infinite",
				"withdraw()": "infinite"
			},
			"internal": {
				"_baseURI()": "infinite",
				"_beforeTokenTransfer(address,address,uint256,uint256)": "infinite",
				"createToken(uint256,uint256,uint256)": "infinite"
			}
		},
		"methodIdentifiers": {
			"approve(address,uint256)": "095ea7b3",
			"balanceOf(address)": "70a08231",
			"breeding(uint256,uint256)": "fbbe20a9",
			"burn(uint256)": "42966c68",
			"charge(uint256,uint8)": "afa69d49",
			"getApproved(uint256)": "081812fc",
			"getBreedingContract()": "c3b1f0b4",
			"getMaxId()": "d477a712",
			"getMinId()": "eb4b0e51",
			"getToken(uint256)": "e4b50cb8",
			"isApprovedForAll(address,address)": "e985e9c5",
			"mint(uint256)": "a0712d68",
			"name()": "06fdde03",
			"owner()": "8da5cb5b",
			"ownerOf(uint256)": "6352211e",
			"pause()": "8456cb59",
			"paused()": "5c975abb",
			"renounceOwnership()": "715018a6",
			"safeTransferFrom(address,address,uint256)": "42842e0e",
			"safeTransferFrom(address,address,uint256,bytes)": "b88d4fde",
			"setApprovalForAll(address,bool)": "a22cb465",
			"setBreedingContract(address)": "8c5527cf",
			"setMaxId(uint256)": "16bd8646",
			"setMinId(uint256)": "e2e3a0db",
			"supportsInterface(bytes4)": "01ffc9a7",
			"symbol()": "95d89b41",
			"tokenURI(uint256)": "c87b56dd",
			"totalSupply()": "18160ddd",
			"transferFrom(address,address,uint256)": "23b872dd",
			"transferOwnership(address)": "f2fde38b",
			"unpause()": "3f4ba83a",
			"withdraw()": "3ccfd60b"
		}
	},
	"abi": [
		{
			"inputs": [],
			"stateMutability": "nonpayable",
			"type": "constructor"
		},
		{
			"anonymous": false,
			"inputs": [
				{
					"indexed": true,
					"internalType": "address",
					"name": "owner",
					"type": "address"
				},
				{
					"indexed": true,
					"internalType": "address",
					"name": "approved",
					"type": "address"
				},
				{
					"indexed": true,
					"internalType": "uint256",
					"name": "tokenId",
					"type": "uint256"
				}
			],
			"name": "Approval",
			"type": "event"
		},
		{
			"anonymous": false,
			"inputs": [
				{
					"indexed": true,
					"internalType": "address",
					"name": "owner",
					"type": "address"
				},
				{
					"indexed": true,
					"internalType": "address",
					"name": "operator",
					"type": "address"
				},
				{
					"indexed": false,
					"internalType": "bool",
					"name": "approved",
					"type": "bool"
				}
			],
			"name": "ApprovalForAll",
			"type": "event"
		},
		{
			"anonymous": false,
			"inputs": [
				{
					"indexed": false,
					"internalType": "uint256",
					"name": "tokenId",
					"type": "uint256"
				},
				{
					"indexed": false,
					"internalType": "uint256",
					"name": "genes",
					"type": "uint256"
				}
			],
			"name": "Charged",
			"type": "event"
		},
		{
			"anonymous": false,
			"inputs": [
				{
					"indexed": true,
					"internalType": "address",
					"name": "previousOwner",
					"type": "address"
				},
				{
					"indexed": true,
					"internalType": "address",
					"name": "newOwner",
					"type": "address"
				}
			],
			"name": "OwnershipTransferred",
			"type": "event"
		},
		{
			"anonymous": false,
			"inputs": [
				{
					"indexed": false,
					"internalType": "address",
					"name": "account",
					"type": "address"
				}
			],
			"name": "Paused",
			"type": "event"
		},
		{
			"anonymous": false,
			"inputs": [
				{
					"indexed": true,
					"internalType": "address",
					"name": "from",
					"type": "address"
				},
				{
					"indexed": true,
					"internalType": "address",
					"name": "to",
					"type": "address"
				},
				{
					"indexed": true,
					"internalType": "uint256",
					"name": "tokenId",
					"type": "uint256"
				}
			],
			"name": "Transfer",
			"type": "event"
		},
		{
			"anonymous": false,
			"inputs": [
				{
					"indexed": false,
					"internalType": "address",
					"name": "account",
					"type": "address"
				}
			],
			"name": "Unpaused",
			"type": "event"
		},
		{
			"anonymous": false,
			"inputs": [
				{
					"indexed": false,
					"internalType": "uint256",
					"name": "tokenId",
					"type": "uint256"
				},
				{
					"indexed": false,
					"internalType": "uint256",
					"name": "parent1",
					"type": "uint256"
				},
				{
					"indexed": false,
					"internalType": "uint256",
					"name": "parent2",
					"type": "uint256"
				},
				{
					"indexed": false,
					"internalType": "uint256",
					"name": "genes",
					"type": "uint256"
				}
			],
			"name": "WasBorn",
			"type": "event"
		},
		{
			"inputs": [
				{
					"internalType": "address",
					"name": "to",
					"type": "address"
				},
				{
					"internalType": "uint256",
					"name": "tokenId",
					"type": "uint256"
				}
			],
			"name": "approve",
			"outputs": [],
			"stateMutability": "nonpayable",
			"type": "function"
		},
		{
			"inputs": [
				{
					"internalType": "address",
					"name": "owner",
					"type": "address"
				}
			],
			"name": "balanceOf",
			"outputs": [
				{
					"internalType": "uint256",
					"name": "",
					"type": "uint256"
				}
			],
			"stateMutability": "view",
			"type": "function"
		},
		{
			"inputs": [
				{
					"internalType": "uint256",
					"name": "token1",
					"type": "uint256"
				},
				{
					"internalType": "uint256",
					"name": "token2",
					"type": "uint256"
				}
			],
			"name": "breeding",
			"outputs": [
				{
					"internalType": "uint256",
					"name": "newTokenId",
					"type": "uint256"
				}
			],
			"stateMutability": "nonpayable",
			"type": "function"
		},
		{
			"inputs": [
				{
					"internalType": "uint256",
					"name": "tokenId",
					"type": "uint256"
				}
			],
			"name": "burn",
			"outputs": [],
			"stateMutability": "nonpayable",
			"type": "function"
		},
		{
			"inputs": [
				{
					"internalType": "uint256",
					"name": "tokenId",
					"type": "uint256"
				},
				{
					"internalType": "uint8",
					"name": "value",
					"type": "uint8"
				}
			],
			"name": "charge",
			"outputs": [],
			"stateMutability": "nonpayable",
			"type": "function"
		},
		{
			"inputs": [
				{
					"internalType": "uint256",
					"name": "tokenId",
					"type": "uint256"
				}
			],
			"name": "getApproved",
			"outputs": [
				{
					"internalType": "address",
					"name": "",
					"type": "address"
				}
			],
			"stateMutability": "view",
			"type": "function"
		},
		{
			"inputs": [],
			"name": "getBreedingContract",
			"outputs": [
				{
					"internalType": "address",
					"name": "",
					"type": "address"
				}
			],
			"stateMutability": "view",
			"type": "function"
		},
		{
			"inputs": [],
			"name": "getMaxId",
			"outputs": [
				{
					"internalType": "uint256",
					"name": "",
					"type": "uint256"
				}
			],
			"stateMutability": "view",
			"type": "function"
		},
		{
			"inputs": [],
			"name": "getMinId",
			"outputs": [
				{
					"internalType": "uint256",
					"name": "",
					"type": "uint256"
				}
			],
			"stateMutability": "view",
			"type": "function"
		},
		{
			"inputs": [
				{
					"internalType": "uint256",
					"name": "tokenId",
					"type": "uint256"
				}
			],
			"name": "getToken",
			"outputs": [
				{
					"internalType": "uint256",
					"name": "mom",
					"type": "uint256"
				},
				{
					"internalType": "uint256",
					"name": "dad",
					"type": "uint256"
				},
				{
					"internalType": "uint256",
					"name": "genes",
					"type": "uint256"
				}
			],
			"stateMutability": "view",
			"type": "function"
		},
		{
			"inputs": [
				{
					"internalType": "address",
					"name": "owner",
					"type": "address"
				},
				{
					"internalType": "address",
					"name": "operator",
					"type": "address"
				}
			],
			"name": "isApprovedForAll",
			"outputs": [
				{
					"internalType": "bool",
					"name": "",
					"type": "bool"
				}
			],
			"stateMutability": "view",
			"type": "function"
		},
		{
			"inputs": [
				{
					"internalType": "uint256",
					"name": "genes",
					"type": "uint256"
				}
			],
			"name": "mint",
			"outputs": [
				{
					"internalType": "uint256",
					"name": "",
					"type": "uint256"
				}
			],
			"stateMutability": "nonpayable",
			"type": "function"
		},
		{
			"inputs": [],
			"name": "name",
			"outputs": [
				{
					"internalType": "string",
					"name": "",
					"type": "string"
				}
			],
			"stateMutability": "view",
			"type": "function"
		},
		{
			"inputs": [],
			"name": "owner",
			"outputs": [
				{
					"internalType": "address",
					"name": "",
					"type": "address"
				}
			],
			"stateMutability": "view",
			"type": "function"
		},
		{
			"inputs": [
				{
					"internalType": "uint256",
					"name": "tokenId",
					"type": "uint256"
				}
			],
			"name": "ownerOf",
			"outputs": [
				{
					"internalType": "address",
					"name": "",
					"type": "address"
				}
			],
			"stateMutability": "view",
			"type": "function"
		},
		{
			"inputs": [],
			"name": "pause",
			"outputs": [],
			"stateMutability": "nonpayable",
			"type": "function"
		},
		{
			"inputs": [],
			"name": "paused",
			"outputs": [
				{
					"internalType": "bool",
					"name": "",
					"type": "bool"
				}
			],
			"stateMutability": "view",
			"type": "function"
		},
		{
			"inputs": [],
			"name": "renounceOwnership",
			"outputs": [],
			"stateMutability": "nonpayable",
			"type": "function"
		},
		{
			"inputs": [
				{
					"internalType": "address",
					"name": "from",
					"type": "address"
				},
				{
					"internalType": "address",
					"name": "to",
					"type": "address"
				},
				{
					"internalType": "uint256",
					"name": "tokenId",
					"type": "uint256"
				}
			],
			"name": "safeTransferFrom",
			"outputs": [],
			"stateMutability": "nonpayable",
			"type": "function"
		},
		{
			"inputs": [
				{
					"internalType": "address",
					"name": "from",
					"type": "address"
				},
				{
					"internalType": "address",
					"name": "to",
					"type": "address"
				},
				{
					"internalType": "uint256",
					"name": "tokenId",
					"type": "uint256"
				},
				{
					"internalType": "bytes",
					"name": "data",
					"type": "bytes"
				}
			],
			"name": "safeTransferFrom",
			"outputs": [],
			"stateMutability": "nonpayable",
			"type": "function"
		},
		{
			"inputs": [
				{
					"internalType": "address",
					"name": "operator",
					"type": "address"
				},
				{
					"internalType": "bool",
					"name": "approved",
					"type": "bool"
				}
			],
			"name": "setApprovalForAll",
			"outputs": [],
			"stateMutability": "nonpayable",
			"type": "function"
		},
		{
			"inputs": [
				{
					"internalType": "address",
					"name": "breedingContract",
					"type": "address"
				}
			],
			"name": "setBreedingContract",
			"outputs": [],
			"stateMutability": "nonpayable",
			"type": "function"
		},
		{
			"inputs": [
				{
					"internalType": "uint256",
					"name": "value",
					"type": "uint256"
				}
			],
			"name": "setMaxId",
			"outputs": [],
			"stateMutability": "nonpayable",
			"type": "function"
		},
		{
			"inputs": [
				{
					"internalType": "uint256",
					"name": "value",
					"type": "uint256"
				}
			],
			"name": "setMinId",
			"outputs": [],
			"stateMutability": "nonpayable",
			"type": "function"
		},
		{
			"inputs": [
				{
					"internalType": "bytes4",
					"name": "interfaceId",
					"type": "bytes4"
				}
			],
			"name": "supportsInterface",
			"outputs": [
				{
					"internalType": "bool",
					"name": "",
					"type": "bool"
				}
			],
			"stateMutability": "view",
			"type": "function"
		},
		{
			"inputs": [],
			"name": "symbol",
			"outputs": [
				{
					"internalType": "string",
					"name": "",
					"type": "string"
				}
			],
			"stateMutability": "view",
			"type": "function"
		},
		{
			"inputs": [
				{
					"internalType": "uint256",
					"name": "tokenId",
					"type": "uint256"
				}
			],
			"name": "tokenURI",
			"outputs": [
				{
					"internalType": "string",
					"name": "",
					"type": "string"
				}
			],
			"stateMutability": "view",
			"type": "function"
		},
		{
			"inputs": [],
			"name": "totalSupply",
			"outputs": [
				{
					"internalType": "uint256",
					"name": "",
					"type": "uint256"
				}
			],
			"stateMutability": "view",
			"type": "function"
		},
		{
			"inputs": [
				{
					"internalType": "address",
					"name": "from",
					"type": "address"
				},
				{
					"internalType": "address",
					"name": "to",
					"type": "address"
				},
				{
					"internalType": "uint256",
					"name": "tokenId",
					"type": "uint256"
				}
			],
			"name": "transferFrom",
			"outputs": [],
			"stateMutability": "nonpayable",
			"type": "function"
		},
		{
			"inputs": [
				{
					"internalType": "address",
					"name": "newOwner",
					"type": "address"
				}
			],
			"name": "transferOwnership",
			"outputs": [],
			"stateMutability": "nonpayable",
			"type": "function"
		},
		{
			"inputs": [],
			"name": "unpause",
			"outputs": [],
			"stateMutability": "nonpayable",
			"type": "function"
		},
		{
			"inputs": [],
			"name": "withdraw",
			"outputs": [],
			"stateMutability": "nonpayable",
			"type": "function"
		}
	]
}