{
	"contracts/coins/Coin.sol_flattened.sol": {
		"Coin": {
			"abi": [
				{
					"inputs": [],
					"stateMutability": "nonpayable",
					"type": "constructor"
				},
				{
					"anonymous": false,
					"inputs": [
						{
							"indexed": true,
							"internalType": "address",
							"name": "owner",
							"type": "address"
						},
						{
							"indexed": true,
							"internalType": "address",
							"name": "spender",
							"type": "address"
						},
						{
							"indexed": false,
							"internalType": "uint256",
							"name": "value",
							"type": "uint256"
						}
					],
					"name": "Approval",
					"type": "event"
				},
				{
					"anonymous": false,
					"inputs": [
						{
							"indexed": true,
							"internalType": "address",
							"name": "previousOwner",
							"type": "address"
						},
						{
							"indexed": true,
							"internalType": "address",
							"name": "newOwner",
							"type": "address"
						}
					],
					"name": "OwnershipTransferred",
					"type": "event"
				},
				{
					"anonymous": false,
					"inputs": [
						{
							"indexed": true,
							"internalType": "address",
							"name": "from",
							"type": "address"
						},
						{
							"indexed": true,
							"internalType": "address",
							"name": "to",
							"type": "address"
						},
						{
							"indexed": false,
							"internalType": "uint256",
							"name": "value",
							"type": "uint256"
						}
					],
					"name": "Transfer",
					"type": "event"
				},
				{
					"inputs": [
						{
							"internalType": "address",
							"name": "payer",
							"type": "address"
						}
					],
					"name": "addPayer",
					"outputs": [],
					"stateMutability": "nonpayable",
					"type": "function"
				},
				{
					"inputs": [
						{
							"internalType": "address",
							"name": "owner",
							"type": "address"
						},
						{
							"internalType": "address",
							"name": "spender",
							"type": "address"
						}
					],
					"name": "allowance",
					"outputs": [
						{
							"internalType": "uint256",
							"name": "",
							"type": "uint256"
						}
					],
					"stateMutability": "view",
					"type": "function"
				},
				{
					"inputs": [
						{
							"internalType": "address",
							"name": "spender",
							"type": "address"
						},
						{
							"internalType": "uint256",
							"name": "amount",
							"type": "uint256"
						}
					],
					"name": "approve",
					"outputs": [
						{
							"internalType": "bool",
							"name": "",
							"type": "bool"
						}
					],
					"stateMutability": "nonpayable",
					"type": "function"
				},
				{
					"inputs": [
						{
							"internalType": "address",
							"name": "account",
							"type": "address"
						}
					],
					"name": "balanceOf",
					"outputs": [
						{
							"internalType": "uint256",
							"name": "",
							"type": "uint256"
						}
					],
					"stateMutability": "view",
					"type": "function"
				},
				{
					"inputs": [],
					"name": "decimals",
					"outputs": [
						{
							"internalType": "uint8",
							"name": "",
							"type": "uint8"
						}
					],
					"stateMutability": "view",
					"type": "function"
				},
				{
					"inputs": [
						{
							"internalType": "address",
							"name": "spender",
							"type": "address"
						},
						{
							"internalType": "uint256",
							"name": "subtractedValue",
							"type": "uint256"
						}
					],
					"name": "decreaseAllowance",
					"outputs": [
						{
							"internalType": "bool",
							"name": "",
							"type": "bool"
						}
					],
					"stateMutability": "nonpayable",
					"type": "function"
				},
				{
					"inputs": [],
					"name": "getPayers",
					"outputs": [
						{
							"internalType": "address[]",
							"name": "",
							"type": "address[]"
						}
					],
					"stateMutability": "view",
					"type": "function"
				},
				{
					"inputs": [
						{
							"internalType": "address",
							"name": "spender",
							"type": "address"
						},
						{
							"internalType": "uint256",
							"name": "addedValue",
							"type": "uint256"
						}
					],
					"name": "increaseAllowance",
					"outputs": [
						{
							"internalType": "bool",
							"name": "",
							"type": "bool"
						}
					],
					"stateMutability": "nonpayable",
					"type": "function"
				},
				{
					"inputs": [
						{
							"internalType": "address",
							"name": "payer",
							"type": "address"
						}
					],
					"name": "isPayerExist",
					"outputs": [
						{
							"internalType": "bool",
							"name": "",
							"type": "bool"
						}
					],
					"stateMutability": "view",
					"type": "function"
				},
				{
					"inputs": [
						{
							"internalType": "uint256",
							"name": "amount",
							"type": "uint256"
						}
					],
					"name": "mint",
					"outputs": [],
					"stateMutability": "nonpayable",
					"type": "function"
				},
				{
					"inputs": [],
					"name": "name",
					"outputs": [
						{
							"internalType": "string",
							"name": "",
							"type": "string"
						}
					],
					"stateMutability": "view",
					"type": "function"
				},
				{
					"inputs": [],
					"name": "owner",
					"outputs": [
						{
							"internalType": "address",
							"name": "",
							"type": "address"
						}
					],
					"stateMutability": "view",
					"type": "function"
				},
				{
					"inputs": [
						{
							"internalType": "uint256",
							"name": "amount",
							"type": "uint256"
						}
					],
					"name": "pay",
					"outputs": [],
					"stateMutability": "nonpayable",
					"type": "function"
				},
				{
					"inputs": [
						{
							"internalType": "address",
							"name": "payer",
							"type": "address"
						}
					],
					"name": "removePayer",
					"outputs": [],
					"stateMutability": "nonpayable",
					"type": "function"
				},
				{
					"inputs": [],
					"name": "renounceOwnership",
					"outputs": [],
					"stateMutability": "nonpayable",
					"type": "function"
				},
				{
					"inputs": [],
					"name": "symbol",
					"outputs": [
						{
							"internalType": "string",
							"name": "",
							"type": "string"
						}
					],
					"stateMutability": "view",
					"type": "function"
				},
				{
					"inputs": [],
					"name": "totalSupply",
					"outputs": [
						{
							"internalType": "uint256",
							"name": "",
							"type": "uint256"
						}
					],
					"stateMutability": "view",
					"type": "function"
				},
				{
					"inputs": [
						{
							"internalType": "address",
							"name": "to",
							"type": "address"
						},
						{
							"internalType": "uint256",
							"name": "amount",
							"type": "uint256"
						}
					],
					"name": "transfer",
					"outputs": [
						{
							"internalType": "bool",
							"name": "",
							"type": "bool"
						}
					],
					"stateMutability": "nonpayable",
					"type": "function"
				},
				{
					"inputs": [
						{
							"internalType": "address",
							"name": "from",
							"type": "address"
						},
						{
							"internalType": "address",
							"name": "to",
							"type": "address"
						},
						{
							"internalType": "uint256",
							"name": "amount",
							"type": "uint256"
						}
					],
					"name": "transferFrom",
					"outputs": [
						{
							"internalType": "bool",
							"name": "",
							"type": "bool"
						}
					],
					"stateMutability": "nonpayable",
					"type": "function"
				},
				{
					"inputs": [
						{
							"internalType": "address",
							"name": "newOwner",
							"type": "address"
						}
					],
					"name": "transferOwnership",
					"outputs": [],
					"stateMutability": "nonpayable",
					"type": "function"
				}
			],
			"devdoc": {
				"events": {
					"Approval(address,address,uint256)": {
						"details": "Emitted when the allowance of a `spender` for an `owner` is set by a call to {approve}. `value` is the new allowance."
					},
					"Transfer(address,address,uint256)": {
						"details": "Emitted when `value` tokens are moved from one account (`from`) to another (`to`). Note that `value` may be zero."
					}
				},
				"kind": "dev",
				"methods": {
					"allowance(address,address)": {
						"details": "See {IERC20-allowance}."
					},
					"approve(address,uint256)": {
						"details": "See {IERC20-approve}. NOTE: If `amount` is the maximum `uint256`, the allowance is not updated on `transferFrom`. This is semantically equivalent to an infinite approval. Requirements: - `spender` cannot be the zero address."
					},
					"balanceOf(address)": {
						"details": "See {IERC20-balanceOf}."
					},
					"decimals()": {
						"details": "Returns the number of decimals used to get its user representation. For example, if `decimals` equals `2`, a balance of `505` tokens should be displayed to a user as `5.05` (`505 / 10 ** 2`). Tokens usually opt for a value of 18, imitating the relationship between Ether and Wei. This is the value {ERC20} uses, unless this function is overridden; NOTE: This information is only used for _display_ purposes: it in no way affects any of the arithmetic of the contract, including {IERC20-balanceOf} and {IERC20-transfer}."
					},
					"decreaseAllowance(address,uint256)": {
						"details": "Atomically decreases the allowance granted to `spender` by the caller. This is an alternative to {approve} that can be used as a mitigation for problems described in {IERC20-approve}. Emits an {Approval} event indicating the updated allowance. Requirements: - `spender` cannot be the zero address. - `spender` must have allowance for the caller of at least `subtractedValue`."
					},
					"increaseAllowance(address,uint256)": {
						"details": "Atomically increases the allowance granted to `spender` by the caller. This is an alternative to {approve} that can be used as a mitigation for problems described in {IERC20-approve}. Emits an {Approval} event indicating the updated allowance. Requirements: - `spender` cannot be the zero address."
					},
					"name()": {
						"details": "Returns the name of the token."
					},
					"owner()": {
						"details": "Returns the address of the current owner."
					},
					"renounceOwnership()": {
						"details": "Leaves the contract without owner. It will not be possible to call `onlyOwner` functions anymore. Can only be called by the current owner. NOTE: Renouncing ownership will leave the contract without an owner, thereby removing any functionality that is only available to the owner."
					},
					"symbol()": {
						"details": "Returns the symbol of the token, usually a shorter version of the name."
					},
					"totalSupply()": {
						"details": "See {IERC20-totalSupply}."
					},
					"transfer(address,uint256)": {
						"details": "See {IERC20-transfer}. Requirements: - `to` cannot be the zero address. - the caller must have a balance of at least `amount`."
					},
					"transferFrom(address,address,uint256)": {
						"details": "See {IERC20-transferFrom}. Emits an {Approval} event indicating the updated allowance. This is not required by the EIP. See the note at the beginning of {ERC20}. NOTE: Does not update the allowance if the current allowance is the maximum `uint256`. Requirements: - `from` and `to` cannot be the zero address. - `from` must have a balance of at least `amount`. - the caller must have allowance for ``from``'s tokens of at least `amount`."
					},
					"transferOwnership(address)": {
						"details": "Transfers ownership of the contract to a new account (`newOwner`). Can only be called by the current owner."
					}
				},
				"version": 1
			},
			"evm": {
				"assembly": "    /* \"contracts/coins/Coin.sol_flattened.sol\":20199:21793  contract Coin is ERC20, Ownable, ICoin {... */\n  mstore(0x40, 0x80)\n    /* \"contracts/coins/Coin.sol_flattened.sol\":20633:20766  constructor() ERC20(\"ShoCoin\", \"SHOC\") {... */\n  callvalue\n  dup1\n  iszero\n  tag_1\n  jumpi\n  0x00\n  dup1\n  revert\ntag_1:\n  pop\n    /* \"contracts/coins/Coin.sol_flattened.sol\":9096:9209  constructor(string memory name_, string memory symbol_) {... */\n  mload(0x40)\n  dup1\n  0x40\n  add\n  0x40\n  mstore\n  dup1\n  0x07\n  dup2\n  mstore\n  0x20\n  add\n  0x53686f436f696e00000000000000000000000000000000000000000000000000\n  dup2\n  mstore\n  pop\n  mload(0x40)\n  dup1\n  0x40\n  add\n  0x40\n  mstore\n  dup1\n  0x04\n  dup2\n  mstore\n  0x20\n  add\n  0x53484f4300000000000000000000000000000000000000000000000000000000\n  dup2\n  mstore\n  pop\n    /* \"contracts/coins/Coin.sol_flattened.sol\":9170:9175  name_ */\n  dup2\n    /* \"contracts/coins/Coin.sol_flattened.sol\":9162:9167  _name */\n  0x03\n    /* \"contracts/coins/Coin.sol_flattened.sol\":9162:9175  _name = name_ */\n  swap1\n  dup2\n  tag_6\n  swap2\n  swap1\n  tag_7\n  jump\t// in\ntag_6:\n  pop\n    /* \"contracts/coins/Coin.sol_flattened.sol\":9195:9202  symbol_ */\n  dup1\n    /* \"contracts/coins/Coin.sol_flattened.sol\":9185:9192  _symbol */\n  0x04\n    /* \"contracts/coins/Coin.sol_flattened.sol\":9185:9202  _symbol = symbol_ */\n  swap1\n  dup2\n  tag_8\n  swap2\n  swap1\n  tag_7\n  jump\t// in\ntag_8:\n  pop\n    /* \"contracts/coins/Coin.sol_flattened.sol\":9096:9209  constructor(string memory name_, string memory symbol_) {... */\n  pop\n  pop\n    /* \"contracts/coins/Coin.sol_flattened.sol\":2005:2037  _transferOwnership(_msgSender()) */\n  tag_10\n    /* \"contracts/coins/Coin.sol_flattened.sol\":2024:2036  _msgSender() */\n  tag_11\n    /* \"contracts/coins/Coin.sol_flattened.sol\":2024:2034  _msgSender */\n  shl(0x20, tag_12)\n    /* \"contracts/coins/Coin.sol_flattened.sol\":2024:2036  _msgSender() */\n  0x20\n  shr\n  jump\t// in\ntag_11:\n    /* \"contracts/coins/Coin.sol_flattened.sol\":2005:2023  _transferOwnership */\n  shl(0x20, tag_13)\n    /* \"contracts/coins/Coin.sol_flattened.sol\":2005:2037  _transferOwnership(_msgSender()) */\n  0x20\n  shr\n  jump\t// in\ntag_10:\n    /* \"contracts/coins/Coin.sol_flattened.sol\":20738:20745  _payers */\n  0x06\n    /* \"contracts/coins/Coin.sol_flattened.sol\":20751:20758  owner() */\n  tag_15\n    /* \"contracts/coins/Coin.sol_flattened.sol\":20751:20756  owner */\n  shl(0x20, tag_16)\n    /* \"contracts/coins/Coin.sol_flattened.sol\":20751:20758  owner() */\n  0x20\n  shr\n  jump\t// in\ntag_15:\n    /* \"contracts/coins/Coin.sol_flattened.sol\":20738:20759  _payers.push(owner()) */\n  swap1\n  dup1\n  0x01\n  dup2\n  sload\n  add\n  dup1\n  dup3\n  sstore\n  dup1\n  swap2\n  pop\n  pop\n  0x01\n  swap1\n  sub\n  swap1\n  0x00\n  mstore\n  keccak256(0x00, 0x20)\n  add\n  0x00\n  swap1\n  swap2\n  swap1\n  swap2\n  swap1\n  swap2\n  0x0100\n  exp\n  dup2\n  sload\n  dup2\n  0xffffffffffffffffffffffffffffffffffffffff\n  mul\n  not\n  and\n  swap1\n  dup4\n  0xffffffffffffffffffffffffffffffffffffffff\n  and\n  mul\n  or\n  swap1\n  sstore\n  pop\n    /* \"contracts/coins/Coin.sol_flattened.sol\":20199:21793  contract Coin is ERC20, Ownable, ICoin {... */\n  jump(tag_18)\n    /* \"contracts/coins/Coin.sol_flattened.sol\":873:969  function _msgSender() internal view virtual returns (address) {... */\ntag_12:\n    /* \"contracts/coins/Coin.sol_flattened.sol\":926:933  address */\n  0x00\n    /* \"contracts/coins/Coin.sol_flattened.sol\":952:962  msg.sender */\n  caller\n    /* \"contracts/coins/Coin.sol_flattened.sol\":945:962  return msg.sender */\n  swap1\n  pop\n    /* \"contracts/coins/Coin.sol_flattened.sol\":873:969  function _msgSender() internal view virtual returns (address) {... */\n  swap1\n  jump\t// out\n    /* \"contracts/coins/Coin.sol_flattened.sol\":3502:3689  function _transferOwnership(address newOwner) internal virtual {... */\ntag_13:\n    /* \"contracts/coins/Coin.sol_flattened.sol\":3575:3591  address oldOwner */\n  0x00\n    /* \"contracts/coins/Coin.sol_flattened.sol\":3594:3600  _owner */\n  0x05\n  0x00\n  swap1\n  sload\n  swap1\n  0x0100\n  exp\n  swap1\n  div\n  0xffffffffffffffffffffffffffffffffffffffff\n  and\n    /* \"contracts/coins/Coin.sol_flattened.sol\":3575:3600  address oldOwner = _owner */\n  swap1\n  pop\n    /* \"contracts/coins/Coin.sol_flattened.sol\":3619:3627  newOwner */\n  dup2\n    /* \"contracts/coins/Coin.sol_flattened.sol\":3610:3616  _owner */\n  0x05\n  0x00\n    /* \"contracts/coins/Coin.sol_flattened.sol\":3610:3627  _owner = newOwner */\n  0x0100\n  exp\n  dup2\n  sload\n  dup2\n  0xffffffffffffffffffffffffffffffffffffffff\n  mul\n  not\n  and\n  swap1\n  dup4\n  0xffffffffffffffffffffffffffffffffffffffff\n  and\n  mul\n  or\n  swap1\n  sstore\n  pop\n    /* \"contracts/coins/Coin.sol_flattened.sol\":3673:3681  newOwner */\n  dup2\n    /* \"contracts/coins/Coin.sol_flattened.sol\":3642:3682  OwnershipTransferred(oldOwner, newOwner) */\n  0xffffffffffffffffffffffffffffffffffffffff\n  and\n    /* \"contracts/coins/Coin.sol_flattened.sol\":3663:3671  oldOwner */\n  dup2\n    /* \"contracts/coins/Coin.sol_flattened.sol\":3642:3682  OwnershipTransferred(oldOwner, newOwner) */\n  0xffffffffffffffffffffffffffffffffffffffff\n  and\n  0x8be0079c531659141344cd1fd0a4f28419497f9722a3daafe3b4186f6b6457e0\n  mload(0x40)\n  mload(0x40)\n  dup1\n  swap2\n  sub\n  swap1\n  log3\n    /* \"contracts/coins/Coin.sol_flattened.sol\":3565:3689  {... */\n  pop\n    /* \"contracts/coins/Coin.sol_flattened.sol\":3502:3689  function _transferOwnership(address newOwner) internal virtual {... */\n  pop\n  jump\t// out\n    /* \"contracts/coins/Coin.sol_flattened.sol\":2270:2355  function owner() public view virtual returns (address) {... */\ntag_16:\n    /* \"contracts/coins/Coin.sol_flattened.sol\":2316:2323  address */\n  0x00\n    /* \"contracts/coins/Coin.sol_flattened.sol\":2342:2348  _owner */\n  0x05\n  0x00\n  swap1\n  sload\n  swap1\n  0x0100\n  exp\n  swap1\n  div\n  0xffffffffffffffffffffffffffffffffffffffff\n  and\n    /* \"contracts/coins/Coin.sol_flattened.sol\":2335:2348  return _owner */\n  swap1\n  pop\n    /* \"contracts/coins/Coin.sol_flattened.sol\":2270:2355  function owner() public view virtual returns (address) {... */\n  swap1\n  jump\t// out\n    /* \"#utility.yul\":7:106   */\ntag_22:\n    /* \"#utility.yul\":59:65   */\n  0x00\n    /* \"#utility.yul\":93:98   */\n  dup2\n    /* \"#utility.yul\":87:99   */\n  mload\n    /* \"#utility.yul\":77:99   */\n  swap1\n  pop\n    /* \"#utility.yul\":7:106   */\n  swap2\n  swap1\n  pop\n  jump\t// out\n    /* \"#utility.yul\":112:292   */\ntag_23:\n    /* \"#utility.yul\":160:237   */\n  0x4e487b7100000000000000000000000000000000000000000000000000000000\n    /* \"#utility.yul\":157:158   */\n  0x00\n    /* \"#utility.yul\":150:238   */\n  mstore\n    /* \"#utility.yul\":257:261   */\n  0x41\n    /* \"#utility.yul\":254:255   */\n  0x04\n    /* \"#utility.yul\":247:262   */\n  mstore\n    /* \"#utility.yul\":281:285   */\n  0x24\n    /* \"#utility.yul\":278:279   */\n  0x00\n    /* \"#utility.yul\":271:286   */\n  revert\n    /* \"#utility.yul\":298:478   */\ntag_24:\n    /* \"#utility.yul\":346:423   */\n  0x4e487b7100000000000000000000000000000000000000000000000000000000\n    /* \"#utility.yul\":343:344   */\n  0x00\n    /* \"#utility.yul\":336:424   */\n  mstore\n    /* \"#utility.yul\":443:447   */\n  0x22\n    /* \"#utility.yul\":440:441   */\n  0x04\n    /* \"#utility.yul\":433:448   */\n  mstore\n    /* \"#utility.yul\":467:471   */\n  0x24\n    /* \"#utility.yul\":464:465   */\n  0x00\n    /* \"#utility.yul\":457:472   */\n  revert\n    /* \"#utility.yul\":484:804   */\ntag_25:\n    /* \"#utility.yul\":528:534   */\n  0x00\n    /* \"#utility.yul\":565:566   */\n  0x02\n    /* \"#utility.yul\":559:563   */\n  dup3\n    /* \"#utility.yul\":555:567   */\n  div\n    /* \"#utility.yul\":545:567   */\n  swap1\n  pop\n    /* \"#utility.yul\":612:613   */\n  0x01\n    /* \"#utility.yul\":606:610   */\n  dup3\n    /* \"#utility.yul\":602:614   */\n  and\n    /* \"#utility.yul\":633:651   */\n  dup1\n    /* \"#utility.yul\":623:704   */\n  tag_47\n  jumpi\n    /* \"#utility.yul\":689:693   */\n  0x7f\n    /* \"#utility.yul\":681:687   */\n  dup3\n    /* \"#utility.yul\":677:694   */\n  and\n    /* \"#utility.yul\":667:694   */\n  swap2\n  pop\n    /* \"#utility.yul\":623:704   */\ntag_47:\n    /* \"#utility.yul\":751:753   */\n  0x20\n    /* \"#utility.yul\":743:749   */\n  dup3\n    /* \"#utility.yul\":740:754   */\n  lt\n    /* \"#utility.yul\":720:738   */\n  dup2\n    /* \"#utility.yul\":717:755   */\n  sub\n    /* \"#utility.yul\":714:798   */\n  tag_48\n  jumpi\n    /* \"#utility.yul\":770:788   */\n  tag_49\n  tag_24\n  jump\t// in\ntag_49:\n    /* \"#utility.yul\":714:798   */\ntag_48:\n    /* \"#utility.yul\":535:804   */\n  pop\n    /* \"#utility.yul\":484:804   */\n  swap2\n  swap1\n  pop\n  jump\t// out\n    /* \"#utility.yul\":810:951   */\ntag_26:\n    /* \"#utility.yul\":859:863   */\n  0x00\n    /* \"#utility.yul\":882:885   */\n  dup2\n    /* \"#utility.yul\":874:885   */\n  swap1\n  pop\n    /* \"#utility.yul\":905:908   */\n  dup2\n    /* \"#utility.yul\":902:903   */\n  0x00\n    /* \"#utility.yul\":895:909   */\n  mstore\n    /* \"#utility.yul\":939:943   */\n  0x20\n    /* \"#utility.yul\":936:937   */\n  0x00\n    /* \"#utility.yul\":926:944   */\n  keccak256\n    /* \"#utility.yul\":918:944   */\n  swap1\n  pop\n    /* \"#utility.yul\":810:951   */\n  swap2\n  swap1\n  pop\n  jump\t// out\n    /* \"#utility.yul\":957:1050   */\ntag_27:\n    /* \"#utility.yul\":994:1000   */\n  0x00\n    /* \"#utility.yul\":1041:1043   */\n  0x20\n    /* \"#utility.yul\":1036:1038   */\n  0x1f\n    /* \"#utility.yul\":1029:1034   */\n  dup4\n    /* \"#utility.yul\":1025:1039   */\n  add\n    /* \"#utility.yul\":1021:1044   */\n  div\n    /* \"#utility.yul\":1011:1044   */\n  swap1\n  pop\n    /* \"#utility.yul\":957:1050   */\n  swap2\n  swap1\n  pop\n  jump\t// out\n    /* \"#utility.yul\":1056:1163   */\ntag_28:\n    /* \"#utility.yul\":1100:1108   */\n  0x00\n    /* \"#utility.yul\":1150:1155   */\n  dup3\n    /* \"#utility.yul\":1144:1148   */\n  dup3\n    /* \"#utility.yul\":1140:1156   */\n  shl\n    /* \"#utility.yul\":1119:1156   */\n  swap1\n  pop\n    /* \"#utility.yul\":1056:1163   */\n  swap3\n  swap2\n  pop\n  pop\n  jump\t// out\n    /* \"#utility.yul\":1169:1562   */\ntag_29:\n    /* \"#utility.yul\":1238:1244   */\n  0x00\n    /* \"#utility.yul\":1288:1289   */\n  0x08\n    /* \"#utility.yul\":1276:1286   */\n  dup4\n    /* \"#utility.yul\":1272:1290   */\n  mul\n    /* \"#utility.yul\":1311:1408   */\n  tag_54\n    /* \"#utility.yul\":1341:1407   */\n  0xffffffffffffffffffffffffffffffffffffffffffffffffffffffffffffffff\n    /* \"#utility.yul\":1330:1339   */\n  dup3\n    /* \"#utility.yul\":1311:1408   */\n  tag_28\n  jump\t// in\ntag_54:\n    /* \"#utility.yul\":1429:1468   */\n  tag_55\n    /* \"#utility.yul\":1459:1467   */\n  dup7\n    /* \"#utility.yul\":1448:1457   */\n  dup4\n    /* \"#utility.yul\":1429:1468   */\n  tag_28\n  jump\t// in\ntag_55:\n    /* \"#utility.yul\":1417:1468   */\n  swap6\n  pop\n    /* \"#utility.yul\":1501:1505   */\n  dup1\n    /* \"#utility.yul\":1497:1506   */\n  not\n    /* \"#utility.yul\":1490:1495   */\n  dup5\n    /* \"#utility.yul\":1486:1507   */\n  and\n    /* \"#utility.yul\":1477:1507   */\n  swap4\n  pop\n    /* \"#utility.yul\":1550:1554   */\n  dup1\n    /* \"#utility.yul\":1540:1548   */\n  dup7\n    /* \"#utility.yul\":1536:1555   */\n  and\n    /* \"#utility.yul\":1529:1534   */\n  dup5\n    /* \"#utility.yul\":1526:1556   */\n  or\n    /* \"#utility.yul\":1516:1556   */\n  swap3\n  pop\n    /* \"#utility.yul\":1245:1562   */\n  pop\n  pop\n    /* \"#utility.yul\":1169:1562   */\n  swap4\n  swap3\n  pop\n  pop\n  pop\n  jump\t// out\n    /* \"#utility.yul\":1568:1645   */\ntag_30:\n    /* \"#utility.yul\":1605:1612   */\n  0x00\n    /* \"#utility.yul\":1634:1639   */\n  dup2\n    /* \"#utility.yul\":1623:1639   */\n  swap1\n  pop\n    /* \"#utility.yul\":1568:1645   */\n  swap2\n  swap1\n  pop\n  jump\t// out\n    /* \"#utility.yul\":1651:1711   */\ntag_31:\n    /* \"#utility.yul\":1679:1682   */\n  0x00\n    /* \"#utility.yul\":1700:1705   */\n  dup2\n    /* \"#utility.yul\":1693:1705   */\n  swap1\n  pop\n    /* \"#utility.yul\":1651:1711   */\n  swap2\n  swap1\n  pop\n  jump\t// out\n    /* \"#utility.yul\":1717:1859   */\ntag_32:\n    /* \"#utility.yul\":1767:1776   */\n  0x00\n    /* \"#utility.yul\":1800:1853   */\n  tag_59\n    /* \"#utility.yul\":1818:1852   */\n  tag_60\n    /* \"#utility.yul\":1827:1851   */\n  tag_61\n    /* \"#utility.yul\":1845:1850   */\n  dup5\n    /* \"#utility.yul\":1827:1851   */\n  tag_30\n  jump\t// in\ntag_61:\n    /* \"#utility.yul\":1818:1852   */\n  tag_31\n  jump\t// in\ntag_60:\n    /* \"#utility.yul\":1800:1853   */\n  tag_30\n  jump\t// in\ntag_59:\n    /* \"#utility.yul\":1787:1853   */\n  swap1\n  pop\n    /* \"#utility.yul\":1717:1859   */\n  swap2\n  swap1\n  pop\n  jump\t// out\n    /* \"#utility.yul\":1865:1940   */\ntag_33:\n    /* \"#utility.yul\":1908:1911   */\n  0x00\n    /* \"#utility.yul\":1929:1934   */\n  dup2\n    /* \"#utility.yul\":1922:1934   */\n  swap1\n  pop\n    /* \"#utility.yul\":1865:1940   */\n  swap2\n  swap1\n  pop\n  jump\t// out\n    /* \"#utility.yul\":1946:2215   */\ntag_34:\n    /* \"#utility.yul\":2056:2095   */\n  tag_64\n    /* \"#utility.yul\":2087:2094   */\n  dup4\n    /* \"#utility.yul\":2056:2095   */\n  tag_32\n  jump\t// in\ntag_64:\n    /* \"#utility.yul\":2117:2208   */\n  tag_65\n    /* \"#utility.yul\":2166:2207   */\n  tag_66\n    /* \"#utility.yul\":2190:2206   */\n  dup3\n    /* \"#utility.yul\":2166:2207   */\n  tag_33\n  jump\t// in\ntag_66:\n    /* \"#utility.yul\":2158:2164   */\n  dup5\n    /* \"#utility.yul\":2151:2155   */\n  dup5\n    /* \"#utility.yul\":2145:2156   */\n  sload\n    /* \"#utility.yul\":2117:2208   */\n  tag_29\n  jump\t// in\ntag_65:\n    /* \"#utility.yul\":2111:2115   */\n  dup3\n    /* \"#utility.yul\":2104:2209   */\n  sstore\n    /* \"#utility.yul\":2022:2215   */\n  pop\n    /* \"#utility.yul\":1946:2215   */\n  pop\n  pop\n  pop\n  jump\t// out\n    /* \"#utility.yul\":2221:2294   */\ntag_35:\n    /* \"#utility.yul\":2266:2269   */\n  0x00\n    /* \"#utility.yul\":2221:2294   */\n  swap1\n  jump\t// out\n    /* \"#utility.yul\":2300:2489   */\ntag_36:\n    /* \"#utility.yul\":2377:2409   */\n  tag_69\n  tag_35\n  jump\t// in\ntag_69:\n    /* \"#utility.yul\":2418:2483   */\n  tag_70\n    /* \"#utility.yul\":2476:2482   */\n  dup2\n    /* \"#utility.yul\":2468:2474   */\n  dup5\n    /* \"#utility.yul\":2462:2466   */\n  dup5\n    /* \"#utility.yul\":2418:2483   */\n  tag_34\n  jump\t// in\ntag_70:\n    /* \"#utility.yul\":2353:2489   */\n  pop\n    /* \"#utility.yul\":2300:2489   */\n  pop\n  pop\n  jump\t// out\n    /* \"#utility.yul\":2495:2681   */\ntag_37:\n    /* \"#utility.yul\":2555:2675   */\ntag_72:\n    /* \"#utility.yul\":2572:2575   */\n  dup2\n    /* \"#utility.yul\":2565:2570   */\n  dup2\n    /* \"#utility.yul\":2562:2576   */\n  lt\n    /* \"#utility.yul\":2555:2675   */\n  iszero\n  tag_74\n  jumpi\n    /* \"#utility.yul\":2626:2665   */\n  tag_75\n    /* \"#utility.yul\":2663:2664   */\n  0x00\n    /* \"#utility.yul\":2656:2661   */\n  dup3\n    /* \"#utility.yul\":2626:2665   */\n  tag_36\n  jump\t// in\ntag_75:\n    /* \"#utility.yul\":2599:2600   */\n  0x01\n    /* \"#utility.yul\":2592:2597   */\n  dup2\n    /* \"#utility.yul\":2588:2601   */\n  add\n    /* \"#utility.yul\":2579:2601   */\n  swap1\n  pop\n    /* \"#utility.yul\":2555:2675   */\n  jump(tag_72)\ntag_74:\n    /* \"#utility.yul\":2495:2681   */\n  pop\n  pop\n  jump\t// out\n    /* \"#utility.yul\":2687:3230   */\ntag_38:\n    /* \"#utility.yul\":2788:2790   */\n  0x1f\n    /* \"#utility.yul\":2783:2786   */\n  dup3\n    /* \"#utility.yul\":2780:2791   */\n  gt\n    /* \"#utility.yul\":2777:3223   */\n  iszero\n  tag_77\n  jumpi\n    /* \"#utility.yul\":2822:2860   */\n  tag_78\n    /* \"#utility.yul\":2854:2859   */\n  dup2\n    /* \"#utility.yul\":2822:2860   */\n  tag_26\n  jump\t// in\ntag_78:\n    /* \"#utility.yul\":2906:2935   */\n  tag_79\n    /* \"#utility.yul\":2924:2934   */\n  dup5\n    /* \"#utility.yul\":2906:2935   */\n  tag_27\n  jump\t// in\ntag_79:\n    /* \"#utility.yul\":2896:2904   */\n  dup2\n    /* \"#utility.yul\":2892:2936   */\n  add\n    /* \"#utility.yul\":3089:3091   */\n  0x20\n    /* \"#utility.yul\":3077:3087   */\n  dup6\n    /* \"#utility.yul\":3074:3092   */\n  lt\n    /* \"#utility.yul\":3071:3120   */\n  iszero\n  tag_80\n  jumpi\n    /* \"#utility.yul\":3110:3118   */\n  dup2\n    /* \"#utility.yul\":3095:3118   */\n  swap1\n  pop\n    /* \"#utility.yul\":3071:3120   */\ntag_80:\n    /* \"#utility.yul\":3133:3213   */\n  tag_81\n    /* \"#utility.yul\":3189:3211   */\n  tag_82\n    /* \"#utility.yul\":3207:3210   */\n  dup6\n    /* \"#utility.yul\":3189:3211   */\n  tag_27\n  jump\t// in\ntag_82:\n    /* \"#utility.yul\":3179:3187   */\n  dup4\n    /* \"#utility.yul\":3175:3212   */\n  add\n    /* \"#utility.yul\":3162:3173   */\n  dup3\n    /* \"#utility.yul\":3133:3213   */\n  tag_37\n  jump\t// in\ntag_81:\n    /* \"#utility.yul\":2792:3223   */\n  pop\n  pop\n    /* \"#utility.yul\":2777:3223   */\ntag_77:\n    /* \"#utility.yul\":2687:3230   */\n  pop\n  pop\n  pop\n  jump\t// out\n    /* \"#utility.yul\":3236:3353   */\ntag_39:\n    /* \"#utility.yul\":3290:3298   */\n  0x00\n    /* \"#utility.yul\":3340:3345   */\n  dup3\n    /* \"#utility.yul\":3334:3338   */\n  dup3\n    /* \"#utility.yul\":3330:3346   */\n  shr\n    /* \"#utility.yul\":3309:3346   */\n  swap1\n  pop\n    /* \"#utility.yul\":3236:3353   */\n  swap3\n  swap2\n  pop\n  pop\n  jump\t// out\n    /* \"#utility.yul\":3359:3528   */\ntag_40:\n    /* \"#utility.yul\":3403:3409   */\n  0x00\n    /* \"#utility.yul\":3436:3487   */\n  tag_85\n    /* \"#utility.yul\":3484:3485   */\n  0x00\n    /* \"#utility.yul\":3480:3486   */\n  not\n    /* \"#utility.yul\":3472:3477   */\n  dup5\n    /* \"#utility.yul\":3469:3470   */\n  0x08\n    /* \"#utility.yul\":3465:3478   */\n  mul\n    /* \"#utility.yul\":3436:3487   */\n  tag_39\n  jump\t// in\ntag_85:\n    /* \"#utility.yul\":3432:3488   */\n  not\n    /* \"#utility.yul\":3517:3521   */\n  dup1\n    /* \"#utility.yul\":3511:3515   */\n  dup4\n    /* \"#utility.yul\":3507:3522   */\n  and\n    /* \"#utility.yul\":3497:3522   */\n  swap2\n  pop\n    /* \"#utility.yul\":3410:3528   */\n  pop\n    /* \"#utility.yul\":3359:3528   */\n  swap3\n  swap2\n  pop\n  pop\n  jump\t// out\n    /* \"#utility.yul\":3533:3828   */\ntag_41:\n    /* \"#utility.yul\":3609:3613   */\n  0x00\n    /* \"#utility.yul\":3755:3784   */\n  tag_87\n    /* \"#utility.yul\":3780:3783   */\n  dup4\n    /* \"#utility.yul\":3774:3778   */\n  dup4\n    /* \"#utility.yul\":3755:3784   */\n  tag_40\n  jump\t// in\ntag_87:\n    /* \"#utility.yul\":3747:3784   */\n  swap2\n  pop\n    /* \"#utility.yul\":3817:3820   */\n  dup3\n    /* \"#utility.yul\":3814:3815   */\n  0x02\n    /* \"#utility.yul\":3810:3821   */\n  mul\n    /* \"#utility.yul\":3804:3808   */\n  dup3\n    /* \"#utility.yul\":3801:3822   */\n  or\n    /* \"#utility.yul\":3793:3822   */\n  swap1\n  pop\n    /* \"#utility.yul\":3533:3828   */\n  swap3\n  swap2\n  pop\n  pop\n  jump\t// out\n    /* \"#utility.yul\":3833:5228   */\ntag_7:\n    /* \"#utility.yul\":3950:3987   */\n  tag_89\n    /* \"#utility.yul\":3983:3986   */\n  dup3\n    /* \"#utility.yul\":3950:3987   */\n  tag_22\n  jump\t// in\ntag_89:\n    /* \"#utility.yul\":4052:4070   */\n  0xffffffffffffffff\n    /* \"#utility.yul\":4044:4050   */\n  dup2\n    /* \"#utility.yul\":4041:4071   */\n  gt\n    /* \"#utility.yul\":4038:4094   */\n  iszero\n  tag_90\n  jumpi\n    /* \"#utility.yul\":4074:4092   */\n  tag_91\n  tag_23\n  jump\t// in\ntag_91:\n    /* \"#utility.yul\":4038:4094   */\ntag_90:\n    /* \"#utility.yul\":4118:4156   */\n  tag_92\n    /* \"#utility.yul\":4150:4154   */\n  dup3\n    /* \"#utility.yul\":4144:4155   */\n  sload\n    /* \"#utility.yul\":4118:4156   */\n  tag_25\n  jump\t// in\ntag_92:\n    /* \"#utility.yul\":4203:4270   */\n  tag_93\n    /* \"#utility.yul\":4263:4269   */\n  dup3\n    /* \"#utility.yul\":4255:4261   */\n  dup3\n    /* \"#utility.yul\":4249:4253   */\n  dup6\n    /* \"#utility.yul\":4203:4270   */\n  tag_38\n  jump\t// in\ntag_93:\n    /* \"#utility.yul\":4297:4298   */\n  0x00\n    /* \"#utility.yul\":4321:4325   */\n  0x20\n    /* \"#utility.yul\":4308:4325   */\n  swap1\n  pop\n    /* \"#utility.yul\":4353:4355   */\n  0x1f\n    /* \"#utility.yul\":4345:4351   */\n  dup4\n    /* \"#utility.yul\":4342:4356   */\n  gt\n    /* \"#utility.yul\":4370:4371   */\n  0x01\n    /* \"#utility.yul\":4365:4983   */\n  dup2\n  eq\n  tag_95\n  jumpi\n    /* \"#utility.yul\":5027:5028   */\n  0x00\n    /* \"#utility.yul\":5044:5050   */\n  dup5\n    /* \"#utility.yul\":5041:5118   */\n  iszero\n  tag_96\n  jumpi\n    /* \"#utility.yul\":5093:5102   */\n  dup3\n    /* \"#utility.yul\":5088:5091   */\n  dup8\n    /* \"#utility.yul\":5084:5103   */\n  add\n    /* \"#utility.yul\":5078:5104   */\n  mload\n    /* \"#utility.yul\":5069:5104   */\n  swap1\n  pop\n    /* \"#utility.yul\":5041:5118   */\ntag_96:\n    /* \"#utility.yul\":5144:5211   */\n  tag_97\n    /* \"#utility.yul\":5204:5210   */\n  dup6\n    /* \"#utility.yul\":5197:5202   */\n  dup3\n    /* \"#utility.yul\":5144:5211   */\n  tag_41\n  jump\t// in\ntag_97:\n    /* \"#utility.yul\":5138:5142   */\n  dup7\n    /* \"#utility.yul\":5131:5212   */\n  sstore\n    /* \"#utility.yul\":5000:5222   */\n  pop\n    /* \"#utility.yul\":4335:5222   */\n  jump(tag_94)\n    /* \"#utility.yul\":4365:4983   */\ntag_95:\n    /* \"#utility.yul\":4417:4421   */\n  0x1f\n    /* \"#utility.yul\":4413:4422   */\n  not\n    /* \"#utility.yul\":4405:4411   */\n  dup5\n    /* \"#utility.yul\":4401:4423   */\n  and\n    /* \"#utility.yul\":4451:4488   */\n  tag_98\n    /* \"#utility.yul\":4483:4487   */\n  dup7\n    /* \"#utility.yul\":4451:4488   */\n  tag_26\n  jump\t// in\ntag_98:\n    /* \"#utility.yul\":4510:4511   */\n  0x00\n    /* \"#utility.yul\":4524:4732   */\ntag_99:\n    /* \"#utility.yul\":4538:4545   */\n  dup3\n    /* \"#utility.yul\":4535:4536   */\n  dup2\n    /* \"#utility.yul\":4532:4546   */\n  lt\n    /* \"#utility.yul\":4524:4732   */\n  iszero\n  tag_101\n  jumpi\n    /* \"#utility.yul\":4617:4626   */\n  dup5\n    /* \"#utility.yul\":4612:4615   */\n  dup10\n    /* \"#utility.yul\":4608:4627   */\n  add\n    /* \"#utility.yul\":4602:4628   */\n  mload\n    /* \"#utility.yul\":4594:4600   */\n  dup3\n    /* \"#utility.yul\":4587:4629   */\n  sstore\n    /* \"#utility.yul\":4668:4669   */\n  0x01\n    /* \"#utility.yul\":4660:4666   */\n  dup3\n    /* \"#utility.yul\":4656:4670   */\n  add\n    /* \"#utility.yul\":4646:4670   */\n  swap2\n  pop\n    /* \"#utility.yul\":4715:4717   */\n  0x20\n    /* \"#utility.yul\":4704:4713   */\n  dup6\n    /* \"#utility.yul\":4700:4718   */\n  add\n    /* \"#utility.yul\":4687:4718   */\n  swap5\n  pop\n    /* \"#utility.yul\":4561:4565   */\n  0x20\n    /* \"#utility.yul\":4558:4559   */\n  dup2\n    /* \"#utility.yul\":4554:4566   */\n  add\n    /* \"#utility.yul\":4549:4566   */\n  swap1\n  pop\n    /* \"#utility.yul\":4524:4732   */\n  jump(tag_99)\ntag_101:\n    /* \"#utility.yul\":4760:4766   */\n  dup7\n    /* \"#utility.yul\":4751:4758   */\n  dup4\n    /* \"#utility.yul\":4748:4767   */\n  lt\n    /* \"#utility.yul\":4745:4924   */\n  iszero\n  tag_102\n  jumpi\n    /* \"#utility.yul\":4818:4827   */\n  dup5\n    /* \"#utility.yul\":4813:4816   */\n  dup10\n    /* \"#utility.yul\":4809:4828   */\n  add\n    /* \"#utility.yul\":4803:4829   */\n  mload\n    /* \"#utility.yul\":4861:4909   */\n  tag_103\n    /* \"#utility.yul\":4903:4907   */\n  0x1f\n    /* \"#utility.yul\":4895:4901   */\n  dup10\n    /* \"#utility.yul\":4891:4908   */\n  and\n    /* \"#utility.yul\":4880:4889   */\n  dup3\n    /* \"#utility.yul\":4861:4909   */\n  tag_40\n  jump\t// in\ntag_103:\n    /* \"#utility.yul\":4853:4859   */\n  dup4\n    /* \"#utility.yul\":4846:4910   */\n  sstore\n    /* \"#utility.yul\":4768:4924   */\n  pop\n    /* \"#utility.yul\":4745:4924   */\ntag_102:\n    /* \"#utility.yul\":4970:4971   */\n  0x01\n    /* \"#utility.yul\":4966:4967   */\n  0x02\n    /* \"#utility.yul\":4958:4964   */\n  dup9\n    /* \"#utility.yul\":4954:4968   */\n  mul\n    /* \"#utility.yul\":4950:4972   */\n  add\n    /* \"#utility.yul\":4944:4948   */\n  dup9\n    /* \"#utility.yul\":4937:4973   */\n  sstore\n    /* \"#utility.yul\":4372:4983   */\n  pop\n  pop\n  pop\n    /* \"#utility.yul\":4335:5222   */\ntag_94:\n  pop\n    /* \"#utility.yul\":3925:5228   */\n  pop\n  pop\n  pop\n    /* \"#utility.yul\":3833:5228   */\n  pop\n  pop\n  jump\t// out\n    /* \"contracts/coins/Coin.sol_flattened.sol\":20199:21793  contract Coin is ERC20, Ownable, ICoin {... */\ntag_18:\n  dataSize(sub_0)\n  dup1\n  dataOffset(sub_0)\n  0x00\n  codecopy\n  0x00\n  return\nstop\n\nsub_0: assembly {\n        /* \"contracts/coins/Coin.sol_flattened.sol\":20199:21793  contract Coin is ERC20, Ownable, ICoin {... */\n      mstore(0x40, 0x80)\n      callvalue\n      dup1\n      iszero\n      tag_1\n      jumpi\n      0x00\n      dup1\n      revert\n    tag_1:\n      pop\n      jumpi(tag_2, lt(calldatasize, 0x04))\n      shr(0xe0, calldataload(0x00))\n      dup1\n      0x8da5cb5b\n      gt\n      tag_23\n      jumpi\n      dup1\n      0xb78376e9\n      gt\n      tag_24\n      jumpi\n      dup1\n      0xb78376e9\n      eq\n      tag_18\n      jumpi\n      dup1\n      0xc290d691\n      eq\n      tag_19\n      jumpi\n      dup1\n      0xd9fcefdd\n      eq\n      tag_20\n      jumpi\n      dup1\n      0xdd62ed3e\n      eq\n      tag_21\n      jumpi\n      dup1\n      0xf2fde38b\n      eq\n      tag_22\n      jumpi\n      jump(tag_2)\n    tag_24:\n      dup1\n      0x8da5cb5b\n      eq\n      tag_13\n      jumpi\n      dup1\n      0x95d89b41\n      eq\n      tag_14\n      jumpi\n      dup1\n      0xa0712d68\n      eq\n      tag_15\n      jumpi\n      dup1\n      0xa457c2d7\n      eq\n      tag_16\n      jumpi\n      dup1\n      0xa9059cbb\n      eq\n      tag_17\n      jumpi\n      jump(tag_2)\n    tag_23:\n      dup1\n      0x23b872dd\n      gt\n      tag_25\n      jumpi\n      dup1\n      0x23b872dd\n      eq\n      tag_8\n      jumpi\n      dup1\n      0x313ce567\n      eq\n      tag_9\n      jumpi\n      dup1\n      0x39509351\n      eq\n      tag_10\n      jumpi\n      dup1\n      0x70a08231\n      eq\n      tag_11\n      jumpi\n      dup1\n      0x715018a6\n      eq\n      tag_12\n      jumpi\n      jump(tag_2)\n    tag_25:\n      dup1\n      0x048f1627\n      eq\n      tag_3\n      jumpi\n      dup1\n      0x06fdde03\n      eq\n      tag_4\n      jumpi\n      dup1\n      0x095ea7b3\n      eq\n      tag_5\n      jumpi\n      dup1\n      0x1055d708\n      eq\n      tag_6\n      jumpi\n      dup1\n      0x18160ddd\n      eq\n      tag_7\n      jumpi\n    tag_2:\n      0x00\n      dup1\n      revert\n        /* \"contracts/coins/Coin.sol_flattened.sol\":21182:21365  function removePayer(address payer) external onlyOwner {... */\n    tag_3:\n      tag_26\n      0x04\n      dup1\n      calldatasize\n      sub\n      dup2\n      add\n      swap1\n      tag_27\n      swap2\n      swap1\n      tag_28\n      jump\t// in\n    tag_27:\n      tag_29\n      jump\t// in\n    tag_26:\n      stop\n        /* \"contracts/coins/Coin.sol_flattened.sol\":9274:9372  function name() public view virtual override returns (string memory) {... */\n    tag_4:\n      tag_30\n      tag_31\n      jump\t// in\n    tag_30:\n      mload(0x40)\n      tag_32\n      swap2\n      swap1\n      tag_33\n      jump\t// in\n    tag_32:\n      mload(0x40)\n      dup1\n      swap2\n      sub\n      swap1\n      return\n        /* \"contracts/coins/Coin.sol_flattened.sol\":11551:11748  function approve(address spender, uint256 amount) public virtual override returns (bool) {... */\n    tag_5:\n      tag_34\n      0x04\n      dup1\n      calldatasize\n      sub\n      dup2\n      add\n      swap1\n      tag_35\n      swap2\n      swap1\n      tag_36\n      jump\t// in\n    tag_35:\n      tag_37\n      jump\t// in\n    tag_34:\n      mload(0x40)\n      tag_38\n      swap2\n      swap1\n      tag_39\n      jump\t// in\n    tag_38:\n      mload(0x40)\n      dup1\n      swap2\n      sub\n      swap1\n      return\n        /* \"contracts/coins/Coin.sol_flattened.sol\":21427:21520  function getPayers() external view returns (address[] memory) {... */\n    tag_6:\n      tag_40\n      tag_41\n      jump\t// in\n    tag_40:\n      mload(0x40)\n      tag_42\n      swap2\n      swap1\n      tag_43\n      jump\t// in\n    tag_42:\n      mload(0x40)\n      dup1\n      swap2\n      sub\n      swap1\n      return\n        /* \"contracts/coins/Coin.sol_flattened.sol\":10362:10468  function totalSupply() public view virtual override returns (uint256) {... */\n    tag_7:\n      tag_44\n      tag_45\n      jump\t// in\n    tag_44:\n      mload(0x40)\n      tag_46\n      swap2\n      swap1\n      tag_47\n      jump\t// in\n    tag_46:\n      mload(0x40)\n      dup1\n      swap2\n      sub\n      swap1\n      return\n        /* \"contracts/coins/Coin.sol_flattened.sol\":12310:12596  function transferFrom(... */\n    tag_8:\n      tag_48\n      0x04\n      dup1\n      calldatasize\n      sub\n      dup2\n      add\n      swap1\n      tag_49\n      swap2\n      swap1\n      tag_50\n      jump\t// in\n    tag_49:\n      tag_51\n      jump\t// in\n    tag_48:\n      mload(0x40)\n      tag_52\n      swap2\n      swap1\n      tag_39\n      jump\t// in\n    tag_52:\n      mload(0x40)\n      dup1\n      swap2\n      sub\n      swap1\n      return\n        /* \"contracts/coins/Coin.sol_flattened.sol\":10211:10302  function decimals() public view virtual override returns (uint8) {... */\n    tag_9:\n      tag_53\n      tag_54\n      jump\t// in\n    tag_53:\n      mload(0x40)\n      tag_55\n      swap2\n      swap1\n      tag_56\n      jump\t// in\n    tag_55:\n      mload(0x40)\n      dup1\n      swap2\n      sub\n      swap1\n      return\n        /* \"contracts/coins/Coin.sol_flattened.sol\":12991:13225  function increaseAllowance(address spender, uint256 addedValue) public virtual returns (bool) {... */\n    tag_10:\n      tag_57\n      0x04\n      dup1\n      calldatasize\n      sub\n      dup2\n      add\n      swap1\n      tag_58\n      swap2\n      swap1\n      tag_36\n      jump\t// in\n    tag_58:\n      tag_59\n      jump\t// in\n    tag_57:\n      mload(0x40)\n      tag_60\n      swap2\n      swap1\n      tag_39\n      jump\t// in\n    tag_60:\n      mload(0x40)\n      dup1\n      swap2\n      sub\n      swap1\n      return\n        /* \"contracts/coins/Coin.sol_flattened.sol\":10526:10651  function balanceOf(address account) public view virtual override returns (uint256) {... */\n    tag_11:\n      tag_61\n      0x04\n      dup1\n      calldatasize\n      sub\n      dup2\n      add\n      swap1\n      tag_62\n      swap2\n      swap1\n      tag_28\n      jump\t// in\n    tag_62:\n      tag_63\n      jump\t// in\n    tag_61:\n      mload(0x40)\n      tag_64\n      swap2\n      swap1\n      tag_47\n      jump\t// in\n    tag_64:\n      mload(0x40)\n      dup1\n      swap2\n      sub\n      swap1\n      return\n        /* \"contracts/coins/Coin.sol_flattened.sol\":2900:3001  function renounceOwnership() public virtual onlyOwner {... */\n    tag_12:\n      tag_65\n      tag_66\n      jump\t// in\n    tag_65:\n      stop\n        /* \"contracts/coins/Coin.sol_flattened.sol\":2270:2355  function owner() public view virtual returns (address) {... */\n    tag_13:\n      tag_67\n      tag_68\n      jump\t// in\n    tag_67:\n      mload(0x40)\n      tag_69\n      swap2\n      swap1\n      tag_70\n      jump\t// in\n    tag_69:\n      mload(0x40)\n      dup1\n      swap2\n      sub\n      swap1\n      return\n        /* \"contracts/coins/Coin.sol_flattened.sol\":9485:9587  function symbol() public view virtual override returns (string memory) {... */\n    tag_14:\n      tag_71\n      tag_72\n      jump\t// in\n    tag_71:\n      mload(0x40)\n      tag_73\n      swap2\n      swap1\n      tag_33\n      jump\t// in\n    tag_73:\n      mload(0x40)\n      dup1\n      swap2\n      sub\n      swap1\n      return\n        /* \"contracts/coins/Coin.sol_flattened.sol\":20790:20878  function mint(uint256 amount) external onlyOwner {... */\n    tag_15:\n      tag_74\n      0x04\n      dup1\n      calldatasize\n      sub\n      dup2\n      add\n      swap1\n      tag_75\n      swap2\n      swap1\n      tag_76\n      jump\t// in\n    tag_75:\n      tag_77\n      jump\t// in\n    tag_74:\n      stop\n        /* \"contracts/coins/Coin.sol_flattened.sol\":13712:14139  function decreaseAllowance(address spender, uint256 subtractedValue) public virtual returns (bool) {... */\n    tag_16:\n      tag_78\n      0x04\n      dup1\n      calldatasize\n      sub\n      dup2\n      add\n      swap1\n      tag_79\n      swap2\n      swap1\n      tag_36\n      jump\t// in\n    tag_79:\n      tag_80\n      jump\t// in\n    tag_78:\n      mload(0x40)\n      tag_81\n      swap2\n      swap1\n      tag_39\n      jump\t// in\n    tag_81:\n      mload(0x40)\n      dup1\n      swap2\n      sub\n      swap1\n      return\n        /* \"contracts/coins/Coin.sol_flattened.sol\":10847:11036  function transfer(address to, uint256 amount) public virtual override returns (bool) {... */\n    tag_17:\n      tag_82\n      0x04\n      dup1\n      calldatasize\n      sub\n      dup2\n      add\n      swap1\n      tag_83\n      swap2\n      swap1\n      tag_36\n      jump\t// in\n    tag_83:\n      tag_84\n      jump\t// in\n    tag_82:\n      mload(0x40)\n      tag_85\n      swap2\n      swap1\n      tag_39\n      jump\t// in\n    tag_85:\n      mload(0x40)\n      dup1\n      swap2\n      sub\n      swap1\n      return\n        /* \"contracts/coins/Coin.sol_flattened.sol\":21040:21128  function addPayer(address payer) external onlyOwner {... */\n    tag_18:\n      tag_86\n      0x04\n      dup1\n      calldatasize\n      sub\n      dup2\n      add\n      swap1\n      tag_87\n      swap2\n      swap1\n      tag_28\n      jump\t// in\n    tag_87:\n      tag_88\n      jump\t// in\n    tag_86:\n      stop\n        /* \"contracts/coins/Coin.sol_flattened.sol\":20902:20989  function pay(uint256 amount) external onlyPayer {... */\n    tag_19:\n      tag_89\n      0x04\n      dup1\n      calldatasize\n      sub\n      dup2\n      add\n      swap1\n      tag_90\n      swap2\n      swap1\n      tag_76\n      jump\t// in\n    tag_90:\n      tag_91\n      jump\t// in\n    tag_89:\n      stop\n        /* \"contracts/coins/Coin.sol_flattened.sol\":21581:21791  function isPayerExist(address payer) external view returns (bool) {... */\n    tag_20:\n      tag_92\n      0x04\n      dup1\n      calldatasize\n      sub\n      dup2\n      add\n      swap1\n      tag_93\n      swap2\n      swap1\n      tag_28\n      jump\t// in\n    tag_93:\n      tag_94\n      jump\t// in\n    tag_92:\n      mload(0x40)\n      tag_95\n      swap2\n      swap1\n      tag_39\n      jump\t// in\n    tag_95:\n      mload(0x40)\n      dup1\n      swap2\n      sub\n      swap1\n      return\n        /* \"contracts/coins/Coin.sol_flattened.sol\":11094:11243  function allowance(address owner, address spender) public view virtual override returns (uint256) {... */\n    tag_21:\n      tag_96\n      0x04\n      dup1\n      calldatasize\n      sub\n      dup2\n      add\n      swap1\n      tag_97\n      swap2\n      swap1\n      tag_98\n      jump\t// in\n    tag_97:\n      tag_99\n      jump\t// in\n    tag_96:\n      mload(0x40)\n      tag_100\n      swap2\n      swap1\n      tag_47\n      jump\t// in\n    tag_100:\n      mload(0x40)\n      dup1\n      swap2\n      sub\n      swap1\n      return\n        /* \"contracts/coins/Coin.sol_flattened.sol\":3150:3348  function transferOwnership(address newOwner) public virtual onlyOwner {... */\n    tag_22:\n      tag_101\n      0x04\n      dup1\n      calldatasize\n      sub\n      dup2\n      add\n      swap1\n      tag_102\n      swap2\n      swap1\n      tag_28\n      jump\t// in\n    tag_102:\n      tag_103\n      jump\t// in\n    tag_101:\n      stop\n        /* \"contracts/coins/Coin.sol_flattened.sol\":21182:21365  function removePayer(address payer) external onlyOwner {... */\n    tag_29:\n        /* \"contracts/coins/Coin.sol_flattened.sol\":2163:2176  _checkOwner() */\n      tag_105\n        /* \"contracts/coins/Coin.sol_flattened.sol\":2163:2174  _checkOwner */\n      tag_106\n        /* \"contracts/coins/Coin.sol_flattened.sol\":2163:2176  _checkOwner() */\n      jump\t// in\n    tag_105:\n        /* \"contracts/coins/Coin.sol_flattened.sol\":21252:21261  uint256 i */\n      0x00\n        /* \"contracts/coins/Coin.sol_flattened.sol\":21247:21359  for (uint256 i = 0; i < _payers.length; i++) {... */\n    tag_108:\n        /* \"contracts/coins/Coin.sol_flattened.sol\":21271:21278  _payers */\n      0x06\n        /* \"contracts/coins/Coin.sol_flattened.sol\":21271:21285  _payers.length */\n      dup1\n      sload\n      swap1\n      pop\n        /* \"contracts/coins/Coin.sol_flattened.sol\":21267:21268  i */\n      dup2\n        /* \"contracts/coins/Coin.sol_flattened.sol\":21267:21285  i < _payers.length */\n      lt\n        /* \"contracts/coins/Coin.sol_flattened.sol\":21247:21359  for (uint256 i = 0; i < _payers.length; i++) {... */\n      iszero\n      tag_109\n      jumpi\n        /* \"contracts/coins/Coin.sol_flattened.sol\":21319:21326  _payers */\n      0x06\n        /* \"contracts/coins/Coin.sol_flattened.sol\":21327:21328  i */\n      dup2\n        /* \"contracts/coins/Coin.sol_flattened.sol\":21319:21329  _payers[i] */\n      dup2\n      sload\n      dup2\n      lt\n      tag_111\n      jumpi\n      tag_112\n      tag_113\n      jump\t// in\n    tag_112:\n    tag_111:\n      swap1\n      0x00\n      mstore\n      keccak256(0x00, 0x20)\n      add\n      0x00\n      swap1\n      sload\n      swap1\n      0x0100\n      exp\n      swap1\n      div\n      0xffffffffffffffffffffffffffffffffffffffff\n      and\n        /* \"contracts/coins/Coin.sol_flattened.sol\":21310:21329  payer == _payers[i] */\n      0xffffffffffffffffffffffffffffffffffffffff\n      and\n        /* \"contracts/coins/Coin.sol_flattened.sol\":21310:21315  payer */\n      dup3\n        /* \"contracts/coins/Coin.sol_flattened.sol\":21310:21329  payer == _payers[i] */\n      0xffffffffffffffffffffffffffffffffffffffff\n      and\n      sub\n        /* \"contracts/coins/Coin.sol_flattened.sol\":21306:21348  if (payer == _payers[i]) delete _payers[i] */\n      tag_115\n      jumpi\n        /* \"contracts/coins/Coin.sol_flattened.sol\":21338:21345  _payers */\n      0x06\n        /* \"contracts/coins/Coin.sol_flattened.sol\":21346:21347  i */\n      dup2\n        /* \"contracts/coins/Coin.sol_flattened.sol\":21338:21348  _payers[i] */\n      dup2\n      sload\n      dup2\n      lt\n      tag_116\n      jumpi\n      tag_117\n      tag_113\n      jump\t// in\n    tag_117:\n    tag_116:\n      swap1\n      0x00\n      mstore\n      keccak256(0x00, 0x20)\n      add\n      0x00\n        /* \"contracts/coins/Coin.sol_flattened.sol\":21331:21348  delete _payers[i] */\n      0x0100\n      exp\n      dup2\n      sload\n      swap1\n      0xffffffffffffffffffffffffffffffffffffffff\n      mul\n      not\n      and\n      swap1\n      sstore\n        /* \"contracts/coins/Coin.sol_flattened.sol\":21306:21348  if (payer == _payers[i]) delete _payers[i] */\n    tag_115:\n        /* \"contracts/coins/Coin.sol_flattened.sol\":21287:21290  i++ */\n      dup1\n      dup1\n      tag_119\n      swap1\n      tag_120\n      jump\t// in\n    tag_119:\n      swap2\n      pop\n      pop\n        /* \"contracts/coins/Coin.sol_flattened.sol\":21247:21359  for (uint256 i = 0; i < _payers.length; i++) {... */\n      jump(tag_108)\n    tag_109:\n      pop\n        /* \"contracts/coins/Coin.sol_flattened.sol\":21182:21365  function removePayer(address payer) external onlyOwner {... */\n      pop\n      jump\t// out\n        /* \"contracts/coins/Coin.sol_flattened.sol\":9274:9372  function name() public view virtual override returns (string memory) {... */\n    tag_31:\n        /* \"contracts/coins/Coin.sol_flattened.sol\":9328:9341  string memory */\n      0x60\n        /* \"contracts/coins/Coin.sol_flattened.sol\":9360:9365  _name */\n      0x03\n        /* \"contracts/coins/Coin.sol_flattened.sol\":9353:9365  return _name */\n      dup1\n      sload\n      tag_122\n      swap1\n      tag_123\n      jump\t// in\n    tag_122:\n      dup1\n      0x1f\n      add\n      0x20\n      dup1\n      swap2\n      div\n      mul\n      0x20\n      add\n      mload(0x40)\n      swap1\n      dup2\n      add\n      0x40\n      mstore\n      dup1\n      swap3\n      swap2\n      swap1\n      dup2\n      dup2\n      mstore\n      0x20\n      add\n      dup3\n      dup1\n      sload\n      tag_124\n      swap1\n      tag_123\n      jump\t// in\n    tag_124:\n      dup1\n      iszero\n      tag_125\n      jumpi\n      dup1\n      0x1f\n      lt\n      tag_126\n      jumpi\n      0x0100\n      dup1\n      dup4\n      sload\n      div\n      mul\n      dup4\n      mstore\n      swap2\n      0x20\n      add\n      swap2\n      jump(tag_125)\n    tag_126:\n      dup3\n      add\n      swap2\n      swap1\n      0x00\n      mstore\n      keccak256(0x00, 0x20)\n      swap1\n    tag_127:\n      dup2\n      sload\n      dup2\n      mstore\n      swap1\n      0x01\n      add\n      swap1\n      0x20\n      add\n      dup1\n      dup4\n      gt\n      tag_127\n      jumpi\n      dup3\n      swap1\n      sub\n      0x1f\n      and\n      dup3\n      add\n      swap2\n    tag_125:\n      pop\n      pop\n      pop\n      pop\n      pop\n      swap1\n      pop\n        /* \"contracts/coins/Coin.sol_flattened.sol\":9274:9372  function name() public view virtual override returns (string memory) {... */\n      swap1\n      jump\t// out\n        /* \"contracts/coins/Coin.sol_flattened.sol\":11551:11748  function approve(address spender, uint256 amount) public virtual override returns (bool) {... */\n    tag_37:\n        /* \"contracts/coins/Coin.sol_flattened.sol\":11634:11638  bool */\n      0x00\n        /* \"contracts/coins/Coin.sol_flattened.sol\":11650:11663  address owner */\n      dup1\n        /* \"contracts/coins/Coin.sol_flattened.sol\":11666:11678  _msgSender() */\n      tag_129\n        /* \"contracts/coins/Coin.sol_flattened.sol\":11666:11676  _msgSender */\n      tag_130\n        /* \"contracts/coins/Coin.sol_flattened.sol\":11666:11678  _msgSender() */\n      jump\t// in\n    tag_129:\n        /* \"contracts/coins/Coin.sol_flattened.sol\":11650:11678  address owner = _msgSender() */\n      swap1\n      pop\n        /* \"contracts/coins/Coin.sol_flattened.sol\":11688:11720  _approve(owner, spender, amount) */\n      tag_131\n        /* \"contracts/coins/Coin.sol_flattened.sol\":11697:11702  owner */\n      dup2\n        /* \"contracts/coins/Coin.sol_flattened.sol\":11704:11711  spender */\n      dup6\n        /* \"contracts/coins/Coin.sol_flattened.sol\":11713:11719  amount */\n      dup6\n        /* \"contracts/coins/Coin.sol_flattened.sol\":11688:11696  _approve */\n      tag_132\n        /* \"contracts/coins/Coin.sol_flattened.sol\":11688:11720  _approve(owner, spender, amount) */\n      jump\t// in\n    tag_131:\n        /* \"contracts/coins/Coin.sol_flattened.sol\":11737:11741  true */\n      0x01\n        /* \"contracts/coins/Coin.sol_flattened.sol\":11730:11741  return true */\n      swap2\n      pop\n      pop\n        /* \"contracts/coins/Coin.sol_flattened.sol\":11551:11748  function approve(address spender, uint256 amount) public virtual override returns (bool) {... */\n      swap3\n      swap2\n      pop\n      pop\n      jump\t// out\n        /* \"contracts/coins/Coin.sol_flattened.sol\":21427:21520  function getPayers() external view returns (address[] memory) {... */\n    tag_41:\n        /* \"contracts/coins/Coin.sol_flattened.sol\":21471:21487  address[] memory */\n      0x60\n        /* \"contracts/coins/Coin.sol_flattened.sol\":21506:21513  _payers */\n      0x06\n        /* \"contracts/coins/Coin.sol_flattened.sol\":21499:21513  return _payers */\n      dup1\n      sload\n      dup1\n      0x20\n      mul\n      0x20\n      add\n      mload(0x40)\n      swap1\n      dup2\n      add\n      0x40\n      mstore\n      dup1\n      swap3\n      swap2\n      swap1\n      dup2\n      dup2\n      mstore\n      0x20\n      add\n      dup3\n      dup1\n      sload\n      dup1\n      iszero\n      tag_134\n      jumpi\n      0x20\n      mul\n      dup3\n      add\n      swap2\n      swap1\n      0x00\n      mstore\n      keccak256(0x00, 0x20)\n      swap1\n    tag_135:\n      dup2\n      0x00\n      swap1\n      sload\n      swap1\n      0x0100\n      exp\n      swap1\n      div\n      0xffffffffffffffffffffffffffffffffffffffff\n      and\n      0xffffffffffffffffffffffffffffffffffffffff\n      and\n      dup2\n      mstore\n      0x20\n      add\n      swap1\n      0x01\n      add\n      swap1\n      dup1\n      dup4\n      gt\n      tag_135\n      jumpi\n    tag_134:\n      pop\n      pop\n      pop\n      pop\n      pop\n      swap1\n      pop\n        /* \"contracts/coins/Coin.sol_flattened.sol\":21427:21520  function getPayers() external view returns (address[] memory) {... */\n      swap1\n      jump\t// out\n        /* \"contracts/coins/Coin.sol_flattened.sol\":10362:10468  function totalSupply() public view virtual override returns (uint256) {... */\n    tag_45:\n        /* \"contracts/coins/Coin.sol_flattened.sol\":10423:10430  uint256 */\n      0x00\n        /* \"contracts/coins/Coin.sol_flattened.sol\":10449:10461  _totalSupply */\n      sload(0x02)\n        /* \"contracts/coins/Coin.sol_flattened.sol\":10442:10461  return _totalSupply */\n      swap1\n      pop\n        /* \"contracts/coins/Coin.sol_flattened.sol\":10362:10468  function totalSupply() public view virtual override returns (uint256) {... */\n      swap1\n      jump\t// out\n        /* \"contracts/coins/Coin.sol_flattened.sol\":12310:12596  function transferFrom(... */\n    tag_51:\n        /* \"contracts/coins/Coin.sol_flattened.sol\":12437:12441  bool */\n      0x00\n        /* \"contracts/coins/Coin.sol_flattened.sol\":12453:12468  address spender */\n      dup1\n        /* \"contracts/coins/Coin.sol_flattened.sol\":12471:12483  _msgSender() */\n      tag_138\n        /* \"contracts/coins/Coin.sol_flattened.sol\":12471:12481  _msgSender */\n      tag_130\n        /* \"contracts/coins/Coin.sol_flattened.sol\":12471:12483  _msgSender() */\n      jump\t// in\n    tag_138:\n        /* \"contracts/coins/Coin.sol_flattened.sol\":12453:12483  address spender = _msgSender() */\n      swap1\n      pop\n        /* \"contracts/coins/Coin.sol_flattened.sol\":12493:12531  _spendAllowance(from, spender, amount) */\n      tag_139\n        /* \"contracts/coins/Coin.sol_flattened.sol\":12509:12513  from */\n      dup6\n        /* \"contracts/coins/Coin.sol_flattened.sol\":12515:12522  spender */\n      dup3\n        /* \"contracts/coins/Coin.sol_flattened.sol\":12524:12530  amount */\n      dup6\n        /* \"contracts/coins/Coin.sol_flattened.sol\":12493:12508  _spendAllowance */\n      tag_140\n        /* \"contracts/coins/Coin.sol_flattened.sol\":12493:12531  _spendAllowance(from, spender, amount) */\n      jump\t// in\n    tag_139:\n        /* \"contracts/coins/Coin.sol_flattened.sol\":12541:12568  _transfer(from, to, amount) */\n      tag_141\n        /* \"contracts/coins/Coin.sol_flattened.sol\":12551:12555  from */\n      dup6\n        /* \"contracts/coins/Coin.sol_flattened.sol\":12557:12559  to */\n      dup6\n        /* \"contracts/coins/Coin.sol_flattened.sol\":12561:12567  amount */\n      dup6\n        /* \"contracts/coins/Coin.sol_flattened.sol\":12541:12550  _transfer */\n      tag_142\n        /* \"contracts/coins/Coin.sol_flattened.sol\":12541:12568  _transfer(from, to, amount) */\n      jump\t// in\n    tag_141:\n        /* \"contracts/coins/Coin.sol_flattened.sol\":12585:12589  true */\n      0x01\n        /* \"contracts/coins/Coin.sol_flattened.sol\":12578:12589  return true */\n      swap2\n      pop\n      pop\n        /* \"contracts/coins/Coin.sol_flattened.sol\":12310:12596  function transferFrom(... */\n      swap4\n      swap3\n      pop\n      pop\n      pop\n      jump\t// out\n        /* \"contracts/coins/Coin.sol_flattened.sol\":10211:10302  function decimals() public view virtual override returns (uint8) {... */\n    tag_54:\n        /* \"contracts/coins/Coin.sol_flattened.sol\":10269:10274  uint8 */\n      0x00\n        /* \"contracts/coins/Coin.sol_flattened.sol\":10293:10295  18 */\n      0x12\n        /* \"contracts/coins/Coin.sol_flattened.sol\":10286:10295  return 18 */\n      swap1\n      pop\n        /* \"contracts/coins/Coin.sol_flattened.sol\":10211:10302  function decimals() public view virtual override returns (uint8) {... */\n      swap1\n      jump\t// out\n        /* \"contracts/coins/Coin.sol_flattened.sol\":12991:13225  function increaseAllowance(address spender, uint256 addedValue) public virtual returns (bool) {... */\n    tag_59:\n        /* \"contracts/coins/Coin.sol_flattened.sol\":13079:13083  bool */\n      0x00\n        /* \"contracts/coins/Coin.sol_flattened.sol\":13095:13108  address owner */\n      dup1\n        /* \"contracts/coins/Coin.sol_flattened.sol\":13111:13123  _msgSender() */\n      tag_145\n        /* \"contracts/coins/Coin.sol_flattened.sol\":13111:13121  _msgSender */\n      tag_130\n        /* \"contracts/coins/Coin.sol_flattened.sol\":13111:13123  _msgSender() */\n      jump\t// in\n    tag_145:\n        /* \"contracts/coins/Coin.sol_flattened.sol\":13095:13123  address owner = _msgSender() */\n      swap1\n      pop\n        /* \"contracts/coins/Coin.sol_flattened.sol\":13133:13197  _approve(owner, spender, allowance(owner, spender) + addedValue) */\n      tag_146\n        /* \"contracts/coins/Coin.sol_flattened.sol\":13142:13147  owner */\n      dup2\n        /* \"contracts/coins/Coin.sol_flattened.sol\":13149:13156  spender */\n      dup6\n        /* \"contracts/coins/Coin.sol_flattened.sol\":13186:13196  addedValue */\n      dup6\n        /* \"contracts/coins/Coin.sol_flattened.sol\":13158:13183  allowance(owner, spender) */\n      tag_147\n        /* \"contracts/coins/Coin.sol_flattened.sol\":13168:13173  owner */\n      dup6\n        /* \"contracts/coins/Coin.sol_flattened.sol\":13175:13182  spender */\n      dup10\n        /* \"contracts/coins/Coin.sol_flattened.sol\":13158:13167  allowance */\n      tag_99\n        /* \"contracts/coins/Coin.sol_flattened.sol\":13158:13183  allowance(owner, spender) */\n      jump\t// in\n    tag_147:\n        /* \"contracts/coins/Coin.sol_flattened.sol\":13158:13196  allowance(owner, spender) + addedValue */\n      tag_148\n      swap2\n      swap1\n      tag_149\n      jump\t// in\n    tag_148:\n        /* \"contracts/coins/Coin.sol_flattened.sol\":13133:13141  _approve */\n      tag_132\n        /* \"contracts/coins/Coin.sol_flattened.sol\":13133:13197  _approve(owner, spender, allowance(owner, spender) + addedValue) */\n      jump\t// in\n    tag_146:\n        /* \"contracts/coins/Coin.sol_flattened.sol\":13214:13218  true */\n      0x01\n        /* \"contracts/coins/Coin.sol_flattened.sol\":13207:13218  return true */\n      swap2\n      pop\n      pop\n        /* \"contracts/coins/Coin.sol_flattened.sol\":12991:13225  function increaseAllowance(address spender, uint256 addedValue) public virtual returns (bool) {... */\n      swap3\n      swap2\n      pop\n      pop\n      jump\t// out\n        /* \"contracts/coins/Coin.sol_flattened.sol\":10526:10651  function balanceOf(address account) public view virtual override returns (uint256) {... */\n    tag_63:\n        /* \"contracts/coins/Coin.sol_flattened.sol\":10600:10607  uint256 */\n      0x00\n        /* \"contracts/coins/Coin.sol_flattened.sol\":10626:10635  _balances */\n      dup1\n        /* \"contracts/coins/Coin.sol_flattened.sol\":10626:10644  _balances[account] */\n      0x00\n        /* \"contracts/coins/Coin.sol_flattened.sol\":10636:10643  account */\n      dup4\n        /* \"contracts/coins/Coin.sol_flattened.sol\":10626:10644  _balances[account] */\n      0xffffffffffffffffffffffffffffffffffffffff\n      and\n      0xffffffffffffffffffffffffffffffffffffffff\n      and\n      dup2\n      mstore\n      0x20\n      add\n      swap1\n      dup2\n      mstore\n      0x20\n      add\n      0x00\n      keccak256\n      sload\n        /* \"contracts/coins/Coin.sol_flattened.sol\":10619:10644  return _balances[account] */\n      swap1\n      pop\n        /* \"contracts/coins/Coin.sol_flattened.sol\":10526:10651  function balanceOf(address account) public view virtual override returns (uint256) {... */\n      swap2\n      swap1\n      pop\n      jump\t// out\n        /* \"contracts/coins/Coin.sol_flattened.sol\":2900:3001  function renounceOwnership() public virtual onlyOwner {... */\n    tag_66:\n        /* \"contracts/coins/Coin.sol_flattened.sol\":2163:2176  _checkOwner() */\n      tag_152\n        /* \"contracts/coins/Coin.sol_flattened.sol\":2163:2174  _checkOwner */\n      tag_106\n        /* \"contracts/coins/Coin.sol_flattened.sol\":2163:2176  _checkOwner() */\n      jump\t// in\n    tag_152:\n        /* \"contracts/coins/Coin.sol_flattened.sol\":2964:2994  _transferOwnership(address(0)) */\n      tag_154\n        /* \"contracts/coins/Coin.sol_flattened.sol\":2991:2992  0 */\n      0x00\n        /* \"contracts/coins/Coin.sol_flattened.sol\":2964:2982  _transferOwnership */\n      tag_155\n        /* \"contracts/coins/Coin.sol_flattened.sol\":2964:2994  _transferOwnership(address(0)) */\n      jump\t// in\n    tag_154:\n        /* \"contracts/coins/Coin.sol_flattened.sol\":2900:3001  function renounceOwnership() public virtual onlyOwner {... */\n      jump\t// out\n        /* \"contracts/coins/Coin.sol_flattened.sol\":2270:2355  function owner() public view virtual returns (address) {... */\n    tag_68:\n        /* \"contracts/coins/Coin.sol_flattened.sol\":2316:2323  address */\n      0x00\n        /* \"contracts/coins/Coin.sol_flattened.sol\":2342:2348  _owner */\n      0x05\n      0x00\n      swap1\n      sload\n      swap1\n      0x0100\n      exp\n      swap1\n      div\n      0xffffffffffffffffffffffffffffffffffffffff\n      and\n        /* \"contracts/coins/Coin.sol_flattened.sol\":2335:2348  return _owner */\n      swap1\n      pop\n        /* \"contracts/coins/Coin.sol_flattened.sol\":2270:2355  function owner() public view virtual returns (address) {... */\n      swap1\n      jump\t// out\n        /* \"contracts/coins/Coin.sol_flattened.sol\":9485:9587  function symbol() public view virtual override returns (string memory) {... */\n    tag_72:\n        /* \"contracts/coins/Coin.sol_flattened.sol\":9541:9554  string memory */\n      0x60\n        /* \"contracts/coins/Coin.sol_flattened.sol\":9573:9580  _symbol */\n      0x04\n        /* \"contracts/coins/Coin.sol_flattened.sol\":9566:9580  return _symbol */\n      dup1\n      sload\n      tag_158\n      swap1\n      tag_123\n      jump\t// in\n    tag_158:\n      dup1\n      0x1f\n      add\n      0x20\n      dup1\n      swap2\n      div\n      mul\n      0x20\n      add\n      mload(0x40)\n      swap1\n      dup2\n      add\n      0x40\n      mstore\n      dup1\n      swap3\n      swap2\n      swap1\n      dup2\n      dup2\n      mstore\n      0x20\n      add\n      dup3\n      dup1\n      sload\n      tag_159\n      swap1\n      tag_123\n      jump\t// in\n    tag_159:\n      dup1\n      iszero\n      tag_160\n      jumpi\n      dup1\n      0x1f\n      lt\n      tag_161\n      jumpi\n      0x0100\n      dup1\n      dup4\n      sload\n      div\n      mul\n      dup4\n      mstore\n      swap2\n      0x20\n      add\n      swap2\n      jump(tag_160)\n    tag_161:\n      dup3\n      add\n      swap2\n      swap1\n      0x00\n      mstore\n      keccak256(0x00, 0x20)\n      swap1\n    tag_162:\n      dup2\n      sload\n      dup2\n      mstore\n      swap1\n      0x01\n      add\n      swap1\n      0x20\n      add\n      dup1\n      dup4\n      gt\n      tag_162\n      jumpi\n      dup3\n      swap1\n      sub\n      0x1f\n      and\n      dup3\n      add\n      swap2\n    tag_160:\n      pop\n      pop\n      pop\n      pop\n      pop\n      swap1\n      pop\n        /* \"contracts/coins/Coin.sol_flattened.sol\":9485:9587  function symbol() public view virtual override returns (string memory) {... */\n      swap1\n      jump\t// out\n        /* \"contracts/coins/Coin.sol_flattened.sol\":20790:20878  function mint(uint256 amount) external onlyOwner {... */\n    tag_77:\n        /* \"contracts/coins/Coin.sol_flattened.sol\":2163:2176  _checkOwner() */\n      tag_164\n        /* \"contracts/coins/Coin.sol_flattened.sol\":2163:2174  _checkOwner */\n      tag_106\n        /* \"contracts/coins/Coin.sol_flattened.sol\":2163:2176  _checkOwner() */\n      jump\t// in\n    tag_164:\n        /* \"contracts/coins/Coin.sol_flattened.sol\":20849:20871  _mint(owner(), amount) */\n      tag_166\n        /* \"contracts/coins/Coin.sol_flattened.sol\":20855:20862  owner() */\n      tag_167\n        /* \"contracts/coins/Coin.sol_flattened.sol\":20855:20860  owner */\n      tag_68\n        /* \"contracts/coins/Coin.sol_flattened.sol\":20855:20862  owner() */\n      jump\t// in\n    tag_167:\n        /* \"contracts/coins/Coin.sol_flattened.sol\":20864:20870  amount */\n      dup3\n        /* \"contracts/coins/Coin.sol_flattened.sol\":20849:20854  _mint */\n      tag_168\n        /* \"contracts/coins/Coin.sol_flattened.sol\":20849:20871  _mint(owner(), amount) */\n      jump\t// in\n    tag_166:\n        /* \"contracts/coins/Coin.sol_flattened.sol\":20790:20878  function mint(uint256 amount) external onlyOwner {... */\n      pop\n      jump\t// out\n        /* \"contracts/coins/Coin.sol_flattened.sol\":13712:14139  function decreaseAllowance(address spender, uint256 subtractedValue) public virtual returns (bool) {... */\n    tag_80:\n        /* \"contracts/coins/Coin.sol_flattened.sol\":13805:13809  bool */\n      0x00\n        /* \"contracts/coins/Coin.sol_flattened.sol\":13821:13834  address owner */\n      dup1\n        /* \"contracts/coins/Coin.sol_flattened.sol\":13837:13849  _msgSender() */\n      tag_170\n        /* \"contracts/coins/Coin.sol_flattened.sol\":13837:13847  _msgSender */\n      tag_130\n        /* \"contracts/coins/Coin.sol_flattened.sol\":13837:13849  _msgSender() */\n      jump\t// in\n    tag_170:\n        /* \"contracts/coins/Coin.sol_flattened.sol\":13821:13849  address owner = _msgSender() */\n      swap1\n      pop\n        /* \"contracts/coins/Coin.sol_flattened.sol\":13859:13883  uint256 currentAllowance */\n      0x00\n        /* \"contracts/coins/Coin.sol_flattened.sol\":13886:13911  allowance(owner, spender) */\n      tag_171\n        /* \"contracts/coins/Coin.sol_flattened.sol\":13896:13901  owner */\n      dup3\n        /* \"contracts/coins/Coin.sol_flattened.sol\":13903:13910  spender */\n      dup7\n        /* \"contracts/coins/Coin.sol_flattened.sol\":13886:13895  allowance */\n      tag_99\n        /* \"contracts/coins/Coin.sol_flattened.sol\":13886:13911  allowance(owner, spender) */\n      jump\t// in\n    tag_171:\n        /* \"contracts/coins/Coin.sol_flattened.sol\":13859:13911  uint256 currentAllowance = allowance(owner, spender) */\n      swap1\n      pop\n        /* \"contracts/coins/Coin.sol_flattened.sol\":13949:13964  subtractedValue */\n      dup4\n        /* \"contracts/coins/Coin.sol_flattened.sol\":13929:13945  currentAllowance */\n      dup2\n        /* \"contracts/coins/Coin.sol_flattened.sol\":13929:13964  currentAllowance >= subtractedValue */\n      lt\n      iszero\n        /* \"contracts/coins/Coin.sol_flattened.sol\":13921:14006  require(currentAllowance >= subtractedValue, \"ERC20: decreased allowance below zero\") */\n      tag_172\n      jumpi\n      mload(0x40)\n      0x08c379a000000000000000000000000000000000000000000000000000000000\n      dup2\n      mstore\n      0x04\n      add\n      tag_173\n      swap1\n      tag_174\n      jump\t// in\n    tag_173:\n      mload(0x40)\n      dup1\n      swap2\n      sub\n      swap1\n      revert\n    tag_172:\n        /* \"contracts/coins/Coin.sol_flattened.sol\":14040:14100  _approve(owner, spender, currentAllowance - subtractedValue) */\n      tag_175\n        /* \"contracts/coins/Coin.sol_flattened.sol\":14049:14054  owner */\n      dup3\n        /* \"contracts/coins/Coin.sol_flattened.sol\":14056:14063  spender */\n      dup7\n        /* \"contracts/coins/Coin.sol_flattened.sol\":14084:14099  subtractedValue */\n      dup7\n        /* \"contracts/coins/Coin.sol_flattened.sol\":14065:14081  currentAllowance */\n      dup5\n        /* \"contracts/coins/Coin.sol_flattened.sol\":14065:14099  currentAllowance - subtractedValue */\n      sub\n        /* \"contracts/coins/Coin.sol_flattened.sol\":14040:14048  _approve */\n      tag_132\n        /* \"contracts/coins/Coin.sol_flattened.sol\":14040:14100  _approve(owner, spender, currentAllowance - subtractedValue) */\n      jump\t// in\n    tag_175:\n        /* \"contracts/coins/Coin.sol_flattened.sol\":14128:14132  true */\n      0x01\n        /* \"contracts/coins/Coin.sol_flattened.sol\":14121:14132  return true */\n      swap3\n      pop\n      pop\n      pop\n        /* \"contracts/coins/Coin.sol_flattened.sol\":13712:14139  function decreaseAllowance(address spender, uint256 subtractedValue) public virtual returns (bool) {... */\n      swap3\n      swap2\n      pop\n      pop\n      jump\t// out\n        /* \"contracts/coins/Coin.sol_flattened.sol\":10847:11036  function transfer(address to, uint256 amount) public virtual override returns (bool) {... */\n    tag_84:\n        /* \"contracts/coins/Coin.sol_flattened.sol\":10926:10930  bool */\n      0x00\n        /* \"contracts/coins/Coin.sol_flattened.sol\":10942:10955  address owner */\n      dup1\n        /* \"contracts/coins/Coin.sol_flattened.sol\":10958:10970  _msgSender() */\n      tag_177\n        /* \"contracts/coins/Coin.sol_flattened.sol\":10958:10968  _msgSender */\n      tag_130\n        /* \"contracts/coins/Coin.sol_flattened.sol\":10958:10970  _msgSender() */\n      jump\t// in\n    tag_177:\n        /* \"contracts/coins/Coin.sol_flattened.sol\":10942:10970  address owner = _msgSender() */\n      swap1\n      pop\n        /* \"contracts/coins/Coin.sol_flattened.sol\":10980:11008  _transfer(owner, to, amount) */\n      tag_178\n        /* \"contracts/coins/Coin.sol_flattened.sol\":10990:10995  owner */\n      dup2\n        /* \"contracts/coins/Coin.sol_flattened.sol\":10997:10999  to */\n      dup6\n        /* \"contracts/coins/Coin.sol_flattened.sol\":11001:11007  amount */\n      dup6\n        /* \"contracts/coins/Coin.sol_flattened.sol\":10980:10989  _transfer */\n      tag_142\n        /* \"contracts/coins/Coin.sol_flattened.sol\":10980:11008  _transfer(owner, to, amount) */\n      jump\t// in\n    tag_178:\n        /* \"contracts/coins/Coin.sol_flattened.sol\":11025:11029  true */\n      0x01\n        /* \"contracts/coins/Coin.sol_flattened.sol\":11018:11029  return true */\n      swap2\n      pop\n      pop\n        /* \"contracts/coins/Coin.sol_flattened.sol\":10847:11036  function transfer(address to, uint256 amount) public virtual override returns (bool) {... */\n      swap3\n      swap2\n      pop\n      pop\n      jump\t// out\n        /* \"contracts/coins/Coin.sol_flattened.sol\":21040:21128  function addPayer(address payer) external onlyOwner {... */\n    tag_88:\n        /* \"contracts/coins/Coin.sol_flattened.sol\":2163:2176  _checkOwner() */\n      tag_180\n        /* \"contracts/coins/Coin.sol_flattened.sol\":2163:2174  _checkOwner */\n      tag_106\n        /* \"contracts/coins/Coin.sol_flattened.sol\":2163:2176  _checkOwner() */\n      jump\t// in\n    tag_180:\n        /* \"contracts/coins/Coin.sol_flattened.sol\":21102:21109  _payers */\n      0x06\n        /* \"contracts/coins/Coin.sol_flattened.sol\":21115:21120  payer */\n      dup2\n        /* \"contracts/coins/Coin.sol_flattened.sol\":21102:21121  _payers.push(payer) */\n      swap1\n      dup1\n      0x01\n      dup2\n      sload\n      add\n      dup1\n      dup3\n      sstore\n      dup1\n      swap2\n      pop\n      pop\n      0x01\n      swap1\n      sub\n      swap1\n      0x00\n      mstore\n      keccak256(0x00, 0x20)\n      add\n      0x00\n      swap1\n      swap2\n      swap1\n      swap2\n      swap1\n      swap2\n      0x0100\n      exp\n      dup2\n      sload\n      dup2\n      0xffffffffffffffffffffffffffffffffffffffff\n      mul\n      not\n      and\n      swap1\n      dup4\n      0xffffffffffffffffffffffffffffffffffffffff\n      and\n      mul\n      or\n      swap1\n      sstore\n      pop\n        /* \"contracts/coins/Coin.sol_flattened.sol\":21040:21128  function addPayer(address payer) external onlyOwner {... */\n      pop\n      jump\t// out\n        /* \"contracts/coins/Coin.sol_flattened.sol\":20902:20989  function pay(uint256 amount) external onlyPayer {... */\n    tag_91:\n        /* \"contracts/coins/Coin.sol_flattened.sol\":20370:20380  bool found */\n      0x00\n        /* \"contracts/coins/Coin.sol_flattened.sol\":20404:20413  uint256 i */\n      dup1\n        /* \"contracts/coins/Coin.sol_flattened.sol\":20399:20554  for (uint256 i = 0; i < _payers.length; i++)... */\n    tag_184:\n        /* \"contracts/coins/Coin.sol_flattened.sol\":20423:20430  _payers */\n      0x06\n        /* \"contracts/coins/Coin.sol_flattened.sol\":20423:20437  _payers.length */\n      dup1\n      sload\n      swap1\n      pop\n        /* \"contracts/coins/Coin.sol_flattened.sol\":20419:20420  i */\n      dup2\n        /* \"contracts/coins/Coin.sol_flattened.sol\":20419:20437  i < _payers.length */\n      lt\n        /* \"contracts/coins/Coin.sol_flattened.sol\":20399:20554  for (uint256 i = 0; i < _payers.length; i++)... */\n      iszero\n      tag_185\n      jumpi\n        /* \"contracts/coins/Coin.sol_flattened.sol\":20474:20484  msg.sender */\n      caller\n        /* \"contracts/coins/Coin.sol_flattened.sol\":20460:20484  _payers[i] == msg.sender */\n      0xffffffffffffffffffffffffffffffffffffffff\n      and\n        /* \"contracts/coins/Coin.sol_flattened.sol\":20460:20467  _payers */\n      0x06\n        /* \"contracts/coins/Coin.sol_flattened.sol\":20468:20469  i */\n      dup3\n        /* \"contracts/coins/Coin.sol_flattened.sol\":20460:20470  _payers[i] */\n      dup2\n      sload\n      dup2\n      lt\n      tag_187\n      jumpi\n      tag_188\n      tag_113\n      jump\t// in\n    tag_188:\n    tag_187:\n      swap1\n      0x00\n      mstore\n      keccak256(0x00, 0x20)\n      add\n      0x00\n      swap1\n      sload\n      swap1\n      0x0100\n      exp\n      swap1\n      div\n      0xffffffffffffffffffffffffffffffffffffffff\n      and\n        /* \"contracts/coins/Coin.sol_flattened.sol\":20460:20484  _payers[i] == msg.sender */\n      0xffffffffffffffffffffffffffffffffffffffff\n      and\n      sub\n        /* \"contracts/coins/Coin.sol_flattened.sol\":20456:20554  if (_payers[i] == msg.sender) {... */\n      tag_190\n      jumpi\n        /* \"contracts/coins/Coin.sol_flattened.sol\":20512:20516  true */\n      0x01\n        /* \"contracts/coins/Coin.sol_flattened.sol\":20504:20516  found = true */\n      swap2\n      pop\n        /* \"contracts/coins/Coin.sol_flattened.sol\":20534:20539  break */\n      jump(tag_185)\n        /* \"contracts/coins/Coin.sol_flattened.sol\":20456:20554  if (_payers[i] == msg.sender) {... */\n    tag_190:\n        /* \"contracts/coins/Coin.sol_flattened.sol\":20439:20442  i++ */\n      dup1\n      dup1\n      tag_191\n      swap1\n      tag_120\n      jump\t// in\n    tag_191:\n      swap2\n      pop\n      pop\n        /* \"contracts/coins/Coin.sol_flattened.sol\":20399:20554  for (uint256 i = 0; i < _payers.length; i++)... */\n      jump(tag_184)\n    tag_185:\n      pop\n        /* \"contracts/coins/Coin.sol_flattened.sol\":20572:20577  found */\n      dup1\n        /* \"contracts/coins/Coin.sol_flattened.sol\":20564:20609  require(found, \"msg.sender is not the payer\") */\n      tag_192\n      jumpi\n      mload(0x40)\n      0x08c379a000000000000000000000000000000000000000000000000000000000\n      dup2\n      mstore\n      0x04\n      add\n      tag_193\n      swap1\n      tag_194\n      jump\t// in\n    tag_193:\n      mload(0x40)\n      dup1\n      swap2\n      sub\n      swap1\n      revert\n    tag_192:\n        /* \"contracts/coins/Coin.sol_flattened.sol\":20960:20982  _burn(owner(), amount) */\n      tag_196\n        /* \"contracts/coins/Coin.sol_flattened.sol\":20966:20973  owner() */\n      tag_197\n        /* \"contracts/coins/Coin.sol_flattened.sol\":20966:20971  owner */\n      tag_68\n        /* \"contracts/coins/Coin.sol_flattened.sol\":20966:20973  owner() */\n      jump\t// in\n    tag_197:\n        /* \"contracts/coins/Coin.sol_flattened.sol\":20975:20981  amount */\n      dup4\n        /* \"contracts/coins/Coin.sol_flattened.sol\":20960:20965  _burn */\n      tag_198\n        /* \"contracts/coins/Coin.sol_flattened.sol\":20960:20982  _burn(owner(), amount) */\n      jump\t// in\n    tag_196:\n        /* \"contracts/coins/Coin.sol_flattened.sol\":20360:20627  {... */\n      pop\n        /* \"contracts/coins/Coin.sol_flattened.sol\":20902:20989  function pay(uint256 amount) external onlyPayer {... */\n      pop\n      jump\t// out\n        /* \"contracts/coins/Coin.sol_flattened.sol\":21581:21791  function isPayerExist(address payer) external view returns (bool) {... */\n    tag_94:\n        /* \"contracts/coins/Coin.sol_flattened.sol\":21641:21645  bool */\n      0x00\n        /* \"contracts/coins/Coin.sol_flattened.sol\":21662:21671  uint256 i */\n      dup1\n        /* \"contracts/coins/Coin.sol_flattened.sol\":21674:21675  0 */\n      0x00\n        /* \"contracts/coins/Coin.sol_flattened.sol\":21662:21675  uint256 i = 0 */\n      swap1\n      pop\n        /* \"contracts/coins/Coin.sol_flattened.sol\":21657:21763  for (uint256 i = 0; i < _payers.length; i++) {... */\n    tag_200:\n        /* \"contracts/coins/Coin.sol_flattened.sol\":21681:21688  _payers */\n      0x06\n        /* \"contracts/coins/Coin.sol_flattened.sol\":21681:21695  _payers.length */\n      dup1\n      sload\n      swap1\n      pop\n        /* \"contracts/coins/Coin.sol_flattened.sol\":21677:21678  i */\n      dup2\n        /* \"contracts/coins/Coin.sol_flattened.sol\":21677:21695  i < _payers.length */\n      lt\n        /* \"contracts/coins/Coin.sol_flattened.sol\":21657:21763  for (uint256 i = 0; i < _payers.length; i++) {... */\n      iszero\n      tag_201\n      jumpi\n        /* \"contracts/coins/Coin.sol_flattened.sol\":21729:21736  _payers */\n      0x06\n        /* \"contracts/coins/Coin.sol_flattened.sol\":21737:21738  i */\n      dup2\n        /* \"contracts/coins/Coin.sol_flattened.sol\":21729:21739  _payers[i] */\n      dup2\n      sload\n      dup2\n      lt\n      tag_203\n      jumpi\n      tag_204\n      tag_113\n      jump\t// in\n    tag_204:\n    tag_203:\n      swap1\n      0x00\n      mstore\n      keccak256(0x00, 0x20)\n      add\n      0x00\n      swap1\n      sload\n      swap1\n      0x0100\n      exp\n      swap1\n      div\n      0xffffffffffffffffffffffffffffffffffffffff\n      and\n        /* \"contracts/coins/Coin.sol_flattened.sol\":21720:21739  payer == _payers[i] */\n      0xffffffffffffffffffffffffffffffffffffffff\n      and\n        /* \"contracts/coins/Coin.sol_flattened.sol\":21720:21725  payer */\n      dup4\n        /* \"contracts/coins/Coin.sol_flattened.sol\":21720:21739  payer == _payers[i] */\n      0xffffffffffffffffffffffffffffffffffffffff\n      and\n      sub\n        /* \"contracts/coins/Coin.sol_flattened.sol\":21716:21752  if (payer == _payers[i]) return true */\n      tag_206\n      jumpi\n        /* \"contracts/coins/Coin.sol_flattened.sol\":21748:21752  true */\n      0x01\n        /* \"contracts/coins/Coin.sol_flattened.sol\":21741:21752  return true */\n      swap2\n      pop\n      pop\n      jump(tag_199)\n        /* \"contracts/coins/Coin.sol_flattened.sol\":21716:21752  if (payer == _payers[i]) return true */\n    tag_206:\n        /* \"contracts/coins/Coin.sol_flattened.sol\":21697:21700  i++ */\n      dup1\n      dup1\n      tag_207\n      swap1\n      tag_120\n      jump\t// in\n    tag_207:\n      swap2\n      pop\n      pop\n        /* \"contracts/coins/Coin.sol_flattened.sol\":21657:21763  for (uint256 i = 0; i < _payers.length; i++) {... */\n      jump(tag_200)\n    tag_201:\n      pop\n        /* \"contracts/coins/Coin.sol_flattened.sol\":21779:21784  false */\n      0x00\n        /* \"contracts/coins/Coin.sol_flattened.sol\":21772:21784  return false */\n      swap1\n      pop\n        /* \"contracts/coins/Coin.sol_flattened.sol\":21581:21791  function isPayerExist(address payer) external view returns (bool) {... */\n    tag_199:\n      swap2\n      swap1\n      pop\n      jump\t// out\n        /* \"contracts/coins/Coin.sol_flattened.sol\":11094:11243  function allowance(address owner, address spender) public view virtual override returns (uint256) {... */\n    tag_99:\n        /* \"contracts/coins/Coin.sol_flattened.sol\":11183:11190  uint256 */\n      0x00\n        /* \"contracts/coins/Coin.sol_flattened.sol\":11209:11220  _allowances */\n      0x01\n        /* \"contracts/coins/Coin.sol_flattened.sol\":11209:11227  _allowances[owner] */\n      0x00\n        /* \"contracts/coins/Coin.sol_flattened.sol\":11221:11226  owner */\n      dup5\n        /* \"contracts/coins/Coin.sol_flattened.sol\":11209:11227  _allowances[owner] */\n      0xffffffffffffffffffffffffffffffffffffffff\n      and\n      0xffffffffffffffffffffffffffffffffffffffff\n      and\n      dup2\n      mstore\n      0x20\n      add\n      swap1\n      dup2\n      mstore\n      0x20\n      add\n      0x00\n      keccak256\n        /* \"contracts/coins/Coin.sol_flattened.sol\":11209:11236  _allowances[owner][spender] */\n      0x00\n        /* \"contracts/coins/Coin.sol_flattened.sol\":11228:11235  spender */\n      dup4\n        /* \"contracts/coins/Coin.sol_flattened.sol\":11209:11236  _allowances[owner][spender] */\n      0xffffffffffffffffffffffffffffffffffffffff\n      and\n      0xffffffffffffffffffffffffffffffffffffffff\n      and\n      dup2\n      mstore\n      0x20\n      add\n      swap1\n      dup2\n      mstore\n      0x20\n      add\n      0x00\n      keccak256\n      sload\n        /* \"contracts/coins/Coin.sol_flattened.sol\":11202:11236  return _allowances[owner][spender] */\n      swap1\n      pop\n        /* \"contracts/coins/Coin.sol_flattened.sol\":11094:11243  function allowance(address owner, address spender) public view virtual override returns (uint256) {... */\n      swap3\n      swap2\n      pop\n      pop\n      jump\t// out\n        /* \"contracts/coins/Coin.sol_flattened.sol\":3150:3348  function transferOwnership(address newOwner) public virtual onlyOwner {... */\n    tag_103:\n        /* \"contracts/coins/Coin.sol_flattened.sol\":2163:2176  _checkOwner() */\n      tag_210\n        /* \"contracts/coins/Coin.sol_flattened.sol\":2163:2174  _checkOwner */\n      tag_106\n        /* \"contracts/coins/Coin.sol_flattened.sol\":2163:2176  _checkOwner() */\n      jump\t// in\n    tag_210:\n        /* \"contracts/coins/Coin.sol_flattened.sol\":3258:3259  0 */\n      0x00\n        /* \"contracts/coins/Coin.sol_flattened.sol\":3238:3260  newOwner != address(0) */\n      0xffffffffffffffffffffffffffffffffffffffff\n      and\n        /* \"contracts/coins/Coin.sol_flattened.sol\":3238:3246  newOwner */\n      dup2\n        /* \"contracts/coins/Coin.sol_flattened.sol\":3238:3260  newOwner != address(0) */\n      0xffffffffffffffffffffffffffffffffffffffff\n      and\n      sub\n        /* \"contracts/coins/Coin.sol_flattened.sol\":3230:3303  require(newOwner != address(0), \"Ownable: new owner is the zero address\") */\n      tag_212\n      jumpi\n      mload(0x40)\n      0x08c379a000000000000000000000000000000000000000000000000000000000\n      dup2\n      mstore\n      0x04\n      add\n      tag_213\n      swap1\n      tag_214\n      jump\t// in\n    tag_213:\n      mload(0x40)\n      dup1\n      swap2\n      sub\n      swap1\n      revert\n    tag_212:\n        /* \"contracts/coins/Coin.sol_flattened.sol\":3313:3341  _transferOwnership(newOwner) */\n      tag_215\n        /* \"contracts/coins/Coin.sol_flattened.sol\":3332:3340  newOwner */\n      dup2\n        /* \"contracts/coins/Coin.sol_flattened.sol\":3313:3331  _transferOwnership */\n      tag_155\n        /* \"contracts/coins/Coin.sol_flattened.sol\":3313:3341  _transferOwnership(newOwner) */\n      jump\t// in\n    tag_215:\n        /* \"contracts/coins/Coin.sol_flattened.sol\":3150:3348  function transferOwnership(address newOwner) public virtual onlyOwner {... */\n      pop\n      jump\t// out\n        /* \"contracts/coins/Coin.sol_flattened.sol\":2428:2558  function _checkOwner() internal view virtual {... */\n    tag_106:\n        /* \"contracts/coins/Coin.sol_flattened.sol\":2502:2514  _msgSender() */\n      tag_217\n        /* \"contracts/coins/Coin.sol_flattened.sol\":2502:2512  _msgSender */\n      tag_130\n        /* \"contracts/coins/Coin.sol_flattened.sol\":2502:2514  _msgSender() */\n      jump\t// in\n    tag_217:\n        /* \"contracts/coins/Coin.sol_flattened.sol\":2491:2514  owner() == _msgSender() */\n      0xffffffffffffffffffffffffffffffffffffffff\n      and\n        /* \"contracts/coins/Coin.sol_flattened.sol\":2491:2498  owner() */\n      tag_218\n        /* \"contracts/coins/Coin.sol_flattened.sol\":2491:2496  owner */\n      tag_68\n        /* \"contracts/coins/Coin.sol_flattened.sol\":2491:2498  owner() */\n      jump\t// in\n    tag_218:\n        /* \"contracts/coins/Coin.sol_flattened.sol\":2491:2514  owner() == _msgSender() */\n      0xffffffffffffffffffffffffffffffffffffffff\n      and\n      eq\n        /* \"contracts/coins/Coin.sol_flattened.sol\":2483:2551  require(owner() == _msgSender(), \"Ownable: caller is not the owner\") */\n      tag_219\n      jumpi\n      mload(0x40)\n      0x08c379a000000000000000000000000000000000000000000000000000000000\n      dup2\n      mstore\n      0x04\n      add\n      tag_220\n      swap1\n      tag_221\n      jump\t// in\n    tag_220:\n      mload(0x40)\n      dup1\n      swap2\n      sub\n      swap1\n      revert\n    tag_219:\n        /* \"contracts/coins/Coin.sol_flattened.sol\":2428:2558  function _checkOwner() internal view virtual {... */\n      jump\t// out\n        /* \"contracts/coins/Coin.sol_flattened.sol\":873:969  function _msgSender() internal view virtual returns (address) {... */\n    tag_130:\n        /* \"contracts/coins/Coin.sol_flattened.sol\":926:933  address */\n      0x00\n        /* \"contracts/coins/Coin.sol_flattened.sol\":952:962  msg.sender */\n      caller\n        /* \"contracts/coins/Coin.sol_flattened.sol\":945:962  return msg.sender */\n      swap1\n      pop\n        /* \"contracts/coins/Coin.sol_flattened.sol\":873:969  function _msgSender() internal view virtual returns (address) {... */\n      swap1\n      jump\t// out\n        /* \"contracts/coins/Coin.sol_flattened.sol\":17624:17994  function _approve(... */\n    tag_132:\n        /* \"contracts/coins/Coin.sol_flattened.sol\":17772:17773  0 */\n      0x00\n        /* \"contracts/coins/Coin.sol_flattened.sol\":17755:17774  owner != address(0) */\n      0xffffffffffffffffffffffffffffffffffffffff\n      and\n        /* \"contracts/coins/Coin.sol_flattened.sol\":17755:17760  owner */\n      dup4\n        /* \"contracts/coins/Coin.sol_flattened.sol\":17755:17774  owner != address(0) */\n      0xffffffffffffffffffffffffffffffffffffffff\n      and\n      sub\n        /* \"contracts/coins/Coin.sol_flattened.sol\":17747:17815  require(owner != address(0), \"ERC20: approve from the zero address\") */\n      tag_224\n      jumpi\n      mload(0x40)\n      0x08c379a000000000000000000000000000000000000000000000000000000000\n      dup2\n      mstore\n      0x04\n      add\n      tag_225\n      swap1\n      tag_226\n      jump\t// in\n    tag_225:\n      mload(0x40)\n      dup1\n      swap2\n      sub\n      swap1\n      revert\n    tag_224:\n        /* \"contracts/coins/Coin.sol_flattened.sol\":17852:17853  0 */\n      0x00\n        /* \"contracts/coins/Coin.sol_flattened.sol\":17833:17854  spender != address(0) */\n      0xffffffffffffffffffffffffffffffffffffffff\n      and\n        /* \"contracts/coins/Coin.sol_flattened.sol\":17833:17840  spender */\n      dup3\n        /* \"contracts/coins/Coin.sol_flattened.sol\":17833:17854  spender != address(0) */\n      0xffffffffffffffffffffffffffffffffffffffff\n      and\n      sub\n        /* \"contracts/coins/Coin.sol_flattened.sol\":17825:17893  require(spender != address(0), \"ERC20: approve to the zero address\") */\n      tag_227\n      jumpi\n      mload(0x40)\n      0x08c379a000000000000000000000000000000000000000000000000000000000\n      dup2\n      mstore\n      0x04\n      add\n      tag_228\n      swap1\n      tag_229\n      jump\t// in\n    tag_228:\n      mload(0x40)\n      dup1\n      swap2\n      sub\n      swap1\n      revert\n    tag_227:\n        /* \"contracts/coins/Coin.sol_flattened.sol\":17934:17940  amount */\n      dup1\n        /* \"contracts/coins/Coin.sol_flattened.sol\":17904:17915  _allowances */\n      0x01\n        /* \"contracts/coins/Coin.sol_flattened.sol\":17904:17922  _allowances[owner] */\n      0x00\n        /* \"contracts/coins/Coin.sol_flattened.sol\":17916:17921  owner */\n      dup6\n        /* \"contracts/coins/Coin.sol_flattened.sol\":17904:17922  _allowances[owner] */\n      0xffffffffffffffffffffffffffffffffffffffff\n      and\n      0xffffffffffffffffffffffffffffffffffffffff\n      and\n      dup2\n      mstore\n      0x20\n      add\n      swap1\n      dup2\n      mstore\n      0x20\n      add\n      0x00\n      keccak256\n        /* \"contracts/coins/Coin.sol_flattened.sol\":17904:17931  _allowances[owner][spender] */\n      0x00\n        /* \"contracts/coins/Coin.sol_flattened.sol\":17923:17930  spender */\n      dup5\n        /* \"contracts/coins/Coin.sol_flattened.sol\":17904:17931  _allowances[owner][spender] */\n      0xffffffffffffffffffffffffffffffffffffffff\n      and\n      0xffffffffffffffffffffffffffffffffffffffff\n      and\n      dup2\n      mstore\n      0x20\n      add\n      swap1\n      dup2\n      mstore\n      0x20\n      add\n      0x00\n      keccak256\n        /* \"contracts/coins/Coin.sol_flattened.sol\":17904:17940  _allowances[owner][spender] = amount */\n      dup2\n      swap1\n      sstore\n      pop\n        /* \"contracts/coins/Coin.sol_flattened.sol\":17971:17978  spender */\n      dup2\n        /* \"contracts/coins/Coin.sol_flattened.sol\":17955:17987  Approval(owner, spender, amount) */\n      0xffffffffffffffffffffffffffffffffffffffff\n      and\n        /* \"contracts/coins/Coin.sol_flattened.sol\":17964:17969  owner */\n      dup4\n        /* \"contracts/coins/Coin.sol_flattened.sol\":17955:17987  Approval(owner, spender, amount) */\n      0xffffffffffffffffffffffffffffffffffffffff\n      and\n      0x8c5be1e5ebec7d5bd14f71427d1e84f3dd0314c0f7b2291e5b200ac8c7c3b925\n        /* \"contracts/coins/Coin.sol_flattened.sol\":17980:17986  amount */\n      dup4\n        /* \"contracts/coins/Coin.sol_flattened.sol\":17955:17987  Approval(owner, spender, amount) */\n      mload(0x40)\n      tag_230\n      swap2\n      swap1\n      tag_47\n      jump\t// in\n    tag_230:\n      mload(0x40)\n      dup1\n      swap2\n      sub\n      swap1\n      log3\n        /* \"contracts/coins/Coin.sol_flattened.sol\":17624:17994  function _approve(... */\n      pop\n      pop\n      pop\n      jump\t// out\n        /* \"contracts/coins/Coin.sol_flattened.sol\":18275:18716  function _spendAllowance(... */\n    tag_140:\n        /* \"contracts/coins/Coin.sol_flattened.sol\":18405:18429  uint256 currentAllowance */\n      0x00\n        /* \"contracts/coins/Coin.sol_flattened.sol\":18432:18457  allowance(owner, spender) */\n      tag_232\n        /* \"contracts/coins/Coin.sol_flattened.sol\":18442:18447  owner */\n      dup5\n        /* \"contracts/coins/Coin.sol_flattened.sol\":18449:18456  spender */\n      dup5\n        /* \"contracts/coins/Coin.sol_flattened.sol\":18432:18441  allowance */\n      tag_99\n        /* \"contracts/coins/Coin.sol_flattened.sol\":18432:18457  allowance(owner, spender) */\n      jump\t// in\n    tag_232:\n        /* \"contracts/coins/Coin.sol_flattened.sol\":18405:18457  uint256 currentAllowance = allowance(owner, spender) */\n      swap1\n      pop\n        /* \"contracts/coins/Coin.sol_flattened.sol\":18491:18508  type(uint256).max */\n      0xffffffffffffffffffffffffffffffffffffffffffffffffffffffffffffffff\n        /* \"contracts/coins/Coin.sol_flattened.sol\":18471:18487  currentAllowance */\n      dup2\n        /* \"contracts/coins/Coin.sol_flattened.sol\":18471:18508  currentAllowance != type(uint256).max */\n      eq\n        /* \"contracts/coins/Coin.sol_flattened.sol\":18467:18710  if (currentAllowance != type(uint256).max) {... */\n      tag_233\n      jumpi\n        /* \"contracts/coins/Coin.sol_flattened.sol\":18552:18558  amount */\n      dup2\n        /* \"contracts/coins/Coin.sol_flattened.sol\":18532:18548  currentAllowance */\n      dup2\n        /* \"contracts/coins/Coin.sol_flattened.sol\":18532:18558  currentAllowance >= amount */\n      lt\n      iszero\n        /* \"contracts/coins/Coin.sol_flattened.sol\":18524:18592  require(currentAllowance >= amount, \"ERC20: insufficient allowance\") */\n      tag_234\n      jumpi\n      mload(0x40)\n      0x08c379a000000000000000000000000000000000000000000000000000000000\n      dup2\n      mstore\n      0x04\n      add\n      tag_235\n      swap1\n      tag_236\n      jump\t// in\n    tag_235:\n      mload(0x40)\n      dup1\n      swap2\n      sub\n      swap1\n      revert\n    tag_234:\n        /* \"contracts/coins/Coin.sol_flattened.sol\":18634:18685  _approve(owner, spender, currentAllowance - amount) */\n      tag_237\n        /* \"contracts/coins/Coin.sol_flattened.sol\":18643:18648  owner */\n      dup5\n        /* \"contracts/coins/Coin.sol_flattened.sol\":18650:18657  spender */\n      dup5\n        /* \"contracts/coins/Coin.sol_flattened.sol\":18678:18684  amount */\n      dup5\n        /* \"contracts/coins/Coin.sol_flattened.sol\":18659:18675  currentAllowance */\n      dup5\n        /* \"contracts/coins/Coin.sol_flattened.sol\":18659:18684  currentAllowance - amount */\n      sub\n        /* \"contracts/coins/Coin.sol_flattened.sol\":18634:18642  _approve */\n      tag_132\n        /* \"contracts/coins/Coin.sol_flattened.sol\":18634:18685  _approve(owner, spender, currentAllowance - amount) */\n      jump\t// in\n    tag_237:\n        /* \"contracts/coins/Coin.sol_flattened.sol\":18467:18710  if (currentAllowance != type(uint256).max) {... */\n    tag_233:\n        /* \"contracts/coins/Coin.sol_flattened.sol\":18395:18716  {... */\n      pop\n        /* \"contracts/coins/Coin.sol_flattened.sol\":18275:18716  function _spendAllowance(... */\n      pop\n      pop\n      pop\n      jump\t// out\n        /* \"contracts/coins/Coin.sol_flattened.sol\":14593:15411  function _transfer(... */\n    tag_142:\n        /* \"contracts/coins/Coin.sol_flattened.sol\":14735:14736  0 */\n      0x00\n        /* \"contracts/coins/Coin.sol_flattened.sol\":14719:14737  from != address(0) */\n      0xffffffffffffffffffffffffffffffffffffffff\n      and\n        /* \"contracts/coins/Coin.sol_flattened.sol\":14719:14723  from */\n      dup4\n        /* \"contracts/coins/Coin.sol_flattened.sol\":14719:14737  from != address(0) */\n      0xffffffffffffffffffffffffffffffffffffffff\n      and\n      sub\n        /* \"contracts/coins/Coin.sol_flattened.sol\":14711:14779  require(from != address(0), \"ERC20: transfer from the zero address\") */\n      tag_239\n      jumpi\n      mload(0x40)\n      0x08c379a000000000000000000000000000000000000000000000000000000000\n      dup2\n      mstore\n      0x04\n      add\n      tag_240\n      swap1\n      tag_241\n      jump\t// in\n    tag_240:\n      mload(0x40)\n      dup1\n      swap2\n      sub\n      swap1\n      revert\n    tag_239:\n        /* \"contracts/coins/Coin.sol_flattened.sol\":14811:14812  0 */\n      0x00\n        /* \"contracts/coins/Coin.sol_flattened.sol\":14797:14813  to != address(0) */\n      0xffffffffffffffffffffffffffffffffffffffff\n      and\n        /* \"contracts/coins/Coin.sol_flattened.sol\":14797:14799  to */\n      dup3\n        /* \"contracts/coins/Coin.sol_flattened.sol\":14797:14813  to != address(0) */\n      0xffffffffffffffffffffffffffffffffffffffff\n      and\n      sub\n        /* \"contracts/coins/Coin.sol_flattened.sol\":14789:14853  require(to != address(0), \"ERC20: transfer to the zero address\") */\n      tag_242\n      jumpi\n      mload(0x40)\n      0x08c379a000000000000000000000000000000000000000000000000000000000\n      dup2\n      mstore\n      0x04\n      add\n      tag_243\n      swap1\n      tag_244\n      jump\t// in\n    tag_243:\n      mload(0x40)\n      dup1\n      swap2\n      sub\n      swap1\n      revert\n    tag_242:\n        /* \"contracts/coins/Coin.sol_flattened.sol\":14864:14902  _beforeTokenTransfer(from, to, amount) */\n      tag_245\n        /* \"contracts/coins/Coin.sol_flattened.sol\":14885:14889  from */\n      dup4\n        /* \"contracts/coins/Coin.sol_flattened.sol\":14891:14893  to */\n      dup4\n        /* \"contracts/coins/Coin.sol_flattened.sol\":14895:14901  amount */\n      dup4\n        /* \"contracts/coins/Coin.sol_flattened.sol\":14864:14884  _beforeTokenTransfer */\n      tag_246\n        /* \"contracts/coins/Coin.sol_flattened.sol\":14864:14902  _beforeTokenTransfer(from, to, amount) */\n      jump\t// in\n    tag_245:\n        /* \"contracts/coins/Coin.sol_flattened.sol\":14913:14932  uint256 fromBalance */\n      0x00\n        /* \"contracts/coins/Coin.sol_flattened.sol\":14935:14944  _balances */\n      dup1\n        /* \"contracts/coins/Coin.sol_flattened.sol\":14935:14950  _balances[from] */\n      0x00\n        /* \"contracts/coins/Coin.sol_flattened.sol\":14945:14949  from */\n      dup6\n        /* \"contracts/coins/Coin.sol_flattened.sol\":14935:14950  _balances[from] */\n      0xffffffffffffffffffffffffffffffffffffffff\n      and\n      0xffffffffffffffffffffffffffffffffffffffff\n      and\n      dup2\n      mstore\n      0x20\n      add\n      swap1\n      dup2\n      mstore\n      0x20\n      add\n      0x00\n      keccak256\n      sload\n        /* \"contracts/coins/Coin.sol_flattened.sol\":14913:14950  uint256 fromBalance = _balances[from] */\n      swap1\n      pop\n        /* \"contracts/coins/Coin.sol_flattened.sol\":14983:14989  amount */\n      dup2\n        /* \"contracts/coins/Coin.sol_flattened.sol\":14968:14979  fromBalance */\n      dup2\n        /* \"contracts/coins/Coin.sol_flattened.sol\":14968:14989  fromBalance >= amount */\n      lt\n      iszero\n        /* \"contracts/coins/Coin.sol_flattened.sol\":14960:15032  require(fromBalance >= amount, \"ERC20: transfer amount exceeds balance\") */\n      tag_247\n      jumpi\n      mload(0x40)\n      0x08c379a000000000000000000000000000000000000000000000000000000000\n      dup2\n      mstore\n      0x04\n      add\n      tag_248\n      swap1\n      tag_249\n      jump\t// in\n    tag_248:\n      mload(0x40)\n      dup1\n      swap2\n      sub\n      swap1\n      revert\n    tag_247:\n        /* \"contracts/coins/Coin.sol_flattened.sol\":15098:15104  amount */\n      dup2\n        /* \"contracts/coins/Coin.sol_flattened.sol\":15084:15095  fromBalance */\n      dup2\n        /* \"contracts/coins/Coin.sol_flattened.sol\":15084:15104  fromBalance - amount */\n      sub\n        /* \"contracts/coins/Coin.sol_flattened.sol\":15066:15075  _balances */\n      0x00\n        /* \"contracts/coins/Coin.sol_flattened.sol\":15066:15081  _balances[from] */\n      dup1\n        /* \"contracts/coins/Coin.sol_flattened.sol\":15076:15080  from */\n      dup7\n        /* \"contracts/coins/Coin.sol_flattened.sol\":15066:15081  _balances[from] */\n      0xffffffffffffffffffffffffffffffffffffffff\n      and\n      0xffffffffffffffffffffffffffffffffffffffff\n      and\n      dup2\n      mstore\n      0x20\n      add\n      swap1\n      dup2\n      mstore\n      0x20\n      add\n      0x00\n      keccak256\n        /* \"contracts/coins/Coin.sol_flattened.sol\":15066:15104  _balances[from] = fromBalance - amount */\n      dup2\n      swap1\n      sstore\n      pop\n        /* \"contracts/coins/Coin.sol_flattened.sol\":15298:15304  amount */\n      dup2\n        /* \"contracts/coins/Coin.sol_flattened.sol\":15281:15290  _balances */\n      0x00\n        /* \"contracts/coins/Coin.sol_flattened.sol\":15281:15294  _balances[to] */\n      dup1\n        /* \"contracts/coins/Coin.sol_flattened.sol\":15291:15293  to */\n      dup6\n        /* \"contracts/coins/Coin.sol_flattened.sol\":15281:15294  _balances[to] */\n      0xffffffffffffffffffffffffffffffffffffffff\n      and\n      0xffffffffffffffffffffffffffffffffffffffff\n      and\n      dup2\n      mstore\n      0x20\n      add\n      swap1\n      dup2\n      mstore\n      0x20\n      add\n      0x00\n      keccak256\n      0x00\n        /* \"contracts/coins/Coin.sol_flattened.sol\":15281:15304  _balances[to] += amount */\n      dup3\n      dup3\n      sload\n      add\n      swap3\n      pop\n      pop\n      dup2\n      swap1\n      sstore\n      pop\n        /* \"contracts/coins/Coin.sol_flattened.sol\":15345:15347  to */\n      dup3\n        /* \"contracts/coins/Coin.sol_flattened.sol\":15330:15356  Transfer(from, to, amount) */\n      0xffffffffffffffffffffffffffffffffffffffff\n      and\n        /* \"contracts/coins/Coin.sol_flattened.sol\":15339:15343  from */\n      dup5\n        /* \"contracts/coins/Coin.sol_flattened.sol\":15330:15356  Transfer(from, to, amount) */\n      0xffffffffffffffffffffffffffffffffffffffff\n      and\n      0xddf252ad1be2c89b69c2b068fc378daa952ba7f163c4a11628f55a4df523b3ef\n        /* \"contracts/coins/Coin.sol_flattened.sol\":15349:15355  amount */\n      dup5\n        /* \"contracts/coins/Coin.sol_flattened.sol\":15330:15356  Transfer(from, to, amount) */\n      mload(0x40)\n      tag_250\n      swap2\n      swap1\n      tag_47\n      jump\t// in\n    tag_250:\n      mload(0x40)\n      dup1\n      swap2\n      sub\n      swap1\n      log3\n        /* \"contracts/coins/Coin.sol_flattened.sol\":15367:15404  _afterTokenTransfer(from, to, amount) */\n      tag_251\n        /* \"contracts/coins/Coin.sol_flattened.sol\":15387:15391  from */\n      dup5\n        /* \"contracts/coins/Coin.sol_flattened.sol\":15393:15395  to */\n      dup5\n        /* \"contracts/coins/Coin.sol_flattened.sol\":15397:15403  amount */\n      dup5\n        /* \"contracts/coins/Coin.sol_flattened.sol\":15367:15386  _afterTokenTransfer */\n      tag_252\n        /* \"contracts/coins/Coin.sol_flattened.sol\":15367:15404  _afterTokenTransfer(from, to, amount) */\n      jump\t// in\n    tag_251:\n        /* \"contracts/coins/Coin.sol_flattened.sol\":14701:15411  {... */\n      pop\n        /* \"contracts/coins/Coin.sol_flattened.sol\":14593:15411  function _transfer(... */\n      pop\n      pop\n      pop\n      jump\t// out\n        /* \"contracts/coins/Coin.sol_flattened.sol\":3502:3689  function _transferOwnership(address newOwner) internal virtual {... */\n    tag_155:\n        /* \"contracts/coins/Coin.sol_flattened.sol\":3575:3591  address oldOwner */\n      0x00\n        /* \"contracts/coins/Coin.sol_flattened.sol\":3594:3600  _owner */\n      0x05\n      0x00\n      swap1\n      sload\n      swap1\n      0x0100\n      exp\n      swap1\n      div\n      0xffffffffffffffffffffffffffffffffffffffff\n      and\n        /* \"contracts/coins/Coin.sol_flattened.sol\":3575:3600  address oldOwner = _owner */\n      swap1\n      pop\n        /* \"contracts/coins/Coin.sol_flattened.sol\":3619:3627  newOwner */\n      dup2\n        /* \"contracts/coins/Coin.sol_flattened.sol\":3610:3616  _owner */\n      0x05\n      0x00\n        /* \"contracts/coins/Coin.sol_flattened.sol\":3610:3627  _owner = newOwner */\n      0x0100\n      exp\n      dup2\n      sload\n      dup2\n      0xffffffffffffffffffffffffffffffffffffffff\n      mul\n      not\n      and\n      swap1\n      dup4\n      0xffffffffffffffffffffffffffffffffffffffff\n      and\n      mul\n      or\n      swap1\n      sstore\n      pop\n        /* \"contracts/coins/Coin.sol_flattened.sol\":3673:3681  newOwner */\n      dup2\n        /* \"contracts/coins/Coin.sol_flattened.sol\":3642:3682  OwnershipTransferred(oldOwner, newOwner) */\n      0xffffffffffffffffffffffffffffffffffffffff\n      and\n        /* \"contracts/coins/Coin.sol_flattened.sol\":3663:3671  oldOwner */\n      dup2\n        /* \"contracts/coins/Coin.sol_flattened.sol\":3642:3682  OwnershipTransferred(oldOwner, newOwner) */\n      0xffffffffffffffffffffffffffffffffffffffff\n      and\n      0x8be0079c531659141344cd1fd0a4f28419497f9722a3daafe3b4186f6b6457e0\n      mload(0x40)\n      mload(0x40)\n      dup1\n      swap2\n      sub\n      swap1\n      log3\n        /* \"contracts/coins/Coin.sol_flattened.sol\":3565:3689  {... */\n      pop\n        /* \"contracts/coins/Coin.sol_flattened.sol\":3502:3689  function _transferOwnership(address newOwner) internal virtual {... */\n      pop\n      jump\t// out\n        /* \"contracts/coins/Coin.sol_flattened.sol\":15687:16222  function _mint(address account, uint256 amount) internal virtual {... */\n    tag_168:\n        /* \"contracts/coins/Coin.sol_flattened.sol\":15789:15790  0 */\n      0x00\n        /* \"contracts/coins/Coin.sol_flattened.sol\":15770:15791  account != address(0) */\n      0xffffffffffffffffffffffffffffffffffffffff\n      and\n        /* \"contracts/coins/Coin.sol_flattened.sol\":15770:15777  account */\n      dup3\n        /* \"contracts/coins/Coin.sol_flattened.sol\":15770:15791  account != address(0) */\n      0xffffffffffffffffffffffffffffffffffffffff\n      and\n      sub\n        /* \"contracts/coins/Coin.sol_flattened.sol\":15762:15827  require(account != address(0), \"ERC20: mint to the zero address\") */\n      tag_255\n      jumpi\n      mload(0x40)\n      0x08c379a000000000000000000000000000000000000000000000000000000000\n      dup2\n      mstore\n      0x04\n      add\n      tag_256\n      swap1\n      tag_257\n      jump\t// in\n    tag_256:\n      mload(0x40)\n      dup1\n      swap2\n      sub\n      swap1\n      revert\n    tag_255:\n        /* \"contracts/coins/Coin.sol_flattened.sol\":15838:15887  _beforeTokenTransfer(address(0), account, amount) */\n      tag_258\n        /* \"contracts/coins/Coin.sol_flattened.sol\":15867:15868  0 */\n      0x00\n        /* \"contracts/coins/Coin.sol_flattened.sol\":15871:15878  account */\n      dup4\n        /* \"contracts/coins/Coin.sol_flattened.sol\":15880:15886  amount */\n      dup4\n        /* \"contracts/coins/Coin.sol_flattened.sol\":15838:15858  _beforeTokenTransfer */\n      tag_246\n        /* \"contracts/coins/Coin.sol_flattened.sol\":15838:15887  _beforeTokenTransfer(address(0), account, amount) */\n      jump\t// in\n    tag_258:\n        /* \"contracts/coins/Coin.sol_flattened.sol\":15914:15920  amount */\n      dup1\n        /* \"contracts/coins/Coin.sol_flattened.sol\":15898:15910  _totalSupply */\n      0x02\n      0x00\n        /* \"contracts/coins/Coin.sol_flattened.sol\":15898:15920  _totalSupply += amount */\n      dup3\n      dup3\n      sload\n      tag_259\n      swap2\n      swap1\n      tag_149\n      jump\t// in\n    tag_259:\n      swap3\n      pop\n      pop\n      dup2\n      swap1\n      sstore\n      pop\n        /* \"contracts/coins/Coin.sol_flattened.sol\":16088:16094  amount */\n      dup1\n        /* \"contracts/coins/Coin.sol_flattened.sol\":16066:16075  _balances */\n      0x00\n        /* \"contracts/coins/Coin.sol_flattened.sol\":16066:16084  _balances[account] */\n      dup1\n        /* \"contracts/coins/Coin.sol_flattened.sol\":16076:16083  account */\n      dup5\n        /* \"contracts/coins/Coin.sol_flattened.sol\":16066:16084  _balances[account] */\n      0xffffffffffffffffffffffffffffffffffffffff\n      and\n      0xffffffffffffffffffffffffffffffffffffffff\n      and\n      dup2\n      mstore\n      0x20\n      add\n      swap1\n      dup2\n      mstore\n      0x20\n      add\n      0x00\n      keccak256\n      0x00\n        /* \"contracts/coins/Coin.sol_flattened.sol\":16066:16094  _balances[account] += amount */\n      dup3\n      dup3\n      sload\n      add\n      swap3\n      pop\n      pop\n      dup2\n      swap1\n      sstore\n      pop\n        /* \"contracts/coins/Coin.sol_flattened.sol\":16140:16147  account */\n      dup2\n        /* \"contracts/coins/Coin.sol_flattened.sol\":16119:16156  Transfer(address(0), account, amount) */\n      0xffffffffffffffffffffffffffffffffffffffff\n      and\n        /* \"contracts/coins/Coin.sol_flattened.sol\":16136:16137  0 */\n      0x00\n        /* \"contracts/coins/Coin.sol_flattened.sol\":16119:16156  Transfer(address(0), account, amount) */\n      0xffffffffffffffffffffffffffffffffffffffff\n      and\n      0xddf252ad1be2c89b69c2b068fc378daa952ba7f163c4a11628f55a4df523b3ef\n        /* \"contracts/coins/Coin.sol_flattened.sol\":16149:16155  amount */\n      dup4\n        /* \"contracts/coins/Coin.sol_flattened.sol\":16119:16156  Transfer(address(0), account, amount) */\n      mload(0x40)\n      tag_260\n      swap2\n      swap1\n      tag_47\n      jump\t// in\n    tag_260:\n      mload(0x40)\n      dup1\n      swap2\n      sub\n      swap1\n      log3\n        /* \"contracts/coins/Coin.sol_flattened.sol\":16167:16215  _afterTokenTransfer(address(0), account, amount) */\n      tag_261\n        /* \"contracts/coins/Coin.sol_flattened.sol\":16195:16196  0 */\n      0x00\n        /* \"contracts/coins/Coin.sol_flattened.sol\":16199:16206  account */\n      dup4\n        /* \"contracts/coins/Coin.sol_flattened.sol\":16208:16214  amount */\n      dup4\n        /* \"contracts/coins/Coin.sol_flattened.sol\":16167:16186  _afterTokenTransfer */\n      tag_252\n        /* \"contracts/coins/Coin.sol_flattened.sol\":16167:16215  _afterTokenTransfer(address(0), account, amount) */\n      jump\t// in\n    tag_261:\n        /* \"contracts/coins/Coin.sol_flattened.sol\":15687:16222  function _mint(address account, uint256 amount) internal virtual {... */\n      pop\n      pop\n      jump\t// out\n        /* \"contracts/coins/Coin.sol_flattened.sol\":16542:17201  function _burn(address account, uint256 amount) internal virtual {... */\n    tag_198:\n        /* \"contracts/coins/Coin.sol_flattened.sol\":16644:16645  0 */\n      0x00\n        /* \"contracts/coins/Coin.sol_flattened.sol\":16625:16646  account != address(0) */\n      0xffffffffffffffffffffffffffffffffffffffff\n      and\n        /* \"contracts/coins/Coin.sol_flattened.sol\":16625:16632  account */\n      dup3\n        /* \"contracts/coins/Coin.sol_flattened.sol\":16625:16646  account != address(0) */\n      0xffffffffffffffffffffffffffffffffffffffff\n      and\n      sub\n        /* \"contracts/coins/Coin.sol_flattened.sol\":16617:16684  require(account != address(0), \"ERC20: burn from the zero address\") */\n      tag_263\n      jumpi\n      mload(0x40)\n      0x08c379a000000000000000000000000000000000000000000000000000000000\n      dup2\n      mstore\n      0x04\n      add\n      tag_264\n      swap1\n      tag_265\n      jump\t// in\n    tag_264:\n      mload(0x40)\n      dup1\n      swap2\n      sub\n      swap1\n      revert\n    tag_263:\n        /* \"contracts/coins/Coin.sol_flattened.sol\":16695:16744  _beforeTokenTransfer(account, address(0), amount) */\n      tag_266\n        /* \"contracts/coins/Coin.sol_flattened.sol\":16716:16723  account */\n      dup3\n        /* \"contracts/coins/Coin.sol_flattened.sol\":16733:16734  0 */\n      0x00\n        /* \"contracts/coins/Coin.sol_flattened.sol\":16737:16743  amount */\n      dup4\n        /* \"contracts/coins/Coin.sol_flattened.sol\":16695:16715  _beforeTokenTransfer */\n      tag_246\n        /* \"contracts/coins/Coin.sol_flattened.sol\":16695:16744  _beforeTokenTransfer(account, address(0), amount) */\n      jump\t// in\n    tag_266:\n        /* \"contracts/coins/Coin.sol_flattened.sol\":16755:16777  uint256 accountBalance */\n      0x00\n        /* \"contracts/coins/Coin.sol_flattened.sol\":16780:16789  _balances */\n      dup1\n        /* \"contracts/coins/Coin.sol_flattened.sol\":16780:16798  _balances[account] */\n      0x00\n        /* \"contracts/coins/Coin.sol_flattened.sol\":16790:16797  account */\n      dup5\n        /* \"contracts/coins/Coin.sol_flattened.sol\":16780:16798  _balances[account] */\n      0xffffffffffffffffffffffffffffffffffffffff\n      and\n      0xffffffffffffffffffffffffffffffffffffffff\n      and\n      dup2\n      mstore\n      0x20\n      add\n      swap1\n      dup2\n      mstore\n      0x20\n      add\n      0x00\n      keccak256\n      sload\n        /* \"contracts/coins/Coin.sol_flattened.sol\":16755:16798  uint256 accountBalance = _balances[account] */\n      swap1\n      pop\n        /* \"contracts/coins/Coin.sol_flattened.sol\":16834:16840  amount */\n      dup2\n        /* \"contracts/coins/Coin.sol_flattened.sol\":16816:16830  accountBalance */\n      dup2\n        /* \"contracts/coins/Coin.sol_flattened.sol\":16816:16840  accountBalance >= amount */\n      lt\n      iszero\n        /* \"contracts/coins/Coin.sol_flattened.sol\":16808:16879  require(accountBalance >= amount, \"ERC20: burn amount exceeds balance\") */\n      tag_267\n      jumpi\n      mload(0x40)\n      0x08c379a000000000000000000000000000000000000000000000000000000000\n      dup2\n      mstore\n      0x04\n      add\n      tag_268\n      swap1\n      tag_269\n      jump\t// in\n    tag_268:\n      mload(0x40)\n      dup1\n      swap2\n      sub\n      swap1\n      revert\n    tag_267:\n        /* \"contracts/coins/Coin.sol_flattened.sol\":16951:16957  amount */\n      dup2\n        /* \"contracts/coins/Coin.sol_flattened.sol\":16934:16948  accountBalance */\n      dup2\n        /* \"contracts/coins/Coin.sol_flattened.sol\":16934:16957  accountBalance - amount */\n      sub\n        /* \"contracts/coins/Coin.sol_flattened.sol\":16913:16922  _balances */\n      0x00\n        /* \"contracts/coins/Coin.sol_flattened.sol\":16913:16931  _balances[account] */\n      dup1\n        /* \"contracts/coins/Coin.sol_flattened.sol\":16923:16930  account */\n      dup6\n        /* \"contracts/coins/Coin.sol_flattened.sol\":16913:16931  _balances[account] */\n      0xffffffffffffffffffffffffffffffffffffffff\n      and\n      0xffffffffffffffffffffffffffffffffffffffff\n      and\n      dup2\n      mstore\n      0x20\n      add\n      swap1\n      dup2\n      mstore\n      0x20\n      add\n      0x00\n      keccak256\n        /* \"contracts/coins/Coin.sol_flattened.sol\":16913:16957  _balances[account] = accountBalance - amount */\n      dup2\n      swap1\n      sstore\n      pop\n        /* \"contracts/coins/Coin.sol_flattened.sol\":17066:17072  amount */\n      dup2\n        /* \"contracts/coins/Coin.sol_flattened.sol\":17050:17062  _totalSupply */\n      0x02\n      0x00\n        /* \"contracts/coins/Coin.sol_flattened.sol\":17050:17072  _totalSupply -= amount */\n      dup3\n      dup3\n      sload\n      sub\n      swap3\n      pop\n      pop\n      dup2\n      swap1\n      sstore\n      pop\n        /* \"contracts/coins/Coin.sol_flattened.sol\":17124:17125  0 */\n      0x00\n        /* \"contracts/coins/Coin.sol_flattened.sol\":17098:17135  Transfer(account, address(0), amount) */\n      0xffffffffffffffffffffffffffffffffffffffff\n      and\n        /* \"contracts/coins/Coin.sol_flattened.sol\":17107:17114  account */\n      dup4\n        /* \"contracts/coins/Coin.sol_flattened.sol\":17098:17135  Transfer(account, address(0), amount) */\n      0xffffffffffffffffffffffffffffffffffffffff\n      and\n      0xddf252ad1be2c89b69c2b068fc378daa952ba7f163c4a11628f55a4df523b3ef\n        /* \"contracts/coins/Coin.sol_flattened.sol\":17128:17134  amount */\n      dup5\n        /* \"contracts/coins/Coin.sol_flattened.sol\":17098:17135  Transfer(account, address(0), amount) */\n      mload(0x40)\n      tag_270\n      swap2\n      swap1\n      tag_47\n      jump\t// in\n    tag_270:\n      mload(0x40)\n      dup1\n      swap2\n      sub\n      swap1\n      log3\n        /* \"contracts/coins/Coin.sol_flattened.sol\":17146:17194  _afterTokenTransfer(account, address(0), amount) */\n      tag_271\n        /* \"contracts/coins/Coin.sol_flattened.sol\":17166:17173  account */\n      dup4\n        /* \"contracts/coins/Coin.sol_flattened.sol\":17183:17184  0 */\n      0x00\n        /* \"contracts/coins/Coin.sol_flattened.sol\":17187:17193  amount */\n      dup5\n        /* \"contracts/coins/Coin.sol_flattened.sol\":17146:17165  _afterTokenTransfer */\n      tag_252\n        /* \"contracts/coins/Coin.sol_flattened.sol\":17146:17194  _afterTokenTransfer(account, address(0), amount) */\n      jump\t// in\n    tag_271:\n        /* \"contracts/coins/Coin.sol_flattened.sol\":16607:17201  {... */\n      pop\n        /* \"contracts/coins/Coin.sol_flattened.sol\":16542:17201  function _burn(address account, uint256 amount) internal virtual {... */\n      pop\n      pop\n      jump\t// out\n        /* \"contracts/coins/Coin.sol_flattened.sol\":19300:19421  function _beforeTokenTransfer(... */\n    tag_246:\n      pop\n      pop\n      pop\n      jump\t// out\n        /* \"contracts/coins/Coin.sol_flattened.sol\":20009:20129  function _afterTokenTransfer(... */\n    tag_252:\n      pop\n      pop\n      pop\n      jump\t// out\n        /* \"#utility.yul\":88:205   */\n    tag_275:\n        /* \"#utility.yul\":197:198   */\n      0x00\n        /* \"#utility.yul\":194:195   */\n      dup1\n        /* \"#utility.yul\":187:199   */\n      revert\n        /* \"#utility.yul\":334:460   */\n    tag_277:\n        /* \"#utility.yul\":371:378   */\n      0x00\n        /* \"#utility.yul\":411:453   */\n      0xffffffffffffffffffffffffffffffffffffffff\n        /* \"#utility.yul\":404:409   */\n      dup3\n        /* \"#utility.yul\":400:454   */\n      and\n        /* \"#utility.yul\":389:454   */\n      swap1\n      pop\n        /* \"#utility.yul\":334:460   */\n      swap2\n      swap1\n      pop\n      jump\t// out\n        /* \"#utility.yul\":466:562   */\n    tag_278:\n        /* \"#utility.yul\":503:510   */\n      0x00\n        /* \"#utility.yul\":532:556   */\n      tag_336\n        /* \"#utility.yul\":550:555   */\n      dup3\n        /* \"#utility.yul\":532:556   */\n      tag_277\n      jump\t// in\n    tag_336:\n        /* \"#utility.yul\":521:556   */\n      swap1\n      pop\n        /* \"#utility.yul\":466:562   */\n      swap2\n      swap1\n      pop\n      jump\t// out\n        /* \"#utility.yul\":568:690   */\n    tag_279:\n        /* \"#utility.yul\":641:665   */\n      tag_338\n        /* \"#utility.yul\":659:664   */\n      dup2\n        /* \"#utility.yul\":641:665   */\n      tag_278\n      jump\t// in\n    tag_338:\n        /* \"#utility.yul\":634:639   */\n      dup2\n        /* \"#utility.yul\":631:666   */\n      eq\n        /* \"#utility.yul\":621:684   */\n      tag_339\n      jumpi\n        /* \"#utility.yul\":680:681   */\n      0x00\n        /* \"#utility.yul\":677:678   */\n      dup1\n        /* \"#utility.yul\":670:682   */\n      revert\n        /* \"#utility.yul\":621:684   */\n    tag_339:\n        /* \"#utility.yul\":568:690   */\n      pop\n      jump\t// out\n        /* \"#utility.yul\":696:835   */\n    tag_280:\n        /* \"#utility.yul\":742:747   */\n      0x00\n        /* \"#utility.yul\":780:786   */\n      dup2\n        /* \"#utility.yul\":767:787   */\n      calldataload\n        /* \"#utility.yul\":758:787   */\n      swap1\n      pop\n        /* \"#utility.yul\":796:829   */\n      tag_341\n        /* \"#utility.yul\":823:828   */\n      dup2\n        /* \"#utility.yul\":796:829   */\n      tag_279\n      jump\t// in\n    tag_341:\n        /* \"#utility.yul\":696:835   */\n      swap3\n      swap2\n      pop\n      pop\n      jump\t// out\n        /* \"#utility.yul\":841:1170   */\n    tag_28:\n        /* \"#utility.yul\":900:906   */\n      0x00\n        /* \"#utility.yul\":949:951   */\n      0x20\n        /* \"#utility.yul\":937:946   */\n      dup3\n        /* \"#utility.yul\":928:935   */\n      dup5\n        /* \"#utility.yul\":924:947   */\n      sub\n        /* \"#utility.yul\":920:952   */\n      slt\n        /* \"#utility.yul\":917:1036   */\n      iszero\n      tag_343\n      jumpi\n        /* \"#utility.yul\":955:1034   */\n      tag_344\n      tag_275\n      jump\t// in\n    tag_344:\n        /* \"#utility.yul\":917:1036   */\n    tag_343:\n        /* \"#utility.yul\":1075:1076   */\n      0x00\n        /* \"#utility.yul\":1100:1153   */\n      tag_345\n        /* \"#utility.yul\":1145:1152   */\n      dup5\n        /* \"#utility.yul\":1136:1142   */\n      dup3\n        /* \"#utility.yul\":1125:1134   */\n      dup6\n        /* \"#utility.yul\":1121:1143   */\n      add\n        /* \"#utility.yul\":1100:1153   */\n      tag_280\n      jump\t// in\n    tag_345:\n        /* \"#utility.yul\":1090:1153   */\n      swap2\n      pop\n        /* \"#utility.yul\":1046:1163   */\n      pop\n        /* \"#utility.yul\":841:1170   */\n      swap3\n      swap2\n      pop\n      pop\n      jump\t// out\n        /* \"#utility.yul\":1176:1275   */\n    tag_281:\n        /* \"#utility.yul\":1228:1234   */\n      0x00\n        /* \"#utility.yul\":1262:1267   */\n      dup2\n        /* \"#utility.yul\":1256:1268   */\n      mload\n        /* \"#utility.yul\":1246:1268   */\n      swap1\n      pop\n        /* \"#utility.yul\":1176:1275   */\n      swap2\n      swap1\n      pop\n      jump\t// out\n        /* \"#utility.yul\":1281:1450   */\n    tag_282:\n        /* \"#utility.yul\":1365:1376   */\n      0x00\n        /* \"#utility.yul\":1399:1405   */\n      dup3\n        /* \"#utility.yul\":1394:1397   */\n      dup3\n        /* \"#utility.yul\":1387:1406   */\n      mstore\n        /* \"#utility.yul\":1439:1443   */\n      0x20\n        /* \"#utility.yul\":1434:1437   */\n      dup3\n        /* \"#utility.yul\":1430:1444   */\n      add\n        /* \"#utility.yul\":1415:1444   */\n      swap1\n      pop\n        /* \"#utility.yul\":1281:1450   */\n      swap3\n      swap2\n      pop\n      pop\n      jump\t// out\n        /* \"#utility.yul\":1456:1702   */\n    tag_283:\n        /* \"#utility.yul\":1537:1538   */\n      0x00\n        /* \"#utility.yul\":1547:1660   */\n    tag_349:\n        /* \"#utility.yul\":1561:1567   */\n      dup4\n        /* \"#utility.yul\":1558:1559   */\n      dup2\n        /* \"#utility.yul\":1555:1568   */\n      lt\n        /* \"#utility.yul\":1547:1660   */\n      iszero\n      tag_351\n      jumpi\n        /* \"#utility.yul\":1646:1647   */\n      dup1\n        /* \"#utility.yul\":1641:1644   */\n      dup3\n        /* \"#utility.yul\":1637:1648   */\n      add\n        /* \"#utility.yul\":1631:1649   */\n      mload\n        /* \"#utility.yul\":1627:1628   */\n      dup2\n        /* \"#utility.yul\":1622:1625   */\n      dup5\n        /* \"#utility.yul\":1618:1629   */\n      add\n        /* \"#utility.yul\":1611:1650   */\n      mstore\n        /* \"#utility.yul\":1583:1585   */\n      0x20\n        /* \"#utility.yul\":1580:1581   */\n      dup2\n        /* \"#utility.yul\":1576:1586   */\n      add\n        /* \"#utility.yul\":1571:1586   */\n      swap1\n      pop\n        /* \"#utility.yul\":1547:1660   */\n      jump(tag_349)\n    tag_351:\n        /* \"#utility.yul\":1694:1695   */\n      0x00\n        /* \"#utility.yul\":1685:1691   */\n      dup5\n        /* \"#utility.yul\":1680:1683   */\n      dup5\n        /* \"#utility.yul\":1676:1692   */\n      add\n        /* \"#utility.yul\":1669:1696   */\n      mstore\n        /* \"#utility.yul\":1518:1702   */\n      pop\n        /* \"#utility.yul\":1456:1702   */\n      pop\n      pop\n      pop\n      jump\t// out\n        /* \"#utility.yul\":1708:1810   */\n    tag_284:\n        /* \"#utility.yul\":1749:1755   */\n      0x00\n        /* \"#utility.yul\":1800:1802   */\n      0x1f\n        /* \"#utility.yul\":1796:1803   */\n      not\n        /* \"#utility.yul\":1791:1793   */\n      0x1f\n        /* \"#utility.yul\":1784:1789   */\n      dup4\n        /* \"#utility.yul\":1780:1794   */\n      add\n        /* \"#utility.yul\":1776:1804   */\n      and\n        /* \"#utility.yul\":1766:1804   */\n      swap1\n      pop\n        /* \"#utility.yul\":1708:1810   */\n      swap2\n      swap1\n      pop\n      jump\t// out\n        /* \"#utility.yul\":1816:2193   */\n    tag_285:\n        /* \"#utility.yul\":1904:1907   */\n      0x00\n        /* \"#utility.yul\":1932:1971   */\n      tag_354\n        /* \"#utility.yul\":1965:1970   */\n      dup3\n        /* \"#utility.yul\":1932:1971   */\n      tag_281\n      jump\t// in\n    tag_354:\n        /* \"#utility.yul\":1987:2058   */\n      tag_355\n        /* \"#utility.yul\":2051:2057   */\n      dup2\n        /* \"#utility.yul\":2046:2049   */\n      dup6\n        /* \"#utility.yul\":1987:2058   */\n      tag_282\n      jump\t// in\n    tag_355:\n        /* \"#utility.yul\":1980:2058   */\n      swap4\n      pop\n        /* \"#utility.yul\":2067:2132   */\n      tag_356\n        /* \"#utility.yul\":2125:2131   */\n      dup2\n        /* \"#utility.yul\":2120:2123   */\n      dup6\n        /* \"#utility.yul\":2113:2117   */\n      0x20\n        /* \"#utility.yul\":2106:2111   */\n      dup7\n        /* \"#utility.yul\":2102:2118   */\n      add\n        /* \"#utility.yul\":2067:2132   */\n      tag_283\n      jump\t// in\n    tag_356:\n        /* \"#utility.yul\":2157:2186   */\n      tag_357\n        /* \"#utility.yul\":2179:2185   */\n      dup2\n        /* \"#utility.yul\":2157:2186   */\n      tag_284\n      jump\t// in\n    tag_357:\n        /* \"#utility.yul\":2152:2155   */\n      dup5\n        /* \"#utility.yul\":2148:2187   */\n      add\n        /* \"#utility.yul\":2141:2187   */\n      swap2\n      pop\n        /* \"#utility.yul\":1908:2193   */\n      pop\n        /* \"#utility.yul\":1816:2193   */\n      swap3\n      swap2\n      pop\n      pop\n      jump\t// out\n        /* \"#utility.yul\":2199:2512   */\n    tag_33:\n        /* \"#utility.yul\":2312:2316   */\n      0x00\n        /* \"#utility.yul\":2350:2352   */\n      0x20\n        /* \"#utility.yul\":2339:2348   */\n      dup3\n        /* \"#utility.yul\":2335:2353   */\n      add\n        /* \"#utility.yul\":2327:2353   */\n      swap1\n      pop\n        /* \"#utility.yul\":2399:2408   */\n      dup2\n        /* \"#utility.yul\":2393:2397   */\n      dup2\n        /* \"#utility.yul\":2389:2409   */\n      sub\n        /* \"#utility.yul\":2385:2386   */\n      0x00\n        /* \"#utility.yul\":2374:2383   */\n      dup4\n        /* \"#utility.yul\":2370:2387   */\n      add\n        /* \"#utility.yul\":2363:2410   */\n      mstore\n        /* \"#utility.yul\":2427:2505   */\n      tag_359\n        /* \"#utility.yul\":2500:2504   */\n      dup2\n        /* \"#utility.yul\":2491:2497   */\n      dup5\n        /* \"#utility.yul\":2427:2505   */\n      tag_285\n      jump\t// in\n    tag_359:\n        /* \"#utility.yul\":2419:2505   */\n      swap1\n      pop\n        /* \"#utility.yul\":2199:2512   */\n      swap3\n      swap2\n      pop\n      pop\n      jump\t// out\n        /* \"#utility.yul\":2518:2595   */\n    tag_286:\n        /* \"#utility.yul\":2555:2562   */\n      0x00\n        /* \"#utility.yul\":2584:2589   */\n      dup2\n        /* \"#utility.yul\":2573:2589   */\n      swap1\n      pop\n        /* \"#utility.yul\":2518:2595   */\n      swap2\n      swap1\n      pop\n      jump\t// out\n        /* \"#utility.yul\":2601:2723   */\n    tag_287:\n        /* \"#utility.yul\":2674:2698   */\n      tag_362\n        /* \"#utility.yul\":2692:2697   */\n      dup2\n        /* \"#utility.yul\":2674:2698   */\n      tag_286\n      jump\t// in\n    tag_362:\n        /* \"#utility.yul\":2667:2672   */\n      dup2\n        /* \"#utility.yul\":2664:2699   */\n      eq\n        /* \"#utility.yul\":2654:2717   */\n      tag_363\n      jumpi\n        /* \"#utility.yul\":2713:2714   */\n      0x00\n        /* \"#utility.yul\":2710:2711   */\n      dup1\n        /* \"#utility.yul\":2703:2715   */\n      revert\n        /* \"#utility.yul\":2654:2717   */\n    tag_363:\n        /* \"#utility.yul\":2601:2723   */\n      pop\n      jump\t// out\n        /* \"#utility.yul\":2729:2868   */\n    tag_288:\n        /* \"#utility.yul\":2775:2780   */\n      0x00\n        /* \"#utility.yul\":2813:2819   */\n      dup2\n        /* \"#utility.yul\":2800:2820   */\n      calldataload\n        /* \"#utility.yul\":2791:2820   */\n      swap1\n      pop\n        /* \"#utility.yul\":2829:2862   */\n      tag_365\n        /* \"#utility.yul\":2856:2861   */\n      dup2\n        /* \"#utility.yul\":2829:2862   */\n      tag_287\n      jump\t// in\n    tag_365:\n        /* \"#utility.yul\":2729:2868   */\n      swap3\n      swap2\n      pop\n      pop\n      jump\t// out\n        /* \"#utility.yul\":2874:3348   */\n    tag_36:\n        /* \"#utility.yul\":2942:2948   */\n      0x00\n        /* \"#utility.yul\":2950:2956   */\n      dup1\n        /* \"#utility.yul\":2999:3001   */\n      0x40\n        /* \"#utility.yul\":2987:2996   */\n      dup4\n        /* \"#utility.yul\":2978:2985   */\n      dup6\n        /* \"#utility.yul\":2974:2997   */\n      sub\n        /* \"#utility.yul\":2970:3002   */\n      slt\n        /* \"#utility.yul\":2967:3086   */\n      iszero\n      tag_367\n      jumpi\n        /* \"#utility.yul\":3005:3084   */\n      tag_368\n      tag_275\n      jump\t// in\n    tag_368:\n        /* \"#utility.yul\":2967:3086   */\n    tag_367:\n        /* \"#utility.yul\":3125:3126   */\n      0x00\n        /* \"#utility.yul\":3150:3203   */\n      tag_369\n        /* \"#utility.yul\":3195:3202   */\n      dup6\n        /* \"#utility.yul\":3186:3192   */\n      dup3\n        /* \"#utility.yul\":3175:3184   */\n      dup7\n        /* \"#utility.yul\":3171:3193   */\n      add\n        /* \"#utility.yul\":3150:3203   */\n      tag_280\n      jump\t// in\n    tag_369:\n        /* \"#utility.yul\":3140:3203   */\n      swap3\n      pop\n        /* \"#utility.yul\":3096:3213   */\n      pop\n        /* \"#utility.yul\":3252:3254   */\n      0x20\n        /* \"#utility.yul\":3278:3331   */\n      tag_370\n        /* \"#utility.yul\":3323:3330   */\n      dup6\n        /* \"#utility.yul\":3314:3320   */\n      dup3\n        /* \"#utility.yul\":3303:3312   */\n      dup7\n        /* \"#utility.yul\":3299:3321   */\n      add\n        /* \"#utility.yul\":3278:3331   */\n      tag_288\n      jump\t// in\n    tag_370:\n        /* \"#utility.yul\":3268:3331   */\n      swap2\n      pop\n        /* \"#utility.yul\":3223:3341   */\n      pop\n        /* \"#utility.yul\":2874:3348   */\n      swap3\n      pop\n      swap3\n      swap1\n      pop\n      jump\t// out\n        /* \"#utility.yul\":3354:3444   */\n    tag_289:\n        /* \"#utility.yul\":3388:3395   */\n      0x00\n        /* \"#utility.yul\":3431:3436   */\n      dup2\n        /* \"#utility.yul\":3424:3437   */\n      iszero\n        /* \"#utility.yul\":3417:3438   */\n      iszero\n        /* \"#utility.yul\":3406:3438   */\n      swap1\n      pop\n        /* \"#utility.yul\":3354:3444   */\n      swap2\n      swap1\n      pop\n      jump\t// out\n        /* \"#utility.yul\":3450:3559   */\n    tag_290:\n        /* \"#utility.yul\":3531:3552   */\n      tag_373\n        /* \"#utility.yul\":3546:3551   */\n      dup2\n        /* \"#utility.yul\":3531:3552   */\n      tag_289\n      jump\t// in\n    tag_373:\n        /* \"#utility.yul\":3526:3529   */\n      dup3\n        /* \"#utility.yul\":3519:3553   */\n      mstore\n        /* \"#utility.yul\":3450:3559   */\n      pop\n      pop\n      jump\t// out\n        /* \"#utility.yul\":3565:3775   */\n    tag_39:\n        /* \"#utility.yul\":3652:3656   */\n      0x00\n        /* \"#utility.yul\":3690:3692   */\n      0x20\n        /* \"#utility.yul\":3679:3688   */\n      dup3\n        /* \"#utility.yul\":3675:3693   */\n      add\n        /* \"#utility.yul\":3667:3693   */\n      swap1\n      pop\n        /* \"#utility.yul\":3703:3768   */\n      tag_375\n        /* \"#utility.yul\":3765:3766   */\n      0x00\n        /* \"#utility.yul\":3754:3763   */\n      dup4\n        /* \"#utility.yul\":3750:3767   */\n      add\n        /* \"#utility.yul\":3741:3747   */\n      dup5\n        /* \"#utility.yul\":3703:3768   */\n      tag_290\n      jump\t// in\n    tag_375:\n        /* \"#utility.yul\":3565:3775   */\n      swap3\n      swap2\n      pop\n      pop\n      jump\t// out\n        /* \"#utility.yul\":3781:3895   */\n    tag_291:\n        /* \"#utility.yul\":3848:3854   */\n      0x00\n        /* \"#utility.yul\":3882:3887   */\n      dup2\n        /* \"#utility.yul\":3876:3888   */\n      mload\n        /* \"#utility.yul\":3866:3888   */\n      swap1\n      pop\n        /* \"#utility.yul\":3781:3895   */\n      swap2\n      swap1\n      pop\n      jump\t// out\n        /* \"#utility.yul\":3901:4085   */\n    tag_292:\n        /* \"#utility.yul\":4000:4011   */\n      0x00\n        /* \"#utility.yul\":4034:4040   */\n      dup3\n        /* \"#utility.yul\":4029:4032   */\n      dup3\n        /* \"#utility.yul\":4022:4041   */\n      mstore\n        /* \"#utility.yul\":4074:4078   */\n      0x20\n        /* \"#utility.yul\":4069:4072   */\n      dup3\n        /* \"#utility.yul\":4065:4079   */\n      add\n        /* \"#utility.yul\":4050:4079   */\n      swap1\n      pop\n        /* \"#utility.yul\":3901:4085   */\n      swap3\n      swap2\n      pop\n      pop\n      jump\t// out\n        /* \"#utility.yul\":4091:4223   */\n    tag_293:\n        /* \"#utility.yul\":4158:4162   */\n      0x00\n        /* \"#utility.yul\":4181:4184   */\n      dup2\n        /* \"#utility.yul\":4173:4184   */\n      swap1\n      pop\n        /* \"#utility.yul\":4211:4215   */\n      0x20\n        /* \"#utility.yul\":4206:4209   */\n      dup3\n        /* \"#utility.yul\":4202:4216   */\n      add\n        /* \"#utility.yul\":4194:4216   */\n      swap1\n      pop\n        /* \"#utility.yul\":4091:4223   */\n      swap2\n      swap1\n      pop\n      jump\t// out\n        /* \"#utility.yul\":4229:4337   */\n    tag_294:\n        /* \"#utility.yul\":4306:4330   */\n      tag_380\n        /* \"#utility.yul\":4324:4329   */\n      dup2\n        /* \"#utility.yul\":4306:4330   */\n      tag_278\n      jump\t// in\n    tag_380:\n        /* \"#utility.yul\":4301:4304   */\n      dup3\n        /* \"#utility.yul\":4294:4331   */\n      mstore\n        /* \"#utility.yul\":4229:4337   */\n      pop\n      pop\n      jump\t// out\n        /* \"#utility.yul\":4343:4522   */\n    tag_295:\n        /* \"#utility.yul\":4412:4422   */\n      0x00\n        /* \"#utility.yul\":4433:4479   */\n      tag_382\n        /* \"#utility.yul\":4475:4478   */\n      dup4\n        /* \"#utility.yul\":4467:4473   */\n      dup4\n        /* \"#utility.yul\":4433:4479   */\n      tag_294\n      jump\t// in\n    tag_382:\n        /* \"#utility.yul\":4511:4515   */\n      0x20\n        /* \"#utility.yul\":4506:4509   */\n      dup4\n        /* \"#utility.yul\":4502:4516   */\n      add\n        /* \"#utility.yul\":4488:4516   */\n      swap1\n      pop\n        /* \"#utility.yul\":4343:4522   */\n      swap3\n      swap2\n      pop\n      pop\n      jump\t// out\n        /* \"#utility.yul\":4528:4641   */\n    tag_296:\n        /* \"#utility.yul\":4598:4602   */\n      0x00\n        /* \"#utility.yul\":4630:4634   */\n      0x20\n        /* \"#utility.yul\":4625:4628   */\n      dup3\n        /* \"#utility.yul\":4621:4635   */\n      add\n        /* \"#utility.yul\":4613:4635   */\n      swap1\n      pop\n        /* \"#utility.yul\":4528:4641   */\n      swap2\n      swap1\n      pop\n      jump\t// out\n        /* \"#utility.yul\":4677:5409   */\n    tag_297:\n        /* \"#utility.yul\":4796:4799   */\n      0x00\n        /* \"#utility.yul\":4825:4879   */\n      tag_385\n        /* \"#utility.yul\":4873:4878   */\n      dup3\n        /* \"#utility.yul\":4825:4879   */\n      tag_291\n      jump\t// in\n    tag_385:\n        /* \"#utility.yul\":4895:4981   */\n      tag_386\n        /* \"#utility.yul\":4974:4980   */\n      dup2\n        /* \"#utility.yul\":4969:4972   */\n      dup6\n        /* \"#utility.yul\":4895:4981   */\n      tag_292\n      jump\t// in\n    tag_386:\n        /* \"#utility.yul\":4888:4981   */\n      swap4\n      pop\n        /* \"#utility.yul\":5005:5061   */\n      tag_387\n        /* \"#utility.yul\":5055:5060   */\n      dup4\n        /* \"#utility.yul\":5005:5061   */\n      tag_293\n      jump\t// in\n    tag_387:\n        /* \"#utility.yul\":5084:5091   */\n      dup1\n        /* \"#utility.yul\":5115:5116   */\n      0x00\n        /* \"#utility.yul\":5100:5384   */\n    tag_388:\n        /* \"#utility.yul\":5125:5131   */\n      dup4\n        /* \"#utility.yul\":5122:5123   */\n      dup2\n        /* \"#utility.yul\":5119:5132   */\n      lt\n        /* \"#utility.yul\":5100:5384   */\n      iszero\n      tag_390\n      jumpi\n        /* \"#utility.yul\":5201:5207   */\n      dup2\n        /* \"#utility.yul\":5195:5208   */\n      mload\n        /* \"#utility.yul\":5228:5291   */\n      tag_391\n        /* \"#utility.yul\":5287:5290   */\n      dup9\n        /* \"#utility.yul\":5272:5285   */\n      dup3\n        /* \"#utility.yul\":5228:5291   */\n      tag_295\n      jump\t// in\n    tag_391:\n        /* \"#utility.yul\":5221:5291   */\n      swap8\n      pop\n        /* \"#utility.yul\":5314:5374   */\n      tag_392\n        /* \"#utility.yul\":5367:5373   */\n      dup4\n        /* \"#utility.yul\":5314:5374   */\n      tag_296\n      jump\t// in\n    tag_392:\n        /* \"#utility.yul\":5304:5374   */\n      swap3\n      pop\n        /* \"#utility.yul\":5160:5384   */\n      pop\n        /* \"#utility.yul\":5147:5148   */\n      0x01\n        /* \"#utility.yul\":5144:5145   */\n      dup2\n        /* \"#utility.yul\":5140:5149   */\n      add\n        /* \"#utility.yul\":5135:5149   */\n      swap1\n      pop\n        /* \"#utility.yul\":5100:5384   */\n      jump(tag_388)\n    tag_390:\n        /* \"#utility.yul\":5104:5118   */\n      pop\n        /* \"#utility.yul\":5400:5403   */\n      dup6\n        /* \"#utility.yul\":5393:5403   */\n      swap4\n      pop\n        /* \"#utility.yul\":4801:5409   */\n      pop\n      pop\n      pop\n        /* \"#utility.yul\":4677:5409   */\n      swap3\n      swap2\n      pop\n      pop\n      jump\t// out\n        /* \"#utility.yul\":5415:5788   */\n    tag_43:\n        /* \"#utility.yul\":5558:5562   */\n      0x00\n        /* \"#utility.yul\":5596:5598   */\n      0x20\n        /* \"#utility.yul\":5585:5594   */\n      dup3\n        /* \"#utility.yul\":5581:5599   */\n      add\n        /* \"#utility.yul\":5573:5599   */\n      swap1\n      pop\n        /* \"#utility.yul\":5645:5654   */\n      dup2\n        /* \"#utility.yul\":5639:5643   */\n      dup2\n        /* \"#utility.yul\":5635:5655   */\n      sub\n        /* \"#utility.yul\":5631:5632   */\n      0x00\n        /* \"#utility.yul\":5620:5629   */\n      dup4\n        /* \"#utility.yul\":5616:5633   */\n      add\n        /* \"#utility.yul\":5609:5656   */\n      mstore\n        /* \"#utility.yul\":5673:5781   */\n      tag_394\n        /* \"#utility.yul\":5776:5780   */\n      dup2\n        /* \"#utility.yul\":5767:5773   */\n      dup5\n        /* \"#utility.yul\":5673:5781   */\n      tag_297\n      jump\t// in\n    tag_394:\n        /* \"#utility.yul\":5665:5781   */\n      swap1\n      pop\n        /* \"#utility.yul\":5415:5788   */\n      swap3\n      swap2\n      pop\n      pop\n      jump\t// out\n        /* \"#utility.yul\":5794:5912   */\n    tag_298:\n        /* \"#utility.yul\":5881:5905   */\n      tag_396\n        /* \"#utility.yul\":5899:5904   */\n      dup2\n        /* \"#utility.yul\":5881:5905   */\n      tag_286\n      jump\t// in\n    tag_396:\n        /* \"#utility.yul\":5876:5879   */\n      dup3\n        /* \"#utility.yul\":5869:5906   */\n      mstore\n        /* \"#utility.yul\":5794:5912   */\n      pop\n      pop\n      jump\t// out\n        /* \"#utility.yul\":5918:6140   */\n    tag_47:\n        /* \"#utility.yul\":6011:6015   */\n      0x00\n        /* \"#utility.yul\":6049:6051   */\n      0x20\n        /* \"#utility.yul\":6038:6047   */\n      dup3\n        /* \"#utility.yul\":6034:6052   */\n      add\n        /* \"#utility.yul\":6026:6052   */\n      swap1\n      pop\n        /* \"#utility.yul\":6062:6133   */\n      tag_398\n        /* \"#utility.yul\":6130:6131   */\n      0x00\n        /* \"#utility.yul\":6119:6128   */\n      dup4\n        /* \"#utility.yul\":6115:6132   */\n      add\n        /* \"#utility.yul\":6106:6112   */\n      dup5\n        /* \"#utility.yul\":6062:6133   */\n      tag_298\n      jump\t// in\n    tag_398:\n        /* \"#utility.yul\":5918:6140   */\n      swap3\n      swap2\n      pop\n      pop\n      jump\t// out\n        /* \"#utility.yul\":6146:6765   */\n    tag_50:\n        /* \"#utility.yul\":6223:6229   */\n      0x00\n        /* \"#utility.yul\":6231:6237   */\n      dup1\n        /* \"#utility.yul\":6239:6245   */\n      0x00\n        /* \"#utility.yul\":6288:6290   */\n      0x60\n        /* \"#utility.yul\":6276:6285   */\n      dup5\n        /* \"#utility.yul\":6267:6274   */\n      dup7\n        /* \"#utility.yul\":6263:6286   */\n      sub\n        /* \"#utility.yul\":6259:6291   */\n      slt\n        /* \"#utility.yul\":6256:6375   */\n      iszero\n      tag_400\n      jumpi\n        /* \"#utility.yul\":6294:6373   */\n      tag_401\n      tag_275\n      jump\t// in\n    tag_401:\n        /* \"#utility.yul\":6256:6375   */\n    tag_400:\n        /* \"#utility.yul\":6414:6415   */\n      0x00\n        /* \"#utility.yul\":6439:6492   */\n      tag_402\n        /* \"#utility.yul\":6484:6491   */\n      dup7\n        /* \"#utility.yul\":6475:6481   */\n      dup3\n        /* \"#utility.yul\":6464:6473   */\n      dup8\n        /* \"#utility.yul\":6460:6482   */\n      add\n        /* \"#utility.yul\":6439:6492   */\n      tag_280\n      jump\t// in\n    tag_402:\n        /* \"#utility.yul\":6429:6492   */\n      swap4\n      pop\n        /* \"#utility.yul\":6385:6502   */\n      pop\n        /* \"#utility.yul\":6541:6543   */\n      0x20\n        /* \"#utility.yul\":6567:6620   */\n      tag_403\n        /* \"#utility.yul\":6612:6619   */\n      dup7\n        /* \"#utility.yul\":6603:6609   */\n      dup3\n        /* \"#utility.yul\":6592:6601   */\n      dup8\n        /* \"#utility.yul\":6588:6610   */\n      add\n        /* \"#utility.yul\":6567:6620   */\n      tag_280\n      jump\t// in\n    tag_403:\n        /* \"#utility.yul\":6557:6620   */\n      swap3\n      pop\n        /* \"#utility.yul\":6512:6630   */\n      pop\n        /* \"#utility.yul\":6669:6671   */\n      0x40\n        /* \"#utility.yul\":6695:6748   */\n      tag_404\n        /* \"#utility.yul\":6740:6747   */\n      dup7\n        /* \"#utility.yul\":6731:6737   */\n      dup3\n        /* \"#utility.yul\":6720:6729   */\n      dup8\n        /* \"#utility.yul\":6716:6738   */\n      add\n        /* \"#utility.yul\":6695:6748   */\n      tag_288\n      jump\t// in\n    tag_404:\n        /* \"#utility.yul\":6685:6748   */\n      swap2\n      pop\n        /* \"#utility.yul\":6640:6758   */\n      pop\n        /* \"#utility.yul\":6146:6765   */\n      swap3\n      pop\n      swap3\n      pop\n      swap3\n      jump\t// out\n        /* \"#utility.yul\":6771:6857   */\n    tag_299:\n        /* \"#utility.yul\":6806:6813   */\n      0x00\n        /* \"#utility.yul\":6846:6850   */\n      0xff\n        /* \"#utility.yul\":6839:6844   */\n      dup3\n        /* \"#utility.yul\":6835:6851   */\n      and\n        /* \"#utility.yul\":6824:6851   */\n      swap1\n      pop\n        /* \"#utility.yul\":6771:6857   */\n      swap2\n      swap1\n      pop\n      jump\t// out\n        /* \"#utility.yul\":6863:6975   */\n    tag_300:\n        /* \"#utility.yul\":6946:6968   */\n      tag_407\n        /* \"#utility.yul\":6962:6967   */\n      dup2\n        /* \"#utility.yul\":6946:6968   */\n      tag_299\n      jump\t// in\n    tag_407:\n        /* \"#utility.yul\":6941:6944   */\n      dup3\n        /* \"#utility.yul\":6934:6969   */\n      mstore\n        /* \"#utility.yul\":6863:6975   */\n      pop\n      pop\n      jump\t// out\n        /* \"#utility.yul\":6981:7195   */\n    tag_56:\n        /* \"#utility.yul\":7070:7074   */\n      0x00\n        /* \"#utility.yul\":7108:7110   */\n      0x20\n        /* \"#utility.yul\":7097:7106   */\n      dup3\n        /* \"#utility.yul\":7093:7111   */\n      add\n        /* \"#utility.yul\":7085:7111   */\n      swap1\n      pop\n        /* \"#utility.yul\":7121:7188   */\n      tag_409\n        /* \"#utility.yul\":7185:7186   */\n      0x00\n        /* \"#utility.yul\":7174:7183   */\n      dup4\n        /* \"#utility.yul\":7170:7187   */\n      add\n        /* \"#utility.yul\":7161:7167   */\n      dup5\n        /* \"#utility.yul\":7121:7188   */\n      tag_300\n      jump\t// in\n    tag_409:\n        /* \"#utility.yul\":6981:7195   */\n      swap3\n      swap2\n      pop\n      pop\n      jump\t// out\n        /* \"#utility.yul\":7201:7319   */\n    tag_301:\n        /* \"#utility.yul\":7288:7312   */\n      tag_411\n        /* \"#utility.yul\":7306:7311   */\n      dup2\n        /* \"#utility.yul\":7288:7312   */\n      tag_278\n      jump\t// in\n    tag_411:\n        /* \"#utility.yul\":7283:7286   */\n      dup3\n        /* \"#utility.yul\":7276:7313   */\n      mstore\n        /* \"#utility.yul\":7201:7319   */\n      pop\n      pop\n      jump\t// out\n        /* \"#utility.yul\":7325:7547   */\n    tag_70:\n        /* \"#utility.yul\":7418:7422   */\n      0x00\n        /* \"#utility.yul\":7456:7458   */\n      0x20\n        /* \"#utility.yul\":7445:7454   */\n      dup3\n        /* \"#utility.yul\":7441:7459   */\n      add\n        /* \"#utility.yul\":7433:7459   */\n      swap1\n      pop\n        /* \"#utility.yul\":7469:7540   */\n      tag_413\n        /* \"#utility.yul\":7537:7538   */\n      0x00\n        /* \"#utility.yul\":7526:7535   */\n      dup4\n        /* \"#utility.yul\":7522:7539   */\n      add\n        /* \"#utility.yul\":7513:7519   */\n      dup5\n        /* \"#utility.yul\":7469:7540   */\n      tag_301\n      jump\t// in\n    tag_413:\n        /* \"#utility.yul\":7325:7547   */\n      swap3\n      swap2\n      pop\n      pop\n      jump\t// out\n        /* \"#utility.yul\":7553:7882   */\n    tag_76:\n        /* \"#utility.yul\":7612:7618   */\n      0x00\n        /* \"#utility.yul\":7661:7663   */\n      0x20\n        /* \"#utility.yul\":7649:7658   */\n      dup3\n        /* \"#utility.yul\":7640:7647   */\n      dup5\n        /* \"#utility.yul\":7636:7659   */\n      sub\n        /* \"#utility.yul\":7632:7664   */\n      slt\n        /* \"#utility.yul\":7629:7748   */\n      iszero\n      tag_415\n      jumpi\n        /* \"#utility.yul\":7667:7746   */\n      tag_416\n      tag_275\n      jump\t// in\n    tag_416:\n        /* \"#utility.yul\":7629:7748   */\n    tag_415:\n        /* \"#utility.yul\":7787:7788   */\n      0x00\n        /* \"#utility.yul\":7812:7865   */\n      tag_417\n        /* \"#utility.yul\":7857:7864   */\n      dup5\n        /* \"#utility.yul\":7848:7854   */\n      dup3\n        /* \"#utility.yul\":7837:7846   */\n      dup6\n        /* \"#utility.yul\":7833:7855   */\n      add\n        /* \"#utility.yul\":7812:7865   */\n      tag_288\n      jump\t// in\n    tag_417:\n        /* \"#utility.yul\":7802:7865   */\n      swap2\n      pop\n        /* \"#utility.yul\":7758:7875   */\n      pop\n        /* \"#utility.yul\":7553:7882   */\n      swap3\n      swap2\n      pop\n      pop\n      jump\t// out\n        /* \"#utility.yul\":7888:8362   */\n    tag_98:\n        /* \"#utility.yul\":7956:7962   */\n      0x00\n        /* \"#utility.yul\":7964:7970   */\n      dup1\n        /* \"#utility.yul\":8013:8015   */\n      0x40\n        /* \"#utility.yul\":8001:8010   */\n      dup4\n        /* \"#utility.yul\":7992:7999   */\n      dup6\n        /* \"#utility.yul\":7988:8011   */\n      sub\n        /* \"#utility.yul\":7984:8016   */\n      slt\n        /* \"#utility.yul\":7981:8100   */\n      iszero\n      tag_419\n      jumpi\n        /* \"#utility.yul\":8019:8098   */\n      tag_420\n      tag_275\n      jump\t// in\n    tag_420:\n        /* \"#utility.yul\":7981:8100   */\n    tag_419:\n        /* \"#utility.yul\":8139:8140   */\n      0x00\n        /* \"#utility.yul\":8164:8217   */\n      tag_421\n        /* \"#utility.yul\":8209:8216   */\n      dup6\n        /* \"#utility.yul\":8200:8206   */\n      dup3\n        /* \"#utility.yul\":8189:8198   */\n      dup7\n        /* \"#utility.yul\":8185:8207   */\n      add\n        /* \"#utility.yul\":8164:8217   */\n      tag_280\n      jump\t// in\n    tag_421:\n        /* \"#utility.yul\":8154:8217   */\n      swap3\n      pop\n        /* \"#utility.yul\":8110:8227   */\n      pop\n        /* \"#utility.yul\":8266:8268   */\n      0x20\n        /* \"#utility.yul\":8292:8345   */\n      tag_422\n        /* \"#utility.yul\":8337:8344   */\n      dup6\n        /* \"#utility.yul\":8328:8334   */\n      dup3\n        /* \"#utility.yul\":8317:8326   */\n      dup7\n        /* \"#utility.yul\":8313:8335   */\n      add\n        /* \"#utility.yul\":8292:8345   */\n      tag_280\n      jump\t// in\n    tag_422:\n        /* \"#utility.yul\":8282:8345   */\n      swap2\n      pop\n        /* \"#utility.yul\":8237:8355   */\n      pop\n        /* \"#utility.yul\":7888:8362   */\n      swap3\n      pop\n      swap3\n      swap1\n      pop\n      jump\t// out\n        /* \"#utility.yul\":8368:8548   */\n    tag_113:\n        /* \"#utility.yul\":8416:8493   */\n      0x4e487b7100000000000000000000000000000000000000000000000000000000\n        /* \"#utility.yul\":8413:8414   */\n      0x00\n        /* \"#utility.yul\":8406:8494   */\n      mstore\n        /* \"#utility.yul\":8513:8517   */\n      0x32\n        /* \"#utility.yul\":8510:8511   */\n      0x04\n        /* \"#utility.yul\":8503:8518   */\n      mstore\n        /* \"#utility.yul\":8537:8541   */\n      0x24\n        /* \"#utility.yul\":8534:8535   */\n      0x00\n        /* \"#utility.yul\":8527:8542   */\n      revert\n        /* \"#utility.yul\":8554:8734   */\n    tag_302:\n        /* \"#utility.yul\":8602:8679   */\n      0x4e487b7100000000000000000000000000000000000000000000000000000000\n        /* \"#utility.yul\":8599:8600   */\n      0x00\n        /* \"#utility.yul\":8592:8680   */\n      mstore\n        /* \"#utility.yul\":8699:8703   */\n      0x11\n        /* \"#utility.yul\":8696:8697   */\n      0x04\n        /* \"#utility.yul\":8689:8704   */\n      mstore\n        /* \"#utility.yul\":8723:8727   */\n      0x24\n        /* \"#utility.yul\":8720:8721   */\n      0x00\n        /* \"#utility.yul\":8713:8728   */\n      revert\n        /* \"#utility.yul\":8740:8973   */\n    tag_120:\n        /* \"#utility.yul\":8779:8782   */\n      0x00\n        /* \"#utility.yul\":8802:8826   */\n      tag_426\n        /* \"#utility.yul\":8820:8825   */\n      dup3\n        /* \"#utility.yul\":8802:8826   */\n      tag_286\n      jump\t// in\n    tag_426:\n        /* \"#utility.yul\":8793:8826   */\n      swap2\n      pop\n        /* \"#utility.yul\":8848:8914   */\n      0xffffffffffffffffffffffffffffffffffffffffffffffffffffffffffffffff\n        /* \"#utility.yul\":8841:8846   */\n      dup3\n        /* \"#utility.yul\":8838:8915   */\n      sub\n        /* \"#utility.yul\":8835:8938   */\n      tag_427\n      jumpi\n        /* \"#utility.yul\":8918:8936   */\n      tag_428\n      tag_302\n      jump\t// in\n    tag_428:\n        /* \"#utility.yul\":8835:8938   */\n    tag_427:\n        /* \"#utility.yul\":8965:8966   */\n      0x01\n        /* \"#utility.yul\":8958:8963   */\n      dup3\n        /* \"#utility.yul\":8954:8967   */\n      add\n        /* \"#utility.yul\":8947:8967   */\n      swap1\n      pop\n        /* \"#utility.yul\":8740:8973   */\n      swap2\n      swap1\n      pop\n      jump\t// out\n        /* \"#utility.yul\":8979:9159   */\n    tag_303:\n        /* \"#utility.yul\":9027:9104   */\n      0x4e487b7100000000000000000000000000000000000000000000000000000000\n        /* \"#utility.yul\":9024:9025   */\n      0x00\n        /* \"#utility.yul\":9017:9105   */\n      mstore\n        /* \"#utility.yul\":9124:9128   */\n      0x22\n        /* \"#utility.yul\":9121:9122   */\n      0x04\n        /* \"#utility.yul\":9114:9129   */\n      mstore\n        /* \"#utility.yul\":9148:9152   */\n      0x24\n        /* \"#utility.yul\":9145:9146   */\n      0x00\n        /* \"#utility.yul\":9138:9153   */\n      revert\n        /* \"#utility.yul\":9165:9485   */\n    tag_123:\n        /* \"#utility.yul\":9209:9215   */\n      0x00\n        /* \"#utility.yul\":9246:9247   */\n      0x02\n        /* \"#utility.yul\":9240:9244   */\n      dup3\n        /* \"#utility.yul\":9236:9248   */\n      div\n        /* \"#utility.yul\":9226:9248   */\n      swap1\n      pop\n        /* \"#utility.yul\":9293:9294   */\n      0x01\n        /* \"#utility.yul\":9287:9291   */\n      dup3\n        /* \"#utility.yul\":9283:9295   */\n      and\n        /* \"#utility.yul\":9314:9332   */\n      dup1\n        /* \"#utility.yul\":9304:9385   */\n      tag_431\n      jumpi\n        /* \"#utility.yul\":9370:9374   */\n      0x7f\n        /* \"#utility.yul\":9362:9368   */\n      dup3\n        /* \"#utility.yul\":9358:9375   */\n      and\n        /* \"#utility.yul\":9348:9375   */\n      swap2\n      pop\n        /* \"#utility.yul\":9304:9385   */\n    tag_431:\n        /* \"#utility.yul\":9432:9434   */\n      0x20\n        /* \"#utility.yul\":9424:9430   */\n      dup3\n        /* \"#utility.yul\":9421:9435   */\n      lt\n        /* \"#utility.yul\":9401:9419   */\n      dup2\n        /* \"#utility.yul\":9398:9436   */\n      sub\n        /* \"#utility.yul\":9395:9479   */\n      tag_432\n      jumpi\n        /* \"#utility.yul\":9451:9469   */\n      tag_433\n      tag_303\n      jump\t// in\n    tag_433:\n        /* \"#utility.yul\":9395:9479   */\n    tag_432:\n        /* \"#utility.yul\":9216:9485   */\n      pop\n        /* \"#utility.yul\":9165:9485   */\n      swap2\n      swap1\n      pop\n      jump\t// out\n        /* \"#utility.yul\":9491:9682   */\n    tag_149:\n        /* \"#utility.yul\":9531:9534   */\n      0x00\n        /* \"#utility.yul\":9550:9570   */\n      tag_435\n        /* \"#utility.yul\":9568:9569   */\n      dup3\n        /* \"#utility.yul\":9550:9570   */\n      tag_286\n      jump\t// in\n    tag_435:\n        /* \"#utility.yul\":9545:9570   */\n      swap2\n      pop\n        /* \"#utility.yul\":9584:9604   */\n      tag_436\n        /* \"#utility.yul\":9602:9603   */\n      dup4\n        /* \"#utility.yul\":9584:9604   */\n      tag_286\n      jump\t// in\n    tag_436:\n        /* \"#utility.yul\":9579:9604   */\n      swap3\n      pop\n        /* \"#utility.yul\":9627:9628   */\n      dup3\n        /* \"#utility.yul\":9624:9625   */\n      dup3\n        /* \"#utility.yul\":9620:9629   */\n      add\n        /* \"#utility.yul\":9613:9629   */\n      swap1\n      pop\n        /* \"#utility.yul\":9648:9651   */\n      dup1\n        /* \"#utility.yul\":9645:9646   */\n      dup3\n        /* \"#utility.yul\":9642:9652   */\n      gt\n        /* \"#utility.yul\":9639:9675   */\n      iszero\n      tag_437\n      jumpi\n        /* \"#utility.yul\":9655:9673   */\n      tag_438\n      tag_302\n      jump\t// in\n    tag_438:\n        /* \"#utility.yul\":9639:9675   */\n    tag_437:\n        /* \"#utility.yul\":9491:9682   */\n      swap3\n      swap2\n      pop\n      pop\n      jump\t// out\n        /* \"#utility.yul\":9688:9912   */\n    tag_304:\n        /* \"#utility.yul\":9828:9862   */\n      0x45524332303a2064656372656173656420616c6c6f77616e63652062656c6f77\n        /* \"#utility.yul\":9824:9825   */\n      0x00\n        /* \"#utility.yul\":9816:9822   */\n      dup3\n        /* \"#utility.yul\":9812:9826   */\n      add\n        /* \"#utility.yul\":9805:9863   */\n      mstore\n        /* \"#utility.yul\":9897:9904   */\n      0x207a65726f000000000000000000000000000000000000000000000000000000\n        /* \"#utility.yul\":9892:9894   */\n      0x20\n        /* \"#utility.yul\":9884:9890   */\n      dup3\n        /* \"#utility.yul\":9880:9895   */\n      add\n        /* \"#utility.yul\":9873:9905   */\n      mstore\n        /* \"#utility.yul\":9688:9912   */\n      pop\n      jump\t// out\n        /* \"#utility.yul\":9918:10284   */\n    tag_305:\n        /* \"#utility.yul\":10060:10063   */\n      0x00\n        /* \"#utility.yul\":10081:10148   */\n      tag_441\n        /* \"#utility.yul\":10145:10147   */\n      0x25\n        /* \"#utility.yul\":10140:10143   */\n      dup4\n        /* \"#utility.yul\":10081:10148   */\n      tag_282\n      jump\t// in\n    tag_441:\n        /* \"#utility.yul\":10074:10148   */\n      swap2\n      pop\n        /* \"#utility.yul\":10157:10250   */\n      tag_442\n        /* \"#utility.yul\":10246:10249   */\n      dup3\n        /* \"#utility.yul\":10157:10250   */\n      tag_304\n      jump\t// in\n    tag_442:\n        /* \"#utility.yul\":10275:10277   */\n      0x40\n        /* \"#utility.yul\":10270:10273   */\n      dup3\n        /* \"#utility.yul\":10266:10278   */\n      add\n        /* \"#utility.yul\":10259:10278   */\n      swap1\n      pop\n        /* \"#utility.yul\":9918:10284   */\n      swap2\n      swap1\n      pop\n      jump\t// out\n        /* \"#utility.yul\":10290:10709   */\n    tag_174:\n        /* \"#utility.yul\":10456:10460   */\n      0x00\n        /* \"#utility.yul\":10494:10496   */\n      0x20\n        /* \"#utility.yul\":10483:10492   */\n      dup3\n        /* \"#utility.yul\":10479:10497   */\n      add\n        /* \"#utility.yul\":10471:10497   */\n      swap1\n      pop\n        /* \"#utility.yul\":10543:10552   */\n      dup2\n        /* \"#utility.yul\":10537:10541   */\n      dup2\n        /* \"#utility.yul\":10533:10553   */\n      sub\n        /* \"#utility.yul\":10529:10530   */\n      0x00\n        /* \"#utility.yul\":10518:10527   */\n      dup4\n        /* \"#utility.yul\":10514:10531   */\n      add\n        /* \"#utility.yul\":10507:10554   */\n      mstore\n        /* \"#utility.yul\":10571:10702   */\n      tag_444\n        /* \"#utility.yul\":10697:10701   */\n      dup2\n        /* \"#utility.yul\":10571:10702   */\n      tag_305\n      jump\t// in\n    tag_444:\n        /* \"#utility.yul\":10563:10702   */\n      swap1\n      pop\n        /* \"#utility.yul\":10290:10709   */\n      swap2\n      swap1\n      pop\n      jump\t// out\n        /* \"#utility.yul\":10715:10892   */\n    tag_306:\n        /* \"#utility.yul\":10855:10884   */\n      0x6d73672e73656e646572206973206e6f74207468652070617965720000000000\n        /* \"#utility.yul\":10851:10852   */\n      0x00\n        /* \"#utility.yul\":10843:10849   */\n      dup3\n        /* \"#utility.yul\":10839:10853   */\n      add\n        /* \"#utility.yul\":10832:10885   */\n      mstore\n        /* \"#utility.yul\":10715:10892   */\n      pop\n      jump\t// out\n        /* \"#utility.yul\":10898:11264   */\n    tag_307:\n        /* \"#utility.yul\":11040:11043   */\n      0x00\n        /* \"#utility.yul\":11061:11128   */\n      tag_447\n        /* \"#utility.yul\":11125:11127   */\n      0x1b\n        /* \"#utility.yul\":11120:11123   */\n      dup4\n        /* \"#utility.yul\":11061:11128   */\n      tag_282\n      jump\t// in\n    tag_447:\n        /* \"#utility.yul\":11054:11128   */\n      swap2\n      pop\n        /* \"#utility.yul\":11137:11230   */\n      tag_448\n        /* \"#utility.yul\":11226:11229   */\n      dup3\n        /* \"#utility.yul\":11137:11230   */\n      tag_306\n      jump\t// in\n    tag_448:\n        /* \"#utility.yul\":11255:11257   */\n      0x20\n        /* \"#utility.yul\":11250:11253   */\n      dup3\n        /* \"#utility.yul\":11246:11258   */\n      add\n        /* \"#utility.yul\":11239:11258   */\n      swap1\n      pop\n        /* \"#utility.yul\":10898:11264   */\n      swap2\n      swap1\n      pop\n      jump\t// out\n        /* \"#utility.yul\":11270:11689   */\n    tag_194:\n        /* \"#utility.yul\":11436:11440   */\n      0x00\n        /* \"#utility.yul\":11474:11476   */\n      0x20\n        /* \"#utility.yul\":11463:11472   */\n      dup3\n        /* \"#utility.yul\":11459:11477   */\n      add\n        /* \"#utility.yul\":11451:11477   */\n      swap1\n      pop\n        /* \"#utility.yul\":11523:11532   */\n      dup2\n        /* \"#utility.yul\":11517:11521   */\n      dup2\n        /* \"#utility.yul\":11513:11533   */\n      sub\n        /* \"#utility.yul\":11509:11510   */\n      0x00\n        /* \"#utility.yul\":11498:11507   */\n      dup4\n        /* \"#utility.yul\":11494:11511   */\n      add\n        /* \"#utility.yul\":11487:11534   */\n      mstore\n        /* \"#utility.yul\":11551:11682   */\n      tag_450\n        /* \"#utility.yul\":11677:11681   */\n      dup2\n        /* \"#utility.yul\":11551:11682   */\n      tag_307\n      jump\t// in\n    tag_450:\n        /* \"#utility.yul\":11543:11682   */\n      swap1\n      pop\n        /* \"#utility.yul\":11270:11689   */\n      swap2\n      swap1\n      pop\n      jump\t// out\n        /* \"#utility.yul\":11695:11920   */\n    tag_308:\n        /* \"#utility.yul\":11835:11869   */\n      0x4f776e61626c653a206e6577206f776e657220697320746865207a65726f2061\n        /* \"#utility.yul\":11831:11832   */\n      0x00\n        /* \"#utility.yul\":11823:11829   */\n      dup3\n        /* \"#utility.yul\":11819:11833   */\n      add\n        /* \"#utility.yul\":11812:11870   */\n      mstore\n        /* \"#utility.yul\":11904:11912   */\n      0x6464726573730000000000000000000000000000000000000000000000000000\n        /* \"#utility.yul\":11899:11901   */\n      0x20\n        /* \"#utility.yul\":11891:11897   */\n      dup3\n        /* \"#utility.yul\":11887:11902   */\n      add\n        /* \"#utility.yul\":11880:11913   */\n      mstore\n        /* \"#utility.yul\":11695:11920   */\n      pop\n      jump\t// out\n        /* \"#utility.yul\":11926:12292   */\n    tag_309:\n        /* \"#utility.yul\":12068:12071   */\n      0x00\n        /* \"#utility.yul\":12089:12156   */\n      tag_453\n        /* \"#utility.yul\":12153:12155   */\n      0x26\n        /* \"#utility.yul\":12148:12151   */\n      dup4\n        /* \"#utility.yul\":12089:12156   */\n      tag_282\n      jump\t// in\n    tag_453:\n        /* \"#utility.yul\":12082:12156   */\n      swap2\n      pop\n        /* \"#utility.yul\":12165:12258   */\n      tag_454\n        /* \"#utility.yul\":12254:12257   */\n      dup3\n        /* \"#utility.yul\":12165:12258   */\n      tag_308\n      jump\t// in\n    tag_454:\n        /* \"#utility.yul\":12283:12285   */\n      0x40\n        /* \"#utility.yul\":12278:12281   */\n      dup3\n        /* \"#utility.yul\":12274:12286   */\n      add\n        /* \"#utility.yul\":12267:12286   */\n      swap1\n      pop\n        /* \"#utility.yul\":11926:12292   */\n      swap2\n      swap1\n      pop\n      jump\t// out\n        /* \"#utility.yul\":12298:12717   */\n    tag_214:\n        /* \"#utility.yul\":12464:12468   */\n      0x00\n        /* \"#utility.yul\":12502:12504   */\n      0x20\n        /* \"#utility.yul\":12491:12500   */\n      dup3\n        /* \"#utility.yul\":12487:12505   */\n      add\n        /* \"#utility.yul\":12479:12505   */\n      swap1\n      pop\n        /* \"#utility.yul\":12551:12560   */\n      dup2\n        /* \"#utility.yul\":12545:12549   */\n      dup2\n        /* \"#utility.yul\":12541:12561   */\n      sub\n        /* \"#utility.yul\":12537:12538   */\n      0x00\n        /* \"#utility.yul\":12526:12535   */\n      dup4\n        /* \"#utility.yul\":12522:12539   */\n      add\n        /* \"#utility.yul\":12515:12562   */\n      mstore\n        /* \"#utility.yul\":12579:12710   */\n      tag_456\n        /* \"#utility.yul\":12705:12709   */\n      dup2\n        /* \"#utility.yul\":12579:12710   */\n      tag_309\n      jump\t// in\n    tag_456:\n        /* \"#utility.yul\":12571:12710   */\n      swap1\n      pop\n        /* \"#utility.yul\":12298:12717   */\n      swap2\n      swap1\n      pop\n      jump\t// out\n        /* \"#utility.yul\":12723:12905   */\n    tag_310:\n        /* \"#utility.yul\":12863:12897   */\n      0x4f776e61626c653a2063616c6c6572206973206e6f7420746865206f776e6572\n        /* \"#utility.yul\":12859:12860   */\n      0x00\n        /* \"#utility.yul\":12851:12857   */\n      dup3\n        /* \"#utility.yul\":12847:12861   */\n      add\n        /* \"#utility.yul\":12840:12898   */\n      mstore\n        /* \"#utility.yul\":12723:12905   */\n      pop\n      jump\t// out\n        /* \"#utility.yul\":12911:13277   */\n    tag_311:\n        /* \"#utility.yul\":13053:13056   */\n      0x00\n        /* \"#utility.yul\":13074:13141   */\n      tag_459\n        /* \"#utility.yul\":13138:13140   */\n      0x20\n        /* \"#utility.yul\":13133:13136   */\n      dup4\n        /* \"#utility.yul\":13074:13141   */\n      tag_282\n      jump\t// in\n    tag_459:\n        /* \"#utility.yul\":13067:13141   */\n      swap2\n      pop\n        /* \"#utility.yul\":13150:13243   */\n      tag_460\n        /* \"#utility.yul\":13239:13242   */\n      dup3\n        /* \"#utility.yul\":13150:13243   */\n      tag_310\n      jump\t// in\n    tag_460:\n        /* \"#utility.yul\":13268:13270   */\n      0x20\n        /* \"#utility.yul\":13263:13266   */\n      dup3\n        /* \"#utility.yul\":13259:13271   */\n      add\n        /* \"#utility.yul\":13252:13271   */\n      swap1\n      pop\n        /* \"#utility.yul\":12911:13277   */\n      swap2\n      swap1\n      pop\n      jump\t// out\n        /* \"#utility.yul\":13283:13702   */\n    tag_221:\n        /* \"#utility.yul\":13449:13453   */\n      0x00\n        /* \"#utility.yul\":13487:13489   */\n      0x20\n        /* \"#utility.yul\":13476:13485   */\n      dup3\n        /* \"#utility.yul\":13472:13490   */\n      add\n        /* \"#utility.yul\":13464:13490   */\n      swap1\n      pop\n        /* \"#utility.yul\":13536:13545   */\n      dup2\n        /* \"#utility.yul\":13530:13534   */\n      dup2\n        /* \"#utility.yul\":13526:13546   */\n      sub\n        /* \"#utility.yul\":13522:13523   */\n      0x00\n        /* \"#utility.yul\":13511:13520   */\n      dup4\n        /* \"#utility.yul\":13507:13524   */\n      add\n        /* \"#utility.yul\":13500:13547   */\n      mstore\n        /* \"#utility.yul\":13564:13695   */\n      tag_462\n        /* \"#utility.yul\":13690:13694   */\n      dup2\n        /* \"#utility.yul\":13564:13695   */\n      tag_311\n      jump\t// in\n    tag_462:\n        /* \"#utility.yul\":13556:13695   */\n      swap1\n      pop\n        /* \"#utility.yul\":13283:13702   */\n      swap2\n      swap1\n      pop\n      jump\t// out\n        /* \"#utility.yul\":13708:13931   */\n    tag_312:\n        /* \"#utility.yul\":13848:13882   */\n      0x45524332303a20617070726f76652066726f6d20746865207a65726f20616464\n        /* \"#utility.yul\":13844:13845   */\n      0x00\n        /* \"#utility.yul\":13836:13842   */\n      dup3\n        /* \"#utility.yul\":13832:13846   */\n      add\n        /* \"#utility.yul\":13825:13883   */\n      mstore\n        /* \"#utility.yul\":13917:13923   */\n      0x7265737300000000000000000000000000000000000000000000000000000000\n        /* \"#utility.yul\":13912:13914   */\n      0x20\n        /* \"#utility.yul\":13904:13910   */\n      dup3\n        /* \"#utility.yul\":13900:13915   */\n      add\n        /* \"#utility.yul\":13893:13924   */\n      mstore\n        /* \"#utility.yul\":13708:13931   */\n      pop\n      jump\t// out\n        /* \"#utility.yul\":13937:14303   */\n    tag_313:\n        /* \"#utility.yul\":14079:14082   */\n      0x00\n        /* \"#utility.yul\":14100:14167   */\n      tag_465\n        /* \"#utility.yul\":14164:14166   */\n      0x24\n        /* \"#utility.yul\":14159:14162   */\n      dup4\n        /* \"#utility.yul\":14100:14167   */\n      tag_282\n      jump\t// in\n    tag_465:\n        /* \"#utility.yul\":14093:14167   */\n      swap2\n      pop\n        /* \"#utility.yul\":14176:14269   */\n      tag_466\n        /* \"#utility.yul\":14265:14268   */\n      dup3\n        /* \"#utility.yul\":14176:14269   */\n      tag_312\n      jump\t// in\n    tag_466:\n        /* \"#utility.yul\":14294:14296   */\n      0x40\n        /* \"#utility.yul\":14289:14292   */\n      dup3\n        /* \"#utility.yul\":14285:14297   */\n      add\n        /* \"#utility.yul\":14278:14297   */\n      swap1\n      pop\n        /* \"#utility.yul\":13937:14303   */\n      swap2\n      swap1\n      pop\n      jump\t// out\n        /* \"#utility.yul\":14309:14728   */\n    tag_226:\n        /* \"#utility.yul\":14475:14479   */\n      0x00\n        /* \"#utility.yul\":14513:14515   */\n      0x20\n        /* \"#utility.yul\":14502:14511   */\n      dup3\n        /* \"#utility.yul\":14498:14516   */\n      add\n        /* \"#utility.yul\":14490:14516   */\n      swap1\n      pop\n        /* \"#utility.yul\":14562:14571   */\n      dup2\n        /* \"#utility.yul\":14556:14560   */\n      dup2\n        /* \"#utility.yul\":14552:14572   */\n      sub\n        /* \"#utility.yul\":14548:14549   */\n      0x00\n        /* \"#utility.yul\":14537:14546   */\n      dup4\n        /* \"#utility.yul\":14533:14550   */\n      add\n        /* \"#utility.yul\":14526:14573   */\n      mstore\n        /* \"#utility.yul\":14590:14721   */\n      tag_468\n        /* \"#utility.yul\":14716:14720   */\n      dup2\n        /* \"#utility.yul\":14590:14721   */\n      tag_313\n      jump\t// in\n    tag_468:\n        /* \"#utility.yul\":14582:14721   */\n      swap1\n      pop\n        /* \"#utility.yul\":14309:14728   */\n      swap2\n      swap1\n      pop\n      jump\t// out\n        /* \"#utility.yul\":14734:14955   */\n    tag_314:\n        /* \"#utility.yul\":14874:14908   */\n      0x45524332303a20617070726f766520746f20746865207a65726f206164647265\n        /* \"#utility.yul\":14870:14871   */\n      0x00\n        /* \"#utility.yul\":14862:14868   */\n      dup3\n        /* \"#utility.yul\":14858:14872   */\n      add\n        /* \"#utility.yul\":14851:14909   */\n      mstore\n        /* \"#utility.yul\":14943:14947   */\n      0x7373000000000000000000000000000000000000000000000000000000000000\n        /* \"#utility.yul\":14938:14940   */\n      0x20\n        /* \"#utility.yul\":14930:14936   */\n      dup3\n        /* \"#utility.yul\":14926:14941   */\n      add\n        /* \"#utility.yul\":14919:14948   */\n      mstore\n        /* \"#utility.yul\":14734:14955   */\n      pop\n      jump\t// out\n        /* \"#utility.yul\":14961:15327   */\n    tag_315:\n        /* \"#utility.yul\":15103:15106   */\n      0x00\n        /* \"#utility.yul\":15124:15191   */\n      tag_471\n        /* \"#utility.yul\":15188:15190   */\n      0x22\n        /* \"#utility.yul\":15183:15186   */\n      dup4\n        /* \"#utility.yul\":15124:15191   */\n      tag_282\n      jump\t// in\n    tag_471:\n        /* \"#utility.yul\":15117:15191   */\n      swap2\n      pop\n        /* \"#utility.yul\":15200:15293   */\n      tag_472\n        /* \"#utility.yul\":15289:15292   */\n      dup3\n        /* \"#utility.yul\":15200:15293   */\n      tag_314\n      jump\t// in\n    tag_472:\n        /* \"#utility.yul\":15318:15320   */\n      0x40\n        /* \"#utility.yul\":15313:15316   */\n      dup3\n        /* \"#utility.yul\":15309:15321   */\n      add\n        /* \"#utility.yul\":15302:15321   */\n      swap1\n      pop\n        /* \"#utility.yul\":14961:15327   */\n      swap2\n      swap1\n      pop\n      jump\t// out\n        /* \"#utility.yul\":15333:15752   */\n    tag_229:\n        /* \"#utility.yul\":15499:15503   */\n      0x00\n        /* \"#utility.yul\":15537:15539   */\n      0x20\n        /* \"#utility.yul\":15526:15535   */\n      dup3\n        /* \"#utility.yul\":15522:15540   */\n      add\n        /* \"#utility.yul\":15514:15540   */\n      swap1\n      pop\n        /* \"#utility.yul\":15586:15595   */\n      dup2\n        /* \"#utility.yul\":15580:15584   */\n      dup2\n        /* \"#utility.yul\":15576:15596   */\n      sub\n        /* \"#utility.yul\":15572:15573   */\n      0x00\n        /* \"#utility.yul\":15561:15570   */\n      dup4\n        /* \"#utility.yul\":15557:15574   */\n      add\n        /* \"#utility.yul\":15550:15597   */\n      mstore\n        /* \"#utility.yul\":15614:15745   */\n      tag_474\n        /* \"#utility.yul\":15740:15744   */\n      dup2\n        /* \"#utility.yul\":15614:15745   */\n      tag_315\n      jump\t// in\n    tag_474:\n        /* \"#utility.yul\":15606:15745   */\n      swap1\n      pop\n        /* \"#utility.yul\":15333:15752   */\n      swap2\n      swap1\n      pop\n      jump\t// out\n        /* \"#utility.yul\":15758:15937   */\n    tag_316:\n        /* \"#utility.yul\":15898:15929   */\n      0x45524332303a20696e73756666696369656e7420616c6c6f77616e6365000000\n        /* \"#utility.yul\":15894:15895   */\n      0x00\n        /* \"#utility.yul\":15886:15892   */\n      dup3\n        /* \"#utility.yul\":15882:15896   */\n      add\n        /* \"#utility.yul\":15875:15930   */\n      mstore\n        /* \"#utility.yul\":15758:15937   */\n      pop\n      jump\t// out\n        /* \"#utility.yul\":15943:16309   */\n    tag_317:\n        /* \"#utility.yul\":16085:16088   */\n      0x00\n        /* \"#utility.yul\":16106:16173   */\n      tag_477\n        /* \"#utility.yul\":16170:16172   */\n      0x1d\n        /* \"#utility.yul\":16165:16168   */\n      dup4\n        /* \"#utility.yul\":16106:16173   */\n      tag_282\n      jump\t// in\n    tag_477:\n        /* \"#utility.yul\":16099:16173   */\n      swap2\n      pop\n        /* \"#utility.yul\":16182:16275   */\n      tag_478\n        /* \"#utility.yul\":16271:16274   */\n      dup3\n        /* \"#utility.yul\":16182:16275   */\n      tag_316\n      jump\t// in\n    tag_478:\n        /* \"#utility.yul\":16300:16302   */\n      0x20\n        /* \"#utility.yul\":16295:16298   */\n      dup3\n        /* \"#utility.yul\":16291:16303   */\n      add\n        /* \"#utility.yul\":16284:16303   */\n      swap1\n      pop\n        /* \"#utility.yul\":15943:16309   */\n      swap2\n      swap1\n      pop\n      jump\t// out\n        /* \"#utility.yul\":16315:16734   */\n    tag_236:\n        /* \"#utility.yul\":16481:16485   */\n      0x00\n        /* \"#utility.yul\":16519:16521   */\n      0x20\n        /* \"#utility.yul\":16508:16517   */\n      dup3\n        /* \"#utility.yul\":16504:16522   */\n      add\n        /* \"#utility.yul\":16496:16522   */\n      swap1\n      pop\n        /* \"#utility.yul\":16568:16577   */\n      dup2\n        /* \"#utility.yul\":16562:16566   */\n      dup2\n        /* \"#utility.yul\":16558:16578   */\n      sub\n        /* \"#utility.yul\":16554:16555   */\n      0x00\n        /* \"#utility.yul\":16543:16552   */\n      dup4\n        /* \"#utility.yul\":16539:16556   */\n      add\n        /* \"#utility.yul\":16532:16579   */\n      mstore\n        /* \"#utility.yul\":16596:16727   */\n      tag_480\n        /* \"#utility.yul\":16722:16726   */\n      dup2\n        /* \"#utility.yul\":16596:16727   */\n      tag_317\n      jump\t// in\n    tag_480:\n        /* \"#utility.yul\":16588:16727   */\n      swap1\n      pop\n        /* \"#utility.yul\":16315:16734   */\n      swap2\n      swap1\n      pop\n      jump\t// out\n        /* \"#utility.yul\":16740:16964   */\n    tag_318:\n        /* \"#utility.yul\":16880:16914   */\n      0x45524332303a207472616e736665722066726f6d20746865207a65726f206164\n        /* \"#utility.yul\":16876:16877   */\n      0x00\n        /* \"#utility.yul\":16868:16874   */\n      dup3\n        /* \"#utility.yul\":16864:16878   */\n      add\n        /* \"#utility.yul\":16857:16915   */\n      mstore\n        /* \"#utility.yul\":16949:16956   */\n      0x6472657373000000000000000000000000000000000000000000000000000000\n        /* \"#utility.yul\":16944:16946   */\n      0x20\n        /* \"#utility.yul\":16936:16942   */\n      dup3\n        /* \"#utility.yul\":16932:16947   */\n      add\n        /* \"#utility.yul\":16925:16957   */\n      mstore\n        /* \"#utility.yul\":16740:16964   */\n      pop\n      jump\t// out\n        /* \"#utility.yul\":16970:17336   */\n    tag_319:\n        /* \"#utility.yul\":17112:17115   */\n      0x00\n        /* \"#utility.yul\":17133:17200   */\n      tag_483\n        /* \"#utility.yul\":17197:17199   */\n      0x25\n        /* \"#utility.yul\":17192:17195   */\n      dup4\n        /* \"#utility.yul\":17133:17200   */\n      tag_282\n      jump\t// in\n    tag_483:\n        /* \"#utility.yul\":17126:17200   */\n      swap2\n      pop\n        /* \"#utility.yul\":17209:17302   */\n      tag_484\n        /* \"#utility.yul\":17298:17301   */\n      dup3\n        /* \"#utility.yul\":17209:17302   */\n      tag_318\n      jump\t// in\n    tag_484:\n        /* \"#utility.yul\":17327:17329   */\n      0x40\n        /* \"#utility.yul\":17322:17325   */\n      dup3\n        /* \"#utility.yul\":17318:17330   */\n      add\n        /* \"#utility.yul\":17311:17330   */\n      swap1\n      pop\n        /* \"#utility.yul\":16970:17336   */\n      swap2\n      swap1\n      pop\n      jump\t// out\n        /* \"#utility.yul\":17342:17761   */\n    tag_241:\n        /* \"#utility.yul\":17508:17512   */\n      0x00\n        /* \"#utility.yul\":17546:17548   */\n      0x20\n        /* \"#utility.yul\":17535:17544   */\n      dup3\n        /* \"#utility.yul\":17531:17549   */\n      add\n        /* \"#utility.yul\":17523:17549   */\n      swap1\n      pop\n        /* \"#utility.yul\":17595:17604   */\n      dup2\n        /* \"#utility.yul\":17589:17593   */\n      dup2\n        /* \"#utility.yul\":17585:17605   */\n      sub\n        /* \"#utility.yul\":17581:17582   */\n      0x00\n        /* \"#utility.yul\":17570:17579   */\n      dup4\n        /* \"#utility.yul\":17566:17583   */\n      add\n        /* \"#utility.yul\":17559:17606   */\n      mstore\n        /* \"#utility.yul\":17623:17754   */\n      tag_486\n        /* \"#utility.yul\":17749:17753   */\n      dup2\n        /* \"#utility.yul\":17623:17754   */\n      tag_319\n      jump\t// in\n    tag_486:\n        /* \"#utility.yul\":17615:17754   */\n      swap1\n      pop\n        /* \"#utility.yul\":17342:17761   */\n      swap2\n      swap1\n      pop\n      jump\t// out\n        /* \"#utility.yul\":17767:17989   */\n    tag_320:\n        /* \"#utility.yul\":17907:17941   */\n      0x45524332303a207472616e7366657220746f20746865207a65726f2061646472\n        /* \"#utility.yul\":17903:17904   */\n      0x00\n        /* \"#utility.yul\":17895:17901   */\n      dup3\n        /* \"#utility.yul\":17891:17905   */\n      add\n        /* \"#utility.yul\":17884:17942   */\n      mstore\n        /* \"#utility.yul\":17976:17981   */\n      0x6573730000000000000000000000000000000000000000000000000000000000\n        /* \"#utility.yul\":17971:17973   */\n      0x20\n        /* \"#utility.yul\":17963:17969   */\n      dup3\n        /* \"#utility.yul\":17959:17974   */\n      add\n        /* \"#utility.yul\":17952:17982   */\n      mstore\n        /* \"#utility.yul\":17767:17989   */\n      pop\n      jump\t// out\n        /* \"#utility.yul\":17995:18361   */\n    tag_321:\n        /* \"#utility.yul\":18137:18140   */\n      0x00\n        /* \"#utility.yul\":18158:18225   */\n      tag_489\n        /* \"#utility.yul\":18222:18224   */\n      0x23\n        /* \"#utility.yul\":18217:18220   */\n      dup4\n        /* \"#utility.yul\":18158:18225   */\n      tag_282\n      jump\t// in\n    tag_489:\n        /* \"#utility.yul\":18151:18225   */\n      swap2\n      pop\n        /* \"#utility.yul\":18234:18327   */\n      tag_490\n        /* \"#utility.yul\":18323:18326   */\n      dup3\n        /* \"#utility.yul\":18234:18327   */\n      tag_320\n      jump\t// in\n    tag_490:\n        /* \"#utility.yul\":18352:18354   */\n      0x40\n        /* \"#utility.yul\":18347:18350   */\n      dup3\n        /* \"#utility.yul\":18343:18355   */\n      add\n        /* \"#utility.yul\":18336:18355   */\n      swap1\n      pop\n        /* \"#utility.yul\":17995:18361   */\n      swap2\n      swap1\n      pop\n      jump\t// out\n        /* \"#utility.yul\":18367:18786   */\n    tag_244:\n        /* \"#utility.yul\":18533:18537   */\n      0x00\n        /* \"#utility.yul\":18571:18573   */\n      0x20\n        /* \"#utility.yul\":18560:18569   */\n      dup3\n        /* \"#utility.yul\":18556:18574   */\n      add\n        /* \"#utility.yul\":18548:18574   */\n      swap1\n      pop\n        /* \"#utility.yul\":18620:18629   */\n      dup2\n        /* \"#utility.yul\":18614:18618   */\n      dup2\n        /* \"#utility.yul\":18610:18630   */\n      sub\n        /* \"#utility.yul\":18606:18607   */\n      0x00\n        /* \"#utility.yul\":18595:18604   */\n      dup4\n        /* \"#utility.yul\":18591:18608   */\n      add\n        /* \"#utility.yul\":18584:18631   */\n      mstore\n        /* \"#utility.yul\":18648:18779   */\n      tag_492\n        /* \"#utility.yul\":18774:18778   */\n      dup2\n        /* \"#utility.yul\":18648:18779   */\n      tag_321\n      jump\t// in\n    tag_492:\n        /* \"#utility.yul\":18640:18779   */\n      swap1\n      pop\n        /* \"#utility.yul\":18367:18786   */\n      swap2\n      swap1\n      pop\n      jump\t// out\n        /* \"#utility.yul\":18792:19017   */\n    tag_322:\n        /* \"#utility.yul\":18932:18966   */\n      0x45524332303a207472616e7366657220616d6f756e7420657863656564732062\n        /* \"#utility.yul\":18928:18929   */\n      0x00\n        /* \"#utility.yul\":18920:18926   */\n      dup3\n        /* \"#utility.yul\":18916:18930   */\n      add\n        /* \"#utility.yul\":18909:18967   */\n      mstore\n        /* \"#utility.yul\":19001:19009   */\n      0x616c616e63650000000000000000000000000000000000000000000000000000\n        /* \"#utility.yul\":18996:18998   */\n      0x20\n        /* \"#utility.yul\":18988:18994   */\n      dup3\n        /* \"#utility.yul\":18984:18999   */\n      add\n        /* \"#utility.yul\":18977:19010   */\n      mstore\n        /* \"#utility.yul\":18792:19017   */\n      pop\n      jump\t// out\n        /* \"#utility.yul\":19023:19389   */\n    tag_323:\n        /* \"#utility.yul\":19165:19168   */\n      0x00\n        /* \"#utility.yul\":19186:19253   */\n      tag_495\n        /* \"#utility.yul\":19250:19252   */\n      0x26\n        /* \"#utility.yul\":19245:19248   */\n      dup4\n        /* \"#utility.yul\":19186:19253   */\n      tag_282\n      jump\t// in\n    tag_495:\n        /* \"#utility.yul\":19179:19253   */\n      swap2\n      pop\n        /* \"#utility.yul\":19262:19355   */\n      tag_496\n        /* \"#utility.yul\":19351:19354   */\n      dup3\n        /* \"#utility.yul\":19262:19355   */\n      tag_322\n      jump\t// in\n    tag_496:\n        /* \"#utility.yul\":19380:19382   */\n      0x40\n        /* \"#utility.yul\":19375:19378   */\n      dup3\n        /* \"#utility.yul\":19371:19383   */\n      add\n        /* \"#utility.yul\":19364:19383   */\n      swap1\n      pop\n        /* \"#utility.yul\":19023:19389   */\n      swap2\n      swap1\n      pop\n      jump\t// out\n        /* \"#utility.yul\":19395:19814   */\n    tag_249:\n        /* \"#utility.yul\":19561:19565   */\n      0x00\n        /* \"#utility.yul\":19599:19601   */\n      0x20\n        /* \"#utility.yul\":19588:19597   */\n      dup3\n        /* \"#utility.yul\":19584:19602   */\n      add\n        /* \"#utility.yul\":19576:19602   */\n      swap1\n      pop\n        /* \"#utility.yul\":19648:19657   */\n      dup2\n        /* \"#utility.yul\":19642:19646   */\n      dup2\n        /* \"#utility.yul\":19638:19658   */\n      sub\n        /* \"#utility.yul\":19634:19635   */\n      0x00\n        /* \"#utility.yul\":19623:19632   */\n      dup4\n        /* \"#utility.yul\":19619:19636   */\n      add\n        /* \"#utility.yul\":19612:19659   */\n      mstore\n        /* \"#utility.yul\":19676:19807   */\n      tag_498\n        /* \"#utility.yul\":19802:19806   */\n      dup2\n        /* \"#utility.yul\":19676:19807   */\n      tag_323\n      jump\t// in\n    tag_498:\n        /* \"#utility.yul\":19668:19807   */\n      swap1\n      pop\n        /* \"#utility.yul\":19395:19814   */\n      swap2\n      swap1\n      pop\n      jump\t// out\n        /* \"#utility.yul\":19820:20001   */\n    tag_324:\n        /* \"#utility.yul\":19960:19993   */\n      0x45524332303a206d696e7420746f20746865207a65726f206164647265737300\n        /* \"#utility.yul\":19956:19957   */\n      0x00\n        /* \"#utility.yul\":19948:19954   */\n      dup3\n        /* \"#utility.yul\":19944:19958   */\n      add\n        /* \"#utility.yul\":19937:19994   */\n      mstore\n        /* \"#utility.yul\":19820:20001   */\n      pop\n      jump\t// out\n        /* \"#utility.yul\":20007:20373   */\n    tag_325:\n        /* \"#utility.yul\":20149:20152   */\n      0x00\n        /* \"#utility.yul\":20170:20237   */\n      tag_501\n        /* \"#utility.yul\":20234:20236   */\n      0x1f\n        /* \"#utility.yul\":20229:20232   */\n      dup4\n        /* \"#utility.yul\":20170:20237   */\n      tag_282\n      jump\t// in\n    tag_501:\n        /* \"#utility.yul\":20163:20237   */\n      swap2\n      pop\n        /* \"#utility.yul\":20246:20339   */\n      tag_502\n        /* \"#utility.yul\":20335:20338   */\n      dup3\n        /* \"#utility.yul\":20246:20339   */\n      tag_324\n      jump\t// in\n    tag_502:\n        /* \"#utility.yul\":20364:20366   */\n      0x20\n        /* \"#utility.yul\":20359:20362   */\n      dup3\n        /* \"#utility.yul\":20355:20367   */\n      add\n        /* \"#utility.yul\":20348:20367   */\n      swap1\n      pop\n        /* \"#utility.yul\":20007:20373   */\n      swap2\n      swap1\n      pop\n      jump\t// out\n        /* \"#utility.yul\":20379:20798   */\n    tag_257:\n        /* \"#utility.yul\":20545:20549   */\n      0x00\n        /* \"#utility.yul\":20583:20585   */\n      0x20\n        /* \"#utility.yul\":20572:20581   */\n      dup3\n        /* \"#utility.yul\":20568:20586   */\n      add\n        /* \"#utility.yul\":20560:20586   */\n      swap1\n      pop\n        /* \"#utility.yul\":20632:20641   */\n      dup2\n        /* \"#utility.yul\":20626:20630   */\n      dup2\n        /* \"#utility.yul\":20622:20642   */\n      sub\n        /* \"#utility.yul\":20618:20619   */\n      0x00\n        /* \"#utility.yul\":20607:20616   */\n      dup4\n        /* \"#utility.yul\":20603:20620   */\n      add\n        /* \"#utility.yul\":20596:20643   */\n      mstore\n        /* \"#utility.yul\":20660:20791   */\n      tag_504\n        /* \"#utility.yul\":20786:20790   */\n      dup2\n        /* \"#utility.yul\":20660:20791   */\n      tag_325\n      jump\t// in\n    tag_504:\n        /* \"#utility.yul\":20652:20791   */\n      swap1\n      pop\n        /* \"#utility.yul\":20379:20798   */\n      swap2\n      swap1\n      pop\n      jump\t// out\n        /* \"#utility.yul\":20804:21024   */\n    tag_326:\n        /* \"#utility.yul\":20944:20978   */\n      0x45524332303a206275726e2066726f6d20746865207a65726f20616464726573\n        /* \"#utility.yul\":20940:20941   */\n      0x00\n        /* \"#utility.yul\":20932:20938   */\n      dup3\n        /* \"#utility.yul\":20928:20942   */\n      add\n        /* \"#utility.yul\":20921:20979   */\n      mstore\n        /* \"#utility.yul\":21013:21016   */\n      0x7300000000000000000000000000000000000000000000000000000000000000\n        /* \"#utility.yul\":21008:21010   */\n      0x20\n        /* \"#utility.yul\":21000:21006   */\n      dup3\n        /* \"#utility.yul\":20996:21011   */\n      add\n        /* \"#utility.yul\":20989:21017   */\n      mstore\n        /* \"#utility.yul\":20804:21024   */\n      pop\n      jump\t// out\n        /* \"#utility.yul\":21030:21396   */\n    tag_327:\n        /* \"#utility.yul\":21172:21175   */\n      0x00\n        /* \"#utility.yul\":21193:21260   */\n      tag_507\n        /* \"#utility.yul\":21257:21259   */\n      0x21\n        /* \"#utility.yul\":21252:21255   */\n      dup4\n        /* \"#utility.yul\":21193:21260   */\n      tag_282\n      jump\t// in\n    tag_507:\n        /* \"#utility.yul\":21186:21260   */\n      swap2\n      pop\n        /* \"#utility.yul\":21269:21362   */\n      tag_508\n        /* \"#utility.yul\":21358:21361   */\n      dup3\n        /* \"#utility.yul\":21269:21362   */\n      tag_326\n      jump\t// in\n    tag_508:\n        /* \"#utility.yul\":21387:21389   */\n      0x40\n        /* \"#utility.yul\":21382:21385   */\n      dup3\n        /* \"#utility.yul\":21378:21390   */\n      add\n        /* \"#utility.yul\":21371:21390   */\n      swap1\n      pop\n        /* \"#utility.yul\":21030:21396   */\n      swap2\n      swap1\n      pop\n      jump\t// out\n        /* \"#utility.yul\":21402:21821   */\n    tag_265:\n        /* \"#utility.yul\":21568:21572   */\n      0x00\n        /* \"#utility.yul\":21606:21608   */\n      0x20\n        /* \"#utility.yul\":21595:21604   */\n      dup3\n        /* \"#utility.yul\":21591:21609   */\n      add\n        /* \"#utility.yul\":21583:21609   */\n      swap1\n      pop\n        /* \"#utility.yul\":21655:21664   */\n      dup2\n        /* \"#utility.yul\":21649:21653   */\n      dup2\n        /* \"#utility.yul\":21645:21665   */\n      sub\n        /* \"#utility.yul\":21641:21642   */\n      0x00\n        /* \"#utility.yul\":21630:21639   */\n      dup4\n        /* \"#utility.yul\":21626:21643   */\n      add\n        /* \"#utility.yul\":21619:21666   */\n      mstore\n        /* \"#utility.yul\":21683:21814   */\n      tag_510\n        /* \"#utility.yul\":21809:21813   */\n      dup2\n        /* \"#utility.yul\":21683:21814   */\n      tag_327\n      jump\t// in\n    tag_510:\n        /* \"#utility.yul\":21675:21814   */\n      swap1\n      pop\n        /* \"#utility.yul\":21402:21821   */\n      swap2\n      swap1\n      pop\n      jump\t// out\n        /* \"#utility.yul\":21827:22048   */\n    tag_328:\n        /* \"#utility.yul\":21967:22001   */\n      0x45524332303a206275726e20616d6f756e7420657863656564732062616c616e\n        /* \"#utility.yul\":21963:21964   */\n      0x00\n        /* \"#utility.yul\":21955:21961   */\n      dup3\n        /* \"#utility.yul\":21951:21965   */\n      add\n        /* \"#utility.yul\":21944:22002   */\n      mstore\n        /* \"#utility.yul\":22036:22040   */\n      0x6365000000000000000000000000000000000000000000000000000000000000\n        /* \"#utility.yul\":22031:22033   */\n      0x20\n        /* \"#utility.yul\":22023:22029   */\n      dup3\n        /* \"#utility.yul\":22019:22034   */\n      add\n        /* \"#utility.yul\":22012:22041   */\n      mstore\n        /* \"#utility.yul\":21827:22048   */\n      pop\n      jump\t// out\n        /* \"#utility.yul\":22054:22420   */\n    tag_329:\n        /* \"#utility.yul\":22196:22199   */\n      0x00\n        /* \"#utility.yul\":22217:22284   */\n      tag_513\n        /* \"#utility.yul\":22281:22283   */\n      0x22\n        /* \"#utility.yul\":22276:22279   */\n      dup4\n        /* \"#utility.yul\":22217:22284   */\n      tag_282\n      jump\t// in\n    tag_513:\n        /* \"#utility.yul\":22210:22284   */\n      swap2\n      pop\n        /* \"#utility.yul\":22293:22386   */\n      tag_514\n        /* \"#utility.yul\":22382:22385   */\n      dup3\n        /* \"#utility.yul\":22293:22386   */\n      tag_328\n      jump\t// in\n    tag_514:\n        /* \"#utility.yul\":22411:22413   */\n      0x40\n        /* \"#utility.yul\":22406:22409   */\n      dup3\n        /* \"#utility.yul\":22402:22414   */\n      add\n        /* \"#utility.yul\":22395:22414   */\n      swap1\n      pop\n        /* \"#utility.yul\":22054:22420   */\n      swap2\n      swap1\n      pop\n      jump\t// out\n        /* \"#utility.yul\":22426:22845   */\n    tag_269:\n        /* \"#utility.yul\":22592:22596   */\n      0x00\n        /* \"#utility.yul\":22630:22632   */\n      0x20\n        /* \"#utility.yul\":22619:22628   */\n      dup3\n        /* \"#utility.yul\":22615:22633   */\n      add\n        /* \"#utility.yul\":22607:22633   */\n      swap1\n      pop\n        /* \"#utility.yul\":22679:22688   */\n      dup2\n        /* \"#utility.yul\":22673:22677   */\n      dup2\n        /* \"#utility.yul\":22669:22689   */\n      sub\n        /* \"#utility.yul\":22665:22666   */\n      0x00\n        /* \"#utility.yul\":22654:22663   */\n      dup4\n        /* \"#utility.yul\":22650:22667   */\n      add\n        /* \"#utility.yul\":22643:22690   */\n      mstore\n        /* \"#utility.yul\":22707:22838   */\n      tag_516\n        /* \"#utility.yul\":22833:22837   */\n      dup2\n        /* \"#utility.yul\":22707:22838   */\n      tag_329\n      jump\t// in\n    tag_516:\n        /* \"#utility.yul\":22699:22838   */\n      swap1\n      pop\n        /* \"#utility.yul\":22426:22845   */\n      swap2\n      swap1\n      pop\n      jump\t// out\n\n    auxdata: 0xa2646970667358221220a1b02f24895c3d19470ed2f5bb3177d9c40a347e92d954ce73aac6217798e5ed64736f6c63430008130033\n}\n",
				"bytecode": {
					"linkReferences": {},
					"object": "60806040523480156200001157600080fd5b506040518060400160405280600781526020017f53686f436f696e000000000000000000000000000000000000000000000000008152506040518060400160405280600481526020017f53484f430000000000000000000000000000000000000000000000000000000081525081600390816200008f9190620004ae565b508060049081620000a19190620004ae565b505050620000c4620000b86200013c60201b60201c565b6200014460201b60201c565b6006620000d66200020a60201b60201c565b9080600181540180825580915050600190039060005260206000200160009091909190916101000a81548173ffffffffffffffffffffffffffffffffffffffff021916908373ffffffffffffffffffffffffffffffffffffffff16021790555062000595565b600033905090565b6000600560009054906101000a900473ffffffffffffffffffffffffffffffffffffffff16905081600560006101000a81548173ffffffffffffffffffffffffffffffffffffffff021916908373ffffffffffffffffffffffffffffffffffffffff1602179055508173ffffffffffffffffffffffffffffffffffffffff168173ffffffffffffffffffffffffffffffffffffffff167f8be0079c531659141344cd1fd0a4f28419497f9722a3daafe3b4186f6b6457e060405160405180910390a35050565b6000600560009054906101000a900473ffffffffffffffffffffffffffffffffffffffff16905090565b600081519050919050565b7f4e487b7100000000000000000000000000000000000000000000000000000000600052604160045260246000fd5b7f4e487b7100000000000000000000000000000000000000000000000000000000600052602260045260246000fd5b60006002820490506001821680620002b657607f821691505b602082108103620002cc57620002cb6200026e565b5b50919050565b60008190508160005260206000209050919050565b60006020601f8301049050919050565b600082821b905092915050565b600060088302620003367fffffffffffffffffffffffffffffffffffffffffffffffffffffffffffffffff82620002f7565b620003428683620002f7565b95508019841693508086168417925050509392505050565b6000819050919050565b6000819050919050565b60006200038f6200038962000383846200035a565b62000364565b6200035a565b9050919050565b6000819050919050565b620003ab836200036e565b620003c3620003ba8262000396565b84845462000304565b825550505050565b600090565b620003da620003cb565b620003e7818484620003a0565b505050565b5b818110156200040f5762000403600082620003d0565b600181019050620003ed565b5050565b601f8211156200045e576200042881620002d2565b6200043384620002e7565b8101602085101562000443578190505b6200045b6200045285620002e7565b830182620003ec565b50505b505050565b600082821c905092915050565b6000620004836000198460080262000463565b1980831691505092915050565b60006200049e838362000470565b9150826002028217905092915050565b620004b98262000234565b67ffffffffffffffff811115620004d557620004d46200023f565b5b620004e182546200029d565b620004ee82828562000413565b600060209050601f83116001811462000526576000841562000511578287015190505b6200051d858262000490565b8655506200058d565b601f1984166200053686620002d2565b60005b82811015620005605784890151825560018201915060208501945060208101905062000539565b868310156200058057848901516200057c601f89168262000470565b8355505b6001600288020188555050505b505050505050565b61212080620005a56000396000f3fe608060405234801561001057600080fd5b506004361061012c5760003560e01c80638da5cb5b116100ad578063b78376e911610071578063b78376e914610347578063c290d69114610363578063d9fcefdd1461037f578063dd62ed3e146103af578063f2fde38b146103df5761012c565b80638da5cb5b1461028f57806395d89b41146102ad578063a0712d68146102cb578063a457c2d7146102e7578063a9059cbb146103175761012c565b806323b872dd116100f457806323b872dd146101d7578063313ce56714610207578063395093511461022557806370a0823114610255578063715018a6146102855761012c565b8063048f16271461013157806306fdde031461014d578063095ea7b31461016b5780631055d7081461019b57806318160ddd146101b9575b600080fd5b61014b60048036038101906101469190611528565b6103fb565b005b6101556104dd565b60405161016291906115e5565b60405180910390f35b6101856004803603810190610180919061163d565b61056f565b6040516101929190611698565b60405180910390f35b6101a3610592565b6040516101b09190611771565b60405180910390f35b6101c1610620565b6040516101ce91906117a2565b60405180910390f35b6101f160048036038101906101ec91906117bd565b61062a565b6040516101fe9190611698565b60405180910390f35b61020f610659565b60405161021c919061182c565b60405180910390f35b61023f600480360381019061023a919061163d565b610662565b60405161024c9190611698565b60405180910390f35b61026f600480360381019061026a9190611528565b610699565b60405161027c91906117a2565b60405180910390f35b61028d6106e1565b005b6102976106f5565b6040516102a49190611856565b60405180910390f35b6102b561071f565b6040516102c291906115e5565b60405180910390f35b6102e560048036038101906102e09190611871565b6107b1565b005b61030160048036038101906102fc919061163d565b6107cd565b60405161030e9190611698565b60405180910390f35b610331600480360381019061032c919061163d565b610844565b60405161033e9190611698565b60405180910390f35b610361600480360381019061035c9190611528565b610867565b005b61037d60048036038101906103789190611871565b6108d5565b005b61039960048036038101906103949190611528565b6109c9565b6040516103a69190611698565b60405180910390f35b6103c960048036038101906103c4919061189e565b610a77565b6040516103d691906117a2565b60405180910390f35b6103f960048036038101906103f49190611528565b610afe565b005b610403610b81565b60005b6006805490508110156104d95760068181548110610427576104266118de565b5b9060005260206000200160009054906101000a900473ffffffffffffffffffffffffffffffffffffffff1673ffffffffffffffffffffffffffffffffffffffff168273ffffffffffffffffffffffffffffffffffffffff16036104c65760068181548110610498576104976118de565b5b9060005260206000200160006101000a81549073ffffffffffffffffffffffffffffffffffffffff02191690555b80806104d19061193c565b915050610406565b5050565b6060600380546104ec906119b3565b80601f0160208091040260200160405190810160405280929190818152602001828054610518906119b3565b80156105655780601f1061053a57610100808354040283529160200191610565565b820191906000526020600020905b81548152906001019060200180831161054857829003601f168201915b5050505050905090565b60008061057a610bff565b9050610587818585610c07565b600191505092915050565b6060600680548060200260200160405190810160405280929190818152602001828054801561061657602002820191906000526020600020905b8160009054906101000a900473ffffffffffffffffffffffffffffffffffffffff1673ffffffffffffffffffffffffffffffffffffffff16815260200190600101908083116105cc575b5050505050905090565b6000600254905090565b600080610635610bff565b9050610642858285610dd0565b61064d858585610e5c565b60019150509392505050565b60006012905090565b60008061066d610bff565b905061068e81858561067f8589610a77565b61068991906119e4565b610c07565b600191505092915050565b60008060008373ffffffffffffffffffffffffffffffffffffffff1673ffffffffffffffffffffffffffffffffffffffff168152602001908152602001600020549050919050565b6106e9610b81565b6106f360006110d2565b565b6000600560009054906101000a900473ffffffffffffffffffffffffffffffffffffffff16905090565b60606004805461072e906119b3565b80601f016020809104026020016040519081016040528092919081815260200182805461075a906119b3565b80156107a75780601f1061077c576101008083540402835291602001916107a7565b820191906000526020600020905b81548152906001019060200180831161078a57829003601f168201915b5050505050905090565b6107b9610b81565b6107ca6107c46106f5565b82611198565b50565b6000806107d8610bff565b905060006107e68286610a77565b90508381101561082b576040517f08c379a000000000000000000000000000000000000000000000000000000000815260040161082290611a8a565b60405180910390fd5b6108388286868403610c07565b60019250505092915050565b60008061084f610bff565b905061085c818585610e5c565b600191505092915050565b61086f610b81565b6006819080600181540180825580915050600190039060005260206000200160009091909190916101000a81548173ffffffffffffffffffffffffffffffffffffffff021916908373ffffffffffffffffffffffffffffffffffffffff16021790555050565b6000805b600680549050811015610973573373ffffffffffffffffffffffffffffffffffffffff1660068281548110610911576109106118de565b5b9060005260206000200160009054906101000a900473ffffffffffffffffffffffffffffffffffffffff1673ffffffffffffffffffffffffffffffffffffffff16036109605760019150610973565b808061096b9061193c565b9150506108d9565b50806109b4576040517f08c379a00000000000000000000000000000000000000000000000000000000081526004016109ab90611af6565b60405180910390fd5b6109c56109bf6106f5565b836112ee565b5050565b600080600090505b600680549050811015610a6c57600681815481106109f2576109f16118de565b5b9060005260206000200160009054906101000a900473ffffffffffffffffffffffffffffffffffffffff1673ffffffffffffffffffffffffffffffffffffffff168373ffffffffffffffffffffffffffffffffffffffff1603610a59576001915050610a72565b8080610a649061193c565b9150506109d1565b50600090505b919050565b6000600160008473ffffffffffffffffffffffffffffffffffffffff1673ffffffffffffffffffffffffffffffffffffffff16815260200190815260200160002060008373ffffffffffffffffffffffffffffffffffffffff1673ffffffffffffffffffffffffffffffffffffffff16815260200190815260200160002054905092915050565b610b06610b81565b600073ffffffffffffffffffffffffffffffffffffffff168173ffffffffffffffffffffffffffffffffffffffff1603610b75576040517f08c379a0000000000000000000000000000000000000000000000000000000008152600401610b6c90611b88565b60405180910390fd5b610b7e816110d2565b50565b610b89610bff565b73ffffffffffffffffffffffffffffffffffffffff16610ba76106f5565b73ffffffffffffffffffffffffffffffffffffffff1614610bfd576040517f08c379a0000000000000000000000000000000000000000000000000000000008152600401610bf490611bf4565b60405180910390fd5b565b600033905090565b600073ffffffffffffffffffffffffffffffffffffffff168373ffffffffffffffffffffffffffffffffffffffff1603610c76576040517f08c379a0000000000000000000000000000000000000000000000000000000008152600401610c6d90611c86565b60405180910390fd5b600073ffffffffffffffffffffffffffffffffffffffff168273ffffffffffffffffffffffffffffffffffffffff1603610ce5576040517f08c379a0000000000000000000000000000000000000000000000000000000008152600401610cdc90611d18565b60405180910390fd5b80600160008573ffffffffffffffffffffffffffffffffffffffff1673ffffffffffffffffffffffffffffffffffffffff16815260200190815260200160002060008473ffffffffffffffffffffffffffffffffffffffff1673ffffffffffffffffffffffffffffffffffffffff168152602001908152602001600020819055508173ffffffffffffffffffffffffffffffffffffffff168373ffffffffffffffffffffffffffffffffffffffff167f8c5be1e5ebec7d5bd14f71427d1e84f3dd0314c0f7b2291e5b200ac8c7c3b92583604051610dc391906117a2565b60405180910390a3505050565b6000610ddc8484610a77565b90507fffffffffffffffffffffffffffffffffffffffffffffffffffffffffffffffff8114610e565781811015610e48576040517f08c379a0000000000000000000000000000000000000000000000000000000008152600401610e3f90611d84565b60405180910390fd5b610e558484848403610c07565b5b50505050565b600073ffffffffffffffffffffffffffffffffffffffff168373ffffffffffffffffffffffffffffffffffffffff1603610ecb576040517f08c379a0000000000000000000000000000000000000000000000000000000008152600401610ec290611e16565b60405180910390fd5b600073ffffffffffffffffffffffffffffffffffffffff168273ffffffffffffffffffffffffffffffffffffffff1603610f3a576040517f08c379a0000000000000000000000000000000000000000000000000000000008152600401610f3190611ea8565b60405180910390fd5b610f458383836114bb565b60008060008573ffffffffffffffffffffffffffffffffffffffff1673ffffffffffffffffffffffffffffffffffffffff16815260200190815260200160002054905081811015610fcb576040517f08c379a0000000000000000000000000000000000000000000000000000000008152600401610fc290611f3a565b60405180910390fd5b8181036000808673ffffffffffffffffffffffffffffffffffffffff1673ffffffffffffffffffffffffffffffffffffffff16815260200190815260200160002081905550816000808573ffffffffffffffffffffffffffffffffffffffff1673ffffffffffffffffffffffffffffffffffffffff168152602001908152602001600020600082825401925050819055508273ffffffffffffffffffffffffffffffffffffffff168473ffffffffffffffffffffffffffffffffffffffff167fddf252ad1be2c89b69c2b068fc378daa952ba7f163c4a11628f55a4df523b3ef846040516110b991906117a2565b60405180910390a36110cc8484846114c0565b50505050565b6000600560009054906101000a900473ffffffffffffffffffffffffffffffffffffffff16905081600560006101000a81548173ffffffffffffffffffffffffffffffffffffffff021916908373ffffffffffffffffffffffffffffffffffffffff1602179055508173ffffffffffffffffffffffffffffffffffffffff168173ffffffffffffffffffffffffffffffffffffffff167f8be0079c531659141344cd1fd0a4f28419497f9722a3daafe3b4186f6b6457e060405160405180910390a35050565b600073ffffffffffffffffffffffffffffffffffffffff168273ffffffffffffffffffffffffffffffffffffffff1603611207576040517f08c379a00000000000000000000000000000000000000000000000000000000081526004016111fe90611fa6565b60405180910390fd5b611213600083836114bb565b806002600082825461122591906119e4565b92505081905550806000808473ffffffffffffffffffffffffffffffffffffffff1673ffffffffffffffffffffffffffffffffffffffff168152602001908152602001600020600082825401925050819055508173ffffffffffffffffffffffffffffffffffffffff16600073ffffffffffffffffffffffffffffffffffffffff167fddf252ad1be2c89b69c2b068fc378daa952ba7f163c4a11628f55a4df523b3ef836040516112d691906117a2565b60405180910390a36112ea600083836114c0565b5050565b600073ffffffffffffffffffffffffffffffffffffffff168273ffffffffffffffffffffffffffffffffffffffff160361135d576040517f08c379a000000000000000000000000000000000000000000000000000000000815260040161135490612038565b60405180910390fd5b611369826000836114bb565b60008060008473ffffffffffffffffffffffffffffffffffffffff1673ffffffffffffffffffffffffffffffffffffffff168152602001908152602001600020549050818110156113ef576040517f08c379a00000000000000000000000000000000000000000000000000000000081526004016113e6906120ca565b60405180910390fd5b8181036000808573ffffffffffffffffffffffffffffffffffffffff1673ffffffffffffffffffffffffffffffffffffffff1681526020019081526020016000208190555081600260008282540392505081905550600073ffffffffffffffffffffffffffffffffffffffff168373ffffffffffffffffffffffffffffffffffffffff167fddf252ad1be2c89b69c2b068fc378daa952ba7f163c4a11628f55a4df523b3ef846040516114a291906117a2565b60405180910390a36114b6836000846114c0565b505050565b505050565b505050565b600080fd5b600073ffffffffffffffffffffffffffffffffffffffff82169050919050565b60006114f5826114ca565b9050919050565b611505816114ea565b811461151057600080fd5b50565b600081359050611522816114fc565b92915050565b60006020828403121561153e5761153d6114c5565b5b600061154c84828501611513565b91505092915050565b600081519050919050565b600082825260208201905092915050565b60005b8381101561158f578082015181840152602081019050611574565b60008484015250505050565b6000601f19601f8301169050919050565b60006115b782611555565b6115c18185611560565b93506115d1818560208601611571565b6115da8161159b565b840191505092915050565b600060208201905081810360008301526115ff81846115ac565b905092915050565b6000819050919050565b61161a81611607565b811461162557600080fd5b50565b60008135905061163781611611565b92915050565b60008060408385031215611654576116536114c5565b5b600061166285828601611513565b925050602061167385828601611628565b9150509250929050565b60008115159050919050565b6116928161167d565b82525050565b60006020820190506116ad6000830184611689565b92915050565b600081519050919050565b600082825260208201905092915050565b6000819050602082019050919050565b6116e8816114ea565b82525050565b60006116fa83836116df565b60208301905092915050565b6000602082019050919050565b600061171e826116b3565b61172881856116be565b9350611733836116cf565b8060005b8381101561176457815161174b88826116ee565b975061175683611706565b925050600181019050611737565b5085935050505092915050565b6000602082019050818103600083015261178b8184611713565b905092915050565b61179c81611607565b82525050565b60006020820190506117b76000830184611793565b92915050565b6000806000606084860312156117d6576117d56114c5565b5b60006117e486828701611513565b93505060206117f586828701611513565b925050604061180686828701611628565b9150509250925092565b600060ff82169050919050565b61182681611810565b82525050565b6000602082019050611841600083018461181d565b92915050565b611850816114ea565b82525050565b600060208201905061186b6000830184611847565b92915050565b600060208284031215611887576118866114c5565b5b600061189584828501611628565b91505092915050565b600080604083850312156118b5576118b46114c5565b5b60006118c385828601611513565b92505060206118d485828601611513565b9150509250929050565b7f4e487b7100000000000000000000000000000000000000000000000000000000600052603260045260246000fd5b7f4e487b7100000000000000000000000000000000000000000000000000000000600052601160045260246000fd5b600061194782611607565b91507fffffffffffffffffffffffffffffffffffffffffffffffffffffffffffffffff82036119795761197861190d565b5b600182019050919050565b7f4e487b7100000000000000000000000000000000000000000000000000000000600052602260045260246000fd5b600060028204905060018216806119cb57607f821691505b6020821081036119de576119dd611984565b5b50919050565b60006119ef82611607565b91506119fa83611607565b9250828201905080821115611a1257611a1161190d565b5b92915050565b7f45524332303a2064656372656173656420616c6c6f77616e63652062656c6f7760008201527f207a65726f000000000000000000000000000000000000000000000000000000602082015250565b6000611a74602583611560565b9150611a7f82611a18565b604082019050919050565b60006020820190508181036000830152611aa381611a67565b9050919050565b7f6d73672e73656e646572206973206e6f74207468652070617965720000000000600082015250565b6000611ae0601b83611560565b9150611aeb82611aaa565b602082019050919050565b60006020820190508181036000830152611b0f81611ad3565b9050919050565b7f4f776e61626c653a206e6577206f776e657220697320746865207a65726f206160008201527f6464726573730000000000000000000000000000000000000000000000000000602082015250565b6000611b72602683611560565b9150611b7d82611b16565b604082019050919050565b60006020820190508181036000830152611ba181611b65565b9050919050565b7f4f776e61626c653a2063616c6c6572206973206e6f7420746865206f776e6572600082015250565b6000611bde602083611560565b9150611be982611ba8565b602082019050919050565b60006020820190508181036000830152611c0d81611bd1565b9050919050565b7f45524332303a20617070726f76652066726f6d20746865207a65726f2061646460008201527f7265737300000000000000000000000000000000000000000000000000000000602082015250565b6000611c70602483611560565b9150611c7b82611c14565b604082019050919050565b60006020820190508181036000830152611c9f81611c63565b9050919050565b7f45524332303a20617070726f766520746f20746865207a65726f20616464726560008201527f7373000000000000000000000000000000000000000000000000000000000000602082015250565b6000611d02602283611560565b9150611d0d82611ca6565b604082019050919050565b60006020820190508181036000830152611d3181611cf5565b9050919050565b7f45524332303a20696e73756666696369656e7420616c6c6f77616e6365000000600082015250565b6000611d6e601d83611560565b9150611d7982611d38565b602082019050919050565b60006020820190508181036000830152611d9d81611d61565b9050919050565b7f45524332303a207472616e736665722066726f6d20746865207a65726f20616460008201527f6472657373000000000000000000000000000000000000000000000000000000602082015250565b6000611e00602583611560565b9150611e0b82611da4565b604082019050919050565b60006020820190508181036000830152611e2f81611df3565b9050919050565b7f45524332303a207472616e7366657220746f20746865207a65726f206164647260008201527f6573730000000000000000000000000000000000000000000000000000000000602082015250565b6000611e92602383611560565b9150611e9d82611e36565b604082019050919050565b60006020820190508181036000830152611ec181611e85565b9050919050565b7f45524332303a207472616e7366657220616d6f756e742065786365656473206260008201527f616c616e63650000000000000000000000000000000000000000000000000000602082015250565b6000611f24602683611560565b9150611f2f82611ec8565b604082019050919050565b60006020820190508181036000830152611f5381611f17565b9050919050565b7f45524332303a206d696e7420746f20746865207a65726f206164647265737300600082015250565b6000611f90601f83611560565b9150611f9b82611f5a565b602082019050919050565b60006020820190508181036000830152611fbf81611f83565b9050919050565b7f45524332303a206275726e2066726f6d20746865207a65726f2061646472657360008201527f7300000000000000000000000000000000000000000000000000000000000000602082015250565b6000612022602183611560565b915061202d82611fc6565b604082019050919050565b6000602082019050818103600083015261205181612015565b9050919050565b7f45524332303a206275726e20616d6f756e7420657863656564732062616c616e60008201527f6365000000000000000000000000000000000000000000000000000000000000602082015250565b60006120b4602283611560565b91506120bf82612058565b604082019050919050565b600060208201905081810360008301526120e3816120a7565b905091905056fea2646970667358221220a1b02f24895c3d19470ed2f5bb3177d9c40a347e92d954ce73aac6217798e5ed64736f6c63430008130033",
					"opcodes": "PUSH1 0x80 PUSH1 0x40 MSTORE CALLVALUE DUP1 ISZERO PUSH3 0x11 JUMPI PUSH1 0x0 DUP1 REVERT JUMPDEST POP PUSH1 0x40 MLOAD DUP1 PUSH1 0x40 ADD PUSH1 0x40 MSTORE DUP1 PUSH1 0x7 DUP2 MSTORE PUSH1 0x20 ADD PUSH32 0x53686F436F696E00000000000000000000000000000000000000000000000000 DUP2 MSTORE POP PUSH1 0x40 MLOAD DUP1 PUSH1 0x40 ADD PUSH1 0x40 MSTORE DUP1 PUSH1 0x4 DUP2 MSTORE PUSH1 0x20 ADD PUSH32 0x53484F4300000000000000000000000000000000000000000000000000000000 DUP2 MSTORE POP DUP2 PUSH1 0x3 SWAP1 DUP2 PUSH3 0x8F SWAP2 SWAP1 PUSH3 0x4AE JUMP JUMPDEST POP DUP1 PUSH1 0x4 SWAP1 DUP2 PUSH3 0xA1 SWAP2 SWAP1 PUSH3 0x4AE JUMP JUMPDEST POP POP POP PUSH3 0xC4 PUSH3 0xB8 PUSH3 0x13C PUSH1 0x20 SHL PUSH1 0x20 SHR JUMP JUMPDEST PUSH3 0x144 PUSH1 0x20 SHL PUSH1 0x20 SHR JUMP JUMPDEST PUSH1 0x6 PUSH3 0xD6 PUSH3 0x20A PUSH1 0x20 SHL PUSH1 0x20 SHR JUMP JUMPDEST SWAP1 DUP1 PUSH1 0x1 DUP2 SLOAD ADD DUP1 DUP3 SSTORE DUP1 SWAP2 POP POP PUSH1 0x1 SWAP1 SUB SWAP1 PUSH1 0x0 MSTORE PUSH1 0x20 PUSH1 0x0 KECCAK256 ADD PUSH1 0x0 SWAP1 SWAP2 SWAP1 SWAP2 SWAP1 SWAP2 PUSH2 0x100 EXP DUP2 SLOAD DUP2 PUSH20 0xFFFFFFFFFFFFFFFFFFFFFFFFFFFFFFFFFFFFFFFF MUL NOT AND SWAP1 DUP4 PUSH20 0xFFFFFFFFFFFFFFFFFFFFFFFFFFFFFFFFFFFFFFFF AND MUL OR SWAP1 SSTORE POP PUSH3 0x595 JUMP JUMPDEST PUSH1 0x0 CALLER SWAP1 POP SWAP1 JUMP JUMPDEST PUSH1 0x0 PUSH1 0x5 PUSH1 0x0 SWAP1 SLOAD SWAP1 PUSH2 0x100 EXP SWAP1 DIV PUSH20 0xFFFFFFFFFFFFFFFFFFFFFFFFFFFFFFFFFFFFFFFF AND SWAP1 POP DUP2 PUSH1 0x5 PUSH1 0x0 PUSH2 0x100 EXP DUP2 SLOAD DUP2 PUSH20 0xFFFFFFFFFFFFFFFFFFFFFFFFFFFFFFFFFFFFFFFF MUL NOT AND SWAP1 DUP4 PUSH20 0xFFFFFFFFFFFFFFFFFFFFFFFFFFFFFFFFFFFFFFFF AND MUL OR SWAP1 SSTORE POP DUP2 PUSH20 0xFFFFFFFFFFFFFFFFFFFFFFFFFFFFFFFFFFFFFFFF AND DUP2 PUSH20 0xFFFFFFFFFFFFFFFFFFFFFFFFFFFFFFFFFFFFFFFF AND PUSH32 0x8BE0079C531659141344CD1FD0A4F28419497F9722A3DAAFE3B4186F6B6457E0 PUSH1 0x40 MLOAD PUSH1 0x40 MLOAD DUP1 SWAP2 SUB SWAP1 LOG3 POP POP JUMP JUMPDEST PUSH1 0x0 PUSH1 0x5 PUSH1 0x0 SWAP1 SLOAD SWAP1 PUSH2 0x100 EXP SWAP1 DIV PUSH20 0xFFFFFFFFFFFFFFFFFFFFFFFFFFFFFFFFFFFFFFFF AND SWAP1 POP SWAP1 JUMP JUMPDEST PUSH1 0x0 DUP2 MLOAD SWAP1 POP SWAP2 SWAP1 POP JUMP JUMPDEST PUSH32 0x4E487B7100000000000000000000000000000000000000000000000000000000 PUSH1 0x0 MSTORE PUSH1 0x41 PUSH1 0x4 MSTORE PUSH1 0x24 PUSH1 0x0 REVERT JUMPDEST PUSH32 0x4E487B7100000000000000000000000000000000000000000000000000000000 PUSH1 0x0 MSTORE PUSH1 0x22 PUSH1 0x4 MSTORE PUSH1 0x24 PUSH1 0x0 REVERT JUMPDEST PUSH1 0x0 PUSH1 0x2 DUP3 DIV SWAP1 POP PUSH1 0x1 DUP3 AND DUP1 PUSH3 0x2B6 JUMPI PUSH1 0x7F DUP3 AND SWAP2 POP JUMPDEST PUSH1 0x20 DUP3 LT DUP2 SUB PUSH3 0x2CC JUMPI PUSH3 0x2CB PUSH3 0x26E JUMP JUMPDEST JUMPDEST POP SWAP2 SWAP1 POP JUMP JUMPDEST PUSH1 0x0 DUP2 SWAP1 POP DUP2 PUSH1 0x0 MSTORE PUSH1 0x20 PUSH1 0x0 KECCAK256 SWAP1 POP SWAP2 SWAP1 POP JUMP JUMPDEST PUSH1 0x0 PUSH1 0x20 PUSH1 0x1F DUP4 ADD DIV SWAP1 POP SWAP2 SWAP1 POP JUMP JUMPDEST PUSH1 0x0 DUP3 DUP3 SHL SWAP1 POP SWAP3 SWAP2 POP POP JUMP JUMPDEST PUSH1 0x0 PUSH1 0x8 DUP4 MUL PUSH3 0x336 PUSH32 0xFFFFFFFFFFFFFFFFFFFFFFFFFFFFFFFFFFFFFFFFFFFFFFFFFFFFFFFFFFFFFFFF DUP3 PUSH3 0x2F7 JUMP JUMPDEST PUSH3 0x342 DUP7 DUP4 PUSH3 0x2F7 JUMP JUMPDEST SWAP6 POP DUP1 NOT DUP5 AND SWAP4 POP DUP1 DUP7 AND DUP5 OR SWAP3 POP POP POP SWAP4 SWAP3 POP POP POP JUMP JUMPDEST PUSH1 0x0 DUP2 SWAP1 POP SWAP2 SWAP1 POP JUMP JUMPDEST PUSH1 0x0 DUP2 SWAP1 POP SWAP2 SWAP1 POP JUMP JUMPDEST PUSH1 0x0 PUSH3 0x38F PUSH3 0x389 PUSH3 0x383 DUP5 PUSH3 0x35A JUMP JUMPDEST PUSH3 0x364 JUMP JUMPDEST PUSH3 0x35A JUMP JUMPDEST SWAP1 POP SWAP2 SWAP1 POP JUMP JUMPDEST PUSH1 0x0 DUP2 SWAP1 POP SWAP2 SWAP1 POP JUMP JUMPDEST PUSH3 0x3AB DUP4 PUSH3 0x36E JUMP JUMPDEST PUSH3 0x3C3 PUSH3 0x3BA DUP3 PUSH3 0x396 JUMP JUMPDEST DUP5 DUP5 SLOAD PUSH3 0x304 JUMP JUMPDEST DUP3 SSTORE POP POP POP POP JUMP JUMPDEST PUSH1 0x0 SWAP1 JUMP JUMPDEST PUSH3 0x3DA PUSH3 0x3CB JUMP JUMPDEST PUSH3 0x3E7 DUP2 DUP5 DUP5 PUSH3 0x3A0 JUMP JUMPDEST POP POP POP JUMP JUMPDEST JUMPDEST DUP2 DUP2 LT ISZERO PUSH3 0x40F JUMPI PUSH3 0x403 PUSH1 0x0 DUP3 PUSH3 0x3D0 JUMP JUMPDEST PUSH1 0x1 DUP2 ADD SWAP1 POP PUSH3 0x3ED JUMP JUMPDEST POP POP JUMP JUMPDEST PUSH1 0x1F DUP3 GT ISZERO PUSH3 0x45E JUMPI PUSH3 0x428 DUP2 PUSH3 0x2D2 JUMP JUMPDEST PUSH3 0x433 DUP5 PUSH3 0x2E7 JUMP JUMPDEST DUP2 ADD PUSH1 0x20 DUP6 LT ISZERO PUSH3 0x443 JUMPI DUP2 SWAP1 POP JUMPDEST PUSH3 0x45B PUSH3 0x452 DUP6 PUSH3 0x2E7 JUMP JUMPDEST DUP4 ADD DUP3 PUSH3 0x3EC JUMP JUMPDEST POP POP JUMPDEST POP POP POP JUMP JUMPDEST PUSH1 0x0 DUP3 DUP3 SHR SWAP1 POP SWAP3 SWAP2 POP POP JUMP JUMPDEST PUSH1 0x0 PUSH3 0x483 PUSH1 0x0 NOT DUP5 PUSH1 0x8 MUL PUSH3 0x463 JUMP JUMPDEST NOT DUP1 DUP4 AND SWAP2 POP POP SWAP3 SWAP2 POP POP JUMP JUMPDEST PUSH1 0x0 PUSH3 0x49E DUP4 DUP4 PUSH3 0x470 JUMP JUMPDEST SWAP2 POP DUP3 PUSH1 0x2 MUL DUP3 OR SWAP1 POP SWAP3 SWAP2 POP POP JUMP JUMPDEST PUSH3 0x4B9 DUP3 PUSH3 0x234 JUMP JUMPDEST PUSH8 0xFFFFFFFFFFFFFFFF DUP2 GT ISZERO PUSH3 0x4D5 JUMPI PUSH3 0x4D4 PUSH3 0x23F JUMP JUMPDEST JUMPDEST PUSH3 0x4E1 DUP3 SLOAD PUSH3 0x29D JUMP JUMPDEST PUSH3 0x4EE DUP3 DUP3 DUP6 PUSH3 0x413 JUMP JUMPDEST PUSH1 0x0 PUSH1 0x20 SWAP1 POP PUSH1 0x1F DUP4 GT PUSH1 0x1 DUP2 EQ PUSH3 0x526 JUMPI PUSH1 0x0 DUP5 ISZERO PUSH3 0x511 JUMPI DUP3 DUP8 ADD MLOAD SWAP1 POP JUMPDEST PUSH3 0x51D DUP6 DUP3 PUSH3 0x490 JUMP JUMPDEST DUP7 SSTORE POP PUSH3 0x58D JUMP JUMPDEST PUSH1 0x1F NOT DUP5 AND PUSH3 0x536 DUP7 PUSH3 0x2D2 JUMP JUMPDEST PUSH1 0x0 JUMPDEST DUP3 DUP2 LT ISZERO PUSH3 0x560 JUMPI DUP5 DUP10 ADD MLOAD DUP3 SSTORE PUSH1 0x1 DUP3 ADD SWAP2 POP PUSH1 0x20 DUP6 ADD SWAP5 POP PUSH1 0x20 DUP2 ADD SWAP1 POP PUSH3 0x539 JUMP JUMPDEST DUP7 DUP4 LT ISZERO PUSH3 0x580 JUMPI DUP5 DUP10 ADD MLOAD PUSH3 0x57C PUSH1 0x1F DUP10 AND DUP3 PUSH3 0x470 JUMP JUMPDEST DUP4 SSTORE POP JUMPDEST PUSH1 0x1 PUSH1 0x2 DUP9 MUL ADD DUP9 SSTORE POP POP POP JUMPDEST POP POP POP POP POP POP JUMP JUMPDEST PUSH2 0x2120 DUP1 PUSH3 0x5A5 PUSH1 0x0 CODECOPY PUSH1 0x0 RETURN INVALID PUSH1 0x80 PUSH1 0x40 MSTORE CALLVALUE DUP1 ISZERO PUSH2 0x10 JUMPI PUSH1 0x0 DUP1 REVERT JUMPDEST POP PUSH1 0x4 CALLDATASIZE LT PUSH2 0x12C JUMPI PUSH1 0x0 CALLDATALOAD PUSH1 0xE0 SHR DUP1 PUSH4 0x8DA5CB5B GT PUSH2 0xAD JUMPI DUP1 PUSH4 0xB78376E9 GT PUSH2 0x71 JUMPI DUP1 PUSH4 0xB78376E9 EQ PUSH2 0x347 JUMPI DUP1 PUSH4 0xC290D691 EQ PUSH2 0x363 JUMPI DUP1 PUSH4 0xD9FCEFDD EQ PUSH2 0x37F JUMPI DUP1 PUSH4 0xDD62ED3E EQ PUSH2 0x3AF JUMPI DUP1 PUSH4 0xF2FDE38B EQ PUSH2 0x3DF JUMPI PUSH2 0x12C JUMP JUMPDEST DUP1 PUSH4 0x8DA5CB5B EQ PUSH2 0x28F JUMPI DUP1 PUSH4 0x95D89B41 EQ PUSH2 0x2AD JUMPI DUP1 PUSH4 0xA0712D68 EQ PUSH2 0x2CB JUMPI DUP1 PUSH4 0xA457C2D7 EQ PUSH2 0x2E7 JUMPI DUP1 PUSH4 0xA9059CBB EQ PUSH2 0x317 JUMPI PUSH2 0x12C JUMP JUMPDEST DUP1 PUSH4 0x23B872DD GT PUSH2 0xF4 JUMPI DUP1 PUSH4 0x23B872DD EQ PUSH2 0x1D7 JUMPI DUP1 PUSH4 0x313CE567 EQ PUSH2 0x207 JUMPI DUP1 PUSH4 0x39509351 EQ PUSH2 0x225 JUMPI DUP1 PUSH4 0x70A08231 EQ PUSH2 0x255 JUMPI DUP1 PUSH4 0x715018A6 EQ PUSH2 0x285 JUMPI PUSH2 0x12C JUMP JUMPDEST DUP1 PUSH4 0x48F1627 EQ PUSH2 0x131 JUMPI DUP1 PUSH4 0x6FDDE03 EQ PUSH2 0x14D JUMPI DUP1 PUSH4 0x95EA7B3 EQ PUSH2 0x16B JUMPI DUP1 PUSH4 0x1055D708 EQ PUSH2 0x19B JUMPI DUP1 PUSH4 0x18160DDD EQ PUSH2 0x1B9 JUMPI JUMPDEST PUSH1 0x0 DUP1 REVERT JUMPDEST PUSH2 0x14B PUSH1 0x4 DUP1 CALLDATASIZE SUB DUP2 ADD SWAP1 PUSH2 0x146 SWAP2 SWAP1 PUSH2 0x1528 JUMP JUMPDEST PUSH2 0x3FB JUMP JUMPDEST STOP JUMPDEST PUSH2 0x155 PUSH2 0x4DD JUMP JUMPDEST PUSH1 0x40 MLOAD PUSH2 0x162 SWAP2 SWAP1 PUSH2 0x15E5 JUMP JUMPDEST PUSH1 0x40 MLOAD DUP1 SWAP2 SUB SWAP1 RETURN JUMPDEST PUSH2 0x185 PUSH1 0x4 DUP1 CALLDATASIZE SUB DUP2 ADD SWAP1 PUSH2 0x180 SWAP2 SWAP1 PUSH2 0x163D JUMP JUMPDEST PUSH2 0x56F JUMP JUMPDEST PUSH1 0x40 MLOAD PUSH2 0x192 SWAP2 SWAP1 PUSH2 0x1698 JUMP JUMPDEST PUSH1 0x40 MLOAD DUP1 SWAP2 SUB SWAP1 RETURN JUMPDEST PUSH2 0x1A3 PUSH2 0x592 JUMP JUMPDEST PUSH1 0x40 MLOAD PUSH2 0x1B0 SWAP2 SWAP1 PUSH2 0x1771 JUMP JUMPDEST PUSH1 0x40 MLOAD DUP1 SWAP2 SUB SWAP1 RETURN JUMPDEST PUSH2 0x1C1 PUSH2 0x620 JUMP JUMPDEST PUSH1 0x40 MLOAD PUSH2 0x1CE SWAP2 SWAP1 PUSH2 0x17A2 JUMP JUMPDEST PUSH1 0x40 MLOAD DUP1 SWAP2 SUB SWAP1 RETURN JUMPDEST PUSH2 0x1F1 PUSH1 0x4 DUP1 CALLDATASIZE SUB DUP2 ADD SWAP1 PUSH2 0x1EC SWAP2 SWAP1 PUSH2 0x17BD JUMP JUMPDEST PUSH2 0x62A JUMP JUMPDEST PUSH1 0x40 MLOAD PUSH2 0x1FE SWAP2 SWAP1 PUSH2 0x1698 JUMP JUMPDEST PUSH1 0x40 MLOAD DUP1 SWAP2 SUB SWAP1 RETURN JUMPDEST PUSH2 0x20F PUSH2 0x659 JUMP JUMPDEST PUSH1 0x40 MLOAD PUSH2 0x21C SWAP2 SWAP1 PUSH2 0x182C JUMP JUMPDEST PUSH1 0x40 MLOAD DUP1 SWAP2 SUB SWAP1 RETURN JUMPDEST PUSH2 0x23F PUSH1 0x4 DUP1 CALLDATASIZE SUB DUP2 ADD SWAP1 PUSH2 0x23A SWAP2 SWAP1 PUSH2 0x163D JUMP JUMPDEST PUSH2 0x662 JUMP JUMPDEST PUSH1 0x40 MLOAD PUSH2 0x24C SWAP2 SWAP1 PUSH2 0x1698 JUMP JUMPDEST PUSH1 0x40 MLOAD DUP1 SWAP2 SUB SWAP1 RETURN JUMPDEST PUSH2 0x26F PUSH1 0x4 DUP1 CALLDATASIZE SUB DUP2 ADD SWAP1 PUSH2 0x26A SWAP2 SWAP1 PUSH2 0x1528 JUMP JUMPDEST PUSH2 0x699 JUMP JUMPDEST PUSH1 0x40 MLOAD PUSH2 0x27C SWAP2 SWAP1 PUSH2 0x17A2 JUMP JUMPDEST PUSH1 0x40 MLOAD DUP1 SWAP2 SUB SWAP1 RETURN JUMPDEST PUSH2 0x28D PUSH2 0x6E1 JUMP JUMPDEST STOP JUMPDEST PUSH2 0x297 PUSH2 0x6F5 JUMP JUMPDEST PUSH1 0x40 MLOAD PUSH2 0x2A4 SWAP2 SWAP1 PUSH2 0x1856 JUMP JUMPDEST PUSH1 0x40 MLOAD DUP1 SWAP2 SUB SWAP1 RETURN JUMPDEST PUSH2 0x2B5 PUSH2 0x71F JUMP JUMPDEST PUSH1 0x40 MLOAD PUSH2 0x2C2 SWAP2 SWAP1 PUSH2 0x15E5 JUMP JUMPDEST PUSH1 0x40 MLOAD DUP1 SWAP2 SUB SWAP1 RETURN JUMPDEST PUSH2 0x2E5 PUSH1 0x4 DUP1 CALLDATASIZE SUB DUP2 ADD SWAP1 PUSH2 0x2E0 SWAP2 SWAP1 PUSH2 0x1871 JUMP JUMPDEST PUSH2 0x7B1 JUMP JUMPDEST STOP JUMPDEST PUSH2 0x301 PUSH1 0x4 DUP1 CALLDATASIZE SUB DUP2 ADD SWAP1 PUSH2 0x2FC SWAP2 SWAP1 PUSH2 0x163D JUMP JUMPDEST PUSH2 0x7CD JUMP JUMPDEST PUSH1 0x40 MLOAD PUSH2 0x30E SWAP2 SWAP1 PUSH2 0x1698 JUMP JUMPDEST PUSH1 0x40 MLOAD DUP1 SWAP2 SUB SWAP1 RETURN JUMPDEST PUSH2 0x331 PUSH1 0x4 DUP1 CALLDATASIZE SUB DUP2 ADD SWAP1 PUSH2 0x32C SWAP2 SWAP1 PUSH2 0x163D JUMP JUMPDEST PUSH2 0x844 JUMP JUMPDEST PUSH1 0x40 MLOAD PUSH2 0x33E SWAP2 SWAP1 PUSH2 0x1698 JUMP JUMPDEST PUSH1 0x40 MLOAD DUP1 SWAP2 SUB SWAP1 RETURN JUMPDEST PUSH2 0x361 PUSH1 0x4 DUP1 CALLDATASIZE SUB DUP2 ADD SWAP1 PUSH2 0x35C SWAP2 SWAP1 PUSH2 0x1528 JUMP JUMPDEST PUSH2 0x867 JUMP JUMPDEST STOP JUMPDEST PUSH2 0x37D PUSH1 0x4 DUP1 CALLDATASIZE SUB DUP2 ADD SWAP1 PUSH2 0x378 SWAP2 SWAP1 PUSH2 0x1871 JUMP JUMPDEST PUSH2 0x8D5 JUMP JUMPDEST STOP JUMPDEST PUSH2 0x399 PUSH1 0x4 DUP1 CALLDATASIZE SUB DUP2 ADD SWAP1 PUSH2 0x394 SWAP2 SWAP1 PUSH2 0x1528 JUMP JUMPDEST PUSH2 0x9C9 JUMP JUMPDEST PUSH1 0x40 MLOAD PUSH2 0x3A6 SWAP2 SWAP1 PUSH2 0x1698 JUMP JUMPDEST PUSH1 0x40 MLOAD DUP1 SWAP2 SUB SWAP1 RETURN JUMPDEST PUSH2 0x3C9 PUSH1 0x4 DUP1 CALLDATASIZE SUB DUP2 ADD SWAP1 PUSH2 0x3C4 SWAP2 SWAP1 PUSH2 0x189E JUMP JUMPDEST PUSH2 0xA77 JUMP JUMPDEST PUSH1 0x40 MLOAD PUSH2 0x3D6 SWAP2 SWAP1 PUSH2 0x17A2 JUMP JUMPDEST PUSH1 0x40 MLOAD DUP1 SWAP2 SUB SWAP1 RETURN JUMPDEST PUSH2 0x3F9 PUSH1 0x4 DUP1 CALLDATASIZE SUB DUP2 ADD SWAP1 PUSH2 0x3F4 SWAP2 SWAP1 PUSH2 0x1528 JUMP JUMPDEST PUSH2 0xAFE JUMP JUMPDEST STOP JUMPDEST PUSH2 0x403 PUSH2 0xB81 JUMP JUMPDEST PUSH1 0x0 JUMPDEST PUSH1 0x6 DUP1 SLOAD SWAP1 POP DUP2 LT ISZERO PUSH2 0x4D9 JUMPI PUSH1 0x6 DUP2 DUP2 SLOAD DUP2 LT PUSH2 0x427 JUMPI PUSH2 0x426 PUSH2 0x18DE JUMP JUMPDEST JUMPDEST SWAP1 PUSH1 0x0 MSTORE PUSH1 0x20 PUSH1 0x0 KECCAK256 ADD PUSH1 0x0 SWAP1 SLOAD SWAP1 PUSH2 0x100 EXP SWAP1 DIV PUSH20 0xFFFFFFFFFFFFFFFFFFFFFFFFFFFFFFFFFFFFFFFF AND PUSH20 0xFFFFFFFFFFFFFFFFFFFFFFFFFFFFFFFFFFFFFFFF AND DUP3 PUSH20 0xFFFFFFFFFFFFFFFFFFFFFFFFFFFFFFFFFFFFFFFF AND SUB PUSH2 0x4C6 JUMPI PUSH1 0x6 DUP2 DUP2 SLOAD DUP2 LT PUSH2 0x498 JUMPI PUSH2 0x497 PUSH2 0x18DE JUMP JUMPDEST JUMPDEST SWAP1 PUSH1 0x0 MSTORE PUSH1 0x20 PUSH1 0x0 KECCAK256 ADD PUSH1 0x0 PUSH2 0x100 EXP DUP2 SLOAD SWAP1 PUSH20 0xFFFFFFFFFFFFFFFFFFFFFFFFFFFFFFFFFFFFFFFF MUL NOT AND SWAP1 SSTORE JUMPDEST DUP1 DUP1 PUSH2 0x4D1 SWAP1 PUSH2 0x193C JUMP JUMPDEST SWAP2 POP POP PUSH2 0x406 JUMP JUMPDEST POP POP JUMP JUMPDEST PUSH1 0x60 PUSH1 0x3 DUP1 SLOAD PUSH2 0x4EC SWAP1 PUSH2 0x19B3 JUMP JUMPDEST DUP1 PUSH1 0x1F ADD PUSH1 0x20 DUP1 SWAP2 DIV MUL PUSH1 0x20 ADD PUSH1 0x40 MLOAD SWAP1 DUP2 ADD PUSH1 0x40 MSTORE DUP1 SWAP3 SWAP2 SWAP1 DUP2 DUP2 MSTORE PUSH1 0x20 ADD DUP3 DUP1 SLOAD PUSH2 0x518 SWAP1 PUSH2 0x19B3 JUMP JUMPDEST DUP1 ISZERO PUSH2 0x565 JUMPI DUP1 PUSH1 0x1F LT PUSH2 0x53A JUMPI PUSH2 0x100 DUP1 DUP4 SLOAD DIV MUL DUP4 MSTORE SWAP2 PUSH1 0x20 ADD SWAP2 PUSH2 0x565 JUMP JUMPDEST DUP3 ADD SWAP2 SWAP1 PUSH1 0x0 MSTORE PUSH1 0x20 PUSH1 0x0 KECCAK256 SWAP1 JUMPDEST DUP2 SLOAD DUP2 MSTORE SWAP1 PUSH1 0x1 ADD SWAP1 PUSH1 0x20 ADD DUP1 DUP4 GT PUSH2 0x548 JUMPI DUP3 SWAP1 SUB PUSH1 0x1F AND DUP3 ADD SWAP2 JUMPDEST POP POP POP POP POP SWAP1 POP SWAP1 JUMP JUMPDEST PUSH1 0x0 DUP1 PUSH2 0x57A PUSH2 0xBFF JUMP JUMPDEST SWAP1 POP PUSH2 0x587 DUP2 DUP6 DUP6 PUSH2 0xC07 JUMP JUMPDEST PUSH1 0x1 SWAP2 POP POP SWAP3 SWAP2 POP POP JUMP JUMPDEST PUSH1 0x60 PUSH1 0x6 DUP1 SLOAD DUP1 PUSH1 0x20 MUL PUSH1 0x20 ADD PUSH1 0x40 MLOAD SWAP1 DUP2 ADD PUSH1 0x40 MSTORE DUP1 SWAP3 SWAP2 SWAP1 DUP2 DUP2 MSTORE PUSH1 0x20 ADD DUP3 DUP1 SLOAD DUP1 ISZERO PUSH2 0x616 JUMPI PUSH1 0x20 MUL DUP3 ADD SWAP2 SWAP1 PUSH1 0x0 MSTORE PUSH1 0x20 PUSH1 0x0 KECCAK256 SWAP1 JUMPDEST DUP2 PUSH1 0x0 SWAP1 SLOAD SWAP1 PUSH2 0x100 EXP SWAP1 DIV PUSH20 0xFFFFFFFFFFFFFFFFFFFFFFFFFFFFFFFFFFFFFFFF AND PUSH20 0xFFFFFFFFFFFFFFFFFFFFFFFFFFFFFFFFFFFFFFFF AND DUP2 MSTORE PUSH1 0x20 ADD SWAP1 PUSH1 0x1 ADD SWAP1 DUP1 DUP4 GT PUSH2 0x5CC JUMPI JUMPDEST POP POP POP POP POP SWAP1 POP SWAP1 JUMP JUMPDEST PUSH1 0x0 PUSH1 0x2 SLOAD SWAP1 POP SWAP1 JUMP JUMPDEST PUSH1 0x0 DUP1 PUSH2 0x635 PUSH2 0xBFF JUMP JUMPDEST SWAP1 POP PUSH2 0x642 DUP6 DUP3 DUP6 PUSH2 0xDD0 JUMP JUMPDEST PUSH2 0x64D DUP6 DUP6 DUP6 PUSH2 0xE5C JUMP JUMPDEST PUSH1 0x1 SWAP2 POP POP SWAP4 SWAP3 POP POP POP JUMP JUMPDEST PUSH1 0x0 PUSH1 0x12 SWAP1 POP SWAP1 JUMP JUMPDEST PUSH1 0x0 DUP1 PUSH2 0x66D PUSH2 0xBFF JUMP JUMPDEST SWAP1 POP PUSH2 0x68E DUP2 DUP6 DUP6 PUSH2 0x67F DUP6 DUP10 PUSH2 0xA77 JUMP JUMPDEST PUSH2 0x689 SWAP2 SWAP1 PUSH2 0x19E4 JUMP JUMPDEST PUSH2 0xC07 JUMP JUMPDEST PUSH1 0x1 SWAP2 POP POP SWAP3 SWAP2 POP POP JUMP JUMPDEST PUSH1 0x0 DUP1 PUSH1 0x0 DUP4 PUSH20 0xFFFFFFFFFFFFFFFFFFFFFFFFFFFFFFFFFFFFFFFF AND PUSH20 0xFFFFFFFFFFFFFFFFFFFFFFFFFFFFFFFFFFFFFFFF AND DUP2 MSTORE PUSH1 0x20 ADD SWAP1 DUP2 MSTORE PUSH1 0x20 ADD PUSH1 0x0 KECCAK256 SLOAD SWAP1 POP SWAP2 SWAP1 POP JUMP JUMPDEST PUSH2 0x6E9 PUSH2 0xB81 JUMP JUMPDEST PUSH2 0x6F3 PUSH1 0x0 PUSH2 0x10D2 JUMP JUMPDEST JUMP JUMPDEST PUSH1 0x0 PUSH1 0x5 PUSH1 0x0 SWAP1 SLOAD SWAP1 PUSH2 0x100 EXP SWAP1 DIV PUSH20 0xFFFFFFFFFFFFFFFFFFFFFFFFFFFFFFFFFFFFFFFF AND SWAP1 POP SWAP1 JUMP JUMPDEST PUSH1 0x60 PUSH1 0x4 DUP1 SLOAD PUSH2 0x72E SWAP1 PUSH2 0x19B3 JUMP JUMPDEST DUP1 PUSH1 0x1F ADD PUSH1 0x20 DUP1 SWAP2 DIV MUL PUSH1 0x20 ADD PUSH1 0x40 MLOAD SWAP1 DUP2 ADD PUSH1 0x40 MSTORE DUP1 SWAP3 SWAP2 SWAP1 DUP2 DUP2 MSTORE PUSH1 0x20 ADD DUP3 DUP1 SLOAD PUSH2 0x75A SWAP1 PUSH2 0x19B3 JUMP JUMPDEST DUP1 ISZERO PUSH2 0x7A7 JUMPI DUP1 PUSH1 0x1F LT PUSH2 0x77C JUMPI PUSH2 0x100 DUP1 DUP4 SLOAD DIV MUL DUP4 MSTORE SWAP2 PUSH1 0x20 ADD SWAP2 PUSH2 0x7A7 JUMP JUMPDEST DUP3 ADD SWAP2 SWAP1 PUSH1 0x0 MSTORE PUSH1 0x20 PUSH1 0x0 KECCAK256 SWAP1 JUMPDEST DUP2 SLOAD DUP2 MSTORE SWAP1 PUSH1 0x1 ADD SWAP1 PUSH1 0x20 ADD DUP1 DUP4 GT PUSH2 0x78A JUMPI DUP3 SWAP1 SUB PUSH1 0x1F AND DUP3 ADD SWAP2 JUMPDEST POP POP POP POP POP SWAP1 POP SWAP1 JUMP JUMPDEST PUSH2 0x7B9 PUSH2 0xB81 JUMP JUMPDEST PUSH2 0x7CA PUSH2 0x7C4 PUSH2 0x6F5 JUMP JUMPDEST DUP3 PUSH2 0x1198 JUMP JUMPDEST POP JUMP JUMPDEST PUSH1 0x0 DUP1 PUSH2 0x7D8 PUSH2 0xBFF JUMP JUMPDEST SWAP1 POP PUSH1 0x0 PUSH2 0x7E6 DUP3 DUP7 PUSH2 0xA77 JUMP JUMPDEST SWAP1 POP DUP4 DUP2 LT ISZERO PUSH2 0x82B JUMPI PUSH1 0x40 MLOAD PUSH32 0x8C379A000000000000000000000000000000000000000000000000000000000 DUP2 MSTORE PUSH1 0x4 ADD PUSH2 0x822 SWAP1 PUSH2 0x1A8A JUMP JUMPDEST PUSH1 0x40 MLOAD DUP1 SWAP2 SUB SWAP1 REVERT JUMPDEST PUSH2 0x838 DUP3 DUP7 DUP7 DUP5 SUB PUSH2 0xC07 JUMP JUMPDEST PUSH1 0x1 SWAP3 POP POP POP SWAP3 SWAP2 POP POP JUMP JUMPDEST PUSH1 0x0 DUP1 PUSH2 0x84F PUSH2 0xBFF JUMP JUMPDEST SWAP1 POP PUSH2 0x85C DUP2 DUP6 DUP6 PUSH2 0xE5C JUMP JUMPDEST PUSH1 0x1 SWAP2 POP POP SWAP3 SWAP2 POP POP JUMP JUMPDEST PUSH2 0x86F PUSH2 0xB81 JUMP JUMPDEST PUSH1 0x6 DUP2 SWAP1 DUP1 PUSH1 0x1 DUP2 SLOAD ADD DUP1 DUP3 SSTORE DUP1 SWAP2 POP POP PUSH1 0x1 SWAP1 SUB SWAP1 PUSH1 0x0 MSTORE PUSH1 0x20 PUSH1 0x0 KECCAK256 ADD PUSH1 0x0 SWAP1 SWAP2 SWAP1 SWAP2 SWAP1 SWAP2 PUSH2 0x100 EXP DUP2 SLOAD DUP2 PUSH20 0xFFFFFFFFFFFFFFFFFFFFFFFFFFFFFFFFFFFFFFFF MUL NOT AND SWAP1 DUP4 PUSH20 0xFFFFFFFFFFFFFFFFFFFFFFFFFFFFFFFFFFFFFFFF AND MUL OR SWAP1 SSTORE POP POP JUMP JUMPDEST PUSH1 0x0 DUP1 JUMPDEST PUSH1 0x6 DUP1 SLOAD SWAP1 POP DUP2 LT ISZERO PUSH2 0x973 JUMPI CALLER PUSH20 0xFFFFFFFFFFFFFFFFFFFFFFFFFFFFFFFFFFFFFFFF AND PUSH1 0x6 DUP3 DUP2 SLOAD DUP2 LT PUSH2 0x911 JUMPI PUSH2 0x910 PUSH2 0x18DE JUMP JUMPDEST JUMPDEST SWAP1 PUSH1 0x0 MSTORE PUSH1 0x20 PUSH1 0x0 KECCAK256 ADD PUSH1 0x0 SWAP1 SLOAD SWAP1 PUSH2 0x100 EXP SWAP1 DIV PUSH20 0xFFFFFFFFFFFFFFFFFFFFFFFFFFFFFFFFFFFFFFFF AND PUSH20 0xFFFFFFFFFFFFFFFFFFFFFFFFFFFFFFFFFFFFFFFF AND SUB PUSH2 0x960 JUMPI PUSH1 0x1 SWAP2 POP PUSH2 0x973 JUMP JUMPDEST DUP1 DUP1 PUSH2 0x96B SWAP1 PUSH2 0x193C JUMP JUMPDEST SWAP2 POP POP PUSH2 0x8D9 JUMP JUMPDEST POP DUP1 PUSH2 0x9B4 JUMPI PUSH1 0x40 MLOAD PUSH32 0x8C379A000000000000000000000000000000000000000000000000000000000 DUP2 MSTORE PUSH1 0x4 ADD PUSH2 0x9AB SWAP1 PUSH2 0x1AF6 JUMP JUMPDEST PUSH1 0x40 MLOAD DUP1 SWAP2 SUB SWAP1 REVERT JUMPDEST PUSH2 0x9C5 PUSH2 0x9BF PUSH2 0x6F5 JUMP JUMPDEST DUP4 PUSH2 0x12EE JUMP JUMPDEST POP POP JUMP JUMPDEST PUSH1 0x0 DUP1 PUSH1 0x0 SWAP1 POP JUMPDEST PUSH1 0x6 DUP1 SLOAD SWAP1 POP DUP2 LT ISZERO PUSH2 0xA6C JUMPI PUSH1 0x6 DUP2 DUP2 SLOAD DUP2 LT PUSH2 0x9F2 JUMPI PUSH2 0x9F1 PUSH2 0x18DE JUMP JUMPDEST JUMPDEST SWAP1 PUSH1 0x0 MSTORE PUSH1 0x20 PUSH1 0x0 KECCAK256 ADD PUSH1 0x0 SWAP1 SLOAD SWAP1 PUSH2 0x100 EXP SWAP1 DIV PUSH20 0xFFFFFFFFFFFFFFFFFFFFFFFFFFFFFFFFFFFFFFFF AND PUSH20 0xFFFFFFFFFFFFFFFFFFFFFFFFFFFFFFFFFFFFFFFF AND DUP4 PUSH20 0xFFFFFFFFFFFFFFFFFFFFFFFFFFFFFFFFFFFFFFFF AND SUB PUSH2 0xA59 JUMPI PUSH1 0x1 SWAP2 POP POP PUSH2 0xA72 JUMP JUMPDEST DUP1 DUP1 PUSH2 0xA64 SWAP1 PUSH2 0x193C JUMP JUMPDEST SWAP2 POP POP PUSH2 0x9D1 JUMP JUMPDEST POP PUSH1 0x0 SWAP1 POP JUMPDEST SWAP2 SWAP1 POP JUMP JUMPDEST PUSH1 0x0 PUSH1 0x1 PUSH1 0x0 DUP5 PUSH20 0xFFFFFFFFFFFFFFFFFFFFFFFFFFFFFFFFFFFFFFFF AND PUSH20 0xFFFFFFFFFFFFFFFFFFFFFFFFFFFFFFFFFFFFFFFF AND DUP2 MSTORE PUSH1 0x20 ADD SWAP1 DUP2 MSTORE PUSH1 0x20 ADD PUSH1 0x0 KECCAK256 PUSH1 0x0 DUP4 PUSH20 0xFFFFFFFFFFFFFFFFFFFFFFFFFFFFFFFFFFFFFFFF AND PUSH20 0xFFFFFFFFFFFFFFFFFFFFFFFFFFFFFFFFFFFFFFFF AND DUP2 MSTORE PUSH1 0x20 ADD SWAP1 DUP2 MSTORE PUSH1 0x20 ADD PUSH1 0x0 KECCAK256 SLOAD SWAP1 POP SWAP3 SWAP2 POP POP JUMP JUMPDEST PUSH2 0xB06 PUSH2 0xB81 JUMP JUMPDEST PUSH1 0x0 PUSH20 0xFFFFFFFFFFFFFFFFFFFFFFFFFFFFFFFFFFFFFFFF AND DUP2 PUSH20 0xFFFFFFFFFFFFFFFFFFFFFFFFFFFFFFFFFFFFFFFF AND SUB PUSH2 0xB75 JUMPI PUSH1 0x40 MLOAD PUSH32 0x8C379A000000000000000000000000000000000000000000000000000000000 DUP2 MSTORE PUSH1 0x4 ADD PUSH2 0xB6C SWAP1 PUSH2 0x1B88 JUMP JUMPDEST PUSH1 0x40 MLOAD DUP1 SWAP2 SUB SWAP1 REVERT JUMPDEST PUSH2 0xB7E DUP2 PUSH2 0x10D2 JUMP JUMPDEST POP JUMP JUMPDEST PUSH2 0xB89 PUSH2 0xBFF JUMP JUMPDEST PUSH20 0xFFFFFFFFFFFFFFFFFFFFFFFFFFFFFFFFFFFFFFFF AND PUSH2 0xBA7 PUSH2 0x6F5 JUMP JUMPDEST PUSH20 0xFFFFFFFFFFFFFFFFFFFFFFFFFFFFFFFFFFFFFFFF AND EQ PUSH2 0xBFD JUMPI PUSH1 0x40 MLOAD PUSH32 0x8C379A000000000000000000000000000000000000000000000000000000000 DUP2 MSTORE PUSH1 0x4 ADD PUSH2 0xBF4 SWAP1 PUSH2 0x1BF4 JUMP JUMPDEST PUSH1 0x40 MLOAD DUP1 SWAP2 SUB SWAP1 REVERT JUMPDEST JUMP JUMPDEST PUSH1 0x0 CALLER SWAP1 POP SWAP1 JUMP JUMPDEST PUSH1 0x0 PUSH20 0xFFFFFFFFFFFFFFFFFFFFFFFFFFFFFFFFFFFFFFFF AND DUP4 PUSH20 0xFFFFFFFFFFFFFFFFFFFFFFFFFFFFFFFFFFFFFFFF AND SUB PUSH2 0xC76 JUMPI PUSH1 0x40 MLOAD PUSH32 0x8C379A000000000000000000000000000000000000000000000000000000000 DUP2 MSTORE PUSH1 0x4 ADD PUSH2 0xC6D SWAP1 PUSH2 0x1C86 JUMP JUMPDEST PUSH1 0x40 MLOAD DUP1 SWAP2 SUB SWAP1 REVERT JUMPDEST PUSH1 0x0 PUSH20 0xFFFFFFFFFFFFFFFFFFFFFFFFFFFFFFFFFFFFFFFF AND DUP3 PUSH20 0xFFFFFFFFFFFFFFFFFFFFFFFFFFFFFFFFFFFFFFFF AND SUB PUSH2 0xCE5 JUMPI PUSH1 0x40 MLOAD PUSH32 0x8C379A000000000000000000000000000000000000000000000000000000000 DUP2 MSTORE PUSH1 0x4 ADD PUSH2 0xCDC SWAP1 PUSH2 0x1D18 JUMP JUMPDEST PUSH1 0x40 MLOAD DUP1 SWAP2 SUB SWAP1 REVERT JUMPDEST DUP1 PUSH1 0x1 PUSH1 0x0 DUP6 PUSH20 0xFFFFFFFFFFFFFFFFFFFFFFFFFFFFFFFFFFFFFFFF AND PUSH20 0xFFFFFFFFFFFFFFFFFFFFFFFFFFFFFFFFFFFFFFFF AND DUP2 MSTORE PUSH1 0x20 ADD SWAP1 DUP2 MSTORE PUSH1 0x20 ADD PUSH1 0x0 KECCAK256 PUSH1 0x0 DUP5 PUSH20 0xFFFFFFFFFFFFFFFFFFFFFFFFFFFFFFFFFFFFFFFF AND PUSH20 0xFFFFFFFFFFFFFFFFFFFFFFFFFFFFFFFFFFFFFFFF AND DUP2 MSTORE PUSH1 0x20 ADD SWAP1 DUP2 MSTORE PUSH1 0x20 ADD PUSH1 0x0 KECCAK256 DUP2 SWAP1 SSTORE POP DUP2 PUSH20 0xFFFFFFFFFFFFFFFFFFFFFFFFFFFFFFFFFFFFFFFF AND DUP4 PUSH20 0xFFFFFFFFFFFFFFFFFFFFFFFFFFFFFFFFFFFFFFFF AND PUSH32 0x8C5BE1E5EBEC7D5BD14F71427D1E84F3DD0314C0F7B2291E5B200AC8C7C3B925 DUP4 PUSH1 0x40 MLOAD PUSH2 0xDC3 SWAP2 SWAP1 PUSH2 0x17A2 JUMP JUMPDEST PUSH1 0x40 MLOAD DUP1 SWAP2 SUB SWAP1 LOG3 POP POP POP JUMP JUMPDEST PUSH1 0x0 PUSH2 0xDDC DUP5 DUP5 PUSH2 0xA77 JUMP JUMPDEST SWAP1 POP PUSH32 0xFFFFFFFFFFFFFFFFFFFFFFFFFFFFFFFFFFFFFFFFFFFFFFFFFFFFFFFFFFFFFFFF DUP2 EQ PUSH2 0xE56 JUMPI DUP2 DUP2 LT ISZERO PUSH2 0xE48 JUMPI PUSH1 0x40 MLOAD PUSH32 0x8C379A000000000000000000000000000000000000000000000000000000000 DUP2 MSTORE PUSH1 0x4 ADD PUSH2 0xE3F SWAP1 PUSH2 0x1D84 JUMP JUMPDEST PUSH1 0x40 MLOAD DUP1 SWAP2 SUB SWAP1 REVERT JUMPDEST PUSH2 0xE55 DUP5 DUP5 DUP5 DUP5 SUB PUSH2 0xC07 JUMP JUMPDEST JUMPDEST POP POP POP POP JUMP JUMPDEST PUSH1 0x0 PUSH20 0xFFFFFFFFFFFFFFFFFFFFFFFFFFFFFFFFFFFFFFFF AND DUP4 PUSH20 0xFFFFFFFFFFFFFFFFFFFFFFFFFFFFFFFFFFFFFFFF AND SUB PUSH2 0xECB JUMPI PUSH1 0x40 MLOAD PUSH32 0x8C379A000000000000000000000000000000000000000000000000000000000 DUP2 MSTORE PUSH1 0x4 ADD PUSH2 0xEC2 SWAP1 PUSH2 0x1E16 JUMP JUMPDEST PUSH1 0x40 MLOAD DUP1 SWAP2 SUB SWAP1 REVERT JUMPDEST PUSH1 0x0 PUSH20 0xFFFFFFFFFFFFFFFFFFFFFFFFFFFFFFFFFFFFFFFF AND DUP3 PUSH20 0xFFFFFFFFFFFFFFFFFFFFFFFFFFFFFFFFFFFFFFFF AND SUB PUSH2 0xF3A JUMPI PUSH1 0x40 MLOAD PUSH32 0x8C379A000000000000000000000000000000000000000000000000000000000 DUP2 MSTORE PUSH1 0x4 ADD PUSH2 0xF31 SWAP1 PUSH2 0x1EA8 JUMP JUMPDEST PUSH1 0x40 MLOAD DUP1 SWAP2 SUB SWAP1 REVERT JUMPDEST PUSH2 0xF45 DUP4 DUP4 DUP4 PUSH2 0x14BB JUMP JUMPDEST PUSH1 0x0 DUP1 PUSH1 0x0 DUP6 PUSH20 0xFFFFFFFFFFFFFFFFFFFFFFFFFFFFFFFFFFFFFFFF AND PUSH20 0xFFFFFFFFFFFFFFFFFFFFFFFFFFFFFFFFFFFFFFFF AND DUP2 MSTORE PUSH1 0x20 ADD SWAP1 DUP2 MSTORE PUSH1 0x20 ADD PUSH1 0x0 KECCAK256 SLOAD SWAP1 POP DUP2 DUP2 LT ISZERO PUSH2 0xFCB JUMPI PUSH1 0x40 MLOAD PUSH32 0x8C379A000000000000000000000000000000000000000000000000000000000 DUP2 MSTORE PUSH1 0x4 ADD PUSH2 0xFC2 SWAP1 PUSH2 0x1F3A JUMP JUMPDEST PUSH1 0x40 MLOAD DUP1 SWAP2 SUB SWAP1 REVERT JUMPDEST DUP2 DUP2 SUB PUSH1 0x0 DUP1 DUP7 PUSH20 0xFFFFFFFFFFFFFFFFFFFFFFFFFFFFFFFFFFFFFFFF AND PUSH20 0xFFFFFFFFFFFFFFFFFFFFFFFFFFFFFFFFFFFFFFFF AND DUP2 MSTORE PUSH1 0x20 ADD SWAP1 DUP2 MSTORE PUSH1 0x20 ADD PUSH1 0x0 KECCAK256 DUP2 SWAP1 SSTORE POP DUP2 PUSH1 0x0 DUP1 DUP6 PUSH20 0xFFFFFFFFFFFFFFFFFFFFFFFFFFFFFFFFFFFFFFFF AND PUSH20 0xFFFFFFFFFFFFFFFFFFFFFFFFFFFFFFFFFFFFFFFF AND DUP2 MSTORE PUSH1 0x20 ADD SWAP1 DUP2 MSTORE PUSH1 0x20 ADD PUSH1 0x0 KECCAK256 PUSH1 0x0 DUP3 DUP3 SLOAD ADD SWAP3 POP POP DUP2 SWAP1 SSTORE POP DUP3 PUSH20 0xFFFFFFFFFFFFFFFFFFFFFFFFFFFFFFFFFFFFFFFF AND DUP5 PUSH20 0xFFFFFFFFFFFFFFFFFFFFFFFFFFFFFFFFFFFFFFFF AND PUSH32 0xDDF252AD1BE2C89B69C2B068FC378DAA952BA7F163C4A11628F55A4DF523B3EF DUP5 PUSH1 0x40 MLOAD PUSH2 0x10B9 SWAP2 SWAP1 PUSH2 0x17A2 JUMP JUMPDEST PUSH1 0x40 MLOAD DUP1 SWAP2 SUB SWAP1 LOG3 PUSH2 0x10CC DUP5 DUP5 DUP5 PUSH2 0x14C0 JUMP JUMPDEST POP POP POP POP JUMP JUMPDEST PUSH1 0x0 PUSH1 0x5 PUSH1 0x0 SWAP1 SLOAD SWAP1 PUSH2 0x100 EXP SWAP1 DIV PUSH20 0xFFFFFFFFFFFFFFFFFFFFFFFFFFFFFFFFFFFFFFFF AND SWAP1 POP DUP2 PUSH1 0x5 PUSH1 0x0 PUSH2 0x100 EXP DUP2 SLOAD DUP2 PUSH20 0xFFFFFFFFFFFFFFFFFFFFFFFFFFFFFFFFFFFFFFFF MUL NOT AND SWAP1 DUP4 PUSH20 0xFFFFFFFFFFFFFFFFFFFFFFFFFFFFFFFFFFFFFFFF AND MUL OR SWAP1 SSTORE POP DUP2 PUSH20 0xFFFFFFFFFFFFFFFFFFFFFFFFFFFFFFFFFFFFFFFF AND DUP2 PUSH20 0xFFFFFFFFFFFFFFFFFFFFFFFFFFFFFFFFFFFFFFFF AND PUSH32 0x8BE0079C531659141344CD1FD0A4F28419497F9722A3DAAFE3B4186F6B6457E0 PUSH1 0x40 MLOAD PUSH1 0x40 MLOAD DUP1 SWAP2 SUB SWAP1 LOG3 POP POP JUMP JUMPDEST PUSH1 0x0 PUSH20 0xFFFFFFFFFFFFFFFFFFFFFFFFFFFFFFFFFFFFFFFF AND DUP3 PUSH20 0xFFFFFFFFFFFFFFFFFFFFFFFFFFFFFFFFFFFFFFFF AND SUB PUSH2 0x1207 JUMPI PUSH1 0x40 MLOAD PUSH32 0x8C379A000000000000000000000000000000000000000000000000000000000 DUP2 MSTORE PUSH1 0x4 ADD PUSH2 0x11FE SWAP1 PUSH2 0x1FA6 JUMP JUMPDEST PUSH1 0x40 MLOAD DUP1 SWAP2 SUB SWAP1 REVERT JUMPDEST PUSH2 0x1213 PUSH1 0x0 DUP4 DUP4 PUSH2 0x14BB JUMP JUMPDEST DUP1 PUSH1 0x2 PUSH1 0x0 DUP3 DUP3 SLOAD PUSH2 0x1225 SWAP2 SWAP1 PUSH2 0x19E4 JUMP JUMPDEST SWAP3 POP POP DUP2 SWAP1 SSTORE POP DUP1 PUSH1 0x0 DUP1 DUP5 PUSH20 0xFFFFFFFFFFFFFFFFFFFFFFFFFFFFFFFFFFFFFFFF AND PUSH20 0xFFFFFFFFFFFFFFFFFFFFFFFFFFFFFFFFFFFFFFFF AND DUP2 MSTORE PUSH1 0x20 ADD SWAP1 DUP2 MSTORE PUSH1 0x20 ADD PUSH1 0x0 KECCAK256 PUSH1 0x0 DUP3 DUP3 SLOAD ADD SWAP3 POP POP DUP2 SWAP1 SSTORE POP DUP2 PUSH20 0xFFFFFFFFFFFFFFFFFFFFFFFFFFFFFFFFFFFFFFFF AND PUSH1 0x0 PUSH20 0xFFFFFFFFFFFFFFFFFFFFFFFFFFFFFFFFFFFFFFFF AND PUSH32 0xDDF252AD1BE2C89B69C2B068FC378DAA952BA7F163C4A11628F55A4DF523B3EF DUP4 PUSH1 0x40 MLOAD PUSH2 0x12D6 SWAP2 SWAP1 PUSH2 0x17A2 JUMP JUMPDEST PUSH1 0x40 MLOAD DUP1 SWAP2 SUB SWAP1 LOG3 PUSH2 0x12EA PUSH1 0x0 DUP4 DUP4 PUSH2 0x14C0 JUMP JUMPDEST POP POP JUMP JUMPDEST PUSH1 0x0 PUSH20 0xFFFFFFFFFFFFFFFFFFFFFFFFFFFFFFFFFFFFFFFF AND DUP3 PUSH20 0xFFFFFFFFFFFFFFFFFFFFFFFFFFFFFFFFFFFFFFFF AND SUB PUSH2 0x135D JUMPI PUSH1 0x40 MLOAD PUSH32 0x8C379A000000000000000000000000000000000000000000000000000000000 DUP2 MSTORE PUSH1 0x4 ADD PUSH2 0x1354 SWAP1 PUSH2 0x2038 JUMP JUMPDEST PUSH1 0x40 MLOAD DUP1 SWAP2 SUB SWAP1 REVERT JUMPDEST PUSH2 0x1369 DUP3 PUSH1 0x0 DUP4 PUSH2 0x14BB JUMP JUMPDEST PUSH1 0x0 DUP1 PUSH1 0x0 DUP5 PUSH20 0xFFFFFFFFFFFFFFFFFFFFFFFFFFFFFFFFFFFFFFFF AND PUSH20 0xFFFFFFFFFFFFFFFFFFFFFFFFFFFFFFFFFFFFFFFF AND DUP2 MSTORE PUSH1 0x20 ADD SWAP1 DUP2 MSTORE PUSH1 0x20 ADD PUSH1 0x0 KECCAK256 SLOAD SWAP1 POP DUP2 DUP2 LT ISZERO PUSH2 0x13EF JUMPI PUSH1 0x40 MLOAD PUSH32 0x8C379A000000000000000000000000000000000000000000000000000000000 DUP2 MSTORE PUSH1 0x4 ADD PUSH2 0x13E6 SWAP1 PUSH2 0x20CA JUMP JUMPDEST PUSH1 0x40 MLOAD DUP1 SWAP2 SUB SWAP1 REVERT JUMPDEST DUP2 DUP2 SUB PUSH1 0x0 DUP1 DUP6 PUSH20 0xFFFFFFFFFFFFFFFFFFFFFFFFFFFFFFFFFFFFFFFF AND PUSH20 0xFFFFFFFFFFFFFFFFFFFFFFFFFFFFFFFFFFFFFFFF AND DUP2 MSTORE PUSH1 0x20 ADD SWAP1 DUP2 MSTORE PUSH1 0x20 ADD PUSH1 0x0 KECCAK256 DUP2 SWAP1 SSTORE POP DUP2 PUSH1 0x2 PUSH1 0x0 DUP3 DUP3 SLOAD SUB SWAP3 POP POP DUP2 SWAP1 SSTORE POP PUSH1 0x0 PUSH20 0xFFFFFFFFFFFFFFFFFFFFFFFFFFFFFFFFFFFFFFFF AND DUP4 PUSH20 0xFFFFFFFFFFFFFFFFFFFFFFFFFFFFFFFFFFFFFFFF AND PUSH32 0xDDF252AD1BE2C89B69C2B068FC378DAA952BA7F163C4A11628F55A4DF523B3EF DUP5 PUSH1 0x40 MLOAD PUSH2 0x14A2 SWAP2 SWAP1 PUSH2 0x17A2 JUMP JUMPDEST PUSH1 0x40 MLOAD DUP1 SWAP2 SUB SWAP1 LOG3 PUSH2 0x14B6 DUP4 PUSH1 0x0 DUP5 PUSH2 0x14C0 JUMP JUMPDEST POP POP POP JUMP JUMPDEST POP POP POP JUMP JUMPDEST POP POP POP JUMP JUMPDEST PUSH1 0x0 DUP1 REVERT JUMPDEST PUSH1 0x0 PUSH20 0xFFFFFFFFFFFFFFFFFFFFFFFFFFFFFFFFFFFFFFFF DUP3 AND SWAP1 POP SWAP2 SWAP1 POP JUMP JUMPDEST PUSH1 0x0 PUSH2 0x14F5 DUP3 PUSH2 0x14CA JUMP JUMPDEST SWAP1 POP SWAP2 SWAP1 POP JUMP JUMPDEST PUSH2 0x1505 DUP2 PUSH2 0x14EA JUMP JUMPDEST DUP2 EQ PUSH2 0x1510 JUMPI PUSH1 0x0 DUP1 REVERT JUMPDEST POP JUMP JUMPDEST PUSH1 0x0 DUP2 CALLDATALOAD SWAP1 POP PUSH2 0x1522 DUP2 PUSH2 0x14FC JUMP JUMPDEST SWAP3 SWAP2 POP POP JUMP JUMPDEST PUSH1 0x0 PUSH1 0x20 DUP3 DUP5 SUB SLT ISZERO PUSH2 0x153E JUMPI PUSH2 0x153D PUSH2 0x14C5 JUMP JUMPDEST JUMPDEST PUSH1 0x0 PUSH2 0x154C DUP5 DUP3 DUP6 ADD PUSH2 0x1513 JUMP JUMPDEST SWAP2 POP POP SWAP3 SWAP2 POP POP JUMP JUMPDEST PUSH1 0x0 DUP2 MLOAD SWAP1 POP SWAP2 SWAP1 POP JUMP JUMPDEST PUSH1 0x0 DUP3 DUP3 MSTORE PUSH1 0x20 DUP3 ADD SWAP1 POP SWAP3 SWAP2 POP POP JUMP JUMPDEST PUSH1 0x0 JUMPDEST DUP4 DUP2 LT ISZERO PUSH2 0x158F JUMPI DUP1 DUP3 ADD MLOAD DUP2 DUP5 ADD MSTORE PUSH1 0x20 DUP2 ADD SWAP1 POP PUSH2 0x1574 JUMP JUMPDEST PUSH1 0x0 DUP5 DUP5 ADD MSTORE POP POP POP POP JUMP JUMPDEST PUSH1 0x0 PUSH1 0x1F NOT PUSH1 0x1F DUP4 ADD AND SWAP1 POP SWAP2 SWAP1 POP JUMP JUMPDEST PUSH1 0x0 PUSH2 0x15B7 DUP3 PUSH2 0x1555 JUMP JUMPDEST PUSH2 0x15C1 DUP2 DUP6 PUSH2 0x1560 JUMP JUMPDEST SWAP4 POP PUSH2 0x15D1 DUP2 DUP6 PUSH1 0x20 DUP7 ADD PUSH2 0x1571 JUMP JUMPDEST PUSH2 0x15DA DUP2 PUSH2 0x159B JUMP JUMPDEST DUP5 ADD SWAP2 POP POP SWAP3 SWAP2 POP POP JUMP JUMPDEST PUSH1 0x0 PUSH1 0x20 DUP3 ADD SWAP1 POP DUP2 DUP2 SUB PUSH1 0x0 DUP4 ADD MSTORE PUSH2 0x15FF DUP2 DUP5 PUSH2 0x15AC JUMP JUMPDEST SWAP1 POP SWAP3 SWAP2 POP POP JUMP JUMPDEST PUSH1 0x0 DUP2 SWAP1 POP SWAP2 SWAP1 POP JUMP JUMPDEST PUSH2 0x161A DUP2 PUSH2 0x1607 JUMP JUMPDEST DUP2 EQ PUSH2 0x1625 JUMPI PUSH1 0x0 DUP1 REVERT JUMPDEST POP JUMP JUMPDEST PUSH1 0x0 DUP2 CALLDATALOAD SWAP1 POP PUSH2 0x1637 DUP2 PUSH2 0x1611 JUMP JUMPDEST SWAP3 SWAP2 POP POP JUMP JUMPDEST PUSH1 0x0 DUP1 PUSH1 0x40 DUP4 DUP6 SUB SLT ISZERO PUSH2 0x1654 JUMPI PUSH2 0x1653 PUSH2 0x14C5 JUMP JUMPDEST JUMPDEST PUSH1 0x0 PUSH2 0x1662 DUP6 DUP3 DUP7 ADD PUSH2 0x1513 JUMP JUMPDEST SWAP3 POP POP PUSH1 0x20 PUSH2 0x1673 DUP6 DUP3 DUP7 ADD PUSH2 0x1628 JUMP JUMPDEST SWAP2 POP POP SWAP3 POP SWAP3 SWAP1 POP JUMP JUMPDEST PUSH1 0x0 DUP2 ISZERO ISZERO SWAP1 POP SWAP2 SWAP1 POP JUMP JUMPDEST PUSH2 0x1692 DUP2 PUSH2 0x167D JUMP JUMPDEST DUP3 MSTORE POP POP JUMP JUMPDEST PUSH1 0x0 PUSH1 0x20 DUP3 ADD SWAP1 POP PUSH2 0x16AD PUSH1 0x0 DUP4 ADD DUP5 PUSH2 0x1689 JUMP JUMPDEST SWAP3 SWAP2 POP POP JUMP JUMPDEST PUSH1 0x0 DUP2 MLOAD SWAP1 POP SWAP2 SWAP1 POP JUMP JUMPDEST PUSH1 0x0 DUP3 DUP3 MSTORE PUSH1 0x20 DUP3 ADD SWAP1 POP SWAP3 SWAP2 POP POP JUMP JUMPDEST PUSH1 0x0 DUP2 SWAP1 POP PUSH1 0x20 DUP3 ADD SWAP1 POP SWAP2 SWAP1 POP JUMP JUMPDEST PUSH2 0x16E8 DUP2 PUSH2 0x14EA JUMP JUMPDEST DUP3 MSTORE POP POP JUMP JUMPDEST PUSH1 0x0 PUSH2 0x16FA DUP4 DUP4 PUSH2 0x16DF JUMP JUMPDEST PUSH1 0x20 DUP4 ADD SWAP1 POP SWAP3 SWAP2 POP POP JUMP JUMPDEST PUSH1 0x0 PUSH1 0x20 DUP3 ADD SWAP1 POP SWAP2 SWAP1 POP JUMP JUMPDEST PUSH1 0x0 PUSH2 0x171E DUP3 PUSH2 0x16B3 JUMP JUMPDEST PUSH2 0x1728 DUP2 DUP6 PUSH2 0x16BE JUMP JUMPDEST SWAP4 POP PUSH2 0x1733 DUP4 PUSH2 0x16CF JUMP JUMPDEST DUP1 PUSH1 0x0 JUMPDEST DUP4 DUP2 LT ISZERO PUSH2 0x1764 JUMPI DUP2 MLOAD PUSH2 0x174B DUP9 DUP3 PUSH2 0x16EE JUMP JUMPDEST SWAP8 POP PUSH2 0x1756 DUP4 PUSH2 0x1706 JUMP JUMPDEST SWAP3 POP POP PUSH1 0x1 DUP2 ADD SWAP1 POP PUSH2 0x1737 JUMP JUMPDEST POP DUP6 SWAP4 POP POP POP POP SWAP3 SWAP2 POP POP JUMP JUMPDEST PUSH1 0x0 PUSH1 0x20 DUP3 ADD SWAP1 POP DUP2 DUP2 SUB PUSH1 0x0 DUP4 ADD MSTORE PUSH2 0x178B DUP2 DUP5 PUSH2 0x1713 JUMP JUMPDEST SWAP1 POP SWAP3 SWAP2 POP POP JUMP JUMPDEST PUSH2 0x179C DUP2 PUSH2 0x1607 JUMP JUMPDEST DUP3 MSTORE POP POP JUMP JUMPDEST PUSH1 0x0 PUSH1 0x20 DUP3 ADD SWAP1 POP PUSH2 0x17B7 PUSH1 0x0 DUP4 ADD DUP5 PUSH2 0x1793 JUMP JUMPDEST SWAP3 SWAP2 POP POP JUMP JUMPDEST PUSH1 0x0 DUP1 PUSH1 0x0 PUSH1 0x60 DUP5 DUP7 SUB SLT ISZERO PUSH2 0x17D6 JUMPI PUSH2 0x17D5 PUSH2 0x14C5 JUMP JUMPDEST JUMPDEST PUSH1 0x0 PUSH2 0x17E4 DUP7 DUP3 DUP8 ADD PUSH2 0x1513 JUMP JUMPDEST SWAP4 POP POP PUSH1 0x20 PUSH2 0x17F5 DUP7 DUP3 DUP8 ADD PUSH2 0x1513 JUMP JUMPDEST SWAP3 POP POP PUSH1 0x40 PUSH2 0x1806 DUP7 DUP3 DUP8 ADD PUSH2 0x1628 JUMP JUMPDEST SWAP2 POP POP SWAP3 POP SWAP3 POP SWAP3 JUMP JUMPDEST PUSH1 0x0 PUSH1 0xFF DUP3 AND SWAP1 POP SWAP2 SWAP1 POP JUMP JUMPDEST PUSH2 0x1826 DUP2 PUSH2 0x1810 JUMP JUMPDEST DUP3 MSTORE POP POP JUMP JUMPDEST PUSH1 0x0 PUSH1 0x20 DUP3 ADD SWAP1 POP PUSH2 0x1841 PUSH1 0x0 DUP4 ADD DUP5 PUSH2 0x181D JUMP JUMPDEST SWAP3 SWAP2 POP POP JUMP JUMPDEST PUSH2 0x1850 DUP2 PUSH2 0x14EA JUMP JUMPDEST DUP3 MSTORE POP POP JUMP JUMPDEST PUSH1 0x0 PUSH1 0x20 DUP3 ADD SWAP1 POP PUSH2 0x186B PUSH1 0x0 DUP4 ADD DUP5 PUSH2 0x1847 JUMP JUMPDEST SWAP3 SWAP2 POP POP JUMP JUMPDEST PUSH1 0x0 PUSH1 0x20 DUP3 DUP5 SUB SLT ISZERO PUSH2 0x1887 JUMPI PUSH2 0x1886 PUSH2 0x14C5 JUMP JUMPDEST JUMPDEST PUSH1 0x0 PUSH2 0x1895 DUP5 DUP3 DUP6 ADD PUSH2 0x1628 JUMP JUMPDEST SWAP2 POP POP SWAP3 SWAP2 POP POP JUMP JUMPDEST PUSH1 0x0 DUP1 PUSH1 0x40 DUP4 DUP6 SUB SLT ISZERO PUSH2 0x18B5 JUMPI PUSH2 0x18B4 PUSH2 0x14C5 JUMP JUMPDEST JUMPDEST PUSH1 0x0 PUSH2 0x18C3 DUP6 DUP3 DUP7 ADD PUSH2 0x1513 JUMP JUMPDEST SWAP3 POP POP PUSH1 0x20 PUSH2 0x18D4 DUP6 DUP3 DUP7 ADD PUSH2 0x1513 JUMP JUMPDEST SWAP2 POP POP SWAP3 POP SWAP3 SWAP1 POP JUMP JUMPDEST PUSH32 0x4E487B7100000000000000000000000000000000000000000000000000000000 PUSH1 0x0 MSTORE PUSH1 0x32 PUSH1 0x4 MSTORE PUSH1 0x24 PUSH1 0x0 REVERT JUMPDEST PUSH32 0x4E487B7100000000000000000000000000000000000000000000000000000000 PUSH1 0x0 MSTORE PUSH1 0x11 PUSH1 0x4 MSTORE PUSH1 0x24 PUSH1 0x0 REVERT JUMPDEST PUSH1 0x0 PUSH2 0x1947 DUP3 PUSH2 0x1607 JUMP JUMPDEST SWAP2 POP PUSH32 0xFFFFFFFFFFFFFFFFFFFFFFFFFFFFFFFFFFFFFFFFFFFFFFFFFFFFFFFFFFFFFFFF DUP3 SUB PUSH2 0x1979 JUMPI PUSH2 0x1978 PUSH2 0x190D JUMP JUMPDEST JUMPDEST PUSH1 0x1 DUP3 ADD SWAP1 POP SWAP2 SWAP1 POP JUMP JUMPDEST PUSH32 0x4E487B7100000000000000000000000000000000000000000000000000000000 PUSH1 0x0 MSTORE PUSH1 0x22 PUSH1 0x4 MSTORE PUSH1 0x24 PUSH1 0x0 REVERT JUMPDEST PUSH1 0x0 PUSH1 0x2 DUP3 DIV SWAP1 POP PUSH1 0x1 DUP3 AND DUP1 PUSH2 0x19CB JUMPI PUSH1 0x7F DUP3 AND SWAP2 POP JUMPDEST PUSH1 0x20 DUP3 LT DUP2 SUB PUSH2 0x19DE JUMPI PUSH2 0x19DD PUSH2 0x1984 JUMP JUMPDEST JUMPDEST POP SWAP2 SWAP1 POP JUMP JUMPDEST PUSH1 0x0 PUSH2 0x19EF DUP3 PUSH2 0x1607 JUMP JUMPDEST SWAP2 POP PUSH2 0x19FA DUP4 PUSH2 0x1607 JUMP JUMPDEST SWAP3 POP DUP3 DUP3 ADD SWAP1 POP DUP1 DUP3 GT ISZERO PUSH2 0x1A12 JUMPI PUSH2 0x1A11 PUSH2 0x190D JUMP JUMPDEST JUMPDEST SWAP3 SWAP2 POP POP JUMP JUMPDEST PUSH32 0x45524332303A2064656372656173656420616C6C6F77616E63652062656C6F77 PUSH1 0x0 DUP3 ADD MSTORE PUSH32 0x207A65726F000000000000000000000000000000000000000000000000000000 PUSH1 0x20 DUP3 ADD MSTORE POP JUMP JUMPDEST PUSH1 0x0 PUSH2 0x1A74 PUSH1 0x25 DUP4 PUSH2 0x1560 JUMP JUMPDEST SWAP2 POP PUSH2 0x1A7F DUP3 PUSH2 0x1A18 JUMP JUMPDEST PUSH1 0x40 DUP3 ADD SWAP1 POP SWAP2 SWAP1 POP JUMP JUMPDEST PUSH1 0x0 PUSH1 0x20 DUP3 ADD SWAP1 POP DUP2 DUP2 SUB PUSH1 0x0 DUP4 ADD MSTORE PUSH2 0x1AA3 DUP2 PUSH2 0x1A67 JUMP JUMPDEST SWAP1 POP SWAP2 SWAP1 POP JUMP JUMPDEST PUSH32 0x6D73672E73656E646572206973206E6F74207468652070617965720000000000 PUSH1 0x0 DUP3 ADD MSTORE POP JUMP JUMPDEST PUSH1 0x0 PUSH2 0x1AE0 PUSH1 0x1B DUP4 PUSH2 0x1560 JUMP JUMPDEST SWAP2 POP PUSH2 0x1AEB DUP3 PUSH2 0x1AAA JUMP JUMPDEST PUSH1 0x20 DUP3 ADD SWAP1 POP SWAP2 SWAP1 POP JUMP JUMPDEST PUSH1 0x0 PUSH1 0x20 DUP3 ADD SWAP1 POP DUP2 DUP2 SUB PUSH1 0x0 DUP4 ADD MSTORE PUSH2 0x1B0F DUP2 PUSH2 0x1AD3 JUMP JUMPDEST SWAP1 POP SWAP2 SWAP1 POP JUMP JUMPDEST PUSH32 0x4F776E61626C653A206E6577206F776E657220697320746865207A65726F2061 PUSH1 0x0 DUP3 ADD MSTORE PUSH32 0x6464726573730000000000000000000000000000000000000000000000000000 PUSH1 0x20 DUP3 ADD MSTORE POP JUMP JUMPDEST PUSH1 0x0 PUSH2 0x1B72 PUSH1 0x26 DUP4 PUSH2 0x1560 JUMP JUMPDEST SWAP2 POP PUSH2 0x1B7D DUP3 PUSH2 0x1B16 JUMP JUMPDEST PUSH1 0x40 DUP3 ADD SWAP1 POP SWAP2 SWAP1 POP JUMP JUMPDEST PUSH1 0x0 PUSH1 0x20 DUP3 ADD SWAP1 POP DUP2 DUP2 SUB PUSH1 0x0 DUP4 ADD MSTORE PUSH2 0x1BA1 DUP2 PUSH2 0x1B65 JUMP JUMPDEST SWAP1 POP SWAP2 SWAP1 POP JUMP JUMPDEST PUSH32 0x4F776E61626C653A2063616C6C6572206973206E6F7420746865206F776E6572 PUSH1 0x0 DUP3 ADD MSTORE POP JUMP JUMPDEST PUSH1 0x0 PUSH2 0x1BDE PUSH1 0x20 DUP4 PUSH2 0x1560 JUMP JUMPDEST SWAP2 POP PUSH2 0x1BE9 DUP3 PUSH2 0x1BA8 JUMP JUMPDEST PUSH1 0x20 DUP3 ADD SWAP1 POP SWAP2 SWAP1 POP JUMP JUMPDEST PUSH1 0x0 PUSH1 0x20 DUP3 ADD SWAP1 POP DUP2 DUP2 SUB PUSH1 0x0 DUP4 ADD MSTORE PUSH2 0x1C0D DUP2 PUSH2 0x1BD1 JUMP JUMPDEST SWAP1 POP SWAP2 SWAP1 POP JUMP JUMPDEST PUSH32 0x45524332303A20617070726F76652066726F6D20746865207A65726F20616464 PUSH1 0x0 DUP3 ADD MSTORE PUSH32 0x7265737300000000000000000000000000000000000000000000000000000000 PUSH1 0x20 DUP3 ADD MSTORE POP JUMP JUMPDEST PUSH1 0x0 PUSH2 0x1C70 PUSH1 0x24 DUP4 PUSH2 0x1560 JUMP JUMPDEST SWAP2 POP PUSH2 0x1C7B DUP3 PUSH2 0x1C14 JUMP JUMPDEST PUSH1 0x40 DUP3 ADD SWAP1 POP SWAP2 SWAP1 POP JUMP JUMPDEST PUSH1 0x0 PUSH1 0x20 DUP3 ADD SWAP1 POP DUP2 DUP2 SUB PUSH1 0x0 DUP4 ADD MSTORE PUSH2 0x1C9F DUP2 PUSH2 0x1C63 JUMP JUMPDEST SWAP1 POP SWAP2 SWAP1 POP JUMP JUMPDEST PUSH32 0x45524332303A20617070726F766520746F20746865207A65726F206164647265 PUSH1 0x0 DUP3 ADD MSTORE PUSH32 0x7373000000000000000000000000000000000000000000000000000000000000 PUSH1 0x20 DUP3 ADD MSTORE POP JUMP JUMPDEST PUSH1 0x0 PUSH2 0x1D02 PUSH1 0x22 DUP4 PUSH2 0x1560 JUMP JUMPDEST SWAP2 POP PUSH2 0x1D0D DUP3 PUSH2 0x1CA6 JUMP JUMPDEST PUSH1 0x40 DUP3 ADD SWAP1 POP SWAP2 SWAP1 POP JUMP JUMPDEST PUSH1 0x0 PUSH1 0x20 DUP3 ADD SWAP1 POP DUP2 DUP2 SUB PUSH1 0x0 DUP4 ADD MSTORE PUSH2 0x1D31 DUP2 PUSH2 0x1CF5 JUMP JUMPDEST SWAP1 POP SWAP2 SWAP1 POP JUMP JUMPDEST PUSH32 0x45524332303A20696E73756666696369656E7420616C6C6F77616E6365000000 PUSH1 0x0 DUP3 ADD MSTORE POP JUMP JUMPDEST PUSH1 0x0 PUSH2 0x1D6E PUSH1 0x1D DUP4 PUSH2 0x1560 JUMP JUMPDEST SWAP2 POP PUSH2 0x1D79 DUP3 PUSH2 0x1D38 JUMP JUMPDEST PUSH1 0x20 DUP3 ADD SWAP1 POP SWAP2 SWAP1 POP JUMP JUMPDEST PUSH1 0x0 PUSH1 0x20 DUP3 ADD SWAP1 POP DUP2 DUP2 SUB PUSH1 0x0 DUP4 ADD MSTORE PUSH2 0x1D9D DUP2 PUSH2 0x1D61 JUMP JUMPDEST SWAP1 POP SWAP2 SWAP1 POP JUMP JUMPDEST PUSH32 0x45524332303A207472616E736665722066726F6D20746865207A65726F206164 PUSH1 0x0 DUP3 ADD MSTORE PUSH32 0x6472657373000000000000000000000000000000000000000000000000000000 PUSH1 0x20 DUP3 ADD MSTORE POP JUMP JUMPDEST PUSH1 0x0 PUSH2 0x1E00 PUSH1 0x25 DUP4 PUSH2 0x1560 JUMP JUMPDEST SWAP2 POP PUSH2 0x1E0B DUP3 PUSH2 0x1DA4 JUMP JUMPDEST PUSH1 0x40 DUP3 ADD SWAP1 POP SWAP2 SWAP1 POP JUMP JUMPDEST PUSH1 0x0 PUSH1 0x20 DUP3 ADD SWAP1 POP DUP2 DUP2 SUB PUSH1 0x0 DUP4 ADD MSTORE PUSH2 0x1E2F DUP2 PUSH2 0x1DF3 JUMP JUMPDEST SWAP1 POP SWAP2 SWAP1 POP JUMP JUMPDEST PUSH32 0x45524332303A207472616E7366657220746F20746865207A65726F2061646472 PUSH1 0x0 DUP3 ADD MSTORE PUSH32 0x6573730000000000000000000000000000000000000000000000000000000000 PUSH1 0x20 DUP3 ADD MSTORE POP JUMP JUMPDEST PUSH1 0x0 PUSH2 0x1E92 PUSH1 0x23 DUP4 PUSH2 0x1560 JUMP JUMPDEST SWAP2 POP PUSH2 0x1E9D DUP3 PUSH2 0x1E36 JUMP JUMPDEST PUSH1 0x40 DUP3 ADD SWAP1 POP SWAP2 SWAP1 POP JUMP JUMPDEST PUSH1 0x0 PUSH1 0x20 DUP3 ADD SWAP1 POP DUP2 DUP2 SUB PUSH1 0x0 DUP4 ADD MSTORE PUSH2 0x1EC1 DUP2 PUSH2 0x1E85 JUMP JUMPDEST SWAP1 POP SWAP2 SWAP1 POP JUMP JUMPDEST PUSH32 0x45524332303A207472616E7366657220616D6F756E7420657863656564732062 PUSH1 0x0 DUP3 ADD MSTORE PUSH32 0x616C616E63650000000000000000000000000000000000000000000000000000 PUSH1 0x20 DUP3 ADD MSTORE POP JUMP JUMPDEST PUSH1 0x0 PUSH2 0x1F24 PUSH1 0x26 DUP4 PUSH2 0x1560 JUMP JUMPDEST SWAP2 POP PUSH2 0x1F2F DUP3 PUSH2 0x1EC8 JUMP JUMPDEST PUSH1 0x40 DUP3 ADD SWAP1 POP SWAP2 SWAP1 POP JUMP JUMPDEST PUSH1 0x0 PUSH1 0x20 DUP3 ADD SWAP1 POP DUP2 DUP2 SUB PUSH1 0x0 DUP4 ADD MSTORE PUSH2 0x1F53 DUP2 PUSH2 0x1F17 JUMP JUMPDEST SWAP1 POP SWAP2 SWAP1 POP JUMP JUMPDEST PUSH32 0x45524332303A206D696E7420746F20746865207A65726F206164647265737300 PUSH1 0x0 DUP3 ADD MSTORE POP JUMP JUMPDEST PUSH1 0x0 PUSH2 0x1F90 PUSH1 0x1F DUP4 PUSH2 0x1560 JUMP JUMPDEST SWAP2 POP PUSH2 0x1F9B DUP3 PUSH2 0x1F5A JUMP JUMPDEST PUSH1 0x20 DUP3 ADD SWAP1 POP SWAP2 SWAP1 POP JUMP JUMPDEST PUSH1 0x0 PUSH1 0x20 DUP3 ADD SWAP1 POP DUP2 DUP2 SUB PUSH1 0x0 DUP4 ADD MSTORE PUSH2 0x1FBF DUP2 PUSH2 0x1F83 JUMP JUMPDEST SWAP1 POP SWAP2 SWAP1 POP JUMP JUMPDEST PUSH32 0x45524332303A206275726E2066726F6D20746865207A65726F20616464726573 PUSH1 0x0 DUP3 ADD MSTORE PUSH32 0x7300000000000000000000000000000000000000000000000000000000000000 PUSH1 0x20 DUP3 ADD MSTORE POP JUMP JUMPDEST PUSH1 0x0 PUSH2 0x2022 PUSH1 0x21 DUP4 PUSH2 0x1560 JUMP JUMPDEST SWAP2 POP PUSH2 0x202D DUP3 PUSH2 0x1FC6 JUMP JUMPDEST PUSH1 0x40 DUP3 ADD SWAP1 POP SWAP2 SWAP1 POP JUMP JUMPDEST PUSH1 0x0 PUSH1 0x20 DUP3 ADD SWAP1 POP DUP2 DUP2 SUB PUSH1 0x0 DUP4 ADD MSTORE PUSH2 0x2051 DUP2 PUSH2 0x2015 JUMP JUMPDEST SWAP1 POP SWAP2 SWAP1 POP JUMP JUMPDEST PUSH32 0x45524332303A206275726E20616D6F756E7420657863656564732062616C616E PUSH1 0x0 DUP3 ADD MSTORE PUSH32 0x6365000000000000000000000000000000000000000000000000000000000000 PUSH1 0x20 DUP3 ADD MSTORE POP JUMP JUMPDEST PUSH1 0x0 PUSH2 0x20B4 PUSH1 0x22 DUP4 PUSH2 0x1560 JUMP JUMPDEST SWAP2 POP PUSH2 0x20BF DUP3 PUSH2 0x2058 JUMP JUMPDEST PUSH1 0x40 DUP3 ADD SWAP1 POP SWAP2 SWAP1 POP JUMP JUMPDEST PUSH1 0x0 PUSH1 0x20 DUP3 ADD SWAP1 POP DUP2 DUP2 SUB PUSH1 0x0 DUP4 ADD MSTORE PUSH2 0x20E3 DUP2 PUSH2 0x20A7 JUMP JUMPDEST SWAP1 POP SWAP2 SWAP1 POP JUMP INVALID LOG2 PUSH5 0x6970667358 0x22 SLT KECCAK256 LOG1 0xB0 0x2F 0x24 DUP10 0x5C RETURNDATASIZE NOT SELFBALANCE 0xE 0xD2 CREATE2 0xBB BALANCE PUSH24 0xD9C40A347E92D954CE73AAC6217798E5ED64736F6C634300 ADDMOD SGT STOP CALLER "
				},
				"gasEstimates": {
					"creation": {
						"codeDepositCost": "1696000",
						"executionCost": "infinite",
						"totalCost": "infinite"
					},
					"external": {
						"addPayer(address)": "51320",
						"allowance(address,address)": "infinite",
						"approve(address,uint256)": "infinite",
						"balanceOf(address)": "2930",
						"decimals()": "388",
						"decreaseAllowance(address,uint256)": "infinite",
						"getPayers()": "infinite",
						"increaseAllowance(address,uint256)": "infinite",
						"isPayerExist(address)": "infinite",
						"mint(uint256)": "infinite",
						"name()": "infinite",
						"owner()": "2545",
						"pay(uint256)": "infinite",
						"removePayer(address)": "infinite",
						"renounceOwnership()": "30509",
						"symbol()": "infinite",
						"totalSupply()": "2549",
						"transfer(address,uint256)": "infinite",
						"transferFrom(address,address,uint256)": "infinite",
						"transferOwnership(address)": "30854"
					}
				},
				"methodIdentifiers": {
					"addPayer(address)": "b78376e9",
					"allowance(address,address)": "dd62ed3e",
					"approve(address,uint256)": "095ea7b3",
					"balanceOf(address)": "70a08231",
					"decimals()": "313ce567",
					"decreaseAllowance(address,uint256)": "a457c2d7",
					"getPayers()": "1055d708",
					"increaseAllowance(address,uint256)": "39509351",
					"isPayerExist(address)": "d9fcefdd",
					"mint(uint256)": "a0712d68",
					"name()": "06fdde03",
					"owner()": "8da5cb5b",
					"pay(uint256)": "c290d691",
					"removePayer(address)": "048f1627",
					"renounceOwnership()": "715018a6",
					"symbol()": "95d89b41",
					"totalSupply()": "18160ddd",
					"transfer(address,uint256)": "a9059cbb",
					"transferFrom(address,address,uint256)": "23b872dd",
					"transferOwnership(address)": "f2fde38b"
				}
			},
			"storageLayout": {
				"storage": [
					{
						"astId": 258,
						"contract": "contracts/coins/Coin.sol_flattened.sol:Coin",
						"label": "_balances",
						"offset": 0,
						"slot": "0",
						"type": "t_mapping(t_address,t_uint256)"
					},
					{
						"astId": 264,
						"contract": "contracts/coins/Coin.sol_flattened.sol:Coin",
						"label": "_allowances",
						"offset": 0,
						"slot": "1",
						"type": "t_mapping(t_address,t_mapping(t_address,t_uint256))"
					},
					{
						"astId": 266,
						"contract": "contracts/coins/Coin.sol_flattened.sol:Coin",
						"label": "_totalSupply",
						"offset": 0,
						"slot": "2",
						"type": "t_uint256"
					},
					{
						"astId": 268,
						"contract": "contracts/coins/Coin.sol_flattened.sol:Coin",
						"label": "_name",
						"offset": 0,
						"slot": "3",
						"type": "t_string_storage"
					},
					{
						"astId": 270,
						"contract": "contracts/coins/Coin.sol_flattened.sol:Coin",
						"label": "_symbol",
						"offset": 0,
						"slot": "4",
						"type": "t_string_storage"
					},
					{
						"astId": 41,
						"contract": "contracts/coins/Coin.sol_flattened.sol:Coin",
						"label": "_owner",
						"offset": 0,
						"slot": "5",
						"type": "t_address"
					},
					{
						"astId": 839,
						"contract": "contracts/coins/Coin.sol_flattened.sol:Coin",
						"label": "_payers",
						"offset": 0,
						"slot": "6",
						"type": "t_array(t_address)dyn_storage"
					}
				],
				"types": {
					"t_address": {
						"encoding": "inplace",
						"label": "address",
						"numberOfBytes": "20"
					},
					"t_array(t_address)dyn_storage": {
						"base": "t_address",
						"encoding": "dynamic_array",
						"label": "address[]",
						"numberOfBytes": "32"
					},
					"t_mapping(t_address,t_mapping(t_address,t_uint256))": {
						"encoding": "mapping",
						"key": "t_address",
						"label": "mapping(address => mapping(address => uint256))",
						"numberOfBytes": "32",
						"value": "t_mapping(t_address,t_uint256)"
					},
					"t_mapping(t_address,t_uint256)": {
						"encoding": "mapping",
						"key": "t_address",
						"label": "mapping(address => uint256)",
						"numberOfBytes": "32",
						"value": "t_uint256"
					},
					"t_string_storage": {
						"encoding": "bytes",
						"label": "string",
						"numberOfBytes": "32"
					},
					"t_uint256": {
						"encoding": "inplace",
						"label": "uint256",
						"numberOfBytes": "32"
					}
				}
			},
			"userdoc": {
				"kind": "user",
				"methods": {
					"mint(uint256)": {
						"notice": "mint coins"
					},
					"pay(uint256)": {
						"notice": "burn coins"
					}
				},
				"version": 1
			}
		}
	}
}