{
	"contracts/coins/ShoCoin.sol_flattened.sol": {
		"ShoCoin": {
			"abi": [
				{
					"inputs": [],
					"stateMutability": "nonpayable",
					"type": "constructor"
				},
				{
					"anonymous": false,
					"inputs": [
						{
							"indexed": true,
							"internalType": "address",
							"name": "owner",
							"type": "address"
						},
						{
							"indexed": true,
							"internalType": "address",
							"name": "spender",
							"type": "address"
						},
						{
							"indexed": false,
							"internalType": "uint256",
							"name": "value",
							"type": "uint256"
						}
					],
					"name": "Approval",
					"type": "event"
				},
				{
					"anonymous": false,
					"inputs": [
						{
							"indexed": true,
							"internalType": "address",
							"name": "previousOwner",
							"type": "address"
						},
						{
							"indexed": true,
							"internalType": "address",
							"name": "newOwner",
							"type": "address"
						}
					],
					"name": "OwnershipTransferred",
					"type": "event"
				},
				{
					"anonymous": false,
					"inputs": [
						{
							"indexed": false,
							"internalType": "address",
							"name": "account",
							"type": "address"
						}
					],
					"name": "Paused",
					"type": "event"
				},
				{
					"anonymous": false,
					"inputs": [
						{
							"indexed": true,
							"internalType": "address",
							"name": "from",
							"type": "address"
						},
						{
							"indexed": true,
							"internalType": "address",
							"name": "to",
							"type": "address"
						},
						{
							"indexed": false,
							"internalType": "uint256",
							"name": "value",
							"type": "uint256"
						}
					],
					"name": "Transfer",
					"type": "event"
				},
				{
					"anonymous": false,
					"inputs": [
						{
							"indexed": false,
							"internalType": "address",
							"name": "account",
							"type": "address"
						}
					],
					"name": "Unpaused",
					"type": "event"
				},
				{
					"inputs": [
						{
							"internalType": "address",
							"name": "owner",
							"type": "address"
						},
						{
							"internalType": "address",
							"name": "spender",
							"type": "address"
						}
					],
					"name": "allowance",
					"outputs": [
						{
							"internalType": "uint256",
							"name": "",
							"type": "uint256"
						}
					],
					"stateMutability": "view",
					"type": "function"
				},
				{
					"inputs": [
						{
							"internalType": "address",
							"name": "spender",
							"type": "address"
						},
						{
							"internalType": "uint256",
							"name": "amount",
							"type": "uint256"
						}
					],
					"name": "approve",
					"outputs": [
						{
							"internalType": "bool",
							"name": "",
							"type": "bool"
						}
					],
					"stateMutability": "nonpayable",
					"type": "function"
				},
				{
					"inputs": [
						{
							"internalType": "address",
							"name": "account",
							"type": "address"
						}
					],
					"name": "balanceOf",
					"outputs": [
						{
							"internalType": "uint256",
							"name": "",
							"type": "uint256"
						}
					],
					"stateMutability": "view",
					"type": "function"
				},
				{
					"inputs": [
						{
							"internalType": "uint256",
							"name": "amount",
							"type": "uint256"
						}
					],
					"name": "burn",
					"outputs": [],
					"stateMutability": "nonpayable",
					"type": "function"
				},
				{
					"inputs": [
						{
							"internalType": "address",
							"name": "account",
							"type": "address"
						},
						{
							"internalType": "uint256",
							"name": "amount",
							"type": "uint256"
						}
					],
					"name": "burnFrom",
					"outputs": [],
					"stateMutability": "nonpayable",
					"type": "function"
				},
				{
					"inputs": [],
					"name": "decimals",
					"outputs": [
						{
							"internalType": "uint8",
							"name": "",
							"type": "uint8"
						}
					],
					"stateMutability": "view",
					"type": "function"
				},
				{
					"inputs": [
						{
							"internalType": "address",
							"name": "spender",
							"type": "address"
						},
						{
							"internalType": "uint256",
							"name": "subtractedValue",
							"type": "uint256"
						}
					],
					"name": "decreaseAllowance",
					"outputs": [
						{
							"internalType": "bool",
							"name": "",
							"type": "bool"
						}
					],
					"stateMutability": "nonpayable",
					"type": "function"
				},
				{
					"inputs": [
						{
							"internalType": "address",
							"name": "spender",
							"type": "address"
						},
						{
							"internalType": "uint256",
							"name": "addedValue",
							"type": "uint256"
						}
					],
					"name": "increaseAllowance",
					"outputs": [
						{
							"internalType": "bool",
							"name": "",
							"type": "bool"
						}
					],
					"stateMutability": "nonpayable",
					"type": "function"
				},
				{
					"inputs": [
						{
							"internalType": "address",
							"name": "to",
							"type": "address"
						},
						{
							"internalType": "uint256",
							"name": "amount",
							"type": "uint256"
						}
					],
					"name": "mint",
					"outputs": [],
					"stateMutability": "nonpayable",
					"type": "function"
				},
				{
					"inputs": [
						{
							"internalType": "uint256",
							"name": "amount",
							"type": "uint256"
						}
					],
					"name": "mint",
					"outputs": [],
					"stateMutability": "nonpayable",
					"type": "function"
				},
				{
					"inputs": [],
					"name": "name",
					"outputs": [
						{
							"internalType": "string",
							"name": "",
							"type": "string"
						}
					],
					"stateMutability": "view",
					"type": "function"
				},
				{
					"inputs": [],
					"name": "owner",
					"outputs": [
						{
							"internalType": "address",
							"name": "",
							"type": "address"
						}
					],
					"stateMutability": "view",
					"type": "function"
				},
				{
					"inputs": [],
					"name": "pause",
					"outputs": [],
					"stateMutability": "nonpayable",
					"type": "function"
				},
				{
					"inputs": [],
					"name": "paused",
					"outputs": [
						{
							"internalType": "bool",
							"name": "",
							"type": "bool"
						}
					],
					"stateMutability": "view",
					"type": "function"
				},
				{
					"inputs": [
						{
							"internalType": "uint256",
							"name": "amount",
							"type": "uint256"
						}
					],
					"name": "pay",
					"outputs": [],
					"stateMutability": "nonpayable",
					"type": "function"
				},
				{
					"inputs": [],
					"name": "renounceOwnership",
					"outputs": [],
					"stateMutability": "nonpayable",
					"type": "function"
				},
				{
					"inputs": [],
					"name": "symbol",
					"outputs": [
						{
							"internalType": "string",
							"name": "",
							"type": "string"
						}
					],
					"stateMutability": "view",
					"type": "function"
				},
				{
					"inputs": [],
					"name": "totalSupply",
					"outputs": [
						{
							"internalType": "uint256",
							"name": "",
							"type": "uint256"
						}
					],
					"stateMutability": "view",
					"type": "function"
				},
				{
					"inputs": [
						{
							"internalType": "address",
							"name": "to",
							"type": "address"
						},
						{
							"internalType": "uint256",
							"name": "amount",
							"type": "uint256"
						}
					],
					"name": "transfer",
					"outputs": [
						{
							"internalType": "bool",
							"name": "",
							"type": "bool"
						}
					],
					"stateMutability": "nonpayable",
					"type": "function"
				},
				{
					"inputs": [
						{
							"internalType": "address",
							"name": "from",
							"type": "address"
						},
						{
							"internalType": "address",
							"name": "to",
							"type": "address"
						},
						{
							"internalType": "uint256",
							"name": "amount",
							"type": "uint256"
						}
					],
					"name": "transferFrom",
					"outputs": [
						{
							"internalType": "bool",
							"name": "",
							"type": "bool"
						}
					],
					"stateMutability": "nonpayable",
					"type": "function"
				},
				{
					"inputs": [
						{
							"internalType": "address",
							"name": "newOwner",
							"type": "address"
						}
					],
					"name": "transferOwnership",
					"outputs": [],
					"stateMutability": "nonpayable",
					"type": "function"
				},
				{
					"inputs": [],
					"name": "unpause",
					"outputs": [],
					"stateMutability": "nonpayable",
					"type": "function"
				}
			],
			"devdoc": {
				"events": {
					"Approval(address,address,uint256)": {
						"details": "Emitted when the allowance of a `spender` for an `owner` is set by a call to {approve}. `value` is the new allowance."
					},
					"Paused(address)": {
						"details": "Emitted when the pause is triggered by `account`."
					},
					"Transfer(address,address,uint256)": {
						"details": "Emitted when `value` tokens are moved from one account (`from`) to another (`to`). Note that `value` may be zero."
					},
					"Unpaused(address)": {
						"details": "Emitted when the pause is lifted by `account`."
					}
				},
				"kind": "dev",
				"methods": {
					"allowance(address,address)": {
						"details": "See {IERC20-allowance}."
					},
					"approve(address,uint256)": {
						"details": "See {IERC20-approve}. NOTE: If `amount` is the maximum `uint256`, the allowance is not updated on `transferFrom`. This is semantically equivalent to an infinite approval. Requirements: - `spender` cannot be the zero address."
					},
					"balanceOf(address)": {
						"details": "See {IERC20-balanceOf}."
					},
					"burn(uint256)": {
						"details": "Destroys `amount` tokens from the caller. See {ERC20-_burn}."
					},
					"burnFrom(address,uint256)": {
						"details": "Destroys `amount` tokens from `account`, deducting from the caller's allowance. See {ERC20-_burn} and {ERC20-allowance}. Requirements: - the caller must have allowance for ``accounts``'s tokens of at least `amount`."
					},
					"decimals()": {
						"details": "Returns the number of decimals used to get its user representation. For example, if `decimals` equals `2`, a balance of `505` tokens should be displayed to a user as `5.05` (`505 / 10 ** 2`). Tokens usually opt for a value of 18, imitating the relationship between Ether and Wei. This is the value {ERC20} uses, unless this function is overridden; NOTE: This information is only used for _display_ purposes: it in no way affects any of the arithmetic of the contract, including {IERC20-balanceOf} and {IERC20-transfer}."
					},
					"decreaseAllowance(address,uint256)": {
						"details": "Atomically decreases the allowance granted to `spender` by the caller. This is an alternative to {approve} that can be used as a mitigation for problems described in {IERC20-approve}. Emits an {Approval} event indicating the updated allowance. Requirements: - `spender` cannot be the zero address. - `spender` must have allowance for the caller of at least `subtractedValue`."
					},
					"increaseAllowance(address,uint256)": {
						"details": "Atomically increases the allowance granted to `spender` by the caller. This is an alternative to {approve} that can be used as a mitigation for problems described in {IERC20-approve}. Emits an {Approval} event indicating the updated allowance. Requirements: - `spender` cannot be the zero address."
					},
					"name()": {
						"details": "Returns the name of the token."
					},
					"owner()": {
						"details": "Returns the address of the current owner."
					},
					"paused()": {
						"details": "Returns true if the contract is paused, and false otherwise."
					},
					"renounceOwnership()": {
						"details": "Leaves the contract without owner. It will not be possible to call `onlyOwner` functions anymore. Can only be called by the current owner. NOTE: Renouncing ownership will leave the contract without an owner, thereby removing any functionality that is only available to the owner."
					},
					"symbol()": {
						"details": "Returns the symbol of the token, usually a shorter version of the name."
					},
					"totalSupply()": {
						"details": "See {IERC20-totalSupply}."
					},
					"transfer(address,uint256)": {
						"details": "See {IERC20-transfer}. Requirements: - `to` cannot be the zero address. - the caller must have a balance of at least `amount`."
					},
					"transferFrom(address,address,uint256)": {
						"details": "See {IERC20-transferFrom}. Emits an {Approval} event indicating the updated allowance. This is not required by the EIP. See the note at the beginning of {ERC20}. NOTE: Does not update the allowance if the current allowance is the maximum `uint256`. Requirements: - `from` and `to` cannot be the zero address. - `from` must have a balance of at least `amount`. - the caller must have allowance for ``from``'s tokens of at least `amount`."
					},
					"transferOwnership(address)": {
						"details": "Transfers ownership of the contract to a new account (`newOwner`). Can only be called by the current owner."
					}
				},
				"version": 1
			},
			"evm": {
				"assembly": "    /* \"contracts/coins/ShoCoin.sol_flattened.sol\":23874:24667  contract ShoCoin is ERC20, ERC20Burnable, Pausable, Ownable, ICoin {... */\n  mstore(0x40, 0x80)\n    /* \"contracts/coins/ShoCoin.sol_flattened.sol\":23947:23988  constructor() ERC20(\"ShoCoin\", \"SHOC\") {} */\n  callvalue\n  dup1\n  iszero\n  tag_1\n  jumpi\n  0x00\n  dup1\n  revert\ntag_1:\n  pop\n    /* \"contracts/coins/ShoCoin.sol_flattened.sol\":11644:11757  constructor(string memory name_, string memory symbol_) {... */\n  mload(0x40)\n  dup1\n  0x40\n  add\n  0x40\n  mstore\n  dup1\n  0x07\n  dup2\n  mstore\n  0x20\n  add\n  shl(0xc9, 0x29b437a1b7b4b7)\n  dup2\n  mstore\n  pop\n  mload(0x40)\n  dup1\n  0x40\n  add\n  0x40\n  mstore\n  dup1\n  0x04\n  dup2\n  mstore\n  0x20\n  add\n  shl(0xe0, 0x53484f43)\n  dup2\n  mstore\n  pop\n    /* \"contracts/coins/ShoCoin.sol_flattened.sol\":11718:11723  name_ */\n  dup2\n    /* \"contracts/coins/ShoCoin.sol_flattened.sol\":11710:11715  _name */\n  0x03\n    /* \"contracts/coins/ShoCoin.sol_flattened.sol\":11710:11723  _name = name_ */\n  swap1\n  dup2\n  tag_7\n  swap2\n  swap1\n  tag_8\n  jump\t// in\ntag_7:\n  pop\n    /* \"contracts/coins/ShoCoin.sol_flattened.sol\":11733:11740  _symbol */\n  0x04\n    /* \"contracts/coins/ShoCoin.sol_flattened.sol\":11733:11750  _symbol = symbol_ */\n  tag_9\n    /* \"contracts/coins/ShoCoin.sol_flattened.sol\":11743:11750  symbol_ */\n  dup3\n    /* \"contracts/coins/ShoCoin.sol_flattened.sol\":11733:11740  _symbol */\n  dup3\n    /* \"contracts/coins/ShoCoin.sol_flattened.sol\":11733:11750  _symbol = symbol_ */\n  tag_8\n  jump\t// in\ntag_9:\n  pop\n  pop\n    /* \"contracts/coins/ShoCoin.sol_flattened.sol\":4683:4690  _paused */\n  0x05\n    /* \"contracts/coins/ShoCoin.sol_flattened.sol\":4683:4698  _paused = false */\n  dup1\n  sload\n  not(0xff)\n  and\n  swap1\n  sstore\n  pop\n    /* \"contracts/coins/ShoCoin.sol_flattened.sol\":2005:2037  _transferOwnership(_msgSender()) */\n  tag_12\n    /* \"contracts/coins/ShoCoin.sol_flattened.sol\":952:962  msg.sender */\n  caller\n    /* \"contracts/coins/ShoCoin.sol_flattened.sol\":2005:2023  _transferOwnership */\n  tag_15\n    /* \"contracts/coins/ShoCoin.sol_flattened.sol\":2005:2037  _transferOwnership(_msgSender()) */\n  jump\t// in\ntag_12:\n    /* \"contracts/coins/ShoCoin.sol_flattened.sol\":23874:24667  contract ShoCoin is ERC20, ERC20Burnable, Pausable, Ownable, ICoin {... */\n  jump(tag_25)\n    /* \"contracts/coins/ShoCoin.sol_flattened.sol\":3502:3689  function _transferOwnership(address newOwner) internal virtual {... */\ntag_15:\n    /* \"contracts/coins/ShoCoin.sol_flattened.sol\":3594:3600  _owner */\n  0x05\n  dup1\n  sload\n  sub(shl(0xa0, 0x01), 0x01)\n    /* \"contracts/coins/ShoCoin.sol_flattened.sol\":3610:3627  _owner = newOwner */\n  dup4\n  dup2\n  and\n    /* \"contracts/coins/ShoCoin.sol_flattened.sol\":3594:3600  _owner */\n  0x0100\n    /* \"contracts/coins/ShoCoin.sol_flattened.sol\":3610:3627  _owner = newOwner */\n  dup2\n  dup2\n  mul\n  not(sub(shl(0xa8, 0x01), 0x0100))\n  dup6\n  and\n  or\n  swap1\n  swap5\n  sstore\n    /* \"contracts/coins/ShoCoin.sol_flattened.sol\":3642:3682  OwnershipTransferred(oldOwner, newOwner) */\n  mload(0x40)\n    /* \"contracts/coins/ShoCoin.sol_flattened.sol\":3594:3600  _owner */\n  swap4\n  swap1\n  swap3\n  div\n  and\n  swap2\n  dup3\n  swap1\n    /* \"contracts/coins/ShoCoin.sol_flattened.sol\":3642:3682  OwnershipTransferred(oldOwner, newOwner) */\n  0x8be0079c531659141344cd1fd0a4f28419497f9722a3daafe3b4186f6b6457e0\n  swap1\n    /* \"contracts/coins/ShoCoin.sol_flattened.sol\":3575:3591  address oldOwner */\n  0x00\n  swap1\n    /* \"contracts/coins/ShoCoin.sol_flattened.sol\":3642:3682  OwnershipTransferred(oldOwner, newOwner) */\n  log3\n    /* \"contracts/coins/ShoCoin.sol_flattened.sol\":3565:3689  {... */\n  pop\n    /* \"contracts/coins/ShoCoin.sol_flattened.sol\":3502:3689  function _transferOwnership(address newOwner) internal virtual {... */\n  pop\n  jump\t// out\n    /* \"#utility.yul\":14:141   */\ntag_20:\n    /* \"#utility.yul\":75:85   */\n  0x4e487b71\n    /* \"#utility.yul\":70:73   */\n  0xe0\n    /* \"#utility.yul\":66:86   */\n  shl\n    /* \"#utility.yul\":63:64   */\n  0x00\n    /* \"#utility.yul\":56:87   */\n  mstore\n    /* \"#utility.yul\":106:110   */\n  0x41\n    /* \"#utility.yul\":103:104   */\n  0x04\n    /* \"#utility.yul\":96:111   */\n  mstore\n    /* \"#utility.yul\":130:134   */\n  0x24\n    /* \"#utility.yul\":127:128   */\n  0x00\n    /* \"#utility.yul\":120:135   */\n  revert\n    /* \"#utility.yul\":146:526   */\ntag_21:\n    /* \"#utility.yul\":225:226   */\n  0x01\n    /* \"#utility.yul\":221:233   */\n  dup2\n  dup2\n  shr\n  swap1\n    /* \"#utility.yul\":268:280   */\n  dup3\n  and\n  dup1\n    /* \"#utility.yul\":289:350   */\n  tag_28\n  jumpi\n    /* \"#utility.yul\":343:347   */\n  0x7f\n    /* \"#utility.yul\":335:341   */\n  dup3\n    /* \"#utility.yul\":331:348   */\n  and\n    /* \"#utility.yul\":321:348   */\n  swap2\n  pop\n    /* \"#utility.yul\":289:350   */\ntag_28:\n    /* \"#utility.yul\":396:398   */\n  0x20\n    /* \"#utility.yul\":388:394   */\n  dup3\n    /* \"#utility.yul\":385:399   */\n  lt\n    /* \"#utility.yul\":365:383   */\n  dup2\n    /* \"#utility.yul\":362:400   */\n  sub\n    /* \"#utility.yul\":359:520   */\n  tag_29\n  jumpi\n    /* \"#utility.yul\":442:452   */\n  0x4e487b71\n    /* \"#utility.yul\":437:440   */\n  0xe0\n    /* \"#utility.yul\":433:453   */\n  shl\n    /* \"#utility.yul\":430:431   */\n  0x00\n    /* \"#utility.yul\":423:454   */\n  mstore\n    /* \"#utility.yul\":477:481   */\n  0x22\n    /* \"#utility.yul\":474:475   */\n  0x04\n    /* \"#utility.yul\":467:482   */\n  mstore\n    /* \"#utility.yul\":505:509   */\n  0x24\n    /* \"#utility.yul\":502:503   */\n  0x00\n    /* \"#utility.yul\":495:510   */\n  revert\n    /* \"#utility.yul\":359:520   */\ntag_29:\n  pop\n    /* \"#utility.yul\":146:526   */\n  swap2\n  swap1\n  pop\n  jump\t// out\n    /* \"#utility.yul\":657:1202   */\ntag_23:\n    /* \"#utility.yul\":759:761   */\n  0x1f\n    /* \"#utility.yul\":754:757   */\n  dup3\n    /* \"#utility.yul\":751:762   */\n  gt\n    /* \"#utility.yul\":748:1196   */\n  iszero\n  tag_32\n  jumpi\n    /* \"#utility.yul\":795:796   */\n  0x00\n    /* \"#utility.yul\":820:825   */\n  dup2\n    /* \"#utility.yul\":816:818   */\n  dup2\n    /* \"#utility.yul\":809:826   */\n  mstore\n    /* \"#utility.yul\":865:869   */\n  0x20\n    /* \"#utility.yul\":861:863   */\n  dup2\n    /* \"#utility.yul\":851:870   */\n  keccak256\n    /* \"#utility.yul\":935:937   */\n  0x1f\n    /* \"#utility.yul\":923:933   */\n  dup6\n    /* \"#utility.yul\":919:938   */\n  add\n    /* \"#utility.yul\":916:917   */\n  0x05\n    /* \"#utility.yul\":912:939   */\n  shr\n    /* \"#utility.yul\":906:910   */\n  dup2\n    /* \"#utility.yul\":902:940   */\n  add\n    /* \"#utility.yul\":971:975   */\n  0x20\n    /* \"#utility.yul\":959:969   */\n  dup7\n    /* \"#utility.yul\":956:976   */\n  lt\n    /* \"#utility.yul\":953:1000   */\n  iszero\n  tag_33\n  jumpi\n  pop\n    /* \"#utility.yul\":994:998   */\n  dup1\n    /* \"#utility.yul\":953:1000   */\ntag_33:\n    /* \"#utility.yul\":1049:1051   */\n  0x1f\n    /* \"#utility.yul\":1044:1047   */\n  dup6\n    /* \"#utility.yul\":1040:1052   */\n  add\n    /* \"#utility.yul\":1037:1038   */\n  0x05\n    /* \"#utility.yul\":1033:1053   */\n  shr\n    /* \"#utility.yul\":1027:1031   */\n  dup3\n    /* \"#utility.yul\":1023:1054   */\n  add\n    /* \"#utility.yul\":1013:1054   */\n  swap2\n  pop\n    /* \"#utility.yul\":1104:1186   */\ntag_34:\n    /* \"#utility.yul\":1122:1124   */\n  dup2\n    /* \"#utility.yul\":1115:1120   */\n  dup2\n    /* \"#utility.yul\":1112:1125   */\n  lt\n    /* \"#utility.yul\":1104:1186   */\n  iszero\n  tag_36\n  jumpi\n    /* \"#utility.yul\":1167:1184   */\n  dup3\n  dup2\n  sstore\n    /* \"#utility.yul\":1148:1149   */\n  0x01\n    /* \"#utility.yul\":1137:1150   */\n  add\n    /* \"#utility.yul\":1104:1186   */\n  jump(tag_34)\ntag_36:\n    /* \"#utility.yul\":1108:1111   */\n  pop\n  pop\n  pop\n    /* \"#utility.yul\":748:1196   */\ntag_32:\n    /* \"#utility.yul\":657:1202   */\n  pop\n  pop\n  pop\n  jump\t// out\n    /* \"#utility.yul\":1378:2730   */\ntag_8:\n    /* \"#utility.yul\":1498:1508   */\n  dup2\n  mload\n  sub(shl(0x40, 0x01), 0x01)\n    /* \"#utility.yul\":1520:1550   */\n  dup2\n  gt\n    /* \"#utility.yul\":1517:1573   */\n  iszero\n  tag_40\n  jumpi\n    /* \"#utility.yul\":1553:1571   */\n  tag_40\n  tag_20\n  jump\t// in\ntag_40:\n    /* \"#utility.yul\":1582:1679   */\n  tag_41\n    /* \"#utility.yul\":1672:1678   */\n  dup2\n    /* \"#utility.yul\":1632:1670   */\n  tag_42\n    /* \"#utility.yul\":1664:1668   */\n  dup5\n    /* \"#utility.yul\":1658:1669   */\n  sload\n    /* \"#utility.yul\":1632:1670   */\n  tag_21\n  jump\t// in\ntag_42:\n    /* \"#utility.yul\":1626:1630   */\n  dup5\n    /* \"#utility.yul\":1582:1679   */\n  tag_23\n  jump\t// in\ntag_41:\n    /* \"#utility.yul\":1734:1738   */\n  0x20\n  dup1\n    /* \"#utility.yul\":1798:1800   */\n  0x1f\n    /* \"#utility.yul\":1787:1801   */\n  dup4\n  gt\n    /* \"#utility.yul\":1815:1816   */\n  0x01\n    /* \"#utility.yul\":1810:2473   */\n  dup2\n  eq\n  tag_44\n  jumpi\n    /* \"#utility.yul\":2517:2518   */\n  0x00\n    /* \"#utility.yul\":2534:2540   */\n  dup5\n    /* \"#utility.yul\":2531:2620   */\n  iszero\n  tag_45\n  jumpi\n  pop\n    /* \"#utility.yul\":2586:2605   */\n  dup6\n  dup4\n  add\n    /* \"#utility.yul\":2580:2606   */\n  mload\n    /* \"#utility.yul\":2531:2620   */\ntag_45:\n  not(0x00)\n    /* \"#utility.yul\":1335:1336   */\n  0x03\n    /* \"#utility.yul\":1331:1342   */\n  dup7\n  swap1\n  shl\n    /* \"#utility.yul\":1327:1351   */\n  shr\n    /* \"#utility.yul\":1323:1352   */\n  not\n    /* \"#utility.yul\":1313:1353   */\n  and\n    /* \"#utility.yul\":1359:1360   */\n  0x01\n    /* \"#utility.yul\":1355:1366   */\n  dup6\n  swap1\n  shl\n    /* \"#utility.yul\":1310:1367   */\n  or\n    /* \"#utility.yul\":2633:2714   */\n  dup6\n  sstore\n    /* \"#utility.yul\":1780:2724   */\n  jump(tag_36)\n    /* \"#utility.yul\":1810:2473   */\ntag_44:\n    /* \"#utility.yul\":604:605   */\n  0x00\n    /* \"#utility.yul\":597:611   */\n  dup6\n  dup2\n  mstore\n    /* \"#utility.yul\":641:645   */\n  0x20\n    /* \"#utility.yul\":628:646   */\n  dup2\n  keccak256\n  not(0x1f)\n    /* \"#utility.yul\":1846:1866   */\n  dup7\n  and\n  swap2\n    /* \"#utility.yul\":1964:2200   */\ntag_48:\n    /* \"#utility.yul\":1978:1985   */\n  dup3\n    /* \"#utility.yul\":1975:1976   */\n  dup2\n    /* \"#utility.yul\":1972:1986   */\n  lt\n    /* \"#utility.yul\":1964:2200   */\n  iszero\n  tag_50\n  jumpi\n    /* \"#utility.yul\":2067:2086   */\n  dup9\n  dup7\n  add\n    /* \"#utility.yul\":2061:2087   */\n  mload\n    /* \"#utility.yul\":2046:2088   */\n  dup3\n  sstore\n    /* \"#utility.yul\":2159:2186   */\n  swap5\n  dup5\n  add\n  swap5\n    /* \"#utility.yul\":2127:2128   */\n  0x01\n    /* \"#utility.yul\":2115:2129   */\n  swap1\n  swap2\n  add\n  swap1\n    /* \"#utility.yul\":1994:2013   */\n  dup5\n  add\n    /* \"#utility.yul\":1964:2200   */\n  jump(tag_48)\ntag_50:\n    /* \"#utility.yul\":1968:1971   */\n  pop\n    /* \"#utility.yul\":2228:2234   */\n  dup6\n    /* \"#utility.yul\":2219:2226   */\n  dup3\n    /* \"#utility.yul\":2216:2235   */\n  lt\n    /* \"#utility.yul\":2213:2414   */\n  iszero\n  tag_51\n  jumpi\n    /* \"#utility.yul\":2289:2308   */\n  dup8\n  dup6\n  add\n    /* \"#utility.yul\":2283:2309   */\n  mload\n  not(0x00)\n    /* \"#utility.yul\":2372:2373   */\n  0x03\n    /* \"#utility.yul\":2368:2382   */\n  dup9\n  swap1\n  shl\n    /* \"#utility.yul\":2384:2387   */\n  0xf8\n    /* \"#utility.yul\":2364:2388   */\n  and\n    /* \"#utility.yul\":2360:2397   */\n  shr\n    /* \"#utility.yul\":2356:2398   */\n  not\n    /* \"#utility.yul\":2341:2399   */\n  and\n    /* \"#utility.yul\":2326:2400   */\n  dup2\n  sstore\n    /* \"#utility.yul\":2213:2414   */\ntag_51:\n  pop\n  pop\n  pop\n  pop\n  pop\n    /* \"#utility.yul\":2460:2461   */\n  0x01\n    /* \"#utility.yul\":2444:2458   */\n  swap1\n  dup2\n  shl\n    /* \"#utility.yul\":2440:2462   */\n  add\n    /* \"#utility.yul\":2427:2463   */\n  swap1\n  sstore\n  pop\n    /* \"#utility.yul\":1378:2730   */\n  jump\t// out\ntag_25:\n    /* \"contracts/coins/ShoCoin.sol_flattened.sol\":23874:24667  contract ShoCoin is ERC20, ERC20Burnable, Pausable, Ownable, ICoin {... */\n  dataSize(sub_0)\n  dup1\n  dataOffset(sub_0)\n  0x00\n  codecopy\n  0x00\n  return\nstop\n\nsub_0: assembly {\n        /* \"contracts/coins/ShoCoin.sol_flattened.sol\":23874:24667  contract ShoCoin is ERC20, ERC20Burnable, Pausable, Ownable, ICoin {... */\n      mstore(0x40, 0x80)\n      callvalue\n      dup1\n      iszero\n      tag_1\n      jumpi\n      0x00\n      dup1\n      revert\n    tag_1:\n      pop\n      jumpi(tag_2, lt(calldatasize, 0x04))\n      shr(0xe0, calldataload(0x00))\n      dup1\n      0x715018a6\n      gt\n      tag_25\n      jumpi\n      dup1\n      0xa0712d68\n      gt\n      tag_26\n      jumpi\n      dup1\n      0xa0712d68\n      eq\n      tag_19\n      jumpi\n      dup1\n      0xa457c2d7\n      eq\n      tag_20\n      jumpi\n      dup1\n      0xa9059cbb\n      eq\n      tag_21\n      jumpi\n      dup1\n      0xc290d691\n      eq\n      tag_22\n      jumpi\n      dup1\n      0xdd62ed3e\n      eq\n      tag_23\n      jumpi\n      dup1\n      0xf2fde38b\n      eq\n      tag_24\n      jumpi\n      0x00\n      dup1\n      revert\n    tag_26:\n      dup1\n      0x715018a6\n      eq\n      tag_14\n      jumpi\n      dup1\n      0x79cc6790\n      eq\n      tag_15\n      jumpi\n      dup1\n      0x8456cb59\n      eq\n      tag_16\n      jumpi\n      dup1\n      0x8da5cb5b\n      eq\n      tag_17\n      jumpi\n      dup1\n      0x95d89b41\n      eq\n      tag_18\n      jumpi\n      0x00\n      dup1\n      revert\n    tag_25:\n      dup1\n      0x39509351\n      gt\n      tag_27\n      jumpi\n      dup1\n      0x39509351\n      eq\n      tag_8\n      jumpi\n      dup1\n      0x3f4ba83a\n      eq\n      tag_9\n      jumpi\n      dup1\n      0x40c10f19\n      eq\n      tag_10\n      jumpi\n      dup1\n      0x42966c68\n      eq\n      tag_11\n      jumpi\n      dup1\n      0x5c975abb\n      eq\n      tag_12\n      jumpi\n      dup1\n      0x70a08231\n      eq\n      tag_13\n      jumpi\n      0x00\n      dup1\n      revert\n    tag_27:\n      dup1\n      0x06fdde03\n      eq\n      tag_3\n      jumpi\n      dup1\n      0x095ea7b3\n      eq\n      tag_4\n      jumpi\n      dup1\n      0x18160ddd\n      eq\n      tag_5\n      jumpi\n      dup1\n      0x23b872dd\n      eq\n      tag_6\n      jumpi\n      dup1\n      0x313ce567\n      eq\n      tag_7\n      jumpi\n    tag_2:\n      0x00\n      dup1\n      revert\n        /* \"contracts/coins/ShoCoin.sol_flattened.sol\":11822:11920  function name() public view virtual override returns (string memory) {... */\n    tag_3:\n      tag_28\n      tag_29\n      jump\t// in\n    tag_28:\n      mload(0x40)\n      tag_30\n      swap2\n      swap1\n      tag_31\n      jump\t// in\n    tag_30:\n      mload(0x40)\n      dup1\n      swap2\n      sub\n      swap1\n      return\n        /* \"contracts/coins/ShoCoin.sol_flattened.sol\":14099:14296  function approve(address spender, uint256 amount) public virtual override returns (bool) {... */\n    tag_4:\n      tag_32\n      tag_33\n      calldatasize\n      0x04\n      tag_34\n      jump\t// in\n    tag_33:\n      tag_35\n      jump\t// in\n    tag_32:\n      mload(0x40)\n        /* \"#utility.yul\":1169:1183   */\n      swap1\n      iszero\n        /* \"#utility.yul\":1162:1184   */\n      iszero\n        /* \"#utility.yul\":1144:1185   */\n      dup2\n      mstore\n        /* \"#utility.yul\":1132:1134   */\n      0x20\n        /* \"#utility.yul\":1117:1135   */\n      add\n        /* \"contracts/coins/ShoCoin.sol_flattened.sol\":14099:14296  function approve(address spender, uint256 amount) public virtual override returns (bool) {... */\n      tag_30\n        /* \"#utility.yul\":1004:1191   */\n      jump\n        /* \"contracts/coins/ShoCoin.sol_flattened.sol\":12910:13016  function totalSupply() public view virtual override returns (uint256) {... */\n    tag_5:\n        /* \"contracts/coins/ShoCoin.sol_flattened.sol\":12997:13009  _totalSupply */\n      sload(0x02)\n        /* \"contracts/coins/ShoCoin.sol_flattened.sol\":12910:13016  function totalSupply() public view virtual override returns (uint256) {... */\n    tag_38:\n      mload(0x40)\n        /* \"#utility.yul\":1342:1367   */\n      swap1\n      dup2\n      mstore\n        /* \"#utility.yul\":1330:1332   */\n      0x20\n        /* \"#utility.yul\":1315:1333   */\n      add\n        /* \"contracts/coins/ShoCoin.sol_flattened.sol\":12910:13016  function totalSupply() public view virtual override returns (uint256) {... */\n      tag_30\n        /* \"#utility.yul\":1196:1373   */\n      jump\n        /* \"contracts/coins/ShoCoin.sol_flattened.sol\":14858:15144  function transferFrom(... */\n    tag_6:\n      tag_32\n      tag_43\n      calldatasize\n      0x04\n      tag_44\n      jump\t// in\n    tag_43:\n      tag_45\n      jump\t// in\n        /* \"contracts/coins/ShoCoin.sol_flattened.sol\":12759:12850  function decimals() public view virtual override returns (uint8) {... */\n    tag_7:\n      mload(0x40)\n        /* \"contracts/coins/ShoCoin.sol_flattened.sol\":12841:12843  18 */\n      0x12\n        /* \"#utility.yul\":1853:1889   */\n      dup2\n      mstore\n        /* \"#utility.yul\":1841:1843   */\n      0x20\n        /* \"#utility.yul\":1826:1844   */\n      add\n        /* \"contracts/coins/ShoCoin.sol_flattened.sol\":12759:12850  function decimals() public view virtual override returns (uint8) {... */\n      tag_30\n        /* \"#utility.yul\":1711:1895   */\n      jump\n        /* \"contracts/coins/ShoCoin.sol_flattened.sol\":15539:15773  function increaseAllowance(address spender, uint256 addedValue) public virtual returns (bool) {... */\n    tag_8:\n      tag_32\n      tag_52\n      calldatasize\n      0x04\n      tag_34\n      jump\t// in\n    tag_52:\n      tag_53\n      jump\t// in\n        /* \"contracts/coins/ShoCoin.sol_flattened.sol\":24059:24122  function unpause() public onlyOwner {... */\n    tag_9:\n      tag_55\n      tag_56\n      jump\t// in\n    tag_55:\n      stop\n        /* \"contracts/coins/ShoCoin.sol_flattened.sol\":24128:24221  function mint(address to, uint256 amount) public onlyOwner {... */\n    tag_10:\n      tag_55\n      tag_58\n      calldatasize\n      0x04\n      tag_34\n      jump\t// in\n    tag_58:\n      tag_59\n      jump\t// in\n        /* \"contracts/coins/ShoCoin.sol_flattened.sol\":23244:23333  function burn(uint256 amount) public virtual {... */\n    tag_11:\n      tag_55\n      tag_61\n      calldatasize\n      0x04\n      tag_62\n      jump\t// in\n    tag_61:\n      tag_63\n      jump\t// in\n        /* \"contracts/coins/ShoCoin.sol_flattened.sol\":5302:5386  function paused() public view virtual returns (bool) {... */\n    tag_12:\n        /* \"contracts/coins/ShoCoin.sol_flattened.sol\":5372:5379  _paused */\n      and(0xff, sload(0x05))\n        /* \"contracts/coins/ShoCoin.sol_flattened.sol\":5302:5386  function paused() public view virtual returns (bool) {... */\n      jump(tag_32)\n        /* \"contracts/coins/ShoCoin.sol_flattened.sol\":13074:13199  function balanceOf(address account) public view virtual override returns (uint256) {... */\n    tag_13:\n      tag_38\n      tag_68\n      calldatasize\n      0x04\n      tag_69\n      jump\t// in\n    tag_68:\n      sub(shl(0xa0, 0x01), 0x01)\n        /* \"contracts/coins/ShoCoin.sol_flattened.sol\":13174:13192  _balances[account] */\n      and\n        /* \"contracts/coins/ShoCoin.sol_flattened.sol\":13148:13155  uint256 */\n      0x00\n        /* \"contracts/coins/ShoCoin.sol_flattened.sol\":13174:13192  _balances[account] */\n      swap1\n      dup2\n      mstore\n      0x20\n      dup2\n      swap1\n      mstore\n      0x40\n      swap1\n      keccak256\n      sload\n      swap1\n        /* \"contracts/coins/ShoCoin.sol_flattened.sol\":13074:13199  function balanceOf(address account) public view virtual override returns (uint256) {... */\n      jump\n        /* \"contracts/coins/ShoCoin.sol_flattened.sol\":2900:3001  function renounceOwnership() public virtual onlyOwner {... */\n    tag_14:\n      tag_55\n      tag_73\n      jump\t// in\n        /* \"contracts/coins/ShoCoin.sol_flattened.sol\":23639:23800  function burnFrom(address account, uint256 amount) public virtual {... */\n    tag_15:\n      tag_55\n      tag_75\n      calldatasize\n      0x04\n      tag_34\n      jump\t// in\n    tag_75:\n      tag_76\n      jump\t// in\n        /* \"contracts/coins/ShoCoin.sol_flattened.sol\":23994:24053  function pause() public onlyOwner {... */\n    tag_16:\n      tag_55\n      tag_78\n      jump\t// in\n        /* \"contracts/coins/ShoCoin.sol_flattened.sol\":2270:2355  function owner() public view virtual returns (address) {... */\n    tag_17:\n        /* \"contracts/coins/ShoCoin.sol_flattened.sol\":2342:2348  _owner */\n      sload(0x05)\n      0x0100\n      swap1\n      div\n      sub(shl(0xa0, 0x01), 0x01)\n      and\n        /* \"contracts/coins/ShoCoin.sol_flattened.sol\":2270:2355  function owner() public view virtual returns (address) {... */\n      mload(0x40)\n      sub(shl(0xa0, 0x01), 0x01)\n        /* \"#utility.yul\":2440:2472   */\n      swap1\n      swap2\n      and\n        /* \"#utility.yul\":2422:2473   */\n      dup2\n      mstore\n        /* \"#utility.yul\":2410:2412   */\n      0x20\n        /* \"#utility.yul\":2395:2413   */\n      add\n        /* \"contracts/coins/ShoCoin.sol_flattened.sol\":2270:2355  function owner() public view virtual returns (address) {... */\n      tag_30\n        /* \"#utility.yul\":2276:2479   */\n      jump\n        /* \"contracts/coins/ShoCoin.sol_flattened.sol\":12033:12135  function symbol() public view virtual override returns (string memory) {... */\n    tag_18:\n      tag_28\n      tag_84\n      jump\t// in\n        /* \"contracts/coins/ShoCoin.sol_flattened.sol\":24246:24343  function mint(uint256 amount) override external onlyOwner {... */\n    tag_19:\n      tag_55\n      tag_87\n      calldatasize\n      0x04\n      tag_62\n      jump\t// in\n    tag_87:\n      tag_88\n      jump\t// in\n        /* \"contracts/coins/ShoCoin.sol_flattened.sol\":16260:16687  function decreaseAllowance(address spender, uint256 subtractedValue) public virtual returns (bool) {... */\n    tag_20:\n      tag_32\n      tag_90\n      calldatasize\n      0x04\n      tag_34\n      jump\t// in\n    tag_90:\n      tag_91\n      jump\t// in\n        /* \"contracts/coins/ShoCoin.sol_flattened.sol\":13395:13584  function transfer(address to, uint256 amount) public virtual override returns (bool) {... */\n    tag_21:\n      tag_32\n      tag_94\n      calldatasize\n      0x04\n      tag_34\n      jump\t// in\n    tag_94:\n      tag_95\n      jump\t// in\n        /* \"contracts/coins/ShoCoin.sol_flattened.sol\":24368:24464  function pay(uint256 amount) override external onlyOwner {... */\n    tag_22:\n      tag_55\n      tag_98\n      calldatasize\n      0x04\n      tag_62\n      jump\t// in\n    tag_98:\n      tag_99\n      jump\t// in\n        /* \"contracts/coins/ShoCoin.sol_flattened.sol\":13642:13791  function allowance(address owner, address spender) public view virtual override returns (uint256) {... */\n    tag_23:\n      tag_38\n      tag_101\n      calldatasize\n      0x04\n      tag_102\n      jump\t// in\n    tag_101:\n      tag_103\n      jump\t// in\n        /* \"contracts/coins/ShoCoin.sol_flattened.sol\":3150:3348  function transferOwnership(address newOwner) public virtual onlyOwner {... */\n    tag_24:\n      tag_55\n      tag_106\n      calldatasize\n      0x04\n      tag_69\n      jump\t// in\n    tag_106:\n      tag_107\n      jump\t// in\n        /* \"contracts/coins/ShoCoin.sol_flattened.sol\":11822:11920  function name() public view virtual override returns (string memory) {... */\n    tag_29:\n        /* \"contracts/coins/ShoCoin.sol_flattened.sol\":11876:11889  string memory */\n      0x60\n        /* \"contracts/coins/ShoCoin.sol_flattened.sol\":11908:11913  _name */\n      0x03\n        /* \"contracts/coins/ShoCoin.sol_flattened.sol\":11901:11913  return _name */\n      dup1\n      sload\n      tag_109\n      swap1\n      tag_110\n      jump\t// in\n    tag_109:\n      dup1\n      0x1f\n      add\n      0x20\n      dup1\n      swap2\n      div\n      mul\n      0x20\n      add\n      mload(0x40)\n      swap1\n      dup2\n      add\n      0x40\n      mstore\n      dup1\n      swap3\n      swap2\n      swap1\n      dup2\n      dup2\n      mstore\n      0x20\n      add\n      dup3\n      dup1\n      sload\n      tag_111\n      swap1\n      tag_110\n      jump\t// in\n    tag_111:\n      dup1\n      iszero\n      tag_112\n      jumpi\n      dup1\n      0x1f\n      lt\n      tag_113\n      jumpi\n      0x0100\n      dup1\n      dup4\n      sload\n      div\n      mul\n      dup4\n      mstore\n      swap2\n      0x20\n      add\n      swap2\n      jump(tag_112)\n    tag_113:\n      dup3\n      add\n      swap2\n      swap1\n      0x00\n      mstore\n      keccak256(0x00, 0x20)\n      swap1\n    tag_114:\n      dup2\n      sload\n      dup2\n      mstore\n      swap1\n      0x01\n      add\n      swap1\n      0x20\n      add\n      dup1\n      dup4\n      gt\n      tag_114\n      jumpi\n      dup3\n      swap1\n      sub\n      0x1f\n      and\n      dup3\n      add\n      swap2\n    tag_112:\n      pop\n      pop\n      pop\n      pop\n      pop\n      swap1\n      pop\n        /* \"contracts/coins/ShoCoin.sol_flattened.sol\":11822:11920  function name() public view virtual override returns (string memory) {... */\n      swap1\n      jump\t// out\n        /* \"contracts/coins/ShoCoin.sol_flattened.sol\":14099:14296  function approve(address spender, uint256 amount) public virtual override returns (bool) {... */\n    tag_35:\n        /* \"contracts/coins/ShoCoin.sol_flattened.sol\":14182:14186  bool */\n      0x00\n        /* \"contracts/coins/ShoCoin.sol_flattened.sol\":952:962  msg.sender */\n      caller\n        /* \"contracts/coins/ShoCoin.sol_flattened.sol\":14236:14268  _approve(owner, spender, amount) */\n      tag_118\n        /* \"contracts/coins/ShoCoin.sol_flattened.sol\":952:962  msg.sender */\n      dup2\n        /* \"contracts/coins/ShoCoin.sol_flattened.sol\":14252:14259  spender */\n      dup6\n        /* \"contracts/coins/ShoCoin.sol_flattened.sol\":14261:14267  amount */\n      dup6\n        /* \"contracts/coins/ShoCoin.sol_flattened.sol\":14236:14244  _approve */\n      tag_119\n        /* \"contracts/coins/ShoCoin.sol_flattened.sol\":14236:14268  _approve(owner, spender, amount) */\n      jump\t// in\n    tag_118:\n        /* \"contracts/coins/ShoCoin.sol_flattened.sol\":14285:14289  true */\n      0x01\n        /* \"contracts/coins/ShoCoin.sol_flattened.sol\":14278:14289  return true */\n      swap2\n      pop\n      pop\n        /* \"contracts/coins/ShoCoin.sol_flattened.sol\":14099:14296  function approve(address spender, uint256 amount) public virtual override returns (bool) {... */\n    tag_115:\n      swap3\n      swap2\n      pop\n      pop\n      jump\t// out\n        /* \"contracts/coins/ShoCoin.sol_flattened.sol\":14858:15144  function transferFrom(... */\n    tag_45:\n        /* \"contracts/coins/ShoCoin.sol_flattened.sol\":14985:14989  bool */\n      0x00\n        /* \"contracts/coins/ShoCoin.sol_flattened.sol\":952:962  msg.sender */\n      caller\n        /* \"contracts/coins/ShoCoin.sol_flattened.sol\":15041:15079  _spendAllowance(from, spender, amount) */\n      tag_123\n        /* \"contracts/coins/ShoCoin.sol_flattened.sol\":15057:15061  from */\n      dup6\n        /* \"contracts/coins/ShoCoin.sol_flattened.sol\":952:962  msg.sender */\n      dup3\n        /* \"contracts/coins/ShoCoin.sol_flattened.sol\":15072:15078  amount */\n      dup6\n        /* \"contracts/coins/ShoCoin.sol_flattened.sol\":15041:15056  _spendAllowance */\n      tag_124\n        /* \"contracts/coins/ShoCoin.sol_flattened.sol\":15041:15079  _spendAllowance(from, spender, amount) */\n      jump\t// in\n    tag_123:\n        /* \"contracts/coins/ShoCoin.sol_flattened.sol\":15089:15116  _transfer(from, to, amount) */\n      tag_125\n        /* \"contracts/coins/ShoCoin.sol_flattened.sol\":15099:15103  from */\n      dup6\n        /* \"contracts/coins/ShoCoin.sol_flattened.sol\":15105:15107  to */\n      dup6\n        /* \"contracts/coins/ShoCoin.sol_flattened.sol\":15109:15115  amount */\n      dup6\n        /* \"contracts/coins/ShoCoin.sol_flattened.sol\":15089:15098  _transfer */\n      tag_126\n        /* \"contracts/coins/ShoCoin.sol_flattened.sol\":15089:15116  _transfer(from, to, amount) */\n      jump\t// in\n    tag_125:\n      pop\n        /* \"contracts/coins/ShoCoin.sol_flattened.sol\":15133:15137  true */\n      0x01\n      swap5\n        /* \"contracts/coins/ShoCoin.sol_flattened.sol\":14858:15144  function transferFrom(... */\n      swap4\n      pop\n      pop\n      pop\n      pop\n      jump\t// out\n        /* \"contracts/coins/ShoCoin.sol_flattened.sol\":15539:15773  function increaseAllowance(address spender, uint256 addedValue) public virtual returns (bool) {... */\n    tag_53:\n        /* \"contracts/coins/ShoCoin.sol_flattened.sol\":15627:15631  bool */\n      0x00\n        /* \"contracts/coins/ShoCoin.sol_flattened.sol\":952:962  msg.sender */\n      caller\n        /* \"contracts/coins/ShoCoin.sol_flattened.sol\":15681:15745  _approve(owner, spender, allowance(owner, spender) + addedValue) */\n      tag_118\n        /* \"contracts/coins/ShoCoin.sol_flattened.sol\":952:962  msg.sender */\n      dup2\n        /* \"contracts/coins/ShoCoin.sol_flattened.sol\":15697:15704  spender */\n      dup6\n        /* \"contracts/coins/ShoCoin.sol_flattened.sol\":15734:15744  addedValue */\n      dup6\n        /* \"contracts/coins/ShoCoin.sol_flattened.sol\":15706:15731  allowance(owner, spender) */\n      tag_131\n        /* \"contracts/coins/ShoCoin.sol_flattened.sol\":952:962  msg.sender */\n      dup4\n        /* \"contracts/coins/ShoCoin.sol_flattened.sol\":15697:15704  spender */\n      dup4\n        /* \"contracts/coins/ShoCoin.sol_flattened.sol\":15706:15715  allowance */\n      tag_103\n        /* \"contracts/coins/ShoCoin.sol_flattened.sol\":15706:15731  allowance(owner, spender) */\n      jump\t// in\n    tag_131:\n        /* \"contracts/coins/ShoCoin.sol_flattened.sol\":15706:15744  allowance(owner, spender) + addedValue */\n      tag_132\n      swap2\n      swap1\n      tag_133\n      jump\t// in\n    tag_132:\n        /* \"contracts/coins/ShoCoin.sol_flattened.sol\":15681:15689  _approve */\n      tag_119\n        /* \"contracts/coins/ShoCoin.sol_flattened.sol\":15681:15745  _approve(owner, spender, allowance(owner, spender) + addedValue) */\n      jump\t// in\n        /* \"contracts/coins/ShoCoin.sol_flattened.sol\":24059:24122  function unpause() public onlyOwner {... */\n    tag_56:\n        /* \"contracts/coins/ShoCoin.sol_flattened.sol\":2163:2176  _checkOwner() */\n      tag_135\n        /* \"contracts/coins/ShoCoin.sol_flattened.sol\":2163:2174  _checkOwner */\n      tag_136\n        /* \"contracts/coins/ShoCoin.sol_flattened.sol\":2163:2176  _checkOwner() */\n      jump\t// in\n    tag_135:\n        /* \"contracts/coins/ShoCoin.sol_flattened.sol\":24105:24115  _unpause() */\n      tag_138\n        /* \"contracts/coins/ShoCoin.sol_flattened.sol\":24105:24113  _unpause */\n      tag_139\n        /* \"contracts/coins/ShoCoin.sol_flattened.sol\":24105:24115  _unpause() */\n      jump\t// in\n    tag_138:\n        /* \"contracts/coins/ShoCoin.sol_flattened.sol\":24059:24122  function unpause() public onlyOwner {... */\n      jump\t// out\n        /* \"contracts/coins/ShoCoin.sol_flattened.sol\":24128:24221  function mint(address to, uint256 amount) public onlyOwner {... */\n    tag_59:\n        /* \"contracts/coins/ShoCoin.sol_flattened.sol\":2163:2176  _checkOwner() */\n      tag_141\n        /* \"contracts/coins/ShoCoin.sol_flattened.sol\":2163:2174  _checkOwner */\n      tag_136\n        /* \"contracts/coins/ShoCoin.sol_flattened.sol\":2163:2176  _checkOwner() */\n      jump\t// in\n    tag_141:\n        /* \"contracts/coins/ShoCoin.sol_flattened.sol\":24197:24214  _mint(to, amount) */\n      tag_143\n        /* \"contracts/coins/ShoCoin.sol_flattened.sol\":24203:24205  to */\n      dup3\n        /* \"contracts/coins/ShoCoin.sol_flattened.sol\":24207:24213  amount */\n      dup3\n        /* \"contracts/coins/ShoCoin.sol_flattened.sol\":24197:24202  _mint */\n      tag_144\n        /* \"contracts/coins/ShoCoin.sol_flattened.sol\":24197:24214  _mint(to, amount) */\n      jump\t// in\n    tag_143:\n        /* \"contracts/coins/ShoCoin.sol_flattened.sol\":24128:24221  function mint(address to, uint256 amount) public onlyOwner {... */\n      pop\n      pop\n      jump\t// out\n        /* \"contracts/coins/ShoCoin.sol_flattened.sol\":23244:23333  function burn(uint256 amount) public virtual {... */\n    tag_63:\n        /* \"contracts/coins/ShoCoin.sol_flattened.sol\":23299:23326  _burn(_msgSender(), amount) */\n      tag_146\n        /* \"contracts/coins/ShoCoin.sol_flattened.sol\":952:962  msg.sender */\n      caller\n        /* \"contracts/coins/ShoCoin.sol_flattened.sol\":23305:23317  _msgSender() */\n    tag_147:\n        /* \"contracts/coins/ShoCoin.sol_flattened.sol\":23319:23325  amount */\n      dup3\n        /* \"contracts/coins/ShoCoin.sol_flattened.sol\":23299:23304  _burn */\n      tag_148\n        /* \"contracts/coins/ShoCoin.sol_flattened.sol\":23299:23326  _burn(_msgSender(), amount) */\n      jump\t// in\n    tag_146:\n        /* \"contracts/coins/ShoCoin.sol_flattened.sol\":23244:23333  function burn(uint256 amount) public virtual {... */\n      pop\n      jump\t// out\n        /* \"contracts/coins/ShoCoin.sol_flattened.sol\":2900:3001  function renounceOwnership() public virtual onlyOwner {... */\n    tag_73:\n        /* \"contracts/coins/ShoCoin.sol_flattened.sol\":2163:2176  _checkOwner() */\n      tag_152\n        /* \"contracts/coins/ShoCoin.sol_flattened.sol\":2163:2174  _checkOwner */\n      tag_136\n        /* \"contracts/coins/ShoCoin.sol_flattened.sol\":2163:2176  _checkOwner() */\n      jump\t// in\n    tag_152:\n        /* \"contracts/coins/ShoCoin.sol_flattened.sol\":2964:2994  _transferOwnership(address(0)) */\n      tag_138\n        /* \"contracts/coins/ShoCoin.sol_flattened.sol\":2991:2992  0 */\n      0x00\n        /* \"contracts/coins/ShoCoin.sol_flattened.sol\":2964:2982  _transferOwnership */\n      tag_155\n        /* \"contracts/coins/ShoCoin.sol_flattened.sol\":2964:2994  _transferOwnership(address(0)) */\n      jump\t// in\n        /* \"contracts/coins/ShoCoin.sol_flattened.sol\":23639:23800  function burnFrom(address account, uint256 amount) public virtual {... */\n    tag_76:\n        /* \"contracts/coins/ShoCoin.sol_flattened.sol\":23715:23761  _spendAllowance(account, _msgSender(), amount) */\n      tag_157\n        /* \"contracts/coins/ShoCoin.sol_flattened.sol\":23731:23738  account */\n      dup3\n        /* \"contracts/coins/ShoCoin.sol_flattened.sol\":952:962  msg.sender */\n      caller\n        /* \"contracts/coins/ShoCoin.sol_flattened.sol\":23754:23760  amount */\n      dup4\n        /* \"contracts/coins/ShoCoin.sol_flattened.sol\":23715:23730  _spendAllowance */\n      tag_124\n        /* \"contracts/coins/ShoCoin.sol_flattened.sol\":23715:23761  _spendAllowance(account, _msgSender(), amount) */\n      jump\t// in\n    tag_157:\n        /* \"contracts/coins/ShoCoin.sol_flattened.sol\":23771:23793  _burn(account, amount) */\n      tag_143\n        /* \"contracts/coins/ShoCoin.sol_flattened.sol\":23777:23784  account */\n      dup3\n        /* \"contracts/coins/ShoCoin.sol_flattened.sol\":23786:23792  amount */\n      dup3\n        /* \"contracts/coins/ShoCoin.sol_flattened.sol\":23771:23776  _burn */\n      tag_148\n        /* \"contracts/coins/ShoCoin.sol_flattened.sol\":23771:23793  _burn(account, amount) */\n      jump\t// in\n        /* \"contracts/coins/ShoCoin.sol_flattened.sol\":23994:24053  function pause() public onlyOwner {... */\n    tag_78:\n        /* \"contracts/coins/ShoCoin.sol_flattened.sol\":2163:2176  _checkOwner() */\n      tag_161\n        /* \"contracts/coins/ShoCoin.sol_flattened.sol\":2163:2174  _checkOwner */\n      tag_136\n        /* \"contracts/coins/ShoCoin.sol_flattened.sol\":2163:2176  _checkOwner() */\n      jump\t// in\n    tag_161:\n        /* \"contracts/coins/ShoCoin.sol_flattened.sol\":24038:24046  _pause() */\n      tag_138\n        /* \"contracts/coins/ShoCoin.sol_flattened.sol\":24038:24044  _pause */\n      tag_164\n        /* \"contracts/coins/ShoCoin.sol_flattened.sol\":24038:24046  _pause() */\n      jump\t// in\n        /* \"contracts/coins/ShoCoin.sol_flattened.sol\":12033:12135  function symbol() public view virtual override returns (string memory) {... */\n    tag_84:\n        /* \"contracts/coins/ShoCoin.sol_flattened.sol\":12089:12102  string memory */\n      0x60\n        /* \"contracts/coins/ShoCoin.sol_flattened.sol\":12121:12128  _symbol */\n      0x04\n        /* \"contracts/coins/ShoCoin.sol_flattened.sol\":12114:12128  return _symbol */\n      dup1\n      sload\n      tag_109\n      swap1\n      tag_110\n      jump\t// in\n        /* \"contracts/coins/ShoCoin.sol_flattened.sol\":24246:24343  function mint(uint256 amount) override external onlyOwner {... */\n    tag_88:\n        /* \"contracts/coins/ShoCoin.sol_flattened.sol\":2163:2176  _checkOwner() */\n      tag_173\n        /* \"contracts/coins/ShoCoin.sol_flattened.sol\":2163:2174  _checkOwner */\n      tag_136\n        /* \"contracts/coins/ShoCoin.sol_flattened.sol\":2163:2176  _checkOwner() */\n      jump\t// in\n    tag_173:\n        /* \"contracts/coins/ShoCoin.sol_flattened.sol\":2342:2348  _owner */\n      sload(0x05)\n        /* \"contracts/coins/ShoCoin.sol_flattened.sol\":24314:24336  _mint(owner(), amount) */\n      tag_146\n      swap1\n        /* \"contracts/coins/ShoCoin.sol_flattened.sol\":2342:2348  _owner */\n      0x0100\n      swap1\n      div\n      sub(shl(0xa0, 0x01), 0x01)\n      and\n        /* \"contracts/coins/ShoCoin.sol_flattened.sol\":24329:24335  amount */\n      dup3\n        /* \"contracts/coins/ShoCoin.sol_flattened.sol\":24314:24319  _mint */\n      tag_144\n        /* \"contracts/coins/ShoCoin.sol_flattened.sol\":24314:24336  _mint(owner(), amount) */\n      jump\t// in\n        /* \"contracts/coins/ShoCoin.sol_flattened.sol\":16260:16687  function decreaseAllowance(address spender, uint256 subtractedValue) public virtual returns (bool) {... */\n    tag_91:\n        /* \"contracts/coins/ShoCoin.sol_flattened.sol\":16353:16357  bool */\n      0x00\n        /* \"contracts/coins/ShoCoin.sol_flattened.sol\":952:962  msg.sender */\n      caller\n        /* \"contracts/coins/ShoCoin.sol_flattened.sol\":16353:16357  bool */\n      dup2\n        /* \"contracts/coins/ShoCoin.sol_flattened.sol\":16434:16459  allowance(owner, spender) */\n      tag_179\n        /* \"contracts/coins/ShoCoin.sol_flattened.sol\":952:962  msg.sender */\n      dup3\n        /* \"contracts/coins/ShoCoin.sol_flattened.sol\":16451:16458  spender */\n      dup7\n        /* \"contracts/coins/ShoCoin.sol_flattened.sol\":16434:16443  allowance */\n      tag_103\n        /* \"contracts/coins/ShoCoin.sol_flattened.sol\":16434:16459  allowance(owner, spender) */\n      jump\t// in\n    tag_179:\n        /* \"contracts/coins/ShoCoin.sol_flattened.sol\":16407:16459  uint256 currentAllowance = allowance(owner, spender) */\n      swap1\n      pop\n        /* \"contracts/coins/ShoCoin.sol_flattened.sol\":16497:16512  subtractedValue */\n      dup4\n        /* \"contracts/coins/ShoCoin.sol_flattened.sol\":16477:16493  currentAllowance */\n      dup2\n        /* \"contracts/coins/ShoCoin.sol_flattened.sol\":16477:16512  currentAllowance >= subtractedValue */\n      lt\n      iszero\n        /* \"contracts/coins/ShoCoin.sol_flattened.sol\":16469:16554  require(currentAllowance >= subtractedValue, \"ERC20: decreased allowance below zero\") */\n      tag_180\n      jumpi\n      mload(0x40)\n      shl(0xe5, 0x461bcd)\n      dup2\n      mstore\n        /* \"#utility.yul\":3563:3565   */\n      0x20\n        /* \"contracts/coins/ShoCoin.sol_flattened.sol\":16469:16554  require(currentAllowance >= subtractedValue, \"ERC20: decreased allowance below zero\") */\n      0x04\n      dup3\n      add\n        /* \"#utility.yul\":3545:3566   */\n      mstore\n        /* \"#utility.yul\":3602:3604   */\n      0x25\n        /* \"#utility.yul\":3582:3600   */\n      0x24\n      dup3\n      add\n        /* \"#utility.yul\":3575:3605   */\n      mstore\n        /* \"#utility.yul\":3641:3675   */\n      0x45524332303a2064656372656173656420616c6c6f77616e63652062656c6f77\n        /* \"#utility.yul\":3621:3639   */\n      0x44\n      dup3\n      add\n        /* \"#utility.yul\":3614:3676   */\n      mstore\n      shl(0xd8, 0x207a65726f)\n        /* \"#utility.yul\":3692:3710   */\n      0x64\n      dup3\n      add\n        /* \"#utility.yul\":3685:3720   */\n      mstore\n        /* \"#utility.yul\":3737:3756   */\n      0x84\n      add\n        /* \"contracts/coins/ShoCoin.sol_flattened.sol\":16469:16554  require(currentAllowance >= subtractedValue, \"ERC20: decreased allowance below zero\") */\n    tag_181:\n      mload(0x40)\n      dup1\n      swap2\n      sub\n      swap1\n      revert\n    tag_180:\n        /* \"contracts/coins/ShoCoin.sol_flattened.sol\":16588:16648  _approve(owner, spender, currentAllowance - subtractedValue) */\n      tag_125\n        /* \"contracts/coins/ShoCoin.sol_flattened.sol\":16597:16602  owner */\n      dup3\n        /* \"contracts/coins/ShoCoin.sol_flattened.sol\":16604:16611  spender */\n      dup7\n        /* \"contracts/coins/ShoCoin.sol_flattened.sol\":16632:16647  subtractedValue */\n      dup7\n        /* \"contracts/coins/ShoCoin.sol_flattened.sol\":16613:16629  currentAllowance */\n      dup5\n        /* \"contracts/coins/ShoCoin.sol_flattened.sol\":16613:16647  currentAllowance - subtractedValue */\n      sub\n        /* \"contracts/coins/ShoCoin.sol_flattened.sol\":16588:16596  _approve */\n      tag_119\n        /* \"contracts/coins/ShoCoin.sol_flattened.sol\":16588:16648  _approve(owner, spender, currentAllowance - subtractedValue) */\n      jump\t// in\n        /* \"contracts/coins/ShoCoin.sol_flattened.sol\":13395:13584  function transfer(address to, uint256 amount) public virtual override returns (bool) {... */\n    tag_95:\n        /* \"contracts/coins/ShoCoin.sol_flattened.sol\":13474:13478  bool */\n      0x00\n        /* \"contracts/coins/ShoCoin.sol_flattened.sol\":952:962  msg.sender */\n      caller\n        /* \"contracts/coins/ShoCoin.sol_flattened.sol\":13528:13556  _transfer(owner, to, amount) */\n      tag_118\n        /* \"contracts/coins/ShoCoin.sol_flattened.sol\":952:962  msg.sender */\n      dup2\n        /* \"contracts/coins/ShoCoin.sol_flattened.sol\":13545:13547  to */\n      dup6\n        /* \"contracts/coins/ShoCoin.sol_flattened.sol\":13549:13555  amount */\n      dup6\n        /* \"contracts/coins/ShoCoin.sol_flattened.sol\":13528:13537  _transfer */\n      tag_126\n        /* \"contracts/coins/ShoCoin.sol_flattened.sol\":13528:13556  _transfer(owner, to, amount) */\n      jump\t// in\n        /* \"contracts/coins/ShoCoin.sol_flattened.sol\":24368:24464  function pay(uint256 amount) override external onlyOwner {... */\n    tag_99:\n        /* \"contracts/coins/ShoCoin.sol_flattened.sol\":2163:2176  _checkOwner() */\n      tag_188\n        /* \"contracts/coins/ShoCoin.sol_flattened.sol\":2163:2174  _checkOwner */\n      tag_136\n        /* \"contracts/coins/ShoCoin.sol_flattened.sol\":2163:2176  _checkOwner() */\n      jump\t// in\n    tag_188:\n        /* \"contracts/coins/ShoCoin.sol_flattened.sol\":2342:2348  _owner */\n      sload(0x05)\n        /* \"contracts/coins/ShoCoin.sol_flattened.sol\":24435:24457  _burn(owner(), amount) */\n      tag_146\n      swap1\n        /* \"contracts/coins/ShoCoin.sol_flattened.sol\":2342:2348  _owner */\n      0x0100\n      swap1\n      div\n      sub(shl(0xa0, 0x01), 0x01)\n      and\n        /* \"contracts/coins/ShoCoin.sol_flattened.sol\":24441:24448  owner() */\n      tag_147\n        /* \"contracts/coins/ShoCoin.sol_flattened.sol\":2270:2355  function owner() public view virtual returns (address) {... */\n      jump\n        /* \"contracts/coins/ShoCoin.sol_flattened.sol\":13642:13791  function allowance(address owner, address spender) public view virtual override returns (uint256) {... */\n    tag_103:\n      sub(shl(0xa0, 0x01), 0x01)\n        /* \"contracts/coins/ShoCoin.sol_flattened.sol\":13757:13775  _allowances[owner] */\n      swap2\n      dup3\n      and\n        /* \"contracts/coins/ShoCoin.sol_flattened.sol\":13731:13738  uint256 */\n      0x00\n        /* \"contracts/coins/ShoCoin.sol_flattened.sol\":13757:13775  _allowances[owner] */\n      swap1\n      dup2\n      mstore\n        /* \"contracts/coins/ShoCoin.sol_flattened.sol\":13757:13768  _allowances */\n      0x01\n        /* \"contracts/coins/ShoCoin.sol_flattened.sol\":13757:13775  _allowances[owner] */\n      0x20\n      swap1\n      dup2\n      mstore\n      0x40\n      dup1\n      dup4\n      keccak256\n        /* \"contracts/coins/ShoCoin.sol_flattened.sol\":13757:13784  _allowances[owner][spender] */\n      swap4\n      swap1\n      swap5\n      and\n      dup3\n      mstore\n      swap2\n      swap1\n      swap2\n      mstore\n      keccak256\n      sload\n      swap1\n        /* \"contracts/coins/ShoCoin.sol_flattened.sol\":13642:13791  function allowance(address owner, address spender) public view virtual override returns (uint256) {... */\n      jump\t// out\n        /* \"contracts/coins/ShoCoin.sol_flattened.sol\":3150:3348  function transferOwnership(address newOwner) public virtual onlyOwner {... */\n    tag_107:\n        /* \"contracts/coins/ShoCoin.sol_flattened.sol\":2163:2176  _checkOwner() */\n      tag_194\n        /* \"contracts/coins/ShoCoin.sol_flattened.sol\":2163:2174  _checkOwner */\n      tag_136\n        /* \"contracts/coins/ShoCoin.sol_flattened.sol\":2163:2176  _checkOwner() */\n      jump\t// in\n    tag_194:\n      sub(shl(0xa0, 0x01), 0x01)\n        /* \"contracts/coins/ShoCoin.sol_flattened.sol\":3238:3260  newOwner != address(0) */\n      dup2\n      and\n        /* \"contracts/coins/ShoCoin.sol_flattened.sol\":3230:3303  require(newOwner != address(0), \"Ownable: new owner is the zero address\") */\n      tag_196\n      jumpi\n      mload(0x40)\n      shl(0xe5, 0x461bcd)\n      dup2\n      mstore\n        /* \"#utility.yul\":3969:3971   */\n      0x20\n        /* \"contracts/coins/ShoCoin.sol_flattened.sol\":3230:3303  require(newOwner != address(0), \"Ownable: new owner is the zero address\") */\n      0x04\n      dup3\n      add\n        /* \"#utility.yul\":3951:3972   */\n      mstore\n        /* \"#utility.yul\":4008:4010   */\n      0x26\n        /* \"#utility.yul\":3988:4006   */\n      0x24\n      dup3\n      add\n        /* \"#utility.yul\":3981:4011   */\n      mstore\n        /* \"#utility.yul\":4047:4081   */\n      0x4f776e61626c653a206e6577206f776e657220697320746865207a65726f2061\n        /* \"#utility.yul\":4027:4045   */\n      0x44\n      dup3\n      add\n        /* \"#utility.yul\":4020:4082   */\n      mstore\n      shl(0xd0, 0x646472657373)\n        /* \"#utility.yul\":4098:4116   */\n      0x64\n      dup3\n      add\n        /* \"#utility.yul\":4091:4127   */\n      mstore\n        /* \"#utility.yul\":4144:4163   */\n      0x84\n      add\n        /* \"contracts/coins/ShoCoin.sol_flattened.sol\":3230:3303  require(newOwner != address(0), \"Ownable: new owner is the zero address\") */\n      tag_181\n        /* \"#utility.yul\":3767:4169   */\n      jump\n        /* \"contracts/coins/ShoCoin.sol_flattened.sol\":3230:3303  require(newOwner != address(0), \"Ownable: new owner is the zero address\") */\n    tag_196:\n        /* \"contracts/coins/ShoCoin.sol_flattened.sol\":3313:3341  _transferOwnership(newOwner) */\n      tag_146\n        /* \"contracts/coins/ShoCoin.sol_flattened.sol\":3332:3340  newOwner */\n      dup2\n        /* \"contracts/coins/ShoCoin.sol_flattened.sol\":3313:3331  _transferOwnership */\n      tag_155\n        /* \"contracts/coins/ShoCoin.sol_flattened.sol\":3313:3341  _transferOwnership(newOwner) */\n      jump\t// in\n        /* \"contracts/coins/ShoCoin.sol_flattened.sol\":20172:20542  function _approve(... */\n    tag_119:\n      sub(shl(0xa0, 0x01), 0x01)\n        /* \"contracts/coins/ShoCoin.sol_flattened.sol\":20303:20322  owner != address(0) */\n      dup4\n      and\n        /* \"contracts/coins/ShoCoin.sol_flattened.sol\":20295:20363  require(owner != address(0), \"ERC20: approve from the zero address\") */\n      tag_202\n      jumpi\n      mload(0x40)\n      shl(0xe5, 0x461bcd)\n      dup2\n      mstore\n        /* \"#utility.yul\":4376:4378   */\n      0x20\n        /* \"contracts/coins/ShoCoin.sol_flattened.sol\":20295:20363  require(owner != address(0), \"ERC20: approve from the zero address\") */\n      0x04\n      dup3\n      add\n        /* \"#utility.yul\":4358:4379   */\n      mstore\n        /* \"#utility.yul\":4415:4417   */\n      0x24\n        /* \"#utility.yul\":4395:4413   */\n      dup1\n      dup3\n      add\n        /* \"#utility.yul\":4388:4418   */\n      mstore\n        /* \"#utility.yul\":4454:4488   */\n      0x45524332303a20617070726f76652066726f6d20746865207a65726f20616464\n        /* \"#utility.yul\":4434:4452   */\n      0x44\n      dup3\n      add\n        /* \"#utility.yul\":4427:4489   */\n      mstore\n      shl(0xe0, 0x72657373)\n        /* \"#utility.yul\":4505:4523   */\n      0x64\n      dup3\n      add\n        /* \"#utility.yul\":4498:4532   */\n      mstore\n        /* \"#utility.yul\":4549:4568   */\n      0x84\n      add\n        /* \"contracts/coins/ShoCoin.sol_flattened.sol\":20295:20363  require(owner != address(0), \"ERC20: approve from the zero address\") */\n      tag_181\n        /* \"#utility.yul\":4174:4574   */\n      jump\n        /* \"contracts/coins/ShoCoin.sol_flattened.sol\":20295:20363  require(owner != address(0), \"ERC20: approve from the zero address\") */\n    tag_202:\n      sub(shl(0xa0, 0x01), 0x01)\n        /* \"contracts/coins/ShoCoin.sol_flattened.sol\":20381:20402  spender != address(0) */\n      dup3\n      and\n        /* \"contracts/coins/ShoCoin.sol_flattened.sol\":20373:20441  require(spender != address(0), \"ERC20: approve to the zero address\") */\n      tag_205\n      jumpi\n      mload(0x40)\n      shl(0xe5, 0x461bcd)\n      dup2\n      mstore\n        /* \"#utility.yul\":4781:4783   */\n      0x20\n        /* \"contracts/coins/ShoCoin.sol_flattened.sol\":20373:20441  require(spender != address(0), \"ERC20: approve to the zero address\") */\n      0x04\n      dup3\n      add\n        /* \"#utility.yul\":4763:4784   */\n      mstore\n        /* \"#utility.yul\":4820:4822   */\n      0x22\n        /* \"#utility.yul\":4800:4818   */\n      0x24\n      dup3\n      add\n        /* \"#utility.yul\":4793:4823   */\n      mstore\n        /* \"#utility.yul\":4859:4893   */\n      0x45524332303a20617070726f766520746f20746865207a65726f206164647265\n        /* \"#utility.yul\":4839:4857   */\n      0x44\n      dup3\n      add\n        /* \"#utility.yul\":4832:4894   */\n      mstore\n      shl(0xf0, 0x7373)\n        /* \"#utility.yul\":4910:4928   */\n      0x64\n      dup3\n      add\n        /* \"#utility.yul\":4903:4935   */\n      mstore\n        /* \"#utility.yul\":4952:4971   */\n      0x84\n      add\n        /* \"contracts/coins/ShoCoin.sol_flattened.sol\":20373:20441  require(spender != address(0), \"ERC20: approve to the zero address\") */\n      tag_181\n        /* \"#utility.yul\":4579:4977   */\n      jump\n        /* \"contracts/coins/ShoCoin.sol_flattened.sol\":20373:20441  require(spender != address(0), \"ERC20: approve to the zero address\") */\n    tag_205:\n      sub(shl(0xa0, 0x01), 0x01)\n        /* \"contracts/coins/ShoCoin.sol_flattened.sol\":20452:20470  _allowances[owner] */\n      dup4\n      dup2\n      and\n      0x00\n      dup2\n      dup2\n      mstore\n        /* \"contracts/coins/ShoCoin.sol_flattened.sol\":20452:20463  _allowances */\n      0x01\n        /* \"contracts/coins/ShoCoin.sol_flattened.sol\":20452:20470  _allowances[owner] */\n      0x20\n      swap1\n      dup2\n      mstore\n      0x40\n      dup1\n      dup4\n      keccak256\n        /* \"contracts/coins/ShoCoin.sol_flattened.sol\":20452:20479  _allowances[owner][spender] */\n      swap5\n      dup8\n      and\n      dup1\n      dup5\n      mstore\n      swap5\n      dup3\n      mstore\n      swap2\n      dup3\n      swap1\n      keccak256\n        /* \"contracts/coins/ShoCoin.sol_flattened.sol\":20452:20488  _allowances[owner][spender] = amount */\n      dup6\n      swap1\n      sstore\n        /* \"contracts/coins/ShoCoin.sol_flattened.sol\":20503:20535  Approval(owner, spender, amount) */\n      swap1\n      mload\n        /* \"#utility.yul\":1342:1367   */\n      dup5\n      dup2\n      mstore\n        /* \"contracts/coins/ShoCoin.sol_flattened.sol\":20503:20535  Approval(owner, spender, amount) */\n      0x8c5be1e5ebec7d5bd14f71427d1e84f3dd0314c0f7b2291e5b200ac8c7c3b925\n      swap2\n        /* \"#utility.yul\":1315:1333   */\n      add\n        /* \"contracts/coins/ShoCoin.sol_flattened.sol\":20503:20535  Approval(owner, spender, amount) */\n    tag_208:\n      mload(0x40)\n      dup1\n      swap2\n      sub\n      swap1\n      log3\n        /* \"contracts/coins/ShoCoin.sol_flattened.sol\":20172:20542  function _approve(... */\n      pop\n      pop\n      pop\n      jump\t// out\n        /* \"contracts/coins/ShoCoin.sol_flattened.sol\":20823:21264  function _spendAllowance(... */\n    tag_124:\n        /* \"contracts/coins/ShoCoin.sol_flattened.sol\":20953:20977  uint256 currentAllowance */\n      0x00\n        /* \"contracts/coins/ShoCoin.sol_flattened.sol\":20980:21005  allowance(owner, spender) */\n      tag_210\n        /* \"contracts/coins/ShoCoin.sol_flattened.sol\":20990:20995  owner */\n      dup5\n        /* \"contracts/coins/ShoCoin.sol_flattened.sol\":20997:21004  spender */\n      dup5\n        /* \"contracts/coins/ShoCoin.sol_flattened.sol\":20980:20989  allowance */\n      tag_103\n        /* \"contracts/coins/ShoCoin.sol_flattened.sol\":20980:21005  allowance(owner, spender) */\n      jump\t// in\n    tag_210:\n        /* \"contracts/coins/ShoCoin.sol_flattened.sol\":20953:21005  uint256 currentAllowance = allowance(owner, spender) */\n      swap1\n      pop\n      not(0x00)\n        /* \"contracts/coins/ShoCoin.sol_flattened.sol\":21019:21035  currentAllowance */\n      dup2\n        /* \"contracts/coins/ShoCoin.sol_flattened.sol\":21019:21056  currentAllowance != type(uint256).max */\n      eq\n        /* \"contracts/coins/ShoCoin.sol_flattened.sol\":21015:21258  if (currentAllowance != type(uint256).max) {... */\n      tag_215\n      jumpi\n        /* \"contracts/coins/ShoCoin.sol_flattened.sol\":21100:21106  amount */\n      dup2\n        /* \"contracts/coins/ShoCoin.sol_flattened.sol\":21080:21096  currentAllowance */\n      dup2\n        /* \"contracts/coins/ShoCoin.sol_flattened.sol\":21080:21106  currentAllowance >= amount */\n      lt\n      iszero\n        /* \"contracts/coins/ShoCoin.sol_flattened.sol\":21072:21140  require(currentAllowance >= amount, \"ERC20: insufficient allowance\") */\n      tag_212\n      jumpi\n      mload(0x40)\n      shl(0xe5, 0x461bcd)\n      dup2\n      mstore\n        /* \"#utility.yul\":5184:5186   */\n      0x20\n        /* \"contracts/coins/ShoCoin.sol_flattened.sol\":21072:21140  require(currentAllowance >= amount, \"ERC20: insufficient allowance\") */\n      0x04\n      dup3\n      add\n        /* \"#utility.yul\":5166:5187   */\n      mstore\n        /* \"#utility.yul\":5223:5225   */\n      0x1d\n        /* \"#utility.yul\":5203:5221   */\n      0x24\n      dup3\n      add\n        /* \"#utility.yul\":5196:5226   */\n      mstore\n        /* \"#utility.yul\":5262:5293   */\n      0x45524332303a20696e73756666696369656e7420616c6c6f77616e6365000000\n        /* \"#utility.yul\":5242:5260   */\n      0x44\n      dup3\n      add\n        /* \"#utility.yul\":5235:5294   */\n      mstore\n        /* \"#utility.yul\":5311:5329   */\n      0x64\n      add\n        /* \"contracts/coins/ShoCoin.sol_flattened.sol\":21072:21140  require(currentAllowance >= amount, \"ERC20: insufficient allowance\") */\n      tag_181\n        /* \"#utility.yul\":4982:5335   */\n      jump\n        /* \"contracts/coins/ShoCoin.sol_flattened.sol\":21072:21140  require(currentAllowance >= amount, \"ERC20: insufficient allowance\") */\n    tag_212:\n        /* \"contracts/coins/ShoCoin.sol_flattened.sol\":21182:21233  _approve(owner, spender, currentAllowance - amount) */\n      tag_215\n        /* \"contracts/coins/ShoCoin.sol_flattened.sol\":21191:21196  owner */\n      dup5\n        /* \"contracts/coins/ShoCoin.sol_flattened.sol\":21198:21205  spender */\n      dup5\n        /* \"contracts/coins/ShoCoin.sol_flattened.sol\":21226:21232  amount */\n      dup5\n        /* \"contracts/coins/ShoCoin.sol_flattened.sol\":21207:21223  currentAllowance */\n      dup5\n        /* \"contracts/coins/ShoCoin.sol_flattened.sol\":21207:21232  currentAllowance - amount */\n      sub\n        /* \"contracts/coins/ShoCoin.sol_flattened.sol\":21182:21190  _approve */\n      tag_119\n        /* \"contracts/coins/ShoCoin.sol_flattened.sol\":21182:21233  _approve(owner, spender, currentAllowance - amount) */\n      jump\t// in\n    tag_215:\n        /* \"contracts/coins/ShoCoin.sol_flattened.sol\":20943:21264  {... */\n      pop\n        /* \"contracts/coins/ShoCoin.sol_flattened.sol\":20823:21264  function _spendAllowance(... */\n      pop\n      pop\n      pop\n      jump\t// out\n        /* \"contracts/coins/ShoCoin.sol_flattened.sol\":17141:17959  function _transfer(... */\n    tag_126:\n      sub(shl(0xa0, 0x01), 0x01)\n        /* \"contracts/coins/ShoCoin.sol_flattened.sol\":17267:17285  from != address(0) */\n      dup4\n      and\n        /* \"contracts/coins/ShoCoin.sol_flattened.sol\":17259:17327  require(from != address(0), \"ERC20: transfer from the zero address\") */\n      tag_217\n      jumpi\n      mload(0x40)\n      shl(0xe5, 0x461bcd)\n      dup2\n      mstore\n        /* \"#utility.yul\":5542:5544   */\n      0x20\n        /* \"contracts/coins/ShoCoin.sol_flattened.sol\":17259:17327  require(from != address(0), \"ERC20: transfer from the zero address\") */\n      0x04\n      dup3\n      add\n        /* \"#utility.yul\":5524:5545   */\n      mstore\n        /* \"#utility.yul\":5581:5583   */\n      0x25\n        /* \"#utility.yul\":5561:5579   */\n      0x24\n      dup3\n      add\n        /* \"#utility.yul\":5554:5584   */\n      mstore\n        /* \"#utility.yul\":5620:5654   */\n      0x45524332303a207472616e736665722066726f6d20746865207a65726f206164\n        /* \"#utility.yul\":5600:5618   */\n      0x44\n      dup3\n      add\n        /* \"#utility.yul\":5593:5655   */\n      mstore\n      shl(0xd8, 0x6472657373)\n        /* \"#utility.yul\":5671:5689   */\n      0x64\n      dup3\n      add\n        /* \"#utility.yul\":5664:5699   */\n      mstore\n        /* \"#utility.yul\":5716:5735   */\n      0x84\n      add\n        /* \"contracts/coins/ShoCoin.sol_flattened.sol\":17259:17327  require(from != address(0), \"ERC20: transfer from the zero address\") */\n      tag_181\n        /* \"#utility.yul\":5340:5741   */\n      jump\n        /* \"contracts/coins/ShoCoin.sol_flattened.sol\":17259:17327  require(from != address(0), \"ERC20: transfer from the zero address\") */\n    tag_217:\n      sub(shl(0xa0, 0x01), 0x01)\n        /* \"contracts/coins/ShoCoin.sol_flattened.sol\":17345:17361  to != address(0) */\n      dup3\n      and\n        /* \"contracts/coins/ShoCoin.sol_flattened.sol\":17337:17401  require(to != address(0), \"ERC20: transfer to the zero address\") */\n      tag_220\n      jumpi\n      mload(0x40)\n      shl(0xe5, 0x461bcd)\n      dup2\n      mstore\n        /* \"#utility.yul\":5948:5950   */\n      0x20\n        /* \"contracts/coins/ShoCoin.sol_flattened.sol\":17337:17401  require(to != address(0), \"ERC20: transfer to the zero address\") */\n      0x04\n      dup3\n      add\n        /* \"#utility.yul\":5930:5951   */\n      mstore\n        /* \"#utility.yul\":5987:5989   */\n      0x23\n        /* \"#utility.yul\":5967:5985   */\n      0x24\n      dup3\n      add\n        /* \"#utility.yul\":5960:5990   */\n      mstore\n        /* \"#utility.yul\":6026:6060   */\n      0x45524332303a207472616e7366657220746f20746865207a65726f2061646472\n        /* \"#utility.yul\":6006:6024   */\n      0x44\n      dup3\n      add\n        /* \"#utility.yul\":5999:6061   */\n      mstore\n      shl(0xe8, 0x657373)\n        /* \"#utility.yul\":6077:6095   */\n      0x64\n      dup3\n      add\n        /* \"#utility.yul\":6070:6103   */\n      mstore\n        /* \"#utility.yul\":6120:6139   */\n      0x84\n      add\n        /* \"contracts/coins/ShoCoin.sol_flattened.sol\":17337:17401  require(to != address(0), \"ERC20: transfer to the zero address\") */\n      tag_181\n        /* \"#utility.yul\":5746:6145   */\n      jump\n        /* \"contracts/coins/ShoCoin.sol_flattened.sol\":17337:17401  require(to != address(0), \"ERC20: transfer to the zero address\") */\n    tag_220:\n        /* \"contracts/coins/ShoCoin.sol_flattened.sol\":17412:17450  _beforeTokenTransfer(from, to, amount) */\n      tag_223\n        /* \"contracts/coins/ShoCoin.sol_flattened.sol\":17433:17437  from */\n      dup4\n        /* \"contracts/coins/ShoCoin.sol_flattened.sol\":17439:17441  to */\n      dup4\n        /* \"contracts/coins/ShoCoin.sol_flattened.sol\":17443:17449  amount */\n      dup4\n        /* \"contracts/coins/ShoCoin.sol_flattened.sol\":17412:17432  _beforeTokenTransfer */\n      tag_224\n        /* \"contracts/coins/ShoCoin.sol_flattened.sol\":17412:17450  _beforeTokenTransfer(from, to, amount) */\n      jump\t// in\n    tag_223:\n      sub(shl(0xa0, 0x01), 0x01)\n        /* \"contracts/coins/ShoCoin.sol_flattened.sol\":17483:17498  _balances[from] */\n      dup4\n      and\n        /* \"contracts/coins/ShoCoin.sol_flattened.sol\":17461:17480  uint256 fromBalance */\n      0x00\n        /* \"contracts/coins/ShoCoin.sol_flattened.sol\":17483:17498  _balances[from] */\n      swap1\n      dup2\n      mstore\n      0x20\n      dup2\n      swap1\n      mstore\n      0x40\n      swap1\n      keccak256\n      sload\n        /* \"contracts/coins/ShoCoin.sol_flattened.sol\":17516:17537  fromBalance >= amount */\n      dup2\n      dup2\n      lt\n      iszero\n        /* \"contracts/coins/ShoCoin.sol_flattened.sol\":17508:17580  require(fromBalance >= amount, \"ERC20: transfer amount exceeds balance\") */\n      tag_225\n      jumpi\n      mload(0x40)\n      shl(0xe5, 0x461bcd)\n      dup2\n      mstore\n        /* \"#utility.yul\":6352:6354   */\n      0x20\n        /* \"contracts/coins/ShoCoin.sol_flattened.sol\":17508:17580  require(fromBalance >= amount, \"ERC20: transfer amount exceeds balance\") */\n      0x04\n      dup3\n      add\n        /* \"#utility.yul\":6334:6355   */\n      mstore\n        /* \"#utility.yul\":6391:6393   */\n      0x26\n        /* \"#utility.yul\":6371:6389   */\n      0x24\n      dup3\n      add\n        /* \"#utility.yul\":6364:6394   */\n      mstore\n        /* \"#utility.yul\":6430:6464   */\n      0x45524332303a207472616e7366657220616d6f756e7420657863656564732062\n        /* \"#utility.yul\":6410:6428   */\n      0x44\n      dup3\n      add\n        /* \"#utility.yul\":6403:6465   */\n      mstore\n      shl(0xd0, 0x616c616e6365)\n        /* \"#utility.yul\":6481:6499   */\n      0x64\n      dup3\n      add\n        /* \"#utility.yul\":6474:6510   */\n      mstore\n        /* \"#utility.yul\":6527:6546   */\n      0x84\n      add\n        /* \"contracts/coins/ShoCoin.sol_flattened.sol\":17508:17580  require(fromBalance >= amount, \"ERC20: transfer amount exceeds balance\") */\n      tag_181\n        /* \"#utility.yul\":6150:6552   */\n      jump\n        /* \"contracts/coins/ShoCoin.sol_flattened.sol\":17508:17580  require(fromBalance >= amount, \"ERC20: transfer amount exceeds balance\") */\n    tag_225:\n      sub(shl(0xa0, 0x01), 0x01)\n        /* \"contracts/coins/ShoCoin.sol_flattened.sol\":17614:17629  _balances[from] */\n      dup5\n      dup2\n      and\n        /* \"contracts/coins/ShoCoin.sol_flattened.sol\":17614:17623  _balances */\n      0x00\n        /* \"contracts/coins/ShoCoin.sol_flattened.sol\":17614:17629  _balances[from] */\n      dup2\n      dup2\n      mstore\n      0x20\n      dup2\n      dup2\n      mstore\n      0x40\n      dup1\n      dup4\n      keccak256\n        /* \"contracts/coins/ShoCoin.sol_flattened.sol\":17632:17652  fromBalance - amount */\n      dup8\n      dup8\n      sub\n        /* \"contracts/coins/ShoCoin.sol_flattened.sol\":17614:17652  _balances[from] = fromBalance - amount */\n      swap1\n      sstore\n        /* \"contracts/coins/ShoCoin.sol_flattened.sol\":17829:17842  _balances[to] */\n      swap4\n      dup8\n      and\n      dup1\n      dup4\n      mstore\n      swap2\n      dup5\n      swap1\n      keccak256\n        /* \"contracts/coins/ShoCoin.sol_flattened.sol\":17829:17852  _balances[to] += amount */\n      dup1\n      sload\n      dup8\n      add\n      swap1\n      sstore\n        /* \"contracts/coins/ShoCoin.sol_flattened.sol\":17878:17904  Transfer(from, to, amount) */\n      swap3\n      mload\n        /* \"#utility.yul\":1342:1367   */\n      dup6\n      dup2\n      mstore\n        /* \"contracts/coins/ShoCoin.sol_flattened.sol\":17829:17842  _balances[to] */\n      swap1\n      swap3\n        /* \"contracts/coins/ShoCoin.sol_flattened.sol\":17878:17904  Transfer(from, to, amount) */\n      0xddf252ad1be2c89b69c2b068fc378daa952ba7f163c4a11628f55a4df523b3ef\n      swap2\n        /* \"#utility.yul\":1315:1333   */\n      add\n        /* \"contracts/coins/ShoCoin.sol_flattened.sol\":17878:17904  Transfer(from, to, amount) */\n      mload(0x40)\n      dup1\n      swap2\n      sub\n      swap1\n      log3\n        /* \"contracts/coins/ShoCoin.sol_flattened.sol\":17915:17952  _afterTokenTransfer(from, to, amount) */\n      tag_215\n        /* \"contracts/coins/ShoCoin.sol_flattened.sol\":19090:19749  function _burn(address account, uint256 amount) internal virtual {... */\n      jump\n        /* \"contracts/coins/ShoCoin.sol_flattened.sol\":2428:2558  function _checkOwner() internal view virtual {... */\n    tag_136:\n        /* \"contracts/coins/ShoCoin.sol_flattened.sol\":2342:2348  _owner */\n      sload(0x05)\n      sub(shl(0xa0, 0x01), 0x01)\n      0x0100\n      swap1\n      swap2\n      div\n      and\n        /* \"contracts/coins/ShoCoin.sol_flattened.sol\":952:962  msg.sender */\n      caller\n        /* \"contracts/coins/ShoCoin.sol_flattened.sol\":2491:2514  owner() == _msgSender() */\n      eq\n        /* \"contracts/coins/ShoCoin.sol_flattened.sol\":2483:2551  require(owner() == _msgSender(), \"Ownable: caller is not the owner\") */\n      tag_138\n      jumpi\n      mload(0x40)\n      shl(0xe5, 0x461bcd)\n      dup2\n      mstore\n        /* \"#utility.yul\":6759:6761   */\n      0x20\n        /* \"contracts/coins/ShoCoin.sol_flattened.sol\":2483:2551  require(owner() == _msgSender(), \"Ownable: caller is not the owner\") */\n      0x04\n      dup3\n      add\n        /* \"#utility.yul\":6741:6762   */\n      dup2\n      swap1\n      mstore\n        /* \"#utility.yul\":6778:6796   */\n      0x24\n      dup3\n      add\n        /* \"#utility.yul\":6771:6801   */\n      mstore\n        /* \"#utility.yul\":6837:6871   */\n      0x4f776e61626c653a2063616c6c6572206973206e6f7420746865206f776e6572\n        /* \"#utility.yul\":6817:6835   */\n      0x44\n      dup3\n      add\n        /* \"#utility.yul\":6810:6872   */\n      mstore\n        /* \"#utility.yul\":6889:6907   */\n      0x64\n      add\n        /* \"contracts/coins/ShoCoin.sol_flattened.sol\":2483:2551  require(owner() == _msgSender(), \"Ownable: caller is not the owner\") */\n      tag_181\n        /* \"#utility.yul\":6557:6913   */\n      jump\n        /* \"contracts/coins/ShoCoin.sol_flattened.sol\":6120:6237  function _unpause() internal virtual whenPaused {... */\n    tag_139:\n        /* \"contracts/coins/ShoCoin.sol_flattened.sol\":5173:5189  _requirePaused() */\n      tag_238\n        /* \"contracts/coins/ShoCoin.sol_flattened.sol\":5173:5187  _requirePaused */\n      tag_239\n        /* \"contracts/coins/ShoCoin.sol_flattened.sol\":5173:5189  _requirePaused() */\n      jump\t// in\n    tag_238:\n        /* \"contracts/coins/ShoCoin.sol_flattened.sol\":6178:6185  _paused */\n      0x05\n        /* \"contracts/coins/ShoCoin.sol_flattened.sol\":6178:6193  _paused = false */\n      dup1\n      sload\n      not(0xff)\n      and\n      swap1\n      sstore\n        /* \"contracts/coins/ShoCoin.sol_flattened.sol\":6208:6230  Unpaused(_msgSender()) */\n      0x5db9ee0a495bf2e6ff9c91a7834c1ba4fdd244a5e8aa4e537bd38aeae4b073aa\n        /* \"contracts/coins/ShoCoin.sol_flattened.sol\":952:962  msg.sender */\n      caller\n        /* \"contracts/coins/ShoCoin.sol_flattened.sol\":6217:6229  _msgSender() */\n    tag_241:\n        /* \"contracts/coins/ShoCoin.sol_flattened.sol\":6208:6230  Unpaused(_msgSender()) */\n      mload(0x40)\n      sub(shl(0xa0, 0x01), 0x01)\n        /* \"#utility.yul\":2440:2472   */\n      swap1\n      swap2\n      and\n        /* \"#utility.yul\":2422:2473   */\n      dup2\n      mstore\n        /* \"#utility.yul\":2410:2412   */\n      0x20\n        /* \"#utility.yul\":2395:2413   */\n      add\n        /* \"contracts/coins/ShoCoin.sol_flattened.sol\":6208:6230  Unpaused(_msgSender()) */\n      mload(0x40)\n      dup1\n      swap2\n      sub\n      swap1\n      log1\n        /* \"contracts/coins/ShoCoin.sol_flattened.sol\":6120:6237  function _unpause() internal virtual whenPaused {... */\n      jump\t// out\n        /* \"contracts/coins/ShoCoin.sol_flattened.sol\":18235:18770  function _mint(address account, uint256 amount) internal virtual {... */\n    tag_144:\n      sub(shl(0xa0, 0x01), 0x01)\n        /* \"contracts/coins/ShoCoin.sol_flattened.sol\":18318:18339  account != address(0) */\n      dup3\n      and\n        /* \"contracts/coins/ShoCoin.sol_flattened.sol\":18310:18375  require(account != address(0), \"ERC20: mint to the zero address\") */\n      tag_244\n      jumpi\n      mload(0x40)\n      shl(0xe5, 0x461bcd)\n      dup2\n      mstore\n        /* \"#utility.yul\":7120:7122   */\n      0x20\n        /* \"contracts/coins/ShoCoin.sol_flattened.sol\":18310:18375  require(account != address(0), \"ERC20: mint to the zero address\") */\n      0x04\n      dup3\n      add\n        /* \"#utility.yul\":7102:7123   */\n      mstore\n        /* \"#utility.yul\":7159:7161   */\n      0x1f\n        /* \"#utility.yul\":7139:7157   */\n      0x24\n      dup3\n      add\n        /* \"#utility.yul\":7132:7162   */\n      mstore\n        /* \"#utility.yul\":7198:7231   */\n      0x45524332303a206d696e7420746f20746865207a65726f206164647265737300\n        /* \"#utility.yul\":7178:7196   */\n      0x44\n      dup3\n      add\n        /* \"#utility.yul\":7171:7232   */\n      mstore\n        /* \"#utility.yul\":7249:7267   */\n      0x64\n      add\n        /* \"contracts/coins/ShoCoin.sol_flattened.sol\":18310:18375  require(account != address(0), \"ERC20: mint to the zero address\") */\n      tag_181\n        /* \"#utility.yul\":6918:7273   */\n      jump\n        /* \"contracts/coins/ShoCoin.sol_flattened.sol\":18310:18375  require(account != address(0), \"ERC20: mint to the zero address\") */\n    tag_244:\n        /* \"contracts/coins/ShoCoin.sol_flattened.sol\":18386:18435  _beforeTokenTransfer(address(0), account, amount) */\n      tag_247\n        /* \"contracts/coins/ShoCoin.sol_flattened.sol\":18415:18416  0 */\n      0x00\n        /* \"contracts/coins/ShoCoin.sol_flattened.sol\":18419:18426  account */\n      dup4\n        /* \"contracts/coins/ShoCoin.sol_flattened.sol\":18428:18434  amount */\n      dup4\n        /* \"contracts/coins/ShoCoin.sol_flattened.sol\":18386:18406  _beforeTokenTransfer */\n      tag_224\n        /* \"contracts/coins/ShoCoin.sol_flattened.sol\":18386:18435  _beforeTokenTransfer(address(0), account, amount) */\n      jump\t// in\n    tag_247:\n        /* \"contracts/coins/ShoCoin.sol_flattened.sol\":18462:18468  amount */\n      dup1\n        /* \"contracts/coins/ShoCoin.sol_flattened.sol\":18446:18458  _totalSupply */\n      0x02\n      0x00\n        /* \"contracts/coins/ShoCoin.sol_flattened.sol\":18446:18468  _totalSupply += amount */\n      dup3\n      dup3\n      sload\n      tag_248\n      swap2\n      swap1\n      tag_133\n      jump\t// in\n    tag_248:\n      swap1\n      swap2\n      sstore\n      pop\n      pop\n      sub(shl(0xa0, 0x01), 0x01)\n        /* \"contracts/coins/ShoCoin.sol_flattened.sol\":18614:18632  _balances[account] */\n      dup3\n      and\n        /* \"contracts/coins/ShoCoin.sol_flattened.sol\":18614:18623  _balances */\n      0x00\n        /* \"contracts/coins/ShoCoin.sol_flattened.sol\":18614:18632  _balances[account] */\n      dup2\n      dup2\n      mstore\n      0x20\n      dup2\n      dup2\n      mstore\n      0x40\n      dup1\n      dup4\n      keccak256\n        /* \"contracts/coins/ShoCoin.sol_flattened.sol\":18614:18642  _balances[account] += amount */\n      dup1\n      sload\n      dup7\n      add\n      swap1\n      sstore\n        /* \"contracts/coins/ShoCoin.sol_flattened.sol\":18667:18704  Transfer(address(0), account, amount) */\n      mload\n        /* \"#utility.yul\":1342:1367   */\n      dup5\n      dup2\n      mstore\n        /* \"contracts/coins/ShoCoin.sol_flattened.sol\":18667:18704  Transfer(address(0), account, amount) */\n      0xddf252ad1be2c89b69c2b068fc378daa952ba7f163c4a11628f55a4df523b3ef\n      swap2\n        /* \"#utility.yul\":1315:1333   */\n      add\n        /* \"contracts/coins/ShoCoin.sol_flattened.sol\":18667:18704  Transfer(address(0), account, amount) */\n      mload(0x40)\n      dup1\n      swap2\n      sub\n      swap1\n      log3\n        /* \"contracts/coins/ShoCoin.sol_flattened.sol\":24128:24221  function mint(address to, uint256 amount) public onlyOwner {... */\n      pop\n      pop\n      jump\t// out\n        /* \"contracts/coins/ShoCoin.sol_flattened.sol\":19090:19749  function _burn(address account, uint256 amount) internal virtual {... */\n    tag_148:\n      sub(shl(0xa0, 0x01), 0x01)\n        /* \"contracts/coins/ShoCoin.sol_flattened.sol\":19173:19194  account != address(0) */\n      dup3\n      and\n        /* \"contracts/coins/ShoCoin.sol_flattened.sol\":19165:19232  require(account != address(0), \"ERC20: burn from the zero address\") */\n      tag_252\n      jumpi\n      mload(0x40)\n      shl(0xe5, 0x461bcd)\n      dup2\n      mstore\n        /* \"#utility.yul\":7480:7482   */\n      0x20\n        /* \"contracts/coins/ShoCoin.sol_flattened.sol\":19165:19232  require(account != address(0), \"ERC20: burn from the zero address\") */\n      0x04\n      dup3\n      add\n        /* \"#utility.yul\":7462:7483   */\n      mstore\n        /* \"#utility.yul\":7519:7521   */\n      0x21\n        /* \"#utility.yul\":7499:7517   */\n      0x24\n      dup3\n      add\n        /* \"#utility.yul\":7492:7522   */\n      mstore\n        /* \"#utility.yul\":7558:7592   */\n      0x45524332303a206275726e2066726f6d20746865207a65726f20616464726573\n        /* \"#utility.yul\":7538:7556   */\n      0x44\n      dup3\n      add\n        /* \"#utility.yul\":7531:7593   */\n      mstore\n      shl(0xf8, 0x73)\n        /* \"#utility.yul\":7609:7627   */\n      0x64\n      dup3\n      add\n        /* \"#utility.yul\":7602:7633   */\n      mstore\n        /* \"#utility.yul\":7650:7669   */\n      0x84\n      add\n        /* \"contracts/coins/ShoCoin.sol_flattened.sol\":19165:19232  require(account != address(0), \"ERC20: burn from the zero address\") */\n      tag_181\n        /* \"#utility.yul\":7278:7675   */\n      jump\n        /* \"contracts/coins/ShoCoin.sol_flattened.sol\":19165:19232  require(account != address(0), \"ERC20: burn from the zero address\") */\n    tag_252:\n        /* \"contracts/coins/ShoCoin.sol_flattened.sol\":19243:19292  _beforeTokenTransfer(account, address(0), amount) */\n      tag_255\n        /* \"contracts/coins/ShoCoin.sol_flattened.sol\":19264:19271  account */\n      dup3\n        /* \"contracts/coins/ShoCoin.sol_flattened.sol\":19281:19282  0 */\n      0x00\n        /* \"contracts/coins/ShoCoin.sol_flattened.sol\":19285:19291  amount */\n      dup4\n        /* \"contracts/coins/ShoCoin.sol_flattened.sol\":19243:19263  _beforeTokenTransfer */\n      tag_224\n        /* \"contracts/coins/ShoCoin.sol_flattened.sol\":19243:19292  _beforeTokenTransfer(account, address(0), amount) */\n      jump\t// in\n    tag_255:\n      sub(shl(0xa0, 0x01), 0x01)\n        /* \"contracts/coins/ShoCoin.sol_flattened.sol\":19328:19346  _balances[account] */\n      dup3\n      and\n        /* \"contracts/coins/ShoCoin.sol_flattened.sol\":19303:19325  uint256 accountBalance */\n      0x00\n        /* \"contracts/coins/ShoCoin.sol_flattened.sol\":19328:19346  _balances[account] */\n      swap1\n      dup2\n      mstore\n      0x20\n      dup2\n      swap1\n      mstore\n      0x40\n      swap1\n      keccak256\n      sload\n        /* \"contracts/coins/ShoCoin.sol_flattened.sol\":19364:19388  accountBalance >= amount */\n      dup2\n      dup2\n      lt\n      iszero\n        /* \"contracts/coins/ShoCoin.sol_flattened.sol\":19356:19427  require(accountBalance >= amount, \"ERC20: burn amount exceeds balance\") */\n      tag_256\n      jumpi\n      mload(0x40)\n      shl(0xe5, 0x461bcd)\n      dup2\n      mstore\n        /* \"#utility.yul\":7882:7884   */\n      0x20\n        /* \"contracts/coins/ShoCoin.sol_flattened.sol\":19356:19427  require(accountBalance >= amount, \"ERC20: burn amount exceeds balance\") */\n      0x04\n      dup3\n      add\n        /* \"#utility.yul\":7864:7885   */\n      mstore\n        /* \"#utility.yul\":7921:7923   */\n      0x22\n        /* \"#utility.yul\":7901:7919   */\n      0x24\n      dup3\n      add\n        /* \"#utility.yul\":7894:7924   */\n      mstore\n        /* \"#utility.yul\":7960:7994   */\n      0x45524332303a206275726e20616d6f756e7420657863656564732062616c616e\n        /* \"#utility.yul\":7940:7958   */\n      0x44\n      dup3\n      add\n        /* \"#utility.yul\":7933:7995   */\n      mstore\n      shl(0xf0, 0x6365)\n        /* \"#utility.yul\":8011:8029   */\n      0x64\n      dup3\n      add\n        /* \"#utility.yul\":8004:8036   */\n      mstore\n        /* \"#utility.yul\":8053:8072   */\n      0x84\n      add\n        /* \"contracts/coins/ShoCoin.sol_flattened.sol\":19356:19427  require(accountBalance >= amount, \"ERC20: burn amount exceeds balance\") */\n      tag_181\n        /* \"#utility.yul\":7680:8078   */\n      jump\n        /* \"contracts/coins/ShoCoin.sol_flattened.sol\":19356:19427  require(accountBalance >= amount, \"ERC20: burn amount exceeds balance\") */\n    tag_256:\n      sub(shl(0xa0, 0x01), 0x01)\n        /* \"contracts/coins/ShoCoin.sol_flattened.sol\":19461:19479  _balances[account] */\n      dup4\n      and\n        /* \"contracts/coins/ShoCoin.sol_flattened.sol\":19461:19470  _balances */\n      0x00\n        /* \"contracts/coins/ShoCoin.sol_flattened.sol\":19461:19479  _balances[account] */\n      dup2\n      dup2\n      mstore\n      0x20\n      dup2\n      dup2\n      mstore\n      0x40\n      dup1\n      dup4\n      keccak256\n        /* \"contracts/coins/ShoCoin.sol_flattened.sol\":19482:19505  accountBalance - amount */\n      dup7\n      dup7\n      sub\n        /* \"contracts/coins/ShoCoin.sol_flattened.sol\":19461:19505  _balances[account] = accountBalance - amount */\n      swap1\n      sstore\n        /* \"contracts/coins/ShoCoin.sol_flattened.sol\":19598:19610  _totalSupply */\n      0x02\n        /* \"contracts/coins/ShoCoin.sol_flattened.sol\":19598:19620  _totalSupply -= amount */\n      dup1\n      sload\n      dup8\n      swap1\n      sub\n      swap1\n      sstore\n        /* \"contracts/coins/ShoCoin.sol_flattened.sol\":19646:19683  Transfer(account, address(0), amount) */\n      mload\n        /* \"#utility.yul\":1342:1367   */\n      dup6\n      dup2\n      mstore\n        /* \"contracts/coins/ShoCoin.sol_flattened.sol\":19461:19470  _balances */\n      swap2\n      swap3\n        /* \"contracts/coins/ShoCoin.sol_flattened.sol\":19461:19479  _balances[account] */\n      swap2\n        /* \"contracts/coins/ShoCoin.sol_flattened.sol\":19646:19683  Transfer(account, address(0), amount) */\n      0xddf252ad1be2c89b69c2b068fc378daa952ba7f163c4a11628f55a4df523b3ef\n      swap2\n        /* \"#utility.yul\":1315:1333   */\n      add\n        /* \"contracts/coins/ShoCoin.sol_flattened.sol\":19646:19683  Transfer(account, address(0), amount) */\n      tag_208\n        /* \"#utility.yul\":1196:1373   */\n      jump\n        /* \"contracts/coins/ShoCoin.sol_flattened.sol\":3502:3689  function _transferOwnership(address newOwner) internal virtual {... */\n    tag_155:\n        /* \"contracts/coins/ShoCoin.sol_flattened.sol\":3594:3600  _owner */\n      0x05\n      dup1\n      sload\n      sub(shl(0xa0, 0x01), 0x01)\n        /* \"contracts/coins/ShoCoin.sol_flattened.sol\":3610:3627  _owner = newOwner */\n      dup4\n      dup2\n      and\n        /* \"contracts/coins/ShoCoin.sol_flattened.sol\":3594:3600  _owner */\n      0x0100\n        /* \"contracts/coins/ShoCoin.sol_flattened.sol\":3610:3627  _owner = newOwner */\n      dup2\n      dup2\n      mul\n      not(sub(shl(0xa8, 0x01), 0x0100))\n      dup6\n      and\n      or\n      swap1\n      swap5\n      sstore\n        /* \"contracts/coins/ShoCoin.sol_flattened.sol\":3642:3682  OwnershipTransferred(oldOwner, newOwner) */\n      mload(0x40)\n        /* \"contracts/coins/ShoCoin.sol_flattened.sol\":3594:3600  _owner */\n      swap4\n      swap1\n      swap3\n      div\n      and\n      swap2\n      dup3\n      swap1\n        /* \"contracts/coins/ShoCoin.sol_flattened.sol\":3642:3682  OwnershipTransferred(oldOwner, newOwner) */\n      0x8be0079c531659141344cd1fd0a4f28419497f9722a3daafe3b4186f6b6457e0\n      swap1\n        /* \"contracts/coins/ShoCoin.sol_flattened.sol\":3575:3591  address oldOwner */\n      0x00\n      swap1\n        /* \"contracts/coins/ShoCoin.sol_flattened.sol\":3642:3682  OwnershipTransferred(oldOwner, newOwner) */\n      log3\n        /* \"contracts/coins/ShoCoin.sol_flattened.sol\":3565:3689  {... */\n      pop\n        /* \"contracts/coins/ShoCoin.sol_flattened.sol\":3502:3689  function _transferOwnership(address newOwner) internal virtual {... */\n      pop\n      jump\t// out\n        /* \"contracts/coins/ShoCoin.sol_flattened.sol\":5873:5988  function _pause() internal virtual whenNotPaused {... */\n    tag_164:\n        /* \"contracts/coins/ShoCoin.sol_flattened.sol\":4926:4945  _requireNotPaused() */\n      tag_263\n        /* \"contracts/coins/ShoCoin.sol_flattened.sol\":4926:4943  _requireNotPaused */\n      tag_264\n        /* \"contracts/coins/ShoCoin.sol_flattened.sol\":4926:4945  _requireNotPaused() */\n      jump\t// in\n    tag_263:\n        /* \"contracts/coins/ShoCoin.sol_flattened.sol\":5932:5939  _paused */\n      0x05\n        /* \"contracts/coins/ShoCoin.sol_flattened.sol\":5932:5946  _paused = true */\n      dup1\n      sload\n      not(0xff)\n      and\n        /* \"contracts/coins/ShoCoin.sol_flattened.sol\":5942:5946  true */\n      0x01\n        /* \"contracts/coins/ShoCoin.sol_flattened.sol\":5932:5946  _paused = true */\n      or\n      swap1\n      sstore\n        /* \"contracts/coins/ShoCoin.sol_flattened.sol\":5961:5981  Paused(_msgSender()) */\n      0x62e78cea01bee320cd4e420270b5ea74000d11b0c9f74754ebdbfc544b05a258\n        /* \"contracts/coins/ShoCoin.sol_flattened.sol\":5968:5980  _msgSender() */\n      tag_241\n        /* \"contracts/coins/ShoCoin.sol_flattened.sol\":952:962  msg.sender */\n      caller\n      swap1\n        /* \"contracts/coins/ShoCoin.sol_flattened.sol\":873:969  function _msgSender() internal view virtual returns (address) {... */\n      jump\n        /* \"contracts/coins/ShoCoin.sol_flattened.sol\":24470:24665  function _beforeTokenTransfer(... */\n    tag_224:\n        /* \"contracts/coins/ShoCoin.sol_flattened.sol\":4926:4945  _requireNotPaused() */\n      tag_269\n        /* \"contracts/coins/ShoCoin.sol_flattened.sol\":4926:4943  _requireNotPaused */\n      tag_264\n        /* \"contracts/coins/ShoCoin.sol_flattened.sol\":4926:4945  _requireNotPaused() */\n      jump\t// in\n    tag_269:\n        /* \"contracts/coins/ShoCoin.sol_flattened.sol\":19155:19749  {... */\n      pop\n        /* \"contracts/coins/ShoCoin.sol_flattened.sol\":19090:19749  function _burn(address account, uint256 amount) internal virtual {... */\n      pop\n      pop\n      jump\t// out\n        /* \"contracts/coins/ShoCoin.sol_flattened.sol\":5632:5738  function _requirePaused() internal view virtual {... */\n    tag_239:\n        /* \"contracts/coins/ShoCoin.sol_flattened.sol\":5372:5379  _paused */\n      and(0xff, sload(0x05))\n        /* \"contracts/coins/ShoCoin.sol_flattened.sol\":5690:5731  require(paused(), \"Pausable: not paused\") */\n      tag_138\n      jumpi\n      mload(0x40)\n      shl(0xe5, 0x461bcd)\n      dup2\n      mstore\n        /* \"#utility.yul\":8285:8287   */\n      0x20\n        /* \"contracts/coins/ShoCoin.sol_flattened.sol\":5690:5731  require(paused(), \"Pausable: not paused\") */\n      0x04\n      dup3\n      add\n        /* \"#utility.yul\":8267:8288   */\n      mstore\n        /* \"#utility.yul\":8324:8326   */\n      0x14\n        /* \"#utility.yul\":8304:8322   */\n      0x24\n      dup3\n      add\n        /* \"#utility.yul\":8297:8327   */\n      mstore\n      shl(0x62, 0x14185d5cd8589b194e881b9bdd081c185d5cd959)\n        /* \"#utility.yul\":8343:8361   */\n      0x44\n      dup3\n      add\n        /* \"#utility.yul\":8336:8386   */\n      mstore\n        /* \"#utility.yul\":8403:8421   */\n      0x64\n      add\n        /* \"contracts/coins/ShoCoin.sol_flattened.sol\":5690:5731  require(paused(), \"Pausable: not paused\") */\n      tag_181\n        /* \"#utility.yul\":8083:8427   */\n      jump\n        /* \"contracts/coins/ShoCoin.sol_flattened.sol\":5454:5560  function _requireNotPaused() internal view virtual {... */\n    tag_264:\n        /* \"contracts/coins/ShoCoin.sol_flattened.sol\":5372:5379  _paused */\n      and(0xff, sload(0x05))\n        /* \"contracts/coins/ShoCoin.sol_flattened.sol\":5523:5532  !paused() */\n      iszero\n        /* \"contracts/coins/ShoCoin.sol_flattened.sol\":5515:5553  require(!paused(), \"Pausable: paused\") */\n      tag_138\n      jumpi\n      mload(0x40)\n      shl(0xe5, 0x461bcd)\n      dup2\n      mstore\n        /* \"#utility.yul\":8634:8636   */\n      0x20\n        /* \"contracts/coins/ShoCoin.sol_flattened.sol\":5515:5553  require(!paused(), \"Pausable: paused\") */\n      0x04\n      dup3\n      add\n        /* \"#utility.yul\":8616:8637   */\n      mstore\n        /* \"#utility.yul\":8673:8675   */\n      0x10\n        /* \"#utility.yul\":8653:8671   */\n      0x24\n      dup3\n      add\n        /* \"#utility.yul\":8646:8676   */\n      mstore\n      shl(0x82, 0x14185d5cd8589b194e881c185d5cd959)\n        /* \"#utility.yul\":8692:8710   */\n      0x44\n      dup3\n      add\n        /* \"#utility.yul\":8685:8731   */\n      mstore\n        /* \"#utility.yul\":8748:8766   */\n      0x64\n      add\n        /* \"contracts/coins/ShoCoin.sol_flattened.sol\":5515:5553  require(!paused(), \"Pausable: paused\") */\n      tag_181\n        /* \"#utility.yul\":8432:8772   */\n      jump\n        /* \"#utility.yul\":14:562   */\n    tag_31:\n        /* \"#utility.yul\":126:130   */\n      0x00\n        /* \"#utility.yul\":155:157   */\n      0x20\n        /* \"#utility.yul\":184:186   */\n      dup1\n        /* \"#utility.yul\":173:182   */\n      dup4\n        /* \"#utility.yul\":166:187   */\n      mstore\n        /* \"#utility.yul\":216:222   */\n      dup4\n        /* \"#utility.yul\":210:223   */\n      mload\n        /* \"#utility.yul\":259:265   */\n      dup1\n        /* \"#utility.yul\":254:256   */\n      dup3\n        /* \"#utility.yul\":243:252   */\n      dup6\n        /* \"#utility.yul\":239:257   */\n      add\n        /* \"#utility.yul\":232:266   */\n      mstore\n        /* \"#utility.yul\":284:285   */\n      0x00\n        /* \"#utility.yul\":294:434   */\n    tag_288:\n        /* \"#utility.yul\":308:314   */\n      dup2\n        /* \"#utility.yul\":305:306   */\n      dup2\n        /* \"#utility.yul\":302:315   */\n      lt\n        /* \"#utility.yul\":294:434   */\n      iszero\n      tag_290\n      jumpi\n        /* \"#utility.yul\":403:417   */\n      dup6\n      dup2\n      add\n        /* \"#utility.yul\":399:422   */\n      dup4\n      add\n        /* \"#utility.yul\":393:423   */\n      mload\n        /* \"#utility.yul\":369:386   */\n      dup6\n      dup3\n      add\n        /* \"#utility.yul\":388:390   */\n      0x40\n        /* \"#utility.yul\":365:391   */\n      add\n        /* \"#utility.yul\":358:424   */\n      mstore\n        /* \"#utility.yul\":323:333   */\n      dup3\n      add\n        /* \"#utility.yul\":294:434   */\n      jump(tag_288)\n    tag_290:\n        /* \"#utility.yul\":298:301   */\n      pop\n        /* \"#utility.yul\":483:484   */\n      0x00\n        /* \"#utility.yul\":478:480   */\n      0x40\n        /* \"#utility.yul\":469:475   */\n      dup3\n        /* \"#utility.yul\":458:467   */\n      dup7\n        /* \"#utility.yul\":454:476   */\n      add\n        /* \"#utility.yul\":450:481   */\n      add\n        /* \"#utility.yul\":443:485   */\n      mstore\n        /* \"#utility.yul\":553:555   */\n      0x40\n        /* \"#utility.yul\":546:548   */\n      0x1f\n        /* \"#utility.yul\":542:549   */\n      not\n        /* \"#utility.yul\":537:539   */\n      0x1f\n        /* \"#utility.yul\":529:535   */\n      dup4\n        /* \"#utility.yul\":525:540   */\n      add\n        /* \"#utility.yul\":521:550   */\n      and\n        /* \"#utility.yul\":510:519   */\n      dup6\n        /* \"#utility.yul\":506:551   */\n      add\n        /* \"#utility.yul\":502:556   */\n      add\n        /* \"#utility.yul\":494:556   */\n      swap3\n      pop\n      pop\n      pop\n        /* \"#utility.yul\":14:562   */\n      swap3\n      swap2\n      pop\n      pop\n      jump\t// out\n        /* \"#utility.yul\":567:740   */\n    tag_285:\n        /* \"#utility.yul\":635:655   */\n      dup1\n      calldataload\n      sub(shl(0xa0, 0x01), 0x01)\n        /* \"#utility.yul\":684:715   */\n      dup2\n      and\n        /* \"#utility.yul\":674:716   */\n      dup2\n      eq\n        /* \"#utility.yul\":664:734   */\n      tag_292\n      jumpi\n        /* \"#utility.yul\":730:731   */\n      0x00\n        /* \"#utility.yul\":727:728   */\n      dup1\n        /* \"#utility.yul\":720:732   */\n      revert\n        /* \"#utility.yul\":664:734   */\n    tag_292:\n        /* \"#utility.yul\":567:740   */\n      swap2\n      swap1\n      pop\n      jump\t// out\n        /* \"#utility.yul\":745:999   */\n    tag_34:\n        /* \"#utility.yul\":813:819   */\n      0x00\n        /* \"#utility.yul\":821:827   */\n      dup1\n        /* \"#utility.yul\":874:876   */\n      0x40\n        /* \"#utility.yul\":862:871   */\n      dup4\n        /* \"#utility.yul\":853:860   */\n      dup6\n        /* \"#utility.yul\":849:872   */\n      sub\n        /* \"#utility.yul\":845:877   */\n      slt\n        /* \"#utility.yul\":842:894   */\n      iszero\n      tag_294\n      jumpi\n        /* \"#utility.yul\":890:891   */\n      0x00\n        /* \"#utility.yul\":887:888   */\n      dup1\n        /* \"#utility.yul\":880:892   */\n      revert\n        /* \"#utility.yul\":842:894   */\n    tag_294:\n        /* \"#utility.yul\":913:942   */\n      tag_295\n        /* \"#utility.yul\":932:941   */\n      dup4\n        /* \"#utility.yul\":913:942   */\n      tag_285\n      jump\t// in\n    tag_295:\n        /* \"#utility.yul\":903:942   */\n      swap5\n        /* \"#utility.yul\":989:991   */\n      0x20\n        /* \"#utility.yul\":974:992   */\n      swap4\n      swap1\n      swap4\n      add\n        /* \"#utility.yul\":961:993   */\n      calldataload\n      swap4\n      pop\n      pop\n      pop\n        /* \"#utility.yul\":745:999   */\n      jump\t// out\n        /* \"#utility.yul\":1378:1706   */\n    tag_44:\n        /* \"#utility.yul\":1455:1461   */\n      0x00\n        /* \"#utility.yul\":1463:1469   */\n      dup1\n        /* \"#utility.yul\":1471:1477   */\n      0x00\n        /* \"#utility.yul\":1524:1526   */\n      0x60\n        /* \"#utility.yul\":1512:1521   */\n      dup5\n        /* \"#utility.yul\":1503:1510   */\n      dup7\n        /* \"#utility.yul\":1499:1522   */\n      sub\n        /* \"#utility.yul\":1495:1527   */\n      slt\n        /* \"#utility.yul\":1492:1544   */\n      iszero\n      tag_299\n      jumpi\n        /* \"#utility.yul\":1540:1541   */\n      0x00\n        /* \"#utility.yul\":1537:1538   */\n      dup1\n        /* \"#utility.yul\":1530:1542   */\n      revert\n        /* \"#utility.yul\":1492:1544   */\n    tag_299:\n        /* \"#utility.yul\":1563:1592   */\n      tag_300\n        /* \"#utility.yul\":1582:1591   */\n      dup5\n        /* \"#utility.yul\":1563:1592   */\n      tag_285\n      jump\t// in\n    tag_300:\n        /* \"#utility.yul\":1553:1592   */\n      swap3\n      pop\n        /* \"#utility.yul\":1611:1649   */\n      tag_301\n        /* \"#utility.yul\":1645:1647   */\n      0x20\n        /* \"#utility.yul\":1634:1643   */\n      dup6\n        /* \"#utility.yul\":1630:1648   */\n      add\n        /* \"#utility.yul\":1611:1649   */\n      tag_285\n      jump\t// in\n    tag_301:\n        /* \"#utility.yul\":1601:1649   */\n      swap2\n      pop\n        /* \"#utility.yul\":1696:1698   */\n      0x40\n        /* \"#utility.yul\":1685:1694   */\n      dup5\n        /* \"#utility.yul\":1681:1699   */\n      add\n        /* \"#utility.yul\":1668:1700   */\n      calldataload\n        /* \"#utility.yul\":1658:1700   */\n      swap1\n      pop\n        /* \"#utility.yul\":1378:1706   */\n      swap3\n      pop\n      swap3\n      pop\n      swap3\n      jump\t// out\n        /* \"#utility.yul\":1900:2080   */\n    tag_62:\n        /* \"#utility.yul\":1959:1965   */\n      0x00\n        /* \"#utility.yul\":2012:2014   */\n      0x20\n        /* \"#utility.yul\":2000:2009   */\n      dup3\n        /* \"#utility.yul\":1991:1998   */\n      dup5\n        /* \"#utility.yul\":1987:2010   */\n      sub\n        /* \"#utility.yul\":1983:2015   */\n      slt\n        /* \"#utility.yul\":1980:2032   */\n      iszero\n      tag_304\n      jumpi\n        /* \"#utility.yul\":2028:2029   */\n      0x00\n        /* \"#utility.yul\":2025:2026   */\n      dup1\n        /* \"#utility.yul\":2018:2030   */\n      revert\n        /* \"#utility.yul\":1980:2032   */\n    tag_304:\n      pop\n        /* \"#utility.yul\":2051:2074   */\n      calldataload\n      swap2\n        /* \"#utility.yul\":1900:2080   */\n      swap1\n      pop\n      jump\t// out\n        /* \"#utility.yul\":2085:2271   */\n    tag_69:\n        /* \"#utility.yul\":2144:2150   */\n      0x00\n        /* \"#utility.yul\":2197:2199   */\n      0x20\n        /* \"#utility.yul\":2185:2194   */\n      dup3\n        /* \"#utility.yul\":2176:2183   */\n      dup5\n        /* \"#utility.yul\":2172:2195   */\n      sub\n        /* \"#utility.yul\":2168:2200   */\n      slt\n        /* \"#utility.yul\":2165:2217   */\n      iszero\n      tag_306\n      jumpi\n        /* \"#utility.yul\":2213:2214   */\n      0x00\n        /* \"#utility.yul\":2210:2211   */\n      dup1\n        /* \"#utility.yul\":2203:2215   */\n      revert\n        /* \"#utility.yul\":2165:2217   */\n    tag_306:\n        /* \"#utility.yul\":2236:2265   */\n      tag_307\n        /* \"#utility.yul\":2255:2264   */\n      dup3\n        /* \"#utility.yul\":2236:2265   */\n      tag_285\n      jump\t// in\n    tag_307:\n        /* \"#utility.yul\":2226:2265   */\n      swap4\n        /* \"#utility.yul\":2085:2271   */\n      swap3\n      pop\n      pop\n      pop\n      jump\t// out\n        /* \"#utility.yul\":2484:2744   */\n    tag_102:\n        /* \"#utility.yul\":2552:2558   */\n      0x00\n        /* \"#utility.yul\":2560:2566   */\n      dup1\n        /* \"#utility.yul\":2613:2615   */\n      0x40\n        /* \"#utility.yul\":2601:2610   */\n      dup4\n        /* \"#utility.yul\":2592:2599   */\n      dup6\n        /* \"#utility.yul\":2588:2611   */\n      sub\n        /* \"#utility.yul\":2584:2616   */\n      slt\n        /* \"#utility.yul\":2581:2633   */\n      iszero\n      tag_310\n      jumpi\n        /* \"#utility.yul\":2629:2630   */\n      0x00\n        /* \"#utility.yul\":2626:2627   */\n      dup1\n        /* \"#utility.yul\":2619:2631   */\n      revert\n        /* \"#utility.yul\":2581:2633   */\n    tag_310:\n        /* \"#utility.yul\":2652:2681   */\n      tag_311\n        /* \"#utility.yul\":2671:2680   */\n      dup4\n        /* \"#utility.yul\":2652:2681   */\n      tag_285\n      jump\t// in\n    tag_311:\n        /* \"#utility.yul\":2642:2681   */\n      swap2\n      pop\n        /* \"#utility.yul\":2700:2738   */\n      tag_312\n        /* \"#utility.yul\":2734:2736   */\n      0x20\n        /* \"#utility.yul\":2723:2732   */\n      dup5\n        /* \"#utility.yul\":2719:2737   */\n      add\n        /* \"#utility.yul\":2700:2738   */\n      tag_285\n      jump\t// in\n    tag_312:\n        /* \"#utility.yul\":2690:2738   */\n      swap1\n      pop\n        /* \"#utility.yul\":2484:2744   */\n      swap3\n      pop\n      swap3\n      swap1\n      pop\n      jump\t// out\n        /* \"#utility.yul\":2749:3129   */\n    tag_110:\n        /* \"#utility.yul\":2828:2829   */\n      0x01\n        /* \"#utility.yul\":2824:2836   */\n      dup2\n      dup2\n      shr\n      swap1\n        /* \"#utility.yul\":2871:2883   */\n      dup3\n      and\n      dup1\n        /* \"#utility.yul\":2892:2953   */\n      tag_314\n      jumpi\n        /* \"#utility.yul\":2946:2950   */\n      0x7f\n        /* \"#utility.yul\":2938:2944   */\n      dup3\n        /* \"#utility.yul\":2934:2951   */\n      and\n        /* \"#utility.yul\":2924:2951   */\n      swap2\n      pop\n        /* \"#utility.yul\":2892:2953   */\n    tag_314:\n        /* \"#utility.yul\":2999:3001   */\n      0x20\n        /* \"#utility.yul\":2991:2997   */\n      dup3\n        /* \"#utility.yul\":2988:3002   */\n      lt\n        /* \"#utility.yul\":2968:2986   */\n      dup2\n        /* \"#utility.yul\":2965:3003   */\n      sub\n        /* \"#utility.yul\":2962:3123   */\n      tag_315\n      jumpi\n        /* \"#utility.yul\":3045:3055   */\n      0x4e487b71\n        /* \"#utility.yul\":3040:3043   */\n      0xe0\n        /* \"#utility.yul\":3036:3056   */\n      shl\n        /* \"#utility.yul\":3033:3034   */\n      0x00\n        /* \"#utility.yul\":3026:3057   */\n      mstore\n        /* \"#utility.yul\":3080:3084   */\n      0x22\n        /* \"#utility.yul\":3077:3078   */\n      0x04\n        /* \"#utility.yul\":3070:3085   */\n      mstore\n        /* \"#utility.yul\":3108:3112   */\n      0x24\n        /* \"#utility.yul\":3105:3106   */\n      0x00\n        /* \"#utility.yul\":3098:3113   */\n      revert\n        /* \"#utility.yul\":2962:3123   */\n    tag_315:\n      pop\n        /* \"#utility.yul\":2749:3129   */\n      swap2\n      swap1\n      pop\n      jump\t// out\n        /* \"#utility.yul\":3134:3356   */\n    tag_133:\n        /* \"#utility.yul\":3199:3208   */\n      dup1\n      dup3\n      add\n        /* \"#utility.yul\":3220:3230   */\n      dup1\n      dup3\n      gt\n        /* \"#utility.yul\":3217:3350   */\n      iszero\n      tag_115\n      jumpi\n        /* \"#utility.yul\":3272:3282   */\n      0x4e487b71\n        /* \"#utility.yul\":3267:3270   */\n      0xe0\n        /* \"#utility.yul\":3263:3283   */\n      shl\n        /* \"#utility.yul\":3260:3261   */\n      0x00\n        /* \"#utility.yul\":3253:3284   */\n      mstore\n        /* \"#utility.yul\":3307:3311   */\n      0x11\n        /* \"#utility.yul\":3304:3305   */\n      0x04\n        /* \"#utility.yul\":3297:3312   */\n      mstore\n        /* \"#utility.yul\":3335:3339   */\n      0x24\n        /* \"#utility.yul\":3332:3333   */\n      0x00\n        /* \"#utility.yul\":3325:3340   */\n      revert\n\n    auxdata: 0xa2646970667358221220fec4aae0bd5d3923a240e56ed0613ea317046ed641d519c52de8058ba6263d8164736f6c63430008130033\n}\n",
				"bytecode": {
					"linkReferences": {},
					"object": "60806040523480156200001157600080fd5b506040518060400160405280600781526020016629b437a1b7b4b760c91b8152506040518060400160405280600481526020016353484f4360e01b81525081600390816200006091906200018c565b5060046200006f82826200018c565b50506005805460ff191690555062000087336200008d565b62000258565b600580546001600160a01b03838116610100818102610100600160a81b031985161790945560405193909204169182907f8be0079c531659141344cd1fd0a4f28419497f9722a3daafe3b4186f6b6457e090600090a35050565b634e487b7160e01b600052604160045260246000fd5b600181811c908216806200011257607f821691505b6020821081036200013357634e487b7160e01b600052602260045260246000fd5b50919050565b601f8211156200018757600081815260208120601f850160051c81016020861015620001625750805b601f850160051c820191505b8181101562000183578281556001016200016e565b5050505b505050565b81516001600160401b03811115620001a857620001a8620000e7565b620001c081620001b98454620000fd565b8462000139565b602080601f831160018114620001f85760008415620001df5750858301515b600019600386901b1c1916600185901b17855562000183565b600085815260208120601f198616915b82811015620002295788860151825594840194600190910190840162000208565b5085821015620002485787850151600019600388901b60f8161c191681555b5050505050600190811b01905550565b610ede80620002686000396000f3fe608060405234801561001057600080fd5b50600436106101425760003560e01c8063715018a6116100b8578063a0712d681161007c578063a0712d6814610287578063a457c2d71461029a578063a9059cbb146102ad578063c290d691146102c0578063dd62ed3e146102d3578063f2fde38b146102e657600080fd5b8063715018a61461023357806379cc67901461023b5780638456cb591461024e5780638da5cb5b1461025657806395d89b411461027f57600080fd5b8063395093511161010a57806339509351146101bc5780633f4ba83a146101cf57806340c10f19146101d957806342966c68146101ec5780635c975abb146101ff57806370a082311461020a57600080fd5b806306fdde0314610147578063095ea7b31461016557806318160ddd1461018857806323b872dd1461019a578063313ce567146101ad575b600080fd5b61014f6102f9565b60405161015c9190610d0f565b60405180910390f35b610178610173366004610d79565b61038b565b604051901515815260200161015c565b6002545b60405190815260200161015c565b6101786101a8366004610da3565b6103a5565b6040516012815260200161015c565b6101786101ca366004610d79565b6103c9565b6101d76103eb565b005b6101d76101e7366004610d79565b6103fd565b6101d76101fa366004610ddf565b610413565b60055460ff16610178565b61018c610218366004610df8565b6001600160a01b031660009081526020819052604090205490565b6101d7610421565b6101d7610249366004610d79565b610433565b6101d7610448565b60055461010090046001600160a01b03166040516001600160a01b03909116815260200161015c565b61014f610458565b6101d7610295366004610ddf565b610467565b6101786102a8366004610d79565b61048a565b6101786102bb366004610d79565b61050a565b6101d76102ce366004610ddf565b610518565b61018c6102e1366004610e1a565b61053a565b6101d76102f4366004610df8565b610565565b60606003805461030890610e4d565b80601f016020809104026020016040519081016040528092919081815260200182805461033490610e4d565b80156103815780601f1061035657610100808354040283529160200191610381565b820191906000526020600020905b81548152906001019060200180831161036457829003601f168201915b5050505050905090565b6000336103998185856105db565b60019150505b92915050565b6000336103b3858285610700565b6103be85858561077a565b506001949350505050565b6000336103998185856103dc838361053a565b6103e69190610e87565b6105db565b6103f3610929565b6103fb610989565b565b610405610929565b61040f82826109db565b5050565b61041e335b82610aa6565b50565b610429610929565b6103fb6000610bdc565b61043e823383610700565b61040f8282610aa6565b610450610929565b6103fb610c36565b60606004805461030890610e4d565b61046f610929565b60055461041e9061010090046001600160a01b0316826109db565b60003381610498828661053a565b9050838110156104fd5760405162461bcd60e51b815260206004820152602560248201527f45524332303a2064656372656173656420616c6c6f77616e63652062656c6f77604482015264207a65726f60d81b60648201526084015b60405180910390fd5b6103be82868684036105db565b60003361039981858561077a565b610520610929565b60055461041e9061010090046001600160a01b0316610418565b6001600160a01b03918216600090815260016020908152604080832093909416825291909152205490565b61056d610929565b6001600160a01b0381166105d25760405162461bcd60e51b815260206004820152602660248201527f4f776e61626c653a206e6577206f776e657220697320746865207a65726f206160448201526564647265737360d01b60648201526084016104f4565b61041e81610bdc565b6001600160a01b03831661063d5760405162461bcd60e51b8152602060048201526024808201527f45524332303a20617070726f76652066726f6d20746865207a65726f206164646044820152637265737360e01b60648201526084016104f4565b6001600160a01b03821661069e5760405162461bcd60e51b815260206004820152602260248201527f45524332303a20617070726f766520746f20746865207a65726f206164647265604482015261737360f01b60648201526084016104f4565b6001600160a01b0383811660008181526001602090815260408083209487168084529482529182902085905590518481527f8c5be1e5ebec7d5bd14f71427d1e84f3dd0314c0f7b2291e5b200ac8c7c3b92591015b60405180910390a3505050565b600061070c848461053a565b9050600019811461077457818110156107675760405162461bcd60e51b815260206004820152601d60248201527f45524332303a20696e73756666696369656e7420616c6c6f77616e636500000060448201526064016104f4565b61077484848484036105db565b50505050565b6001600160a01b0383166107de5760405162461bcd60e51b815260206004820152602560248201527f45524332303a207472616e736665722066726f6d20746865207a65726f206164604482015264647265737360d81b60648201526084016104f4565b6001600160a01b0382166108405760405162461bcd60e51b815260206004820152602360248201527f45524332303a207472616e7366657220746f20746865207a65726f206164647260448201526265737360e81b60648201526084016104f4565b61084b838383610c73565b6001600160a01b038316600090815260208190526040902054818110156108c35760405162461bcd60e51b815260206004820152602660248201527f45524332303a207472616e7366657220616d6f756e7420657863656564732062604482015265616c616e636560d01b60648201526084016104f4565b6001600160a01b03848116600081815260208181526040808320878703905593871680835291849020805487019055925185815290927fddf252ad1be2c89b69c2b068fc378daa952ba7f163c4a11628f55a4df523b3ef910160405180910390a3610774565b6005546001600160a01b036101009091041633146103fb5760405162461bcd60e51b815260206004820181905260248201527f4f776e61626c653a2063616c6c6572206973206e6f7420746865206f776e657260448201526064016104f4565b610991610c80565b6005805460ff191690557f5db9ee0a495bf2e6ff9c91a7834c1ba4fdd244a5e8aa4e537bd38aeae4b073aa335b6040516001600160a01b03909116815260200160405180910390a1565b6001600160a01b038216610a315760405162461bcd60e51b815260206004820152601f60248201527f45524332303a206d696e7420746f20746865207a65726f20616464726573730060448201526064016104f4565b610a3d60008383610c73565b8060026000828254610a4f9190610e87565b90915550506001600160a01b038216600081815260208181526040808320805486019055518481527fddf252ad1be2c89b69c2b068fc378daa952ba7f163c4a11628f55a4df523b3ef910160405180910390a35050565b6001600160a01b038216610b065760405162461bcd60e51b815260206004820152602160248201527f45524332303a206275726e2066726f6d20746865207a65726f206164647265736044820152607360f81b60648201526084016104f4565b610b1282600083610c73565b6001600160a01b03821660009081526020819052604090205481811015610b865760405162461bcd60e51b815260206004820152602260248201527f45524332303a206275726e20616d6f756e7420657863656564732062616c616e604482015261636560f01b60648201526084016104f4565b6001600160a01b0383166000818152602081815260408083208686039055600280548790039055518581529192917fddf252ad1be2c89b69c2b068fc378daa952ba7f163c4a11628f55a4df523b3ef91016106f3565b600580546001600160a01b03838116610100818102610100600160a81b031985161790945560405193909204169182907f8be0079c531659141344cd1fd0a4f28419497f9722a3daafe3b4186f6b6457e090600090a35050565b610c3e610cc9565b6005805460ff191660011790557f62e78cea01bee320cd4e420270b5ea74000d11b0c9f74754ebdbfc544b05a2586109be3390565b610c7b610cc9565b505050565b60055460ff166103fb5760405162461bcd60e51b815260206004820152601460248201527314185d5cd8589b194e881b9bdd081c185d5cd95960621b60448201526064016104f4565b60055460ff16156103fb5760405162461bcd60e51b815260206004820152601060248201526f14185d5cd8589b194e881c185d5cd95960821b60448201526064016104f4565b600060208083528351808285015260005b81811015610d3c57858101830151858201604001528201610d20565b506000604082860101526040601f19601f8301168501019250505092915050565b80356001600160a01b0381168114610d7457600080fd5b919050565b60008060408385031215610d8c57600080fd5b610d9583610d5d565b946020939093013593505050565b600080600060608486031215610db857600080fd5b610dc184610d5d565b9250610dcf60208501610d5d565b9150604084013590509250925092565b600060208284031215610df157600080fd5b5035919050565b600060208284031215610e0a57600080fd5b610e1382610d5d565b9392505050565b60008060408385031215610e2d57600080fd5b610e3683610d5d565b9150610e4460208401610d5d565b90509250929050565b600181811c90821680610e6157607f821691505b602082108103610e8157634e487b7160e01b600052602260045260246000fd5b50919050565b8082018082111561039f57634e487b7160e01b600052601160045260246000fdfea2646970667358221220fec4aae0bd5d3923a240e56ed0613ea317046ed641d519c52de8058ba6263d8164736f6c63430008130033",
					"opcodes": "PUSH1 0x80 PUSH1 0x40 MSTORE CALLVALUE DUP1 ISZERO PUSH3 0x11 JUMPI PUSH1 0x0 DUP1 REVERT JUMPDEST POP PUSH1 0x40 MLOAD DUP1 PUSH1 0x40 ADD PUSH1 0x40 MSTORE DUP1 PUSH1 0x7 DUP2 MSTORE PUSH1 0x20 ADD PUSH7 0x29B437A1B7B4B7 PUSH1 0xC9 SHL DUP2 MSTORE POP PUSH1 0x40 MLOAD DUP1 PUSH1 0x40 ADD PUSH1 0x40 MSTORE DUP1 PUSH1 0x4 DUP2 MSTORE PUSH1 0x20 ADD PUSH4 0x53484F43 PUSH1 0xE0 SHL DUP2 MSTORE POP DUP2 PUSH1 0x3 SWAP1 DUP2 PUSH3 0x60 SWAP2 SWAP1 PUSH3 0x18C JUMP JUMPDEST POP PUSH1 0x4 PUSH3 0x6F DUP3 DUP3 PUSH3 0x18C JUMP JUMPDEST POP POP PUSH1 0x5 DUP1 SLOAD PUSH1 0xFF NOT AND SWAP1 SSTORE POP PUSH3 0x87 CALLER PUSH3 0x8D JUMP JUMPDEST PUSH3 0x258 JUMP JUMPDEST PUSH1 0x5 DUP1 SLOAD PUSH1 0x1 PUSH1 0x1 PUSH1 0xA0 SHL SUB DUP4 DUP2 AND PUSH2 0x100 DUP2 DUP2 MUL PUSH2 0x100 PUSH1 0x1 PUSH1 0xA8 SHL SUB NOT DUP6 AND OR SWAP1 SWAP5 SSTORE PUSH1 0x40 MLOAD SWAP4 SWAP1 SWAP3 DIV AND SWAP2 DUP3 SWAP1 PUSH32 0x8BE0079C531659141344CD1FD0A4F28419497F9722A3DAAFE3B4186F6B6457E0 SWAP1 PUSH1 0x0 SWAP1 LOG3 POP POP JUMP JUMPDEST PUSH4 0x4E487B71 PUSH1 0xE0 SHL PUSH1 0x0 MSTORE PUSH1 0x41 PUSH1 0x4 MSTORE PUSH1 0x24 PUSH1 0x0 REVERT JUMPDEST PUSH1 0x1 DUP2 DUP2 SHR SWAP1 DUP3 AND DUP1 PUSH3 0x112 JUMPI PUSH1 0x7F DUP3 AND SWAP2 POP JUMPDEST PUSH1 0x20 DUP3 LT DUP2 SUB PUSH3 0x133 JUMPI PUSH4 0x4E487B71 PUSH1 0xE0 SHL PUSH1 0x0 MSTORE PUSH1 0x22 PUSH1 0x4 MSTORE PUSH1 0x24 PUSH1 0x0 REVERT JUMPDEST POP SWAP2 SWAP1 POP JUMP JUMPDEST PUSH1 0x1F DUP3 GT ISZERO PUSH3 0x187 JUMPI PUSH1 0x0 DUP2 DUP2 MSTORE PUSH1 0x20 DUP2 KECCAK256 PUSH1 0x1F DUP6 ADD PUSH1 0x5 SHR DUP2 ADD PUSH1 0x20 DUP7 LT ISZERO PUSH3 0x162 JUMPI POP DUP1 JUMPDEST PUSH1 0x1F DUP6 ADD PUSH1 0x5 SHR DUP3 ADD SWAP2 POP JUMPDEST DUP2 DUP2 LT ISZERO PUSH3 0x183 JUMPI DUP3 DUP2 SSTORE PUSH1 0x1 ADD PUSH3 0x16E JUMP JUMPDEST POP POP POP JUMPDEST POP POP POP JUMP JUMPDEST DUP2 MLOAD PUSH1 0x1 PUSH1 0x1 PUSH1 0x40 SHL SUB DUP2 GT ISZERO PUSH3 0x1A8 JUMPI PUSH3 0x1A8 PUSH3 0xE7 JUMP JUMPDEST PUSH3 0x1C0 DUP2 PUSH3 0x1B9 DUP5 SLOAD PUSH3 0xFD JUMP JUMPDEST DUP5 PUSH3 0x139 JUMP JUMPDEST PUSH1 0x20 DUP1 PUSH1 0x1F DUP4 GT PUSH1 0x1 DUP2 EQ PUSH3 0x1F8 JUMPI PUSH1 0x0 DUP5 ISZERO PUSH3 0x1DF JUMPI POP DUP6 DUP4 ADD MLOAD JUMPDEST PUSH1 0x0 NOT PUSH1 0x3 DUP7 SWAP1 SHL SHR NOT AND PUSH1 0x1 DUP6 SWAP1 SHL OR DUP6 SSTORE PUSH3 0x183 JUMP JUMPDEST PUSH1 0x0 DUP6 DUP2 MSTORE PUSH1 0x20 DUP2 KECCAK256 PUSH1 0x1F NOT DUP7 AND SWAP2 JUMPDEST DUP3 DUP2 LT ISZERO PUSH3 0x229 JUMPI DUP9 DUP7 ADD MLOAD DUP3 SSTORE SWAP5 DUP5 ADD SWAP5 PUSH1 0x1 SWAP1 SWAP2 ADD SWAP1 DUP5 ADD PUSH3 0x208 JUMP JUMPDEST POP DUP6 DUP3 LT ISZERO PUSH3 0x248 JUMPI DUP8 DUP6 ADD MLOAD PUSH1 0x0 NOT PUSH1 0x3 DUP9 SWAP1 SHL PUSH1 0xF8 AND SHR NOT AND DUP2 SSTORE JUMPDEST POP POP POP POP POP PUSH1 0x1 SWAP1 DUP2 SHL ADD SWAP1 SSTORE POP JUMP JUMPDEST PUSH2 0xEDE DUP1 PUSH3 0x268 PUSH1 0x0 CODECOPY PUSH1 0x0 RETURN INVALID PUSH1 0x80 PUSH1 0x40 MSTORE CALLVALUE DUP1 ISZERO PUSH2 0x10 JUMPI PUSH1 0x0 DUP1 REVERT JUMPDEST POP PUSH1 0x4 CALLDATASIZE LT PUSH2 0x142 JUMPI PUSH1 0x0 CALLDATALOAD PUSH1 0xE0 SHR DUP1 PUSH4 0x715018A6 GT PUSH2 0xB8 JUMPI DUP1 PUSH4 0xA0712D68 GT PUSH2 0x7C JUMPI DUP1 PUSH4 0xA0712D68 EQ PUSH2 0x287 JUMPI DUP1 PUSH4 0xA457C2D7 EQ PUSH2 0x29A JUMPI DUP1 PUSH4 0xA9059CBB EQ PUSH2 0x2AD JUMPI DUP1 PUSH4 0xC290D691 EQ PUSH2 0x2C0 JUMPI DUP1 PUSH4 0xDD62ED3E EQ PUSH2 0x2D3 JUMPI DUP1 PUSH4 0xF2FDE38B EQ PUSH2 0x2E6 JUMPI PUSH1 0x0 DUP1 REVERT JUMPDEST DUP1 PUSH4 0x715018A6 EQ PUSH2 0x233 JUMPI DUP1 PUSH4 0x79CC6790 EQ PUSH2 0x23B JUMPI DUP1 PUSH4 0x8456CB59 EQ PUSH2 0x24E JUMPI DUP1 PUSH4 0x8DA5CB5B EQ PUSH2 0x256 JUMPI DUP1 PUSH4 0x95D89B41 EQ PUSH2 0x27F JUMPI PUSH1 0x0 DUP1 REVERT JUMPDEST DUP1 PUSH4 0x39509351 GT PUSH2 0x10A JUMPI DUP1 PUSH4 0x39509351 EQ PUSH2 0x1BC JUMPI DUP1 PUSH4 0x3F4BA83A EQ PUSH2 0x1CF JUMPI DUP1 PUSH4 0x40C10F19 EQ PUSH2 0x1D9 JUMPI DUP1 PUSH4 0x42966C68 EQ PUSH2 0x1EC JUMPI DUP1 PUSH4 0x5C975ABB EQ PUSH2 0x1FF JUMPI DUP1 PUSH4 0x70A08231 EQ PUSH2 0x20A JUMPI PUSH1 0x0 DUP1 REVERT JUMPDEST DUP1 PUSH4 0x6FDDE03 EQ PUSH2 0x147 JUMPI DUP1 PUSH4 0x95EA7B3 EQ PUSH2 0x165 JUMPI DUP1 PUSH4 0x18160DDD EQ PUSH2 0x188 JUMPI DUP1 PUSH4 0x23B872DD EQ PUSH2 0x19A JUMPI DUP1 PUSH4 0x313CE567 EQ PUSH2 0x1AD JUMPI JUMPDEST PUSH1 0x0 DUP1 REVERT JUMPDEST PUSH2 0x14F PUSH2 0x2F9 JUMP JUMPDEST PUSH1 0x40 MLOAD PUSH2 0x15C SWAP2 SWAP1 PUSH2 0xD0F JUMP JUMPDEST PUSH1 0x40 MLOAD DUP1 SWAP2 SUB SWAP1 RETURN JUMPDEST PUSH2 0x178 PUSH2 0x173 CALLDATASIZE PUSH1 0x4 PUSH2 0xD79 JUMP JUMPDEST PUSH2 0x38B JUMP JUMPDEST PUSH1 0x40 MLOAD SWAP1 ISZERO ISZERO DUP2 MSTORE PUSH1 0x20 ADD PUSH2 0x15C JUMP JUMPDEST PUSH1 0x2 SLOAD JUMPDEST PUSH1 0x40 MLOAD SWAP1 DUP2 MSTORE PUSH1 0x20 ADD PUSH2 0x15C JUMP JUMPDEST PUSH2 0x178 PUSH2 0x1A8 CALLDATASIZE PUSH1 0x4 PUSH2 0xDA3 JUMP JUMPDEST PUSH2 0x3A5 JUMP JUMPDEST PUSH1 0x40 MLOAD PUSH1 0x12 DUP2 MSTORE PUSH1 0x20 ADD PUSH2 0x15C JUMP JUMPDEST PUSH2 0x178 PUSH2 0x1CA CALLDATASIZE PUSH1 0x4 PUSH2 0xD79 JUMP JUMPDEST PUSH2 0x3C9 JUMP JUMPDEST PUSH2 0x1D7 PUSH2 0x3EB JUMP JUMPDEST STOP JUMPDEST PUSH2 0x1D7 PUSH2 0x1E7 CALLDATASIZE PUSH1 0x4 PUSH2 0xD79 JUMP JUMPDEST PUSH2 0x3FD JUMP JUMPDEST PUSH2 0x1D7 PUSH2 0x1FA CALLDATASIZE PUSH1 0x4 PUSH2 0xDDF JUMP JUMPDEST PUSH2 0x413 JUMP JUMPDEST PUSH1 0x5 SLOAD PUSH1 0xFF AND PUSH2 0x178 JUMP JUMPDEST PUSH2 0x18C PUSH2 0x218 CALLDATASIZE PUSH1 0x4 PUSH2 0xDF8 JUMP JUMPDEST PUSH1 0x1 PUSH1 0x1 PUSH1 0xA0 SHL SUB AND PUSH1 0x0 SWAP1 DUP2 MSTORE PUSH1 0x20 DUP2 SWAP1 MSTORE PUSH1 0x40 SWAP1 KECCAK256 SLOAD SWAP1 JUMP JUMPDEST PUSH2 0x1D7 PUSH2 0x421 JUMP JUMPDEST PUSH2 0x1D7 PUSH2 0x249 CALLDATASIZE PUSH1 0x4 PUSH2 0xD79 JUMP JUMPDEST PUSH2 0x433 JUMP JUMPDEST PUSH2 0x1D7 PUSH2 0x448 JUMP JUMPDEST PUSH1 0x5 SLOAD PUSH2 0x100 SWAP1 DIV PUSH1 0x1 PUSH1 0x1 PUSH1 0xA0 SHL SUB AND PUSH1 0x40 MLOAD PUSH1 0x1 PUSH1 0x1 PUSH1 0xA0 SHL SUB SWAP1 SWAP2 AND DUP2 MSTORE PUSH1 0x20 ADD PUSH2 0x15C JUMP JUMPDEST PUSH2 0x14F PUSH2 0x458 JUMP JUMPDEST PUSH2 0x1D7 PUSH2 0x295 CALLDATASIZE PUSH1 0x4 PUSH2 0xDDF JUMP JUMPDEST PUSH2 0x467 JUMP JUMPDEST PUSH2 0x178 PUSH2 0x2A8 CALLDATASIZE PUSH1 0x4 PUSH2 0xD79 JUMP JUMPDEST PUSH2 0x48A JUMP JUMPDEST PUSH2 0x178 PUSH2 0x2BB CALLDATASIZE PUSH1 0x4 PUSH2 0xD79 JUMP JUMPDEST PUSH2 0x50A JUMP JUMPDEST PUSH2 0x1D7 PUSH2 0x2CE CALLDATASIZE PUSH1 0x4 PUSH2 0xDDF JUMP JUMPDEST PUSH2 0x518 JUMP JUMPDEST PUSH2 0x18C PUSH2 0x2E1 CALLDATASIZE PUSH1 0x4 PUSH2 0xE1A JUMP JUMPDEST PUSH2 0x53A JUMP JUMPDEST PUSH2 0x1D7 PUSH2 0x2F4 CALLDATASIZE PUSH1 0x4 PUSH2 0xDF8 JUMP JUMPDEST PUSH2 0x565 JUMP JUMPDEST PUSH1 0x60 PUSH1 0x3 DUP1 SLOAD PUSH2 0x308 SWAP1 PUSH2 0xE4D JUMP JUMPDEST DUP1 PUSH1 0x1F ADD PUSH1 0x20 DUP1 SWAP2 DIV MUL PUSH1 0x20 ADD PUSH1 0x40 MLOAD SWAP1 DUP2 ADD PUSH1 0x40 MSTORE DUP1 SWAP3 SWAP2 SWAP1 DUP2 DUP2 MSTORE PUSH1 0x20 ADD DUP3 DUP1 SLOAD PUSH2 0x334 SWAP1 PUSH2 0xE4D JUMP JUMPDEST DUP1 ISZERO PUSH2 0x381 JUMPI DUP1 PUSH1 0x1F LT PUSH2 0x356 JUMPI PUSH2 0x100 DUP1 DUP4 SLOAD DIV MUL DUP4 MSTORE SWAP2 PUSH1 0x20 ADD SWAP2 PUSH2 0x381 JUMP JUMPDEST DUP3 ADD SWAP2 SWAP1 PUSH1 0x0 MSTORE PUSH1 0x20 PUSH1 0x0 KECCAK256 SWAP1 JUMPDEST DUP2 SLOAD DUP2 MSTORE SWAP1 PUSH1 0x1 ADD SWAP1 PUSH1 0x20 ADD DUP1 DUP4 GT PUSH2 0x364 JUMPI DUP3 SWAP1 SUB PUSH1 0x1F AND DUP3 ADD SWAP2 JUMPDEST POP POP POP POP POP SWAP1 POP SWAP1 JUMP JUMPDEST PUSH1 0x0 CALLER PUSH2 0x399 DUP2 DUP6 DUP6 PUSH2 0x5DB JUMP JUMPDEST PUSH1 0x1 SWAP2 POP POP JUMPDEST SWAP3 SWAP2 POP POP JUMP JUMPDEST PUSH1 0x0 CALLER PUSH2 0x3B3 DUP6 DUP3 DUP6 PUSH2 0x700 JUMP JUMPDEST PUSH2 0x3BE DUP6 DUP6 DUP6 PUSH2 0x77A JUMP JUMPDEST POP PUSH1 0x1 SWAP5 SWAP4 POP POP POP POP JUMP JUMPDEST PUSH1 0x0 CALLER PUSH2 0x399 DUP2 DUP6 DUP6 PUSH2 0x3DC DUP4 DUP4 PUSH2 0x53A JUMP JUMPDEST PUSH2 0x3E6 SWAP2 SWAP1 PUSH2 0xE87 JUMP JUMPDEST PUSH2 0x5DB JUMP JUMPDEST PUSH2 0x3F3 PUSH2 0x929 JUMP JUMPDEST PUSH2 0x3FB PUSH2 0x989 JUMP JUMPDEST JUMP JUMPDEST PUSH2 0x405 PUSH2 0x929 JUMP JUMPDEST PUSH2 0x40F DUP3 DUP3 PUSH2 0x9DB JUMP JUMPDEST POP POP JUMP JUMPDEST PUSH2 0x41E CALLER JUMPDEST DUP3 PUSH2 0xAA6 JUMP JUMPDEST POP JUMP JUMPDEST PUSH2 0x429 PUSH2 0x929 JUMP JUMPDEST PUSH2 0x3FB PUSH1 0x0 PUSH2 0xBDC JUMP JUMPDEST PUSH2 0x43E DUP3 CALLER DUP4 PUSH2 0x700 JUMP JUMPDEST PUSH2 0x40F DUP3 DUP3 PUSH2 0xAA6 JUMP JUMPDEST PUSH2 0x450 PUSH2 0x929 JUMP JUMPDEST PUSH2 0x3FB PUSH2 0xC36 JUMP JUMPDEST PUSH1 0x60 PUSH1 0x4 DUP1 SLOAD PUSH2 0x308 SWAP1 PUSH2 0xE4D JUMP JUMPDEST PUSH2 0x46F PUSH2 0x929 JUMP JUMPDEST PUSH1 0x5 SLOAD PUSH2 0x41E SWAP1 PUSH2 0x100 SWAP1 DIV PUSH1 0x1 PUSH1 0x1 PUSH1 0xA0 SHL SUB AND DUP3 PUSH2 0x9DB JUMP JUMPDEST PUSH1 0x0 CALLER DUP2 PUSH2 0x498 DUP3 DUP7 PUSH2 0x53A JUMP JUMPDEST SWAP1 POP DUP4 DUP2 LT ISZERO PUSH2 0x4FD JUMPI PUSH1 0x40 MLOAD PUSH3 0x461BCD PUSH1 0xE5 SHL DUP2 MSTORE PUSH1 0x20 PUSH1 0x4 DUP3 ADD MSTORE PUSH1 0x25 PUSH1 0x24 DUP3 ADD MSTORE PUSH32 0x45524332303A2064656372656173656420616C6C6F77616E63652062656C6F77 PUSH1 0x44 DUP3 ADD MSTORE PUSH5 0x207A65726F PUSH1 0xD8 SHL PUSH1 0x64 DUP3 ADD MSTORE PUSH1 0x84 ADD JUMPDEST PUSH1 0x40 MLOAD DUP1 SWAP2 SUB SWAP1 REVERT JUMPDEST PUSH2 0x3BE DUP3 DUP7 DUP7 DUP5 SUB PUSH2 0x5DB JUMP JUMPDEST PUSH1 0x0 CALLER PUSH2 0x399 DUP2 DUP6 DUP6 PUSH2 0x77A JUMP JUMPDEST PUSH2 0x520 PUSH2 0x929 JUMP JUMPDEST PUSH1 0x5 SLOAD PUSH2 0x41E SWAP1 PUSH2 0x100 SWAP1 DIV PUSH1 0x1 PUSH1 0x1 PUSH1 0xA0 SHL SUB AND PUSH2 0x418 JUMP JUMPDEST PUSH1 0x1 PUSH1 0x1 PUSH1 0xA0 SHL SUB SWAP2 DUP3 AND PUSH1 0x0 SWAP1 DUP2 MSTORE PUSH1 0x1 PUSH1 0x20 SWAP1 DUP2 MSTORE PUSH1 0x40 DUP1 DUP4 KECCAK256 SWAP4 SWAP1 SWAP5 AND DUP3 MSTORE SWAP2 SWAP1 SWAP2 MSTORE KECCAK256 SLOAD SWAP1 JUMP JUMPDEST PUSH2 0x56D PUSH2 0x929 JUMP JUMPDEST PUSH1 0x1 PUSH1 0x1 PUSH1 0xA0 SHL SUB DUP2 AND PUSH2 0x5D2 JUMPI PUSH1 0x40 MLOAD PUSH3 0x461BCD PUSH1 0xE5 SHL DUP2 MSTORE PUSH1 0x20 PUSH1 0x4 DUP3 ADD MSTORE PUSH1 0x26 PUSH1 0x24 DUP3 ADD MSTORE PUSH32 0x4F776E61626C653A206E6577206F776E657220697320746865207A65726F2061 PUSH1 0x44 DUP3 ADD MSTORE PUSH6 0x646472657373 PUSH1 0xD0 SHL PUSH1 0x64 DUP3 ADD MSTORE PUSH1 0x84 ADD PUSH2 0x4F4 JUMP JUMPDEST PUSH2 0x41E DUP2 PUSH2 0xBDC JUMP JUMPDEST PUSH1 0x1 PUSH1 0x1 PUSH1 0xA0 SHL SUB DUP4 AND PUSH2 0x63D JUMPI PUSH1 0x40 MLOAD PUSH3 0x461BCD PUSH1 0xE5 SHL DUP2 MSTORE PUSH1 0x20 PUSH1 0x4 DUP3 ADD MSTORE PUSH1 0x24 DUP1 DUP3 ADD MSTORE PUSH32 0x45524332303A20617070726F76652066726F6D20746865207A65726F20616464 PUSH1 0x44 DUP3 ADD MSTORE PUSH4 0x72657373 PUSH1 0xE0 SHL PUSH1 0x64 DUP3 ADD MSTORE PUSH1 0x84 ADD PUSH2 0x4F4 JUMP JUMPDEST PUSH1 0x1 PUSH1 0x1 PUSH1 0xA0 SHL SUB DUP3 AND PUSH2 0x69E JUMPI PUSH1 0x40 MLOAD PUSH3 0x461BCD PUSH1 0xE5 SHL DUP2 MSTORE PUSH1 0x20 PUSH1 0x4 DUP3 ADD MSTORE PUSH1 0x22 PUSH1 0x24 DUP3 ADD MSTORE PUSH32 0x45524332303A20617070726F766520746F20746865207A65726F206164647265 PUSH1 0x44 DUP3 ADD MSTORE PUSH2 0x7373 PUSH1 0xF0 SHL PUSH1 0x64 DUP3 ADD MSTORE PUSH1 0x84 ADD PUSH2 0x4F4 JUMP JUMPDEST PUSH1 0x1 PUSH1 0x1 PUSH1 0xA0 SHL SUB DUP4 DUP2 AND PUSH1 0x0 DUP2 DUP2 MSTORE PUSH1 0x1 PUSH1 0x20 SWAP1 DUP2 MSTORE PUSH1 0x40 DUP1 DUP4 KECCAK256 SWAP5 DUP8 AND DUP1 DUP5 MSTORE SWAP5 DUP3 MSTORE SWAP2 DUP3 SWAP1 KECCAK256 DUP6 SWAP1 SSTORE SWAP1 MLOAD DUP5 DUP2 MSTORE PUSH32 0x8C5BE1E5EBEC7D5BD14F71427D1E84F3DD0314C0F7B2291E5B200AC8C7C3B925 SWAP2 ADD JUMPDEST PUSH1 0x40 MLOAD DUP1 SWAP2 SUB SWAP1 LOG3 POP POP POP JUMP JUMPDEST PUSH1 0x0 PUSH2 0x70C DUP5 DUP5 PUSH2 0x53A JUMP JUMPDEST SWAP1 POP PUSH1 0x0 NOT DUP2 EQ PUSH2 0x774 JUMPI DUP2 DUP2 LT ISZERO PUSH2 0x767 JUMPI PUSH1 0x40 MLOAD PUSH3 0x461BCD PUSH1 0xE5 SHL DUP2 MSTORE PUSH1 0x20 PUSH1 0x4 DUP3 ADD MSTORE PUSH1 0x1D PUSH1 0x24 DUP3 ADD MSTORE PUSH32 0x45524332303A20696E73756666696369656E7420616C6C6F77616E6365000000 PUSH1 0x44 DUP3 ADD MSTORE PUSH1 0x64 ADD PUSH2 0x4F4 JUMP JUMPDEST PUSH2 0x774 DUP5 DUP5 DUP5 DUP5 SUB PUSH2 0x5DB JUMP JUMPDEST POP POP POP POP JUMP JUMPDEST PUSH1 0x1 PUSH1 0x1 PUSH1 0xA0 SHL SUB DUP4 AND PUSH2 0x7DE JUMPI PUSH1 0x40 MLOAD PUSH3 0x461BCD PUSH1 0xE5 SHL DUP2 MSTORE PUSH1 0x20 PUSH1 0x4 DUP3 ADD MSTORE PUSH1 0x25 PUSH1 0x24 DUP3 ADD MSTORE PUSH32 0x45524332303A207472616E736665722066726F6D20746865207A65726F206164 PUSH1 0x44 DUP3 ADD MSTORE PUSH5 0x6472657373 PUSH1 0xD8 SHL PUSH1 0x64 DUP3 ADD MSTORE PUSH1 0x84 ADD PUSH2 0x4F4 JUMP JUMPDEST PUSH1 0x1 PUSH1 0x1 PUSH1 0xA0 SHL SUB DUP3 AND PUSH2 0x840 JUMPI PUSH1 0x40 MLOAD PUSH3 0x461BCD PUSH1 0xE5 SHL DUP2 MSTORE PUSH1 0x20 PUSH1 0x4 DUP3 ADD MSTORE PUSH1 0x23 PUSH1 0x24 DUP3 ADD MSTORE PUSH32 0x45524332303A207472616E7366657220746F20746865207A65726F2061646472 PUSH1 0x44 DUP3 ADD MSTORE PUSH3 0x657373 PUSH1 0xE8 SHL PUSH1 0x64 DUP3 ADD MSTORE PUSH1 0x84 ADD PUSH2 0x4F4 JUMP JUMPDEST PUSH2 0x84B DUP4 DUP4 DUP4 PUSH2 0xC73 JUMP JUMPDEST PUSH1 0x1 PUSH1 0x1 PUSH1 0xA0 SHL SUB DUP4 AND PUSH1 0x0 SWAP1 DUP2 MSTORE PUSH1 0x20 DUP2 SWAP1 MSTORE PUSH1 0x40 SWAP1 KECCAK256 SLOAD DUP2 DUP2 LT ISZERO PUSH2 0x8C3 JUMPI PUSH1 0x40 MLOAD PUSH3 0x461BCD PUSH1 0xE5 SHL DUP2 MSTORE PUSH1 0x20 PUSH1 0x4 DUP3 ADD MSTORE PUSH1 0x26 PUSH1 0x24 DUP3 ADD MSTORE PUSH32 0x45524332303A207472616E7366657220616D6F756E7420657863656564732062 PUSH1 0x44 DUP3 ADD MSTORE PUSH6 0x616C616E6365 PUSH1 0xD0 SHL PUSH1 0x64 DUP3 ADD MSTORE PUSH1 0x84 ADD PUSH2 0x4F4 JUMP JUMPDEST PUSH1 0x1 PUSH1 0x1 PUSH1 0xA0 SHL SUB DUP5 DUP2 AND PUSH1 0x0 DUP2 DUP2 MSTORE PUSH1 0x20 DUP2 DUP2 MSTORE PUSH1 0x40 DUP1 DUP4 KECCAK256 DUP8 DUP8 SUB SWAP1 SSTORE SWAP4 DUP8 AND DUP1 DUP4 MSTORE SWAP2 DUP5 SWAP1 KECCAK256 DUP1 SLOAD DUP8 ADD SWAP1 SSTORE SWAP3 MLOAD DUP6 DUP2 MSTORE SWAP1 SWAP3 PUSH32 0xDDF252AD1BE2C89B69C2B068FC378DAA952BA7F163C4A11628F55A4DF523B3EF SWAP2 ADD PUSH1 0x40 MLOAD DUP1 SWAP2 SUB SWAP1 LOG3 PUSH2 0x774 JUMP JUMPDEST PUSH1 0x5 SLOAD PUSH1 0x1 PUSH1 0x1 PUSH1 0xA0 SHL SUB PUSH2 0x100 SWAP1 SWAP2 DIV AND CALLER EQ PUSH2 0x3FB JUMPI PUSH1 0x40 MLOAD PUSH3 0x461BCD PUSH1 0xE5 SHL DUP2 MSTORE PUSH1 0x20 PUSH1 0x4 DUP3 ADD DUP2 SWAP1 MSTORE PUSH1 0x24 DUP3 ADD MSTORE PUSH32 0x4F776E61626C653A2063616C6C6572206973206E6F7420746865206F776E6572 PUSH1 0x44 DUP3 ADD MSTORE PUSH1 0x64 ADD PUSH2 0x4F4 JUMP JUMPDEST PUSH2 0x991 PUSH2 0xC80 JUMP JUMPDEST PUSH1 0x5 DUP1 SLOAD PUSH1 0xFF NOT AND SWAP1 SSTORE PUSH32 0x5DB9EE0A495BF2E6FF9C91A7834C1BA4FDD244A5E8AA4E537BD38AEAE4B073AA CALLER JUMPDEST PUSH1 0x40 MLOAD PUSH1 0x1 PUSH1 0x1 PUSH1 0xA0 SHL SUB SWAP1 SWAP2 AND DUP2 MSTORE PUSH1 0x20 ADD PUSH1 0x40 MLOAD DUP1 SWAP2 SUB SWAP1 LOG1 JUMP JUMPDEST PUSH1 0x1 PUSH1 0x1 PUSH1 0xA0 SHL SUB DUP3 AND PUSH2 0xA31 JUMPI PUSH1 0x40 MLOAD PUSH3 0x461BCD PUSH1 0xE5 SHL DUP2 MSTORE PUSH1 0x20 PUSH1 0x4 DUP3 ADD MSTORE PUSH1 0x1F PUSH1 0x24 DUP3 ADD MSTORE PUSH32 0x45524332303A206D696E7420746F20746865207A65726F206164647265737300 PUSH1 0x44 DUP3 ADD MSTORE PUSH1 0x64 ADD PUSH2 0x4F4 JUMP JUMPDEST PUSH2 0xA3D PUSH1 0x0 DUP4 DUP4 PUSH2 0xC73 JUMP JUMPDEST DUP1 PUSH1 0x2 PUSH1 0x0 DUP3 DUP3 SLOAD PUSH2 0xA4F SWAP2 SWAP1 PUSH2 0xE87 JUMP JUMPDEST SWAP1 SWAP2 SSTORE POP POP PUSH1 0x1 PUSH1 0x1 PUSH1 0xA0 SHL SUB DUP3 AND PUSH1 0x0 DUP2 DUP2 MSTORE PUSH1 0x20 DUP2 DUP2 MSTORE PUSH1 0x40 DUP1 DUP4 KECCAK256 DUP1 SLOAD DUP7 ADD SWAP1 SSTORE MLOAD DUP5 DUP2 MSTORE PUSH32 0xDDF252AD1BE2C89B69C2B068FC378DAA952BA7F163C4A11628F55A4DF523B3EF SWAP2 ADD PUSH1 0x40 MLOAD DUP1 SWAP2 SUB SWAP1 LOG3 POP POP JUMP JUMPDEST PUSH1 0x1 PUSH1 0x1 PUSH1 0xA0 SHL SUB DUP3 AND PUSH2 0xB06 JUMPI PUSH1 0x40 MLOAD PUSH3 0x461BCD PUSH1 0xE5 SHL DUP2 MSTORE PUSH1 0x20 PUSH1 0x4 DUP3 ADD MSTORE PUSH1 0x21 PUSH1 0x24 DUP3 ADD MSTORE PUSH32 0x45524332303A206275726E2066726F6D20746865207A65726F20616464726573 PUSH1 0x44 DUP3 ADD MSTORE PUSH1 0x73 PUSH1 0xF8 SHL PUSH1 0x64 DUP3 ADD MSTORE PUSH1 0x84 ADD PUSH2 0x4F4 JUMP JUMPDEST PUSH2 0xB12 DUP3 PUSH1 0x0 DUP4 PUSH2 0xC73 JUMP JUMPDEST PUSH1 0x1 PUSH1 0x1 PUSH1 0xA0 SHL SUB DUP3 AND PUSH1 0x0 SWAP1 DUP2 MSTORE PUSH1 0x20 DUP2 SWAP1 MSTORE PUSH1 0x40 SWAP1 KECCAK256 SLOAD DUP2 DUP2 LT ISZERO PUSH2 0xB86 JUMPI PUSH1 0x40 MLOAD PUSH3 0x461BCD PUSH1 0xE5 SHL DUP2 MSTORE PUSH1 0x20 PUSH1 0x4 DUP3 ADD MSTORE PUSH1 0x22 PUSH1 0x24 DUP3 ADD MSTORE PUSH32 0x45524332303A206275726E20616D6F756E7420657863656564732062616C616E PUSH1 0x44 DUP3 ADD MSTORE PUSH2 0x6365 PUSH1 0xF0 SHL PUSH1 0x64 DUP3 ADD MSTORE PUSH1 0x84 ADD PUSH2 0x4F4 JUMP JUMPDEST PUSH1 0x1 PUSH1 0x1 PUSH1 0xA0 SHL SUB DUP4 AND PUSH1 0x0 DUP2 DUP2 MSTORE PUSH1 0x20 DUP2 DUP2 MSTORE PUSH1 0x40 DUP1 DUP4 KECCAK256 DUP7 DUP7 SUB SWAP1 SSTORE PUSH1 0x2 DUP1 SLOAD DUP8 SWAP1 SUB SWAP1 SSTORE MLOAD DUP6 DUP2 MSTORE SWAP2 SWAP3 SWAP2 PUSH32 0xDDF252AD1BE2C89B69C2B068FC378DAA952BA7F163C4A11628F55A4DF523B3EF SWAP2 ADD PUSH2 0x6F3 JUMP JUMPDEST PUSH1 0x5 DUP1 SLOAD PUSH1 0x1 PUSH1 0x1 PUSH1 0xA0 SHL SUB DUP4 DUP2 AND PUSH2 0x100 DUP2 DUP2 MUL PUSH2 0x100 PUSH1 0x1 PUSH1 0xA8 SHL SUB NOT DUP6 AND OR SWAP1 SWAP5 SSTORE PUSH1 0x40 MLOAD SWAP4 SWAP1 SWAP3 DIV AND SWAP2 DUP3 SWAP1 PUSH32 0x8BE0079C531659141344CD1FD0A4F28419497F9722A3DAAFE3B4186F6B6457E0 SWAP1 PUSH1 0x0 SWAP1 LOG3 POP POP JUMP JUMPDEST PUSH2 0xC3E PUSH2 0xCC9 JUMP JUMPDEST PUSH1 0x5 DUP1 SLOAD PUSH1 0xFF NOT AND PUSH1 0x1 OR SWAP1 SSTORE PUSH32 0x62E78CEA01BEE320CD4E420270B5EA74000D11B0C9F74754EBDBFC544B05A258 PUSH2 0x9BE CALLER SWAP1 JUMP JUMPDEST PUSH2 0xC7B PUSH2 0xCC9 JUMP JUMPDEST POP POP POP JUMP JUMPDEST PUSH1 0x5 SLOAD PUSH1 0xFF AND PUSH2 0x3FB JUMPI PUSH1 0x40 MLOAD PUSH3 0x461BCD PUSH1 0xE5 SHL DUP2 MSTORE PUSH1 0x20 PUSH1 0x4 DUP3 ADD MSTORE PUSH1 0x14 PUSH1 0x24 DUP3 ADD MSTORE PUSH20 0x14185D5CD8589B194E881B9BDD081C185D5CD959 PUSH1 0x62 SHL PUSH1 0x44 DUP3 ADD MSTORE PUSH1 0x64 ADD PUSH2 0x4F4 JUMP JUMPDEST PUSH1 0x5 SLOAD PUSH1 0xFF AND ISZERO PUSH2 0x3FB JUMPI PUSH1 0x40 MLOAD PUSH3 0x461BCD PUSH1 0xE5 SHL DUP2 MSTORE PUSH1 0x20 PUSH1 0x4 DUP3 ADD MSTORE PUSH1 0x10 PUSH1 0x24 DUP3 ADD MSTORE PUSH16 0x14185D5CD8589B194E881C185D5CD959 PUSH1 0x82 SHL PUSH1 0x44 DUP3 ADD MSTORE PUSH1 0x64 ADD PUSH2 0x4F4 JUMP JUMPDEST PUSH1 0x0 PUSH1 0x20 DUP1 DUP4 MSTORE DUP4 MLOAD DUP1 DUP3 DUP6 ADD MSTORE PUSH1 0x0 JUMPDEST DUP2 DUP2 LT ISZERO PUSH2 0xD3C JUMPI DUP6 DUP2 ADD DUP4 ADD MLOAD DUP6 DUP3 ADD PUSH1 0x40 ADD MSTORE DUP3 ADD PUSH2 0xD20 JUMP JUMPDEST POP PUSH1 0x0 PUSH1 0x40 DUP3 DUP7 ADD ADD MSTORE PUSH1 0x40 PUSH1 0x1F NOT PUSH1 0x1F DUP4 ADD AND DUP6 ADD ADD SWAP3 POP POP POP SWAP3 SWAP2 POP POP JUMP JUMPDEST DUP1 CALLDATALOAD PUSH1 0x1 PUSH1 0x1 PUSH1 0xA0 SHL SUB DUP2 AND DUP2 EQ PUSH2 0xD74 JUMPI PUSH1 0x0 DUP1 REVERT JUMPDEST SWAP2 SWAP1 POP JUMP JUMPDEST PUSH1 0x0 DUP1 PUSH1 0x40 DUP4 DUP6 SUB SLT ISZERO PUSH2 0xD8C JUMPI PUSH1 0x0 DUP1 REVERT JUMPDEST PUSH2 0xD95 DUP4 PUSH2 0xD5D JUMP JUMPDEST SWAP5 PUSH1 0x20 SWAP4 SWAP1 SWAP4 ADD CALLDATALOAD SWAP4 POP POP POP JUMP JUMPDEST PUSH1 0x0 DUP1 PUSH1 0x0 PUSH1 0x60 DUP5 DUP7 SUB SLT ISZERO PUSH2 0xDB8 JUMPI PUSH1 0x0 DUP1 REVERT JUMPDEST PUSH2 0xDC1 DUP5 PUSH2 0xD5D JUMP JUMPDEST SWAP3 POP PUSH2 0xDCF PUSH1 0x20 DUP6 ADD PUSH2 0xD5D JUMP JUMPDEST SWAP2 POP PUSH1 0x40 DUP5 ADD CALLDATALOAD SWAP1 POP SWAP3 POP SWAP3 POP SWAP3 JUMP JUMPDEST PUSH1 0x0 PUSH1 0x20 DUP3 DUP5 SUB SLT ISZERO PUSH2 0xDF1 JUMPI PUSH1 0x0 DUP1 REVERT JUMPDEST POP CALLDATALOAD SWAP2 SWAP1 POP JUMP JUMPDEST PUSH1 0x0 PUSH1 0x20 DUP3 DUP5 SUB SLT ISZERO PUSH2 0xE0A JUMPI PUSH1 0x0 DUP1 REVERT JUMPDEST PUSH2 0xE13 DUP3 PUSH2 0xD5D JUMP JUMPDEST SWAP4 SWAP3 POP POP POP JUMP JUMPDEST PUSH1 0x0 DUP1 PUSH1 0x40 DUP4 DUP6 SUB SLT ISZERO PUSH2 0xE2D JUMPI PUSH1 0x0 DUP1 REVERT JUMPDEST PUSH2 0xE36 DUP4 PUSH2 0xD5D JUMP JUMPDEST SWAP2 POP PUSH2 0xE44 PUSH1 0x20 DUP5 ADD PUSH2 0xD5D JUMP JUMPDEST SWAP1 POP SWAP3 POP SWAP3 SWAP1 POP JUMP JUMPDEST PUSH1 0x1 DUP2 DUP2 SHR SWAP1 DUP3 AND DUP1 PUSH2 0xE61 JUMPI PUSH1 0x7F DUP3 AND SWAP2 POP JUMPDEST PUSH1 0x20 DUP3 LT DUP2 SUB PUSH2 0xE81 JUMPI PUSH4 0x4E487B71 PUSH1 0xE0 SHL PUSH1 0x0 MSTORE PUSH1 0x22 PUSH1 0x4 MSTORE PUSH1 0x24 PUSH1 0x0 REVERT JUMPDEST POP SWAP2 SWAP1 POP JUMP JUMPDEST DUP1 DUP3 ADD DUP1 DUP3 GT ISZERO PUSH2 0x39F JUMPI PUSH4 0x4E487B71 PUSH1 0xE0 SHL PUSH1 0x0 MSTORE PUSH1 0x11 PUSH1 0x4 MSTORE PUSH1 0x24 PUSH1 0x0 REVERT INVALID LOG2 PUSH5 0x6970667358 0x22 SLT KECCAK256 INVALID 0xC4 0xAA 0xE0 0xBD 0x5D CODECOPY 0x23 LOG2 BLOCKHASH 0xE5 PUSH15 0xD0613EA317046ED641D519C52DE805 DUP12 0xA6 0x26 RETURNDATASIZE DUP2 PUSH5 0x736F6C6343 STOP ADDMOD SGT STOP CALLER "
				},
				"gasEstimates": {
					"creation": {
						"codeDepositCost": "761200",
						"executionCost": "infinite",
						"totalCost": "infinite"
					},
					"external": {
						"allowance(address,address)": "infinite",
						"approve(address,uint256)": "24652",
						"balanceOf(address)": "2673",
						"burn(uint256)": "53039",
						"burnFrom(address,uint256)": "infinite",
						"decimals()": "289",
						"decreaseAllowance(address,uint256)": "26995",
						"increaseAllowance(address,uint256)": "infinite",
						"mint(address,uint256)": "infinite",
						"mint(uint256)": "infinite",
						"name()": "infinite",
						"owner()": "2419",
						"pause()": "infinite",
						"paused()": "2415",
						"pay(uint256)": "infinite",
						"renounceOwnership()": "infinite",
						"symbol()": "infinite",
						"totalSupply()": "2349",
						"transfer(address,uint256)": "53305",
						"transferFrom(address,address,uint256)": "infinite",
						"transferOwnership(address)": "28501",
						"unpause()": "infinite"
					},
					"internal": {
						"_beforeTokenTransfer(address,address,uint256)": "infinite"
					}
				},
				"methodIdentifiers": {
					"allowance(address,address)": "dd62ed3e",
					"approve(address,uint256)": "095ea7b3",
					"balanceOf(address)": "70a08231",
					"burn(uint256)": "42966c68",
					"burnFrom(address,uint256)": "79cc6790",
					"decimals()": "313ce567",
					"decreaseAllowance(address,uint256)": "a457c2d7",
					"increaseAllowance(address,uint256)": "39509351",
					"mint(address,uint256)": "40c10f19",
					"mint(uint256)": "a0712d68",
					"name()": "06fdde03",
					"owner()": "8da5cb5b",
					"pause()": "8456cb59",
					"paused()": "5c975abb",
					"pay(uint256)": "c290d691",
					"renounceOwnership()": "715018a6",
					"symbol()": "95d89b41",
					"totalSupply()": "18160ddd",
					"transfer(address,uint256)": "a9059cbb",
					"transferFrom(address,address,uint256)": "23b872dd",
					"transferOwnership(address)": "f2fde38b",
					"unpause()": "3f4ba83a"
				}
			},
			"storageLayout": {
				"storage": [
					{
						"astId": 364,
						"contract": "contracts/coins/ShoCoin.sol_flattened.sol:ShoCoin",
						"label": "_balances",
						"offset": 0,
						"slot": "0",
						"type": "t_mapping(t_address,t_uint256)"
					},
					{
						"astId": 370,
						"contract": "contracts/coins/ShoCoin.sol_flattened.sol:ShoCoin",
						"label": "_allowances",
						"offset": 0,
						"slot": "1",
						"type": "t_mapping(t_address,t_mapping(t_address,t_uint256))"
					},
					{
						"astId": 372,
						"contract": "contracts/coins/ShoCoin.sol_flattened.sol:ShoCoin",
						"label": "_totalSupply",
						"offset": 0,
						"slot": "2",
						"type": "t_uint256"
					},
					{
						"astId": 374,
						"contract": "contracts/coins/ShoCoin.sol_flattened.sol:ShoCoin",
						"label": "_name",
						"offset": 0,
						"slot": "3",
						"type": "t_string_storage"
					},
					{
						"astId": 376,
						"contract": "contracts/coins/ShoCoin.sol_flattened.sol:ShoCoin",
						"label": "_symbol",
						"offset": 0,
						"slot": "4",
						"type": "t_string_storage"
					},
					{
						"astId": 162,
						"contract": "contracts/coins/ShoCoin.sol_flattened.sol:ShoCoin",
						"label": "_paused",
						"offset": 0,
						"slot": "5",
						"type": "t_bool"
					},
					{
						"astId": 41,
						"contract": "contracts/coins/ShoCoin.sol_flattened.sol:ShoCoin",
						"label": "_owner",
						"offset": 1,
						"slot": "5",
						"type": "t_address"
					}
				],
				"types": {
					"t_address": {
						"encoding": "inplace",
						"label": "address",
						"numberOfBytes": "20"
					},
					"t_bool": {
						"encoding": "inplace",
						"label": "bool",
						"numberOfBytes": "1"
					},
					"t_mapping(t_address,t_mapping(t_address,t_uint256))": {
						"encoding": "mapping",
						"key": "t_address",
						"label": "mapping(address => mapping(address => uint256))",
						"numberOfBytes": "32",
						"value": "t_mapping(t_address,t_uint256)"
					},
					"t_mapping(t_address,t_uint256)": {
						"encoding": "mapping",
						"key": "t_address",
						"label": "mapping(address => uint256)",
						"numberOfBytes": "32",
						"value": "t_uint256"
					},
					"t_string_storage": {
						"encoding": "bytes",
						"label": "string",
						"numberOfBytes": "32"
					},
					"t_uint256": {
						"encoding": "inplace",
						"label": "uint256",
						"numberOfBytes": "32"
					}
				}
			},
			"userdoc": {
				"kind": "user",
				"methods": {
					"mint(uint256)": {
						"notice": "mint coins"
					},
					"pay(uint256)": {
						"notice": "burn coins"
					}
				},
				"version": 1
			}
		}
	}
}