{
	"contracts/coins/Coin.sol": {
		"Coin": {
			"abi": [
				{
					"inputs": [],
					"stateMutability": "nonpayable",
					"type": "constructor"
				},
				{
					"anonymous": false,
					"inputs": [
						{
							"indexed": true,
							"internalType": "address",
							"name": "owner",
							"type": "address"
						},
						{
							"indexed": true,
							"internalType": "address",
							"name": "spender",
							"type": "address"
						},
						{
							"indexed": false,
							"internalType": "uint256",
							"name": "value",
							"type": "uint256"
						}
					],
					"name": "Approval",
					"type": "event"
				},
				{
					"anonymous": false,
					"inputs": [
						{
							"indexed": true,
							"internalType": "address",
							"name": "previousOwner",
							"type": "address"
						},
						{
							"indexed": true,
							"internalType": "address",
							"name": "newOwner",
							"type": "address"
						}
					],
					"name": "OwnershipTransferred",
					"type": "event"
				},
				{
					"anonymous": false,
					"inputs": [
						{
							"indexed": true,
							"internalType": "address",
							"name": "from",
							"type": "address"
						},
						{
							"indexed": true,
							"internalType": "address",
							"name": "to",
							"type": "address"
						},
						{
							"indexed": false,
							"internalType": "uint256",
							"name": "value",
							"type": "uint256"
						}
					],
					"name": "Transfer",
					"type": "event"
				},
				{
					"inputs": [
						{
							"internalType": "address",
							"name": "payer",
							"type": "address"
						}
					],
					"name": "addPayer",
					"outputs": [],
					"stateMutability": "nonpayable",
					"type": "function"
				},
				{
					"inputs": [
						{
							"internalType": "address",
							"name": "owner",
							"type": "address"
						},
						{
							"internalType": "address",
							"name": "spender",
							"type": "address"
						}
					],
					"name": "allowance",
					"outputs": [
						{
							"internalType": "uint256",
							"name": "",
							"type": "uint256"
						}
					],
					"stateMutability": "view",
					"type": "function"
				},
				{
					"inputs": [
						{
							"internalType": "address",
							"name": "spender",
							"type": "address"
						},
						{
							"internalType": "uint256",
							"name": "amount",
							"type": "uint256"
						}
					],
					"name": "approve",
					"outputs": [
						{
							"internalType": "bool",
							"name": "",
							"type": "bool"
						}
					],
					"stateMutability": "nonpayable",
					"type": "function"
				},
				{
					"inputs": [
						{
							"internalType": "address",
							"name": "account",
							"type": "address"
						}
					],
					"name": "balanceOf",
					"outputs": [
						{
							"internalType": "uint256",
							"name": "",
							"type": "uint256"
						}
					],
					"stateMutability": "view",
					"type": "function"
				},
				{
					"inputs": [],
					"name": "decimals",
					"outputs": [
						{
							"internalType": "uint8",
							"name": "",
							"type": "uint8"
						}
					],
					"stateMutability": "view",
					"type": "function"
				},
				{
					"inputs": [
						{
							"internalType": "address",
							"name": "spender",
							"type": "address"
						},
						{
							"internalType": "uint256",
							"name": "subtractedValue",
							"type": "uint256"
						}
					],
					"name": "decreaseAllowance",
					"outputs": [
						{
							"internalType": "bool",
							"name": "",
							"type": "bool"
						}
					],
					"stateMutability": "nonpayable",
					"type": "function"
				},
				{
					"inputs": [],
					"name": "getPayers",
					"outputs": [
						{
							"internalType": "address[]",
							"name": "",
							"type": "address[]"
						}
					],
					"stateMutability": "view",
					"type": "function"
				},
				{
					"inputs": [
						{
							"internalType": "address",
							"name": "spender",
							"type": "address"
						},
						{
							"internalType": "uint256",
							"name": "addedValue",
							"type": "uint256"
						}
					],
					"name": "increaseAllowance",
					"outputs": [
						{
							"internalType": "bool",
							"name": "",
							"type": "bool"
						}
					],
					"stateMutability": "nonpayable",
					"type": "function"
				},
				{
					"inputs": [
						{
							"internalType": "uint256",
							"name": "amount",
							"type": "uint256"
						}
					],
					"name": "mint",
					"outputs": [],
					"stateMutability": "nonpayable",
					"type": "function"
				},
				{
					"inputs": [],
					"name": "name",
					"outputs": [
						{
							"internalType": "string",
							"name": "",
							"type": "string"
						}
					],
					"stateMutability": "view",
					"type": "function"
				},
				{
					"inputs": [],
					"name": "owner",
					"outputs": [
						{
							"internalType": "address",
							"name": "",
							"type": "address"
						}
					],
					"stateMutability": "view",
					"type": "function"
				},
				{
					"inputs": [
						{
							"internalType": "uint256",
							"name": "amount",
							"type": "uint256"
						}
					],
					"name": "pay",
					"outputs": [],
					"stateMutability": "nonpayable",
					"type": "function"
				},
				{
					"inputs": [
						{
							"internalType": "address",
							"name": "payer",
							"type": "address"
						}
					],
					"name": "removePayer",
					"outputs": [],
					"stateMutability": "nonpayable",
					"type": "function"
				},
				{
					"inputs": [],
					"name": "renounceOwnership",
					"outputs": [],
					"stateMutability": "nonpayable",
					"type": "function"
				},
				{
					"inputs": [],
					"name": "symbol",
					"outputs": [
						{
							"internalType": "string",
							"name": "",
							"type": "string"
						}
					],
					"stateMutability": "view",
					"type": "function"
				},
				{
					"inputs": [],
					"name": "totalSupply",
					"outputs": [
						{
							"internalType": "uint256",
							"name": "",
							"type": "uint256"
						}
					],
					"stateMutability": "view",
					"type": "function"
				},
				{
					"inputs": [
						{
							"internalType": "address",
							"name": "to",
							"type": "address"
						},
						{
							"internalType": "uint256",
							"name": "amount",
							"type": "uint256"
						}
					],
					"name": "transfer",
					"outputs": [
						{
							"internalType": "bool",
							"name": "",
							"type": "bool"
						}
					],
					"stateMutability": "nonpayable",
					"type": "function"
				},
				{
					"inputs": [
						{
							"internalType": "address",
							"name": "from",
							"type": "address"
						},
						{
							"internalType": "address",
							"name": "to",
							"type": "address"
						},
						{
							"internalType": "uint256",
							"name": "amount",
							"type": "uint256"
						}
					],
					"name": "transferFrom",
					"outputs": [
						{
							"internalType": "bool",
							"name": "",
							"type": "bool"
						}
					],
					"stateMutability": "nonpayable",
					"type": "function"
				},
				{
					"inputs": [
						{
							"internalType": "address",
							"name": "newOwner",
							"type": "address"
						}
					],
					"name": "transferOwnership",
					"outputs": [],
					"stateMutability": "nonpayable",
					"type": "function"
				}
			],
			"devdoc": {
				"events": {
					"Approval(address,address,uint256)": {
						"details": "Emitted when the allowance of a `spender` for an `owner` is set by a call to {approve}. `value` is the new allowance."
					},
					"Transfer(address,address,uint256)": {
						"details": "Emitted when `value` tokens are moved from one account (`from`) to another (`to`). Note that `value` may be zero."
					}
				},
				"kind": "dev",
				"methods": {
					"allowance(address,address)": {
						"details": "See {IERC20-allowance}."
					},
					"approve(address,uint256)": {
						"details": "See {IERC20-approve}. NOTE: If `amount` is the maximum `uint256`, the allowance is not updated on `transferFrom`. This is semantically equivalent to an infinite approval. Requirements: - `spender` cannot be the zero address."
					},
					"balanceOf(address)": {
						"details": "See {IERC20-balanceOf}."
					},
					"decimals()": {
						"details": "Returns the number of decimals used to get its user representation. For example, if `decimals` equals `2`, a balance of `505` tokens should be displayed to a user as `5.05` (`505 / 10 ** 2`). Tokens usually opt for a value of 18, imitating the relationship between Ether and Wei. This is the value {ERC20} uses, unless this function is overridden; NOTE: This information is only used for _display_ purposes: it in no way affects any of the arithmetic of the contract, including {IERC20-balanceOf} and {IERC20-transfer}."
					},
					"decreaseAllowance(address,uint256)": {
						"details": "Atomically decreases the allowance granted to `spender` by the caller. This is an alternative to {approve} that can be used as a mitigation for problems described in {IERC20-approve}. Emits an {Approval} event indicating the updated allowance. Requirements: - `spender` cannot be the zero address. - `spender` must have allowance for the caller of at least `subtractedValue`."
					},
					"increaseAllowance(address,uint256)": {
						"details": "Atomically increases the allowance granted to `spender` by the caller. This is an alternative to {approve} that can be used as a mitigation for problems described in {IERC20-approve}. Emits an {Approval} event indicating the updated allowance. Requirements: - `spender` cannot be the zero address."
					},
					"name()": {
						"details": "Returns the name of the token."
					},
					"owner()": {
						"details": "Returns the address of the current owner."
					},
					"renounceOwnership()": {
						"details": "Leaves the contract without owner. It will not be possible to call `onlyOwner` functions anymore. Can only be called by the current owner. NOTE: Renouncing ownership will leave the contract without an owner, thereby removing any functionality that is only available to the owner."
					},
					"symbol()": {
						"details": "Returns the symbol of the token, usually a shorter version of the name."
					},
					"totalSupply()": {
						"details": "See {IERC20-totalSupply}."
					},
					"transfer(address,uint256)": {
						"details": "See {IERC20-transfer}. Requirements: - `to` cannot be the zero address. - the caller must have a balance of at least `amount`."
					},
					"transferFrom(address,address,uint256)": {
						"details": "See {IERC20-transferFrom}. Emits an {Approval} event indicating the updated allowance. This is not required by the EIP. See the note at the beginning of {ERC20}. NOTE: Does not update the allowance if the current allowance is the maximum `uint256`. Requirements: - `from` and `to` cannot be the zero address. - `from` must have a balance of at least `amount`. - the caller must have allowance for ``from``'s tokens of at least `amount`."
					},
					"transferOwnership(address)": {
						"details": "Transfers ownership of the contract to a new account (`newOwner`). Can only be called by the current owner."
					}
				},
				"version": 1
			},
			"evm": {
				"assembly": "    /* \"contracts/coins/Coin.sol\":206:1529  contract Coin is ERC20, Ownable, ICoin {... */\n  mstore(0x40, 0x80)\n    /* \"contracts/coins/Coin.sol\":640:773  constructor() ERC20(\"ShoCoin\", \"SHOC\") {... */\n  callvalue\n  dup1\n  iszero\n  tag_1\n  jumpi\n  0x00\n  dup1\n  revert\ntag_1:\n  pop\n    /* \"@openzeppelin/contracts/token/ERC20/ERC20.sol\":1976:2089  constructor(string memory name_, string memory symbol_) {... */\n  mload(0x40)\n  dup1\n  0x40\n  add\n  0x40\n  mstore\n  dup1\n  0x07\n  dup2\n  mstore\n  0x20\n  add\n  0x53686f436f696e00000000000000000000000000000000000000000000000000\n  dup2\n  mstore\n  pop\n  mload(0x40)\n  dup1\n  0x40\n  add\n  0x40\n  mstore\n  dup1\n  0x04\n  dup2\n  mstore\n  0x20\n  add\n  0x53484f4300000000000000000000000000000000000000000000000000000000\n  dup2\n  mstore\n  pop\n    /* \"@openzeppelin/contracts/token/ERC20/ERC20.sol\":2050:2055  name_ */\n  dup2\n    /* \"@openzeppelin/contracts/token/ERC20/ERC20.sol\":2042:2047  _name */\n  0x03\n    /* \"@openzeppelin/contracts/token/ERC20/ERC20.sol\":2042:2055  _name = name_ */\n  swap1\n  dup2\n  tag_6\n  swap2\n  swap1\n  tag_7\n  jump\t// in\ntag_6:\n  pop\n    /* \"@openzeppelin/contracts/token/ERC20/ERC20.sol\":2075:2082  symbol_ */\n  dup1\n    /* \"@openzeppelin/contracts/token/ERC20/ERC20.sol\":2065:2072  _symbol */\n  0x04\n    /* \"@openzeppelin/contracts/token/ERC20/ERC20.sol\":2065:2082  _symbol = symbol_ */\n  swap1\n  dup2\n  tag_8\n  swap2\n  swap1\n  tag_7\n  jump\t// in\ntag_8:\n  pop\n    /* \"@openzeppelin/contracts/token/ERC20/ERC20.sol\":1976:2089  constructor(string memory name_, string memory symbol_) {... */\n  pop\n  pop\n    /* \"@openzeppelin/contracts/access/Ownable.sol\":936:968  _transferOwnership(_msgSender()) */\n  tag_10\n    /* \"@openzeppelin/contracts/access/Ownable.sol\":955:967  _msgSender() */\n  tag_11\n    /* \"@openzeppelin/contracts/access/Ownable.sol\":955:965  _msgSender */\n  shl(0x20, tag_12)\n    /* \"@openzeppelin/contracts/access/Ownable.sol\":955:967  _msgSender() */\n  0x20\n  shr\n  jump\t// in\ntag_11:\n    /* \"@openzeppelin/contracts/access/Ownable.sol\":936:954  _transferOwnership */\n  shl(0x20, tag_13)\n    /* \"@openzeppelin/contracts/access/Ownable.sol\":936:968  _transferOwnership(_msgSender()) */\n  0x20\n  shr\n  jump\t// in\ntag_10:\n    /* \"contracts/coins/Coin.sol\":745:752  _payers */\n  0x06\n    /* \"contracts/coins/Coin.sol\":758:765  owner() */\n  tag_15\n    /* \"contracts/coins/Coin.sol\":758:763  owner */\n  shl(0x20, tag_16)\n    /* \"contracts/coins/Coin.sol\":758:765  owner() */\n  0x20\n  shr\n  jump\t// in\ntag_15:\n    /* \"contracts/coins/Coin.sol\":745:766  _payers.push(owner()) */\n  swap1\n  dup1\n  0x01\n  dup2\n  sload\n  add\n  dup1\n  dup3\n  sstore\n  dup1\n  swap2\n  pop\n  pop\n  0x01\n  swap1\n  sub\n  swap1\n  0x00\n  mstore\n  keccak256(0x00, 0x20)\n  add\n  0x00\n  swap1\n  swap2\n  swap1\n  swap2\n  swap1\n  swap2\n  0x0100\n  exp\n  dup2\n  sload\n  dup2\n  0xffffffffffffffffffffffffffffffffffffffff\n  mul\n  not\n  and\n  swap1\n  dup4\n  0xffffffffffffffffffffffffffffffffffffffff\n  and\n  mul\n  or\n  swap1\n  sstore\n  pop\n    /* \"contracts/coins/Coin.sol\":206:1529  contract Coin is ERC20, Ownable, ICoin {... */\n  jump(tag_18)\n    /* \"@openzeppelin/contracts/utils/Context.sol\":640:736  function _msgSender() internal view virtual returns (address) {... */\ntag_12:\n    /* \"@openzeppelin/contracts/utils/Context.sol\":693:700  address */\n  0x00\n    /* \"@openzeppelin/contracts/utils/Context.sol\":719:729  msg.sender */\n  caller\n    /* \"@openzeppelin/contracts/utils/Context.sol\":712:729  return msg.sender */\n  swap1\n  pop\n    /* \"@openzeppelin/contracts/utils/Context.sol\":640:736  function _msgSender() internal view virtual returns (address) {... */\n  swap1\n  jump\t// out\n    /* \"@openzeppelin/contracts/access/Ownable.sol\":2433:2620  function _transferOwnership(address newOwner) internal virtual {... */\ntag_13:\n    /* \"@openzeppelin/contracts/access/Ownable.sol\":2506:2522  address oldOwner */\n  0x00\n    /* \"@openzeppelin/contracts/access/Ownable.sol\":2525:2531  _owner */\n  0x05\n  0x00\n  swap1\n  sload\n  swap1\n  0x0100\n  exp\n  swap1\n  div\n  0xffffffffffffffffffffffffffffffffffffffff\n  and\n    /* \"@openzeppelin/contracts/access/Ownable.sol\":2506:2531  address oldOwner = _owner */\n  swap1\n  pop\n    /* \"@openzeppelin/contracts/access/Ownable.sol\":2550:2558  newOwner */\n  dup2\n    /* \"@openzeppelin/contracts/access/Ownable.sol\":2541:2547  _owner */\n  0x05\n  0x00\n    /* \"@openzeppelin/contracts/access/Ownable.sol\":2541:2558  _owner = newOwner */\n  0x0100\n  exp\n  dup2\n  sload\n  dup2\n  0xffffffffffffffffffffffffffffffffffffffff\n  mul\n  not\n  and\n  swap1\n  dup4\n  0xffffffffffffffffffffffffffffffffffffffff\n  and\n  mul\n  or\n  swap1\n  sstore\n  pop\n    /* \"@openzeppelin/contracts/access/Ownable.sol\":2604:2612  newOwner */\n  dup2\n    /* \"@openzeppelin/contracts/access/Ownable.sol\":2573:2613  OwnershipTransferred(oldOwner, newOwner) */\n  0xffffffffffffffffffffffffffffffffffffffff\n  and\n    /* \"@openzeppelin/contracts/access/Ownable.sol\":2594:2602  oldOwner */\n  dup2\n    /* \"@openzeppelin/contracts/access/Ownable.sol\":2573:2613  OwnershipTransferred(oldOwner, newOwner) */\n  0xffffffffffffffffffffffffffffffffffffffff\n  and\n  0x8be0079c531659141344cd1fd0a4f28419497f9722a3daafe3b4186f6b6457e0\n  mload(0x40)\n  mload(0x40)\n  dup1\n  swap2\n  sub\n  swap1\n  log3\n    /* \"@openzeppelin/contracts/access/Ownable.sol\":2496:2620  {... */\n  pop\n    /* \"@openzeppelin/contracts/access/Ownable.sol\":2433:2620  function _transferOwnership(address newOwner) internal virtual {... */\n  pop\n  jump\t// out\n    /* \"@openzeppelin/contracts/access/Ownable.sol\":1201:1286  function owner() public view virtual returns (address) {... */\ntag_16:\n    /* \"@openzeppelin/contracts/access/Ownable.sol\":1247:1254  address */\n  0x00\n    /* \"@openzeppelin/contracts/access/Ownable.sol\":1273:1279  _owner */\n  0x05\n  0x00\n  swap1\n  sload\n  swap1\n  0x0100\n  exp\n  swap1\n  div\n  0xffffffffffffffffffffffffffffffffffffffff\n  and\n    /* \"@openzeppelin/contracts/access/Ownable.sol\":1266:1279  return _owner */\n  swap1\n  pop\n    /* \"@openzeppelin/contracts/access/Ownable.sol\":1201:1286  function owner() public view virtual returns (address) {... */\n  swap1\n  jump\t// out\n    /* \"#utility.yul\":7:106   */\ntag_22:\n    /* \"#utility.yul\":59:65   */\n  0x00\n    /* \"#utility.yul\":93:98   */\n  dup2\n    /* \"#utility.yul\":87:99   */\n  mload\n    /* \"#utility.yul\":77:99   */\n  swap1\n  pop\n    /* \"#utility.yul\":7:106   */\n  swap2\n  swap1\n  pop\n  jump\t// out\n    /* \"#utility.yul\":112:292   */\ntag_23:\n    /* \"#utility.yul\":160:237   */\n  0x4e487b7100000000000000000000000000000000000000000000000000000000\n    /* \"#utility.yul\":157:158   */\n  0x00\n    /* \"#utility.yul\":150:238   */\n  mstore\n    /* \"#utility.yul\":257:261   */\n  0x41\n    /* \"#utility.yul\":254:255   */\n  0x04\n    /* \"#utility.yul\":247:262   */\n  mstore\n    /* \"#utility.yul\":281:285   */\n  0x24\n    /* \"#utility.yul\":278:279   */\n  0x00\n    /* \"#utility.yul\":271:286   */\n  revert\n    /* \"#utility.yul\":298:478   */\ntag_24:\n    /* \"#utility.yul\":346:423   */\n  0x4e487b7100000000000000000000000000000000000000000000000000000000\n    /* \"#utility.yul\":343:344   */\n  0x00\n    /* \"#utility.yul\":336:424   */\n  mstore\n    /* \"#utility.yul\":443:447   */\n  0x22\n    /* \"#utility.yul\":440:441   */\n  0x04\n    /* \"#utility.yul\":433:448   */\n  mstore\n    /* \"#utility.yul\":467:471   */\n  0x24\n    /* \"#utility.yul\":464:465   */\n  0x00\n    /* \"#utility.yul\":457:472   */\n  revert\n    /* \"#utility.yul\":484:804   */\ntag_25:\n    /* \"#utility.yul\":528:534   */\n  0x00\n    /* \"#utility.yul\":565:566   */\n  0x02\n    /* \"#utility.yul\":559:563   */\n  dup3\n    /* \"#utility.yul\":555:567   */\n  div\n    /* \"#utility.yul\":545:567   */\n  swap1\n  pop\n    /* \"#utility.yul\":612:613   */\n  0x01\n    /* \"#utility.yul\":606:610   */\n  dup3\n    /* \"#utility.yul\":602:614   */\n  and\n    /* \"#utility.yul\":633:651   */\n  dup1\n    /* \"#utility.yul\":623:704   */\n  tag_47\n  jumpi\n    /* \"#utility.yul\":689:693   */\n  0x7f\n    /* \"#utility.yul\":681:687   */\n  dup3\n    /* \"#utility.yul\":677:694   */\n  and\n    /* \"#utility.yul\":667:694   */\n  swap2\n  pop\n    /* \"#utility.yul\":623:704   */\ntag_47:\n    /* \"#utility.yul\":751:753   */\n  0x20\n    /* \"#utility.yul\":743:749   */\n  dup3\n    /* \"#utility.yul\":740:754   */\n  lt\n    /* \"#utility.yul\":720:738   */\n  dup2\n    /* \"#utility.yul\":717:755   */\n  sub\n    /* \"#utility.yul\":714:798   */\n  tag_48\n  jumpi\n    /* \"#utility.yul\":770:788   */\n  tag_49\n  tag_24\n  jump\t// in\ntag_49:\n    /* \"#utility.yul\":714:798   */\ntag_48:\n    /* \"#utility.yul\":535:804   */\n  pop\n    /* \"#utility.yul\":484:804   */\n  swap2\n  swap1\n  pop\n  jump\t// out\n    /* \"#utility.yul\":810:951   */\ntag_26:\n    /* \"#utility.yul\":859:863   */\n  0x00\n    /* \"#utility.yul\":882:885   */\n  dup2\n    /* \"#utility.yul\":874:885   */\n  swap1\n  pop\n    /* \"#utility.yul\":905:908   */\n  dup2\n    /* \"#utility.yul\":902:903   */\n  0x00\n    /* \"#utility.yul\":895:909   */\n  mstore\n    /* \"#utility.yul\":939:943   */\n  0x20\n    /* \"#utility.yul\":936:937   */\n  0x00\n    /* \"#utility.yul\":926:944   */\n  keccak256\n    /* \"#utility.yul\":918:944   */\n  swap1\n  pop\n    /* \"#utility.yul\":810:951   */\n  swap2\n  swap1\n  pop\n  jump\t// out\n    /* \"#utility.yul\":957:1050   */\ntag_27:\n    /* \"#utility.yul\":994:1000   */\n  0x00\n    /* \"#utility.yul\":1041:1043   */\n  0x20\n    /* \"#utility.yul\":1036:1038   */\n  0x1f\n    /* \"#utility.yul\":1029:1034   */\n  dup4\n    /* \"#utility.yul\":1025:1039   */\n  add\n    /* \"#utility.yul\":1021:1044   */\n  div\n    /* \"#utility.yul\":1011:1044   */\n  swap1\n  pop\n    /* \"#utility.yul\":957:1050   */\n  swap2\n  swap1\n  pop\n  jump\t// out\n    /* \"#utility.yul\":1056:1163   */\ntag_28:\n    /* \"#utility.yul\":1100:1108   */\n  0x00\n    /* \"#utility.yul\":1150:1155   */\n  dup3\n    /* \"#utility.yul\":1144:1148   */\n  dup3\n    /* \"#utility.yul\":1140:1156   */\n  shl\n    /* \"#utility.yul\":1119:1156   */\n  swap1\n  pop\n    /* \"#utility.yul\":1056:1163   */\n  swap3\n  swap2\n  pop\n  pop\n  jump\t// out\n    /* \"#utility.yul\":1169:1562   */\ntag_29:\n    /* \"#utility.yul\":1238:1244   */\n  0x00\n    /* \"#utility.yul\":1288:1289   */\n  0x08\n    /* \"#utility.yul\":1276:1286   */\n  dup4\n    /* \"#utility.yul\":1272:1290   */\n  mul\n    /* \"#utility.yul\":1311:1408   */\n  tag_54\n    /* \"#utility.yul\":1341:1407   */\n  0xffffffffffffffffffffffffffffffffffffffffffffffffffffffffffffffff\n    /* \"#utility.yul\":1330:1339   */\n  dup3\n    /* \"#utility.yul\":1311:1408   */\n  tag_28\n  jump\t// in\ntag_54:\n    /* \"#utility.yul\":1429:1468   */\n  tag_55\n    /* \"#utility.yul\":1459:1467   */\n  dup7\n    /* \"#utility.yul\":1448:1457   */\n  dup4\n    /* \"#utility.yul\":1429:1468   */\n  tag_28\n  jump\t// in\ntag_55:\n    /* \"#utility.yul\":1417:1468   */\n  swap6\n  pop\n    /* \"#utility.yul\":1501:1505   */\n  dup1\n    /* \"#utility.yul\":1497:1506   */\n  not\n    /* \"#utility.yul\":1490:1495   */\n  dup5\n    /* \"#utility.yul\":1486:1507   */\n  and\n    /* \"#utility.yul\":1477:1507   */\n  swap4\n  pop\n    /* \"#utility.yul\":1550:1554   */\n  dup1\n    /* \"#utility.yul\":1540:1548   */\n  dup7\n    /* \"#utility.yul\":1536:1555   */\n  and\n    /* \"#utility.yul\":1529:1534   */\n  dup5\n    /* \"#utility.yul\":1526:1556   */\n  or\n    /* \"#utility.yul\":1516:1556   */\n  swap3\n  pop\n    /* \"#utility.yul\":1245:1562   */\n  pop\n  pop\n    /* \"#utility.yul\":1169:1562   */\n  swap4\n  swap3\n  pop\n  pop\n  pop\n  jump\t// out\n    /* \"#utility.yul\":1568:1645   */\ntag_30:\n    /* \"#utility.yul\":1605:1612   */\n  0x00\n    /* \"#utility.yul\":1634:1639   */\n  dup2\n    /* \"#utility.yul\":1623:1639   */\n  swap1\n  pop\n    /* \"#utility.yul\":1568:1645   */\n  swap2\n  swap1\n  pop\n  jump\t// out\n    /* \"#utility.yul\":1651:1711   */\ntag_31:\n    /* \"#utility.yul\":1679:1682   */\n  0x00\n    /* \"#utility.yul\":1700:1705   */\n  dup2\n    /* \"#utility.yul\":1693:1705   */\n  swap1\n  pop\n    /* \"#utility.yul\":1651:1711   */\n  swap2\n  swap1\n  pop\n  jump\t// out\n    /* \"#utility.yul\":1717:1859   */\ntag_32:\n    /* \"#utility.yul\":1767:1776   */\n  0x00\n    /* \"#utility.yul\":1800:1853   */\n  tag_59\n    /* \"#utility.yul\":1818:1852   */\n  tag_60\n    /* \"#utility.yul\":1827:1851   */\n  tag_61\n    /* \"#utility.yul\":1845:1850   */\n  dup5\n    /* \"#utility.yul\":1827:1851   */\n  tag_30\n  jump\t// in\ntag_61:\n    /* \"#utility.yul\":1818:1852   */\n  tag_31\n  jump\t// in\ntag_60:\n    /* \"#utility.yul\":1800:1853   */\n  tag_30\n  jump\t// in\ntag_59:\n    /* \"#utility.yul\":1787:1853   */\n  swap1\n  pop\n    /* \"#utility.yul\":1717:1859   */\n  swap2\n  swap1\n  pop\n  jump\t// out\n    /* \"#utility.yul\":1865:1940   */\ntag_33:\n    /* \"#utility.yul\":1908:1911   */\n  0x00\n    /* \"#utility.yul\":1929:1934   */\n  dup2\n    /* \"#utility.yul\":1922:1934   */\n  swap1\n  pop\n    /* \"#utility.yul\":1865:1940   */\n  swap2\n  swap1\n  pop\n  jump\t// out\n    /* \"#utility.yul\":1946:2215   */\ntag_34:\n    /* \"#utility.yul\":2056:2095   */\n  tag_64\n    /* \"#utility.yul\":2087:2094   */\n  dup4\n    /* \"#utility.yul\":2056:2095   */\n  tag_32\n  jump\t// in\ntag_64:\n    /* \"#utility.yul\":2117:2208   */\n  tag_65\n    /* \"#utility.yul\":2166:2207   */\n  tag_66\n    /* \"#utility.yul\":2190:2206   */\n  dup3\n    /* \"#utility.yul\":2166:2207   */\n  tag_33\n  jump\t// in\ntag_66:\n    /* \"#utility.yul\":2158:2164   */\n  dup5\n    /* \"#utility.yul\":2151:2155   */\n  dup5\n    /* \"#utility.yul\":2145:2156   */\n  sload\n    /* \"#utility.yul\":2117:2208   */\n  tag_29\n  jump\t// in\ntag_65:\n    /* \"#utility.yul\":2111:2115   */\n  dup3\n    /* \"#utility.yul\":2104:2209   */\n  sstore\n    /* \"#utility.yul\":2022:2215   */\n  pop\n    /* \"#utility.yul\":1946:2215   */\n  pop\n  pop\n  pop\n  jump\t// out\n    /* \"#utility.yul\":2221:2294   */\ntag_35:\n    /* \"#utility.yul\":2266:2269   */\n  0x00\n    /* \"#utility.yul\":2221:2294   */\n  swap1\n  jump\t// out\n    /* \"#utility.yul\":2300:2489   */\ntag_36:\n    /* \"#utility.yul\":2377:2409   */\n  tag_69\n  tag_35\n  jump\t// in\ntag_69:\n    /* \"#utility.yul\":2418:2483   */\n  tag_70\n    /* \"#utility.yul\":2476:2482   */\n  dup2\n    /* \"#utility.yul\":2468:2474   */\n  dup5\n    /* \"#utility.yul\":2462:2466   */\n  dup5\n    /* \"#utility.yul\":2418:2483   */\n  tag_34\n  jump\t// in\ntag_70:\n    /* \"#utility.yul\":2353:2489   */\n  pop\n    /* \"#utility.yul\":2300:2489   */\n  pop\n  pop\n  jump\t// out\n    /* \"#utility.yul\":2495:2681   */\ntag_37:\n    /* \"#utility.yul\":2555:2675   */\ntag_72:\n    /* \"#utility.yul\":2572:2575   */\n  dup2\n    /* \"#utility.yul\":2565:2570   */\n  dup2\n    /* \"#utility.yul\":2562:2576   */\n  lt\n    /* \"#utility.yul\":2555:2675   */\n  iszero\n  tag_74\n  jumpi\n    /* \"#utility.yul\":2626:2665   */\n  tag_75\n    /* \"#utility.yul\":2663:2664   */\n  0x00\n    /* \"#utility.yul\":2656:2661   */\n  dup3\n    /* \"#utility.yul\":2626:2665   */\n  tag_36\n  jump\t// in\ntag_75:\n    /* \"#utility.yul\":2599:2600   */\n  0x01\n    /* \"#utility.yul\":2592:2597   */\n  dup2\n    /* \"#utility.yul\":2588:2601   */\n  add\n    /* \"#utility.yul\":2579:2601   */\n  swap1\n  pop\n    /* \"#utility.yul\":2555:2675   */\n  jump(tag_72)\ntag_74:\n    /* \"#utility.yul\":2495:2681   */\n  pop\n  pop\n  jump\t// out\n    /* \"#utility.yul\":2687:3230   */\ntag_38:\n    /* \"#utility.yul\":2788:2790   */\n  0x1f\n    /* \"#utility.yul\":2783:2786   */\n  dup3\n    /* \"#utility.yul\":2780:2791   */\n  gt\n    /* \"#utility.yul\":2777:3223   */\n  iszero\n  tag_77\n  jumpi\n    /* \"#utility.yul\":2822:2860   */\n  tag_78\n    /* \"#utility.yul\":2854:2859   */\n  dup2\n    /* \"#utility.yul\":2822:2860   */\n  tag_26\n  jump\t// in\ntag_78:\n    /* \"#utility.yul\":2906:2935   */\n  tag_79\n    /* \"#utility.yul\":2924:2934   */\n  dup5\n    /* \"#utility.yul\":2906:2935   */\n  tag_27\n  jump\t// in\ntag_79:\n    /* \"#utility.yul\":2896:2904   */\n  dup2\n    /* \"#utility.yul\":2892:2936   */\n  add\n    /* \"#utility.yul\":3089:3091   */\n  0x20\n    /* \"#utility.yul\":3077:3087   */\n  dup6\n    /* \"#utility.yul\":3074:3092   */\n  lt\n    /* \"#utility.yul\":3071:3120   */\n  iszero\n  tag_80\n  jumpi\n    /* \"#utility.yul\":3110:3118   */\n  dup2\n    /* \"#utility.yul\":3095:3118   */\n  swap1\n  pop\n    /* \"#utility.yul\":3071:3120   */\ntag_80:\n    /* \"#utility.yul\":3133:3213   */\n  tag_81\n    /* \"#utility.yul\":3189:3211   */\n  tag_82\n    /* \"#utility.yul\":3207:3210   */\n  dup6\n    /* \"#utility.yul\":3189:3211   */\n  tag_27\n  jump\t// in\ntag_82:\n    /* \"#utility.yul\":3179:3187   */\n  dup4\n    /* \"#utility.yul\":3175:3212   */\n  add\n    /* \"#utility.yul\":3162:3173   */\n  dup3\n    /* \"#utility.yul\":3133:3213   */\n  tag_37\n  jump\t// in\ntag_81:\n    /* \"#utility.yul\":2792:3223   */\n  pop\n  pop\n    /* \"#utility.yul\":2777:3223   */\ntag_77:\n    /* \"#utility.yul\":2687:3230   */\n  pop\n  pop\n  pop\n  jump\t// out\n    /* \"#utility.yul\":3236:3353   */\ntag_39:\n    /* \"#utility.yul\":3290:3298   */\n  0x00\n    /* \"#utility.yul\":3340:3345   */\n  dup3\n    /* \"#utility.yul\":3334:3338   */\n  dup3\n    /* \"#utility.yul\":3330:3346   */\n  shr\n    /* \"#utility.yul\":3309:3346   */\n  swap1\n  pop\n    /* \"#utility.yul\":3236:3353   */\n  swap3\n  swap2\n  pop\n  pop\n  jump\t// out\n    /* \"#utility.yul\":3359:3528   */\ntag_40:\n    /* \"#utility.yul\":3403:3409   */\n  0x00\n    /* \"#utility.yul\":3436:3487   */\n  tag_85\n    /* \"#utility.yul\":3484:3485   */\n  0x00\n    /* \"#utility.yul\":3480:3486   */\n  not\n    /* \"#utility.yul\":3472:3477   */\n  dup5\n    /* \"#utility.yul\":3469:3470   */\n  0x08\n    /* \"#utility.yul\":3465:3478   */\n  mul\n    /* \"#utility.yul\":3436:3487   */\n  tag_39\n  jump\t// in\ntag_85:\n    /* \"#utility.yul\":3432:3488   */\n  not\n    /* \"#utility.yul\":3517:3521   */\n  dup1\n    /* \"#utility.yul\":3511:3515   */\n  dup4\n    /* \"#utility.yul\":3507:3522   */\n  and\n    /* \"#utility.yul\":3497:3522   */\n  swap2\n  pop\n    /* \"#utility.yul\":3410:3528   */\n  pop\n    /* \"#utility.yul\":3359:3528   */\n  swap3\n  swap2\n  pop\n  pop\n  jump\t// out\n    /* \"#utility.yul\":3533:3828   */\ntag_41:\n    /* \"#utility.yul\":3609:3613   */\n  0x00\n    /* \"#utility.yul\":3755:3784   */\n  tag_87\n    /* \"#utility.yul\":3780:3783   */\n  dup4\n    /* \"#utility.yul\":3774:3778   */\n  dup4\n    /* \"#utility.yul\":3755:3784   */\n  tag_40\n  jump\t// in\ntag_87:\n    /* \"#utility.yul\":3747:3784   */\n  swap2\n  pop\n    /* \"#utility.yul\":3817:3820   */\n  dup3\n    /* \"#utility.yul\":3814:3815   */\n  0x02\n    /* \"#utility.yul\":3810:3821   */\n  mul\n    /* \"#utility.yul\":3804:3808   */\n  dup3\n    /* \"#utility.yul\":3801:3822   */\n  or\n    /* \"#utility.yul\":3793:3822   */\n  swap1\n  pop\n    /* \"#utility.yul\":3533:3828   */\n  swap3\n  swap2\n  pop\n  pop\n  jump\t// out\n    /* \"#utility.yul\":3833:5228   */\ntag_7:\n    /* \"#utility.yul\":3950:3987   */\n  tag_89\n    /* \"#utility.yul\":3983:3986   */\n  dup3\n    /* \"#utility.yul\":3950:3987   */\n  tag_22\n  jump\t// in\ntag_89:\n    /* \"#utility.yul\":4052:4070   */\n  0xffffffffffffffff\n    /* \"#utility.yul\":4044:4050   */\n  dup2\n    /* \"#utility.yul\":4041:4071   */\n  gt\n    /* \"#utility.yul\":4038:4094   */\n  iszero\n  tag_90\n  jumpi\n    /* \"#utility.yul\":4074:4092   */\n  tag_91\n  tag_23\n  jump\t// in\ntag_91:\n    /* \"#utility.yul\":4038:4094   */\ntag_90:\n    /* \"#utility.yul\":4118:4156   */\n  tag_92\n    /* \"#utility.yul\":4150:4154   */\n  dup3\n    /* \"#utility.yul\":4144:4155   */\n  sload\n    /* \"#utility.yul\":4118:4156   */\n  tag_25\n  jump\t// in\ntag_92:\n    /* \"#utility.yul\":4203:4270   */\n  tag_93\n    /* \"#utility.yul\":4263:4269   */\n  dup3\n    /* \"#utility.yul\":4255:4261   */\n  dup3\n    /* \"#utility.yul\":4249:4253   */\n  dup6\n    /* \"#utility.yul\":4203:4270   */\n  tag_38\n  jump\t// in\ntag_93:\n    /* \"#utility.yul\":4297:4298   */\n  0x00\n    /* \"#utility.yul\":4321:4325   */\n  0x20\n    /* \"#utility.yul\":4308:4325   */\n  swap1\n  pop\n    /* \"#utility.yul\":4353:4355   */\n  0x1f\n    /* \"#utility.yul\":4345:4351   */\n  dup4\n    /* \"#utility.yul\":4342:4356   */\n  gt\n    /* \"#utility.yul\":4370:4371   */\n  0x01\n    /* \"#utility.yul\":4365:4983   */\n  dup2\n  eq\n  tag_95\n  jumpi\n    /* \"#utility.yul\":5027:5028   */\n  0x00\n    /* \"#utility.yul\":5044:5050   */\n  dup5\n    /* \"#utility.yul\":5041:5118   */\n  iszero\n  tag_96\n  jumpi\n    /* \"#utility.yul\":5093:5102   */\n  dup3\n    /* \"#utility.yul\":5088:5091   */\n  dup8\n    /* \"#utility.yul\":5084:5103   */\n  add\n    /* \"#utility.yul\":5078:5104   */\n  mload\n    /* \"#utility.yul\":5069:5104   */\n  swap1\n  pop\n    /* \"#utility.yul\":5041:5118   */\ntag_96:\n    /* \"#utility.yul\":5144:5211   */\n  tag_97\n    /* \"#utility.yul\":5204:5210   */\n  dup6\n    /* \"#utility.yul\":5197:5202   */\n  dup3\n    /* \"#utility.yul\":5144:5211   */\n  tag_41\n  jump\t// in\ntag_97:\n    /* \"#utility.yul\":5138:5142   */\n  dup7\n    /* \"#utility.yul\":5131:5212   */\n  sstore\n    /* \"#utility.yul\":5000:5222   */\n  pop\n    /* \"#utility.yul\":4335:5222   */\n  jump(tag_94)\n    /* \"#utility.yul\":4365:4983   */\ntag_95:\n    /* \"#utility.yul\":4417:4421   */\n  0x1f\n    /* \"#utility.yul\":4413:4422   */\n  not\n    /* \"#utility.yul\":4405:4411   */\n  dup5\n    /* \"#utility.yul\":4401:4423   */\n  and\n    /* \"#utility.yul\":4451:4488   */\n  tag_98\n    /* \"#utility.yul\":4483:4487   */\n  dup7\n    /* \"#utility.yul\":4451:4488   */\n  tag_26\n  jump\t// in\ntag_98:\n    /* \"#utility.yul\":4510:4511   */\n  0x00\n    /* \"#utility.yul\":4524:4732   */\ntag_99:\n    /* \"#utility.yul\":4538:4545   */\n  dup3\n    /* \"#utility.yul\":4535:4536   */\n  dup2\n    /* \"#utility.yul\":4532:4546   */\n  lt\n    /* \"#utility.yul\":4524:4732   */\n  iszero\n  tag_101\n  jumpi\n    /* \"#utility.yul\":4617:4626   */\n  dup5\n    /* \"#utility.yul\":4612:4615   */\n  dup10\n    /* \"#utility.yul\":4608:4627   */\n  add\n    /* \"#utility.yul\":4602:4628   */\n  mload\n    /* \"#utility.yul\":4594:4600   */\n  dup3\n    /* \"#utility.yul\":4587:4629   */\n  sstore\n    /* \"#utility.yul\":4668:4669   */\n  0x01\n    /* \"#utility.yul\":4660:4666   */\n  dup3\n    /* \"#utility.yul\":4656:4670   */\n  add\n    /* \"#utility.yul\":4646:4670   */\n  swap2\n  pop\n    /* \"#utility.yul\":4715:4717   */\n  0x20\n    /* \"#utility.yul\":4704:4713   */\n  dup6\n    /* \"#utility.yul\":4700:4718   */\n  add\n    /* \"#utility.yul\":4687:4718   */\n  swap5\n  pop\n    /* \"#utility.yul\":4561:4565   */\n  0x20\n    /* \"#utility.yul\":4558:4559   */\n  dup2\n    /* \"#utility.yul\":4554:4566   */\n  add\n    /* \"#utility.yul\":4549:4566   */\n  swap1\n  pop\n    /* \"#utility.yul\":4524:4732   */\n  jump(tag_99)\ntag_101:\n    /* \"#utility.yul\":4760:4766   */\n  dup7\n    /* \"#utility.yul\":4751:4758   */\n  dup4\n    /* \"#utility.yul\":4748:4767   */\n  lt\n    /* \"#utility.yul\":4745:4924   */\n  iszero\n  tag_102\n  jumpi\n    /* \"#utility.yul\":4818:4827   */\n  dup5\n    /* \"#utility.yul\":4813:4816   */\n  dup10\n    /* \"#utility.yul\":4809:4828   */\n  add\n    /* \"#utility.yul\":4803:4829   */\n  mload\n    /* \"#utility.yul\":4861:4909   */\n  tag_103\n    /* \"#utility.yul\":4903:4907   */\n  0x1f\n    /* \"#utility.yul\":4895:4901   */\n  dup10\n    /* \"#utility.yul\":4891:4908   */\n  and\n    /* \"#utility.yul\":4880:4889   */\n  dup3\n    /* \"#utility.yul\":4861:4909   */\n  tag_40\n  jump\t// in\ntag_103:\n    /* \"#utility.yul\":4853:4859   */\n  dup4\n    /* \"#utility.yul\":4846:4910   */\n  sstore\n    /* \"#utility.yul\":4768:4924   */\n  pop\n    /* \"#utility.yul\":4745:4924   */\ntag_102:\n    /* \"#utility.yul\":4970:4971   */\n  0x01\n    /* \"#utility.yul\":4966:4967   */\n  0x02\n    /* \"#utility.yul\":4958:4964   */\n  dup9\n    /* \"#utility.yul\":4954:4968   */\n  mul\n    /* \"#utility.yul\":4950:4972   */\n  add\n    /* \"#utility.yul\":4944:4948   */\n  dup9\n    /* \"#utility.yul\":4937:4973   */\n  sstore\n    /* \"#utility.yul\":4372:4983   */\n  pop\n  pop\n  pop\n    /* \"#utility.yul\":4335:5222   */\ntag_94:\n  pop\n    /* \"#utility.yul\":3925:5228   */\n  pop\n  pop\n  pop\n    /* \"#utility.yul\":3833:5228   */\n  pop\n  pop\n  jump\t// out\n    /* \"contracts/coins/Coin.sol\":206:1529  contract Coin is ERC20, Ownable, ICoin {... */\ntag_18:\n  dataSize(sub_0)\n  dup1\n  dataOffset(sub_0)\n  0x00\n  codecopy\n  0x00\n  return\nstop\n\nsub_0: assembly {\n        /* \"contracts/coins/Coin.sol\":206:1529  contract Coin is ERC20, Ownable, ICoin {... */\n      mstore(0x40, 0x80)\n      callvalue\n      dup1\n      iszero\n      tag_1\n      jumpi\n      0x00\n      dup1\n      revert\n    tag_1:\n      pop\n      jumpi(tag_2, lt(calldatasize, 0x04))\n      shr(0xe0, calldataload(0x00))\n      dup1\n      0x715018a6\n      gt\n      tag_22\n      jumpi\n      dup1\n      0xa9059cbb\n      gt\n      tag_23\n      jumpi\n      dup1\n      0xa9059cbb\n      eq\n      tag_17\n      jumpi\n      dup1\n      0xb78376e9\n      eq\n      tag_18\n      jumpi\n      dup1\n      0xc290d691\n      eq\n      tag_19\n      jumpi\n      dup1\n      0xdd62ed3e\n      eq\n      tag_20\n      jumpi\n      dup1\n      0xf2fde38b\n      eq\n      tag_21\n      jumpi\n      jump(tag_2)\n    tag_23:\n      dup1\n      0x715018a6\n      eq\n      tag_12\n      jumpi\n      dup1\n      0x8da5cb5b\n      eq\n      tag_13\n      jumpi\n      dup1\n      0x95d89b41\n      eq\n      tag_14\n      jumpi\n      dup1\n      0xa0712d68\n      eq\n      tag_15\n      jumpi\n      dup1\n      0xa457c2d7\n      eq\n      tag_16\n      jumpi\n      jump(tag_2)\n    tag_22:\n      dup1\n      0x18160ddd\n      gt\n      tag_24\n      jumpi\n      dup1\n      0x18160ddd\n      eq\n      tag_7\n      jumpi\n      dup1\n      0x23b872dd\n      eq\n      tag_8\n      jumpi\n      dup1\n      0x313ce567\n      eq\n      tag_9\n      jumpi\n      dup1\n      0x39509351\n      eq\n      tag_10\n      jumpi\n      dup1\n      0x70a08231\n      eq\n      tag_11\n      jumpi\n      jump(tag_2)\n    tag_24:\n      dup1\n      0x048f1627\n      eq\n      tag_3\n      jumpi\n      dup1\n      0x06fdde03\n      eq\n      tag_4\n      jumpi\n      dup1\n      0x095ea7b3\n      eq\n      tag_5\n      jumpi\n      dup1\n      0x1055d708\n      eq\n      tag_6\n      jumpi\n    tag_2:\n      0x00\n      dup1\n      revert\n        /* \"contracts/coins/Coin.sol\":1189:1372  function removePayer(address payer) external onlyOwner {... */\n    tag_3:\n      tag_25\n      0x04\n      dup1\n      calldatasize\n      sub\n      dup2\n      add\n      swap1\n      tag_26\n      swap2\n      swap1\n      tag_27\n      jump\t// in\n    tag_26:\n      tag_28\n      jump\t// in\n    tag_25:\n      stop\n        /* \"@openzeppelin/contracts/token/ERC20/ERC20.sol\":2154:2252  function name() public view virtual override returns (string memory) {... */\n    tag_4:\n      tag_29\n      tag_30\n      jump\t// in\n    tag_29:\n      mload(0x40)\n      tag_31\n      swap2\n      swap1\n      tag_32\n      jump\t// in\n    tag_31:\n      mload(0x40)\n      dup1\n      swap2\n      sub\n      swap1\n      return\n        /* \"@openzeppelin/contracts/token/ERC20/ERC20.sol\":4431:4628  function approve(address spender, uint256 amount) public virtual override returns (bool) {... */\n    tag_5:\n      tag_33\n      0x04\n      dup1\n      calldatasize\n      sub\n      dup2\n      add\n      swap1\n      tag_34\n      swap2\n      swap1\n      tag_35\n      jump\t// in\n    tag_34:\n      tag_36\n      jump\t// in\n    tag_33:\n      mload(0x40)\n      tag_37\n      swap2\n      swap1\n      tag_38\n      jump\t// in\n    tag_37:\n      mload(0x40)\n      dup1\n      swap2\n      sub\n      swap1\n      return\n        /* \"contracts/coins/Coin.sol\":1434:1527  function getPayers() external view returns (address[] memory) {... */\n    tag_6:\n      tag_39\n      tag_40\n      jump\t// in\n    tag_39:\n      mload(0x40)\n      tag_41\n      swap2\n      swap1\n      tag_42\n      jump\t// in\n    tag_41:\n      mload(0x40)\n      dup1\n      swap2\n      sub\n      swap1\n      return\n        /* \"@openzeppelin/contracts/token/ERC20/ERC20.sol\":3242:3348  function totalSupply() public view virtual override returns (uint256) {... */\n    tag_7:\n      tag_43\n      tag_44\n      jump\t// in\n    tag_43:\n      mload(0x40)\n      tag_45\n      swap2\n      swap1\n      tag_46\n      jump\t// in\n    tag_45:\n      mload(0x40)\n      dup1\n      swap2\n      sub\n      swap1\n      return\n        /* \"@openzeppelin/contracts/token/ERC20/ERC20.sol\":5190:5476  function transferFrom(... */\n    tag_8:\n      tag_47\n      0x04\n      dup1\n      calldatasize\n      sub\n      dup2\n      add\n      swap1\n      tag_48\n      swap2\n      swap1\n      tag_49\n      jump\t// in\n    tag_48:\n      tag_50\n      jump\t// in\n    tag_47:\n      mload(0x40)\n      tag_51\n      swap2\n      swap1\n      tag_38\n      jump\t// in\n    tag_51:\n      mload(0x40)\n      dup1\n      swap2\n      sub\n      swap1\n      return\n        /* \"@openzeppelin/contracts/token/ERC20/ERC20.sol\":3091:3182  function decimals() public view virtual override returns (uint8) {... */\n    tag_9:\n      tag_52\n      tag_53\n      jump\t// in\n    tag_52:\n      mload(0x40)\n      tag_54\n      swap2\n      swap1\n      tag_55\n      jump\t// in\n    tag_54:\n      mload(0x40)\n      dup1\n      swap2\n      sub\n      swap1\n      return\n        /* \"@openzeppelin/contracts/token/ERC20/ERC20.sol\":5871:6105  function increaseAllowance(address spender, uint256 addedValue) public virtual returns (bool) {... */\n    tag_10:\n      tag_56\n      0x04\n      dup1\n      calldatasize\n      sub\n      dup2\n      add\n      swap1\n      tag_57\n      swap2\n      swap1\n      tag_35\n      jump\t// in\n    tag_57:\n      tag_58\n      jump\t// in\n    tag_56:\n      mload(0x40)\n      tag_59\n      swap2\n      swap1\n      tag_38\n      jump\t// in\n    tag_59:\n      mload(0x40)\n      dup1\n      swap2\n      sub\n      swap1\n      return\n        /* \"@openzeppelin/contracts/token/ERC20/ERC20.sol\":3406:3531  function balanceOf(address account) public view virtual override returns (uint256) {... */\n    tag_11:\n      tag_60\n      0x04\n      dup1\n      calldatasize\n      sub\n      dup2\n      add\n      swap1\n      tag_61\n      swap2\n      swap1\n      tag_27\n      jump\t// in\n    tag_61:\n      tag_62\n      jump\t// in\n    tag_60:\n      mload(0x40)\n      tag_63\n      swap2\n      swap1\n      tag_46\n      jump\t// in\n    tag_63:\n      mload(0x40)\n      dup1\n      swap2\n      sub\n      swap1\n      return\n        /* \"@openzeppelin/contracts/access/Ownable.sol\":1831:1932  function renounceOwnership() public virtual onlyOwner {... */\n    tag_12:\n      tag_64\n      tag_65\n      jump\t// in\n    tag_64:\n      stop\n        /* \"@openzeppelin/contracts/access/Ownable.sol\":1201:1286  function owner() public view virtual returns (address) {... */\n    tag_13:\n      tag_66\n      tag_67\n      jump\t// in\n    tag_66:\n      mload(0x40)\n      tag_68\n      swap2\n      swap1\n      tag_69\n      jump\t// in\n    tag_68:\n      mload(0x40)\n      dup1\n      swap2\n      sub\n      swap1\n      return\n        /* \"@openzeppelin/contracts/token/ERC20/ERC20.sol\":2365:2467  function symbol() public view virtual override returns (string memory) {... */\n    tag_14:\n      tag_70\n      tag_71\n      jump\t// in\n    tag_70:\n      mload(0x40)\n      tag_72\n      swap2\n      swap1\n      tag_32\n      jump\t// in\n    tag_72:\n      mload(0x40)\n      dup1\n      swap2\n      sub\n      swap1\n      return\n        /* \"contracts/coins/Coin.sol\":797:885  function mint(uint256 amount) external onlyOwner {... */\n    tag_15:\n      tag_73\n      0x04\n      dup1\n      calldatasize\n      sub\n      dup2\n      add\n      swap1\n      tag_74\n      swap2\n      swap1\n      tag_75\n      jump\t// in\n    tag_74:\n      tag_76\n      jump\t// in\n    tag_73:\n      stop\n        /* \"@openzeppelin/contracts/token/ERC20/ERC20.sol\":6592:7019  function decreaseAllowance(address spender, uint256 subtractedValue) public virtual returns (bool) {... */\n    tag_16:\n      tag_77\n      0x04\n      dup1\n      calldatasize\n      sub\n      dup2\n      add\n      swap1\n      tag_78\n      swap2\n      swap1\n      tag_35\n      jump\t// in\n    tag_78:\n      tag_79\n      jump\t// in\n    tag_77:\n      mload(0x40)\n      tag_80\n      swap2\n      swap1\n      tag_38\n      jump\t// in\n    tag_80:\n      mload(0x40)\n      dup1\n      swap2\n      sub\n      swap1\n      return\n        /* \"@openzeppelin/contracts/token/ERC20/ERC20.sol\":3727:3916  function transfer(address to, uint256 amount) public virtual override returns (bool) {... */\n    tag_17:\n      tag_81\n      0x04\n      dup1\n      calldatasize\n      sub\n      dup2\n      add\n      swap1\n      tag_82\n      swap2\n      swap1\n      tag_35\n      jump\t// in\n    tag_82:\n      tag_83\n      jump\t// in\n    tag_81:\n      mload(0x40)\n      tag_84\n      swap2\n      swap1\n      tag_38\n      jump\t// in\n    tag_84:\n      mload(0x40)\n      dup1\n      swap2\n      sub\n      swap1\n      return\n        /* \"contracts/coins/Coin.sol\":1047:1135  function addPayer(address payer) external onlyOwner {... */\n    tag_18:\n      tag_85\n      0x04\n      dup1\n      calldatasize\n      sub\n      dup2\n      add\n      swap1\n      tag_86\n      swap2\n      swap1\n      tag_27\n      jump\t// in\n    tag_86:\n      tag_87\n      jump\t// in\n    tag_85:\n      stop\n        /* \"contracts/coins/Coin.sol\":909:996  function pay(uint256 amount) external onlyPayer {... */\n    tag_19:\n      tag_88\n      0x04\n      dup1\n      calldatasize\n      sub\n      dup2\n      add\n      swap1\n      tag_89\n      swap2\n      swap1\n      tag_75\n      jump\t// in\n    tag_89:\n      tag_90\n      jump\t// in\n    tag_88:\n      stop\n        /* \"@openzeppelin/contracts/token/ERC20/ERC20.sol\":3974:4123  function allowance(address owner, address spender) public view virtual override returns (uint256) {... */\n    tag_20:\n      tag_91\n      0x04\n      dup1\n      calldatasize\n      sub\n      dup2\n      add\n      swap1\n      tag_92\n      swap2\n      swap1\n      tag_93\n      jump\t// in\n    tag_92:\n      tag_94\n      jump\t// in\n    tag_91:\n      mload(0x40)\n      tag_95\n      swap2\n      swap1\n      tag_46\n      jump\t// in\n    tag_95:\n      mload(0x40)\n      dup1\n      swap2\n      sub\n      swap1\n      return\n        /* \"@openzeppelin/contracts/access/Ownable.sol\":2081:2279  function transferOwnership(address newOwner) public virtual onlyOwner {... */\n    tag_21:\n      tag_96\n      0x04\n      dup1\n      calldatasize\n      sub\n      dup2\n      add\n      swap1\n      tag_97\n      swap2\n      swap1\n      tag_27\n      jump\t// in\n    tag_97:\n      tag_98\n      jump\t// in\n    tag_96:\n      stop\n        /* \"contracts/coins/Coin.sol\":1189:1372  function removePayer(address payer) external onlyOwner {... */\n    tag_28:\n        /* \"@openzeppelin/contracts/access/Ownable.sol\":1094:1107  _checkOwner() */\n      tag_100\n        /* \"@openzeppelin/contracts/access/Ownable.sol\":1094:1105  _checkOwner */\n      tag_101\n        /* \"@openzeppelin/contracts/access/Ownable.sol\":1094:1107  _checkOwner() */\n      jump\t// in\n    tag_100:\n        /* \"contracts/coins/Coin.sol\":1259:1268  uint256 i */\n      0x00\n        /* \"contracts/coins/Coin.sol\":1254:1366  for (uint256 i = 0; i < _payers.length; i++) {... */\n    tag_103:\n        /* \"contracts/coins/Coin.sol\":1278:1285  _payers */\n      0x06\n        /* \"contracts/coins/Coin.sol\":1278:1292  _payers.length */\n      dup1\n      sload\n      swap1\n      pop\n        /* \"contracts/coins/Coin.sol\":1274:1275  i */\n      dup2\n        /* \"contracts/coins/Coin.sol\":1274:1292  i < _payers.length */\n      lt\n        /* \"contracts/coins/Coin.sol\":1254:1366  for (uint256 i = 0; i < _payers.length; i++) {... */\n      iszero\n      tag_104\n      jumpi\n        /* \"contracts/coins/Coin.sol\":1326:1333  _payers */\n      0x06\n        /* \"contracts/coins/Coin.sol\":1334:1335  i */\n      dup2\n        /* \"contracts/coins/Coin.sol\":1326:1336  _payers[i] */\n      dup2\n      sload\n      dup2\n      lt\n      tag_106\n      jumpi\n      tag_107\n      tag_108\n      jump\t// in\n    tag_107:\n    tag_106:\n      swap1\n      0x00\n      mstore\n      keccak256(0x00, 0x20)\n      add\n      0x00\n      swap1\n      sload\n      swap1\n      0x0100\n      exp\n      swap1\n      div\n      0xffffffffffffffffffffffffffffffffffffffff\n      and\n        /* \"contracts/coins/Coin.sol\":1317:1336  payer == _payers[i] */\n      0xffffffffffffffffffffffffffffffffffffffff\n      and\n        /* \"contracts/coins/Coin.sol\":1317:1322  payer */\n      dup3\n        /* \"contracts/coins/Coin.sol\":1317:1336  payer == _payers[i] */\n      0xffffffffffffffffffffffffffffffffffffffff\n      and\n      sub\n        /* \"contracts/coins/Coin.sol\":1313:1355  if (payer == _payers[i]) delete _payers[i] */\n      tag_110\n      jumpi\n        /* \"contracts/coins/Coin.sol\":1345:1352  _payers */\n      0x06\n        /* \"contracts/coins/Coin.sol\":1353:1354  i */\n      dup2\n        /* \"contracts/coins/Coin.sol\":1345:1355  _payers[i] */\n      dup2\n      sload\n      dup2\n      lt\n      tag_111\n      jumpi\n      tag_112\n      tag_108\n      jump\t// in\n    tag_112:\n    tag_111:\n      swap1\n      0x00\n      mstore\n      keccak256(0x00, 0x20)\n      add\n      0x00\n        /* \"contracts/coins/Coin.sol\":1338:1355  delete _payers[i] */\n      0x0100\n      exp\n      dup2\n      sload\n      swap1\n      0xffffffffffffffffffffffffffffffffffffffff\n      mul\n      not\n      and\n      swap1\n      sstore\n        /* \"contracts/coins/Coin.sol\":1313:1355  if (payer == _payers[i]) delete _payers[i] */\n    tag_110:\n        /* \"contracts/coins/Coin.sol\":1294:1297  i++ */\n      dup1\n      dup1\n      tag_114\n      swap1\n      tag_115\n      jump\t// in\n    tag_114:\n      swap2\n      pop\n      pop\n        /* \"contracts/coins/Coin.sol\":1254:1366  for (uint256 i = 0; i < _payers.length; i++) {... */\n      jump(tag_103)\n    tag_104:\n      pop\n        /* \"contracts/coins/Coin.sol\":1189:1372  function removePayer(address payer) external onlyOwner {... */\n      pop\n      jump\t// out\n        /* \"@openzeppelin/contracts/token/ERC20/ERC20.sol\":2154:2252  function name() public view virtual override returns (string memory) {... */\n    tag_30:\n        /* \"@openzeppelin/contracts/token/ERC20/ERC20.sol\":2208:2221  string memory */\n      0x60\n        /* \"@openzeppelin/contracts/token/ERC20/ERC20.sol\":2240:2245  _name */\n      0x03\n        /* \"@openzeppelin/contracts/token/ERC20/ERC20.sol\":2233:2245  return _name */\n      dup1\n      sload\n      tag_117\n      swap1\n      tag_118\n      jump\t// in\n    tag_117:\n      dup1\n      0x1f\n      add\n      0x20\n      dup1\n      swap2\n      div\n      mul\n      0x20\n      add\n      mload(0x40)\n      swap1\n      dup2\n      add\n      0x40\n      mstore\n      dup1\n      swap3\n      swap2\n      swap1\n      dup2\n      dup2\n      mstore\n      0x20\n      add\n      dup3\n      dup1\n      sload\n      tag_119\n      swap1\n      tag_118\n      jump\t// in\n    tag_119:\n      dup1\n      iszero\n      tag_120\n      jumpi\n      dup1\n      0x1f\n      lt\n      tag_121\n      jumpi\n      0x0100\n      dup1\n      dup4\n      sload\n      div\n      mul\n      dup4\n      mstore\n      swap2\n      0x20\n      add\n      swap2\n      jump(tag_120)\n    tag_121:\n      dup3\n      add\n      swap2\n      swap1\n      0x00\n      mstore\n      keccak256(0x00, 0x20)\n      swap1\n    tag_122:\n      dup2\n      sload\n      dup2\n      mstore\n      swap1\n      0x01\n      add\n      swap1\n      0x20\n      add\n      dup1\n      dup4\n      gt\n      tag_122\n      jumpi\n      dup3\n      swap1\n      sub\n      0x1f\n      and\n      dup3\n      add\n      swap2\n    tag_120:\n      pop\n      pop\n      pop\n      pop\n      pop\n      swap1\n      pop\n        /* \"@openzeppelin/contracts/token/ERC20/ERC20.sol\":2154:2252  function name() public view virtual override returns (string memory) {... */\n      swap1\n      jump\t// out\n        /* \"@openzeppelin/contracts/token/ERC20/ERC20.sol\":4431:4628  function approve(address spender, uint256 amount) public virtual override returns (bool) {... */\n    tag_36:\n        /* \"@openzeppelin/contracts/token/ERC20/ERC20.sol\":4514:4518  bool */\n      0x00\n        /* \"@openzeppelin/contracts/token/ERC20/ERC20.sol\":4530:4543  address owner */\n      dup1\n        /* \"@openzeppelin/contracts/token/ERC20/ERC20.sol\":4546:4558  _msgSender() */\n      tag_124\n        /* \"@openzeppelin/contracts/token/ERC20/ERC20.sol\":4546:4556  _msgSender */\n      tag_125\n        /* \"@openzeppelin/contracts/token/ERC20/ERC20.sol\":4546:4558  _msgSender() */\n      jump\t// in\n    tag_124:\n        /* \"@openzeppelin/contracts/token/ERC20/ERC20.sol\":4530:4558  address owner = _msgSender() */\n      swap1\n      pop\n        /* \"@openzeppelin/contracts/token/ERC20/ERC20.sol\":4568:4600  _approve(owner, spender, amount) */\n      tag_126\n        /* \"@openzeppelin/contracts/token/ERC20/ERC20.sol\":4577:4582  owner */\n      dup2\n        /* \"@openzeppelin/contracts/token/ERC20/ERC20.sol\":4584:4591  spender */\n      dup6\n        /* \"@openzeppelin/contracts/token/ERC20/ERC20.sol\":4593:4599  amount */\n      dup6\n        /* \"@openzeppelin/contracts/token/ERC20/ERC20.sol\":4568:4576  _approve */\n      tag_127\n        /* \"@openzeppelin/contracts/token/ERC20/ERC20.sol\":4568:4600  _approve(owner, spender, amount) */\n      jump\t// in\n    tag_126:\n        /* \"@openzeppelin/contracts/token/ERC20/ERC20.sol\":4617:4621  true */\n      0x01\n        /* \"@openzeppelin/contracts/token/ERC20/ERC20.sol\":4610:4621  return true */\n      swap2\n      pop\n      pop\n        /* \"@openzeppelin/contracts/token/ERC20/ERC20.sol\":4431:4628  function approve(address spender, uint256 amount) public virtual override returns (bool) {... */\n      swap3\n      swap2\n      pop\n      pop\n      jump\t// out\n        /* \"contracts/coins/Coin.sol\":1434:1527  function getPayers() external view returns (address[] memory) {... */\n    tag_40:\n        /* \"contracts/coins/Coin.sol\":1478:1494  address[] memory */\n      0x60\n        /* \"contracts/coins/Coin.sol\":1513:1520  _payers */\n      0x06\n        /* \"contracts/coins/Coin.sol\":1506:1520  return _payers */\n      dup1\n      sload\n      dup1\n      0x20\n      mul\n      0x20\n      add\n      mload(0x40)\n      swap1\n      dup2\n      add\n      0x40\n      mstore\n      dup1\n      swap3\n      swap2\n      swap1\n      dup2\n      dup2\n      mstore\n      0x20\n      add\n      dup3\n      dup1\n      sload\n      dup1\n      iszero\n      tag_129\n      jumpi\n      0x20\n      mul\n      dup3\n      add\n      swap2\n      swap1\n      0x00\n      mstore\n      keccak256(0x00, 0x20)\n      swap1\n    tag_130:\n      dup2\n      0x00\n      swap1\n      sload\n      swap1\n      0x0100\n      exp\n      swap1\n      div\n      0xffffffffffffffffffffffffffffffffffffffff\n      and\n      0xffffffffffffffffffffffffffffffffffffffff\n      and\n      dup2\n      mstore\n      0x20\n      add\n      swap1\n      0x01\n      add\n      swap1\n      dup1\n      dup4\n      gt\n      tag_130\n      jumpi\n    tag_129:\n      pop\n      pop\n      pop\n      pop\n      pop\n      swap1\n      pop\n        /* \"contracts/coins/Coin.sol\":1434:1527  function getPayers() external view returns (address[] memory) {... */\n      swap1\n      jump\t// out\n        /* \"@openzeppelin/contracts/token/ERC20/ERC20.sol\":3242:3348  function totalSupply() public view virtual override returns (uint256) {... */\n    tag_44:\n        /* \"@openzeppelin/contracts/token/ERC20/ERC20.sol\":3303:3310  uint256 */\n      0x00\n        /* \"@openzeppelin/contracts/token/ERC20/ERC20.sol\":3329:3341  _totalSupply */\n      sload(0x02)\n        /* \"@openzeppelin/contracts/token/ERC20/ERC20.sol\":3322:3341  return _totalSupply */\n      swap1\n      pop\n        /* \"@openzeppelin/contracts/token/ERC20/ERC20.sol\":3242:3348  function totalSupply() public view virtual override returns (uint256) {... */\n      swap1\n      jump\t// out\n        /* \"@openzeppelin/contracts/token/ERC20/ERC20.sol\":5190:5476  function transferFrom(... */\n    tag_50:\n        /* \"@openzeppelin/contracts/token/ERC20/ERC20.sol\":5317:5321  bool */\n      0x00\n        /* \"@openzeppelin/contracts/token/ERC20/ERC20.sol\":5333:5348  address spender */\n      dup1\n        /* \"@openzeppelin/contracts/token/ERC20/ERC20.sol\":5351:5363  _msgSender() */\n      tag_133\n        /* \"@openzeppelin/contracts/token/ERC20/ERC20.sol\":5351:5361  _msgSender */\n      tag_125\n        /* \"@openzeppelin/contracts/token/ERC20/ERC20.sol\":5351:5363  _msgSender() */\n      jump\t// in\n    tag_133:\n        /* \"@openzeppelin/contracts/token/ERC20/ERC20.sol\":5333:5363  address spender = _msgSender() */\n      swap1\n      pop\n        /* \"@openzeppelin/contracts/token/ERC20/ERC20.sol\":5373:5411  _spendAllowance(from, spender, amount) */\n      tag_134\n        /* \"@openzeppelin/contracts/token/ERC20/ERC20.sol\":5389:5393  from */\n      dup6\n        /* \"@openzeppelin/contracts/token/ERC20/ERC20.sol\":5395:5402  spender */\n      dup3\n        /* \"@openzeppelin/contracts/token/ERC20/ERC20.sol\":5404:5410  amount */\n      dup6\n        /* \"@openzeppelin/contracts/token/ERC20/ERC20.sol\":5373:5388  _spendAllowance */\n      tag_135\n        /* \"@openzeppelin/contracts/token/ERC20/ERC20.sol\":5373:5411  _spendAllowance(from, spender, amount) */\n      jump\t// in\n    tag_134:\n        /* \"@openzeppelin/contracts/token/ERC20/ERC20.sol\":5421:5448  _transfer(from, to, amount) */\n      tag_136\n        /* \"@openzeppelin/contracts/token/ERC20/ERC20.sol\":5431:5435  from */\n      dup6\n        /* \"@openzeppelin/contracts/token/ERC20/ERC20.sol\":5437:5439  to */\n      dup6\n        /* \"@openzeppelin/contracts/token/ERC20/ERC20.sol\":5441:5447  amount */\n      dup6\n        /* \"@openzeppelin/contracts/token/ERC20/ERC20.sol\":5421:5430  _transfer */\n      tag_137\n        /* \"@openzeppelin/contracts/token/ERC20/ERC20.sol\":5421:5448  _transfer(from, to, amount) */\n      jump\t// in\n    tag_136:\n        /* \"@openzeppelin/contracts/token/ERC20/ERC20.sol\":5465:5469  true */\n      0x01\n        /* \"@openzeppelin/contracts/token/ERC20/ERC20.sol\":5458:5469  return true */\n      swap2\n      pop\n      pop\n        /* \"@openzeppelin/contracts/token/ERC20/ERC20.sol\":5190:5476  function transferFrom(... */\n      swap4\n      swap3\n      pop\n      pop\n      pop\n      jump\t// out\n        /* \"@openzeppelin/contracts/token/ERC20/ERC20.sol\":3091:3182  function decimals() public view virtual override returns (uint8) {... */\n    tag_53:\n        /* \"@openzeppelin/contracts/token/ERC20/ERC20.sol\":3149:3154  uint8 */\n      0x00\n        /* \"@openzeppelin/contracts/token/ERC20/ERC20.sol\":3173:3175  18 */\n      0x12\n        /* \"@openzeppelin/contracts/token/ERC20/ERC20.sol\":3166:3175  return 18 */\n      swap1\n      pop\n        /* \"@openzeppelin/contracts/token/ERC20/ERC20.sol\":3091:3182  function decimals() public view virtual override returns (uint8) {... */\n      swap1\n      jump\t// out\n        /* \"@openzeppelin/contracts/token/ERC20/ERC20.sol\":5871:6105  function increaseAllowance(address spender, uint256 addedValue) public virtual returns (bool) {... */\n    tag_58:\n        /* \"@openzeppelin/contracts/token/ERC20/ERC20.sol\":5959:5963  bool */\n      0x00\n        /* \"@openzeppelin/contracts/token/ERC20/ERC20.sol\":5975:5988  address owner */\n      dup1\n        /* \"@openzeppelin/contracts/token/ERC20/ERC20.sol\":5991:6003  _msgSender() */\n      tag_140\n        /* \"@openzeppelin/contracts/token/ERC20/ERC20.sol\":5991:6001  _msgSender */\n      tag_125\n        /* \"@openzeppelin/contracts/token/ERC20/ERC20.sol\":5991:6003  _msgSender() */\n      jump\t// in\n    tag_140:\n        /* \"@openzeppelin/contracts/token/ERC20/ERC20.sol\":5975:6003  address owner = _msgSender() */\n      swap1\n      pop\n        /* \"@openzeppelin/contracts/token/ERC20/ERC20.sol\":6013:6077  _approve(owner, spender, allowance(owner, spender) + addedValue) */\n      tag_141\n        /* \"@openzeppelin/contracts/token/ERC20/ERC20.sol\":6022:6027  owner */\n      dup2\n        /* \"@openzeppelin/contracts/token/ERC20/ERC20.sol\":6029:6036  spender */\n      dup6\n        /* \"@openzeppelin/contracts/token/ERC20/ERC20.sol\":6066:6076  addedValue */\n      dup6\n        /* \"@openzeppelin/contracts/token/ERC20/ERC20.sol\":6038:6063  allowance(owner, spender) */\n      tag_142\n        /* \"@openzeppelin/contracts/token/ERC20/ERC20.sol\":6048:6053  owner */\n      dup6\n        /* \"@openzeppelin/contracts/token/ERC20/ERC20.sol\":6055:6062  spender */\n      dup10\n        /* \"@openzeppelin/contracts/token/ERC20/ERC20.sol\":6038:6047  allowance */\n      tag_94\n        /* \"@openzeppelin/contracts/token/ERC20/ERC20.sol\":6038:6063  allowance(owner, spender) */\n      jump\t// in\n    tag_142:\n        /* \"@openzeppelin/contracts/token/ERC20/ERC20.sol\":6038:6076  allowance(owner, spender) + addedValue */\n      tag_143\n      swap2\n      swap1\n      tag_144\n      jump\t// in\n    tag_143:\n        /* \"@openzeppelin/contracts/token/ERC20/ERC20.sol\":6013:6021  _approve */\n      tag_127\n        /* \"@openzeppelin/contracts/token/ERC20/ERC20.sol\":6013:6077  _approve(owner, spender, allowance(owner, spender) + addedValue) */\n      jump\t// in\n    tag_141:\n        /* \"@openzeppelin/contracts/token/ERC20/ERC20.sol\":6094:6098  true */\n      0x01\n        /* \"@openzeppelin/contracts/token/ERC20/ERC20.sol\":6087:6098  return true */\n      swap2\n      pop\n      pop\n        /* \"@openzeppelin/contracts/token/ERC20/ERC20.sol\":5871:6105  function increaseAllowance(address spender, uint256 addedValue) public virtual returns (bool) {... */\n      swap3\n      swap2\n      pop\n      pop\n      jump\t// out\n        /* \"@openzeppelin/contracts/token/ERC20/ERC20.sol\":3406:3531  function balanceOf(address account) public view virtual override returns (uint256) {... */\n    tag_62:\n        /* \"@openzeppelin/contracts/token/ERC20/ERC20.sol\":3480:3487  uint256 */\n      0x00\n        /* \"@openzeppelin/contracts/token/ERC20/ERC20.sol\":3506:3515  _balances */\n      dup1\n        /* \"@openzeppelin/contracts/token/ERC20/ERC20.sol\":3506:3524  _balances[account] */\n      0x00\n        /* \"@openzeppelin/contracts/token/ERC20/ERC20.sol\":3516:3523  account */\n      dup4\n        /* \"@openzeppelin/contracts/token/ERC20/ERC20.sol\":3506:3524  _balances[account] */\n      0xffffffffffffffffffffffffffffffffffffffff\n      and\n      0xffffffffffffffffffffffffffffffffffffffff\n      and\n      dup2\n      mstore\n      0x20\n      add\n      swap1\n      dup2\n      mstore\n      0x20\n      add\n      0x00\n      keccak256\n      sload\n        /* \"@openzeppelin/contracts/token/ERC20/ERC20.sol\":3499:3524  return _balances[account] */\n      swap1\n      pop\n        /* \"@openzeppelin/contracts/token/ERC20/ERC20.sol\":3406:3531  function balanceOf(address account) public view virtual override returns (uint256) {... */\n      swap2\n      swap1\n      pop\n      jump\t// out\n        /* \"@openzeppelin/contracts/access/Ownable.sol\":1831:1932  function renounceOwnership() public virtual onlyOwner {... */\n    tag_65:\n        /* \"@openzeppelin/contracts/access/Ownable.sol\":1094:1107  _checkOwner() */\n      tag_147\n        /* \"@openzeppelin/contracts/access/Ownable.sol\":1094:1105  _checkOwner */\n      tag_101\n        /* \"@openzeppelin/contracts/access/Ownable.sol\":1094:1107  _checkOwner() */\n      jump\t// in\n    tag_147:\n        /* \"@openzeppelin/contracts/access/Ownable.sol\":1895:1925  _transferOwnership(address(0)) */\n      tag_149\n        /* \"@openzeppelin/contracts/access/Ownable.sol\":1922:1923  0 */\n      0x00\n        /* \"@openzeppelin/contracts/access/Ownable.sol\":1895:1913  _transferOwnership */\n      tag_150\n        /* \"@openzeppelin/contracts/access/Ownable.sol\":1895:1925  _transferOwnership(address(0)) */\n      jump\t// in\n    tag_149:\n        /* \"@openzeppelin/contracts/access/Ownable.sol\":1831:1932  function renounceOwnership() public virtual onlyOwner {... */\n      jump\t// out\n        /* \"@openzeppelin/contracts/access/Ownable.sol\":1201:1286  function owner() public view virtual returns (address) {... */\n    tag_67:\n        /* \"@openzeppelin/contracts/access/Ownable.sol\":1247:1254  address */\n      0x00\n        /* \"@openzeppelin/contracts/access/Ownable.sol\":1273:1279  _owner */\n      0x05\n      0x00\n      swap1\n      sload\n      swap1\n      0x0100\n      exp\n      swap1\n      div\n      0xffffffffffffffffffffffffffffffffffffffff\n      and\n        /* \"@openzeppelin/contracts/access/Ownable.sol\":1266:1279  return _owner */\n      swap1\n      pop\n        /* \"@openzeppelin/contracts/access/Ownable.sol\":1201:1286  function owner() public view virtual returns (address) {... */\n      swap1\n      jump\t// out\n        /* \"@openzeppelin/contracts/token/ERC20/ERC20.sol\":2365:2467  function symbol() public view virtual override returns (string memory) {... */\n    tag_71:\n        /* \"@openzeppelin/contracts/token/ERC20/ERC20.sol\":2421:2434  string memory */\n      0x60\n        /* \"@openzeppelin/contracts/token/ERC20/ERC20.sol\":2453:2460  _symbol */\n      0x04\n        /* \"@openzeppelin/contracts/token/ERC20/ERC20.sol\":2446:2460  return _symbol */\n      dup1\n      sload\n      tag_153\n      swap1\n      tag_118\n      jump\t// in\n    tag_153:\n      dup1\n      0x1f\n      add\n      0x20\n      dup1\n      swap2\n      div\n      mul\n      0x20\n      add\n      mload(0x40)\n      swap1\n      dup2\n      add\n      0x40\n      mstore\n      dup1\n      swap3\n      swap2\n      swap1\n      dup2\n      dup2\n      mstore\n      0x20\n      add\n      dup3\n      dup1\n      sload\n      tag_154\n      swap1\n      tag_118\n      jump\t// in\n    tag_154:\n      dup1\n      iszero\n      tag_155\n      jumpi\n      dup1\n      0x1f\n      lt\n      tag_156\n      jumpi\n      0x0100\n      dup1\n      dup4\n      sload\n      div\n      mul\n      dup4\n      mstore\n      swap2\n      0x20\n      add\n      swap2\n      jump(tag_155)\n    tag_156:\n      dup3\n      add\n      swap2\n      swap1\n      0x00\n      mstore\n      keccak256(0x00, 0x20)\n      swap1\n    tag_157:\n      dup2\n      sload\n      dup2\n      mstore\n      swap1\n      0x01\n      add\n      swap1\n      0x20\n      add\n      dup1\n      dup4\n      gt\n      tag_157\n      jumpi\n      dup3\n      swap1\n      sub\n      0x1f\n      and\n      dup3\n      add\n      swap2\n    tag_155:\n      pop\n      pop\n      pop\n      pop\n      pop\n      swap1\n      pop\n        /* \"@openzeppelin/contracts/token/ERC20/ERC20.sol\":2365:2467  function symbol() public view virtual override returns (string memory) {... */\n      swap1\n      jump\t// out\n        /* \"contracts/coins/Coin.sol\":797:885  function mint(uint256 amount) external onlyOwner {... */\n    tag_76:\n        /* \"@openzeppelin/contracts/access/Ownable.sol\":1094:1107  _checkOwner() */\n      tag_159\n        /* \"@openzeppelin/contracts/access/Ownable.sol\":1094:1105  _checkOwner */\n      tag_101\n        /* \"@openzeppelin/contracts/access/Ownable.sol\":1094:1107  _checkOwner() */\n      jump\t// in\n    tag_159:\n        /* \"contracts/coins/Coin.sol\":856:878  _mint(owner(), amount) */\n      tag_161\n        /* \"contracts/coins/Coin.sol\":862:869  owner() */\n      tag_162\n        /* \"contracts/coins/Coin.sol\":862:867  owner */\n      tag_67\n        /* \"contracts/coins/Coin.sol\":862:869  owner() */\n      jump\t// in\n    tag_162:\n        /* \"contracts/coins/Coin.sol\":871:877  amount */\n      dup3\n        /* \"contracts/coins/Coin.sol\":856:861  _mint */\n      tag_163\n        /* \"contracts/coins/Coin.sol\":856:878  _mint(owner(), amount) */\n      jump\t// in\n    tag_161:\n        /* \"contracts/coins/Coin.sol\":797:885  function mint(uint256 amount) external onlyOwner {... */\n      pop\n      jump\t// out\n        /* \"@openzeppelin/contracts/token/ERC20/ERC20.sol\":6592:7019  function decreaseAllowance(address spender, uint256 subtractedValue) public virtual returns (bool) {... */\n    tag_79:\n        /* \"@openzeppelin/contracts/token/ERC20/ERC20.sol\":6685:6689  bool */\n      0x00\n        /* \"@openzeppelin/contracts/token/ERC20/ERC20.sol\":6701:6714  address owner */\n      dup1\n        /* \"@openzeppelin/contracts/token/ERC20/ERC20.sol\":6717:6729  _msgSender() */\n      tag_165\n        /* \"@openzeppelin/contracts/token/ERC20/ERC20.sol\":6717:6727  _msgSender */\n      tag_125\n        /* \"@openzeppelin/contracts/token/ERC20/ERC20.sol\":6717:6729  _msgSender() */\n      jump\t// in\n    tag_165:\n        /* \"@openzeppelin/contracts/token/ERC20/ERC20.sol\":6701:6729  address owner = _msgSender() */\n      swap1\n      pop\n        /* \"@openzeppelin/contracts/token/ERC20/ERC20.sol\":6739:6763  uint256 currentAllowance */\n      0x00\n        /* \"@openzeppelin/contracts/token/ERC20/ERC20.sol\":6766:6791  allowance(owner, spender) */\n      tag_166\n        /* \"@openzeppelin/contracts/token/ERC20/ERC20.sol\":6776:6781  owner */\n      dup3\n        /* \"@openzeppelin/contracts/token/ERC20/ERC20.sol\":6783:6790  spender */\n      dup7\n        /* \"@openzeppelin/contracts/token/ERC20/ERC20.sol\":6766:6775  allowance */\n      tag_94\n        /* \"@openzeppelin/contracts/token/ERC20/ERC20.sol\":6766:6791  allowance(owner, spender) */\n      jump\t// in\n    tag_166:\n        /* \"@openzeppelin/contracts/token/ERC20/ERC20.sol\":6739:6791  uint256 currentAllowance = allowance(owner, spender) */\n      swap1\n      pop\n        /* \"@openzeppelin/contracts/token/ERC20/ERC20.sol\":6829:6844  subtractedValue */\n      dup4\n        /* \"@openzeppelin/contracts/token/ERC20/ERC20.sol\":6809:6825  currentAllowance */\n      dup2\n        /* \"@openzeppelin/contracts/token/ERC20/ERC20.sol\":6809:6844  currentAllowance >= subtractedValue */\n      lt\n      iszero\n        /* \"@openzeppelin/contracts/token/ERC20/ERC20.sol\":6801:6886  require(currentAllowance >= subtractedValue, \"ERC20: decreased allowance below zero\") */\n      tag_167\n      jumpi\n      mload(0x40)\n      0x08c379a000000000000000000000000000000000000000000000000000000000\n      dup2\n      mstore\n      0x04\n      add\n      tag_168\n      swap1\n      tag_169\n      jump\t// in\n    tag_168:\n      mload(0x40)\n      dup1\n      swap2\n      sub\n      swap1\n      revert\n    tag_167:\n        /* \"@openzeppelin/contracts/token/ERC20/ERC20.sol\":6920:6980  _approve(owner, spender, currentAllowance - subtractedValue) */\n      tag_170\n        /* \"@openzeppelin/contracts/token/ERC20/ERC20.sol\":6929:6934  owner */\n      dup3\n        /* \"@openzeppelin/contracts/token/ERC20/ERC20.sol\":6936:6943  spender */\n      dup7\n        /* \"@openzeppelin/contracts/token/ERC20/ERC20.sol\":6964:6979  subtractedValue */\n      dup7\n        /* \"@openzeppelin/contracts/token/ERC20/ERC20.sol\":6945:6961  currentAllowance */\n      dup5\n        /* \"@openzeppelin/contracts/token/ERC20/ERC20.sol\":6945:6979  currentAllowance - subtractedValue */\n      sub\n        /* \"@openzeppelin/contracts/token/ERC20/ERC20.sol\":6920:6928  _approve */\n      tag_127\n        /* \"@openzeppelin/contracts/token/ERC20/ERC20.sol\":6920:6980  _approve(owner, spender, currentAllowance - subtractedValue) */\n      jump\t// in\n    tag_170:\n        /* \"@openzeppelin/contracts/token/ERC20/ERC20.sol\":7008:7012  true */\n      0x01\n        /* \"@openzeppelin/contracts/token/ERC20/ERC20.sol\":7001:7012  return true */\n      swap3\n      pop\n      pop\n      pop\n        /* \"@openzeppelin/contracts/token/ERC20/ERC20.sol\":6592:7019  function decreaseAllowance(address spender, uint256 subtractedValue) public virtual returns (bool) {... */\n      swap3\n      swap2\n      pop\n      pop\n      jump\t// out\n        /* \"@openzeppelin/contracts/token/ERC20/ERC20.sol\":3727:3916  function transfer(address to, uint256 amount) public virtual override returns (bool) {... */\n    tag_83:\n        /* \"@openzeppelin/contracts/token/ERC20/ERC20.sol\":3806:3810  bool */\n      0x00\n        /* \"@openzeppelin/contracts/token/ERC20/ERC20.sol\":3822:3835  address owner */\n      dup1\n        /* \"@openzeppelin/contracts/token/ERC20/ERC20.sol\":3838:3850  _msgSender() */\n      tag_172\n        /* \"@openzeppelin/contracts/token/ERC20/ERC20.sol\":3838:3848  _msgSender */\n      tag_125\n        /* \"@openzeppelin/contracts/token/ERC20/ERC20.sol\":3838:3850  _msgSender() */\n      jump\t// in\n    tag_172:\n        /* \"@openzeppelin/contracts/token/ERC20/ERC20.sol\":3822:3850  address owner = _msgSender() */\n      swap1\n      pop\n        /* \"@openzeppelin/contracts/token/ERC20/ERC20.sol\":3860:3888  _transfer(owner, to, amount) */\n      tag_173\n        /* \"@openzeppelin/contracts/token/ERC20/ERC20.sol\":3870:3875  owner */\n      dup2\n        /* \"@openzeppelin/contracts/token/ERC20/ERC20.sol\":3877:3879  to */\n      dup6\n        /* \"@openzeppelin/contracts/token/ERC20/ERC20.sol\":3881:3887  amount */\n      dup6\n        /* \"@openzeppelin/contracts/token/ERC20/ERC20.sol\":3860:3869  _transfer */\n      tag_137\n        /* \"@openzeppelin/contracts/token/ERC20/ERC20.sol\":3860:3888  _transfer(owner, to, amount) */\n      jump\t// in\n    tag_173:\n        /* \"@openzeppelin/contracts/token/ERC20/ERC20.sol\":3905:3909  true */\n      0x01\n        /* \"@openzeppelin/contracts/token/ERC20/ERC20.sol\":3898:3909  return true */\n      swap2\n      pop\n      pop\n        /* \"@openzeppelin/contracts/token/ERC20/ERC20.sol\":3727:3916  function transfer(address to, uint256 amount) public virtual override returns (bool) {... */\n      swap3\n      swap2\n      pop\n      pop\n      jump\t// out\n        /* \"contracts/coins/Coin.sol\":1047:1135  function addPayer(address payer) external onlyOwner {... */\n    tag_87:\n        /* \"@openzeppelin/contracts/access/Ownable.sol\":1094:1107  _checkOwner() */\n      tag_175\n        /* \"@openzeppelin/contracts/access/Ownable.sol\":1094:1105  _checkOwner */\n      tag_101\n        /* \"@openzeppelin/contracts/access/Ownable.sol\":1094:1107  _checkOwner() */\n      jump\t// in\n    tag_175:\n        /* \"contracts/coins/Coin.sol\":1109:1116  _payers */\n      0x06\n        /* \"contracts/coins/Coin.sol\":1122:1127  payer */\n      dup2\n        /* \"contracts/coins/Coin.sol\":1109:1128  _payers.push(payer) */\n      swap1\n      dup1\n      0x01\n      dup2\n      sload\n      add\n      dup1\n      dup3\n      sstore\n      dup1\n      swap2\n      pop\n      pop\n      0x01\n      swap1\n      sub\n      swap1\n      0x00\n      mstore\n      keccak256(0x00, 0x20)\n      add\n      0x00\n      swap1\n      swap2\n      swap1\n      swap2\n      swap1\n      swap2\n      0x0100\n      exp\n      dup2\n      sload\n      dup2\n      0xffffffffffffffffffffffffffffffffffffffff\n      mul\n      not\n      and\n      swap1\n      dup4\n      0xffffffffffffffffffffffffffffffffffffffff\n      and\n      mul\n      or\n      swap1\n      sstore\n      pop\n        /* \"contracts/coins/Coin.sol\":1047:1135  function addPayer(address payer) external onlyOwner {... */\n      pop\n      jump\t// out\n        /* \"contracts/coins/Coin.sol\":909:996  function pay(uint256 amount) external onlyPayer {... */\n    tag_90:\n        /* \"contracts/coins/Coin.sol\":377:387  bool found */\n      0x00\n        /* \"contracts/coins/Coin.sol\":411:420  uint256 i */\n      dup1\n        /* \"contracts/coins/Coin.sol\":406:561  for (uint256 i = 0; i < _payers.length; i++)... */\n    tag_179:\n        /* \"contracts/coins/Coin.sol\":430:437  _payers */\n      0x06\n        /* \"contracts/coins/Coin.sol\":430:444  _payers.length */\n      dup1\n      sload\n      swap1\n      pop\n        /* \"contracts/coins/Coin.sol\":426:427  i */\n      dup2\n        /* \"contracts/coins/Coin.sol\":426:444  i < _payers.length */\n      lt\n        /* \"contracts/coins/Coin.sol\":406:561  for (uint256 i = 0; i < _payers.length; i++)... */\n      iszero\n      tag_180\n      jumpi\n        /* \"contracts/coins/Coin.sol\":481:491  msg.sender */\n      caller\n        /* \"contracts/coins/Coin.sol\":467:491  _payers[i] == msg.sender */\n      0xffffffffffffffffffffffffffffffffffffffff\n      and\n        /* \"contracts/coins/Coin.sol\":467:474  _payers */\n      0x06\n        /* \"contracts/coins/Coin.sol\":475:476  i */\n      dup3\n        /* \"contracts/coins/Coin.sol\":467:477  _payers[i] */\n      dup2\n      sload\n      dup2\n      lt\n      tag_182\n      jumpi\n      tag_183\n      tag_108\n      jump\t// in\n    tag_183:\n    tag_182:\n      swap1\n      0x00\n      mstore\n      keccak256(0x00, 0x20)\n      add\n      0x00\n      swap1\n      sload\n      swap1\n      0x0100\n      exp\n      swap1\n      div\n      0xffffffffffffffffffffffffffffffffffffffff\n      and\n        /* \"contracts/coins/Coin.sol\":467:491  _payers[i] == msg.sender */\n      0xffffffffffffffffffffffffffffffffffffffff\n      and\n      sub\n        /* \"contracts/coins/Coin.sol\":463:561  if (_payers[i] == msg.sender) {... */\n      tag_185\n      jumpi\n        /* \"contracts/coins/Coin.sol\":519:523  true */\n      0x01\n        /* \"contracts/coins/Coin.sol\":511:523  found = true */\n      swap2\n      pop\n        /* \"contracts/coins/Coin.sol\":541:546  break */\n      jump(tag_180)\n        /* \"contracts/coins/Coin.sol\":463:561  if (_payers[i] == msg.sender) {... */\n    tag_185:\n        /* \"contracts/coins/Coin.sol\":446:449  i++ */\n      dup1\n      dup1\n      tag_186\n      swap1\n      tag_115\n      jump\t// in\n    tag_186:\n      swap2\n      pop\n      pop\n        /* \"contracts/coins/Coin.sol\":406:561  for (uint256 i = 0; i < _payers.length; i++)... */\n      jump(tag_179)\n    tag_180:\n      pop\n        /* \"contracts/coins/Coin.sol\":579:584  found */\n      dup1\n        /* \"contracts/coins/Coin.sol\":571:616  require(found, \"msg.sender is not the payer\") */\n      tag_187\n      jumpi\n      mload(0x40)\n      0x08c379a000000000000000000000000000000000000000000000000000000000\n      dup2\n      mstore\n      0x04\n      add\n      tag_188\n      swap1\n      tag_189\n      jump\t// in\n    tag_188:\n      mload(0x40)\n      dup1\n      swap2\n      sub\n      swap1\n      revert\n    tag_187:\n        /* \"contracts/coins/Coin.sol\":967:989  _burn(owner(), amount) */\n      tag_191\n        /* \"contracts/coins/Coin.sol\":973:980  owner() */\n      tag_192\n        /* \"contracts/coins/Coin.sol\":973:978  owner */\n      tag_67\n        /* \"contracts/coins/Coin.sol\":973:980  owner() */\n      jump\t// in\n    tag_192:\n        /* \"contracts/coins/Coin.sol\":982:988  amount */\n      dup4\n        /* \"contracts/coins/Coin.sol\":967:972  _burn */\n      tag_193\n        /* \"contracts/coins/Coin.sol\":967:989  _burn(owner(), amount) */\n      jump\t// in\n    tag_191:\n        /* \"contracts/coins/Coin.sol\":367:634  {... */\n      pop\n        /* \"contracts/coins/Coin.sol\":909:996  function pay(uint256 amount) external onlyPayer {... */\n      pop\n      jump\t// out\n        /* \"@openzeppelin/contracts/token/ERC20/ERC20.sol\":3974:4123  function allowance(address owner, address spender) public view virtual override returns (uint256) {... */\n    tag_94:\n        /* \"@openzeppelin/contracts/token/ERC20/ERC20.sol\":4063:4070  uint256 */\n      0x00\n        /* \"@openzeppelin/contracts/token/ERC20/ERC20.sol\":4089:4100  _allowances */\n      0x01\n        /* \"@openzeppelin/contracts/token/ERC20/ERC20.sol\":4089:4107  _allowances[owner] */\n      0x00\n        /* \"@openzeppelin/contracts/token/ERC20/ERC20.sol\":4101:4106  owner */\n      dup5\n        /* \"@openzeppelin/contracts/token/ERC20/ERC20.sol\":4089:4107  _allowances[owner] */\n      0xffffffffffffffffffffffffffffffffffffffff\n      and\n      0xffffffffffffffffffffffffffffffffffffffff\n      and\n      dup2\n      mstore\n      0x20\n      add\n      swap1\n      dup2\n      mstore\n      0x20\n      add\n      0x00\n      keccak256\n        /* \"@openzeppelin/contracts/token/ERC20/ERC20.sol\":4089:4116  _allowances[owner][spender] */\n      0x00\n        /* \"@openzeppelin/contracts/token/ERC20/ERC20.sol\":4108:4115  spender */\n      dup4\n        /* \"@openzeppelin/contracts/token/ERC20/ERC20.sol\":4089:4116  _allowances[owner][spender] */\n      0xffffffffffffffffffffffffffffffffffffffff\n      and\n      0xffffffffffffffffffffffffffffffffffffffff\n      and\n      dup2\n      mstore\n      0x20\n      add\n      swap1\n      dup2\n      mstore\n      0x20\n      add\n      0x00\n      keccak256\n      sload\n        /* \"@openzeppelin/contracts/token/ERC20/ERC20.sol\":4082:4116  return _allowances[owner][spender] */\n      swap1\n      pop\n        /* \"@openzeppelin/contracts/token/ERC20/ERC20.sol\":3974:4123  function allowance(address owner, address spender) public view virtual override returns (uint256) {... */\n      swap3\n      swap2\n      pop\n      pop\n      jump\t// out\n        /* \"@openzeppelin/contracts/access/Ownable.sol\":2081:2279  function transferOwnership(address newOwner) public virtual onlyOwner {... */\n    tag_98:\n        /* \"@openzeppelin/contracts/access/Ownable.sol\":1094:1107  _checkOwner() */\n      tag_196\n        /* \"@openzeppelin/contracts/access/Ownable.sol\":1094:1105  _checkOwner */\n      tag_101\n        /* \"@openzeppelin/contracts/access/Ownable.sol\":1094:1107  _checkOwner() */\n      jump\t// in\n    tag_196:\n        /* \"@openzeppelin/contracts/access/Ownable.sol\":2189:2190  0 */\n      0x00\n        /* \"@openzeppelin/contracts/access/Ownable.sol\":2169:2191  newOwner != address(0) */\n      0xffffffffffffffffffffffffffffffffffffffff\n      and\n        /* \"@openzeppelin/contracts/access/Ownable.sol\":2169:2177  newOwner */\n      dup2\n        /* \"@openzeppelin/contracts/access/Ownable.sol\":2169:2191  newOwner != address(0) */\n      0xffffffffffffffffffffffffffffffffffffffff\n      and\n      sub\n        /* \"@openzeppelin/contracts/access/Ownable.sol\":2161:2234  require(newOwner != address(0), \"Ownable: new owner is the zero address\") */\n      tag_198\n      jumpi\n      mload(0x40)\n      0x08c379a000000000000000000000000000000000000000000000000000000000\n      dup2\n      mstore\n      0x04\n      add\n      tag_199\n      swap1\n      tag_200\n      jump\t// in\n    tag_199:\n      mload(0x40)\n      dup1\n      swap2\n      sub\n      swap1\n      revert\n    tag_198:\n        /* \"@openzeppelin/contracts/access/Ownable.sol\":2244:2272  _transferOwnership(newOwner) */\n      tag_201\n        /* \"@openzeppelin/contracts/access/Ownable.sol\":2263:2271  newOwner */\n      dup2\n        /* \"@openzeppelin/contracts/access/Ownable.sol\":2244:2262  _transferOwnership */\n      tag_150\n        /* \"@openzeppelin/contracts/access/Ownable.sol\":2244:2272  _transferOwnership(newOwner) */\n      jump\t// in\n    tag_201:\n        /* \"@openzeppelin/contracts/access/Ownable.sol\":2081:2279  function transferOwnership(address newOwner) public virtual onlyOwner {... */\n      pop\n      jump\t// out\n        /* \"@openzeppelin/contracts/access/Ownable.sol\":1359:1489  function _checkOwner() internal view virtual {... */\n    tag_101:\n        /* \"@openzeppelin/contracts/access/Ownable.sol\":1433:1445  _msgSender() */\n      tag_203\n        /* \"@openzeppelin/contracts/access/Ownable.sol\":1433:1443  _msgSender */\n      tag_125\n        /* \"@openzeppelin/contracts/access/Ownable.sol\":1433:1445  _msgSender() */\n      jump\t// in\n    tag_203:\n        /* \"@openzeppelin/contracts/access/Ownable.sol\":1422:1445  owner() == _msgSender() */\n      0xffffffffffffffffffffffffffffffffffffffff\n      and\n        /* \"@openzeppelin/contracts/access/Ownable.sol\":1422:1429  owner() */\n      tag_204\n        /* \"@openzeppelin/contracts/access/Ownable.sol\":1422:1427  owner */\n      tag_67\n        /* \"@openzeppelin/contracts/access/Ownable.sol\":1422:1429  owner() */\n      jump\t// in\n    tag_204:\n        /* \"@openzeppelin/contracts/access/Ownable.sol\":1422:1445  owner() == _msgSender() */\n      0xffffffffffffffffffffffffffffffffffffffff\n      and\n      eq\n        /* \"@openzeppelin/contracts/access/Ownable.sol\":1414:1482  require(owner() == _msgSender(), \"Ownable: caller is not the owner\") */\n      tag_205\n      jumpi\n      mload(0x40)\n      0x08c379a000000000000000000000000000000000000000000000000000000000\n      dup2\n      mstore\n      0x04\n      add\n      tag_206\n      swap1\n      tag_207\n      jump\t// in\n    tag_206:\n      mload(0x40)\n      dup1\n      swap2\n      sub\n      swap1\n      revert\n    tag_205:\n        /* \"@openzeppelin/contracts/access/Ownable.sol\":1359:1489  function _checkOwner() internal view virtual {... */\n      jump\t// out\n        /* \"@openzeppelin/contracts/utils/Context.sol\":640:736  function _msgSender() internal view virtual returns (address) {... */\n    tag_125:\n        /* \"@openzeppelin/contracts/utils/Context.sol\":693:700  address */\n      0x00\n        /* \"@openzeppelin/contracts/utils/Context.sol\":719:729  msg.sender */\n      caller\n        /* \"@openzeppelin/contracts/utils/Context.sol\":712:729  return msg.sender */\n      swap1\n      pop\n        /* \"@openzeppelin/contracts/utils/Context.sol\":640:736  function _msgSender() internal view virtual returns (address) {... */\n      swap1\n      jump\t// out\n        /* \"@openzeppelin/contracts/token/ERC20/ERC20.sol\":10504:10874  function _approve(... */\n    tag_127:\n        /* \"@openzeppelin/contracts/token/ERC20/ERC20.sol\":10652:10653  0 */\n      0x00\n        /* \"@openzeppelin/contracts/token/ERC20/ERC20.sol\":10635:10654  owner != address(0) */\n      0xffffffffffffffffffffffffffffffffffffffff\n      and\n        /* \"@openzeppelin/contracts/token/ERC20/ERC20.sol\":10635:10640  owner */\n      dup4\n        /* \"@openzeppelin/contracts/token/ERC20/ERC20.sol\":10635:10654  owner != address(0) */\n      0xffffffffffffffffffffffffffffffffffffffff\n      and\n      sub\n        /* \"@openzeppelin/contracts/token/ERC20/ERC20.sol\":10627:10695  require(owner != address(0), \"ERC20: approve from the zero address\") */\n      tag_210\n      jumpi\n      mload(0x40)\n      0x08c379a000000000000000000000000000000000000000000000000000000000\n      dup2\n      mstore\n      0x04\n      add\n      tag_211\n      swap1\n      tag_212\n      jump\t// in\n    tag_211:\n      mload(0x40)\n      dup1\n      swap2\n      sub\n      swap1\n      revert\n    tag_210:\n        /* \"@openzeppelin/contracts/token/ERC20/ERC20.sol\":10732:10733  0 */\n      0x00\n        /* \"@openzeppelin/contracts/token/ERC20/ERC20.sol\":10713:10734  spender != address(0) */\n      0xffffffffffffffffffffffffffffffffffffffff\n      and\n        /* \"@openzeppelin/contracts/token/ERC20/ERC20.sol\":10713:10720  spender */\n      dup3\n        /* \"@openzeppelin/contracts/token/ERC20/ERC20.sol\":10713:10734  spender != address(0) */\n      0xffffffffffffffffffffffffffffffffffffffff\n      and\n      sub\n        /* \"@openzeppelin/contracts/token/ERC20/ERC20.sol\":10705:10773  require(spender != address(0), \"ERC20: approve to the zero address\") */\n      tag_213\n      jumpi\n      mload(0x40)\n      0x08c379a000000000000000000000000000000000000000000000000000000000\n      dup2\n      mstore\n      0x04\n      add\n      tag_214\n      swap1\n      tag_215\n      jump\t// in\n    tag_214:\n      mload(0x40)\n      dup1\n      swap2\n      sub\n      swap1\n      revert\n    tag_213:\n        /* \"@openzeppelin/contracts/token/ERC20/ERC20.sol\":10814:10820  amount */\n      dup1\n        /* \"@openzeppelin/contracts/token/ERC20/ERC20.sol\":10784:10795  _allowances */\n      0x01\n        /* \"@openzeppelin/contracts/token/ERC20/ERC20.sol\":10784:10802  _allowances[owner] */\n      0x00\n        /* \"@openzeppelin/contracts/token/ERC20/ERC20.sol\":10796:10801  owner */\n      dup6\n        /* \"@openzeppelin/contracts/token/ERC20/ERC20.sol\":10784:10802  _allowances[owner] */\n      0xffffffffffffffffffffffffffffffffffffffff\n      and\n      0xffffffffffffffffffffffffffffffffffffffff\n      and\n      dup2\n      mstore\n      0x20\n      add\n      swap1\n      dup2\n      mstore\n      0x20\n      add\n      0x00\n      keccak256\n        /* \"@openzeppelin/contracts/token/ERC20/ERC20.sol\":10784:10811  _allowances[owner][spender] */\n      0x00\n        /* \"@openzeppelin/contracts/token/ERC20/ERC20.sol\":10803:10810  spender */\n      dup5\n        /* \"@openzeppelin/contracts/token/ERC20/ERC20.sol\":10784:10811  _allowances[owner][spender] */\n      0xffffffffffffffffffffffffffffffffffffffff\n      and\n      0xffffffffffffffffffffffffffffffffffffffff\n      and\n      dup2\n      mstore\n      0x20\n      add\n      swap1\n      dup2\n      mstore\n      0x20\n      add\n      0x00\n      keccak256\n        /* \"@openzeppelin/contracts/token/ERC20/ERC20.sol\":10784:10820  _allowances[owner][spender] = amount */\n      dup2\n      swap1\n      sstore\n      pop\n        /* \"@openzeppelin/contracts/token/ERC20/ERC20.sol\":10851:10858  spender */\n      dup2\n        /* \"@openzeppelin/contracts/token/ERC20/ERC20.sol\":10835:10867  Approval(owner, spender, amount) */\n      0xffffffffffffffffffffffffffffffffffffffff\n      and\n        /* \"@openzeppelin/contracts/token/ERC20/ERC20.sol\":10844:10849  owner */\n      dup4\n        /* \"@openzeppelin/contracts/token/ERC20/ERC20.sol\":10835:10867  Approval(owner, spender, amount) */\n      0xffffffffffffffffffffffffffffffffffffffff\n      and\n      0x8c5be1e5ebec7d5bd14f71427d1e84f3dd0314c0f7b2291e5b200ac8c7c3b925\n        /* \"@openzeppelin/contracts/token/ERC20/ERC20.sol\":10860:10866  amount */\n      dup4\n        /* \"@openzeppelin/contracts/token/ERC20/ERC20.sol\":10835:10867  Approval(owner, spender, amount) */\n      mload(0x40)\n      tag_216\n      swap2\n      swap1\n      tag_46\n      jump\t// in\n    tag_216:\n      mload(0x40)\n      dup1\n      swap2\n      sub\n      swap1\n      log3\n        /* \"@openzeppelin/contracts/token/ERC20/ERC20.sol\":10504:10874  function _approve(... */\n      pop\n      pop\n      pop\n      jump\t// out\n        /* \"@openzeppelin/contracts/token/ERC20/ERC20.sol\":11155:11596  function _spendAllowance(... */\n    tag_135:\n        /* \"@openzeppelin/contracts/token/ERC20/ERC20.sol\":11285:11309  uint256 currentAllowance */\n      0x00\n        /* \"@openzeppelin/contracts/token/ERC20/ERC20.sol\":11312:11337  allowance(owner, spender) */\n      tag_218\n        /* \"@openzeppelin/contracts/token/ERC20/ERC20.sol\":11322:11327  owner */\n      dup5\n        /* \"@openzeppelin/contracts/token/ERC20/ERC20.sol\":11329:11336  spender */\n      dup5\n        /* \"@openzeppelin/contracts/token/ERC20/ERC20.sol\":11312:11321  allowance */\n      tag_94\n        /* \"@openzeppelin/contracts/token/ERC20/ERC20.sol\":11312:11337  allowance(owner, spender) */\n      jump\t// in\n    tag_218:\n        /* \"@openzeppelin/contracts/token/ERC20/ERC20.sol\":11285:11337  uint256 currentAllowance = allowance(owner, spender) */\n      swap1\n      pop\n        /* \"@openzeppelin/contracts/token/ERC20/ERC20.sol\":11371:11388  type(uint256).max */\n      0xffffffffffffffffffffffffffffffffffffffffffffffffffffffffffffffff\n        /* \"@openzeppelin/contracts/token/ERC20/ERC20.sol\":11351:11367  currentAllowance */\n      dup2\n        /* \"@openzeppelin/contracts/token/ERC20/ERC20.sol\":11351:11388  currentAllowance != type(uint256).max */\n      eq\n        /* \"@openzeppelin/contracts/token/ERC20/ERC20.sol\":11347:11590  if (currentAllowance != type(uint256).max) {... */\n      tag_219\n      jumpi\n        /* \"@openzeppelin/contracts/token/ERC20/ERC20.sol\":11432:11438  amount */\n      dup2\n        /* \"@openzeppelin/contracts/token/ERC20/ERC20.sol\":11412:11428  currentAllowance */\n      dup2\n        /* \"@openzeppelin/contracts/token/ERC20/ERC20.sol\":11412:11438  currentAllowance >= amount */\n      lt\n      iszero\n        /* \"@openzeppelin/contracts/token/ERC20/ERC20.sol\":11404:11472  require(currentAllowance >= amount, \"ERC20: insufficient allowance\") */\n      tag_220\n      jumpi\n      mload(0x40)\n      0x08c379a000000000000000000000000000000000000000000000000000000000\n      dup2\n      mstore\n      0x04\n      add\n      tag_221\n      swap1\n      tag_222\n      jump\t// in\n    tag_221:\n      mload(0x40)\n      dup1\n      swap2\n      sub\n      swap1\n      revert\n    tag_220:\n        /* \"@openzeppelin/contracts/token/ERC20/ERC20.sol\":11514:11565  _approve(owner, spender, currentAllowance - amount) */\n      tag_223\n        /* \"@openzeppelin/contracts/token/ERC20/ERC20.sol\":11523:11528  owner */\n      dup5\n        /* \"@openzeppelin/contracts/token/ERC20/ERC20.sol\":11530:11537  spender */\n      dup5\n        /* \"@openzeppelin/contracts/token/ERC20/ERC20.sol\":11558:11564  amount */\n      dup5\n        /* \"@openzeppelin/contracts/token/ERC20/ERC20.sol\":11539:11555  currentAllowance */\n      dup5\n        /* \"@openzeppelin/contracts/token/ERC20/ERC20.sol\":11539:11564  currentAllowance - amount */\n      sub\n        /* \"@openzeppelin/contracts/token/ERC20/ERC20.sol\":11514:11522  _approve */\n      tag_127\n        /* \"@openzeppelin/contracts/token/ERC20/ERC20.sol\":11514:11565  _approve(owner, spender, currentAllowance - amount) */\n      jump\t// in\n    tag_223:\n        /* \"@openzeppelin/contracts/token/ERC20/ERC20.sol\":11347:11590  if (currentAllowance != type(uint256).max) {... */\n    tag_219:\n        /* \"@openzeppelin/contracts/token/ERC20/ERC20.sol\":11275:11596  {... */\n      pop\n        /* \"@openzeppelin/contracts/token/ERC20/ERC20.sol\":11155:11596  function _spendAllowance(... */\n      pop\n      pop\n      pop\n      jump\t// out\n        /* \"@openzeppelin/contracts/token/ERC20/ERC20.sol\":7473:8291  function _transfer(... */\n    tag_137:\n        /* \"@openzeppelin/contracts/token/ERC20/ERC20.sol\":7615:7616  0 */\n      0x00\n        /* \"@openzeppelin/contracts/token/ERC20/ERC20.sol\":7599:7617  from != address(0) */\n      0xffffffffffffffffffffffffffffffffffffffff\n      and\n        /* \"@openzeppelin/contracts/token/ERC20/ERC20.sol\":7599:7603  from */\n      dup4\n        /* \"@openzeppelin/contracts/token/ERC20/ERC20.sol\":7599:7617  from != address(0) */\n      0xffffffffffffffffffffffffffffffffffffffff\n      and\n      sub\n        /* \"@openzeppelin/contracts/token/ERC20/ERC20.sol\":7591:7659  require(from != address(0), \"ERC20: transfer from the zero address\") */\n      tag_225\n      jumpi\n      mload(0x40)\n      0x08c379a000000000000000000000000000000000000000000000000000000000\n      dup2\n      mstore\n      0x04\n      add\n      tag_226\n      swap1\n      tag_227\n      jump\t// in\n    tag_226:\n      mload(0x40)\n      dup1\n      swap2\n      sub\n      swap1\n      revert\n    tag_225:\n        /* \"@openzeppelin/contracts/token/ERC20/ERC20.sol\":7691:7692  0 */\n      0x00\n        /* \"@openzeppelin/contracts/token/ERC20/ERC20.sol\":7677:7693  to != address(0) */\n      0xffffffffffffffffffffffffffffffffffffffff\n      and\n        /* \"@openzeppelin/contracts/token/ERC20/ERC20.sol\":7677:7679  to */\n      dup3\n        /* \"@openzeppelin/contracts/token/ERC20/ERC20.sol\":7677:7693  to != address(0) */\n      0xffffffffffffffffffffffffffffffffffffffff\n      and\n      sub\n        /* \"@openzeppelin/contracts/token/ERC20/ERC20.sol\":7669:7733  require(to != address(0), \"ERC20: transfer to the zero address\") */\n      tag_228\n      jumpi\n      mload(0x40)\n      0x08c379a000000000000000000000000000000000000000000000000000000000\n      dup2\n      mstore\n      0x04\n      add\n      tag_229\n      swap1\n      tag_230\n      jump\t// in\n    tag_229:\n      mload(0x40)\n      dup1\n      swap2\n      sub\n      swap1\n      revert\n    tag_228:\n        /* \"@openzeppelin/contracts/token/ERC20/ERC20.sol\":7744:7782  _beforeTokenTransfer(from, to, amount) */\n      tag_231\n        /* \"@openzeppelin/contracts/token/ERC20/ERC20.sol\":7765:7769  from */\n      dup4\n        /* \"@openzeppelin/contracts/token/ERC20/ERC20.sol\":7771:7773  to */\n      dup4\n        /* \"@openzeppelin/contracts/token/ERC20/ERC20.sol\":7775:7781  amount */\n      dup4\n        /* \"@openzeppelin/contracts/token/ERC20/ERC20.sol\":7744:7764  _beforeTokenTransfer */\n      tag_232\n        /* \"@openzeppelin/contracts/token/ERC20/ERC20.sol\":7744:7782  _beforeTokenTransfer(from, to, amount) */\n      jump\t// in\n    tag_231:\n        /* \"@openzeppelin/contracts/token/ERC20/ERC20.sol\":7793:7812  uint256 fromBalance */\n      0x00\n        /* \"@openzeppelin/contracts/token/ERC20/ERC20.sol\":7815:7824  _balances */\n      dup1\n        /* \"@openzeppelin/contracts/token/ERC20/ERC20.sol\":7815:7830  _balances[from] */\n      0x00\n        /* \"@openzeppelin/contracts/token/ERC20/ERC20.sol\":7825:7829  from */\n      dup6\n        /* \"@openzeppelin/contracts/token/ERC20/ERC20.sol\":7815:7830  _balances[from] */\n      0xffffffffffffffffffffffffffffffffffffffff\n      and\n      0xffffffffffffffffffffffffffffffffffffffff\n      and\n      dup2\n      mstore\n      0x20\n      add\n      swap1\n      dup2\n      mstore\n      0x20\n      add\n      0x00\n      keccak256\n      sload\n        /* \"@openzeppelin/contracts/token/ERC20/ERC20.sol\":7793:7830  uint256 fromBalance = _balances[from] */\n      swap1\n      pop\n        /* \"@openzeppelin/contracts/token/ERC20/ERC20.sol\":7863:7869  amount */\n      dup2\n        /* \"@openzeppelin/contracts/token/ERC20/ERC20.sol\":7848:7859  fromBalance */\n      dup2\n        /* \"@openzeppelin/contracts/token/ERC20/ERC20.sol\":7848:7869  fromBalance >= amount */\n      lt\n      iszero\n        /* \"@openzeppelin/contracts/token/ERC20/ERC20.sol\":7840:7912  require(fromBalance >= amount, \"ERC20: transfer amount exceeds balance\") */\n      tag_233\n      jumpi\n      mload(0x40)\n      0x08c379a000000000000000000000000000000000000000000000000000000000\n      dup2\n      mstore\n      0x04\n      add\n      tag_234\n      swap1\n      tag_235\n      jump\t// in\n    tag_234:\n      mload(0x40)\n      dup1\n      swap2\n      sub\n      swap1\n      revert\n    tag_233:\n        /* \"@openzeppelin/contracts/token/ERC20/ERC20.sol\":7978:7984  amount */\n      dup2\n        /* \"@openzeppelin/contracts/token/ERC20/ERC20.sol\":7964:7975  fromBalance */\n      dup2\n        /* \"@openzeppelin/contracts/token/ERC20/ERC20.sol\":7964:7984  fromBalance - amount */\n      sub\n        /* \"@openzeppelin/contracts/token/ERC20/ERC20.sol\":7946:7955  _balances */\n      0x00\n        /* \"@openzeppelin/contracts/token/ERC20/ERC20.sol\":7946:7961  _balances[from] */\n      dup1\n        /* \"@openzeppelin/contracts/token/ERC20/ERC20.sol\":7956:7960  from */\n      dup7\n        /* \"@openzeppelin/contracts/token/ERC20/ERC20.sol\":7946:7961  _balances[from] */\n      0xffffffffffffffffffffffffffffffffffffffff\n      and\n      0xffffffffffffffffffffffffffffffffffffffff\n      and\n      dup2\n      mstore\n      0x20\n      add\n      swap1\n      dup2\n      mstore\n      0x20\n      add\n      0x00\n      keccak256\n        /* \"@openzeppelin/contracts/token/ERC20/ERC20.sol\":7946:7984  _balances[from] = fromBalance - amount */\n      dup2\n      swap1\n      sstore\n      pop\n        /* \"@openzeppelin/contracts/token/ERC20/ERC20.sol\":8178:8184  amount */\n      dup2\n        /* \"@openzeppelin/contracts/token/ERC20/ERC20.sol\":8161:8170  _balances */\n      0x00\n        /* \"@openzeppelin/contracts/token/ERC20/ERC20.sol\":8161:8174  _balances[to] */\n      dup1\n        /* \"@openzeppelin/contracts/token/ERC20/ERC20.sol\":8171:8173  to */\n      dup6\n        /* \"@openzeppelin/contracts/token/ERC20/ERC20.sol\":8161:8174  _balances[to] */\n      0xffffffffffffffffffffffffffffffffffffffff\n      and\n      0xffffffffffffffffffffffffffffffffffffffff\n      and\n      dup2\n      mstore\n      0x20\n      add\n      swap1\n      dup2\n      mstore\n      0x20\n      add\n      0x00\n      keccak256\n      0x00\n        /* \"@openzeppelin/contracts/token/ERC20/ERC20.sol\":8161:8184  _balances[to] += amount */\n      dup3\n      dup3\n      sload\n      add\n      swap3\n      pop\n      pop\n      dup2\n      swap1\n      sstore\n      pop\n        /* \"@openzeppelin/contracts/token/ERC20/ERC20.sol\":8225:8227  to */\n      dup3\n        /* \"@openzeppelin/contracts/token/ERC20/ERC20.sol\":8210:8236  Transfer(from, to, amount) */\n      0xffffffffffffffffffffffffffffffffffffffff\n      and\n        /* \"@openzeppelin/contracts/token/ERC20/ERC20.sol\":8219:8223  from */\n      dup5\n        /* \"@openzeppelin/contracts/token/ERC20/ERC20.sol\":8210:8236  Transfer(from, to, amount) */\n      0xffffffffffffffffffffffffffffffffffffffff\n      and\n      0xddf252ad1be2c89b69c2b068fc378daa952ba7f163c4a11628f55a4df523b3ef\n        /* \"@openzeppelin/contracts/token/ERC20/ERC20.sol\":8229:8235  amount */\n      dup5\n        /* \"@openzeppelin/contracts/token/ERC20/ERC20.sol\":8210:8236  Transfer(from, to, amount) */\n      mload(0x40)\n      tag_236\n      swap2\n      swap1\n      tag_46\n      jump\t// in\n    tag_236:\n      mload(0x40)\n      dup1\n      swap2\n      sub\n      swap1\n      log3\n        /* \"@openzeppelin/contracts/token/ERC20/ERC20.sol\":8247:8284  _afterTokenTransfer(from, to, amount) */\n      tag_237\n        /* \"@openzeppelin/contracts/token/ERC20/ERC20.sol\":8267:8271  from */\n      dup5\n        /* \"@openzeppelin/contracts/token/ERC20/ERC20.sol\":8273:8275  to */\n      dup5\n        /* \"@openzeppelin/contracts/token/ERC20/ERC20.sol\":8277:8283  amount */\n      dup5\n        /* \"@openzeppelin/contracts/token/ERC20/ERC20.sol\":8247:8266  _afterTokenTransfer */\n      tag_238\n        /* \"@openzeppelin/contracts/token/ERC20/ERC20.sol\":8247:8284  _afterTokenTransfer(from, to, amount) */\n      jump\t// in\n    tag_237:\n        /* \"@openzeppelin/contracts/token/ERC20/ERC20.sol\":7581:8291  {... */\n      pop\n        /* \"@openzeppelin/contracts/token/ERC20/ERC20.sol\":7473:8291  function _transfer(... */\n      pop\n      pop\n      pop\n      jump\t// out\n        /* \"@openzeppelin/contracts/access/Ownable.sol\":2433:2620  function _transferOwnership(address newOwner) internal virtual {... */\n    tag_150:\n        /* \"@openzeppelin/contracts/access/Ownable.sol\":2506:2522  address oldOwner */\n      0x00\n        /* \"@openzeppelin/contracts/access/Ownable.sol\":2525:2531  _owner */\n      0x05\n      0x00\n      swap1\n      sload\n      swap1\n      0x0100\n      exp\n      swap1\n      div\n      0xffffffffffffffffffffffffffffffffffffffff\n      and\n        /* \"@openzeppelin/contracts/access/Ownable.sol\":2506:2531  address oldOwner = _owner */\n      swap1\n      pop\n        /* \"@openzeppelin/contracts/access/Ownable.sol\":2550:2558  newOwner */\n      dup2\n        /* \"@openzeppelin/contracts/access/Ownable.sol\":2541:2547  _owner */\n      0x05\n      0x00\n        /* \"@openzeppelin/contracts/access/Ownable.sol\":2541:2558  _owner = newOwner */\n      0x0100\n      exp\n      dup2\n      sload\n      dup2\n      0xffffffffffffffffffffffffffffffffffffffff\n      mul\n      not\n      and\n      swap1\n      dup4\n      0xffffffffffffffffffffffffffffffffffffffff\n      and\n      mul\n      or\n      swap1\n      sstore\n      pop\n        /* \"@openzeppelin/contracts/access/Ownable.sol\":2604:2612  newOwner */\n      dup2\n        /* \"@openzeppelin/contracts/access/Ownable.sol\":2573:2613  OwnershipTransferred(oldOwner, newOwner) */\n      0xffffffffffffffffffffffffffffffffffffffff\n      and\n        /* \"@openzeppelin/contracts/access/Ownable.sol\":2594:2602  oldOwner */\n      dup2\n        /* \"@openzeppelin/contracts/access/Ownable.sol\":2573:2613  OwnershipTransferred(oldOwner, newOwner) */\n      0xffffffffffffffffffffffffffffffffffffffff\n      and\n      0x8be0079c531659141344cd1fd0a4f28419497f9722a3daafe3b4186f6b6457e0\n      mload(0x40)\n      mload(0x40)\n      dup1\n      swap2\n      sub\n      swap1\n      log3\n        /* \"@openzeppelin/contracts/access/Ownable.sol\":2496:2620  {... */\n      pop\n        /* \"@openzeppelin/contracts/access/Ownable.sol\":2433:2620  function _transferOwnership(address newOwner) internal virtual {... */\n      pop\n      jump\t// out\n        /* \"@openzeppelin/contracts/token/ERC20/ERC20.sol\":8567:9102  function _mint(address account, uint256 amount) internal virtual {... */\n    tag_163:\n        /* \"@openzeppelin/contracts/token/ERC20/ERC20.sol\":8669:8670  0 */\n      0x00\n        /* \"@openzeppelin/contracts/token/ERC20/ERC20.sol\":8650:8671  account != address(0) */\n      0xffffffffffffffffffffffffffffffffffffffff\n      and\n        /* \"@openzeppelin/contracts/token/ERC20/ERC20.sol\":8650:8657  account */\n      dup3\n        /* \"@openzeppelin/contracts/token/ERC20/ERC20.sol\":8650:8671  account != address(0) */\n      0xffffffffffffffffffffffffffffffffffffffff\n      and\n      sub\n        /* \"@openzeppelin/contracts/token/ERC20/ERC20.sol\":8642:8707  require(account != address(0), \"ERC20: mint to the zero address\") */\n      tag_241\n      jumpi\n      mload(0x40)\n      0x08c379a000000000000000000000000000000000000000000000000000000000\n      dup2\n      mstore\n      0x04\n      add\n      tag_242\n      swap1\n      tag_243\n      jump\t// in\n    tag_242:\n      mload(0x40)\n      dup1\n      swap2\n      sub\n      swap1\n      revert\n    tag_241:\n        /* \"@openzeppelin/contracts/token/ERC20/ERC20.sol\":8718:8767  _beforeTokenTransfer(address(0), account, amount) */\n      tag_244\n        /* \"@openzeppelin/contracts/token/ERC20/ERC20.sol\":8747:8748  0 */\n      0x00\n        /* \"@openzeppelin/contracts/token/ERC20/ERC20.sol\":8751:8758  account */\n      dup4\n        /* \"@openzeppelin/contracts/token/ERC20/ERC20.sol\":8760:8766  amount */\n      dup4\n        /* \"@openzeppelin/contracts/token/ERC20/ERC20.sol\":8718:8738  _beforeTokenTransfer */\n      tag_232\n        /* \"@openzeppelin/contracts/token/ERC20/ERC20.sol\":8718:8767  _beforeTokenTransfer(address(0), account, amount) */\n      jump\t// in\n    tag_244:\n        /* \"@openzeppelin/contracts/token/ERC20/ERC20.sol\":8794:8800  amount */\n      dup1\n        /* \"@openzeppelin/contracts/token/ERC20/ERC20.sol\":8778:8790  _totalSupply */\n      0x02\n      0x00\n        /* \"@openzeppelin/contracts/token/ERC20/ERC20.sol\":8778:8800  _totalSupply += amount */\n      dup3\n      dup3\n      sload\n      tag_245\n      swap2\n      swap1\n      tag_144\n      jump\t// in\n    tag_245:\n      swap3\n      pop\n      pop\n      dup2\n      swap1\n      sstore\n      pop\n        /* \"@openzeppelin/contracts/token/ERC20/ERC20.sol\":8968:8974  amount */\n      dup1\n        /* \"@openzeppelin/contracts/token/ERC20/ERC20.sol\":8946:8955  _balances */\n      0x00\n        /* \"@openzeppelin/contracts/token/ERC20/ERC20.sol\":8946:8964  _balances[account] */\n      dup1\n        /* \"@openzeppelin/contracts/token/ERC20/ERC20.sol\":8956:8963  account */\n      dup5\n        /* \"@openzeppelin/contracts/token/ERC20/ERC20.sol\":8946:8964  _balances[account] */\n      0xffffffffffffffffffffffffffffffffffffffff\n      and\n      0xffffffffffffffffffffffffffffffffffffffff\n      and\n      dup2\n      mstore\n      0x20\n      add\n      swap1\n      dup2\n      mstore\n      0x20\n      add\n      0x00\n      keccak256\n      0x00\n        /* \"@openzeppelin/contracts/token/ERC20/ERC20.sol\":8946:8974  _balances[account] += amount */\n      dup3\n      dup3\n      sload\n      add\n      swap3\n      pop\n      pop\n      dup2\n      swap1\n      sstore\n      pop\n        /* \"@openzeppelin/contracts/token/ERC20/ERC20.sol\":9020:9027  account */\n      dup2\n        /* \"@openzeppelin/contracts/token/ERC20/ERC20.sol\":8999:9036  Transfer(address(0), account, amount) */\n      0xffffffffffffffffffffffffffffffffffffffff\n      and\n        /* \"@openzeppelin/contracts/token/ERC20/ERC20.sol\":9016:9017  0 */\n      0x00\n        /* \"@openzeppelin/contracts/token/ERC20/ERC20.sol\":8999:9036  Transfer(address(0), account, amount) */\n      0xffffffffffffffffffffffffffffffffffffffff\n      and\n      0xddf252ad1be2c89b69c2b068fc378daa952ba7f163c4a11628f55a4df523b3ef\n        /* \"@openzeppelin/contracts/token/ERC20/ERC20.sol\":9029:9035  amount */\n      dup4\n        /* \"@openzeppelin/contracts/token/ERC20/ERC20.sol\":8999:9036  Transfer(address(0), account, amount) */\n      mload(0x40)\n      tag_246\n      swap2\n      swap1\n      tag_46\n      jump\t// in\n    tag_246:\n      mload(0x40)\n      dup1\n      swap2\n      sub\n      swap1\n      log3\n        /* \"@openzeppelin/contracts/token/ERC20/ERC20.sol\":9047:9095  _afterTokenTransfer(address(0), account, amount) */\n      tag_247\n        /* \"@openzeppelin/contracts/token/ERC20/ERC20.sol\":9075:9076  0 */\n      0x00\n        /* \"@openzeppelin/contracts/token/ERC20/ERC20.sol\":9079:9086  account */\n      dup4\n        /* \"@openzeppelin/contracts/token/ERC20/ERC20.sol\":9088:9094  amount */\n      dup4\n        /* \"@openzeppelin/contracts/token/ERC20/ERC20.sol\":9047:9066  _afterTokenTransfer */\n      tag_238\n        /* \"@openzeppelin/contracts/token/ERC20/ERC20.sol\":9047:9095  _afterTokenTransfer(address(0), account, amount) */\n      jump\t// in\n    tag_247:\n        /* \"@openzeppelin/contracts/token/ERC20/ERC20.sol\":8567:9102  function _mint(address account, uint256 amount) internal virtual {... */\n      pop\n      pop\n      jump\t// out\n        /* \"@openzeppelin/contracts/token/ERC20/ERC20.sol\":9422:10081  function _burn(address account, uint256 amount) internal virtual {... */\n    tag_193:\n        /* \"@openzeppelin/contracts/token/ERC20/ERC20.sol\":9524:9525  0 */\n      0x00\n        /* \"@openzeppelin/contracts/token/ERC20/ERC20.sol\":9505:9526  account != address(0) */\n      0xffffffffffffffffffffffffffffffffffffffff\n      and\n        /* \"@openzeppelin/contracts/token/ERC20/ERC20.sol\":9505:9512  account */\n      dup3\n        /* \"@openzeppelin/contracts/token/ERC20/ERC20.sol\":9505:9526  account != address(0) */\n      0xffffffffffffffffffffffffffffffffffffffff\n      and\n      sub\n        /* \"@openzeppelin/contracts/token/ERC20/ERC20.sol\":9497:9564  require(account != address(0), \"ERC20: burn from the zero address\") */\n      tag_249\n      jumpi\n      mload(0x40)\n      0x08c379a000000000000000000000000000000000000000000000000000000000\n      dup2\n      mstore\n      0x04\n      add\n      tag_250\n      swap1\n      tag_251\n      jump\t// in\n    tag_250:\n      mload(0x40)\n      dup1\n      swap2\n      sub\n      swap1\n      revert\n    tag_249:\n        /* \"@openzeppelin/contracts/token/ERC20/ERC20.sol\":9575:9624  _beforeTokenTransfer(account, address(0), amount) */\n      tag_252\n        /* \"@openzeppelin/contracts/token/ERC20/ERC20.sol\":9596:9603  account */\n      dup3\n        /* \"@openzeppelin/contracts/token/ERC20/ERC20.sol\":9613:9614  0 */\n      0x00\n        /* \"@openzeppelin/contracts/token/ERC20/ERC20.sol\":9617:9623  amount */\n      dup4\n        /* \"@openzeppelin/contracts/token/ERC20/ERC20.sol\":9575:9595  _beforeTokenTransfer */\n      tag_232\n        /* \"@openzeppelin/contracts/token/ERC20/ERC20.sol\":9575:9624  _beforeTokenTransfer(account, address(0), amount) */\n      jump\t// in\n    tag_252:\n        /* \"@openzeppelin/contracts/token/ERC20/ERC20.sol\":9635:9657  uint256 accountBalance */\n      0x00\n        /* \"@openzeppelin/contracts/token/ERC20/ERC20.sol\":9660:9669  _balances */\n      dup1\n        /* \"@openzeppelin/contracts/token/ERC20/ERC20.sol\":9660:9678  _balances[account] */\n      0x00\n        /* \"@openzeppelin/contracts/token/ERC20/ERC20.sol\":9670:9677  account */\n      dup5\n        /* \"@openzeppelin/contracts/token/ERC20/ERC20.sol\":9660:9678  _balances[account] */\n      0xffffffffffffffffffffffffffffffffffffffff\n      and\n      0xffffffffffffffffffffffffffffffffffffffff\n      and\n      dup2\n      mstore\n      0x20\n      add\n      swap1\n      dup2\n      mstore\n      0x20\n      add\n      0x00\n      keccak256\n      sload\n        /* \"@openzeppelin/contracts/token/ERC20/ERC20.sol\":9635:9678  uint256 accountBalance = _balances[account] */\n      swap1\n      pop\n        /* \"@openzeppelin/contracts/token/ERC20/ERC20.sol\":9714:9720  amount */\n      dup2\n        /* \"@openzeppelin/contracts/token/ERC20/ERC20.sol\":9696:9710  accountBalance */\n      dup2\n        /* \"@openzeppelin/contracts/token/ERC20/ERC20.sol\":9696:9720  accountBalance >= amount */\n      lt\n      iszero\n        /* \"@openzeppelin/contracts/token/ERC20/ERC20.sol\":9688:9759  require(accountBalance >= amount, \"ERC20: burn amount exceeds balance\") */\n      tag_253\n      jumpi\n      mload(0x40)\n      0x08c379a000000000000000000000000000000000000000000000000000000000\n      dup2\n      mstore\n      0x04\n      add\n      tag_254\n      swap1\n      tag_255\n      jump\t// in\n    tag_254:\n      mload(0x40)\n      dup1\n      swap2\n      sub\n      swap1\n      revert\n    tag_253:\n        /* \"@openzeppelin/contracts/token/ERC20/ERC20.sol\":9831:9837  amount */\n      dup2\n        /* \"@openzeppelin/contracts/token/ERC20/ERC20.sol\":9814:9828  accountBalance */\n      dup2\n        /* \"@openzeppelin/contracts/token/ERC20/ERC20.sol\":9814:9837  accountBalance - amount */\n      sub\n        /* \"@openzeppelin/contracts/token/ERC20/ERC20.sol\":9793:9802  _balances */\n      0x00\n        /* \"@openzeppelin/contracts/token/ERC20/ERC20.sol\":9793:9811  _balances[account] */\n      dup1\n        /* \"@openzeppelin/contracts/token/ERC20/ERC20.sol\":9803:9810  account */\n      dup6\n        /* \"@openzeppelin/contracts/token/ERC20/ERC20.sol\":9793:9811  _balances[account] */\n      0xffffffffffffffffffffffffffffffffffffffff\n      and\n      0xffffffffffffffffffffffffffffffffffffffff\n      and\n      dup2\n      mstore\n      0x20\n      add\n      swap1\n      dup2\n      mstore\n      0x20\n      add\n      0x00\n      keccak256\n        /* \"@openzeppelin/contracts/token/ERC20/ERC20.sol\":9793:9837  _balances[account] = accountBalance - amount */\n      dup2\n      swap1\n      sstore\n      pop\n        /* \"@openzeppelin/contracts/token/ERC20/ERC20.sol\":9946:9952  amount */\n      dup2\n        /* \"@openzeppelin/contracts/token/ERC20/ERC20.sol\":9930:9942  _totalSupply */\n      0x02\n      0x00\n        /* \"@openzeppelin/contracts/token/ERC20/ERC20.sol\":9930:9952  _totalSupply -= amount */\n      dup3\n      dup3\n      sload\n      sub\n      swap3\n      pop\n      pop\n      dup2\n      swap1\n      sstore\n      pop\n        /* \"@openzeppelin/contracts/token/ERC20/ERC20.sol\":10004:10005  0 */\n      0x00\n        /* \"@openzeppelin/contracts/token/ERC20/ERC20.sol\":9978:10015  Transfer(account, address(0), amount) */\n      0xffffffffffffffffffffffffffffffffffffffff\n      and\n        /* \"@openzeppelin/contracts/token/ERC20/ERC20.sol\":9987:9994  account */\n      dup4\n        /* \"@openzeppelin/contracts/token/ERC20/ERC20.sol\":9978:10015  Transfer(account, address(0), amount) */\n      0xffffffffffffffffffffffffffffffffffffffff\n      and\n      0xddf252ad1be2c89b69c2b068fc378daa952ba7f163c4a11628f55a4df523b3ef\n        /* \"@openzeppelin/contracts/token/ERC20/ERC20.sol\":10008:10014  amount */\n      dup5\n        /* \"@openzeppelin/contracts/token/ERC20/ERC20.sol\":9978:10015  Transfer(account, address(0), amount) */\n      mload(0x40)\n      tag_256\n      swap2\n      swap1\n      tag_46\n      jump\t// in\n    tag_256:\n      mload(0x40)\n      dup1\n      swap2\n      sub\n      swap1\n      log3\n        /* \"@openzeppelin/contracts/token/ERC20/ERC20.sol\":10026:10074  _afterTokenTransfer(account, address(0), amount) */\n      tag_257\n        /* \"@openzeppelin/contracts/token/ERC20/ERC20.sol\":10046:10053  account */\n      dup4\n        /* \"@openzeppelin/contracts/token/ERC20/ERC20.sol\":10063:10064  0 */\n      0x00\n        /* \"@openzeppelin/contracts/token/ERC20/ERC20.sol\":10067:10073  amount */\n      dup5\n        /* \"@openzeppelin/contracts/token/ERC20/ERC20.sol\":10026:10045  _afterTokenTransfer */\n      tag_238\n        /* \"@openzeppelin/contracts/token/ERC20/ERC20.sol\":10026:10074  _afterTokenTransfer(account, address(0), amount) */\n      jump\t// in\n    tag_257:\n        /* \"@openzeppelin/contracts/token/ERC20/ERC20.sol\":9487:10081  {... */\n      pop\n        /* \"@openzeppelin/contracts/token/ERC20/ERC20.sol\":9422:10081  function _burn(address account, uint256 amount) internal virtual {... */\n      pop\n      pop\n      jump\t// out\n        /* \"@openzeppelin/contracts/token/ERC20/ERC20.sol\":12180:12301  function _beforeTokenTransfer(... */\n    tag_232:\n      pop\n      pop\n      pop\n      jump\t// out\n        /* \"@openzeppelin/contracts/token/ERC20/ERC20.sol\":12889:13009  function _afterTokenTransfer(... */\n    tag_238:\n      pop\n      pop\n      pop\n      jump\t// out\n        /* \"#utility.yul\":88:205   */\n    tag_261:\n        /* \"#utility.yul\":197:198   */\n      0x00\n        /* \"#utility.yul\":194:195   */\n      dup1\n        /* \"#utility.yul\":187:199   */\n      revert\n        /* \"#utility.yul\":334:460   */\n    tag_263:\n        /* \"#utility.yul\":371:378   */\n      0x00\n        /* \"#utility.yul\":411:453   */\n      0xffffffffffffffffffffffffffffffffffffffff\n        /* \"#utility.yul\":404:409   */\n      dup3\n        /* \"#utility.yul\":400:454   */\n      and\n        /* \"#utility.yul\":389:454   */\n      swap1\n      pop\n        /* \"#utility.yul\":334:460   */\n      swap2\n      swap1\n      pop\n      jump\t// out\n        /* \"#utility.yul\":466:562   */\n    tag_264:\n        /* \"#utility.yul\":503:510   */\n      0x00\n        /* \"#utility.yul\":532:556   */\n      tag_322\n        /* \"#utility.yul\":550:555   */\n      dup3\n        /* \"#utility.yul\":532:556   */\n      tag_263\n      jump\t// in\n    tag_322:\n        /* \"#utility.yul\":521:556   */\n      swap1\n      pop\n        /* \"#utility.yul\":466:562   */\n      swap2\n      swap1\n      pop\n      jump\t// out\n        /* \"#utility.yul\":568:690   */\n    tag_265:\n        /* \"#utility.yul\":641:665   */\n      tag_324\n        /* \"#utility.yul\":659:664   */\n      dup2\n        /* \"#utility.yul\":641:665   */\n      tag_264\n      jump\t// in\n    tag_324:\n        /* \"#utility.yul\":634:639   */\n      dup2\n        /* \"#utility.yul\":631:666   */\n      eq\n        /* \"#utility.yul\":621:684   */\n      tag_325\n      jumpi\n        /* \"#utility.yul\":680:681   */\n      0x00\n        /* \"#utility.yul\":677:678   */\n      dup1\n        /* \"#utility.yul\":670:682   */\n      revert\n        /* \"#utility.yul\":621:684   */\n    tag_325:\n        /* \"#utility.yul\":568:690   */\n      pop\n      jump\t// out\n        /* \"#utility.yul\":696:835   */\n    tag_266:\n        /* \"#utility.yul\":742:747   */\n      0x00\n        /* \"#utility.yul\":780:786   */\n      dup2\n        /* \"#utility.yul\":767:787   */\n      calldataload\n        /* \"#utility.yul\":758:787   */\n      swap1\n      pop\n        /* \"#utility.yul\":796:829   */\n      tag_327\n        /* \"#utility.yul\":823:828   */\n      dup2\n        /* \"#utility.yul\":796:829   */\n      tag_265\n      jump\t// in\n    tag_327:\n        /* \"#utility.yul\":696:835   */\n      swap3\n      swap2\n      pop\n      pop\n      jump\t// out\n        /* \"#utility.yul\":841:1170   */\n    tag_27:\n        /* \"#utility.yul\":900:906   */\n      0x00\n        /* \"#utility.yul\":949:951   */\n      0x20\n        /* \"#utility.yul\":937:946   */\n      dup3\n        /* \"#utility.yul\":928:935   */\n      dup5\n        /* \"#utility.yul\":924:947   */\n      sub\n        /* \"#utility.yul\":920:952   */\n      slt\n        /* \"#utility.yul\":917:1036   */\n      iszero\n      tag_329\n      jumpi\n        /* \"#utility.yul\":955:1034   */\n      tag_330\n      tag_261\n      jump\t// in\n    tag_330:\n        /* \"#utility.yul\":917:1036   */\n    tag_329:\n        /* \"#utility.yul\":1075:1076   */\n      0x00\n        /* \"#utility.yul\":1100:1153   */\n      tag_331\n        /* \"#utility.yul\":1145:1152   */\n      dup5\n        /* \"#utility.yul\":1136:1142   */\n      dup3\n        /* \"#utility.yul\":1125:1134   */\n      dup6\n        /* \"#utility.yul\":1121:1143   */\n      add\n        /* \"#utility.yul\":1100:1153   */\n      tag_266\n      jump\t// in\n    tag_331:\n        /* \"#utility.yul\":1090:1153   */\n      swap2\n      pop\n        /* \"#utility.yul\":1046:1163   */\n      pop\n        /* \"#utility.yul\":841:1170   */\n      swap3\n      swap2\n      pop\n      pop\n      jump\t// out\n        /* \"#utility.yul\":1176:1275   */\n    tag_267:\n        /* \"#utility.yul\":1228:1234   */\n      0x00\n        /* \"#utility.yul\":1262:1267   */\n      dup2\n        /* \"#utility.yul\":1256:1268   */\n      mload\n        /* \"#utility.yul\":1246:1268   */\n      swap1\n      pop\n        /* \"#utility.yul\":1176:1275   */\n      swap2\n      swap1\n      pop\n      jump\t// out\n        /* \"#utility.yul\":1281:1450   */\n    tag_268:\n        /* \"#utility.yul\":1365:1376   */\n      0x00\n        /* \"#utility.yul\":1399:1405   */\n      dup3\n        /* \"#utility.yul\":1394:1397   */\n      dup3\n        /* \"#utility.yul\":1387:1406   */\n      mstore\n        /* \"#utility.yul\":1439:1443   */\n      0x20\n        /* \"#utility.yul\":1434:1437   */\n      dup3\n        /* \"#utility.yul\":1430:1444   */\n      add\n        /* \"#utility.yul\":1415:1444   */\n      swap1\n      pop\n        /* \"#utility.yul\":1281:1450   */\n      swap3\n      swap2\n      pop\n      pop\n      jump\t// out\n        /* \"#utility.yul\":1456:1702   */\n    tag_269:\n        /* \"#utility.yul\":1537:1538   */\n      0x00\n        /* \"#utility.yul\":1547:1660   */\n    tag_335:\n        /* \"#utility.yul\":1561:1567   */\n      dup4\n        /* \"#utility.yul\":1558:1559   */\n      dup2\n        /* \"#utility.yul\":1555:1568   */\n      lt\n        /* \"#utility.yul\":1547:1660   */\n      iszero\n      tag_337\n      jumpi\n        /* \"#utility.yul\":1646:1647   */\n      dup1\n        /* \"#utility.yul\":1641:1644   */\n      dup3\n        /* \"#utility.yul\":1637:1648   */\n      add\n        /* \"#utility.yul\":1631:1649   */\n      mload\n        /* \"#utility.yul\":1627:1628   */\n      dup2\n        /* \"#utility.yul\":1622:1625   */\n      dup5\n        /* \"#utility.yul\":1618:1629   */\n      add\n        /* \"#utility.yul\":1611:1650   */\n      mstore\n        /* \"#utility.yul\":1583:1585   */\n      0x20\n        /* \"#utility.yul\":1580:1581   */\n      dup2\n        /* \"#utility.yul\":1576:1586   */\n      add\n        /* \"#utility.yul\":1571:1586   */\n      swap1\n      pop\n        /* \"#utility.yul\":1547:1660   */\n      jump(tag_335)\n    tag_337:\n        /* \"#utility.yul\":1694:1695   */\n      0x00\n        /* \"#utility.yul\":1685:1691   */\n      dup5\n        /* \"#utility.yul\":1680:1683   */\n      dup5\n        /* \"#utility.yul\":1676:1692   */\n      add\n        /* \"#utility.yul\":1669:1696   */\n      mstore\n        /* \"#utility.yul\":1518:1702   */\n      pop\n        /* \"#utility.yul\":1456:1702   */\n      pop\n      pop\n      pop\n      jump\t// out\n        /* \"#utility.yul\":1708:1810   */\n    tag_270:\n        /* \"#utility.yul\":1749:1755   */\n      0x00\n        /* \"#utility.yul\":1800:1802   */\n      0x1f\n        /* \"#utility.yul\":1796:1803   */\n      not\n        /* \"#utility.yul\":1791:1793   */\n      0x1f\n        /* \"#utility.yul\":1784:1789   */\n      dup4\n        /* \"#utility.yul\":1780:1794   */\n      add\n        /* \"#utility.yul\":1776:1804   */\n      and\n        /* \"#utility.yul\":1766:1804   */\n      swap1\n      pop\n        /* \"#utility.yul\":1708:1810   */\n      swap2\n      swap1\n      pop\n      jump\t// out\n        /* \"#utility.yul\":1816:2193   */\n    tag_271:\n        /* \"#utility.yul\":1904:1907   */\n      0x00\n        /* \"#utility.yul\":1932:1971   */\n      tag_340\n        /* \"#utility.yul\":1965:1970   */\n      dup3\n        /* \"#utility.yul\":1932:1971   */\n      tag_267\n      jump\t// in\n    tag_340:\n        /* \"#utility.yul\":1987:2058   */\n      tag_341\n        /* \"#utility.yul\":2051:2057   */\n      dup2\n        /* \"#utility.yul\":2046:2049   */\n      dup6\n        /* \"#utility.yul\":1987:2058   */\n      tag_268\n      jump\t// in\n    tag_341:\n        /* \"#utility.yul\":1980:2058   */\n      swap4\n      pop\n        /* \"#utility.yul\":2067:2132   */\n      tag_342\n        /* \"#utility.yul\":2125:2131   */\n      dup2\n        /* \"#utility.yul\":2120:2123   */\n      dup6\n        /* \"#utility.yul\":2113:2117   */\n      0x20\n        /* \"#utility.yul\":2106:2111   */\n      dup7\n        /* \"#utility.yul\":2102:2118   */\n      add\n        /* \"#utility.yul\":2067:2132   */\n      tag_269\n      jump\t// in\n    tag_342:\n        /* \"#utility.yul\":2157:2186   */\n      tag_343\n        /* \"#utility.yul\":2179:2185   */\n      dup2\n        /* \"#utility.yul\":2157:2186   */\n      tag_270\n      jump\t// in\n    tag_343:\n        /* \"#utility.yul\":2152:2155   */\n      dup5\n        /* \"#utility.yul\":2148:2187   */\n      add\n        /* \"#utility.yul\":2141:2187   */\n      swap2\n      pop\n        /* \"#utility.yul\":1908:2193   */\n      pop\n        /* \"#utility.yul\":1816:2193   */\n      swap3\n      swap2\n      pop\n      pop\n      jump\t// out\n        /* \"#utility.yul\":2199:2512   */\n    tag_32:\n        /* \"#utility.yul\":2312:2316   */\n      0x00\n        /* \"#utility.yul\":2350:2352   */\n      0x20\n        /* \"#utility.yul\":2339:2348   */\n      dup3\n        /* \"#utility.yul\":2335:2353   */\n      add\n        /* \"#utility.yul\":2327:2353   */\n      swap1\n      pop\n        /* \"#utility.yul\":2399:2408   */\n      dup2\n        /* \"#utility.yul\":2393:2397   */\n      dup2\n        /* \"#utility.yul\":2389:2409   */\n      sub\n        /* \"#utility.yul\":2385:2386   */\n      0x00\n        /* \"#utility.yul\":2374:2383   */\n      dup4\n        /* \"#utility.yul\":2370:2387   */\n      add\n        /* \"#utility.yul\":2363:2410   */\n      mstore\n        /* \"#utility.yul\":2427:2505   */\n      tag_345\n        /* \"#utility.yul\":2500:2504   */\n      dup2\n        /* \"#utility.yul\":2491:2497   */\n      dup5\n        /* \"#utility.yul\":2427:2505   */\n      tag_271\n      jump\t// in\n    tag_345:\n        /* \"#utility.yul\":2419:2505   */\n      swap1\n      pop\n        /* \"#utility.yul\":2199:2512   */\n      swap3\n      swap2\n      pop\n      pop\n      jump\t// out\n        /* \"#utility.yul\":2518:2595   */\n    tag_272:\n        /* \"#utility.yul\":2555:2562   */\n      0x00\n        /* \"#utility.yul\":2584:2589   */\n      dup2\n        /* \"#utility.yul\":2573:2589   */\n      swap1\n      pop\n        /* \"#utility.yul\":2518:2595   */\n      swap2\n      swap1\n      pop\n      jump\t// out\n        /* \"#utility.yul\":2601:2723   */\n    tag_273:\n        /* \"#utility.yul\":2674:2698   */\n      tag_348\n        /* \"#utility.yul\":2692:2697   */\n      dup2\n        /* \"#utility.yul\":2674:2698   */\n      tag_272\n      jump\t// in\n    tag_348:\n        /* \"#utility.yul\":2667:2672   */\n      dup2\n        /* \"#utility.yul\":2664:2699   */\n      eq\n        /* \"#utility.yul\":2654:2717   */\n      tag_349\n      jumpi\n        /* \"#utility.yul\":2713:2714   */\n      0x00\n        /* \"#utility.yul\":2710:2711   */\n      dup1\n        /* \"#utility.yul\":2703:2715   */\n      revert\n        /* \"#utility.yul\":2654:2717   */\n    tag_349:\n        /* \"#utility.yul\":2601:2723   */\n      pop\n      jump\t// out\n        /* \"#utility.yul\":2729:2868   */\n    tag_274:\n        /* \"#utility.yul\":2775:2780   */\n      0x00\n        /* \"#utility.yul\":2813:2819   */\n      dup2\n        /* \"#utility.yul\":2800:2820   */\n      calldataload\n        /* \"#utility.yul\":2791:2820   */\n      swap1\n      pop\n        /* \"#utility.yul\":2829:2862   */\n      tag_351\n        /* \"#utility.yul\":2856:2861   */\n      dup2\n        /* \"#utility.yul\":2829:2862   */\n      tag_273\n      jump\t// in\n    tag_351:\n        /* \"#utility.yul\":2729:2868   */\n      swap3\n      swap2\n      pop\n      pop\n      jump\t// out\n        /* \"#utility.yul\":2874:3348   */\n    tag_35:\n        /* \"#utility.yul\":2942:2948   */\n      0x00\n        /* \"#utility.yul\":2950:2956   */\n      dup1\n        /* \"#utility.yul\":2999:3001   */\n      0x40\n        /* \"#utility.yul\":2987:2996   */\n      dup4\n        /* \"#utility.yul\":2978:2985   */\n      dup6\n        /* \"#utility.yul\":2974:2997   */\n      sub\n        /* \"#utility.yul\":2970:3002   */\n      slt\n        /* \"#utility.yul\":2967:3086   */\n      iszero\n      tag_353\n      jumpi\n        /* \"#utility.yul\":3005:3084   */\n      tag_354\n      tag_261\n      jump\t// in\n    tag_354:\n        /* \"#utility.yul\":2967:3086   */\n    tag_353:\n        /* \"#utility.yul\":3125:3126   */\n      0x00\n        /* \"#utility.yul\":3150:3203   */\n      tag_355\n        /* \"#utility.yul\":3195:3202   */\n      dup6\n        /* \"#utility.yul\":3186:3192   */\n      dup3\n        /* \"#utility.yul\":3175:3184   */\n      dup7\n        /* \"#utility.yul\":3171:3193   */\n      add\n        /* \"#utility.yul\":3150:3203   */\n      tag_266\n      jump\t// in\n    tag_355:\n        /* \"#utility.yul\":3140:3203   */\n      swap3\n      pop\n        /* \"#utility.yul\":3096:3213   */\n      pop\n        /* \"#utility.yul\":3252:3254   */\n      0x20\n        /* \"#utility.yul\":3278:3331   */\n      tag_356\n        /* \"#utility.yul\":3323:3330   */\n      dup6\n        /* \"#utility.yul\":3314:3320   */\n      dup3\n        /* \"#utility.yul\":3303:3312   */\n      dup7\n        /* \"#utility.yul\":3299:3321   */\n      add\n        /* \"#utility.yul\":3278:3331   */\n      tag_274\n      jump\t// in\n    tag_356:\n        /* \"#utility.yul\":3268:3331   */\n      swap2\n      pop\n        /* \"#utility.yul\":3223:3341   */\n      pop\n        /* \"#utility.yul\":2874:3348   */\n      swap3\n      pop\n      swap3\n      swap1\n      pop\n      jump\t// out\n        /* \"#utility.yul\":3354:3444   */\n    tag_275:\n        /* \"#utility.yul\":3388:3395   */\n      0x00\n        /* \"#utility.yul\":3431:3436   */\n      dup2\n        /* \"#utility.yul\":3424:3437   */\n      iszero\n        /* \"#utility.yul\":3417:3438   */\n      iszero\n        /* \"#utility.yul\":3406:3438   */\n      swap1\n      pop\n        /* \"#utility.yul\":3354:3444   */\n      swap2\n      swap1\n      pop\n      jump\t// out\n        /* \"#utility.yul\":3450:3559   */\n    tag_276:\n        /* \"#utility.yul\":3531:3552   */\n      tag_359\n        /* \"#utility.yul\":3546:3551   */\n      dup2\n        /* \"#utility.yul\":3531:3552   */\n      tag_275\n      jump\t// in\n    tag_359:\n        /* \"#utility.yul\":3526:3529   */\n      dup3\n        /* \"#utility.yul\":3519:3553   */\n      mstore\n        /* \"#utility.yul\":3450:3559   */\n      pop\n      pop\n      jump\t// out\n        /* \"#utility.yul\":3565:3775   */\n    tag_38:\n        /* \"#utility.yul\":3652:3656   */\n      0x00\n        /* \"#utility.yul\":3690:3692   */\n      0x20\n        /* \"#utility.yul\":3679:3688   */\n      dup3\n        /* \"#utility.yul\":3675:3693   */\n      add\n        /* \"#utility.yul\":3667:3693   */\n      swap1\n      pop\n        /* \"#utility.yul\":3703:3768   */\n      tag_361\n        /* \"#utility.yul\":3765:3766   */\n      0x00\n        /* \"#utility.yul\":3754:3763   */\n      dup4\n        /* \"#utility.yul\":3750:3767   */\n      add\n        /* \"#utility.yul\":3741:3747   */\n      dup5\n        /* \"#utility.yul\":3703:3768   */\n      tag_276\n      jump\t// in\n    tag_361:\n        /* \"#utility.yul\":3565:3775   */\n      swap3\n      swap2\n      pop\n      pop\n      jump\t// out\n        /* \"#utility.yul\":3781:3895   */\n    tag_277:\n        /* \"#utility.yul\":3848:3854   */\n      0x00\n        /* \"#utility.yul\":3882:3887   */\n      dup2\n        /* \"#utility.yul\":3876:3888   */\n      mload\n        /* \"#utility.yul\":3866:3888   */\n      swap1\n      pop\n        /* \"#utility.yul\":3781:3895   */\n      swap2\n      swap1\n      pop\n      jump\t// out\n        /* \"#utility.yul\":3901:4085   */\n    tag_278:\n        /* \"#utility.yul\":4000:4011   */\n      0x00\n        /* \"#utility.yul\":4034:4040   */\n      dup3\n        /* \"#utility.yul\":4029:4032   */\n      dup3\n        /* \"#utility.yul\":4022:4041   */\n      mstore\n        /* \"#utility.yul\":4074:4078   */\n      0x20\n        /* \"#utility.yul\":4069:4072   */\n      dup3\n        /* \"#utility.yul\":4065:4079   */\n      add\n        /* \"#utility.yul\":4050:4079   */\n      swap1\n      pop\n        /* \"#utility.yul\":3901:4085   */\n      swap3\n      swap2\n      pop\n      pop\n      jump\t// out\n        /* \"#utility.yul\":4091:4223   */\n    tag_279:\n        /* \"#utility.yul\":4158:4162   */\n      0x00\n        /* \"#utility.yul\":4181:4184   */\n      dup2\n        /* \"#utility.yul\":4173:4184   */\n      swap1\n      pop\n        /* \"#utility.yul\":4211:4215   */\n      0x20\n        /* \"#utility.yul\":4206:4209   */\n      dup3\n        /* \"#utility.yul\":4202:4216   */\n      add\n        /* \"#utility.yul\":4194:4216   */\n      swap1\n      pop\n        /* \"#utility.yul\":4091:4223   */\n      swap2\n      swap1\n      pop\n      jump\t// out\n        /* \"#utility.yul\":4229:4337   */\n    tag_280:\n        /* \"#utility.yul\":4306:4330   */\n      tag_366\n        /* \"#utility.yul\":4324:4329   */\n      dup2\n        /* \"#utility.yul\":4306:4330   */\n      tag_264\n      jump\t// in\n    tag_366:\n        /* \"#utility.yul\":4301:4304   */\n      dup3\n        /* \"#utility.yul\":4294:4331   */\n      mstore\n        /* \"#utility.yul\":4229:4337   */\n      pop\n      pop\n      jump\t// out\n        /* \"#utility.yul\":4343:4522   */\n    tag_281:\n        /* \"#utility.yul\":4412:4422   */\n      0x00\n        /* \"#utility.yul\":4433:4479   */\n      tag_368\n        /* \"#utility.yul\":4475:4478   */\n      dup4\n        /* \"#utility.yul\":4467:4473   */\n      dup4\n        /* \"#utility.yul\":4433:4479   */\n      tag_280\n      jump\t// in\n    tag_368:\n        /* \"#utility.yul\":4511:4515   */\n      0x20\n        /* \"#utility.yul\":4506:4509   */\n      dup4\n        /* \"#utility.yul\":4502:4516   */\n      add\n        /* \"#utility.yul\":4488:4516   */\n      swap1\n      pop\n        /* \"#utility.yul\":4343:4522   */\n      swap3\n      swap2\n      pop\n      pop\n      jump\t// out\n        /* \"#utility.yul\":4528:4641   */\n    tag_282:\n        /* \"#utility.yul\":4598:4602   */\n      0x00\n        /* \"#utility.yul\":4630:4634   */\n      0x20\n        /* \"#utility.yul\":4625:4628   */\n      dup3\n        /* \"#utility.yul\":4621:4635   */\n      add\n        /* \"#utility.yul\":4613:4635   */\n      swap1\n      pop\n        /* \"#utility.yul\":4528:4641   */\n      swap2\n      swap1\n      pop\n      jump\t// out\n        /* \"#utility.yul\":4677:5409   */\n    tag_283:\n        /* \"#utility.yul\":4796:4799   */\n      0x00\n        /* \"#utility.yul\":4825:4879   */\n      tag_371\n        /* \"#utility.yul\":4873:4878   */\n      dup3\n        /* \"#utility.yul\":4825:4879   */\n      tag_277\n      jump\t// in\n    tag_371:\n        /* \"#utility.yul\":4895:4981   */\n      tag_372\n        /* \"#utility.yul\":4974:4980   */\n      dup2\n        /* \"#utility.yul\":4969:4972   */\n      dup6\n        /* \"#utility.yul\":4895:4981   */\n      tag_278\n      jump\t// in\n    tag_372:\n        /* \"#utility.yul\":4888:4981   */\n      swap4\n      pop\n        /* \"#utility.yul\":5005:5061   */\n      tag_373\n        /* \"#utility.yul\":5055:5060   */\n      dup4\n        /* \"#utility.yul\":5005:5061   */\n      tag_279\n      jump\t// in\n    tag_373:\n        /* \"#utility.yul\":5084:5091   */\n      dup1\n        /* \"#utility.yul\":5115:5116   */\n      0x00\n        /* \"#utility.yul\":5100:5384   */\n    tag_374:\n        /* \"#utility.yul\":5125:5131   */\n      dup4\n        /* \"#utility.yul\":5122:5123   */\n      dup2\n        /* \"#utility.yul\":5119:5132   */\n      lt\n        /* \"#utility.yul\":5100:5384   */\n      iszero\n      tag_376\n      jumpi\n        /* \"#utility.yul\":5201:5207   */\n      dup2\n        /* \"#utility.yul\":5195:5208   */\n      mload\n        /* \"#utility.yul\":5228:5291   */\n      tag_377\n        /* \"#utility.yul\":5287:5290   */\n      dup9\n        /* \"#utility.yul\":5272:5285   */\n      dup3\n        /* \"#utility.yul\":5228:5291   */\n      tag_281\n      jump\t// in\n    tag_377:\n        /* \"#utility.yul\":5221:5291   */\n      swap8\n      pop\n        /* \"#utility.yul\":5314:5374   */\n      tag_378\n        /* \"#utility.yul\":5367:5373   */\n      dup4\n        /* \"#utility.yul\":5314:5374   */\n      tag_282\n      jump\t// in\n    tag_378:\n        /* \"#utility.yul\":5304:5374   */\n      swap3\n      pop\n        /* \"#utility.yul\":5160:5384   */\n      pop\n        /* \"#utility.yul\":5147:5148   */\n      0x01\n        /* \"#utility.yul\":5144:5145   */\n      dup2\n        /* \"#utility.yul\":5140:5149   */\n      add\n        /* \"#utility.yul\":5135:5149   */\n      swap1\n      pop\n        /* \"#utility.yul\":5100:5384   */\n      jump(tag_374)\n    tag_376:\n        /* \"#utility.yul\":5104:5118   */\n      pop\n        /* \"#utility.yul\":5400:5403   */\n      dup6\n        /* \"#utility.yul\":5393:5403   */\n      swap4\n      pop\n        /* \"#utility.yul\":4801:5409   */\n      pop\n      pop\n      pop\n        /* \"#utility.yul\":4677:5409   */\n      swap3\n      swap2\n      pop\n      pop\n      jump\t// out\n        /* \"#utility.yul\":5415:5788   */\n    tag_42:\n        /* \"#utility.yul\":5558:5562   */\n      0x00\n        /* \"#utility.yul\":5596:5598   */\n      0x20\n        /* \"#utility.yul\":5585:5594   */\n      dup3\n        /* \"#utility.yul\":5581:5599   */\n      add\n        /* \"#utility.yul\":5573:5599   */\n      swap1\n      pop\n        /* \"#utility.yul\":5645:5654   */\n      dup2\n        /* \"#utility.yul\":5639:5643   */\n      dup2\n        /* \"#utility.yul\":5635:5655   */\n      sub\n        /* \"#utility.yul\":5631:5632   */\n      0x00\n        /* \"#utility.yul\":5620:5629   */\n      dup4\n        /* \"#utility.yul\":5616:5633   */\n      add\n        /* \"#utility.yul\":5609:5656   */\n      mstore\n        /* \"#utility.yul\":5673:5781   */\n      tag_380\n        /* \"#utility.yul\":5776:5780   */\n      dup2\n        /* \"#utility.yul\":5767:5773   */\n      dup5\n        /* \"#utility.yul\":5673:5781   */\n      tag_283\n      jump\t// in\n    tag_380:\n        /* \"#utility.yul\":5665:5781   */\n      swap1\n      pop\n        /* \"#utility.yul\":5415:5788   */\n      swap3\n      swap2\n      pop\n      pop\n      jump\t// out\n        /* \"#utility.yul\":5794:5912   */\n    tag_284:\n        /* \"#utility.yul\":5881:5905   */\n      tag_382\n        /* \"#utility.yul\":5899:5904   */\n      dup2\n        /* \"#utility.yul\":5881:5905   */\n      tag_272\n      jump\t// in\n    tag_382:\n        /* \"#utility.yul\":5876:5879   */\n      dup3\n        /* \"#utility.yul\":5869:5906   */\n      mstore\n        /* \"#utility.yul\":5794:5912   */\n      pop\n      pop\n      jump\t// out\n        /* \"#utility.yul\":5918:6140   */\n    tag_46:\n        /* \"#utility.yul\":6011:6015   */\n      0x00\n        /* \"#utility.yul\":6049:6051   */\n      0x20\n        /* \"#utility.yul\":6038:6047   */\n      dup3\n        /* \"#utility.yul\":6034:6052   */\n      add\n        /* \"#utility.yul\":6026:6052   */\n      swap1\n      pop\n        /* \"#utility.yul\":6062:6133   */\n      tag_384\n        /* \"#utility.yul\":6130:6131   */\n      0x00\n        /* \"#utility.yul\":6119:6128   */\n      dup4\n        /* \"#utility.yul\":6115:6132   */\n      add\n        /* \"#utility.yul\":6106:6112   */\n      dup5\n        /* \"#utility.yul\":6062:6133   */\n      tag_284\n      jump\t// in\n    tag_384:\n        /* \"#utility.yul\":5918:6140   */\n      swap3\n      swap2\n      pop\n      pop\n      jump\t// out\n        /* \"#utility.yul\":6146:6765   */\n    tag_49:\n        /* \"#utility.yul\":6223:6229   */\n      0x00\n        /* \"#utility.yul\":6231:6237   */\n      dup1\n        /* \"#utility.yul\":6239:6245   */\n      0x00\n        /* \"#utility.yul\":6288:6290   */\n      0x60\n        /* \"#utility.yul\":6276:6285   */\n      dup5\n        /* \"#utility.yul\":6267:6274   */\n      dup7\n        /* \"#utility.yul\":6263:6286   */\n      sub\n        /* \"#utility.yul\":6259:6291   */\n      slt\n        /* \"#utility.yul\":6256:6375   */\n      iszero\n      tag_386\n      jumpi\n        /* \"#utility.yul\":6294:6373   */\n      tag_387\n      tag_261\n      jump\t// in\n    tag_387:\n        /* \"#utility.yul\":6256:6375   */\n    tag_386:\n        /* \"#utility.yul\":6414:6415   */\n      0x00\n        /* \"#utility.yul\":6439:6492   */\n      tag_388\n        /* \"#utility.yul\":6484:6491   */\n      dup7\n        /* \"#utility.yul\":6475:6481   */\n      dup3\n        /* \"#utility.yul\":6464:6473   */\n      dup8\n        /* \"#utility.yul\":6460:6482   */\n      add\n        /* \"#utility.yul\":6439:6492   */\n      tag_266\n      jump\t// in\n    tag_388:\n        /* \"#utility.yul\":6429:6492   */\n      swap4\n      pop\n        /* \"#utility.yul\":6385:6502   */\n      pop\n        /* \"#utility.yul\":6541:6543   */\n      0x20\n        /* \"#utility.yul\":6567:6620   */\n      tag_389\n        /* \"#utility.yul\":6612:6619   */\n      dup7\n        /* \"#utility.yul\":6603:6609   */\n      dup3\n        /* \"#utility.yul\":6592:6601   */\n      dup8\n        /* \"#utility.yul\":6588:6610   */\n      add\n        /* \"#utility.yul\":6567:6620   */\n      tag_266\n      jump\t// in\n    tag_389:\n        /* \"#utility.yul\":6557:6620   */\n      swap3\n      pop\n        /* \"#utility.yul\":6512:6630   */\n      pop\n        /* \"#utility.yul\":6669:6671   */\n      0x40\n        /* \"#utility.yul\":6695:6748   */\n      tag_390\n        /* \"#utility.yul\":6740:6747   */\n      dup7\n        /* \"#utility.yul\":6731:6737   */\n      dup3\n        /* \"#utility.yul\":6720:6729   */\n      dup8\n        /* \"#utility.yul\":6716:6738   */\n      add\n        /* \"#utility.yul\":6695:6748   */\n      tag_274\n      jump\t// in\n    tag_390:\n        /* \"#utility.yul\":6685:6748   */\n      swap2\n      pop\n        /* \"#utility.yul\":6640:6758   */\n      pop\n        /* \"#utility.yul\":6146:6765   */\n      swap3\n      pop\n      swap3\n      pop\n      swap3\n      jump\t// out\n        /* \"#utility.yul\":6771:6857   */\n    tag_285:\n        /* \"#utility.yul\":6806:6813   */\n      0x00\n        /* \"#utility.yul\":6846:6850   */\n      0xff\n        /* \"#utility.yul\":6839:6844   */\n      dup3\n        /* \"#utility.yul\":6835:6851   */\n      and\n        /* \"#utility.yul\":6824:6851   */\n      swap1\n      pop\n        /* \"#utility.yul\":6771:6857   */\n      swap2\n      swap1\n      pop\n      jump\t// out\n        /* \"#utility.yul\":6863:6975   */\n    tag_286:\n        /* \"#utility.yul\":6946:6968   */\n      tag_393\n        /* \"#utility.yul\":6962:6967   */\n      dup2\n        /* \"#utility.yul\":6946:6968   */\n      tag_285\n      jump\t// in\n    tag_393:\n        /* \"#utility.yul\":6941:6944   */\n      dup3\n        /* \"#utility.yul\":6934:6969   */\n      mstore\n        /* \"#utility.yul\":6863:6975   */\n      pop\n      pop\n      jump\t// out\n        /* \"#utility.yul\":6981:7195   */\n    tag_55:\n        /* \"#utility.yul\":7070:7074   */\n      0x00\n        /* \"#utility.yul\":7108:7110   */\n      0x20\n        /* \"#utility.yul\":7097:7106   */\n      dup3\n        /* \"#utility.yul\":7093:7111   */\n      add\n        /* \"#utility.yul\":7085:7111   */\n      swap1\n      pop\n        /* \"#utility.yul\":7121:7188   */\n      tag_395\n        /* \"#utility.yul\":7185:7186   */\n      0x00\n        /* \"#utility.yul\":7174:7183   */\n      dup4\n        /* \"#utility.yul\":7170:7187   */\n      add\n        /* \"#utility.yul\":7161:7167   */\n      dup5\n        /* \"#utility.yul\":7121:7188   */\n      tag_286\n      jump\t// in\n    tag_395:\n        /* \"#utility.yul\":6981:7195   */\n      swap3\n      swap2\n      pop\n      pop\n      jump\t// out\n        /* \"#utility.yul\":7201:7319   */\n    tag_287:\n        /* \"#utility.yul\":7288:7312   */\n      tag_397\n        /* \"#utility.yul\":7306:7311   */\n      dup2\n        /* \"#utility.yul\":7288:7312   */\n      tag_264\n      jump\t// in\n    tag_397:\n        /* \"#utility.yul\":7283:7286   */\n      dup3\n        /* \"#utility.yul\":7276:7313   */\n      mstore\n        /* \"#utility.yul\":7201:7319   */\n      pop\n      pop\n      jump\t// out\n        /* \"#utility.yul\":7325:7547   */\n    tag_69:\n        /* \"#utility.yul\":7418:7422   */\n      0x00\n        /* \"#utility.yul\":7456:7458   */\n      0x20\n        /* \"#utility.yul\":7445:7454   */\n      dup3\n        /* \"#utility.yul\":7441:7459   */\n      add\n        /* \"#utility.yul\":7433:7459   */\n      swap1\n      pop\n        /* \"#utility.yul\":7469:7540   */\n      tag_399\n        /* \"#utility.yul\":7537:7538   */\n      0x00\n        /* \"#utility.yul\":7526:7535   */\n      dup4\n        /* \"#utility.yul\":7522:7539   */\n      add\n        /* \"#utility.yul\":7513:7519   */\n      dup5\n        /* \"#utility.yul\":7469:7540   */\n      tag_287\n      jump\t// in\n    tag_399:\n        /* \"#utility.yul\":7325:7547   */\n      swap3\n      swap2\n      pop\n      pop\n      jump\t// out\n        /* \"#utility.yul\":7553:7882   */\n    tag_75:\n        /* \"#utility.yul\":7612:7618   */\n      0x00\n        /* \"#utility.yul\":7661:7663   */\n      0x20\n        /* \"#utility.yul\":7649:7658   */\n      dup3\n        /* \"#utility.yul\":7640:7647   */\n      dup5\n        /* \"#utility.yul\":7636:7659   */\n      sub\n        /* \"#utility.yul\":7632:7664   */\n      slt\n        /* \"#utility.yul\":7629:7748   */\n      iszero\n      tag_401\n      jumpi\n        /* \"#utility.yul\":7667:7746   */\n      tag_402\n      tag_261\n      jump\t// in\n    tag_402:\n        /* \"#utility.yul\":7629:7748   */\n    tag_401:\n        /* \"#utility.yul\":7787:7788   */\n      0x00\n        /* \"#utility.yul\":7812:7865   */\n      tag_403\n        /* \"#utility.yul\":7857:7864   */\n      dup5\n        /* \"#utility.yul\":7848:7854   */\n      dup3\n        /* \"#utility.yul\":7837:7846   */\n      dup6\n        /* \"#utility.yul\":7833:7855   */\n      add\n        /* \"#utility.yul\":7812:7865   */\n      tag_274\n      jump\t// in\n    tag_403:\n        /* \"#utility.yul\":7802:7865   */\n      swap2\n      pop\n        /* \"#utility.yul\":7758:7875   */\n      pop\n        /* \"#utility.yul\":7553:7882   */\n      swap3\n      swap2\n      pop\n      pop\n      jump\t// out\n        /* \"#utility.yul\":7888:8362   */\n    tag_93:\n        /* \"#utility.yul\":7956:7962   */\n      0x00\n        /* \"#utility.yul\":7964:7970   */\n      dup1\n        /* \"#utility.yul\":8013:8015   */\n      0x40\n        /* \"#utility.yul\":8001:8010   */\n      dup4\n        /* \"#utility.yul\":7992:7999   */\n      dup6\n        /* \"#utility.yul\":7988:8011   */\n      sub\n        /* \"#utility.yul\":7984:8016   */\n      slt\n        /* \"#utility.yul\":7981:8100   */\n      iszero\n      tag_405\n      jumpi\n        /* \"#utility.yul\":8019:8098   */\n      tag_406\n      tag_261\n      jump\t// in\n    tag_406:\n        /* \"#utility.yul\":7981:8100   */\n    tag_405:\n        /* \"#utility.yul\":8139:8140   */\n      0x00\n        /* \"#utility.yul\":8164:8217   */\n      tag_407\n        /* \"#utility.yul\":8209:8216   */\n      dup6\n        /* \"#utility.yul\":8200:8206   */\n      dup3\n        /* \"#utility.yul\":8189:8198   */\n      dup7\n        /* \"#utility.yul\":8185:8207   */\n      add\n        /* \"#utility.yul\":8164:8217   */\n      tag_266\n      jump\t// in\n    tag_407:\n        /* \"#utility.yul\":8154:8217   */\n      swap3\n      pop\n        /* \"#utility.yul\":8110:8227   */\n      pop\n        /* \"#utility.yul\":8266:8268   */\n      0x20\n        /* \"#utility.yul\":8292:8345   */\n      tag_408\n        /* \"#utility.yul\":8337:8344   */\n      dup6\n        /* \"#utility.yul\":8328:8334   */\n      dup3\n        /* \"#utility.yul\":8317:8326   */\n      dup7\n        /* \"#utility.yul\":8313:8335   */\n      add\n        /* \"#utility.yul\":8292:8345   */\n      tag_266\n      jump\t// in\n    tag_408:\n        /* \"#utility.yul\":8282:8345   */\n      swap2\n      pop\n        /* \"#utility.yul\":8237:8355   */\n      pop\n        /* \"#utility.yul\":7888:8362   */\n      swap3\n      pop\n      swap3\n      swap1\n      pop\n      jump\t// out\n        /* \"#utility.yul\":8368:8548   */\n    tag_108:\n        /* \"#utility.yul\":8416:8493   */\n      0x4e487b7100000000000000000000000000000000000000000000000000000000\n        /* \"#utility.yul\":8413:8414   */\n      0x00\n        /* \"#utility.yul\":8406:8494   */\n      mstore\n        /* \"#utility.yul\":8513:8517   */\n      0x32\n        /* \"#utility.yul\":8510:8511   */\n      0x04\n        /* \"#utility.yul\":8503:8518   */\n      mstore\n        /* \"#utility.yul\":8537:8541   */\n      0x24\n        /* \"#utility.yul\":8534:8535   */\n      0x00\n        /* \"#utility.yul\":8527:8542   */\n      revert\n        /* \"#utility.yul\":8554:8734   */\n    tag_288:\n        /* \"#utility.yul\":8602:8679   */\n      0x4e487b7100000000000000000000000000000000000000000000000000000000\n        /* \"#utility.yul\":8599:8600   */\n      0x00\n        /* \"#utility.yul\":8592:8680   */\n      mstore\n        /* \"#utility.yul\":8699:8703   */\n      0x11\n        /* \"#utility.yul\":8696:8697   */\n      0x04\n        /* \"#utility.yul\":8689:8704   */\n      mstore\n        /* \"#utility.yul\":8723:8727   */\n      0x24\n        /* \"#utility.yul\":8720:8721   */\n      0x00\n        /* \"#utility.yul\":8713:8728   */\n      revert\n        /* \"#utility.yul\":8740:8973   */\n    tag_115:\n        /* \"#utility.yul\":8779:8782   */\n      0x00\n        /* \"#utility.yul\":8802:8826   */\n      tag_412\n        /* \"#utility.yul\":8820:8825   */\n      dup3\n        /* \"#utility.yul\":8802:8826   */\n      tag_272\n      jump\t// in\n    tag_412:\n        /* \"#utility.yul\":8793:8826   */\n      swap2\n      pop\n        /* \"#utility.yul\":8848:8914   */\n      0xffffffffffffffffffffffffffffffffffffffffffffffffffffffffffffffff\n        /* \"#utility.yul\":8841:8846   */\n      dup3\n        /* \"#utility.yul\":8838:8915   */\n      sub\n        /* \"#utility.yul\":8835:8938   */\n      tag_413\n      jumpi\n        /* \"#utility.yul\":8918:8936   */\n      tag_414\n      tag_288\n      jump\t// in\n    tag_414:\n        /* \"#utility.yul\":8835:8938   */\n    tag_413:\n        /* \"#utility.yul\":8965:8966   */\n      0x01\n        /* \"#utility.yul\":8958:8963   */\n      dup3\n        /* \"#utility.yul\":8954:8967   */\n      add\n        /* \"#utility.yul\":8947:8967   */\n      swap1\n      pop\n        /* \"#utility.yul\":8740:8973   */\n      swap2\n      swap1\n      pop\n      jump\t// out\n        /* \"#utility.yul\":8979:9159   */\n    tag_289:\n        /* \"#utility.yul\":9027:9104   */\n      0x4e487b7100000000000000000000000000000000000000000000000000000000\n        /* \"#utility.yul\":9024:9025   */\n      0x00\n        /* \"#utility.yul\":9017:9105   */\n      mstore\n        /* \"#utility.yul\":9124:9128   */\n      0x22\n        /* \"#utility.yul\":9121:9122   */\n      0x04\n        /* \"#utility.yul\":9114:9129   */\n      mstore\n        /* \"#utility.yul\":9148:9152   */\n      0x24\n        /* \"#utility.yul\":9145:9146   */\n      0x00\n        /* \"#utility.yul\":9138:9153   */\n      revert\n        /* \"#utility.yul\":9165:9485   */\n    tag_118:\n        /* \"#utility.yul\":9209:9215   */\n      0x00\n        /* \"#utility.yul\":9246:9247   */\n      0x02\n        /* \"#utility.yul\":9240:9244   */\n      dup3\n        /* \"#utility.yul\":9236:9248   */\n      div\n        /* \"#utility.yul\":9226:9248   */\n      swap1\n      pop\n        /* \"#utility.yul\":9293:9294   */\n      0x01\n        /* \"#utility.yul\":9287:9291   */\n      dup3\n        /* \"#utility.yul\":9283:9295   */\n      and\n        /* \"#utility.yul\":9314:9332   */\n      dup1\n        /* \"#utility.yul\":9304:9385   */\n      tag_417\n      jumpi\n        /* \"#utility.yul\":9370:9374   */\n      0x7f\n        /* \"#utility.yul\":9362:9368   */\n      dup3\n        /* \"#utility.yul\":9358:9375   */\n      and\n        /* \"#utility.yul\":9348:9375   */\n      swap2\n      pop\n        /* \"#utility.yul\":9304:9385   */\n    tag_417:\n        /* \"#utility.yul\":9432:9434   */\n      0x20\n        /* \"#utility.yul\":9424:9430   */\n      dup3\n        /* \"#utility.yul\":9421:9435   */\n      lt\n        /* \"#utility.yul\":9401:9419   */\n      dup2\n        /* \"#utility.yul\":9398:9436   */\n      sub\n        /* \"#utility.yul\":9395:9479   */\n      tag_418\n      jumpi\n        /* \"#utility.yul\":9451:9469   */\n      tag_419\n      tag_289\n      jump\t// in\n    tag_419:\n        /* \"#utility.yul\":9395:9479   */\n    tag_418:\n        /* \"#utility.yul\":9216:9485   */\n      pop\n        /* \"#utility.yul\":9165:9485   */\n      swap2\n      swap1\n      pop\n      jump\t// out\n        /* \"#utility.yul\":9491:9682   */\n    tag_144:\n        /* \"#utility.yul\":9531:9534   */\n      0x00\n        /* \"#utility.yul\":9550:9570   */\n      tag_421\n        /* \"#utility.yul\":9568:9569   */\n      dup3\n        /* \"#utility.yul\":9550:9570   */\n      tag_272\n      jump\t// in\n    tag_421:\n        /* \"#utility.yul\":9545:9570   */\n      swap2\n      pop\n        /* \"#utility.yul\":9584:9604   */\n      tag_422\n        /* \"#utility.yul\":9602:9603   */\n      dup4\n        /* \"#utility.yul\":9584:9604   */\n      tag_272\n      jump\t// in\n    tag_422:\n        /* \"#utility.yul\":9579:9604   */\n      swap3\n      pop\n        /* \"#utility.yul\":9627:9628   */\n      dup3\n        /* \"#utility.yul\":9624:9625   */\n      dup3\n        /* \"#utility.yul\":9620:9629   */\n      add\n        /* \"#utility.yul\":9613:9629   */\n      swap1\n      pop\n        /* \"#utility.yul\":9648:9651   */\n      dup1\n        /* \"#utility.yul\":9645:9646   */\n      dup3\n        /* \"#utility.yul\":9642:9652   */\n      gt\n        /* \"#utility.yul\":9639:9675   */\n      iszero\n      tag_423\n      jumpi\n        /* \"#utility.yul\":9655:9673   */\n      tag_424\n      tag_288\n      jump\t// in\n    tag_424:\n        /* \"#utility.yul\":9639:9675   */\n    tag_423:\n        /* \"#utility.yul\":9491:9682   */\n      swap3\n      swap2\n      pop\n      pop\n      jump\t// out\n        /* \"#utility.yul\":9688:9912   */\n    tag_290:\n        /* \"#utility.yul\":9828:9862   */\n      0x45524332303a2064656372656173656420616c6c6f77616e63652062656c6f77\n        /* \"#utility.yul\":9824:9825   */\n      0x00\n        /* \"#utility.yul\":9816:9822   */\n      dup3\n        /* \"#utility.yul\":9812:9826   */\n      add\n        /* \"#utility.yul\":9805:9863   */\n      mstore\n        /* \"#utility.yul\":9897:9904   */\n      0x207a65726f000000000000000000000000000000000000000000000000000000\n        /* \"#utility.yul\":9892:9894   */\n      0x20\n        /* \"#utility.yul\":9884:9890   */\n      dup3\n        /* \"#utility.yul\":9880:9895   */\n      add\n        /* \"#utility.yul\":9873:9905   */\n      mstore\n        /* \"#utility.yul\":9688:9912   */\n      pop\n      jump\t// out\n        /* \"#utility.yul\":9918:10284   */\n    tag_291:\n        /* \"#utility.yul\":10060:10063   */\n      0x00\n        /* \"#utility.yul\":10081:10148   */\n      tag_427\n        /* \"#utility.yul\":10145:10147   */\n      0x25\n        /* \"#utility.yul\":10140:10143   */\n      dup4\n        /* \"#utility.yul\":10081:10148   */\n      tag_268\n      jump\t// in\n    tag_427:\n        /* \"#utility.yul\":10074:10148   */\n      swap2\n      pop\n        /* \"#utility.yul\":10157:10250   */\n      tag_428\n        /* \"#utility.yul\":10246:10249   */\n      dup3\n        /* \"#utility.yul\":10157:10250   */\n      tag_290\n      jump\t// in\n    tag_428:\n        /* \"#utility.yul\":10275:10277   */\n      0x40\n        /* \"#utility.yul\":10270:10273   */\n      dup3\n        /* \"#utility.yul\":10266:10278   */\n      add\n        /* \"#utility.yul\":10259:10278   */\n      swap1\n      pop\n        /* \"#utility.yul\":9918:10284   */\n      swap2\n      swap1\n      pop\n      jump\t// out\n        /* \"#utility.yul\":10290:10709   */\n    tag_169:\n        /* \"#utility.yul\":10456:10460   */\n      0x00\n        /* \"#utility.yul\":10494:10496   */\n      0x20\n        /* \"#utility.yul\":10483:10492   */\n      dup3\n        /* \"#utility.yul\":10479:10497   */\n      add\n        /* \"#utility.yul\":10471:10497   */\n      swap1\n      pop\n        /* \"#utility.yul\":10543:10552   */\n      dup2\n        /* \"#utility.yul\":10537:10541   */\n      dup2\n        /* \"#utility.yul\":10533:10553   */\n      sub\n        /* \"#utility.yul\":10529:10530   */\n      0x00\n        /* \"#utility.yul\":10518:10527   */\n      dup4\n        /* \"#utility.yul\":10514:10531   */\n      add\n        /* \"#utility.yul\":10507:10554   */\n      mstore\n        /* \"#utility.yul\":10571:10702   */\n      tag_430\n        /* \"#utility.yul\":10697:10701   */\n      dup2\n        /* \"#utility.yul\":10571:10702   */\n      tag_291\n      jump\t// in\n    tag_430:\n        /* \"#utility.yul\":10563:10702   */\n      swap1\n      pop\n        /* \"#utility.yul\":10290:10709   */\n      swap2\n      swap1\n      pop\n      jump\t// out\n        /* \"#utility.yul\":10715:10892   */\n    tag_292:\n        /* \"#utility.yul\":10855:10884   */\n      0x6d73672e73656e646572206973206e6f74207468652070617965720000000000\n        /* \"#utility.yul\":10851:10852   */\n      0x00\n        /* \"#utility.yul\":10843:10849   */\n      dup3\n        /* \"#utility.yul\":10839:10853   */\n      add\n        /* \"#utility.yul\":10832:10885   */\n      mstore\n        /* \"#utility.yul\":10715:10892   */\n      pop\n      jump\t// out\n        /* \"#utility.yul\":10898:11264   */\n    tag_293:\n        /* \"#utility.yul\":11040:11043   */\n      0x00\n        /* \"#utility.yul\":11061:11128   */\n      tag_433\n        /* \"#utility.yul\":11125:11127   */\n      0x1b\n        /* \"#utility.yul\":11120:11123   */\n      dup4\n        /* \"#utility.yul\":11061:11128   */\n      tag_268\n      jump\t// in\n    tag_433:\n        /* \"#utility.yul\":11054:11128   */\n      swap2\n      pop\n        /* \"#utility.yul\":11137:11230   */\n      tag_434\n        /* \"#utility.yul\":11226:11229   */\n      dup3\n        /* \"#utility.yul\":11137:11230   */\n      tag_292\n      jump\t// in\n    tag_434:\n        /* \"#utility.yul\":11255:11257   */\n      0x20\n        /* \"#utility.yul\":11250:11253   */\n      dup3\n        /* \"#utility.yul\":11246:11258   */\n      add\n        /* \"#utility.yul\":11239:11258   */\n      swap1\n      pop\n        /* \"#utility.yul\":10898:11264   */\n      swap2\n      swap1\n      pop\n      jump\t// out\n        /* \"#utility.yul\":11270:11689   */\n    tag_189:\n        /* \"#utility.yul\":11436:11440   */\n      0x00\n        /* \"#utility.yul\":11474:11476   */\n      0x20\n        /* \"#utility.yul\":11463:11472   */\n      dup3\n        /* \"#utility.yul\":11459:11477   */\n      add\n        /* \"#utility.yul\":11451:11477   */\n      swap1\n      pop\n        /* \"#utility.yul\":11523:11532   */\n      dup2\n        /* \"#utility.yul\":11517:11521   */\n      dup2\n        /* \"#utility.yul\":11513:11533   */\n      sub\n        /* \"#utility.yul\":11509:11510   */\n      0x00\n        /* \"#utility.yul\":11498:11507   */\n      dup4\n        /* \"#utility.yul\":11494:11511   */\n      add\n        /* \"#utility.yul\":11487:11534   */\n      mstore\n        /* \"#utility.yul\":11551:11682   */\n      tag_436\n        /* \"#utility.yul\":11677:11681   */\n      dup2\n        /* \"#utility.yul\":11551:11682   */\n      tag_293\n      jump\t// in\n    tag_436:\n        /* \"#utility.yul\":11543:11682   */\n      swap1\n      pop\n        /* \"#utility.yul\":11270:11689   */\n      swap2\n      swap1\n      pop\n      jump\t// out\n        /* \"#utility.yul\":11695:11920   */\n    tag_294:\n        /* \"#utility.yul\":11835:11869   */\n      0x4f776e61626c653a206e6577206f776e657220697320746865207a65726f2061\n        /* \"#utility.yul\":11831:11832   */\n      0x00\n        /* \"#utility.yul\":11823:11829   */\n      dup3\n        /* \"#utility.yul\":11819:11833   */\n      add\n        /* \"#utility.yul\":11812:11870   */\n      mstore\n        /* \"#utility.yul\":11904:11912   */\n      0x6464726573730000000000000000000000000000000000000000000000000000\n        /* \"#utility.yul\":11899:11901   */\n      0x20\n        /* \"#utility.yul\":11891:11897   */\n      dup3\n        /* \"#utility.yul\":11887:11902   */\n      add\n        /* \"#utility.yul\":11880:11913   */\n      mstore\n        /* \"#utility.yul\":11695:11920   */\n      pop\n      jump\t// out\n        /* \"#utility.yul\":11926:12292   */\n    tag_295:\n        /* \"#utility.yul\":12068:12071   */\n      0x00\n        /* \"#utility.yul\":12089:12156   */\n      tag_439\n        /* \"#utility.yul\":12153:12155   */\n      0x26\n        /* \"#utility.yul\":12148:12151   */\n      dup4\n        /* \"#utility.yul\":12089:12156   */\n      tag_268\n      jump\t// in\n    tag_439:\n        /* \"#utility.yul\":12082:12156   */\n      swap2\n      pop\n        /* \"#utility.yul\":12165:12258   */\n      tag_440\n        /* \"#utility.yul\":12254:12257   */\n      dup3\n        /* \"#utility.yul\":12165:12258   */\n      tag_294\n      jump\t// in\n    tag_440:\n        /* \"#utility.yul\":12283:12285   */\n      0x40\n        /* \"#utility.yul\":12278:12281   */\n      dup3\n        /* \"#utility.yul\":12274:12286   */\n      add\n        /* \"#utility.yul\":12267:12286   */\n      swap1\n      pop\n        /* \"#utility.yul\":11926:12292   */\n      swap2\n      swap1\n      pop\n      jump\t// out\n        /* \"#utility.yul\":12298:12717   */\n    tag_200:\n        /* \"#utility.yul\":12464:12468   */\n      0x00\n        /* \"#utility.yul\":12502:12504   */\n      0x20\n        /* \"#utility.yul\":12491:12500   */\n      dup3\n        /* \"#utility.yul\":12487:12505   */\n      add\n        /* \"#utility.yul\":12479:12505   */\n      swap1\n      pop\n        /* \"#utility.yul\":12551:12560   */\n      dup2\n        /* \"#utility.yul\":12545:12549   */\n      dup2\n        /* \"#utility.yul\":12541:12561   */\n      sub\n        /* \"#utility.yul\":12537:12538   */\n      0x00\n        /* \"#utility.yul\":12526:12535   */\n      dup4\n        /* \"#utility.yul\":12522:12539   */\n      add\n        /* \"#utility.yul\":12515:12562   */\n      mstore\n        /* \"#utility.yul\":12579:12710   */\n      tag_442\n        /* \"#utility.yul\":12705:12709   */\n      dup2\n        /* \"#utility.yul\":12579:12710   */\n      tag_295\n      jump\t// in\n    tag_442:\n        /* \"#utility.yul\":12571:12710   */\n      swap1\n      pop\n        /* \"#utility.yul\":12298:12717   */\n      swap2\n      swap1\n      pop\n      jump\t// out\n        /* \"#utility.yul\":12723:12905   */\n    tag_296:\n        /* \"#utility.yul\":12863:12897   */\n      0x4f776e61626c653a2063616c6c6572206973206e6f7420746865206f776e6572\n        /* \"#utility.yul\":12859:12860   */\n      0x00\n        /* \"#utility.yul\":12851:12857   */\n      dup3\n        /* \"#utility.yul\":12847:12861   */\n      add\n        /* \"#utility.yul\":12840:12898   */\n      mstore\n        /* \"#utility.yul\":12723:12905   */\n      pop\n      jump\t// out\n        /* \"#utility.yul\":12911:13277   */\n    tag_297:\n        /* \"#utility.yul\":13053:13056   */\n      0x00\n        /* \"#utility.yul\":13074:13141   */\n      tag_445\n        /* \"#utility.yul\":13138:13140   */\n      0x20\n        /* \"#utility.yul\":13133:13136   */\n      dup4\n        /* \"#utility.yul\":13074:13141   */\n      tag_268\n      jump\t// in\n    tag_445:\n        /* \"#utility.yul\":13067:13141   */\n      swap2\n      pop\n        /* \"#utility.yul\":13150:13243   */\n      tag_446\n        /* \"#utility.yul\":13239:13242   */\n      dup3\n        /* \"#utility.yul\":13150:13243   */\n      tag_296\n      jump\t// in\n    tag_446:\n        /* \"#utility.yul\":13268:13270   */\n      0x20\n        /* \"#utility.yul\":13263:13266   */\n      dup3\n        /* \"#utility.yul\":13259:13271   */\n      add\n        /* \"#utility.yul\":13252:13271   */\n      swap1\n      pop\n        /* \"#utility.yul\":12911:13277   */\n      swap2\n      swap1\n      pop\n      jump\t// out\n        /* \"#utility.yul\":13283:13702   */\n    tag_207:\n        /* \"#utility.yul\":13449:13453   */\n      0x00\n        /* \"#utility.yul\":13487:13489   */\n      0x20\n        /* \"#utility.yul\":13476:13485   */\n      dup3\n        /* \"#utility.yul\":13472:13490   */\n      add\n        /* \"#utility.yul\":13464:13490   */\n      swap1\n      pop\n        /* \"#utility.yul\":13536:13545   */\n      dup2\n        /* \"#utility.yul\":13530:13534   */\n      dup2\n        /* \"#utility.yul\":13526:13546   */\n      sub\n        /* \"#utility.yul\":13522:13523   */\n      0x00\n        /* \"#utility.yul\":13511:13520   */\n      dup4\n        /* \"#utility.yul\":13507:13524   */\n      add\n        /* \"#utility.yul\":13500:13547   */\n      mstore\n        /* \"#utility.yul\":13564:13695   */\n      tag_448\n        /* \"#utility.yul\":13690:13694   */\n      dup2\n        /* \"#utility.yul\":13564:13695   */\n      tag_297\n      jump\t// in\n    tag_448:\n        /* \"#utility.yul\":13556:13695   */\n      swap1\n      pop\n        /* \"#utility.yul\":13283:13702   */\n      swap2\n      swap1\n      pop\n      jump\t// out\n        /* \"#utility.yul\":13708:13931   */\n    tag_298:\n        /* \"#utility.yul\":13848:13882   */\n      0x45524332303a20617070726f76652066726f6d20746865207a65726f20616464\n        /* \"#utility.yul\":13844:13845   */\n      0x00\n        /* \"#utility.yul\":13836:13842   */\n      dup3\n        /* \"#utility.yul\":13832:13846   */\n      add\n        /* \"#utility.yul\":13825:13883   */\n      mstore\n        /* \"#utility.yul\":13917:13923   */\n      0x7265737300000000000000000000000000000000000000000000000000000000\n        /* \"#utility.yul\":13912:13914   */\n      0x20\n        /* \"#utility.yul\":13904:13910   */\n      dup3\n        /* \"#utility.yul\":13900:13915   */\n      add\n        /* \"#utility.yul\":13893:13924   */\n      mstore\n        /* \"#utility.yul\":13708:13931   */\n      pop\n      jump\t// out\n        /* \"#utility.yul\":13937:14303   */\n    tag_299:\n        /* \"#utility.yul\":14079:14082   */\n      0x00\n        /* \"#utility.yul\":14100:14167   */\n      tag_451\n        /* \"#utility.yul\":14164:14166   */\n      0x24\n        /* \"#utility.yul\":14159:14162   */\n      dup4\n        /* \"#utility.yul\":14100:14167   */\n      tag_268\n      jump\t// in\n    tag_451:\n        /* \"#utility.yul\":14093:14167   */\n      swap2\n      pop\n        /* \"#utility.yul\":14176:14269   */\n      tag_452\n        /* \"#utility.yul\":14265:14268   */\n      dup3\n        /* \"#utility.yul\":14176:14269   */\n      tag_298\n      jump\t// in\n    tag_452:\n        /* \"#utility.yul\":14294:14296   */\n      0x40\n        /* \"#utility.yul\":14289:14292   */\n      dup3\n        /* \"#utility.yul\":14285:14297   */\n      add\n        /* \"#utility.yul\":14278:14297   */\n      swap1\n      pop\n        /* \"#utility.yul\":13937:14303   */\n      swap2\n      swap1\n      pop\n      jump\t// out\n        /* \"#utility.yul\":14309:14728   */\n    tag_212:\n        /* \"#utility.yul\":14475:14479   */\n      0x00\n        /* \"#utility.yul\":14513:14515   */\n      0x20\n        /* \"#utility.yul\":14502:14511   */\n      dup3\n        /* \"#utility.yul\":14498:14516   */\n      add\n        /* \"#utility.yul\":14490:14516   */\n      swap1\n      pop\n        /* \"#utility.yul\":14562:14571   */\n      dup2\n        /* \"#utility.yul\":14556:14560   */\n      dup2\n        /* \"#utility.yul\":14552:14572   */\n      sub\n        /* \"#utility.yul\":14548:14549   */\n      0x00\n        /* \"#utility.yul\":14537:14546   */\n      dup4\n        /* \"#utility.yul\":14533:14550   */\n      add\n        /* \"#utility.yul\":14526:14573   */\n      mstore\n        /* \"#utility.yul\":14590:14721   */\n      tag_454\n        /* \"#utility.yul\":14716:14720   */\n      dup2\n        /* \"#utility.yul\":14590:14721   */\n      tag_299\n      jump\t// in\n    tag_454:\n        /* \"#utility.yul\":14582:14721   */\n      swap1\n      pop\n        /* \"#utility.yul\":14309:14728   */\n      swap2\n      swap1\n      pop\n      jump\t// out\n        /* \"#utility.yul\":14734:14955   */\n    tag_300:\n        /* \"#utility.yul\":14874:14908   */\n      0x45524332303a20617070726f766520746f20746865207a65726f206164647265\n        /* \"#utility.yul\":14870:14871   */\n      0x00\n        /* \"#utility.yul\":14862:14868   */\n      dup3\n        /* \"#utility.yul\":14858:14872   */\n      add\n        /* \"#utility.yul\":14851:14909   */\n      mstore\n        /* \"#utility.yul\":14943:14947   */\n      0x7373000000000000000000000000000000000000000000000000000000000000\n        /* \"#utility.yul\":14938:14940   */\n      0x20\n        /* \"#utility.yul\":14930:14936   */\n      dup3\n        /* \"#utility.yul\":14926:14941   */\n      add\n        /* \"#utility.yul\":14919:14948   */\n      mstore\n        /* \"#utility.yul\":14734:14955   */\n      pop\n      jump\t// out\n        /* \"#utility.yul\":14961:15327   */\n    tag_301:\n        /* \"#utility.yul\":15103:15106   */\n      0x00\n        /* \"#utility.yul\":15124:15191   */\n      tag_457\n        /* \"#utility.yul\":15188:15190   */\n      0x22\n        /* \"#utility.yul\":15183:15186   */\n      dup4\n        /* \"#utility.yul\":15124:15191   */\n      tag_268\n      jump\t// in\n    tag_457:\n        /* \"#utility.yul\":15117:15191   */\n      swap2\n      pop\n        /* \"#utility.yul\":15200:15293   */\n      tag_458\n        /* \"#utility.yul\":15289:15292   */\n      dup3\n        /* \"#utility.yul\":15200:15293   */\n      tag_300\n      jump\t// in\n    tag_458:\n        /* \"#utility.yul\":15318:15320   */\n      0x40\n        /* \"#utility.yul\":15313:15316   */\n      dup3\n        /* \"#utility.yul\":15309:15321   */\n      add\n        /* \"#utility.yul\":15302:15321   */\n      swap1\n      pop\n        /* \"#utility.yul\":14961:15327   */\n      swap2\n      swap1\n      pop\n      jump\t// out\n        /* \"#utility.yul\":15333:15752   */\n    tag_215:\n        /* \"#utility.yul\":15499:15503   */\n      0x00\n        /* \"#utility.yul\":15537:15539   */\n      0x20\n        /* \"#utility.yul\":15526:15535   */\n      dup3\n        /* \"#utility.yul\":15522:15540   */\n      add\n        /* \"#utility.yul\":15514:15540   */\n      swap1\n      pop\n        /* \"#utility.yul\":15586:15595   */\n      dup2\n        /* \"#utility.yul\":15580:15584   */\n      dup2\n        /* \"#utility.yul\":15576:15596   */\n      sub\n        /* \"#utility.yul\":15572:15573   */\n      0x00\n        /* \"#utility.yul\":15561:15570   */\n      dup4\n        /* \"#utility.yul\":15557:15574   */\n      add\n        /* \"#utility.yul\":15550:15597   */\n      mstore\n        /* \"#utility.yul\":15614:15745   */\n      tag_460\n        /* \"#utility.yul\":15740:15744   */\n      dup2\n        /* \"#utility.yul\":15614:15745   */\n      tag_301\n      jump\t// in\n    tag_460:\n        /* \"#utility.yul\":15606:15745   */\n      swap1\n      pop\n        /* \"#utility.yul\":15333:15752   */\n      swap2\n      swap1\n      pop\n      jump\t// out\n        /* \"#utility.yul\":15758:15937   */\n    tag_302:\n        /* \"#utility.yul\":15898:15929   */\n      0x45524332303a20696e73756666696369656e7420616c6c6f77616e6365000000\n        /* \"#utility.yul\":15894:15895   */\n      0x00\n        /* \"#utility.yul\":15886:15892   */\n      dup3\n        /* \"#utility.yul\":15882:15896   */\n      add\n        /* \"#utility.yul\":15875:15930   */\n      mstore\n        /* \"#utility.yul\":15758:15937   */\n      pop\n      jump\t// out\n        /* \"#utility.yul\":15943:16309   */\n    tag_303:\n        /* \"#utility.yul\":16085:16088   */\n      0x00\n        /* \"#utility.yul\":16106:16173   */\n      tag_463\n        /* \"#utility.yul\":16170:16172   */\n      0x1d\n        /* \"#utility.yul\":16165:16168   */\n      dup4\n        /* \"#utility.yul\":16106:16173   */\n      tag_268\n      jump\t// in\n    tag_463:\n        /* \"#utility.yul\":16099:16173   */\n      swap2\n      pop\n        /* \"#utility.yul\":16182:16275   */\n      tag_464\n        /* \"#utility.yul\":16271:16274   */\n      dup3\n        /* \"#utility.yul\":16182:16275   */\n      tag_302\n      jump\t// in\n    tag_464:\n        /* \"#utility.yul\":16300:16302   */\n      0x20\n        /* \"#utility.yul\":16295:16298   */\n      dup3\n        /* \"#utility.yul\":16291:16303   */\n      add\n        /* \"#utility.yul\":16284:16303   */\n      swap1\n      pop\n        /* \"#utility.yul\":15943:16309   */\n      swap2\n      swap1\n      pop\n      jump\t// out\n        /* \"#utility.yul\":16315:16734   */\n    tag_222:\n        /* \"#utility.yul\":16481:16485   */\n      0x00\n        /* \"#utility.yul\":16519:16521   */\n      0x20\n        /* \"#utility.yul\":16508:16517   */\n      dup3\n        /* \"#utility.yul\":16504:16522   */\n      add\n        /* \"#utility.yul\":16496:16522   */\n      swap1\n      pop\n        /* \"#utility.yul\":16568:16577   */\n      dup2\n        /* \"#utility.yul\":16562:16566   */\n      dup2\n        /* \"#utility.yul\":16558:16578   */\n      sub\n        /* \"#utility.yul\":16554:16555   */\n      0x00\n        /* \"#utility.yul\":16543:16552   */\n      dup4\n        /* \"#utility.yul\":16539:16556   */\n      add\n        /* \"#utility.yul\":16532:16579   */\n      mstore\n        /* \"#utility.yul\":16596:16727   */\n      tag_466\n        /* \"#utility.yul\":16722:16726   */\n      dup2\n        /* \"#utility.yul\":16596:16727   */\n      tag_303\n      jump\t// in\n    tag_466:\n        /* \"#utility.yul\":16588:16727   */\n      swap1\n      pop\n        /* \"#utility.yul\":16315:16734   */\n      swap2\n      swap1\n      pop\n      jump\t// out\n        /* \"#utility.yul\":16740:16964   */\n    tag_304:\n        /* \"#utility.yul\":16880:16914   */\n      0x45524332303a207472616e736665722066726f6d20746865207a65726f206164\n        /* \"#utility.yul\":16876:16877   */\n      0x00\n        /* \"#utility.yul\":16868:16874   */\n      dup3\n        /* \"#utility.yul\":16864:16878   */\n      add\n        /* \"#utility.yul\":16857:16915   */\n      mstore\n        /* \"#utility.yul\":16949:16956   */\n      0x6472657373000000000000000000000000000000000000000000000000000000\n        /* \"#utility.yul\":16944:16946   */\n      0x20\n        /* \"#utility.yul\":16936:16942   */\n      dup3\n        /* \"#utility.yul\":16932:16947   */\n      add\n        /* \"#utility.yul\":16925:16957   */\n      mstore\n        /* \"#utility.yul\":16740:16964   */\n      pop\n      jump\t// out\n        /* \"#utility.yul\":16970:17336   */\n    tag_305:\n        /* \"#utility.yul\":17112:17115   */\n      0x00\n        /* \"#utility.yul\":17133:17200   */\n      tag_469\n        /* \"#utility.yul\":17197:17199   */\n      0x25\n        /* \"#utility.yul\":17192:17195   */\n      dup4\n        /* \"#utility.yul\":17133:17200   */\n      tag_268\n      jump\t// in\n    tag_469:\n        /* \"#utility.yul\":17126:17200   */\n      swap2\n      pop\n        /* \"#utility.yul\":17209:17302   */\n      tag_470\n        /* \"#utility.yul\":17298:17301   */\n      dup3\n        /* \"#utility.yul\":17209:17302   */\n      tag_304\n      jump\t// in\n    tag_470:\n        /* \"#utility.yul\":17327:17329   */\n      0x40\n        /* \"#utility.yul\":17322:17325   */\n      dup3\n        /* \"#utility.yul\":17318:17330   */\n      add\n        /* \"#utility.yul\":17311:17330   */\n      swap1\n      pop\n        /* \"#utility.yul\":16970:17336   */\n      swap2\n      swap1\n      pop\n      jump\t// out\n        /* \"#utility.yul\":17342:17761   */\n    tag_227:\n        /* \"#utility.yul\":17508:17512   */\n      0x00\n        /* \"#utility.yul\":17546:17548   */\n      0x20\n        /* \"#utility.yul\":17535:17544   */\n      dup3\n        /* \"#utility.yul\":17531:17549   */\n      add\n        /* \"#utility.yul\":17523:17549   */\n      swap1\n      pop\n        /* \"#utility.yul\":17595:17604   */\n      dup2\n        /* \"#utility.yul\":17589:17593   */\n      dup2\n        /* \"#utility.yul\":17585:17605   */\n      sub\n        /* \"#utility.yul\":17581:17582   */\n      0x00\n        /* \"#utility.yul\":17570:17579   */\n      dup4\n        /* \"#utility.yul\":17566:17583   */\n      add\n        /* \"#utility.yul\":17559:17606   */\n      mstore\n        /* \"#utility.yul\":17623:17754   */\n      tag_472\n        /* \"#utility.yul\":17749:17753   */\n      dup2\n        /* \"#utility.yul\":17623:17754   */\n      tag_305\n      jump\t// in\n    tag_472:\n        /* \"#utility.yul\":17615:17754   */\n      swap1\n      pop\n        /* \"#utility.yul\":17342:17761   */\n      swap2\n      swap1\n      pop\n      jump\t// out\n        /* \"#utility.yul\":17767:17989   */\n    tag_306:\n        /* \"#utility.yul\":17907:17941   */\n      0x45524332303a207472616e7366657220746f20746865207a65726f2061646472\n        /* \"#utility.yul\":17903:17904   */\n      0x00\n        /* \"#utility.yul\":17895:17901   */\n      dup3\n        /* \"#utility.yul\":17891:17905   */\n      add\n        /* \"#utility.yul\":17884:17942   */\n      mstore\n        /* \"#utility.yul\":17976:17981   */\n      0x6573730000000000000000000000000000000000000000000000000000000000\n        /* \"#utility.yul\":17971:17973   */\n      0x20\n        /* \"#utility.yul\":17963:17969   */\n      dup3\n        /* \"#utility.yul\":17959:17974   */\n      add\n        /* \"#utility.yul\":17952:17982   */\n      mstore\n        /* \"#utility.yul\":17767:17989   */\n      pop\n      jump\t// out\n        /* \"#utility.yul\":17995:18361   */\n    tag_307:\n        /* \"#utility.yul\":18137:18140   */\n      0x00\n        /* \"#utility.yul\":18158:18225   */\n      tag_475\n        /* \"#utility.yul\":18222:18224   */\n      0x23\n        /* \"#utility.yul\":18217:18220   */\n      dup4\n        /* \"#utility.yul\":18158:18225   */\n      tag_268\n      jump\t// in\n    tag_475:\n        /* \"#utility.yul\":18151:18225   */\n      swap2\n      pop\n        /* \"#utility.yul\":18234:18327   */\n      tag_476\n        /* \"#utility.yul\":18323:18326   */\n      dup3\n        /* \"#utility.yul\":18234:18327   */\n      tag_306\n      jump\t// in\n    tag_476:\n        /* \"#utility.yul\":18352:18354   */\n      0x40\n        /* \"#utility.yul\":18347:18350   */\n      dup3\n        /* \"#utility.yul\":18343:18355   */\n      add\n        /* \"#utility.yul\":18336:18355   */\n      swap1\n      pop\n        /* \"#utility.yul\":17995:18361   */\n      swap2\n      swap1\n      pop\n      jump\t// out\n        /* \"#utility.yul\":18367:18786   */\n    tag_230:\n        /* \"#utility.yul\":18533:18537   */\n      0x00\n        /* \"#utility.yul\":18571:18573   */\n      0x20\n        /* \"#utility.yul\":18560:18569   */\n      dup3\n        /* \"#utility.yul\":18556:18574   */\n      add\n        /* \"#utility.yul\":18548:18574   */\n      swap1\n      pop\n        /* \"#utility.yul\":18620:18629   */\n      dup2\n        /* \"#utility.yul\":18614:18618   */\n      dup2\n        /* \"#utility.yul\":18610:18630   */\n      sub\n        /* \"#utility.yul\":18606:18607   */\n      0x00\n        /* \"#utility.yul\":18595:18604   */\n      dup4\n        /* \"#utility.yul\":18591:18608   */\n      add\n        /* \"#utility.yul\":18584:18631   */\n      mstore\n        /* \"#utility.yul\":18648:18779   */\n      tag_478\n        /* \"#utility.yul\":18774:18778   */\n      dup2\n        /* \"#utility.yul\":18648:18779   */\n      tag_307\n      jump\t// in\n    tag_478:\n        /* \"#utility.yul\":18640:18779   */\n      swap1\n      pop\n        /* \"#utility.yul\":18367:18786   */\n      swap2\n      swap1\n      pop\n      jump\t// out\n        /* \"#utility.yul\":18792:19017   */\n    tag_308:\n        /* \"#utility.yul\":18932:18966   */\n      0x45524332303a207472616e7366657220616d6f756e7420657863656564732062\n        /* \"#utility.yul\":18928:18929   */\n      0x00\n        /* \"#utility.yul\":18920:18926   */\n      dup3\n        /* \"#utility.yul\":18916:18930   */\n      add\n        /* \"#utility.yul\":18909:18967   */\n      mstore\n        /* \"#utility.yul\":19001:19009   */\n      0x616c616e63650000000000000000000000000000000000000000000000000000\n        /* \"#utility.yul\":18996:18998   */\n      0x20\n        /* \"#utility.yul\":18988:18994   */\n      dup3\n        /* \"#utility.yul\":18984:18999   */\n      add\n        /* \"#utility.yul\":18977:19010   */\n      mstore\n        /* \"#utility.yul\":18792:19017   */\n      pop\n      jump\t// out\n        /* \"#utility.yul\":19023:19389   */\n    tag_309:\n        /* \"#utility.yul\":19165:19168   */\n      0x00\n        /* \"#utility.yul\":19186:19253   */\n      tag_481\n        /* \"#utility.yul\":19250:19252   */\n      0x26\n        /* \"#utility.yul\":19245:19248   */\n      dup4\n        /* \"#utility.yul\":19186:19253   */\n      tag_268\n      jump\t// in\n    tag_481:\n        /* \"#utility.yul\":19179:19253   */\n      swap2\n      pop\n        /* \"#utility.yul\":19262:19355   */\n      tag_482\n        /* \"#utility.yul\":19351:19354   */\n      dup3\n        /* \"#utility.yul\":19262:19355   */\n      tag_308\n      jump\t// in\n    tag_482:\n        /* \"#utility.yul\":19380:19382   */\n      0x40\n        /* \"#utility.yul\":19375:19378   */\n      dup3\n        /* \"#utility.yul\":19371:19383   */\n      add\n        /* \"#utility.yul\":19364:19383   */\n      swap1\n      pop\n        /* \"#utility.yul\":19023:19389   */\n      swap2\n      swap1\n      pop\n      jump\t// out\n        /* \"#utility.yul\":19395:19814   */\n    tag_235:\n        /* \"#utility.yul\":19561:19565   */\n      0x00\n        /* \"#utility.yul\":19599:19601   */\n      0x20\n        /* \"#utility.yul\":19588:19597   */\n      dup3\n        /* \"#utility.yul\":19584:19602   */\n      add\n        /* \"#utility.yul\":19576:19602   */\n      swap1\n      pop\n        /* \"#utility.yul\":19648:19657   */\n      dup2\n        /* \"#utility.yul\":19642:19646   */\n      dup2\n        /* \"#utility.yul\":19638:19658   */\n      sub\n        /* \"#utility.yul\":19634:19635   */\n      0x00\n        /* \"#utility.yul\":19623:19632   */\n      dup4\n        /* \"#utility.yul\":19619:19636   */\n      add\n        /* \"#utility.yul\":19612:19659   */\n      mstore\n        /* \"#utility.yul\":19676:19807   */\n      tag_484\n        /* \"#utility.yul\":19802:19806   */\n      dup2\n        /* \"#utility.yul\":19676:19807   */\n      tag_309\n      jump\t// in\n    tag_484:\n        /* \"#utility.yul\":19668:19807   */\n      swap1\n      pop\n        /* \"#utility.yul\":19395:19814   */\n      swap2\n      swap1\n      pop\n      jump\t// out\n        /* \"#utility.yul\":19820:20001   */\n    tag_310:\n        /* \"#utility.yul\":19960:19993   */\n      0x45524332303a206d696e7420746f20746865207a65726f206164647265737300\n        /* \"#utility.yul\":19956:19957   */\n      0x00\n        /* \"#utility.yul\":19948:19954   */\n      dup3\n        /* \"#utility.yul\":19944:19958   */\n      add\n        /* \"#utility.yul\":19937:19994   */\n      mstore\n        /* \"#utility.yul\":19820:20001   */\n      pop\n      jump\t// out\n        /* \"#utility.yul\":20007:20373   */\n    tag_311:\n        /* \"#utility.yul\":20149:20152   */\n      0x00\n        /* \"#utility.yul\":20170:20237   */\n      tag_487\n        /* \"#utility.yul\":20234:20236   */\n      0x1f\n        /* \"#utility.yul\":20229:20232   */\n      dup4\n        /* \"#utility.yul\":20170:20237   */\n      tag_268\n      jump\t// in\n    tag_487:\n        /* \"#utility.yul\":20163:20237   */\n      swap2\n      pop\n        /* \"#utility.yul\":20246:20339   */\n      tag_488\n        /* \"#utility.yul\":20335:20338   */\n      dup3\n        /* \"#utility.yul\":20246:20339   */\n      tag_310\n      jump\t// in\n    tag_488:\n        /* \"#utility.yul\":20364:20366   */\n      0x20\n        /* \"#utility.yul\":20359:20362   */\n      dup3\n        /* \"#utility.yul\":20355:20367   */\n      add\n        /* \"#utility.yul\":20348:20367   */\n      swap1\n      pop\n        /* \"#utility.yul\":20007:20373   */\n      swap2\n      swap1\n      pop\n      jump\t// out\n        /* \"#utility.yul\":20379:20798   */\n    tag_243:\n        /* \"#utility.yul\":20545:20549   */\n      0x00\n        /* \"#utility.yul\":20583:20585   */\n      0x20\n        /* \"#utility.yul\":20572:20581   */\n      dup3\n        /* \"#utility.yul\":20568:20586   */\n      add\n        /* \"#utility.yul\":20560:20586   */\n      swap1\n      pop\n        /* \"#utility.yul\":20632:20641   */\n      dup2\n        /* \"#utility.yul\":20626:20630   */\n      dup2\n        /* \"#utility.yul\":20622:20642   */\n      sub\n        /* \"#utility.yul\":20618:20619   */\n      0x00\n        /* \"#utility.yul\":20607:20616   */\n      dup4\n        /* \"#utility.yul\":20603:20620   */\n      add\n        /* \"#utility.yul\":20596:20643   */\n      mstore\n        /* \"#utility.yul\":20660:20791   */\n      tag_490\n        /* \"#utility.yul\":20786:20790   */\n      dup2\n        /* \"#utility.yul\":20660:20791   */\n      tag_311\n      jump\t// in\n    tag_490:\n        /* \"#utility.yul\":20652:20791   */\n      swap1\n      pop\n        /* \"#utility.yul\":20379:20798   */\n      swap2\n      swap1\n      pop\n      jump\t// out\n        /* \"#utility.yul\":20804:21024   */\n    tag_312:\n        /* \"#utility.yul\":20944:20978   */\n      0x45524332303a206275726e2066726f6d20746865207a65726f20616464726573\n        /* \"#utility.yul\":20940:20941   */\n      0x00\n        /* \"#utility.yul\":20932:20938   */\n      dup3\n        /* \"#utility.yul\":20928:20942   */\n      add\n        /* \"#utility.yul\":20921:20979   */\n      mstore\n        /* \"#utility.yul\":21013:21016   */\n      0x7300000000000000000000000000000000000000000000000000000000000000\n        /* \"#utility.yul\":21008:21010   */\n      0x20\n        /* \"#utility.yul\":21000:21006   */\n      dup3\n        /* \"#utility.yul\":20996:21011   */\n      add\n        /* \"#utility.yul\":20989:21017   */\n      mstore\n        /* \"#utility.yul\":20804:21024   */\n      pop\n      jump\t// out\n        /* \"#utility.yul\":21030:21396   */\n    tag_313:\n        /* \"#utility.yul\":21172:21175   */\n      0x00\n        /* \"#utility.yul\":21193:21260   */\n      tag_493\n        /* \"#utility.yul\":21257:21259   */\n      0x21\n        /* \"#utility.yul\":21252:21255   */\n      dup4\n        /* \"#utility.yul\":21193:21260   */\n      tag_268\n      jump\t// in\n    tag_493:\n        /* \"#utility.yul\":21186:21260   */\n      swap2\n      pop\n        /* \"#utility.yul\":21269:21362   */\n      tag_494\n        /* \"#utility.yul\":21358:21361   */\n      dup3\n        /* \"#utility.yul\":21269:21362   */\n      tag_312\n      jump\t// in\n    tag_494:\n        /* \"#utility.yul\":21387:21389   */\n      0x40\n        /* \"#utility.yul\":21382:21385   */\n      dup3\n        /* \"#utility.yul\":21378:21390   */\n      add\n        /* \"#utility.yul\":21371:21390   */\n      swap1\n      pop\n        /* \"#utility.yul\":21030:21396   */\n      swap2\n      swap1\n      pop\n      jump\t// out\n        /* \"#utility.yul\":21402:21821   */\n    tag_251:\n        /* \"#utility.yul\":21568:21572   */\n      0x00\n        /* \"#utility.yul\":21606:21608   */\n      0x20\n        /* \"#utility.yul\":21595:21604   */\n      dup3\n        /* \"#utility.yul\":21591:21609   */\n      add\n        /* \"#utility.yul\":21583:21609   */\n      swap1\n      pop\n        /* \"#utility.yul\":21655:21664   */\n      dup2\n        /* \"#utility.yul\":21649:21653   */\n      dup2\n        /* \"#utility.yul\":21645:21665   */\n      sub\n        /* \"#utility.yul\":21641:21642   */\n      0x00\n        /* \"#utility.yul\":21630:21639   */\n      dup4\n        /* \"#utility.yul\":21626:21643   */\n      add\n        /* \"#utility.yul\":21619:21666   */\n      mstore\n        /* \"#utility.yul\":21683:21814   */\n      tag_496\n        /* \"#utility.yul\":21809:21813   */\n      dup2\n        /* \"#utility.yul\":21683:21814   */\n      tag_313\n      jump\t// in\n    tag_496:\n        /* \"#utility.yul\":21675:21814   */\n      swap1\n      pop\n        /* \"#utility.yul\":21402:21821   */\n      swap2\n      swap1\n      pop\n      jump\t// out\n        /* \"#utility.yul\":21827:22048   */\n    tag_314:\n        /* \"#utility.yul\":21967:22001   */\n      0x45524332303a206275726e20616d6f756e7420657863656564732062616c616e\n        /* \"#utility.yul\":21963:21964   */\n      0x00\n        /* \"#utility.yul\":21955:21961   */\n      dup3\n        /* \"#utility.yul\":21951:21965   */\n      add\n        /* \"#utility.yul\":21944:22002   */\n      mstore\n        /* \"#utility.yul\":22036:22040   */\n      0x6365000000000000000000000000000000000000000000000000000000000000\n        /* \"#utility.yul\":22031:22033   */\n      0x20\n        /* \"#utility.yul\":22023:22029   */\n      dup3\n        /* \"#utility.yul\":22019:22034   */\n      add\n        /* \"#utility.yul\":22012:22041   */\n      mstore\n        /* \"#utility.yul\":21827:22048   */\n      pop\n      jump\t// out\n        /* \"#utility.yul\":22054:22420   */\n    tag_315:\n        /* \"#utility.yul\":22196:22199   */\n      0x00\n        /* \"#utility.yul\":22217:22284   */\n      tag_499\n        /* \"#utility.yul\":22281:22283   */\n      0x22\n        /* \"#utility.yul\":22276:22279   */\n      dup4\n        /* \"#utility.yul\":22217:22284   */\n      tag_268\n      jump\t// in\n    tag_499:\n        /* \"#utility.yul\":22210:22284   */\n      swap2\n      pop\n        /* \"#utility.yul\":22293:22386   */\n      tag_500\n        /* \"#utility.yul\":22382:22385   */\n      dup3\n        /* \"#utility.yul\":22293:22386   */\n      tag_314\n      jump\t// in\n    tag_500:\n        /* \"#utility.yul\":22411:22413   */\n      0x40\n        /* \"#utility.yul\":22406:22409   */\n      dup3\n        /* \"#utility.yul\":22402:22414   */\n      add\n        /* \"#utility.yul\":22395:22414   */\n      swap1\n      pop\n        /* \"#utility.yul\":22054:22420   */\n      swap2\n      swap1\n      pop\n      jump\t// out\n        /* \"#utility.yul\":22426:22845   */\n    tag_255:\n        /* \"#utility.yul\":22592:22596   */\n      0x00\n        /* \"#utility.yul\":22630:22632   */\n      0x20\n        /* \"#utility.yul\":22619:22628   */\n      dup3\n        /* \"#utility.yul\":22615:22633   */\n      add\n        /* \"#utility.yul\":22607:22633   */\n      swap1\n      pop\n        /* \"#utility.yul\":22679:22688   */\n      dup2\n        /* \"#utility.yul\":22673:22677   */\n      dup2\n        /* \"#utility.yul\":22669:22689   */\n      sub\n        /* \"#utility.yul\":22665:22666   */\n      0x00\n        /* \"#utility.yul\":22654:22663   */\n      dup4\n        /* \"#utility.yul\":22650:22667   */\n      add\n        /* \"#utility.yul\":22643:22690   */\n      mstore\n        /* \"#utility.yul\":22707:22838   */\n      tag_502\n        /* \"#utility.yul\":22833:22837   */\n      dup2\n        /* \"#utility.yul\":22707:22838   */\n      tag_315\n      jump\t// in\n    tag_502:\n        /* \"#utility.yul\":22699:22838   */\n      swap1\n      pop\n        /* \"#utility.yul\":22426:22845   */\n      swap2\n      swap1\n      pop\n      jump\t// out\n\n    auxdata: 0xa26469706673582212204b65e355148afe6c3e0aaf0c89bbf998084d300e8fb69c48af87423d5db775bf64736f6c63430008120033\n}\n",
				"bytecode": {
					"linkReferences": {},
					"object": "60806040523480156200001157600080fd5b506040518060400160405280600781526020017f53686f436f696e000000000000000000000000000000000000000000000000008152506040518060400160405280600481526020017f53484f430000000000000000000000000000000000000000000000000000000081525081600390816200008f9190620004ae565b508060049081620000a19190620004ae565b505050620000c4620000b86200013c60201b60201c565b6200014460201b60201c565b6006620000d66200020a60201b60201c565b9080600181540180825580915050600190039060005260206000200160009091909190916101000a81548173ffffffffffffffffffffffffffffffffffffffff021916908373ffffffffffffffffffffffffffffffffffffffff16021790555062000595565b600033905090565b6000600560009054906101000a900473ffffffffffffffffffffffffffffffffffffffff16905081600560006101000a81548173ffffffffffffffffffffffffffffffffffffffff021916908373ffffffffffffffffffffffffffffffffffffffff1602179055508173ffffffffffffffffffffffffffffffffffffffff168173ffffffffffffffffffffffffffffffffffffffff167f8be0079c531659141344cd1fd0a4f28419497f9722a3daafe3b4186f6b6457e060405160405180910390a35050565b6000600560009054906101000a900473ffffffffffffffffffffffffffffffffffffffff16905090565b600081519050919050565b7f4e487b7100000000000000000000000000000000000000000000000000000000600052604160045260246000fd5b7f4e487b7100000000000000000000000000000000000000000000000000000000600052602260045260246000fd5b60006002820490506001821680620002b657607f821691505b602082108103620002cc57620002cb6200026e565b5b50919050565b60008190508160005260206000209050919050565b60006020601f8301049050919050565b600082821b905092915050565b600060088302620003367fffffffffffffffffffffffffffffffffffffffffffffffffffffffffffffffff82620002f7565b620003428683620002f7565b95508019841693508086168417925050509392505050565b6000819050919050565b6000819050919050565b60006200038f6200038962000383846200035a565b62000364565b6200035a565b9050919050565b6000819050919050565b620003ab836200036e565b620003c3620003ba8262000396565b84845462000304565b825550505050565b600090565b620003da620003cb565b620003e7818484620003a0565b505050565b5b818110156200040f5762000403600082620003d0565b600181019050620003ed565b5050565b601f8211156200045e576200042881620002d2565b6200043384620002e7565b8101602085101562000443578190505b6200045b6200045285620002e7565b830182620003ec565b50505b505050565b600082821c905092915050565b6000620004836000198460080262000463565b1980831691505092915050565b60006200049e838362000470565b9150826002028217905092915050565b620004b98262000234565b67ffffffffffffffff811115620004d557620004d46200023f565b5b620004e182546200029d565b620004ee82828562000413565b600060209050601f83116001811462000526576000841562000511578287015190505b6200051d858262000490565b8655506200058d565b601f1984166200053686620002d2565b60005b82811015620005605784890151825560018201915060208501945060208101905062000539565b868310156200058057848901516200057c601f89168262000470565b8355505b6001600288020188555050505b505050505050565b61203780620005a56000396000f3fe608060405234801561001057600080fd5b50600436106101215760003560e01c8063715018a6116100ad578063a9059cbb11610071578063a9059cbb1461030c578063b78376e91461033c578063c290d69114610358578063dd62ed3e14610374578063f2fde38b146103a457610121565b8063715018a61461027a5780638da5cb5b1461028457806395d89b41146102a2578063a0712d68146102c0578063a457c2d7146102dc57610121565b806318160ddd116100f457806318160ddd146101ae57806323b872dd146101cc578063313ce567146101fc578063395093511461021a57806370a082311461024a57610121565b8063048f16271461012657806306fdde0314610142578063095ea7b3146101605780631055d70814610190575b600080fd5b610140600480360381019061013b919061143f565b6103c0565b005b61014a6104a2565b60405161015791906114fc565b60405180910390f35b61017a60048036038101906101759190611554565b610534565b60405161018791906115af565b60405180910390f35b610198610557565b6040516101a59190611688565b60405180910390f35b6101b66105e5565b6040516101c391906116b9565b60405180910390f35b6101e660048036038101906101e191906116d4565b6105ef565b6040516101f391906115af565b60405180910390f35b61020461061e565b6040516102119190611743565b60405180910390f35b610234600480360381019061022f9190611554565b610627565b60405161024191906115af565b60405180910390f35b610264600480360381019061025f919061143f565b61065e565b60405161027191906116b9565b60405180910390f35b6102826106a6565b005b61028c6106ba565b604051610299919061176d565b60405180910390f35b6102aa6106e4565b6040516102b791906114fc565b60405180910390f35b6102da60048036038101906102d59190611788565b610776565b005b6102f660048036038101906102f19190611554565b610792565b60405161030391906115af565b60405180910390f35b61032660048036038101906103219190611554565b610809565b60405161033391906115af565b60405180910390f35b6103566004803603810190610351919061143f565b61082c565b005b610372600480360381019061036d9190611788565b61089a565b005b61038e600480360381019061038991906117b5565b61098e565b60405161039b91906116b9565b60405180910390f35b6103be60048036038101906103b9919061143f565b610a15565b005b6103c8610a98565b60005b60068054905081101561049e57600681815481106103ec576103eb6117f5565b5b9060005260206000200160009054906101000a900473ffffffffffffffffffffffffffffffffffffffff1673ffffffffffffffffffffffffffffffffffffffff168273ffffffffffffffffffffffffffffffffffffffff160361048b576006818154811061045d5761045c6117f5565b5b9060005260206000200160006101000a81549073ffffffffffffffffffffffffffffffffffffffff02191690555b808061049690611853565b9150506103cb565b5050565b6060600380546104b1906118ca565b80601f01602080910402602001604051908101604052809291908181526020018280546104dd906118ca565b801561052a5780601f106104ff5761010080835404028352916020019161052a565b820191906000526020600020905b81548152906001019060200180831161050d57829003601f168201915b5050505050905090565b60008061053f610b16565b905061054c818585610b1e565b600191505092915050565b606060068054806020026020016040519081016040528092919081815260200182805480156105db57602002820191906000526020600020905b8160009054906101000a900473ffffffffffffffffffffffffffffffffffffffff1673ffffffffffffffffffffffffffffffffffffffff1681526020019060010190808311610591575b5050505050905090565b6000600254905090565b6000806105fa610b16565b9050610607858285610ce7565b610612858585610d73565b60019150509392505050565b60006012905090565b600080610632610b16565b9050610653818585610644858961098e565b61064e91906118fb565b610b1e565b600191505092915050565b60008060008373ffffffffffffffffffffffffffffffffffffffff1673ffffffffffffffffffffffffffffffffffffffff168152602001908152602001600020549050919050565b6106ae610a98565b6106b86000610fe9565b565b6000600560009054906101000a900473ffffffffffffffffffffffffffffffffffffffff16905090565b6060600480546106f3906118ca565b80601f016020809104026020016040519081016040528092919081815260200182805461071f906118ca565b801561076c5780601f106107415761010080835404028352916020019161076c565b820191906000526020600020905b81548152906001019060200180831161074f57829003601f168201915b5050505050905090565b61077e610a98565b61078f6107896106ba565b826110af565b50565b60008061079d610b16565b905060006107ab828661098e565b9050838110156107f0576040517f08c379a00000000000000000000000000000000000000000000000000000000081526004016107e7906119a1565b60405180910390fd5b6107fd8286868403610b1e565b60019250505092915050565b600080610814610b16565b9050610821818585610d73565b600191505092915050565b610834610a98565b6006819080600181540180825580915050600190039060005260206000200160009091909190916101000a81548173ffffffffffffffffffffffffffffffffffffffff021916908373ffffffffffffffffffffffffffffffffffffffff16021790555050565b6000805b600680549050811015610938573373ffffffffffffffffffffffffffffffffffffffff16600682815481106108d6576108d56117f5565b5b9060005260206000200160009054906101000a900473ffffffffffffffffffffffffffffffffffffffff1673ffffffffffffffffffffffffffffffffffffffff16036109255760019150610938565b808061093090611853565b91505061089e565b5080610979576040517f08c379a000000000000000000000000000000000000000000000000000000000815260040161097090611a0d565b60405180910390fd5b61098a6109846106ba565b83611205565b5050565b6000600160008473ffffffffffffffffffffffffffffffffffffffff1673ffffffffffffffffffffffffffffffffffffffff16815260200190815260200160002060008373ffffffffffffffffffffffffffffffffffffffff1673ffffffffffffffffffffffffffffffffffffffff16815260200190815260200160002054905092915050565b610a1d610a98565b600073ffffffffffffffffffffffffffffffffffffffff168173ffffffffffffffffffffffffffffffffffffffff1603610a8c576040517f08c379a0000000000000000000000000000000000000000000000000000000008152600401610a8390611a9f565b60405180910390fd5b610a9581610fe9565b50565b610aa0610b16565b73ffffffffffffffffffffffffffffffffffffffff16610abe6106ba565b73ffffffffffffffffffffffffffffffffffffffff1614610b14576040517f08c379a0000000000000000000000000000000000000000000000000000000008152600401610b0b90611b0b565b60405180910390fd5b565b600033905090565b600073ffffffffffffffffffffffffffffffffffffffff168373ffffffffffffffffffffffffffffffffffffffff1603610b8d576040517f08c379a0000000000000000000000000000000000000000000000000000000008152600401610b8490611b9d565b60405180910390fd5b600073ffffffffffffffffffffffffffffffffffffffff168273ffffffffffffffffffffffffffffffffffffffff1603610bfc576040517f08c379a0000000000000000000000000000000000000000000000000000000008152600401610bf390611c2f565b60405180910390fd5b80600160008573ffffffffffffffffffffffffffffffffffffffff1673ffffffffffffffffffffffffffffffffffffffff16815260200190815260200160002060008473ffffffffffffffffffffffffffffffffffffffff1673ffffffffffffffffffffffffffffffffffffffff168152602001908152602001600020819055508173ffffffffffffffffffffffffffffffffffffffff168373ffffffffffffffffffffffffffffffffffffffff167f8c5be1e5ebec7d5bd14f71427d1e84f3dd0314c0f7b2291e5b200ac8c7c3b92583604051610cda91906116b9565b60405180910390a3505050565b6000610cf3848461098e565b90507fffffffffffffffffffffffffffffffffffffffffffffffffffffffffffffffff8114610d6d5781811015610d5f576040517f08c379a0000000000000000000000000000000000000000000000000000000008152600401610d5690611c9b565b60405180910390fd5b610d6c8484848403610b1e565b5b50505050565b600073ffffffffffffffffffffffffffffffffffffffff168373ffffffffffffffffffffffffffffffffffffffff1603610de2576040517f08c379a0000000000000000000000000000000000000000000000000000000008152600401610dd990611d2d565b60405180910390fd5b600073ffffffffffffffffffffffffffffffffffffffff168273ffffffffffffffffffffffffffffffffffffffff1603610e51576040517f08c379a0000000000000000000000000000000000000000000000000000000008152600401610e4890611dbf565b60405180910390fd5b610e5c8383836113d2565b60008060008573ffffffffffffffffffffffffffffffffffffffff1673ffffffffffffffffffffffffffffffffffffffff16815260200190815260200160002054905081811015610ee2576040517f08c379a0000000000000000000000000000000000000000000000000000000008152600401610ed990611e51565b60405180910390fd5b8181036000808673ffffffffffffffffffffffffffffffffffffffff1673ffffffffffffffffffffffffffffffffffffffff16815260200190815260200160002081905550816000808573ffffffffffffffffffffffffffffffffffffffff1673ffffffffffffffffffffffffffffffffffffffff168152602001908152602001600020600082825401925050819055508273ffffffffffffffffffffffffffffffffffffffff168473ffffffffffffffffffffffffffffffffffffffff167fddf252ad1be2c89b69c2b068fc378daa952ba7f163c4a11628f55a4df523b3ef84604051610fd091906116b9565b60405180910390a3610fe38484846113d7565b50505050565b6000600560009054906101000a900473ffffffffffffffffffffffffffffffffffffffff16905081600560006101000a81548173ffffffffffffffffffffffffffffffffffffffff021916908373ffffffffffffffffffffffffffffffffffffffff1602179055508173ffffffffffffffffffffffffffffffffffffffff168173ffffffffffffffffffffffffffffffffffffffff167f8be0079c531659141344cd1fd0a4f28419497f9722a3daafe3b4186f6b6457e060405160405180910390a35050565b600073ffffffffffffffffffffffffffffffffffffffff168273ffffffffffffffffffffffffffffffffffffffff160361111e576040517f08c379a000000000000000000000000000000000000000000000000000000000815260040161111590611ebd565b60405180910390fd5b61112a600083836113d2565b806002600082825461113c91906118fb565b92505081905550806000808473ffffffffffffffffffffffffffffffffffffffff1673ffffffffffffffffffffffffffffffffffffffff168152602001908152602001600020600082825401925050819055508173ffffffffffffffffffffffffffffffffffffffff16600073ffffffffffffffffffffffffffffffffffffffff167fddf252ad1be2c89b69c2b068fc378daa952ba7f163c4a11628f55a4df523b3ef836040516111ed91906116b9565b60405180910390a3611201600083836113d7565b5050565b600073ffffffffffffffffffffffffffffffffffffffff168273ffffffffffffffffffffffffffffffffffffffff1603611274576040517f08c379a000000000000000000000000000000000000000000000000000000000815260040161126b90611f4f565b60405180910390fd5b611280826000836113d2565b60008060008473ffffffffffffffffffffffffffffffffffffffff1673ffffffffffffffffffffffffffffffffffffffff16815260200190815260200160002054905081811015611306576040517f08c379a00000000000000000000000000000000000000000000000000000000081526004016112fd90611fe1565b60405180910390fd5b8181036000808573ffffffffffffffffffffffffffffffffffffffff1673ffffffffffffffffffffffffffffffffffffffff1681526020019081526020016000208190555081600260008282540392505081905550600073ffffffffffffffffffffffffffffffffffffffff168373ffffffffffffffffffffffffffffffffffffffff167fddf252ad1be2c89b69c2b068fc378daa952ba7f163c4a11628f55a4df523b3ef846040516113b991906116b9565b60405180910390a36113cd836000846113d7565b505050565b505050565b505050565b600080fd5b600073ffffffffffffffffffffffffffffffffffffffff82169050919050565b600061140c826113e1565b9050919050565b61141c81611401565b811461142757600080fd5b50565b60008135905061143981611413565b92915050565b600060208284031215611455576114546113dc565b5b60006114638482850161142a565b91505092915050565b600081519050919050565b600082825260208201905092915050565b60005b838110156114a657808201518184015260208101905061148b565b60008484015250505050565b6000601f19601f8301169050919050565b60006114ce8261146c565b6114d88185611477565b93506114e8818560208601611488565b6114f1816114b2565b840191505092915050565b6000602082019050818103600083015261151681846114c3565b905092915050565b6000819050919050565b6115318161151e565b811461153c57600080fd5b50565b60008135905061154e81611528565b92915050565b6000806040838503121561156b5761156a6113dc565b5b60006115798582860161142a565b925050602061158a8582860161153f565b9150509250929050565b60008115159050919050565b6115a981611594565b82525050565b60006020820190506115c460008301846115a0565b92915050565b600081519050919050565b600082825260208201905092915050565b6000819050602082019050919050565b6115ff81611401565b82525050565b600061161183836115f6565b60208301905092915050565b6000602082019050919050565b6000611635826115ca565b61163f81856115d5565b935061164a836115e6565b8060005b8381101561167b5781516116628882611605565b975061166d8361161d565b92505060018101905061164e565b5085935050505092915050565b600060208201905081810360008301526116a2818461162a565b905092915050565b6116b38161151e565b82525050565b60006020820190506116ce60008301846116aa565b92915050565b6000806000606084860312156116ed576116ec6113dc565b5b60006116fb8682870161142a565b935050602061170c8682870161142a565b925050604061171d8682870161153f565b9150509250925092565b600060ff82169050919050565b61173d81611727565b82525050565b60006020820190506117586000830184611734565b92915050565b61176781611401565b82525050565b6000602082019050611782600083018461175e565b92915050565b60006020828403121561179e5761179d6113dc565b5b60006117ac8482850161153f565b91505092915050565b600080604083850312156117cc576117cb6113dc565b5b60006117da8582860161142a565b92505060206117eb8582860161142a565b9150509250929050565b7f4e487b7100000000000000000000000000000000000000000000000000000000600052603260045260246000fd5b7f4e487b7100000000000000000000000000000000000000000000000000000000600052601160045260246000fd5b600061185e8261151e565b91507fffffffffffffffffffffffffffffffffffffffffffffffffffffffffffffffff82036118905761188f611824565b5b600182019050919050565b7f4e487b7100000000000000000000000000000000000000000000000000000000600052602260045260246000fd5b600060028204905060018216806118e257607f821691505b6020821081036118f5576118f461189b565b5b50919050565b60006119068261151e565b91506119118361151e565b925082820190508082111561192957611928611824565b5b92915050565b7f45524332303a2064656372656173656420616c6c6f77616e63652062656c6f7760008201527f207a65726f000000000000000000000000000000000000000000000000000000602082015250565b600061198b602583611477565b91506119968261192f565b604082019050919050565b600060208201905081810360008301526119ba8161197e565b9050919050565b7f6d73672e73656e646572206973206e6f74207468652070617965720000000000600082015250565b60006119f7601b83611477565b9150611a02826119c1565b602082019050919050565b60006020820190508181036000830152611a26816119ea565b9050919050565b7f4f776e61626c653a206e6577206f776e657220697320746865207a65726f206160008201527f6464726573730000000000000000000000000000000000000000000000000000602082015250565b6000611a89602683611477565b9150611a9482611a2d565b604082019050919050565b60006020820190508181036000830152611ab881611a7c565b9050919050565b7f4f776e61626c653a2063616c6c6572206973206e6f7420746865206f776e6572600082015250565b6000611af5602083611477565b9150611b0082611abf565b602082019050919050565b60006020820190508181036000830152611b2481611ae8565b9050919050565b7f45524332303a20617070726f76652066726f6d20746865207a65726f2061646460008201527f7265737300000000000000000000000000000000000000000000000000000000602082015250565b6000611b87602483611477565b9150611b9282611b2b565b604082019050919050565b60006020820190508181036000830152611bb681611b7a565b9050919050565b7f45524332303a20617070726f766520746f20746865207a65726f20616464726560008201527f7373000000000000000000000000000000000000000000000000000000000000602082015250565b6000611c19602283611477565b9150611c2482611bbd565b604082019050919050565b60006020820190508181036000830152611c4881611c0c565b9050919050565b7f45524332303a20696e73756666696369656e7420616c6c6f77616e6365000000600082015250565b6000611c85601d83611477565b9150611c9082611c4f565b602082019050919050565b60006020820190508181036000830152611cb481611c78565b9050919050565b7f45524332303a207472616e736665722066726f6d20746865207a65726f20616460008201527f6472657373000000000000000000000000000000000000000000000000000000602082015250565b6000611d17602583611477565b9150611d2282611cbb565b604082019050919050565b60006020820190508181036000830152611d4681611d0a565b9050919050565b7f45524332303a207472616e7366657220746f20746865207a65726f206164647260008201527f6573730000000000000000000000000000000000000000000000000000000000602082015250565b6000611da9602383611477565b9150611db482611d4d565b604082019050919050565b60006020820190508181036000830152611dd881611d9c565b9050919050565b7f45524332303a207472616e7366657220616d6f756e742065786365656473206260008201527f616c616e63650000000000000000000000000000000000000000000000000000602082015250565b6000611e3b602683611477565b9150611e4682611ddf565b604082019050919050565b60006020820190508181036000830152611e6a81611e2e565b9050919050565b7f45524332303a206d696e7420746f20746865207a65726f206164647265737300600082015250565b6000611ea7601f83611477565b9150611eb282611e71565b602082019050919050565b60006020820190508181036000830152611ed681611e9a565b9050919050565b7f45524332303a206275726e2066726f6d20746865207a65726f2061646472657360008201527f7300000000000000000000000000000000000000000000000000000000000000602082015250565b6000611f39602183611477565b9150611f4482611edd565b604082019050919050565b60006020820190508181036000830152611f6881611f2c565b9050919050565b7f45524332303a206275726e20616d6f756e7420657863656564732062616c616e60008201527f6365000000000000000000000000000000000000000000000000000000000000602082015250565b6000611fcb602283611477565b9150611fd682611f6f565b604082019050919050565b60006020820190508181036000830152611ffa81611fbe565b905091905056fea26469706673582212204b65e355148afe6c3e0aaf0c89bbf998084d300e8fb69c48af87423d5db775bf64736f6c63430008120033",
					"opcodes": "PUSH1 0x80 PUSH1 0x40 MSTORE CALLVALUE DUP1 ISZERO PUSH3 0x11 JUMPI PUSH1 0x0 DUP1 REVERT JUMPDEST POP PUSH1 0x40 MLOAD DUP1 PUSH1 0x40 ADD PUSH1 0x40 MSTORE DUP1 PUSH1 0x7 DUP2 MSTORE PUSH1 0x20 ADD PUSH32 0x53686F436F696E00000000000000000000000000000000000000000000000000 DUP2 MSTORE POP PUSH1 0x40 MLOAD DUP1 PUSH1 0x40 ADD PUSH1 0x40 MSTORE DUP1 PUSH1 0x4 DUP2 MSTORE PUSH1 0x20 ADD PUSH32 0x53484F4300000000000000000000000000000000000000000000000000000000 DUP2 MSTORE POP DUP2 PUSH1 0x3 SWAP1 DUP2 PUSH3 0x8F SWAP2 SWAP1 PUSH3 0x4AE JUMP JUMPDEST POP DUP1 PUSH1 0x4 SWAP1 DUP2 PUSH3 0xA1 SWAP2 SWAP1 PUSH3 0x4AE JUMP JUMPDEST POP POP POP PUSH3 0xC4 PUSH3 0xB8 PUSH3 0x13C PUSH1 0x20 SHL PUSH1 0x20 SHR JUMP JUMPDEST PUSH3 0x144 PUSH1 0x20 SHL PUSH1 0x20 SHR JUMP JUMPDEST PUSH1 0x6 PUSH3 0xD6 PUSH3 0x20A PUSH1 0x20 SHL PUSH1 0x20 SHR JUMP JUMPDEST SWAP1 DUP1 PUSH1 0x1 DUP2 SLOAD ADD DUP1 DUP3 SSTORE DUP1 SWAP2 POP POP PUSH1 0x1 SWAP1 SUB SWAP1 PUSH1 0x0 MSTORE PUSH1 0x20 PUSH1 0x0 KECCAK256 ADD PUSH1 0x0 SWAP1 SWAP2 SWAP1 SWAP2 SWAP1 SWAP2 PUSH2 0x100 EXP DUP2 SLOAD DUP2 PUSH20 0xFFFFFFFFFFFFFFFFFFFFFFFFFFFFFFFFFFFFFFFF MUL NOT AND SWAP1 DUP4 PUSH20 0xFFFFFFFFFFFFFFFFFFFFFFFFFFFFFFFFFFFFFFFF AND MUL OR SWAP1 SSTORE POP PUSH3 0x595 JUMP JUMPDEST PUSH1 0x0 CALLER SWAP1 POP SWAP1 JUMP JUMPDEST PUSH1 0x0 PUSH1 0x5 PUSH1 0x0 SWAP1 SLOAD SWAP1 PUSH2 0x100 EXP SWAP1 DIV PUSH20 0xFFFFFFFFFFFFFFFFFFFFFFFFFFFFFFFFFFFFFFFF AND SWAP1 POP DUP2 PUSH1 0x5 PUSH1 0x0 PUSH2 0x100 EXP DUP2 SLOAD DUP2 PUSH20 0xFFFFFFFFFFFFFFFFFFFFFFFFFFFFFFFFFFFFFFFF MUL NOT AND SWAP1 DUP4 PUSH20 0xFFFFFFFFFFFFFFFFFFFFFFFFFFFFFFFFFFFFFFFF AND MUL OR SWAP1 SSTORE POP DUP2 PUSH20 0xFFFFFFFFFFFFFFFFFFFFFFFFFFFFFFFFFFFFFFFF AND DUP2 PUSH20 0xFFFFFFFFFFFFFFFFFFFFFFFFFFFFFFFFFFFFFFFF AND PUSH32 0x8BE0079C531659141344CD1FD0A4F28419497F9722A3DAAFE3B4186F6B6457E0 PUSH1 0x40 MLOAD PUSH1 0x40 MLOAD DUP1 SWAP2 SUB SWAP1 LOG3 POP POP JUMP JUMPDEST PUSH1 0x0 PUSH1 0x5 PUSH1 0x0 SWAP1 SLOAD SWAP1 PUSH2 0x100 EXP SWAP1 DIV PUSH20 0xFFFFFFFFFFFFFFFFFFFFFFFFFFFFFFFFFFFFFFFF AND SWAP1 POP SWAP1 JUMP JUMPDEST PUSH1 0x0 DUP2 MLOAD SWAP1 POP SWAP2 SWAP1 POP JUMP JUMPDEST PUSH32 0x4E487B7100000000000000000000000000000000000000000000000000000000 PUSH1 0x0 MSTORE PUSH1 0x41 PUSH1 0x4 MSTORE PUSH1 0x24 PUSH1 0x0 REVERT JUMPDEST PUSH32 0x4E487B7100000000000000000000000000000000000000000000000000000000 PUSH1 0x0 MSTORE PUSH1 0x22 PUSH1 0x4 MSTORE PUSH1 0x24 PUSH1 0x0 REVERT JUMPDEST PUSH1 0x0 PUSH1 0x2 DUP3 DIV SWAP1 POP PUSH1 0x1 DUP3 AND DUP1 PUSH3 0x2B6 JUMPI PUSH1 0x7F DUP3 AND SWAP2 POP JUMPDEST PUSH1 0x20 DUP3 LT DUP2 SUB PUSH3 0x2CC JUMPI PUSH3 0x2CB PUSH3 0x26E JUMP JUMPDEST JUMPDEST POP SWAP2 SWAP1 POP JUMP JUMPDEST PUSH1 0x0 DUP2 SWAP1 POP DUP2 PUSH1 0x0 MSTORE PUSH1 0x20 PUSH1 0x0 KECCAK256 SWAP1 POP SWAP2 SWAP1 POP JUMP JUMPDEST PUSH1 0x0 PUSH1 0x20 PUSH1 0x1F DUP4 ADD DIV SWAP1 POP SWAP2 SWAP1 POP JUMP JUMPDEST PUSH1 0x0 DUP3 DUP3 SHL SWAP1 POP SWAP3 SWAP2 POP POP JUMP JUMPDEST PUSH1 0x0 PUSH1 0x8 DUP4 MUL PUSH3 0x336 PUSH32 0xFFFFFFFFFFFFFFFFFFFFFFFFFFFFFFFFFFFFFFFFFFFFFFFFFFFFFFFFFFFFFFFF DUP3 PUSH3 0x2F7 JUMP JUMPDEST PUSH3 0x342 DUP7 DUP4 PUSH3 0x2F7 JUMP JUMPDEST SWAP6 POP DUP1 NOT DUP5 AND SWAP4 POP DUP1 DUP7 AND DUP5 OR SWAP3 POP POP POP SWAP4 SWAP3 POP POP POP JUMP JUMPDEST PUSH1 0x0 DUP2 SWAP1 POP SWAP2 SWAP1 POP JUMP JUMPDEST PUSH1 0x0 DUP2 SWAP1 POP SWAP2 SWAP1 POP JUMP JUMPDEST PUSH1 0x0 PUSH3 0x38F PUSH3 0x389 PUSH3 0x383 DUP5 PUSH3 0x35A JUMP JUMPDEST PUSH3 0x364 JUMP JUMPDEST PUSH3 0x35A JUMP JUMPDEST SWAP1 POP SWAP2 SWAP1 POP JUMP JUMPDEST PUSH1 0x0 DUP2 SWAP1 POP SWAP2 SWAP1 POP JUMP JUMPDEST PUSH3 0x3AB DUP4 PUSH3 0x36E JUMP JUMPDEST PUSH3 0x3C3 PUSH3 0x3BA DUP3 PUSH3 0x396 JUMP JUMPDEST DUP5 DUP5 SLOAD PUSH3 0x304 JUMP JUMPDEST DUP3 SSTORE POP POP POP POP JUMP JUMPDEST PUSH1 0x0 SWAP1 JUMP JUMPDEST PUSH3 0x3DA PUSH3 0x3CB JUMP JUMPDEST PUSH3 0x3E7 DUP2 DUP5 DUP5 PUSH3 0x3A0 JUMP JUMPDEST POP POP POP JUMP JUMPDEST JUMPDEST DUP2 DUP2 LT ISZERO PUSH3 0x40F JUMPI PUSH3 0x403 PUSH1 0x0 DUP3 PUSH3 0x3D0 JUMP JUMPDEST PUSH1 0x1 DUP2 ADD SWAP1 POP PUSH3 0x3ED JUMP JUMPDEST POP POP JUMP JUMPDEST PUSH1 0x1F DUP3 GT ISZERO PUSH3 0x45E JUMPI PUSH3 0x428 DUP2 PUSH3 0x2D2 JUMP JUMPDEST PUSH3 0x433 DUP5 PUSH3 0x2E7 JUMP JUMPDEST DUP2 ADD PUSH1 0x20 DUP6 LT ISZERO PUSH3 0x443 JUMPI DUP2 SWAP1 POP JUMPDEST PUSH3 0x45B PUSH3 0x452 DUP6 PUSH3 0x2E7 JUMP JUMPDEST DUP4 ADD DUP3 PUSH3 0x3EC JUMP JUMPDEST POP POP JUMPDEST POP POP POP JUMP JUMPDEST PUSH1 0x0 DUP3 DUP3 SHR SWAP1 POP SWAP3 SWAP2 POP POP JUMP JUMPDEST PUSH1 0x0 PUSH3 0x483 PUSH1 0x0 NOT DUP5 PUSH1 0x8 MUL PUSH3 0x463 JUMP JUMPDEST NOT DUP1 DUP4 AND SWAP2 POP POP SWAP3 SWAP2 POP POP JUMP JUMPDEST PUSH1 0x0 PUSH3 0x49E DUP4 DUP4 PUSH3 0x470 JUMP JUMPDEST SWAP2 POP DUP3 PUSH1 0x2 MUL DUP3 OR SWAP1 POP SWAP3 SWAP2 POP POP JUMP JUMPDEST PUSH3 0x4B9 DUP3 PUSH3 0x234 JUMP JUMPDEST PUSH8 0xFFFFFFFFFFFFFFFF DUP2 GT ISZERO PUSH3 0x4D5 JUMPI PUSH3 0x4D4 PUSH3 0x23F JUMP JUMPDEST JUMPDEST PUSH3 0x4E1 DUP3 SLOAD PUSH3 0x29D JUMP JUMPDEST PUSH3 0x4EE DUP3 DUP3 DUP6 PUSH3 0x413 JUMP JUMPDEST PUSH1 0x0 PUSH1 0x20 SWAP1 POP PUSH1 0x1F DUP4 GT PUSH1 0x1 DUP2 EQ PUSH3 0x526 JUMPI PUSH1 0x0 DUP5 ISZERO PUSH3 0x511 JUMPI DUP3 DUP8 ADD MLOAD SWAP1 POP JUMPDEST PUSH3 0x51D DUP6 DUP3 PUSH3 0x490 JUMP JUMPDEST DUP7 SSTORE POP PUSH3 0x58D JUMP JUMPDEST PUSH1 0x1F NOT DUP5 AND PUSH3 0x536 DUP7 PUSH3 0x2D2 JUMP JUMPDEST PUSH1 0x0 JUMPDEST DUP3 DUP2 LT ISZERO PUSH3 0x560 JUMPI DUP5 DUP10 ADD MLOAD DUP3 SSTORE PUSH1 0x1 DUP3 ADD SWAP2 POP PUSH1 0x20 DUP6 ADD SWAP5 POP PUSH1 0x20 DUP2 ADD SWAP1 POP PUSH3 0x539 JUMP JUMPDEST DUP7 DUP4 LT ISZERO PUSH3 0x580 JUMPI DUP5 DUP10 ADD MLOAD PUSH3 0x57C PUSH1 0x1F DUP10 AND DUP3 PUSH3 0x470 JUMP JUMPDEST DUP4 SSTORE POP JUMPDEST PUSH1 0x1 PUSH1 0x2 DUP9 MUL ADD DUP9 SSTORE POP POP POP JUMPDEST POP POP POP POP POP POP JUMP JUMPDEST PUSH2 0x2037 DUP1 PUSH3 0x5A5 PUSH1 0x0 CODECOPY PUSH1 0x0 RETURN INVALID PUSH1 0x80 PUSH1 0x40 MSTORE CALLVALUE DUP1 ISZERO PUSH2 0x10 JUMPI PUSH1 0x0 DUP1 REVERT JUMPDEST POP PUSH1 0x4 CALLDATASIZE LT PUSH2 0x121 JUMPI PUSH1 0x0 CALLDATALOAD PUSH1 0xE0 SHR DUP1 PUSH4 0x715018A6 GT PUSH2 0xAD JUMPI DUP1 PUSH4 0xA9059CBB GT PUSH2 0x71 JUMPI DUP1 PUSH4 0xA9059CBB EQ PUSH2 0x30C JUMPI DUP1 PUSH4 0xB78376E9 EQ PUSH2 0x33C JUMPI DUP1 PUSH4 0xC290D691 EQ PUSH2 0x358 JUMPI DUP1 PUSH4 0xDD62ED3E EQ PUSH2 0x374 JUMPI DUP1 PUSH4 0xF2FDE38B EQ PUSH2 0x3A4 JUMPI PUSH2 0x121 JUMP JUMPDEST DUP1 PUSH4 0x715018A6 EQ PUSH2 0x27A JUMPI DUP1 PUSH4 0x8DA5CB5B EQ PUSH2 0x284 JUMPI DUP1 PUSH4 0x95D89B41 EQ PUSH2 0x2A2 JUMPI DUP1 PUSH4 0xA0712D68 EQ PUSH2 0x2C0 JUMPI DUP1 PUSH4 0xA457C2D7 EQ PUSH2 0x2DC JUMPI PUSH2 0x121 JUMP JUMPDEST DUP1 PUSH4 0x18160DDD GT PUSH2 0xF4 JUMPI DUP1 PUSH4 0x18160DDD EQ PUSH2 0x1AE JUMPI DUP1 PUSH4 0x23B872DD EQ PUSH2 0x1CC JUMPI DUP1 PUSH4 0x313CE567 EQ PUSH2 0x1FC JUMPI DUP1 PUSH4 0x39509351 EQ PUSH2 0x21A JUMPI DUP1 PUSH4 0x70A08231 EQ PUSH2 0x24A JUMPI PUSH2 0x121 JUMP JUMPDEST DUP1 PUSH4 0x48F1627 EQ PUSH2 0x126 JUMPI DUP1 PUSH4 0x6FDDE03 EQ PUSH2 0x142 JUMPI DUP1 PUSH4 0x95EA7B3 EQ PUSH2 0x160 JUMPI DUP1 PUSH4 0x1055D708 EQ PUSH2 0x190 JUMPI JUMPDEST PUSH1 0x0 DUP1 REVERT JUMPDEST PUSH2 0x140 PUSH1 0x4 DUP1 CALLDATASIZE SUB DUP2 ADD SWAP1 PUSH2 0x13B SWAP2 SWAP1 PUSH2 0x143F JUMP JUMPDEST PUSH2 0x3C0 JUMP JUMPDEST STOP JUMPDEST PUSH2 0x14A PUSH2 0x4A2 JUMP JUMPDEST PUSH1 0x40 MLOAD PUSH2 0x157 SWAP2 SWAP1 PUSH2 0x14FC JUMP JUMPDEST PUSH1 0x40 MLOAD DUP1 SWAP2 SUB SWAP1 RETURN JUMPDEST PUSH2 0x17A PUSH1 0x4 DUP1 CALLDATASIZE SUB DUP2 ADD SWAP1 PUSH2 0x175 SWAP2 SWAP1 PUSH2 0x1554 JUMP JUMPDEST PUSH2 0x534 JUMP JUMPDEST PUSH1 0x40 MLOAD PUSH2 0x187 SWAP2 SWAP1 PUSH2 0x15AF JUMP JUMPDEST PUSH1 0x40 MLOAD DUP1 SWAP2 SUB SWAP1 RETURN JUMPDEST PUSH2 0x198 PUSH2 0x557 JUMP JUMPDEST PUSH1 0x40 MLOAD PUSH2 0x1A5 SWAP2 SWAP1 PUSH2 0x1688 JUMP JUMPDEST PUSH1 0x40 MLOAD DUP1 SWAP2 SUB SWAP1 RETURN JUMPDEST PUSH2 0x1B6 PUSH2 0x5E5 JUMP JUMPDEST PUSH1 0x40 MLOAD PUSH2 0x1C3 SWAP2 SWAP1 PUSH2 0x16B9 JUMP JUMPDEST PUSH1 0x40 MLOAD DUP1 SWAP2 SUB SWAP1 RETURN JUMPDEST PUSH2 0x1E6 PUSH1 0x4 DUP1 CALLDATASIZE SUB DUP2 ADD SWAP1 PUSH2 0x1E1 SWAP2 SWAP1 PUSH2 0x16D4 JUMP JUMPDEST PUSH2 0x5EF JUMP JUMPDEST PUSH1 0x40 MLOAD PUSH2 0x1F3 SWAP2 SWAP1 PUSH2 0x15AF JUMP JUMPDEST PUSH1 0x40 MLOAD DUP1 SWAP2 SUB SWAP1 RETURN JUMPDEST PUSH2 0x204 PUSH2 0x61E JUMP JUMPDEST PUSH1 0x40 MLOAD PUSH2 0x211 SWAP2 SWAP1 PUSH2 0x1743 JUMP JUMPDEST PUSH1 0x40 MLOAD DUP1 SWAP2 SUB SWAP1 RETURN JUMPDEST PUSH2 0x234 PUSH1 0x4 DUP1 CALLDATASIZE SUB DUP2 ADD SWAP1 PUSH2 0x22F SWAP2 SWAP1 PUSH2 0x1554 JUMP JUMPDEST PUSH2 0x627 JUMP JUMPDEST PUSH1 0x40 MLOAD PUSH2 0x241 SWAP2 SWAP1 PUSH2 0x15AF JUMP JUMPDEST PUSH1 0x40 MLOAD DUP1 SWAP2 SUB SWAP1 RETURN JUMPDEST PUSH2 0x264 PUSH1 0x4 DUP1 CALLDATASIZE SUB DUP2 ADD SWAP1 PUSH2 0x25F SWAP2 SWAP1 PUSH2 0x143F JUMP JUMPDEST PUSH2 0x65E JUMP JUMPDEST PUSH1 0x40 MLOAD PUSH2 0x271 SWAP2 SWAP1 PUSH2 0x16B9 JUMP JUMPDEST PUSH1 0x40 MLOAD DUP1 SWAP2 SUB SWAP1 RETURN JUMPDEST PUSH2 0x282 PUSH2 0x6A6 JUMP JUMPDEST STOP JUMPDEST PUSH2 0x28C PUSH2 0x6BA JUMP JUMPDEST PUSH1 0x40 MLOAD PUSH2 0x299 SWAP2 SWAP1 PUSH2 0x176D JUMP JUMPDEST PUSH1 0x40 MLOAD DUP1 SWAP2 SUB SWAP1 RETURN JUMPDEST PUSH2 0x2AA PUSH2 0x6E4 JUMP JUMPDEST PUSH1 0x40 MLOAD PUSH2 0x2B7 SWAP2 SWAP1 PUSH2 0x14FC JUMP JUMPDEST PUSH1 0x40 MLOAD DUP1 SWAP2 SUB SWAP1 RETURN JUMPDEST PUSH2 0x2DA PUSH1 0x4 DUP1 CALLDATASIZE SUB DUP2 ADD SWAP1 PUSH2 0x2D5 SWAP2 SWAP1 PUSH2 0x1788 JUMP JUMPDEST PUSH2 0x776 JUMP JUMPDEST STOP JUMPDEST PUSH2 0x2F6 PUSH1 0x4 DUP1 CALLDATASIZE SUB DUP2 ADD SWAP1 PUSH2 0x2F1 SWAP2 SWAP1 PUSH2 0x1554 JUMP JUMPDEST PUSH2 0x792 JUMP JUMPDEST PUSH1 0x40 MLOAD PUSH2 0x303 SWAP2 SWAP1 PUSH2 0x15AF JUMP JUMPDEST PUSH1 0x40 MLOAD DUP1 SWAP2 SUB SWAP1 RETURN JUMPDEST PUSH2 0x326 PUSH1 0x4 DUP1 CALLDATASIZE SUB DUP2 ADD SWAP1 PUSH2 0x321 SWAP2 SWAP1 PUSH2 0x1554 JUMP JUMPDEST PUSH2 0x809 JUMP JUMPDEST PUSH1 0x40 MLOAD PUSH2 0x333 SWAP2 SWAP1 PUSH2 0x15AF JUMP JUMPDEST PUSH1 0x40 MLOAD DUP1 SWAP2 SUB SWAP1 RETURN JUMPDEST PUSH2 0x356 PUSH1 0x4 DUP1 CALLDATASIZE SUB DUP2 ADD SWAP1 PUSH2 0x351 SWAP2 SWAP1 PUSH2 0x143F JUMP JUMPDEST PUSH2 0x82C JUMP JUMPDEST STOP JUMPDEST PUSH2 0x372 PUSH1 0x4 DUP1 CALLDATASIZE SUB DUP2 ADD SWAP1 PUSH2 0x36D SWAP2 SWAP1 PUSH2 0x1788 JUMP JUMPDEST PUSH2 0x89A JUMP JUMPDEST STOP JUMPDEST PUSH2 0x38E PUSH1 0x4 DUP1 CALLDATASIZE SUB DUP2 ADD SWAP1 PUSH2 0x389 SWAP2 SWAP1 PUSH2 0x17B5 JUMP JUMPDEST PUSH2 0x98E JUMP JUMPDEST PUSH1 0x40 MLOAD PUSH2 0x39B SWAP2 SWAP1 PUSH2 0x16B9 JUMP JUMPDEST PUSH1 0x40 MLOAD DUP1 SWAP2 SUB SWAP1 RETURN JUMPDEST PUSH2 0x3BE PUSH1 0x4 DUP1 CALLDATASIZE SUB DUP2 ADD SWAP1 PUSH2 0x3B9 SWAP2 SWAP1 PUSH2 0x143F JUMP JUMPDEST PUSH2 0xA15 JUMP JUMPDEST STOP JUMPDEST PUSH2 0x3C8 PUSH2 0xA98 JUMP JUMPDEST PUSH1 0x0 JUMPDEST PUSH1 0x6 DUP1 SLOAD SWAP1 POP DUP2 LT ISZERO PUSH2 0x49E JUMPI PUSH1 0x6 DUP2 DUP2 SLOAD DUP2 LT PUSH2 0x3EC JUMPI PUSH2 0x3EB PUSH2 0x17F5 JUMP JUMPDEST JUMPDEST SWAP1 PUSH1 0x0 MSTORE PUSH1 0x20 PUSH1 0x0 KECCAK256 ADD PUSH1 0x0 SWAP1 SLOAD SWAP1 PUSH2 0x100 EXP SWAP1 DIV PUSH20 0xFFFFFFFFFFFFFFFFFFFFFFFFFFFFFFFFFFFFFFFF AND PUSH20 0xFFFFFFFFFFFFFFFFFFFFFFFFFFFFFFFFFFFFFFFF AND DUP3 PUSH20 0xFFFFFFFFFFFFFFFFFFFFFFFFFFFFFFFFFFFFFFFF AND SUB PUSH2 0x48B JUMPI PUSH1 0x6 DUP2 DUP2 SLOAD DUP2 LT PUSH2 0x45D JUMPI PUSH2 0x45C PUSH2 0x17F5 JUMP JUMPDEST JUMPDEST SWAP1 PUSH1 0x0 MSTORE PUSH1 0x20 PUSH1 0x0 KECCAK256 ADD PUSH1 0x0 PUSH2 0x100 EXP DUP2 SLOAD SWAP1 PUSH20 0xFFFFFFFFFFFFFFFFFFFFFFFFFFFFFFFFFFFFFFFF MUL NOT AND SWAP1 SSTORE JUMPDEST DUP1 DUP1 PUSH2 0x496 SWAP1 PUSH2 0x1853 JUMP JUMPDEST SWAP2 POP POP PUSH2 0x3CB JUMP JUMPDEST POP POP JUMP JUMPDEST PUSH1 0x60 PUSH1 0x3 DUP1 SLOAD PUSH2 0x4B1 SWAP1 PUSH2 0x18CA JUMP JUMPDEST DUP1 PUSH1 0x1F ADD PUSH1 0x20 DUP1 SWAP2 DIV MUL PUSH1 0x20 ADD PUSH1 0x40 MLOAD SWAP1 DUP2 ADD PUSH1 0x40 MSTORE DUP1 SWAP3 SWAP2 SWAP1 DUP2 DUP2 MSTORE PUSH1 0x20 ADD DUP3 DUP1 SLOAD PUSH2 0x4DD SWAP1 PUSH2 0x18CA JUMP JUMPDEST DUP1 ISZERO PUSH2 0x52A JUMPI DUP1 PUSH1 0x1F LT PUSH2 0x4FF JUMPI PUSH2 0x100 DUP1 DUP4 SLOAD DIV MUL DUP4 MSTORE SWAP2 PUSH1 0x20 ADD SWAP2 PUSH2 0x52A JUMP JUMPDEST DUP3 ADD SWAP2 SWAP1 PUSH1 0x0 MSTORE PUSH1 0x20 PUSH1 0x0 KECCAK256 SWAP1 JUMPDEST DUP2 SLOAD DUP2 MSTORE SWAP1 PUSH1 0x1 ADD SWAP1 PUSH1 0x20 ADD DUP1 DUP4 GT PUSH2 0x50D JUMPI DUP3 SWAP1 SUB PUSH1 0x1F AND DUP3 ADD SWAP2 JUMPDEST POP POP POP POP POP SWAP1 POP SWAP1 JUMP JUMPDEST PUSH1 0x0 DUP1 PUSH2 0x53F PUSH2 0xB16 JUMP JUMPDEST SWAP1 POP PUSH2 0x54C DUP2 DUP6 DUP6 PUSH2 0xB1E JUMP JUMPDEST PUSH1 0x1 SWAP2 POP POP SWAP3 SWAP2 POP POP JUMP JUMPDEST PUSH1 0x60 PUSH1 0x6 DUP1 SLOAD DUP1 PUSH1 0x20 MUL PUSH1 0x20 ADD PUSH1 0x40 MLOAD SWAP1 DUP2 ADD PUSH1 0x40 MSTORE DUP1 SWAP3 SWAP2 SWAP1 DUP2 DUP2 MSTORE PUSH1 0x20 ADD DUP3 DUP1 SLOAD DUP1 ISZERO PUSH2 0x5DB JUMPI PUSH1 0x20 MUL DUP3 ADD SWAP2 SWAP1 PUSH1 0x0 MSTORE PUSH1 0x20 PUSH1 0x0 KECCAK256 SWAP1 JUMPDEST DUP2 PUSH1 0x0 SWAP1 SLOAD SWAP1 PUSH2 0x100 EXP SWAP1 DIV PUSH20 0xFFFFFFFFFFFFFFFFFFFFFFFFFFFFFFFFFFFFFFFF AND PUSH20 0xFFFFFFFFFFFFFFFFFFFFFFFFFFFFFFFFFFFFFFFF AND DUP2 MSTORE PUSH1 0x20 ADD SWAP1 PUSH1 0x1 ADD SWAP1 DUP1 DUP4 GT PUSH2 0x591 JUMPI JUMPDEST POP POP POP POP POP SWAP1 POP SWAP1 JUMP JUMPDEST PUSH1 0x0 PUSH1 0x2 SLOAD SWAP1 POP SWAP1 JUMP JUMPDEST PUSH1 0x0 DUP1 PUSH2 0x5FA PUSH2 0xB16 JUMP JUMPDEST SWAP1 POP PUSH2 0x607 DUP6 DUP3 DUP6 PUSH2 0xCE7 JUMP JUMPDEST PUSH2 0x612 DUP6 DUP6 DUP6 PUSH2 0xD73 JUMP JUMPDEST PUSH1 0x1 SWAP2 POP POP SWAP4 SWAP3 POP POP POP JUMP JUMPDEST PUSH1 0x0 PUSH1 0x12 SWAP1 POP SWAP1 JUMP JUMPDEST PUSH1 0x0 DUP1 PUSH2 0x632 PUSH2 0xB16 JUMP JUMPDEST SWAP1 POP PUSH2 0x653 DUP2 DUP6 DUP6 PUSH2 0x644 DUP6 DUP10 PUSH2 0x98E JUMP JUMPDEST PUSH2 0x64E SWAP2 SWAP1 PUSH2 0x18FB JUMP JUMPDEST PUSH2 0xB1E JUMP JUMPDEST PUSH1 0x1 SWAP2 POP POP SWAP3 SWAP2 POP POP JUMP JUMPDEST PUSH1 0x0 DUP1 PUSH1 0x0 DUP4 PUSH20 0xFFFFFFFFFFFFFFFFFFFFFFFFFFFFFFFFFFFFFFFF AND PUSH20 0xFFFFFFFFFFFFFFFFFFFFFFFFFFFFFFFFFFFFFFFF AND DUP2 MSTORE PUSH1 0x20 ADD SWAP1 DUP2 MSTORE PUSH1 0x20 ADD PUSH1 0x0 KECCAK256 SLOAD SWAP1 POP SWAP2 SWAP1 POP JUMP JUMPDEST PUSH2 0x6AE PUSH2 0xA98 JUMP JUMPDEST PUSH2 0x6B8 PUSH1 0x0 PUSH2 0xFE9 JUMP JUMPDEST JUMP JUMPDEST PUSH1 0x0 PUSH1 0x5 PUSH1 0x0 SWAP1 SLOAD SWAP1 PUSH2 0x100 EXP SWAP1 DIV PUSH20 0xFFFFFFFFFFFFFFFFFFFFFFFFFFFFFFFFFFFFFFFF AND SWAP1 POP SWAP1 JUMP JUMPDEST PUSH1 0x60 PUSH1 0x4 DUP1 SLOAD PUSH2 0x6F3 SWAP1 PUSH2 0x18CA JUMP JUMPDEST DUP1 PUSH1 0x1F ADD PUSH1 0x20 DUP1 SWAP2 DIV MUL PUSH1 0x20 ADD PUSH1 0x40 MLOAD SWAP1 DUP2 ADD PUSH1 0x40 MSTORE DUP1 SWAP3 SWAP2 SWAP1 DUP2 DUP2 MSTORE PUSH1 0x20 ADD DUP3 DUP1 SLOAD PUSH2 0x71F SWAP1 PUSH2 0x18CA JUMP JUMPDEST DUP1 ISZERO PUSH2 0x76C JUMPI DUP1 PUSH1 0x1F LT PUSH2 0x741 JUMPI PUSH2 0x100 DUP1 DUP4 SLOAD DIV MUL DUP4 MSTORE SWAP2 PUSH1 0x20 ADD SWAP2 PUSH2 0x76C JUMP JUMPDEST DUP3 ADD SWAP2 SWAP1 PUSH1 0x0 MSTORE PUSH1 0x20 PUSH1 0x0 KECCAK256 SWAP1 JUMPDEST DUP2 SLOAD DUP2 MSTORE SWAP1 PUSH1 0x1 ADD SWAP1 PUSH1 0x20 ADD DUP1 DUP4 GT PUSH2 0x74F JUMPI DUP3 SWAP1 SUB PUSH1 0x1F AND DUP3 ADD SWAP2 JUMPDEST POP POP POP POP POP SWAP1 POP SWAP1 JUMP JUMPDEST PUSH2 0x77E PUSH2 0xA98 JUMP JUMPDEST PUSH2 0x78F PUSH2 0x789 PUSH2 0x6BA JUMP JUMPDEST DUP3 PUSH2 0x10AF JUMP JUMPDEST POP JUMP JUMPDEST PUSH1 0x0 DUP1 PUSH2 0x79D PUSH2 0xB16 JUMP JUMPDEST SWAP1 POP PUSH1 0x0 PUSH2 0x7AB DUP3 DUP7 PUSH2 0x98E JUMP JUMPDEST SWAP1 POP DUP4 DUP2 LT ISZERO PUSH2 0x7F0 JUMPI PUSH1 0x40 MLOAD PUSH32 0x8C379A000000000000000000000000000000000000000000000000000000000 DUP2 MSTORE PUSH1 0x4 ADD PUSH2 0x7E7 SWAP1 PUSH2 0x19A1 JUMP JUMPDEST PUSH1 0x40 MLOAD DUP1 SWAP2 SUB SWAP1 REVERT JUMPDEST PUSH2 0x7FD DUP3 DUP7 DUP7 DUP5 SUB PUSH2 0xB1E JUMP JUMPDEST PUSH1 0x1 SWAP3 POP POP POP SWAP3 SWAP2 POP POP JUMP JUMPDEST PUSH1 0x0 DUP1 PUSH2 0x814 PUSH2 0xB16 JUMP JUMPDEST SWAP1 POP PUSH2 0x821 DUP2 DUP6 DUP6 PUSH2 0xD73 JUMP JUMPDEST PUSH1 0x1 SWAP2 POP POP SWAP3 SWAP2 POP POP JUMP JUMPDEST PUSH2 0x834 PUSH2 0xA98 JUMP JUMPDEST PUSH1 0x6 DUP2 SWAP1 DUP1 PUSH1 0x1 DUP2 SLOAD ADD DUP1 DUP3 SSTORE DUP1 SWAP2 POP POP PUSH1 0x1 SWAP1 SUB SWAP1 PUSH1 0x0 MSTORE PUSH1 0x20 PUSH1 0x0 KECCAK256 ADD PUSH1 0x0 SWAP1 SWAP2 SWAP1 SWAP2 SWAP1 SWAP2 PUSH2 0x100 EXP DUP2 SLOAD DUP2 PUSH20 0xFFFFFFFFFFFFFFFFFFFFFFFFFFFFFFFFFFFFFFFF MUL NOT AND SWAP1 DUP4 PUSH20 0xFFFFFFFFFFFFFFFFFFFFFFFFFFFFFFFFFFFFFFFF AND MUL OR SWAP1 SSTORE POP POP JUMP JUMPDEST PUSH1 0x0 DUP1 JUMPDEST PUSH1 0x6 DUP1 SLOAD SWAP1 POP DUP2 LT ISZERO PUSH2 0x938 JUMPI CALLER PUSH20 0xFFFFFFFFFFFFFFFFFFFFFFFFFFFFFFFFFFFFFFFF AND PUSH1 0x6 DUP3 DUP2 SLOAD DUP2 LT PUSH2 0x8D6 JUMPI PUSH2 0x8D5 PUSH2 0x17F5 JUMP JUMPDEST JUMPDEST SWAP1 PUSH1 0x0 MSTORE PUSH1 0x20 PUSH1 0x0 KECCAK256 ADD PUSH1 0x0 SWAP1 SLOAD SWAP1 PUSH2 0x100 EXP SWAP1 DIV PUSH20 0xFFFFFFFFFFFFFFFFFFFFFFFFFFFFFFFFFFFFFFFF AND PUSH20 0xFFFFFFFFFFFFFFFFFFFFFFFFFFFFFFFFFFFFFFFF AND SUB PUSH2 0x925 JUMPI PUSH1 0x1 SWAP2 POP PUSH2 0x938 JUMP JUMPDEST DUP1 DUP1 PUSH2 0x930 SWAP1 PUSH2 0x1853 JUMP JUMPDEST SWAP2 POP POP PUSH2 0x89E JUMP JUMPDEST POP DUP1 PUSH2 0x979 JUMPI PUSH1 0x40 MLOAD PUSH32 0x8C379A000000000000000000000000000000000000000000000000000000000 DUP2 MSTORE PUSH1 0x4 ADD PUSH2 0x970 SWAP1 PUSH2 0x1A0D JUMP JUMPDEST PUSH1 0x40 MLOAD DUP1 SWAP2 SUB SWAP1 REVERT JUMPDEST PUSH2 0x98A PUSH2 0x984 PUSH2 0x6BA JUMP JUMPDEST DUP4 PUSH2 0x1205 JUMP JUMPDEST POP POP JUMP JUMPDEST PUSH1 0x0 PUSH1 0x1 PUSH1 0x0 DUP5 PUSH20 0xFFFFFFFFFFFFFFFFFFFFFFFFFFFFFFFFFFFFFFFF AND PUSH20 0xFFFFFFFFFFFFFFFFFFFFFFFFFFFFFFFFFFFFFFFF AND DUP2 MSTORE PUSH1 0x20 ADD SWAP1 DUP2 MSTORE PUSH1 0x20 ADD PUSH1 0x0 KECCAK256 PUSH1 0x0 DUP4 PUSH20 0xFFFFFFFFFFFFFFFFFFFFFFFFFFFFFFFFFFFFFFFF AND PUSH20 0xFFFFFFFFFFFFFFFFFFFFFFFFFFFFFFFFFFFFFFFF AND DUP2 MSTORE PUSH1 0x20 ADD SWAP1 DUP2 MSTORE PUSH1 0x20 ADD PUSH1 0x0 KECCAK256 SLOAD SWAP1 POP SWAP3 SWAP2 POP POP JUMP JUMPDEST PUSH2 0xA1D PUSH2 0xA98 JUMP JUMPDEST PUSH1 0x0 PUSH20 0xFFFFFFFFFFFFFFFFFFFFFFFFFFFFFFFFFFFFFFFF AND DUP2 PUSH20 0xFFFFFFFFFFFFFFFFFFFFFFFFFFFFFFFFFFFFFFFF AND SUB PUSH2 0xA8C JUMPI PUSH1 0x40 MLOAD PUSH32 0x8C379A000000000000000000000000000000000000000000000000000000000 DUP2 MSTORE PUSH1 0x4 ADD PUSH2 0xA83 SWAP1 PUSH2 0x1A9F JUMP JUMPDEST PUSH1 0x40 MLOAD DUP1 SWAP2 SUB SWAP1 REVERT JUMPDEST PUSH2 0xA95 DUP2 PUSH2 0xFE9 JUMP JUMPDEST POP JUMP JUMPDEST PUSH2 0xAA0 PUSH2 0xB16 JUMP JUMPDEST PUSH20 0xFFFFFFFFFFFFFFFFFFFFFFFFFFFFFFFFFFFFFFFF AND PUSH2 0xABE PUSH2 0x6BA JUMP JUMPDEST PUSH20 0xFFFFFFFFFFFFFFFFFFFFFFFFFFFFFFFFFFFFFFFF AND EQ PUSH2 0xB14 JUMPI PUSH1 0x40 MLOAD PUSH32 0x8C379A000000000000000000000000000000000000000000000000000000000 DUP2 MSTORE PUSH1 0x4 ADD PUSH2 0xB0B SWAP1 PUSH2 0x1B0B JUMP JUMPDEST PUSH1 0x40 MLOAD DUP1 SWAP2 SUB SWAP1 REVERT JUMPDEST JUMP JUMPDEST PUSH1 0x0 CALLER SWAP1 POP SWAP1 JUMP JUMPDEST PUSH1 0x0 PUSH20 0xFFFFFFFFFFFFFFFFFFFFFFFFFFFFFFFFFFFFFFFF AND DUP4 PUSH20 0xFFFFFFFFFFFFFFFFFFFFFFFFFFFFFFFFFFFFFFFF AND SUB PUSH2 0xB8D JUMPI PUSH1 0x40 MLOAD PUSH32 0x8C379A000000000000000000000000000000000000000000000000000000000 DUP2 MSTORE PUSH1 0x4 ADD PUSH2 0xB84 SWAP1 PUSH2 0x1B9D JUMP JUMPDEST PUSH1 0x40 MLOAD DUP1 SWAP2 SUB SWAP1 REVERT JUMPDEST PUSH1 0x0 PUSH20 0xFFFFFFFFFFFFFFFFFFFFFFFFFFFFFFFFFFFFFFFF AND DUP3 PUSH20 0xFFFFFFFFFFFFFFFFFFFFFFFFFFFFFFFFFFFFFFFF AND SUB PUSH2 0xBFC JUMPI PUSH1 0x40 MLOAD PUSH32 0x8C379A000000000000000000000000000000000000000000000000000000000 DUP2 MSTORE PUSH1 0x4 ADD PUSH2 0xBF3 SWAP1 PUSH2 0x1C2F JUMP JUMPDEST PUSH1 0x40 MLOAD DUP1 SWAP2 SUB SWAP1 REVERT JUMPDEST DUP1 PUSH1 0x1 PUSH1 0x0 DUP6 PUSH20 0xFFFFFFFFFFFFFFFFFFFFFFFFFFFFFFFFFFFFFFFF AND PUSH20 0xFFFFFFFFFFFFFFFFFFFFFFFFFFFFFFFFFFFFFFFF AND DUP2 MSTORE PUSH1 0x20 ADD SWAP1 DUP2 MSTORE PUSH1 0x20 ADD PUSH1 0x0 KECCAK256 PUSH1 0x0 DUP5 PUSH20 0xFFFFFFFFFFFFFFFFFFFFFFFFFFFFFFFFFFFFFFFF AND PUSH20 0xFFFFFFFFFFFFFFFFFFFFFFFFFFFFFFFFFFFFFFFF AND DUP2 MSTORE PUSH1 0x20 ADD SWAP1 DUP2 MSTORE PUSH1 0x20 ADD PUSH1 0x0 KECCAK256 DUP2 SWAP1 SSTORE POP DUP2 PUSH20 0xFFFFFFFFFFFFFFFFFFFFFFFFFFFFFFFFFFFFFFFF AND DUP4 PUSH20 0xFFFFFFFFFFFFFFFFFFFFFFFFFFFFFFFFFFFFFFFF AND PUSH32 0x8C5BE1E5EBEC7D5BD14F71427D1E84F3DD0314C0F7B2291E5B200AC8C7C3B925 DUP4 PUSH1 0x40 MLOAD PUSH2 0xCDA SWAP2 SWAP1 PUSH2 0x16B9 JUMP JUMPDEST PUSH1 0x40 MLOAD DUP1 SWAP2 SUB SWAP1 LOG3 POP POP POP JUMP JUMPDEST PUSH1 0x0 PUSH2 0xCF3 DUP5 DUP5 PUSH2 0x98E JUMP JUMPDEST SWAP1 POP PUSH32 0xFFFFFFFFFFFFFFFFFFFFFFFFFFFFFFFFFFFFFFFFFFFFFFFFFFFFFFFFFFFFFFFF DUP2 EQ PUSH2 0xD6D JUMPI DUP2 DUP2 LT ISZERO PUSH2 0xD5F JUMPI PUSH1 0x40 MLOAD PUSH32 0x8C379A000000000000000000000000000000000000000000000000000000000 DUP2 MSTORE PUSH1 0x4 ADD PUSH2 0xD56 SWAP1 PUSH2 0x1C9B JUMP JUMPDEST PUSH1 0x40 MLOAD DUP1 SWAP2 SUB SWAP1 REVERT JUMPDEST PUSH2 0xD6C DUP5 DUP5 DUP5 DUP5 SUB PUSH2 0xB1E JUMP JUMPDEST JUMPDEST POP POP POP POP JUMP JUMPDEST PUSH1 0x0 PUSH20 0xFFFFFFFFFFFFFFFFFFFFFFFFFFFFFFFFFFFFFFFF AND DUP4 PUSH20 0xFFFFFFFFFFFFFFFFFFFFFFFFFFFFFFFFFFFFFFFF AND SUB PUSH2 0xDE2 JUMPI PUSH1 0x40 MLOAD PUSH32 0x8C379A000000000000000000000000000000000000000000000000000000000 DUP2 MSTORE PUSH1 0x4 ADD PUSH2 0xDD9 SWAP1 PUSH2 0x1D2D JUMP JUMPDEST PUSH1 0x40 MLOAD DUP1 SWAP2 SUB SWAP1 REVERT JUMPDEST PUSH1 0x0 PUSH20 0xFFFFFFFFFFFFFFFFFFFFFFFFFFFFFFFFFFFFFFFF AND DUP3 PUSH20 0xFFFFFFFFFFFFFFFFFFFFFFFFFFFFFFFFFFFFFFFF AND SUB PUSH2 0xE51 JUMPI PUSH1 0x40 MLOAD PUSH32 0x8C379A000000000000000000000000000000000000000000000000000000000 DUP2 MSTORE PUSH1 0x4 ADD PUSH2 0xE48 SWAP1 PUSH2 0x1DBF JUMP JUMPDEST PUSH1 0x40 MLOAD DUP1 SWAP2 SUB SWAP1 REVERT JUMPDEST PUSH2 0xE5C DUP4 DUP4 DUP4 PUSH2 0x13D2 JUMP JUMPDEST PUSH1 0x0 DUP1 PUSH1 0x0 DUP6 PUSH20 0xFFFFFFFFFFFFFFFFFFFFFFFFFFFFFFFFFFFFFFFF AND PUSH20 0xFFFFFFFFFFFFFFFFFFFFFFFFFFFFFFFFFFFFFFFF AND DUP2 MSTORE PUSH1 0x20 ADD SWAP1 DUP2 MSTORE PUSH1 0x20 ADD PUSH1 0x0 KECCAK256 SLOAD SWAP1 POP DUP2 DUP2 LT ISZERO PUSH2 0xEE2 JUMPI PUSH1 0x40 MLOAD PUSH32 0x8C379A000000000000000000000000000000000000000000000000000000000 DUP2 MSTORE PUSH1 0x4 ADD PUSH2 0xED9 SWAP1 PUSH2 0x1E51 JUMP JUMPDEST PUSH1 0x40 MLOAD DUP1 SWAP2 SUB SWAP1 REVERT JUMPDEST DUP2 DUP2 SUB PUSH1 0x0 DUP1 DUP7 PUSH20 0xFFFFFFFFFFFFFFFFFFFFFFFFFFFFFFFFFFFFFFFF AND PUSH20 0xFFFFFFFFFFFFFFFFFFFFFFFFFFFFFFFFFFFFFFFF AND DUP2 MSTORE PUSH1 0x20 ADD SWAP1 DUP2 MSTORE PUSH1 0x20 ADD PUSH1 0x0 KECCAK256 DUP2 SWAP1 SSTORE POP DUP2 PUSH1 0x0 DUP1 DUP6 PUSH20 0xFFFFFFFFFFFFFFFFFFFFFFFFFFFFFFFFFFFFFFFF AND PUSH20 0xFFFFFFFFFFFFFFFFFFFFFFFFFFFFFFFFFFFFFFFF AND DUP2 MSTORE PUSH1 0x20 ADD SWAP1 DUP2 MSTORE PUSH1 0x20 ADD PUSH1 0x0 KECCAK256 PUSH1 0x0 DUP3 DUP3 SLOAD ADD SWAP3 POP POP DUP2 SWAP1 SSTORE POP DUP3 PUSH20 0xFFFFFFFFFFFFFFFFFFFFFFFFFFFFFFFFFFFFFFFF AND DUP5 PUSH20 0xFFFFFFFFFFFFFFFFFFFFFFFFFFFFFFFFFFFFFFFF AND PUSH32 0xDDF252AD1BE2C89B69C2B068FC378DAA952BA7F163C4A11628F55A4DF523B3EF DUP5 PUSH1 0x40 MLOAD PUSH2 0xFD0 SWAP2 SWAP1 PUSH2 0x16B9 JUMP JUMPDEST PUSH1 0x40 MLOAD DUP1 SWAP2 SUB SWAP1 LOG3 PUSH2 0xFE3 DUP5 DUP5 DUP5 PUSH2 0x13D7 JUMP JUMPDEST POP POP POP POP JUMP JUMPDEST PUSH1 0x0 PUSH1 0x5 PUSH1 0x0 SWAP1 SLOAD SWAP1 PUSH2 0x100 EXP SWAP1 DIV PUSH20 0xFFFFFFFFFFFFFFFFFFFFFFFFFFFFFFFFFFFFFFFF AND SWAP1 POP DUP2 PUSH1 0x5 PUSH1 0x0 PUSH2 0x100 EXP DUP2 SLOAD DUP2 PUSH20 0xFFFFFFFFFFFFFFFFFFFFFFFFFFFFFFFFFFFFFFFF MUL NOT AND SWAP1 DUP4 PUSH20 0xFFFFFFFFFFFFFFFFFFFFFFFFFFFFFFFFFFFFFFFF AND MUL OR SWAP1 SSTORE POP DUP2 PUSH20 0xFFFFFFFFFFFFFFFFFFFFFFFFFFFFFFFFFFFFFFFF AND DUP2 PUSH20 0xFFFFFFFFFFFFFFFFFFFFFFFFFFFFFFFFFFFFFFFF AND PUSH32 0x8BE0079C531659141344CD1FD0A4F28419497F9722A3DAAFE3B4186F6B6457E0 PUSH1 0x40 MLOAD PUSH1 0x40 MLOAD DUP1 SWAP2 SUB SWAP1 LOG3 POP POP JUMP JUMPDEST PUSH1 0x0 PUSH20 0xFFFFFFFFFFFFFFFFFFFFFFFFFFFFFFFFFFFFFFFF AND DUP3 PUSH20 0xFFFFFFFFFFFFFFFFFFFFFFFFFFFFFFFFFFFFFFFF AND SUB PUSH2 0x111E JUMPI PUSH1 0x40 MLOAD PUSH32 0x8C379A000000000000000000000000000000000000000000000000000000000 DUP2 MSTORE PUSH1 0x4 ADD PUSH2 0x1115 SWAP1 PUSH2 0x1EBD JUMP JUMPDEST PUSH1 0x40 MLOAD DUP1 SWAP2 SUB SWAP1 REVERT JUMPDEST PUSH2 0x112A PUSH1 0x0 DUP4 DUP4 PUSH2 0x13D2 JUMP JUMPDEST DUP1 PUSH1 0x2 PUSH1 0x0 DUP3 DUP3 SLOAD PUSH2 0x113C SWAP2 SWAP1 PUSH2 0x18FB JUMP JUMPDEST SWAP3 POP POP DUP2 SWAP1 SSTORE POP DUP1 PUSH1 0x0 DUP1 DUP5 PUSH20 0xFFFFFFFFFFFFFFFFFFFFFFFFFFFFFFFFFFFFFFFF AND PUSH20 0xFFFFFFFFFFFFFFFFFFFFFFFFFFFFFFFFFFFFFFFF AND DUP2 MSTORE PUSH1 0x20 ADD SWAP1 DUP2 MSTORE PUSH1 0x20 ADD PUSH1 0x0 KECCAK256 PUSH1 0x0 DUP3 DUP3 SLOAD ADD SWAP3 POP POP DUP2 SWAP1 SSTORE POP DUP2 PUSH20 0xFFFFFFFFFFFFFFFFFFFFFFFFFFFFFFFFFFFFFFFF AND PUSH1 0x0 PUSH20 0xFFFFFFFFFFFFFFFFFFFFFFFFFFFFFFFFFFFFFFFF AND PUSH32 0xDDF252AD1BE2C89B69C2B068FC378DAA952BA7F163C4A11628F55A4DF523B3EF DUP4 PUSH1 0x40 MLOAD PUSH2 0x11ED SWAP2 SWAP1 PUSH2 0x16B9 JUMP JUMPDEST PUSH1 0x40 MLOAD DUP1 SWAP2 SUB SWAP1 LOG3 PUSH2 0x1201 PUSH1 0x0 DUP4 DUP4 PUSH2 0x13D7 JUMP JUMPDEST POP POP JUMP JUMPDEST PUSH1 0x0 PUSH20 0xFFFFFFFFFFFFFFFFFFFFFFFFFFFFFFFFFFFFFFFF AND DUP3 PUSH20 0xFFFFFFFFFFFFFFFFFFFFFFFFFFFFFFFFFFFFFFFF AND SUB PUSH2 0x1274 JUMPI PUSH1 0x40 MLOAD PUSH32 0x8C379A000000000000000000000000000000000000000000000000000000000 DUP2 MSTORE PUSH1 0x4 ADD PUSH2 0x126B SWAP1 PUSH2 0x1F4F JUMP JUMPDEST PUSH1 0x40 MLOAD DUP1 SWAP2 SUB SWAP1 REVERT JUMPDEST PUSH2 0x1280 DUP3 PUSH1 0x0 DUP4 PUSH2 0x13D2 JUMP JUMPDEST PUSH1 0x0 DUP1 PUSH1 0x0 DUP5 PUSH20 0xFFFFFFFFFFFFFFFFFFFFFFFFFFFFFFFFFFFFFFFF AND PUSH20 0xFFFFFFFFFFFFFFFFFFFFFFFFFFFFFFFFFFFFFFFF AND DUP2 MSTORE PUSH1 0x20 ADD SWAP1 DUP2 MSTORE PUSH1 0x20 ADD PUSH1 0x0 KECCAK256 SLOAD SWAP1 POP DUP2 DUP2 LT ISZERO PUSH2 0x1306 JUMPI PUSH1 0x40 MLOAD PUSH32 0x8C379A000000000000000000000000000000000000000000000000000000000 DUP2 MSTORE PUSH1 0x4 ADD PUSH2 0x12FD SWAP1 PUSH2 0x1FE1 JUMP JUMPDEST PUSH1 0x40 MLOAD DUP1 SWAP2 SUB SWAP1 REVERT JUMPDEST DUP2 DUP2 SUB PUSH1 0x0 DUP1 DUP6 PUSH20 0xFFFFFFFFFFFFFFFFFFFFFFFFFFFFFFFFFFFFFFFF AND PUSH20 0xFFFFFFFFFFFFFFFFFFFFFFFFFFFFFFFFFFFFFFFF AND DUP2 MSTORE PUSH1 0x20 ADD SWAP1 DUP2 MSTORE PUSH1 0x20 ADD PUSH1 0x0 KECCAK256 DUP2 SWAP1 SSTORE POP DUP2 PUSH1 0x2 PUSH1 0x0 DUP3 DUP3 SLOAD SUB SWAP3 POP POP DUP2 SWAP1 SSTORE POP PUSH1 0x0 PUSH20 0xFFFFFFFFFFFFFFFFFFFFFFFFFFFFFFFFFFFFFFFF AND DUP4 PUSH20 0xFFFFFFFFFFFFFFFFFFFFFFFFFFFFFFFFFFFFFFFF AND PUSH32 0xDDF252AD1BE2C89B69C2B068FC378DAA952BA7F163C4A11628F55A4DF523B3EF DUP5 PUSH1 0x40 MLOAD PUSH2 0x13B9 SWAP2 SWAP1 PUSH2 0x16B9 JUMP JUMPDEST PUSH1 0x40 MLOAD DUP1 SWAP2 SUB SWAP1 LOG3 PUSH2 0x13CD DUP4 PUSH1 0x0 DUP5 PUSH2 0x13D7 JUMP JUMPDEST POP POP POP JUMP JUMPDEST POP POP POP JUMP JUMPDEST POP POP POP JUMP JUMPDEST PUSH1 0x0 DUP1 REVERT JUMPDEST PUSH1 0x0 PUSH20 0xFFFFFFFFFFFFFFFFFFFFFFFFFFFFFFFFFFFFFFFF DUP3 AND SWAP1 POP SWAP2 SWAP1 POP JUMP JUMPDEST PUSH1 0x0 PUSH2 0x140C DUP3 PUSH2 0x13E1 JUMP JUMPDEST SWAP1 POP SWAP2 SWAP1 POP JUMP JUMPDEST PUSH2 0x141C DUP2 PUSH2 0x1401 JUMP JUMPDEST DUP2 EQ PUSH2 0x1427 JUMPI PUSH1 0x0 DUP1 REVERT JUMPDEST POP JUMP JUMPDEST PUSH1 0x0 DUP2 CALLDATALOAD SWAP1 POP PUSH2 0x1439 DUP2 PUSH2 0x1413 JUMP JUMPDEST SWAP3 SWAP2 POP POP JUMP JUMPDEST PUSH1 0x0 PUSH1 0x20 DUP3 DUP5 SUB SLT ISZERO PUSH2 0x1455 JUMPI PUSH2 0x1454 PUSH2 0x13DC JUMP JUMPDEST JUMPDEST PUSH1 0x0 PUSH2 0x1463 DUP5 DUP3 DUP6 ADD PUSH2 0x142A JUMP JUMPDEST SWAP2 POP POP SWAP3 SWAP2 POP POP JUMP JUMPDEST PUSH1 0x0 DUP2 MLOAD SWAP1 POP SWAP2 SWAP1 POP JUMP JUMPDEST PUSH1 0x0 DUP3 DUP3 MSTORE PUSH1 0x20 DUP3 ADD SWAP1 POP SWAP3 SWAP2 POP POP JUMP JUMPDEST PUSH1 0x0 JUMPDEST DUP4 DUP2 LT ISZERO PUSH2 0x14A6 JUMPI DUP1 DUP3 ADD MLOAD DUP2 DUP5 ADD MSTORE PUSH1 0x20 DUP2 ADD SWAP1 POP PUSH2 0x148B JUMP JUMPDEST PUSH1 0x0 DUP5 DUP5 ADD MSTORE POP POP POP POP JUMP JUMPDEST PUSH1 0x0 PUSH1 0x1F NOT PUSH1 0x1F DUP4 ADD AND SWAP1 POP SWAP2 SWAP1 POP JUMP JUMPDEST PUSH1 0x0 PUSH2 0x14CE DUP3 PUSH2 0x146C JUMP JUMPDEST PUSH2 0x14D8 DUP2 DUP6 PUSH2 0x1477 JUMP JUMPDEST SWAP4 POP PUSH2 0x14E8 DUP2 DUP6 PUSH1 0x20 DUP7 ADD PUSH2 0x1488 JUMP JUMPDEST PUSH2 0x14F1 DUP2 PUSH2 0x14B2 JUMP JUMPDEST DUP5 ADD SWAP2 POP POP SWAP3 SWAP2 POP POP JUMP JUMPDEST PUSH1 0x0 PUSH1 0x20 DUP3 ADD SWAP1 POP DUP2 DUP2 SUB PUSH1 0x0 DUP4 ADD MSTORE PUSH2 0x1516 DUP2 DUP5 PUSH2 0x14C3 JUMP JUMPDEST SWAP1 POP SWAP3 SWAP2 POP POP JUMP JUMPDEST PUSH1 0x0 DUP2 SWAP1 POP SWAP2 SWAP1 POP JUMP JUMPDEST PUSH2 0x1531 DUP2 PUSH2 0x151E JUMP JUMPDEST DUP2 EQ PUSH2 0x153C JUMPI PUSH1 0x0 DUP1 REVERT JUMPDEST POP JUMP JUMPDEST PUSH1 0x0 DUP2 CALLDATALOAD SWAP1 POP PUSH2 0x154E DUP2 PUSH2 0x1528 JUMP JUMPDEST SWAP3 SWAP2 POP POP JUMP JUMPDEST PUSH1 0x0 DUP1 PUSH1 0x40 DUP4 DUP6 SUB SLT ISZERO PUSH2 0x156B JUMPI PUSH2 0x156A PUSH2 0x13DC JUMP JUMPDEST JUMPDEST PUSH1 0x0 PUSH2 0x1579 DUP6 DUP3 DUP7 ADD PUSH2 0x142A JUMP JUMPDEST SWAP3 POP POP PUSH1 0x20 PUSH2 0x158A DUP6 DUP3 DUP7 ADD PUSH2 0x153F JUMP JUMPDEST SWAP2 POP POP SWAP3 POP SWAP3 SWAP1 POP JUMP JUMPDEST PUSH1 0x0 DUP2 ISZERO ISZERO SWAP1 POP SWAP2 SWAP1 POP JUMP JUMPDEST PUSH2 0x15A9 DUP2 PUSH2 0x1594 JUMP JUMPDEST DUP3 MSTORE POP POP JUMP JUMPDEST PUSH1 0x0 PUSH1 0x20 DUP3 ADD SWAP1 POP PUSH2 0x15C4 PUSH1 0x0 DUP4 ADD DUP5 PUSH2 0x15A0 JUMP JUMPDEST SWAP3 SWAP2 POP POP JUMP JUMPDEST PUSH1 0x0 DUP2 MLOAD SWAP1 POP SWAP2 SWAP1 POP JUMP JUMPDEST PUSH1 0x0 DUP3 DUP3 MSTORE PUSH1 0x20 DUP3 ADD SWAP1 POP SWAP3 SWAP2 POP POP JUMP JUMPDEST PUSH1 0x0 DUP2 SWAP1 POP PUSH1 0x20 DUP3 ADD SWAP1 POP SWAP2 SWAP1 POP JUMP JUMPDEST PUSH2 0x15FF DUP2 PUSH2 0x1401 JUMP JUMPDEST DUP3 MSTORE POP POP JUMP JUMPDEST PUSH1 0x0 PUSH2 0x1611 DUP4 DUP4 PUSH2 0x15F6 JUMP JUMPDEST PUSH1 0x20 DUP4 ADD SWAP1 POP SWAP3 SWAP2 POP POP JUMP JUMPDEST PUSH1 0x0 PUSH1 0x20 DUP3 ADD SWAP1 POP SWAP2 SWAP1 POP JUMP JUMPDEST PUSH1 0x0 PUSH2 0x1635 DUP3 PUSH2 0x15CA JUMP JUMPDEST PUSH2 0x163F DUP2 DUP6 PUSH2 0x15D5 JUMP JUMPDEST SWAP4 POP PUSH2 0x164A DUP4 PUSH2 0x15E6 JUMP JUMPDEST DUP1 PUSH1 0x0 JUMPDEST DUP4 DUP2 LT ISZERO PUSH2 0x167B JUMPI DUP2 MLOAD PUSH2 0x1662 DUP9 DUP3 PUSH2 0x1605 JUMP JUMPDEST SWAP8 POP PUSH2 0x166D DUP4 PUSH2 0x161D JUMP JUMPDEST SWAP3 POP POP PUSH1 0x1 DUP2 ADD SWAP1 POP PUSH2 0x164E JUMP JUMPDEST POP DUP6 SWAP4 POP POP POP POP SWAP3 SWAP2 POP POP JUMP JUMPDEST PUSH1 0x0 PUSH1 0x20 DUP3 ADD SWAP1 POP DUP2 DUP2 SUB PUSH1 0x0 DUP4 ADD MSTORE PUSH2 0x16A2 DUP2 DUP5 PUSH2 0x162A JUMP JUMPDEST SWAP1 POP SWAP3 SWAP2 POP POP JUMP JUMPDEST PUSH2 0x16B3 DUP2 PUSH2 0x151E JUMP JUMPDEST DUP3 MSTORE POP POP JUMP JUMPDEST PUSH1 0x0 PUSH1 0x20 DUP3 ADD SWAP1 POP PUSH2 0x16CE PUSH1 0x0 DUP4 ADD DUP5 PUSH2 0x16AA JUMP JUMPDEST SWAP3 SWAP2 POP POP JUMP JUMPDEST PUSH1 0x0 DUP1 PUSH1 0x0 PUSH1 0x60 DUP5 DUP7 SUB SLT ISZERO PUSH2 0x16ED JUMPI PUSH2 0x16EC PUSH2 0x13DC JUMP JUMPDEST JUMPDEST PUSH1 0x0 PUSH2 0x16FB DUP7 DUP3 DUP8 ADD PUSH2 0x142A JUMP JUMPDEST SWAP4 POP POP PUSH1 0x20 PUSH2 0x170C DUP7 DUP3 DUP8 ADD PUSH2 0x142A JUMP JUMPDEST SWAP3 POP POP PUSH1 0x40 PUSH2 0x171D DUP7 DUP3 DUP8 ADD PUSH2 0x153F JUMP JUMPDEST SWAP2 POP POP SWAP3 POP SWAP3 POP SWAP3 JUMP JUMPDEST PUSH1 0x0 PUSH1 0xFF DUP3 AND SWAP1 POP SWAP2 SWAP1 POP JUMP JUMPDEST PUSH2 0x173D DUP2 PUSH2 0x1727 JUMP JUMPDEST DUP3 MSTORE POP POP JUMP JUMPDEST PUSH1 0x0 PUSH1 0x20 DUP3 ADD SWAP1 POP PUSH2 0x1758 PUSH1 0x0 DUP4 ADD DUP5 PUSH2 0x1734 JUMP JUMPDEST SWAP3 SWAP2 POP POP JUMP JUMPDEST PUSH2 0x1767 DUP2 PUSH2 0x1401 JUMP JUMPDEST DUP3 MSTORE POP POP JUMP JUMPDEST PUSH1 0x0 PUSH1 0x20 DUP3 ADD SWAP1 POP PUSH2 0x1782 PUSH1 0x0 DUP4 ADD DUP5 PUSH2 0x175E JUMP JUMPDEST SWAP3 SWAP2 POP POP JUMP JUMPDEST PUSH1 0x0 PUSH1 0x20 DUP3 DUP5 SUB SLT ISZERO PUSH2 0x179E JUMPI PUSH2 0x179D PUSH2 0x13DC JUMP JUMPDEST JUMPDEST PUSH1 0x0 PUSH2 0x17AC DUP5 DUP3 DUP6 ADD PUSH2 0x153F JUMP JUMPDEST SWAP2 POP POP SWAP3 SWAP2 POP POP JUMP JUMPDEST PUSH1 0x0 DUP1 PUSH1 0x40 DUP4 DUP6 SUB SLT ISZERO PUSH2 0x17CC JUMPI PUSH2 0x17CB PUSH2 0x13DC JUMP JUMPDEST JUMPDEST PUSH1 0x0 PUSH2 0x17DA DUP6 DUP3 DUP7 ADD PUSH2 0x142A JUMP JUMPDEST SWAP3 POP POP PUSH1 0x20 PUSH2 0x17EB DUP6 DUP3 DUP7 ADD PUSH2 0x142A JUMP JUMPDEST SWAP2 POP POP SWAP3 POP SWAP3 SWAP1 POP JUMP JUMPDEST PUSH32 0x4E487B7100000000000000000000000000000000000000000000000000000000 PUSH1 0x0 MSTORE PUSH1 0x32 PUSH1 0x4 MSTORE PUSH1 0x24 PUSH1 0x0 REVERT JUMPDEST PUSH32 0x4E487B7100000000000000000000000000000000000000000000000000000000 PUSH1 0x0 MSTORE PUSH1 0x11 PUSH1 0x4 MSTORE PUSH1 0x24 PUSH1 0x0 REVERT JUMPDEST PUSH1 0x0 PUSH2 0x185E DUP3 PUSH2 0x151E JUMP JUMPDEST SWAP2 POP PUSH32 0xFFFFFFFFFFFFFFFFFFFFFFFFFFFFFFFFFFFFFFFFFFFFFFFFFFFFFFFFFFFFFFFF DUP3 SUB PUSH2 0x1890 JUMPI PUSH2 0x188F PUSH2 0x1824 JUMP JUMPDEST JUMPDEST PUSH1 0x1 DUP3 ADD SWAP1 POP SWAP2 SWAP1 POP JUMP JUMPDEST PUSH32 0x4E487B7100000000000000000000000000000000000000000000000000000000 PUSH1 0x0 MSTORE PUSH1 0x22 PUSH1 0x4 MSTORE PUSH1 0x24 PUSH1 0x0 REVERT JUMPDEST PUSH1 0x0 PUSH1 0x2 DUP3 DIV SWAP1 POP PUSH1 0x1 DUP3 AND DUP1 PUSH2 0x18E2 JUMPI PUSH1 0x7F DUP3 AND SWAP2 POP JUMPDEST PUSH1 0x20 DUP3 LT DUP2 SUB PUSH2 0x18F5 JUMPI PUSH2 0x18F4 PUSH2 0x189B JUMP JUMPDEST JUMPDEST POP SWAP2 SWAP1 POP JUMP JUMPDEST PUSH1 0x0 PUSH2 0x1906 DUP3 PUSH2 0x151E JUMP JUMPDEST SWAP2 POP PUSH2 0x1911 DUP4 PUSH2 0x151E JUMP JUMPDEST SWAP3 POP DUP3 DUP3 ADD SWAP1 POP DUP1 DUP3 GT ISZERO PUSH2 0x1929 JUMPI PUSH2 0x1928 PUSH2 0x1824 JUMP JUMPDEST JUMPDEST SWAP3 SWAP2 POP POP JUMP JUMPDEST PUSH32 0x45524332303A2064656372656173656420616C6C6F77616E63652062656C6F77 PUSH1 0x0 DUP3 ADD MSTORE PUSH32 0x207A65726F000000000000000000000000000000000000000000000000000000 PUSH1 0x20 DUP3 ADD MSTORE POP JUMP JUMPDEST PUSH1 0x0 PUSH2 0x198B PUSH1 0x25 DUP4 PUSH2 0x1477 JUMP JUMPDEST SWAP2 POP PUSH2 0x1996 DUP3 PUSH2 0x192F JUMP JUMPDEST PUSH1 0x40 DUP3 ADD SWAP1 POP SWAP2 SWAP1 POP JUMP JUMPDEST PUSH1 0x0 PUSH1 0x20 DUP3 ADD SWAP1 POP DUP2 DUP2 SUB PUSH1 0x0 DUP4 ADD MSTORE PUSH2 0x19BA DUP2 PUSH2 0x197E JUMP JUMPDEST SWAP1 POP SWAP2 SWAP1 POP JUMP JUMPDEST PUSH32 0x6D73672E73656E646572206973206E6F74207468652070617965720000000000 PUSH1 0x0 DUP3 ADD MSTORE POP JUMP JUMPDEST PUSH1 0x0 PUSH2 0x19F7 PUSH1 0x1B DUP4 PUSH2 0x1477 JUMP JUMPDEST SWAP2 POP PUSH2 0x1A02 DUP3 PUSH2 0x19C1 JUMP JUMPDEST PUSH1 0x20 DUP3 ADD SWAP1 POP SWAP2 SWAP1 POP JUMP JUMPDEST PUSH1 0x0 PUSH1 0x20 DUP3 ADD SWAP1 POP DUP2 DUP2 SUB PUSH1 0x0 DUP4 ADD MSTORE PUSH2 0x1A26 DUP2 PUSH2 0x19EA JUMP JUMPDEST SWAP1 POP SWAP2 SWAP1 POP JUMP JUMPDEST PUSH32 0x4F776E61626C653A206E6577206F776E657220697320746865207A65726F2061 PUSH1 0x0 DUP3 ADD MSTORE PUSH32 0x6464726573730000000000000000000000000000000000000000000000000000 PUSH1 0x20 DUP3 ADD MSTORE POP JUMP JUMPDEST PUSH1 0x0 PUSH2 0x1A89 PUSH1 0x26 DUP4 PUSH2 0x1477 JUMP JUMPDEST SWAP2 POP PUSH2 0x1A94 DUP3 PUSH2 0x1A2D JUMP JUMPDEST PUSH1 0x40 DUP3 ADD SWAP1 POP SWAP2 SWAP1 POP JUMP JUMPDEST PUSH1 0x0 PUSH1 0x20 DUP3 ADD SWAP1 POP DUP2 DUP2 SUB PUSH1 0x0 DUP4 ADD MSTORE PUSH2 0x1AB8 DUP2 PUSH2 0x1A7C JUMP JUMPDEST SWAP1 POP SWAP2 SWAP1 POP JUMP JUMPDEST PUSH32 0x4F776E61626C653A2063616C6C6572206973206E6F7420746865206F776E6572 PUSH1 0x0 DUP3 ADD MSTORE POP JUMP JUMPDEST PUSH1 0x0 PUSH2 0x1AF5 PUSH1 0x20 DUP4 PUSH2 0x1477 JUMP JUMPDEST SWAP2 POP PUSH2 0x1B00 DUP3 PUSH2 0x1ABF JUMP JUMPDEST PUSH1 0x20 DUP3 ADD SWAP1 POP SWAP2 SWAP1 POP JUMP JUMPDEST PUSH1 0x0 PUSH1 0x20 DUP3 ADD SWAP1 POP DUP2 DUP2 SUB PUSH1 0x0 DUP4 ADD MSTORE PUSH2 0x1B24 DUP2 PUSH2 0x1AE8 JUMP JUMPDEST SWAP1 POP SWAP2 SWAP1 POP JUMP JUMPDEST PUSH32 0x45524332303A20617070726F76652066726F6D20746865207A65726F20616464 PUSH1 0x0 DUP3 ADD MSTORE PUSH32 0x7265737300000000000000000000000000000000000000000000000000000000 PUSH1 0x20 DUP3 ADD MSTORE POP JUMP JUMPDEST PUSH1 0x0 PUSH2 0x1B87 PUSH1 0x24 DUP4 PUSH2 0x1477 JUMP JUMPDEST SWAP2 POP PUSH2 0x1B92 DUP3 PUSH2 0x1B2B JUMP JUMPDEST PUSH1 0x40 DUP3 ADD SWAP1 POP SWAP2 SWAP1 POP JUMP JUMPDEST PUSH1 0x0 PUSH1 0x20 DUP3 ADD SWAP1 POP DUP2 DUP2 SUB PUSH1 0x0 DUP4 ADD MSTORE PUSH2 0x1BB6 DUP2 PUSH2 0x1B7A JUMP JUMPDEST SWAP1 POP SWAP2 SWAP1 POP JUMP JUMPDEST PUSH32 0x45524332303A20617070726F766520746F20746865207A65726F206164647265 PUSH1 0x0 DUP3 ADD MSTORE PUSH32 0x7373000000000000000000000000000000000000000000000000000000000000 PUSH1 0x20 DUP3 ADD MSTORE POP JUMP JUMPDEST PUSH1 0x0 PUSH2 0x1C19 PUSH1 0x22 DUP4 PUSH2 0x1477 JUMP JUMPDEST SWAP2 POP PUSH2 0x1C24 DUP3 PUSH2 0x1BBD JUMP JUMPDEST PUSH1 0x40 DUP3 ADD SWAP1 POP SWAP2 SWAP1 POP JUMP JUMPDEST PUSH1 0x0 PUSH1 0x20 DUP3 ADD SWAP1 POP DUP2 DUP2 SUB PUSH1 0x0 DUP4 ADD MSTORE PUSH2 0x1C48 DUP2 PUSH2 0x1C0C JUMP JUMPDEST SWAP1 POP SWAP2 SWAP1 POP JUMP JUMPDEST PUSH32 0x45524332303A20696E73756666696369656E7420616C6C6F77616E6365000000 PUSH1 0x0 DUP3 ADD MSTORE POP JUMP JUMPDEST PUSH1 0x0 PUSH2 0x1C85 PUSH1 0x1D DUP4 PUSH2 0x1477 JUMP JUMPDEST SWAP2 POP PUSH2 0x1C90 DUP3 PUSH2 0x1C4F JUMP JUMPDEST PUSH1 0x20 DUP3 ADD SWAP1 POP SWAP2 SWAP1 POP JUMP JUMPDEST PUSH1 0x0 PUSH1 0x20 DUP3 ADD SWAP1 POP DUP2 DUP2 SUB PUSH1 0x0 DUP4 ADD MSTORE PUSH2 0x1CB4 DUP2 PUSH2 0x1C78 JUMP JUMPDEST SWAP1 POP SWAP2 SWAP1 POP JUMP JUMPDEST PUSH32 0x45524332303A207472616E736665722066726F6D20746865207A65726F206164 PUSH1 0x0 DUP3 ADD MSTORE PUSH32 0x6472657373000000000000000000000000000000000000000000000000000000 PUSH1 0x20 DUP3 ADD MSTORE POP JUMP JUMPDEST PUSH1 0x0 PUSH2 0x1D17 PUSH1 0x25 DUP4 PUSH2 0x1477 JUMP JUMPDEST SWAP2 POP PUSH2 0x1D22 DUP3 PUSH2 0x1CBB JUMP JUMPDEST PUSH1 0x40 DUP3 ADD SWAP1 POP SWAP2 SWAP1 POP JUMP JUMPDEST PUSH1 0x0 PUSH1 0x20 DUP3 ADD SWAP1 POP DUP2 DUP2 SUB PUSH1 0x0 DUP4 ADD MSTORE PUSH2 0x1D46 DUP2 PUSH2 0x1D0A JUMP JUMPDEST SWAP1 POP SWAP2 SWAP1 POP JUMP JUMPDEST PUSH32 0x45524332303A207472616E7366657220746F20746865207A65726F2061646472 PUSH1 0x0 DUP3 ADD MSTORE PUSH32 0x6573730000000000000000000000000000000000000000000000000000000000 PUSH1 0x20 DUP3 ADD MSTORE POP JUMP JUMPDEST PUSH1 0x0 PUSH2 0x1DA9 PUSH1 0x23 DUP4 PUSH2 0x1477 JUMP JUMPDEST SWAP2 POP PUSH2 0x1DB4 DUP3 PUSH2 0x1D4D JUMP JUMPDEST PUSH1 0x40 DUP3 ADD SWAP1 POP SWAP2 SWAP1 POP JUMP JUMPDEST PUSH1 0x0 PUSH1 0x20 DUP3 ADD SWAP1 POP DUP2 DUP2 SUB PUSH1 0x0 DUP4 ADD MSTORE PUSH2 0x1DD8 DUP2 PUSH2 0x1D9C JUMP JUMPDEST SWAP1 POP SWAP2 SWAP1 POP JUMP JUMPDEST PUSH32 0x45524332303A207472616E7366657220616D6F756E7420657863656564732062 PUSH1 0x0 DUP3 ADD MSTORE PUSH32 0x616C616E63650000000000000000000000000000000000000000000000000000 PUSH1 0x20 DUP3 ADD MSTORE POP JUMP JUMPDEST PUSH1 0x0 PUSH2 0x1E3B PUSH1 0x26 DUP4 PUSH2 0x1477 JUMP JUMPDEST SWAP2 POP PUSH2 0x1E46 DUP3 PUSH2 0x1DDF JUMP JUMPDEST PUSH1 0x40 DUP3 ADD SWAP1 POP SWAP2 SWAP1 POP JUMP JUMPDEST PUSH1 0x0 PUSH1 0x20 DUP3 ADD SWAP1 POP DUP2 DUP2 SUB PUSH1 0x0 DUP4 ADD MSTORE PUSH2 0x1E6A DUP2 PUSH2 0x1E2E JUMP JUMPDEST SWAP1 POP SWAP2 SWAP1 POP JUMP JUMPDEST PUSH32 0x45524332303A206D696E7420746F20746865207A65726F206164647265737300 PUSH1 0x0 DUP3 ADD MSTORE POP JUMP JUMPDEST PUSH1 0x0 PUSH2 0x1EA7 PUSH1 0x1F DUP4 PUSH2 0x1477 JUMP JUMPDEST SWAP2 POP PUSH2 0x1EB2 DUP3 PUSH2 0x1E71 JUMP JUMPDEST PUSH1 0x20 DUP3 ADD SWAP1 POP SWAP2 SWAP1 POP JUMP JUMPDEST PUSH1 0x0 PUSH1 0x20 DUP3 ADD SWAP1 POP DUP2 DUP2 SUB PUSH1 0x0 DUP4 ADD MSTORE PUSH2 0x1ED6 DUP2 PUSH2 0x1E9A JUMP JUMPDEST SWAP1 POP SWAP2 SWAP1 POP JUMP JUMPDEST PUSH32 0x45524332303A206275726E2066726F6D20746865207A65726F20616464726573 PUSH1 0x0 DUP3 ADD MSTORE PUSH32 0x7300000000000000000000000000000000000000000000000000000000000000 PUSH1 0x20 DUP3 ADD MSTORE POP JUMP JUMPDEST PUSH1 0x0 PUSH2 0x1F39 PUSH1 0x21 DUP4 PUSH2 0x1477 JUMP JUMPDEST SWAP2 POP PUSH2 0x1F44 DUP3 PUSH2 0x1EDD JUMP JUMPDEST PUSH1 0x40 DUP3 ADD SWAP1 POP SWAP2 SWAP1 POP JUMP JUMPDEST PUSH1 0x0 PUSH1 0x20 DUP3 ADD SWAP1 POP DUP2 DUP2 SUB PUSH1 0x0 DUP4 ADD MSTORE PUSH2 0x1F68 DUP2 PUSH2 0x1F2C JUMP JUMPDEST SWAP1 POP SWAP2 SWAP1 POP JUMP JUMPDEST PUSH32 0x45524332303A206275726E20616D6F756E7420657863656564732062616C616E PUSH1 0x0 DUP3 ADD MSTORE PUSH32 0x6365000000000000000000000000000000000000000000000000000000000000 PUSH1 0x20 DUP3 ADD MSTORE POP JUMP JUMPDEST PUSH1 0x0 PUSH2 0x1FCB PUSH1 0x22 DUP4 PUSH2 0x1477 JUMP JUMPDEST SWAP2 POP PUSH2 0x1FD6 DUP3 PUSH2 0x1F6F JUMP JUMPDEST PUSH1 0x40 DUP3 ADD SWAP1 POP SWAP2 SWAP1 POP JUMP JUMPDEST PUSH1 0x0 PUSH1 0x20 DUP3 ADD SWAP1 POP DUP2 DUP2 SUB PUSH1 0x0 DUP4 ADD MSTORE PUSH2 0x1FFA DUP2 PUSH2 0x1FBE JUMP JUMPDEST SWAP1 POP SWAP2 SWAP1 POP JUMP INVALID LOG2 PUSH5 0x6970667358 0x22 SLT KECCAK256 0x4B PUSH6 0xE355148AFE6C RETURNDATACOPY EXP 0xAF 0xC DUP10 0xBB 0xF9 SWAP9 ADDMOD 0x4D ADDRESS 0xE DUP16 0xB6 SWAP13 BASEFEE 0xAF DUP8 TIMESTAMP RETURNDATASIZE 0x5D 0xB7 PUSH22 0xBF64736F6C6343000812003300000000000000000000 "
				},
				"gasEstimates": {
					"creation": {
						"codeDepositCost": "1649400",
						"executionCost": "infinite",
						"totalCost": "infinite"
					},
					"external": {
						"addPayer(address)": "51342",
						"allowance(address,address)": "infinite",
						"approve(address,uint256)": "infinite",
						"balanceOf(address)": "2952",
						"decimals()": "410",
						"decreaseAllowance(address,uint256)": "infinite",
						"getPayers()": "infinite",
						"increaseAllowance(address,uint256)": "infinite",
						"mint(uint256)": "infinite",
						"name()": "infinite",
						"owner()": "2567",
						"pay(uint256)": "infinite",
						"removePayer(address)": "infinite",
						"renounceOwnership()": "30421",
						"symbol()": "infinite",
						"totalSupply()": "2460",
						"transfer(address,uint256)": "infinite",
						"transferFrom(address,address,uint256)": "infinite",
						"transferOwnership(address)": "30854"
					}
				},
				"methodIdentifiers": {
					"addPayer(address)": "b78376e9",
					"allowance(address,address)": "dd62ed3e",
					"approve(address,uint256)": "095ea7b3",
					"balanceOf(address)": "70a08231",
					"decimals()": "313ce567",
					"decreaseAllowance(address,uint256)": "a457c2d7",
					"getPayers()": "1055d708",
					"increaseAllowance(address,uint256)": "39509351",
					"mint(uint256)": "a0712d68",
					"name()": "06fdde03",
					"owner()": "8da5cb5b",
					"pay(uint256)": "c290d691",
					"removePayer(address)": "048f1627",
					"renounceOwnership()": "715018a6",
					"symbol()": "95d89b41",
					"totalSupply()": "18160ddd",
					"transfer(address,uint256)": "a9059cbb",
					"transferFrom(address,address,uint256)": "23b872dd",
					"transferOwnership(address)": "f2fde38b"
				}
			},
			"storageLayout": {
				"storage": [
					{
						"astId": 128,
						"contract": "contracts/coins/Coin.sol:Coin",
						"label": "_balances",
						"offset": 0,
						"slot": "0",
						"type": "t_mapping(t_address,t_uint256)"
					},
					{
						"astId": 134,
						"contract": "contracts/coins/Coin.sol:Coin",
						"label": "_allowances",
						"offset": 0,
						"slot": "1",
						"type": "t_mapping(t_address,t_mapping(t_address,t_uint256))"
					},
					{
						"astId": 136,
						"contract": "contracts/coins/Coin.sol:Coin",
						"label": "_totalSupply",
						"offset": 0,
						"slot": "2",
						"type": "t_uint256"
					},
					{
						"astId": 138,
						"contract": "contracts/coins/Coin.sol:Coin",
						"label": "_name",
						"offset": 0,
						"slot": "3",
						"type": "t_string_storage"
					},
					{
						"astId": 140,
						"contract": "contracts/coins/Coin.sol:Coin",
						"label": "_symbol",
						"offset": 0,
						"slot": "4",
						"type": "t_string_storage"
					},
					{
						"astId": 7,
						"contract": "contracts/coins/Coin.sol:Coin",
						"label": "_owner",
						"offset": 0,
						"slot": "5",
						"type": "t_address"
					},
					{
						"astId": 838,
						"contract": "contracts/coins/Coin.sol:Coin",
						"label": "_payers",
						"offset": 0,
						"slot": "6",
						"type": "t_array(t_address)dyn_storage"
					}
				],
				"types": {
					"t_address": {
						"encoding": "inplace",
						"label": "address",
						"numberOfBytes": "20"
					},
					"t_array(t_address)dyn_storage": {
						"base": "t_address",
						"encoding": "dynamic_array",
						"label": "address[]",
						"numberOfBytes": "32"
					},
					"t_mapping(t_address,t_mapping(t_address,t_uint256))": {
						"encoding": "mapping",
						"key": "t_address",
						"label": "mapping(address => mapping(address => uint256))",
						"numberOfBytes": "32",
						"value": "t_mapping(t_address,t_uint256)"
					},
					"t_mapping(t_address,t_uint256)": {
						"encoding": "mapping",
						"key": "t_address",
						"label": "mapping(address => uint256)",
						"numberOfBytes": "32",
						"value": "t_uint256"
					},
					"t_string_storage": {
						"encoding": "bytes",
						"label": "string",
						"numberOfBytes": "32"
					},
					"t_uint256": {
						"encoding": "inplace",
						"label": "uint256",
						"numberOfBytes": "32"
					}
				}
			},
			"userdoc": {
				"kind": "user",
				"methods": {
					"mint(uint256)": {
						"notice": "mint coins"
					},
					"pay(uint256)": {
						"notice": "burn coins"
					}
				},
				"version": 1
			}
		}
	}
}