{
	"contracts/coins/Coin.sol_flattened.sol": {
		"Coin": {
			"abi": [
				{
					"inputs": [],
					"stateMutability": "nonpayable",
					"type": "constructor"
				},
				{
					"anonymous": false,
					"inputs": [
						{
							"indexed": true,
							"internalType": "address",
							"name": "owner",
							"type": "address"
						},
						{
							"indexed": true,
							"internalType": "address",
							"name": "spender",
							"type": "address"
						},
						{
							"indexed": false,
							"internalType": "uint256",
							"name": "value",
							"type": "uint256"
						}
					],
					"name": "Approval",
					"type": "event"
				},
				{
					"anonymous": false,
					"inputs": [
						{
							"indexed": true,
							"internalType": "address",
							"name": "previousOwner",
							"type": "address"
						},
						{
							"indexed": true,
							"internalType": "address",
							"name": "newOwner",
							"type": "address"
						}
					],
					"name": "OwnershipTransferred",
					"type": "event"
				},
				{
					"anonymous": false,
					"inputs": [
						{
							"indexed": true,
							"internalType": "address",
							"name": "from",
							"type": "address"
						},
						{
							"indexed": true,
							"internalType": "address",
							"name": "to",
							"type": "address"
						},
						{
							"indexed": false,
							"internalType": "uint256",
							"name": "value",
							"type": "uint256"
						}
					],
					"name": "Transfer",
					"type": "event"
				},
				{
					"inputs": [
						{
							"internalType": "address",
							"name": "payer",
							"type": "address"
						}
					],
					"name": "addPayer",
					"outputs": [],
					"stateMutability": "nonpayable",
					"type": "function"
				},
				{
					"inputs": [
						{
							"internalType": "address",
							"name": "owner",
							"type": "address"
						},
						{
							"internalType": "address",
							"name": "spender",
							"type": "address"
						}
					],
					"name": "allowance",
					"outputs": [
						{
							"internalType": "uint256",
							"name": "",
							"type": "uint256"
						}
					],
					"stateMutability": "view",
					"type": "function"
				},
				{
					"inputs": [
						{
							"internalType": "address",
							"name": "spender",
							"type": "address"
						},
						{
							"internalType": "uint256",
							"name": "amount",
							"type": "uint256"
						}
					],
					"name": "approve",
					"outputs": [
						{
							"internalType": "bool",
							"name": "",
							"type": "bool"
						}
					],
					"stateMutability": "nonpayable",
					"type": "function"
				},
				{
					"inputs": [
						{
							"internalType": "address",
							"name": "account",
							"type": "address"
						}
					],
					"name": "balanceOf",
					"outputs": [
						{
							"internalType": "uint256",
							"name": "",
							"type": "uint256"
						}
					],
					"stateMutability": "view",
					"type": "function"
				},
				{
					"inputs": [],
					"name": "decimals",
					"outputs": [
						{
							"internalType": "uint8",
							"name": "",
							"type": "uint8"
						}
					],
					"stateMutability": "view",
					"type": "function"
				},
				{
					"inputs": [
						{
							"internalType": "address",
							"name": "spender",
							"type": "address"
						},
						{
							"internalType": "uint256",
							"name": "subtractedValue",
							"type": "uint256"
						}
					],
					"name": "decreaseAllowance",
					"outputs": [
						{
							"internalType": "bool",
							"name": "",
							"type": "bool"
						}
					],
					"stateMutability": "nonpayable",
					"type": "function"
				},
				{
					"inputs": [],
					"name": "getPayers",
					"outputs": [
						{
							"internalType": "address[]",
							"name": "",
							"type": "address[]"
						}
					],
					"stateMutability": "view",
					"type": "function"
				},
				{
					"inputs": [
						{
							"internalType": "address",
							"name": "spender",
							"type": "address"
						},
						{
							"internalType": "uint256",
							"name": "addedValue",
							"type": "uint256"
						}
					],
					"name": "increaseAllowance",
					"outputs": [
						{
							"internalType": "bool",
							"name": "",
							"type": "bool"
						}
					],
					"stateMutability": "nonpayable",
					"type": "function"
				},
				{
					"inputs": [
						{
							"internalType": "address",
							"name": "payer",
							"type": "address"
						}
					],
					"name": "isPayerExist",
					"outputs": [
						{
							"internalType": "bool",
							"name": "",
							"type": "bool"
						}
					],
					"stateMutability": "view",
					"type": "function"
				},
				{
					"inputs": [
						{
							"internalType": "uint256",
							"name": "amount",
							"type": "uint256"
						}
					],
					"name": "mint",
					"outputs": [],
					"stateMutability": "nonpayable",
					"type": "function"
				},
				{
					"inputs": [],
					"name": "name",
					"outputs": [
						{
							"internalType": "string",
							"name": "",
							"type": "string"
						}
					],
					"stateMutability": "view",
					"type": "function"
				},
				{
					"inputs": [],
					"name": "owner",
					"outputs": [
						{
							"internalType": "address",
							"name": "",
							"type": "address"
						}
					],
					"stateMutability": "view",
					"type": "function"
				},
				{
					"inputs": [
						{
							"internalType": "uint256",
							"name": "amount",
							"type": "uint256"
						}
					],
					"name": "pay",
					"outputs": [],
					"stateMutability": "nonpayable",
					"type": "function"
				},
				{
					"inputs": [
						{
							"internalType": "address",
							"name": "payer",
							"type": "address"
						}
					],
					"name": "removePayer",
					"outputs": [],
					"stateMutability": "nonpayable",
					"type": "function"
				},
				{
					"inputs": [],
					"name": "renounceOwnership",
					"outputs": [],
					"stateMutability": "nonpayable",
					"type": "function"
				},
				{
					"inputs": [],
					"name": "symbol",
					"outputs": [
						{
							"internalType": "string",
							"name": "",
							"type": "string"
						}
					],
					"stateMutability": "view",
					"type": "function"
				},
				{
					"inputs": [],
					"name": "totalSupply",
					"outputs": [
						{
							"internalType": "uint256",
							"name": "",
							"type": "uint256"
						}
					],
					"stateMutability": "view",
					"type": "function"
				},
				{
					"inputs": [
						{
							"internalType": "address",
							"name": "to",
							"type": "address"
						},
						{
							"internalType": "uint256",
							"name": "amount",
							"type": "uint256"
						}
					],
					"name": "transfer",
					"outputs": [
						{
							"internalType": "bool",
							"name": "",
							"type": "bool"
						}
					],
					"stateMutability": "nonpayable",
					"type": "function"
				},
				{
					"inputs": [
						{
							"internalType": "address",
							"name": "from",
							"type": "address"
						},
						{
							"internalType": "address",
							"name": "to",
							"type": "address"
						},
						{
							"internalType": "uint256",
							"name": "amount",
							"type": "uint256"
						}
					],
					"name": "transferFrom",
					"outputs": [
						{
							"internalType": "bool",
							"name": "",
							"type": "bool"
						}
					],
					"stateMutability": "nonpayable",
					"type": "function"
				},
				{
					"inputs": [
						{
							"internalType": "address",
							"name": "newOwner",
							"type": "address"
						}
					],
					"name": "transferOwnership",
					"outputs": [],
					"stateMutability": "nonpayable",
					"type": "function"
				}
			],
			"devdoc": {
				"events": {
					"Approval(address,address,uint256)": {
						"details": "Emitted when the allowance of a `spender` for an `owner` is set by a call to {approve}. `value` is the new allowance."
					},
					"Transfer(address,address,uint256)": {
						"details": "Emitted when `value` tokens are moved from one account (`from`) to another (`to`). Note that `value` may be zero."
					}
				},
				"kind": "dev",
				"methods": {
					"allowance(address,address)": {
						"details": "See {IERC20-allowance}."
					},
					"approve(address,uint256)": {
						"details": "See {IERC20-approve}. NOTE: If `amount` is the maximum `uint256`, the allowance is not updated on `transferFrom`. This is semantically equivalent to an infinite approval. Requirements: - `spender` cannot be the zero address."
					},
					"balanceOf(address)": {
						"details": "See {IERC20-balanceOf}."
					},
					"decimals()": {
						"details": "Returns the number of decimals used to get its user representation. For example, if `decimals` equals `2`, a balance of `505` tokens should be displayed to a user as `5.05` (`505 / 10 ** 2`). Tokens usually opt for a value of 18, imitating the relationship between Ether and Wei. This is the value {ERC20} uses, unless this function is overridden; NOTE: This information is only used for _display_ purposes: it in no way affects any of the arithmetic of the contract, including {IERC20-balanceOf} and {IERC20-transfer}."
					},
					"decreaseAllowance(address,uint256)": {
						"details": "Atomically decreases the allowance granted to `spender` by the caller. This is an alternative to {approve} that can be used as a mitigation for problems described in {IERC20-approve}. Emits an {Approval} event indicating the updated allowance. Requirements: - `spender` cannot be the zero address. - `spender` must have allowance for the caller of at least `subtractedValue`."
					},
					"increaseAllowance(address,uint256)": {
						"details": "Atomically increases the allowance granted to `spender` by the caller. This is an alternative to {approve} that can be used as a mitigation for problems described in {IERC20-approve}. Emits an {Approval} event indicating the updated allowance. Requirements: - `spender` cannot be the zero address."
					},
					"name()": {
						"details": "Returns the name of the token."
					},
					"owner()": {
						"details": "Returns the address of the current owner."
					},
					"renounceOwnership()": {
						"details": "Leaves the contract without owner. It will not be possible to call `onlyOwner` functions anymore. Can only be called by the current owner. NOTE: Renouncing ownership will leave the contract without an owner, thereby removing any functionality that is only available to the owner."
					},
					"symbol()": {
						"details": "Returns the symbol of the token, usually a shorter version of the name."
					},
					"totalSupply()": {
						"details": "See {IERC20-totalSupply}."
					},
					"transfer(address,uint256)": {
						"details": "See {IERC20-transfer}. Requirements: - `to` cannot be the zero address. - the caller must have a balance of at least `amount`."
					},
					"transferFrom(address,address,uint256)": {
						"details": "See {IERC20-transferFrom}. Emits an {Approval} event indicating the updated allowance. This is not required by the EIP. See the note at the beginning of {ERC20}. NOTE: Does not update the allowance if the current allowance is the maximum `uint256`. Requirements: - `from` and `to` cannot be the zero address. - `from` must have a balance of at least `amount`. - the caller must have allowance for ``from``'s tokens of at least `amount`."
					},
					"transferOwnership(address)": {
						"details": "Transfers ownership of the contract to a new account (`newOwner`). Can only be called by the current owner."
					}
				},
				"version": 1
			},
			"evm": {
				"assembly": "    /* \"contracts/coins/Coin.sol_flattened.sol\":20199:21793  contract Coin is ERC20, Ownable, ICoin {... */\n  mstore(0x40, 0x80)\n    /* \"contracts/coins/Coin.sol_flattened.sol\":20633:20766  constructor() ERC20(\"ShoCoin\", \"SHOC\") {... */\n  callvalue\n  dup1\n  iszero\n  tag_1\n  jumpi\n  0x00\n  dup1\n  revert\ntag_1:\n  pop\n    /* \"contracts/coins/Coin.sol_flattened.sol\":9096:9209  constructor(string memory name_, string memory symbol_) {... */\n  mload(0x40)\n  dup1\n  0x40\n  add\n  0x40\n  mstore\n  dup1\n  0x07\n  dup2\n  mstore\n  0x20\n  add\n  0x53686f436f696e00000000000000000000000000000000000000000000000000\n  dup2\n  mstore\n  pop\n  mload(0x40)\n  dup1\n  0x40\n  add\n  0x40\n  mstore\n  dup1\n  0x04\n  dup2\n  mstore\n  0x20\n  add\n  0x53484f4300000000000000000000000000000000000000000000000000000000\n  dup2\n  mstore\n  pop\n    /* \"contracts/coins/Coin.sol_flattened.sol\":9170:9175  name_ */\n  dup2\n    /* \"contracts/coins/Coin.sol_flattened.sol\":9162:9167  _name */\n  0x03\n    /* \"contracts/coins/Coin.sol_flattened.sol\":9162:9175  _name = name_ */\n  swap1\n  dup2\n  tag_6\n  swap2\n  swap1\n  tag_7\n  jump\t// in\ntag_6:\n  pop\n    /* \"contracts/coins/Coin.sol_flattened.sol\":9195:9202  symbol_ */\n  dup1\n    /* \"contracts/coins/Coin.sol_flattened.sol\":9185:9192  _symbol */\n  0x04\n    /* \"contracts/coins/Coin.sol_flattened.sol\":9185:9202  _symbol = symbol_ */\n  swap1\n  dup2\n  tag_8\n  swap2\n  swap1\n  tag_7\n  jump\t// in\ntag_8:\n  pop\n    /* \"contracts/coins/Coin.sol_flattened.sol\":9096:9209  constructor(string memory name_, string memory symbol_) {... */\n  pop\n  pop\n    /* \"contracts/coins/Coin.sol_flattened.sol\":2005:2037  _transferOwnership(_msgSender()) */\n  tag_10\n    /* \"contracts/coins/Coin.sol_flattened.sol\":2024:2036  _msgSender() */\n  tag_11\n    /* \"contracts/coins/Coin.sol_flattened.sol\":2024:2034  _msgSender */\n  shl(0x20, tag_12)\n    /* \"contracts/coins/Coin.sol_flattened.sol\":2024:2036  _msgSender() */\n  0x20\n  shr\n  jump\t// in\ntag_11:\n    /* \"contracts/coins/Coin.sol_flattened.sol\":2005:2023  _transferOwnership */\n  shl(0x20, tag_13)\n    /* \"contracts/coins/Coin.sol_flattened.sol\":2005:2037  _transferOwnership(_msgSender()) */\n  0x20\n  shr\n  jump\t// in\ntag_10:\n    /* \"contracts/coins/Coin.sol_flattened.sol\":20738:20745  _payers */\n  0x06\n    /* \"contracts/coins/Coin.sol_flattened.sol\":20751:20758  owner() */\n  tag_15\n    /* \"contracts/coins/Coin.sol_flattened.sol\":20751:20756  owner */\n  shl(0x20, tag_16)\n    /* \"contracts/coins/Coin.sol_flattened.sol\":20751:20758  owner() */\n  0x20\n  shr\n  jump\t// in\ntag_15:\n    /* \"contracts/coins/Coin.sol_flattened.sol\":20738:20759  _payers.push(owner()) */\n  swap1\n  dup1\n  0x01\n  dup2\n  sload\n  add\n  dup1\n  dup3\n  sstore\n  dup1\n  swap2\n  pop\n  pop\n  0x01\n  swap1\n  sub\n  swap1\n  0x00\n  mstore\n  keccak256(0x00, 0x20)\n  add\n  0x00\n  swap1\n  swap2\n  swap1\n  swap2\n  swap1\n  swap2\n  0x0100\n  exp\n  dup2\n  sload\n  dup2\n  0xffffffffffffffffffffffffffffffffffffffff\n  mul\n  not\n  and\n  swap1\n  dup4\n  0xffffffffffffffffffffffffffffffffffffffff\n  and\n  mul\n  or\n  swap1\n  sstore\n  pop\n    /* \"contracts/coins/Coin.sol_flattened.sol\":20199:21793  contract Coin is ERC20, Ownable, ICoin {... */\n  jump(tag_18)\n    /* \"contracts/coins/Coin.sol_flattened.sol\":873:969  function _msgSender() internal view virtual returns (address) {... */\ntag_12:\n    /* \"contracts/coins/Coin.sol_flattened.sol\":926:933  address */\n  0x00\n    /* \"contracts/coins/Coin.sol_flattened.sol\":952:962  msg.sender */\n  caller\n    /* \"contracts/coins/Coin.sol_flattened.sol\":945:962  return msg.sender */\n  swap1\n  pop\n    /* \"contracts/coins/Coin.sol_flattened.sol\":873:969  function _msgSender() internal view virtual returns (address) {... */\n  swap1\n  jump\t// out\n    /* \"contracts/coins/Coin.sol_flattened.sol\":3502:3689  function _transferOwnership(address newOwner) internal virtual {... */\ntag_13:\n    /* \"contracts/coins/Coin.sol_flattened.sol\":3575:3591  address oldOwner */\n  0x00\n    /* \"contracts/coins/Coin.sol_flattened.sol\":3594:3600  _owner */\n  0x05\n  0x00\n  swap1\n  sload\n  swap1\n  0x0100\n  exp\n  swap1\n  div\n  0xffffffffffffffffffffffffffffffffffffffff\n  and\n    /* \"contracts/coins/Coin.sol_flattened.sol\":3575:3600  address oldOwner = _owner */\n  swap1\n  pop\n    /* \"contracts/coins/Coin.sol_flattened.sol\":3619:3627  newOwner */\n  dup2\n    /* \"contracts/coins/Coin.sol_flattened.sol\":3610:3616  _owner */\n  0x05\n  0x00\n    /* \"contracts/coins/Coin.sol_flattened.sol\":3610:3627  _owner = newOwner */\n  0x0100\n  exp\n  dup2\n  sload\n  dup2\n  0xffffffffffffffffffffffffffffffffffffffff\n  mul\n  not\n  and\n  swap1\n  dup4\n  0xffffffffffffffffffffffffffffffffffffffff\n  and\n  mul\n  or\n  swap1\n  sstore\n  pop\n    /* \"contracts/coins/Coin.sol_flattened.sol\":3673:3681  newOwner */\n  dup2\n    /* \"contracts/coins/Coin.sol_flattened.sol\":3642:3682  OwnershipTransferred(oldOwner, newOwner) */\n  0xffffffffffffffffffffffffffffffffffffffff\n  and\n    /* \"contracts/coins/Coin.sol_flattened.sol\":3663:3671  oldOwner */\n  dup2\n    /* \"contracts/coins/Coin.sol_flattened.sol\":3642:3682  OwnershipTransferred(oldOwner, newOwner) */\n  0xffffffffffffffffffffffffffffffffffffffff\n  and\n  0x8be0079c531659141344cd1fd0a4f28419497f9722a3daafe3b4186f6b6457e0\n  mload(0x40)\n  mload(0x40)\n  dup1\n  swap2\n  sub\n  swap1\n  log3\n    /* \"contracts/coins/Coin.sol_flattened.sol\":3565:3689  {... */\n  pop\n    /* \"contracts/coins/Coin.sol_flattened.sol\":3502:3689  function _transferOwnership(address newOwner) internal virtual {... */\n  pop\n  jump\t// out\n    /* \"contracts/coins/Coin.sol_flattened.sol\":2270:2355  function owner() public view virtual returns (address) {... */\ntag_16:\n    /* \"contracts/coins/Coin.sol_flattened.sol\":2316:2323  address */\n  0x00\n    /* \"contracts/coins/Coin.sol_flattened.sol\":2342:2348  _owner */\n  0x05\n  0x00\n  swap1\n  sload\n  swap1\n  0x0100\n  exp\n  swap1\n  div\n  0xffffffffffffffffffffffffffffffffffffffff\n  and\n    /* \"contracts/coins/Coin.sol_flattened.sol\":2335:2348  return _owner */\n  swap1\n  pop\n    /* \"contracts/coins/Coin.sol_flattened.sol\":2270:2355  function owner() public view virtual returns (address) {... */\n  swap1\n  jump\t// out\n    /* \"#utility.yul\":7:106   */\ntag_22:\n    /* \"#utility.yul\":59:65   */\n  0x00\n    /* \"#utility.yul\":93:98   */\n  dup2\n    /* \"#utility.yul\":87:99   */\n  mload\n    /* \"#utility.yul\":77:99   */\n  swap1\n  pop\n    /* \"#utility.yul\":7:106   */\n  swap2\n  swap1\n  pop\n  jump\t// out\n    /* \"#utility.yul\":112:292   */\ntag_23:\n    /* \"#utility.yul\":160:237   */\n  0x4e487b7100000000000000000000000000000000000000000000000000000000\n    /* \"#utility.yul\":157:158   */\n  0x00\n    /* \"#utility.yul\":150:238   */\n  mstore\n    /* \"#utility.yul\":257:261   */\n  0x41\n    /* \"#utility.yul\":254:255   */\n  0x04\n    /* \"#utility.yul\":247:262   */\n  mstore\n    /* \"#utility.yul\":281:285   */\n  0x24\n    /* \"#utility.yul\":278:279   */\n  0x00\n    /* \"#utility.yul\":271:286   */\n  revert\n    /* \"#utility.yul\":298:478   */\ntag_24:\n    /* \"#utility.yul\":346:423   */\n  0x4e487b7100000000000000000000000000000000000000000000000000000000\n    /* \"#utility.yul\":343:344   */\n  0x00\n    /* \"#utility.yul\":336:424   */\n  mstore\n    /* \"#utility.yul\":443:447   */\n  0x22\n    /* \"#utility.yul\":440:441   */\n  0x04\n    /* \"#utility.yul\":433:448   */\n  mstore\n    /* \"#utility.yul\":467:471   */\n  0x24\n    /* \"#utility.yul\":464:465   */\n  0x00\n    /* \"#utility.yul\":457:472   */\n  revert\n    /* \"#utility.yul\":484:804   */\ntag_25:\n    /* \"#utility.yul\":528:534   */\n  0x00\n    /* \"#utility.yul\":565:566   */\n  0x02\n    /* \"#utility.yul\":559:563   */\n  dup3\n    /* \"#utility.yul\":555:567   */\n  div\n    /* \"#utility.yul\":545:567   */\n  swap1\n  pop\n    /* \"#utility.yul\":612:613   */\n  0x01\n    /* \"#utility.yul\":606:610   */\n  dup3\n    /* \"#utility.yul\":602:614   */\n  and\n    /* \"#utility.yul\":633:651   */\n  dup1\n    /* \"#utility.yul\":623:704   */\n  tag_47\n  jumpi\n    /* \"#utility.yul\":689:693   */\n  0x7f\n    /* \"#utility.yul\":681:687   */\n  dup3\n    /* \"#utility.yul\":677:694   */\n  and\n    /* \"#utility.yul\":667:694   */\n  swap2\n  pop\n    /* \"#utility.yul\":623:704   */\ntag_47:\n    /* \"#utility.yul\":751:753   */\n  0x20\n    /* \"#utility.yul\":743:749   */\n  dup3\n    /* \"#utility.yul\":740:754   */\n  lt\n    /* \"#utility.yul\":720:738   */\n  dup2\n    /* \"#utility.yul\":717:755   */\n  sub\n    /* \"#utility.yul\":714:798   */\n  tag_48\n  jumpi\n    /* \"#utility.yul\":770:788   */\n  tag_49\n  tag_24\n  jump\t// in\ntag_49:\n    /* \"#utility.yul\":714:798   */\ntag_48:\n    /* \"#utility.yul\":535:804   */\n  pop\n    /* \"#utility.yul\":484:804   */\n  swap2\n  swap1\n  pop\n  jump\t// out\n    /* \"#utility.yul\":810:951   */\ntag_26:\n    /* \"#utility.yul\":859:863   */\n  0x00\n    /* \"#utility.yul\":882:885   */\n  dup2\n    /* \"#utility.yul\":874:885   */\n  swap1\n  pop\n    /* \"#utility.yul\":905:908   */\n  dup2\n    /* \"#utility.yul\":902:903   */\n  0x00\n    /* \"#utility.yul\":895:909   */\n  mstore\n    /* \"#utility.yul\":939:943   */\n  0x20\n    /* \"#utility.yul\":936:937   */\n  0x00\n    /* \"#utility.yul\":926:944   */\n  keccak256\n    /* \"#utility.yul\":918:944   */\n  swap1\n  pop\n    /* \"#utility.yul\":810:951   */\n  swap2\n  swap1\n  pop\n  jump\t// out\n    /* \"#utility.yul\":957:1050   */\ntag_27:\n    /* \"#utility.yul\":994:1000   */\n  0x00\n    /* \"#utility.yul\":1041:1043   */\n  0x20\n    /* \"#utility.yul\":1036:1038   */\n  0x1f\n    /* \"#utility.yul\":1029:1034   */\n  dup4\n    /* \"#utility.yul\":1025:1039   */\n  add\n    /* \"#utility.yul\":1021:1044   */\n  div\n    /* \"#utility.yul\":1011:1044   */\n  swap1\n  pop\n    /* \"#utility.yul\":957:1050   */\n  swap2\n  swap1\n  pop\n  jump\t// out\n    /* \"#utility.yul\":1056:1163   */\ntag_28:\n    /* \"#utility.yul\":1100:1108   */\n  0x00\n    /* \"#utility.yul\":1150:1155   */\n  dup3\n    /* \"#utility.yul\":1144:1148   */\n  dup3\n    /* \"#utility.yul\":1140:1156   */\n  shl\n    /* \"#utility.yul\":1119:1156   */\n  swap1\n  pop\n    /* \"#utility.yul\":1056:1163   */\n  swap3\n  swap2\n  pop\n  pop\n  jump\t// out\n    /* \"#utility.yul\":1169:1562   */\ntag_29:\n    /* \"#utility.yul\":1238:1244   */\n  0x00\n    /* \"#utility.yul\":1288:1289   */\n  0x08\n    /* \"#utility.yul\":1276:1286   */\n  dup4\n    /* \"#utility.yul\":1272:1290   */\n  mul\n    /* \"#utility.yul\":1311:1408   */\n  tag_54\n    /* \"#utility.yul\":1341:1407   */\n  0xffffffffffffffffffffffffffffffffffffffffffffffffffffffffffffffff\n    /* \"#utility.yul\":1330:1339   */\n  dup3\n    /* \"#utility.yul\":1311:1408   */\n  tag_28\n  jump\t// in\ntag_54:\n    /* \"#utility.yul\":1429:1468   */\n  tag_55\n    /* \"#utility.yul\":1459:1467   */\n  dup7\n    /* \"#utility.yul\":1448:1457   */\n  dup4\n    /* \"#utility.yul\":1429:1468   */\n  tag_28\n  jump\t// in\ntag_55:\n    /* \"#utility.yul\":1417:1468   */\n  swap6\n  pop\n    /* \"#utility.yul\":1501:1505   */\n  dup1\n    /* \"#utility.yul\":1497:1506   */\n  not\n    /* \"#utility.yul\":1490:1495   */\n  dup5\n    /* \"#utility.yul\":1486:1507   */\n  and\n    /* \"#utility.yul\":1477:1507   */\n  swap4\n  pop\n    /* \"#utility.yul\":1550:1554   */\n  dup1\n    /* \"#utility.yul\":1540:1548   */\n  dup7\n    /* \"#utility.yul\":1536:1555   */\n  and\n    /* \"#utility.yul\":1529:1534   */\n  dup5\n    /* \"#utility.yul\":1526:1556   */\n  or\n    /* \"#utility.yul\":1516:1556   */\n  swap3\n  pop\n    /* \"#utility.yul\":1245:1562   */\n  pop\n  pop\n    /* \"#utility.yul\":1169:1562   */\n  swap4\n  swap3\n  pop\n  pop\n  pop\n  jump\t// out\n    /* \"#utility.yul\":1568:1645   */\ntag_30:\n    /* \"#utility.yul\":1605:1612   */\n  0x00\n    /* \"#utility.yul\":1634:1639   */\n  dup2\n    /* \"#utility.yul\":1623:1639   */\n  swap1\n  pop\n    /* \"#utility.yul\":1568:1645   */\n  swap2\n  swap1\n  pop\n  jump\t// out\n    /* \"#utility.yul\":1651:1711   */\ntag_31:\n    /* \"#utility.yul\":1679:1682   */\n  0x00\n    /* \"#utility.yul\":1700:1705   */\n  dup2\n    /* \"#utility.yul\":1693:1705   */\n  swap1\n  pop\n    /* \"#utility.yul\":1651:1711   */\n  swap2\n  swap1\n  pop\n  jump\t// out\n    /* \"#utility.yul\":1717:1859   */\ntag_32:\n    /* \"#utility.yul\":1767:1776   */\n  0x00\n    /* \"#utility.yul\":1800:1853   */\n  tag_59\n    /* \"#utility.yul\":1818:1852   */\n  tag_60\n    /* \"#utility.yul\":1827:1851   */\n  tag_61\n    /* \"#utility.yul\":1845:1850   */\n  dup5\n    /* \"#utility.yul\":1827:1851   */\n  tag_30\n  jump\t// in\ntag_61:\n    /* \"#utility.yul\":1818:1852   */\n  tag_31\n  jump\t// in\ntag_60:\n    /* \"#utility.yul\":1800:1853   */\n  tag_30\n  jump\t// in\ntag_59:\n    /* \"#utility.yul\":1787:1853   */\n  swap1\n  pop\n    /* \"#utility.yul\":1717:1859   */\n  swap2\n  swap1\n  pop\n  jump\t// out\n    /* \"#utility.yul\":1865:1940   */\ntag_33:\n    /* \"#utility.yul\":1908:1911   */\n  0x00\n    /* \"#utility.yul\":1929:1934   */\n  dup2\n    /* \"#utility.yul\":1922:1934   */\n  swap1\n  pop\n    /* \"#utility.yul\":1865:1940   */\n  swap2\n  swap1\n  pop\n  jump\t// out\n    /* \"#utility.yul\":1946:2215   */\ntag_34:\n    /* \"#utility.yul\":2056:2095   */\n  tag_64\n    /* \"#utility.yul\":2087:2094   */\n  dup4\n    /* \"#utility.yul\":2056:2095   */\n  tag_32\n  jump\t// in\ntag_64:\n    /* \"#utility.yul\":2117:2208   */\n  tag_65\n    /* \"#utility.yul\":2166:2207   */\n  tag_66\n    /* \"#utility.yul\":2190:2206   */\n  dup3\n    /* \"#utility.yul\":2166:2207   */\n  tag_33\n  jump\t// in\ntag_66:\n    /* \"#utility.yul\":2158:2164   */\n  dup5\n    /* \"#utility.yul\":2151:2155   */\n  dup5\n    /* \"#utility.yul\":2145:2156   */\n  sload\n    /* \"#utility.yul\":2117:2208   */\n  tag_29\n  jump\t// in\ntag_65:\n    /* \"#utility.yul\":2111:2115   */\n  dup3\n    /* \"#utility.yul\":2104:2209   */\n  sstore\n    /* \"#utility.yul\":2022:2215   */\n  pop\n    /* \"#utility.yul\":1946:2215   */\n  pop\n  pop\n  pop\n  jump\t// out\n    /* \"#utility.yul\":2221:2294   */\ntag_35:\n    /* \"#utility.yul\":2266:2269   */\n  0x00\n    /* \"#utility.yul\":2221:2294   */\n  swap1\n  jump\t// out\n    /* \"#utility.yul\":2300:2489   */\ntag_36:\n    /* \"#utility.yul\":2377:2409   */\n  tag_69\n  tag_35\n  jump\t// in\ntag_69:\n    /* \"#utility.yul\":2418:2483   */\n  tag_70\n    /* \"#utility.yul\":2476:2482   */\n  dup2\n    /* \"#utility.yul\":2468:2474   */\n  dup5\n    /* \"#utility.yul\":2462:2466   */\n  dup5\n    /* \"#utility.yul\":2418:2483   */\n  tag_34\n  jump\t// in\ntag_70:\n    /* \"#utility.yul\":2353:2489   */\n  pop\n    /* \"#utility.yul\":2300:2489   */\n  pop\n  pop\n  jump\t// out\n    /* \"#utility.yul\":2495:2681   */\ntag_37:\n    /* \"#utility.yul\":2555:2675   */\ntag_72:\n    /* \"#utility.yul\":2572:2575   */\n  dup2\n    /* \"#utility.yul\":2565:2570   */\n  dup2\n    /* \"#utility.yul\":2562:2576   */\n  lt\n    /* \"#utility.yul\":2555:2675   */\n  iszero\n  tag_74\n  jumpi\n    /* \"#utility.yul\":2626:2665   */\n  tag_75\n    /* \"#utility.yul\":2663:2664   */\n  0x00\n    /* \"#utility.yul\":2656:2661   */\n  dup3\n    /* \"#utility.yul\":2626:2665   */\n  tag_36\n  jump\t// in\ntag_75:\n    /* \"#utility.yul\":2599:2600   */\n  0x01\n    /* \"#utility.yul\":2592:2597   */\n  dup2\n    /* \"#utility.yul\":2588:2601   */\n  add\n    /* \"#utility.yul\":2579:2601   */\n  swap1\n  pop\n    /* \"#utility.yul\":2555:2675   */\n  jump(tag_72)\ntag_74:\n    /* \"#utility.yul\":2495:2681   */\n  pop\n  pop\n  jump\t// out\n    /* \"#utility.yul\":2687:3230   */\ntag_38:\n    /* \"#utility.yul\":2788:2790   */\n  0x1f\n    /* \"#utility.yul\":2783:2786   */\n  dup3\n    /* \"#utility.yul\":2780:2791   */\n  gt\n    /* \"#utility.yul\":2777:3223   */\n  iszero\n  tag_77\n  jumpi\n    /* \"#utility.yul\":2822:2860   */\n  tag_78\n    /* \"#utility.yul\":2854:2859   */\n  dup2\n    /* \"#utility.yul\":2822:2860   */\n  tag_26\n  jump\t// in\ntag_78:\n    /* \"#utility.yul\":2906:2935   */\n  tag_79\n    /* \"#utility.yul\":2924:2934   */\n  dup5\n    /* \"#utility.yul\":2906:2935   */\n  tag_27\n  jump\t// in\ntag_79:\n    /* \"#utility.yul\":2896:2904   */\n  dup2\n    /* \"#utility.yul\":2892:2936   */\n  add\n    /* \"#utility.yul\":3089:3091   */\n  0x20\n    /* \"#utility.yul\":3077:3087   */\n  dup6\n    /* \"#utility.yul\":3074:3092   */\n  lt\n    /* \"#utility.yul\":3071:3120   */\n  iszero\n  tag_80\n  jumpi\n    /* \"#utility.yul\":3110:3118   */\n  dup2\n    /* \"#utility.yul\":3095:3118   */\n  swap1\n  pop\n    /* \"#utility.yul\":3071:3120   */\ntag_80:\n    /* \"#utility.yul\":3133:3213   */\n  tag_81\n    /* \"#utility.yul\":3189:3211   */\n  tag_82\n    /* \"#utility.yul\":3207:3210   */\n  dup6\n    /* \"#utility.yul\":3189:3211   */\n  tag_27\n  jump\t// in\ntag_82:\n    /* \"#utility.yul\":3179:3187   */\n  dup4\n    /* \"#utility.yul\":3175:3212   */\n  add\n    /* \"#utility.yul\":3162:3173   */\n  dup3\n    /* \"#utility.yul\":3133:3213   */\n  tag_37\n  jump\t// in\ntag_81:\n    /* \"#utility.yul\":2792:3223   */\n  pop\n  pop\n    /* \"#utility.yul\":2777:3223   */\ntag_77:\n    /* \"#utility.yul\":2687:3230   */\n  pop\n  pop\n  pop\n  jump\t// out\n    /* \"#utility.yul\":3236:3353   */\ntag_39:\n    /* \"#utility.yul\":3290:3298   */\n  0x00\n    /* \"#utility.yul\":3340:3345   */\n  dup3\n    /* \"#utility.yul\":3334:3338   */\n  dup3\n    /* \"#utility.yul\":3330:3346   */\n  shr\n    /* \"#utility.yul\":3309:3346   */\n  swap1\n  pop\n    /* \"#utility.yul\":3236:3353   */\n  swap3\n  swap2\n  pop\n  pop\n  jump\t// out\n    /* \"#utility.yul\":3359:3528   */\ntag_40:\n    /* \"#utility.yul\":3403:3409   */\n  0x00\n    /* \"#utility.yul\":3436:3487   */\n  tag_85\n    /* \"#utility.yul\":3484:3485   */\n  0x00\n    /* \"#utility.yul\":3480:3486   */\n  not\n    /* \"#utility.yul\":3472:3477   */\n  dup5\n    /* \"#utility.yul\":3469:3470   */\n  0x08\n    /* \"#utility.yul\":3465:3478   */\n  mul\n    /* \"#utility.yul\":3436:3487   */\n  tag_39\n  jump\t// in\ntag_85:\n    /* \"#utility.yul\":3432:3488   */\n  not\n    /* \"#utility.yul\":3517:3521   */\n  dup1\n    /* \"#utility.yul\":3511:3515   */\n  dup4\n    /* \"#utility.yul\":3507:3522   */\n  and\n    /* \"#utility.yul\":3497:3522   */\n  swap2\n  pop\n    /* \"#utility.yul\":3410:3528   */\n  pop\n    /* \"#utility.yul\":3359:3528   */\n  swap3\n  swap2\n  pop\n  pop\n  jump\t// out\n    /* \"#utility.yul\":3533:3828   */\ntag_41:\n    /* \"#utility.yul\":3609:3613   */\n  0x00\n    /* \"#utility.yul\":3755:3784   */\n  tag_87\n    /* \"#utility.yul\":3780:3783   */\n  dup4\n    /* \"#utility.yul\":3774:3778   */\n  dup4\n    /* \"#utility.yul\":3755:3784   */\n  tag_40\n  jump\t// in\ntag_87:\n    /* \"#utility.yul\":3747:3784   */\n  swap2\n  pop\n    /* \"#utility.yul\":3817:3820   */\n  dup3\n    /* \"#utility.yul\":3814:3815   */\n  0x02\n    /* \"#utility.yul\":3810:3821   */\n  mul\n    /* \"#utility.yul\":3804:3808   */\n  dup3\n    /* \"#utility.yul\":3801:3822   */\n  or\n    /* \"#utility.yul\":3793:3822   */\n  swap1\n  pop\n    /* \"#utility.yul\":3533:3828   */\n  swap3\n  swap2\n  pop\n  pop\n  jump\t// out\n    /* \"#utility.yul\":3833:5228   */\ntag_7:\n    /* \"#utility.yul\":3950:3987   */\n  tag_89\n    /* \"#utility.yul\":3983:3986   */\n  dup3\n    /* \"#utility.yul\":3950:3987   */\n  tag_22\n  jump\t// in\ntag_89:\n    /* \"#utility.yul\":4052:4070   */\n  0xffffffffffffffff\n    /* \"#utility.yul\":4044:4050   */\n  dup2\n    /* \"#utility.yul\":4041:4071   */\n  gt\n    /* \"#utility.yul\":4038:4094   */\n  iszero\n  tag_90\n  jumpi\n    /* \"#utility.yul\":4074:4092   */\n  tag_91\n  tag_23\n  jump\t// in\ntag_91:\n    /* \"#utility.yul\":4038:4094   */\ntag_90:\n    /* \"#utility.yul\":4118:4156   */\n  tag_92\n    /* \"#utility.yul\":4150:4154   */\n  dup3\n    /* \"#utility.yul\":4144:4155   */\n  sload\n    /* \"#utility.yul\":4118:4156   */\n  tag_25\n  jump\t// in\ntag_92:\n    /* \"#utility.yul\":4203:4270   */\n  tag_93\n    /* \"#utility.yul\":4263:4269   */\n  dup3\n    /* \"#utility.yul\":4255:4261   */\n  dup3\n    /* \"#utility.yul\":4249:4253   */\n  dup6\n    /* \"#utility.yul\":4203:4270   */\n  tag_38\n  jump\t// in\ntag_93:\n    /* \"#utility.yul\":4297:4298   */\n  0x00\n    /* \"#utility.yul\":4321:4325   */\n  0x20\n    /* \"#utility.yul\":4308:4325   */\n  swap1\n  pop\n    /* \"#utility.yul\":4353:4355   */\n  0x1f\n    /* \"#utility.yul\":4345:4351   */\n  dup4\n    /* \"#utility.yul\":4342:4356   */\n  gt\n    /* \"#utility.yul\":4370:4371   */\n  0x01\n    /* \"#utility.yul\":4365:4983   */\n  dup2\n  eq\n  tag_95\n  jumpi\n    /* \"#utility.yul\":5027:5028   */\n  0x00\n    /* \"#utility.yul\":5044:5050   */\n  dup5\n    /* \"#utility.yul\":5041:5118   */\n  iszero\n  tag_96\n  jumpi\n    /* \"#utility.yul\":5093:5102   */\n  dup3\n    /* \"#utility.yul\":5088:5091   */\n  dup8\n    /* \"#utility.yul\":5084:5103   */\n  add\n    /* \"#utility.yul\":5078:5104   */\n  mload\n    /* \"#utility.yul\":5069:5104   */\n  swap1\n  pop\n    /* \"#utility.yul\":5041:5118   */\ntag_96:\n    /* \"#utility.yul\":5144:5211   */\n  tag_97\n    /* \"#utility.yul\":5204:5210   */\n  dup6\n    /* \"#utility.yul\":5197:5202   */\n  dup3\n    /* \"#utility.yul\":5144:5211   */\n  tag_41\n  jump\t// in\ntag_97:\n    /* \"#utility.yul\":5138:5142   */\n  dup7\n    /* \"#utility.yul\":5131:5212   */\n  sstore\n    /* \"#utility.yul\":5000:5222   */\n  pop\n    /* \"#utility.yul\":4335:5222   */\n  jump(tag_94)\n    /* \"#utility.yul\":4365:4983   */\ntag_95:\n    /* \"#utility.yul\":4417:4421   */\n  0x1f\n    /* \"#utility.yul\":4413:4422   */\n  not\n    /* \"#utility.yul\":4405:4411   */\n  dup5\n    /* \"#utility.yul\":4401:4423   */\n  and\n    /* \"#utility.yul\":4451:4488   */\n  tag_98\n    /* \"#utility.yul\":4483:4487   */\n  dup7\n    /* \"#utility.yul\":4451:4488   */\n  tag_26\n  jump\t// in\ntag_98:\n    /* \"#utility.yul\":4510:4511   */\n  0x00\n    /* \"#utility.yul\":4524:4732   */\ntag_99:\n    /* \"#utility.yul\":4538:4545   */\n  dup3\n    /* \"#utility.yul\":4535:4536   */\n  dup2\n    /* \"#utility.yul\":4532:4546   */\n  lt\n    /* \"#utility.yul\":4524:4732   */\n  iszero\n  tag_101\n  jumpi\n    /* \"#utility.yul\":4617:4626   */\n  dup5\n    /* \"#utility.yul\":4612:4615   */\n  dup10\n    /* \"#utility.yul\":4608:4627   */\n  add\n    /* \"#utility.yul\":4602:4628   */\n  mload\n    /* \"#utility.yul\":4594:4600   */\n  dup3\n    /* \"#utility.yul\":4587:4629   */\n  sstore\n    /* \"#utility.yul\":4668:4669   */\n  0x01\n    /* \"#utility.yul\":4660:4666   */\n  dup3\n    /* \"#utility.yul\":4656:4670   */\n  add\n    /* \"#utility.yul\":4646:4670   */\n  swap2\n  pop\n    /* \"#utility.yul\":4715:4717   */\n  0x20\n    /* \"#utility.yul\":4704:4713   */\n  dup6\n    /* \"#utility.yul\":4700:4718   */\n  add\n    /* \"#utility.yul\":4687:4718   */\n  swap5\n  pop\n    /* \"#utility.yul\":4561:4565   */\n  0x20\n    /* \"#utility.yul\":4558:4559   */\n  dup2\n    /* \"#utility.yul\":4554:4566   */\n  add\n    /* \"#utility.yul\":4549:4566   */\n  swap1\n  pop\n    /* \"#utility.yul\":4524:4732   */\n  jump(tag_99)\ntag_101:\n    /* \"#utility.yul\":4760:4766   */\n  dup7\n    /* \"#utility.yul\":4751:4758   */\n  dup4\n    /* \"#utility.yul\":4748:4767   */\n  lt\n    /* \"#utility.yul\":4745:4924   */\n  iszero\n  tag_102\n  jumpi\n    /* \"#utility.yul\":4818:4827   */\n  dup5\n    /* \"#utility.yul\":4813:4816   */\n  dup10\n    /* \"#utility.yul\":4809:4828   */\n  add\n    /* \"#utility.yul\":4803:4829   */\n  mload\n    /* \"#utility.yul\":4861:4909   */\n  tag_103\n    /* \"#utility.yul\":4903:4907   */\n  0x1f\n    /* \"#utility.yul\":4895:4901   */\n  dup10\n    /* \"#utility.yul\":4891:4908   */\n  and\n    /* \"#utility.yul\":4880:4889   */\n  dup3\n    /* \"#utility.yul\":4861:4909   */\n  tag_40\n  jump\t// in\ntag_103:\n    /* \"#utility.yul\":4853:4859   */\n  dup4\n    /* \"#utility.yul\":4846:4910   */\n  sstore\n    /* \"#utility.yul\":4768:4924   */\n  pop\n    /* \"#utility.yul\":4745:4924   */\ntag_102:\n    /* \"#utility.yul\":4970:4971   */\n  0x01\n    /* \"#utility.yul\":4966:4967   */\n  0x02\n    /* \"#utility.yul\":4958:4964   */\n  dup9\n    /* \"#utility.yul\":4954:4968   */\n  mul\n    /* \"#utility.yul\":4950:4972   */\n  add\n    /* \"#utility.yul\":4944:4948   */\n  dup9\n    /* \"#utility.yul\":4937:4973   */\n  sstore\n    /* \"#utility.yul\":4372:4983   */\n  pop\n  pop\n  pop\n    /* \"#utility.yul\":4335:5222   */\ntag_94:\n  pop\n    /* \"#utility.yul\":3925:5228   */\n  pop\n  pop\n  pop\n    /* \"#utility.yul\":3833:5228   */\n  pop\n  pop\n  jump\t// out\n    /* \"contracts/coins/Coin.sol_flattened.sol\":20199:21793  contract Coin is ERC20, Ownable, ICoin {... */\ntag_18:\n  dataSize(sub_0)\n  dup1\n  dataOffset(sub_0)\n  0x00\n  codecopy\n  0x00\n  return\nstop\n\nsub_0: assembly {\n        /* \"contracts/coins/Coin.sol_flattened.sol\":20199:21793  contract Coin is ERC20, Ownable, ICoin {... */\n      mstore(0x40, 0x80)\n      callvalue\n      dup1\n      iszero\n      tag_1\n      jumpi\n      0x00\n      dup1\n      revert\n    tag_1:\n      pop\n      jumpi(tag_2, lt(calldatasize, 0x04))\n      shr(0xe0, calldataload(0x00))\n      dup1\n      0x8da5cb5b\n      gt\n      tag_23\n      jumpi\n      dup1\n      0xb78376e9\n      gt\n      tag_24\n      jumpi\n      dup1\n      0xb78376e9\n      eq\n      tag_18\n      jumpi\n      dup1\n      0xc290d691\n      eq\n      tag_19\n      jumpi\n      dup1\n      0xd9fcefdd\n      eq\n      tag_20\n      jumpi\n      dup1\n      0xdd62ed3e\n      eq\n      tag_21\n      jumpi\n      dup1\n      0xf2fde38b\n      eq\n      tag_22\n      jumpi\n      jump(tag_2)\n    tag_24:\n      dup1\n      0x8da5cb5b\n      eq\n      tag_13\n      jumpi\n      dup1\n      0x95d89b41\n      eq\n      tag_14\n      jumpi\n      dup1\n      0xa0712d68\n      eq\n      tag_15\n      jumpi\n      dup1\n      0xa457c2d7\n      eq\n      tag_16\n      jumpi\n      dup1\n      0xa9059cbb\n      eq\n      tag_17\n      jumpi\n      jump(tag_2)\n    tag_23:\n      dup1\n      0x23b872dd\n      gt\n      tag_25\n      jumpi\n      dup1\n      0x23b872dd\n      eq\n      tag_8\n      jumpi\n      dup1\n      0x313ce567\n      eq\n      tag_9\n      jumpi\n      dup1\n      0x39509351\n      eq\n      tag_10\n      jumpi\n      dup1\n      0x70a08231\n      eq\n      tag_11\n      jumpi\n      dup1\n      0x715018a6\n      eq\n      tag_12\n      jumpi\n      jump(tag_2)\n    tag_25:\n      dup1\n      0x048f1627\n      eq\n      tag_3\n      jumpi\n      dup1\n      0x06fdde03\n      eq\n      tag_4\n      jumpi\n      dup1\n      0x095ea7b3\n      eq\n      tag_5\n      jumpi\n      dup1\n      0x1055d708\n      eq\n      tag_6\n      jumpi\n      dup1\n      0x18160ddd\n      eq\n      tag_7\n      jumpi\n    tag_2:\n      0x00\n      dup1\n      revert\n        /* \"contracts/coins/Coin.sol_flattened.sol\":21182:21365  function removePayer(address payer) external onlyOwner {... */\n    tag_3:\n      tag_26\n      0x04\n      dup1\n      calldatasize\n      sub\n      dup2\n      add\n      swap1\n      tag_27\n      swap2\n      swap1\n      tag_28\n      jump\t// in\n    tag_27:\n      tag_29\n      jump\t// in\n    tag_26:\n      stop\n        /* \"contracts/coins/Coin.sol_flattened.sol\":9274:9372  function name() public view virtual override returns (string memory) {... */\n    tag_4:\n      tag_30\n      tag_31\n      jump\t// in\n    tag_30:\n      mload(0x40)\n      tag_32\n      swap2\n      swap1\n      tag_33\n      jump\t// in\n    tag_32:\n      mload(0x40)\n      dup1\n      swap2\n      sub\n      swap1\n      return\n        /* \"contracts/coins/Coin.sol_flattened.sol\":11551:11748  function approve(address spender, uint256 amount) public virtual override returns (bool) {... */\n    tag_5:\n      tag_34\n      0x04\n      dup1\n      calldatasize\n      sub\n      dup2\n      add\n      swap1\n      tag_35\n      swap2\n      swap1\n      tag_36\n      jump\t// in\n    tag_35:\n      tag_37\n      jump\t// in\n    tag_34:\n      mload(0x40)\n      tag_38\n      swap2\n      swap1\n      tag_39\n      jump\t// in\n    tag_38:\n      mload(0x40)\n      dup1\n      swap2\n      sub\n      swap1\n      return\n        /* \"contracts/coins/Coin.sol_flattened.sol\":21427:21520  function getPayers() external view returns (address[] memory) {... */\n    tag_6:\n      tag_40\n      tag_41\n      jump\t// in\n    tag_40:\n      mload(0x40)\n      tag_42\n      swap2\n      swap1\n      tag_43\n      jump\t// in\n    tag_42:\n      mload(0x40)\n      dup1\n      swap2\n      sub\n      swap1\n      return\n        /* \"contracts/coins/Coin.sol_flattened.sol\":10362:10468  function totalSupply() public view virtual override returns (uint256) {... */\n    tag_7:\n      tag_44\n      tag_45\n      jump\t// in\n    tag_44:\n      mload(0x40)\n      tag_46\n      swap2\n      swap1\n      tag_47\n      jump\t// in\n    tag_46:\n      mload(0x40)\n      dup1\n      swap2\n      sub\n      swap1\n      return\n        /* \"contracts/coins/Coin.sol_flattened.sol\":12310:12596  function transferFrom(... */\n    tag_8:\n      tag_48\n      0x04\n      dup1\n      calldatasize\n      sub\n      dup2\n      add\n      swap1\n      tag_49\n      swap2\n      swap1\n      tag_50\n      jump\t// in\n    tag_49:\n      tag_51\n      jump\t// in\n    tag_48:\n      mload(0x40)\n      tag_52\n      swap2\n      swap1\n      tag_39\n      jump\t// in\n    tag_52:\n      mload(0x40)\n      dup1\n      swap2\n      sub\n      swap1\n      return\n        /* \"contracts/coins/Coin.sol_flattened.sol\":10211:10302  function decimals() public view virtual override returns (uint8) {... */\n    tag_9:\n      tag_53\n      tag_54\n      jump\t// in\n    tag_53:\n      mload(0x40)\n      tag_55\n      swap2\n      swap1\n      tag_56\n      jump\t// in\n    tag_55:\n      mload(0x40)\n      dup1\n      swap2\n      sub\n      swap1\n      return\n        /* \"contracts/coins/Coin.sol_flattened.sol\":12991:13225  function increaseAllowance(address spender, uint256 addedValue) public virtual returns (bool) {... */\n    tag_10:\n      tag_57\n      0x04\n      dup1\n      calldatasize\n      sub\n      dup2\n      add\n      swap1\n      tag_58\n      swap2\n      swap1\n      tag_36\n      jump\t// in\n    tag_58:\n      tag_59\n      jump\t// in\n    tag_57:\n      mload(0x40)\n      tag_60\n      swap2\n      swap1\n      tag_39\n      jump\t// in\n    tag_60:\n      mload(0x40)\n      dup1\n      swap2\n      sub\n      swap1\n      return\n        /* \"contracts/coins/Coin.sol_flattened.sol\":10526:10651  function balanceOf(address account) public view virtual override returns (uint256) {... */\n    tag_11:\n      tag_61\n      0x04\n      dup1\n      calldatasize\n      sub\n      dup2\n      add\n      swap1\n      tag_62\n      swap2\n      swap1\n      tag_28\n      jump\t// in\n    tag_62:\n      tag_63\n      jump\t// in\n    tag_61:\n      mload(0x40)\n      tag_64\n      swap2\n      swap1\n      tag_47\n      jump\t// in\n    tag_64:\n      mload(0x40)\n      dup1\n      swap2\n      sub\n      swap1\n      return\n        /* \"contracts/coins/Coin.sol_flattened.sol\":2900:3001  function renounceOwnership() public virtual onlyOwner {... */\n    tag_12:\n      tag_65\n      tag_66\n      jump\t// in\n    tag_65:\n      stop\n        /* \"contracts/coins/Coin.sol_flattened.sol\":2270:2355  function owner() public view virtual returns (address) {... */\n    tag_13:\n      tag_67\n      tag_68\n      jump\t// in\n    tag_67:\n      mload(0x40)\n      tag_69\n      swap2\n      swap1\n      tag_70\n      jump\t// in\n    tag_69:\n      mload(0x40)\n      dup1\n      swap2\n      sub\n      swap1\n      return\n        /* \"contracts/coins/Coin.sol_flattened.sol\":9485:9587  function symbol() public view virtual override returns (string memory) {... */\n    tag_14:\n      tag_71\n      tag_72\n      jump\t// in\n    tag_71:\n      mload(0x40)\n      tag_73\n      swap2\n      swap1\n      tag_33\n      jump\t// in\n    tag_73:\n      mload(0x40)\n      dup1\n      swap2\n      sub\n      swap1\n      return\n        /* \"contracts/coins/Coin.sol_flattened.sol\":20790:20878  function mint(uint256 amount) external onlyOwner {... */\n    tag_15:\n      tag_74\n      0x04\n      dup1\n      calldatasize\n      sub\n      dup2\n      add\n      swap1\n      tag_75\n      swap2\n      swap1\n      tag_76\n      jump\t// in\n    tag_75:\n      tag_77\n      jump\t// in\n    tag_74:\n      stop\n        /* \"contracts/coins/Coin.sol_flattened.sol\":13712:14139  function decreaseAllowance(address spender, uint256 subtractedValue) public virtual returns (bool) {... */\n    tag_16:\n      tag_78\n      0x04\n      dup1\n      calldatasize\n      sub\n      dup2\n      add\n      swap1\n      tag_79\n      swap2\n      swap1\n      tag_36\n      jump\t// in\n    tag_79:\n      tag_80\n      jump\t// in\n    tag_78:\n      mload(0x40)\n      tag_81\n      swap2\n      swap1\n      tag_39\n      jump\t// in\n    tag_81:\n      mload(0x40)\n      dup1\n      swap2\n      sub\n      swap1\n      return\n        /* \"contracts/coins/Coin.sol_flattened.sol\":10847:11036  function transfer(address to, uint256 amount) public virtual override returns (bool) {... */\n    tag_17:\n      tag_82\n      0x04\n      dup1\n      calldatasize\n      sub\n      dup2\n      add\n      swap1\n      tag_83\n      swap2\n      swap1\n      tag_36\n      jump\t// in\n    tag_83:\n      tag_84\n      jump\t// in\n    tag_82:\n      mload(0x40)\n      tag_85\n      swap2\n      swap1\n      tag_39\n      jump\t// in\n    tag_85:\n      mload(0x40)\n      dup1\n      swap2\n      sub\n      swap1\n      return\n        /* \"contracts/coins/Coin.sol_flattened.sol\":21040:21128  function addPayer(address payer) external onlyOwner {... */\n    tag_18:\n      tag_86\n      0x04\n      dup1\n      calldatasize\n      sub\n      dup2\n      add\n      swap1\n      tag_87\n      swap2\n      swap1\n      tag_28\n      jump\t// in\n    tag_87:\n      tag_88\n      jump\t// in\n    tag_86:\n      stop\n        /* \"contracts/coins/Coin.sol_flattened.sol\":20902:20989  function pay(uint256 amount) external onlyPayer {... */\n    tag_19:\n      tag_89\n      0x04\n      dup1\n      calldatasize\n      sub\n      dup2\n      add\n      swap1\n      tag_90\n      swap2\n      swap1\n      tag_76\n      jump\t// in\n    tag_90:\n      tag_91\n      jump\t// in\n    tag_89:\n      stop\n        /* \"contracts/coins/Coin.sol_flattened.sol\":21581:21791  function isPayerExist(address payer) external view returns (bool) {... */\n    tag_20:\n      tag_92\n      0x04\n      dup1\n      calldatasize\n      sub\n      dup2\n      add\n      swap1\n      tag_93\n      swap2\n      swap1\n      tag_28\n      jump\t// in\n    tag_93:\n      tag_94\n      jump\t// in\n    tag_92:\n      mload(0x40)\n      tag_95\n      swap2\n      swap1\n      tag_39\n      jump\t// in\n    tag_95:\n      mload(0x40)\n      dup1\n      swap2\n      sub\n      swap1\n      return\n        /* \"contracts/coins/Coin.sol_flattened.sol\":11094:11243  function allowance(address owner, address spender) public view virtual override returns (uint256) {... */\n    tag_21:\n      tag_96\n      0x04\n      dup1\n      calldatasize\n      sub\n      dup2\n      add\n      swap1\n      tag_97\n      swap2\n      swap1\n      tag_98\n      jump\t// in\n    tag_97:\n      tag_99\n      jump\t// in\n    tag_96:\n      mload(0x40)\n      tag_100\n      swap2\n      swap1\n      tag_47\n      jump\t// in\n    tag_100:\n      mload(0x40)\n      dup1\n      swap2\n      sub\n      swap1\n      return\n        /* \"contracts/coins/Coin.sol_flattened.sol\":3150:3348  function transferOwnership(address newOwner) public virtual onlyOwner {... */\n    tag_22:\n      tag_101\n      0x04\n      dup1\n      calldatasize\n      sub\n      dup2\n      add\n      swap1\n      tag_102\n      swap2\n      swap1\n      tag_28\n      jump\t// in\n    tag_102:\n      tag_103\n      jump\t// in\n    tag_101:\n      stop\n        /* \"contracts/coins/Coin.sol_flattened.sol\":21182:21365  function removePayer(address payer) external onlyOwner {... */\n    tag_29:\n        /* \"contracts/coins/Coin.sol_flattened.sol\":2163:2176  _checkOwner() */\n      tag_105\n        /* \"contracts/coins/Coin.sol_flattened.sol\":2163:2174  _checkOwner */\n      tag_106\n        /* \"contracts/coins/Coin.sol_flattened.sol\":2163:2176  _checkOwner() */\n      jump\t// in\n    tag_105:\n        /* \"contracts/coins/Coin.sol_flattened.sol\":21252:21261  uint256 i */\n      0x00\n        /* \"contracts/coins/Coin.sol_flattened.sol\":21247:21359  for (uint256 i = 0; i < _payers.length; i++) {... */\n    tag_108:\n        /* \"contracts/coins/Coin.sol_flattened.sol\":21271:21278  _payers */\n      0x06\n        /* \"contracts/coins/Coin.sol_flattened.sol\":21271:21285  _payers.length */\n      dup1\n      sload\n      swap1\n      pop\n        /* \"contracts/coins/Coin.sol_flattened.sol\":21267:21268  i */\n      dup2\n        /* \"contracts/coins/Coin.sol_flattened.sol\":21267:21285  i < _payers.length */\n      lt\n        /* \"contracts/coins/Coin.sol_flattened.sol\":21247:21359  for (uint256 i = 0; i < _payers.length; i++) {... */\n      iszero\n      tag_109\n      jumpi\n        /* \"contracts/coins/Coin.sol_flattened.sol\":21319:21326  _payers */\n      0x06\n        /* \"contracts/coins/Coin.sol_flattened.sol\":21327:21328  i */\n      dup2\n        /* \"contracts/coins/Coin.sol_flattened.sol\":21319:21329  _payers[i] */\n      dup2\n      sload\n      dup2\n      lt\n      tag_111\n      jumpi\n      tag_112\n      tag_113\n      jump\t// in\n    tag_112:\n    tag_111:\n      swap1\n      0x00\n      mstore\n      keccak256(0x00, 0x20)\n      add\n      0x00\n      swap1\n      sload\n      swap1\n      0x0100\n      exp\n      swap1\n      div\n      0xffffffffffffffffffffffffffffffffffffffff\n      and\n        /* \"contracts/coins/Coin.sol_flattened.sol\":21310:21329  payer == _payers[i] */\n      0xffffffffffffffffffffffffffffffffffffffff\n      and\n        /* \"contracts/coins/Coin.sol_flattened.sol\":21310:21315  payer */\n      dup3\n        /* \"contracts/coins/Coin.sol_flattened.sol\":21310:21329  payer == _payers[i] */\n      0xffffffffffffffffffffffffffffffffffffffff\n      and\n      sub\n        /* \"contracts/coins/Coin.sol_flattened.sol\":21306:21348  if (payer == _payers[i]) delete _payers[i] */\n      tag_115\n      jumpi\n        /* \"contracts/coins/Coin.sol_flattened.sol\":21338:21345  _payers */\n      0x06\n        /* \"contracts/coins/Coin.sol_flattened.sol\":21346:21347  i */\n      dup2\n        /* \"contracts/coins/Coin.sol_flattened.sol\":21338:21348  _payers[i] */\n      dup2\n      sload\n      dup2\n      lt\n      tag_116\n      jumpi\n      tag_117\n      tag_113\n      jump\t// in\n    tag_117:\n    tag_116:\n      swap1\n      0x00\n      mstore\n      keccak256(0x00, 0x20)\n      add\n      0x00\n        /* \"contracts/coins/Coin.sol_flattened.sol\":21331:21348  delete _payers[i] */\n      0x0100\n      exp\n      dup2\n      sload\n      swap1\n      0xffffffffffffffffffffffffffffffffffffffff\n      mul\n      not\n      and\n      swap1\n      sstore\n        /* \"contracts/coins/Coin.sol_flattened.sol\":21306:21348  if (payer == _payers[i]) delete _payers[i] */\n    tag_115:\n        /* \"contracts/coins/Coin.sol_flattened.sol\":21287:21290  i++ */\n      dup1\n      dup1\n      0x01\n      add\n      swap2\n      pop\n      pop\n        /* \"contracts/coins/Coin.sol_flattened.sol\":21247:21359  for (uint256 i = 0; i < _payers.length; i++) {... */\n      jump(tag_108)\n    tag_109:\n      pop\n        /* \"contracts/coins/Coin.sol_flattened.sol\":21182:21365  function removePayer(address payer) external onlyOwner {... */\n      pop\n      jump\t// out\n        /* \"contracts/coins/Coin.sol_flattened.sol\":9274:9372  function name() public view virtual override returns (string memory) {... */\n    tag_31:\n        /* \"contracts/coins/Coin.sol_flattened.sol\":9328:9341  string memory */\n      0x60\n        /* \"contracts/coins/Coin.sol_flattened.sol\":9360:9365  _name */\n      0x03\n        /* \"contracts/coins/Coin.sol_flattened.sol\":9353:9365  return _name */\n      dup1\n      sload\n      tag_120\n      swap1\n      tag_121\n      jump\t// in\n    tag_120:\n      dup1\n      0x1f\n      add\n      0x20\n      dup1\n      swap2\n      div\n      mul\n      0x20\n      add\n      mload(0x40)\n      swap1\n      dup2\n      add\n      0x40\n      mstore\n      dup1\n      swap3\n      swap2\n      swap1\n      dup2\n      dup2\n      mstore\n      0x20\n      add\n      dup3\n      dup1\n      sload\n      tag_122\n      swap1\n      tag_121\n      jump\t// in\n    tag_122:\n      dup1\n      iszero\n      tag_123\n      jumpi\n      dup1\n      0x1f\n      lt\n      tag_124\n      jumpi\n      0x0100\n      dup1\n      dup4\n      sload\n      div\n      mul\n      dup4\n      mstore\n      swap2\n      0x20\n      add\n      swap2\n      jump(tag_123)\n    tag_124:\n      dup3\n      add\n      swap2\n      swap1\n      0x00\n      mstore\n      keccak256(0x00, 0x20)\n      swap1\n    tag_125:\n      dup2\n      sload\n      dup2\n      mstore\n      swap1\n      0x01\n      add\n      swap1\n      0x20\n      add\n      dup1\n      dup4\n      gt\n      tag_125\n      jumpi\n      dup3\n      swap1\n      sub\n      0x1f\n      and\n      dup3\n      add\n      swap2\n    tag_123:\n      pop\n      pop\n      pop\n      pop\n      pop\n      swap1\n      pop\n        /* \"contracts/coins/Coin.sol_flattened.sol\":9274:9372  function name() public view virtual override returns (string memory) {... */\n      swap1\n      jump\t// out\n        /* \"contracts/coins/Coin.sol_flattened.sol\":11551:11748  function approve(address spender, uint256 amount) public virtual override returns (bool) {... */\n    tag_37:\n        /* \"contracts/coins/Coin.sol_flattened.sol\":11634:11638  bool */\n      0x00\n        /* \"contracts/coins/Coin.sol_flattened.sol\":11650:11663  address owner */\n      dup1\n        /* \"contracts/coins/Coin.sol_flattened.sol\":11666:11678  _msgSender() */\n      tag_127\n        /* \"contracts/coins/Coin.sol_flattened.sol\":11666:11676  _msgSender */\n      tag_128\n        /* \"contracts/coins/Coin.sol_flattened.sol\":11666:11678  _msgSender() */\n      jump\t// in\n    tag_127:\n        /* \"contracts/coins/Coin.sol_flattened.sol\":11650:11678  address owner = _msgSender() */\n      swap1\n      pop\n        /* \"contracts/coins/Coin.sol_flattened.sol\":11688:11720  _approve(owner, spender, amount) */\n      tag_129\n        /* \"contracts/coins/Coin.sol_flattened.sol\":11697:11702  owner */\n      dup2\n        /* \"contracts/coins/Coin.sol_flattened.sol\":11704:11711  spender */\n      dup6\n        /* \"contracts/coins/Coin.sol_flattened.sol\":11713:11719  amount */\n      dup6\n        /* \"contracts/coins/Coin.sol_flattened.sol\":11688:11696  _approve */\n      tag_130\n        /* \"contracts/coins/Coin.sol_flattened.sol\":11688:11720  _approve(owner, spender, amount) */\n      jump\t// in\n    tag_129:\n        /* \"contracts/coins/Coin.sol_flattened.sol\":11737:11741  true */\n      0x01\n        /* \"contracts/coins/Coin.sol_flattened.sol\":11730:11741  return true */\n      swap2\n      pop\n      pop\n        /* \"contracts/coins/Coin.sol_flattened.sol\":11551:11748  function approve(address spender, uint256 amount) public virtual override returns (bool) {... */\n      swap3\n      swap2\n      pop\n      pop\n      jump\t// out\n        /* \"contracts/coins/Coin.sol_flattened.sol\":21427:21520  function getPayers() external view returns (address[] memory) {... */\n    tag_41:\n        /* \"contracts/coins/Coin.sol_flattened.sol\":21471:21487  address[] memory */\n      0x60\n        /* \"contracts/coins/Coin.sol_flattened.sol\":21506:21513  _payers */\n      0x06\n        /* \"contracts/coins/Coin.sol_flattened.sol\":21499:21513  return _payers */\n      dup1\n      sload\n      dup1\n      0x20\n      mul\n      0x20\n      add\n      mload(0x40)\n      swap1\n      dup2\n      add\n      0x40\n      mstore\n      dup1\n      swap3\n      swap2\n      swap1\n      dup2\n      dup2\n      mstore\n      0x20\n      add\n      dup3\n      dup1\n      sload\n      dup1\n      iszero\n      tag_132\n      jumpi\n      0x20\n      mul\n      dup3\n      add\n      swap2\n      swap1\n      0x00\n      mstore\n      keccak256(0x00, 0x20)\n      swap1\n    tag_133:\n      dup2\n      0x00\n      swap1\n      sload\n      swap1\n      0x0100\n      exp\n      swap1\n      div\n      0xffffffffffffffffffffffffffffffffffffffff\n      and\n      0xffffffffffffffffffffffffffffffffffffffff\n      and\n      dup2\n      mstore\n      0x20\n      add\n      swap1\n      0x01\n      add\n      swap1\n      dup1\n      dup4\n      gt\n      tag_133\n      jumpi\n    tag_132:\n      pop\n      pop\n      pop\n      pop\n      pop\n      swap1\n      pop\n        /* \"contracts/coins/Coin.sol_flattened.sol\":21427:21520  function getPayers() external view returns (address[] memory) {... */\n      swap1\n      jump\t// out\n        /* \"contracts/coins/Coin.sol_flattened.sol\":10362:10468  function totalSupply() public view virtual override returns (uint256) {... */\n    tag_45:\n        /* \"contracts/coins/Coin.sol_flattened.sol\":10423:10430  uint256 */\n      0x00\n        /* \"contracts/coins/Coin.sol_flattened.sol\":10449:10461  _totalSupply */\n      sload(0x02)\n        /* \"contracts/coins/Coin.sol_flattened.sol\":10442:10461  return _totalSupply */\n      swap1\n      pop\n        /* \"contracts/coins/Coin.sol_flattened.sol\":10362:10468  function totalSupply() public view virtual override returns (uint256) {... */\n      swap1\n      jump\t// out\n        /* \"contracts/coins/Coin.sol_flattened.sol\":12310:12596  function transferFrom(... */\n    tag_51:\n        /* \"contracts/coins/Coin.sol_flattened.sol\":12437:12441  bool */\n      0x00\n        /* \"contracts/coins/Coin.sol_flattened.sol\":12453:12468  address spender */\n      dup1\n        /* \"contracts/coins/Coin.sol_flattened.sol\":12471:12483  _msgSender() */\n      tag_136\n        /* \"contracts/coins/Coin.sol_flattened.sol\":12471:12481  _msgSender */\n      tag_128\n        /* \"contracts/coins/Coin.sol_flattened.sol\":12471:12483  _msgSender() */\n      jump\t// in\n    tag_136:\n        /* \"contracts/coins/Coin.sol_flattened.sol\":12453:12483  address spender = _msgSender() */\n      swap1\n      pop\n        /* \"contracts/coins/Coin.sol_flattened.sol\":12493:12531  _spendAllowance(from, spender, amount) */\n      tag_137\n        /* \"contracts/coins/Coin.sol_flattened.sol\":12509:12513  from */\n      dup6\n        /* \"contracts/coins/Coin.sol_flattened.sol\":12515:12522  spender */\n      dup3\n        /* \"contracts/coins/Coin.sol_flattened.sol\":12524:12530  amount */\n      dup6\n        /* \"contracts/coins/Coin.sol_flattened.sol\":12493:12508  _spendAllowance */\n      tag_138\n        /* \"contracts/coins/Coin.sol_flattened.sol\":12493:12531  _spendAllowance(from, spender, amount) */\n      jump\t// in\n    tag_137:\n        /* \"contracts/coins/Coin.sol_flattened.sol\":12541:12568  _transfer(from, to, amount) */\n      tag_139\n        /* \"contracts/coins/Coin.sol_flattened.sol\":12551:12555  from */\n      dup6\n        /* \"contracts/coins/Coin.sol_flattened.sol\":12557:12559  to */\n      dup6\n        /* \"contracts/coins/Coin.sol_flattened.sol\":12561:12567  amount */\n      dup6\n        /* \"contracts/coins/Coin.sol_flattened.sol\":12541:12550  _transfer */\n      tag_140\n        /* \"contracts/coins/Coin.sol_flattened.sol\":12541:12568  _transfer(from, to, amount) */\n      jump\t// in\n    tag_139:\n        /* \"contracts/coins/Coin.sol_flattened.sol\":12585:12589  true */\n      0x01\n        /* \"contracts/coins/Coin.sol_flattened.sol\":12578:12589  return true */\n      swap2\n      pop\n      pop\n        /* \"contracts/coins/Coin.sol_flattened.sol\":12310:12596  function transferFrom(... */\n      swap4\n      swap3\n      pop\n      pop\n      pop\n      jump\t// out\n        /* \"contracts/coins/Coin.sol_flattened.sol\":10211:10302  function decimals() public view virtual override returns (uint8) {... */\n    tag_54:\n        /* \"contracts/coins/Coin.sol_flattened.sol\":10269:10274  uint8 */\n      0x00\n        /* \"contracts/coins/Coin.sol_flattened.sol\":10293:10295  18 */\n      0x12\n        /* \"contracts/coins/Coin.sol_flattened.sol\":10286:10295  return 18 */\n      swap1\n      pop\n        /* \"contracts/coins/Coin.sol_flattened.sol\":10211:10302  function decimals() public view virtual override returns (uint8) {... */\n      swap1\n      jump\t// out\n        /* \"contracts/coins/Coin.sol_flattened.sol\":12991:13225  function increaseAllowance(address spender, uint256 addedValue) public virtual returns (bool) {... */\n    tag_59:\n        /* \"contracts/coins/Coin.sol_flattened.sol\":13079:13083  bool */\n      0x00\n        /* \"contracts/coins/Coin.sol_flattened.sol\":13095:13108  address owner */\n      dup1\n        /* \"contracts/coins/Coin.sol_flattened.sol\":13111:13123  _msgSender() */\n      tag_143\n        /* \"contracts/coins/Coin.sol_flattened.sol\":13111:13121  _msgSender */\n      tag_128\n        /* \"contracts/coins/Coin.sol_flattened.sol\":13111:13123  _msgSender() */\n      jump\t// in\n    tag_143:\n        /* \"contracts/coins/Coin.sol_flattened.sol\":13095:13123  address owner = _msgSender() */\n      swap1\n      pop\n        /* \"contracts/coins/Coin.sol_flattened.sol\":13133:13197  _approve(owner, spender, allowance(owner, spender) + addedValue) */\n      tag_144\n        /* \"contracts/coins/Coin.sol_flattened.sol\":13142:13147  owner */\n      dup2\n        /* \"contracts/coins/Coin.sol_flattened.sol\":13149:13156  spender */\n      dup6\n        /* \"contracts/coins/Coin.sol_flattened.sol\":13186:13196  addedValue */\n      dup6\n        /* \"contracts/coins/Coin.sol_flattened.sol\":13158:13183  allowance(owner, spender) */\n      tag_145\n        /* \"contracts/coins/Coin.sol_flattened.sol\":13168:13173  owner */\n      dup6\n        /* \"contracts/coins/Coin.sol_flattened.sol\":13175:13182  spender */\n      dup10\n        /* \"contracts/coins/Coin.sol_flattened.sol\":13158:13167  allowance */\n      tag_99\n        /* \"contracts/coins/Coin.sol_flattened.sol\":13158:13183  allowance(owner, spender) */\n      jump\t// in\n    tag_145:\n        /* \"contracts/coins/Coin.sol_flattened.sol\":13158:13196  allowance(owner, spender) + addedValue */\n      tag_146\n      swap2\n      swap1\n      tag_147\n      jump\t// in\n    tag_146:\n        /* \"contracts/coins/Coin.sol_flattened.sol\":13133:13141  _approve */\n      tag_130\n        /* \"contracts/coins/Coin.sol_flattened.sol\":13133:13197  _approve(owner, spender, allowance(owner, spender) + addedValue) */\n      jump\t// in\n    tag_144:\n        /* \"contracts/coins/Coin.sol_flattened.sol\":13214:13218  true */\n      0x01\n        /* \"contracts/coins/Coin.sol_flattened.sol\":13207:13218  return true */\n      swap2\n      pop\n      pop\n        /* \"contracts/coins/Coin.sol_flattened.sol\":12991:13225  function increaseAllowance(address spender, uint256 addedValue) public virtual returns (bool) {... */\n      swap3\n      swap2\n      pop\n      pop\n      jump\t// out\n        /* \"contracts/coins/Coin.sol_flattened.sol\":10526:10651  function balanceOf(address account) public view virtual override returns (uint256) {... */\n    tag_63:\n        /* \"contracts/coins/Coin.sol_flattened.sol\":10600:10607  uint256 */\n      0x00\n        /* \"contracts/coins/Coin.sol_flattened.sol\":10626:10635  _balances */\n      dup1\n        /* \"contracts/coins/Coin.sol_flattened.sol\":10626:10644  _balances[account] */\n      0x00\n        /* \"contracts/coins/Coin.sol_flattened.sol\":10636:10643  account */\n      dup4\n        /* \"contracts/coins/Coin.sol_flattened.sol\":10626:10644  _balances[account] */\n      0xffffffffffffffffffffffffffffffffffffffff\n      and\n      0xffffffffffffffffffffffffffffffffffffffff\n      and\n      dup2\n      mstore\n      0x20\n      add\n      swap1\n      dup2\n      mstore\n      0x20\n      add\n      0x00\n      keccak256\n      sload\n        /* \"contracts/coins/Coin.sol_flattened.sol\":10619:10644  return _balances[account] */\n      swap1\n      pop\n        /* \"contracts/coins/Coin.sol_flattened.sol\":10526:10651  function balanceOf(address account) public view virtual override returns (uint256) {... */\n      swap2\n      swap1\n      pop\n      jump\t// out\n        /* \"contracts/coins/Coin.sol_flattened.sol\":2900:3001  function renounceOwnership() public virtual onlyOwner {... */\n    tag_66:\n        /* \"contracts/coins/Coin.sol_flattened.sol\":2163:2176  _checkOwner() */\n      tag_150\n        /* \"contracts/coins/Coin.sol_flattened.sol\":2163:2174  _checkOwner */\n      tag_106\n        /* \"contracts/coins/Coin.sol_flattened.sol\":2163:2176  _checkOwner() */\n      jump\t// in\n    tag_150:\n        /* \"contracts/coins/Coin.sol_flattened.sol\":2964:2994  _transferOwnership(address(0)) */\n      tag_152\n        /* \"contracts/coins/Coin.sol_flattened.sol\":2991:2992  0 */\n      0x00\n        /* \"contracts/coins/Coin.sol_flattened.sol\":2964:2982  _transferOwnership */\n      tag_153\n        /* \"contracts/coins/Coin.sol_flattened.sol\":2964:2994  _transferOwnership(address(0)) */\n      jump\t// in\n    tag_152:\n        /* \"contracts/coins/Coin.sol_flattened.sol\":2900:3001  function renounceOwnership() public virtual onlyOwner {... */\n      jump\t// out\n        /* \"contracts/coins/Coin.sol_flattened.sol\":2270:2355  function owner() public view virtual returns (address) {... */\n    tag_68:\n        /* \"contracts/coins/Coin.sol_flattened.sol\":2316:2323  address */\n      0x00\n        /* \"contracts/coins/Coin.sol_flattened.sol\":2342:2348  _owner */\n      0x05\n      0x00\n      swap1\n      sload\n      swap1\n      0x0100\n      exp\n      swap1\n      div\n      0xffffffffffffffffffffffffffffffffffffffff\n      and\n        /* \"contracts/coins/Coin.sol_flattened.sol\":2335:2348  return _owner */\n      swap1\n      pop\n        /* \"contracts/coins/Coin.sol_flattened.sol\":2270:2355  function owner() public view virtual returns (address) {... */\n      swap1\n      jump\t// out\n        /* \"contracts/coins/Coin.sol_flattened.sol\":9485:9587  function symbol() public view virtual override returns (string memory) {... */\n    tag_72:\n        /* \"contracts/coins/Coin.sol_flattened.sol\":9541:9554  string memory */\n      0x60\n        /* \"contracts/coins/Coin.sol_flattened.sol\":9573:9580  _symbol */\n      0x04\n        /* \"contracts/coins/Coin.sol_flattened.sol\":9566:9580  return _symbol */\n      dup1\n      sload\n      tag_156\n      swap1\n      tag_121\n      jump\t// in\n    tag_156:\n      dup1\n      0x1f\n      add\n      0x20\n      dup1\n      swap2\n      div\n      mul\n      0x20\n      add\n      mload(0x40)\n      swap1\n      dup2\n      add\n      0x40\n      mstore\n      dup1\n      swap3\n      swap2\n      swap1\n      dup2\n      dup2\n      mstore\n      0x20\n      add\n      dup3\n      dup1\n      sload\n      tag_157\n      swap1\n      tag_121\n      jump\t// in\n    tag_157:\n      dup1\n      iszero\n      tag_158\n      jumpi\n      dup1\n      0x1f\n      lt\n      tag_159\n      jumpi\n      0x0100\n      dup1\n      dup4\n      sload\n      div\n      mul\n      dup4\n      mstore\n      swap2\n      0x20\n      add\n      swap2\n      jump(tag_158)\n    tag_159:\n      dup3\n      add\n      swap2\n      swap1\n      0x00\n      mstore\n      keccak256(0x00, 0x20)\n      swap1\n    tag_160:\n      dup2\n      sload\n      dup2\n      mstore\n      swap1\n      0x01\n      add\n      swap1\n      0x20\n      add\n      dup1\n      dup4\n      gt\n      tag_160\n      jumpi\n      dup3\n      swap1\n      sub\n      0x1f\n      and\n      dup3\n      add\n      swap2\n    tag_158:\n      pop\n      pop\n      pop\n      pop\n      pop\n      swap1\n      pop\n        /* \"contracts/coins/Coin.sol_flattened.sol\":9485:9587  function symbol() public view virtual override returns (string memory) {... */\n      swap1\n      jump\t// out\n        /* \"contracts/coins/Coin.sol_flattened.sol\":20790:20878  function mint(uint256 amount) external onlyOwner {... */\n    tag_77:\n        /* \"contracts/coins/Coin.sol_flattened.sol\":2163:2176  _checkOwner() */\n      tag_162\n        /* \"contracts/coins/Coin.sol_flattened.sol\":2163:2174  _checkOwner */\n      tag_106\n        /* \"contracts/coins/Coin.sol_flattened.sol\":2163:2176  _checkOwner() */\n      jump\t// in\n    tag_162:\n        /* \"contracts/coins/Coin.sol_flattened.sol\":20849:20871  _mint(owner(), amount) */\n      tag_164\n        /* \"contracts/coins/Coin.sol_flattened.sol\":20855:20862  owner() */\n      tag_165\n        /* \"contracts/coins/Coin.sol_flattened.sol\":20855:20860  owner */\n      tag_68\n        /* \"contracts/coins/Coin.sol_flattened.sol\":20855:20862  owner() */\n      jump\t// in\n    tag_165:\n        /* \"contracts/coins/Coin.sol_flattened.sol\":20864:20870  amount */\n      dup3\n        /* \"contracts/coins/Coin.sol_flattened.sol\":20849:20854  _mint */\n      tag_166\n        /* \"contracts/coins/Coin.sol_flattened.sol\":20849:20871  _mint(owner(), amount) */\n      jump\t// in\n    tag_164:\n        /* \"contracts/coins/Coin.sol_flattened.sol\":20790:20878  function mint(uint256 amount) external onlyOwner {... */\n      pop\n      jump\t// out\n        /* \"contracts/coins/Coin.sol_flattened.sol\":13712:14139  function decreaseAllowance(address spender, uint256 subtractedValue) public virtual returns (bool) {... */\n    tag_80:\n        /* \"contracts/coins/Coin.sol_flattened.sol\":13805:13809  bool */\n      0x00\n        /* \"contracts/coins/Coin.sol_flattened.sol\":13821:13834  address owner */\n      dup1\n        /* \"contracts/coins/Coin.sol_flattened.sol\":13837:13849  _msgSender() */\n      tag_168\n        /* \"contracts/coins/Coin.sol_flattened.sol\":13837:13847  _msgSender */\n      tag_128\n        /* \"contracts/coins/Coin.sol_flattened.sol\":13837:13849  _msgSender() */\n      jump\t// in\n    tag_168:\n        /* \"contracts/coins/Coin.sol_flattened.sol\":13821:13849  address owner = _msgSender() */\n      swap1\n      pop\n        /* \"contracts/coins/Coin.sol_flattened.sol\":13859:13883  uint256 currentAllowance */\n      0x00\n        /* \"contracts/coins/Coin.sol_flattened.sol\":13886:13911  allowance(owner, spender) */\n      tag_169\n        /* \"contracts/coins/Coin.sol_flattened.sol\":13896:13901  owner */\n      dup3\n        /* \"contracts/coins/Coin.sol_flattened.sol\":13903:13910  spender */\n      dup7\n        /* \"contracts/coins/Coin.sol_flattened.sol\":13886:13895  allowance */\n      tag_99\n        /* \"contracts/coins/Coin.sol_flattened.sol\":13886:13911  allowance(owner, spender) */\n      jump\t// in\n    tag_169:\n        /* \"contracts/coins/Coin.sol_flattened.sol\":13859:13911  uint256 currentAllowance = allowance(owner, spender) */\n      swap1\n      pop\n        /* \"contracts/coins/Coin.sol_flattened.sol\":13949:13964  subtractedValue */\n      dup4\n        /* \"contracts/coins/Coin.sol_flattened.sol\":13929:13945  currentAllowance */\n      dup2\n        /* \"contracts/coins/Coin.sol_flattened.sol\":13929:13964  currentAllowance >= subtractedValue */\n      lt\n      iszero\n        /* \"contracts/coins/Coin.sol_flattened.sol\":13921:14006  require(currentAllowance >= subtractedValue, \"ERC20: decreased allowance below zero\") */\n      tag_170\n      jumpi\n      mload(0x40)\n      0x08c379a000000000000000000000000000000000000000000000000000000000\n      dup2\n      mstore\n      0x04\n      add\n      tag_171\n      swap1\n      tag_172\n      jump\t// in\n    tag_171:\n      mload(0x40)\n      dup1\n      swap2\n      sub\n      swap1\n      revert\n    tag_170:\n        /* \"contracts/coins/Coin.sol_flattened.sol\":14040:14100  _approve(owner, spender, currentAllowance - subtractedValue) */\n      tag_173\n        /* \"contracts/coins/Coin.sol_flattened.sol\":14049:14054  owner */\n      dup3\n        /* \"contracts/coins/Coin.sol_flattened.sol\":14056:14063  spender */\n      dup7\n        /* \"contracts/coins/Coin.sol_flattened.sol\":14084:14099  subtractedValue */\n      dup7\n        /* \"contracts/coins/Coin.sol_flattened.sol\":14065:14081  currentAllowance */\n      dup5\n        /* \"contracts/coins/Coin.sol_flattened.sol\":14065:14099  currentAllowance - subtractedValue */\n      sub\n        /* \"contracts/coins/Coin.sol_flattened.sol\":14040:14048  _approve */\n      tag_130\n        /* \"contracts/coins/Coin.sol_flattened.sol\":14040:14100  _approve(owner, spender, currentAllowance - subtractedValue) */\n      jump\t// in\n    tag_173:\n        /* \"contracts/coins/Coin.sol_flattened.sol\":14128:14132  true */\n      0x01\n        /* \"contracts/coins/Coin.sol_flattened.sol\":14121:14132  return true */\n      swap3\n      pop\n      pop\n      pop\n        /* \"contracts/coins/Coin.sol_flattened.sol\":13712:14139  function decreaseAllowance(address spender, uint256 subtractedValue) public virtual returns (bool) {... */\n      swap3\n      swap2\n      pop\n      pop\n      jump\t// out\n        /* \"contracts/coins/Coin.sol_flattened.sol\":10847:11036  function transfer(address to, uint256 amount) public virtual override returns (bool) {... */\n    tag_84:\n        /* \"contracts/coins/Coin.sol_flattened.sol\":10926:10930  bool */\n      0x00\n        /* \"contracts/coins/Coin.sol_flattened.sol\":10942:10955  address owner */\n      dup1\n        /* \"contracts/coins/Coin.sol_flattened.sol\":10958:10970  _msgSender() */\n      tag_175\n        /* \"contracts/coins/Coin.sol_flattened.sol\":10958:10968  _msgSender */\n      tag_128\n        /* \"contracts/coins/Coin.sol_flattened.sol\":10958:10970  _msgSender() */\n      jump\t// in\n    tag_175:\n        /* \"contracts/coins/Coin.sol_flattened.sol\":10942:10970  address owner = _msgSender() */\n      swap1\n      pop\n        /* \"contracts/coins/Coin.sol_flattened.sol\":10980:11008  _transfer(owner, to, amount) */\n      tag_176\n        /* \"contracts/coins/Coin.sol_flattened.sol\":10990:10995  owner */\n      dup2\n        /* \"contracts/coins/Coin.sol_flattened.sol\":10997:10999  to */\n      dup6\n        /* \"contracts/coins/Coin.sol_flattened.sol\":11001:11007  amount */\n      dup6\n        /* \"contracts/coins/Coin.sol_flattened.sol\":10980:10989  _transfer */\n      tag_140\n        /* \"contracts/coins/Coin.sol_flattened.sol\":10980:11008  _transfer(owner, to, amount) */\n      jump\t// in\n    tag_176:\n        /* \"contracts/coins/Coin.sol_flattened.sol\":11025:11029  true */\n      0x01\n        /* \"contracts/coins/Coin.sol_flattened.sol\":11018:11029  return true */\n      swap2\n      pop\n      pop\n        /* \"contracts/coins/Coin.sol_flattened.sol\":10847:11036  function transfer(address to, uint256 amount) public virtual override returns (bool) {... */\n      swap3\n      swap2\n      pop\n      pop\n      jump\t// out\n        /* \"contracts/coins/Coin.sol_flattened.sol\":21040:21128  function addPayer(address payer) external onlyOwner {... */\n    tag_88:\n        /* \"contracts/coins/Coin.sol_flattened.sol\":2163:2176  _checkOwner() */\n      tag_178\n        /* \"contracts/coins/Coin.sol_flattened.sol\":2163:2174  _checkOwner */\n      tag_106\n        /* \"contracts/coins/Coin.sol_flattened.sol\":2163:2176  _checkOwner() */\n      jump\t// in\n    tag_178:\n        /* \"contracts/coins/Coin.sol_flattened.sol\":21102:21109  _payers */\n      0x06\n        /* \"contracts/coins/Coin.sol_flattened.sol\":21115:21120  payer */\n      dup2\n        /* \"contracts/coins/Coin.sol_flattened.sol\":21102:21121  _payers.push(payer) */\n      swap1\n      dup1\n      0x01\n      dup2\n      sload\n      add\n      dup1\n      dup3\n      sstore\n      dup1\n      swap2\n      pop\n      pop\n      0x01\n      swap1\n      sub\n      swap1\n      0x00\n      mstore\n      keccak256(0x00, 0x20)\n      add\n      0x00\n      swap1\n      swap2\n      swap1\n      swap2\n      swap1\n      swap2\n      0x0100\n      exp\n      dup2\n      sload\n      dup2\n      0xffffffffffffffffffffffffffffffffffffffff\n      mul\n      not\n      and\n      swap1\n      dup4\n      0xffffffffffffffffffffffffffffffffffffffff\n      and\n      mul\n      or\n      swap1\n      sstore\n      pop\n        /* \"contracts/coins/Coin.sol_flattened.sol\":21040:21128  function addPayer(address payer) external onlyOwner {... */\n      pop\n      jump\t// out\n        /* \"contracts/coins/Coin.sol_flattened.sol\":20902:20989  function pay(uint256 amount) external onlyPayer {... */\n    tag_91:\n        /* \"contracts/coins/Coin.sol_flattened.sol\":20370:20380  bool found */\n      0x00\n        /* \"contracts/coins/Coin.sol_flattened.sol\":20404:20413  uint256 i */\n      dup1\n        /* \"contracts/coins/Coin.sol_flattened.sol\":20399:20554  for (uint256 i = 0; i < _payers.length; i++)... */\n    tag_182:\n        /* \"contracts/coins/Coin.sol_flattened.sol\":20423:20430  _payers */\n      0x06\n        /* \"contracts/coins/Coin.sol_flattened.sol\":20423:20437  _payers.length */\n      dup1\n      sload\n      swap1\n      pop\n        /* \"contracts/coins/Coin.sol_flattened.sol\":20419:20420  i */\n      dup2\n        /* \"contracts/coins/Coin.sol_flattened.sol\":20419:20437  i < _payers.length */\n      lt\n        /* \"contracts/coins/Coin.sol_flattened.sol\":20399:20554  for (uint256 i = 0; i < _payers.length; i++)... */\n      iszero\n      tag_183\n      jumpi\n        /* \"contracts/coins/Coin.sol_flattened.sol\":20474:20484  msg.sender */\n      caller\n        /* \"contracts/coins/Coin.sol_flattened.sol\":20460:20484  _payers[i] == msg.sender */\n      0xffffffffffffffffffffffffffffffffffffffff\n      and\n        /* \"contracts/coins/Coin.sol_flattened.sol\":20460:20467  _payers */\n      0x06\n        /* \"contracts/coins/Coin.sol_flattened.sol\":20468:20469  i */\n      dup3\n        /* \"contracts/coins/Coin.sol_flattened.sol\":20460:20470  _payers[i] */\n      dup2\n      sload\n      dup2\n      lt\n      tag_185\n      jumpi\n      tag_186\n      tag_113\n      jump\t// in\n    tag_186:\n    tag_185:\n      swap1\n      0x00\n      mstore\n      keccak256(0x00, 0x20)\n      add\n      0x00\n      swap1\n      sload\n      swap1\n      0x0100\n      exp\n      swap1\n      div\n      0xffffffffffffffffffffffffffffffffffffffff\n      and\n        /* \"contracts/coins/Coin.sol_flattened.sol\":20460:20484  _payers[i] == msg.sender */\n      0xffffffffffffffffffffffffffffffffffffffff\n      and\n      sub\n        /* \"contracts/coins/Coin.sol_flattened.sol\":20456:20554  if (_payers[i] == msg.sender) {... */\n      tag_188\n      jumpi\n        /* \"contracts/coins/Coin.sol_flattened.sol\":20512:20516  true */\n      0x01\n        /* \"contracts/coins/Coin.sol_flattened.sol\":20504:20516  found = true */\n      swap2\n      pop\n        /* \"contracts/coins/Coin.sol_flattened.sol\":20534:20539  break */\n      jump(tag_183)\n        /* \"contracts/coins/Coin.sol_flattened.sol\":20456:20554  if (_payers[i] == msg.sender) {... */\n    tag_188:\n        /* \"contracts/coins/Coin.sol_flattened.sol\":20439:20442  i++ */\n      dup1\n      dup1\n      0x01\n      add\n      swap2\n      pop\n      pop\n        /* \"contracts/coins/Coin.sol_flattened.sol\":20399:20554  for (uint256 i = 0; i < _payers.length; i++)... */\n      jump(tag_182)\n    tag_183:\n      pop\n        /* \"contracts/coins/Coin.sol_flattened.sol\":20572:20577  found */\n      dup1\n        /* \"contracts/coins/Coin.sol_flattened.sol\":20564:20609  require(found, \"msg.sender is not the payer\") */\n      tag_189\n      jumpi\n      mload(0x40)\n      0x08c379a000000000000000000000000000000000000000000000000000000000\n      dup2\n      mstore\n      0x04\n      add\n      tag_190\n      swap1\n      tag_191\n      jump\t// in\n    tag_190:\n      mload(0x40)\n      dup1\n      swap2\n      sub\n      swap1\n      revert\n    tag_189:\n        /* \"contracts/coins/Coin.sol_flattened.sol\":20960:20982  _burn(owner(), amount) */\n      tag_193\n        /* \"contracts/coins/Coin.sol_flattened.sol\":20966:20973  owner() */\n      tag_194\n        /* \"contracts/coins/Coin.sol_flattened.sol\":20966:20971  owner */\n      tag_68\n        /* \"contracts/coins/Coin.sol_flattened.sol\":20966:20973  owner() */\n      jump\t// in\n    tag_194:\n        /* \"contracts/coins/Coin.sol_flattened.sol\":20975:20981  amount */\n      dup4\n        /* \"contracts/coins/Coin.sol_flattened.sol\":20960:20965  _burn */\n      tag_195\n        /* \"contracts/coins/Coin.sol_flattened.sol\":20960:20982  _burn(owner(), amount) */\n      jump\t// in\n    tag_193:\n        /* \"contracts/coins/Coin.sol_flattened.sol\":20360:20627  {... */\n      pop\n        /* \"contracts/coins/Coin.sol_flattened.sol\":20902:20989  function pay(uint256 amount) external onlyPayer {... */\n      pop\n      jump\t// out\n        /* \"contracts/coins/Coin.sol_flattened.sol\":21581:21791  function isPayerExist(address payer) external view returns (bool) {... */\n    tag_94:\n        /* \"contracts/coins/Coin.sol_flattened.sol\":21641:21645  bool */\n      0x00\n        /* \"contracts/coins/Coin.sol_flattened.sol\":21662:21671  uint256 i */\n      dup1\n        /* \"contracts/coins/Coin.sol_flattened.sol\":21674:21675  0 */\n      0x00\n        /* \"contracts/coins/Coin.sol_flattened.sol\":21662:21675  uint256 i = 0 */\n      swap1\n      pop\n        /* \"contracts/coins/Coin.sol_flattened.sol\":21657:21763  for (uint256 i = 0; i < _payers.length; i++) {... */\n    tag_197:\n        /* \"contracts/coins/Coin.sol_flattened.sol\":21681:21688  _payers */\n      0x06\n        /* \"contracts/coins/Coin.sol_flattened.sol\":21681:21695  _payers.length */\n      dup1\n      sload\n      swap1\n      pop\n        /* \"contracts/coins/Coin.sol_flattened.sol\":21677:21678  i */\n      dup2\n        /* \"contracts/coins/Coin.sol_flattened.sol\":21677:21695  i < _payers.length */\n      lt\n        /* \"contracts/coins/Coin.sol_flattened.sol\":21657:21763  for (uint256 i = 0; i < _payers.length; i++) {... */\n      iszero\n      tag_198\n      jumpi\n        /* \"contracts/coins/Coin.sol_flattened.sol\":21729:21736  _payers */\n      0x06\n        /* \"contracts/coins/Coin.sol_flattened.sol\":21737:21738  i */\n      dup2\n        /* \"contracts/coins/Coin.sol_flattened.sol\":21729:21739  _payers[i] */\n      dup2\n      sload\n      dup2\n      lt\n      tag_200\n      jumpi\n      tag_201\n      tag_113\n      jump\t// in\n    tag_201:\n    tag_200:\n      swap1\n      0x00\n      mstore\n      keccak256(0x00, 0x20)\n      add\n      0x00\n      swap1\n      sload\n      swap1\n      0x0100\n      exp\n      swap1\n      div\n      0xffffffffffffffffffffffffffffffffffffffff\n      and\n        /* \"contracts/coins/Coin.sol_flattened.sol\":21720:21739  payer == _payers[i] */\n      0xffffffffffffffffffffffffffffffffffffffff\n      and\n        /* \"contracts/coins/Coin.sol_flattened.sol\":21720:21725  payer */\n      dup4\n        /* \"contracts/coins/Coin.sol_flattened.sol\":21720:21739  payer == _payers[i] */\n      0xffffffffffffffffffffffffffffffffffffffff\n      and\n      sub\n        /* \"contracts/coins/Coin.sol_flattened.sol\":21716:21752  if (payer == _payers[i]) return true */\n      tag_203\n      jumpi\n        /* \"contracts/coins/Coin.sol_flattened.sol\":21748:21752  true */\n      0x01\n        /* \"contracts/coins/Coin.sol_flattened.sol\":21741:21752  return true */\n      swap2\n      pop\n      pop\n      jump(tag_196)\n        /* \"contracts/coins/Coin.sol_flattened.sol\":21716:21752  if (payer == _payers[i]) return true */\n    tag_203:\n        /* \"contracts/coins/Coin.sol_flattened.sol\":21697:21700  i++ */\n      dup1\n      dup1\n      0x01\n      add\n      swap2\n      pop\n      pop\n        /* \"contracts/coins/Coin.sol_flattened.sol\":21657:21763  for (uint256 i = 0; i < _payers.length; i++) {... */\n      jump(tag_197)\n    tag_198:\n      pop\n        /* \"contracts/coins/Coin.sol_flattened.sol\":21779:21784  false */\n      0x00\n        /* \"contracts/coins/Coin.sol_flattened.sol\":21772:21784  return false */\n      swap1\n      pop\n        /* \"contracts/coins/Coin.sol_flattened.sol\":21581:21791  function isPayerExist(address payer) external view returns (bool) {... */\n    tag_196:\n      swap2\n      swap1\n      pop\n      jump\t// out\n        /* \"contracts/coins/Coin.sol_flattened.sol\":11094:11243  function allowance(address owner, address spender) public view virtual override returns (uint256) {... */\n    tag_99:\n        /* \"contracts/coins/Coin.sol_flattened.sol\":11183:11190  uint256 */\n      0x00\n        /* \"contracts/coins/Coin.sol_flattened.sol\":11209:11220  _allowances */\n      0x01\n        /* \"contracts/coins/Coin.sol_flattened.sol\":11209:11227  _allowances[owner] */\n      0x00\n        /* \"contracts/coins/Coin.sol_flattened.sol\":11221:11226  owner */\n      dup5\n        /* \"contracts/coins/Coin.sol_flattened.sol\":11209:11227  _allowances[owner] */\n      0xffffffffffffffffffffffffffffffffffffffff\n      and\n      0xffffffffffffffffffffffffffffffffffffffff\n      and\n      dup2\n      mstore\n      0x20\n      add\n      swap1\n      dup2\n      mstore\n      0x20\n      add\n      0x00\n      keccak256\n        /* \"contracts/coins/Coin.sol_flattened.sol\":11209:11236  _allowances[owner][spender] */\n      0x00\n        /* \"contracts/coins/Coin.sol_flattened.sol\":11228:11235  spender */\n      dup4\n        /* \"contracts/coins/Coin.sol_flattened.sol\":11209:11236  _allowances[owner][spender] */\n      0xffffffffffffffffffffffffffffffffffffffff\n      and\n      0xffffffffffffffffffffffffffffffffffffffff\n      and\n      dup2\n      mstore\n      0x20\n      add\n      swap1\n      dup2\n      mstore\n      0x20\n      add\n      0x00\n      keccak256\n      sload\n        /* \"contracts/coins/Coin.sol_flattened.sol\":11202:11236  return _allowances[owner][spender] */\n      swap1\n      pop\n        /* \"contracts/coins/Coin.sol_flattened.sol\":11094:11243  function allowance(address owner, address spender) public view virtual override returns (uint256) {... */\n      swap3\n      swap2\n      pop\n      pop\n      jump\t// out\n        /* \"contracts/coins/Coin.sol_flattened.sol\":3150:3348  function transferOwnership(address newOwner) public virtual onlyOwner {... */\n    tag_103:\n        /* \"contracts/coins/Coin.sol_flattened.sol\":2163:2176  _checkOwner() */\n      tag_206\n        /* \"contracts/coins/Coin.sol_flattened.sol\":2163:2174  _checkOwner */\n      tag_106\n        /* \"contracts/coins/Coin.sol_flattened.sol\":2163:2176  _checkOwner() */\n      jump\t// in\n    tag_206:\n        /* \"contracts/coins/Coin.sol_flattened.sol\":3258:3259  0 */\n      0x00\n        /* \"contracts/coins/Coin.sol_flattened.sol\":3238:3260  newOwner != address(0) */\n      0xffffffffffffffffffffffffffffffffffffffff\n      and\n        /* \"contracts/coins/Coin.sol_flattened.sol\":3238:3246  newOwner */\n      dup2\n        /* \"contracts/coins/Coin.sol_flattened.sol\":3238:3260  newOwner != address(0) */\n      0xffffffffffffffffffffffffffffffffffffffff\n      and\n      sub\n        /* \"contracts/coins/Coin.sol_flattened.sol\":3230:3303  require(newOwner != address(0), \"Ownable: new owner is the zero address\") */\n      tag_208\n      jumpi\n      mload(0x40)\n      0x08c379a000000000000000000000000000000000000000000000000000000000\n      dup2\n      mstore\n      0x04\n      add\n      tag_209\n      swap1\n      tag_210\n      jump\t// in\n    tag_209:\n      mload(0x40)\n      dup1\n      swap2\n      sub\n      swap1\n      revert\n    tag_208:\n        /* \"contracts/coins/Coin.sol_flattened.sol\":3313:3341  _transferOwnership(newOwner) */\n      tag_211\n        /* \"contracts/coins/Coin.sol_flattened.sol\":3332:3340  newOwner */\n      dup2\n        /* \"contracts/coins/Coin.sol_flattened.sol\":3313:3331  _transferOwnership */\n      tag_153\n        /* \"contracts/coins/Coin.sol_flattened.sol\":3313:3341  _transferOwnership(newOwner) */\n      jump\t// in\n    tag_211:\n        /* \"contracts/coins/Coin.sol_flattened.sol\":3150:3348  function transferOwnership(address newOwner) public virtual onlyOwner {... */\n      pop\n      jump\t// out\n        /* \"contracts/coins/Coin.sol_flattened.sol\":2428:2558  function _checkOwner() internal view virtual {... */\n    tag_106:\n        /* \"contracts/coins/Coin.sol_flattened.sol\":2502:2514  _msgSender() */\n      tag_213\n        /* \"contracts/coins/Coin.sol_flattened.sol\":2502:2512  _msgSender */\n      tag_128\n        /* \"contracts/coins/Coin.sol_flattened.sol\":2502:2514  _msgSender() */\n      jump\t// in\n    tag_213:\n        /* \"contracts/coins/Coin.sol_flattened.sol\":2491:2514  owner() == _msgSender() */\n      0xffffffffffffffffffffffffffffffffffffffff\n      and\n        /* \"contracts/coins/Coin.sol_flattened.sol\":2491:2498  owner() */\n      tag_214\n        /* \"contracts/coins/Coin.sol_flattened.sol\":2491:2496  owner */\n      tag_68\n        /* \"contracts/coins/Coin.sol_flattened.sol\":2491:2498  owner() */\n      jump\t// in\n    tag_214:\n        /* \"contracts/coins/Coin.sol_flattened.sol\":2491:2514  owner() == _msgSender() */\n      0xffffffffffffffffffffffffffffffffffffffff\n      and\n      eq\n        /* \"contracts/coins/Coin.sol_flattened.sol\":2483:2551  require(owner() == _msgSender(), \"Ownable: caller is not the owner\") */\n      tag_215\n      jumpi\n      mload(0x40)\n      0x08c379a000000000000000000000000000000000000000000000000000000000\n      dup2\n      mstore\n      0x04\n      add\n      tag_216\n      swap1\n      tag_217\n      jump\t// in\n    tag_216:\n      mload(0x40)\n      dup1\n      swap2\n      sub\n      swap1\n      revert\n    tag_215:\n        /* \"contracts/coins/Coin.sol_flattened.sol\":2428:2558  function _checkOwner() internal view virtual {... */\n      jump\t// out\n        /* \"contracts/coins/Coin.sol_flattened.sol\":873:969  function _msgSender() internal view virtual returns (address) {... */\n    tag_128:\n        /* \"contracts/coins/Coin.sol_flattened.sol\":926:933  address */\n      0x00\n        /* \"contracts/coins/Coin.sol_flattened.sol\":952:962  msg.sender */\n      caller\n        /* \"contracts/coins/Coin.sol_flattened.sol\":945:962  return msg.sender */\n      swap1\n      pop\n        /* \"contracts/coins/Coin.sol_flattened.sol\":873:969  function _msgSender() internal view virtual returns (address) {... */\n      swap1\n      jump\t// out\n        /* \"contracts/coins/Coin.sol_flattened.sol\":17624:17994  function _approve(... */\n    tag_130:\n        /* \"contracts/coins/Coin.sol_flattened.sol\":17772:17773  0 */\n      0x00\n        /* \"contracts/coins/Coin.sol_flattened.sol\":17755:17774  owner != address(0) */\n      0xffffffffffffffffffffffffffffffffffffffff\n      and\n        /* \"contracts/coins/Coin.sol_flattened.sol\":17755:17760  owner */\n      dup4\n        /* \"contracts/coins/Coin.sol_flattened.sol\":17755:17774  owner != address(0) */\n      0xffffffffffffffffffffffffffffffffffffffff\n      and\n      sub\n        /* \"contracts/coins/Coin.sol_flattened.sol\":17747:17815  require(owner != address(0), \"ERC20: approve from the zero address\") */\n      tag_220\n      jumpi\n      mload(0x40)\n      0x08c379a000000000000000000000000000000000000000000000000000000000\n      dup2\n      mstore\n      0x04\n      add\n      tag_221\n      swap1\n      tag_222\n      jump\t// in\n    tag_221:\n      mload(0x40)\n      dup1\n      swap2\n      sub\n      swap1\n      revert\n    tag_220:\n        /* \"contracts/coins/Coin.sol_flattened.sol\":17852:17853  0 */\n      0x00\n        /* \"contracts/coins/Coin.sol_flattened.sol\":17833:17854  spender != address(0) */\n      0xffffffffffffffffffffffffffffffffffffffff\n      and\n        /* \"contracts/coins/Coin.sol_flattened.sol\":17833:17840  spender */\n      dup3\n        /* \"contracts/coins/Coin.sol_flattened.sol\":17833:17854  spender != address(0) */\n      0xffffffffffffffffffffffffffffffffffffffff\n      and\n      sub\n        /* \"contracts/coins/Coin.sol_flattened.sol\":17825:17893  require(spender != address(0), \"ERC20: approve to the zero address\") */\n      tag_223\n      jumpi\n      mload(0x40)\n      0x08c379a000000000000000000000000000000000000000000000000000000000\n      dup2\n      mstore\n      0x04\n      add\n      tag_224\n      swap1\n      tag_225\n      jump\t// in\n    tag_224:\n      mload(0x40)\n      dup1\n      swap2\n      sub\n      swap1\n      revert\n    tag_223:\n        /* \"contracts/coins/Coin.sol_flattened.sol\":17934:17940  amount */\n      dup1\n        /* \"contracts/coins/Coin.sol_flattened.sol\":17904:17915  _allowances */\n      0x01\n        /* \"contracts/coins/Coin.sol_flattened.sol\":17904:17922  _allowances[owner] */\n      0x00\n        /* \"contracts/coins/Coin.sol_flattened.sol\":17916:17921  owner */\n      dup6\n        /* \"contracts/coins/Coin.sol_flattened.sol\":17904:17922  _allowances[owner] */\n      0xffffffffffffffffffffffffffffffffffffffff\n      and\n      0xffffffffffffffffffffffffffffffffffffffff\n      and\n      dup2\n      mstore\n      0x20\n      add\n      swap1\n      dup2\n      mstore\n      0x20\n      add\n      0x00\n      keccak256\n        /* \"contracts/coins/Coin.sol_flattened.sol\":17904:17931  _allowances[owner][spender] */\n      0x00\n        /* \"contracts/coins/Coin.sol_flattened.sol\":17923:17930  spender */\n      dup5\n        /* \"contracts/coins/Coin.sol_flattened.sol\":17904:17931  _allowances[owner][spender] */\n      0xffffffffffffffffffffffffffffffffffffffff\n      and\n      0xffffffffffffffffffffffffffffffffffffffff\n      and\n      dup2\n      mstore\n      0x20\n      add\n      swap1\n      dup2\n      mstore\n      0x20\n      add\n      0x00\n      keccak256\n        /* \"contracts/coins/Coin.sol_flattened.sol\":17904:17940  _allowances[owner][spender] = amount */\n      dup2\n      swap1\n      sstore\n      pop\n        /* \"contracts/coins/Coin.sol_flattened.sol\":17971:17978  spender */\n      dup2\n        /* \"contracts/coins/Coin.sol_flattened.sol\":17955:17987  Approval(owner, spender, amount) */\n      0xffffffffffffffffffffffffffffffffffffffff\n      and\n        /* \"contracts/coins/Coin.sol_flattened.sol\":17964:17969  owner */\n      dup4\n        /* \"contracts/coins/Coin.sol_flattened.sol\":17955:17987  Approval(owner, spender, amount) */\n      0xffffffffffffffffffffffffffffffffffffffff\n      and\n      0x8c5be1e5ebec7d5bd14f71427d1e84f3dd0314c0f7b2291e5b200ac8c7c3b925\n        /* \"contracts/coins/Coin.sol_flattened.sol\":17980:17986  amount */\n      dup4\n        /* \"contracts/coins/Coin.sol_flattened.sol\":17955:17987  Approval(owner, spender, amount) */\n      mload(0x40)\n      tag_226\n      swap2\n      swap1\n      tag_47\n      jump\t// in\n    tag_226:\n      mload(0x40)\n      dup1\n      swap2\n      sub\n      swap1\n      log3\n        /* \"contracts/coins/Coin.sol_flattened.sol\":17624:17994  function _approve(... */\n      pop\n      pop\n      pop\n      jump\t// out\n        /* \"contracts/coins/Coin.sol_flattened.sol\":18275:18716  function _spendAllowance(... */\n    tag_138:\n        /* \"contracts/coins/Coin.sol_flattened.sol\":18405:18429  uint256 currentAllowance */\n      0x00\n        /* \"contracts/coins/Coin.sol_flattened.sol\":18432:18457  allowance(owner, spender) */\n      tag_228\n        /* \"contracts/coins/Coin.sol_flattened.sol\":18442:18447  owner */\n      dup5\n        /* \"contracts/coins/Coin.sol_flattened.sol\":18449:18456  spender */\n      dup5\n        /* \"contracts/coins/Coin.sol_flattened.sol\":18432:18441  allowance */\n      tag_99\n        /* \"contracts/coins/Coin.sol_flattened.sol\":18432:18457  allowance(owner, spender) */\n      jump\t// in\n    tag_228:\n        /* \"contracts/coins/Coin.sol_flattened.sol\":18405:18457  uint256 currentAllowance = allowance(owner, spender) */\n      swap1\n      pop\n        /* \"contracts/coins/Coin.sol_flattened.sol\":18491:18508  type(uint256).max */\n      0xffffffffffffffffffffffffffffffffffffffffffffffffffffffffffffffff\n        /* \"contracts/coins/Coin.sol_flattened.sol\":18471:18487  currentAllowance */\n      dup2\n        /* \"contracts/coins/Coin.sol_flattened.sol\":18471:18508  currentAllowance != type(uint256).max */\n      eq\n        /* \"contracts/coins/Coin.sol_flattened.sol\":18467:18710  if (currentAllowance != type(uint256).max) {... */\n      tag_229\n      jumpi\n        /* \"contracts/coins/Coin.sol_flattened.sol\":18552:18558  amount */\n      dup2\n        /* \"contracts/coins/Coin.sol_flattened.sol\":18532:18548  currentAllowance */\n      dup2\n        /* \"contracts/coins/Coin.sol_flattened.sol\":18532:18558  currentAllowance >= amount */\n      lt\n      iszero\n        /* \"contracts/coins/Coin.sol_flattened.sol\":18524:18592  require(currentAllowance >= amount, \"ERC20: insufficient allowance\") */\n      tag_230\n      jumpi\n      mload(0x40)\n      0x08c379a000000000000000000000000000000000000000000000000000000000\n      dup2\n      mstore\n      0x04\n      add\n      tag_231\n      swap1\n      tag_232\n      jump\t// in\n    tag_231:\n      mload(0x40)\n      dup1\n      swap2\n      sub\n      swap1\n      revert\n    tag_230:\n        /* \"contracts/coins/Coin.sol_flattened.sol\":18634:18685  _approve(owner, spender, currentAllowance - amount) */\n      tag_233\n        /* \"contracts/coins/Coin.sol_flattened.sol\":18643:18648  owner */\n      dup5\n        /* \"contracts/coins/Coin.sol_flattened.sol\":18650:18657  spender */\n      dup5\n        /* \"contracts/coins/Coin.sol_flattened.sol\":18678:18684  amount */\n      dup5\n        /* \"contracts/coins/Coin.sol_flattened.sol\":18659:18675  currentAllowance */\n      dup5\n        /* \"contracts/coins/Coin.sol_flattened.sol\":18659:18684  currentAllowance - amount */\n      sub\n        /* \"contracts/coins/Coin.sol_flattened.sol\":18634:18642  _approve */\n      tag_130\n        /* \"contracts/coins/Coin.sol_flattened.sol\":18634:18685  _approve(owner, spender, currentAllowance - amount) */\n      jump\t// in\n    tag_233:\n        /* \"contracts/coins/Coin.sol_flattened.sol\":18467:18710  if (currentAllowance != type(uint256).max) {... */\n    tag_229:\n        /* \"contracts/coins/Coin.sol_flattened.sol\":18395:18716  {... */\n      pop\n        /* \"contracts/coins/Coin.sol_flattened.sol\":18275:18716  function _spendAllowance(... */\n      pop\n      pop\n      pop\n      jump\t// out\n        /* \"contracts/coins/Coin.sol_flattened.sol\":14593:15411  function _transfer(... */\n    tag_140:\n        /* \"contracts/coins/Coin.sol_flattened.sol\":14735:14736  0 */\n      0x00\n        /* \"contracts/coins/Coin.sol_flattened.sol\":14719:14737  from != address(0) */\n      0xffffffffffffffffffffffffffffffffffffffff\n      and\n        /* \"contracts/coins/Coin.sol_flattened.sol\":14719:14723  from */\n      dup4\n        /* \"contracts/coins/Coin.sol_flattened.sol\":14719:14737  from != address(0) */\n      0xffffffffffffffffffffffffffffffffffffffff\n      and\n      sub\n        /* \"contracts/coins/Coin.sol_flattened.sol\":14711:14779  require(from != address(0), \"ERC20: transfer from the zero address\") */\n      tag_235\n      jumpi\n      mload(0x40)\n      0x08c379a000000000000000000000000000000000000000000000000000000000\n      dup2\n      mstore\n      0x04\n      add\n      tag_236\n      swap1\n      tag_237\n      jump\t// in\n    tag_236:\n      mload(0x40)\n      dup1\n      swap2\n      sub\n      swap1\n      revert\n    tag_235:\n        /* \"contracts/coins/Coin.sol_flattened.sol\":14811:14812  0 */\n      0x00\n        /* \"contracts/coins/Coin.sol_flattened.sol\":14797:14813  to != address(0) */\n      0xffffffffffffffffffffffffffffffffffffffff\n      and\n        /* \"contracts/coins/Coin.sol_flattened.sol\":14797:14799  to */\n      dup3\n        /* \"contracts/coins/Coin.sol_flattened.sol\":14797:14813  to != address(0) */\n      0xffffffffffffffffffffffffffffffffffffffff\n      and\n      sub\n        /* \"contracts/coins/Coin.sol_flattened.sol\":14789:14853  require(to != address(0), \"ERC20: transfer to the zero address\") */\n      tag_238\n      jumpi\n      mload(0x40)\n      0x08c379a000000000000000000000000000000000000000000000000000000000\n      dup2\n      mstore\n      0x04\n      add\n      tag_239\n      swap1\n      tag_240\n      jump\t// in\n    tag_239:\n      mload(0x40)\n      dup1\n      swap2\n      sub\n      swap1\n      revert\n    tag_238:\n        /* \"contracts/coins/Coin.sol_flattened.sol\":14864:14902  _beforeTokenTransfer(from, to, amount) */\n      tag_241\n        /* \"contracts/coins/Coin.sol_flattened.sol\":14885:14889  from */\n      dup4\n        /* \"contracts/coins/Coin.sol_flattened.sol\":14891:14893  to */\n      dup4\n        /* \"contracts/coins/Coin.sol_flattened.sol\":14895:14901  amount */\n      dup4\n        /* \"contracts/coins/Coin.sol_flattened.sol\":14864:14884  _beforeTokenTransfer */\n      tag_242\n        /* \"contracts/coins/Coin.sol_flattened.sol\":14864:14902  _beforeTokenTransfer(from, to, amount) */\n      jump\t// in\n    tag_241:\n        /* \"contracts/coins/Coin.sol_flattened.sol\":14913:14932  uint256 fromBalance */\n      0x00\n        /* \"contracts/coins/Coin.sol_flattened.sol\":14935:14944  _balances */\n      dup1\n        /* \"contracts/coins/Coin.sol_flattened.sol\":14935:14950  _balances[from] */\n      0x00\n        /* \"contracts/coins/Coin.sol_flattened.sol\":14945:14949  from */\n      dup6\n        /* \"contracts/coins/Coin.sol_flattened.sol\":14935:14950  _balances[from] */\n      0xffffffffffffffffffffffffffffffffffffffff\n      and\n      0xffffffffffffffffffffffffffffffffffffffff\n      and\n      dup2\n      mstore\n      0x20\n      add\n      swap1\n      dup2\n      mstore\n      0x20\n      add\n      0x00\n      keccak256\n      sload\n        /* \"contracts/coins/Coin.sol_flattened.sol\":14913:14950  uint256 fromBalance = _balances[from] */\n      swap1\n      pop\n        /* \"contracts/coins/Coin.sol_flattened.sol\":14983:14989  amount */\n      dup2\n        /* \"contracts/coins/Coin.sol_flattened.sol\":14968:14979  fromBalance */\n      dup2\n        /* \"contracts/coins/Coin.sol_flattened.sol\":14968:14989  fromBalance >= amount */\n      lt\n      iszero\n        /* \"contracts/coins/Coin.sol_flattened.sol\":14960:15032  require(fromBalance >= amount, \"ERC20: transfer amount exceeds balance\") */\n      tag_243\n      jumpi\n      mload(0x40)\n      0x08c379a000000000000000000000000000000000000000000000000000000000\n      dup2\n      mstore\n      0x04\n      add\n      tag_244\n      swap1\n      tag_245\n      jump\t// in\n    tag_244:\n      mload(0x40)\n      dup1\n      swap2\n      sub\n      swap1\n      revert\n    tag_243:\n        /* \"contracts/coins/Coin.sol_flattened.sol\":15098:15104  amount */\n      dup2\n        /* \"contracts/coins/Coin.sol_flattened.sol\":15084:15095  fromBalance */\n      dup2\n        /* \"contracts/coins/Coin.sol_flattened.sol\":15084:15104  fromBalance - amount */\n      sub\n        /* \"contracts/coins/Coin.sol_flattened.sol\":15066:15075  _balances */\n      0x00\n        /* \"contracts/coins/Coin.sol_flattened.sol\":15066:15081  _balances[from] */\n      dup1\n        /* \"contracts/coins/Coin.sol_flattened.sol\":15076:15080  from */\n      dup7\n        /* \"contracts/coins/Coin.sol_flattened.sol\":15066:15081  _balances[from] */\n      0xffffffffffffffffffffffffffffffffffffffff\n      and\n      0xffffffffffffffffffffffffffffffffffffffff\n      and\n      dup2\n      mstore\n      0x20\n      add\n      swap1\n      dup2\n      mstore\n      0x20\n      add\n      0x00\n      keccak256\n        /* \"contracts/coins/Coin.sol_flattened.sol\":15066:15104  _balances[from] = fromBalance - amount */\n      dup2\n      swap1\n      sstore\n      pop\n        /* \"contracts/coins/Coin.sol_flattened.sol\":15298:15304  amount */\n      dup2\n        /* \"contracts/coins/Coin.sol_flattened.sol\":15281:15290  _balances */\n      0x00\n        /* \"contracts/coins/Coin.sol_flattened.sol\":15281:15294  _balances[to] */\n      dup1\n        /* \"contracts/coins/Coin.sol_flattened.sol\":15291:15293  to */\n      dup6\n        /* \"contracts/coins/Coin.sol_flattened.sol\":15281:15294  _balances[to] */\n      0xffffffffffffffffffffffffffffffffffffffff\n      and\n      0xffffffffffffffffffffffffffffffffffffffff\n      and\n      dup2\n      mstore\n      0x20\n      add\n      swap1\n      dup2\n      mstore\n      0x20\n      add\n      0x00\n      keccak256\n      0x00\n        /* \"contracts/coins/Coin.sol_flattened.sol\":15281:15304  _balances[to] += amount */\n      dup3\n      dup3\n      sload\n      add\n      swap3\n      pop\n      pop\n      dup2\n      swap1\n      sstore\n      pop\n        /* \"contracts/coins/Coin.sol_flattened.sol\":15345:15347  to */\n      dup3\n        /* \"contracts/coins/Coin.sol_flattened.sol\":15330:15356  Transfer(from, to, amount) */\n      0xffffffffffffffffffffffffffffffffffffffff\n      and\n        /* \"contracts/coins/Coin.sol_flattened.sol\":15339:15343  from */\n      dup5\n        /* \"contracts/coins/Coin.sol_flattened.sol\":15330:15356  Transfer(from, to, amount) */\n      0xffffffffffffffffffffffffffffffffffffffff\n      and\n      0xddf252ad1be2c89b69c2b068fc378daa952ba7f163c4a11628f55a4df523b3ef\n        /* \"contracts/coins/Coin.sol_flattened.sol\":15349:15355  amount */\n      dup5\n        /* \"contracts/coins/Coin.sol_flattened.sol\":15330:15356  Transfer(from, to, amount) */\n      mload(0x40)\n      tag_246\n      swap2\n      swap1\n      tag_47\n      jump\t// in\n    tag_246:\n      mload(0x40)\n      dup1\n      swap2\n      sub\n      swap1\n      log3\n        /* \"contracts/coins/Coin.sol_flattened.sol\":15367:15404  _afterTokenTransfer(from, to, amount) */\n      tag_247\n        /* \"contracts/coins/Coin.sol_flattened.sol\":15387:15391  from */\n      dup5\n        /* \"contracts/coins/Coin.sol_flattened.sol\":15393:15395  to */\n      dup5\n        /* \"contracts/coins/Coin.sol_flattened.sol\":15397:15403  amount */\n      dup5\n        /* \"contracts/coins/Coin.sol_flattened.sol\":15367:15386  _afterTokenTransfer */\n      tag_248\n        /* \"contracts/coins/Coin.sol_flattened.sol\":15367:15404  _afterTokenTransfer(from, to, amount) */\n      jump\t// in\n    tag_247:\n        /* \"contracts/coins/Coin.sol_flattened.sol\":14701:15411  {... */\n      pop\n        /* \"contracts/coins/Coin.sol_flattened.sol\":14593:15411  function _transfer(... */\n      pop\n      pop\n      pop\n      jump\t// out\n        /* \"contracts/coins/Coin.sol_flattened.sol\":3502:3689  function _transferOwnership(address newOwner) internal virtual {... */\n    tag_153:\n        /* \"contracts/coins/Coin.sol_flattened.sol\":3575:3591  address oldOwner */\n      0x00\n        /* \"contracts/coins/Coin.sol_flattened.sol\":3594:3600  _owner */\n      0x05\n      0x00\n      swap1\n      sload\n      swap1\n      0x0100\n      exp\n      swap1\n      div\n      0xffffffffffffffffffffffffffffffffffffffff\n      and\n        /* \"contracts/coins/Coin.sol_flattened.sol\":3575:3600  address oldOwner = _owner */\n      swap1\n      pop\n        /* \"contracts/coins/Coin.sol_flattened.sol\":3619:3627  newOwner */\n      dup2\n        /* \"contracts/coins/Coin.sol_flattened.sol\":3610:3616  _owner */\n      0x05\n      0x00\n        /* \"contracts/coins/Coin.sol_flattened.sol\":3610:3627  _owner = newOwner */\n      0x0100\n      exp\n      dup2\n      sload\n      dup2\n      0xffffffffffffffffffffffffffffffffffffffff\n      mul\n      not\n      and\n      swap1\n      dup4\n      0xffffffffffffffffffffffffffffffffffffffff\n      and\n      mul\n      or\n      swap1\n      sstore\n      pop\n        /* \"contracts/coins/Coin.sol_flattened.sol\":3673:3681  newOwner */\n      dup2\n        /* \"contracts/coins/Coin.sol_flattened.sol\":3642:3682  OwnershipTransferred(oldOwner, newOwner) */\n      0xffffffffffffffffffffffffffffffffffffffff\n      and\n        /* \"contracts/coins/Coin.sol_flattened.sol\":3663:3671  oldOwner */\n      dup2\n        /* \"contracts/coins/Coin.sol_flattened.sol\":3642:3682  OwnershipTransferred(oldOwner, newOwner) */\n      0xffffffffffffffffffffffffffffffffffffffff\n      and\n      0x8be0079c531659141344cd1fd0a4f28419497f9722a3daafe3b4186f6b6457e0\n      mload(0x40)\n      mload(0x40)\n      dup1\n      swap2\n      sub\n      swap1\n      log3\n        /* \"contracts/coins/Coin.sol_flattened.sol\":3565:3689  {... */\n      pop\n        /* \"contracts/coins/Coin.sol_flattened.sol\":3502:3689  function _transferOwnership(address newOwner) internal virtual {... */\n      pop\n      jump\t// out\n        /* \"contracts/coins/Coin.sol_flattened.sol\":15687:16222  function _mint(address account, uint256 amount) internal virtual {... */\n    tag_166:\n        /* \"contracts/coins/Coin.sol_flattened.sol\":15789:15790  0 */\n      0x00\n        /* \"contracts/coins/Coin.sol_flattened.sol\":15770:15791  account != address(0) */\n      0xffffffffffffffffffffffffffffffffffffffff\n      and\n        /* \"contracts/coins/Coin.sol_flattened.sol\":15770:15777  account */\n      dup3\n        /* \"contracts/coins/Coin.sol_flattened.sol\":15770:15791  account != address(0) */\n      0xffffffffffffffffffffffffffffffffffffffff\n      and\n      sub\n        /* \"contracts/coins/Coin.sol_flattened.sol\":15762:15827  require(account != address(0), \"ERC20: mint to the zero address\") */\n      tag_251\n      jumpi\n      mload(0x40)\n      0x08c379a000000000000000000000000000000000000000000000000000000000\n      dup2\n      mstore\n      0x04\n      add\n      tag_252\n      swap1\n      tag_253\n      jump\t// in\n    tag_252:\n      mload(0x40)\n      dup1\n      swap2\n      sub\n      swap1\n      revert\n    tag_251:\n        /* \"contracts/coins/Coin.sol_flattened.sol\":15838:15887  _beforeTokenTransfer(address(0), account, amount) */\n      tag_254\n        /* \"contracts/coins/Coin.sol_flattened.sol\":15867:15868  0 */\n      0x00\n        /* \"contracts/coins/Coin.sol_flattened.sol\":15871:15878  account */\n      dup4\n        /* \"contracts/coins/Coin.sol_flattened.sol\":15880:15886  amount */\n      dup4\n        /* \"contracts/coins/Coin.sol_flattened.sol\":15838:15858  _beforeTokenTransfer */\n      tag_242\n        /* \"contracts/coins/Coin.sol_flattened.sol\":15838:15887  _beforeTokenTransfer(address(0), account, amount) */\n      jump\t// in\n    tag_254:\n        /* \"contracts/coins/Coin.sol_flattened.sol\":15914:15920  amount */\n      dup1\n        /* \"contracts/coins/Coin.sol_flattened.sol\":15898:15910  _totalSupply */\n      0x02\n      0x00\n        /* \"contracts/coins/Coin.sol_flattened.sol\":15898:15920  _totalSupply += amount */\n      dup3\n      dup3\n      sload\n      tag_255\n      swap2\n      swap1\n      tag_147\n      jump\t// in\n    tag_255:\n      swap3\n      pop\n      pop\n      dup2\n      swap1\n      sstore\n      pop\n        /* \"contracts/coins/Coin.sol_flattened.sol\":16088:16094  amount */\n      dup1\n        /* \"contracts/coins/Coin.sol_flattened.sol\":16066:16075  _balances */\n      0x00\n        /* \"contracts/coins/Coin.sol_flattened.sol\":16066:16084  _balances[account] */\n      dup1\n        /* \"contracts/coins/Coin.sol_flattened.sol\":16076:16083  account */\n      dup5\n        /* \"contracts/coins/Coin.sol_flattened.sol\":16066:16084  _balances[account] */\n      0xffffffffffffffffffffffffffffffffffffffff\n      and\n      0xffffffffffffffffffffffffffffffffffffffff\n      and\n      dup2\n      mstore\n      0x20\n      add\n      swap1\n      dup2\n      mstore\n      0x20\n      add\n      0x00\n      keccak256\n      0x00\n        /* \"contracts/coins/Coin.sol_flattened.sol\":16066:16094  _balances[account] += amount */\n      dup3\n      dup3\n      sload\n      add\n      swap3\n      pop\n      pop\n      dup2\n      swap1\n      sstore\n      pop\n        /* \"contracts/coins/Coin.sol_flattened.sol\":16140:16147  account */\n      dup2\n        /* \"contracts/coins/Coin.sol_flattened.sol\":16119:16156  Transfer(address(0), account, amount) */\n      0xffffffffffffffffffffffffffffffffffffffff\n      and\n        /* \"contracts/coins/Coin.sol_flattened.sol\":16136:16137  0 */\n      0x00\n        /* \"contracts/coins/Coin.sol_flattened.sol\":16119:16156  Transfer(address(0), account, amount) */\n      0xffffffffffffffffffffffffffffffffffffffff\n      and\n      0xddf252ad1be2c89b69c2b068fc378daa952ba7f163c4a11628f55a4df523b3ef\n        /* \"contracts/coins/Coin.sol_flattened.sol\":16149:16155  amount */\n      dup4\n        /* \"contracts/coins/Coin.sol_flattened.sol\":16119:16156  Transfer(address(0), account, amount) */\n      mload(0x40)\n      tag_256\n      swap2\n      swap1\n      tag_47\n      jump\t// in\n    tag_256:\n      mload(0x40)\n      dup1\n      swap2\n      sub\n      swap1\n      log3\n        /* \"contracts/coins/Coin.sol_flattened.sol\":16167:16215  _afterTokenTransfer(address(0), account, amount) */\n      tag_257\n        /* \"contracts/coins/Coin.sol_flattened.sol\":16195:16196  0 */\n      0x00\n        /* \"contracts/coins/Coin.sol_flattened.sol\":16199:16206  account */\n      dup4\n        /* \"contracts/coins/Coin.sol_flattened.sol\":16208:16214  amount */\n      dup4\n        /* \"contracts/coins/Coin.sol_flattened.sol\":16167:16186  _afterTokenTransfer */\n      tag_248\n        /* \"contracts/coins/Coin.sol_flattened.sol\":16167:16215  _afterTokenTransfer(address(0), account, amount) */\n      jump\t// in\n    tag_257:\n        /* \"contracts/coins/Coin.sol_flattened.sol\":15687:16222  function _mint(address account, uint256 amount) internal virtual {... */\n      pop\n      pop\n      jump\t// out\n        /* \"contracts/coins/Coin.sol_flattened.sol\":16542:17201  function _burn(address account, uint256 amount) internal virtual {... */\n    tag_195:\n        /* \"contracts/coins/Coin.sol_flattened.sol\":16644:16645  0 */\n      0x00\n        /* \"contracts/coins/Coin.sol_flattened.sol\":16625:16646  account != address(0) */\n      0xffffffffffffffffffffffffffffffffffffffff\n      and\n        /* \"contracts/coins/Coin.sol_flattened.sol\":16625:16632  account */\n      dup3\n        /* \"contracts/coins/Coin.sol_flattened.sol\":16625:16646  account != address(0) */\n      0xffffffffffffffffffffffffffffffffffffffff\n      and\n      sub\n        /* \"contracts/coins/Coin.sol_flattened.sol\":16617:16684  require(account != address(0), \"ERC20: burn from the zero address\") */\n      tag_259\n      jumpi\n      mload(0x40)\n      0x08c379a000000000000000000000000000000000000000000000000000000000\n      dup2\n      mstore\n      0x04\n      add\n      tag_260\n      swap1\n      tag_261\n      jump\t// in\n    tag_260:\n      mload(0x40)\n      dup1\n      swap2\n      sub\n      swap1\n      revert\n    tag_259:\n        /* \"contracts/coins/Coin.sol_flattened.sol\":16695:16744  _beforeTokenTransfer(account, address(0), amount) */\n      tag_262\n        /* \"contracts/coins/Coin.sol_flattened.sol\":16716:16723  account */\n      dup3\n        /* \"contracts/coins/Coin.sol_flattened.sol\":16733:16734  0 */\n      0x00\n        /* \"contracts/coins/Coin.sol_flattened.sol\":16737:16743  amount */\n      dup4\n        /* \"contracts/coins/Coin.sol_flattened.sol\":16695:16715  _beforeTokenTransfer */\n      tag_242\n        /* \"contracts/coins/Coin.sol_flattened.sol\":16695:16744  _beforeTokenTransfer(account, address(0), amount) */\n      jump\t// in\n    tag_262:\n        /* \"contracts/coins/Coin.sol_flattened.sol\":16755:16777  uint256 accountBalance */\n      0x00\n        /* \"contracts/coins/Coin.sol_flattened.sol\":16780:16789  _balances */\n      dup1\n        /* \"contracts/coins/Coin.sol_flattened.sol\":16780:16798  _balances[account] */\n      0x00\n        /* \"contracts/coins/Coin.sol_flattened.sol\":16790:16797  account */\n      dup5\n        /* \"contracts/coins/Coin.sol_flattened.sol\":16780:16798  _balances[account] */\n      0xffffffffffffffffffffffffffffffffffffffff\n      and\n      0xffffffffffffffffffffffffffffffffffffffff\n      and\n      dup2\n      mstore\n      0x20\n      add\n      swap1\n      dup2\n      mstore\n      0x20\n      add\n      0x00\n      keccak256\n      sload\n        /* \"contracts/coins/Coin.sol_flattened.sol\":16755:16798  uint256 accountBalance = _balances[account] */\n      swap1\n      pop\n        /* \"contracts/coins/Coin.sol_flattened.sol\":16834:16840  amount */\n      dup2\n        /* \"contracts/coins/Coin.sol_flattened.sol\":16816:16830  accountBalance */\n      dup2\n        /* \"contracts/coins/Coin.sol_flattened.sol\":16816:16840  accountBalance >= amount */\n      lt\n      iszero\n        /* \"contracts/coins/Coin.sol_flattened.sol\":16808:16879  require(accountBalance >= amount, \"ERC20: burn amount exceeds balance\") */\n      tag_263\n      jumpi\n      mload(0x40)\n      0x08c379a000000000000000000000000000000000000000000000000000000000\n      dup2\n      mstore\n      0x04\n      add\n      tag_264\n      swap1\n      tag_265\n      jump\t// in\n    tag_264:\n      mload(0x40)\n      dup1\n      swap2\n      sub\n      swap1\n      revert\n    tag_263:\n        /* \"contracts/coins/Coin.sol_flattened.sol\":16951:16957  amount */\n      dup2\n        /* \"contracts/coins/Coin.sol_flattened.sol\":16934:16948  accountBalance */\n      dup2\n        /* \"contracts/coins/Coin.sol_flattened.sol\":16934:16957  accountBalance - amount */\n      sub\n        /* \"contracts/coins/Coin.sol_flattened.sol\":16913:16922  _balances */\n      0x00\n        /* \"contracts/coins/Coin.sol_flattened.sol\":16913:16931  _balances[account] */\n      dup1\n        /* \"contracts/coins/Coin.sol_flattened.sol\":16923:16930  account */\n      dup6\n        /* \"contracts/coins/Coin.sol_flattened.sol\":16913:16931  _balances[account] */\n      0xffffffffffffffffffffffffffffffffffffffff\n      and\n      0xffffffffffffffffffffffffffffffffffffffff\n      and\n      dup2\n      mstore\n      0x20\n      add\n      swap1\n      dup2\n      mstore\n      0x20\n      add\n      0x00\n      keccak256\n        /* \"contracts/coins/Coin.sol_flattened.sol\":16913:16957  _balances[account] = accountBalance - amount */\n      dup2\n      swap1\n      sstore\n      pop\n        /* \"contracts/coins/Coin.sol_flattened.sol\":17066:17072  amount */\n      dup2\n        /* \"contracts/coins/Coin.sol_flattened.sol\":17050:17062  _totalSupply */\n      0x02\n      0x00\n        /* \"contracts/coins/Coin.sol_flattened.sol\":17050:17072  _totalSupply -= amount */\n      dup3\n      dup3\n      sload\n      sub\n      swap3\n      pop\n      pop\n      dup2\n      swap1\n      sstore\n      pop\n        /* \"contracts/coins/Coin.sol_flattened.sol\":17124:17125  0 */\n      0x00\n        /* \"contracts/coins/Coin.sol_flattened.sol\":17098:17135  Transfer(account, address(0), amount) */\n      0xffffffffffffffffffffffffffffffffffffffff\n      and\n        /* \"contracts/coins/Coin.sol_flattened.sol\":17107:17114  account */\n      dup4\n        /* \"contracts/coins/Coin.sol_flattened.sol\":17098:17135  Transfer(account, address(0), amount) */\n      0xffffffffffffffffffffffffffffffffffffffff\n      and\n      0xddf252ad1be2c89b69c2b068fc378daa952ba7f163c4a11628f55a4df523b3ef\n        /* \"contracts/coins/Coin.sol_flattened.sol\":17128:17134  amount */\n      dup5\n        /* \"contracts/coins/Coin.sol_flattened.sol\":17098:17135  Transfer(account, address(0), amount) */\n      mload(0x40)\n      tag_266\n      swap2\n      swap1\n      tag_47\n      jump\t// in\n    tag_266:\n      mload(0x40)\n      dup1\n      swap2\n      sub\n      swap1\n      log3\n        /* \"contracts/coins/Coin.sol_flattened.sol\":17146:17194  _afterTokenTransfer(account, address(0), amount) */\n      tag_267\n        /* \"contracts/coins/Coin.sol_flattened.sol\":17166:17173  account */\n      dup4\n        /* \"contracts/coins/Coin.sol_flattened.sol\":17183:17184  0 */\n      0x00\n        /* \"contracts/coins/Coin.sol_flattened.sol\":17187:17193  amount */\n      dup5\n        /* \"contracts/coins/Coin.sol_flattened.sol\":17146:17165  _afterTokenTransfer */\n      tag_248\n        /* \"contracts/coins/Coin.sol_flattened.sol\":17146:17194  _afterTokenTransfer(account, address(0), amount) */\n      jump\t// in\n    tag_267:\n        /* \"contracts/coins/Coin.sol_flattened.sol\":16607:17201  {... */\n      pop\n        /* \"contracts/coins/Coin.sol_flattened.sol\":16542:17201  function _burn(address account, uint256 amount) internal virtual {... */\n      pop\n      pop\n      jump\t// out\n        /* \"contracts/coins/Coin.sol_flattened.sol\":19300:19421  function _beforeTokenTransfer(... */\n    tag_242:\n      pop\n      pop\n      pop\n      jump\t// out\n        /* \"contracts/coins/Coin.sol_flattened.sol\":20009:20129  function _afterTokenTransfer(... */\n    tag_248:\n      pop\n      pop\n      pop\n      jump\t// out\n        /* \"#utility.yul\":88:205   */\n    tag_271:\n        /* \"#utility.yul\":197:198   */\n      0x00\n        /* \"#utility.yul\":194:195   */\n      dup1\n        /* \"#utility.yul\":187:199   */\n      revert\n        /* \"#utility.yul\":334:460   */\n    tag_273:\n        /* \"#utility.yul\":371:378   */\n      0x00\n        /* \"#utility.yul\":411:453   */\n      0xffffffffffffffffffffffffffffffffffffffff\n        /* \"#utility.yul\":404:409   */\n      dup3\n        /* \"#utility.yul\":400:454   */\n      and\n        /* \"#utility.yul\":389:454   */\n      swap1\n      pop\n        /* \"#utility.yul\":334:460   */\n      swap2\n      swap1\n      pop\n      jump\t// out\n        /* \"#utility.yul\":466:562   */\n    tag_274:\n        /* \"#utility.yul\":503:510   */\n      0x00\n        /* \"#utility.yul\":532:556   */\n      tag_332\n        /* \"#utility.yul\":550:555   */\n      dup3\n        /* \"#utility.yul\":532:556   */\n      tag_273\n      jump\t// in\n    tag_332:\n        /* \"#utility.yul\":521:556   */\n      swap1\n      pop\n        /* \"#utility.yul\":466:562   */\n      swap2\n      swap1\n      pop\n      jump\t// out\n        /* \"#utility.yul\":568:690   */\n    tag_275:\n        /* \"#utility.yul\":641:665   */\n      tag_334\n        /* \"#utility.yul\":659:664   */\n      dup2\n        /* \"#utility.yul\":641:665   */\n      tag_274\n      jump\t// in\n    tag_334:\n        /* \"#utility.yul\":634:639   */\n      dup2\n        /* \"#utility.yul\":631:666   */\n      eq\n        /* \"#utility.yul\":621:684   */\n      tag_335\n      jumpi\n        /* \"#utility.yul\":680:681   */\n      0x00\n        /* \"#utility.yul\":677:678   */\n      dup1\n        /* \"#utility.yul\":670:682   */\n      revert\n        /* \"#utility.yul\":621:684   */\n    tag_335:\n        /* \"#utility.yul\":568:690   */\n      pop\n      jump\t// out\n        /* \"#utility.yul\":696:835   */\n    tag_276:\n        /* \"#utility.yul\":742:747   */\n      0x00\n        /* \"#utility.yul\":780:786   */\n      dup2\n        /* \"#utility.yul\":767:787   */\n      calldataload\n        /* \"#utility.yul\":758:787   */\n      swap1\n      pop\n        /* \"#utility.yul\":796:829   */\n      tag_337\n        /* \"#utility.yul\":823:828   */\n      dup2\n        /* \"#utility.yul\":796:829   */\n      tag_275\n      jump\t// in\n    tag_337:\n        /* \"#utility.yul\":696:835   */\n      swap3\n      swap2\n      pop\n      pop\n      jump\t// out\n        /* \"#utility.yul\":841:1170   */\n    tag_28:\n        /* \"#utility.yul\":900:906   */\n      0x00\n        /* \"#utility.yul\":949:951   */\n      0x20\n        /* \"#utility.yul\":937:946   */\n      dup3\n        /* \"#utility.yul\":928:935   */\n      dup5\n        /* \"#utility.yul\":924:947   */\n      sub\n        /* \"#utility.yul\":920:952   */\n      slt\n        /* \"#utility.yul\":917:1036   */\n      iszero\n      tag_339\n      jumpi\n        /* \"#utility.yul\":955:1034   */\n      tag_340\n      tag_271\n      jump\t// in\n    tag_340:\n        /* \"#utility.yul\":917:1036   */\n    tag_339:\n        /* \"#utility.yul\":1075:1076   */\n      0x00\n        /* \"#utility.yul\":1100:1153   */\n      tag_341\n        /* \"#utility.yul\":1145:1152   */\n      dup5\n        /* \"#utility.yul\":1136:1142   */\n      dup3\n        /* \"#utility.yul\":1125:1134   */\n      dup6\n        /* \"#utility.yul\":1121:1143   */\n      add\n        /* \"#utility.yul\":1100:1153   */\n      tag_276\n      jump\t// in\n    tag_341:\n        /* \"#utility.yul\":1090:1153   */\n      swap2\n      pop\n        /* \"#utility.yul\":1046:1163   */\n      pop\n        /* \"#utility.yul\":841:1170   */\n      swap3\n      swap2\n      pop\n      pop\n      jump\t// out\n        /* \"#utility.yul\":1176:1275   */\n    tag_277:\n        /* \"#utility.yul\":1228:1234   */\n      0x00\n        /* \"#utility.yul\":1262:1267   */\n      dup2\n        /* \"#utility.yul\":1256:1268   */\n      mload\n        /* \"#utility.yul\":1246:1268   */\n      swap1\n      pop\n        /* \"#utility.yul\":1176:1275   */\n      swap2\n      swap1\n      pop\n      jump\t// out\n        /* \"#utility.yul\":1281:1450   */\n    tag_278:\n        /* \"#utility.yul\":1365:1376   */\n      0x00\n        /* \"#utility.yul\":1399:1405   */\n      dup3\n        /* \"#utility.yul\":1394:1397   */\n      dup3\n        /* \"#utility.yul\":1387:1406   */\n      mstore\n        /* \"#utility.yul\":1439:1443   */\n      0x20\n        /* \"#utility.yul\":1434:1437   */\n      dup3\n        /* \"#utility.yul\":1430:1444   */\n      add\n        /* \"#utility.yul\":1415:1444   */\n      swap1\n      pop\n        /* \"#utility.yul\":1281:1450   */\n      swap3\n      swap2\n      pop\n      pop\n      jump\t// out\n        /* \"#utility.yul\":1456:1595   */\n    tag_279:\n        /* \"#utility.yul\":1545:1551   */\n      dup3\n        /* \"#utility.yul\":1540:1543   */\n      dup2\n        /* \"#utility.yul\":1535:1538   */\n      dup4\n        /* \"#utility.yul\":1529:1552   */\n      mcopy\n        /* \"#utility.yul\":1586:1587   */\n      0x00\n        /* \"#utility.yul\":1577:1583   */\n      dup4\n        /* \"#utility.yul\":1572:1575   */\n      dup4\n        /* \"#utility.yul\":1568:1584   */\n      add\n        /* \"#utility.yul\":1561:1588   */\n      mstore\n        /* \"#utility.yul\":1456:1595   */\n      pop\n      pop\n      pop\n      jump\t// out\n        /* \"#utility.yul\":1601:1703   */\n    tag_280:\n        /* \"#utility.yul\":1642:1648   */\n      0x00\n        /* \"#utility.yul\":1693:1695   */\n      0x1f\n        /* \"#utility.yul\":1689:1696   */\n      not\n        /* \"#utility.yul\":1684:1686   */\n      0x1f\n        /* \"#utility.yul\":1677:1682   */\n      dup4\n        /* \"#utility.yul\":1673:1687   */\n      add\n        /* \"#utility.yul\":1669:1697   */\n      and\n        /* \"#utility.yul\":1659:1697   */\n      swap1\n      pop\n        /* \"#utility.yul\":1601:1703   */\n      swap2\n      swap1\n      pop\n      jump\t// out\n        /* \"#utility.yul\":1709:2086   */\n    tag_281:\n        /* \"#utility.yul\":1797:1800   */\n      0x00\n        /* \"#utility.yul\":1825:1864   */\n      tag_347\n        /* \"#utility.yul\":1858:1863   */\n      dup3\n        /* \"#utility.yul\":1825:1864   */\n      tag_277\n      jump\t// in\n    tag_347:\n        /* \"#utility.yul\":1880:1951   */\n      tag_348\n        /* \"#utility.yul\":1944:1950   */\n      dup2\n        /* \"#utility.yul\":1939:1942   */\n      dup6\n        /* \"#utility.yul\":1880:1951   */\n      tag_278\n      jump\t// in\n    tag_348:\n        /* \"#utility.yul\":1873:1951   */\n      swap4\n      pop\n        /* \"#utility.yul\":1960:2025   */\n      tag_349\n        /* \"#utility.yul\":2018:2024   */\n      dup2\n        /* \"#utility.yul\":2013:2016   */\n      dup6\n        /* \"#utility.yul\":2006:2010   */\n      0x20\n        /* \"#utility.yul\":1999:2004   */\n      dup7\n        /* \"#utility.yul\":1995:2011   */\n      add\n        /* \"#utility.yul\":1960:2025   */\n      tag_279\n      jump\t// in\n    tag_349:\n        /* \"#utility.yul\":2050:2079   */\n      tag_350\n        /* \"#utility.yul\":2072:2078   */\n      dup2\n        /* \"#utility.yul\":2050:2079   */\n      tag_280\n      jump\t// in\n    tag_350:\n        /* \"#utility.yul\":2045:2048   */\n      dup5\n        /* \"#utility.yul\":2041:2080   */\n      add\n        /* \"#utility.yul\":2034:2080   */\n      swap2\n      pop\n        /* \"#utility.yul\":1801:2086   */\n      pop\n        /* \"#utility.yul\":1709:2086   */\n      swap3\n      swap2\n      pop\n      pop\n      jump\t// out\n        /* \"#utility.yul\":2092:2405   */\n    tag_33:\n        /* \"#utility.yul\":2205:2209   */\n      0x00\n        /* \"#utility.yul\":2243:2245   */\n      0x20\n        /* \"#utility.yul\":2232:2241   */\n      dup3\n        /* \"#utility.yul\":2228:2246   */\n      add\n        /* \"#utility.yul\":2220:2246   */\n      swap1\n      pop\n        /* \"#utility.yul\":2292:2301   */\n      dup2\n        /* \"#utility.yul\":2286:2290   */\n      dup2\n        /* \"#utility.yul\":2282:2302   */\n      sub\n        /* \"#utility.yul\":2278:2279   */\n      0x00\n        /* \"#utility.yul\":2267:2276   */\n      dup4\n        /* \"#utility.yul\":2263:2280   */\n      add\n        /* \"#utility.yul\":2256:2303   */\n      mstore\n        /* \"#utility.yul\":2320:2398   */\n      tag_352\n        /* \"#utility.yul\":2393:2397   */\n      dup2\n        /* \"#utility.yul\":2384:2390   */\n      dup5\n        /* \"#utility.yul\":2320:2398   */\n      tag_281\n      jump\t// in\n    tag_352:\n        /* \"#utility.yul\":2312:2398   */\n      swap1\n      pop\n        /* \"#utility.yul\":2092:2405   */\n      swap3\n      swap2\n      pop\n      pop\n      jump\t// out\n        /* \"#utility.yul\":2411:2488   */\n    tag_282:\n        /* \"#utility.yul\":2448:2455   */\n      0x00\n        /* \"#utility.yul\":2477:2482   */\n      dup2\n        /* \"#utility.yul\":2466:2482   */\n      swap1\n      pop\n        /* \"#utility.yul\":2411:2488   */\n      swap2\n      swap1\n      pop\n      jump\t// out\n        /* \"#utility.yul\":2494:2616   */\n    tag_283:\n        /* \"#utility.yul\":2567:2591   */\n      tag_355\n        /* \"#utility.yul\":2585:2590   */\n      dup2\n        /* \"#utility.yul\":2567:2591   */\n      tag_282\n      jump\t// in\n    tag_355:\n        /* \"#utility.yul\":2560:2565   */\n      dup2\n        /* \"#utility.yul\":2557:2592   */\n      eq\n        /* \"#utility.yul\":2547:2610   */\n      tag_356\n      jumpi\n        /* \"#utility.yul\":2606:2607   */\n      0x00\n        /* \"#utility.yul\":2603:2604   */\n      dup1\n        /* \"#utility.yul\":2596:2608   */\n      revert\n        /* \"#utility.yul\":2547:2610   */\n    tag_356:\n        /* \"#utility.yul\":2494:2616   */\n      pop\n      jump\t// out\n        /* \"#utility.yul\":2622:2761   */\n    tag_284:\n        /* \"#utility.yul\":2668:2673   */\n      0x00\n        /* \"#utility.yul\":2706:2712   */\n      dup2\n        /* \"#utility.yul\":2693:2713   */\n      calldataload\n        /* \"#utility.yul\":2684:2713   */\n      swap1\n      pop\n        /* \"#utility.yul\":2722:2755   */\n      tag_358\n        /* \"#utility.yul\":2749:2754   */\n      dup2\n        /* \"#utility.yul\":2722:2755   */\n      tag_283\n      jump\t// in\n    tag_358:\n        /* \"#utility.yul\":2622:2761   */\n      swap3\n      swap2\n      pop\n      pop\n      jump\t// out\n        /* \"#utility.yul\":2767:3241   */\n    tag_36:\n        /* \"#utility.yul\":2835:2841   */\n      0x00\n        /* \"#utility.yul\":2843:2849   */\n      dup1\n        /* \"#utility.yul\":2892:2894   */\n      0x40\n        /* \"#utility.yul\":2880:2889   */\n      dup4\n        /* \"#utility.yul\":2871:2878   */\n      dup6\n        /* \"#utility.yul\":2867:2890   */\n      sub\n        /* \"#utility.yul\":2863:2895   */\n      slt\n        /* \"#utility.yul\":2860:2979   */\n      iszero\n      tag_360\n      jumpi\n        /* \"#utility.yul\":2898:2977   */\n      tag_361\n      tag_271\n      jump\t// in\n    tag_361:\n        /* \"#utility.yul\":2860:2979   */\n    tag_360:\n        /* \"#utility.yul\":3018:3019   */\n      0x00\n        /* \"#utility.yul\":3043:3096   */\n      tag_362\n        /* \"#utility.yul\":3088:3095   */\n      dup6\n        /* \"#utility.yul\":3079:3085   */\n      dup3\n        /* \"#utility.yul\":3068:3077   */\n      dup7\n        /* \"#utility.yul\":3064:3086   */\n      add\n        /* \"#utility.yul\":3043:3096   */\n      tag_276\n      jump\t// in\n    tag_362:\n        /* \"#utility.yul\":3033:3096   */\n      swap3\n      pop\n        /* \"#utility.yul\":2989:3106   */\n      pop\n        /* \"#utility.yul\":3145:3147   */\n      0x20\n        /* \"#utility.yul\":3171:3224   */\n      tag_363\n        /* \"#utility.yul\":3216:3223   */\n      dup6\n        /* \"#utility.yul\":3207:3213   */\n      dup3\n        /* \"#utility.yul\":3196:3205   */\n      dup7\n        /* \"#utility.yul\":3192:3214   */\n      add\n        /* \"#utility.yul\":3171:3224   */\n      tag_284\n      jump\t// in\n    tag_363:\n        /* \"#utility.yul\":3161:3224   */\n      swap2\n      pop\n        /* \"#utility.yul\":3116:3234   */\n      pop\n        /* \"#utility.yul\":2767:3241   */\n      swap3\n      pop\n      swap3\n      swap1\n      pop\n      jump\t// out\n        /* \"#utility.yul\":3247:3337   */\n    tag_285:\n        /* \"#utility.yul\":3281:3288   */\n      0x00\n        /* \"#utility.yul\":3324:3329   */\n      dup2\n        /* \"#utility.yul\":3317:3330   */\n      iszero\n        /* \"#utility.yul\":3310:3331   */\n      iszero\n        /* \"#utility.yul\":3299:3331   */\n      swap1\n      pop\n        /* \"#utility.yul\":3247:3337   */\n      swap2\n      swap1\n      pop\n      jump\t// out\n        /* \"#utility.yul\":3343:3452   */\n    tag_286:\n        /* \"#utility.yul\":3424:3445   */\n      tag_366\n        /* \"#utility.yul\":3439:3444   */\n      dup2\n        /* \"#utility.yul\":3424:3445   */\n      tag_285\n      jump\t// in\n    tag_366:\n        /* \"#utility.yul\":3419:3422   */\n      dup3\n        /* \"#utility.yul\":3412:3446   */\n      mstore\n        /* \"#utility.yul\":3343:3452   */\n      pop\n      pop\n      jump\t// out\n        /* \"#utility.yul\":3458:3668   */\n    tag_39:\n        /* \"#utility.yul\":3545:3549   */\n      0x00\n        /* \"#utility.yul\":3583:3585   */\n      0x20\n        /* \"#utility.yul\":3572:3581   */\n      dup3\n        /* \"#utility.yul\":3568:3586   */\n      add\n        /* \"#utility.yul\":3560:3586   */\n      swap1\n      pop\n        /* \"#utility.yul\":3596:3661   */\n      tag_368\n        /* \"#utility.yul\":3658:3659   */\n      0x00\n        /* \"#utility.yul\":3647:3656   */\n      dup4\n        /* \"#utility.yul\":3643:3660   */\n      add\n        /* \"#utility.yul\":3634:3640   */\n      dup5\n        /* \"#utility.yul\":3596:3661   */\n      tag_286\n      jump\t// in\n    tag_368:\n        /* \"#utility.yul\":3458:3668   */\n      swap3\n      swap2\n      pop\n      pop\n      jump\t// out\n        /* \"#utility.yul\":3674:3788   */\n    tag_287:\n        /* \"#utility.yul\":3741:3747   */\n      0x00\n        /* \"#utility.yul\":3775:3780   */\n      dup2\n        /* \"#utility.yul\":3769:3781   */\n      mload\n        /* \"#utility.yul\":3759:3781   */\n      swap1\n      pop\n        /* \"#utility.yul\":3674:3788   */\n      swap2\n      swap1\n      pop\n      jump\t// out\n        /* \"#utility.yul\":3794:3978   */\n    tag_288:\n        /* \"#utility.yul\":3893:3904   */\n      0x00\n        /* \"#utility.yul\":3927:3933   */\n      dup3\n        /* \"#utility.yul\":3922:3925   */\n      dup3\n        /* \"#utility.yul\":3915:3934   */\n      mstore\n        /* \"#utility.yul\":3967:3971   */\n      0x20\n        /* \"#utility.yul\":3962:3965   */\n      dup3\n        /* \"#utility.yul\":3958:3972   */\n      add\n        /* \"#utility.yul\":3943:3972   */\n      swap1\n      pop\n        /* \"#utility.yul\":3794:3978   */\n      swap3\n      swap2\n      pop\n      pop\n      jump\t// out\n        /* \"#utility.yul\":3984:4116   */\n    tag_289:\n        /* \"#utility.yul\":4051:4055   */\n      0x00\n        /* \"#utility.yul\":4074:4077   */\n      dup2\n        /* \"#utility.yul\":4066:4077   */\n      swap1\n      pop\n        /* \"#utility.yul\":4104:4108   */\n      0x20\n        /* \"#utility.yul\":4099:4102   */\n      dup3\n        /* \"#utility.yul\":4095:4109   */\n      add\n        /* \"#utility.yul\":4087:4109   */\n      swap1\n      pop\n        /* \"#utility.yul\":3984:4116   */\n      swap2\n      swap1\n      pop\n      jump\t// out\n        /* \"#utility.yul\":4122:4230   */\n    tag_290:\n        /* \"#utility.yul\":4199:4223   */\n      tag_373\n        /* \"#utility.yul\":4217:4222   */\n      dup2\n        /* \"#utility.yul\":4199:4223   */\n      tag_274\n      jump\t// in\n    tag_373:\n        /* \"#utility.yul\":4194:4197   */\n      dup3\n        /* \"#utility.yul\":4187:4224   */\n      mstore\n        /* \"#utility.yul\":4122:4230   */\n      pop\n      pop\n      jump\t// out\n        /* \"#utility.yul\":4236:4415   */\n    tag_291:\n        /* \"#utility.yul\":4305:4315   */\n      0x00\n        /* \"#utility.yul\":4326:4372   */\n      tag_375\n        /* \"#utility.yul\":4368:4371   */\n      dup4\n        /* \"#utility.yul\":4360:4366   */\n      dup4\n        /* \"#utility.yul\":4326:4372   */\n      tag_290\n      jump\t// in\n    tag_375:\n        /* \"#utility.yul\":4404:4408   */\n      0x20\n        /* \"#utility.yul\":4399:4402   */\n      dup4\n        /* \"#utility.yul\":4395:4409   */\n      add\n        /* \"#utility.yul\":4381:4409   */\n      swap1\n      pop\n        /* \"#utility.yul\":4236:4415   */\n      swap3\n      swap2\n      pop\n      pop\n      jump\t// out\n        /* \"#utility.yul\":4421:4534   */\n    tag_292:\n        /* \"#utility.yul\":4491:4495   */\n      0x00\n        /* \"#utility.yul\":4523:4527   */\n      0x20\n        /* \"#utility.yul\":4518:4521   */\n      dup3\n        /* \"#utility.yul\":4514:4528   */\n      add\n        /* \"#utility.yul\":4506:4528   */\n      swap1\n      pop\n        /* \"#utility.yul\":4421:4534   */\n      swap2\n      swap1\n      pop\n      jump\t// out\n        /* \"#utility.yul\":4570:5302   */\n    tag_293:\n        /* \"#utility.yul\":4689:4692   */\n      0x00\n        /* \"#utility.yul\":4718:4772   */\n      tag_378\n        /* \"#utility.yul\":4766:4771   */\n      dup3\n        /* \"#utility.yul\":4718:4772   */\n      tag_287\n      jump\t// in\n    tag_378:\n        /* \"#utility.yul\":4788:4874   */\n      tag_379\n        /* \"#utility.yul\":4867:4873   */\n      dup2\n        /* \"#utility.yul\":4862:4865   */\n      dup6\n        /* \"#utility.yul\":4788:4874   */\n      tag_288\n      jump\t// in\n    tag_379:\n        /* \"#utility.yul\":4781:4874   */\n      swap4\n      pop\n        /* \"#utility.yul\":4898:4954   */\n      tag_380\n        /* \"#utility.yul\":4948:4953   */\n      dup4\n        /* \"#utility.yul\":4898:4954   */\n      tag_289\n      jump\t// in\n    tag_380:\n        /* \"#utility.yul\":4977:4984   */\n      dup1\n        /* \"#utility.yul\":5008:5009   */\n      0x00\n        /* \"#utility.yul\":4993:5277   */\n    tag_381:\n        /* \"#utility.yul\":5018:5024   */\n      dup4\n        /* \"#utility.yul\":5015:5016   */\n      dup2\n        /* \"#utility.yul\":5012:5025   */\n      lt\n        /* \"#utility.yul\":4993:5277   */\n      iszero\n      tag_383\n      jumpi\n        /* \"#utility.yul\":5094:5100   */\n      dup2\n        /* \"#utility.yul\":5088:5101   */\n      mload\n        /* \"#utility.yul\":5121:5184   */\n      tag_384\n        /* \"#utility.yul\":5180:5183   */\n      dup9\n        /* \"#utility.yul\":5165:5178   */\n      dup3\n        /* \"#utility.yul\":5121:5184   */\n      tag_291\n      jump\t// in\n    tag_384:\n        /* \"#utility.yul\":5114:5184   */\n      swap8\n      pop\n        /* \"#utility.yul\":5207:5267   */\n      tag_385\n        /* \"#utility.yul\":5260:5266   */\n      dup4\n        /* \"#utility.yul\":5207:5267   */\n      tag_292\n      jump\t// in\n    tag_385:\n        /* \"#utility.yul\":5197:5267   */\n      swap3\n      pop\n        /* \"#utility.yul\":5053:5277   */\n      pop\n        /* \"#utility.yul\":5040:5041   */\n      0x01\n        /* \"#utility.yul\":5037:5038   */\n      dup2\n        /* \"#utility.yul\":5033:5042   */\n      add\n        /* \"#utility.yul\":5028:5042   */\n      swap1\n      pop\n        /* \"#utility.yul\":4993:5277   */\n      jump(tag_381)\n    tag_383:\n        /* \"#utility.yul\":4997:5011   */\n      pop\n        /* \"#utility.yul\":5293:5296   */\n      dup6\n        /* \"#utility.yul\":5286:5296   */\n      swap4\n      pop\n        /* \"#utility.yul\":4694:5302   */\n      pop\n      pop\n      pop\n        /* \"#utility.yul\":4570:5302   */\n      swap3\n      swap2\n      pop\n      pop\n      jump\t// out\n        /* \"#utility.yul\":5308:5681   */\n    tag_43:\n        /* \"#utility.yul\":5451:5455   */\n      0x00\n        /* \"#utility.yul\":5489:5491   */\n      0x20\n        /* \"#utility.yul\":5478:5487   */\n      dup3\n        /* \"#utility.yul\":5474:5492   */\n      add\n        /* \"#utility.yul\":5466:5492   */\n      swap1\n      pop\n        /* \"#utility.yul\":5538:5547   */\n      dup2\n        /* \"#utility.yul\":5532:5536   */\n      dup2\n        /* \"#utility.yul\":5528:5548   */\n      sub\n        /* \"#utility.yul\":5524:5525   */\n      0x00\n        /* \"#utility.yul\":5513:5522   */\n      dup4\n        /* \"#utility.yul\":5509:5526   */\n      add\n        /* \"#utility.yul\":5502:5549   */\n      mstore\n        /* \"#utility.yul\":5566:5674   */\n      tag_387\n        /* \"#utility.yul\":5669:5673   */\n      dup2\n        /* \"#utility.yul\":5660:5666   */\n      dup5\n        /* \"#utility.yul\":5566:5674   */\n      tag_293\n      jump\t// in\n    tag_387:\n        /* \"#utility.yul\":5558:5674   */\n      swap1\n      pop\n        /* \"#utility.yul\":5308:5681   */\n      swap3\n      swap2\n      pop\n      pop\n      jump\t// out\n        /* \"#utility.yul\":5687:5805   */\n    tag_294:\n        /* \"#utility.yul\":5774:5798   */\n      tag_389\n        /* \"#utility.yul\":5792:5797   */\n      dup2\n        /* \"#utility.yul\":5774:5798   */\n      tag_282\n      jump\t// in\n    tag_389:\n        /* \"#utility.yul\":5769:5772   */\n      dup3\n        /* \"#utility.yul\":5762:5799   */\n      mstore\n        /* \"#utility.yul\":5687:5805   */\n      pop\n      pop\n      jump\t// out\n        /* \"#utility.yul\":5811:6033   */\n    tag_47:\n        /* \"#utility.yul\":5904:5908   */\n      0x00\n        /* \"#utility.yul\":5942:5944   */\n      0x20\n        /* \"#utility.yul\":5931:5940   */\n      dup3\n        /* \"#utility.yul\":5927:5945   */\n      add\n        /* \"#utility.yul\":5919:5945   */\n      swap1\n      pop\n        /* \"#utility.yul\":5955:6026   */\n      tag_391\n        /* \"#utility.yul\":6023:6024   */\n      0x00\n        /* \"#utility.yul\":6012:6021   */\n      dup4\n        /* \"#utility.yul\":6008:6025   */\n      add\n        /* \"#utility.yul\":5999:6005   */\n      dup5\n        /* \"#utility.yul\":5955:6026   */\n      tag_294\n      jump\t// in\n    tag_391:\n        /* \"#utility.yul\":5811:6033   */\n      swap3\n      swap2\n      pop\n      pop\n      jump\t// out\n        /* \"#utility.yul\":6039:6658   */\n    tag_50:\n        /* \"#utility.yul\":6116:6122   */\n      0x00\n        /* \"#utility.yul\":6124:6130   */\n      dup1\n        /* \"#utility.yul\":6132:6138   */\n      0x00\n        /* \"#utility.yul\":6181:6183   */\n      0x60\n        /* \"#utility.yul\":6169:6178   */\n      dup5\n        /* \"#utility.yul\":6160:6167   */\n      dup7\n        /* \"#utility.yul\":6156:6179   */\n      sub\n        /* \"#utility.yul\":6152:6184   */\n      slt\n        /* \"#utility.yul\":6149:6268   */\n      iszero\n      tag_393\n      jumpi\n        /* \"#utility.yul\":6187:6266   */\n      tag_394\n      tag_271\n      jump\t// in\n    tag_394:\n        /* \"#utility.yul\":6149:6268   */\n    tag_393:\n        /* \"#utility.yul\":6307:6308   */\n      0x00\n        /* \"#utility.yul\":6332:6385   */\n      tag_395\n        /* \"#utility.yul\":6377:6384   */\n      dup7\n        /* \"#utility.yul\":6368:6374   */\n      dup3\n        /* \"#utility.yul\":6357:6366   */\n      dup8\n        /* \"#utility.yul\":6353:6375   */\n      add\n        /* \"#utility.yul\":6332:6385   */\n      tag_276\n      jump\t// in\n    tag_395:\n        /* \"#utility.yul\":6322:6385   */\n      swap4\n      pop\n        /* \"#utility.yul\":6278:6395   */\n      pop\n        /* \"#utility.yul\":6434:6436   */\n      0x20\n        /* \"#utility.yul\":6460:6513   */\n      tag_396\n        /* \"#utility.yul\":6505:6512   */\n      dup7\n        /* \"#utility.yul\":6496:6502   */\n      dup3\n        /* \"#utility.yul\":6485:6494   */\n      dup8\n        /* \"#utility.yul\":6481:6503   */\n      add\n        /* \"#utility.yul\":6460:6513   */\n      tag_276\n      jump\t// in\n    tag_396:\n        /* \"#utility.yul\":6450:6513   */\n      swap3\n      pop\n        /* \"#utility.yul\":6405:6523   */\n      pop\n        /* \"#utility.yul\":6562:6564   */\n      0x40\n        /* \"#utility.yul\":6588:6641   */\n      tag_397\n        /* \"#utility.yul\":6633:6640   */\n      dup7\n        /* \"#utility.yul\":6624:6630   */\n      dup3\n        /* \"#utility.yul\":6613:6622   */\n      dup8\n        /* \"#utility.yul\":6609:6631   */\n      add\n        /* \"#utility.yul\":6588:6641   */\n      tag_284\n      jump\t// in\n    tag_397:\n        /* \"#utility.yul\":6578:6641   */\n      swap2\n      pop\n        /* \"#utility.yul\":6533:6651   */\n      pop\n        /* \"#utility.yul\":6039:6658   */\n      swap3\n      pop\n      swap3\n      pop\n      swap3\n      jump\t// out\n        /* \"#utility.yul\":6664:6750   */\n    tag_295:\n        /* \"#utility.yul\":6699:6706   */\n      0x00\n        /* \"#utility.yul\":6739:6743   */\n      0xff\n        /* \"#utility.yul\":6732:6737   */\n      dup3\n        /* \"#utility.yul\":6728:6744   */\n      and\n        /* \"#utility.yul\":6717:6744   */\n      swap1\n      pop\n        /* \"#utility.yul\":6664:6750   */\n      swap2\n      swap1\n      pop\n      jump\t// out\n        /* \"#utility.yul\":6756:6868   */\n    tag_296:\n        /* \"#utility.yul\":6839:6861   */\n      tag_400\n        /* \"#utility.yul\":6855:6860   */\n      dup2\n        /* \"#utility.yul\":6839:6861   */\n      tag_295\n      jump\t// in\n    tag_400:\n        /* \"#utility.yul\":6834:6837   */\n      dup3\n        /* \"#utility.yul\":6827:6862   */\n      mstore\n        /* \"#utility.yul\":6756:6868   */\n      pop\n      pop\n      jump\t// out\n        /* \"#utility.yul\":6874:7088   */\n    tag_56:\n        /* \"#utility.yul\":6963:6967   */\n      0x00\n        /* \"#utility.yul\":7001:7003   */\n      0x20\n        /* \"#utility.yul\":6990:6999   */\n      dup3\n        /* \"#utility.yul\":6986:7004   */\n      add\n        /* \"#utility.yul\":6978:7004   */\n      swap1\n      pop\n        /* \"#utility.yul\":7014:7081   */\n      tag_402\n        /* \"#utility.yul\":7078:7079   */\n      0x00\n        /* \"#utility.yul\":7067:7076   */\n      dup4\n        /* \"#utility.yul\":7063:7080   */\n      add\n        /* \"#utility.yul\":7054:7060   */\n      dup5\n        /* \"#utility.yul\":7014:7081   */\n      tag_296\n      jump\t// in\n    tag_402:\n        /* \"#utility.yul\":6874:7088   */\n      swap3\n      swap2\n      pop\n      pop\n      jump\t// out\n        /* \"#utility.yul\":7094:7212   */\n    tag_297:\n        /* \"#utility.yul\":7181:7205   */\n      tag_404\n        /* \"#utility.yul\":7199:7204   */\n      dup2\n        /* \"#utility.yul\":7181:7205   */\n      tag_274\n      jump\t// in\n    tag_404:\n        /* \"#utility.yul\":7176:7179   */\n      dup3\n        /* \"#utility.yul\":7169:7206   */\n      mstore\n        /* \"#utility.yul\":7094:7212   */\n      pop\n      pop\n      jump\t// out\n        /* \"#utility.yul\":7218:7440   */\n    tag_70:\n        /* \"#utility.yul\":7311:7315   */\n      0x00\n        /* \"#utility.yul\":7349:7351   */\n      0x20\n        /* \"#utility.yul\":7338:7347   */\n      dup3\n        /* \"#utility.yul\":7334:7352   */\n      add\n        /* \"#utility.yul\":7326:7352   */\n      swap1\n      pop\n        /* \"#utility.yul\":7362:7433   */\n      tag_406\n        /* \"#utility.yul\":7430:7431   */\n      0x00\n        /* \"#utility.yul\":7419:7428   */\n      dup4\n        /* \"#utility.yul\":7415:7432   */\n      add\n        /* \"#utility.yul\":7406:7412   */\n      dup5\n        /* \"#utility.yul\":7362:7433   */\n      tag_297\n      jump\t// in\n    tag_406:\n        /* \"#utility.yul\":7218:7440   */\n      swap3\n      swap2\n      pop\n      pop\n      jump\t// out\n        /* \"#utility.yul\":7446:7775   */\n    tag_76:\n        /* \"#utility.yul\":7505:7511   */\n      0x00\n        /* \"#utility.yul\":7554:7556   */\n      0x20\n        /* \"#utility.yul\":7542:7551   */\n      dup3\n        /* \"#utility.yul\":7533:7540   */\n      dup5\n        /* \"#utility.yul\":7529:7552   */\n      sub\n        /* \"#utility.yul\":7525:7557   */\n      slt\n        /* \"#utility.yul\":7522:7641   */\n      iszero\n      tag_408\n      jumpi\n        /* \"#utility.yul\":7560:7639   */\n      tag_409\n      tag_271\n      jump\t// in\n    tag_409:\n        /* \"#utility.yul\":7522:7641   */\n    tag_408:\n        /* \"#utility.yul\":7680:7681   */\n      0x00\n        /* \"#utility.yul\":7705:7758   */\n      tag_410\n        /* \"#utility.yul\":7750:7757   */\n      dup5\n        /* \"#utility.yul\":7741:7747   */\n      dup3\n        /* \"#utility.yul\":7730:7739   */\n      dup6\n        /* \"#utility.yul\":7726:7748   */\n      add\n        /* \"#utility.yul\":7705:7758   */\n      tag_284\n      jump\t// in\n    tag_410:\n        /* \"#utility.yul\":7695:7758   */\n      swap2\n      pop\n        /* \"#utility.yul\":7651:7768   */\n      pop\n        /* \"#utility.yul\":7446:7775   */\n      swap3\n      swap2\n      pop\n      pop\n      jump\t// out\n        /* \"#utility.yul\":7781:8255   */\n    tag_98:\n        /* \"#utility.yul\":7849:7855   */\n      0x00\n        /* \"#utility.yul\":7857:7863   */\n      dup1\n        /* \"#utility.yul\":7906:7908   */\n      0x40\n        /* \"#utility.yul\":7894:7903   */\n      dup4\n        /* \"#utility.yul\":7885:7892   */\n      dup6\n        /* \"#utility.yul\":7881:7904   */\n      sub\n        /* \"#utility.yul\":7877:7909   */\n      slt\n        /* \"#utility.yul\":7874:7993   */\n      iszero\n      tag_412\n      jumpi\n        /* \"#utility.yul\":7912:7991   */\n      tag_413\n      tag_271\n      jump\t// in\n    tag_413:\n        /* \"#utility.yul\":7874:7993   */\n    tag_412:\n        /* \"#utility.yul\":8032:8033   */\n      0x00\n        /* \"#utility.yul\":8057:8110   */\n      tag_414\n        /* \"#utility.yul\":8102:8109   */\n      dup6\n        /* \"#utility.yul\":8093:8099   */\n      dup3\n        /* \"#utility.yul\":8082:8091   */\n      dup7\n        /* \"#utility.yul\":8078:8100   */\n      add\n        /* \"#utility.yul\":8057:8110   */\n      tag_276\n      jump\t// in\n    tag_414:\n        /* \"#utility.yul\":8047:8110   */\n      swap3\n      pop\n        /* \"#utility.yul\":8003:8120   */\n      pop\n        /* \"#utility.yul\":8159:8161   */\n      0x20\n        /* \"#utility.yul\":8185:8238   */\n      tag_415\n        /* \"#utility.yul\":8230:8237   */\n      dup6\n        /* \"#utility.yul\":8221:8227   */\n      dup3\n        /* \"#utility.yul\":8210:8219   */\n      dup7\n        /* \"#utility.yul\":8206:8228   */\n      add\n        /* \"#utility.yul\":8185:8238   */\n      tag_276\n      jump\t// in\n    tag_415:\n        /* \"#utility.yul\":8175:8238   */\n      swap2\n      pop\n        /* \"#utility.yul\":8130:8248   */\n      pop\n        /* \"#utility.yul\":7781:8255   */\n      swap3\n      pop\n      swap3\n      swap1\n      pop\n      jump\t// out\n        /* \"#utility.yul\":8261:8441   */\n    tag_113:\n        /* \"#utility.yul\":8309:8386   */\n      0x4e487b7100000000000000000000000000000000000000000000000000000000\n        /* \"#utility.yul\":8306:8307   */\n      0x00\n        /* \"#utility.yul\":8299:8387   */\n      mstore\n        /* \"#utility.yul\":8406:8410   */\n      0x32\n        /* \"#utility.yul\":8403:8404   */\n      0x04\n        /* \"#utility.yul\":8396:8411   */\n      mstore\n        /* \"#utility.yul\":8430:8434   */\n      0x24\n        /* \"#utility.yul\":8427:8428   */\n      0x00\n        /* \"#utility.yul\":8420:8435   */\n      revert\n        /* \"#utility.yul\":8447:8627   */\n    tag_298:\n        /* \"#utility.yul\":8495:8572   */\n      0x4e487b7100000000000000000000000000000000000000000000000000000000\n        /* \"#utility.yul\":8492:8493   */\n      0x00\n        /* \"#utility.yul\":8485:8573   */\n      mstore\n        /* \"#utility.yul\":8592:8596   */\n      0x22\n        /* \"#utility.yul\":8589:8590   */\n      0x04\n        /* \"#utility.yul\":8582:8597   */\n      mstore\n        /* \"#utility.yul\":8616:8620   */\n      0x24\n        /* \"#utility.yul\":8613:8614   */\n      0x00\n        /* \"#utility.yul\":8606:8621   */\n      revert\n        /* \"#utility.yul\":8633:8953   */\n    tag_121:\n        /* \"#utility.yul\":8677:8683   */\n      0x00\n        /* \"#utility.yul\":8714:8715   */\n      0x02\n        /* \"#utility.yul\":8708:8712   */\n      dup3\n        /* \"#utility.yul\":8704:8716   */\n      div\n        /* \"#utility.yul\":8694:8716   */\n      swap1\n      pop\n        /* \"#utility.yul\":8761:8762   */\n      0x01\n        /* \"#utility.yul\":8755:8759   */\n      dup3\n        /* \"#utility.yul\":8751:8763   */\n      and\n        /* \"#utility.yul\":8782:8800   */\n      dup1\n        /* \"#utility.yul\":8772:8853   */\n      tag_419\n      jumpi\n        /* \"#utility.yul\":8838:8842   */\n      0x7f\n        /* \"#utility.yul\":8830:8836   */\n      dup3\n        /* \"#utility.yul\":8826:8843   */\n      and\n        /* \"#utility.yul\":8816:8843   */\n      swap2\n      pop\n        /* \"#utility.yul\":8772:8853   */\n    tag_419:\n        /* \"#utility.yul\":8900:8902   */\n      0x20\n        /* \"#utility.yul\":8892:8898   */\n      dup3\n        /* \"#utility.yul\":8889:8903   */\n      lt\n        /* \"#utility.yul\":8869:8887   */\n      dup2\n        /* \"#utility.yul\":8866:8904   */\n      sub\n        /* \"#utility.yul\":8863:8947   */\n      tag_420\n      jumpi\n        /* \"#utility.yul\":8919:8937   */\n      tag_421\n      tag_298\n      jump\t// in\n    tag_421:\n        /* \"#utility.yul\":8863:8947   */\n    tag_420:\n        /* \"#utility.yul\":8684:8953   */\n      pop\n        /* \"#utility.yul\":8633:8953   */\n      swap2\n      swap1\n      pop\n      jump\t// out\n        /* \"#utility.yul\":8959:9139   */\n    tag_299:\n        /* \"#utility.yul\":9007:9084   */\n      0x4e487b7100000000000000000000000000000000000000000000000000000000\n        /* \"#utility.yul\":9004:9005   */\n      0x00\n        /* \"#utility.yul\":8997:9085   */\n      mstore\n        /* \"#utility.yul\":9104:9108   */\n      0x11\n        /* \"#utility.yul\":9101:9102   */\n      0x04\n        /* \"#utility.yul\":9094:9109   */\n      mstore\n        /* \"#utility.yul\":9128:9132   */\n      0x24\n        /* \"#utility.yul\":9125:9126   */\n      0x00\n        /* \"#utility.yul\":9118:9133   */\n      revert\n        /* \"#utility.yul\":9145:9336   */\n    tag_147:\n        /* \"#utility.yul\":9185:9188   */\n      0x00\n        /* \"#utility.yul\":9204:9224   */\n      tag_424\n        /* \"#utility.yul\":9222:9223   */\n      dup3\n        /* \"#utility.yul\":9204:9224   */\n      tag_282\n      jump\t// in\n    tag_424:\n        /* \"#utility.yul\":9199:9224   */\n      swap2\n      pop\n        /* \"#utility.yul\":9238:9258   */\n      tag_425\n        /* \"#utility.yul\":9256:9257   */\n      dup4\n        /* \"#utility.yul\":9238:9258   */\n      tag_282\n      jump\t// in\n    tag_425:\n        /* \"#utility.yul\":9233:9258   */\n      swap3\n      pop\n        /* \"#utility.yul\":9281:9282   */\n      dup3\n        /* \"#utility.yul\":9278:9279   */\n      dup3\n        /* \"#utility.yul\":9274:9283   */\n      add\n        /* \"#utility.yul\":9267:9283   */\n      swap1\n      pop\n        /* \"#utility.yul\":9302:9305   */\n      dup1\n        /* \"#utility.yul\":9299:9300   */\n      dup3\n        /* \"#utility.yul\":9296:9306   */\n      gt\n        /* \"#utility.yul\":9293:9329   */\n      iszero\n      tag_426\n      jumpi\n        /* \"#utility.yul\":9309:9327   */\n      tag_427\n      tag_299\n      jump\t// in\n    tag_427:\n        /* \"#utility.yul\":9293:9329   */\n    tag_426:\n        /* \"#utility.yul\":9145:9336   */\n      swap3\n      swap2\n      pop\n      pop\n      jump\t// out\n        /* \"#utility.yul\":9342:9566   */\n    tag_300:\n        /* \"#utility.yul\":9482:9516   */\n      0x45524332303a2064656372656173656420616c6c6f77616e63652062656c6f77\n        /* \"#utility.yul\":9478:9479   */\n      0x00\n        /* \"#utility.yul\":9470:9476   */\n      dup3\n        /* \"#utility.yul\":9466:9480   */\n      add\n        /* \"#utility.yul\":9459:9517   */\n      mstore\n        /* \"#utility.yul\":9551:9558   */\n      0x207a65726f000000000000000000000000000000000000000000000000000000\n        /* \"#utility.yul\":9546:9548   */\n      0x20\n        /* \"#utility.yul\":9538:9544   */\n      dup3\n        /* \"#utility.yul\":9534:9549   */\n      add\n        /* \"#utility.yul\":9527:9559   */\n      mstore\n        /* \"#utility.yul\":9342:9566   */\n      pop\n      jump\t// out\n        /* \"#utility.yul\":9572:9938   */\n    tag_301:\n        /* \"#utility.yul\":9714:9717   */\n      0x00\n        /* \"#utility.yul\":9735:9802   */\n      tag_430\n        /* \"#utility.yul\":9799:9801   */\n      0x25\n        /* \"#utility.yul\":9794:9797   */\n      dup4\n        /* \"#utility.yul\":9735:9802   */\n      tag_278\n      jump\t// in\n    tag_430:\n        /* \"#utility.yul\":9728:9802   */\n      swap2\n      pop\n        /* \"#utility.yul\":9811:9904   */\n      tag_431\n        /* \"#utility.yul\":9900:9903   */\n      dup3\n        /* \"#utility.yul\":9811:9904   */\n      tag_300\n      jump\t// in\n    tag_431:\n        /* \"#utility.yul\":9929:9931   */\n      0x40\n        /* \"#utility.yul\":9924:9927   */\n      dup3\n        /* \"#utility.yul\":9920:9932   */\n      add\n        /* \"#utility.yul\":9913:9932   */\n      swap1\n      pop\n        /* \"#utility.yul\":9572:9938   */\n      swap2\n      swap1\n      pop\n      jump\t// out\n        /* \"#utility.yul\":9944:10363   */\n    tag_172:\n        /* \"#utility.yul\":10110:10114   */\n      0x00\n        /* \"#utility.yul\":10148:10150   */\n      0x20\n        /* \"#utility.yul\":10137:10146   */\n      dup3\n        /* \"#utility.yul\":10133:10151   */\n      add\n        /* \"#utility.yul\":10125:10151   */\n      swap1\n      pop\n        /* \"#utility.yul\":10197:10206   */\n      dup2\n        /* \"#utility.yul\":10191:10195   */\n      dup2\n        /* \"#utility.yul\":10187:10207   */\n      sub\n        /* \"#utility.yul\":10183:10184   */\n      0x00\n        /* \"#utility.yul\":10172:10181   */\n      dup4\n        /* \"#utility.yul\":10168:10185   */\n      add\n        /* \"#utility.yul\":10161:10208   */\n      mstore\n        /* \"#utility.yul\":10225:10356   */\n      tag_433\n        /* \"#utility.yul\":10351:10355   */\n      dup2\n        /* \"#utility.yul\":10225:10356   */\n      tag_301\n      jump\t// in\n    tag_433:\n        /* \"#utility.yul\":10217:10356   */\n      swap1\n      pop\n        /* \"#utility.yul\":9944:10363   */\n      swap2\n      swap1\n      pop\n      jump\t// out\n        /* \"#utility.yul\":10369:10546   */\n    tag_302:\n        /* \"#utility.yul\":10509:10538   */\n      0x6d73672e73656e646572206973206e6f74207468652070617965720000000000\n        /* \"#utility.yul\":10505:10506   */\n      0x00\n        /* \"#utility.yul\":10497:10503   */\n      dup3\n        /* \"#utility.yul\":10493:10507   */\n      add\n        /* \"#utility.yul\":10486:10539   */\n      mstore\n        /* \"#utility.yul\":10369:10546   */\n      pop\n      jump\t// out\n        /* \"#utility.yul\":10552:10918   */\n    tag_303:\n        /* \"#utility.yul\":10694:10697   */\n      0x00\n        /* \"#utility.yul\":10715:10782   */\n      tag_436\n        /* \"#utility.yul\":10779:10781   */\n      0x1b\n        /* \"#utility.yul\":10774:10777   */\n      dup4\n        /* \"#utility.yul\":10715:10782   */\n      tag_278\n      jump\t// in\n    tag_436:\n        /* \"#utility.yul\":10708:10782   */\n      swap2\n      pop\n        /* \"#utility.yul\":10791:10884   */\n      tag_437\n        /* \"#utility.yul\":10880:10883   */\n      dup3\n        /* \"#utility.yul\":10791:10884   */\n      tag_302\n      jump\t// in\n    tag_437:\n        /* \"#utility.yul\":10909:10911   */\n      0x20\n        /* \"#utility.yul\":10904:10907   */\n      dup3\n        /* \"#utility.yul\":10900:10912   */\n      add\n        /* \"#utility.yul\":10893:10912   */\n      swap1\n      pop\n        /* \"#utility.yul\":10552:10918   */\n      swap2\n      swap1\n      pop\n      jump\t// out\n        /* \"#utility.yul\":10924:11343   */\n    tag_191:\n        /* \"#utility.yul\":11090:11094   */\n      0x00\n        /* \"#utility.yul\":11128:11130   */\n      0x20\n        /* \"#utility.yul\":11117:11126   */\n      dup3\n        /* \"#utility.yul\":11113:11131   */\n      add\n        /* \"#utility.yul\":11105:11131   */\n      swap1\n      pop\n        /* \"#utility.yul\":11177:11186   */\n      dup2\n        /* \"#utility.yul\":11171:11175   */\n      dup2\n        /* \"#utility.yul\":11167:11187   */\n      sub\n        /* \"#utility.yul\":11163:11164   */\n      0x00\n        /* \"#utility.yul\":11152:11161   */\n      dup4\n        /* \"#utility.yul\":11148:11165   */\n      add\n        /* \"#utility.yul\":11141:11188   */\n      mstore\n        /* \"#utility.yul\":11205:11336   */\n      tag_439\n        /* \"#utility.yul\":11331:11335   */\n      dup2\n        /* \"#utility.yul\":11205:11336   */\n      tag_303\n      jump\t// in\n    tag_439:\n        /* \"#utility.yul\":11197:11336   */\n      swap1\n      pop\n        /* \"#utility.yul\":10924:11343   */\n      swap2\n      swap1\n      pop\n      jump\t// out\n        /* \"#utility.yul\":11349:11574   */\n    tag_304:\n        /* \"#utility.yul\":11489:11523   */\n      0x4f776e61626c653a206e6577206f776e657220697320746865207a65726f2061\n        /* \"#utility.yul\":11485:11486   */\n      0x00\n        /* \"#utility.yul\":11477:11483   */\n      dup3\n        /* \"#utility.yul\":11473:11487   */\n      add\n        /* \"#utility.yul\":11466:11524   */\n      mstore\n        /* \"#utility.yul\":11558:11566   */\n      0x6464726573730000000000000000000000000000000000000000000000000000\n        /* \"#utility.yul\":11553:11555   */\n      0x20\n        /* \"#utility.yul\":11545:11551   */\n      dup3\n        /* \"#utility.yul\":11541:11556   */\n      add\n        /* \"#utility.yul\":11534:11567   */\n      mstore\n        /* \"#utility.yul\":11349:11574   */\n      pop\n      jump\t// out\n        /* \"#utility.yul\":11580:11946   */\n    tag_305:\n        /* \"#utility.yul\":11722:11725   */\n      0x00\n        /* \"#utility.yul\":11743:11810   */\n      tag_442\n        /* \"#utility.yul\":11807:11809   */\n      0x26\n        /* \"#utility.yul\":11802:11805   */\n      dup4\n        /* \"#utility.yul\":11743:11810   */\n      tag_278\n      jump\t// in\n    tag_442:\n        /* \"#utility.yul\":11736:11810   */\n      swap2\n      pop\n        /* \"#utility.yul\":11819:11912   */\n      tag_443\n        /* \"#utility.yul\":11908:11911   */\n      dup3\n        /* \"#utility.yul\":11819:11912   */\n      tag_304\n      jump\t// in\n    tag_443:\n        /* \"#utility.yul\":11937:11939   */\n      0x40\n        /* \"#utility.yul\":11932:11935   */\n      dup3\n        /* \"#utility.yul\":11928:11940   */\n      add\n        /* \"#utility.yul\":11921:11940   */\n      swap1\n      pop\n        /* \"#utility.yul\":11580:11946   */\n      swap2\n      swap1\n      pop\n      jump\t// out\n        /* \"#utility.yul\":11952:12371   */\n    tag_210:\n        /* \"#utility.yul\":12118:12122   */\n      0x00\n        /* \"#utility.yul\":12156:12158   */\n      0x20\n        /* \"#utility.yul\":12145:12154   */\n      dup3\n        /* \"#utility.yul\":12141:12159   */\n      add\n        /* \"#utility.yul\":12133:12159   */\n      swap1\n      pop\n        /* \"#utility.yul\":12205:12214   */\n      dup2\n        /* \"#utility.yul\":12199:12203   */\n      dup2\n        /* \"#utility.yul\":12195:12215   */\n      sub\n        /* \"#utility.yul\":12191:12192   */\n      0x00\n        /* \"#utility.yul\":12180:12189   */\n      dup4\n        /* \"#utility.yul\":12176:12193   */\n      add\n        /* \"#utility.yul\":12169:12216   */\n      mstore\n        /* \"#utility.yul\":12233:12364   */\n      tag_445\n        /* \"#utility.yul\":12359:12363   */\n      dup2\n        /* \"#utility.yul\":12233:12364   */\n      tag_305\n      jump\t// in\n    tag_445:\n        /* \"#utility.yul\":12225:12364   */\n      swap1\n      pop\n        /* \"#utility.yul\":11952:12371   */\n      swap2\n      swap1\n      pop\n      jump\t// out\n        /* \"#utility.yul\":12377:12559   */\n    tag_306:\n        /* \"#utility.yul\":12517:12551   */\n      0x4f776e61626c653a2063616c6c6572206973206e6f7420746865206f776e6572\n        /* \"#utility.yul\":12513:12514   */\n      0x00\n        /* \"#utility.yul\":12505:12511   */\n      dup3\n        /* \"#utility.yul\":12501:12515   */\n      add\n        /* \"#utility.yul\":12494:12552   */\n      mstore\n        /* \"#utility.yul\":12377:12559   */\n      pop\n      jump\t// out\n        /* \"#utility.yul\":12565:12931   */\n    tag_307:\n        /* \"#utility.yul\":12707:12710   */\n      0x00\n        /* \"#utility.yul\":12728:12795   */\n      tag_448\n        /* \"#utility.yul\":12792:12794   */\n      0x20\n        /* \"#utility.yul\":12787:12790   */\n      dup4\n        /* \"#utility.yul\":12728:12795   */\n      tag_278\n      jump\t// in\n    tag_448:\n        /* \"#utility.yul\":12721:12795   */\n      swap2\n      pop\n        /* \"#utility.yul\":12804:12897   */\n      tag_449\n        /* \"#utility.yul\":12893:12896   */\n      dup3\n        /* \"#utility.yul\":12804:12897   */\n      tag_306\n      jump\t// in\n    tag_449:\n        /* \"#utility.yul\":12922:12924   */\n      0x20\n        /* \"#utility.yul\":12917:12920   */\n      dup3\n        /* \"#utility.yul\":12913:12925   */\n      add\n        /* \"#utility.yul\":12906:12925   */\n      swap1\n      pop\n        /* \"#utility.yul\":12565:12931   */\n      swap2\n      swap1\n      pop\n      jump\t// out\n        /* \"#utility.yul\":12937:13356   */\n    tag_217:\n        /* \"#utility.yul\":13103:13107   */\n      0x00\n        /* \"#utility.yul\":13141:13143   */\n      0x20\n        /* \"#utility.yul\":13130:13139   */\n      dup3\n        /* \"#utility.yul\":13126:13144   */\n      add\n        /* \"#utility.yul\":13118:13144   */\n      swap1\n      pop\n        /* \"#utility.yul\":13190:13199   */\n      dup2\n        /* \"#utility.yul\":13184:13188   */\n      dup2\n        /* \"#utility.yul\":13180:13200   */\n      sub\n        /* \"#utility.yul\":13176:13177   */\n      0x00\n        /* \"#utility.yul\":13165:13174   */\n      dup4\n        /* \"#utility.yul\":13161:13178   */\n      add\n        /* \"#utility.yul\":13154:13201   */\n      mstore\n        /* \"#utility.yul\":13218:13349   */\n      tag_451\n        /* \"#utility.yul\":13344:13348   */\n      dup2\n        /* \"#utility.yul\":13218:13349   */\n      tag_307\n      jump\t// in\n    tag_451:\n        /* \"#utility.yul\":13210:13349   */\n      swap1\n      pop\n        /* \"#utility.yul\":12937:13356   */\n      swap2\n      swap1\n      pop\n      jump\t// out\n        /* \"#utility.yul\":13362:13585   */\n    tag_308:\n        /* \"#utility.yul\":13502:13536   */\n      0x45524332303a20617070726f76652066726f6d20746865207a65726f20616464\n        /* \"#utility.yul\":13498:13499   */\n      0x00\n        /* \"#utility.yul\":13490:13496   */\n      dup3\n        /* \"#utility.yul\":13486:13500   */\n      add\n        /* \"#utility.yul\":13479:13537   */\n      mstore\n        /* \"#utility.yul\":13571:13577   */\n      0x7265737300000000000000000000000000000000000000000000000000000000\n        /* \"#utility.yul\":13566:13568   */\n      0x20\n        /* \"#utility.yul\":13558:13564   */\n      dup3\n        /* \"#utility.yul\":13554:13569   */\n      add\n        /* \"#utility.yul\":13547:13578   */\n      mstore\n        /* \"#utility.yul\":13362:13585   */\n      pop\n      jump\t// out\n        /* \"#utility.yul\":13591:13957   */\n    tag_309:\n        /* \"#utility.yul\":13733:13736   */\n      0x00\n        /* \"#utility.yul\":13754:13821   */\n      tag_454\n        /* \"#utility.yul\":13818:13820   */\n      0x24\n        /* \"#utility.yul\":13813:13816   */\n      dup4\n        /* \"#utility.yul\":13754:13821   */\n      tag_278\n      jump\t// in\n    tag_454:\n        /* \"#utility.yul\":13747:13821   */\n      swap2\n      pop\n        /* \"#utility.yul\":13830:13923   */\n      tag_455\n        /* \"#utility.yul\":13919:13922   */\n      dup3\n        /* \"#utility.yul\":13830:13923   */\n      tag_308\n      jump\t// in\n    tag_455:\n        /* \"#utility.yul\":13948:13950   */\n      0x40\n        /* \"#utility.yul\":13943:13946   */\n      dup3\n        /* \"#utility.yul\":13939:13951   */\n      add\n        /* \"#utility.yul\":13932:13951   */\n      swap1\n      pop\n        /* \"#utility.yul\":13591:13957   */\n      swap2\n      swap1\n      pop\n      jump\t// out\n        /* \"#utility.yul\":13963:14382   */\n    tag_222:\n        /* \"#utility.yul\":14129:14133   */\n      0x00\n        /* \"#utility.yul\":14167:14169   */\n      0x20\n        /* \"#utility.yul\":14156:14165   */\n      dup3\n        /* \"#utility.yul\":14152:14170   */\n      add\n        /* \"#utility.yul\":14144:14170   */\n      swap1\n      pop\n        /* \"#utility.yul\":14216:14225   */\n      dup2\n        /* \"#utility.yul\":14210:14214   */\n      dup2\n        /* \"#utility.yul\":14206:14226   */\n      sub\n        /* \"#utility.yul\":14202:14203   */\n      0x00\n        /* \"#utility.yul\":14191:14200   */\n      dup4\n        /* \"#utility.yul\":14187:14204   */\n      add\n        /* \"#utility.yul\":14180:14227   */\n      mstore\n        /* \"#utility.yul\":14244:14375   */\n      tag_457\n        /* \"#utility.yul\":14370:14374   */\n      dup2\n        /* \"#utility.yul\":14244:14375   */\n      tag_309\n      jump\t// in\n    tag_457:\n        /* \"#utility.yul\":14236:14375   */\n      swap1\n      pop\n        /* \"#utility.yul\":13963:14382   */\n      swap2\n      swap1\n      pop\n      jump\t// out\n        /* \"#utility.yul\":14388:14609   */\n    tag_310:\n        /* \"#utility.yul\":14528:14562   */\n      0x45524332303a20617070726f766520746f20746865207a65726f206164647265\n        /* \"#utility.yul\":14524:14525   */\n      0x00\n        /* \"#utility.yul\":14516:14522   */\n      dup3\n        /* \"#utility.yul\":14512:14526   */\n      add\n        /* \"#utility.yul\":14505:14563   */\n      mstore\n        /* \"#utility.yul\":14597:14601   */\n      0x7373000000000000000000000000000000000000000000000000000000000000\n        /* \"#utility.yul\":14592:14594   */\n      0x20\n        /* \"#utility.yul\":14584:14590   */\n      dup3\n        /* \"#utility.yul\":14580:14595   */\n      add\n        /* \"#utility.yul\":14573:14602   */\n      mstore\n        /* \"#utility.yul\":14388:14609   */\n      pop\n      jump\t// out\n        /* \"#utility.yul\":14615:14981   */\n    tag_311:\n        /* \"#utility.yul\":14757:14760   */\n      0x00\n        /* \"#utility.yul\":14778:14845   */\n      tag_460\n        /* \"#utility.yul\":14842:14844   */\n      0x22\n        /* \"#utility.yul\":14837:14840   */\n      dup4\n        /* \"#utility.yul\":14778:14845   */\n      tag_278\n      jump\t// in\n    tag_460:\n        /* \"#utility.yul\":14771:14845   */\n      swap2\n      pop\n        /* \"#utility.yul\":14854:14947   */\n      tag_461\n        /* \"#utility.yul\":14943:14946   */\n      dup3\n        /* \"#utility.yul\":14854:14947   */\n      tag_310\n      jump\t// in\n    tag_461:\n        /* \"#utility.yul\":14972:14974   */\n      0x40\n        /* \"#utility.yul\":14967:14970   */\n      dup3\n        /* \"#utility.yul\":14963:14975   */\n      add\n        /* \"#utility.yul\":14956:14975   */\n      swap1\n      pop\n        /* \"#utility.yul\":14615:14981   */\n      swap2\n      swap1\n      pop\n      jump\t// out\n        /* \"#utility.yul\":14987:15406   */\n    tag_225:\n        /* \"#utility.yul\":15153:15157   */\n      0x00\n        /* \"#utility.yul\":15191:15193   */\n      0x20\n        /* \"#utility.yul\":15180:15189   */\n      dup3\n        /* \"#utility.yul\":15176:15194   */\n      add\n        /* \"#utility.yul\":15168:15194   */\n      swap1\n      pop\n        /* \"#utility.yul\":15240:15249   */\n      dup2\n        /* \"#utility.yul\":15234:15238   */\n      dup2\n        /* \"#utility.yul\":15230:15250   */\n      sub\n        /* \"#utility.yul\":15226:15227   */\n      0x00\n        /* \"#utility.yul\":15215:15224   */\n      dup4\n        /* \"#utility.yul\":15211:15228   */\n      add\n        /* \"#utility.yul\":15204:15251   */\n      mstore\n        /* \"#utility.yul\":15268:15399   */\n      tag_463\n        /* \"#utility.yul\":15394:15398   */\n      dup2\n        /* \"#utility.yul\":15268:15399   */\n      tag_311\n      jump\t// in\n    tag_463:\n        /* \"#utility.yul\":15260:15399   */\n      swap1\n      pop\n        /* \"#utility.yul\":14987:15406   */\n      swap2\n      swap1\n      pop\n      jump\t// out\n        /* \"#utility.yul\":15412:15591   */\n    tag_312:\n        /* \"#utility.yul\":15552:15583   */\n      0x45524332303a20696e73756666696369656e7420616c6c6f77616e6365000000\n        /* \"#utility.yul\":15548:15549   */\n      0x00\n        /* \"#utility.yul\":15540:15546   */\n      dup3\n        /* \"#utility.yul\":15536:15550   */\n      add\n        /* \"#utility.yul\":15529:15584   */\n      mstore\n        /* \"#utility.yul\":15412:15591   */\n      pop\n      jump\t// out\n        /* \"#utility.yul\":15597:15963   */\n    tag_313:\n        /* \"#utility.yul\":15739:15742   */\n      0x00\n        /* \"#utility.yul\":15760:15827   */\n      tag_466\n        /* \"#utility.yul\":15824:15826   */\n      0x1d\n        /* \"#utility.yul\":15819:15822   */\n      dup4\n        /* \"#utility.yul\":15760:15827   */\n      tag_278\n      jump\t// in\n    tag_466:\n        /* \"#utility.yul\":15753:15827   */\n      swap2\n      pop\n        /* \"#utility.yul\":15836:15929   */\n      tag_467\n        /* \"#utility.yul\":15925:15928   */\n      dup3\n        /* \"#utility.yul\":15836:15929   */\n      tag_312\n      jump\t// in\n    tag_467:\n        /* \"#utility.yul\":15954:15956   */\n      0x20\n        /* \"#utility.yul\":15949:15952   */\n      dup3\n        /* \"#utility.yul\":15945:15957   */\n      add\n        /* \"#utility.yul\":15938:15957   */\n      swap1\n      pop\n        /* \"#utility.yul\":15597:15963   */\n      swap2\n      swap1\n      pop\n      jump\t// out\n        /* \"#utility.yul\":15969:16388   */\n    tag_232:\n        /* \"#utility.yul\":16135:16139   */\n      0x00\n        /* \"#utility.yul\":16173:16175   */\n      0x20\n        /* \"#utility.yul\":16162:16171   */\n      dup3\n        /* \"#utility.yul\":16158:16176   */\n      add\n        /* \"#utility.yul\":16150:16176   */\n      swap1\n      pop\n        /* \"#utility.yul\":16222:16231   */\n      dup2\n        /* \"#utility.yul\":16216:16220   */\n      dup2\n        /* \"#utility.yul\":16212:16232   */\n      sub\n        /* \"#utility.yul\":16208:16209   */\n      0x00\n        /* \"#utility.yul\":16197:16206   */\n      dup4\n        /* \"#utility.yul\":16193:16210   */\n      add\n        /* \"#utility.yul\":16186:16233   */\n      mstore\n        /* \"#utility.yul\":16250:16381   */\n      tag_469\n        /* \"#utility.yul\":16376:16380   */\n      dup2\n        /* \"#utility.yul\":16250:16381   */\n      tag_313\n      jump\t// in\n    tag_469:\n        /* \"#utility.yul\":16242:16381   */\n      swap1\n      pop\n        /* \"#utility.yul\":15969:16388   */\n      swap2\n      swap1\n      pop\n      jump\t// out\n        /* \"#utility.yul\":16394:16618   */\n    tag_314:\n        /* \"#utility.yul\":16534:16568   */\n      0x45524332303a207472616e736665722066726f6d20746865207a65726f206164\n        /* \"#utility.yul\":16530:16531   */\n      0x00\n        /* \"#utility.yul\":16522:16528   */\n      dup3\n        /* \"#utility.yul\":16518:16532   */\n      add\n        /* \"#utility.yul\":16511:16569   */\n      mstore\n        /* \"#utility.yul\":16603:16610   */\n      0x6472657373000000000000000000000000000000000000000000000000000000\n        /* \"#utility.yul\":16598:16600   */\n      0x20\n        /* \"#utility.yul\":16590:16596   */\n      dup3\n        /* \"#utility.yul\":16586:16601   */\n      add\n        /* \"#utility.yul\":16579:16611   */\n      mstore\n        /* \"#utility.yul\":16394:16618   */\n      pop\n      jump\t// out\n        /* \"#utility.yul\":16624:16990   */\n    tag_315:\n        /* \"#utility.yul\":16766:16769   */\n      0x00\n        /* \"#utility.yul\":16787:16854   */\n      tag_472\n        /* \"#utility.yul\":16851:16853   */\n      0x25\n        /* \"#utility.yul\":16846:16849   */\n      dup4\n        /* \"#utility.yul\":16787:16854   */\n      tag_278\n      jump\t// in\n    tag_472:\n        /* \"#utility.yul\":16780:16854   */\n      swap2\n      pop\n        /* \"#utility.yul\":16863:16956   */\n      tag_473\n        /* \"#utility.yul\":16952:16955   */\n      dup3\n        /* \"#utility.yul\":16863:16956   */\n      tag_314\n      jump\t// in\n    tag_473:\n        /* \"#utility.yul\":16981:16983   */\n      0x40\n        /* \"#utility.yul\":16976:16979   */\n      dup3\n        /* \"#utility.yul\":16972:16984   */\n      add\n        /* \"#utility.yul\":16965:16984   */\n      swap1\n      pop\n        /* \"#utility.yul\":16624:16990   */\n      swap2\n      swap1\n      pop\n      jump\t// out\n        /* \"#utility.yul\":16996:17415   */\n    tag_237:\n        /* \"#utility.yul\":17162:17166   */\n      0x00\n        /* \"#utility.yul\":17200:17202   */\n      0x20\n        /* \"#utility.yul\":17189:17198   */\n      dup3\n        /* \"#utility.yul\":17185:17203   */\n      add\n        /* \"#utility.yul\":17177:17203   */\n      swap1\n      pop\n        /* \"#utility.yul\":17249:17258   */\n      dup2\n        /* \"#utility.yul\":17243:17247   */\n      dup2\n        /* \"#utility.yul\":17239:17259   */\n      sub\n        /* \"#utility.yul\":17235:17236   */\n      0x00\n        /* \"#utility.yul\":17224:17233   */\n      dup4\n        /* \"#utility.yul\":17220:17237   */\n      add\n        /* \"#utility.yul\":17213:17260   */\n      mstore\n        /* \"#utility.yul\":17277:17408   */\n      tag_475\n        /* \"#utility.yul\":17403:17407   */\n      dup2\n        /* \"#utility.yul\":17277:17408   */\n      tag_315\n      jump\t// in\n    tag_475:\n        /* \"#utility.yul\":17269:17408   */\n      swap1\n      pop\n        /* \"#utility.yul\":16996:17415   */\n      swap2\n      swap1\n      pop\n      jump\t// out\n        /* \"#utility.yul\":17421:17643   */\n    tag_316:\n        /* \"#utility.yul\":17561:17595   */\n      0x45524332303a207472616e7366657220746f20746865207a65726f2061646472\n        /* \"#utility.yul\":17557:17558   */\n      0x00\n        /* \"#utility.yul\":17549:17555   */\n      dup3\n        /* \"#utility.yul\":17545:17559   */\n      add\n        /* \"#utility.yul\":17538:17596   */\n      mstore\n        /* \"#utility.yul\":17630:17635   */\n      0x6573730000000000000000000000000000000000000000000000000000000000\n        /* \"#utility.yul\":17625:17627   */\n      0x20\n        /* \"#utility.yul\":17617:17623   */\n      dup3\n        /* \"#utility.yul\":17613:17628   */\n      add\n        /* \"#utility.yul\":17606:17636   */\n      mstore\n        /* \"#utility.yul\":17421:17643   */\n      pop\n      jump\t// out\n        /* \"#utility.yul\":17649:18015   */\n    tag_317:\n        /* \"#utility.yul\":17791:17794   */\n      0x00\n        /* \"#utility.yul\":17812:17879   */\n      tag_478\n        /* \"#utility.yul\":17876:17878   */\n      0x23\n        /* \"#utility.yul\":17871:17874   */\n      dup4\n        /* \"#utility.yul\":17812:17879   */\n      tag_278\n      jump\t// in\n    tag_478:\n        /* \"#utility.yul\":17805:17879   */\n      swap2\n      pop\n        /* \"#utility.yul\":17888:17981   */\n      tag_479\n        /* \"#utility.yul\":17977:17980   */\n      dup3\n        /* \"#utility.yul\":17888:17981   */\n      tag_316\n      jump\t// in\n    tag_479:\n        /* \"#utility.yul\":18006:18008   */\n      0x40\n        /* \"#utility.yul\":18001:18004   */\n      dup3\n        /* \"#utility.yul\":17997:18009   */\n      add\n        /* \"#utility.yul\":17990:18009   */\n      swap1\n      pop\n        /* \"#utility.yul\":17649:18015   */\n      swap2\n      swap1\n      pop\n      jump\t// out\n        /* \"#utility.yul\":18021:18440   */\n    tag_240:\n        /* \"#utility.yul\":18187:18191   */\n      0x00\n        /* \"#utility.yul\":18225:18227   */\n      0x20\n        /* \"#utility.yul\":18214:18223   */\n      dup3\n        /* \"#utility.yul\":18210:18228   */\n      add\n        /* \"#utility.yul\":18202:18228   */\n      swap1\n      pop\n        /* \"#utility.yul\":18274:18283   */\n      dup2\n        /* \"#utility.yul\":18268:18272   */\n      dup2\n        /* \"#utility.yul\":18264:18284   */\n      sub\n        /* \"#utility.yul\":18260:18261   */\n      0x00\n        /* \"#utility.yul\":18249:18258   */\n      dup4\n        /* \"#utility.yul\":18245:18262   */\n      add\n        /* \"#utility.yul\":18238:18285   */\n      mstore\n        /* \"#utility.yul\":18302:18433   */\n      tag_481\n        /* \"#utility.yul\":18428:18432   */\n      dup2\n        /* \"#utility.yul\":18302:18433   */\n      tag_317\n      jump\t// in\n    tag_481:\n        /* \"#utility.yul\":18294:18433   */\n      swap1\n      pop\n        /* \"#utility.yul\":18021:18440   */\n      swap2\n      swap1\n      pop\n      jump\t// out\n        /* \"#utility.yul\":18446:18671   */\n    tag_318:\n        /* \"#utility.yul\":18586:18620   */\n      0x45524332303a207472616e7366657220616d6f756e7420657863656564732062\n        /* \"#utility.yul\":18582:18583   */\n      0x00\n        /* \"#utility.yul\":18574:18580   */\n      dup3\n        /* \"#utility.yul\":18570:18584   */\n      add\n        /* \"#utility.yul\":18563:18621   */\n      mstore\n        /* \"#utility.yul\":18655:18663   */\n      0x616c616e63650000000000000000000000000000000000000000000000000000\n        /* \"#utility.yul\":18650:18652   */\n      0x20\n        /* \"#utility.yul\":18642:18648   */\n      dup3\n        /* \"#utility.yul\":18638:18653   */\n      add\n        /* \"#utility.yul\":18631:18664   */\n      mstore\n        /* \"#utility.yul\":18446:18671   */\n      pop\n      jump\t// out\n        /* \"#utility.yul\":18677:19043   */\n    tag_319:\n        /* \"#utility.yul\":18819:18822   */\n      0x00\n        /* \"#utility.yul\":18840:18907   */\n      tag_484\n        /* \"#utility.yul\":18904:18906   */\n      0x26\n        /* \"#utility.yul\":18899:18902   */\n      dup4\n        /* \"#utility.yul\":18840:18907   */\n      tag_278\n      jump\t// in\n    tag_484:\n        /* \"#utility.yul\":18833:18907   */\n      swap2\n      pop\n        /* \"#utility.yul\":18916:19009   */\n      tag_485\n        /* \"#utility.yul\":19005:19008   */\n      dup3\n        /* \"#utility.yul\":18916:19009   */\n      tag_318\n      jump\t// in\n    tag_485:\n        /* \"#utility.yul\":19034:19036   */\n      0x40\n        /* \"#utility.yul\":19029:19032   */\n      dup3\n        /* \"#utility.yul\":19025:19037   */\n      add\n        /* \"#utility.yul\":19018:19037   */\n      swap1\n      pop\n        /* \"#utility.yul\":18677:19043   */\n      swap2\n      swap1\n      pop\n      jump\t// out\n        /* \"#utility.yul\":19049:19468   */\n    tag_245:\n        /* \"#utility.yul\":19215:19219   */\n      0x00\n        /* \"#utility.yul\":19253:19255   */\n      0x20\n        /* \"#utility.yul\":19242:19251   */\n      dup3\n        /* \"#utility.yul\":19238:19256   */\n      add\n        /* \"#utility.yul\":19230:19256   */\n      swap1\n      pop\n        /* \"#utility.yul\":19302:19311   */\n      dup2\n        /* \"#utility.yul\":19296:19300   */\n      dup2\n        /* \"#utility.yul\":19292:19312   */\n      sub\n        /* \"#utility.yul\":19288:19289   */\n      0x00\n        /* \"#utility.yul\":19277:19286   */\n      dup4\n        /* \"#utility.yul\":19273:19290   */\n      add\n        /* \"#utility.yul\":19266:19313   */\n      mstore\n        /* \"#utility.yul\":19330:19461   */\n      tag_487\n        /* \"#utility.yul\":19456:19460   */\n      dup2\n        /* \"#utility.yul\":19330:19461   */\n      tag_319\n      jump\t// in\n    tag_487:\n        /* \"#utility.yul\":19322:19461   */\n      swap1\n      pop\n        /* \"#utility.yul\":19049:19468   */\n      swap2\n      swap1\n      pop\n      jump\t// out\n        /* \"#utility.yul\":19474:19655   */\n    tag_320:\n        /* \"#utility.yul\":19614:19647   */\n      0x45524332303a206d696e7420746f20746865207a65726f206164647265737300\n        /* \"#utility.yul\":19610:19611   */\n      0x00\n        /* \"#utility.yul\":19602:19608   */\n      dup3\n        /* \"#utility.yul\":19598:19612   */\n      add\n        /* \"#utility.yul\":19591:19648   */\n      mstore\n        /* \"#utility.yul\":19474:19655   */\n      pop\n      jump\t// out\n        /* \"#utility.yul\":19661:20027   */\n    tag_321:\n        /* \"#utility.yul\":19803:19806   */\n      0x00\n        /* \"#utility.yul\":19824:19891   */\n      tag_490\n        /* \"#utility.yul\":19888:19890   */\n      0x1f\n        /* \"#utility.yul\":19883:19886   */\n      dup4\n        /* \"#utility.yul\":19824:19891   */\n      tag_278\n      jump\t// in\n    tag_490:\n        /* \"#utility.yul\":19817:19891   */\n      swap2\n      pop\n        /* \"#utility.yul\":19900:19993   */\n      tag_491\n        /* \"#utility.yul\":19989:19992   */\n      dup3\n        /* \"#utility.yul\":19900:19993   */\n      tag_320\n      jump\t// in\n    tag_491:\n        /* \"#utility.yul\":20018:20020   */\n      0x20\n        /* \"#utility.yul\":20013:20016   */\n      dup3\n        /* \"#utility.yul\":20009:20021   */\n      add\n        /* \"#utility.yul\":20002:20021   */\n      swap1\n      pop\n        /* \"#utility.yul\":19661:20027   */\n      swap2\n      swap1\n      pop\n      jump\t// out\n        /* \"#utility.yul\":20033:20452   */\n    tag_253:\n        /* \"#utility.yul\":20199:20203   */\n      0x00\n        /* \"#utility.yul\":20237:20239   */\n      0x20\n        /* \"#utility.yul\":20226:20235   */\n      dup3\n        /* \"#utility.yul\":20222:20240   */\n      add\n        /* \"#utility.yul\":20214:20240   */\n      swap1\n      pop\n        /* \"#utility.yul\":20286:20295   */\n      dup2\n        /* \"#utility.yul\":20280:20284   */\n      dup2\n        /* \"#utility.yul\":20276:20296   */\n      sub\n        /* \"#utility.yul\":20272:20273   */\n      0x00\n        /* \"#utility.yul\":20261:20270   */\n      dup4\n        /* \"#utility.yul\":20257:20274   */\n      add\n        /* \"#utility.yul\":20250:20297   */\n      mstore\n        /* \"#utility.yul\":20314:20445   */\n      tag_493\n        /* \"#utility.yul\":20440:20444   */\n      dup2\n        /* \"#utility.yul\":20314:20445   */\n      tag_321\n      jump\t// in\n    tag_493:\n        /* \"#utility.yul\":20306:20445   */\n      swap1\n      pop\n        /* \"#utility.yul\":20033:20452   */\n      swap2\n      swap1\n      pop\n      jump\t// out\n        /* \"#utility.yul\":20458:20678   */\n    tag_322:\n        /* \"#utility.yul\":20598:20632   */\n      0x45524332303a206275726e2066726f6d20746865207a65726f20616464726573\n        /* \"#utility.yul\":20594:20595   */\n      0x00\n        /* \"#utility.yul\":20586:20592   */\n      dup3\n        /* \"#utility.yul\":20582:20596   */\n      add\n        /* \"#utility.yul\":20575:20633   */\n      mstore\n        /* \"#utility.yul\":20667:20670   */\n      0x7300000000000000000000000000000000000000000000000000000000000000\n        /* \"#utility.yul\":20662:20664   */\n      0x20\n        /* \"#utility.yul\":20654:20660   */\n      dup3\n        /* \"#utility.yul\":20650:20665   */\n      add\n        /* \"#utility.yul\":20643:20671   */\n      mstore\n        /* \"#utility.yul\":20458:20678   */\n      pop\n      jump\t// out\n        /* \"#utility.yul\":20684:21050   */\n    tag_323:\n        /* \"#utility.yul\":20826:20829   */\n      0x00\n        /* \"#utility.yul\":20847:20914   */\n      tag_496\n        /* \"#utility.yul\":20911:20913   */\n      0x21\n        /* \"#utility.yul\":20906:20909   */\n      dup4\n        /* \"#utility.yul\":20847:20914   */\n      tag_278\n      jump\t// in\n    tag_496:\n        /* \"#utility.yul\":20840:20914   */\n      swap2\n      pop\n        /* \"#utility.yul\":20923:21016   */\n      tag_497\n        /* \"#utility.yul\":21012:21015   */\n      dup3\n        /* \"#utility.yul\":20923:21016   */\n      tag_322\n      jump\t// in\n    tag_497:\n        /* \"#utility.yul\":21041:21043   */\n      0x40\n        /* \"#utility.yul\":21036:21039   */\n      dup3\n        /* \"#utility.yul\":21032:21044   */\n      add\n        /* \"#utility.yul\":21025:21044   */\n      swap1\n      pop\n        /* \"#utility.yul\":20684:21050   */\n      swap2\n      swap1\n      pop\n      jump\t// out\n        /* \"#utility.yul\":21056:21475   */\n    tag_261:\n        /* \"#utility.yul\":21222:21226   */\n      0x00\n        /* \"#utility.yul\":21260:21262   */\n      0x20\n        /* \"#utility.yul\":21249:21258   */\n      dup3\n        /* \"#utility.yul\":21245:21263   */\n      add\n        /* \"#utility.yul\":21237:21263   */\n      swap1\n      pop\n        /* \"#utility.yul\":21309:21318   */\n      dup2\n        /* \"#utility.yul\":21303:21307   */\n      dup2\n        /* \"#utility.yul\":21299:21319   */\n      sub\n        /* \"#utility.yul\":21295:21296   */\n      0x00\n        /* \"#utility.yul\":21284:21293   */\n      dup4\n        /* \"#utility.yul\":21280:21297   */\n      add\n        /* \"#utility.yul\":21273:21320   */\n      mstore\n        /* \"#utility.yul\":21337:21468   */\n      tag_499\n        /* \"#utility.yul\":21463:21467   */\n      dup2\n        /* \"#utility.yul\":21337:21468   */\n      tag_323\n      jump\t// in\n    tag_499:\n        /* \"#utility.yul\":21329:21468   */\n      swap1\n      pop\n        /* \"#utility.yul\":21056:21475   */\n      swap2\n      swap1\n      pop\n      jump\t// out\n        /* \"#utility.yul\":21481:21702   */\n    tag_324:\n        /* \"#utility.yul\":21621:21655   */\n      0x45524332303a206275726e20616d6f756e7420657863656564732062616c616e\n        /* \"#utility.yul\":21617:21618   */\n      0x00\n        /* \"#utility.yul\":21609:21615   */\n      dup3\n        /* \"#utility.yul\":21605:21619   */\n      add\n        /* \"#utility.yul\":21598:21656   */\n      mstore\n        /* \"#utility.yul\":21690:21694   */\n      0x6365000000000000000000000000000000000000000000000000000000000000\n        /* \"#utility.yul\":21685:21687   */\n      0x20\n        /* \"#utility.yul\":21677:21683   */\n      dup3\n        /* \"#utility.yul\":21673:21688   */\n      add\n        /* \"#utility.yul\":21666:21695   */\n      mstore\n        /* \"#utility.yul\":21481:21702   */\n      pop\n      jump\t// out\n        /* \"#utility.yul\":21708:22074   */\n    tag_325:\n        /* \"#utility.yul\":21850:21853   */\n      0x00\n        /* \"#utility.yul\":21871:21938   */\n      tag_502\n        /* \"#utility.yul\":21935:21937   */\n      0x22\n        /* \"#utility.yul\":21930:21933   */\n      dup4\n        /* \"#utility.yul\":21871:21938   */\n      tag_278\n      jump\t// in\n    tag_502:\n        /* \"#utility.yul\":21864:21938   */\n      swap2\n      pop\n        /* \"#utility.yul\":21947:22040   */\n      tag_503\n        /* \"#utility.yul\":22036:22039   */\n      dup3\n        /* \"#utility.yul\":21947:22040   */\n      tag_324\n      jump\t// in\n    tag_503:\n        /* \"#utility.yul\":22065:22067   */\n      0x40\n        /* \"#utility.yul\":22060:22063   */\n      dup3\n        /* \"#utility.yul\":22056:22068   */\n      add\n        /* \"#utility.yul\":22049:22068   */\n      swap1\n      pop\n        /* \"#utility.yul\":21708:22074   */\n      swap2\n      swap1\n      pop\n      jump\t// out\n        /* \"#utility.yul\":22080:22499   */\n    tag_265:\n        /* \"#utility.yul\":22246:22250   */\n      0x00\n        /* \"#utility.yul\":22284:22286   */\n      0x20\n        /* \"#utility.yul\":22273:22282   */\n      dup3\n        /* \"#utility.yul\":22269:22287   */\n      add\n        /* \"#utility.yul\":22261:22287   */\n      swap1\n      pop\n        /* \"#utility.yul\":22333:22342   */\n      dup2\n        /* \"#utility.yul\":22327:22331   */\n      dup2\n        /* \"#utility.yul\":22323:22343   */\n      sub\n        /* \"#utility.yul\":22319:22320   */\n      0x00\n        /* \"#utility.yul\":22308:22317   */\n      dup4\n        /* \"#utility.yul\":22304:22321   */\n      add\n        /* \"#utility.yul\":22297:22344   */\n      mstore\n        /* \"#utility.yul\":22361:22492   */\n      tag_505\n        /* \"#utility.yul\":22487:22491   */\n      dup2\n        /* \"#utility.yul\":22361:22492   */\n      tag_325\n      jump\t// in\n    tag_505:\n        /* \"#utility.yul\":22353:22492   */\n      swap1\n      pop\n        /* \"#utility.yul\":22080:22499   */\n      swap2\n      swap1\n      pop\n      jump\t// out\n\n    auxdata: 0xa26469706673582212201272f1900941d2014d91132e802f4bc20ce2b79567b28383f0c64e1543bddabf64736f6c63430008190033\n}\n",
				"bytecode": {
					"linkReferences": {},
					"object": "608060405234801561000f575f80fd5b506040518060400160405280600781526020017f53686f436f696e000000000000000000000000000000000000000000000000008152506040518060400160405280600481526020017f53484f4300000000000000000000000000000000000000000000000000000000815250816003908161008b9190610458565b50806004908161009b9190610458565b5050506100ba6100af61012c60201b60201c565b61013360201b60201c565b60066100ca6101f660201b60201c565b908060018154018082558091505060019003905f5260205f20015f9091909190916101000a81548173ffffffffffffffffffffffffffffffffffffffff021916908373ffffffffffffffffffffffffffffffffffffffff160217905550610527565b5f33905090565b5f60055f9054906101000a900473ffffffffffffffffffffffffffffffffffffffff1690508160055f6101000a81548173ffffffffffffffffffffffffffffffffffffffff021916908373ffffffffffffffffffffffffffffffffffffffff1602179055508173ffffffffffffffffffffffffffffffffffffffff168173ffffffffffffffffffffffffffffffffffffffff167f8be0079c531659141344cd1fd0a4f28419497f9722a3daafe3b4186f6b6457e060405160405180910390a35050565b5f60055f9054906101000a900473ffffffffffffffffffffffffffffffffffffffff16905090565b5f81519050919050565b7f4e487b71000000000000000000000000000000000000000000000000000000005f52604160045260245ffd5b7f4e487b71000000000000000000000000000000000000000000000000000000005f52602260045260245ffd5b5f600282049050600182168061029957607f821691505b6020821081036102ac576102ab610255565b5b50919050565b5f819050815f5260205f209050919050565b5f6020601f8301049050919050565b5f82821b905092915050565b5f6008830261030e7fffffffffffffffffffffffffffffffffffffffffffffffffffffffffffffffff826102d3565b61031886836102d3565b95508019841693508086168417925050509392505050565b5f819050919050565b5f819050919050565b5f61035c61035761035284610330565b610339565b610330565b9050919050565b5f819050919050565b61037583610342565b61038961038182610363565b8484546102df565b825550505050565b5f90565b61039d610391565b6103a881848461036c565b505050565b5b818110156103cb576103c05f82610395565b6001810190506103ae565b5050565b601f821115610410576103e1816102b2565b6103ea846102c4565b810160208510156103f9578190505b61040d610405856102c4565b8301826103ad565b50505b505050565b5f82821c905092915050565b5f6104305f1984600802610415565b1980831691505092915050565b5f6104488383610421565b9150826002028217905092915050565b6104618261021e565b67ffffffffffffffff81111561047a57610479610228565b5b6104848254610282565b61048f8282856103cf565b5f60209050601f8311600181146104c0575f84156104ae578287015190505b6104b8858261043d565b86555061051f565b601f1984166104ce866102b2565b5f5b828110156104f5578489015182556001820191506020850194506020810190506104d0565b86831015610512578489015161050e601f891682610421565b8355505b6001600288020188555050505b505050505050565b611fe9806105345f395ff3fe608060405234801561000f575f80fd5b506004361061012a575f3560e01c80638da5cb5b116100ab578063b78376e91161006f578063b78376e914610344578063c290d69114610360578063d9fcefdd1461037c578063dd62ed3e146103ac578063f2fde38b146103dc5761012a565b80638da5cb5b1461028c57806395d89b41146102aa578063a0712d68146102c8578063a457c2d7146102e4578063a9059cbb146103145761012a565b806323b872dd116100f257806323b872dd146101d4578063313ce56714610204578063395093511461022257806370a0823114610252578063715018a6146102825761012a565b8063048f16271461012e57806306fdde031461014a578063095ea7b3146101685780631055d7081461019857806318160ddd146101b6575b5f80fd5b610148600480360381019061014391906114b8565b6103f8565b005b6101526104cd565b60405161015f9190611553565b60405180910390f35b610182600480360381019061017d91906115a6565b61055d565b60405161018f91906115fe565b60405180910390f35b6101a061057f565b6040516101ad91906116ce565b60405180910390f35b6101be61060a565b6040516101cb91906116fd565b60405180910390f35b6101ee60048036038101906101e99190611716565b610613565b6040516101fb91906115fe565b60405180910390f35b61020c610641565b6040516102199190611781565b60405180910390f35b61023c600480360381019061023791906115a6565b610649565b60405161024991906115fe565b60405180910390f35b61026c600480360381019061026791906114b8565b61067f565b60405161027991906116fd565b60405180910390f35b61028a6106c4565b005b6102946106d7565b6040516102a191906117a9565b60405180910390f35b6102b26106ff565b6040516102bf9190611553565b60405180910390f35b6102e260048036038101906102dd91906117c2565b61078f565b005b6102fe60048036038101906102f991906115a6565b6107ab565b60405161030b91906115fe565b60405180910390f35b61032e600480360381019061032991906115a6565b610820565b60405161033b91906115fe565b60405180910390f35b61035e600480360381019061035991906114b8565b610842565b005b61037a600480360381019061037591906117c2565b6108ad565b005b610396600480360381019061039191906114b8565b610997565b6040516103a391906115fe565b60405180910390f35b6103c660048036038101906103c191906117ed565b610a39565b6040516103d391906116fd565b60405180910390f35b6103f660048036038101906103f191906114b8565b610abb565b005b610400610b3d565b5f5b6006805490508110156104c957600681815481106104235761042261182b565b5b905f5260205f20015f9054906101000a900473ffffffffffffffffffffffffffffffffffffffff1673ffffffffffffffffffffffffffffffffffffffff168273ffffffffffffffffffffffffffffffffffffffff16036104bc57600681815481106104915761049061182b565b5b905f5260205f20015f6101000a81549073ffffffffffffffffffffffffffffffffffffffff02191690555b8080600101915050610402565b5050565b6060600380546104dc90611885565b80601f016020809104026020016040519081016040528092919081815260200182805461050890611885565b80156105535780601f1061052a57610100808354040283529160200191610553565b820191905f5260205f20905b81548152906001019060200180831161053657829003601f168201915b5050505050905090565b5f80610567610bbb565b9050610574818585610bc2565b600191505092915050565b6060600680548060200260200160405190810160405280929190818152602001828054801561060057602002820191905f5260205f20905b815f9054906101000a900473ffffffffffffffffffffffffffffffffffffffff1673ffffffffffffffffffffffffffffffffffffffff16815260200190600101908083116105b7575b5050505050905090565b5f600254905090565b5f8061061d610bbb565b905061062a858285610d85565b610635858585610e10565b60019150509392505050565b5f6012905090565b5f80610653610bbb565b90506106748185856106658589610a39565b61066f91906118e2565b610bc2565b600191505092915050565b5f805f8373ffffffffffffffffffffffffffffffffffffffff1673ffffffffffffffffffffffffffffffffffffffff1681526020019081526020015f20549050919050565b6106cc610b3d565b6106d55f61107c565b565b5f60055f9054906101000a900473ffffffffffffffffffffffffffffffffffffffff16905090565b60606004805461070e90611885565b80601f016020809104026020016040519081016040528092919081815260200182805461073a90611885565b80156107855780601f1061075c57610100808354040283529160200191610785565b820191905f5260205f20905b81548152906001019060200180831161076857829003601f168201915b5050505050905090565b610797610b3d565b6107a86107a26106d7565b8261113f565b50565b5f806107b5610bbb565b90505f6107c28286610a39565b905083811015610807576040517f08c379a00000000000000000000000000000000000000000000000000000000081526004016107fe90611985565b60405180910390fd5b6108148286868403610bc2565b60019250505092915050565b5f8061082a610bbb565b9050610837818585610e10565b600191505092915050565b61084a610b3d565b600681908060018154018082558091505060019003905f5260205f20015f9091909190916101000a81548173ffffffffffffffffffffffffffffffffffffffff021916908373ffffffffffffffffffffffffffffffffffffffff16021790555050565b5f805b600680549050811015610941573373ffffffffffffffffffffffffffffffffffffffff16600682815481106108e8576108e761182b565b5b905f5260205f20015f9054906101000a900473ffffffffffffffffffffffffffffffffffffffff1673ffffffffffffffffffffffffffffffffffffffff16036109345760019150610941565b80806001019150506108b0565b5080610982576040517f08c379a0000000000000000000000000000000000000000000000000000000008152600401610979906119ed565b60405180910390fd5b61099361098d6106d7565b8361128d565b5050565b5f805f90505b600680549050811015610a2f57600681815481106109be576109bd61182b565b5b905f5260205f20015f9054906101000a900473ffffffffffffffffffffffffffffffffffffffff1673ffffffffffffffffffffffffffffffffffffffff168373ffffffffffffffffffffffffffffffffffffffff1603610a22576001915050610a34565b808060010191505061099d565b505f90505b919050565b5f60015f8473ffffffffffffffffffffffffffffffffffffffff1673ffffffffffffffffffffffffffffffffffffffff1681526020019081526020015f205f8373ffffffffffffffffffffffffffffffffffffffff1673ffffffffffffffffffffffffffffffffffffffff1681526020019081526020015f2054905092915050565b610ac3610b3d565b5f73ffffffffffffffffffffffffffffffffffffffff168173ffffffffffffffffffffffffffffffffffffffff1603610b31576040517f08c379a0000000000000000000000000000000000000000000000000000000008152600401610b2890611a7b565b60405180910390fd5b610b3a8161107c565b50565b610b45610bbb565b73ffffffffffffffffffffffffffffffffffffffff16610b636106d7565b73ffffffffffffffffffffffffffffffffffffffff1614610bb9576040517f08c379a0000000000000000000000000000000000000000000000000000000008152600401610bb090611ae3565b60405180910390fd5b565b5f33905090565b5f73ffffffffffffffffffffffffffffffffffffffff168373ffffffffffffffffffffffffffffffffffffffff1603610c30576040517f08c379a0000000000000000000000000000000000000000000000000000000008152600401610c2790611b71565b60405180910390fd5b5f73ffffffffffffffffffffffffffffffffffffffff168273ffffffffffffffffffffffffffffffffffffffff1603610c9e576040517f08c379a0000000000000000000000000000000000000000000000000000000008152600401610c9590611bff565b60405180910390fd5b8060015f8573ffffffffffffffffffffffffffffffffffffffff1673ffffffffffffffffffffffffffffffffffffffff1681526020019081526020015f205f8473ffffffffffffffffffffffffffffffffffffffff1673ffffffffffffffffffffffffffffffffffffffff1681526020019081526020015f20819055508173ffffffffffffffffffffffffffffffffffffffff168373ffffffffffffffffffffffffffffffffffffffff167f8c5be1e5ebec7d5bd14f71427d1e84f3dd0314c0f7b2291e5b200ac8c7c3b92583604051610d7891906116fd565b60405180910390a3505050565b5f610d908484610a39565b90507fffffffffffffffffffffffffffffffffffffffffffffffffffffffffffffffff8114610e0a5781811015610dfc576040517f08c379a0000000000000000000000000000000000000000000000000000000008152600401610df390611c67565b60405180910390fd5b610e098484848403610bc2565b5b50505050565b5f73ffffffffffffffffffffffffffffffffffffffff168373ffffffffffffffffffffffffffffffffffffffff1603610e7e576040517f08c379a0000000000000000000000000000000000000000000000000000000008152600401610e7590611cf5565b60405180910390fd5b5f73ffffffffffffffffffffffffffffffffffffffff168273ffffffffffffffffffffffffffffffffffffffff1603610eec576040517f08c379a0000000000000000000000000000000000000000000000000000000008152600401610ee390611d83565b60405180910390fd5b610ef7838383611450565b5f805f8573ffffffffffffffffffffffffffffffffffffffff1673ffffffffffffffffffffffffffffffffffffffff1681526020019081526020015f2054905081811015610f7a576040517f08c379a0000000000000000000000000000000000000000000000000000000008152600401610f7190611e11565b60405180910390fd5b8181035f808673ffffffffffffffffffffffffffffffffffffffff1673ffffffffffffffffffffffffffffffffffffffff1681526020019081526020015f2081905550815f808573ffffffffffffffffffffffffffffffffffffffff1673ffffffffffffffffffffffffffffffffffffffff1681526020019081526020015f205f82825401925050819055508273ffffffffffffffffffffffffffffffffffffffff168473ffffffffffffffffffffffffffffffffffffffff167fddf252ad1be2c89b69c2b068fc378daa952ba7f163c4a11628f55a4df523b3ef8460405161106391906116fd565b60405180910390a3611076848484611455565b50505050565b5f60055f9054906101000a900473ffffffffffffffffffffffffffffffffffffffff1690508160055f6101000a81548173ffffffffffffffffffffffffffffffffffffffff021916908373ffffffffffffffffffffffffffffffffffffffff1602179055508173ffffffffffffffffffffffffffffffffffffffff168173ffffffffffffffffffffffffffffffffffffffff167f8be0079c531659141344cd1fd0a4f28419497f9722a3daafe3b4186f6b6457e060405160405180910390a35050565b5f73ffffffffffffffffffffffffffffffffffffffff168273ffffffffffffffffffffffffffffffffffffffff16036111ad576040517f08c379a00000000000000000000000000000000000000000000000000000000081526004016111a490611e79565b60405180910390fd5b6111b85f8383611450565b8060025f8282546111c991906118e2565b92505081905550805f808473ffffffffffffffffffffffffffffffffffffffff1673ffffffffffffffffffffffffffffffffffffffff1681526020019081526020015f205f82825401925050819055508173ffffffffffffffffffffffffffffffffffffffff165f73ffffffffffffffffffffffffffffffffffffffff167fddf252ad1be2c89b69c2b068fc378daa952ba7f163c4a11628f55a4df523b3ef8360405161127691906116fd565b60405180910390a36112895f8383611455565b5050565b5f73ffffffffffffffffffffffffffffffffffffffff168273ffffffffffffffffffffffffffffffffffffffff16036112fb576040517f08c379a00000000000000000000000000000000000000000000000000000000081526004016112f290611f07565b60405180910390fd5b611306825f83611450565b5f805f8473ffffffffffffffffffffffffffffffffffffffff1673ffffffffffffffffffffffffffffffffffffffff1681526020019081526020015f2054905081811015611389576040517f08c379a000000000000000000000000000000000000000000000000000000000815260040161138090611f95565b60405180910390fd5b8181035f808573ffffffffffffffffffffffffffffffffffffffff1673ffffffffffffffffffffffffffffffffffffffff1681526020019081526020015f20819055508160025f82825403925050819055505f73ffffffffffffffffffffffffffffffffffffffff168373ffffffffffffffffffffffffffffffffffffffff167fddf252ad1be2c89b69c2b068fc378daa952ba7f163c4a11628f55a4df523b3ef8460405161143891906116fd565b60405180910390a361144b835f84611455565b505050565b505050565b505050565b5f80fd5b5f73ffffffffffffffffffffffffffffffffffffffff82169050919050565b5f6114878261145e565b9050919050565b6114978161147d565b81146114a1575f80fd5b50565b5f813590506114b28161148e565b92915050565b5f602082840312156114cd576114cc61145a565b5b5f6114da848285016114a4565b91505092915050565b5f81519050919050565b5f82825260208201905092915050565b8281835e5f83830152505050565b5f601f19601f8301169050919050565b5f611525826114e3565b61152f81856114ed565b935061153f8185602086016114fd565b6115488161150b565b840191505092915050565b5f6020820190508181035f83015261156b818461151b565b905092915050565b5f819050919050565b61158581611573565b811461158f575f80fd5b50565b5f813590506115a08161157c565b92915050565b5f80604083850312156115bc576115bb61145a565b5b5f6115c9858286016114a4565b92505060206115da85828601611592565b9150509250929050565b5f8115159050919050565b6115f8816115e4565b82525050565b5f6020820190506116115f8301846115ef565b92915050565b5f81519050919050565b5f82825260208201905092915050565b5f819050602082019050919050565b6116498161147d565b82525050565b5f61165a8383611640565b60208301905092915050565b5f602082019050919050565b5f61167c82611617565b6116868185611621565b935061169183611631565b805f5b838110156116c15781516116a8888261164f565b97506116b383611666565b925050600181019050611694565b5085935050505092915050565b5f6020820190508181035f8301526116e68184611672565b905092915050565b6116f781611573565b82525050565b5f6020820190506117105f8301846116ee565b92915050565b5f805f6060848603121561172d5761172c61145a565b5b5f61173a868287016114a4565b935050602061174b868287016114a4565b925050604061175c86828701611592565b9150509250925092565b5f60ff82169050919050565b61177b81611766565b82525050565b5f6020820190506117945f830184611772565b92915050565b6117a38161147d565b82525050565b5f6020820190506117bc5f83018461179a565b92915050565b5f602082840312156117d7576117d661145a565b5b5f6117e484828501611592565b91505092915050565b5f80604083850312156118035761180261145a565b5b5f611810858286016114a4565b9250506020611821858286016114a4565b9150509250929050565b7f4e487b71000000000000000000000000000000000000000000000000000000005f52603260045260245ffd5b7f4e487b71000000000000000000000000000000000000000000000000000000005f52602260045260245ffd5b5f600282049050600182168061189c57607f821691505b6020821081036118af576118ae611858565b5b50919050565b7f4e487b71000000000000000000000000000000000000000000000000000000005f52601160045260245ffd5b5f6118ec82611573565b91506118f783611573565b925082820190508082111561190f5761190e6118b5565b5b92915050565b7f45524332303a2064656372656173656420616c6c6f77616e63652062656c6f775f8201527f207a65726f000000000000000000000000000000000000000000000000000000602082015250565b5f61196f6025836114ed565b915061197a82611915565b604082019050919050565b5f6020820190508181035f83015261199c81611963565b9050919050565b7f6d73672e73656e646572206973206e6f742074686520706179657200000000005f82015250565b5f6119d7601b836114ed565b91506119e2826119a3565b602082019050919050565b5f6020820190508181035f830152611a04816119cb565b9050919050565b7f4f776e61626c653a206e6577206f776e657220697320746865207a65726f20615f8201527f6464726573730000000000000000000000000000000000000000000000000000602082015250565b5f611a656026836114ed565b9150611a7082611a0b565b604082019050919050565b5f6020820190508181035f830152611a9281611a59565b9050919050565b7f4f776e61626c653a2063616c6c6572206973206e6f7420746865206f776e65725f82015250565b5f611acd6020836114ed565b9150611ad882611a99565b602082019050919050565b5f6020820190508181035f830152611afa81611ac1565b9050919050565b7f45524332303a20617070726f76652066726f6d20746865207a65726f206164645f8201527f7265737300000000000000000000000000000000000000000000000000000000602082015250565b5f611b5b6024836114ed565b9150611b6682611b01565b604082019050919050565b5f6020820190508181035f830152611b8881611b4f565b9050919050565b7f45524332303a20617070726f766520746f20746865207a65726f2061646472655f8201527f7373000000000000000000000000000000000000000000000000000000000000602082015250565b5f611be96022836114ed565b9150611bf482611b8f565b604082019050919050565b5f6020820190508181035f830152611c1681611bdd565b9050919050565b7f45524332303a20696e73756666696369656e7420616c6c6f77616e63650000005f82015250565b5f611c51601d836114ed565b9150611c5c82611c1d565b602082019050919050565b5f6020820190508181035f830152611c7e81611c45565b9050919050565b7f45524332303a207472616e736665722066726f6d20746865207a65726f2061645f8201527f6472657373000000000000000000000000000000000000000000000000000000602082015250565b5f611cdf6025836114ed565b9150611cea82611c85565b604082019050919050565b5f6020820190508181035f830152611d0c81611cd3565b9050919050565b7f45524332303a207472616e7366657220746f20746865207a65726f20616464725f8201527f6573730000000000000000000000000000000000000000000000000000000000602082015250565b5f611d6d6023836114ed565b9150611d7882611d13565b604082019050919050565b5f6020820190508181035f830152611d9a81611d61565b9050919050565b7f45524332303a207472616e7366657220616d6f756e74206578636565647320625f8201527f616c616e63650000000000000000000000000000000000000000000000000000602082015250565b5f611dfb6026836114ed565b9150611e0682611da1565b604082019050919050565b5f6020820190508181035f830152611e2881611def565b9050919050565b7f45524332303a206d696e7420746f20746865207a65726f2061646472657373005f82015250565b5f611e63601f836114ed565b9150611e6e82611e2f565b602082019050919050565b5f6020820190508181035f830152611e9081611e57565b9050919050565b7f45524332303a206275726e2066726f6d20746865207a65726f206164647265735f8201527f7300000000000000000000000000000000000000000000000000000000000000602082015250565b5f611ef16021836114ed565b9150611efc82611e97565b604082019050919050565b5f6020820190508181035f830152611f1e81611ee5565b9050919050565b7f45524332303a206275726e20616d6f756e7420657863656564732062616c616e5f8201527f6365000000000000000000000000000000000000000000000000000000000000602082015250565b5f611f7f6022836114ed565b9150611f8a82611f25565b604082019050919050565b5f6020820190508181035f830152611fac81611f73565b905091905056fea26469706673582212201272f1900941d2014d91132e802f4bc20ce2b79567b28383f0c64e1543bddabf64736f6c63430008190033",
					"opcodes": "PUSH1 0x80 PUSH1 0x40 MSTORE CALLVALUE DUP1 ISZERO PUSH2 0xF JUMPI PUSH0 DUP1 REVERT JUMPDEST POP PUSH1 0x40 MLOAD DUP1 PUSH1 0x40 ADD PUSH1 0x40 MSTORE DUP1 PUSH1 0x7 DUP2 MSTORE PUSH1 0x20 ADD PUSH32 0x53686F436F696E00000000000000000000000000000000000000000000000000 DUP2 MSTORE POP PUSH1 0x40 MLOAD DUP1 PUSH1 0x40 ADD PUSH1 0x40 MSTORE DUP1 PUSH1 0x4 DUP2 MSTORE PUSH1 0x20 ADD PUSH32 0x53484F4300000000000000000000000000000000000000000000000000000000 DUP2 MSTORE POP DUP2 PUSH1 0x3 SWAP1 DUP2 PUSH2 0x8B SWAP2 SWAP1 PUSH2 0x458 JUMP JUMPDEST POP DUP1 PUSH1 0x4 SWAP1 DUP2 PUSH2 0x9B SWAP2 SWAP1 PUSH2 0x458 JUMP JUMPDEST POP POP POP PUSH2 0xBA PUSH2 0xAF PUSH2 0x12C PUSH1 0x20 SHL PUSH1 0x20 SHR JUMP JUMPDEST PUSH2 0x133 PUSH1 0x20 SHL PUSH1 0x20 SHR JUMP JUMPDEST PUSH1 0x6 PUSH2 0xCA PUSH2 0x1F6 PUSH1 0x20 SHL PUSH1 0x20 SHR JUMP JUMPDEST SWAP1 DUP1 PUSH1 0x1 DUP2 SLOAD ADD DUP1 DUP3 SSTORE DUP1 SWAP2 POP POP PUSH1 0x1 SWAP1 SUB SWAP1 PUSH0 MSTORE PUSH1 0x20 PUSH0 KECCAK256 ADD PUSH0 SWAP1 SWAP2 SWAP1 SWAP2 SWAP1 SWAP2 PUSH2 0x100 EXP DUP2 SLOAD DUP2 PUSH20 0xFFFFFFFFFFFFFFFFFFFFFFFFFFFFFFFFFFFFFFFF MUL NOT AND SWAP1 DUP4 PUSH20 0xFFFFFFFFFFFFFFFFFFFFFFFFFFFFFFFFFFFFFFFF AND MUL OR SWAP1 SSTORE POP PUSH2 0x527 JUMP JUMPDEST PUSH0 CALLER SWAP1 POP SWAP1 JUMP JUMPDEST PUSH0 PUSH1 0x5 PUSH0 SWAP1 SLOAD SWAP1 PUSH2 0x100 EXP SWAP1 DIV PUSH20 0xFFFFFFFFFFFFFFFFFFFFFFFFFFFFFFFFFFFFFFFF AND SWAP1 POP DUP2 PUSH1 0x5 PUSH0 PUSH2 0x100 EXP DUP2 SLOAD DUP2 PUSH20 0xFFFFFFFFFFFFFFFFFFFFFFFFFFFFFFFFFFFFFFFF MUL NOT AND SWAP1 DUP4 PUSH20 0xFFFFFFFFFFFFFFFFFFFFFFFFFFFFFFFFFFFFFFFF AND MUL OR SWAP1 SSTORE POP DUP2 PUSH20 0xFFFFFFFFFFFFFFFFFFFFFFFFFFFFFFFFFFFFFFFF AND DUP2 PUSH20 0xFFFFFFFFFFFFFFFFFFFFFFFFFFFFFFFFFFFFFFFF AND PUSH32 0x8BE0079C531659141344CD1FD0A4F28419497F9722A3DAAFE3B4186F6B6457E0 PUSH1 0x40 MLOAD PUSH1 0x40 MLOAD DUP1 SWAP2 SUB SWAP1 LOG3 POP POP JUMP JUMPDEST PUSH0 PUSH1 0x5 PUSH0 SWAP1 SLOAD SWAP1 PUSH2 0x100 EXP SWAP1 DIV PUSH20 0xFFFFFFFFFFFFFFFFFFFFFFFFFFFFFFFFFFFFFFFF AND SWAP1 POP SWAP1 JUMP JUMPDEST PUSH0 DUP2 MLOAD SWAP1 POP SWAP2 SWAP1 POP JUMP JUMPDEST PUSH32 0x4E487B7100000000000000000000000000000000000000000000000000000000 PUSH0 MSTORE PUSH1 0x41 PUSH1 0x4 MSTORE PUSH1 0x24 PUSH0 REVERT JUMPDEST PUSH32 0x4E487B7100000000000000000000000000000000000000000000000000000000 PUSH0 MSTORE PUSH1 0x22 PUSH1 0x4 MSTORE PUSH1 0x24 PUSH0 REVERT JUMPDEST PUSH0 PUSH1 0x2 DUP3 DIV SWAP1 POP PUSH1 0x1 DUP3 AND DUP1 PUSH2 0x299 JUMPI PUSH1 0x7F DUP3 AND SWAP2 POP JUMPDEST PUSH1 0x20 DUP3 LT DUP2 SUB PUSH2 0x2AC JUMPI PUSH2 0x2AB PUSH2 0x255 JUMP JUMPDEST JUMPDEST POP SWAP2 SWAP1 POP JUMP JUMPDEST PUSH0 DUP2 SWAP1 POP DUP2 PUSH0 MSTORE PUSH1 0x20 PUSH0 KECCAK256 SWAP1 POP SWAP2 SWAP1 POP JUMP JUMPDEST PUSH0 PUSH1 0x20 PUSH1 0x1F DUP4 ADD DIV SWAP1 POP SWAP2 SWAP1 POP JUMP JUMPDEST PUSH0 DUP3 DUP3 SHL SWAP1 POP SWAP3 SWAP2 POP POP JUMP JUMPDEST PUSH0 PUSH1 0x8 DUP4 MUL PUSH2 0x30E PUSH32 0xFFFFFFFFFFFFFFFFFFFFFFFFFFFFFFFFFFFFFFFFFFFFFFFFFFFFFFFFFFFFFFFF DUP3 PUSH2 0x2D3 JUMP JUMPDEST PUSH2 0x318 DUP7 DUP4 PUSH2 0x2D3 JUMP JUMPDEST SWAP6 POP DUP1 NOT DUP5 AND SWAP4 POP DUP1 DUP7 AND DUP5 OR SWAP3 POP POP POP SWAP4 SWAP3 POP POP POP JUMP JUMPDEST PUSH0 DUP2 SWAP1 POP SWAP2 SWAP1 POP JUMP JUMPDEST PUSH0 DUP2 SWAP1 POP SWAP2 SWAP1 POP JUMP JUMPDEST PUSH0 PUSH2 0x35C PUSH2 0x357 PUSH2 0x352 DUP5 PUSH2 0x330 JUMP JUMPDEST PUSH2 0x339 JUMP JUMPDEST PUSH2 0x330 JUMP JUMPDEST SWAP1 POP SWAP2 SWAP1 POP JUMP JUMPDEST PUSH0 DUP2 SWAP1 POP SWAP2 SWAP1 POP JUMP JUMPDEST PUSH2 0x375 DUP4 PUSH2 0x342 JUMP JUMPDEST PUSH2 0x389 PUSH2 0x381 DUP3 PUSH2 0x363 JUMP JUMPDEST DUP5 DUP5 SLOAD PUSH2 0x2DF JUMP JUMPDEST DUP3 SSTORE POP POP POP POP JUMP JUMPDEST PUSH0 SWAP1 JUMP JUMPDEST PUSH2 0x39D PUSH2 0x391 JUMP JUMPDEST PUSH2 0x3A8 DUP2 DUP5 DUP5 PUSH2 0x36C JUMP JUMPDEST POP POP POP JUMP JUMPDEST JUMPDEST DUP2 DUP2 LT ISZERO PUSH2 0x3CB JUMPI PUSH2 0x3C0 PUSH0 DUP3 PUSH2 0x395 JUMP JUMPDEST PUSH1 0x1 DUP2 ADD SWAP1 POP PUSH2 0x3AE JUMP JUMPDEST POP POP JUMP JUMPDEST PUSH1 0x1F DUP3 GT ISZERO PUSH2 0x410 JUMPI PUSH2 0x3E1 DUP2 PUSH2 0x2B2 JUMP JUMPDEST PUSH2 0x3EA DUP5 PUSH2 0x2C4 JUMP JUMPDEST DUP2 ADD PUSH1 0x20 DUP6 LT ISZERO PUSH2 0x3F9 JUMPI DUP2 SWAP1 POP JUMPDEST PUSH2 0x40D PUSH2 0x405 DUP6 PUSH2 0x2C4 JUMP JUMPDEST DUP4 ADD DUP3 PUSH2 0x3AD JUMP JUMPDEST POP POP JUMPDEST POP POP POP JUMP JUMPDEST PUSH0 DUP3 DUP3 SHR SWAP1 POP SWAP3 SWAP2 POP POP JUMP JUMPDEST PUSH0 PUSH2 0x430 PUSH0 NOT DUP5 PUSH1 0x8 MUL PUSH2 0x415 JUMP JUMPDEST NOT DUP1 DUP4 AND SWAP2 POP POP SWAP3 SWAP2 POP POP JUMP JUMPDEST PUSH0 PUSH2 0x448 DUP4 DUP4 PUSH2 0x421 JUMP JUMPDEST SWAP2 POP DUP3 PUSH1 0x2 MUL DUP3 OR SWAP1 POP SWAP3 SWAP2 POP POP JUMP JUMPDEST PUSH2 0x461 DUP3 PUSH2 0x21E JUMP JUMPDEST PUSH8 0xFFFFFFFFFFFFFFFF DUP2 GT ISZERO PUSH2 0x47A JUMPI PUSH2 0x479 PUSH2 0x228 JUMP JUMPDEST JUMPDEST PUSH2 0x484 DUP3 SLOAD PUSH2 0x282 JUMP JUMPDEST PUSH2 0x48F DUP3 DUP3 DUP6 PUSH2 0x3CF JUMP JUMPDEST PUSH0 PUSH1 0x20 SWAP1 POP PUSH1 0x1F DUP4 GT PUSH1 0x1 DUP2 EQ PUSH2 0x4C0 JUMPI PUSH0 DUP5 ISZERO PUSH2 0x4AE JUMPI DUP3 DUP8 ADD MLOAD SWAP1 POP JUMPDEST PUSH2 0x4B8 DUP6 DUP3 PUSH2 0x43D JUMP JUMPDEST DUP7 SSTORE POP PUSH2 0x51F JUMP JUMPDEST PUSH1 0x1F NOT DUP5 AND PUSH2 0x4CE DUP7 PUSH2 0x2B2 JUMP JUMPDEST PUSH0 JUMPDEST DUP3 DUP2 LT ISZERO PUSH2 0x4F5 JUMPI DUP5 DUP10 ADD MLOAD DUP3 SSTORE PUSH1 0x1 DUP3 ADD SWAP2 POP PUSH1 0x20 DUP6 ADD SWAP5 POP PUSH1 0x20 DUP2 ADD SWAP1 POP PUSH2 0x4D0 JUMP JUMPDEST DUP7 DUP4 LT ISZERO PUSH2 0x512 JUMPI DUP5 DUP10 ADD MLOAD PUSH2 0x50E PUSH1 0x1F DUP10 AND DUP3 PUSH2 0x421 JUMP JUMPDEST DUP4 SSTORE POP JUMPDEST PUSH1 0x1 PUSH1 0x2 DUP9 MUL ADD DUP9 SSTORE POP POP POP JUMPDEST POP POP POP POP POP POP JUMP JUMPDEST PUSH2 0x1FE9 DUP1 PUSH2 0x534 PUSH0 CODECOPY PUSH0 RETURN INVALID PUSH1 0x80 PUSH1 0x40 MSTORE CALLVALUE DUP1 ISZERO PUSH2 0xF JUMPI PUSH0 DUP1 REVERT JUMPDEST POP PUSH1 0x4 CALLDATASIZE LT PUSH2 0x12A JUMPI PUSH0 CALLDATALOAD PUSH1 0xE0 SHR DUP1 PUSH4 0x8DA5CB5B GT PUSH2 0xAB JUMPI DUP1 PUSH4 0xB78376E9 GT PUSH2 0x6F JUMPI DUP1 PUSH4 0xB78376E9 EQ PUSH2 0x344 JUMPI DUP1 PUSH4 0xC290D691 EQ PUSH2 0x360 JUMPI DUP1 PUSH4 0xD9FCEFDD EQ PUSH2 0x37C JUMPI DUP1 PUSH4 0xDD62ED3E EQ PUSH2 0x3AC JUMPI DUP1 PUSH4 0xF2FDE38B EQ PUSH2 0x3DC JUMPI PUSH2 0x12A JUMP JUMPDEST DUP1 PUSH4 0x8DA5CB5B EQ PUSH2 0x28C JUMPI DUP1 PUSH4 0x95D89B41 EQ PUSH2 0x2AA JUMPI DUP1 PUSH4 0xA0712D68 EQ PUSH2 0x2C8 JUMPI DUP1 PUSH4 0xA457C2D7 EQ PUSH2 0x2E4 JUMPI DUP1 PUSH4 0xA9059CBB EQ PUSH2 0x314 JUMPI PUSH2 0x12A JUMP JUMPDEST DUP1 PUSH4 0x23B872DD GT PUSH2 0xF2 JUMPI DUP1 PUSH4 0x23B872DD EQ PUSH2 0x1D4 JUMPI DUP1 PUSH4 0x313CE567 EQ PUSH2 0x204 JUMPI DUP1 PUSH4 0x39509351 EQ PUSH2 0x222 JUMPI DUP1 PUSH4 0x70A08231 EQ PUSH2 0x252 JUMPI DUP1 PUSH4 0x715018A6 EQ PUSH2 0x282 JUMPI PUSH2 0x12A JUMP JUMPDEST DUP1 PUSH4 0x48F1627 EQ PUSH2 0x12E JUMPI DUP1 PUSH4 0x6FDDE03 EQ PUSH2 0x14A JUMPI DUP1 PUSH4 0x95EA7B3 EQ PUSH2 0x168 JUMPI DUP1 PUSH4 0x1055D708 EQ PUSH2 0x198 JUMPI DUP1 PUSH4 0x18160DDD EQ PUSH2 0x1B6 JUMPI JUMPDEST PUSH0 DUP1 REVERT JUMPDEST PUSH2 0x148 PUSH1 0x4 DUP1 CALLDATASIZE SUB DUP2 ADD SWAP1 PUSH2 0x143 SWAP2 SWAP1 PUSH2 0x14B8 JUMP JUMPDEST PUSH2 0x3F8 JUMP JUMPDEST STOP JUMPDEST PUSH2 0x152 PUSH2 0x4CD JUMP JUMPDEST PUSH1 0x40 MLOAD PUSH2 0x15F SWAP2 SWAP1 PUSH2 0x1553 JUMP JUMPDEST PUSH1 0x40 MLOAD DUP1 SWAP2 SUB SWAP1 RETURN JUMPDEST PUSH2 0x182 PUSH1 0x4 DUP1 CALLDATASIZE SUB DUP2 ADD SWAP1 PUSH2 0x17D SWAP2 SWAP1 PUSH2 0x15A6 JUMP JUMPDEST PUSH2 0x55D JUMP JUMPDEST PUSH1 0x40 MLOAD PUSH2 0x18F SWAP2 SWAP1 PUSH2 0x15FE JUMP JUMPDEST PUSH1 0x40 MLOAD DUP1 SWAP2 SUB SWAP1 RETURN JUMPDEST PUSH2 0x1A0 PUSH2 0x57F JUMP JUMPDEST PUSH1 0x40 MLOAD PUSH2 0x1AD SWAP2 SWAP1 PUSH2 0x16CE JUMP JUMPDEST PUSH1 0x40 MLOAD DUP1 SWAP2 SUB SWAP1 RETURN JUMPDEST PUSH2 0x1BE PUSH2 0x60A JUMP JUMPDEST PUSH1 0x40 MLOAD PUSH2 0x1CB SWAP2 SWAP1 PUSH2 0x16FD JUMP JUMPDEST PUSH1 0x40 MLOAD DUP1 SWAP2 SUB SWAP1 RETURN JUMPDEST PUSH2 0x1EE PUSH1 0x4 DUP1 CALLDATASIZE SUB DUP2 ADD SWAP1 PUSH2 0x1E9 SWAP2 SWAP1 PUSH2 0x1716 JUMP JUMPDEST PUSH2 0x613 JUMP JUMPDEST PUSH1 0x40 MLOAD PUSH2 0x1FB SWAP2 SWAP1 PUSH2 0x15FE JUMP JUMPDEST PUSH1 0x40 MLOAD DUP1 SWAP2 SUB SWAP1 RETURN JUMPDEST PUSH2 0x20C PUSH2 0x641 JUMP JUMPDEST PUSH1 0x40 MLOAD PUSH2 0x219 SWAP2 SWAP1 PUSH2 0x1781 JUMP JUMPDEST PUSH1 0x40 MLOAD DUP1 SWAP2 SUB SWAP1 RETURN JUMPDEST PUSH2 0x23C PUSH1 0x4 DUP1 CALLDATASIZE SUB DUP2 ADD SWAP1 PUSH2 0x237 SWAP2 SWAP1 PUSH2 0x15A6 JUMP JUMPDEST PUSH2 0x649 JUMP JUMPDEST PUSH1 0x40 MLOAD PUSH2 0x249 SWAP2 SWAP1 PUSH2 0x15FE JUMP JUMPDEST PUSH1 0x40 MLOAD DUP1 SWAP2 SUB SWAP1 RETURN JUMPDEST PUSH2 0x26C PUSH1 0x4 DUP1 CALLDATASIZE SUB DUP2 ADD SWAP1 PUSH2 0x267 SWAP2 SWAP1 PUSH2 0x14B8 JUMP JUMPDEST PUSH2 0x67F JUMP JUMPDEST PUSH1 0x40 MLOAD PUSH2 0x279 SWAP2 SWAP1 PUSH2 0x16FD JUMP JUMPDEST PUSH1 0x40 MLOAD DUP1 SWAP2 SUB SWAP1 RETURN JUMPDEST PUSH2 0x28A PUSH2 0x6C4 JUMP JUMPDEST STOP JUMPDEST PUSH2 0x294 PUSH2 0x6D7 JUMP JUMPDEST PUSH1 0x40 MLOAD PUSH2 0x2A1 SWAP2 SWAP1 PUSH2 0x17A9 JUMP JUMPDEST PUSH1 0x40 MLOAD DUP1 SWAP2 SUB SWAP1 RETURN JUMPDEST PUSH2 0x2B2 PUSH2 0x6FF JUMP JUMPDEST PUSH1 0x40 MLOAD PUSH2 0x2BF SWAP2 SWAP1 PUSH2 0x1553 JUMP JUMPDEST PUSH1 0x40 MLOAD DUP1 SWAP2 SUB SWAP1 RETURN JUMPDEST PUSH2 0x2E2 PUSH1 0x4 DUP1 CALLDATASIZE SUB DUP2 ADD SWAP1 PUSH2 0x2DD SWAP2 SWAP1 PUSH2 0x17C2 JUMP JUMPDEST PUSH2 0x78F JUMP JUMPDEST STOP JUMPDEST PUSH2 0x2FE PUSH1 0x4 DUP1 CALLDATASIZE SUB DUP2 ADD SWAP1 PUSH2 0x2F9 SWAP2 SWAP1 PUSH2 0x15A6 JUMP JUMPDEST PUSH2 0x7AB JUMP JUMPDEST PUSH1 0x40 MLOAD PUSH2 0x30B SWAP2 SWAP1 PUSH2 0x15FE JUMP JUMPDEST PUSH1 0x40 MLOAD DUP1 SWAP2 SUB SWAP1 RETURN JUMPDEST PUSH2 0x32E PUSH1 0x4 DUP1 CALLDATASIZE SUB DUP2 ADD SWAP1 PUSH2 0x329 SWAP2 SWAP1 PUSH2 0x15A6 JUMP JUMPDEST PUSH2 0x820 JUMP JUMPDEST PUSH1 0x40 MLOAD PUSH2 0x33B SWAP2 SWAP1 PUSH2 0x15FE JUMP JUMPDEST PUSH1 0x40 MLOAD DUP1 SWAP2 SUB SWAP1 RETURN JUMPDEST PUSH2 0x35E PUSH1 0x4 DUP1 CALLDATASIZE SUB DUP2 ADD SWAP1 PUSH2 0x359 SWAP2 SWAP1 PUSH2 0x14B8 JUMP JUMPDEST PUSH2 0x842 JUMP JUMPDEST STOP JUMPDEST PUSH2 0x37A PUSH1 0x4 DUP1 CALLDATASIZE SUB DUP2 ADD SWAP1 PUSH2 0x375 SWAP2 SWAP1 PUSH2 0x17C2 JUMP JUMPDEST PUSH2 0x8AD JUMP JUMPDEST STOP JUMPDEST PUSH2 0x396 PUSH1 0x4 DUP1 CALLDATASIZE SUB DUP2 ADD SWAP1 PUSH2 0x391 SWAP2 SWAP1 PUSH2 0x14B8 JUMP JUMPDEST PUSH2 0x997 JUMP JUMPDEST PUSH1 0x40 MLOAD PUSH2 0x3A3 SWAP2 SWAP1 PUSH2 0x15FE JUMP JUMPDEST PUSH1 0x40 MLOAD DUP1 SWAP2 SUB SWAP1 RETURN JUMPDEST PUSH2 0x3C6 PUSH1 0x4 DUP1 CALLDATASIZE SUB DUP2 ADD SWAP1 PUSH2 0x3C1 SWAP2 SWAP1 PUSH2 0x17ED JUMP JUMPDEST PUSH2 0xA39 JUMP JUMPDEST PUSH1 0x40 MLOAD PUSH2 0x3D3 SWAP2 SWAP1 PUSH2 0x16FD JUMP JUMPDEST PUSH1 0x40 MLOAD DUP1 SWAP2 SUB SWAP1 RETURN JUMPDEST PUSH2 0x3F6 PUSH1 0x4 DUP1 CALLDATASIZE SUB DUP2 ADD SWAP1 PUSH2 0x3F1 SWAP2 SWAP1 PUSH2 0x14B8 JUMP JUMPDEST PUSH2 0xABB JUMP JUMPDEST STOP JUMPDEST PUSH2 0x400 PUSH2 0xB3D JUMP JUMPDEST PUSH0 JUMPDEST PUSH1 0x6 DUP1 SLOAD SWAP1 POP DUP2 LT ISZERO PUSH2 0x4C9 JUMPI PUSH1 0x6 DUP2 DUP2 SLOAD DUP2 LT PUSH2 0x423 JUMPI PUSH2 0x422 PUSH2 0x182B JUMP JUMPDEST JUMPDEST SWAP1 PUSH0 MSTORE PUSH1 0x20 PUSH0 KECCAK256 ADD PUSH0 SWAP1 SLOAD SWAP1 PUSH2 0x100 EXP SWAP1 DIV PUSH20 0xFFFFFFFFFFFFFFFFFFFFFFFFFFFFFFFFFFFFFFFF AND PUSH20 0xFFFFFFFFFFFFFFFFFFFFFFFFFFFFFFFFFFFFFFFF AND DUP3 PUSH20 0xFFFFFFFFFFFFFFFFFFFFFFFFFFFFFFFFFFFFFFFF AND SUB PUSH2 0x4BC JUMPI PUSH1 0x6 DUP2 DUP2 SLOAD DUP2 LT PUSH2 0x491 JUMPI PUSH2 0x490 PUSH2 0x182B JUMP JUMPDEST JUMPDEST SWAP1 PUSH0 MSTORE PUSH1 0x20 PUSH0 KECCAK256 ADD PUSH0 PUSH2 0x100 EXP DUP2 SLOAD SWAP1 PUSH20 0xFFFFFFFFFFFFFFFFFFFFFFFFFFFFFFFFFFFFFFFF MUL NOT AND SWAP1 SSTORE JUMPDEST DUP1 DUP1 PUSH1 0x1 ADD SWAP2 POP POP PUSH2 0x402 JUMP JUMPDEST POP POP JUMP JUMPDEST PUSH1 0x60 PUSH1 0x3 DUP1 SLOAD PUSH2 0x4DC SWAP1 PUSH2 0x1885 JUMP JUMPDEST DUP1 PUSH1 0x1F ADD PUSH1 0x20 DUP1 SWAP2 DIV MUL PUSH1 0x20 ADD PUSH1 0x40 MLOAD SWAP1 DUP2 ADD PUSH1 0x40 MSTORE DUP1 SWAP3 SWAP2 SWAP1 DUP2 DUP2 MSTORE PUSH1 0x20 ADD DUP3 DUP1 SLOAD PUSH2 0x508 SWAP1 PUSH2 0x1885 JUMP JUMPDEST DUP1 ISZERO PUSH2 0x553 JUMPI DUP1 PUSH1 0x1F LT PUSH2 0x52A JUMPI PUSH2 0x100 DUP1 DUP4 SLOAD DIV MUL DUP4 MSTORE SWAP2 PUSH1 0x20 ADD SWAP2 PUSH2 0x553 JUMP JUMPDEST DUP3 ADD SWAP2 SWAP1 PUSH0 MSTORE PUSH1 0x20 PUSH0 KECCAK256 SWAP1 JUMPDEST DUP2 SLOAD DUP2 MSTORE SWAP1 PUSH1 0x1 ADD SWAP1 PUSH1 0x20 ADD DUP1 DUP4 GT PUSH2 0x536 JUMPI DUP3 SWAP1 SUB PUSH1 0x1F AND DUP3 ADD SWAP2 JUMPDEST POP POP POP POP POP SWAP1 POP SWAP1 JUMP JUMPDEST PUSH0 DUP1 PUSH2 0x567 PUSH2 0xBBB JUMP JUMPDEST SWAP1 POP PUSH2 0x574 DUP2 DUP6 DUP6 PUSH2 0xBC2 JUMP JUMPDEST PUSH1 0x1 SWAP2 POP POP SWAP3 SWAP2 POP POP JUMP JUMPDEST PUSH1 0x60 PUSH1 0x6 DUP1 SLOAD DUP1 PUSH1 0x20 MUL PUSH1 0x20 ADD PUSH1 0x40 MLOAD SWAP1 DUP2 ADD PUSH1 0x40 MSTORE DUP1 SWAP3 SWAP2 SWAP1 DUP2 DUP2 MSTORE PUSH1 0x20 ADD DUP3 DUP1 SLOAD DUP1 ISZERO PUSH2 0x600 JUMPI PUSH1 0x20 MUL DUP3 ADD SWAP2 SWAP1 PUSH0 MSTORE PUSH1 0x20 PUSH0 KECCAK256 SWAP1 JUMPDEST DUP2 PUSH0 SWAP1 SLOAD SWAP1 PUSH2 0x100 EXP SWAP1 DIV PUSH20 0xFFFFFFFFFFFFFFFFFFFFFFFFFFFFFFFFFFFFFFFF AND PUSH20 0xFFFFFFFFFFFFFFFFFFFFFFFFFFFFFFFFFFFFFFFF AND DUP2 MSTORE PUSH1 0x20 ADD SWAP1 PUSH1 0x1 ADD SWAP1 DUP1 DUP4 GT PUSH2 0x5B7 JUMPI JUMPDEST POP POP POP POP POP SWAP1 POP SWAP1 JUMP JUMPDEST PUSH0 PUSH1 0x2 SLOAD SWAP1 POP SWAP1 JUMP JUMPDEST PUSH0 DUP1 PUSH2 0x61D PUSH2 0xBBB JUMP JUMPDEST SWAP1 POP PUSH2 0x62A DUP6 DUP3 DUP6 PUSH2 0xD85 JUMP JUMPDEST PUSH2 0x635 DUP6 DUP6 DUP6 PUSH2 0xE10 JUMP JUMPDEST PUSH1 0x1 SWAP2 POP POP SWAP4 SWAP3 POP POP POP JUMP JUMPDEST PUSH0 PUSH1 0x12 SWAP1 POP SWAP1 JUMP JUMPDEST PUSH0 DUP1 PUSH2 0x653 PUSH2 0xBBB JUMP JUMPDEST SWAP1 POP PUSH2 0x674 DUP2 DUP6 DUP6 PUSH2 0x665 DUP6 DUP10 PUSH2 0xA39 JUMP JUMPDEST PUSH2 0x66F SWAP2 SWAP1 PUSH2 0x18E2 JUMP JUMPDEST PUSH2 0xBC2 JUMP JUMPDEST PUSH1 0x1 SWAP2 POP POP SWAP3 SWAP2 POP POP JUMP JUMPDEST PUSH0 DUP1 PUSH0 DUP4 PUSH20 0xFFFFFFFFFFFFFFFFFFFFFFFFFFFFFFFFFFFFFFFF AND PUSH20 0xFFFFFFFFFFFFFFFFFFFFFFFFFFFFFFFFFFFFFFFF AND DUP2 MSTORE PUSH1 0x20 ADD SWAP1 DUP2 MSTORE PUSH1 0x20 ADD PUSH0 KECCAK256 SLOAD SWAP1 POP SWAP2 SWAP1 POP JUMP JUMPDEST PUSH2 0x6CC PUSH2 0xB3D JUMP JUMPDEST PUSH2 0x6D5 PUSH0 PUSH2 0x107C JUMP JUMPDEST JUMP JUMPDEST PUSH0 PUSH1 0x5 PUSH0 SWAP1 SLOAD SWAP1 PUSH2 0x100 EXP SWAP1 DIV PUSH20 0xFFFFFFFFFFFFFFFFFFFFFFFFFFFFFFFFFFFFFFFF AND SWAP1 POP SWAP1 JUMP JUMPDEST PUSH1 0x60 PUSH1 0x4 DUP1 SLOAD PUSH2 0x70E SWAP1 PUSH2 0x1885 JUMP JUMPDEST DUP1 PUSH1 0x1F ADD PUSH1 0x20 DUP1 SWAP2 DIV MUL PUSH1 0x20 ADD PUSH1 0x40 MLOAD SWAP1 DUP2 ADD PUSH1 0x40 MSTORE DUP1 SWAP3 SWAP2 SWAP1 DUP2 DUP2 MSTORE PUSH1 0x20 ADD DUP3 DUP1 SLOAD PUSH2 0x73A SWAP1 PUSH2 0x1885 JUMP JUMPDEST DUP1 ISZERO PUSH2 0x785 JUMPI DUP1 PUSH1 0x1F LT PUSH2 0x75C JUMPI PUSH2 0x100 DUP1 DUP4 SLOAD DIV MUL DUP4 MSTORE SWAP2 PUSH1 0x20 ADD SWAP2 PUSH2 0x785 JUMP JUMPDEST DUP3 ADD SWAP2 SWAP1 PUSH0 MSTORE PUSH1 0x20 PUSH0 KECCAK256 SWAP1 JUMPDEST DUP2 SLOAD DUP2 MSTORE SWAP1 PUSH1 0x1 ADD SWAP1 PUSH1 0x20 ADD DUP1 DUP4 GT PUSH2 0x768 JUMPI DUP3 SWAP1 SUB PUSH1 0x1F AND DUP3 ADD SWAP2 JUMPDEST POP POP POP POP POP SWAP1 POP SWAP1 JUMP JUMPDEST PUSH2 0x797 PUSH2 0xB3D JUMP JUMPDEST PUSH2 0x7A8 PUSH2 0x7A2 PUSH2 0x6D7 JUMP JUMPDEST DUP3 PUSH2 0x113F JUMP JUMPDEST POP JUMP JUMPDEST PUSH0 DUP1 PUSH2 0x7B5 PUSH2 0xBBB JUMP JUMPDEST SWAP1 POP PUSH0 PUSH2 0x7C2 DUP3 DUP7 PUSH2 0xA39 JUMP JUMPDEST SWAP1 POP DUP4 DUP2 LT ISZERO PUSH2 0x807 JUMPI PUSH1 0x40 MLOAD PUSH32 0x8C379A000000000000000000000000000000000000000000000000000000000 DUP2 MSTORE PUSH1 0x4 ADD PUSH2 0x7FE SWAP1 PUSH2 0x1985 JUMP JUMPDEST PUSH1 0x40 MLOAD DUP1 SWAP2 SUB SWAP1 REVERT JUMPDEST PUSH2 0x814 DUP3 DUP7 DUP7 DUP5 SUB PUSH2 0xBC2 JUMP JUMPDEST PUSH1 0x1 SWAP3 POP POP POP SWAP3 SWAP2 POP POP JUMP JUMPDEST PUSH0 DUP1 PUSH2 0x82A PUSH2 0xBBB JUMP JUMPDEST SWAP1 POP PUSH2 0x837 DUP2 DUP6 DUP6 PUSH2 0xE10 JUMP JUMPDEST PUSH1 0x1 SWAP2 POP POP SWAP3 SWAP2 POP POP JUMP JUMPDEST PUSH2 0x84A PUSH2 0xB3D JUMP JUMPDEST PUSH1 0x6 DUP2 SWAP1 DUP1 PUSH1 0x1 DUP2 SLOAD ADD DUP1 DUP3 SSTORE DUP1 SWAP2 POP POP PUSH1 0x1 SWAP1 SUB SWAP1 PUSH0 MSTORE PUSH1 0x20 PUSH0 KECCAK256 ADD PUSH0 SWAP1 SWAP2 SWAP1 SWAP2 SWAP1 SWAP2 PUSH2 0x100 EXP DUP2 SLOAD DUP2 PUSH20 0xFFFFFFFFFFFFFFFFFFFFFFFFFFFFFFFFFFFFFFFF MUL NOT AND SWAP1 DUP4 PUSH20 0xFFFFFFFFFFFFFFFFFFFFFFFFFFFFFFFFFFFFFFFF AND MUL OR SWAP1 SSTORE POP POP JUMP JUMPDEST PUSH0 DUP1 JUMPDEST PUSH1 0x6 DUP1 SLOAD SWAP1 POP DUP2 LT ISZERO PUSH2 0x941 JUMPI CALLER PUSH20 0xFFFFFFFFFFFFFFFFFFFFFFFFFFFFFFFFFFFFFFFF AND PUSH1 0x6 DUP3 DUP2 SLOAD DUP2 LT PUSH2 0x8E8 JUMPI PUSH2 0x8E7 PUSH2 0x182B JUMP JUMPDEST JUMPDEST SWAP1 PUSH0 MSTORE PUSH1 0x20 PUSH0 KECCAK256 ADD PUSH0 SWAP1 SLOAD SWAP1 PUSH2 0x100 EXP SWAP1 DIV PUSH20 0xFFFFFFFFFFFFFFFFFFFFFFFFFFFFFFFFFFFFFFFF AND PUSH20 0xFFFFFFFFFFFFFFFFFFFFFFFFFFFFFFFFFFFFFFFF AND SUB PUSH2 0x934 JUMPI PUSH1 0x1 SWAP2 POP PUSH2 0x941 JUMP JUMPDEST DUP1 DUP1 PUSH1 0x1 ADD SWAP2 POP POP PUSH2 0x8B0 JUMP JUMPDEST POP DUP1 PUSH2 0x982 JUMPI PUSH1 0x40 MLOAD PUSH32 0x8C379A000000000000000000000000000000000000000000000000000000000 DUP2 MSTORE PUSH1 0x4 ADD PUSH2 0x979 SWAP1 PUSH2 0x19ED JUMP JUMPDEST PUSH1 0x40 MLOAD DUP1 SWAP2 SUB SWAP1 REVERT JUMPDEST PUSH2 0x993 PUSH2 0x98D PUSH2 0x6D7 JUMP JUMPDEST DUP4 PUSH2 0x128D JUMP JUMPDEST POP POP JUMP JUMPDEST PUSH0 DUP1 PUSH0 SWAP1 POP JUMPDEST PUSH1 0x6 DUP1 SLOAD SWAP1 POP DUP2 LT ISZERO PUSH2 0xA2F JUMPI PUSH1 0x6 DUP2 DUP2 SLOAD DUP2 LT PUSH2 0x9BE JUMPI PUSH2 0x9BD PUSH2 0x182B JUMP JUMPDEST JUMPDEST SWAP1 PUSH0 MSTORE PUSH1 0x20 PUSH0 KECCAK256 ADD PUSH0 SWAP1 SLOAD SWAP1 PUSH2 0x100 EXP SWAP1 DIV PUSH20 0xFFFFFFFFFFFFFFFFFFFFFFFFFFFFFFFFFFFFFFFF AND PUSH20 0xFFFFFFFFFFFFFFFFFFFFFFFFFFFFFFFFFFFFFFFF AND DUP4 PUSH20 0xFFFFFFFFFFFFFFFFFFFFFFFFFFFFFFFFFFFFFFFF AND SUB PUSH2 0xA22 JUMPI PUSH1 0x1 SWAP2 POP POP PUSH2 0xA34 JUMP JUMPDEST DUP1 DUP1 PUSH1 0x1 ADD SWAP2 POP POP PUSH2 0x99D JUMP JUMPDEST POP PUSH0 SWAP1 POP JUMPDEST SWAP2 SWAP1 POP JUMP JUMPDEST PUSH0 PUSH1 0x1 PUSH0 DUP5 PUSH20 0xFFFFFFFFFFFFFFFFFFFFFFFFFFFFFFFFFFFFFFFF AND PUSH20 0xFFFFFFFFFFFFFFFFFFFFFFFFFFFFFFFFFFFFFFFF AND DUP2 MSTORE PUSH1 0x20 ADD SWAP1 DUP2 MSTORE PUSH1 0x20 ADD PUSH0 KECCAK256 PUSH0 DUP4 PUSH20 0xFFFFFFFFFFFFFFFFFFFFFFFFFFFFFFFFFFFFFFFF AND PUSH20 0xFFFFFFFFFFFFFFFFFFFFFFFFFFFFFFFFFFFFFFFF AND DUP2 MSTORE PUSH1 0x20 ADD SWAP1 DUP2 MSTORE PUSH1 0x20 ADD PUSH0 KECCAK256 SLOAD SWAP1 POP SWAP3 SWAP2 POP POP JUMP JUMPDEST PUSH2 0xAC3 PUSH2 0xB3D JUMP JUMPDEST PUSH0 PUSH20 0xFFFFFFFFFFFFFFFFFFFFFFFFFFFFFFFFFFFFFFFF AND DUP2 PUSH20 0xFFFFFFFFFFFFFFFFFFFFFFFFFFFFFFFFFFFFFFFF AND SUB PUSH2 0xB31 JUMPI PUSH1 0x40 MLOAD PUSH32 0x8C379A000000000000000000000000000000000000000000000000000000000 DUP2 MSTORE PUSH1 0x4 ADD PUSH2 0xB28 SWAP1 PUSH2 0x1A7B JUMP JUMPDEST PUSH1 0x40 MLOAD DUP1 SWAP2 SUB SWAP1 REVERT JUMPDEST PUSH2 0xB3A DUP2 PUSH2 0x107C JUMP JUMPDEST POP JUMP JUMPDEST PUSH2 0xB45 PUSH2 0xBBB JUMP JUMPDEST PUSH20 0xFFFFFFFFFFFFFFFFFFFFFFFFFFFFFFFFFFFFFFFF AND PUSH2 0xB63 PUSH2 0x6D7 JUMP JUMPDEST PUSH20 0xFFFFFFFFFFFFFFFFFFFFFFFFFFFFFFFFFFFFFFFF AND EQ PUSH2 0xBB9 JUMPI PUSH1 0x40 MLOAD PUSH32 0x8C379A000000000000000000000000000000000000000000000000000000000 DUP2 MSTORE PUSH1 0x4 ADD PUSH2 0xBB0 SWAP1 PUSH2 0x1AE3 JUMP JUMPDEST PUSH1 0x40 MLOAD DUP1 SWAP2 SUB SWAP1 REVERT JUMPDEST JUMP JUMPDEST PUSH0 CALLER SWAP1 POP SWAP1 JUMP JUMPDEST PUSH0 PUSH20 0xFFFFFFFFFFFFFFFFFFFFFFFFFFFFFFFFFFFFFFFF AND DUP4 PUSH20 0xFFFFFFFFFFFFFFFFFFFFFFFFFFFFFFFFFFFFFFFF AND SUB PUSH2 0xC30 JUMPI PUSH1 0x40 MLOAD PUSH32 0x8C379A000000000000000000000000000000000000000000000000000000000 DUP2 MSTORE PUSH1 0x4 ADD PUSH2 0xC27 SWAP1 PUSH2 0x1B71 JUMP JUMPDEST PUSH1 0x40 MLOAD DUP1 SWAP2 SUB SWAP1 REVERT JUMPDEST PUSH0 PUSH20 0xFFFFFFFFFFFFFFFFFFFFFFFFFFFFFFFFFFFFFFFF AND DUP3 PUSH20 0xFFFFFFFFFFFFFFFFFFFFFFFFFFFFFFFFFFFFFFFF AND SUB PUSH2 0xC9E JUMPI PUSH1 0x40 MLOAD PUSH32 0x8C379A000000000000000000000000000000000000000000000000000000000 DUP2 MSTORE PUSH1 0x4 ADD PUSH2 0xC95 SWAP1 PUSH2 0x1BFF JUMP JUMPDEST PUSH1 0x40 MLOAD DUP1 SWAP2 SUB SWAP1 REVERT JUMPDEST DUP1 PUSH1 0x1 PUSH0 DUP6 PUSH20 0xFFFFFFFFFFFFFFFFFFFFFFFFFFFFFFFFFFFFFFFF AND PUSH20 0xFFFFFFFFFFFFFFFFFFFFFFFFFFFFFFFFFFFFFFFF AND DUP2 MSTORE PUSH1 0x20 ADD SWAP1 DUP2 MSTORE PUSH1 0x20 ADD PUSH0 KECCAK256 PUSH0 DUP5 PUSH20 0xFFFFFFFFFFFFFFFFFFFFFFFFFFFFFFFFFFFFFFFF AND PUSH20 0xFFFFFFFFFFFFFFFFFFFFFFFFFFFFFFFFFFFFFFFF AND DUP2 MSTORE PUSH1 0x20 ADD SWAP1 DUP2 MSTORE PUSH1 0x20 ADD PUSH0 KECCAK256 DUP2 SWAP1 SSTORE POP DUP2 PUSH20 0xFFFFFFFFFFFFFFFFFFFFFFFFFFFFFFFFFFFFFFFF AND DUP4 PUSH20 0xFFFFFFFFFFFFFFFFFFFFFFFFFFFFFFFFFFFFFFFF AND PUSH32 0x8C5BE1E5EBEC7D5BD14F71427D1E84F3DD0314C0F7B2291E5B200AC8C7C3B925 DUP4 PUSH1 0x40 MLOAD PUSH2 0xD78 SWAP2 SWAP1 PUSH2 0x16FD JUMP JUMPDEST PUSH1 0x40 MLOAD DUP1 SWAP2 SUB SWAP1 LOG3 POP POP POP JUMP JUMPDEST PUSH0 PUSH2 0xD90 DUP5 DUP5 PUSH2 0xA39 JUMP JUMPDEST SWAP1 POP PUSH32 0xFFFFFFFFFFFFFFFFFFFFFFFFFFFFFFFFFFFFFFFFFFFFFFFFFFFFFFFFFFFFFFFF DUP2 EQ PUSH2 0xE0A JUMPI DUP2 DUP2 LT ISZERO PUSH2 0xDFC JUMPI PUSH1 0x40 MLOAD PUSH32 0x8C379A000000000000000000000000000000000000000000000000000000000 DUP2 MSTORE PUSH1 0x4 ADD PUSH2 0xDF3 SWAP1 PUSH2 0x1C67 JUMP JUMPDEST PUSH1 0x40 MLOAD DUP1 SWAP2 SUB SWAP1 REVERT JUMPDEST PUSH2 0xE09 DUP5 DUP5 DUP5 DUP5 SUB PUSH2 0xBC2 JUMP JUMPDEST JUMPDEST POP POP POP POP JUMP JUMPDEST PUSH0 PUSH20 0xFFFFFFFFFFFFFFFFFFFFFFFFFFFFFFFFFFFFFFFF AND DUP4 PUSH20 0xFFFFFFFFFFFFFFFFFFFFFFFFFFFFFFFFFFFFFFFF AND SUB PUSH2 0xE7E JUMPI PUSH1 0x40 MLOAD PUSH32 0x8C379A000000000000000000000000000000000000000000000000000000000 DUP2 MSTORE PUSH1 0x4 ADD PUSH2 0xE75 SWAP1 PUSH2 0x1CF5 JUMP JUMPDEST PUSH1 0x40 MLOAD DUP1 SWAP2 SUB SWAP1 REVERT JUMPDEST PUSH0 PUSH20 0xFFFFFFFFFFFFFFFFFFFFFFFFFFFFFFFFFFFFFFFF AND DUP3 PUSH20 0xFFFFFFFFFFFFFFFFFFFFFFFFFFFFFFFFFFFFFFFF AND SUB PUSH2 0xEEC JUMPI PUSH1 0x40 MLOAD PUSH32 0x8C379A000000000000000000000000000000000000000000000000000000000 DUP2 MSTORE PUSH1 0x4 ADD PUSH2 0xEE3 SWAP1 PUSH2 0x1D83 JUMP JUMPDEST PUSH1 0x40 MLOAD DUP1 SWAP2 SUB SWAP1 REVERT JUMPDEST PUSH2 0xEF7 DUP4 DUP4 DUP4 PUSH2 0x1450 JUMP JUMPDEST PUSH0 DUP1 PUSH0 DUP6 PUSH20 0xFFFFFFFFFFFFFFFFFFFFFFFFFFFFFFFFFFFFFFFF AND PUSH20 0xFFFFFFFFFFFFFFFFFFFFFFFFFFFFFFFFFFFFFFFF AND DUP2 MSTORE PUSH1 0x20 ADD SWAP1 DUP2 MSTORE PUSH1 0x20 ADD PUSH0 KECCAK256 SLOAD SWAP1 POP DUP2 DUP2 LT ISZERO PUSH2 0xF7A JUMPI PUSH1 0x40 MLOAD PUSH32 0x8C379A000000000000000000000000000000000000000000000000000000000 DUP2 MSTORE PUSH1 0x4 ADD PUSH2 0xF71 SWAP1 PUSH2 0x1E11 JUMP JUMPDEST PUSH1 0x40 MLOAD DUP1 SWAP2 SUB SWAP1 REVERT JUMPDEST DUP2 DUP2 SUB PUSH0 DUP1 DUP7 PUSH20 0xFFFFFFFFFFFFFFFFFFFFFFFFFFFFFFFFFFFFFFFF AND PUSH20 0xFFFFFFFFFFFFFFFFFFFFFFFFFFFFFFFFFFFFFFFF AND DUP2 MSTORE PUSH1 0x20 ADD SWAP1 DUP2 MSTORE PUSH1 0x20 ADD PUSH0 KECCAK256 DUP2 SWAP1 SSTORE POP DUP2 PUSH0 DUP1 DUP6 PUSH20 0xFFFFFFFFFFFFFFFFFFFFFFFFFFFFFFFFFFFFFFFF AND PUSH20 0xFFFFFFFFFFFFFFFFFFFFFFFFFFFFFFFFFFFFFFFF AND DUP2 MSTORE PUSH1 0x20 ADD SWAP1 DUP2 MSTORE PUSH1 0x20 ADD PUSH0 KECCAK256 PUSH0 DUP3 DUP3 SLOAD ADD SWAP3 POP POP DUP2 SWAP1 SSTORE POP DUP3 PUSH20 0xFFFFFFFFFFFFFFFFFFFFFFFFFFFFFFFFFFFFFFFF AND DUP5 PUSH20 0xFFFFFFFFFFFFFFFFFFFFFFFFFFFFFFFFFFFFFFFF AND PUSH32 0xDDF252AD1BE2C89B69C2B068FC378DAA952BA7F163C4A11628F55A4DF523B3EF DUP5 PUSH1 0x40 MLOAD PUSH2 0x1063 SWAP2 SWAP1 PUSH2 0x16FD JUMP JUMPDEST PUSH1 0x40 MLOAD DUP1 SWAP2 SUB SWAP1 LOG3 PUSH2 0x1076 DUP5 DUP5 DUP5 PUSH2 0x1455 JUMP JUMPDEST POP POP POP POP JUMP JUMPDEST PUSH0 PUSH1 0x5 PUSH0 SWAP1 SLOAD SWAP1 PUSH2 0x100 EXP SWAP1 DIV PUSH20 0xFFFFFFFFFFFFFFFFFFFFFFFFFFFFFFFFFFFFFFFF AND SWAP1 POP DUP2 PUSH1 0x5 PUSH0 PUSH2 0x100 EXP DUP2 SLOAD DUP2 PUSH20 0xFFFFFFFFFFFFFFFFFFFFFFFFFFFFFFFFFFFFFFFF MUL NOT AND SWAP1 DUP4 PUSH20 0xFFFFFFFFFFFFFFFFFFFFFFFFFFFFFFFFFFFFFFFF AND MUL OR SWAP1 SSTORE POP DUP2 PUSH20 0xFFFFFFFFFFFFFFFFFFFFFFFFFFFFFFFFFFFFFFFF AND DUP2 PUSH20 0xFFFFFFFFFFFFFFFFFFFFFFFFFFFFFFFFFFFFFFFF AND PUSH32 0x8BE0079C531659141344CD1FD0A4F28419497F9722A3DAAFE3B4186F6B6457E0 PUSH1 0x40 MLOAD PUSH1 0x40 MLOAD DUP1 SWAP2 SUB SWAP1 LOG3 POP POP JUMP JUMPDEST PUSH0 PUSH20 0xFFFFFFFFFFFFFFFFFFFFFFFFFFFFFFFFFFFFFFFF AND DUP3 PUSH20 0xFFFFFFFFFFFFFFFFFFFFFFFFFFFFFFFFFFFFFFFF AND SUB PUSH2 0x11AD JUMPI PUSH1 0x40 MLOAD PUSH32 0x8C379A000000000000000000000000000000000000000000000000000000000 DUP2 MSTORE PUSH1 0x4 ADD PUSH2 0x11A4 SWAP1 PUSH2 0x1E79 JUMP JUMPDEST PUSH1 0x40 MLOAD DUP1 SWAP2 SUB SWAP1 REVERT JUMPDEST PUSH2 0x11B8 PUSH0 DUP4 DUP4 PUSH2 0x1450 JUMP JUMPDEST DUP1 PUSH1 0x2 PUSH0 DUP3 DUP3 SLOAD PUSH2 0x11C9 SWAP2 SWAP1 PUSH2 0x18E2 JUMP JUMPDEST SWAP3 POP POP DUP2 SWAP1 SSTORE POP DUP1 PUSH0 DUP1 DUP5 PUSH20 0xFFFFFFFFFFFFFFFFFFFFFFFFFFFFFFFFFFFFFFFF AND PUSH20 0xFFFFFFFFFFFFFFFFFFFFFFFFFFFFFFFFFFFFFFFF AND DUP2 MSTORE PUSH1 0x20 ADD SWAP1 DUP2 MSTORE PUSH1 0x20 ADD PUSH0 KECCAK256 PUSH0 DUP3 DUP3 SLOAD ADD SWAP3 POP POP DUP2 SWAP1 SSTORE POP DUP2 PUSH20 0xFFFFFFFFFFFFFFFFFFFFFFFFFFFFFFFFFFFFFFFF AND PUSH0 PUSH20 0xFFFFFFFFFFFFFFFFFFFFFFFFFFFFFFFFFFFFFFFF AND PUSH32 0xDDF252AD1BE2C89B69C2B068FC378DAA952BA7F163C4A11628F55A4DF523B3EF DUP4 PUSH1 0x40 MLOAD PUSH2 0x1276 SWAP2 SWAP1 PUSH2 0x16FD JUMP JUMPDEST PUSH1 0x40 MLOAD DUP1 SWAP2 SUB SWAP1 LOG3 PUSH2 0x1289 PUSH0 DUP4 DUP4 PUSH2 0x1455 JUMP JUMPDEST POP POP JUMP JUMPDEST PUSH0 PUSH20 0xFFFFFFFFFFFFFFFFFFFFFFFFFFFFFFFFFFFFFFFF AND DUP3 PUSH20 0xFFFFFFFFFFFFFFFFFFFFFFFFFFFFFFFFFFFFFFFF AND SUB PUSH2 0x12FB JUMPI PUSH1 0x40 MLOAD PUSH32 0x8C379A000000000000000000000000000000000000000000000000000000000 DUP2 MSTORE PUSH1 0x4 ADD PUSH2 0x12F2 SWAP1 PUSH2 0x1F07 JUMP JUMPDEST PUSH1 0x40 MLOAD DUP1 SWAP2 SUB SWAP1 REVERT JUMPDEST PUSH2 0x1306 DUP3 PUSH0 DUP4 PUSH2 0x1450 JUMP JUMPDEST PUSH0 DUP1 PUSH0 DUP5 PUSH20 0xFFFFFFFFFFFFFFFFFFFFFFFFFFFFFFFFFFFFFFFF AND PUSH20 0xFFFFFFFFFFFFFFFFFFFFFFFFFFFFFFFFFFFFFFFF AND DUP2 MSTORE PUSH1 0x20 ADD SWAP1 DUP2 MSTORE PUSH1 0x20 ADD PUSH0 KECCAK256 SLOAD SWAP1 POP DUP2 DUP2 LT ISZERO PUSH2 0x1389 JUMPI PUSH1 0x40 MLOAD PUSH32 0x8C379A000000000000000000000000000000000000000000000000000000000 DUP2 MSTORE PUSH1 0x4 ADD PUSH2 0x1380 SWAP1 PUSH2 0x1F95 JUMP JUMPDEST PUSH1 0x40 MLOAD DUP1 SWAP2 SUB SWAP1 REVERT JUMPDEST DUP2 DUP2 SUB PUSH0 DUP1 DUP6 PUSH20 0xFFFFFFFFFFFFFFFFFFFFFFFFFFFFFFFFFFFFFFFF AND PUSH20 0xFFFFFFFFFFFFFFFFFFFFFFFFFFFFFFFFFFFFFFFF AND DUP2 MSTORE PUSH1 0x20 ADD SWAP1 DUP2 MSTORE PUSH1 0x20 ADD PUSH0 KECCAK256 DUP2 SWAP1 SSTORE POP DUP2 PUSH1 0x2 PUSH0 DUP3 DUP3 SLOAD SUB SWAP3 POP POP DUP2 SWAP1 SSTORE POP PUSH0 PUSH20 0xFFFFFFFFFFFFFFFFFFFFFFFFFFFFFFFFFFFFFFFF AND DUP4 PUSH20 0xFFFFFFFFFFFFFFFFFFFFFFFFFFFFFFFFFFFFFFFF AND PUSH32 0xDDF252AD1BE2C89B69C2B068FC378DAA952BA7F163C4A11628F55A4DF523B3EF DUP5 PUSH1 0x40 MLOAD PUSH2 0x1438 SWAP2 SWAP1 PUSH2 0x16FD JUMP JUMPDEST PUSH1 0x40 MLOAD DUP1 SWAP2 SUB SWAP1 LOG3 PUSH2 0x144B DUP4 PUSH0 DUP5 PUSH2 0x1455 JUMP JUMPDEST POP POP POP JUMP JUMPDEST POP POP POP JUMP JUMPDEST POP POP POP JUMP JUMPDEST PUSH0 DUP1 REVERT JUMPDEST PUSH0 PUSH20 0xFFFFFFFFFFFFFFFFFFFFFFFFFFFFFFFFFFFFFFFF DUP3 AND SWAP1 POP SWAP2 SWAP1 POP JUMP JUMPDEST PUSH0 PUSH2 0x1487 DUP3 PUSH2 0x145E JUMP JUMPDEST SWAP1 POP SWAP2 SWAP1 POP JUMP JUMPDEST PUSH2 0x1497 DUP2 PUSH2 0x147D JUMP JUMPDEST DUP2 EQ PUSH2 0x14A1 JUMPI PUSH0 DUP1 REVERT JUMPDEST POP JUMP JUMPDEST PUSH0 DUP2 CALLDATALOAD SWAP1 POP PUSH2 0x14B2 DUP2 PUSH2 0x148E JUMP JUMPDEST SWAP3 SWAP2 POP POP JUMP JUMPDEST PUSH0 PUSH1 0x20 DUP3 DUP5 SUB SLT ISZERO PUSH2 0x14CD JUMPI PUSH2 0x14CC PUSH2 0x145A JUMP JUMPDEST JUMPDEST PUSH0 PUSH2 0x14DA DUP5 DUP3 DUP6 ADD PUSH2 0x14A4 JUMP JUMPDEST SWAP2 POP POP SWAP3 SWAP2 POP POP JUMP JUMPDEST PUSH0 DUP2 MLOAD SWAP1 POP SWAP2 SWAP1 POP JUMP JUMPDEST PUSH0 DUP3 DUP3 MSTORE PUSH1 0x20 DUP3 ADD SWAP1 POP SWAP3 SWAP2 POP POP JUMP JUMPDEST DUP3 DUP2 DUP4 MCOPY PUSH0 DUP4 DUP4 ADD MSTORE POP POP POP JUMP JUMPDEST PUSH0 PUSH1 0x1F NOT PUSH1 0x1F DUP4 ADD AND SWAP1 POP SWAP2 SWAP1 POP JUMP JUMPDEST PUSH0 PUSH2 0x1525 DUP3 PUSH2 0x14E3 JUMP JUMPDEST PUSH2 0x152F DUP2 DUP6 PUSH2 0x14ED JUMP JUMPDEST SWAP4 POP PUSH2 0x153F DUP2 DUP6 PUSH1 0x20 DUP7 ADD PUSH2 0x14FD JUMP JUMPDEST PUSH2 0x1548 DUP2 PUSH2 0x150B JUMP JUMPDEST DUP5 ADD SWAP2 POP POP SWAP3 SWAP2 POP POP JUMP JUMPDEST PUSH0 PUSH1 0x20 DUP3 ADD SWAP1 POP DUP2 DUP2 SUB PUSH0 DUP4 ADD MSTORE PUSH2 0x156B DUP2 DUP5 PUSH2 0x151B JUMP JUMPDEST SWAP1 POP SWAP3 SWAP2 POP POP JUMP JUMPDEST PUSH0 DUP2 SWAP1 POP SWAP2 SWAP1 POP JUMP JUMPDEST PUSH2 0x1585 DUP2 PUSH2 0x1573 JUMP JUMPDEST DUP2 EQ PUSH2 0x158F JUMPI PUSH0 DUP1 REVERT JUMPDEST POP JUMP JUMPDEST PUSH0 DUP2 CALLDATALOAD SWAP1 POP PUSH2 0x15A0 DUP2 PUSH2 0x157C JUMP JUMPDEST SWAP3 SWAP2 POP POP JUMP JUMPDEST PUSH0 DUP1 PUSH1 0x40 DUP4 DUP6 SUB SLT ISZERO PUSH2 0x15BC JUMPI PUSH2 0x15BB PUSH2 0x145A JUMP JUMPDEST JUMPDEST PUSH0 PUSH2 0x15C9 DUP6 DUP3 DUP7 ADD PUSH2 0x14A4 JUMP JUMPDEST SWAP3 POP POP PUSH1 0x20 PUSH2 0x15DA DUP6 DUP3 DUP7 ADD PUSH2 0x1592 JUMP JUMPDEST SWAP2 POP POP SWAP3 POP SWAP3 SWAP1 POP JUMP JUMPDEST PUSH0 DUP2 ISZERO ISZERO SWAP1 POP SWAP2 SWAP1 POP JUMP JUMPDEST PUSH2 0x15F8 DUP2 PUSH2 0x15E4 JUMP JUMPDEST DUP3 MSTORE POP POP JUMP JUMPDEST PUSH0 PUSH1 0x20 DUP3 ADD SWAP1 POP PUSH2 0x1611 PUSH0 DUP4 ADD DUP5 PUSH2 0x15EF JUMP JUMPDEST SWAP3 SWAP2 POP POP JUMP JUMPDEST PUSH0 DUP2 MLOAD SWAP1 POP SWAP2 SWAP1 POP JUMP JUMPDEST PUSH0 DUP3 DUP3 MSTORE PUSH1 0x20 DUP3 ADD SWAP1 POP SWAP3 SWAP2 POP POP JUMP JUMPDEST PUSH0 DUP2 SWAP1 POP PUSH1 0x20 DUP3 ADD SWAP1 POP SWAP2 SWAP1 POP JUMP JUMPDEST PUSH2 0x1649 DUP2 PUSH2 0x147D JUMP JUMPDEST DUP3 MSTORE POP POP JUMP JUMPDEST PUSH0 PUSH2 0x165A DUP4 DUP4 PUSH2 0x1640 JUMP JUMPDEST PUSH1 0x20 DUP4 ADD SWAP1 POP SWAP3 SWAP2 POP POP JUMP JUMPDEST PUSH0 PUSH1 0x20 DUP3 ADD SWAP1 POP SWAP2 SWAP1 POP JUMP JUMPDEST PUSH0 PUSH2 0x167C DUP3 PUSH2 0x1617 JUMP JUMPDEST PUSH2 0x1686 DUP2 DUP6 PUSH2 0x1621 JUMP JUMPDEST SWAP4 POP PUSH2 0x1691 DUP4 PUSH2 0x1631 JUMP JUMPDEST DUP1 PUSH0 JUMPDEST DUP4 DUP2 LT ISZERO PUSH2 0x16C1 JUMPI DUP2 MLOAD PUSH2 0x16A8 DUP9 DUP3 PUSH2 0x164F JUMP JUMPDEST SWAP8 POP PUSH2 0x16B3 DUP4 PUSH2 0x1666 JUMP JUMPDEST SWAP3 POP POP PUSH1 0x1 DUP2 ADD SWAP1 POP PUSH2 0x1694 JUMP JUMPDEST POP DUP6 SWAP4 POP POP POP POP SWAP3 SWAP2 POP POP JUMP JUMPDEST PUSH0 PUSH1 0x20 DUP3 ADD SWAP1 POP DUP2 DUP2 SUB PUSH0 DUP4 ADD MSTORE PUSH2 0x16E6 DUP2 DUP5 PUSH2 0x1672 JUMP JUMPDEST SWAP1 POP SWAP3 SWAP2 POP POP JUMP JUMPDEST PUSH2 0x16F7 DUP2 PUSH2 0x1573 JUMP JUMPDEST DUP3 MSTORE POP POP JUMP JUMPDEST PUSH0 PUSH1 0x20 DUP3 ADD SWAP1 POP PUSH2 0x1710 PUSH0 DUP4 ADD DUP5 PUSH2 0x16EE JUMP JUMPDEST SWAP3 SWAP2 POP POP JUMP JUMPDEST PUSH0 DUP1 PUSH0 PUSH1 0x60 DUP5 DUP7 SUB SLT ISZERO PUSH2 0x172D JUMPI PUSH2 0x172C PUSH2 0x145A JUMP JUMPDEST JUMPDEST PUSH0 PUSH2 0x173A DUP7 DUP3 DUP8 ADD PUSH2 0x14A4 JUMP JUMPDEST SWAP4 POP POP PUSH1 0x20 PUSH2 0x174B DUP7 DUP3 DUP8 ADD PUSH2 0x14A4 JUMP JUMPDEST SWAP3 POP POP PUSH1 0x40 PUSH2 0x175C DUP7 DUP3 DUP8 ADD PUSH2 0x1592 JUMP JUMPDEST SWAP2 POP POP SWAP3 POP SWAP3 POP SWAP3 JUMP JUMPDEST PUSH0 PUSH1 0xFF DUP3 AND SWAP1 POP SWAP2 SWAP1 POP JUMP JUMPDEST PUSH2 0x177B DUP2 PUSH2 0x1766 JUMP JUMPDEST DUP3 MSTORE POP POP JUMP JUMPDEST PUSH0 PUSH1 0x20 DUP3 ADD SWAP1 POP PUSH2 0x1794 PUSH0 DUP4 ADD DUP5 PUSH2 0x1772 JUMP JUMPDEST SWAP3 SWAP2 POP POP JUMP JUMPDEST PUSH2 0x17A3 DUP2 PUSH2 0x147D JUMP JUMPDEST DUP3 MSTORE POP POP JUMP JUMPDEST PUSH0 PUSH1 0x20 DUP3 ADD SWAP1 POP PUSH2 0x17BC PUSH0 DUP4 ADD DUP5 PUSH2 0x179A JUMP JUMPDEST SWAP3 SWAP2 POP POP JUMP JUMPDEST PUSH0 PUSH1 0x20 DUP3 DUP5 SUB SLT ISZERO PUSH2 0x17D7 JUMPI PUSH2 0x17D6 PUSH2 0x145A JUMP JUMPDEST JUMPDEST PUSH0 PUSH2 0x17E4 DUP5 DUP3 DUP6 ADD PUSH2 0x1592 JUMP JUMPDEST SWAP2 POP POP SWAP3 SWAP2 POP POP JUMP JUMPDEST PUSH0 DUP1 PUSH1 0x40 DUP4 DUP6 SUB SLT ISZERO PUSH2 0x1803 JUMPI PUSH2 0x1802 PUSH2 0x145A JUMP JUMPDEST JUMPDEST PUSH0 PUSH2 0x1810 DUP6 DUP3 DUP7 ADD PUSH2 0x14A4 JUMP JUMPDEST SWAP3 POP POP PUSH1 0x20 PUSH2 0x1821 DUP6 DUP3 DUP7 ADD PUSH2 0x14A4 JUMP JUMPDEST SWAP2 POP POP SWAP3 POP SWAP3 SWAP1 POP JUMP JUMPDEST PUSH32 0x4E487B7100000000000000000000000000000000000000000000000000000000 PUSH0 MSTORE PUSH1 0x32 PUSH1 0x4 MSTORE PUSH1 0x24 PUSH0 REVERT JUMPDEST PUSH32 0x4E487B7100000000000000000000000000000000000000000000000000000000 PUSH0 MSTORE PUSH1 0x22 PUSH1 0x4 MSTORE PUSH1 0x24 PUSH0 REVERT JUMPDEST PUSH0 PUSH1 0x2 DUP3 DIV SWAP1 POP PUSH1 0x1 DUP3 AND DUP1 PUSH2 0x189C JUMPI PUSH1 0x7F DUP3 AND SWAP2 POP JUMPDEST PUSH1 0x20 DUP3 LT DUP2 SUB PUSH2 0x18AF JUMPI PUSH2 0x18AE PUSH2 0x1858 JUMP JUMPDEST JUMPDEST POP SWAP2 SWAP1 POP JUMP JUMPDEST PUSH32 0x4E487B7100000000000000000000000000000000000000000000000000000000 PUSH0 MSTORE PUSH1 0x11 PUSH1 0x4 MSTORE PUSH1 0x24 PUSH0 REVERT JUMPDEST PUSH0 PUSH2 0x18EC DUP3 PUSH2 0x1573 JUMP JUMPDEST SWAP2 POP PUSH2 0x18F7 DUP4 PUSH2 0x1573 JUMP JUMPDEST SWAP3 POP DUP3 DUP3 ADD SWAP1 POP DUP1 DUP3 GT ISZERO PUSH2 0x190F JUMPI PUSH2 0x190E PUSH2 0x18B5 JUMP JUMPDEST JUMPDEST SWAP3 SWAP2 POP POP JUMP JUMPDEST PUSH32 0x45524332303A2064656372656173656420616C6C6F77616E63652062656C6F77 PUSH0 DUP3 ADD MSTORE PUSH32 0x207A65726F000000000000000000000000000000000000000000000000000000 PUSH1 0x20 DUP3 ADD MSTORE POP JUMP JUMPDEST PUSH0 PUSH2 0x196F PUSH1 0x25 DUP4 PUSH2 0x14ED JUMP JUMPDEST SWAP2 POP PUSH2 0x197A DUP3 PUSH2 0x1915 JUMP JUMPDEST PUSH1 0x40 DUP3 ADD SWAP1 POP SWAP2 SWAP1 POP JUMP JUMPDEST PUSH0 PUSH1 0x20 DUP3 ADD SWAP1 POP DUP2 DUP2 SUB PUSH0 DUP4 ADD MSTORE PUSH2 0x199C DUP2 PUSH2 0x1963 JUMP JUMPDEST SWAP1 POP SWAP2 SWAP1 POP JUMP JUMPDEST PUSH32 0x6D73672E73656E646572206973206E6F74207468652070617965720000000000 PUSH0 DUP3 ADD MSTORE POP JUMP JUMPDEST PUSH0 PUSH2 0x19D7 PUSH1 0x1B DUP4 PUSH2 0x14ED JUMP JUMPDEST SWAP2 POP PUSH2 0x19E2 DUP3 PUSH2 0x19A3 JUMP JUMPDEST PUSH1 0x20 DUP3 ADD SWAP1 POP SWAP2 SWAP1 POP JUMP JUMPDEST PUSH0 PUSH1 0x20 DUP3 ADD SWAP1 POP DUP2 DUP2 SUB PUSH0 DUP4 ADD MSTORE PUSH2 0x1A04 DUP2 PUSH2 0x19CB JUMP JUMPDEST SWAP1 POP SWAP2 SWAP1 POP JUMP JUMPDEST PUSH32 0x4F776E61626C653A206E6577206F776E657220697320746865207A65726F2061 PUSH0 DUP3 ADD MSTORE PUSH32 0x6464726573730000000000000000000000000000000000000000000000000000 PUSH1 0x20 DUP3 ADD MSTORE POP JUMP JUMPDEST PUSH0 PUSH2 0x1A65 PUSH1 0x26 DUP4 PUSH2 0x14ED JUMP JUMPDEST SWAP2 POP PUSH2 0x1A70 DUP3 PUSH2 0x1A0B JUMP JUMPDEST PUSH1 0x40 DUP3 ADD SWAP1 POP SWAP2 SWAP1 POP JUMP JUMPDEST PUSH0 PUSH1 0x20 DUP3 ADD SWAP1 POP DUP2 DUP2 SUB PUSH0 DUP4 ADD MSTORE PUSH2 0x1A92 DUP2 PUSH2 0x1A59 JUMP JUMPDEST SWAP1 POP SWAP2 SWAP1 POP JUMP JUMPDEST PUSH32 0x4F776E61626C653A2063616C6C6572206973206E6F7420746865206F776E6572 PUSH0 DUP3 ADD MSTORE POP JUMP JUMPDEST PUSH0 PUSH2 0x1ACD PUSH1 0x20 DUP4 PUSH2 0x14ED JUMP JUMPDEST SWAP2 POP PUSH2 0x1AD8 DUP3 PUSH2 0x1A99 JUMP JUMPDEST PUSH1 0x20 DUP3 ADD SWAP1 POP SWAP2 SWAP1 POP JUMP JUMPDEST PUSH0 PUSH1 0x20 DUP3 ADD SWAP1 POP DUP2 DUP2 SUB PUSH0 DUP4 ADD MSTORE PUSH2 0x1AFA DUP2 PUSH2 0x1AC1 JUMP JUMPDEST SWAP1 POP SWAP2 SWAP1 POP JUMP JUMPDEST PUSH32 0x45524332303A20617070726F76652066726F6D20746865207A65726F20616464 PUSH0 DUP3 ADD MSTORE PUSH32 0x7265737300000000000000000000000000000000000000000000000000000000 PUSH1 0x20 DUP3 ADD MSTORE POP JUMP JUMPDEST PUSH0 PUSH2 0x1B5B PUSH1 0x24 DUP4 PUSH2 0x14ED JUMP JUMPDEST SWAP2 POP PUSH2 0x1B66 DUP3 PUSH2 0x1B01 JUMP JUMPDEST PUSH1 0x40 DUP3 ADD SWAP1 POP SWAP2 SWAP1 POP JUMP JUMPDEST PUSH0 PUSH1 0x20 DUP3 ADD SWAP1 POP DUP2 DUP2 SUB PUSH0 DUP4 ADD MSTORE PUSH2 0x1B88 DUP2 PUSH2 0x1B4F JUMP JUMPDEST SWAP1 POP SWAP2 SWAP1 POP JUMP JUMPDEST PUSH32 0x45524332303A20617070726F766520746F20746865207A65726F206164647265 PUSH0 DUP3 ADD MSTORE PUSH32 0x7373000000000000000000000000000000000000000000000000000000000000 PUSH1 0x20 DUP3 ADD MSTORE POP JUMP JUMPDEST PUSH0 PUSH2 0x1BE9 PUSH1 0x22 DUP4 PUSH2 0x14ED JUMP JUMPDEST SWAP2 POP PUSH2 0x1BF4 DUP3 PUSH2 0x1B8F JUMP JUMPDEST PUSH1 0x40 DUP3 ADD SWAP1 POP SWAP2 SWAP1 POP JUMP JUMPDEST PUSH0 PUSH1 0x20 DUP3 ADD SWAP1 POP DUP2 DUP2 SUB PUSH0 DUP4 ADD MSTORE PUSH2 0x1C16 DUP2 PUSH2 0x1BDD JUMP JUMPDEST SWAP1 POP SWAP2 SWAP1 POP JUMP JUMPDEST PUSH32 0x45524332303A20696E73756666696369656E7420616C6C6F77616E6365000000 PUSH0 DUP3 ADD MSTORE POP JUMP JUMPDEST PUSH0 PUSH2 0x1C51 PUSH1 0x1D DUP4 PUSH2 0x14ED JUMP JUMPDEST SWAP2 POP PUSH2 0x1C5C DUP3 PUSH2 0x1C1D JUMP JUMPDEST PUSH1 0x20 DUP3 ADD SWAP1 POP SWAP2 SWAP1 POP JUMP JUMPDEST PUSH0 PUSH1 0x20 DUP3 ADD SWAP1 POP DUP2 DUP2 SUB PUSH0 DUP4 ADD MSTORE PUSH2 0x1C7E DUP2 PUSH2 0x1C45 JUMP JUMPDEST SWAP1 POP SWAP2 SWAP1 POP JUMP JUMPDEST PUSH32 0x45524332303A207472616E736665722066726F6D20746865207A65726F206164 PUSH0 DUP3 ADD MSTORE PUSH32 0x6472657373000000000000000000000000000000000000000000000000000000 PUSH1 0x20 DUP3 ADD MSTORE POP JUMP JUMPDEST PUSH0 PUSH2 0x1CDF PUSH1 0x25 DUP4 PUSH2 0x14ED JUMP JUMPDEST SWAP2 POP PUSH2 0x1CEA DUP3 PUSH2 0x1C85 JUMP JUMPDEST PUSH1 0x40 DUP3 ADD SWAP1 POP SWAP2 SWAP1 POP JUMP JUMPDEST PUSH0 PUSH1 0x20 DUP3 ADD SWAP1 POP DUP2 DUP2 SUB PUSH0 DUP4 ADD MSTORE PUSH2 0x1D0C DUP2 PUSH2 0x1CD3 JUMP JUMPDEST SWAP1 POP SWAP2 SWAP1 POP JUMP JUMPDEST PUSH32 0x45524332303A207472616E7366657220746F20746865207A65726F2061646472 PUSH0 DUP3 ADD MSTORE PUSH32 0x6573730000000000000000000000000000000000000000000000000000000000 PUSH1 0x20 DUP3 ADD MSTORE POP JUMP JUMPDEST PUSH0 PUSH2 0x1D6D PUSH1 0x23 DUP4 PUSH2 0x14ED JUMP JUMPDEST SWAP2 POP PUSH2 0x1D78 DUP3 PUSH2 0x1D13 JUMP JUMPDEST PUSH1 0x40 DUP3 ADD SWAP1 POP SWAP2 SWAP1 POP JUMP JUMPDEST PUSH0 PUSH1 0x20 DUP3 ADD SWAP1 POP DUP2 DUP2 SUB PUSH0 DUP4 ADD MSTORE PUSH2 0x1D9A DUP2 PUSH2 0x1D61 JUMP JUMPDEST SWAP1 POP SWAP2 SWAP1 POP JUMP JUMPDEST PUSH32 0x45524332303A207472616E7366657220616D6F756E7420657863656564732062 PUSH0 DUP3 ADD MSTORE PUSH32 0x616C616E63650000000000000000000000000000000000000000000000000000 PUSH1 0x20 DUP3 ADD MSTORE POP JUMP JUMPDEST PUSH0 PUSH2 0x1DFB PUSH1 0x26 DUP4 PUSH2 0x14ED JUMP JUMPDEST SWAP2 POP PUSH2 0x1E06 DUP3 PUSH2 0x1DA1 JUMP JUMPDEST PUSH1 0x40 DUP3 ADD SWAP1 POP SWAP2 SWAP1 POP JUMP JUMPDEST PUSH0 PUSH1 0x20 DUP3 ADD SWAP1 POP DUP2 DUP2 SUB PUSH0 DUP4 ADD MSTORE PUSH2 0x1E28 DUP2 PUSH2 0x1DEF JUMP JUMPDEST SWAP1 POP SWAP2 SWAP1 POP JUMP JUMPDEST PUSH32 0x45524332303A206D696E7420746F20746865207A65726F206164647265737300 PUSH0 DUP3 ADD MSTORE POP JUMP JUMPDEST PUSH0 PUSH2 0x1E63 PUSH1 0x1F DUP4 PUSH2 0x14ED JUMP JUMPDEST SWAP2 POP PUSH2 0x1E6E DUP3 PUSH2 0x1E2F JUMP JUMPDEST PUSH1 0x20 DUP3 ADD SWAP1 POP SWAP2 SWAP1 POP JUMP JUMPDEST PUSH0 PUSH1 0x20 DUP3 ADD SWAP1 POP DUP2 DUP2 SUB PUSH0 DUP4 ADD MSTORE PUSH2 0x1E90 DUP2 PUSH2 0x1E57 JUMP JUMPDEST SWAP1 POP SWAP2 SWAP1 POP JUMP JUMPDEST PUSH32 0x45524332303A206275726E2066726F6D20746865207A65726F20616464726573 PUSH0 DUP3 ADD MSTORE PUSH32 0x7300000000000000000000000000000000000000000000000000000000000000 PUSH1 0x20 DUP3 ADD MSTORE POP JUMP JUMPDEST PUSH0 PUSH2 0x1EF1 PUSH1 0x21 DUP4 PUSH2 0x14ED JUMP JUMPDEST SWAP2 POP PUSH2 0x1EFC DUP3 PUSH2 0x1E97 JUMP JUMPDEST PUSH1 0x40 DUP3 ADD SWAP1 POP SWAP2 SWAP1 POP JUMP JUMPDEST PUSH0 PUSH1 0x20 DUP3 ADD SWAP1 POP DUP2 DUP2 SUB PUSH0 DUP4 ADD MSTORE PUSH2 0x1F1E DUP2 PUSH2 0x1EE5 JUMP JUMPDEST SWAP1 POP SWAP2 SWAP1 POP JUMP JUMPDEST PUSH32 0x45524332303A206275726E20616D6F756E7420657863656564732062616C616E PUSH0 DUP3 ADD MSTORE PUSH32 0x6365000000000000000000000000000000000000000000000000000000000000 PUSH1 0x20 DUP3 ADD MSTORE POP JUMP JUMPDEST PUSH0 PUSH2 0x1F7F PUSH1 0x22 DUP4 PUSH2 0x14ED JUMP JUMPDEST SWAP2 POP PUSH2 0x1F8A DUP3 PUSH2 0x1F25 JUMP JUMPDEST PUSH1 0x40 DUP3 ADD SWAP1 POP SWAP2 SWAP1 POP JUMP JUMPDEST PUSH0 PUSH1 0x20 DUP3 ADD SWAP1 POP DUP2 DUP2 SUB PUSH0 DUP4 ADD MSTORE PUSH2 0x1FAC DUP2 PUSH2 0x1F73 JUMP JUMPDEST SWAP1 POP SWAP2 SWAP1 POP JUMP INVALID LOG2 PUSH5 0x6970667358 0x22 SLT KECCAK256 SLT PUSH19 0xF1900941D2014D91132E802F4BC20CE2B79567 0xB2 DUP4 DUP4 CREATE 0xC6 0x4E ISZERO NUMBER 0xBD 0xDA 0xBF PUSH5 0x736F6C6343 STOP ADDMOD NOT STOP CALLER "
				},
				"gasEstimates": {
					"creation": {
						"codeDepositCost": "1633800",
						"executionCost": "infinite",
						"totalCost": "infinite"
					},
					"external": {
						"addPayer(address)": "51308",
						"allowance(address,address)": "infinite",
						"approve(address,uint256)": "infinite",
						"balanceOf(address)": "2918",
						"decimals()": "383",
						"decreaseAllowance(address,uint256)": "infinite",
						"getPayers()": "infinite",
						"increaseAllowance(address,uint256)": "infinite",
						"isPayerExist(address)": "infinite",
						"mint(uint256)": "infinite",
						"name()": "infinite",
						"owner()": "2538",
						"pay(uint256)": "infinite",
						"removePayer(address)": "infinite",
						"renounceOwnership()": "30501",
						"symbol()": "infinite",
						"totalSupply()": "2544",
						"transfer(address,uint256)": "infinite",
						"transferFrom(address,address,uint256)": "infinite",
						"transferOwnership(address)": "30841"
					}
				},
				"methodIdentifiers": {
					"addPayer(address)": "b78376e9",
					"allowance(address,address)": "dd62ed3e",
					"approve(address,uint256)": "095ea7b3",
					"balanceOf(address)": "70a08231",
					"decimals()": "313ce567",
					"decreaseAllowance(address,uint256)": "a457c2d7",
					"getPayers()": "1055d708",
					"increaseAllowance(address,uint256)": "39509351",
					"isPayerExist(address)": "d9fcefdd",
					"mint(uint256)": "a0712d68",
					"name()": "06fdde03",
					"owner()": "8da5cb5b",
					"pay(uint256)": "c290d691",
					"removePayer(address)": "048f1627",
					"renounceOwnership()": "715018a6",
					"symbol()": "95d89b41",
					"totalSupply()": "18160ddd",
					"transfer(address,uint256)": "a9059cbb",
					"transferFrom(address,address,uint256)": "23b872dd",
					"transferOwnership(address)": "f2fde38b"
				}
			},
			"storageLayout": {
				"storage": [
					{
						"astId": 258,
						"contract": "contracts/coins/Coin.sol_flattened.sol:Coin",
						"label": "_balances",
						"offset": 0,
						"slot": "0",
						"type": "t_mapping(t_address,t_uint256)"
					},
					{
						"astId": 264,
						"contract": "contracts/coins/Coin.sol_flattened.sol:Coin",
						"label": "_allowances",
						"offset": 0,
						"slot": "1",
						"type": "t_mapping(t_address,t_mapping(t_address,t_uint256))"
					},
					{
						"astId": 266,
						"contract": "contracts/coins/Coin.sol_flattened.sol:Coin",
						"label": "_totalSupply",
						"offset": 0,
						"slot": "2",
						"type": "t_uint256"
					},
					{
						"astId": 268,
						"contract": "contracts/coins/Coin.sol_flattened.sol:Coin",
						"label": "_name",
						"offset": 0,
						"slot": "3",
						"type": "t_string_storage"
					},
					{
						"astId": 270,
						"contract": "contracts/coins/Coin.sol_flattened.sol:Coin",
						"label": "_symbol",
						"offset": 0,
						"slot": "4",
						"type": "t_string_storage"
					},
					{
						"astId": 41,
						"contract": "contracts/coins/Coin.sol_flattened.sol:Coin",
						"label": "_owner",
						"offset": 0,
						"slot": "5",
						"type": "t_address"
					},
					{
						"astId": 839,
						"contract": "contracts/coins/Coin.sol_flattened.sol:Coin",
						"label": "_payers",
						"offset": 0,
						"slot": "6",
						"type": "t_array(t_address)dyn_storage"
					}
				],
				"types": {
					"t_address": {
						"encoding": "inplace",
						"label": "address",
						"numberOfBytes": "20"
					},
					"t_array(t_address)dyn_storage": {
						"base": "t_address",
						"encoding": "dynamic_array",
						"label": "address[]",
						"numberOfBytes": "32"
					},
					"t_mapping(t_address,t_mapping(t_address,t_uint256))": {
						"encoding": "mapping",
						"key": "t_address",
						"label": "mapping(address => mapping(address => uint256))",
						"numberOfBytes": "32",
						"value": "t_mapping(t_address,t_uint256)"
					},
					"t_mapping(t_address,t_uint256)": {
						"encoding": "mapping",
						"key": "t_address",
						"label": "mapping(address => uint256)",
						"numberOfBytes": "32",
						"value": "t_uint256"
					},
					"t_string_storage": {
						"encoding": "bytes",
						"label": "string",
						"numberOfBytes": "32"
					},
					"t_uint256": {
						"encoding": "inplace",
						"label": "uint256",
						"numberOfBytes": "32"
					}
				}
			},
			"userdoc": {
				"kind": "user",
				"methods": {
					"mint(uint256)": {
						"notice": "mint coins"
					},
					"pay(uint256)": {
						"notice": "burn coins"
					}
				},
				"version": 1
			}
		}
	}
}