{
	"contracts/common/GenesUtil.sol": {
		"GenesUtil": {
			"abi": [
				{
					"inputs": [
						{
							"internalType": "uint256",
							"name": "genes",
							"type": "uint256"
						},
						{
							"internalType": "uint8",
							"name": "partId",
							"type": "uint8"
						}
					],
					"name": "getArcane",
					"outputs": [
						{
							"internalType": "uint8",
							"name": "",
							"type": "uint8"
						}
					],
					"stateMutability": "pure",
					"type": "function"
				},
				{
					"inputs": [
						{
							"internalType": "uint256",
							"name": "genes",
							"type": "uint256"
						}
					],
					"name": "getCharges",
					"outputs": [
						{
							"internalType": "uint8",
							"name": "",
							"type": "uint8"
						}
					],
					"stateMutability": "pure",
					"type": "function"
				},
				{
					"inputs": [
						{
							"internalType": "uint256",
							"name": "genes",
							"type": "uint256"
						}
					],
					"name": "getGeneration",
					"outputs": [
						{
							"internalType": "uint32",
							"name": "",
							"type": "uint32"
						}
					],
					"stateMutability": "pure",
					"type": "function"
				},
				{
					"inputs": [
						{
							"internalType": "uint256",
							"name": "genes",
							"type": "uint256"
						},
						{
							"internalType": "uint8",
							"name": "partId",
							"type": "uint8"
						}
					],
					"name": "getId",
					"outputs": [
						{
							"internalType": "uint8",
							"name": "",
							"type": "uint8"
						}
					],
					"stateMutability": "pure",
					"type": "function"
				},
				{
					"inputs": [
						{
							"internalType": "uint256",
							"name": "genes",
							"type": "uint256"
						},
						{
							"internalType": "uint8",
							"name": "partId",
							"type": "uint8"
						}
					],
					"name": "getLevel",
					"outputs": [
						{
							"internalType": "uint8",
							"name": "",
							"type": "uint8"
						}
					],
					"stateMutability": "pure",
					"type": "function"
				},
				{
					"inputs": [
						{
							"internalType": "uint256",
							"name": "genes",
							"type": "uint256"
						},
						{
							"internalType": "uint256",
							"name": "partId",
							"type": "uint256"
						},
						{
							"internalType": "uint8",
							"name": "arcane",
							"type": "uint8"
						}
					],
					"name": "setArcane",
					"outputs": [
						{
							"internalType": "uint256",
							"name": "",
							"type": "uint256"
						}
					],
					"stateMutability": "pure",
					"type": "function"
				},
				{
					"inputs": [
						{
							"internalType": "uint256",
							"name": "genes",
							"type": "uint256"
						},
						{
							"internalType": "uint8",
							"name": "charges",
							"type": "uint8"
						}
					],
					"name": "setCharges",
					"outputs": [
						{
							"internalType": "uint256",
							"name": "",
							"type": "uint256"
						}
					],
					"stateMutability": "pure",
					"type": "function"
				},
				{
					"inputs": [
						{
							"internalType": "uint256",
							"name": "genes",
							"type": "uint256"
						},
						{
							"internalType": "uint32",
							"name": "generation",
							"type": "uint32"
						}
					],
					"name": "setGeneration",
					"outputs": [
						{
							"internalType": "uint256",
							"name": "",
							"type": "uint256"
						}
					],
					"stateMutability": "pure",
					"type": "function"
				},
				{
					"inputs": [
						{
							"internalType": "uint256",
							"name": "genes",
							"type": "uint256"
						},
						{
							"internalType": "uint256",
							"name": "partId",
							"type": "uint256"
						},
						{
							"internalType": "uint8",
							"name": "id",
							"type": "uint8"
						}
					],
					"name": "setId",
					"outputs": [
						{
							"internalType": "uint256",
							"name": "",
							"type": "uint256"
						}
					],
					"stateMutability": "pure",
					"type": "function"
				},
				{
					"inputs": [
						{
							"internalType": "uint256",
							"name": "genes",
							"type": "uint256"
						},
						{
							"internalType": "uint256",
							"name": "partId",
							"type": "uint256"
						},
						{
							"internalType": "uint8",
							"name": "level",
							"type": "uint8"
						}
					],
					"name": "setLevel",
					"outputs": [
						{
							"internalType": "uint256",
							"name": "",
							"type": "uint256"
						}
					],
					"stateMutability": "pure",
					"type": "function"
				}
			],
			"devdoc": {
				"kind": "dev",
				"methods": {},
				"version": 1
			},
			"evm": {
				"assembly": "    /* \"contracts/common/GenesUtil.sol\":77:2656  library GenesUtil {... */\n  dataSize(sub_0)\n  dataOffset(sub_0)\n  0x0b\n  dup3\n  dup3\n  dup3\n  codecopy\n  dup1\n  mload\n  0x00\n  byte\n  0x73\n  eq\n  tag_1\n  jumpi\n  mstore(0x00, shl(0xe0, 0x4e487b71))\n  mstore(0x04, 0x00)\n  revert(0x00, 0x24)\ntag_1:\n  mstore(0x00, address)\n  0x73\n  dup2\n  mstore8\n  dup3\n  dup2\n  return\nstop\n\nsub_0: assembly {\n        /* \"contracts/common/GenesUtil.sol\":77:2656  library GenesUtil {... */\n      eq(address, deployTimeAddress())\n      mstore(0x40, 0x80)\n      jumpi(tag_1, lt(calldatasize, 0x04))\n      shr(0xe0, calldataload(0x00))\n      dup1\n      0x5d2029f1\n      gt\n      tag_12\n      jumpi\n      dup1\n      0x5d2029f1\n      eq\n      tag_7\n      jumpi\n      dup1\n      0x8de97f4f\n      eq\n      tag_8\n      jumpi\n      dup1\n      0xa5858693\n      eq\n      tag_9\n      jumpi\n      dup1\n      0xb52b6659\n      eq\n      tag_10\n      jumpi\n      dup1\n      0xe1b30ab7\n      eq\n      tag_11\n      jumpi\n      0x00\n      dup1\n      revert\n    tag_12:\n      dup1\n      0x0317f435\n      eq\n      tag_2\n      jumpi\n      dup1\n      0x3499a7ea\n      eq\n      tag_3\n      jumpi\n      dup1\n      0x34a51d0f\n      eq\n      tag_4\n      jumpi\n      dup1\n      0x55d6ed43\n      eq\n      tag_5\n      jumpi\n      dup1\n      0x56e3df97\n      eq\n      tag_6\n      jumpi\n    tag_1:\n      0x00\n      dup1\n      revert\n        /* \"contracts/common/GenesUtil.sol\":260:416  function getCharges(uint256 genes) public pure returns (uint8) {... */\n    tag_2:\n      tag_13\n      tag_14\n      calldatasize\n      0x04\n      tag_15\n      jump\t// in\n    tag_14:\n        /* \"contracts/common/GenesUtil.sol\":383:389  31 * 8 */\n      0xf8\n        /* \"contracts/common/GenesUtil.sol\":373:390  genes >> (31 * 8) */\n      shr\n      swap1\n        /* \"contracts/common/GenesUtil.sol\":260:416  function getCharges(uint256 genes) public pure returns (uint8) {... */\n      jump\n    tag_13:\n      mload(0x40)\n        /* \"#utility.yul\":379:383   */\n      0xff\n        /* \"#utility.yul\":367:384   */\n      swap1\n      swap2\n      and\n        /* \"#utility.yul\":349:385   */\n      dup2\n      mstore\n        /* \"#utility.yul\":337:339   */\n      0x20\n        /* \"#utility.yul\":322:340   */\n      add\n        /* \"contracts/common/GenesUtil.sol\":260:416  function getCharges(uint256 genes) public pure returns (uint8) {... */\n    tag_17:\n      mload(0x40)\n      dup1\n      swap2\n      sub\n      swap1\n      return\n        /* \"contracts/common/GenesUtil.sol\":1394:1618  function getLevel(uint256 genes, uint8 partId) public pure returns (uint8) {... */\n    tag_3:\n      tag_13\n      tag_20\n      calldatasize\n      0x04\n      tag_21\n      jump\t// in\n    tag_20:\n      tag_22\n      jump\t// in\n        /* \"contracts/common/GenesUtil.sol\":1016:1388  function setId(... */\n    tag_4:\n      tag_24\n      tag_25\n      calldatasize\n      0x04\n      tag_26\n      jump\t// in\n    tag_25:\n      tag_27\n      jump\t// in\n    tag_24:\n      mload(0x40)\n        /* \"#utility.yul\":1289:1314   */\n      swap1\n      dup2\n      mstore\n        /* \"#utility.yul\":1277:1279   */\n      0x20\n        /* \"#utility.yul\":1262:1280   */\n      add\n        /* \"contracts/common/GenesUtil.sol\":1016:1388  function setId(... */\n      tag_17\n        /* \"#utility.yul\":1135:1320   */\n      jump\n        /* \"contracts/common/GenesUtil.sol\":2270:2654  function setArcane(... */\n    tag_5:\n      tag_24\n      tag_31\n      calldatasize\n      0x04\n      tag_26\n      jump\t// in\n    tag_31:\n      tag_32\n      jump\t// in\n        /* \"contracts/common/GenesUtil.sol\":101:254  function getGeneration(uint256 genes) public pure returns (uint32) {... */\n    tag_6:\n      tag_34\n      tag_35\n      calldatasize\n      0x04\n      tag_15\n      jump\t// in\n    tag_35:\n        /* \"contracts/common/GenesUtil.sol\":226:236  0xFFFFFFFF */\n      0xffffffff\n        /* \"contracts/common/GenesUtil.sol\":218:236  genes & 0xFFFFFFFF */\n      and\n      swap1\n        /* \"contracts/common/GenesUtil.sol\":101:254  function getGeneration(uint256 genes) public pure returns (uint32) {... */\n      jump\n    tag_34:\n      mload(0x40)\n        /* \"#utility.yul\":1507:1517   */\n      0xffffffff\n        /* \"#utility.yul\":1495:1518   */\n      swap1\n      swap2\n      and\n        /* \"#utility.yul\":1477:1519   */\n      dup2\n      mstore\n        /* \"#utility.yul\":1465:1467   */\n      0x20\n        /* \"#utility.yul\":1450:1468   */\n      add\n        /* \"contracts/common/GenesUtil.sol\":101:254  function getGeneration(uint256 genes) public pure returns (uint32) {... */\n      tag_17\n        /* \"#utility.yul\":1325:1525   */\n      jump\n        /* \"contracts/common/GenesUtil.sol\":789:1010  function getId(uint256 genes, uint8 partId) public pure returns (uint8) {... */\n    tag_7:\n      tag_13\n      tag_40\n      calldatasize\n      0x04\n      tag_21\n      jump\t// in\n    tag_40:\n      tag_41\n      jump\t// in\n        /* \"contracts/common/GenesUtil.sol\":422:593  function setGeneration(uint256 genes, uint32 generation)... */\n    tag_8:\n      tag_24\n      tag_44\n      calldatasize\n      0x04\n      tag_45\n      jump\t// in\n    tag_44:\n        /* \"contracts/common/GenesUtil.sol\":554:586  ((genes >> 4) << 4) | generation */\n      0xffffffff\n      and\n      not(0x0f)\n        /* \"contracts/common/GenesUtil.sol\":555:572  (genes >> 4) << 4 */\n      swap2\n      swap1\n      swap2\n      and\n        /* \"contracts/common/GenesUtil.sol\":554:586  ((genes >> 4) << 4) | generation */\n      or\n      swap1\n        /* \"contracts/common/GenesUtil.sol\":422:593  function setGeneration(uint256 genes, uint32 generation)... */\n      jump\n        /* \"contracts/common/GenesUtil.sol\":2011:2264  function getArcane(uint256 genes, uint8 partId)... */\n    tag_9:\n      tag_13\n      tag_49\n      calldatasize\n      0x04\n      tag_21\n      jump\t// in\n    tag_49:\n      tag_50\n      jump\t// in\n        /* \"contracts/common/GenesUtil.sol\":599:783  function setCharges(uint256 genes, uint8 charges)... */\n    tag_10:\n      tag_24\n      tag_53\n      calldatasize\n      0x04\n      tag_21\n      jump\t// in\n    tag_53:\n        /* \"contracts/common/GenesUtil.sol\":768:774  31 * 8 */\n      0xf8\n        /* \"contracts/common/GenesUtil.sol\":747:775  uint256(charges) << (31 * 8) */\n      shl\n      not(sub(shl(0xf8, 0x01), 0x01))\n      and\n      sub(shl(0xf8, 0x01), 0x01)\n        /* \"contracts/common/GenesUtil.sol\":725:742  (genes << 8) >> 8 */\n      swap2\n      swap1\n      swap2\n      and\n        /* \"contracts/common/GenesUtil.sol\":724:776  ((genes << 8) >> 8) | (uint256(charges) << (31 * 8)) */\n      or\n      swap1\n        /* \"contracts/common/GenesUtil.sol\":599:783  function setCharges(uint256 genes, uint8 charges)... */\n      jump\n        /* \"contracts/common/GenesUtil.sol\":1624:2005  function setLevel(... */\n    tag_11:\n      tag_24\n      tag_57\n      calldatasize\n      0x04\n      tag_26\n      jump\t// in\n    tag_57:\n      tag_58\n      jump\t// in\n        /* \"contracts/common/GenesUtil.sol\":1394:1618  function getLevel(uint256 genes, uint8 partId) public pure returns (uint8) {... */\n    tag_22:\n        /* \"contracts/common/GenesUtil.sol\":1462:1467  uint8 */\n      0x00\n        /* \"contracts/common/GenesUtil.sol\":1500:1501  4 */\n      0x04\n        /* \"contracts/common/GenesUtil.sol\":1462:1467  uint8 */\n      dup2\n        /* \"contracts/common/GenesUtil.sol\":1527:1537  partId * 3 */\n      tag_62\n        /* \"contracts/common/GenesUtil.sol\":1527:1533  partId */\n      dup5\n        /* \"contracts/common/GenesUtil.sol\":1536:1537  3 */\n      0x03\n        /* \"contracts/common/GenesUtil.sol\":1527:1537  partId * 3 */\n      tag_63\n      jump\t// in\n    tag_62:\n        /* \"contracts/common/GenesUtil.sol\":1511:1537  uint256 index = partId * 3 */\n      0xff\n      and\n      swap1\n      pop\n        /* \"contracts/common/GenesUtil.sol\":1574:1592  startIndex + index */\n      tag_64\n        /* \"contracts/common/GenesUtil.sol\":1511:1537  uint256 index = partId * 3 */\n      dup2\n        /* \"contracts/common/GenesUtil.sol\":1574:1584  startIndex */\n      dup4\n        /* \"contracts/common/GenesUtil.sol\":1574:1592  startIndex + index */\n      tag_65\n      jump\t// in\n    tag_64:\n        /* \"contracts/common/GenesUtil.sol\":1574:1596  startIndex + index + 1 */\n      tag_66\n      swap1\n        /* \"contracts/common/GenesUtil.sol\":1595:1596  1 */\n      0x01\n        /* \"contracts/common/GenesUtil.sol\":1574:1596  startIndex + index + 1 */\n      tag_65\n      jump\t// in\n    tag_66:\n        /* \"contracts/common/GenesUtil.sol\":1573:1601  (startIndex + index + 1) * 8 */\n      tag_67\n      swap1\n        /* \"contracts/common/GenesUtil.sol\":1600:1601  8 */\n      0x08\n        /* \"contracts/common/GenesUtil.sol\":1573:1601  (startIndex + index + 1) * 8 */\n      tag_68\n      jump\t// in\n    tag_67:\n        /* \"contracts/common/GenesUtil.sol\":1563:1568  genes */\n      dup6\n        /* \"contracts/common/GenesUtil.sol\":1563:1602  genes >> ((startIndex + index + 1) * 8) */\n      swap1\n      shr\n        /* \"contracts/common/GenesUtil.sol\":1606:1610  0xFF */\n      0xff\n        /* \"contracts/common/GenesUtil.sol\":1562:1610  (genes >> ((startIndex + index + 1) * 8)) & 0xFF */\n      and\n        /* \"contracts/common/GenesUtil.sol\":1547:1611  return (uint8)((genes >> ((startIndex + index + 1) * 8)) & 0xFF) */\n      swap3\n      pop\n      pop\n      pop\n        /* \"contracts/common/GenesUtil.sol\":1394:1618  function getLevel(uint256 genes, uint8 partId) public pure returns (uint8) {... */\n    tag_61:\n      swap3\n      swap2\n      pop\n      pop\n      jump\t// out\n        /* \"contracts/common/GenesUtil.sol\":1016:1388  function setId(... */\n    tag_27:\n        /* \"contracts/common/GenesUtil.sol\":1123:1130  uint256 */\n      0x00\n        /* \"contracts/common/GenesUtil.sol\":1163:1164  4 */\n      0x04\n        /* \"contracts/common/GenesUtil.sol\":1123:1130  uint256 */\n      dup2\n        /* \"contracts/common/GenesUtil.sol\":1190:1200  partId * 3 */\n      tag_70\n        /* \"contracts/common/GenesUtil.sol\":1190:1196  partId */\n      dup6\n        /* \"contracts/common/GenesUtil.sol\":1199:1200  3 */\n      0x03\n        /* \"contracts/common/GenesUtil.sol\":1190:1200  partId * 3 */\n      tag_68\n      jump\t// in\n    tag_70:\n        /* \"contracts/common/GenesUtil.sol\":1174:1200  uint256 index = partId * 3 */\n      swap1\n      pop\n        /* \"contracts/common/GenesUtil.sol\":1210:1223  uint256 shift */\n      0x00\n        /* \"contracts/common/GenesUtil.sol\":1227:1245  startIndex + index */\n      tag_71\n        /* \"contracts/common/GenesUtil.sol\":1174:1200  uint256 index = partId * 3 */\n      dup3\n        /* \"contracts/common/GenesUtil.sol\":1227:1237  startIndex */\n      dup5\n        /* \"contracts/common/GenesUtil.sol\":1227:1245  startIndex + index */\n      tag_65\n      jump\t// in\n    tag_71:\n        /* \"contracts/common/GenesUtil.sol\":1227:1249  startIndex + index + 0 */\n      tag_72\n      swap1\n        /* \"contracts/common/GenesUtil.sol\":1248:1249  0 */\n      0x00\n        /* \"contracts/common/GenesUtil.sol\":1227:1249  startIndex + index + 0 */\n      tag_65\n      jump\t// in\n    tag_72:\n        /* \"contracts/common/GenesUtil.sol\":1226:1254  (startIndex + index + 0) * 8 */\n      tag_73\n      swap1\n        /* \"contracts/common/GenesUtil.sol\":1253:1254  8 */\n      0x08\n        /* \"contracts/common/GenesUtil.sol\":1226:1254  (startIndex + index + 0) * 8 */\n      tag_68\n      jump\t// in\n    tag_73:\n        /* \"contracts/common/GenesUtil.sol\":1320:1324  0xFF */\n      0xff\n        /* \"contracts/common/GenesUtil.sol\":1360:1371  uint256(id) */\n      swap6\n      dup7\n      and\n        /* \"contracts/common/GenesUtil.sol\":1360:1380  uint256(id) << shift */\n      dup2\n      shl\n        /* \"contracts/common/GenesUtil.sol\":1320:1333  0xFF << shift */\n      swap6\n      swap1\n      shl\n        /* \"contracts/common/GenesUtil.sol\":1318:1334  ~(0xFF << shift) */\n      not\n        /* \"contracts/common/GenesUtil.sol\":1310:1334  genes & ~(0xFF << shift) */\n      swap7\n      swap1\n      swap7\n      and\n        /* \"contracts/common/GenesUtil.sol\":1351:1381  genes | (uint256(id) << shift) */\n      swap4\n      swap1\n      swap4\n      or\n      swap6\n        /* \"contracts/common/GenesUtil.sol\":1016:1388  function setId(... */\n      swap5\n      pop\n      pop\n      pop\n      pop\n      pop\n      jump\t// out\n        /* \"contracts/common/GenesUtil.sol\":2270:2654  function setArcane(... */\n    tag_32:\n        /* \"contracts/common/GenesUtil.sol\":2385:2392  uint256 */\n      0x00\n        /* \"contracts/common/GenesUtil.sol\":2425:2426  4 */\n      0x04\n        /* \"contracts/common/GenesUtil.sol\":2385:2392  uint256 */\n      dup2\n        /* \"contracts/common/GenesUtil.sol\":2452:2462  partId * 3 */\n      tag_75\n        /* \"contracts/common/GenesUtil.sol\":2452:2458  partId */\n      dup6\n        /* \"contracts/common/GenesUtil.sol\":2461:2462  3 */\n      0x03\n        /* \"contracts/common/GenesUtil.sol\":2452:2462  partId * 3 */\n      tag_68\n      jump\t// in\n    tag_75:\n        /* \"contracts/common/GenesUtil.sol\":2436:2462  uint256 index = partId * 3 */\n      swap1\n      pop\n        /* \"contracts/common/GenesUtil.sol\":2472:2485  uint256 shift */\n      0x00\n        /* \"contracts/common/GenesUtil.sol\":2489:2507  startIndex + index */\n      tag_76\n        /* \"contracts/common/GenesUtil.sol\":2436:2462  uint256 index = partId * 3 */\n      dup3\n        /* \"contracts/common/GenesUtil.sol\":2489:2499  startIndex */\n      dup5\n        /* \"contracts/common/GenesUtil.sol\":2489:2507  startIndex + index */\n      tag_65\n      jump\t// in\n    tag_76:\n        /* \"contracts/common/GenesUtil.sol\":2489:2511  startIndex + index + 2 */\n      tag_72\n      swap1\n        /* \"contracts/common/GenesUtil.sol\":2510:2511  2 */\n      0x02\n        /* \"contracts/common/GenesUtil.sol\":2489:2511  startIndex + index + 2 */\n      tag_65\n      jump\t// in\n        /* \"contracts/common/GenesUtil.sol\":789:1010  function getId(uint256 genes, uint8 partId) public pure returns (uint8) {... */\n    tag_41:\n        /* \"contracts/common/GenesUtil.sol\":854:859  uint8 */\n      0x00\n        /* \"contracts/common/GenesUtil.sol\":892:893  4 */\n      0x04\n        /* \"contracts/common/GenesUtil.sol\":854:859  uint8 */\n      dup2\n        /* \"contracts/common/GenesUtil.sol\":919:929  partId * 3 */\n      tag_81\n        /* \"contracts/common/GenesUtil.sol\":919:925  partId */\n      dup5\n        /* \"contracts/common/GenesUtil.sol\":928:929  3 */\n      0x03\n        /* \"contracts/common/GenesUtil.sol\":919:929  partId * 3 */\n      tag_63\n      jump\t// in\n    tag_81:\n        /* \"contracts/common/GenesUtil.sol\":903:929  uint256 index = partId * 3 */\n      0xff\n      and\n      swap1\n      pop\n        /* \"contracts/common/GenesUtil.sol\":966:984  startIndex + index */\n      tag_82\n        /* \"contracts/common/GenesUtil.sol\":903:929  uint256 index = partId * 3 */\n      dup2\n        /* \"contracts/common/GenesUtil.sol\":966:976  startIndex */\n      dup4\n        /* \"contracts/common/GenesUtil.sol\":966:984  startIndex + index */\n      tag_65\n      jump\t// in\n    tag_82:\n        /* \"contracts/common/GenesUtil.sol\":966:988  startIndex + index + 0 */\n      tag_66\n      swap1\n        /* \"contracts/common/GenesUtil.sol\":987:988  0 */\n      0x00\n        /* \"contracts/common/GenesUtil.sol\":966:988  startIndex + index + 0 */\n      tag_65\n      jump\t// in\n        /* \"contracts/common/GenesUtil.sol\":2011:2264  function getArcane(uint256 genes, uint8 partId)... */\n    tag_50:\n        /* \"contracts/common/GenesUtil.sol\":2104:2109  uint8 */\n      0x00\n        /* \"contracts/common/GenesUtil.sol\":2146:2147  4 */\n      0x04\n        /* \"contracts/common/GenesUtil.sol\":2104:2109  uint8 */\n      dup2\n        /* \"contracts/common/GenesUtil.sol\":2173:2183  partId * 3 */\n      tag_87\n        /* \"contracts/common/GenesUtil.sol\":2173:2179  partId */\n      dup5\n        /* \"contracts/common/GenesUtil.sol\":2182:2183  3 */\n      0x03\n        /* \"contracts/common/GenesUtil.sol\":2173:2183  partId * 3 */\n      tag_63\n      jump\t// in\n    tag_87:\n        /* \"contracts/common/GenesUtil.sol\":2157:2183  uint256 index = partId * 3 */\n      0xff\n      and\n      swap1\n      pop\n        /* \"contracts/common/GenesUtil.sol\":2220:2238  startIndex + index */\n      tag_88\n        /* \"contracts/common/GenesUtil.sol\":2157:2183  uint256 index = partId * 3 */\n      dup2\n        /* \"contracts/common/GenesUtil.sol\":2220:2230  startIndex */\n      dup4\n        /* \"contracts/common/GenesUtil.sol\":2220:2238  startIndex + index */\n      tag_65\n      jump\t// in\n    tag_88:\n        /* \"contracts/common/GenesUtil.sol\":2220:2242  startIndex + index + 2 */\n      tag_66\n      swap1\n        /* \"contracts/common/GenesUtil.sol\":2241:2242  2 */\n      0x02\n        /* \"contracts/common/GenesUtil.sol\":2220:2242  startIndex + index + 2 */\n      tag_65\n      jump\t// in\n        /* \"contracts/common/GenesUtil.sol\":1624:2005  function setLevel(... */\n    tag_58:\n        /* \"contracts/common/GenesUtil.sol\":1737:1744  uint256 */\n      0x00\n        /* \"contracts/common/GenesUtil.sol\":1777:1778  4 */\n      0x04\n        /* \"contracts/common/GenesUtil.sol\":1737:1744  uint256 */\n      dup2\n        /* \"contracts/common/GenesUtil.sol\":1804:1814  partId * 3 */\n      tag_93\n        /* \"contracts/common/GenesUtil.sol\":1804:1810  partId */\n      dup6\n        /* \"contracts/common/GenesUtil.sol\":1813:1814  3 */\n      0x03\n        /* \"contracts/common/GenesUtil.sol\":1804:1814  partId * 3 */\n      tag_68\n      jump\t// in\n    tag_93:\n        /* \"contracts/common/GenesUtil.sol\":1788:1814  uint256 index = partId * 3 */\n      swap1\n      pop\n        /* \"contracts/common/GenesUtil.sol\":1824:1837  uint256 shift */\n      0x00\n        /* \"contracts/common/GenesUtil.sol\":1841:1859  startIndex + index */\n      tag_94\n        /* \"contracts/common/GenesUtil.sol\":1788:1814  uint256 index = partId * 3 */\n      dup3\n        /* \"contracts/common/GenesUtil.sol\":1841:1851  startIndex */\n      dup5\n        /* \"contracts/common/GenesUtil.sol\":1841:1859  startIndex + index */\n      tag_65\n      jump\t// in\n    tag_94:\n        /* \"contracts/common/GenesUtil.sol\":1841:1863  startIndex + index + 1 */\n      tag_72\n      swap1\n        /* \"contracts/common/GenesUtil.sol\":1862:1863  1 */\n      0x01\n        /* \"contracts/common/GenesUtil.sol\":1841:1863  startIndex + index + 1 */\n      tag_65\n      jump\t// in\n        /* \"#utility.yul\":14:194   */\n    tag_15:\n        /* \"#utility.yul\":73:79   */\n      0x00\n        /* \"#utility.yul\":126:128   */\n      0x20\n        /* \"#utility.yul\":114:123   */\n      dup3\n        /* \"#utility.yul\":105:112   */\n      dup5\n        /* \"#utility.yul\":101:124   */\n      sub\n        /* \"#utility.yul\":97:129   */\n      slt\n        /* \"#utility.yul\":94:146   */\n      iszero\n      tag_101\n      jumpi\n        /* \"#utility.yul\":142:143   */\n      0x00\n        /* \"#utility.yul\":139:140   */\n      dup1\n        /* \"#utility.yul\":132:144   */\n      revert\n        /* \"#utility.yul\":94:146   */\n    tag_101:\n      pop\n        /* \"#utility.yul\":165:188   */\n      calldataload\n      swap2\n        /* \"#utility.yul\":14:194   */\n      swap1\n      pop\n      jump\t// out\n        /* \"#utility.yul\":396:552   */\n    tag_97:\n        /* \"#utility.yul\":462:482   */\n      dup1\n      calldataload\n        /* \"#utility.yul\":522:526   */\n      0xff\n        /* \"#utility.yul\":511:527   */\n      dup2\n      and\n        /* \"#utility.yul\":501:528   */\n      dup2\n      eq\n        /* \"#utility.yul\":491:546   */\n      tag_104\n      jumpi\n        /* \"#utility.yul\":542:543   */\n      0x00\n        /* \"#utility.yul\":539:540   */\n      dup1\n        /* \"#utility.yul\":532:544   */\n      revert\n        /* \"#utility.yul\":491:546   */\n    tag_104:\n        /* \"#utility.yul\":396:552   */\n      swap2\n      swap1\n      pop\n      jump\t// out\n        /* \"#utility.yul\":557:807   */\n    tag_21:\n        /* \"#utility.yul\":623:629   */\n      0x00\n        /* \"#utility.yul\":631:637   */\n      dup1\n        /* \"#utility.yul\":684:686   */\n      0x40\n        /* \"#utility.yul\":672:681   */\n      dup4\n        /* \"#utility.yul\":663:670   */\n      dup6\n        /* \"#utility.yul\":659:682   */\n      sub\n        /* \"#utility.yul\":655:687   */\n      slt\n        /* \"#utility.yul\":652:704   */\n      iszero\n      tag_106\n      jumpi\n        /* \"#utility.yul\":700:701   */\n      0x00\n        /* \"#utility.yul\":697:698   */\n      dup1\n        /* \"#utility.yul\":690:702   */\n      revert\n        /* \"#utility.yul\":652:704   */\n    tag_106:\n        /* \"#utility.yul\":736:745   */\n      dup3\n        /* \"#utility.yul\":723:746   */\n      calldataload\n        /* \"#utility.yul\":713:746   */\n      swap2\n      pop\n        /* \"#utility.yul\":765:801   */\n      tag_107\n        /* \"#utility.yul\":797:799   */\n      0x20\n        /* \"#utility.yul\":786:795   */\n      dup5\n        /* \"#utility.yul\":782:800   */\n      add\n        /* \"#utility.yul\":765:801   */\n      tag_97\n      jump\t// in\n    tag_107:\n        /* \"#utility.yul\":755:801   */\n      swap1\n      pop\n        /* \"#utility.yul\":557:807   */\n      swap3\n      pop\n      swap3\n      swap1\n      pop\n      jump\t// out\n        /* \"#utility.yul\":812:1130   */\n    tag_26:\n        /* \"#utility.yul\":887:893   */\n      0x00\n        /* \"#utility.yul\":895:901   */\n      dup1\n        /* \"#utility.yul\":903:909   */\n      0x00\n        /* \"#utility.yul\":956:958   */\n      0x60\n        /* \"#utility.yul\":944:953   */\n      dup5\n        /* \"#utility.yul\":935:942   */\n      dup7\n        /* \"#utility.yul\":931:954   */\n      sub\n        /* \"#utility.yul\":927:959   */\n      slt\n        /* \"#utility.yul\":924:976   */\n      iszero\n      tag_109\n      jumpi\n        /* \"#utility.yul\":972:973   */\n      0x00\n        /* \"#utility.yul\":969:970   */\n      dup1\n        /* \"#utility.yul\":962:974   */\n      revert\n        /* \"#utility.yul\":924:976   */\n    tag_109:\n        /* \"#utility.yul\":1008:1017   */\n      dup4\n        /* \"#utility.yul\":995:1018   */\n      calldataload\n        /* \"#utility.yul\":985:1018   */\n      swap3\n      pop\n        /* \"#utility.yul\":1065:1067   */\n      0x20\n        /* \"#utility.yul\":1054:1063   */\n      dup5\n        /* \"#utility.yul\":1050:1068   */\n      add\n        /* \"#utility.yul\":1037:1069   */\n      calldataload\n        /* \"#utility.yul\":1027:1069   */\n      swap2\n      pop\n        /* \"#utility.yul\":1088:1124   */\n      tag_110\n        /* \"#utility.yul\":1120:1122   */\n      0x40\n        /* \"#utility.yul\":1109:1118   */\n      dup6\n        /* \"#utility.yul\":1105:1123   */\n      add\n        /* \"#utility.yul\":1088:1124   */\n      tag_97\n      jump\t// in\n    tag_110:\n        /* \"#utility.yul\":1078:1124   */\n      swap1\n      pop\n        /* \"#utility.yul\":812:1130   */\n      swap3\n      pop\n      swap3\n      pop\n      swap3\n      jump\t// out\n        /* \"#utility.yul\":1530:1874   */\n    tag_45:\n        /* \"#utility.yul\":1597:1603   */\n      0x00\n        /* \"#utility.yul\":1605:1611   */\n      dup1\n        /* \"#utility.yul\":1658:1660   */\n      0x40\n        /* \"#utility.yul\":1646:1655   */\n      dup4\n        /* \"#utility.yul\":1637:1644   */\n      dup6\n        /* \"#utility.yul\":1633:1656   */\n      sub\n        /* \"#utility.yul\":1629:1661   */\n      slt\n        /* \"#utility.yul\":1626:1678   */\n      iszero\n      tag_114\n      jumpi\n        /* \"#utility.yul\":1674:1675   */\n      0x00\n        /* \"#utility.yul\":1671:1672   */\n      dup1\n        /* \"#utility.yul\":1664:1676   */\n      revert\n        /* \"#utility.yul\":1626:1678   */\n    tag_114:\n        /* \"#utility.yul\":1710:1719   */\n      dup3\n        /* \"#utility.yul\":1697:1720   */\n      calldataload\n        /* \"#utility.yul\":1687:1720   */\n      swap2\n      pop\n        /* \"#utility.yul\":1770:1772   */\n      0x20\n        /* \"#utility.yul\":1759:1768   */\n      dup4\n        /* \"#utility.yul\":1755:1773   */\n      add\n        /* \"#utility.yul\":1742:1774   */\n      calldataload\n        /* \"#utility.yul\":1814:1824   */\n      0xffffffff\n        /* \"#utility.yul\":1807:1812   */\n      dup2\n        /* \"#utility.yul\":1803:1825   */\n      and\n        /* \"#utility.yul\":1796:1801   */\n      dup2\n        /* \"#utility.yul\":1793:1826   */\n      eq\n        /* \"#utility.yul\":1783:1844   */\n      tag_115\n      jumpi\n        /* \"#utility.yul\":1840:1841   */\n      0x00\n        /* \"#utility.yul\":1837:1838   */\n      dup1\n        /* \"#utility.yul\":1830:1842   */\n      revert\n        /* \"#utility.yul\":1783:1844   */\n    tag_115:\n        /* \"#utility.yul\":1863:1868   */\n      dup1\n        /* \"#utility.yul\":1853:1868   */\n      swap2\n      pop\n      pop\n        /* \"#utility.yul\":1530:1874   */\n      swap3\n      pop\n      swap3\n      swap1\n      pop\n      jump\t// out\n        /* \"#utility.yul\":1879:2006   */\n    tag_98:\n        /* \"#utility.yul\":1940:1950   */\n      0x4e487b71\n        /* \"#utility.yul\":1935:1938   */\n      0xe0\n        /* \"#utility.yul\":1931:1951   */\n      shl\n        /* \"#utility.yul\":1928:1929   */\n      0x00\n        /* \"#utility.yul\":1921:1952   */\n      mstore\n        /* \"#utility.yul\":1971:1975   */\n      0x11\n        /* \"#utility.yul\":1968:1969   */\n      0x04\n        /* \"#utility.yul\":1961:1976   */\n      mstore\n        /* \"#utility.yul\":1995:1999   */\n      0x24\n        /* \"#utility.yul\":1992:1993   */\n      0x00\n        /* \"#utility.yul\":1985:2000   */\n      revert\n        /* \"#utility.yul\":2011:2236   */\n    tag_63:\n        /* \"#utility.yul\":2115:2119   */\n      0xff\n        /* \"#utility.yul\":2094:2106   */\n      dup2\n      dup2\n      and\n        /* \"#utility.yul\":2108:2120   */\n      dup4\n      dup3\n      and\n        /* \"#utility.yul\":2090:2121   */\n      mul\n        /* \"#utility.yul\":2141:2163   */\n      swap1\n      dup2\n      and\n      swap1\n        /* \"#utility.yul\":2182:2206   */\n      dup2\n      dup2\n      eq\n        /* \"#utility.yul\":2172:2230   */\n      tag_119\n      jumpi\n        /* \"#utility.yul\":2210:2228   */\n      tag_119\n      tag_98\n      jump\t// in\n    tag_119:\n        /* \"#utility.yul\":2172:2230   */\n      pop\n        /* \"#utility.yul\":2011:2236   */\n      swap3\n      swap2\n      pop\n      pop\n      jump\t// out\n        /* \"#utility.yul\":2241:2366   */\n    tag_65:\n        /* \"#utility.yul\":2306:2315   */\n      dup1\n      dup3\n      add\n        /* \"#utility.yul\":2327:2337   */\n      dup1\n      dup3\n      gt\n        /* \"#utility.yul\":2324:2360   */\n      iszero\n      tag_61\n      jumpi\n        /* \"#utility.yul\":2340:2358   */\n      tag_61\n      tag_98\n      jump\t// in\n        /* \"#utility.yul\":2371:2539   */\n    tag_68:\n        /* \"#utility.yul\":2444:2453   */\n      dup1\n      dup3\n      mul\n        /* \"#utility.yul\":2475:2484   */\n      dup2\n      iszero\n        /* \"#utility.yul\":2492:2507   */\n      dup3\n      dup3\n      div\n        /* \"#utility.yul\":2486:2508   */\n      dup5\n      eq\n        /* \"#utility.yul\":2472:2509   */\n      or\n        /* \"#utility.yul\":2462:2533   */\n      tag_61\n      jumpi\n        /* \"#utility.yul\":2513:2531   */\n      tag_61\n      tag_98\n      jump\t// in\n\n    auxdata: 0xa264697066735822122077ccbbdfa6f0f6ce58012fce8b61d68dfed7d31b5d05b8a73648e627834cf3cb64736f6c63430008130033\n}\n",
				"bytecode": {
					"linkReferences": {},
					"object": "61046c61003a600b82828239805160001a60731461002d57634e487b7160e01b600052600060045260246000fd5b30600052607381538281f3fe73000000000000000000000000000000000000000030146080604052600436106100a85760003560e01c80635d2029f1116100705780635d2029f11461014b5780638de97f4f1461015e578063a58586931461017d578063b52b665914610190578063e1b30ab7146101bb57600080fd5b80630317f435146100ad5780633499a7ea146100d857806334a51d0f146100eb57806355d6ed431461010c57806356e3df971461011f575b600080fd5b6100c16100bb36600461030a565b60f81c90565b60405160ff90911681526020015b60405180910390f35b6100c16100e6366004610339565b6101ce565b6100fe6100f9366004610365565b610214565b6040519081526020016100cf565b6100fe61011a366004610365565b610264565b61013661012d36600461030a565b63ffffffff1690565b60405163ffffffff90911681526020016100cf565b6100c1610159366004610339565b61028d565b6100fe61016c36600461039a565b63ffffffff16600f19919091161790565b6100c161018b366004610339565b6102b7565b6100fe61019e366004610339565b60f81b6001600160f81b0319166001600160f81b03919091161790565b6100fe6101c9366004610365565b6102e1565b60006004816101de8460036103e9565b60ff1690506101ed818361040c565b6101f890600161040c565b61020390600861041f565b85901c60ff16925050505b92915050565b600060048161022485600361041f565b90506000610232828461040c565b61023d90600061040c565b61024890600861041f565b60ff958616811b95901b19969096169390931795945050505050565b600060048161027485600361041f565b90506000610282828461040c565b61023d90600261040c565b600060048161029d8460036103e9565b60ff1690506102ac818361040c565b6101f890600061040c565b60006004816102c78460036103e9565b60ff1690506102d6818361040c565b6101f890600261040c565b60006004816102f185600361041f565b905060006102ff828461040c565b61023d90600161040c565b60006020828403121561031c57600080fd5b5035919050565b803560ff8116811461033457600080fd5b919050565b6000806040838503121561034c57600080fd5b8235915061035c60208401610323565b90509250929050565b60008060006060848603121561037a57600080fd5b833592506020840135915061039160408501610323565b90509250925092565b600080604083850312156103ad57600080fd5b82359150602083013563ffffffff811681146103c857600080fd5b809150509250929050565b634e487b7160e01b600052601160045260246000fd5b60ff8181168382160290811690818114610405576104056103d3565b5092915050565b8082018082111561020e5761020e6103d3565b808202811582820484141761020e5761020e6103d356fea264697066735822122077ccbbdfa6f0f6ce58012fce8b61d68dfed7d31b5d05b8a73648e627834cf3cb64736f6c63430008130033",
					"opcodes": "PUSH2 0x46C PUSH2 0x3A PUSH1 0xB DUP3 DUP3 DUP3 CODECOPY DUP1 MLOAD PUSH1 0x0 BYTE PUSH1 0x73 EQ PUSH2 0x2D JUMPI PUSH4 0x4E487B71 PUSH1 0xE0 SHL PUSH1 0x0 MSTORE PUSH1 0x0 PUSH1 0x4 MSTORE PUSH1 0x24 PUSH1 0x0 REVERT JUMPDEST ADDRESS PUSH1 0x0 MSTORE PUSH1 0x73 DUP2 MSTORE8 DUP3 DUP2 RETURN INVALID PUSH20 0x0 ADDRESS EQ PUSH1 0x80 PUSH1 0x40 MSTORE PUSH1 0x4 CALLDATASIZE LT PUSH2 0xA8 JUMPI PUSH1 0x0 CALLDATALOAD PUSH1 0xE0 SHR DUP1 PUSH4 0x5D2029F1 GT PUSH2 0x70 JUMPI DUP1 PUSH4 0x5D2029F1 EQ PUSH2 0x14B JUMPI DUP1 PUSH4 0x8DE97F4F EQ PUSH2 0x15E JUMPI DUP1 PUSH4 0xA5858693 EQ PUSH2 0x17D JUMPI DUP1 PUSH4 0xB52B6659 EQ PUSH2 0x190 JUMPI DUP1 PUSH4 0xE1B30AB7 EQ PUSH2 0x1BB JUMPI PUSH1 0x0 DUP1 REVERT JUMPDEST DUP1 PUSH4 0x317F435 EQ PUSH2 0xAD JUMPI DUP1 PUSH4 0x3499A7EA EQ PUSH2 0xD8 JUMPI DUP1 PUSH4 0x34A51D0F EQ PUSH2 0xEB JUMPI DUP1 PUSH4 0x55D6ED43 EQ PUSH2 0x10C JUMPI DUP1 PUSH4 0x56E3DF97 EQ PUSH2 0x11F JUMPI JUMPDEST PUSH1 0x0 DUP1 REVERT JUMPDEST PUSH2 0xC1 PUSH2 0xBB CALLDATASIZE PUSH1 0x4 PUSH2 0x30A JUMP JUMPDEST PUSH1 0xF8 SHR SWAP1 JUMP JUMPDEST PUSH1 0x40 MLOAD PUSH1 0xFF SWAP1 SWAP2 AND DUP2 MSTORE PUSH1 0x20 ADD JUMPDEST PUSH1 0x40 MLOAD DUP1 SWAP2 SUB SWAP1 RETURN JUMPDEST PUSH2 0xC1 PUSH2 0xE6 CALLDATASIZE PUSH1 0x4 PUSH2 0x339 JUMP JUMPDEST PUSH2 0x1CE JUMP JUMPDEST PUSH2 0xFE PUSH2 0xF9 CALLDATASIZE PUSH1 0x4 PUSH2 0x365 JUMP JUMPDEST PUSH2 0x214 JUMP JUMPDEST PUSH1 0x40 MLOAD SWAP1 DUP2 MSTORE PUSH1 0x20 ADD PUSH2 0xCF JUMP JUMPDEST PUSH2 0xFE PUSH2 0x11A CALLDATASIZE PUSH1 0x4 PUSH2 0x365 JUMP JUMPDEST PUSH2 0x264 JUMP JUMPDEST PUSH2 0x136 PUSH2 0x12D CALLDATASIZE PUSH1 0x4 PUSH2 0x30A JUMP JUMPDEST PUSH4 0xFFFFFFFF AND SWAP1 JUMP JUMPDEST PUSH1 0x40 MLOAD PUSH4 0xFFFFFFFF SWAP1 SWAP2 AND DUP2 MSTORE PUSH1 0x20 ADD PUSH2 0xCF JUMP JUMPDEST PUSH2 0xC1 PUSH2 0x159 CALLDATASIZE PUSH1 0x4 PUSH2 0x339 JUMP JUMPDEST PUSH2 0x28D JUMP JUMPDEST PUSH2 0xFE PUSH2 0x16C CALLDATASIZE PUSH1 0x4 PUSH2 0x39A JUMP JUMPDEST PUSH4 0xFFFFFFFF AND PUSH1 0xF NOT SWAP2 SWAP1 SWAP2 AND OR SWAP1 JUMP JUMPDEST PUSH2 0xC1 PUSH2 0x18B CALLDATASIZE PUSH1 0x4 PUSH2 0x339 JUMP JUMPDEST PUSH2 0x2B7 JUMP JUMPDEST PUSH2 0xFE PUSH2 0x19E CALLDATASIZE PUSH1 0x4 PUSH2 0x339 JUMP JUMPDEST PUSH1 0xF8 SHL PUSH1 0x1 PUSH1 0x1 PUSH1 0xF8 SHL SUB NOT AND PUSH1 0x1 PUSH1 0x1 PUSH1 0xF8 SHL SUB SWAP2 SWAP1 SWAP2 AND OR SWAP1 JUMP JUMPDEST PUSH2 0xFE PUSH2 0x1C9 CALLDATASIZE PUSH1 0x4 PUSH2 0x365 JUMP JUMPDEST PUSH2 0x2E1 JUMP JUMPDEST PUSH1 0x0 PUSH1 0x4 DUP2 PUSH2 0x1DE DUP5 PUSH1 0x3 PUSH2 0x3E9 JUMP JUMPDEST PUSH1 0xFF AND SWAP1 POP PUSH2 0x1ED DUP2 DUP4 PUSH2 0x40C JUMP JUMPDEST PUSH2 0x1F8 SWAP1 PUSH1 0x1 PUSH2 0x40C JUMP JUMPDEST PUSH2 0x203 SWAP1 PUSH1 0x8 PUSH2 0x41F JUMP JUMPDEST DUP6 SWAP1 SHR PUSH1 0xFF AND SWAP3 POP POP POP JUMPDEST SWAP3 SWAP2 POP POP JUMP JUMPDEST PUSH1 0x0 PUSH1 0x4 DUP2 PUSH2 0x224 DUP6 PUSH1 0x3 PUSH2 0x41F JUMP JUMPDEST SWAP1 POP PUSH1 0x0 PUSH2 0x232 DUP3 DUP5 PUSH2 0x40C JUMP JUMPDEST PUSH2 0x23D SWAP1 PUSH1 0x0 PUSH2 0x40C JUMP JUMPDEST PUSH2 0x248 SWAP1 PUSH1 0x8 PUSH2 0x41F JUMP JUMPDEST PUSH1 0xFF SWAP6 DUP7 AND DUP2 SHL SWAP6 SWAP1 SHL NOT SWAP7 SWAP1 SWAP7 AND SWAP4 SWAP1 SWAP4 OR SWAP6 SWAP5 POP POP POP POP POP JUMP JUMPDEST PUSH1 0x0 PUSH1 0x4 DUP2 PUSH2 0x274 DUP6 PUSH1 0x3 PUSH2 0x41F JUMP JUMPDEST SWAP1 POP PUSH1 0x0 PUSH2 0x282 DUP3 DUP5 PUSH2 0x40C JUMP JUMPDEST PUSH2 0x23D SWAP1 PUSH1 0x2 PUSH2 0x40C JUMP JUMPDEST PUSH1 0x0 PUSH1 0x4 DUP2 PUSH2 0x29D DUP5 PUSH1 0x3 PUSH2 0x3E9 JUMP JUMPDEST PUSH1 0xFF AND SWAP1 POP PUSH2 0x2AC DUP2 DUP4 PUSH2 0x40C JUMP JUMPDEST PUSH2 0x1F8 SWAP1 PUSH1 0x0 PUSH2 0x40C JUMP JUMPDEST PUSH1 0x0 PUSH1 0x4 DUP2 PUSH2 0x2C7 DUP5 PUSH1 0x3 PUSH2 0x3E9 JUMP JUMPDEST PUSH1 0xFF AND SWAP1 POP PUSH2 0x2D6 DUP2 DUP4 PUSH2 0x40C JUMP JUMPDEST PUSH2 0x1F8 SWAP1 PUSH1 0x2 PUSH2 0x40C JUMP JUMPDEST PUSH1 0x0 PUSH1 0x4 DUP2 PUSH2 0x2F1 DUP6 PUSH1 0x3 PUSH2 0x41F JUMP JUMPDEST SWAP1 POP PUSH1 0x0 PUSH2 0x2FF DUP3 DUP5 PUSH2 0x40C JUMP JUMPDEST PUSH2 0x23D SWAP1 PUSH1 0x1 PUSH2 0x40C JUMP JUMPDEST PUSH1 0x0 PUSH1 0x20 DUP3 DUP5 SUB SLT ISZERO PUSH2 0x31C JUMPI PUSH1 0x0 DUP1 REVERT JUMPDEST POP CALLDATALOAD SWAP2 SWAP1 POP JUMP JUMPDEST DUP1 CALLDATALOAD PUSH1 0xFF DUP2 AND DUP2 EQ PUSH2 0x334 JUMPI PUSH1 0x0 DUP1 REVERT JUMPDEST SWAP2 SWAP1 POP JUMP JUMPDEST PUSH1 0x0 DUP1 PUSH1 0x40 DUP4 DUP6 SUB SLT ISZERO PUSH2 0x34C JUMPI PUSH1 0x0 DUP1 REVERT JUMPDEST DUP3 CALLDATALOAD SWAP2 POP PUSH2 0x35C PUSH1 0x20 DUP5 ADD PUSH2 0x323 JUMP JUMPDEST SWAP1 POP SWAP3 POP SWAP3 SWAP1 POP JUMP JUMPDEST PUSH1 0x0 DUP1 PUSH1 0x0 PUSH1 0x60 DUP5 DUP7 SUB SLT ISZERO PUSH2 0x37A JUMPI PUSH1 0x0 DUP1 REVERT JUMPDEST DUP4 CALLDATALOAD SWAP3 POP PUSH1 0x20 DUP5 ADD CALLDATALOAD SWAP2 POP PUSH2 0x391 PUSH1 0x40 DUP6 ADD PUSH2 0x323 JUMP JUMPDEST SWAP1 POP SWAP3 POP SWAP3 POP SWAP3 JUMP JUMPDEST PUSH1 0x0 DUP1 PUSH1 0x40 DUP4 DUP6 SUB SLT ISZERO PUSH2 0x3AD JUMPI PUSH1 0x0 DUP1 REVERT JUMPDEST DUP3 CALLDATALOAD SWAP2 POP PUSH1 0x20 DUP4 ADD CALLDATALOAD PUSH4 0xFFFFFFFF DUP2 AND DUP2 EQ PUSH2 0x3C8 JUMPI PUSH1 0x0 DUP1 REVERT JUMPDEST DUP1 SWAP2 POP POP SWAP3 POP SWAP3 SWAP1 POP JUMP JUMPDEST PUSH4 0x4E487B71 PUSH1 0xE0 SHL PUSH1 0x0 MSTORE PUSH1 0x11 PUSH1 0x4 MSTORE PUSH1 0x24 PUSH1 0x0 REVERT JUMPDEST PUSH1 0xFF DUP2 DUP2 AND DUP4 DUP3 AND MUL SWAP1 DUP2 AND SWAP1 DUP2 DUP2 EQ PUSH2 0x405 JUMPI PUSH2 0x405 PUSH2 0x3D3 JUMP JUMPDEST POP SWAP3 SWAP2 POP POP JUMP JUMPDEST DUP1 DUP3 ADD DUP1 DUP3 GT ISZERO PUSH2 0x20E JUMPI PUSH2 0x20E PUSH2 0x3D3 JUMP JUMPDEST DUP1 DUP3 MUL DUP2 ISZERO DUP3 DUP3 DIV DUP5 EQ OR PUSH2 0x20E JUMPI PUSH2 0x20E PUSH2 0x3D3 JUMP INVALID LOG2 PUSH5 0x6970667358 0x22 SLT KECCAK256 PUSH24 0xCCBBDFA6F0F6CE58012FCE8B61D68DFED7D31B5D05B8A736 BASEFEE 0xE6 0x27 DUP4 0x4C RETURN 0xCB PUSH5 0x736F6C6343 STOP ADDMOD SGT STOP CALLER "
				},
				"gasEstimates": {
					"creation": {
						"codeDepositCost": "226400",
						"executionCost": "300",
						"totalCost": "226700"
					},
					"external": {
						"getArcane(uint256,uint8)": "infinite",
						"getCharges(uint256)": "258",
						"getGeneration(uint256)": "357",
						"getId(uint256,uint8)": "infinite",
						"getLevel(uint256,uint8)": "infinite",
						"setArcane(uint256,uint256,uint8)": "infinite",
						"setCharges(uint256,uint8)": "471",
						"setGeneration(uint256,uint32)": "367",
						"setId(uint256,uint256,uint8)": "infinite",
						"setLevel(uint256,uint256,uint8)": "infinite"
					}
				},
				"methodIdentifiers": {
					"getArcane(uint256,uint8)": "a5858693",
					"getCharges(uint256)": "0317f435",
					"getGeneration(uint256)": "56e3df97",
					"getId(uint256,uint8)": "5d2029f1",
					"getLevel(uint256,uint8)": "3499a7ea",
					"setArcane(uint256,uint256,uint8)": "55d6ed43",
					"setCharges(uint256,uint8)": "b52b6659",
					"setGeneration(uint256,uint32)": "8de97f4f",
					"setId(uint256,uint256,uint8)": "34a51d0f",
					"setLevel(uint256,uint256,uint8)": "e1b30ab7"
				}
			},
			"storageLayout": {
				"storage": [],
				"types": null
			},
			"userdoc": {
				"kind": "user",
				"methods": {},
				"version": 1
			}
		}
	}
}