{
	"contracts/breedings/BreedingOld.sol": {
		"BreedingOld": {
			"abi": [
				{
					"inputs": [
						{
							"internalType": "uint256",
							"name": "genes1",
							"type": "uint256"
						},
						{
							"internalType": "uint256",
							"name": "genes2",
							"type": "uint256"
						}
					],
					"name": "breading",
					"outputs": [
						{
							"internalType": "uint256",
							"name": "",
							"type": "uint256"
						}
					],
					"stateMutability": "nonpayable",
					"type": "function"
				},
				{
					"inputs": [
						{
							"internalType": "uint256",
							"name": "_genes",
							"type": "uint256"
						}
					],
					"name": "decode",
					"outputs": [
						{
							"internalType": "uint8[]",
							"name": "_traits",
							"type": "uint8[]"
						}
					],
					"stateMutability": "pure",
					"type": "function"
				},
				{
					"inputs": [
						{
							"internalType": "uint8[]",
							"name": "_traits",
							"type": "uint8[]"
						}
					],
					"name": "encode",
					"outputs": [
						{
							"internalType": "uint256",
							"name": "_genes",
							"type": "uint256"
						}
					],
					"stateMutability": "pure",
					"type": "function"
				}
			],
			"devdoc": {
				"kind": "dev",
				"methods": {
					"breading(uint256,uint256)": {
						"details": "given genes of token 1 & 2, return a genetic combination - may have a random factor",
						"params": {
							"genes1": "genes of mom",
							"genes2": "genes of dad"
						},
						"returns": {
							"_0": "the genes that are supposed to be passed down the child"
						}
					}
				},
				"version": 1
			},
			"evm": {
				"assembly": "    /* \"contracts/breedings/BreedingOld.sol\":101:5367  contract BreedingOld is IBreeding {... */\n  mstore(0x40, 0x80)\n    /* \"contracts/breedings/BreedingOld.sol\":170:171  1 */\n  0x01\n    /* \"contracts/breedings/BreedingOld.sol\":141:171  uint256 private GlobalSeed = 1 */\n  0x00\n  sstore\n    /* \"contracts/breedings/BreedingOld.sol\":212:214  50 */\n  0x32\n    /* \"contracts/breedings/BreedingOld.sol\":177:214  uint256 private randomSideWeight = 50 */\n  0x01\n  sstore\n    /* \"contracts/breedings/BreedingOld.sol\":253:255  10 */\n  0x0a\n    /* \"contracts/breedings/BreedingOld.sol\":220:255  uint256 private randomIdWeight = 10 */\n  0x02\n  sstore\n    /* \"contracts/breedings/BreedingOld.sol\":293:296  100 */\n  0x64\n    /* \"contracts/breedings/BreedingOld.sol\":261:296  uint256 private rarityPercent = 100 */\n  0x03\n  sstore\n    /* \"contracts/breedings/BreedingOld.sol\":360:361  9 */\n  0x09\n    /* \"contracts/breedings/BreedingOld.sol\":331:361  uint8 private maxBodyParts = 9 */\n  0x04\n  exp(0x0100, 0x00)\n  dup2\n  sload\n  dup2\n  0xff\n  mul\n  not\n  and\n  swap1\n  dup4\n  0xff\n  and\n  mul\n  or\n  swap1\n  sstore\n  pop\n    /* \"contracts/breedings/BreedingOld.sol\":461:463  37 */\n  0x25\n    /* \"contracts/breedings/BreedingOld.sol\":439:463  uint8 private maxId = 37 */\n  0x04\n  exp(0x0100, 0x01)\n  dup2\n  sload\n  dup2\n  0xff\n  mul\n  not\n  and\n  swap1\n  dup4\n  0xff\n  and\n  mul\n  or\n  swap1\n  sstore\n  pop\n    /* \"contracts/breedings/BreedingOld.sol\":101:5367  contract BreedingOld is IBreeding {... */\n  callvalue\n  dup1\n  iszero\n  tag_1\n  jumpi\n  0x00\n  dup1\n  revert\ntag_1:\n  pop\n  dataSize(sub_0)\n  dup1\n  dataOffset(sub_0)\n  0x00\n  codecopy\n  0x00\n  return\nstop\n\nsub_0: assembly {\n        /* \"contracts/breedings/BreedingOld.sol\":101:5367  contract BreedingOld is IBreeding {... */\n      mstore(0x40, 0x80)\n      callvalue\n      dup1\n      iszero\n      tag_1\n      jumpi\n      0x00\n      dup1\n      revert\n    tag_1:\n      pop\n      jumpi(tag_2, lt(calldatasize, 0x04))\n      shr(0xe0, calldataload(0x00))\n      dup1\n      0x1597ee44\n      eq\n      tag_3\n      jumpi\n      dup1\n      0x61a76900\n      eq\n      tag_4\n      jumpi\n      dup1\n      0xe4a13fb7\n      eq\n      tag_5\n      jumpi\n    tag_2:\n      0x00\n      dup1\n      revert\n        /* \"contracts/breedings/BreedingOld.sol\":490:853  function encode(uint8[] memory _traits)... */\n    tag_3:\n      tag_6\n      0x04\n      dup1\n      calldatasize\n      sub\n      dup2\n      add\n      swap1\n      tag_7\n      swap2\n      swap1\n      tag_8\n      jump\t// in\n    tag_7:\n      tag_9\n      jump\t// in\n    tag_6:\n      mload(0x40)\n      tag_10\n      swap2\n      swap1\n      tag_11\n      jump\t// in\n    tag_10:\n      mload(0x40)\n      dup1\n      swap2\n      sub\n      swap1\n      return\n        /* \"contracts/breedings/BreedingOld.sol\":859:1143  function decode(uint256 _genes)... */\n    tag_4:\n      tag_12\n      0x04\n      dup1\n      calldatasize\n      sub\n      dup2\n      add\n      swap1\n      tag_13\n      swap2\n      swap1\n      tag_14\n      jump\t// in\n    tag_13:\n      tag_15\n      jump\t// in\n    tag_12:\n      mload(0x40)\n      tag_16\n      swap2\n      swap1\n      tag_17\n      jump\t// in\n    tag_16:\n      mload(0x40)\n      dup1\n      swap2\n      sub\n      swap1\n      return\n        /* \"contracts/breedings/BreedingOld.sol\":2059:3592  function breading(... */\n    tag_5:\n      tag_18\n      0x04\n      dup1\n      calldatasize\n      sub\n      dup2\n      add\n      swap1\n      tag_19\n      swap2\n      swap1\n      tag_20\n      jump\t// in\n    tag_19:\n      tag_21\n      jump\t// in\n    tag_18:\n      mload(0x40)\n      tag_22\n      swap2\n      swap1\n      tag_11\n      jump\t// in\n    tag_22:\n      mload(0x40)\n      dup1\n      swap2\n      sub\n      swap1\n      return\n        /* \"contracts/breedings/BreedingOld.sol\":490:853  function encode(uint8[] memory _traits)... */\n    tag_9:\n        /* \"contracts/breedings/BreedingOld.sol\":575:589  uint256 _genes */\n      0x00\n        /* \"contracts/breedings/BreedingOld.sol\":631:640  uint256 i */\n      dup1\n        /* \"contracts/breedings/BreedingOld.sol\":626:823  for (uint256 i = 0; i < _traits.length; i++) {... */\n    tag_24:\n        /* \"contracts/breedings/BreedingOld.sol\":650:657  _traits */\n      dup3\n        /* \"contracts/breedings/BreedingOld.sol\":650:664  _traits.length */\n      mload\n        /* \"contracts/breedings/BreedingOld.sol\":646:647  i */\n      dup2\n        /* \"contracts/breedings/BreedingOld.sol\":646:664  i < _traits.length */\n      lt\n        /* \"contracts/breedings/BreedingOld.sol\":626:823  for (uint256 i = 0; i < _traits.length; i++) {... */\n      iszero\n      tag_25\n      jumpi\n        /* \"contracts/breedings/BreedingOld.sol\":704:705  8 */\n      0x08\n        /* \"contracts/breedings/BreedingOld.sol\":694:700  _genes */\n      dup3\n        /* \"contracts/breedings/BreedingOld.sol\":694:705  _genes << 8 */\n      swap1\n      shl\n        /* \"contracts/breedings/BreedingOld.sol\":685:705  _genes = _genes << 8 */\n      swap2\n      pop\n        /* \"contracts/breedings/BreedingOld.sol\":781:788  _traits */\n      dup3\n        /* \"contracts/breedings/BreedingOld.sol\":810:811  i */\n      dup2\n        /* \"contracts/breedings/BreedingOld.sol\":806:807  1 */\n      0x01\n        /* \"contracts/breedings/BreedingOld.sol\":789:796  _traits */\n      dup6\n        /* \"contracts/breedings/BreedingOld.sol\":789:803  _traits.length */\n      mload\n        /* \"contracts/breedings/BreedingOld.sol\":789:807  _traits.length - 1 */\n      tag_27\n      swap2\n      swap1\n      tag_28\n      jump\t// in\n    tag_27:\n        /* \"contracts/breedings/BreedingOld.sol\":789:811  _traits.length - 1 - i */\n      tag_29\n      swap2\n      swap1\n      tag_28\n      jump\t// in\n    tag_29:\n        /* \"contracts/breedings/BreedingOld.sol\":781:812  _traits[_traits.length - 1 - i] */\n      dup2\n      mload\n      dup2\n      lt\n      tag_30\n      jumpi\n      tag_31\n      tag_32\n      jump\t// in\n    tag_31:\n    tag_30:\n      0x20\n      mul\n      0x20\n      add\n      add\n      mload\n        /* \"contracts/breedings/BreedingOld.sol\":772:812  _genes | _traits[_traits.length - 1 - i] */\n      0xff\n      and\n        /* \"contracts/breedings/BreedingOld.sol\":772:778  _genes */\n      dup3\n        /* \"contracts/breedings/BreedingOld.sol\":772:812  _genes | _traits[_traits.length - 1 - i] */\n      or\n        /* \"contracts/breedings/BreedingOld.sol\":763:812  _genes = _genes | _traits[_traits.length - 1 - i] */\n      swap2\n      pop\n        /* \"contracts/breedings/BreedingOld.sol\":666:669  i++ */\n      dup1\n      dup1\n      tag_33\n      swap1\n      tag_34\n      jump\t// in\n    tag_33:\n      swap2\n      pop\n      pop\n        /* \"contracts/breedings/BreedingOld.sol\":626:823  for (uint256 i = 0; i < _traits.length; i++) {... */\n      jump(tag_24)\n    tag_25:\n      pop\n        /* \"contracts/breedings/BreedingOld.sol\":490:853  function encode(uint8[] memory _traits)... */\n      swap2\n      swap1\n      pop\n      jump\t// out\n        /* \"contracts/breedings/BreedingOld.sol\":859:1143  function decode(uint256 _genes)... */\n    tag_15:\n        /* \"contracts/breedings/BreedingOld.sol\":936:958  uint8[] memory _traits */\n      0x60\n        /* \"contracts/breedings/BreedingOld.sol\":996:998  27 */\n      0x1b\n        /* \"contracts/breedings/BreedingOld.sol\":984:999  new uint8[](27) */\n      0xffffffffffffffff\n      dup2\n      gt\n      iszero\n      tag_36\n      jumpi\n      tag_37\n      tag_38\n      jump\t// in\n    tag_37:\n    tag_36:\n      mload(0x40)\n      swap1\n      dup1\n      dup3\n      mstore\n      dup1\n      0x20\n      mul\n      0x20\n      add\n      dup3\n      add\n      0x40\n      mstore\n      dup1\n      iszero\n      tag_39\n      jumpi\n      dup2\n      0x20\n      add\n      0x20\n      dup3\n      mul\n      dup1\n      calldatasize\n      dup4\n      calldatacopy\n      dup1\n      dup3\n      add\n      swap2\n      pop\n      pop\n      swap1\n      pop\n    tag_39:\n      pop\n        /* \"contracts/breedings/BreedingOld.sol\":974:999  _traits = new uint8[](27) */\n      swap1\n      pop\n        /* \"contracts/breedings/BreedingOld.sol\":1015:1024  uint256 i */\n      0x00\n        /* \"contracts/breedings/BreedingOld.sol\":1010:1112  for (uint256 i = 0; i < _traits.length; i++) {... */\n    tag_40:\n        /* \"contracts/breedings/BreedingOld.sol\":1034:1041  _traits */\n      dup2\n        /* \"contracts/breedings/BreedingOld.sol\":1034:1048  _traits.length */\n      mload\n        /* \"contracts/breedings/BreedingOld.sol\":1030:1031  i */\n      dup2\n        /* \"contracts/breedings/BreedingOld.sol\":1030:1048  i < _traits.length */\n      lt\n        /* \"contracts/breedings/BreedingOld.sol\":1010:1112  for (uint256 i = 0; i < _traits.length; i++) {... */\n      iszero\n      tag_41\n      jumpi\n        /* \"contracts/breedings/BreedingOld.sol\":1082:1101  get8Bits(_genes, i) */\n      tag_43\n        /* \"contracts/breedings/BreedingOld.sol\":1091:1097  _genes */\n      dup4\n        /* \"contracts/breedings/BreedingOld.sol\":1099:1100  i */\n      dup3\n        /* \"contracts/breedings/BreedingOld.sol\":1082:1090  get8Bits */\n      tag_44\n        /* \"contracts/breedings/BreedingOld.sol\":1082:1101  get8Bits(_genes, i) */\n      jump\t// in\n    tag_43:\n        /* \"contracts/breedings/BreedingOld.sol\":1069:1076  _traits */\n      dup3\n        /* \"contracts/breedings/BreedingOld.sol\":1077:1078  i */\n      dup3\n        /* \"contracts/breedings/BreedingOld.sol\":1069:1079  _traits[i] */\n      dup2\n      mload\n      dup2\n      lt\n      tag_45\n      jumpi\n      tag_46\n      tag_32\n      jump\t// in\n    tag_46:\n    tag_45:\n      0x20\n      mul\n      0x20\n      add\n      add\n        /* \"contracts/breedings/BreedingOld.sol\":1069:1101  _traits[i] = get8Bits(_genes, i) */\n      swap1\n      0xff\n      and\n      swap1\n      dup2\n      0xff\n      and\n      dup2\n      mstore\n      pop\n      pop\n        /* \"contracts/breedings/BreedingOld.sol\":1050:1053  i++ */\n      dup1\n      dup1\n      tag_47\n      swap1\n      tag_34\n      jump\t// in\n    tag_47:\n      swap2\n      pop\n      pop\n        /* \"contracts/breedings/BreedingOld.sol\":1010:1112  for (uint256 i = 0; i < _traits.length; i++) {... */\n      jump(tag_40)\n    tag_41:\n      pop\n        /* \"contracts/breedings/BreedingOld.sol\":859:1143  function decode(uint256 _genes)... */\n      swap2\n      swap1\n      pop\n      jump\t// out\n        /* \"contracts/breedings/BreedingOld.sol\":2059:3592  function breading(... */\n    tag_21:\n        /* \"contracts/breedings/BreedingOld.sol\":2147:2154  uint256 */\n      0x00\n        /* \"contracts/breedings/BreedingOld.sol\":2166:2189  uint8[] memory _traits1 */\n      dup1\n        /* \"contracts/breedings/BreedingOld.sol\":2192:2206  decode(genes1) */\n      tag_49\n        /* \"contracts/breedings/BreedingOld.sol\":2199:2205  genes1 */\n      dup5\n        /* \"contracts/breedings/BreedingOld.sol\":2192:2198  decode */\n      tag_15\n        /* \"contracts/breedings/BreedingOld.sol\":2192:2206  decode(genes1) */\n      jump\t// in\n    tag_49:\n        /* \"contracts/breedings/BreedingOld.sol\":2166:2206  uint8[] memory _traits1 = decode(genes1) */\n      swap1\n      pop\n        /* \"contracts/breedings/BreedingOld.sol\":2216:2239  uint8[] memory _traits2 */\n      0x00\n        /* \"contracts/breedings/BreedingOld.sol\":2242:2256  decode(genes2) */\n      tag_50\n        /* \"contracts/breedings/BreedingOld.sol\":2249:2255  genes2 */\n      dup5\n        /* \"contracts/breedings/BreedingOld.sol\":2242:2248  decode */\n      tag_15\n        /* \"contracts/breedings/BreedingOld.sol\":2242:2256  decode(genes2) */\n      jump\t// in\n    tag_50:\n        /* \"contracts/breedings/BreedingOld.sol\":2216:2256  uint8[] memory _traits2 = decode(genes2) */\n      swap1\n      pop\n        /* \"contracts/breedings/BreedingOld.sol\":2266:2291  uint8[] memory _newTraits */\n      0x00\n        /* \"contracts/breedings/BreedingOld.sol\":2306:2314  _traits1 */\n      dup3\n        /* \"contracts/breedings/BreedingOld.sol\":2306:2321  _traits1.length */\n      mload\n        /* \"contracts/breedings/BreedingOld.sol\":2294:2322  new uint8[](_traits1.length) */\n      0xffffffffffffffff\n      dup2\n      gt\n      iszero\n      tag_51\n      jumpi\n      tag_52\n      tag_38\n      jump\t// in\n    tag_52:\n    tag_51:\n      mload(0x40)\n      swap1\n      dup1\n      dup3\n      mstore\n      dup1\n      0x20\n      mul\n      0x20\n      add\n      dup3\n      add\n      0x40\n      mstore\n      dup1\n      iszero\n      tag_53\n      jumpi\n      dup2\n      0x20\n      add\n      0x20\n      dup3\n      mul\n      dup1\n      calldatasize\n      dup4\n      calldatacopy\n      dup1\n      dup3\n      add\n      swap2\n      pop\n      pop\n      swap1\n      pop\n    tag_53:\n      pop\n        /* \"contracts/breedings/BreedingOld.sol\":2266:2322  uint8[] memory _newTraits = new uint8[](_traits1.length) */\n      swap1\n      pop\n        /* \"contracts/breedings/BreedingOld.sol\":2344:2362  uint256 randomSeed */\n      0x00\n        /* \"contracts/breedings/BreedingOld.sol\":2451:2466  block.timestamp */\n      timestamp\n        /* \"contracts/breedings/BreedingOld.sol\":2488:2500  block.number */\n      number\n        /* \"contracts/breedings/BreedingOld.sol\":2522:2538  block.difficulty */\n      prevrandao\n        /* \"contracts/breedings/BreedingOld.sol\":2560:2566  genes1 */\n      dup10\n        /* \"contracts/breedings/BreedingOld.sol\":2588:2594  genes2 */\n      dup10\n        /* \"contracts/breedings/BreedingOld.sol\":2616:2626  GlobalSeed */\n      sload(0x00)\n        /* \"contracts/breedings/BreedingOld.sol\":2413:2644  abi.encodePacked(... */\n      add(0x20, mload(0x40))\n      tag_54\n      swap7\n      swap6\n      swap5\n      swap4\n      swap3\n      swap2\n      swap1\n      tag_55\n      jump\t// in\n    tag_54:\n      mload(0x40)\n      0x20\n      dup2\n      dup4\n      sub\n      sub\n      dup2\n      mstore\n      swap1\n      0x40\n      mstore\n        /* \"contracts/breedings/BreedingOld.sol\":2386:2658  keccak256(... */\n      dup1\n      mload\n      swap1\n      0x20\n      add\n      keccak256\n        /* \"contracts/breedings/BreedingOld.sol\":2365:2668  uint256(... */\n      0x00\n      shr\n        /* \"contracts/breedings/BreedingOld.sol\":2344:2668  uint256 randomSeed = uint256(... */\n      swap1\n      pop\n        /* \"contracts/breedings/BreedingOld.sol\":2700:2701  0 */\n      0x00\n        /* \"contracts/breedings/BreedingOld.sol\":2686:2696  randomSeed */\n      dup2\n        /* \"contracts/breedings/BreedingOld.sol\":2686:2701  randomSeed != 0 */\n      sub\n        /* \"contracts/breedings/BreedingOld.sol\":2678:2720  require(randomSeed != 0, \"randomSeed = 0\") */\n      tag_56\n      jumpi\n      mload(0x40)\n      0x08c379a000000000000000000000000000000000000000000000000000000000\n      dup2\n      mstore\n      0x04\n      add\n      tag_57\n      swap1\n      tag_58\n      jump\t// in\n    tag_57:\n      mload(0x40)\n      dup1\n      swap2\n      sub\n      swap1\n      revert\n    tag_56:\n        /* \"contracts/breedings/BreedingOld.sol\":2730:2749  uint256 randomIndex */\n      0x00\n        /* \"contracts/breedings/BreedingOld.sol\":2759:2766  uint8 j */\n      dup1\n        /* \"contracts/breedings/BreedingOld.sol\":2769:2770  0 */\n      0x00\n        /* \"contracts/breedings/BreedingOld.sol\":2759:2770  uint8 j = 0 */\n      swap1\n      pop\n        /* \"contracts/breedings/BreedingOld.sol\":2780:2789  uint256 i */\n      0x00\n        /* \"contracts/breedings/BreedingOld.sol\":2799:3528  for (i = 0; i < _traits1.length; i++) {... */\n    tag_59:\n        /* \"contracts/breedings/BreedingOld.sol\":2815:2823  _traits1 */\n      dup7\n        /* \"contracts/breedings/BreedingOld.sol\":2815:2830  _traits1.length */\n      mload\n        /* \"contracts/breedings/BreedingOld.sol\":2811:2812  i */\n      dup2\n        /* \"contracts/breedings/BreedingOld.sol\":2811:2830  i < _traits1.length */\n      lt\n        /* \"contracts/breedings/BreedingOld.sol\":2799:3528  for (i = 0; i < _traits1.length; i++) {... */\n      iszero\n      tag_60\n      jumpi\n        /* \"contracts/breedings/BreedingOld.sol\":2851:2861  uint8 left */\n      0x00\n        /* \"contracts/breedings/BreedingOld.sol\":2864:2872  _traits1 */\n      dup8\n        /* \"contracts/breedings/BreedingOld.sol\":2873:2874  i */\n      dup3\n        /* \"contracts/breedings/BreedingOld.sol\":2864:2875  _traits1[i] */\n      dup2\n      mload\n      dup2\n      lt\n      tag_62\n      jumpi\n      tag_63\n      tag_32\n      jump\t// in\n    tag_63:\n    tag_62:\n      0x20\n      mul\n      0x20\n      add\n      add\n      mload\n        /* \"contracts/breedings/BreedingOld.sol\":2851:2875  uint8 left = _traits1[i] */\n      swap1\n      pop\n        /* \"contracts/breedings/BreedingOld.sol\":2889:2900  uint8 right */\n      0x00\n        /* \"contracts/breedings/BreedingOld.sol\":2903:2911  _traits2 */\n      dup8\n        /* \"contracts/breedings/BreedingOld.sol\":2912:2913  i */\n      dup4\n        /* \"contracts/breedings/BreedingOld.sol\":2903:2914  _traits2[i] */\n      dup2\n      mload\n      dup2\n      lt\n      tag_64\n      jumpi\n      tag_65\n      tag_32\n      jump\t// in\n    tag_65:\n    tag_64:\n      0x20\n      mul\n      0x20\n      add\n      add\n      mload\n        /* \"contracts/breedings/BreedingOld.sol\":2889:2914  uint8 right = _traits2[i] */\n      swap1\n      pop\n        /* \"contracts/breedings/BreedingOld.sol\":2956:2957  0 */\n      0x00\n        /* \"contracts/breedings/BreedingOld.sol\":2951:2952  j */\n      dup5\n        /* \"contracts/breedings/BreedingOld.sol\":2951:2957  j == 0 */\n      0xff\n      and\n      sub\n        /* \"contracts/breedings/BreedingOld.sol\":2947:3236  if (j == 0) {... */\n      tag_66\n      jumpi\n        /* \"contracts/breedings/BreedingOld.sol\":2993:3140  getRandomId(... */\n      tag_67\n        /* \"contracts/breedings/BreedingOld.sol\":3026:3036  randomSeed */\n      dup7\n        /* \"contracts/breedings/BreedingOld.sol\":3058:3069  randomIndex */\n      dup7\n        /* \"contracts/breedings/BreedingOld.sol\":3091:3095  left */\n      dup5\n        /* \"contracts/breedings/BreedingOld.sol\":3117:3122  right */\n      dup5\n        /* \"contracts/breedings/BreedingOld.sol\":2993:3004  getRandomId */\n      tag_68\n        /* \"contracts/breedings/BreedingOld.sol\":2993:3140  getRandomId(... */\n      jump\t// in\n    tag_67:\n        /* \"contracts/breedings/BreedingOld.sol\":2977:2987  _newTraits */\n      dup8\n        /* \"contracts/breedings/BreedingOld.sol\":2988:2989  i */\n      dup5\n        /* \"contracts/breedings/BreedingOld.sol\":2977:2990  _newTraits[i] */\n      dup2\n      mload\n      dup2\n      lt\n      tag_69\n      jumpi\n      tag_70\n      tag_32\n      jump\t// in\n    tag_70:\n    tag_69:\n      0x20\n      mul\n      0x20\n      add\n      add\n        /* \"contracts/breedings/BreedingOld.sol\":2977:3140  _newTraits[i] = getRandomId(... */\n      swap1\n      0xff\n      and\n      swap1\n      dup2\n      0xff\n      and\n      dup2\n      mstore\n      pop\n      pop\n        /* \"contracts/breedings/BreedingOld.sol\":3158:3161  j++ */\n      dup4\n      dup1\n      tag_71\n      swap1\n      tag_72\n      jump\t// in\n    tag_71:\n      swap5\n      pop\n      pop\n        /* \"contracts/breedings/BreedingOld.sol\":3194:3195  2 */\n      0x02\n        /* \"contracts/breedings/BreedingOld.sol\":3179:3195  randomIndex += 2 */\n      dup6\n      tag_73\n      swap2\n      swap1\n      tag_74\n      jump\t// in\n    tag_73:\n      swap5\n      pop\n        /* \"contracts/breedings/BreedingOld.sol\":3213:3221  continue */\n      pop\n      pop\n      jump(tag_61)\n        /* \"contracts/breedings/BreedingOld.sol\":2947:3236  if (j == 0) {... */\n    tag_66:\n        /* \"contracts/breedings/BreedingOld.sol\":3280:3281  1 */\n      0x01\n        /* \"contracts/breedings/BreedingOld.sol\":3275:3276  j */\n      dup5\n        /* \"contracts/breedings/BreedingOld.sol\":3275:3281  j == 1 */\n      0xff\n      and\n      sub\n        /* \"contracts/breedings/BreedingOld.sol\":3271:3380  if (j == 1) {... */\n      tag_75\n      jumpi\n        /* \"contracts/breedings/BreedingOld.sol\":3317:3318  1 */\n      0x01\n        /* \"contracts/breedings/BreedingOld.sol\":3301:3311  _newTraits */\n      dup8\n        /* \"contracts/breedings/BreedingOld.sol\":3312:3313  i */\n      dup5\n        /* \"contracts/breedings/BreedingOld.sol\":3301:3314  _newTraits[i] */\n      dup2\n      mload\n      dup2\n      lt\n      tag_76\n      jumpi\n      tag_77\n      tag_32\n      jump\t// in\n    tag_77:\n    tag_76:\n      0x20\n      mul\n      0x20\n      add\n      add\n        /* \"contracts/breedings/BreedingOld.sol\":3301:3318  _newTraits[i] = 1 */\n      swap1\n      0xff\n      and\n      swap1\n      dup2\n      0xff\n      and\n      dup2\n      mstore\n      pop\n      pop\n        /* \"contracts/breedings/BreedingOld.sol\":3336:3339  j++ */\n      dup4\n      dup1\n      tag_78\n      swap1\n      tag_72\n      jump\t// in\n    tag_78:\n      swap5\n      pop\n      pop\n        /* \"contracts/breedings/BreedingOld.sol\":3357:3365  continue */\n      pop\n      pop\n      jump(tag_61)\n        /* \"contracts/breedings/BreedingOld.sol\":3271:3380  if (j == 1) {... */\n    tag_75:\n        /* \"contracts/breedings/BreedingOld.sol\":3410:3449  getRarity(randomSeed, randomIndex++, 1) */\n      tag_79\n        /* \"contracts/breedings/BreedingOld.sol\":3420:3430  randomSeed */\n      dup7\n        /* \"contracts/breedings/BreedingOld.sol\":3432:3445  randomIndex++ */\n      dup7\n      dup1\n      tag_80\n      swap1\n      tag_34\n      jump\t// in\n    tag_80:\n      swap8\n      pop\n        /* \"contracts/breedings/BreedingOld.sol\":3447:3448  1 */\n      0x01\n        /* \"contracts/breedings/BreedingOld.sol\":3410:3419  getRarity */\n      tag_81\n        /* \"contracts/breedings/BreedingOld.sol\":3410:3449  getRarity(randomSeed, randomIndex++, 1) */\n      jump\t// in\n    tag_79:\n        /* \"contracts/breedings/BreedingOld.sol\":3394:3404  _newTraits */\n      dup8\n        /* \"contracts/breedings/BreedingOld.sol\":3405:3406  i */\n      dup5\n        /* \"contracts/breedings/BreedingOld.sol\":3394:3407  _newTraits[i] */\n      dup2\n      mload\n      dup2\n      lt\n      tag_82\n      jumpi\n      tag_83\n      tag_32\n      jump\t// in\n    tag_83:\n    tag_82:\n      0x20\n      mul\n      0x20\n      add\n      add\n        /* \"contracts/breedings/BreedingOld.sol\":3394:3449  _newTraits[i] = getRarity(randomSeed, randomIndex++, 1) */\n      swap1\n      0xff\n      and\n      swap1\n      dup2\n      0xff\n      and\n      dup2\n      mstore\n      pop\n      pop\n        /* \"contracts/breedings/BreedingOld.sol\":3467:3468  0 */\n      0x00\n        /* \"contracts/breedings/BreedingOld.sol\":3463:3468  j = 0 */\n      swap4\n      pop\n        /* \"contracts/breedings/BreedingOld.sol\":3482:3495  randomIndex++ */\n      dup5\n      dup1\n      tag_84\n      swap1\n      tag_34\n      jump\t// in\n    tag_84:\n      swap6\n      pop\n      pop\n        /* \"contracts/breedings/BreedingOld.sol\":3509:3517  continue */\n      pop\n      pop\n        /* \"contracts/breedings/BreedingOld.sol\":2799:3528  for (i = 0; i < _traits1.length; i++) {... */\n    tag_61:\n        /* \"contracts/breedings/BreedingOld.sol\":2832:2835  i++ */\n      dup1\n      dup1\n      tag_85\n      swap1\n      tag_34\n      jump\t// in\n    tag_85:\n      swap2\n      pop\n      pop\n        /* \"contracts/breedings/BreedingOld.sol\":2799:3528  for (i = 0; i < _traits1.length; i++) {... */\n      jump(tag_59)\n    tag_60:\n        /* \"contracts/breedings/BreedingOld.sol\":3538:3548  GlobalSeed */\n      0x00\n      dup1\n        /* \"contracts/breedings/BreedingOld.sol\":3538:3550  GlobalSeed++ */\n      dup2\n      sload\n      dup1\n      swap3\n      swap2\n      swap1\n      tag_86\n      swap1\n      tag_34\n      jump\t// in\n    tag_86:\n      swap2\n      swap1\n      pop\n      sstore\n      pop\n        /* \"contracts/breedings/BreedingOld.sol\":3567:3585  encode(_newTraits) */\n      tag_87\n        /* \"contracts/breedings/BreedingOld.sol\":3574:3584  _newTraits */\n      dup6\n        /* \"contracts/breedings/BreedingOld.sol\":3567:3573  encode */\n      tag_9\n        /* \"contracts/breedings/BreedingOld.sol\":3567:3585  encode(_newTraits) */\n      jump\t// in\n    tag_87:\n        /* \"contracts/breedings/BreedingOld.sol\":3560:3585  return encode(_newTraits) */\n      swap8\n      pop\n      pop\n      pop\n      pop\n      pop\n      pop\n      pop\n      pop\n        /* \"contracts/breedings/BreedingOld.sol\":2059:3592  function breading(... */\n      swap3\n      swap2\n      pop\n      pop\n      jump\t// out\n        /* \"contracts/breedings/BreedingOld.sol\":1284:1464  function get8Bits(uint256 _input, uint256 _slot)... */\n    tag_44:\n        /* \"contracts/breedings/BreedingOld.sol\":1380:1385  uint8 */\n      0x00\n        /* \"contracts/breedings/BreedingOld.sol\":1414:1456  sliceNumber(_input, uint256(8), _slot * 8) */\n      tag_89\n        /* \"contracts/breedings/BreedingOld.sol\":1426:1432  _input */\n      dup4\n        /* \"contracts/breedings/BreedingOld.sol\":1442:1443  8 */\n      0x08\n        /* \"contracts/breedings/BreedingOld.sol\":1454:1455  8 */\n      dup1\n        /* \"contracts/breedings/BreedingOld.sol\":1446:1451  _slot */\n      dup6\n        /* \"contracts/breedings/BreedingOld.sol\":1446:1455  _slot * 8 */\n      tag_90\n      swap2\n      swap1\n      tag_91\n      jump\t// in\n    tag_90:\n        /* \"contracts/breedings/BreedingOld.sol\":1414:1425  sliceNumber */\n      tag_92\n        /* \"contracts/breedings/BreedingOld.sol\":1414:1456  sliceNumber(_input, uint256(8), _slot * 8) */\n      jump\t// in\n    tag_89:\n        /* \"contracts/breedings/BreedingOld.sol\":1401:1457  return uint8(sliceNumber(_input, uint256(8), _slot * 8)) */\n      swap1\n      pop\n        /* \"contracts/breedings/BreedingOld.sol\":1284:1464  function get8Bits(uint256 _input, uint256 _slot)... */\n      swap3\n      swap2\n      pop\n      pop\n      jump\t// out\n        /* \"contracts/breedings/BreedingOld.sol\":3598:4358  function getRandomId(... */\n    tag_68:\n        /* \"contracts/breedings/BreedingOld.sol\":3746:3751  uint8 */\n      0x00\n        /* \"contracts/breedings/BreedingOld.sol\":3763:3778  uint256 current */\n      dup1\n        /* \"contracts/breedings/BreedingOld.sol\":3781:3782  0 */\n      0x00\n        /* \"contracts/breedings/BreedingOld.sol\":3763:3782  uint256 current = 0 */\n      swap1\n      pop\n        /* \"contracts/breedings/BreedingOld.sol\":3792:3811  uint256 resultIndex */\n      0x00\n        /* \"contracts/breedings/BreedingOld.sol\":3825:3845  uint256 randomWeight */\n      dup1\n        /* \"contracts/breedings/BreedingOld.sol\":3848:3955  random(... */\n      tag_94\n        /* \"contracts/breedings/BreedingOld.sol\":3868:3878  randomSeed */\n      dup9\n        /* \"contracts/breedings/BreedingOld.sol\":3892:3903  randomIndex */\n      dup9\n        /* \"contracts/breedings/BreedingOld.sol\":3917:3918  0 */\n      0x00\n        /* \"contracts/breedings/BreedingOld.sol\":3932:3945  totalWeight() */\n      tag_95\n        /* \"contracts/breedings/BreedingOld.sol\":3932:3943  totalWeight */\n      tag_96\n        /* \"contracts/breedings/BreedingOld.sol\":3932:3945  totalWeight() */\n      jump\t// in\n    tag_95:\n        /* \"contracts/breedings/BreedingOld.sol\":3848:3854  random */\n      tag_97\n        /* \"contracts/breedings/BreedingOld.sol\":3848:3955  random(... */\n      jump\t// in\n    tag_94:\n        /* \"contracts/breedings/BreedingOld.sol\":3825:3955  uint256 randomWeight = random(... */\n      swap1\n      pop\n        /* \"contracts/breedings/BreedingOld.sol\":4003:4012  uint256 i */\n      0x00\n        /* \"contracts/breedings/BreedingOld.sol\":3998:4188  for (uint256 i = 0; i < 3; i++) {... */\n    tag_98:\n        /* \"contracts/breedings/BreedingOld.sol\":4022:4023  3 */\n      0x03\n        /* \"contracts/breedings/BreedingOld.sol\":4018:4019  i */\n      dup2\n        /* \"contracts/breedings/BreedingOld.sol\":4018:4023  i < 3 */\n      lt\n        /* \"contracts/breedings/BreedingOld.sol\":3998:4188  for (uint256 i = 0; i < 3; i++) {... */\n      iszero\n      tag_99\n      jumpi\n        /* \"contracts/breedings/BreedingOld.sol\":4055:4064  weight(i) */\n      tag_101\n        /* \"contracts/breedings/BreedingOld.sol\":4062:4063  i */\n      dup2\n        /* \"contracts/breedings/BreedingOld.sol\":4055:4061  weight */\n      tag_102\n        /* \"contracts/breedings/BreedingOld.sol\":4055:4064  weight(i) */\n      jump\t// in\n    tag_101:\n        /* \"contracts/breedings/BreedingOld.sol\":4044:4064  current += weight(i) */\n      dup5\n      tag_103\n      swap2\n      swap1\n      tag_74\n      jump\t// in\n    tag_103:\n      swap4\n      pop\n        /* \"contracts/breedings/BreedingOld.sol\":4093:4105  randomWeight */\n      dup2\n        /* \"contracts/breedings/BreedingOld.sol\":4082:4089  current */\n      dup5\n        /* \"contracts/breedings/BreedingOld.sol\":4082:4105  current >= randomWeight */\n      lt\n        /* \"contracts/breedings/BreedingOld.sol\":4078:4178  if (current >= randomWeight) {... */\n      tag_104\n      jumpi\n        /* \"contracts/breedings/BreedingOld.sol\":4139:4140  i */\n      dup1\n        /* \"contracts/breedings/BreedingOld.sol\":4125:4140  resultIndex = i */\n      swap3\n      pop\n        /* \"contracts/breedings/BreedingOld.sol\":4158:4163  break */\n      jump(tag_99)\n        /* \"contracts/breedings/BreedingOld.sol\":4078:4178  if (current >= randomWeight) {... */\n    tag_104:\n        /* \"contracts/breedings/BreedingOld.sol\":4025:4028  i++ */\n      dup1\n      dup1\n      tag_105\n      swap1\n      tag_34\n      jump\t// in\n    tag_105:\n      swap2\n      pop\n      pop\n        /* \"contracts/breedings/BreedingOld.sol\":3998:4188  for (uint256 i = 0; i < 3; i++) {... */\n      jump(tag_98)\n    tag_99:\n      pop\n        /* \"contracts/breedings/BreedingOld.sol\":4217:4218  0 */\n      0x00\n        /* \"contracts/breedings/BreedingOld.sol\":4202:4213  resultIndex */\n      dup3\n        /* \"contracts/breedings/BreedingOld.sol\":4202:4218  resultIndex == 0 */\n      sub\n        /* \"contracts/breedings/BreedingOld.sol\":4198:4231  if (resultIndex == 0) return left */\n      tag_106\n      jumpi\n        /* \"contracts/breedings/BreedingOld.sol\":4227:4231  left */\n      dup6\n        /* \"contracts/breedings/BreedingOld.sol\":4220:4231  return left */\n      swap4\n      pop\n      pop\n      pop\n      pop\n      jump(tag_93)\n        /* \"contracts/breedings/BreedingOld.sol\":4198:4231  if (resultIndex == 0) return left */\n    tag_106:\n        /* \"contracts/breedings/BreedingOld.sol\":4260:4261  1 */\n      0x01\n        /* \"contracts/breedings/BreedingOld.sol\":4245:4256  resultIndex */\n      dup3\n        /* \"contracts/breedings/BreedingOld.sol\":4245:4261  resultIndex == 1 */\n      sub\n        /* \"contracts/breedings/BreedingOld.sol\":4241:4275  if (resultIndex == 1) return right */\n      tag_107\n      jumpi\n        /* \"contracts/breedings/BreedingOld.sol\":4270:4275  right */\n      dup5\n        /* \"contracts/breedings/BreedingOld.sol\":4263:4275  return right */\n      swap4\n      pop\n      pop\n      pop\n      pop\n      jump(tag_93)\n        /* \"contracts/breedings/BreedingOld.sol\":4241:4275  if (resultIndex == 1) return right */\n    tag_107:\n        /* \"contracts/breedings/BreedingOld.sol\":4299:4342  random(randomSeed, ++randomIndex, 1, maxId) */\n      tag_108\n        /* \"contracts/breedings/BreedingOld.sol\":4306:4316  randomSeed */\n      dup9\n        /* \"contracts/breedings/BreedingOld.sol\":4318:4331  ++randomIndex */\n      dup9\n      tag_109\n      swap1\n      tag_34\n      jump\t// in\n    tag_109:\n      swap9\n      pop\n      dup9\n        /* \"contracts/breedings/BreedingOld.sol\":4333:4334  1 */\n      0x01\n        /* \"contracts/breedings/BreedingOld.sol\":4336:4341  maxId */\n      0x04\n      0x01\n      swap1\n      sload\n      swap1\n      0x0100\n      exp\n      swap1\n      div\n      0xff\n      and\n        /* \"contracts/breedings/BreedingOld.sol\":4299:4342  random(randomSeed, ++randomIndex, 1, maxId) */\n      0xff\n      and\n        /* \"contracts/breedings/BreedingOld.sol\":4299:4305  random */\n      tag_97\n        /* \"contracts/breedings/BreedingOld.sol\":4299:4342  random(randomSeed, ++randomIndex, 1, maxId) */\n      jump\t// in\n    tag_108:\n        /* \"contracts/breedings/BreedingOld.sol\":4286:4343  return uint8(random(randomSeed, ++randomIndex, 1, maxId)) */\n      swap4\n      pop\n      pop\n      pop\n      pop\n        /* \"contracts/breedings/BreedingOld.sol\":3598:4358  function getRandomId(... */\n    tag_93:\n      swap5\n      swap4\n      pop\n      pop\n      pop\n      pop\n      jump\t// out\n        /* \"contracts/breedings/BreedingOld.sol\":4364:4751  function getRarity(... */\n    tag_81:\n        /* \"contracts/breedings/BreedingOld.sol\":4497:4502  uint8 */\n      0x00\n        /* \"contracts/breedings/BreedingOld.sol\":4532:4533  0 */\n      dup1\n        /* \"contracts/breedings/BreedingOld.sol\":4518:4528  generation */\n      dup3\n        /* \"contracts/breedings/BreedingOld.sol\":4518:4533  generation == 0 */\n      sub\n        /* \"contracts/breedings/BreedingOld.sol\":4514:4543  if (generation == 0) return 0 */\n      tag_111\n      jumpi\n        /* \"contracts/breedings/BreedingOld.sol\":4542:4543  0 */\n      0x00\n        /* \"contracts/breedings/BreedingOld.sol\":4535:4543  return 0 */\n      swap1\n      pop\n      jump(tag_110)\n        /* \"contracts/breedings/BreedingOld.sol\":4514:4543  if (generation == 0) return 0 */\n    tag_111:\n        /* \"contracts/breedings/BreedingOld.sol\":4553:4566  uint256 value */\n      0x00\n        /* \"contracts/breedings/BreedingOld.sol\":4582:4595  rarityPercent */\n      sload(0x03)\n        /* \"contracts/breedings/BreedingOld.sol\":4569:4579  generation */\n      dup4\n        /* \"contracts/breedings/BreedingOld.sol\":4569:4595  generation / rarityPercent */\n      tag_112\n      swap2\n      swap1\n      tag_113\n      jump\t// in\n    tag_112:\n        /* \"contracts/breedings/BreedingOld.sol\":4553:4595  uint256 value = generation / rarityPercent */\n      swap1\n      pop\n        /* \"contracts/breedings/BreedingOld.sol\":4686:4691  value */\n      dup1\n        /* \"contracts/breedings/BreedingOld.sol\":4641:4682  random(randomSeed, randomIndex, 0, 10000) */\n      tag_114\n        /* \"contracts/breedings/BreedingOld.sol\":4648:4658  randomSeed */\n      dup7\n        /* \"contracts/breedings/BreedingOld.sol\":4660:4671  randomIndex */\n      dup7\n        /* \"contracts/breedings/BreedingOld.sol\":4673:4674  0 */\n      0x00\n        /* \"contracts/breedings/BreedingOld.sol\":4676:4681  10000 */\n      0x2710\n        /* \"contracts/breedings/BreedingOld.sol\":4641:4647  random */\n      tag_97\n        /* \"contracts/breedings/BreedingOld.sol\":4641:4682  random(randomSeed, randomIndex, 0, 10000) */\n      jump\t// in\n    tag_114:\n        /* \"contracts/breedings/BreedingOld.sol\":4641:4691  random(randomSeed, randomIndex, 0, 10000) <= value */\n      gt\n        /* \"contracts/breedings/BreedingOld.sol\":4637:4726  if (random(randomSeed, randomIndex, 0, 10000) <= value) {... */\n      tag_115\n      jumpi\n        /* \"contracts/breedings/BreedingOld.sol\":4714:4715  1 */\n      0x01\n        /* \"contracts/breedings/BreedingOld.sol\":4707:4715  return 1 */\n      swap2\n      pop\n      pop\n      jump(tag_110)\n        /* \"contracts/breedings/BreedingOld.sol\":4637:4726  if (random(randomSeed, randomIndex, 0, 10000) <= value) {... */\n    tag_115:\n        /* \"contracts/breedings/BreedingOld.sol\":4743:4744  0 */\n      0x00\n        /* \"contracts/breedings/BreedingOld.sol\":4736:4744  return 0 */\n      swap2\n      pop\n      pop\n        /* \"contracts/breedings/BreedingOld.sol\":4364:4751  function getRarity(... */\n    tag_110:\n      swap4\n      swap3\n      pop\n      pop\n      pop\n      jump\t// out\n        /* \"contracts/breedings/BreedingOld.sol\":1685:2053  function sliceNumber(... */\n    tag_92:\n        /* \"contracts/breedings/BreedingOld.sol\":1803:1810  uint256 */\n      0x00\n        /* \"contracts/breedings/BreedingOld.sol\":1889:1901  uint256 mask */\n      dup1\n        /* \"contracts/breedings/BreedingOld.sol\":1932:1939  _offset */\n      dup3\n        /* \"contracts/breedings/BreedingOld.sol\":1926:1927  1 */\n      0x01\n        /* \"contracts/breedings/BreedingOld.sol\":1916:1922  _nbits */\n      dup6\n        /* \"contracts/breedings/BreedingOld.sol\":1913:1914  2 */\n      0x02\n        /* \"contracts/breedings/BreedingOld.sol\":1913:1922  2**_nbits */\n      tag_117\n      swap2\n      swap1\n      tag_118\n      jump\t// in\n    tag_117:\n        /* \"contracts/breedings/BreedingOld.sol\":1912:1927  (2**_nbits) - 1 */\n      tag_119\n      swap2\n      swap1\n      tag_28\n      jump\t// in\n    tag_119:\n        /* \"contracts/breedings/BreedingOld.sol\":1904:1939  uint256((2**_nbits) - 1) << _offset */\n      swap1\n      shl\n        /* \"contracts/breedings/BreedingOld.sol\":1889:1939  uint256 mask = uint256((2**_nbits) - 1) << _offset */\n      swap1\n      pop\n        /* \"contracts/breedings/BreedingOld.sol\":2038:2045  _offset */\n      dup3\n        /* \"contracts/breedings/BreedingOld.sol\":2029:2033  mask */\n      dup2\n        /* \"contracts/breedings/BreedingOld.sol\":2024:2026  _n */\n      dup7\n        /* \"contracts/breedings/BreedingOld.sol\":2024:2033  _n & mask */\n      and\n        /* \"contracts/breedings/BreedingOld.sol\":2023:2045  (_n & mask) >> _offset */\n      swap1\n      shr\n        /* \"contracts/breedings/BreedingOld.sol\":2008:2046  return uint256((_n & mask) >> _offset) */\n      swap2\n      pop\n      pop\n        /* \"contracts/breedings/BreedingOld.sol\":1685:2053  function sliceNumber(... */\n      swap4\n      swap3\n      pop\n      pop\n      pop\n      jump\t// out\n        /* \"contracts/breedings/BreedingOld.sol\":5103:5234  function totalWeight() internal view returns (uint256) {... */\n    tag_96:\n        /* \"contracts/breedings/BreedingOld.sol\":5149:5156  uint256 */\n      0x00\n        /* \"contracts/breedings/BreedingOld.sol\":5213:5227  randomIdWeight */\n      sload(0x02)\n        /* \"contracts/breedings/BreedingOld.sol\":5194:5210  randomSideWeight */\n      sload(0x01)\n        /* \"contracts/breedings/BreedingOld.sol\":5175:5191  randomSideWeight */\n      sload(0x01)\n        /* \"contracts/breedings/BreedingOld.sol\":5175:5210  randomSideWeight + randomSideWeight */\n      tag_121\n      swap2\n      swap1\n      tag_74\n      jump\t// in\n    tag_121:\n        /* \"contracts/breedings/BreedingOld.sol\":5175:5227  randomSideWeight + randomSideWeight + randomIdWeight */\n      tag_122\n      swap2\n      swap1\n      tag_74\n      jump\t// in\n    tag_122:\n        /* \"contracts/breedings/BreedingOld.sol\":5168:5227  return randomSideWeight + randomSideWeight + randomIdWeight */\n      swap1\n      pop\n        /* \"contracts/breedings/BreedingOld.sol\":5103:5234  function totalWeight() internal view returns (uint256) {... */\n      swap1\n      jump\t// out\n        /* \"contracts/breedings/BreedingOld.sol\":4757:5097  function random(... */\n    tag_97:\n        /* \"contracts/breedings/BreedingOld.sol\":4901:4914  uint256 value */\n      0x00\n        /* \"contracts/breedings/BreedingOld.sol\":5023:5032  minNumber */\n      dup3\n        /* \"contracts/breedings/BreedingOld.sol\":5011:5020  maxNumber */\n      dup3\n        /* \"contracts/breedings/BreedingOld.sol\":5011:5032  maxNumber - minNumber */\n      tag_124\n      swap2\n      swap1\n      tag_28\n      jump\t// in\n    tag_124:\n        /* \"contracts/breedings/BreedingOld.sol\":4981:4985  seed */\n      dup6\n        /* \"contracts/breedings/BreedingOld.sol\":4987:4992  index */\n      dup6\n        /* \"contracts/breedings/BreedingOld.sol\":4964:4993  abi.encodePacked(seed, index) */\n      add(0x20, mload(0x40))\n      tag_125\n      swap3\n      swap2\n      swap1\n      tag_126\n      jump\t// in\n    tag_125:\n      mload(0x40)\n      0x20\n      dup2\n      dup4\n      sub\n      sub\n      dup2\n      mstore\n      swap1\n      0x40\n      mstore\n        /* \"contracts/breedings/BreedingOld.sol\":4954:4994  keccak256(abi.encodePacked(seed, index)) */\n      dup1\n      mload\n      swap1\n      0x20\n      add\n      keccak256\n        /* \"contracts/breedings/BreedingOld.sol\":4946:4995  uint256(keccak256(abi.encodePacked(seed, index))) */\n      0x00\n      shr\n        /* \"contracts/breedings/BreedingOld.sol\":4946:5033  uint256(keccak256(abi.encodePacked(seed, index))) %... */\n      tag_127\n      swap2\n      swap1\n      tag_128\n      jump\t// in\n    tag_127:\n        /* \"contracts/breedings/BreedingOld.sol\":4926:5033  value =... */\n      swap1\n      pop\n        /* \"contracts/breedings/BreedingOld.sol\":5059:5068  minNumber */\n      dup3\n        /* \"contracts/breedings/BreedingOld.sol\":5051:5056  value */\n      dup2\n        /* \"contracts/breedings/BreedingOld.sol\":5051:5068  value + minNumber */\n      tag_129\n      swap2\n      swap1\n      tag_74\n      jump\t// in\n    tag_129:\n        /* \"contracts/breedings/BreedingOld.sol\":5043:5068  value = value + minNumber */\n      swap1\n      pop\n        /* \"contracts/breedings/BreedingOld.sol\":4757:5097  function random(... */\n      swap5\n      swap4\n      pop\n      pop\n      pop\n      pop\n      jump\t// out\n        /* \"contracts/breedings/BreedingOld.sol\":5240:5365  function weight(uint256 i) internal view returns (uint256) {... */\n    tag_102:\n        /* \"contracts/breedings/BreedingOld.sol\":5290:5297  uint256 */\n      0x00\n        /* \"contracts/breedings/BreedingOld.sol\":5321:5322  2 */\n      0x02\n        /* \"contracts/breedings/BreedingOld.sol\":5316:5317  i */\n      dup3\n        /* \"contracts/breedings/BreedingOld.sol\":5316:5322  i == 2 */\n      eq\n        /* \"contracts/breedings/BreedingOld.sol\":5316:5358  i == 2 ? randomIdWeight : randomSideWeight */\n      tag_131\n      jumpi\n        /* \"contracts/breedings/BreedingOld.sol\":5342:5358  randomSideWeight */\n      sload(0x01)\n        /* \"contracts/breedings/BreedingOld.sol\":5316:5358  i == 2 ? randomIdWeight : randomSideWeight */\n      jump(tag_132)\n    tag_131:\n        /* \"contracts/breedings/BreedingOld.sol\":5325:5339  randomIdWeight */\n      sload(0x02)\n        /* \"contracts/breedings/BreedingOld.sol\":5316:5358  i == 2 ? randomIdWeight : randomSideWeight */\n    tag_132:\n        /* \"contracts/breedings/BreedingOld.sol\":5309:5358  return i == 2 ? randomIdWeight : randomSideWeight */\n      swap1\n      pop\n        /* \"contracts/breedings/BreedingOld.sol\":5240:5365  function weight(uint256 i) internal view returns (uint256) {... */\n      swap2\n      swap1\n      pop\n      jump\t// out\n        /* \"#utility.yul\":7:82   */\n    tag_133:\n        /* \"#utility.yul\":40:46   */\n      0x00\n        /* \"#utility.yul\":73:75   */\n      0x40\n        /* \"#utility.yul\":67:76   */\n      mload\n        /* \"#utility.yul\":57:76   */\n      swap1\n      pop\n        /* \"#utility.yul\":7:82   */\n      swap1\n      jump\t// out\n        /* \"#utility.yul\":88:205   */\n    tag_134:\n        /* \"#utility.yul\":197:198   */\n      0x00\n        /* \"#utility.yul\":194:195   */\n      dup1\n        /* \"#utility.yul\":187:199   */\n      revert\n        /* \"#utility.yul\":211:328   */\n    tag_135:\n        /* \"#utility.yul\":320:321   */\n      0x00\n        /* \"#utility.yul\":317:318   */\n      dup1\n        /* \"#utility.yul\":310:322   */\n      revert\n        /* \"#utility.yul\":334:451   */\n    tag_136:\n        /* \"#utility.yul\":443:444   */\n      0x00\n        /* \"#utility.yul\":440:441   */\n      dup1\n        /* \"#utility.yul\":433:445   */\n      revert\n        /* \"#utility.yul\":457:559   */\n    tag_137:\n        /* \"#utility.yul\":498:504   */\n      0x00\n        /* \"#utility.yul\":549:551   */\n      0x1f\n        /* \"#utility.yul\":545:552   */\n      not\n        /* \"#utility.yul\":540:542   */\n      0x1f\n        /* \"#utility.yul\":533:538   */\n      dup4\n        /* \"#utility.yul\":529:543   */\n      add\n        /* \"#utility.yul\":525:553   */\n      and\n        /* \"#utility.yul\":515:553   */\n      swap1\n      pop\n        /* \"#utility.yul\":457:559   */\n      swap2\n      swap1\n      pop\n      jump\t// out\n        /* \"#utility.yul\":565:745   */\n    tag_38:\n        /* \"#utility.yul\":613:690   */\n      0x4e487b7100000000000000000000000000000000000000000000000000000000\n        /* \"#utility.yul\":610:611   */\n      0x00\n        /* \"#utility.yul\":603:691   */\n      mstore\n        /* \"#utility.yul\":710:714   */\n      0x41\n        /* \"#utility.yul\":707:708   */\n      0x04\n        /* \"#utility.yul\":700:715   */\n      mstore\n        /* \"#utility.yul\":734:738   */\n      0x24\n        /* \"#utility.yul\":731:732   */\n      0x00\n        /* \"#utility.yul\":724:739   */\n      revert\n        /* \"#utility.yul\":751:1032   */\n    tag_138:\n        /* \"#utility.yul\":834:861   */\n      tag_176\n        /* \"#utility.yul\":856:860   */\n      dup3\n        /* \"#utility.yul\":834:861   */\n      tag_137\n      jump\t// in\n    tag_176:\n        /* \"#utility.yul\":826:832   */\n      dup2\n        /* \"#utility.yul\":822:862   */\n      add\n        /* \"#utility.yul\":964:970   */\n      dup2\n        /* \"#utility.yul\":952:962   */\n      dup2\n        /* \"#utility.yul\":949:971   */\n      lt\n        /* \"#utility.yul\":928:946   */\n      0xffffffffffffffff\n        /* \"#utility.yul\":916:926   */\n      dup3\n        /* \"#utility.yul\":913:947   */\n      gt\n        /* \"#utility.yul\":910:972   */\n      or\n        /* \"#utility.yul\":907:995   */\n      iszero\n      tag_177\n      jumpi\n        /* \"#utility.yul\":975:993   */\n      tag_178\n      tag_38\n      jump\t// in\n    tag_178:\n        /* \"#utility.yul\":907:995   */\n    tag_177:\n        /* \"#utility.yul\":1015:1025   */\n      dup1\n        /* \"#utility.yul\":1011:1013   */\n      0x40\n        /* \"#utility.yul\":1004:1026   */\n      mstore\n        /* \"#utility.yul\":794:1032   */\n      pop\n        /* \"#utility.yul\":751:1032   */\n      pop\n      pop\n      jump\t// out\n        /* \"#utility.yul\":1038:1167   */\n    tag_139:\n        /* \"#utility.yul\":1072:1078   */\n      0x00\n        /* \"#utility.yul\":1099:1119   */\n      tag_180\n      tag_133\n      jump\t// in\n    tag_180:\n        /* \"#utility.yul\":1089:1119   */\n      swap1\n      pop\n        /* \"#utility.yul\":1128:1161   */\n      tag_181\n        /* \"#utility.yul\":1156:1160   */\n      dup3\n        /* \"#utility.yul\":1148:1154   */\n      dup3\n        /* \"#utility.yul\":1128:1161   */\n      tag_138\n      jump\t// in\n    tag_181:\n        /* \"#utility.yul\":1038:1167   */\n      swap2\n      swap1\n      pop\n      jump\t// out\n        /* \"#utility.yul\":1173:1482   */\n    tag_140:\n        /* \"#utility.yul\":1248:1252   */\n      0x00\n        /* \"#utility.yul\":1338:1356   */\n      0xffffffffffffffff\n        /* \"#utility.yul\":1330:1336   */\n      dup3\n        /* \"#utility.yul\":1327:1357   */\n      gt\n        /* \"#utility.yul\":1324:1380   */\n      iszero\n      tag_183\n      jumpi\n        /* \"#utility.yul\":1360:1378   */\n      tag_184\n      tag_38\n      jump\t// in\n    tag_184:\n        /* \"#utility.yul\":1324:1380   */\n    tag_183:\n        /* \"#utility.yul\":1410:1414   */\n      0x20\n        /* \"#utility.yul\":1402:1408   */\n      dup3\n        /* \"#utility.yul\":1398:1415   */\n      mul\n        /* \"#utility.yul\":1390:1415   */\n      swap1\n      pop\n        /* \"#utility.yul\":1470:1474   */\n      0x20\n        /* \"#utility.yul\":1464:1468   */\n      dup2\n        /* \"#utility.yul\":1460:1475   */\n      add\n        /* \"#utility.yul\":1452:1475   */\n      swap1\n      pop\n        /* \"#utility.yul\":1173:1482   */\n      swap2\n      swap1\n      pop\n      jump\t// out\n        /* \"#utility.yul\":1488:1605   */\n    tag_141:\n        /* \"#utility.yul\":1597:1598   */\n      0x00\n        /* \"#utility.yul\":1594:1595   */\n      dup1\n        /* \"#utility.yul\":1587:1599   */\n      revert\n        /* \"#utility.yul\":1611:1697   */\n    tag_142:\n        /* \"#utility.yul\":1646:1653   */\n      0x00\n        /* \"#utility.yul\":1686:1690   */\n      0xff\n        /* \"#utility.yul\":1679:1684   */\n      dup3\n        /* \"#utility.yul\":1675:1691   */\n      and\n        /* \"#utility.yul\":1664:1691   */\n      swap1\n      pop\n        /* \"#utility.yul\":1611:1697   */\n      swap2\n      swap1\n      pop\n      jump\t// out\n        /* \"#utility.yul\":1703:1821   */\n    tag_143:\n        /* \"#utility.yul\":1774:1796   */\n      tag_188\n        /* \"#utility.yul\":1790:1795   */\n      dup2\n        /* \"#utility.yul\":1774:1796   */\n      tag_142\n      jump\t// in\n    tag_188:\n        /* \"#utility.yul\":1767:1772   */\n      dup2\n        /* \"#utility.yul\":1764:1797   */\n      eq\n        /* \"#utility.yul\":1754:1815   */\n      tag_189\n      jumpi\n        /* \"#utility.yul\":1811:1812   */\n      0x00\n        /* \"#utility.yul\":1808:1809   */\n      dup1\n        /* \"#utility.yul\":1801:1813   */\n      revert\n        /* \"#utility.yul\":1754:1815   */\n    tag_189:\n        /* \"#utility.yul\":1703:1821   */\n      pop\n      jump\t// out\n        /* \"#utility.yul\":1827:1962   */\n    tag_144:\n        /* \"#utility.yul\":1871:1876   */\n      0x00\n        /* \"#utility.yul\":1909:1915   */\n      dup2\n        /* \"#utility.yul\":1896:1916   */\n      calldataload\n        /* \"#utility.yul\":1887:1916   */\n      swap1\n      pop\n        /* \"#utility.yul\":1925:1956   */\n      tag_191\n        /* \"#utility.yul\":1950:1955   */\n      dup2\n        /* \"#utility.yul\":1925:1956   */\n      tag_143\n      jump\t// in\n    tag_191:\n        /* \"#utility.yul\":1827:1962   */\n      swap3\n      swap2\n      pop\n      pop\n      jump\t// out\n        /* \"#utility.yul\":1983:2687   */\n    tag_145:\n        /* \"#utility.yul\":2077:2082   */\n      0x00\n        /* \"#utility.yul\":2102:2181   */\n      tag_193\n        /* \"#utility.yul\":2118:2180   */\n      tag_194\n        /* \"#utility.yul\":2173:2179   */\n      dup5\n        /* \"#utility.yul\":2118:2180   */\n      tag_140\n      jump\t// in\n    tag_194:\n        /* \"#utility.yul\":2102:2181   */\n      tag_139\n      jump\t// in\n    tag_193:\n        /* \"#utility.yul\":2093:2181   */\n      swap1\n      pop\n        /* \"#utility.yul\":2201:2206   */\n      dup1\n        /* \"#utility.yul\":2230:2236   */\n      dup4\n        /* \"#utility.yul\":2223:2228   */\n      dup3\n        /* \"#utility.yul\":2216:2237   */\n      mstore\n        /* \"#utility.yul\":2264:2268   */\n      0x20\n        /* \"#utility.yul\":2257:2262   */\n      dup3\n        /* \"#utility.yul\":2253:2269   */\n      add\n        /* \"#utility.yul\":2246:2269   */\n      swap1\n      pop\n        /* \"#utility.yul\":2317:2321   */\n      0x20\n        /* \"#utility.yul\":2309:2315   */\n      dup5\n        /* \"#utility.yul\":2305:2322   */\n      mul\n        /* \"#utility.yul\":2297:2303   */\n      dup4\n        /* \"#utility.yul\":2293:2323   */\n      add\n        /* \"#utility.yul\":2346:2349   */\n      dup6\n        /* \"#utility.yul\":2338:2344   */\n      dup2\n        /* \"#utility.yul\":2335:2350   */\n      gt\n        /* \"#utility.yul\":2332:2454   */\n      iszero\n      tag_195\n      jumpi\n        /* \"#utility.yul\":2365:2444   */\n      tag_196\n      tag_141\n      jump\t// in\n    tag_196:\n        /* \"#utility.yul\":2332:2454   */\n    tag_195:\n        /* \"#utility.yul\":2480:2486   */\n      dup4\n        /* \"#utility.yul\":2463:2681   */\n    tag_197:\n        /* \"#utility.yul\":2497:2503   */\n      dup2\n        /* \"#utility.yul\":2492:2495   */\n      dup2\n        /* \"#utility.yul\":2489:2504   */\n      lt\n        /* \"#utility.yul\":2463:2681   */\n      iszero\n      tag_199\n      jumpi\n        /* \"#utility.yul\":2572:2575   */\n      dup1\n        /* \"#utility.yul\":2601:2636   */\n      tag_200\n        /* \"#utility.yul\":2632:2635   */\n      dup9\n        /* \"#utility.yul\":2620:2630   */\n      dup3\n        /* \"#utility.yul\":2601:2636   */\n      tag_144\n      jump\t// in\n    tag_200:\n        /* \"#utility.yul\":2596:2599   */\n      dup5\n        /* \"#utility.yul\":2589:2637   */\n      mstore\n        /* \"#utility.yul\":2666:2670   */\n      0x20\n        /* \"#utility.yul\":2661:2664   */\n      dup5\n        /* \"#utility.yul\":2657:2671   */\n      add\n        /* \"#utility.yul\":2650:2671   */\n      swap4\n      pop\n        /* \"#utility.yul\":2539:2681   */\n      pop\n        /* \"#utility.yul\":2523:2527   */\n      0x20\n        /* \"#utility.yul\":2518:2521   */\n      dup2\n        /* \"#utility.yul\":2514:2528   */\n      add\n        /* \"#utility.yul\":2507:2528   */\n      swap1\n      pop\n        /* \"#utility.yul\":2463:2681   */\n      jump(tag_197)\n    tag_199:\n        /* \"#utility.yul\":2467:2488   */\n      pop\n        /* \"#utility.yul\":2083:2687   */\n      pop\n      pop\n        /* \"#utility.yul\":1983:2687   */\n      swap4\n      swap3\n      pop\n      pop\n      pop\n      jump\t// out\n        /* \"#utility.yul\":2708:3074   */\n    tag_146:\n        /* \"#utility.yul\":2777:2782   */\n      0x00\n        /* \"#utility.yul\":2826:2829   */\n      dup3\n        /* \"#utility.yul\":2819:2823   */\n      0x1f\n        /* \"#utility.yul\":2811:2817   */\n      dup4\n        /* \"#utility.yul\":2807:2824   */\n      add\n        /* \"#utility.yul\":2803:2830   */\n      slt\n        /* \"#utility.yul\":2793:2915   */\n      tag_202\n      jumpi\n        /* \"#utility.yul\":2834:2913   */\n      tag_203\n      tag_136\n      jump\t// in\n    tag_203:\n        /* \"#utility.yul\":2793:2915   */\n    tag_202:\n        /* \"#utility.yul\":2951:2957   */\n      dup2\n        /* \"#utility.yul\":2938:2958   */\n      calldataload\n        /* \"#utility.yul\":2976:3068   */\n      tag_204\n        /* \"#utility.yul\":3064:3067   */\n      dup5\n        /* \"#utility.yul\":3056:3062   */\n      dup3\n        /* \"#utility.yul\":3049:3053   */\n      0x20\n        /* \"#utility.yul\":3041:3047   */\n      dup7\n        /* \"#utility.yul\":3037:3054   */\n      add\n        /* \"#utility.yul\":2976:3068   */\n      tag_145\n      jump\t// in\n    tag_204:\n        /* \"#utility.yul\":2967:3068   */\n      swap2\n      pop\n        /* \"#utility.yul\":2783:3074   */\n      pop\n        /* \"#utility.yul\":2708:3074   */\n      swap3\n      swap2\n      pop\n      pop\n      jump\t// out\n        /* \"#utility.yul\":3080:3615   */\n    tag_8:\n        /* \"#utility.yul\":3162:3168   */\n      0x00\n        /* \"#utility.yul\":3211:3213   */\n      0x20\n        /* \"#utility.yul\":3199:3208   */\n      dup3\n        /* \"#utility.yul\":3190:3197   */\n      dup5\n        /* \"#utility.yul\":3186:3209   */\n      sub\n        /* \"#utility.yul\":3182:3214   */\n      slt\n        /* \"#utility.yul\":3179:3298   */\n      iszero\n      tag_206\n      jumpi\n        /* \"#utility.yul\":3217:3296   */\n      tag_207\n      tag_134\n      jump\t// in\n    tag_207:\n        /* \"#utility.yul\":3179:3298   */\n    tag_206:\n        /* \"#utility.yul\":3365:3366   */\n      0x00\n        /* \"#utility.yul\":3354:3363   */\n      dup3\n        /* \"#utility.yul\":3350:3367   */\n      add\n        /* \"#utility.yul\":3337:3368   */\n      calldataload\n        /* \"#utility.yul\":3395:3413   */\n      0xffffffffffffffff\n        /* \"#utility.yul\":3387:3393   */\n      dup2\n        /* \"#utility.yul\":3384:3414   */\n      gt\n        /* \"#utility.yul\":3381:3498   */\n      iszero\n      tag_208\n      jumpi\n        /* \"#utility.yul\":3417:3496   */\n      tag_209\n      tag_135\n      jump\t// in\n    tag_209:\n        /* \"#utility.yul\":3381:3498   */\n    tag_208:\n        /* \"#utility.yul\":3522:3598   */\n      tag_210\n        /* \"#utility.yul\":3590:3597   */\n      dup5\n        /* \"#utility.yul\":3581:3587   */\n      dup3\n        /* \"#utility.yul\":3570:3579   */\n      dup6\n        /* \"#utility.yul\":3566:3588   */\n      add\n        /* \"#utility.yul\":3522:3598   */\n      tag_146\n      jump\t// in\n    tag_210:\n        /* \"#utility.yul\":3512:3598   */\n      swap2\n      pop\n        /* \"#utility.yul\":3308:3608   */\n      pop\n        /* \"#utility.yul\":3080:3615   */\n      swap3\n      swap2\n      pop\n      pop\n      jump\t// out\n        /* \"#utility.yul\":3621:3698   */\n    tag_147:\n        /* \"#utility.yul\":3658:3665   */\n      0x00\n        /* \"#utility.yul\":3687:3692   */\n      dup2\n        /* \"#utility.yul\":3676:3692   */\n      swap1\n      pop\n        /* \"#utility.yul\":3621:3698   */\n      swap2\n      swap1\n      pop\n      jump\t// out\n        /* \"#utility.yul\":3704:3822   */\n    tag_148:\n        /* \"#utility.yul\":3791:3815   */\n      tag_213\n        /* \"#utility.yul\":3809:3814   */\n      dup2\n        /* \"#utility.yul\":3791:3815   */\n      tag_147\n      jump\t// in\n    tag_213:\n        /* \"#utility.yul\":3786:3789   */\n      dup3\n        /* \"#utility.yul\":3779:3816   */\n      mstore\n        /* \"#utility.yul\":3704:3822   */\n      pop\n      pop\n      jump\t// out\n        /* \"#utility.yul\":3828:4050   */\n    tag_11:\n        /* \"#utility.yul\":3921:3925   */\n      0x00\n        /* \"#utility.yul\":3959:3961   */\n      0x20\n        /* \"#utility.yul\":3948:3957   */\n      dup3\n        /* \"#utility.yul\":3944:3962   */\n      add\n        /* \"#utility.yul\":3936:3962   */\n      swap1\n      pop\n        /* \"#utility.yul\":3972:4043   */\n      tag_215\n        /* \"#utility.yul\":4040:4041   */\n      0x00\n        /* \"#utility.yul\":4029:4038   */\n      dup4\n        /* \"#utility.yul\":4025:4042   */\n      add\n        /* \"#utility.yul\":4016:4022   */\n      dup5\n        /* \"#utility.yul\":3972:4043   */\n      tag_148\n      jump\t// in\n    tag_215:\n        /* \"#utility.yul\":3828:4050   */\n      swap3\n      swap2\n      pop\n      pop\n      jump\t// out\n        /* \"#utility.yul\":4056:4178   */\n    tag_149:\n        /* \"#utility.yul\":4129:4153   */\n      tag_217\n        /* \"#utility.yul\":4147:4152   */\n      dup2\n        /* \"#utility.yul\":4129:4153   */\n      tag_147\n      jump\t// in\n    tag_217:\n        /* \"#utility.yul\":4122:4127   */\n      dup2\n        /* \"#utility.yul\":4119:4154   */\n      eq\n        /* \"#utility.yul\":4109:4172   */\n      tag_218\n      jumpi\n        /* \"#utility.yul\":4168:4169   */\n      0x00\n        /* \"#utility.yul\":4165:4166   */\n      dup1\n        /* \"#utility.yul\":4158:4170   */\n      revert\n        /* \"#utility.yul\":4109:4172   */\n    tag_218:\n        /* \"#utility.yul\":4056:4178   */\n      pop\n      jump\t// out\n        /* \"#utility.yul\":4184:4323   */\n    tag_150:\n        /* \"#utility.yul\":4230:4235   */\n      0x00\n        /* \"#utility.yul\":4268:4274   */\n      dup2\n        /* \"#utility.yul\":4255:4275   */\n      calldataload\n        /* \"#utility.yul\":4246:4275   */\n      swap1\n      pop\n        /* \"#utility.yul\":4284:4317   */\n      tag_220\n        /* \"#utility.yul\":4311:4316   */\n      dup2\n        /* \"#utility.yul\":4284:4317   */\n      tag_149\n      jump\t// in\n    tag_220:\n        /* \"#utility.yul\":4184:4323   */\n      swap3\n      swap2\n      pop\n      pop\n      jump\t// out\n        /* \"#utility.yul\":4329:4658   */\n    tag_14:\n        /* \"#utility.yul\":4388:4394   */\n      0x00\n        /* \"#utility.yul\":4437:4439   */\n      0x20\n        /* \"#utility.yul\":4425:4434   */\n      dup3\n        /* \"#utility.yul\":4416:4423   */\n      dup5\n        /* \"#utility.yul\":4412:4435   */\n      sub\n        /* \"#utility.yul\":4408:4440   */\n      slt\n        /* \"#utility.yul\":4405:4524   */\n      iszero\n      tag_222\n      jumpi\n        /* \"#utility.yul\":4443:4522   */\n      tag_223\n      tag_134\n      jump\t// in\n    tag_223:\n        /* \"#utility.yul\":4405:4524   */\n    tag_222:\n        /* \"#utility.yul\":4563:4564   */\n      0x00\n        /* \"#utility.yul\":4588:4641   */\n      tag_224\n        /* \"#utility.yul\":4633:4640   */\n      dup5\n        /* \"#utility.yul\":4624:4630   */\n      dup3\n        /* \"#utility.yul\":4613:4622   */\n      dup6\n        /* \"#utility.yul\":4609:4631   */\n      add\n        /* \"#utility.yul\":4588:4641   */\n      tag_150\n      jump\t// in\n    tag_224:\n        /* \"#utility.yul\":4578:4641   */\n      swap2\n      pop\n        /* \"#utility.yul\":4534:4651   */\n      pop\n        /* \"#utility.yul\":4329:4658   */\n      swap3\n      swap2\n      pop\n      pop\n      jump\t// out\n        /* \"#utility.yul\":4664:4776   */\n    tag_151:\n        /* \"#utility.yul\":4729:4735   */\n      0x00\n        /* \"#utility.yul\":4763:4768   */\n      dup2\n        /* \"#utility.yul\":4757:4769   */\n      mload\n        /* \"#utility.yul\":4747:4769   */\n      swap1\n      pop\n        /* \"#utility.yul\":4664:4776   */\n      swap2\n      swap1\n      pop\n      jump\t// out\n        /* \"#utility.yul\":4782:4964   */\n    tag_152:\n        /* \"#utility.yul\":4879:4890   */\n      0x00\n        /* \"#utility.yul\":4913:4919   */\n      dup3\n        /* \"#utility.yul\":4908:4911   */\n      dup3\n        /* \"#utility.yul\":4901:4920   */\n      mstore\n        /* \"#utility.yul\":4953:4957   */\n      0x20\n        /* \"#utility.yul\":4948:4951   */\n      dup3\n        /* \"#utility.yul\":4944:4958   */\n      add\n        /* \"#utility.yul\":4929:4958   */\n      swap1\n      pop\n        /* \"#utility.yul\":4782:4964   */\n      swap3\n      swap2\n      pop\n      pop\n      jump\t// out\n        /* \"#utility.yul\":4970:5100   */\n    tag_153:\n        /* \"#utility.yul\":5035:5039   */\n      0x00\n        /* \"#utility.yul\":5058:5061   */\n      dup2\n        /* \"#utility.yul\":5050:5061   */\n      swap1\n      pop\n        /* \"#utility.yul\":5088:5092   */\n      0x20\n        /* \"#utility.yul\":5083:5086   */\n      dup3\n        /* \"#utility.yul\":5079:5093   */\n      add\n        /* \"#utility.yul\":5071:5093   */\n      swap1\n      pop\n        /* \"#utility.yul\":4970:5100   */\n      swap2\n      swap1\n      pop\n      jump\t// out\n        /* \"#utility.yul\":5106:5208   */\n    tag_154:\n        /* \"#utility.yul\":5179:5201   */\n      tag_229\n        /* \"#utility.yul\":5195:5200   */\n      dup2\n        /* \"#utility.yul\":5179:5201   */\n      tag_142\n      jump\t// in\n    tag_229:\n        /* \"#utility.yul\":5174:5177   */\n      dup3\n        /* \"#utility.yul\":5167:5202   */\n      mstore\n        /* \"#utility.yul\":5106:5208   */\n      pop\n      pop\n      jump\t// out\n        /* \"#utility.yul\":5214:5385   */\n    tag_155:\n        /* \"#utility.yul\":5279:5289   */\n      0x00\n        /* \"#utility.yul\":5300:5342   */\n      tag_231\n        /* \"#utility.yul\":5338:5341   */\n      dup4\n        /* \"#utility.yul\":5330:5336   */\n      dup4\n        /* \"#utility.yul\":5300:5342   */\n      tag_154\n      jump\t// in\n    tag_231:\n        /* \"#utility.yul\":5374:5378   */\n      0x20\n        /* \"#utility.yul\":5369:5372   */\n      dup4\n        /* \"#utility.yul\":5365:5379   */\n      add\n        /* \"#utility.yul\":5351:5379   */\n      swap1\n      pop\n        /* \"#utility.yul\":5214:5385   */\n      swap3\n      swap2\n      pop\n      pop\n      jump\t// out\n        /* \"#utility.yul\":5391:5502   */\n    tag_156:\n        /* \"#utility.yul\":5459:5463   */\n      0x00\n        /* \"#utility.yul\":5491:5495   */\n      0x20\n        /* \"#utility.yul\":5486:5489   */\n      dup3\n        /* \"#utility.yul\":5482:5496   */\n      add\n        /* \"#utility.yul\":5474:5496   */\n      swap1\n      pop\n        /* \"#utility.yul\":5391:5502   */\n      swap2\n      swap1\n      pop\n      jump\t// out\n        /* \"#utility.yul\":5534:6250   */\n    tag_157:\n        /* \"#utility.yul\":5649:5652   */\n      0x00\n        /* \"#utility.yul\":5678:5730   */\n      tag_234\n        /* \"#utility.yul\":5724:5729   */\n      dup3\n        /* \"#utility.yul\":5678:5730   */\n      tag_151\n      jump\t// in\n    tag_234:\n        /* \"#utility.yul\":5746:5830   */\n      tag_235\n        /* \"#utility.yul\":5823:5829   */\n      dup2\n        /* \"#utility.yul\":5818:5821   */\n      dup6\n        /* \"#utility.yul\":5746:5830   */\n      tag_152\n      jump\t// in\n    tag_235:\n        /* \"#utility.yul\":5739:5830   */\n      swap4\n      pop\n        /* \"#utility.yul\":5854:5908   */\n      tag_236\n        /* \"#utility.yul\":5902:5907   */\n      dup4\n        /* \"#utility.yul\":5854:5908   */\n      tag_153\n      jump\t// in\n    tag_236:\n        /* \"#utility.yul\":5931:5938   */\n      dup1\n        /* \"#utility.yul\":5962:5963   */\n      0x00\n        /* \"#utility.yul\":5947:6225   */\n    tag_237:\n        /* \"#utility.yul\":5972:5978   */\n      dup4\n        /* \"#utility.yul\":5969:5970   */\n      dup2\n        /* \"#utility.yul\":5966:5979   */\n      lt\n        /* \"#utility.yul\":5947:6225   */\n      iszero\n      tag_239\n      jumpi\n        /* \"#utility.yul\":6048:6054   */\n      dup2\n        /* \"#utility.yul\":6042:6055   */\n      mload\n        /* \"#utility.yul\":6075:6134   */\n      tag_240\n        /* \"#utility.yul\":6130:6133   */\n      dup9\n        /* \"#utility.yul\":6115:6128   */\n      dup3\n        /* \"#utility.yul\":6075:6134   */\n      tag_155\n      jump\t// in\n    tag_240:\n        /* \"#utility.yul\":6068:6134   */\n      swap8\n      pop\n        /* \"#utility.yul\":6157:6215   */\n      tag_241\n        /* \"#utility.yul\":6208:6214   */\n      dup4\n        /* \"#utility.yul\":6157:6215   */\n      tag_156\n      jump\t// in\n    tag_241:\n        /* \"#utility.yul\":6147:6215   */\n      swap3\n      pop\n        /* \"#utility.yul\":6007:6225   */\n      pop\n        /* \"#utility.yul\":5994:5995   */\n      0x01\n        /* \"#utility.yul\":5991:5992   */\n      dup2\n        /* \"#utility.yul\":5987:5996   */\n      add\n        /* \"#utility.yul\":5982:5996   */\n      swap1\n      pop\n        /* \"#utility.yul\":5947:6225   */\n      jump(tag_237)\n    tag_239:\n        /* \"#utility.yul\":5951:5965   */\n      pop\n        /* \"#utility.yul\":6241:6244   */\n      dup6\n        /* \"#utility.yul\":6234:6244   */\n      swap4\n      pop\n        /* \"#utility.yul\":5654:6250   */\n      pop\n      pop\n      pop\n        /* \"#utility.yul\":5534:6250   */\n      swap3\n      swap2\n      pop\n      pop\n      jump\t// out\n        /* \"#utility.yul\":6256:6621   */\n    tag_17:\n        /* \"#utility.yul\":6395:6399   */\n      0x00\n        /* \"#utility.yul\":6433:6435   */\n      0x20\n        /* \"#utility.yul\":6422:6431   */\n      dup3\n        /* \"#utility.yul\":6418:6436   */\n      add\n        /* \"#utility.yul\":6410:6436   */\n      swap1\n      pop\n        /* \"#utility.yul\":6482:6491   */\n      dup2\n        /* \"#utility.yul\":6476:6480   */\n      dup2\n        /* \"#utility.yul\":6472:6492   */\n      sub\n        /* \"#utility.yul\":6468:6469   */\n      0x00\n        /* \"#utility.yul\":6457:6466   */\n      dup4\n        /* \"#utility.yul\":6453:6470   */\n      add\n        /* \"#utility.yul\":6446:6493   */\n      mstore\n        /* \"#utility.yul\":6510:6614   */\n      tag_243\n        /* \"#utility.yul\":6609:6613   */\n      dup2\n        /* \"#utility.yul\":6600:6606   */\n      dup5\n        /* \"#utility.yul\":6510:6614   */\n      tag_157\n      jump\t// in\n    tag_243:\n        /* \"#utility.yul\":6502:6614   */\n      swap1\n      pop\n        /* \"#utility.yul\":6256:6621   */\n      swap3\n      swap2\n      pop\n      pop\n      jump\t// out\n        /* \"#utility.yul\":6627:7101   */\n    tag_20:\n        /* \"#utility.yul\":6695:6701   */\n      0x00\n        /* \"#utility.yul\":6703:6709   */\n      dup1\n        /* \"#utility.yul\":6752:6754   */\n      0x40\n        /* \"#utility.yul\":6740:6749   */\n      dup4\n        /* \"#utility.yul\":6731:6738   */\n      dup6\n        /* \"#utility.yul\":6727:6750   */\n      sub\n        /* \"#utility.yul\":6723:6755   */\n      slt\n        /* \"#utility.yul\":6720:6839   */\n      iszero\n      tag_245\n      jumpi\n        /* \"#utility.yul\":6758:6837   */\n      tag_246\n      tag_134\n      jump\t// in\n    tag_246:\n        /* \"#utility.yul\":6720:6839   */\n    tag_245:\n        /* \"#utility.yul\":6878:6879   */\n      0x00\n        /* \"#utility.yul\":6903:6956   */\n      tag_247\n        /* \"#utility.yul\":6948:6955   */\n      dup6\n        /* \"#utility.yul\":6939:6945   */\n      dup3\n        /* \"#utility.yul\":6928:6937   */\n      dup7\n        /* \"#utility.yul\":6924:6946   */\n      add\n        /* \"#utility.yul\":6903:6956   */\n      tag_150\n      jump\t// in\n    tag_247:\n        /* \"#utility.yul\":6893:6956   */\n      swap3\n      pop\n        /* \"#utility.yul\":6849:6966   */\n      pop\n        /* \"#utility.yul\":7005:7007   */\n      0x20\n        /* \"#utility.yul\":7031:7084   */\n      tag_248\n        /* \"#utility.yul\":7076:7083   */\n      dup6\n        /* \"#utility.yul\":7067:7073   */\n      dup3\n        /* \"#utility.yul\":7056:7065   */\n      dup7\n        /* \"#utility.yul\":7052:7074   */\n      add\n        /* \"#utility.yul\":7031:7084   */\n      tag_150\n      jump\t// in\n    tag_248:\n        /* \"#utility.yul\":7021:7084   */\n      swap2\n      pop\n        /* \"#utility.yul\":6976:7094   */\n      pop\n        /* \"#utility.yul\":6627:7101   */\n      swap3\n      pop\n      swap3\n      swap1\n      pop\n      jump\t// out\n        /* \"#utility.yul\":7107:7287   */\n    tag_158:\n        /* \"#utility.yul\":7155:7232   */\n      0x4e487b7100000000000000000000000000000000000000000000000000000000\n        /* \"#utility.yul\":7152:7153   */\n      0x00\n        /* \"#utility.yul\":7145:7233   */\n      mstore\n        /* \"#utility.yul\":7252:7256   */\n      0x11\n        /* \"#utility.yul\":7249:7250   */\n      0x04\n        /* \"#utility.yul\":7242:7257   */\n      mstore\n        /* \"#utility.yul\":7276:7280   */\n      0x24\n        /* \"#utility.yul\":7273:7274   */\n      0x00\n        /* \"#utility.yul\":7266:7281   */\n      revert\n        /* \"#utility.yul\":7293:7487   */\n    tag_28:\n        /* \"#utility.yul\":7333:7337   */\n      0x00\n        /* \"#utility.yul\":7353:7373   */\n      tag_251\n        /* \"#utility.yul\":7371:7372   */\n      dup3\n        /* \"#utility.yul\":7353:7373   */\n      tag_147\n      jump\t// in\n    tag_251:\n        /* \"#utility.yul\":7348:7373   */\n      swap2\n      pop\n        /* \"#utility.yul\":7387:7407   */\n      tag_252\n        /* \"#utility.yul\":7405:7406   */\n      dup4\n        /* \"#utility.yul\":7387:7407   */\n      tag_147\n      jump\t// in\n    tag_252:\n        /* \"#utility.yul\":7382:7407   */\n      swap3\n      pop\n        /* \"#utility.yul\":7431:7432   */\n      dup3\n        /* \"#utility.yul\":7428:7429   */\n      dup3\n        /* \"#utility.yul\":7424:7433   */\n      sub\n        /* \"#utility.yul\":7416:7433   */\n      swap1\n      pop\n        /* \"#utility.yul\":7455:7456   */\n      dup2\n        /* \"#utility.yul\":7449:7453   */\n      dup2\n        /* \"#utility.yul\":7446:7457   */\n      gt\n        /* \"#utility.yul\":7443:7480   */\n      iszero\n      tag_253\n      jumpi\n        /* \"#utility.yul\":7460:7478   */\n      tag_254\n      tag_158\n      jump\t// in\n    tag_254:\n        /* \"#utility.yul\":7443:7480   */\n    tag_253:\n        /* \"#utility.yul\":7293:7487   */\n      swap3\n      swap2\n      pop\n      pop\n      jump\t// out\n        /* \"#utility.yul\":7493:7673   */\n    tag_32:\n        /* \"#utility.yul\":7541:7618   */\n      0x4e487b7100000000000000000000000000000000000000000000000000000000\n        /* \"#utility.yul\":7538:7539   */\n      0x00\n        /* \"#utility.yul\":7531:7619   */\n      mstore\n        /* \"#utility.yul\":7638:7642   */\n      0x32\n        /* \"#utility.yul\":7635:7636   */\n      0x04\n        /* \"#utility.yul\":7628:7643   */\n      mstore\n        /* \"#utility.yul\":7662:7666   */\n      0x24\n        /* \"#utility.yul\":7659:7660   */\n      0x00\n        /* \"#utility.yul\":7652:7667   */\n      revert\n        /* \"#utility.yul\":7679:7912   */\n    tag_34:\n        /* \"#utility.yul\":7718:7721   */\n      0x00\n        /* \"#utility.yul\":7741:7765   */\n      tag_257\n        /* \"#utility.yul\":7759:7764   */\n      dup3\n        /* \"#utility.yul\":7741:7765   */\n      tag_147\n      jump\t// in\n    tag_257:\n        /* \"#utility.yul\":7732:7765   */\n      swap2\n      pop\n        /* \"#utility.yul\":7787:7853   */\n      0xffffffffffffffffffffffffffffffffffffffffffffffffffffffffffffffff\n        /* \"#utility.yul\":7780:7785   */\n      dup3\n        /* \"#utility.yul\":7777:7854   */\n      sub\n        /* \"#utility.yul\":7774:7877   */\n      tag_258\n      jumpi\n        /* \"#utility.yul\":7857:7875   */\n      tag_259\n      tag_158\n      jump\t// in\n    tag_259:\n        /* \"#utility.yul\":7774:7877   */\n    tag_258:\n        /* \"#utility.yul\":7904:7905   */\n      0x01\n        /* \"#utility.yul\":7897:7902   */\n      dup3\n        /* \"#utility.yul\":7893:7906   */\n      add\n        /* \"#utility.yul\":7886:7906   */\n      swap1\n      pop\n        /* \"#utility.yul\":7679:7912   */\n      swap2\n      swap1\n      pop\n      jump\t// out\n        /* \"#utility.yul\":7918:7997   */\n    tag_159:\n        /* \"#utility.yul\":7957:7964   */\n      0x00\n        /* \"#utility.yul\":7986:7991   */\n      dup2\n        /* \"#utility.yul\":7975:7991   */\n      swap1\n      pop\n        /* \"#utility.yul\":7918:7997   */\n      swap2\n      swap1\n      pop\n      jump\t// out\n        /* \"#utility.yul\":8003:8160   */\n    tag_160:\n        /* \"#utility.yul\":8108:8153   */\n      tag_262\n        /* \"#utility.yul\":8128:8152   */\n      tag_263\n        /* \"#utility.yul\":8146:8151   */\n      dup3\n        /* \"#utility.yul\":8128:8152   */\n      tag_147\n      jump\t// in\n    tag_263:\n        /* \"#utility.yul\":8108:8153   */\n      tag_159\n      jump\t// in\n    tag_262:\n        /* \"#utility.yul\":8103:8106   */\n      dup3\n        /* \"#utility.yul\":8096:8154   */\n      mstore\n        /* \"#utility.yul\":8003:8160   */\n      pop\n      pop\n      jump\t// out\n        /* \"#utility.yul\":8166:9127   */\n    tag_55:\n        /* \"#utility.yul\":8418:8421   */\n      0x00\n        /* \"#utility.yul\":8433:8508   */\n      tag_265\n        /* \"#utility.yul\":8504:8507   */\n      dup3\n        /* \"#utility.yul\":8495:8501   */\n      dup10\n        /* \"#utility.yul\":8433:8508   */\n      tag_160\n      jump\t// in\n    tag_265:\n        /* \"#utility.yul\":8533:8535   */\n      0x20\n        /* \"#utility.yul\":8528:8531   */\n      dup3\n        /* \"#utility.yul\":8524:8536   */\n      add\n        /* \"#utility.yul\":8517:8536   */\n      swap2\n      pop\n        /* \"#utility.yul\":8546:8621   */\n      tag_266\n        /* \"#utility.yul\":8617:8620   */\n      dup3\n        /* \"#utility.yul\":8608:8614   */\n      dup9\n        /* \"#utility.yul\":8546:8621   */\n      tag_160\n      jump\t// in\n    tag_266:\n        /* \"#utility.yul\":8646:8648   */\n      0x20\n        /* \"#utility.yul\":8641:8644   */\n      dup3\n        /* \"#utility.yul\":8637:8649   */\n      add\n        /* \"#utility.yul\":8630:8649   */\n      swap2\n      pop\n        /* \"#utility.yul\":8659:8734   */\n      tag_267\n        /* \"#utility.yul\":8730:8733   */\n      dup3\n        /* \"#utility.yul\":8721:8727   */\n      dup8\n        /* \"#utility.yul\":8659:8734   */\n      tag_160\n      jump\t// in\n    tag_267:\n        /* \"#utility.yul\":8759:8761   */\n      0x20\n        /* \"#utility.yul\":8754:8757   */\n      dup3\n        /* \"#utility.yul\":8750:8762   */\n      add\n        /* \"#utility.yul\":8743:8762   */\n      swap2\n      pop\n        /* \"#utility.yul\":8772:8847   */\n      tag_268\n        /* \"#utility.yul\":8843:8846   */\n      dup3\n        /* \"#utility.yul\":8834:8840   */\n      dup7\n        /* \"#utility.yul\":8772:8847   */\n      tag_160\n      jump\t// in\n    tag_268:\n        /* \"#utility.yul\":8872:8874   */\n      0x20\n        /* \"#utility.yul\":8867:8870   */\n      dup3\n        /* \"#utility.yul\":8863:8875   */\n      add\n        /* \"#utility.yul\":8856:8875   */\n      swap2\n      pop\n        /* \"#utility.yul\":8885:8960   */\n      tag_269\n        /* \"#utility.yul\":8956:8959   */\n      dup3\n        /* \"#utility.yul\":8947:8953   */\n      dup6\n        /* \"#utility.yul\":8885:8960   */\n      tag_160\n      jump\t// in\n    tag_269:\n        /* \"#utility.yul\":8985:8987   */\n      0x20\n        /* \"#utility.yul\":8980:8983   */\n      dup3\n        /* \"#utility.yul\":8976:8988   */\n      add\n        /* \"#utility.yul\":8969:8988   */\n      swap2\n      pop\n        /* \"#utility.yul\":8998:9073   */\n      tag_270\n        /* \"#utility.yul\":9069:9072   */\n      dup3\n        /* \"#utility.yul\":9060:9066   */\n      dup5\n        /* \"#utility.yul\":8998:9073   */\n      tag_160\n      jump\t// in\n    tag_270:\n        /* \"#utility.yul\":9098:9100   */\n      0x20\n        /* \"#utility.yul\":9093:9096   */\n      dup3\n        /* \"#utility.yul\":9089:9101   */\n      add\n        /* \"#utility.yul\":9082:9101   */\n      swap2\n      pop\n        /* \"#utility.yul\":9118:9121   */\n      dup2\n        /* \"#utility.yul\":9111:9121   */\n      swap1\n      pop\n        /* \"#utility.yul\":8166:9127   */\n      swap8\n      swap7\n      pop\n      pop\n      pop\n      pop\n      pop\n      pop\n      pop\n      jump\t// out\n        /* \"#utility.yul\":9133:9302   */\n    tag_161:\n        /* \"#utility.yul\":9217:9228   */\n      0x00\n        /* \"#utility.yul\":9251:9257   */\n      dup3\n        /* \"#utility.yul\":9246:9249   */\n      dup3\n        /* \"#utility.yul\":9239:9258   */\n      mstore\n        /* \"#utility.yul\":9291:9295   */\n      0x20\n        /* \"#utility.yul\":9286:9289   */\n      dup3\n        /* \"#utility.yul\":9282:9296   */\n      add\n        /* \"#utility.yul\":9267:9296   */\n      swap1\n      pop\n        /* \"#utility.yul\":9133:9302   */\n      swap3\n      swap2\n      pop\n      pop\n      jump\t// out\n        /* \"#utility.yul\":9308:9472   */\n    tag_162:\n        /* \"#utility.yul\":9448:9464   */\n      0x72616e646f6d53656564203d2030000000000000000000000000000000000000\n        /* \"#utility.yul\":9444:9445   */\n      0x00\n        /* \"#utility.yul\":9436:9442   */\n      dup3\n        /* \"#utility.yul\":9432:9446   */\n      add\n        /* \"#utility.yul\":9425:9465   */\n      mstore\n        /* \"#utility.yul\":9308:9472   */\n      pop\n      jump\t// out\n        /* \"#utility.yul\":9478:9844   */\n    tag_163:\n        /* \"#utility.yul\":9620:9623   */\n      0x00\n        /* \"#utility.yul\":9641:9708   */\n      tag_274\n        /* \"#utility.yul\":9705:9707   */\n      0x0e\n        /* \"#utility.yul\":9700:9703   */\n      dup4\n        /* \"#utility.yul\":9641:9708   */\n      tag_161\n      jump\t// in\n    tag_274:\n        /* \"#utility.yul\":9634:9708   */\n      swap2\n      pop\n        /* \"#utility.yul\":9717:9810   */\n      tag_275\n        /* \"#utility.yul\":9806:9809   */\n      dup3\n        /* \"#utility.yul\":9717:9810   */\n      tag_162\n      jump\t// in\n    tag_275:\n        /* \"#utility.yul\":9835:9837   */\n      0x20\n        /* \"#utility.yul\":9830:9833   */\n      dup3\n        /* \"#utility.yul\":9826:9838   */\n      add\n        /* \"#utility.yul\":9819:9838   */\n      swap1\n      pop\n        /* \"#utility.yul\":9478:9844   */\n      swap2\n      swap1\n      pop\n      jump\t// out\n        /* \"#utility.yul\":9850:10269   */\n    tag_58:\n        /* \"#utility.yul\":10016:10020   */\n      0x00\n        /* \"#utility.yul\":10054:10056   */\n      0x20\n        /* \"#utility.yul\":10043:10052   */\n      dup3\n        /* \"#utility.yul\":10039:10057   */\n      add\n        /* \"#utility.yul\":10031:10057   */\n      swap1\n      pop\n        /* \"#utility.yul\":10103:10112   */\n      dup2\n        /* \"#utility.yul\":10097:10101   */\n      dup2\n        /* \"#utility.yul\":10093:10113   */\n      sub\n        /* \"#utility.yul\":10089:10090   */\n      0x00\n        /* \"#utility.yul\":10078:10087   */\n      dup4\n        /* \"#utility.yul\":10074:10091   */\n      add\n        /* \"#utility.yul\":10067:10114   */\n      mstore\n        /* \"#utility.yul\":10131:10262   */\n      tag_277\n        /* \"#utility.yul\":10257:10261   */\n      dup2\n        /* \"#utility.yul\":10131:10262   */\n      tag_163\n      jump\t// in\n    tag_277:\n        /* \"#utility.yul\":10123:10262   */\n      swap1\n      pop\n        /* \"#utility.yul\":9850:10269   */\n      swap2\n      swap1\n      pop\n      jump\t// out\n        /* \"#utility.yul\":10275:10442   */\n    tag_72:\n        /* \"#utility.yul\":10312:10315   */\n      0x00\n        /* \"#utility.yul\":10335:10357   */\n      tag_279\n        /* \"#utility.yul\":10351:10356   */\n      dup3\n        /* \"#utility.yul\":10335:10357   */\n      tag_142\n      jump\t// in\n    tag_279:\n        /* \"#utility.yul\":10326:10357   */\n      swap2\n      pop\n        /* \"#utility.yul\":10379:10383   */\n      0xff\n        /* \"#utility.yul\":10372:10377   */\n      dup3\n        /* \"#utility.yul\":10369:10384   */\n      sub\n        /* \"#utility.yul\":10366:10407   */\n      tag_280\n      jumpi\n        /* \"#utility.yul\":10387:10405   */\n      tag_281\n      tag_158\n      jump\t// in\n    tag_281:\n        /* \"#utility.yul\":10366:10407   */\n    tag_280:\n        /* \"#utility.yul\":10434:10435   */\n      0x01\n        /* \"#utility.yul\":10427:10432   */\n      dup3\n        /* \"#utility.yul\":10423:10436   */\n      add\n        /* \"#utility.yul\":10416:10436   */\n      swap1\n      pop\n        /* \"#utility.yul\":10275:10442   */\n      swap2\n      swap1\n      pop\n      jump\t// out\n        /* \"#utility.yul\":10448:10639   */\n    tag_74:\n        /* \"#utility.yul\":10488:10491   */\n      0x00\n        /* \"#utility.yul\":10507:10527   */\n      tag_283\n        /* \"#utility.yul\":10525:10526   */\n      dup3\n        /* \"#utility.yul\":10507:10527   */\n      tag_147\n      jump\t// in\n    tag_283:\n        /* \"#utility.yul\":10502:10527   */\n      swap2\n      pop\n        /* \"#utility.yul\":10541:10561   */\n      tag_284\n        /* \"#utility.yul\":10559:10560   */\n      dup4\n        /* \"#utility.yul\":10541:10561   */\n      tag_147\n      jump\t// in\n    tag_284:\n        /* \"#utility.yul\":10536:10561   */\n      swap3\n      pop\n        /* \"#utility.yul\":10584:10585   */\n      dup3\n        /* \"#utility.yul\":10581:10582   */\n      dup3\n        /* \"#utility.yul\":10577:10586   */\n      add\n        /* \"#utility.yul\":10570:10586   */\n      swap1\n      pop\n        /* \"#utility.yul\":10605:10608   */\n      dup1\n        /* \"#utility.yul\":10602:10603   */\n      dup3\n        /* \"#utility.yul\":10599:10609   */\n      gt\n        /* \"#utility.yul\":10596:10632   */\n      iszero\n      tag_285\n      jumpi\n        /* \"#utility.yul\":10612:10630   */\n      tag_286\n      tag_158\n      jump\t// in\n    tag_286:\n        /* \"#utility.yul\":10596:10632   */\n    tag_285:\n        /* \"#utility.yul\":10448:10639   */\n      swap3\n      swap2\n      pop\n      pop\n      jump\t// out\n        /* \"#utility.yul\":10645:11055   */\n    tag_91:\n        /* \"#utility.yul\":10685:10692   */\n      0x00\n        /* \"#utility.yul\":10708:10728   */\n      tag_288\n        /* \"#utility.yul\":10726:10727   */\n      dup3\n        /* \"#utility.yul\":10708:10728   */\n      tag_147\n      jump\t// in\n    tag_288:\n        /* \"#utility.yul\":10703:10728   */\n      swap2\n      pop\n        /* \"#utility.yul\":10742:10762   */\n      tag_289\n        /* \"#utility.yul\":10760:10761   */\n      dup4\n        /* \"#utility.yul\":10742:10762   */\n      tag_147\n      jump\t// in\n    tag_289:\n        /* \"#utility.yul\":10737:10762   */\n      swap3\n      pop\n        /* \"#utility.yul\":10797:10798   */\n      dup3\n        /* \"#utility.yul\":10794:10795   */\n      dup3\n        /* \"#utility.yul\":10790:10799   */\n      mul\n        /* \"#utility.yul\":10819:10849   */\n      tag_290\n        /* \"#utility.yul\":10837:10848   */\n      dup2\n        /* \"#utility.yul\":10819:10849   */\n      tag_147\n      jump\t// in\n    tag_290:\n        /* \"#utility.yul\":10808:10849   */\n      swap2\n      pop\n        /* \"#utility.yul\":10998:10999   */\n      dup3\n        /* \"#utility.yul\":10989:10996   */\n      dup3\n        /* \"#utility.yul\":10985:11000   */\n      div\n        /* \"#utility.yul\":10982:10983   */\n      dup5\n        /* \"#utility.yul\":10979:11001   */\n      eq\n        /* \"#utility.yul\":10959:10960   */\n      dup4\n        /* \"#utility.yul\":10952:10961   */\n      iszero\n        /* \"#utility.yul\":10932:11015   */\n      or\n        /* \"#utility.yul\":10909:11048   */\n      tag_291\n      jumpi\n        /* \"#utility.yul\":11028:11046   */\n      tag_292\n      tag_158\n      jump\t// in\n    tag_292:\n        /* \"#utility.yul\":10909:11048   */\n    tag_291:\n        /* \"#utility.yul\":10693:11055   */\n      pop\n        /* \"#utility.yul\":10645:11055   */\n      swap3\n      swap2\n      pop\n      pop\n      jump\t// out\n        /* \"#utility.yul\":11061:11241   */\n    tag_164:\n        /* \"#utility.yul\":11109:11186   */\n      0x4e487b7100000000000000000000000000000000000000000000000000000000\n        /* \"#utility.yul\":11106:11107   */\n      0x00\n        /* \"#utility.yul\":11099:11187   */\n      mstore\n        /* \"#utility.yul\":11206:11210   */\n      0x12\n        /* \"#utility.yul\":11203:11204   */\n      0x04\n        /* \"#utility.yul\":11196:11211   */\n      mstore\n        /* \"#utility.yul\":11230:11234   */\n      0x24\n        /* \"#utility.yul\":11227:11228   */\n      0x00\n        /* \"#utility.yul\":11220:11235   */\n      revert\n        /* \"#utility.yul\":11247:11432   */\n    tag_113:\n        /* \"#utility.yul\":11287:11288   */\n      0x00\n        /* \"#utility.yul\":11304:11324   */\n      tag_295\n        /* \"#utility.yul\":11322:11323   */\n      dup3\n        /* \"#utility.yul\":11304:11324   */\n      tag_147\n      jump\t// in\n    tag_295:\n        /* \"#utility.yul\":11299:11324   */\n      swap2\n      pop\n        /* \"#utility.yul\":11338:11358   */\n      tag_296\n        /* \"#utility.yul\":11356:11357   */\n      dup4\n        /* \"#utility.yul\":11338:11358   */\n      tag_147\n      jump\t// in\n    tag_296:\n        /* \"#utility.yul\":11333:11358   */\n      swap3\n      pop\n        /* \"#utility.yul\":11377:11378   */\n      dup3\n        /* \"#utility.yul\":11367:11402   */\n      tag_297\n      jumpi\n        /* \"#utility.yul\":11382:11400   */\n      tag_298\n      tag_164\n      jump\t// in\n    tag_298:\n        /* \"#utility.yul\":11367:11402   */\n    tag_297:\n        /* \"#utility.yul\":11424:11425   */\n      dup3\n        /* \"#utility.yul\":11421:11422   */\n      dup3\n        /* \"#utility.yul\":11417:11426   */\n      div\n        /* \"#utility.yul\":11412:11426   */\n      swap1\n      pop\n        /* \"#utility.yul\":11247:11432   */\n      swap3\n      swap2\n      pop\n      pop\n      jump\t// out\n        /* \"#utility.yul\":11438:11540   */\n    tag_165:\n        /* \"#utility.yul\":11480:11488   */\n      0x00\n        /* \"#utility.yul\":11527:11532   */\n      dup2\n        /* \"#utility.yul\":11524:11525   */\n      0x01\n        /* \"#utility.yul\":11520:11533   */\n      shr\n        /* \"#utility.yul\":11499:11533   */\n      swap1\n      pop\n        /* \"#utility.yul\":11438:11540   */\n      swap2\n      swap1\n      pop\n      jump\t// out\n        /* \"#utility.yul\":11546:12394   */\n    tag_166:\n        /* \"#utility.yul\":11607:11612   */\n      0x00\n        /* \"#utility.yul\":11614:11618   */\n      dup1\n        /* \"#utility.yul\":11638:11644   */\n      dup3\n        /* \"#utility.yul\":11629:11644   */\n      swap2\n      pop\n        /* \"#utility.yul\":11662:11667   */\n      dup4\n        /* \"#utility.yul\":11653:11667   */\n      swap1\n      pop\n        /* \"#utility.yul\":11676:12388   */\n    tag_301:\n        /* \"#utility.yul\":11697:11698   */\n      0x01\n        /* \"#utility.yul\":11687:11695   */\n      dup6\n        /* \"#utility.yul\":11684:11699   */\n      gt\n        /* \"#utility.yul\":11676:12388   */\n      iszero\n      tag_303\n      jumpi\n        /* \"#utility.yul\":11792:11796   */\n      dup1\n        /* \"#utility.yul\":11787:11790   */\n      dup7\n        /* \"#utility.yul\":11783:11797   */\n      div\n        /* \"#utility.yul\":11777:11781   */\n      dup2\n        /* \"#utility.yul\":11774:11798   */\n      gt\n        /* \"#utility.yul\":11771:11821   */\n      iszero\n      tag_304\n      jumpi\n        /* \"#utility.yul\":11801:11819   */\n      tag_305\n      tag_158\n      jump\t// in\n    tag_305:\n        /* \"#utility.yul\":11771:11821   */\n    tag_304:\n        /* \"#utility.yul\":11851:11852   */\n      0x01\n        /* \"#utility.yul\":11841:11849   */\n      dup6\n        /* \"#utility.yul\":11837:11853   */\n      and\n        /* \"#utility.yul\":11834:12285   */\n      iszero\n      tag_306\n      jumpi\n        /* \"#utility.yul\":12266:12270   */\n      dup1\n        /* \"#utility.yul\":12259:12264   */\n      dup3\n        /* \"#utility.yul\":12255:12271   */\n      mul\n        /* \"#utility.yul\":12246:12271   */\n      swap2\n      pop\n        /* \"#utility.yul\":11834:12285   */\n    tag_306:\n        /* \"#utility.yul\":12316:12320   */\n      dup1\n        /* \"#utility.yul\":12310:12314   */\n      dup2\n        /* \"#utility.yul\":12306:12321   */\n      mul\n        /* \"#utility.yul\":12298:12321   */\n      swap1\n      pop\n        /* \"#utility.yul\":12346:12378   */\n      tag_307\n        /* \"#utility.yul\":12369:12377   */\n      dup6\n        /* \"#utility.yul\":12346:12378   */\n      tag_165\n      jump\t// in\n    tag_307:\n        /* \"#utility.yul\":12334:12378   */\n      swap5\n      pop\n        /* \"#utility.yul\":11676:12388   */\n      jump(tag_301)\n    tag_303:\n        /* \"#utility.yul\":11546:12394   */\n      swap5\n      pop\n      swap5\n      swap3\n      pop\n      pop\n      pop\n      jump\t// out\n        /* \"#utility.yul\":12400:13473   */\n    tag_167:\n        /* \"#utility.yul\":12454:12459   */\n      0x00\n        /* \"#utility.yul\":12645:12653   */\n      dup3\n        /* \"#utility.yul\":12635:12675   */\n      tag_309\n      jumpi\n        /* \"#utility.yul\":12666:12667   */\n      0x01\n        /* \"#utility.yul\":12657:12667   */\n      swap1\n      pop\n        /* \"#utility.yul\":12668:12673   */\n      jump(tag_308)\n        /* \"#utility.yul\":12635:12675   */\n    tag_309:\n        /* \"#utility.yul\":12694:12698   */\n      dup2\n        /* \"#utility.yul\":12684:12720   */\n      tag_310\n      jumpi\n        /* \"#utility.yul\":12711:12712   */\n      0x00\n        /* \"#utility.yul\":12702:12712   */\n      swap1\n      pop\n        /* \"#utility.yul\":12713:12718   */\n      jump(tag_308)\n        /* \"#utility.yul\":12684:12720   */\n    tag_310:\n        /* \"#utility.yul\":12780:12784   */\n      dup2\n        /* \"#utility.yul\":12828:12829   */\n      0x01\n        /* \"#utility.yul\":12823:12850   */\n      dup2\n      eq\n      tag_312\n      jumpi\n        /* \"#utility.yul\":12864:12865   */\n      0x02\n        /* \"#utility.yul\":12859:13050   */\n      dup2\n      eq\n      tag_313\n      jumpi\n        /* \"#utility.yul\":12773:13050   */\n      jump(tag_311)\n        /* \"#utility.yul\":12823:12850   */\n    tag_312:\n        /* \"#utility.yul\":12841:12842   */\n      0x01\n        /* \"#utility.yul\":12832:12842   */\n      swap2\n      pop\n        /* \"#utility.yul\":12843:12848   */\n      pop\n      jump(tag_308)\n        /* \"#utility.yul\":12859:13050   */\n    tag_313:\n        /* \"#utility.yul\":12904:12907   */\n      0xff\n        /* \"#utility.yul\":12894:12902   */\n      dup5\n        /* \"#utility.yul\":12891:12908   */\n      gt\n        /* \"#utility.yul\":12888:12931   */\n      iszero\n      tag_314\n      jumpi\n        /* \"#utility.yul\":12911:12929   */\n      tag_315\n      tag_158\n      jump\t// in\n    tag_315:\n        /* \"#utility.yul\":12888:12931   */\n    tag_314:\n        /* \"#utility.yul\":12960:12968   */\n      dup4\n        /* \"#utility.yul\":12957:12958   */\n      0x02\n        /* \"#utility.yul\":12953:12969   */\n      exp\n        /* \"#utility.yul\":12944:12969   */\n      swap2\n      pop\n        /* \"#utility.yul\":12995:12998   */\n      dup5\n        /* \"#utility.yul\":12988:12993   */\n      dup3\n        /* \"#utility.yul\":12985:12999   */\n      gt\n        /* \"#utility.yul\":12982:13022   */\n      iszero\n      tag_316\n      jumpi\n        /* \"#utility.yul\":13002:13020   */\n      tag_317\n      tag_158\n      jump\t// in\n    tag_317:\n        /* \"#utility.yul\":12982:13022   */\n    tag_316:\n        /* \"#utility.yul\":13035:13040   */\n      pop\n      jump(tag_308)\n        /* \"#utility.yul\":12773:13050   */\n    tag_311:\n      pop\n        /* \"#utility.yul\":13159:13161   */\n      0x20\n        /* \"#utility.yul\":13149:13157   */\n      dup4\n        /* \"#utility.yul\":13146:13162   */\n      lt\n        /* \"#utility.yul\":13140:13143   */\n      0x0133\n        /* \"#utility.yul\":13134:13138   */\n      dup4\n        /* \"#utility.yul\":13131:13144   */\n      lt\n        /* \"#utility.yul\":13127:13163   */\n      and\n        /* \"#utility.yul\":13109:13111   */\n      0x4e\n        /* \"#utility.yul\":13099:13107   */\n      dup5\n        /* \"#utility.yul\":13096:13112   */\n      lt\n        /* \"#utility.yul\":13091:13093   */\n      0x0b\n        /* \"#utility.yul\":13085:13089   */\n      dup5\n        /* \"#utility.yul\":13082:13094   */\n      lt\n        /* \"#utility.yul\":13078:13113   */\n      and\n        /* \"#utility.yul\":13062:13173   */\n      or\n        /* \"#utility.yul\":13059:13305   */\n      iszero\n      tag_318\n      jumpi\n        /* \"#utility.yul\":13215:13223   */\n      dup3\n        /* \"#utility.yul\":13209:13213   */\n      dup3\n        /* \"#utility.yul\":13205:13224   */\n      exp\n        /* \"#utility.yul\":13196:13224   */\n      swap1\n      pop\n        /* \"#utility.yul\":13250:13253   */\n      dup4\n        /* \"#utility.yul\":13243:13248   */\n      dup2\n        /* \"#utility.yul\":13240:13254   */\n      gt\n        /* \"#utility.yul\":13237:13277   */\n      iszero\n      tag_319\n      jumpi\n        /* \"#utility.yul\":13257:13275   */\n      tag_320\n      tag_158\n      jump\t// in\n    tag_320:\n        /* \"#utility.yul\":13237:13277   */\n    tag_319:\n        /* \"#utility.yul\":13290:13295   */\n      jump(tag_308)\n        /* \"#utility.yul\":13059:13305   */\n    tag_318:\n        /* \"#utility.yul\":13330:13372   */\n      tag_321\n        /* \"#utility.yul\":13368:13371   */\n      dup5\n        /* \"#utility.yul\":13358:13366   */\n      dup5\n        /* \"#utility.yul\":13352:13356   */\n      dup5\n        /* \"#utility.yul\":13349:13350   */\n      0x01\n        /* \"#utility.yul\":13330:13372   */\n      tag_166\n      jump\t// in\n    tag_321:\n        /* \"#utility.yul\":13315:13372   */\n      swap3\n      pop\n      swap1\n      pop\n        /* \"#utility.yul\":13404:13408   */\n      dup2\n        /* \"#utility.yul\":13399:13402   */\n      dup5\n        /* \"#utility.yul\":13395:13409   */\n      div\n        /* \"#utility.yul\":13388:13393   */\n      dup2\n        /* \"#utility.yul\":13385:13410   */\n      gt\n        /* \"#utility.yul\":13382:13433   */\n      iszero\n      tag_322\n      jumpi\n        /* \"#utility.yul\":13413:13431   */\n      tag_323\n      tag_158\n      jump\t// in\n    tag_323:\n        /* \"#utility.yul\":13382:13433   */\n    tag_322:\n        /* \"#utility.yul\":13462:13466   */\n      dup2\n        /* \"#utility.yul\":13455:13460   */\n      dup2\n        /* \"#utility.yul\":13451:13467   */\n      mul\n        /* \"#utility.yul\":13442:13467   */\n      swap1\n      pop\n        /* \"#utility.yul\":12400:13473   */\n    tag_308:\n      swap4\n      swap3\n      pop\n      pop\n      pop\n      jump\t// out\n        /* \"#utility.yul\":13479:13764   */\n    tag_118:\n        /* \"#utility.yul\":13539:13544   */\n      0x00\n        /* \"#utility.yul\":13563:13586   */\n      tag_325\n        /* \"#utility.yul\":13581:13585   */\n      dup3\n        /* \"#utility.yul\":13563:13586   */\n      tag_147\n      jump\t// in\n    tag_325:\n        /* \"#utility.yul\":13555:13586   */\n      swap2\n      pop\n        /* \"#utility.yul\":13607:13634   */\n      tag_326\n        /* \"#utility.yul\":13625:13633   */\n      dup4\n        /* \"#utility.yul\":13607:13634   */\n      tag_147\n      jump\t// in\n    tag_326:\n        /* \"#utility.yul\":13595:13634   */\n      swap3\n      pop\n        /* \"#utility.yul\":13653:13757   */\n      tag_327\n        /* \"#utility.yul\":13690:13756   */\n      0xffffffffffffffffffffffffffffffffffffffffffffffffffffffffffffffff\n        /* \"#utility.yul\":13680:13688   */\n      dup5\n        /* \"#utility.yul\":13674:13678   */\n      dup5\n        /* \"#utility.yul\":13653:13757   */\n      tag_167\n      jump\t// in\n    tag_327:\n        /* \"#utility.yul\":13644:13757   */\n      swap1\n      pop\n        /* \"#utility.yul\":13479:13764   */\n      swap3\n      swap2\n      pop\n      pop\n      jump\t// out\n        /* \"#utility.yul\":13770:14167   */\n    tag_126:\n        /* \"#utility.yul\":13910:13913   */\n      0x00\n        /* \"#utility.yul\":13925:14000   */\n      tag_329\n        /* \"#utility.yul\":13996:13999   */\n      dup3\n        /* \"#utility.yul\":13987:13993   */\n      dup6\n        /* \"#utility.yul\":13925:14000   */\n      tag_160\n      jump\t// in\n    tag_329:\n        /* \"#utility.yul\":14025:14027   */\n      0x20\n        /* \"#utility.yul\":14020:14023   */\n      dup3\n        /* \"#utility.yul\":14016:14028   */\n      add\n        /* \"#utility.yul\":14009:14028   */\n      swap2\n      pop\n        /* \"#utility.yul\":14038:14113   */\n      tag_330\n        /* \"#utility.yul\":14109:14112   */\n      dup3\n        /* \"#utility.yul\":14100:14106   */\n      dup5\n        /* \"#utility.yul\":14038:14113   */\n      tag_160\n      jump\t// in\n    tag_330:\n        /* \"#utility.yul\":14138:14140   */\n      0x20\n        /* \"#utility.yul\":14133:14136   */\n      dup3\n        /* \"#utility.yul\":14129:14141   */\n      add\n        /* \"#utility.yul\":14122:14141   */\n      swap2\n      pop\n        /* \"#utility.yul\":14158:14161   */\n      dup2\n        /* \"#utility.yul\":14151:14161   */\n      swap1\n      pop\n        /* \"#utility.yul\":13770:14167   */\n      swap4\n      swap3\n      pop\n      pop\n      pop\n      jump\t// out\n        /* \"#utility.yul\":14173:14349   */\n    tag_128:\n        /* \"#utility.yul\":14205:14206   */\n      0x00\n        /* \"#utility.yul\":14222:14242   */\n      tag_332\n        /* \"#utility.yul\":14240:14241   */\n      dup3\n        /* \"#utility.yul\":14222:14242   */\n      tag_147\n      jump\t// in\n    tag_332:\n        /* \"#utility.yul\":14217:14242   */\n      swap2\n      pop\n        /* \"#utility.yul\":14256:14276   */\n      tag_333\n        /* \"#utility.yul\":14274:14275   */\n      dup4\n        /* \"#utility.yul\":14256:14276   */\n      tag_147\n      jump\t// in\n    tag_333:\n        /* \"#utility.yul\":14251:14276   */\n      swap3\n      pop\n        /* \"#utility.yul\":14295:14296   */\n      dup3\n        /* \"#utility.yul\":14285:14320   */\n      tag_334\n      jumpi\n        /* \"#utility.yul\":14300:14318   */\n      tag_335\n      tag_164\n      jump\t// in\n    tag_335:\n        /* \"#utility.yul\":14285:14320   */\n    tag_334:\n        /* \"#utility.yul\":14341:14342   */\n      dup3\n        /* \"#utility.yul\":14338:14339   */\n      dup3\n        /* \"#utility.yul\":14334:14343   */\n      mod\n        /* \"#utility.yul\":14329:14343   */\n      swap1\n      pop\n        /* \"#utility.yul\":14173:14349   */\n      swap3\n      swap2\n      pop\n      pop\n      jump\t// out\n\n    auxdata: 0xa264697066735822122092c6c570171775ec8e847e929e88bb231367011698307de0f9a4073b16f2b1f364736f6c63430008120033\n}\n",
				"bytecode": {
					"linkReferences": {},
					"object": "608060405260016000556032600155600a60025560646003556009600460006101000a81548160ff021916908360ff1602179055506025600460016101000a81548160ff021916908360ff16021790555034801561005c57600080fd5b50610ef08061006c6000396000f3fe608060405234801561001057600080fd5b50600436106100415760003560e01c80631597ee441461004657806361a7690014610076578063e4a13fb7146100a6575b600080fd5b610060600480360381019061005b9190610802565b6100d6565b60405161006d9190610864565b60405180910390f35b610090600480360381019061008b91906108ab565b61013d565b60405161009d9190610996565b60405180910390f35b6100c060048036038101906100bb91906109b8565b6101e1565b6040516100cd9190610864565b60405180910390f35b6000805b825181101561013757600882901b91508281600185516100fa9190610a27565b6101049190610a27565b8151811061011557610114610a5b565b5b602002602001015160ff1682179150808061012f90610a8a565b9150506100da565b50919050565b6060601b67ffffffffffffffff81111561015a57610159610686565b5b6040519080825280602002602001820160405280156101885781602001602082028036833780820191505090505b50905060005b81518110156101db576101a18382610459565b8282815181106101b4576101b3610a5b565b5b602002602001019060ff16908160ff168152505080806101d390610a8a565b91505061018e565b50919050565b6000806101ed8461013d565b905060006101fa8461013d565b90506000825167ffffffffffffffff81111561021957610218610686565b5b6040519080825280602002602001820160405280156102475781602001602082028036833780820191505090505b5090506000424344898960005460405160200161026996959493929190610af3565b6040516020818303038152906040528051906020012060001c9050600081036102c7576040517f08c379a00000000000000000000000000000000000000000000000000000000081526004016102be90610bc0565b60405180910390fd5b6000806000905060005b865181101561042a5760008782815181106102ef576102ee610a5b565b5b60200260200101519050600087838151811061030e5761030d610a5b565b5b6020026020010151905060008460ff160361037a5761032f8686848461047a565b87848151811061034257610341610a5b565b5b602002602001019060ff16908160ff1681525050838061036190610be0565b9450506002856103719190610c09565b94505050610417565b60018460ff16036103c357600187848151811061039a57610399610a5b565b5b602002602001019060ff16908160ff168152505083806103b990610be0565b9450505050610417565b6103db8686806103d290610a8a565b9750600161053e565b8784815181106103ee576103ed610a5b565b5b602002602001019060ff16908160ff168152505060009350848061041190610a8a565b95505050505b808061042290610a8a565b9150506102d1565b60008081548092919061043c90610a8a565b919050555061044a856100d6565b97505050505050505092915050565b6000610472836008808561046d9190610c3d565b61058e565b905092915050565b60008060009050600080610498888860006104936105bf565b6105e3565b905060005b60038110156104de576104af8161063f565b846104ba9190610c09565b93508184106104cb578092506104de565b80806104d690610a8a565b91505061049d565b50600082036104f257859350505050610536565b6001820361050557849350505050610536565b610530888861051390610a8a565b9850886001600460019054906101000a900460ff1660ff166105e3565b93505050505b949350505050565b60008082036105505760009050610587565b6000600354836105609190610cae565b905080610572868660006127106105e3565b11610581576001915050610587565b60009150505b9392505050565b6000808260018560026105a19190610e12565b6105ab9190610a27565b901b905082818616901c9150509392505050565b60006002546001546001546105d49190610c09565b6105de9190610c09565b905090565b600082826105f19190610a27565b8585604051602001610604929190610e5d565b6040516020818303038152906040528051906020012060001c6106279190610e89565b905082816106359190610c09565b9050949350505050565b60006002821461065157600154610655565b6002545b9050919050565b6000604051905090565b600080fd5b600080fd5b600080fd5b6000601f19601f8301169050919050565b7f4e487b7100000000000000000000000000000000000000000000000000000000600052604160045260246000fd5b6106be82610675565b810181811067ffffffffffffffff821117156106dd576106dc610686565b5b80604052505050565b60006106f061065c565b90506106fc82826106b5565b919050565b600067ffffffffffffffff82111561071c5761071b610686565b5b602082029050602081019050919050565b600080fd5b600060ff82169050919050565b61074881610732565b811461075357600080fd5b50565b6000813590506107658161073f565b92915050565b600061077e61077984610701565b6106e6565b905080838252602082019050602084028301858111156107a1576107a061072d565b5b835b818110156107ca57806107b68882610756565b8452602084019350506020810190506107a3565b5050509392505050565b600082601f8301126107e9576107e8610670565b5b81356107f984826020860161076b565b91505092915050565b60006020828403121561081857610817610666565b5b600082013567ffffffffffffffff8111156108365761083561066b565b5b610842848285016107d4565b91505092915050565b6000819050919050565b61085e8161084b565b82525050565b60006020820190506108796000830184610855565b92915050565b6108888161084b565b811461089357600080fd5b50565b6000813590506108a58161087f565b92915050565b6000602082840312156108c1576108c0610666565b5b60006108cf84828501610896565b91505092915050565b600081519050919050565b600082825260208201905092915050565b6000819050602082019050919050565b61090d81610732565b82525050565b600061091f8383610904565b60208301905092915050565b6000602082019050919050565b6000610943826108d8565b61094d81856108e3565b9350610958836108f4565b8060005b838110156109895781516109708882610913565b975061097b8361092b565b92505060018101905061095c565b5085935050505092915050565b600060208201905081810360008301526109b08184610938565b905092915050565b600080604083850312156109cf576109ce610666565b5b60006109dd85828601610896565b92505060206109ee85828601610896565b9150509250929050565b7f4e487b7100000000000000000000000000000000000000000000000000000000600052601160045260246000fd5b6000610a328261084b565b9150610a3d8361084b565b9250828203905081811115610a5557610a546109f8565b5b92915050565b7f4e487b7100000000000000000000000000000000000000000000000000000000600052603260045260246000fd5b6000610a958261084b565b91507fffffffffffffffffffffffffffffffffffffffffffffffffffffffffffffffff8203610ac757610ac66109f8565b5b600182019050919050565b6000819050919050565b610aed610ae88261084b565b610ad2565b82525050565b6000610aff8289610adc565b602082019150610b0f8288610adc565b602082019150610b1f8287610adc565b602082019150610b2f8286610adc565b602082019150610b3f8285610adc565b602082019150610b4f8284610adc565b602082019150819050979650505050505050565b600082825260208201905092915050565b7f72616e646f6d53656564203d2030000000000000000000000000000000000000600082015250565b6000610baa600e83610b63565b9150610bb582610b74565b602082019050919050565b60006020820190508181036000830152610bd981610b9d565b9050919050565b6000610beb82610732565b915060ff8203610bfe57610bfd6109f8565b5b600182019050919050565b6000610c148261084b565b9150610c1f8361084b565b9250828201905080821115610c3757610c366109f8565b5b92915050565b6000610c488261084b565b9150610c538361084b565b9250828202610c618161084b565b91508282048414831517610c7857610c776109f8565b5b5092915050565b7f4e487b7100000000000000000000000000000000000000000000000000000000600052601260045260246000fd5b6000610cb98261084b565b9150610cc48361084b565b925082610cd457610cd3610c7f565b5b828204905092915050565b60008160011c9050919050565b6000808291508390505b6001851115610d3657808604811115610d1257610d116109f8565b5b6001851615610d215780820291505b8081029050610d2f85610cdf565b9450610cf6565b94509492505050565b600082610d4f5760019050610e0b565b81610d5d5760009050610e0b565b8160018114610d735760028114610d7d57610dac565b6001915050610e0b565b60ff841115610d8f57610d8e6109f8565b5b8360020a915084821115610da657610da56109f8565b5b50610e0b565b5060208310610133831016604e8410600b8410161715610de15782820a905083811115610ddc57610ddb6109f8565b5b610e0b565b610dee8484846001610cec565b92509050818404811115610e0557610e046109f8565b5b81810290505b9392505050565b6000610e1d8261084b565b9150610e288361084b565b9250610e557fffffffffffffffffffffffffffffffffffffffffffffffffffffffffffffffff8484610d3f565b905092915050565b6000610e698285610adc565b602082019150610e798284610adc565b6020820191508190509392505050565b6000610e948261084b565b9150610e9f8361084b565b925082610eaf57610eae610c7f565b5b82820690509291505056fea264697066735822122092c6c570171775ec8e847e929e88bb231367011698307de0f9a4073b16f2b1f364736f6c63430008120033",
					"opcodes": "PUSH1 0x80 PUSH1 0x40 MSTORE PUSH1 0x1 PUSH1 0x0 SSTORE PUSH1 0x32 PUSH1 0x1 SSTORE PUSH1 0xA PUSH1 0x2 SSTORE PUSH1 0x64 PUSH1 0x3 SSTORE PUSH1 0x9 PUSH1 0x4 PUSH1 0x0 PUSH2 0x100 EXP DUP2 SLOAD DUP2 PUSH1 0xFF MUL NOT AND SWAP1 DUP4 PUSH1 0xFF AND MUL OR SWAP1 SSTORE POP PUSH1 0x25 PUSH1 0x4 PUSH1 0x1 PUSH2 0x100 EXP DUP2 SLOAD DUP2 PUSH1 0xFF MUL NOT AND SWAP1 DUP4 PUSH1 0xFF AND MUL OR SWAP1 SSTORE POP CALLVALUE DUP1 ISZERO PUSH2 0x5C JUMPI PUSH1 0x0 DUP1 REVERT JUMPDEST POP PUSH2 0xEF0 DUP1 PUSH2 0x6C PUSH1 0x0 CODECOPY PUSH1 0x0 RETURN INVALID PUSH1 0x80 PUSH1 0x40 MSTORE CALLVALUE DUP1 ISZERO PUSH2 0x10 JUMPI PUSH1 0x0 DUP1 REVERT JUMPDEST POP PUSH1 0x4 CALLDATASIZE LT PUSH2 0x41 JUMPI PUSH1 0x0 CALLDATALOAD PUSH1 0xE0 SHR DUP1 PUSH4 0x1597EE44 EQ PUSH2 0x46 JUMPI DUP1 PUSH4 0x61A76900 EQ PUSH2 0x76 JUMPI DUP1 PUSH4 0xE4A13FB7 EQ PUSH2 0xA6 JUMPI JUMPDEST PUSH1 0x0 DUP1 REVERT JUMPDEST PUSH2 0x60 PUSH1 0x4 DUP1 CALLDATASIZE SUB DUP2 ADD SWAP1 PUSH2 0x5B SWAP2 SWAP1 PUSH2 0x802 JUMP JUMPDEST PUSH2 0xD6 JUMP JUMPDEST PUSH1 0x40 MLOAD PUSH2 0x6D SWAP2 SWAP1 PUSH2 0x864 JUMP JUMPDEST PUSH1 0x40 MLOAD DUP1 SWAP2 SUB SWAP1 RETURN JUMPDEST PUSH2 0x90 PUSH1 0x4 DUP1 CALLDATASIZE SUB DUP2 ADD SWAP1 PUSH2 0x8B SWAP2 SWAP1 PUSH2 0x8AB JUMP JUMPDEST PUSH2 0x13D JUMP JUMPDEST PUSH1 0x40 MLOAD PUSH2 0x9D SWAP2 SWAP1 PUSH2 0x996 JUMP JUMPDEST PUSH1 0x40 MLOAD DUP1 SWAP2 SUB SWAP1 RETURN JUMPDEST PUSH2 0xC0 PUSH1 0x4 DUP1 CALLDATASIZE SUB DUP2 ADD SWAP1 PUSH2 0xBB SWAP2 SWAP1 PUSH2 0x9B8 JUMP JUMPDEST PUSH2 0x1E1 JUMP JUMPDEST PUSH1 0x40 MLOAD PUSH2 0xCD SWAP2 SWAP1 PUSH2 0x864 JUMP JUMPDEST PUSH1 0x40 MLOAD DUP1 SWAP2 SUB SWAP1 RETURN JUMPDEST PUSH1 0x0 DUP1 JUMPDEST DUP3 MLOAD DUP2 LT ISZERO PUSH2 0x137 JUMPI PUSH1 0x8 DUP3 SWAP1 SHL SWAP2 POP DUP3 DUP2 PUSH1 0x1 DUP6 MLOAD PUSH2 0xFA SWAP2 SWAP1 PUSH2 0xA27 JUMP JUMPDEST PUSH2 0x104 SWAP2 SWAP1 PUSH2 0xA27 JUMP JUMPDEST DUP2 MLOAD DUP2 LT PUSH2 0x115 JUMPI PUSH2 0x114 PUSH2 0xA5B JUMP JUMPDEST JUMPDEST PUSH1 0x20 MUL PUSH1 0x20 ADD ADD MLOAD PUSH1 0xFF AND DUP3 OR SWAP2 POP DUP1 DUP1 PUSH2 0x12F SWAP1 PUSH2 0xA8A JUMP JUMPDEST SWAP2 POP POP PUSH2 0xDA JUMP JUMPDEST POP SWAP2 SWAP1 POP JUMP JUMPDEST PUSH1 0x60 PUSH1 0x1B PUSH8 0xFFFFFFFFFFFFFFFF DUP2 GT ISZERO PUSH2 0x15A JUMPI PUSH2 0x159 PUSH2 0x686 JUMP JUMPDEST JUMPDEST PUSH1 0x40 MLOAD SWAP1 DUP1 DUP3 MSTORE DUP1 PUSH1 0x20 MUL PUSH1 0x20 ADD DUP3 ADD PUSH1 0x40 MSTORE DUP1 ISZERO PUSH2 0x188 JUMPI DUP2 PUSH1 0x20 ADD PUSH1 0x20 DUP3 MUL DUP1 CALLDATASIZE DUP4 CALLDATACOPY DUP1 DUP3 ADD SWAP2 POP POP SWAP1 POP JUMPDEST POP SWAP1 POP PUSH1 0x0 JUMPDEST DUP2 MLOAD DUP2 LT ISZERO PUSH2 0x1DB JUMPI PUSH2 0x1A1 DUP4 DUP3 PUSH2 0x459 JUMP JUMPDEST DUP3 DUP3 DUP2 MLOAD DUP2 LT PUSH2 0x1B4 JUMPI PUSH2 0x1B3 PUSH2 0xA5B JUMP JUMPDEST JUMPDEST PUSH1 0x20 MUL PUSH1 0x20 ADD ADD SWAP1 PUSH1 0xFF AND SWAP1 DUP2 PUSH1 0xFF AND DUP2 MSTORE POP POP DUP1 DUP1 PUSH2 0x1D3 SWAP1 PUSH2 0xA8A JUMP JUMPDEST SWAP2 POP POP PUSH2 0x18E JUMP JUMPDEST POP SWAP2 SWAP1 POP JUMP JUMPDEST PUSH1 0x0 DUP1 PUSH2 0x1ED DUP5 PUSH2 0x13D JUMP JUMPDEST SWAP1 POP PUSH1 0x0 PUSH2 0x1FA DUP5 PUSH2 0x13D JUMP JUMPDEST SWAP1 POP PUSH1 0x0 DUP3 MLOAD PUSH8 0xFFFFFFFFFFFFFFFF DUP2 GT ISZERO PUSH2 0x219 JUMPI PUSH2 0x218 PUSH2 0x686 JUMP JUMPDEST JUMPDEST PUSH1 0x40 MLOAD SWAP1 DUP1 DUP3 MSTORE DUP1 PUSH1 0x20 MUL PUSH1 0x20 ADD DUP3 ADD PUSH1 0x40 MSTORE DUP1 ISZERO PUSH2 0x247 JUMPI DUP2 PUSH1 0x20 ADD PUSH1 0x20 DUP3 MUL DUP1 CALLDATASIZE DUP4 CALLDATACOPY DUP1 DUP3 ADD SWAP2 POP POP SWAP1 POP JUMPDEST POP SWAP1 POP PUSH1 0x0 TIMESTAMP NUMBER PREVRANDAO DUP10 DUP10 PUSH1 0x0 SLOAD PUSH1 0x40 MLOAD PUSH1 0x20 ADD PUSH2 0x269 SWAP7 SWAP6 SWAP5 SWAP4 SWAP3 SWAP2 SWAP1 PUSH2 0xAF3 JUMP JUMPDEST PUSH1 0x40 MLOAD PUSH1 0x20 DUP2 DUP4 SUB SUB DUP2 MSTORE SWAP1 PUSH1 0x40 MSTORE DUP1 MLOAD SWAP1 PUSH1 0x20 ADD KECCAK256 PUSH1 0x0 SHR SWAP1 POP PUSH1 0x0 DUP2 SUB PUSH2 0x2C7 JUMPI PUSH1 0x40 MLOAD PUSH32 0x8C379A000000000000000000000000000000000000000000000000000000000 DUP2 MSTORE PUSH1 0x4 ADD PUSH2 0x2BE SWAP1 PUSH2 0xBC0 JUMP JUMPDEST PUSH1 0x40 MLOAD DUP1 SWAP2 SUB SWAP1 REVERT JUMPDEST PUSH1 0x0 DUP1 PUSH1 0x0 SWAP1 POP PUSH1 0x0 JUMPDEST DUP7 MLOAD DUP2 LT ISZERO PUSH2 0x42A JUMPI PUSH1 0x0 DUP8 DUP3 DUP2 MLOAD DUP2 LT PUSH2 0x2EF JUMPI PUSH2 0x2EE PUSH2 0xA5B JUMP JUMPDEST JUMPDEST PUSH1 0x20 MUL PUSH1 0x20 ADD ADD MLOAD SWAP1 POP PUSH1 0x0 DUP8 DUP4 DUP2 MLOAD DUP2 LT PUSH2 0x30E JUMPI PUSH2 0x30D PUSH2 0xA5B JUMP JUMPDEST JUMPDEST PUSH1 0x20 MUL PUSH1 0x20 ADD ADD MLOAD SWAP1 POP PUSH1 0x0 DUP5 PUSH1 0xFF AND SUB PUSH2 0x37A JUMPI PUSH2 0x32F DUP7 DUP7 DUP5 DUP5 PUSH2 0x47A JUMP JUMPDEST DUP8 DUP5 DUP2 MLOAD DUP2 LT PUSH2 0x342 JUMPI PUSH2 0x341 PUSH2 0xA5B JUMP JUMPDEST JUMPDEST PUSH1 0x20 MUL PUSH1 0x20 ADD ADD SWAP1 PUSH1 0xFF AND SWAP1 DUP2 PUSH1 0xFF AND DUP2 MSTORE POP POP DUP4 DUP1 PUSH2 0x361 SWAP1 PUSH2 0xBE0 JUMP JUMPDEST SWAP5 POP POP PUSH1 0x2 DUP6 PUSH2 0x371 SWAP2 SWAP1 PUSH2 0xC09 JUMP JUMPDEST SWAP5 POP POP POP PUSH2 0x417 JUMP JUMPDEST PUSH1 0x1 DUP5 PUSH1 0xFF AND SUB PUSH2 0x3C3 JUMPI PUSH1 0x1 DUP8 DUP5 DUP2 MLOAD DUP2 LT PUSH2 0x39A JUMPI PUSH2 0x399 PUSH2 0xA5B JUMP JUMPDEST JUMPDEST PUSH1 0x20 MUL PUSH1 0x20 ADD ADD SWAP1 PUSH1 0xFF AND SWAP1 DUP2 PUSH1 0xFF AND DUP2 MSTORE POP POP DUP4 DUP1 PUSH2 0x3B9 SWAP1 PUSH2 0xBE0 JUMP JUMPDEST SWAP5 POP POP POP POP PUSH2 0x417 JUMP JUMPDEST PUSH2 0x3DB DUP7 DUP7 DUP1 PUSH2 0x3D2 SWAP1 PUSH2 0xA8A JUMP JUMPDEST SWAP8 POP PUSH1 0x1 PUSH2 0x53E JUMP JUMPDEST DUP8 DUP5 DUP2 MLOAD DUP2 LT PUSH2 0x3EE JUMPI PUSH2 0x3ED PUSH2 0xA5B JUMP JUMPDEST JUMPDEST PUSH1 0x20 MUL PUSH1 0x20 ADD ADD SWAP1 PUSH1 0xFF AND SWAP1 DUP2 PUSH1 0xFF AND DUP2 MSTORE POP POP PUSH1 0x0 SWAP4 POP DUP5 DUP1 PUSH2 0x411 SWAP1 PUSH2 0xA8A JUMP JUMPDEST SWAP6 POP POP POP POP JUMPDEST DUP1 DUP1 PUSH2 0x422 SWAP1 PUSH2 0xA8A JUMP JUMPDEST SWAP2 POP POP PUSH2 0x2D1 JUMP JUMPDEST PUSH1 0x0 DUP1 DUP2 SLOAD DUP1 SWAP3 SWAP2 SWAP1 PUSH2 0x43C SWAP1 PUSH2 0xA8A JUMP JUMPDEST SWAP2 SWAP1 POP SSTORE POP PUSH2 0x44A DUP6 PUSH2 0xD6 JUMP JUMPDEST SWAP8 POP POP POP POP POP POP POP POP SWAP3 SWAP2 POP POP JUMP JUMPDEST PUSH1 0x0 PUSH2 0x472 DUP4 PUSH1 0x8 DUP1 DUP6 PUSH2 0x46D SWAP2 SWAP1 PUSH2 0xC3D JUMP JUMPDEST PUSH2 0x58E JUMP JUMPDEST SWAP1 POP SWAP3 SWAP2 POP POP JUMP JUMPDEST PUSH1 0x0 DUP1 PUSH1 0x0 SWAP1 POP PUSH1 0x0 DUP1 PUSH2 0x498 DUP9 DUP9 PUSH1 0x0 PUSH2 0x493 PUSH2 0x5BF JUMP JUMPDEST PUSH2 0x5E3 JUMP JUMPDEST SWAP1 POP PUSH1 0x0 JUMPDEST PUSH1 0x3 DUP2 LT ISZERO PUSH2 0x4DE JUMPI PUSH2 0x4AF DUP2 PUSH2 0x63F JUMP JUMPDEST DUP5 PUSH2 0x4BA SWAP2 SWAP1 PUSH2 0xC09 JUMP JUMPDEST SWAP4 POP DUP2 DUP5 LT PUSH2 0x4CB JUMPI DUP1 SWAP3 POP PUSH2 0x4DE JUMP JUMPDEST DUP1 DUP1 PUSH2 0x4D6 SWAP1 PUSH2 0xA8A JUMP JUMPDEST SWAP2 POP POP PUSH2 0x49D JUMP JUMPDEST POP PUSH1 0x0 DUP3 SUB PUSH2 0x4F2 JUMPI DUP6 SWAP4 POP POP POP POP PUSH2 0x536 JUMP JUMPDEST PUSH1 0x1 DUP3 SUB PUSH2 0x505 JUMPI DUP5 SWAP4 POP POP POP POP PUSH2 0x536 JUMP JUMPDEST PUSH2 0x530 DUP9 DUP9 PUSH2 0x513 SWAP1 PUSH2 0xA8A JUMP JUMPDEST SWAP9 POP DUP9 PUSH1 0x1 PUSH1 0x4 PUSH1 0x1 SWAP1 SLOAD SWAP1 PUSH2 0x100 EXP SWAP1 DIV PUSH1 0xFF AND PUSH1 0xFF AND PUSH2 0x5E3 JUMP JUMPDEST SWAP4 POP POP POP POP JUMPDEST SWAP5 SWAP4 POP POP POP POP JUMP JUMPDEST PUSH1 0x0 DUP1 DUP3 SUB PUSH2 0x550 JUMPI PUSH1 0x0 SWAP1 POP PUSH2 0x587 JUMP JUMPDEST PUSH1 0x0 PUSH1 0x3 SLOAD DUP4 PUSH2 0x560 SWAP2 SWAP1 PUSH2 0xCAE JUMP JUMPDEST SWAP1 POP DUP1 PUSH2 0x572 DUP7 DUP7 PUSH1 0x0 PUSH2 0x2710 PUSH2 0x5E3 JUMP JUMPDEST GT PUSH2 0x581 JUMPI PUSH1 0x1 SWAP2 POP POP PUSH2 0x587 JUMP JUMPDEST PUSH1 0x0 SWAP2 POP POP JUMPDEST SWAP4 SWAP3 POP POP POP JUMP JUMPDEST PUSH1 0x0 DUP1 DUP3 PUSH1 0x1 DUP6 PUSH1 0x2 PUSH2 0x5A1 SWAP2 SWAP1 PUSH2 0xE12 JUMP JUMPDEST PUSH2 0x5AB SWAP2 SWAP1 PUSH2 0xA27 JUMP JUMPDEST SWAP1 SHL SWAP1 POP DUP3 DUP2 DUP7 AND SWAP1 SHR SWAP2 POP POP SWAP4 SWAP3 POP POP POP JUMP JUMPDEST PUSH1 0x0 PUSH1 0x2 SLOAD PUSH1 0x1 SLOAD PUSH1 0x1 SLOAD PUSH2 0x5D4 SWAP2 SWAP1 PUSH2 0xC09 JUMP JUMPDEST PUSH2 0x5DE SWAP2 SWAP1 PUSH2 0xC09 JUMP JUMPDEST SWAP1 POP SWAP1 JUMP JUMPDEST PUSH1 0x0 DUP3 DUP3 PUSH2 0x5F1 SWAP2 SWAP1 PUSH2 0xA27 JUMP JUMPDEST DUP6 DUP6 PUSH1 0x40 MLOAD PUSH1 0x20 ADD PUSH2 0x604 SWAP3 SWAP2 SWAP1 PUSH2 0xE5D JUMP JUMPDEST PUSH1 0x40 MLOAD PUSH1 0x20 DUP2 DUP4 SUB SUB DUP2 MSTORE SWAP1 PUSH1 0x40 MSTORE DUP1 MLOAD SWAP1 PUSH1 0x20 ADD KECCAK256 PUSH1 0x0 SHR PUSH2 0x627 SWAP2 SWAP1 PUSH2 0xE89 JUMP JUMPDEST SWAP1 POP DUP3 DUP2 PUSH2 0x635 SWAP2 SWAP1 PUSH2 0xC09 JUMP JUMPDEST SWAP1 POP SWAP5 SWAP4 POP POP POP POP JUMP JUMPDEST PUSH1 0x0 PUSH1 0x2 DUP3 EQ PUSH2 0x651 JUMPI PUSH1 0x1 SLOAD PUSH2 0x655 JUMP JUMPDEST PUSH1 0x2 SLOAD JUMPDEST SWAP1 POP SWAP2 SWAP1 POP JUMP JUMPDEST PUSH1 0x0 PUSH1 0x40 MLOAD SWAP1 POP SWAP1 JUMP JUMPDEST PUSH1 0x0 DUP1 REVERT JUMPDEST PUSH1 0x0 DUP1 REVERT JUMPDEST PUSH1 0x0 DUP1 REVERT JUMPDEST PUSH1 0x0 PUSH1 0x1F NOT PUSH1 0x1F DUP4 ADD AND SWAP1 POP SWAP2 SWAP1 POP JUMP JUMPDEST PUSH32 0x4E487B7100000000000000000000000000000000000000000000000000000000 PUSH1 0x0 MSTORE PUSH1 0x41 PUSH1 0x4 MSTORE PUSH1 0x24 PUSH1 0x0 REVERT JUMPDEST PUSH2 0x6BE DUP3 PUSH2 0x675 JUMP JUMPDEST DUP2 ADD DUP2 DUP2 LT PUSH8 0xFFFFFFFFFFFFFFFF DUP3 GT OR ISZERO PUSH2 0x6DD JUMPI PUSH2 0x6DC PUSH2 0x686 JUMP JUMPDEST JUMPDEST DUP1 PUSH1 0x40 MSTORE POP POP POP JUMP JUMPDEST PUSH1 0x0 PUSH2 0x6F0 PUSH2 0x65C JUMP JUMPDEST SWAP1 POP PUSH2 0x6FC DUP3 DUP3 PUSH2 0x6B5 JUMP JUMPDEST SWAP2 SWAP1 POP JUMP JUMPDEST PUSH1 0x0 PUSH8 0xFFFFFFFFFFFFFFFF DUP3 GT ISZERO PUSH2 0x71C JUMPI PUSH2 0x71B PUSH2 0x686 JUMP JUMPDEST JUMPDEST PUSH1 0x20 DUP3 MUL SWAP1 POP PUSH1 0x20 DUP2 ADD SWAP1 POP SWAP2 SWAP1 POP JUMP JUMPDEST PUSH1 0x0 DUP1 REVERT JUMPDEST PUSH1 0x0 PUSH1 0xFF DUP3 AND SWAP1 POP SWAP2 SWAP1 POP JUMP JUMPDEST PUSH2 0x748 DUP2 PUSH2 0x732 JUMP JUMPDEST DUP2 EQ PUSH2 0x753 JUMPI PUSH1 0x0 DUP1 REVERT JUMPDEST POP JUMP JUMPDEST PUSH1 0x0 DUP2 CALLDATALOAD SWAP1 POP PUSH2 0x765 DUP2 PUSH2 0x73F JUMP JUMPDEST SWAP3 SWAP2 POP POP JUMP JUMPDEST PUSH1 0x0 PUSH2 0x77E PUSH2 0x779 DUP5 PUSH2 0x701 JUMP JUMPDEST PUSH2 0x6E6 JUMP JUMPDEST SWAP1 POP DUP1 DUP4 DUP3 MSTORE PUSH1 0x20 DUP3 ADD SWAP1 POP PUSH1 0x20 DUP5 MUL DUP4 ADD DUP6 DUP2 GT ISZERO PUSH2 0x7A1 JUMPI PUSH2 0x7A0 PUSH2 0x72D JUMP JUMPDEST JUMPDEST DUP4 JUMPDEST DUP2 DUP2 LT ISZERO PUSH2 0x7CA JUMPI DUP1 PUSH2 0x7B6 DUP9 DUP3 PUSH2 0x756 JUMP JUMPDEST DUP5 MSTORE PUSH1 0x20 DUP5 ADD SWAP4 POP POP PUSH1 0x20 DUP2 ADD SWAP1 POP PUSH2 0x7A3 JUMP JUMPDEST POP POP POP SWAP4 SWAP3 POP POP POP JUMP JUMPDEST PUSH1 0x0 DUP3 PUSH1 0x1F DUP4 ADD SLT PUSH2 0x7E9 JUMPI PUSH2 0x7E8 PUSH2 0x670 JUMP JUMPDEST JUMPDEST DUP2 CALLDATALOAD PUSH2 0x7F9 DUP5 DUP3 PUSH1 0x20 DUP7 ADD PUSH2 0x76B JUMP JUMPDEST SWAP2 POP POP SWAP3 SWAP2 POP POP JUMP JUMPDEST PUSH1 0x0 PUSH1 0x20 DUP3 DUP5 SUB SLT ISZERO PUSH2 0x818 JUMPI PUSH2 0x817 PUSH2 0x666 JUMP JUMPDEST JUMPDEST PUSH1 0x0 DUP3 ADD CALLDATALOAD PUSH8 0xFFFFFFFFFFFFFFFF DUP2 GT ISZERO PUSH2 0x836 JUMPI PUSH2 0x835 PUSH2 0x66B JUMP JUMPDEST JUMPDEST PUSH2 0x842 DUP5 DUP3 DUP6 ADD PUSH2 0x7D4 JUMP JUMPDEST SWAP2 POP POP SWAP3 SWAP2 POP POP JUMP JUMPDEST PUSH1 0x0 DUP2 SWAP1 POP SWAP2 SWAP1 POP JUMP JUMPDEST PUSH2 0x85E DUP2 PUSH2 0x84B JUMP JUMPDEST DUP3 MSTORE POP POP JUMP JUMPDEST PUSH1 0x0 PUSH1 0x20 DUP3 ADD SWAP1 POP PUSH2 0x879 PUSH1 0x0 DUP4 ADD DUP5 PUSH2 0x855 JUMP JUMPDEST SWAP3 SWAP2 POP POP JUMP JUMPDEST PUSH2 0x888 DUP2 PUSH2 0x84B JUMP JUMPDEST DUP2 EQ PUSH2 0x893 JUMPI PUSH1 0x0 DUP1 REVERT JUMPDEST POP JUMP JUMPDEST PUSH1 0x0 DUP2 CALLDATALOAD SWAP1 POP PUSH2 0x8A5 DUP2 PUSH2 0x87F JUMP JUMPDEST SWAP3 SWAP2 POP POP JUMP JUMPDEST PUSH1 0x0 PUSH1 0x20 DUP3 DUP5 SUB SLT ISZERO PUSH2 0x8C1 JUMPI PUSH2 0x8C0 PUSH2 0x666 JUMP JUMPDEST JUMPDEST PUSH1 0x0 PUSH2 0x8CF DUP5 DUP3 DUP6 ADD PUSH2 0x896 JUMP JUMPDEST SWAP2 POP POP SWAP3 SWAP2 POP POP JUMP JUMPDEST PUSH1 0x0 DUP2 MLOAD SWAP1 POP SWAP2 SWAP1 POP JUMP JUMPDEST PUSH1 0x0 DUP3 DUP3 MSTORE PUSH1 0x20 DUP3 ADD SWAP1 POP SWAP3 SWAP2 POP POP JUMP JUMPDEST PUSH1 0x0 DUP2 SWAP1 POP PUSH1 0x20 DUP3 ADD SWAP1 POP SWAP2 SWAP1 POP JUMP JUMPDEST PUSH2 0x90D DUP2 PUSH2 0x732 JUMP JUMPDEST DUP3 MSTORE POP POP JUMP JUMPDEST PUSH1 0x0 PUSH2 0x91F DUP4 DUP4 PUSH2 0x904 JUMP JUMPDEST PUSH1 0x20 DUP4 ADD SWAP1 POP SWAP3 SWAP2 POP POP JUMP JUMPDEST PUSH1 0x0 PUSH1 0x20 DUP3 ADD SWAP1 POP SWAP2 SWAP1 POP JUMP JUMPDEST PUSH1 0x0 PUSH2 0x943 DUP3 PUSH2 0x8D8 JUMP JUMPDEST PUSH2 0x94D DUP2 DUP6 PUSH2 0x8E3 JUMP JUMPDEST SWAP4 POP PUSH2 0x958 DUP4 PUSH2 0x8F4 JUMP JUMPDEST DUP1 PUSH1 0x0 JUMPDEST DUP4 DUP2 LT ISZERO PUSH2 0x989 JUMPI DUP2 MLOAD PUSH2 0x970 DUP9 DUP3 PUSH2 0x913 JUMP JUMPDEST SWAP8 POP PUSH2 0x97B DUP4 PUSH2 0x92B JUMP JUMPDEST SWAP3 POP POP PUSH1 0x1 DUP2 ADD SWAP1 POP PUSH2 0x95C JUMP JUMPDEST POP DUP6 SWAP4 POP POP POP POP SWAP3 SWAP2 POP POP JUMP JUMPDEST PUSH1 0x0 PUSH1 0x20 DUP3 ADD SWAP1 POP DUP2 DUP2 SUB PUSH1 0x0 DUP4 ADD MSTORE PUSH2 0x9B0 DUP2 DUP5 PUSH2 0x938 JUMP JUMPDEST SWAP1 POP SWAP3 SWAP2 POP POP JUMP JUMPDEST PUSH1 0x0 DUP1 PUSH1 0x40 DUP4 DUP6 SUB SLT ISZERO PUSH2 0x9CF JUMPI PUSH2 0x9CE PUSH2 0x666 JUMP JUMPDEST JUMPDEST PUSH1 0x0 PUSH2 0x9DD DUP6 DUP3 DUP7 ADD PUSH2 0x896 JUMP JUMPDEST SWAP3 POP POP PUSH1 0x20 PUSH2 0x9EE DUP6 DUP3 DUP7 ADD PUSH2 0x896 JUMP JUMPDEST SWAP2 POP POP SWAP3 POP SWAP3 SWAP1 POP JUMP JUMPDEST PUSH32 0x4E487B7100000000000000000000000000000000000000000000000000000000 PUSH1 0x0 MSTORE PUSH1 0x11 PUSH1 0x4 MSTORE PUSH1 0x24 PUSH1 0x0 REVERT JUMPDEST PUSH1 0x0 PUSH2 0xA32 DUP3 PUSH2 0x84B JUMP JUMPDEST SWAP2 POP PUSH2 0xA3D DUP4 PUSH2 0x84B JUMP JUMPDEST SWAP3 POP DUP3 DUP3 SUB SWAP1 POP DUP2 DUP2 GT ISZERO PUSH2 0xA55 JUMPI PUSH2 0xA54 PUSH2 0x9F8 JUMP JUMPDEST JUMPDEST SWAP3 SWAP2 POP POP JUMP JUMPDEST PUSH32 0x4E487B7100000000000000000000000000000000000000000000000000000000 PUSH1 0x0 MSTORE PUSH1 0x32 PUSH1 0x4 MSTORE PUSH1 0x24 PUSH1 0x0 REVERT JUMPDEST PUSH1 0x0 PUSH2 0xA95 DUP3 PUSH2 0x84B JUMP JUMPDEST SWAP2 POP PUSH32 0xFFFFFFFFFFFFFFFFFFFFFFFFFFFFFFFFFFFFFFFFFFFFFFFFFFFFFFFFFFFFFFFF DUP3 SUB PUSH2 0xAC7 JUMPI PUSH2 0xAC6 PUSH2 0x9F8 JUMP JUMPDEST JUMPDEST PUSH1 0x1 DUP3 ADD SWAP1 POP SWAP2 SWAP1 POP JUMP JUMPDEST PUSH1 0x0 DUP2 SWAP1 POP SWAP2 SWAP1 POP JUMP JUMPDEST PUSH2 0xAED PUSH2 0xAE8 DUP3 PUSH2 0x84B JUMP JUMPDEST PUSH2 0xAD2 JUMP JUMPDEST DUP3 MSTORE POP POP JUMP JUMPDEST PUSH1 0x0 PUSH2 0xAFF DUP3 DUP10 PUSH2 0xADC JUMP JUMPDEST PUSH1 0x20 DUP3 ADD SWAP2 POP PUSH2 0xB0F DUP3 DUP9 PUSH2 0xADC JUMP JUMPDEST PUSH1 0x20 DUP3 ADD SWAP2 POP PUSH2 0xB1F DUP3 DUP8 PUSH2 0xADC JUMP JUMPDEST PUSH1 0x20 DUP3 ADD SWAP2 POP PUSH2 0xB2F DUP3 DUP7 PUSH2 0xADC JUMP JUMPDEST PUSH1 0x20 DUP3 ADD SWAP2 POP PUSH2 0xB3F DUP3 DUP6 PUSH2 0xADC JUMP JUMPDEST PUSH1 0x20 DUP3 ADD SWAP2 POP PUSH2 0xB4F DUP3 DUP5 PUSH2 0xADC JUMP JUMPDEST PUSH1 0x20 DUP3 ADD SWAP2 POP DUP2 SWAP1 POP SWAP8 SWAP7 POP POP POP POP POP POP POP JUMP JUMPDEST PUSH1 0x0 DUP3 DUP3 MSTORE PUSH1 0x20 DUP3 ADD SWAP1 POP SWAP3 SWAP2 POP POP JUMP JUMPDEST PUSH32 0x72616E646F6D53656564203D2030000000000000000000000000000000000000 PUSH1 0x0 DUP3 ADD MSTORE POP JUMP JUMPDEST PUSH1 0x0 PUSH2 0xBAA PUSH1 0xE DUP4 PUSH2 0xB63 JUMP JUMPDEST SWAP2 POP PUSH2 0xBB5 DUP3 PUSH2 0xB74 JUMP JUMPDEST PUSH1 0x20 DUP3 ADD SWAP1 POP SWAP2 SWAP1 POP JUMP JUMPDEST PUSH1 0x0 PUSH1 0x20 DUP3 ADD SWAP1 POP DUP2 DUP2 SUB PUSH1 0x0 DUP4 ADD MSTORE PUSH2 0xBD9 DUP2 PUSH2 0xB9D JUMP JUMPDEST SWAP1 POP SWAP2 SWAP1 POP JUMP JUMPDEST PUSH1 0x0 PUSH2 0xBEB DUP3 PUSH2 0x732 JUMP JUMPDEST SWAP2 POP PUSH1 0xFF DUP3 SUB PUSH2 0xBFE JUMPI PUSH2 0xBFD PUSH2 0x9F8 JUMP JUMPDEST JUMPDEST PUSH1 0x1 DUP3 ADD SWAP1 POP SWAP2 SWAP1 POP JUMP JUMPDEST PUSH1 0x0 PUSH2 0xC14 DUP3 PUSH2 0x84B JUMP JUMPDEST SWAP2 POP PUSH2 0xC1F DUP4 PUSH2 0x84B JUMP JUMPDEST SWAP3 POP DUP3 DUP3 ADD SWAP1 POP DUP1 DUP3 GT ISZERO PUSH2 0xC37 JUMPI PUSH2 0xC36 PUSH2 0x9F8 JUMP JUMPDEST JUMPDEST SWAP3 SWAP2 POP POP JUMP JUMPDEST PUSH1 0x0 PUSH2 0xC48 DUP3 PUSH2 0x84B JUMP JUMPDEST SWAP2 POP PUSH2 0xC53 DUP4 PUSH2 0x84B JUMP JUMPDEST SWAP3 POP DUP3 DUP3 MUL PUSH2 0xC61 DUP2 PUSH2 0x84B JUMP JUMPDEST SWAP2 POP DUP3 DUP3 DIV DUP5 EQ DUP4 ISZERO OR PUSH2 0xC78 JUMPI PUSH2 0xC77 PUSH2 0x9F8 JUMP JUMPDEST JUMPDEST POP SWAP3 SWAP2 POP POP JUMP JUMPDEST PUSH32 0x4E487B7100000000000000000000000000000000000000000000000000000000 PUSH1 0x0 MSTORE PUSH1 0x12 PUSH1 0x4 MSTORE PUSH1 0x24 PUSH1 0x0 REVERT JUMPDEST PUSH1 0x0 PUSH2 0xCB9 DUP3 PUSH2 0x84B JUMP JUMPDEST SWAP2 POP PUSH2 0xCC4 DUP4 PUSH2 0x84B JUMP JUMPDEST SWAP3 POP DUP3 PUSH2 0xCD4 JUMPI PUSH2 0xCD3 PUSH2 0xC7F JUMP JUMPDEST JUMPDEST DUP3 DUP3 DIV SWAP1 POP SWAP3 SWAP2 POP POP JUMP JUMPDEST PUSH1 0x0 DUP2 PUSH1 0x1 SHR SWAP1 POP SWAP2 SWAP1 POP JUMP JUMPDEST PUSH1 0x0 DUP1 DUP3 SWAP2 POP DUP4 SWAP1 POP JUMPDEST PUSH1 0x1 DUP6 GT ISZERO PUSH2 0xD36 JUMPI DUP1 DUP7 DIV DUP2 GT ISZERO PUSH2 0xD12 JUMPI PUSH2 0xD11 PUSH2 0x9F8 JUMP JUMPDEST JUMPDEST PUSH1 0x1 DUP6 AND ISZERO PUSH2 0xD21 JUMPI DUP1 DUP3 MUL SWAP2 POP JUMPDEST DUP1 DUP2 MUL SWAP1 POP PUSH2 0xD2F DUP6 PUSH2 0xCDF JUMP JUMPDEST SWAP5 POP PUSH2 0xCF6 JUMP JUMPDEST SWAP5 POP SWAP5 SWAP3 POP POP POP JUMP JUMPDEST PUSH1 0x0 DUP3 PUSH2 0xD4F JUMPI PUSH1 0x1 SWAP1 POP PUSH2 0xE0B JUMP JUMPDEST DUP2 PUSH2 0xD5D JUMPI PUSH1 0x0 SWAP1 POP PUSH2 0xE0B JUMP JUMPDEST DUP2 PUSH1 0x1 DUP2 EQ PUSH2 0xD73 JUMPI PUSH1 0x2 DUP2 EQ PUSH2 0xD7D JUMPI PUSH2 0xDAC JUMP JUMPDEST PUSH1 0x1 SWAP2 POP POP PUSH2 0xE0B JUMP JUMPDEST PUSH1 0xFF DUP5 GT ISZERO PUSH2 0xD8F JUMPI PUSH2 0xD8E PUSH2 0x9F8 JUMP JUMPDEST JUMPDEST DUP4 PUSH1 0x2 EXP SWAP2 POP DUP5 DUP3 GT ISZERO PUSH2 0xDA6 JUMPI PUSH2 0xDA5 PUSH2 0x9F8 JUMP JUMPDEST JUMPDEST POP PUSH2 0xE0B JUMP JUMPDEST POP PUSH1 0x20 DUP4 LT PUSH2 0x133 DUP4 LT AND PUSH1 0x4E DUP5 LT PUSH1 0xB DUP5 LT AND OR ISZERO PUSH2 0xDE1 JUMPI DUP3 DUP3 EXP SWAP1 POP DUP4 DUP2 GT ISZERO PUSH2 0xDDC JUMPI PUSH2 0xDDB PUSH2 0x9F8 JUMP JUMPDEST JUMPDEST PUSH2 0xE0B JUMP JUMPDEST PUSH2 0xDEE DUP5 DUP5 DUP5 PUSH1 0x1 PUSH2 0xCEC JUMP JUMPDEST SWAP3 POP SWAP1 POP DUP2 DUP5 DIV DUP2 GT ISZERO PUSH2 0xE05 JUMPI PUSH2 0xE04 PUSH2 0x9F8 JUMP JUMPDEST JUMPDEST DUP2 DUP2 MUL SWAP1 POP JUMPDEST SWAP4 SWAP3 POP POP POP JUMP JUMPDEST PUSH1 0x0 PUSH2 0xE1D DUP3 PUSH2 0x84B JUMP JUMPDEST SWAP2 POP PUSH2 0xE28 DUP4 PUSH2 0x84B JUMP JUMPDEST SWAP3 POP PUSH2 0xE55 PUSH32 0xFFFFFFFFFFFFFFFFFFFFFFFFFFFFFFFFFFFFFFFFFFFFFFFFFFFFFFFFFFFFFFFF DUP5 DUP5 PUSH2 0xD3F JUMP JUMPDEST SWAP1 POP SWAP3 SWAP2 POP POP JUMP JUMPDEST PUSH1 0x0 PUSH2 0xE69 DUP3 DUP6 PUSH2 0xADC JUMP JUMPDEST PUSH1 0x20 DUP3 ADD SWAP2 POP PUSH2 0xE79 DUP3 DUP5 PUSH2 0xADC JUMP JUMPDEST PUSH1 0x20 DUP3 ADD SWAP2 POP DUP2 SWAP1 POP SWAP4 SWAP3 POP POP POP JUMP JUMPDEST PUSH1 0x0 PUSH2 0xE94 DUP3 PUSH2 0x84B JUMP JUMPDEST SWAP2 POP PUSH2 0xE9F DUP4 PUSH2 0x84B JUMP JUMPDEST SWAP3 POP DUP3 PUSH2 0xEAF JUMPI PUSH2 0xEAE PUSH2 0xC7F JUMP JUMPDEST JUMPDEST DUP3 DUP3 MOD SWAP1 POP SWAP3 SWAP2 POP POP JUMP INVALID LOG2 PUSH5 0x6970667358 0x22 SLT KECCAK256 SWAP3 0xC6 0xC5 PUSH17 0x171775EC8E847E929E88BB231367011698 ADDRESS PUSH30 0xE0F9A4073B16F2B1F364736F6C6343000812003300000000000000000000 "
				},
				"gasEstimates": {
					"creation": {
						"codeDepositCost": "764800",
						"executionCost": "137807",
						"totalCost": "902607"
					},
					"external": {
						"breading(uint256,uint256)": "infinite",
						"decode(uint256)": "infinite",
						"encode(uint8[])": "infinite"
					},
					"internal": {
						"get8Bits(uint256,uint256)": "infinite",
						"getRandomId(uint256,uint256,uint8,uint8)": "infinite",
						"getRarity(uint256,uint256,uint256)": "infinite",
						"random(uint256,uint256,uint256,uint256)": "infinite",
						"sliceNumber(uint256,uint256,uint256)": "infinite",
						"totalWeight()": "infinite",
						"weight(uint256)": "2162"
					}
				},
				"methodIdentifiers": {
					"breading(uint256,uint256)": "e4a13fb7",
					"decode(uint256)": "61a76900",
					"encode(uint8[])": "1597ee44"
				}
			},
			"storageLayout": {
				"storage": [
					{
						"astId": 7,
						"contract": "contracts/breedings/BreedingOld.sol:BreedingOld",
						"label": "GlobalSeed",
						"offset": 0,
						"slot": "0",
						"type": "t_uint256"
					},
					{
						"astId": 10,
						"contract": "contracts/breedings/BreedingOld.sol:BreedingOld",
						"label": "randomSideWeight",
						"offset": 0,
						"slot": "1",
						"type": "t_uint256"
					},
					{
						"astId": 13,
						"contract": "contracts/breedings/BreedingOld.sol:BreedingOld",
						"label": "randomIdWeight",
						"offset": 0,
						"slot": "2",
						"type": "t_uint256"
					},
					{
						"astId": 16,
						"contract": "contracts/breedings/BreedingOld.sol:BreedingOld",
						"label": "rarityPercent",
						"offset": 0,
						"slot": "3",
						"type": "t_uint256"
					},
					{
						"astId": 19,
						"contract": "contracts/breedings/BreedingOld.sol:BreedingOld",
						"label": "maxBodyParts",
						"offset": 0,
						"slot": "4",
						"type": "t_uint8"
					},
					{
						"astId": 22,
						"contract": "contracts/breedings/BreedingOld.sol:BreedingOld",
						"label": "maxId",
						"offset": 1,
						"slot": "4",
						"type": "t_uint8"
					}
				],
				"types": {
					"t_uint256": {
						"encoding": "inplace",
						"label": "uint256",
						"numberOfBytes": "32"
					},
					"t_uint8": {
						"encoding": "inplace",
						"label": "uint8",
						"numberOfBytes": "1"
					}
				}
			},
			"userdoc": {
				"kind": "user",
				"methods": {},
				"version": 1
			}
		}
	}
}