{
	"contracts/breedings/Breeding.sol": {
		"Breading": {
			"abi": [
				{
					"anonymous": false,
					"inputs": [
						{
							"indexed": true,
							"internalType": "address",
							"name": "previousOwner",
							"type": "address"
						},
						{
							"indexed": true,
							"internalType": "address",
							"name": "newOwner",
							"type": "address"
						}
					],
					"name": "OwnershipTransferred",
					"type": "event"
				},
				{
					"inputs": [
						{
							"internalType": "uint256",
							"name": "momIn",
							"type": "uint256"
						},
						{
							"internalType": "uint256",
							"name": "dadIn",
							"type": "uint256"
						}
					],
					"name": "breading",
					"outputs": [
						{
							"internalType": "uint256",
							"name": "momOut",
							"type": "uint256"
						},
						{
							"internalType": "uint256",
							"name": "dadOut",
							"type": "uint256"
						},
						{
							"internalType": "uint256",
							"name": "genes",
							"type": "uint256"
						}
					],
					"stateMutability": "nonpayable",
					"type": "function"
				},
				{
					"inputs": [],
					"name": "getBreedingPrice",
					"outputs": [
						{
							"internalType": "uint8",
							"name": "",
							"type": "uint8"
						}
					],
					"stateMutability": "view",
					"type": "function"
				},
				{
					"inputs": [],
					"name": "getGlobalSeed",
					"outputs": [
						{
							"internalType": "uint256",
							"name": "",
							"type": "uint256"
						}
					],
					"stateMutability": "view",
					"type": "function"
				},
				{
					"inputs": [],
					"name": "getMaxArcane",
					"outputs": [
						{
							"internalType": "uint256",
							"name": "",
							"type": "uint256"
						}
					],
					"stateMutability": "view",
					"type": "function"
				},
				{
					"inputs": [],
					"name": "getMaxId",
					"outputs": [
						{
							"internalType": "uint256",
							"name": "",
							"type": "uint256"
						}
					],
					"stateMutability": "view",
					"type": "function"
				},
				{
					"inputs": [],
					"name": "getMinArcane",
					"outputs": [
						{
							"internalType": "uint256",
							"name": "",
							"type": "uint256"
						}
					],
					"stateMutability": "view",
					"type": "function"
				},
				{
					"inputs": [],
					"name": "getMinId",
					"outputs": [
						{
							"internalType": "uint256",
							"name": "",
							"type": "uint256"
						}
					],
					"stateMutability": "view",
					"type": "function"
				},
				{
					"inputs": [],
					"name": "getRandomPercent",
					"outputs": [
						{
							"internalType": "uint256",
							"name": "",
							"type": "uint256"
						}
					],
					"stateMutability": "view",
					"type": "function"
				},
				{
					"inputs": [],
					"name": "owner",
					"outputs": [
						{
							"internalType": "address",
							"name": "",
							"type": "address"
						}
					],
					"stateMutability": "view",
					"type": "function"
				},
				{
					"inputs": [],
					"name": "renounceOwnership",
					"outputs": [],
					"stateMutability": "nonpayable",
					"type": "function"
				},
				{
					"inputs": [
						{
							"internalType": "uint8",
							"name": "price",
							"type": "uint8"
						}
					],
					"name": "setBreedingPrice",
					"outputs": [],
					"stateMutability": "nonpayable",
					"type": "function"
				},
				{
					"inputs": [
						{
							"internalType": "uint256",
							"name": "value",
							"type": "uint256"
						}
					],
					"name": "setGlobalSeed",
					"outputs": [],
					"stateMutability": "nonpayable",
					"type": "function"
				},
				{
					"inputs": [
						{
							"internalType": "uint256",
							"name": "value",
							"type": "uint256"
						}
					],
					"name": "setMaxArcane",
					"outputs": [],
					"stateMutability": "nonpayable",
					"type": "function"
				},
				{
					"inputs": [
						{
							"internalType": "uint256",
							"name": "value",
							"type": "uint256"
						}
					],
					"name": "setMaxId",
					"outputs": [],
					"stateMutability": "nonpayable",
					"type": "function"
				},
				{
					"inputs": [
						{
							"internalType": "uint256",
							"name": "value",
							"type": "uint256"
						}
					],
					"name": "setMinArcane",
					"outputs": [],
					"stateMutability": "nonpayable",
					"type": "function"
				},
				{
					"inputs": [
						{
							"internalType": "uint256",
							"name": "value",
							"type": "uint256"
						}
					],
					"name": "setMinId",
					"outputs": [],
					"stateMutability": "nonpayable",
					"type": "function"
				},
				{
					"inputs": [
						{
							"internalType": "uint256",
							"name": "value",
							"type": "uint256"
						}
					],
					"name": "setRandomPercent",
					"outputs": [],
					"stateMutability": "nonpayable",
					"type": "function"
				},
				{
					"inputs": [
						{
							"internalType": "address",
							"name": "newOwner",
							"type": "address"
						}
					],
					"name": "transferOwnership",
					"outputs": [],
					"stateMutability": "nonpayable",
					"type": "function"
				}
			],
			"devdoc": {
				"kind": "dev",
				"methods": {
					"breading(uint256,uint256)": {
						"details": "given genes of token 1 & 2, return a genetic combination - may have a random factor",
						"params": {
							"dadIn": "genes of dad",
							"momIn": "genes of mom"
						},
						"returns": {
							"dadOut": "modify dad genes",
							"genes": "the genes that are supposed to be passed down the child",
							"momOut": "modify mom genes"
						}
					},
					"owner()": {
						"details": "Returns the address of the current owner."
					},
					"renounceOwnership()": {
						"details": "Leaves the contract without owner. It will not be possible to call `onlyOwner` functions anymore. Can only be called by the current owner. NOTE: Renouncing ownership will leave the contract without an owner, thereby removing any functionality that is only available to the owner."
					},
					"transferOwnership(address)": {
						"details": "Transfers ownership of the contract to a new account (`newOwner`). Can only be called by the current owner."
					}
				},
				"version": 1
			},
			"evm": {
				"assembly": "    /* \"contracts/breedings/Breeding.sol\":195:6504  contract Breading is Ownable, IBreeding {... */\n  mstore(0x40, 0x80)\n    /* \"contracts/breedings/Breeding.sol\":547:548  1 */\n  0x01\n    /* \"contracts/breedings/Breeding.sol\":510:548  uint8 private _breedingChargePrice = 1 */\n  0x00\n  exp(0x0100, 0x14)\n  dup2\n  sload\n  dup2\n  0xff\n  mul\n  not\n  and\n  swap1\n  dup4\n  0xff\n  and\n  mul\n  or\n  swap1\n  sstore\n  pop\n    /* \"contracts/breedings/Breeding.sol\":584:585  1 */\n  0x01\n    /* \"contracts/breedings/Breeding.sol\":554:585  uint256 private _globalSeed = 1 */\n  dup1\n  sstore\n    /* \"contracts/breedings/Breeding.sol\":624:625  5 */\n  0x05\n    /* \"contracts/breedings/Breeding.sol\":591:625  uint256 private _randomPercent = 5 */\n  0x02\n  sstore\n    /* \"contracts/breedings/Breeding.sol\":660:661  1 */\n  0x01\n    /* \"contracts/breedings/Breeding.sol\":631:661  uint256 private _minArcane = 1 */\n  0x03\n  sstore\n    /* \"contracts/breedings/Breeding.sol\":696:698  30 */\n  0x1e\n    /* \"contracts/breedings/Breeding.sol\":667:698  uint256 private _maxArcane = 30 */\n  0x04\n  sstore\n    /* \"contracts/breedings/Breeding.sol\":729:730  1 */\n  0x01\n    /* \"contracts/breedings/Breeding.sol\":704:730  uint256 private _minId = 1 */\n  0x05\n  sstore\n    /* \"contracts/breedings/Breeding.sol\":761:763  36 */\n  0x24\n    /* \"contracts/breedings/Breeding.sol\":736:763  uint256 private _maxId = 36 */\n  0x06\n  sstore\n    /* \"contracts/breedings/Breeding.sol\":195:6504  contract Breading is Ownable, IBreeding {... */\n  callvalue\n  dup1\n  iszero\n  tag_1\n  jumpi\n  0x00\n  dup1\n  revert\ntag_1:\n  pop\n    /* \"@openzeppelin/contracts/access/Ownable.sol\":936:968  _transferOwnership(_msgSender()) */\n  tag_4\n    /* \"@openzeppelin/contracts/access/Ownable.sol\":955:967  _msgSender() */\n  tag_5\n    /* \"@openzeppelin/contracts/access/Ownable.sol\":955:965  _msgSender */\n  shl(0x20, tag_6)\n    /* \"@openzeppelin/contracts/access/Ownable.sol\":955:967  _msgSender() */\n  0x20\n  shr\n  jump\t// in\ntag_5:\n    /* \"@openzeppelin/contracts/access/Ownable.sol\":936:954  _transferOwnership */\n  shl(0x20, tag_7)\n    /* \"@openzeppelin/contracts/access/Ownable.sol\":936:968  _transferOwnership(_msgSender()) */\n  0x20\n  shr\n  jump\t// in\ntag_4:\n    /* \"contracts/breedings/Breeding.sol\":195:6504  contract Breading is Ownable, IBreeding {... */\n  jump(tag_8)\n    /* \"@openzeppelin/contracts/utils/Context.sol\":640:736  function _msgSender() internal view virtual returns (address) {... */\ntag_6:\n    /* \"@openzeppelin/contracts/utils/Context.sol\":693:700  address */\n  0x00\n    /* \"@openzeppelin/contracts/utils/Context.sol\":719:729  msg.sender */\n  caller\n    /* \"@openzeppelin/contracts/utils/Context.sol\":712:729  return msg.sender */\n  swap1\n  pop\n    /* \"@openzeppelin/contracts/utils/Context.sol\":640:736  function _msgSender() internal view virtual returns (address) {... */\n  swap1\n  jump\t// out\n    /* \"@openzeppelin/contracts/access/Ownable.sol\":2433:2620  function _transferOwnership(address newOwner) internal virtual {... */\ntag_7:\n    /* \"@openzeppelin/contracts/access/Ownable.sol\":2506:2522  address oldOwner */\n  0x00\n    /* \"@openzeppelin/contracts/access/Ownable.sol\":2525:2531  _owner */\n  dup1\n  0x00\n  swap1\n  sload\n  swap1\n  0x0100\n  exp\n  swap1\n  div\n  0xffffffffffffffffffffffffffffffffffffffff\n  and\n    /* \"@openzeppelin/contracts/access/Ownable.sol\":2506:2531  address oldOwner = _owner */\n  swap1\n  pop\n    /* \"@openzeppelin/contracts/access/Ownable.sol\":2550:2558  newOwner */\n  dup2\n    /* \"@openzeppelin/contracts/access/Ownable.sol\":2541:2547  _owner */\n  0x00\n  dup1\n    /* \"@openzeppelin/contracts/access/Ownable.sol\":2541:2558  _owner = newOwner */\n  0x0100\n  exp\n  dup2\n  sload\n  dup2\n  0xffffffffffffffffffffffffffffffffffffffff\n  mul\n  not\n  and\n  swap1\n  dup4\n  0xffffffffffffffffffffffffffffffffffffffff\n  and\n  mul\n  or\n  swap1\n  sstore\n  pop\n    /* \"@openzeppelin/contracts/access/Ownable.sol\":2604:2612  newOwner */\n  dup2\n    /* \"@openzeppelin/contracts/access/Ownable.sol\":2573:2613  OwnershipTransferred(oldOwner, newOwner) */\n  0xffffffffffffffffffffffffffffffffffffffff\n  and\n    /* \"@openzeppelin/contracts/access/Ownable.sol\":2594:2602  oldOwner */\n  dup2\n    /* \"@openzeppelin/contracts/access/Ownable.sol\":2573:2613  OwnershipTransferred(oldOwner, newOwner) */\n  0xffffffffffffffffffffffffffffffffffffffff\n  and\n  0x8be0079c531659141344cd1fd0a4f28419497f9722a3daafe3b4186f6b6457e0\n  mload(0x40)\n  mload(0x40)\n  dup1\n  swap2\n  sub\n  swap1\n  log3\n    /* \"@openzeppelin/contracts/access/Ownable.sol\":2496:2620  {... */\n  pop\n    /* \"@openzeppelin/contracts/access/Ownable.sol\":2433:2620  function _transferOwnership(address newOwner) internal virtual {... */\n  pop\n  jump\t// out\n    /* \"contracts/breedings/Breeding.sol\":195:6504  contract Breading is Ownable, IBreeding {... */\ntag_8:\n  dataSize(sub_0)\n  dup1\n  dataOffset(sub_0)\n  0x00\n  codecopy\n  0x00\n  return\nstop\n\nsub_0: assembly {\n        /* \"contracts/breedings/Breeding.sol\":195:6504  contract Breading is Ownable, IBreeding {... */\n      mstore(0x40, 0x80)\n      callvalue\n      dup1\n      iszero\n      tag_1\n      jumpi\n      0x00\n      dup1\n      revert\n    tag_1:\n      pop\n      jumpi(tag_2, lt(calldatasize, 0x04))\n      shr(0xe0, calldataload(0x00))\n      dup1\n      0x8da5cb5b\n      gt\n      tag_21\n      jumpi\n      dup1\n      0xe238b8c6\n      gt\n      tag_22\n      jumpi\n      dup1\n      0xe238b8c6\n      eq\n      tag_16\n      jumpi\n      dup1\n      0xe2e3a0db\n      eq\n      tag_17\n      jumpi\n      dup1\n      0xe4a13fb7\n      eq\n      tag_18\n      jumpi\n      dup1\n      0xeb4b0e51\n      eq\n      tag_19\n      jumpi\n      dup1\n      0xf2fde38b\n      eq\n      tag_20\n      jumpi\n      jump(tag_2)\n    tag_22:\n      dup1\n      0x8da5cb5b\n      eq\n      tag_12\n      jumpi\n      dup1\n      0x91b66725\n      eq\n      tag_13\n      jumpi\n      dup1\n      0xd477a712\n      eq\n      tag_14\n      jumpi\n      dup1\n      0xde405b18\n      eq\n      tag_15\n      jumpi\n      jump(tag_2)\n    tag_21:\n      dup1\n      0x32099cc4\n      gt\n      tag_23\n      jumpi\n      dup1\n      0x32099cc4\n      eq\n      tag_7\n      jumpi\n      dup1\n      0x615ebe28\n      eq\n      tag_8\n      jumpi\n      dup1\n      0x715018a6\n      eq\n      tag_9\n      jumpi\n      dup1\n      0x772121fe\n      eq\n      tag_10\n      jumpi\n      dup1\n      0x878cf3a6\n      eq\n      tag_11\n      jumpi\n      jump(tag_2)\n    tag_23:\n      dup1\n      0x02aff378\n      eq\n      tag_3\n      jumpi\n      dup1\n      0x054fee6a\n      eq\n      tag_4\n      jumpi\n      dup1\n      0x16bd8646\n      eq\n      tag_5\n      jumpi\n      dup1\n      0x1bb39f84\n      eq\n      tag_6\n      jumpi\n    tag_2:\n      0x00\n      dup1\n      revert\n        /* \"contracts/breedings/Breeding.sol\":3843:3934  function setGlobalSeed(uint256 value) public onlyOwner {... */\n    tag_3:\n      tag_24\n      0x04\n      dup1\n      calldatasize\n      sub\n      dup2\n      add\n      swap1\n      tag_25\n      swap2\n      swap1\n      tag_26\n      jump\t// in\n    tag_25:\n      tag_27\n      jump\t// in\n    tag_24:\n      stop\n        /* \"contracts/breedings/Breeding.sol\":4651:4748  function setRandomPercent(uint256 value) public onlyOwner {... */\n    tag_4:\n      tag_28\n      0x04\n      dup1\n      calldatasize\n      sub\n      dup2\n      add\n      swap1\n      tag_29\n      swap2\n      swap1\n      tag_26\n      jump\t// in\n    tag_29:\n      tag_30\n      jump\t// in\n    tag_28:\n      stop\n        /* \"contracts/breedings/Breeding.sol\":5167:5248  function setMaxId(uint256 value) public onlyOwner {... */\n    tag_5:\n      tag_31\n      0x04\n      dup1\n      calldatasize\n      sub\n      dup2\n      add\n      swap1\n      tag_32\n      swap2\n      swap1\n      tag_26\n      jump\t// in\n    tag_32:\n      tag_33\n      jump\t// in\n    tag_31:\n      stop\n        /* \"contracts/breedings/Breeding.sol\":4377:4466  function setMaxArcane(uint256 value) public onlyOwner {... */\n    tag_6:\n      tag_34\n      0x04\n      dup1\n      calldatasize\n      sub\n      dup2\n      add\n      swap1\n      tag_35\n      swap2\n      swap1\n      tag_26\n      jump\t// in\n    tag_35:\n      tag_36\n      jump\t// in\n    tag_34:\n      stop\n        /* \"contracts/breedings/Breeding.sol\":4017:4105  function getMinArcane() public view returns (uint256) {... */\n    tag_7:\n      tag_37\n      tag_38\n      jump\t// in\n    tag_37:\n      mload(0x40)\n      tag_39\n      swap2\n      swap1\n      tag_40\n      jump\t// in\n    tag_39:\n      mload(0x40)\n      dup1\n      swap2\n      sub\n      swap1\n      return\n        /* \"contracts/breedings/Breeding.sol\":4283:4371  function getMaxArcane() public view returns (uint256) {... */\n    tag_8:\n      tag_41\n      tag_42\n      jump\t// in\n    tag_41:\n      mload(0x40)\n      tag_43\n      swap2\n      swap1\n      tag_40\n      jump\t// in\n    tag_43:\n      mload(0x40)\n      dup1\n      swap2\n      sub\n      swap1\n      return\n        /* \"@openzeppelin/contracts/access/Ownable.sol\":1831:1932  function renounceOwnership() public virtual onlyOwner {... */\n    tag_9:\n      tag_44\n      tag_45\n      jump\t// in\n    tag_44:\n      stop\n        /* \"contracts/breedings/Breeding.sol\":5331:5431  function getBreedingPrice() public view returns (uint8) {... */\n    tag_10:\n      tag_46\n      tag_47\n      jump\t// in\n    tag_46:\n      mload(0x40)\n      tag_48\n      swap2\n      swap1\n      tag_49\n      jump\t// in\n    tag_48:\n      mload(0x40)\n      dup1\n      swap2\n      sub\n      swap1\n      return\n        /* \"contracts/breedings/Breeding.sol\":3747:3837  function getGlobalSeed() public view returns (uint256) {... */\n    tag_11:\n      tag_50\n      tag_51\n      jump\t// in\n    tag_50:\n      mload(0x40)\n      tag_52\n      swap2\n      swap1\n      tag_40\n      jump\t// in\n    tag_52:\n      mload(0x40)\n      dup1\n      swap2\n      sub\n      swap1\n      return\n        /* \"@openzeppelin/contracts/access/Ownable.sol\":1201:1286  function owner() public view virtual returns (address) {... */\n    tag_12:\n      tag_53\n      tag_54\n      jump\t// in\n    tag_53:\n      mload(0x40)\n      tag_55\n      swap2\n      swap1\n      tag_56\n      jump\t// in\n    tag_55:\n      mload(0x40)\n      dup1\n      swap2\n      sub\n      swap1\n      return\n        /* \"contracts/breedings/Breeding.sol\":4111:4200  function setMinArcane(uint256 value) public onlyOwner {... */\n    tag_13:\n      tag_57\n      0x04\n      dup1\n      calldatasize\n      sub\n      dup2\n      add\n      swap1\n      tag_58\n      swap2\n      swap1\n      tag_26\n      jump\t// in\n    tag_58:\n      tag_59\n      jump\t// in\n    tag_57:\n      stop\n        /* \"contracts/breedings/Breeding.sol\":5081:5161  function getMaxId() public view returns (uint256) {... */\n    tag_14:\n      tag_60\n      tag_61\n      jump\t// in\n    tag_60:\n      mload(0x40)\n      tag_62\n      swap2\n      swap1\n      tag_40\n      jump\t// in\n    tag_62:\n      mload(0x40)\n      dup1\n      swap2\n      sub\n      swap1\n      return\n        /* \"contracts/breedings/Breeding.sol\":5437:5538  function setBreedingPrice(uint8 price) public onlyOwner {... */\n    tag_15:\n      tag_63\n      0x04\n      dup1\n      calldatasize\n      sub\n      dup2\n      add\n      swap1\n      tag_64\n      swap2\n      swap1\n      tag_65\n      jump\t// in\n    tag_64:\n      tag_66\n      jump\t// in\n    tag_63:\n      stop\n        /* \"contracts/breedings/Breeding.sol\":4549:4645  function getRandomPercent() public view returns (uint256) {... */\n    tag_16:\n      tag_67\n      tag_68\n      jump\t// in\n    tag_67:\n      mload(0x40)\n      tag_69\n      swap2\n      swap1\n      tag_40\n      jump\t// in\n    tag_69:\n      mload(0x40)\n      dup1\n      swap2\n      sub\n      swap1\n      return\n        /* \"contracts/breedings/Breeding.sol\":4917:4998  function setMinId(uint256 value) public onlyOwner {... */\n    tag_17:\n      tag_70\n      0x04\n      dup1\n      calldatasize\n      sub\n      dup2\n      add\n      swap1\n      tag_71\n      swap2\n      swap1\n      tag_26\n      jump\t// in\n    tag_71:\n      tag_72\n      jump\t// in\n    tag_70:\n      stop\n        /* \"contracts/breedings/Breeding.sol\":770:3571  function breading(uint256 momIn, uint256 dadIn)... */\n    tag_18:\n      tag_73\n      0x04\n      dup1\n      calldatasize\n      sub\n      dup2\n      add\n      swap1\n      tag_74\n      swap2\n      swap1\n      tag_75\n      jump\t// in\n    tag_74:\n      tag_76\n      jump\t// in\n    tag_73:\n      mload(0x40)\n      tag_77\n      swap4\n      swap3\n      swap2\n      swap1\n      tag_78\n      jump\t// in\n    tag_77:\n      mload(0x40)\n      dup1\n      swap2\n      sub\n      swap1\n      return\n        /* \"contracts/breedings/Breeding.sol\":4831:4911  function getMinId() public view returns (uint256) {... */\n    tag_19:\n      tag_79\n      tag_80\n      jump\t// in\n    tag_79:\n      mload(0x40)\n      tag_81\n      swap2\n      swap1\n      tag_40\n      jump\t// in\n    tag_81:\n      mload(0x40)\n      dup1\n      swap2\n      sub\n      swap1\n      return\n        /* \"@openzeppelin/contracts/access/Ownable.sol\":2081:2279  function transferOwnership(address newOwner) public virtual onlyOwner {... */\n    tag_20:\n      tag_82\n      0x04\n      dup1\n      calldatasize\n      sub\n      dup2\n      add\n      swap1\n      tag_83\n      swap2\n      swap1\n      tag_84\n      jump\t// in\n    tag_83:\n      tag_85\n      jump\t// in\n    tag_82:\n      stop\n        /* \"contracts/breedings/Breeding.sol\":3843:3934  function setGlobalSeed(uint256 value) public onlyOwner {... */\n    tag_27:\n        /* \"@openzeppelin/contracts/access/Ownable.sol\":1094:1107  _checkOwner() */\n      tag_87\n        /* \"@openzeppelin/contracts/access/Ownable.sol\":1094:1105  _checkOwner */\n      tag_88\n        /* \"@openzeppelin/contracts/access/Ownable.sol\":1094:1107  _checkOwner() */\n      jump\t// in\n    tag_87:\n        /* \"contracts/breedings/Breeding.sol\":3922:3927  value */\n      dup1\n        /* \"contracts/breedings/Breeding.sol\":3908:3919  _globalSeed */\n      0x01\n        /* \"contracts/breedings/Breeding.sol\":3908:3927  _globalSeed = value */\n      dup2\n      swap1\n      sstore\n      pop\n        /* \"contracts/breedings/Breeding.sol\":3843:3934  function setGlobalSeed(uint256 value) public onlyOwner {... */\n      pop\n      jump\t// out\n        /* \"contracts/breedings/Breeding.sol\":4651:4748  function setRandomPercent(uint256 value) public onlyOwner {... */\n    tag_30:\n        /* \"@openzeppelin/contracts/access/Ownable.sol\":1094:1107  _checkOwner() */\n      tag_91\n        /* \"@openzeppelin/contracts/access/Ownable.sol\":1094:1105  _checkOwner */\n      tag_88\n        /* \"@openzeppelin/contracts/access/Ownable.sol\":1094:1107  _checkOwner() */\n      jump\t// in\n    tag_91:\n        /* \"contracts/breedings/Breeding.sol\":4736:4741  value */\n      dup1\n        /* \"contracts/breedings/Breeding.sol\":4719:4733  _randomPercent */\n      0x02\n        /* \"contracts/breedings/Breeding.sol\":4719:4741  _randomPercent = value */\n      dup2\n      swap1\n      sstore\n      pop\n        /* \"contracts/breedings/Breeding.sol\":4651:4748  function setRandomPercent(uint256 value) public onlyOwner {... */\n      pop\n      jump\t// out\n        /* \"contracts/breedings/Breeding.sol\":5167:5248  function setMaxId(uint256 value) public onlyOwner {... */\n    tag_33:\n        /* \"@openzeppelin/contracts/access/Ownable.sol\":1094:1107  _checkOwner() */\n      tag_94\n        /* \"@openzeppelin/contracts/access/Ownable.sol\":1094:1105  _checkOwner */\n      tag_88\n        /* \"@openzeppelin/contracts/access/Ownable.sol\":1094:1107  _checkOwner() */\n      jump\t// in\n    tag_94:\n        /* \"contracts/breedings/Breeding.sol\":5236:5241  value */\n      dup1\n        /* \"contracts/breedings/Breeding.sol\":5227:5233  _maxId */\n      0x06\n        /* \"contracts/breedings/Breeding.sol\":5227:5241  _maxId = value */\n      dup2\n      swap1\n      sstore\n      pop\n        /* \"contracts/breedings/Breeding.sol\":5167:5248  function setMaxId(uint256 value) public onlyOwner {... */\n      pop\n      jump\t// out\n        /* \"contracts/breedings/Breeding.sol\":4377:4466  function setMaxArcane(uint256 value) public onlyOwner {... */\n    tag_36:\n        /* \"@openzeppelin/contracts/access/Ownable.sol\":1094:1107  _checkOwner() */\n      tag_97\n        /* \"@openzeppelin/contracts/access/Ownable.sol\":1094:1105  _checkOwner */\n      tag_88\n        /* \"@openzeppelin/contracts/access/Ownable.sol\":1094:1107  _checkOwner() */\n      jump\t// in\n    tag_97:\n        /* \"contracts/breedings/Breeding.sol\":4454:4459  value */\n      dup1\n        /* \"contracts/breedings/Breeding.sol\":4441:4451  _maxArcane */\n      0x04\n        /* \"contracts/breedings/Breeding.sol\":4441:4459  _maxArcane = value */\n      dup2\n      swap1\n      sstore\n      pop\n        /* \"contracts/breedings/Breeding.sol\":4377:4466  function setMaxArcane(uint256 value) public onlyOwner {... */\n      pop\n      jump\t// out\n        /* \"contracts/breedings/Breeding.sol\":4017:4105  function getMinArcane() public view returns (uint256) {... */\n    tag_38:\n        /* \"contracts/breedings/Breeding.sol\":4062:4069  uint256 */\n      0x00\n        /* \"contracts/breedings/Breeding.sol\":4088:4098  _minArcane */\n      sload(0x03)\n        /* \"contracts/breedings/Breeding.sol\":4081:4098  return _minArcane */\n      swap1\n      pop\n        /* \"contracts/breedings/Breeding.sol\":4017:4105  function getMinArcane() public view returns (uint256) {... */\n      swap1\n      jump\t// out\n        /* \"contracts/breedings/Breeding.sol\":4283:4371  function getMaxArcane() public view returns (uint256) {... */\n    tag_42:\n        /* \"contracts/breedings/Breeding.sol\":4328:4335  uint256 */\n      0x00\n        /* \"contracts/breedings/Breeding.sol\":4354:4364  _maxArcane */\n      sload(0x04)\n        /* \"contracts/breedings/Breeding.sol\":4347:4364  return _maxArcane */\n      swap1\n      pop\n        /* \"contracts/breedings/Breeding.sol\":4283:4371  function getMaxArcane() public view returns (uint256) {... */\n      swap1\n      jump\t// out\n        /* \"@openzeppelin/contracts/access/Ownable.sol\":1831:1932  function renounceOwnership() public virtual onlyOwner {... */\n    tag_45:\n        /* \"@openzeppelin/contracts/access/Ownable.sol\":1094:1107  _checkOwner() */\n      tag_102\n        /* \"@openzeppelin/contracts/access/Ownable.sol\":1094:1105  _checkOwner */\n      tag_88\n        /* \"@openzeppelin/contracts/access/Ownable.sol\":1094:1107  _checkOwner() */\n      jump\t// in\n    tag_102:\n        /* \"@openzeppelin/contracts/access/Ownable.sol\":1895:1925  _transferOwnership(address(0)) */\n      tag_104\n        /* \"@openzeppelin/contracts/access/Ownable.sol\":1922:1923  0 */\n      0x00\n        /* \"@openzeppelin/contracts/access/Ownable.sol\":1895:1913  _transferOwnership */\n      tag_105\n        /* \"@openzeppelin/contracts/access/Ownable.sol\":1895:1925  _transferOwnership(address(0)) */\n      jump\t// in\n    tag_104:\n        /* \"@openzeppelin/contracts/access/Ownable.sol\":1831:1932  function renounceOwnership() public virtual onlyOwner {... */\n      jump\t// out\n        /* \"contracts/breedings/Breeding.sol\":5331:5431  function getBreedingPrice() public view returns (uint8) {... */\n    tag_47:\n        /* \"contracts/breedings/Breeding.sol\":5380:5385  uint8 */\n      0x00\n        /* \"contracts/breedings/Breeding.sol\":5404:5424  _breedingChargePrice */\n      dup1\n      0x14\n      swap1\n      sload\n      swap1\n      0x0100\n      exp\n      swap1\n      div\n      0xff\n      and\n        /* \"contracts/breedings/Breeding.sol\":5397:5424  return _breedingChargePrice */\n      swap1\n      pop\n        /* \"contracts/breedings/Breeding.sol\":5331:5431  function getBreedingPrice() public view returns (uint8) {... */\n      swap1\n      jump\t// out\n        /* \"contracts/breedings/Breeding.sol\":3747:3837  function getGlobalSeed() public view returns (uint256) {... */\n    tag_51:\n        /* \"contracts/breedings/Breeding.sol\":3793:3800  uint256 */\n      0x00\n        /* \"contracts/breedings/Breeding.sol\":3819:3830  _globalSeed */\n      sload(0x01)\n        /* \"contracts/breedings/Breeding.sol\":3812:3830  return _globalSeed */\n      swap1\n      pop\n        /* \"contracts/breedings/Breeding.sol\":3747:3837  function getGlobalSeed() public view returns (uint256) {... */\n      swap1\n      jump\t// out\n        /* \"@openzeppelin/contracts/access/Ownable.sol\":1201:1286  function owner() public view virtual returns (address) {... */\n    tag_54:\n        /* \"@openzeppelin/contracts/access/Ownable.sol\":1247:1254  address */\n      0x00\n        /* \"@openzeppelin/contracts/access/Ownable.sol\":1273:1279  _owner */\n      dup1\n      0x00\n      swap1\n      sload\n      swap1\n      0x0100\n      exp\n      swap1\n      div\n      0xffffffffffffffffffffffffffffffffffffffff\n      and\n        /* \"@openzeppelin/contracts/access/Ownable.sol\":1266:1279  return _owner */\n      swap1\n      pop\n        /* \"@openzeppelin/contracts/access/Ownable.sol\":1201:1286  function owner() public view virtual returns (address) {... */\n      swap1\n      jump\t// out\n        /* \"contracts/breedings/Breeding.sol\":4111:4200  function setMinArcane(uint256 value) public onlyOwner {... */\n    tag_59:\n        /* \"@openzeppelin/contracts/access/Ownable.sol\":1094:1107  _checkOwner() */\n      tag_110\n        /* \"@openzeppelin/contracts/access/Ownable.sol\":1094:1105  _checkOwner */\n      tag_88\n        /* \"@openzeppelin/contracts/access/Ownable.sol\":1094:1107  _checkOwner() */\n      jump\t// in\n    tag_110:\n        /* \"contracts/breedings/Breeding.sol\":4188:4193  value */\n      dup1\n        /* \"contracts/breedings/Breeding.sol\":4175:4185  _minArcane */\n      0x03\n        /* \"contracts/breedings/Breeding.sol\":4175:4193  _minArcane = value */\n      dup2\n      swap1\n      sstore\n      pop\n        /* \"contracts/breedings/Breeding.sol\":4111:4200  function setMinArcane(uint256 value) public onlyOwner {... */\n      pop\n      jump\t// out\n        /* \"contracts/breedings/Breeding.sol\":5081:5161  function getMaxId() public view returns (uint256) {... */\n    tag_61:\n        /* \"contracts/breedings/Breeding.sol\":5122:5129  uint256 */\n      0x00\n        /* \"contracts/breedings/Breeding.sol\":5148:5154  _maxId */\n      sload(0x06)\n        /* \"contracts/breedings/Breeding.sol\":5141:5154  return _maxId */\n      swap1\n      pop\n        /* \"contracts/breedings/Breeding.sol\":5081:5161  function getMaxId() public view returns (uint256) {... */\n      swap1\n      jump\t// out\n        /* \"contracts/breedings/Breeding.sol\":5437:5538  function setBreedingPrice(uint8 price) public onlyOwner {... */\n    tag_66:\n        /* \"@openzeppelin/contracts/access/Ownable.sol\":1094:1107  _checkOwner() */\n      tag_114\n        /* \"@openzeppelin/contracts/access/Ownable.sol\":1094:1105  _checkOwner */\n      tag_88\n        /* \"@openzeppelin/contracts/access/Ownable.sol\":1094:1107  _checkOwner() */\n      jump\t// in\n    tag_114:\n        /* \"contracts/breedings/Breeding.sol\":5526:5531  price */\n      dup1\n        /* \"contracts/breedings/Breeding.sol\":5503:5523  _breedingChargePrice */\n      0x00\n      0x14\n        /* \"contracts/breedings/Breeding.sol\":5503:5531  _breedingChargePrice = price */\n      0x0100\n      exp\n      dup2\n      sload\n      dup2\n      0xff\n      mul\n      not\n      and\n      swap1\n      dup4\n      0xff\n      and\n      mul\n      or\n      swap1\n      sstore\n      pop\n        /* \"contracts/breedings/Breeding.sol\":5437:5538  function setBreedingPrice(uint8 price) public onlyOwner {... */\n      pop\n      jump\t// out\n        /* \"contracts/breedings/Breeding.sol\":4549:4645  function getRandomPercent() public view returns (uint256) {... */\n    tag_68:\n        /* \"contracts/breedings/Breeding.sol\":4598:4605  uint256 */\n      0x00\n        /* \"contracts/breedings/Breeding.sol\":4624:4638  _randomPercent */\n      sload(0x02)\n        /* \"contracts/breedings/Breeding.sol\":4617:4638  return _randomPercent */\n      swap1\n      pop\n        /* \"contracts/breedings/Breeding.sol\":4549:4645  function getRandomPercent() public view returns (uint256) {... */\n      swap1\n      jump\t// out\n        /* \"contracts/breedings/Breeding.sol\":4917:4998  function setMinId(uint256 value) public onlyOwner {... */\n    tag_72:\n        /* \"@openzeppelin/contracts/access/Ownable.sol\":1094:1107  _checkOwner() */\n      tag_118\n        /* \"@openzeppelin/contracts/access/Ownable.sol\":1094:1105  _checkOwner */\n      tag_88\n        /* \"@openzeppelin/contracts/access/Ownable.sol\":1094:1107  _checkOwner() */\n      jump\t// in\n    tag_118:\n        /* \"contracts/breedings/Breeding.sol\":4986:4991  value */\n      dup1\n        /* \"contracts/breedings/Breeding.sol\":4977:4983  _minId */\n      0x05\n        /* \"contracts/breedings/Breeding.sol\":4977:4991  _minId = value */\n      dup2\n      swap1\n      sstore\n      pop\n        /* \"contracts/breedings/Breeding.sol\":4917:4998  function setMinId(uint256 value) public onlyOwner {... */\n      pop\n      jump\t// out\n        /* \"contracts/breedings/Breeding.sol\":770:3571  function breading(uint256 momIn, uint256 dadIn)... */\n    tag_76:\n        /* \"contracts/breedings/Breeding.sol\":865:879  uint256 momOut */\n      0x00\n        /* \"contracts/breedings/Breeding.sol\":893:907  uint256 dadOut */\n      dup1\n        /* \"contracts/breedings/Breeding.sol\":921:934  uint256 genes */\n      0x00\n        /* \"contracts/breedings/Breeding.sol\":1011:1031  _breedingChargePrice */\n      dup1\n      0x14\n      swap1\n      sload\n      swap1\n      0x0100\n      exp\n      swap1\n      div\n      0xff\n      and\n        /* \"contracts/breedings/Breeding.sol\":980:1031  GenesUtil.getCharges(momIn) >= _breedingChargePrice */\n      0xff\n      and\n        /* \"contracts/breedings/Breeding.sol\":980:989  GenesUtil */\n      linkerSymbol(\"bc34c519aa7d1b67b54ee96cd6fbdfb8db30b25488a806873ff83a6f9e643b6b\")\n        /* \"contracts/breedings/Breeding.sol\":980:1000  GenesUtil.getCharges */\n      0x0317f435\n        /* \"contracts/breedings/Breeding.sol\":1001:1006  momIn */\n      dup8\n        /* \"contracts/breedings/Breeding.sol\":980:1007  GenesUtil.getCharges(momIn) */\n      mload(0x40)\n      dup3\n      0xffffffff\n      and\n      0xe0\n      shl\n      dup2\n      mstore\n      0x04\n      add\n      tag_121\n      swap2\n      swap1\n      tag_122\n      jump\t// in\n    tag_121:\n      0x20\n      mload(0x40)\n      dup1\n      dup4\n      sub\n      dup2\n      dup7\n      gas\n      delegatecall\n      iszero\n      dup1\n      iszero\n      tag_124\n      jumpi\n      returndatasize\n      0x00\n      dup1\n      returndatacopy\n      revert(0x00, returndatasize)\n    tag_124:\n      pop\n      pop\n      pop\n      pop\n      mload(0x40)\n      returndatasize\n      not(0x1f)\n      0x1f\n      dup3\n      add\n      and\n      dup3\n      add\n      dup1\n      0x40\n      mstore\n      pop\n      dup2\n      add\n      swap1\n      tag_125\n      swap2\n      swap1\n      tag_126\n      jump\t// in\n    tag_125:\n        /* \"contracts/breedings/Breeding.sol\":980:1031  GenesUtil.getCharges(momIn) >= _breedingChargePrice */\n      0xff\n      and\n      lt\n      iszero\n        /* \"contracts/breedings/Breeding.sol\":959:1076  require(... */\n      tag_127\n      jumpi\n      mload(0x40)\n      0x08c379a000000000000000000000000000000000000000000000000000000000\n      dup2\n      mstore\n      0x04\n      add\n      tag_128\n      swap1\n      tag_129\n      jump\t// in\n    tag_128:\n      mload(0x40)\n      dup1\n      swap2\n      sub\n      swap1\n      revert\n    tag_127:\n        /* \"contracts/breedings/Breeding.sol\":1138:1158  _breedingChargePrice */\n      0x00\n      0x14\n      swap1\n      sload\n      swap1\n      0x0100\n      exp\n      swap1\n      div\n      0xff\n      and\n        /* \"contracts/breedings/Breeding.sol\":1107:1158  GenesUtil.getCharges(dadIn) >= _breedingChargePrice */\n      0xff\n      and\n        /* \"contracts/breedings/Breeding.sol\":1107:1116  GenesUtil */\n      linkerSymbol(\"bc34c519aa7d1b67b54ee96cd6fbdfb8db30b25488a806873ff83a6f9e643b6b\")\n        /* \"contracts/breedings/Breeding.sol\":1107:1127  GenesUtil.getCharges */\n      0x0317f435\n        /* \"contracts/breedings/Breeding.sol\":1128:1133  dadIn */\n      dup7\n        /* \"contracts/breedings/Breeding.sol\":1107:1134  GenesUtil.getCharges(dadIn) */\n      mload(0x40)\n      dup3\n      0xffffffff\n      and\n      0xe0\n      shl\n      dup2\n      mstore\n      0x04\n      add\n      tag_130\n      swap2\n      swap1\n      tag_122\n      jump\t// in\n    tag_130:\n      0x20\n      mload(0x40)\n      dup1\n      dup4\n      sub\n      dup2\n      dup7\n      gas\n      delegatecall\n      iszero\n      dup1\n      iszero\n      tag_132\n      jumpi\n      returndatasize\n      0x00\n      dup1\n      returndatacopy\n      revert(0x00, returndatasize)\n    tag_132:\n      pop\n      pop\n      pop\n      pop\n      mload(0x40)\n      returndatasize\n      not(0x1f)\n      0x1f\n      dup3\n      add\n      and\n      dup3\n      add\n      dup1\n      0x40\n      mstore\n      pop\n      dup2\n      add\n      swap1\n      tag_133\n      swap2\n      swap1\n      tag_126\n      jump\t// in\n    tag_133:\n        /* \"contracts/breedings/Breeding.sol\":1107:1158  GenesUtil.getCharges(dadIn) >= _breedingChargePrice */\n      0xff\n      and\n      lt\n      iszero\n        /* \"contracts/breedings/Breeding.sol\":1086:1203  require(... */\n      tag_134\n      jumpi\n      mload(0x40)\n      0x08c379a000000000000000000000000000000000000000000000000000000000\n      dup2\n      mstore\n      0x04\n      add\n      tag_135\n      swap1\n      tag_129\n      jump\t// in\n    tag_135:\n      mload(0x40)\n      dup1\n      swap2\n      sub\n      swap1\n      revert\n    tag_134:\n        /* \"contracts/breedings/Breeding.sol\":1214:1232  uint256 randomSeed */\n      0x00\n        /* \"contracts/breedings/Breeding.sol\":1321:1336  block.timestamp */\n      timestamp\n        /* \"contracts/breedings/Breeding.sol\":1358:1370  block.number */\n      number\n        /* \"contracts/breedings/Breeding.sol\":1392:1408  block.prevrandao */\n      prevrandao\n        /* \"contracts/breedings/Breeding.sol\":1430:1435  momIn */\n      dup9\n        /* \"contracts/breedings/Breeding.sol\":1457:1462  dadIn */\n      dup9\n        /* \"contracts/breedings/Breeding.sol\":1484:1495  _globalSeed */\n      sload(0x01)\n        /* \"contracts/breedings/Breeding.sol\":1283:1513  abi.encodePacked(... */\n      add(0x20, mload(0x40))\n      tag_136\n      swap7\n      swap6\n      swap5\n      swap4\n      swap3\n      swap2\n      swap1\n      tag_137\n      jump\t// in\n    tag_136:\n      mload(0x40)\n      0x20\n      dup2\n      dup4\n      sub\n      sub\n      dup2\n      mstore\n      swap1\n      0x40\n      mstore\n        /* \"contracts/breedings/Breeding.sol\":1256:1527  keccak256(... */\n      dup1\n      mload\n      swap1\n      0x20\n      add\n      keccak256\n        /* \"contracts/breedings/Breeding.sol\":1235:1537  uint256(... */\n      0x00\n      shr\n        /* \"contracts/breedings/Breeding.sol\":1214:1537  uint256 randomSeed = uint256(... */\n      swap1\n      pop\n        /* \"contracts/breedings/Breeding.sol\":1570:1571  0 */\n      0x00\n        /* \"contracts/breedings/Breeding.sol\":1556:1566  randomSeed */\n      dup2\n        /* \"contracts/breedings/Breeding.sol\":1556:1571  randomSeed != 0 */\n      sub\n        /* \"contracts/breedings/Breeding.sol\":1548:1597  require(randomSeed != 0, \"randomSeed can't be 0\") */\n      tag_138\n      jumpi\n      mload(0x40)\n      0x08c379a000000000000000000000000000000000000000000000000000000000\n      dup2\n      mstore\n      0x04\n      add\n      tag_139\n      swap1\n      tag_140\n      jump\t// in\n    tag_139:\n      mload(0x40)\n      dup1\n      swap2\n      sub\n      swap1\n      revert\n    tag_138:\n        /* \"contracts/breedings/Breeding.sol\":1608:1619  _globalSeed */\n      0x01\n      0x00\n        /* \"contracts/breedings/Breeding.sol\":1608:1621  _globalSeed++ */\n      dup2\n      sload\n      dup1\n      swap3\n      swap2\n      swap1\n      tag_141\n      swap1\n      tag_142\n      jump\t// in\n    tag_141:\n      swap2\n      swap1\n      pop\n      sstore\n      pop\n        /* \"contracts/breedings/Breeding.sol\":1632:1649  uint32 generation */\n      0x00\n        /* \"contracts/breedings/Breeding.sol\":1760:1761  1 */\n      0x01\n        /* \"contracts/breedings/Breeding.sol\":1744:1745  2 */\n      0x02\n        /* \"contracts/breedings/Breeding.sol\":1698:1707  GenesUtil */\n      linkerSymbol(\"bc34c519aa7d1b67b54ee96cd6fbdfb8db30b25488a806873ff83a6f9e643b6b\")\n        /* \"contracts/breedings/Breeding.sol\":1698:1721  GenesUtil.getGeneration */\n      0x56e3df97\n        /* \"contracts/breedings/Breeding.sol\":1722:1727  dadIn */\n      dup10\n        /* \"contracts/breedings/Breeding.sol\":1698:1728  GenesUtil.getGeneration(dadIn) */\n      mload(0x40)\n      dup3\n      0xffffffff\n      and\n      0xe0\n      shl\n      dup2\n      mstore\n      0x04\n      add\n      tag_143\n      swap2\n      swap1\n      tag_122\n      jump\t// in\n    tag_143:\n      0x20\n      mload(0x40)\n      dup1\n      dup4\n      sub\n      dup2\n      dup7\n      gas\n      delegatecall\n      iszero\n      dup1\n      iszero\n      tag_145\n      jumpi\n      returndatasize\n      0x00\n      dup1\n      returndatacopy\n      revert(0x00, returndatasize)\n    tag_145:\n      pop\n      pop\n      pop\n      pop\n      mload(0x40)\n      returndatasize\n      not(0x1f)\n      0x1f\n      dup3\n      add\n      and\n      dup3\n      add\n      dup1\n      0x40\n      mstore\n      pop\n      dup2\n      add\n      swap1\n      tag_146\n      swap2\n      swap1\n      tag_147\n      jump\t// in\n    tag_146:\n        /* \"contracts/breedings/Breeding.sol\":1653:1662  GenesUtil */\n      linkerSymbol(\"bc34c519aa7d1b67b54ee96cd6fbdfb8db30b25488a806873ff83a6f9e643b6b\")\n        /* \"contracts/breedings/Breeding.sol\":1653:1676  GenesUtil.getGeneration */\n      0x56e3df97\n        /* \"contracts/breedings/Breeding.sol\":1677:1682  momIn */\n      dup12\n        /* \"contracts/breedings/Breeding.sol\":1653:1683  GenesUtil.getGeneration(momIn) */\n      mload(0x40)\n      dup3\n      0xffffffff\n      and\n      0xe0\n      shl\n      dup2\n      mstore\n      0x04\n      add\n      tag_148\n      swap2\n      swap1\n      tag_122\n      jump\t// in\n    tag_148:\n      0x20\n      mload(0x40)\n      dup1\n      dup4\n      sub\n      dup2\n      dup7\n      gas\n      delegatecall\n      iszero\n      dup1\n      iszero\n      tag_150\n      jumpi\n      returndatasize\n      0x00\n      dup1\n      returndatacopy\n      revert(0x00, returndatasize)\n    tag_150:\n      pop\n      pop\n      pop\n      pop\n      mload(0x40)\n      returndatasize\n      not(0x1f)\n      0x1f\n      dup3\n      add\n      and\n      dup3\n      add\n      dup1\n      0x40\n      mstore\n      pop\n      dup2\n      add\n      swap1\n      tag_151\n      swap2\n      swap1\n      tag_147\n      jump\t// in\n    tag_151:\n        /* \"contracts/breedings/Breeding.sol\":1653:1728  GenesUtil.getGeneration(momIn) +... */\n      tag_152\n      swap2\n      swap1\n      tag_153\n      jump\t// in\n    tag_152:\n        /* \"contracts/breedings/Breeding.sol\":1652:1745  (GenesUtil.getGeneration(momIn) +... */\n      tag_154\n      swap2\n      swap1\n      tag_155\n      jump\t// in\n    tag_154:\n        /* \"contracts/breedings/Breeding.sol\":1652:1761  (GenesUtil.getGeneration(momIn) +... */\n      tag_156\n      swap2\n      swap1\n      tag_153\n      jump\t// in\n    tag_156:\n        /* \"contracts/breedings/Breeding.sol\":1632:1761  uint32 generation = (GenesUtil.getGeneration(momIn) +... */\n      swap1\n      pop\n        /* \"contracts/breedings/Breeding.sol\":1772:1794  uint256 bodyPartsCount */\n      0x00\n        /* \"contracts/breedings/Breeding.sol\":1797:1798  9 */\n      0x09\n        /* \"contracts/breedings/Breeding.sol\":1772:1798  uint256 bodyPartsCount = 9 */\n      swap1\n      pop\n        /* \"contracts/breedings/Breeding.sol\":1808:1827  uint256 randomIndex */\n      0x00\n        /* \"contracts/breedings/Breeding.sol\":1850:1851  0 */\n      dup1\n        /* \"contracts/breedings/Breeding.sol\":1842:1851  genes = 0 */\n      swap5\n      pop\n        /* \"contracts/breedings/Breeding.sol\":1902:1921  uint8 bodyPartIndex */\n      0x00\n        /* \"contracts/breedings/Breeding.sol\":1884:3053  for (... */\n    tag_157:\n        /* \"contracts/breedings/Breeding.sol\":1955:1969  bodyPartsCount */\n      dup3\n        /* \"contracts/breedings/Breeding.sol\":1939:1952  bodyPartIndex */\n      dup2\n        /* \"contracts/breedings/Breeding.sol\":1939:1969  bodyPartIndex < bodyPartsCount */\n      0xff\n      and\n      lt\n        /* \"contracts/breedings/Breeding.sol\":1884:3053  for (... */\n      iszero\n      tag_158\n      jumpi\n        /* \"contracts/breedings/Breeding.sol\":2023:2044  uint256 arcanePercent */\n      0x00\n        /* \"contracts/breedings/Breeding.sol\":2047:2182  getArcanePercent(... */\n      tag_160\n        /* \"contracts/breedings/Breeding.sol\":2081:2091  generation */\n      dup6\n        /* \"contracts/breedings/Breeding.sol\":2047:2182  getArcanePercent(... */\n      0xffffffff\n      and\n        /* \"contracts/breedings/Breeding.sol\":2109:2119  _minArcane */\n      sload(0x03)\n        /* \"contracts/breedings/Breeding.sol\":2137:2147  _maxArcane */\n      sload(0x04)\n        /* \"contracts/breedings/Breeding.sol\":2165:2168  100 */\n      0x64\n        /* \"contracts/breedings/Breeding.sol\":2047:2063  getArcanePercent */\n      tag_161\n        /* \"contracts/breedings/Breeding.sol\":2047:2182  getArcanePercent(... */\n      jump\t// in\n    tag_160:\n        /* \"contracts/breedings/Breeding.sol\":2023:2182  uint256 arcanePercent = getArcanePercent(... */\n      swap1\n      pop\n        /* \"contracts/breedings/Breeding.sol\":2196:2206  bool isArc */\n      0x00\n        /* \"contracts/breedings/Breeding.sol\":2242:2297  random(_globalSeed, randomIndex++, 0, _maxArcane * 100) */\n      tag_162\n        /* \"contracts/breedings/Breeding.sol\":2249:2260  _globalSeed */\n      sload(0x01)\n        /* \"contracts/breedings/Breeding.sol\":2262:2275  randomIndex++ */\n      dup6\n      dup1\n      tag_163\n      swap1\n      tag_142\n      jump\t// in\n    tag_163:\n      swap7\n      pop\n        /* \"contracts/breedings/Breeding.sol\":2277:2278  0 */\n      0x00\n        /* \"contracts/breedings/Breeding.sol\":2293:2296  100 */\n      0x64\n        /* \"contracts/breedings/Breeding.sol\":2280:2290  _maxArcane */\n      sload(0x04)\n        /* \"contracts/breedings/Breeding.sol\":2280:2296  _maxArcane * 100 */\n      tag_164\n      swap2\n      swap1\n      tag_165\n      jump\t// in\n    tag_164:\n        /* \"contracts/breedings/Breeding.sol\":2242:2248  random */\n      tag_166\n        /* \"contracts/breedings/Breeding.sol\":2242:2297  random(_globalSeed, randomIndex++, 0, _maxArcane * 100) */\n      jump\t// in\n    tag_162:\n        /* \"contracts/breedings/Breeding.sol\":2209:2222  arcanePercent */\n      dup3\n        /* \"contracts/breedings/Breeding.sol\":2209:2297  arcanePercent >=... */\n      lt\n      iszero\n        /* \"contracts/breedings/Breeding.sol\":2196:2297  bool isArc = arcanePercent >=... */\n      swap1\n      pop\n        /* \"contracts/breedings/Breeding.sol\":2312:2320  uint8 id */\n      0x00\n        /* \"contracts/breedings/Breeding.sol\":2323:2324  1 */\n      0x01\n        /* \"contracts/breedings/Breeding.sol\":2312:2324  uint8 id = 1 */\n      swap1\n      pop\n        /* \"contracts/breedings/Breeding.sol\":2360:2402  random(_globalSeed, randomIndex++, 0, 100) */\n      tag_167\n        /* \"contracts/breedings/Breeding.sol\":2367:2378  _globalSeed */\n      sload(0x01)\n        /* \"contracts/breedings/Breeding.sol\":2380:2393  randomIndex++ */\n      dup7\n      dup1\n      tag_168\n      swap1\n      tag_142\n      jump\t// in\n    tag_168:\n      swap8\n      pop\n        /* \"contracts/breedings/Breeding.sol\":2395:2396  0 */\n      0x00\n        /* \"contracts/breedings/Breeding.sol\":2398:2401  100 */\n      0x64\n        /* \"contracts/breedings/Breeding.sol\":2360:2366  random */\n      tag_166\n        /* \"contracts/breedings/Breeding.sol\":2360:2402  random(_globalSeed, randomIndex++, 0, 100) */\n      jump\t// in\n    tag_167:\n        /* \"contracts/breedings/Breeding.sol\":2342:2356  _randomPercent */\n      sload(0x02)\n        /* \"contracts/breedings/Breeding.sol\":2342:2402  _randomPercent >= random(_globalSeed, randomIndex++, 0, 100) */\n      lt\n        /* \"contracts/breedings/Breeding.sol\":2338:2836  if (_randomPercent >= random(_globalSeed, randomIndex++, 0, 100)) {... */\n      tag_169\n      jumpi\n        /* \"contracts/breedings/Breeding.sol\":2535:2539  0xFF */\n      0xff\n        /* \"contracts/breedings/Breeding.sol\":2454:2508  random(_globalSeed, randomIndex++, _minId, _maxId + 1) */\n      tag_170\n        /* \"contracts/breedings/Breeding.sol\":2461:2472  _globalSeed */\n      sload(0x01)\n        /* \"contracts/breedings/Breeding.sol\":2474:2487  randomIndex++ */\n      dup8\n      dup1\n      tag_171\n      swap1\n      tag_142\n      jump\t// in\n    tag_171:\n      swap9\n      pop\n        /* \"contracts/breedings/Breeding.sol\":2489:2495  _minId */\n      sload(0x05)\n        /* \"contracts/breedings/Breeding.sol\":2506:2507  1 */\n      0x01\n        /* \"contracts/breedings/Breeding.sol\":2497:2503  _maxId */\n      sload(0x06)\n        /* \"contracts/breedings/Breeding.sol\":2497:2507  _maxId + 1 */\n      tag_172\n      swap2\n      swap1\n      tag_173\n      jump\t// in\n    tag_172:\n        /* \"contracts/breedings/Breeding.sol\":2454:2460  random */\n      tag_166\n        /* \"contracts/breedings/Breeding.sol\":2454:2508  random(_globalSeed, randomIndex++, _minId, _maxId + 1) */\n      jump\t// in\n    tag_170:\n        /* \"contracts/breedings/Breeding.sol\":2454:2539  random(_globalSeed, randomIndex++, _minId, _maxId + 1) &... */\n      and\n        /* \"contracts/breedings/Breeding.sol\":2422:2557  id = uint8(... */\n      swap1\n      pop\n        /* \"contracts/breedings/Breeding.sol\":2338:2836  if (_randomPercent >= random(_globalSeed, randomIndex++, 0, 100)) {... */\n      jump(tag_174)\n    tag_169:\n        /* \"contracts/breedings/Breeding.sol\":2646:2648  50 */\n      0x32\n        /* \"contracts/breedings/Breeding.sol\":2600:2642  random(_globalSeed, randomIndex++, 0, 100) */\n      tag_175\n        /* \"contracts/breedings/Breeding.sol\":2607:2618  _globalSeed */\n      sload(0x01)\n        /* \"contracts/breedings/Breeding.sol\":2620:2633  randomIndex++ */\n      dup8\n      dup1\n      tag_176\n      swap1\n      tag_142\n      jump\t// in\n    tag_176:\n      swap9\n      pop\n        /* \"contracts/breedings/Breeding.sol\":2635:2636  0 */\n      0x00\n        /* \"contracts/breedings/Breeding.sol\":2638:2641  100 */\n      0x64\n        /* \"contracts/breedings/Breeding.sol\":2600:2606  random */\n      tag_166\n        /* \"contracts/breedings/Breeding.sol\":2600:2642  random(_globalSeed, randomIndex++, 0, 100) */\n      jump\t// in\n    tag_175:\n        /* \"contracts/breedings/Breeding.sol\":2600:2648  random(_globalSeed, randomIndex++, 0, 100) >= 50 */\n      lt\n        /* \"contracts/breedings/Breeding.sol\":2596:2822  if (random(_globalSeed, randomIndex++, 0, 100) >= 50) {... */\n      tag_177\n      jumpi\n        /* \"contracts/breedings/Breeding.sol\":2677:2686  GenesUtil */\n      linkerSymbol(\"bc34c519aa7d1b67b54ee96cd6fbdfb8db30b25488a806873ff83a6f9e643b6b\")\n        /* \"contracts/breedings/Breeding.sol\":2677:2692  GenesUtil.getId */\n      0x5d2029f1\n        /* \"contracts/breedings/Breeding.sol\":2693:2698  dadIn */\n      dup14\n        /* \"contracts/breedings/Breeding.sol\":2700:2713  bodyPartIndex */\n      dup7\n        /* \"contracts/breedings/Breeding.sol\":2677:2714  GenesUtil.getId(dadIn, bodyPartIndex) */\n      mload(0x40)\n      dup4\n      0xffffffff\n      and\n      0xe0\n      shl\n      dup2\n      mstore\n      0x04\n      add\n      tag_178\n      swap3\n      swap2\n      swap1\n      tag_179\n      jump\t// in\n    tag_178:\n      0x20\n      mload(0x40)\n      dup1\n      dup4\n      sub\n      dup2\n      dup7\n      gas\n      delegatecall\n      iszero\n      dup1\n      iszero\n      tag_181\n      jumpi\n      returndatasize\n      0x00\n      dup1\n      returndatacopy\n      revert(0x00, returndatasize)\n    tag_181:\n      pop\n      pop\n      pop\n      pop\n      mload(0x40)\n      returndatasize\n      not(0x1f)\n      0x1f\n      dup3\n      add\n      and\n      dup3\n      add\n      dup1\n      0x40\n      mstore\n      pop\n      dup2\n      add\n      swap1\n      tag_182\n      swap2\n      swap1\n      tag_126\n      jump\t// in\n    tag_182:\n        /* \"contracts/breedings/Breeding.sol\":2672:2714  id = GenesUtil.getId(dadIn, bodyPartIndex) */\n      swap1\n      pop\n        /* \"contracts/breedings/Breeding.sol\":2596:2822  if (random(_globalSeed, randomIndex++, 0, 100) >= 50) {... */\n      jump(tag_183)\n    tag_177:\n        /* \"contracts/breedings/Breeding.sol\":2766:2775  GenesUtil */\n      linkerSymbol(\"bc34c519aa7d1b67b54ee96cd6fbdfb8db30b25488a806873ff83a6f9e643b6b\")\n        /* \"contracts/breedings/Breeding.sol\":2766:2781  GenesUtil.getId */\n      0x5d2029f1\n        /* \"contracts/breedings/Breeding.sol\":2782:2787  momIn */\n      dup15\n        /* \"contracts/breedings/Breeding.sol\":2789:2802  bodyPartIndex */\n      dup7\n        /* \"contracts/breedings/Breeding.sol\":2766:2803  GenesUtil.getId(momIn, bodyPartIndex) */\n      mload(0x40)\n      dup4\n      0xffffffff\n      and\n      0xe0\n      shl\n      dup2\n      mstore\n      0x04\n      add\n      tag_184\n      swap3\n      swap2\n      swap1\n      tag_179\n      jump\t// in\n    tag_184:\n      0x20\n      mload(0x40)\n      dup1\n      dup4\n      sub\n      dup2\n      dup7\n      gas\n      delegatecall\n      iszero\n      dup1\n      iszero\n      tag_186\n      jumpi\n      returndatasize\n      0x00\n      dup1\n      returndatacopy\n      revert(0x00, returndatasize)\n    tag_186:\n      pop\n      pop\n      pop\n      pop\n      mload(0x40)\n      returndatasize\n      not(0x1f)\n      0x1f\n      dup3\n      add\n      and\n      dup3\n      add\n      dup1\n      0x40\n      mstore\n      pop\n      dup2\n      add\n      swap1\n      tag_187\n      swap2\n      swap1\n      tag_126\n      jump\t// in\n    tag_187:\n        /* \"contracts/breedings/Breeding.sol\":2761:2803  id = GenesUtil.getId(momIn, bodyPartIndex) */\n      swap1\n      pop\n        /* \"contracts/breedings/Breeding.sol\":2596:2822  if (random(_globalSeed, randomIndex++, 0, 100) >= 50) {... */\n    tag_183:\n        /* \"contracts/breedings/Breeding.sol\":2338:2836  if (_randomPercent >= random(_globalSeed, randomIndex++, 0, 100)) {... */\n    tag_174:\n        /* \"contracts/breedings/Breeding.sol\":2858:2867  GenesUtil */\n      linkerSymbol(\"bc34c519aa7d1b67b54ee96cd6fbdfb8db30b25488a806873ff83a6f9e643b6b\")\n        /* \"contracts/breedings/Breeding.sol\":2858:2873  GenesUtil.setId */\n      0x34a51d0f\n        /* \"contracts/breedings/Breeding.sol\":2874:2879  genes */\n      dup11\n        /* \"contracts/breedings/Breeding.sol\":2881:2894  bodyPartIndex */\n      dup7\n        /* \"contracts/breedings/Breeding.sol\":2896:2898  id */\n      dup5\n        /* \"contracts/breedings/Breeding.sol\":2858:2899  GenesUtil.setId(genes, bodyPartIndex, id) */\n      mload(0x40)\n      dup5\n      0xffffffff\n      and\n      0xe0\n      shl\n      dup2\n      mstore\n      0x04\n      add\n      tag_188\n      swap4\n      swap3\n      swap2\n      swap1\n      tag_189\n      jump\t// in\n    tag_188:\n      0x20\n      mload(0x40)\n      dup1\n      dup4\n      sub\n      dup2\n      dup7\n      gas\n      delegatecall\n      iszero\n      dup1\n      iszero\n      tag_191\n      jumpi\n      returndatasize\n      0x00\n      dup1\n      returndatacopy\n      revert(0x00, returndatasize)\n    tag_191:\n      pop\n      pop\n      pop\n      pop\n      mload(0x40)\n      returndatasize\n      not(0x1f)\n      0x1f\n      dup3\n      add\n      and\n      dup3\n      add\n      dup1\n      0x40\n      mstore\n      pop\n      dup2\n      add\n      swap1\n      tag_192\n      swap2\n      swap1\n      tag_193\n      jump\t// in\n    tag_192:\n        /* \"contracts/breedings/Breeding.sol\":2850:2899  genes = GenesUtil.setId(genes, bodyPartIndex, id) */\n      swap9\n      pop\n        /* \"contracts/breedings/Breeding.sol\":2921:2930  GenesUtil */\n      linkerSymbol(\"bc34c519aa7d1b67b54ee96cd6fbdfb8db30b25488a806873ff83a6f9e643b6b\")\n        /* \"contracts/breedings/Breeding.sol\":2921:2939  GenesUtil.setLevel */\n      0xe1b30ab7\n        /* \"contracts/breedings/Breeding.sol\":2940:2945  genes */\n      dup11\n        /* \"contracts/breedings/Breeding.sol\":2947:2960  bodyPartIndex */\n      dup7\n        /* \"contracts/breedings/Breeding.sol\":2962:2963  1 */\n      0x01\n        /* \"contracts/breedings/Breeding.sol\":2921:2964  GenesUtil.setLevel(genes, bodyPartIndex, 1) */\n      mload(0x40)\n      dup5\n      0xffffffff\n      and\n      0xe0\n      shl\n      dup2\n      mstore\n      0x04\n      add\n      tag_194\n      swap4\n      swap3\n      swap2\n      swap1\n      tag_195\n      jump\t// in\n    tag_194:\n      0x20\n      mload(0x40)\n      dup1\n      dup4\n      sub\n      dup2\n      dup7\n      gas\n      delegatecall\n      iszero\n      dup1\n      iszero\n      tag_197\n      jumpi\n      returndatasize\n      0x00\n      dup1\n      returndatacopy\n      revert(0x00, returndatasize)\n    tag_197:\n      pop\n      pop\n      pop\n      pop\n      mload(0x40)\n      returndatasize\n      not(0x1f)\n      0x1f\n      dup3\n      add\n      and\n      dup3\n      add\n      dup1\n      0x40\n      mstore\n      pop\n      dup2\n      add\n      swap1\n      tag_198\n      swap2\n      swap1\n      tag_193\n      jump\t// in\n    tag_198:\n        /* \"contracts/breedings/Breeding.sol\":2913:2964  genes = GenesUtil.setLevel(genes, bodyPartIndex, 1) */\n      swap9\n      pop\n        /* \"contracts/breedings/Breeding.sol\":2986:2995  GenesUtil */\n      linkerSymbol(\"bc34c519aa7d1b67b54ee96cd6fbdfb8db30b25488a806873ff83a6f9e643b6b\")\n        /* \"contracts/breedings/Breeding.sol\":2986:3005  GenesUtil.setArcane */\n      0x55d6ed43\n        /* \"contracts/breedings/Breeding.sol\":3006:3011  genes */\n      dup11\n        /* \"contracts/breedings/Breeding.sol\":3013:3026  bodyPartIndex */\n      dup7\n        /* \"contracts/breedings/Breeding.sol\":3028:3033  isArc */\n      dup6\n        /* \"contracts/breedings/Breeding.sol\":3028:3041  isArc ? 1 : 0 */\n      tag_199\n      jumpi\n        /* \"contracts/breedings/Breeding.sol\":3040:3041  0 */\n      0x00\n        /* \"contracts/breedings/Breeding.sol\":3028:3041  isArc ? 1 : 0 */\n      jump(tag_200)\n    tag_199:\n        /* \"contracts/breedings/Breeding.sol\":3036:3037  1 */\n      0x01\n        /* \"contracts/breedings/Breeding.sol\":3028:3041  isArc ? 1 : 0 */\n    tag_200:\n        /* \"contracts/breedings/Breeding.sol\":2986:3042  GenesUtil.setArcane(genes, bodyPartIndex, isArc ? 1 : 0) */\n      mload(0x40)\n      dup5\n      0xffffffff\n      and\n      0xe0\n      shl\n      dup2\n      mstore\n      0x04\n      add\n      tag_201\n      swap4\n      swap3\n      swap2\n      swap1\n      tag_189\n      jump\t// in\n    tag_201:\n      0x20\n      mload(0x40)\n      dup1\n      dup4\n      sub\n      dup2\n      dup7\n      gas\n      delegatecall\n      iszero\n      dup1\n      iszero\n      tag_203\n      jumpi\n      returndatasize\n      0x00\n      dup1\n      returndatacopy\n      revert(0x00, returndatasize)\n    tag_203:\n      pop\n      pop\n      pop\n      pop\n      mload(0x40)\n      returndatasize\n      not(0x1f)\n      0x1f\n      dup3\n      add\n      and\n      dup3\n      add\n      dup1\n      0x40\n      mstore\n      pop\n      dup2\n      add\n      swap1\n      tag_204\n      swap2\n      swap1\n      tag_193\n      jump\t// in\n    tag_204:\n        /* \"contracts/breedings/Breeding.sol\":2978:3042  genes = GenesUtil.setArcane(genes, bodyPartIndex, isArc ? 1 : 0) */\n      swap9\n      pop\n        /* \"contracts/breedings/Breeding.sol\":2009:3053  {... */\n      pop\n      pop\n      pop\n        /* \"contracts/breedings/Breeding.sol\":1983:1998  bodyPartIndex++ */\n      dup1\n      dup1\n      tag_205\n      swap1\n      tag_206\n      jump\t// in\n    tag_205:\n      swap2\n      pop\n      pop\n        /* \"contracts/breedings/Breeding.sol\":1884:3053  for (... */\n      jump(tag_157)\n    tag_158:\n      pop\n        /* \"contracts/breedings/Breeding.sol\":3095:3104  GenesUtil */\n      linkerSymbol(\"bc34c519aa7d1b67b54ee96cd6fbdfb8db30b25488a806873ff83a6f9e643b6b\")\n        /* \"contracts/breedings/Breeding.sol\":3095:3115  GenesUtil.setCharges */\n      0xb52b6659\n        /* \"contracts/breedings/Breeding.sol\":3129:3134  momIn */\n      dup11\n        /* \"contracts/breedings/Breeding.sol\":3178:3198  _breedingChargePrice */\n      0x00\n      0x14\n      swap1\n      sload\n      swap1\n      0x0100\n      exp\n      swap1\n      div\n      0xff\n      and\n        /* \"contracts/breedings/Breeding.sol\":3148:3157  GenesUtil */\n      linkerSymbol(\"bc34c519aa7d1b67b54ee96cd6fbdfb8db30b25488a806873ff83a6f9e643b6b\")\n        /* \"contracts/breedings/Breeding.sol\":3148:3168  GenesUtil.getCharges */\n      0x0317f435\n        /* \"contracts/breedings/Breeding.sol\":3169:3174  momIn */\n      dup15\n        /* \"contracts/breedings/Breeding.sol\":3148:3175  GenesUtil.getCharges(momIn) */\n      mload(0x40)\n      dup3\n      0xffffffff\n      and\n      0xe0\n      shl\n      dup2\n      mstore\n      0x04\n      add\n      tag_207\n      swap2\n      swap1\n      tag_122\n      jump\t// in\n    tag_207:\n      0x20\n      mload(0x40)\n      dup1\n      dup4\n      sub\n      dup2\n      dup7\n      gas\n      delegatecall\n      iszero\n      dup1\n      iszero\n      tag_209\n      jumpi\n      returndatasize\n      0x00\n      dup1\n      returndatacopy\n      revert(0x00, returndatasize)\n    tag_209:\n      pop\n      pop\n      pop\n      pop\n      mload(0x40)\n      returndatasize\n      not(0x1f)\n      0x1f\n      dup3\n      add\n      and\n      dup3\n      add\n      dup1\n      0x40\n      mstore\n      pop\n      dup2\n      add\n      swap1\n      tag_210\n      swap2\n      swap1\n      tag_126\n      jump\t// in\n    tag_210:\n        /* \"contracts/breedings/Breeding.sol\":3148:3198  GenesUtil.getCharges(momIn) - _breedingChargePrice */\n      tag_211\n      swap2\n      swap1\n      tag_212\n      jump\t// in\n    tag_211:\n        /* \"contracts/breedings/Breeding.sol\":3095:3208  GenesUtil.setCharges(... */\n      mload(0x40)\n      dup4\n      0xffffffff\n      and\n      0xe0\n      shl\n      dup2\n      mstore\n      0x04\n      add\n      tag_213\n      swap3\n      swap2\n      swap1\n      tag_179\n      jump\t// in\n    tag_213:\n      0x20\n      mload(0x40)\n      dup1\n      dup4\n      sub\n      dup2\n      dup7\n      gas\n      delegatecall\n      iszero\n      dup1\n      iszero\n      tag_215\n      jumpi\n      returndatasize\n      0x00\n      dup1\n      returndatacopy\n      revert(0x00, returndatasize)\n    tag_215:\n      pop\n      pop\n      pop\n      pop\n      mload(0x40)\n      returndatasize\n      not(0x1f)\n      0x1f\n      dup3\n      add\n      and\n      dup3\n      add\n      dup1\n      0x40\n      mstore\n      pop\n      dup2\n      add\n      swap1\n      tag_216\n      swap2\n      swap1\n      tag_193\n      jump\t// in\n    tag_216:\n        /* \"contracts/breedings/Breeding.sol\":3086:3208  momOut = GenesUtil.setCharges(... */\n      swap7\n      pop\n        /* \"contracts/breedings/Breeding.sol\":3251:3260  GenesUtil */\n      linkerSymbol(\"bc34c519aa7d1b67b54ee96cd6fbdfb8db30b25488a806873ff83a6f9e643b6b\")\n        /* \"contracts/breedings/Breeding.sol\":3251:3271  GenesUtil.setCharges */\n      0xb52b6659\n        /* \"contracts/breedings/Breeding.sol\":3285:3290  dadIn */\n      dup10\n        /* \"contracts/breedings/Breeding.sol\":3334:3354  _breedingChargePrice */\n      0x00\n      0x14\n      swap1\n      sload\n      swap1\n      0x0100\n      exp\n      swap1\n      div\n      0xff\n      and\n        /* \"contracts/breedings/Breeding.sol\":3304:3313  GenesUtil */\n      linkerSymbol(\"bc34c519aa7d1b67b54ee96cd6fbdfb8db30b25488a806873ff83a6f9e643b6b\")\n        /* \"contracts/breedings/Breeding.sol\":3304:3324  GenesUtil.getCharges */\n      0x0317f435\n        /* \"contracts/breedings/Breeding.sol\":3325:3330  dadIn */\n      dup14\n        /* \"contracts/breedings/Breeding.sol\":3304:3331  GenesUtil.getCharges(dadIn) */\n      mload(0x40)\n      dup3\n      0xffffffff\n      and\n      0xe0\n      shl\n      dup2\n      mstore\n      0x04\n      add\n      tag_217\n      swap2\n      swap1\n      tag_122\n      jump\t// in\n    tag_217:\n      0x20\n      mload(0x40)\n      dup1\n      dup4\n      sub\n      dup2\n      dup7\n      gas\n      delegatecall\n      iszero\n      dup1\n      iszero\n      tag_219\n      jumpi\n      returndatasize\n      0x00\n      dup1\n      returndatacopy\n      revert(0x00, returndatasize)\n    tag_219:\n      pop\n      pop\n      pop\n      pop\n      mload(0x40)\n      returndatasize\n      not(0x1f)\n      0x1f\n      dup3\n      add\n      and\n      dup3\n      add\n      dup1\n      0x40\n      mstore\n      pop\n      dup2\n      add\n      swap1\n      tag_220\n      swap2\n      swap1\n      tag_126\n      jump\t// in\n    tag_220:\n        /* \"contracts/breedings/Breeding.sol\":3304:3354  GenesUtil.getCharges(dadIn) - _breedingChargePrice */\n      tag_221\n      swap2\n      swap1\n      tag_212\n      jump\t// in\n    tag_221:\n        /* \"contracts/breedings/Breeding.sol\":3251:3364  GenesUtil.setCharges(... */\n      mload(0x40)\n      dup4\n      0xffffffff\n      and\n      0xe0\n      shl\n      dup2\n      mstore\n      0x04\n      add\n      tag_222\n      swap3\n      swap2\n      swap1\n      tag_179\n      jump\t// in\n    tag_222:\n      0x20\n      mload(0x40)\n      dup1\n      dup4\n      sub\n      dup2\n      dup7\n      gas\n      delegatecall\n      iszero\n      dup1\n      iszero\n      tag_224\n      jumpi\n      returndatasize\n      0x00\n      dup1\n      returndatacopy\n      revert(0x00, returndatasize)\n    tag_224:\n      pop\n      pop\n      pop\n      pop\n      mload(0x40)\n      returndatasize\n      not(0x1f)\n      0x1f\n      dup3\n      add\n      and\n      dup3\n      add\n      dup1\n      0x40\n      mstore\n      pop\n      dup2\n      add\n      swap1\n      tag_225\n      swap2\n      swap1\n      tag_193\n      jump\t// in\n    tag_225:\n        /* \"contracts/breedings/Breeding.sol\":3242:3364  dadOut = GenesUtil.setCharges(... */\n      swap6\n      pop\n        /* \"contracts/breedings/Breeding.sol\":3409:3418  GenesUtil */\n      linkerSymbol(\"bc34c519aa7d1b67b54ee96cd6fbdfb8db30b25488a806873ff83a6f9e643b6b\")\n        /* \"contracts/breedings/Breeding.sol\":3409:3432  GenesUtil.setGeneration */\n      0x8de97f4f\n        /* \"contracts/breedings/Breeding.sol\":3433:3438  genes */\n      dup7\n        /* \"contracts/breedings/Breeding.sol\":3440:3450  generation */\n      dup6\n        /* \"contracts/breedings/Breeding.sol\":3409:3451  GenesUtil.setGeneration(genes, generation) */\n      mload(0x40)\n      dup4\n      0xffffffff\n      and\n      0xe0\n      shl\n      dup2\n      mstore\n      0x04\n      add\n      tag_226\n      swap3\n      swap2\n      swap1\n      tag_227\n      jump\t// in\n    tag_226:\n      0x20\n      mload(0x40)\n      dup1\n      dup4\n      sub\n      dup2\n      dup7\n      gas\n      delegatecall\n      iszero\n      dup1\n      iszero\n      tag_229\n      jumpi\n      returndatasize\n      0x00\n      dup1\n      returndatacopy\n      revert(0x00, returndatasize)\n    tag_229:\n      pop\n      pop\n      pop\n      pop\n      mload(0x40)\n      returndatasize\n      not(0x1f)\n      0x1f\n      dup3\n      add\n      and\n      dup3\n      add\n      dup1\n      0x40\n      mstore\n      pop\n      dup2\n      add\n      swap1\n      tag_230\n      swap2\n      swap1\n      tag_193\n      jump\t// in\n    tag_230:\n        /* \"contracts/breedings/Breeding.sol\":3401:3451  genes = GenesUtil.setGeneration(genes, generation) */\n      swap5\n      pop\n        /* \"contracts/breedings/Breeding.sol\":3493:3502  GenesUtil */\n      linkerSymbol(\"bc34c519aa7d1b67b54ee96cd6fbdfb8db30b25488a806873ff83a6f9e643b6b\")\n        /* \"contracts/breedings/Breeding.sol\":3493:3513  GenesUtil.setCharges */\n      0xb52b6659\n        /* \"contracts/breedings/Breeding.sol\":3514:3519  genes */\n      dup7\n        /* \"contracts/breedings/Breeding.sol\":3521:3522  1 */\n      0x01\n        /* \"contracts/breedings/Breeding.sol\":3493:3523  GenesUtil.setCharges(genes, 1) */\n      mload(0x40)\n      dup4\n      0xffffffff\n      and\n      0xe0\n      shl\n      dup2\n      mstore\n      0x04\n      add\n      tag_231\n      swap3\n      swap2\n      swap1\n      tag_232\n      jump\t// in\n    tag_231:\n      0x20\n      mload(0x40)\n      dup1\n      dup4\n      sub\n      dup2\n      dup7\n      gas\n      delegatecall\n      iszero\n      dup1\n      iszero\n      tag_234\n      jumpi\n      returndatasize\n      0x00\n      dup1\n      returndatacopy\n      revert(0x00, returndatasize)\n    tag_234:\n      pop\n      pop\n      pop\n      pop\n      mload(0x40)\n      returndatasize\n      not(0x1f)\n      0x1f\n      dup3\n      add\n      and\n      dup3\n      add\n      dup1\n      0x40\n      mstore\n      pop\n      dup2\n      add\n      swap1\n      tag_235\n      swap2\n      swap1\n      tag_193\n      jump\t// in\n    tag_235:\n        /* \"contracts/breedings/Breeding.sol\":3485:3523  genes = GenesUtil.setCharges(genes, 1) */\n      swap5\n      pop\n        /* \"contracts/breedings/Breeding.sol\":3534:3564  return (momOut, dadOut, genes) */\n      pop\n      pop\n      pop\n      pop\n        /* \"contracts/breedings/Breeding.sol\":770:3571  function breading(uint256 momIn, uint256 dadIn)... */\n      swap3\n      pop\n      swap3\n      pop\n      swap3\n      jump\t// out\n        /* \"contracts/breedings/Breeding.sol\":4831:4911  function getMinId() public view returns (uint256) {... */\n    tag_80:\n        /* \"contracts/breedings/Breeding.sol\":4872:4879  uint256 */\n      0x00\n        /* \"contracts/breedings/Breeding.sol\":4898:4904  _minId */\n      sload(0x05)\n        /* \"contracts/breedings/Breeding.sol\":4891:4904  return _minId */\n      swap1\n      pop\n        /* \"contracts/breedings/Breeding.sol\":4831:4911  function getMinId() public view returns (uint256) {... */\n      swap1\n      jump\t// out\n        /* \"@openzeppelin/contracts/access/Ownable.sol\":2081:2279  function transferOwnership(address newOwner) public virtual onlyOwner {... */\n    tag_85:\n        /* \"@openzeppelin/contracts/access/Ownable.sol\":1094:1107  _checkOwner() */\n      tag_238\n        /* \"@openzeppelin/contracts/access/Ownable.sol\":1094:1105  _checkOwner */\n      tag_88\n        /* \"@openzeppelin/contracts/access/Ownable.sol\":1094:1107  _checkOwner() */\n      jump\t// in\n    tag_238:\n        /* \"@openzeppelin/contracts/access/Ownable.sol\":2189:2190  0 */\n      0x00\n        /* \"@openzeppelin/contracts/access/Ownable.sol\":2169:2191  newOwner != address(0) */\n      0xffffffffffffffffffffffffffffffffffffffff\n      and\n        /* \"@openzeppelin/contracts/access/Ownable.sol\":2169:2177  newOwner */\n      dup2\n        /* \"@openzeppelin/contracts/access/Ownable.sol\":2169:2191  newOwner != address(0) */\n      0xffffffffffffffffffffffffffffffffffffffff\n      and\n      sub\n        /* \"@openzeppelin/contracts/access/Ownable.sol\":2161:2234  require(newOwner != address(0), \"Ownable: new owner is the zero address\") */\n      tag_240\n      jumpi\n      mload(0x40)\n      0x08c379a000000000000000000000000000000000000000000000000000000000\n      dup2\n      mstore\n      0x04\n      add\n      tag_241\n      swap1\n      tag_242\n      jump\t// in\n    tag_241:\n      mload(0x40)\n      dup1\n      swap2\n      sub\n      swap1\n      revert\n    tag_240:\n        /* \"@openzeppelin/contracts/access/Ownable.sol\":2244:2272  _transferOwnership(newOwner) */\n      tag_243\n        /* \"@openzeppelin/contracts/access/Ownable.sol\":2263:2271  newOwner */\n      dup2\n        /* \"@openzeppelin/contracts/access/Ownable.sol\":2244:2262  _transferOwnership */\n      tag_105\n        /* \"@openzeppelin/contracts/access/Ownable.sol\":2244:2272  _transferOwnership(newOwner) */\n      jump\t// in\n    tag_243:\n        /* \"@openzeppelin/contracts/access/Ownable.sol\":2081:2279  function transferOwnership(address newOwner) public virtual onlyOwner {... */\n      pop\n      jump\t// out\n        /* \"@openzeppelin/contracts/access/Ownable.sol\":1359:1489  function _checkOwner() internal view virtual {... */\n    tag_88:\n        /* \"@openzeppelin/contracts/access/Ownable.sol\":1433:1445  _msgSender() */\n      tag_245\n        /* \"@openzeppelin/contracts/access/Ownable.sol\":1433:1443  _msgSender */\n      tag_246\n        /* \"@openzeppelin/contracts/access/Ownable.sol\":1433:1445  _msgSender() */\n      jump\t// in\n    tag_245:\n        /* \"@openzeppelin/contracts/access/Ownable.sol\":1422:1445  owner() == _msgSender() */\n      0xffffffffffffffffffffffffffffffffffffffff\n      and\n        /* \"@openzeppelin/contracts/access/Ownable.sol\":1422:1429  owner() */\n      tag_247\n        /* \"@openzeppelin/contracts/access/Ownable.sol\":1422:1427  owner */\n      tag_54\n        /* \"@openzeppelin/contracts/access/Ownable.sol\":1422:1429  owner() */\n      jump\t// in\n    tag_247:\n        /* \"@openzeppelin/contracts/access/Ownable.sol\":1422:1445  owner() == _msgSender() */\n      0xffffffffffffffffffffffffffffffffffffffff\n      and\n      eq\n        /* \"@openzeppelin/contracts/access/Ownable.sol\":1414:1482  require(owner() == _msgSender(), \"Ownable: caller is not the owner\") */\n      tag_248\n      jumpi\n      mload(0x40)\n      0x08c379a000000000000000000000000000000000000000000000000000000000\n      dup2\n      mstore\n      0x04\n      add\n      tag_249\n      swap1\n      tag_250\n      jump\t// in\n    tag_249:\n      mload(0x40)\n      dup1\n      swap2\n      sub\n      swap1\n      revert\n    tag_248:\n        /* \"@openzeppelin/contracts/access/Ownable.sol\":1359:1489  function _checkOwner() internal view virtual {... */\n      jump\t// out\n        /* \"@openzeppelin/contracts/access/Ownable.sol\":2433:2620  function _transferOwnership(address newOwner) internal virtual {... */\n    tag_105:\n        /* \"@openzeppelin/contracts/access/Ownable.sol\":2506:2522  address oldOwner */\n      0x00\n        /* \"@openzeppelin/contracts/access/Ownable.sol\":2525:2531  _owner */\n      dup1\n      0x00\n      swap1\n      sload\n      swap1\n      0x0100\n      exp\n      swap1\n      div\n      0xffffffffffffffffffffffffffffffffffffffff\n      and\n        /* \"@openzeppelin/contracts/access/Ownable.sol\":2506:2531  address oldOwner = _owner */\n      swap1\n      pop\n        /* \"@openzeppelin/contracts/access/Ownable.sol\":2550:2558  newOwner */\n      dup2\n        /* \"@openzeppelin/contracts/access/Ownable.sol\":2541:2547  _owner */\n      0x00\n      dup1\n        /* \"@openzeppelin/contracts/access/Ownable.sol\":2541:2558  _owner = newOwner */\n      0x0100\n      exp\n      dup2\n      sload\n      dup2\n      0xffffffffffffffffffffffffffffffffffffffff\n      mul\n      not\n      and\n      swap1\n      dup4\n      0xffffffffffffffffffffffffffffffffffffffff\n      and\n      mul\n      or\n      swap1\n      sstore\n      pop\n        /* \"@openzeppelin/contracts/access/Ownable.sol\":2604:2612  newOwner */\n      dup2\n        /* \"@openzeppelin/contracts/access/Ownable.sol\":2573:2613  OwnershipTransferred(oldOwner, newOwner) */\n      0xffffffffffffffffffffffffffffffffffffffff\n      and\n        /* \"@openzeppelin/contracts/access/Ownable.sol\":2594:2602  oldOwner */\n      dup2\n        /* \"@openzeppelin/contracts/access/Ownable.sol\":2573:2613  OwnershipTransferred(oldOwner, newOwner) */\n      0xffffffffffffffffffffffffffffffffffffffff\n      and\n      0x8be0079c531659141344cd1fd0a4f28419497f9722a3daafe3b4186f6b6457e0\n      mload(0x40)\n      mload(0x40)\n      dup1\n      swap2\n      sub\n      swap1\n      log3\n        /* \"@openzeppelin/contracts/access/Ownable.sol\":2496:2620  {... */\n      pop\n        /* \"@openzeppelin/contracts/access/Ownable.sol\":2433:2620  function _transferOwnership(address newOwner) internal virtual {... */\n      pop\n      jump\t// out\n        /* \"contracts/breedings/Breeding.sol\":6224:6502  function getArcanePercent(... */\n    tag_161:\n        /* \"contracts/breedings/Breeding.sol\":6371:6378  uint256 */\n      0x00\n        /* \"contracts/breedings/Breeding.sol\":6408:6411  min */\n      dup4\n        /* \"contracts/breedings/Breeding.sol\":6394:6404  generation */\n      dup6\n        /* \"contracts/breedings/Breeding.sol\":6394:6411  generation <= min */\n      gt\n        /* \"contracts/breedings/Breeding.sol\":6390:6446  if (generation <= min) {... */\n      tag_253\n      jumpi\n        /* \"contracts/breedings/Breeding.sol\":6434:6435  0 */\n      0x00\n        /* \"contracts/breedings/Breeding.sol\":6427:6435  return 0 */\n      swap1\n      pop\n      jump(tag_252)\n        /* \"contracts/breedings/Breeding.sol\":6390:6446  if (generation <= min) {... */\n    tag_253:\n        /* \"contracts/breedings/Breeding.sol\":6492:6495  max */\n      dup3\n        /* \"contracts/breedings/Breeding.sol\":6484:6488  mult */\n      dup3\n        /* \"contracts/breedings/Breeding.sol\":6477:6480  min */\n      dup6\n        /* \"contracts/breedings/Breeding.sol\":6464:6474  generation */\n      dup8\n        /* \"contracts/breedings/Breeding.sol\":6464:6480  generation - min */\n      tag_254\n      swap2\n      swap1\n      tag_255\n      jump\t// in\n    tag_254:\n        /* \"contracts/breedings/Breeding.sol\":6463:6488  (generation - min) * mult */\n      tag_256\n      swap2\n      swap1\n      tag_165\n      jump\t// in\n    tag_256:\n        /* \"contracts/breedings/Breeding.sol\":6462:6495  ((generation - min) * mult) / max */\n      tag_257\n      swap2\n      swap1\n      tag_258\n      jump\t// in\n    tag_257:\n        /* \"contracts/breedings/Breeding.sol\":6455:6495  return ((generation - min) * mult) / max */\n      swap1\n      pop\n        /* \"contracts/breedings/Breeding.sol\":6224:6502  function getArcanePercent(... */\n    tag_252:\n      swap5\n      swap4\n      pop\n      pop\n      pop\n      pop\n      jump\t// out\n        /* \"contracts/breedings/Breeding.sol\":5711:6051  function random(... */\n    tag_166:\n        /* \"contracts/breedings/Breeding.sol\":5855:5868  uint256 value */\n      0x00\n        /* \"contracts/breedings/Breeding.sol\":5977:5986  minNumber */\n      dup3\n        /* \"contracts/breedings/Breeding.sol\":5965:5974  maxNumber */\n      dup3\n        /* \"contracts/breedings/Breeding.sol\":5965:5986  maxNumber - minNumber */\n      tag_260\n      swap2\n      swap1\n      tag_255\n      jump\t// in\n    tag_260:\n        /* \"contracts/breedings/Breeding.sol\":5935:5939  seed */\n      dup6\n        /* \"contracts/breedings/Breeding.sol\":5941:5946  index */\n      dup6\n        /* \"contracts/breedings/Breeding.sol\":5918:5947  abi.encodePacked(seed, index) */\n      add(0x20, mload(0x40))\n      tag_261\n      swap3\n      swap2\n      swap1\n      tag_262\n      jump\t// in\n    tag_261:\n      mload(0x40)\n      0x20\n      dup2\n      dup4\n      sub\n      sub\n      dup2\n      mstore\n      swap1\n      0x40\n      mstore\n        /* \"contracts/breedings/Breeding.sol\":5908:5948  keccak256(abi.encodePacked(seed, index)) */\n      dup1\n      mload\n      swap1\n      0x20\n      add\n      keccak256\n        /* \"contracts/breedings/Breeding.sol\":5900:5949  uint256(keccak256(abi.encodePacked(seed, index))) */\n      0x00\n      shr\n        /* \"contracts/breedings/Breeding.sol\":5900:5987  uint256(keccak256(abi.encodePacked(seed, index))) %... */\n      tag_263\n      swap2\n      swap1\n      tag_264\n      jump\t// in\n    tag_263:\n        /* \"contracts/breedings/Breeding.sol\":5880:5987  value =... */\n      swap1\n      pop\n        /* \"contracts/breedings/Breeding.sol\":6017:6022  value */\n      dup1\n        /* \"contracts/breedings/Breeding.sol\":6005:6014  minNumber */\n      dup4\n        /* \"contracts/breedings/Breeding.sol\":6005:6022  minNumber + value */\n      tag_265\n      swap2\n      swap1\n      tag_173\n      jump\t// in\n    tag_265:\n        /* \"contracts/breedings/Breeding.sol\":5997:6022  value = minNumber + value */\n      swap1\n      pop\n        /* \"contracts/breedings/Breeding.sol\":5711:6051  function random(... */\n      swap5\n      swap4\n      pop\n      pop\n      pop\n      pop\n      jump\t// out\n        /* \"@openzeppelin/contracts/utils/Context.sol\":640:736  function _msgSender() internal view virtual returns (address) {... */\n    tag_246:\n        /* \"@openzeppelin/contracts/utils/Context.sol\":693:700  address */\n      0x00\n        /* \"@openzeppelin/contracts/utils/Context.sol\":719:729  msg.sender */\n      caller\n        /* \"@openzeppelin/contracts/utils/Context.sol\":712:729  return msg.sender */\n      swap1\n      pop\n        /* \"@openzeppelin/contracts/utils/Context.sol\":640:736  function _msgSender() internal view virtual returns (address) {... */\n      swap1\n      jump\t// out\n        /* \"#utility.yul\":88:205   */\n    tag_268:\n        /* \"#utility.yul\":197:198   */\n      0x00\n        /* \"#utility.yul\":194:195   */\n      dup1\n        /* \"#utility.yul\":187:199   */\n      revert\n        /* \"#utility.yul\":334:411   */\n    tag_270:\n        /* \"#utility.yul\":371:378   */\n      0x00\n        /* \"#utility.yul\":400:405   */\n      dup2\n        /* \"#utility.yul\":389:405   */\n      swap1\n      pop\n        /* \"#utility.yul\":334:411   */\n      swap2\n      swap1\n      pop\n      jump\t// out\n        /* \"#utility.yul\":417:539   */\n    tag_271:\n        /* \"#utility.yul\":490:514   */\n      tag_316\n        /* \"#utility.yul\":508:513   */\n      dup2\n        /* \"#utility.yul\":490:514   */\n      tag_270\n      jump\t// in\n    tag_316:\n        /* \"#utility.yul\":483:488   */\n      dup2\n        /* \"#utility.yul\":480:515   */\n      eq\n        /* \"#utility.yul\":470:533   */\n      tag_317\n      jumpi\n        /* \"#utility.yul\":529:530   */\n      0x00\n        /* \"#utility.yul\":526:527   */\n      dup1\n        /* \"#utility.yul\":519:531   */\n      revert\n        /* \"#utility.yul\":470:533   */\n    tag_317:\n        /* \"#utility.yul\":417:539   */\n      pop\n      jump\t// out\n        /* \"#utility.yul\":545:684   */\n    tag_272:\n        /* \"#utility.yul\":591:596   */\n      0x00\n        /* \"#utility.yul\":629:635   */\n      dup2\n        /* \"#utility.yul\":616:636   */\n      calldataload\n        /* \"#utility.yul\":607:636   */\n      swap1\n      pop\n        /* \"#utility.yul\":645:678   */\n      tag_319\n        /* \"#utility.yul\":672:677   */\n      dup2\n        /* \"#utility.yul\":645:678   */\n      tag_271\n      jump\t// in\n    tag_319:\n        /* \"#utility.yul\":545:684   */\n      swap3\n      swap2\n      pop\n      pop\n      jump\t// out\n        /* \"#utility.yul\":690:1019   */\n    tag_26:\n        /* \"#utility.yul\":749:755   */\n      0x00\n        /* \"#utility.yul\":798:800   */\n      0x20\n        /* \"#utility.yul\":786:795   */\n      dup3\n        /* \"#utility.yul\":777:784   */\n      dup5\n        /* \"#utility.yul\":773:796   */\n      sub\n        /* \"#utility.yul\":769:801   */\n      slt\n        /* \"#utility.yul\":766:885   */\n      iszero\n      tag_321\n      jumpi\n        /* \"#utility.yul\":804:883   */\n      tag_322\n      tag_268\n      jump\t// in\n    tag_322:\n        /* \"#utility.yul\":766:885   */\n    tag_321:\n        /* \"#utility.yul\":924:925   */\n      0x00\n        /* \"#utility.yul\":949:1002   */\n      tag_323\n        /* \"#utility.yul\":994:1001   */\n      dup5\n        /* \"#utility.yul\":985:991   */\n      dup3\n        /* \"#utility.yul\":974:983   */\n      dup6\n        /* \"#utility.yul\":970:992   */\n      add\n        /* \"#utility.yul\":949:1002   */\n      tag_272\n      jump\t// in\n    tag_323:\n        /* \"#utility.yul\":939:1002   */\n      swap2\n      pop\n        /* \"#utility.yul\":895:1012   */\n      pop\n        /* \"#utility.yul\":690:1019   */\n      swap3\n      swap2\n      pop\n      pop\n      jump\t// out\n        /* \"#utility.yul\":1025:1143   */\n    tag_273:\n        /* \"#utility.yul\":1112:1136   */\n      tag_325\n        /* \"#utility.yul\":1130:1135   */\n      dup2\n        /* \"#utility.yul\":1112:1136   */\n      tag_270\n      jump\t// in\n    tag_325:\n        /* \"#utility.yul\":1107:1110   */\n      dup3\n        /* \"#utility.yul\":1100:1137   */\n      mstore\n        /* \"#utility.yul\":1025:1143   */\n      pop\n      pop\n      jump\t// out\n        /* \"#utility.yul\":1149:1371   */\n    tag_40:\n        /* \"#utility.yul\":1242:1246   */\n      0x00\n        /* \"#utility.yul\":1280:1282   */\n      0x20\n        /* \"#utility.yul\":1269:1278   */\n      dup3\n        /* \"#utility.yul\":1265:1283   */\n      add\n        /* \"#utility.yul\":1257:1283   */\n      swap1\n      pop\n        /* \"#utility.yul\":1293:1364   */\n      tag_327\n        /* \"#utility.yul\":1361:1362   */\n      0x00\n        /* \"#utility.yul\":1350:1359   */\n      dup4\n        /* \"#utility.yul\":1346:1363   */\n      add\n        /* \"#utility.yul\":1337:1343   */\n      dup5\n        /* \"#utility.yul\":1293:1364   */\n      tag_273\n      jump\t// in\n    tag_327:\n        /* \"#utility.yul\":1149:1371   */\n      swap3\n      swap2\n      pop\n      pop\n      jump\t// out\n        /* \"#utility.yul\":1377:1463   */\n    tag_274:\n        /* \"#utility.yul\":1412:1419   */\n      0x00\n        /* \"#utility.yul\":1452:1456   */\n      0xff\n        /* \"#utility.yul\":1445:1450   */\n      dup3\n        /* \"#utility.yul\":1441:1457   */\n      and\n        /* \"#utility.yul\":1430:1457   */\n      swap1\n      pop\n        /* \"#utility.yul\":1377:1463   */\n      swap2\n      swap1\n      pop\n      jump\t// out\n        /* \"#utility.yul\":1469:1581   */\n    tag_275:\n        /* \"#utility.yul\":1552:1574   */\n      tag_330\n        /* \"#utility.yul\":1568:1573   */\n      dup2\n        /* \"#utility.yul\":1552:1574   */\n      tag_274\n      jump\t// in\n    tag_330:\n        /* \"#utility.yul\":1547:1550   */\n      dup3\n        /* \"#utility.yul\":1540:1575   */\n      mstore\n        /* \"#utility.yul\":1469:1581   */\n      pop\n      pop\n      jump\t// out\n        /* \"#utility.yul\":1587:1801   */\n    tag_49:\n        /* \"#utility.yul\":1676:1680   */\n      0x00\n        /* \"#utility.yul\":1714:1716   */\n      0x20\n        /* \"#utility.yul\":1703:1712   */\n      dup3\n        /* \"#utility.yul\":1699:1717   */\n      add\n        /* \"#utility.yul\":1691:1717   */\n      swap1\n      pop\n        /* \"#utility.yul\":1727:1794   */\n      tag_332\n        /* \"#utility.yul\":1791:1792   */\n      0x00\n        /* \"#utility.yul\":1780:1789   */\n      dup4\n        /* \"#utility.yul\":1776:1793   */\n      add\n        /* \"#utility.yul\":1767:1773   */\n      dup5\n        /* \"#utility.yul\":1727:1794   */\n      tag_275\n      jump\t// in\n    tag_332:\n        /* \"#utility.yul\":1587:1801   */\n      swap3\n      swap2\n      pop\n      pop\n      jump\t// out\n        /* \"#utility.yul\":1807:1933   */\n    tag_276:\n        /* \"#utility.yul\":1844:1851   */\n      0x00\n        /* \"#utility.yul\":1884:1926   */\n      0xffffffffffffffffffffffffffffffffffffffff\n        /* \"#utility.yul\":1877:1882   */\n      dup3\n        /* \"#utility.yul\":1873:1927   */\n      and\n        /* \"#utility.yul\":1862:1927   */\n      swap1\n      pop\n        /* \"#utility.yul\":1807:1933   */\n      swap2\n      swap1\n      pop\n      jump\t// out\n        /* \"#utility.yul\":1939:2035   */\n    tag_277:\n        /* \"#utility.yul\":1976:1983   */\n      0x00\n        /* \"#utility.yul\":2005:2029   */\n      tag_335\n        /* \"#utility.yul\":2023:2028   */\n      dup3\n        /* \"#utility.yul\":2005:2029   */\n      tag_276\n      jump\t// in\n    tag_335:\n        /* \"#utility.yul\":1994:2029   */\n      swap1\n      pop\n        /* \"#utility.yul\":1939:2035   */\n      swap2\n      swap1\n      pop\n      jump\t// out\n        /* \"#utility.yul\":2041:2159   */\n    tag_278:\n        /* \"#utility.yul\":2128:2152   */\n      tag_337\n        /* \"#utility.yul\":2146:2151   */\n      dup2\n        /* \"#utility.yul\":2128:2152   */\n      tag_277\n      jump\t// in\n    tag_337:\n        /* \"#utility.yul\":2123:2126   */\n      dup3\n        /* \"#utility.yul\":2116:2153   */\n      mstore\n        /* \"#utility.yul\":2041:2159   */\n      pop\n      pop\n      jump\t// out\n        /* \"#utility.yul\":2165:2387   */\n    tag_56:\n        /* \"#utility.yul\":2258:2262   */\n      0x00\n        /* \"#utility.yul\":2296:2298   */\n      0x20\n        /* \"#utility.yul\":2285:2294   */\n      dup3\n        /* \"#utility.yul\":2281:2299   */\n      add\n        /* \"#utility.yul\":2273:2299   */\n      swap1\n      pop\n        /* \"#utility.yul\":2309:2380   */\n      tag_339\n        /* \"#utility.yul\":2377:2378   */\n      0x00\n        /* \"#utility.yul\":2366:2375   */\n      dup4\n        /* \"#utility.yul\":2362:2379   */\n      add\n        /* \"#utility.yul\":2353:2359   */\n      dup5\n        /* \"#utility.yul\":2309:2380   */\n      tag_278\n      jump\t// in\n    tag_339:\n        /* \"#utility.yul\":2165:2387   */\n      swap3\n      swap2\n      pop\n      pop\n      jump\t// out\n        /* \"#utility.yul\":2393:2511   */\n    tag_279:\n        /* \"#utility.yul\":2464:2486   */\n      tag_341\n        /* \"#utility.yul\":2480:2485   */\n      dup2\n        /* \"#utility.yul\":2464:2486   */\n      tag_274\n      jump\t// in\n    tag_341:\n        /* \"#utility.yul\":2457:2462   */\n      dup2\n        /* \"#utility.yul\":2454:2487   */\n      eq\n        /* \"#utility.yul\":2444:2505   */\n      tag_342\n      jumpi\n        /* \"#utility.yul\":2501:2502   */\n      0x00\n        /* \"#utility.yul\":2498:2499   */\n      dup1\n        /* \"#utility.yul\":2491:2503   */\n      revert\n        /* \"#utility.yul\":2444:2505   */\n    tag_342:\n        /* \"#utility.yul\":2393:2511   */\n      pop\n      jump\t// out\n        /* \"#utility.yul\":2517:2652   */\n    tag_280:\n        /* \"#utility.yul\":2561:2566   */\n      0x00\n        /* \"#utility.yul\":2599:2605   */\n      dup2\n        /* \"#utility.yul\":2586:2606   */\n      calldataload\n        /* \"#utility.yul\":2577:2606   */\n      swap1\n      pop\n        /* \"#utility.yul\":2615:2646   */\n      tag_344\n        /* \"#utility.yul\":2640:2645   */\n      dup2\n        /* \"#utility.yul\":2615:2646   */\n      tag_279\n      jump\t// in\n    tag_344:\n        /* \"#utility.yul\":2517:2652   */\n      swap3\n      swap2\n      pop\n      pop\n      jump\t// out\n        /* \"#utility.yul\":2658:2983   */\n    tag_65:\n        /* \"#utility.yul\":2715:2721   */\n      0x00\n        /* \"#utility.yul\":2764:2766   */\n      0x20\n        /* \"#utility.yul\":2752:2761   */\n      dup3\n        /* \"#utility.yul\":2743:2750   */\n      dup5\n        /* \"#utility.yul\":2739:2762   */\n      sub\n        /* \"#utility.yul\":2735:2767   */\n      slt\n        /* \"#utility.yul\":2732:2851   */\n      iszero\n      tag_346\n      jumpi\n        /* \"#utility.yul\":2770:2849   */\n      tag_347\n      tag_268\n      jump\t// in\n    tag_347:\n        /* \"#utility.yul\":2732:2851   */\n    tag_346:\n        /* \"#utility.yul\":2890:2891   */\n      0x00\n        /* \"#utility.yul\":2915:2966   */\n      tag_348\n        /* \"#utility.yul\":2958:2965   */\n      dup5\n        /* \"#utility.yul\":2949:2955   */\n      dup3\n        /* \"#utility.yul\":2938:2947   */\n      dup6\n        /* \"#utility.yul\":2934:2956   */\n      add\n        /* \"#utility.yul\":2915:2966   */\n      tag_280\n      jump\t// in\n    tag_348:\n        /* \"#utility.yul\":2905:2966   */\n      swap2\n      pop\n        /* \"#utility.yul\":2861:2976   */\n      pop\n        /* \"#utility.yul\":2658:2983   */\n      swap3\n      swap2\n      pop\n      pop\n      jump\t// out\n        /* \"#utility.yul\":2989:3463   */\n    tag_75:\n        /* \"#utility.yul\":3057:3063   */\n      0x00\n        /* \"#utility.yul\":3065:3071   */\n      dup1\n        /* \"#utility.yul\":3114:3116   */\n      0x40\n        /* \"#utility.yul\":3102:3111   */\n      dup4\n        /* \"#utility.yul\":3093:3100   */\n      dup6\n        /* \"#utility.yul\":3089:3112   */\n      sub\n        /* \"#utility.yul\":3085:3117   */\n      slt\n        /* \"#utility.yul\":3082:3201   */\n      iszero\n      tag_350\n      jumpi\n        /* \"#utility.yul\":3120:3199   */\n      tag_351\n      tag_268\n      jump\t// in\n    tag_351:\n        /* \"#utility.yul\":3082:3201   */\n    tag_350:\n        /* \"#utility.yul\":3240:3241   */\n      0x00\n        /* \"#utility.yul\":3265:3318   */\n      tag_352\n        /* \"#utility.yul\":3310:3317   */\n      dup6\n        /* \"#utility.yul\":3301:3307   */\n      dup3\n        /* \"#utility.yul\":3290:3299   */\n      dup7\n        /* \"#utility.yul\":3286:3308   */\n      add\n        /* \"#utility.yul\":3265:3318   */\n      tag_272\n      jump\t// in\n    tag_352:\n        /* \"#utility.yul\":3255:3318   */\n      swap3\n      pop\n        /* \"#utility.yul\":3211:3328   */\n      pop\n        /* \"#utility.yul\":3367:3369   */\n      0x20\n        /* \"#utility.yul\":3393:3446   */\n      tag_353\n        /* \"#utility.yul\":3438:3445   */\n      dup6\n        /* \"#utility.yul\":3429:3435   */\n      dup3\n        /* \"#utility.yul\":3418:3427   */\n      dup7\n        /* \"#utility.yul\":3414:3436   */\n      add\n        /* \"#utility.yul\":3393:3446   */\n      tag_272\n      jump\t// in\n    tag_353:\n        /* \"#utility.yul\":3383:3446   */\n      swap2\n      pop\n        /* \"#utility.yul\":3338:3456   */\n      pop\n        /* \"#utility.yul\":2989:3463   */\n      swap3\n      pop\n      swap3\n      swap1\n      pop\n      jump\t// out\n        /* \"#utility.yul\":3469:3911   */\n    tag_78:\n        /* \"#utility.yul\":3618:3622   */\n      0x00\n        /* \"#utility.yul\":3656:3658   */\n      0x60\n        /* \"#utility.yul\":3645:3654   */\n      dup3\n        /* \"#utility.yul\":3641:3659   */\n      add\n        /* \"#utility.yul\":3633:3659   */\n      swap1\n      pop\n        /* \"#utility.yul\":3669:3740   */\n      tag_355\n        /* \"#utility.yul\":3737:3738   */\n      0x00\n        /* \"#utility.yul\":3726:3735   */\n      dup4\n        /* \"#utility.yul\":3722:3739   */\n      add\n        /* \"#utility.yul\":3713:3719   */\n      dup7\n        /* \"#utility.yul\":3669:3740   */\n      tag_273\n      jump\t// in\n    tag_355:\n        /* \"#utility.yul\":3750:3822   */\n      tag_356\n        /* \"#utility.yul\":3818:3820   */\n      0x20\n        /* \"#utility.yul\":3807:3816   */\n      dup4\n        /* \"#utility.yul\":3803:3821   */\n      add\n        /* \"#utility.yul\":3794:3800   */\n      dup6\n        /* \"#utility.yul\":3750:3822   */\n      tag_273\n      jump\t// in\n    tag_356:\n        /* \"#utility.yul\":3832:3904   */\n      tag_357\n        /* \"#utility.yul\":3900:3902   */\n      0x40\n        /* \"#utility.yul\":3889:3898   */\n      dup4\n        /* \"#utility.yul\":3885:3903   */\n      add\n        /* \"#utility.yul\":3876:3882   */\n      dup5\n        /* \"#utility.yul\":3832:3904   */\n      tag_273\n      jump\t// in\n    tag_357:\n        /* \"#utility.yul\":3469:3911   */\n      swap5\n      swap4\n      pop\n      pop\n      pop\n      pop\n      jump\t// out\n        /* \"#utility.yul\":3917:4039   */\n    tag_281:\n        /* \"#utility.yul\":3990:4014   */\n      tag_359\n        /* \"#utility.yul\":4008:4013   */\n      dup2\n        /* \"#utility.yul\":3990:4014   */\n      tag_277\n      jump\t// in\n    tag_359:\n        /* \"#utility.yul\":3983:3988   */\n      dup2\n        /* \"#utility.yul\":3980:4015   */\n      eq\n        /* \"#utility.yul\":3970:4033   */\n      tag_360\n      jumpi\n        /* \"#utility.yul\":4029:4030   */\n      0x00\n        /* \"#utility.yul\":4026:4027   */\n      dup1\n        /* \"#utility.yul\":4019:4031   */\n      revert\n        /* \"#utility.yul\":3970:4033   */\n    tag_360:\n        /* \"#utility.yul\":3917:4039   */\n      pop\n      jump\t// out\n        /* \"#utility.yul\":4045:4184   */\n    tag_282:\n        /* \"#utility.yul\":4091:4096   */\n      0x00\n        /* \"#utility.yul\":4129:4135   */\n      dup2\n        /* \"#utility.yul\":4116:4136   */\n      calldataload\n        /* \"#utility.yul\":4107:4136   */\n      swap1\n      pop\n        /* \"#utility.yul\":4145:4178   */\n      tag_362\n        /* \"#utility.yul\":4172:4177   */\n      dup2\n        /* \"#utility.yul\":4145:4178   */\n      tag_281\n      jump\t// in\n    tag_362:\n        /* \"#utility.yul\":4045:4184   */\n      swap3\n      swap2\n      pop\n      pop\n      jump\t// out\n        /* \"#utility.yul\":4190:4519   */\n    tag_84:\n        /* \"#utility.yul\":4249:4255   */\n      0x00\n        /* \"#utility.yul\":4298:4300   */\n      0x20\n        /* \"#utility.yul\":4286:4295   */\n      dup3\n        /* \"#utility.yul\":4277:4284   */\n      dup5\n        /* \"#utility.yul\":4273:4296   */\n      sub\n        /* \"#utility.yul\":4269:4301   */\n      slt\n        /* \"#utility.yul\":4266:4385   */\n      iszero\n      tag_364\n      jumpi\n        /* \"#utility.yul\":4304:4383   */\n      tag_365\n      tag_268\n      jump\t// in\n    tag_365:\n        /* \"#utility.yul\":4266:4385   */\n    tag_364:\n        /* \"#utility.yul\":4424:4425   */\n      0x00\n        /* \"#utility.yul\":4449:4502   */\n      tag_366\n        /* \"#utility.yul\":4494:4501   */\n      dup5\n        /* \"#utility.yul\":4485:4491   */\n      dup3\n        /* \"#utility.yul\":4474:4483   */\n      dup6\n        /* \"#utility.yul\":4470:4492   */\n      add\n        /* \"#utility.yul\":4449:4502   */\n      tag_282\n      jump\t// in\n    tag_366:\n        /* \"#utility.yul\":4439:4502   */\n      swap2\n      pop\n        /* \"#utility.yul\":4395:4512   */\n      pop\n        /* \"#utility.yul\":4190:4519   */\n      swap3\n      swap2\n      pop\n      pop\n      jump\t// out\n        /* \"#utility.yul\":4525:4651   */\n    tag_283:\n        /* \"#utility.yul\":4620:4644   */\n      tag_368\n        /* \"#utility.yul\":4638:4643   */\n      dup2\n        /* \"#utility.yul\":4620:4644   */\n      tag_270\n      jump\t// in\n    tag_368:\n        /* \"#utility.yul\":4615:4618   */\n      dup3\n        /* \"#utility.yul\":4608:4645   */\n      mstore\n        /* \"#utility.yul\":4525:4651   */\n      pop\n      pop\n      jump\t// out\n        /* \"#utility.yul\":4657:4895   */\n    tag_122:\n        /* \"#utility.yul\":4758:4762   */\n      0x00\n        /* \"#utility.yul\":4796:4798   */\n      0x20\n        /* \"#utility.yul\":4785:4794   */\n      dup3\n        /* \"#utility.yul\":4781:4799   */\n      add\n        /* \"#utility.yul\":4773:4799   */\n      swap1\n      pop\n        /* \"#utility.yul\":4809:4888   */\n      tag_370\n        /* \"#utility.yul\":4885:4886   */\n      0x00\n        /* \"#utility.yul\":4874:4883   */\n      dup4\n        /* \"#utility.yul\":4870:4887   */\n      add\n        /* \"#utility.yul\":4861:4867   */\n      dup5\n        /* \"#utility.yul\":4809:4888   */\n      tag_283\n      jump\t// in\n    tag_370:\n        /* \"#utility.yul\":4657:4895   */\n      swap3\n      swap2\n      pop\n      pop\n      jump\t// out\n        /* \"#utility.yul\":4901:5040   */\n    tag_284:\n        /* \"#utility.yul\":4956:4961   */\n      0x00\n        /* \"#utility.yul\":4987:4993   */\n      dup2\n        /* \"#utility.yul\":4981:4994   */\n      mload\n        /* \"#utility.yul\":4972:4994   */\n      swap1\n      pop\n        /* \"#utility.yul\":5003:5034   */\n      tag_372\n        /* \"#utility.yul\":5028:5033   */\n      dup2\n        /* \"#utility.yul\":5003:5034   */\n      tag_279\n      jump\t// in\n    tag_372:\n        /* \"#utility.yul\":4901:5040   */\n      swap3\n      swap2\n      pop\n      pop\n      jump\t// out\n        /* \"#utility.yul\":5046:5393   */\n    tag_126:\n        /* \"#utility.yul\":5114:5120   */\n      0x00\n        /* \"#utility.yul\":5163:5165   */\n      0x20\n        /* \"#utility.yul\":5151:5160   */\n      dup3\n        /* \"#utility.yul\":5142:5149   */\n      dup5\n        /* \"#utility.yul\":5138:5161   */\n      sub\n        /* \"#utility.yul\":5134:5166   */\n      slt\n        /* \"#utility.yul\":5131:5250   */\n      iszero\n      tag_374\n      jumpi\n        /* \"#utility.yul\":5169:5248   */\n      tag_375\n      tag_268\n      jump\t// in\n    tag_375:\n        /* \"#utility.yul\":5131:5250   */\n    tag_374:\n        /* \"#utility.yul\":5289:5290   */\n      0x00\n        /* \"#utility.yul\":5314:5376   */\n      tag_376\n        /* \"#utility.yul\":5368:5375   */\n      dup5\n        /* \"#utility.yul\":5359:5365   */\n      dup3\n        /* \"#utility.yul\":5348:5357   */\n      dup6\n        /* \"#utility.yul\":5344:5366   */\n      add\n        /* \"#utility.yul\":5314:5376   */\n      tag_284\n      jump\t// in\n    tag_376:\n        /* \"#utility.yul\":5304:5376   */\n      swap2\n      pop\n        /* \"#utility.yul\":5260:5386   */\n      pop\n        /* \"#utility.yul\":5046:5393   */\n      swap3\n      swap2\n      pop\n      pop\n      jump\t// out\n        /* \"#utility.yul\":5399:5568   */\n    tag_285:\n        /* \"#utility.yul\":5483:5494   */\n      0x00\n        /* \"#utility.yul\":5517:5523   */\n      dup3\n        /* \"#utility.yul\":5512:5515   */\n      dup3\n        /* \"#utility.yul\":5505:5524   */\n      mstore\n        /* \"#utility.yul\":5557:5561   */\n      0x20\n        /* \"#utility.yul\":5552:5555   */\n      dup3\n        /* \"#utility.yul\":5548:5562   */\n      add\n        /* \"#utility.yul\":5533:5562   */\n      swap1\n      pop\n        /* \"#utility.yul\":5399:5568   */\n      swap3\n      swap2\n      pop\n      pop\n      jump\t// out\n        /* \"#utility.yul\":5574:5743   */\n    tag_286:\n        /* \"#utility.yul\":5714:5735   */\n      0x696e73756666696369656e742063686172676500000000000000000000000000\n        /* \"#utility.yul\":5710:5711   */\n      0x00\n        /* \"#utility.yul\":5702:5708   */\n      dup3\n        /* \"#utility.yul\":5698:5712   */\n      add\n        /* \"#utility.yul\":5691:5736   */\n      mstore\n        /* \"#utility.yul\":5574:5743   */\n      pop\n      jump\t// out\n        /* \"#utility.yul\":5749:6115   */\n    tag_287:\n        /* \"#utility.yul\":5891:5894   */\n      0x00\n        /* \"#utility.yul\":5912:5979   */\n      tag_380\n        /* \"#utility.yul\":5976:5978   */\n      0x13\n        /* \"#utility.yul\":5971:5974   */\n      dup4\n        /* \"#utility.yul\":5912:5979   */\n      tag_285\n      jump\t// in\n    tag_380:\n        /* \"#utility.yul\":5905:5979   */\n      swap2\n      pop\n        /* \"#utility.yul\":5988:6081   */\n      tag_381\n        /* \"#utility.yul\":6077:6080   */\n      dup3\n        /* \"#utility.yul\":5988:6081   */\n      tag_286\n      jump\t// in\n    tag_381:\n        /* \"#utility.yul\":6106:6108   */\n      0x20\n        /* \"#utility.yul\":6101:6104   */\n      dup3\n        /* \"#utility.yul\":6097:6109   */\n      add\n        /* \"#utility.yul\":6090:6109   */\n      swap1\n      pop\n        /* \"#utility.yul\":5749:6115   */\n      swap2\n      swap1\n      pop\n      jump\t// out\n        /* \"#utility.yul\":6121:6540   */\n    tag_129:\n        /* \"#utility.yul\":6287:6291   */\n      0x00\n        /* \"#utility.yul\":6325:6327   */\n      0x20\n        /* \"#utility.yul\":6314:6323   */\n      dup3\n        /* \"#utility.yul\":6310:6328   */\n      add\n        /* \"#utility.yul\":6302:6328   */\n      swap1\n      pop\n        /* \"#utility.yul\":6374:6383   */\n      dup2\n        /* \"#utility.yul\":6368:6372   */\n      dup2\n        /* \"#utility.yul\":6364:6384   */\n      sub\n        /* \"#utility.yul\":6360:6361   */\n      0x00\n        /* \"#utility.yul\":6349:6358   */\n      dup4\n        /* \"#utility.yul\":6345:6362   */\n      add\n        /* \"#utility.yul\":6338:6385   */\n      mstore\n        /* \"#utility.yul\":6402:6533   */\n      tag_383\n        /* \"#utility.yul\":6528:6532   */\n      dup2\n        /* \"#utility.yul\":6402:6533   */\n      tag_287\n      jump\t// in\n    tag_383:\n        /* \"#utility.yul\":6394:6533   */\n      swap1\n      pop\n        /* \"#utility.yul\":6121:6540   */\n      swap2\n      swap1\n      pop\n      jump\t// out\n        /* \"#utility.yul\":6546:6625   */\n    tag_288:\n        /* \"#utility.yul\":6585:6592   */\n      0x00\n        /* \"#utility.yul\":6614:6619   */\n      dup2\n        /* \"#utility.yul\":6603:6619   */\n      swap1\n      pop\n        /* \"#utility.yul\":6546:6625   */\n      swap2\n      swap1\n      pop\n      jump\t// out\n        /* \"#utility.yul\":6631:6788   */\n    tag_289:\n        /* \"#utility.yul\":6736:6781   */\n      tag_386\n        /* \"#utility.yul\":6756:6780   */\n      tag_387\n        /* \"#utility.yul\":6774:6779   */\n      dup3\n        /* \"#utility.yul\":6756:6780   */\n      tag_270\n      jump\t// in\n    tag_387:\n        /* \"#utility.yul\":6736:6781   */\n      tag_288\n      jump\t// in\n    tag_386:\n        /* \"#utility.yul\":6731:6734   */\n      dup3\n        /* \"#utility.yul\":6724:6782   */\n      mstore\n        /* \"#utility.yul\":6631:6788   */\n      pop\n      pop\n      jump\t// out\n        /* \"#utility.yul\":6794:7755   */\n    tag_137:\n        /* \"#utility.yul\":7046:7049   */\n      0x00\n        /* \"#utility.yul\":7061:7136   */\n      tag_389\n        /* \"#utility.yul\":7132:7135   */\n      dup3\n        /* \"#utility.yul\":7123:7129   */\n      dup10\n        /* \"#utility.yul\":7061:7136   */\n      tag_289\n      jump\t// in\n    tag_389:\n        /* \"#utility.yul\":7161:7163   */\n      0x20\n        /* \"#utility.yul\":7156:7159   */\n      dup3\n        /* \"#utility.yul\":7152:7164   */\n      add\n        /* \"#utility.yul\":7145:7164   */\n      swap2\n      pop\n        /* \"#utility.yul\":7174:7249   */\n      tag_390\n        /* \"#utility.yul\":7245:7248   */\n      dup3\n        /* \"#utility.yul\":7236:7242   */\n      dup9\n        /* \"#utility.yul\":7174:7249   */\n      tag_289\n      jump\t// in\n    tag_390:\n        /* \"#utility.yul\":7274:7276   */\n      0x20\n        /* \"#utility.yul\":7269:7272   */\n      dup3\n        /* \"#utility.yul\":7265:7277   */\n      add\n        /* \"#utility.yul\":7258:7277   */\n      swap2\n      pop\n        /* \"#utility.yul\":7287:7362   */\n      tag_391\n        /* \"#utility.yul\":7358:7361   */\n      dup3\n        /* \"#utility.yul\":7349:7355   */\n      dup8\n        /* \"#utility.yul\":7287:7362   */\n      tag_289\n      jump\t// in\n    tag_391:\n        /* \"#utility.yul\":7387:7389   */\n      0x20\n        /* \"#utility.yul\":7382:7385   */\n      dup3\n        /* \"#utility.yul\":7378:7390   */\n      add\n        /* \"#utility.yul\":7371:7390   */\n      swap2\n      pop\n        /* \"#utility.yul\":7400:7475   */\n      tag_392\n        /* \"#utility.yul\":7471:7474   */\n      dup3\n        /* \"#utility.yul\":7462:7468   */\n      dup7\n        /* \"#utility.yul\":7400:7475   */\n      tag_289\n      jump\t// in\n    tag_392:\n        /* \"#utility.yul\":7500:7502   */\n      0x20\n        /* \"#utility.yul\":7495:7498   */\n      dup3\n        /* \"#utility.yul\":7491:7503   */\n      add\n        /* \"#utility.yul\":7484:7503   */\n      swap2\n      pop\n        /* \"#utility.yul\":7513:7588   */\n      tag_393\n        /* \"#utility.yul\":7584:7587   */\n      dup3\n        /* \"#utility.yul\":7575:7581   */\n      dup6\n        /* \"#utility.yul\":7513:7588   */\n      tag_289\n      jump\t// in\n    tag_393:\n        /* \"#utility.yul\":7613:7615   */\n      0x20\n        /* \"#utility.yul\":7608:7611   */\n      dup3\n        /* \"#utility.yul\":7604:7616   */\n      add\n        /* \"#utility.yul\":7597:7616   */\n      swap2\n      pop\n        /* \"#utility.yul\":7626:7701   */\n      tag_394\n        /* \"#utility.yul\":7697:7700   */\n      dup3\n        /* \"#utility.yul\":7688:7694   */\n      dup5\n        /* \"#utility.yul\":7626:7701   */\n      tag_289\n      jump\t// in\n    tag_394:\n        /* \"#utility.yul\":7726:7728   */\n      0x20\n        /* \"#utility.yul\":7721:7724   */\n      dup3\n        /* \"#utility.yul\":7717:7729   */\n      add\n        /* \"#utility.yul\":7710:7729   */\n      swap2\n      pop\n        /* \"#utility.yul\":7746:7749   */\n      dup2\n        /* \"#utility.yul\":7739:7749   */\n      swap1\n      pop\n        /* \"#utility.yul\":6794:7755   */\n      swap8\n      swap7\n      pop\n      pop\n      pop\n      pop\n      pop\n      pop\n      pop\n      jump\t// out\n        /* \"#utility.yul\":7761:7932   */\n    tag_290:\n        /* \"#utility.yul\":7901:7924   */\n      0x72616e646f6d536565642063616e277420626520300000000000000000000000\n        /* \"#utility.yul\":7897:7898   */\n      0x00\n        /* \"#utility.yul\":7889:7895   */\n      dup3\n        /* \"#utility.yul\":7885:7899   */\n      add\n        /* \"#utility.yul\":7878:7925   */\n      mstore\n        /* \"#utility.yul\":7761:7932   */\n      pop\n      jump\t// out\n        /* \"#utility.yul\":7938:8304   */\n    tag_291:\n        /* \"#utility.yul\":8080:8083   */\n      0x00\n        /* \"#utility.yul\":8101:8168   */\n      tag_397\n        /* \"#utility.yul\":8165:8167   */\n      0x15\n        /* \"#utility.yul\":8160:8163   */\n      dup4\n        /* \"#utility.yul\":8101:8168   */\n      tag_285\n      jump\t// in\n    tag_397:\n        /* \"#utility.yul\":8094:8168   */\n      swap2\n      pop\n        /* \"#utility.yul\":8177:8270   */\n      tag_398\n        /* \"#utility.yul\":8266:8269   */\n      dup3\n        /* \"#utility.yul\":8177:8270   */\n      tag_290\n      jump\t// in\n    tag_398:\n        /* \"#utility.yul\":8295:8297   */\n      0x20\n        /* \"#utility.yul\":8290:8293   */\n      dup3\n        /* \"#utility.yul\":8286:8298   */\n      add\n        /* \"#utility.yul\":8279:8298   */\n      swap1\n      pop\n        /* \"#utility.yul\":7938:8304   */\n      swap2\n      swap1\n      pop\n      jump\t// out\n        /* \"#utility.yul\":8310:8729   */\n    tag_140:\n        /* \"#utility.yul\":8476:8480   */\n      0x00\n        /* \"#utility.yul\":8514:8516   */\n      0x20\n        /* \"#utility.yul\":8503:8512   */\n      dup3\n        /* \"#utility.yul\":8499:8517   */\n      add\n        /* \"#utility.yul\":8491:8517   */\n      swap1\n      pop\n        /* \"#utility.yul\":8563:8572   */\n      dup2\n        /* \"#utility.yul\":8557:8561   */\n      dup2\n        /* \"#utility.yul\":8553:8573   */\n      sub\n        /* \"#utility.yul\":8549:8550   */\n      0x00\n        /* \"#utility.yul\":8538:8547   */\n      dup4\n        /* \"#utility.yul\":8534:8551   */\n      add\n        /* \"#utility.yul\":8527:8574   */\n      mstore\n        /* \"#utility.yul\":8591:8722   */\n      tag_400\n        /* \"#utility.yul\":8717:8721   */\n      dup2\n        /* \"#utility.yul\":8591:8722   */\n      tag_291\n      jump\t// in\n    tag_400:\n        /* \"#utility.yul\":8583:8722   */\n      swap1\n      pop\n        /* \"#utility.yul\":8310:8729   */\n      swap2\n      swap1\n      pop\n      jump\t// out\n        /* \"#utility.yul\":8735:8915   */\n    tag_292:\n        /* \"#utility.yul\":8783:8860   */\n      0x4e487b7100000000000000000000000000000000000000000000000000000000\n        /* \"#utility.yul\":8780:8781   */\n      0x00\n        /* \"#utility.yul\":8773:8861   */\n      mstore\n        /* \"#utility.yul\":8880:8884   */\n      0x11\n        /* \"#utility.yul\":8877:8878   */\n      0x04\n        /* \"#utility.yul\":8870:8885   */\n      mstore\n        /* \"#utility.yul\":8904:8908   */\n      0x24\n        /* \"#utility.yul\":8901:8902   */\n      0x00\n        /* \"#utility.yul\":8894:8909   */\n      revert\n        /* \"#utility.yul\":8921:9154   */\n    tag_142:\n        /* \"#utility.yul\":8960:8963   */\n      0x00\n        /* \"#utility.yul\":8983:9007   */\n      tag_403\n        /* \"#utility.yul\":9001:9006   */\n      dup3\n        /* \"#utility.yul\":8983:9007   */\n      tag_270\n      jump\t// in\n    tag_403:\n        /* \"#utility.yul\":8974:9007   */\n      swap2\n      pop\n        /* \"#utility.yul\":9029:9095   */\n      0xffffffffffffffffffffffffffffffffffffffffffffffffffffffffffffffff\n        /* \"#utility.yul\":9022:9027   */\n      dup3\n        /* \"#utility.yul\":9019:9096   */\n      sub\n        /* \"#utility.yul\":9016:9119   */\n      tag_404\n      jumpi\n        /* \"#utility.yul\":9099:9117   */\n      tag_405\n      tag_292\n      jump\t// in\n    tag_405:\n        /* \"#utility.yul\":9016:9119   */\n    tag_404:\n        /* \"#utility.yul\":9146:9147   */\n      0x01\n        /* \"#utility.yul\":9139:9144   */\n      dup3\n        /* \"#utility.yul\":9135:9148   */\n      add\n        /* \"#utility.yul\":9128:9148   */\n      swap1\n      pop\n        /* \"#utility.yul\":8921:9154   */\n      swap2\n      swap1\n      pop\n      jump\t// out\n        /* \"#utility.yul\":9160:9253   */\n    tag_293:\n        /* \"#utility.yul\":9196:9203   */\n      0x00\n        /* \"#utility.yul\":9236:9246   */\n      0xffffffff\n        /* \"#utility.yul\":9229:9234   */\n      dup3\n        /* \"#utility.yul\":9225:9247   */\n      and\n        /* \"#utility.yul\":9214:9247   */\n      swap1\n      pop\n        /* \"#utility.yul\":9160:9253   */\n      swap2\n      swap1\n      pop\n      jump\t// out\n        /* \"#utility.yul\":9259:9379   */\n    tag_294:\n        /* \"#utility.yul\":9331:9354   */\n      tag_408\n        /* \"#utility.yul\":9348:9353   */\n      dup2\n        /* \"#utility.yul\":9331:9354   */\n      tag_293\n      jump\t// in\n    tag_408:\n        /* \"#utility.yul\":9324:9329   */\n      dup2\n        /* \"#utility.yul\":9321:9355   */\n      eq\n        /* \"#utility.yul\":9311:9373   */\n      tag_409\n      jumpi\n        /* \"#utility.yul\":9369:9370   */\n      0x00\n        /* \"#utility.yul\":9366:9367   */\n      dup1\n        /* \"#utility.yul\":9359:9371   */\n      revert\n        /* \"#utility.yul\":9311:9373   */\n    tag_409:\n        /* \"#utility.yul\":9259:9379   */\n      pop\n      jump\t// out\n        /* \"#utility.yul\":9385:9526   */\n    tag_295:\n        /* \"#utility.yul\":9441:9446   */\n      0x00\n        /* \"#utility.yul\":9472:9478   */\n      dup2\n        /* \"#utility.yul\":9466:9479   */\n      mload\n        /* \"#utility.yul\":9457:9479   */\n      swap1\n      pop\n        /* \"#utility.yul\":9488:9520   */\n      tag_411\n        /* \"#utility.yul\":9514:9519   */\n      dup2\n        /* \"#utility.yul\":9488:9520   */\n      tag_294\n      jump\t// in\n    tag_411:\n        /* \"#utility.yul\":9385:9526   */\n      swap3\n      swap2\n      pop\n      pop\n      jump\t// out\n        /* \"#utility.yul\":9532:9881   */\n    tag_147:\n        /* \"#utility.yul\":9601:9607   */\n      0x00\n        /* \"#utility.yul\":9650:9652   */\n      0x20\n        /* \"#utility.yul\":9638:9647   */\n      dup3\n        /* \"#utility.yul\":9629:9636   */\n      dup5\n        /* \"#utility.yul\":9625:9648   */\n      sub\n        /* \"#utility.yul\":9621:9653   */\n      slt\n        /* \"#utility.yul\":9618:9737   */\n      iszero\n      tag_413\n      jumpi\n        /* \"#utility.yul\":9656:9735   */\n      tag_414\n      tag_268\n      jump\t// in\n    tag_414:\n        /* \"#utility.yul\":9618:9737   */\n    tag_413:\n        /* \"#utility.yul\":9776:9777   */\n      0x00\n        /* \"#utility.yul\":9801:9864   */\n      tag_415\n        /* \"#utility.yul\":9856:9863   */\n      dup5\n        /* \"#utility.yul\":9847:9853   */\n      dup3\n        /* \"#utility.yul\":9836:9845   */\n      dup6\n        /* \"#utility.yul\":9832:9854   */\n      add\n        /* \"#utility.yul\":9801:9864   */\n      tag_295\n      jump\t// in\n    tag_415:\n        /* \"#utility.yul\":9791:9864   */\n      swap2\n      pop\n        /* \"#utility.yul\":9747:9874   */\n      pop\n        /* \"#utility.yul\":9532:9881   */\n      swap3\n      swap2\n      pop\n      pop\n      jump\t// out\n        /* \"#utility.yul\":9887:10084   */\n    tag_153:\n        /* \"#utility.yul\":9926:9929   */\n      0x00\n        /* \"#utility.yul\":9945:9964   */\n      tag_417\n        /* \"#utility.yul\":9962:9963   */\n      dup3\n        /* \"#utility.yul\":9945:9964   */\n      tag_293\n      jump\t// in\n    tag_417:\n        /* \"#utility.yul\":9940:9964   */\n      swap2\n      pop\n        /* \"#utility.yul\":9978:9997   */\n      tag_418\n        /* \"#utility.yul\":9995:9996   */\n      dup4\n        /* \"#utility.yul\":9978:9997   */\n      tag_293\n      jump\t// in\n    tag_418:\n        /* \"#utility.yul\":9973:9997   */\n      swap3\n      pop\n        /* \"#utility.yul\":10020:10021   */\n      dup3\n        /* \"#utility.yul\":10017:10018   */\n      dup3\n        /* \"#utility.yul\":10013:10022   */\n      add\n        /* \"#utility.yul\":10006:10022   */\n      swap1\n      pop\n        /* \"#utility.yul\":10043:10053   */\n      0xffffffff\n        /* \"#utility.yul\":10038:10041   */\n      dup2\n        /* \"#utility.yul\":10035:10054   */\n      gt\n        /* \"#utility.yul\":10032:10077   */\n      iszero\n      tag_419\n      jumpi\n        /* \"#utility.yul\":10057:10075   */\n      tag_420\n      tag_292\n      jump\t// in\n    tag_420:\n        /* \"#utility.yul\":10032:10077   */\n    tag_419:\n        /* \"#utility.yul\":9887:10084   */\n      swap3\n      swap2\n      pop\n      pop\n      jump\t// out\n        /* \"#utility.yul\":10090:10270   */\n    tag_296:\n        /* \"#utility.yul\":10138:10215   */\n      0x4e487b7100000000000000000000000000000000000000000000000000000000\n        /* \"#utility.yul\":10135:10136   */\n      0x00\n        /* \"#utility.yul\":10128:10216   */\n      mstore\n        /* \"#utility.yul\":10235:10239   */\n      0x12\n        /* \"#utility.yul\":10232:10233   */\n      0x04\n        /* \"#utility.yul\":10225:10240   */\n      mstore\n        /* \"#utility.yul\":10259:10263   */\n      0x24\n        /* \"#utility.yul\":10256:10257   */\n      0x00\n        /* \"#utility.yul\":10249:10264   */\n      revert\n        /* \"#utility.yul\":10276:10458   */\n    tag_155:\n        /* \"#utility.yul\":10315:10316   */\n      0x00\n        /* \"#utility.yul\":10332:10351   */\n      tag_423\n        /* \"#utility.yul\":10349:10350   */\n      dup3\n        /* \"#utility.yul\":10332:10351   */\n      tag_293\n      jump\t// in\n    tag_423:\n        /* \"#utility.yul\":10327:10351   */\n      swap2\n      pop\n        /* \"#utility.yul\":10365:10384   */\n      tag_424\n        /* \"#utility.yul\":10382:10383   */\n      dup4\n        /* \"#utility.yul\":10365:10384   */\n      tag_293\n      jump\t// in\n    tag_424:\n        /* \"#utility.yul\":10360:10384   */\n      swap3\n      pop\n        /* \"#utility.yul\":10403:10404   */\n      dup3\n        /* \"#utility.yul\":10393:10428   */\n      tag_425\n      jumpi\n        /* \"#utility.yul\":10408:10426   */\n      tag_426\n      tag_296\n      jump\t// in\n    tag_426:\n        /* \"#utility.yul\":10393:10428   */\n    tag_425:\n        /* \"#utility.yul\":10450:10451   */\n      dup3\n        /* \"#utility.yul\":10447:10448   */\n      dup3\n        /* \"#utility.yul\":10443:10452   */\n      div\n        /* \"#utility.yul\":10438:10452   */\n      swap1\n      pop\n        /* \"#utility.yul\":10276:10458   */\n      swap3\n      swap2\n      pop\n      pop\n      jump\t// out\n        /* \"#utility.yul\":10464:10874   */\n    tag_165:\n        /* \"#utility.yul\":10504:10511   */\n      0x00\n        /* \"#utility.yul\":10527:10547   */\n      tag_428\n        /* \"#utility.yul\":10545:10546   */\n      dup3\n        /* \"#utility.yul\":10527:10547   */\n      tag_270\n      jump\t// in\n    tag_428:\n        /* \"#utility.yul\":10522:10547   */\n      swap2\n      pop\n        /* \"#utility.yul\":10561:10581   */\n      tag_429\n        /* \"#utility.yul\":10579:10580   */\n      dup4\n        /* \"#utility.yul\":10561:10581   */\n      tag_270\n      jump\t// in\n    tag_429:\n        /* \"#utility.yul\":10556:10581   */\n      swap3\n      pop\n        /* \"#utility.yul\":10616:10617   */\n      dup3\n        /* \"#utility.yul\":10613:10614   */\n      dup3\n        /* \"#utility.yul\":10609:10618   */\n      mul\n        /* \"#utility.yul\":10638:10668   */\n      tag_430\n        /* \"#utility.yul\":10656:10667   */\n      dup2\n        /* \"#utility.yul\":10638:10668   */\n      tag_270\n      jump\t// in\n    tag_430:\n        /* \"#utility.yul\":10627:10668   */\n      swap2\n      pop\n        /* \"#utility.yul\":10817:10818   */\n      dup3\n        /* \"#utility.yul\":10808:10815   */\n      dup3\n        /* \"#utility.yul\":10804:10819   */\n      div\n        /* \"#utility.yul\":10801:10802   */\n      dup5\n        /* \"#utility.yul\":10798:10820   */\n      eq\n        /* \"#utility.yul\":10778:10779   */\n      dup4\n        /* \"#utility.yul\":10771:10780   */\n      iszero\n        /* \"#utility.yul\":10751:10834   */\n      or\n        /* \"#utility.yul\":10728:10867   */\n      tag_431\n      jumpi\n        /* \"#utility.yul\":10847:10865   */\n      tag_432\n      tag_292\n      jump\t// in\n    tag_432:\n        /* \"#utility.yul\":10728:10867   */\n    tag_431:\n        /* \"#utility.yul\":10512:10874   */\n      pop\n        /* \"#utility.yul\":10464:10874   */\n      swap3\n      swap2\n      pop\n      pop\n      jump\t// out\n        /* \"#utility.yul\":10880:11071   */\n    tag_173:\n        /* \"#utility.yul\":10920:10923   */\n      0x00\n        /* \"#utility.yul\":10939:10959   */\n      tag_434\n        /* \"#utility.yul\":10957:10958   */\n      dup3\n        /* \"#utility.yul\":10939:10959   */\n      tag_270\n      jump\t// in\n    tag_434:\n        /* \"#utility.yul\":10934:10959   */\n      swap2\n      pop\n        /* \"#utility.yul\":10973:10993   */\n      tag_435\n        /* \"#utility.yul\":10991:10992   */\n      dup4\n        /* \"#utility.yul\":10973:10993   */\n      tag_270\n      jump\t// in\n    tag_435:\n        /* \"#utility.yul\":10968:10993   */\n      swap3\n      pop\n        /* \"#utility.yul\":11016:11017   */\n      dup3\n        /* \"#utility.yul\":11013:11014   */\n      dup3\n        /* \"#utility.yul\":11009:11018   */\n      add\n        /* \"#utility.yul\":11002:11018   */\n      swap1\n      pop\n        /* \"#utility.yul\":11037:11040   */\n      dup1\n        /* \"#utility.yul\":11034:11035   */\n      dup3\n        /* \"#utility.yul\":11031:11041   */\n      gt\n        /* \"#utility.yul\":11028:11064   */\n      iszero\n      tag_436\n      jumpi\n        /* \"#utility.yul\":11044:11062   */\n      tag_437\n      tag_292\n      jump\t// in\n    tag_437:\n        /* \"#utility.yul\":11028:11064   */\n    tag_436:\n        /* \"#utility.yul\":10880:11071   */\n      swap3\n      swap2\n      pop\n      pop\n      jump\t// out\n        /* \"#utility.yul\":11077:11197   */\n    tag_297:\n        /* \"#utility.yul\":11168:11190   */\n      tag_439\n        /* \"#utility.yul\":11184:11189   */\n      dup2\n        /* \"#utility.yul\":11168:11190   */\n      tag_274\n      jump\t// in\n    tag_439:\n        /* \"#utility.yul\":11163:11166   */\n      dup3\n        /* \"#utility.yul\":11156:11191   */\n      mstore\n        /* \"#utility.yul\":11077:11197   */\n      pop\n      pop\n      jump\t// out\n        /* \"#utility.yul\":11203:11551   */\n    tag_179:\n        /* \"#utility.yul\":11328:11332   */\n      0x00\n        /* \"#utility.yul\":11366:11368   */\n      0x40\n        /* \"#utility.yul\":11355:11364   */\n      dup3\n        /* \"#utility.yul\":11351:11369   */\n      add\n        /* \"#utility.yul\":11343:11369   */\n      swap1\n      pop\n        /* \"#utility.yul\":11379:11458   */\n      tag_441\n        /* \"#utility.yul\":11455:11456   */\n      0x00\n        /* \"#utility.yul\":11444:11453   */\n      dup4\n        /* \"#utility.yul\":11440:11457   */\n      add\n        /* \"#utility.yul\":11431:11437   */\n      dup6\n        /* \"#utility.yul\":11379:11458   */\n      tag_283\n      jump\t// in\n    tag_441:\n        /* \"#utility.yul\":11468:11544   */\n      tag_442\n        /* \"#utility.yul\":11540:11542   */\n      0x20\n        /* \"#utility.yul\":11529:11538   */\n      dup4\n        /* \"#utility.yul\":11525:11543   */\n      add\n        /* \"#utility.yul\":11516:11522   */\n      dup5\n        /* \"#utility.yul\":11468:11544   */\n      tag_297\n      jump\t// in\n    tag_442:\n        /* \"#utility.yul\":11203:11551   */\n      swap4\n      swap3\n      pop\n      pop\n      pop\n      jump\t// out\n        /* \"#utility.yul\":11557:11617   */\n    tag_298:\n        /* \"#utility.yul\":11585:11588   */\n      0x00\n        /* \"#utility.yul\":11606:11611   */\n      dup2\n        /* \"#utility.yul\":11599:11611   */\n      swap1\n      pop\n        /* \"#utility.yul\":11557:11617   */\n      swap2\n      swap1\n      pop\n      jump\t// out\n        /* \"#utility.yul\":11623:11761   */\n    tag_299:\n        /* \"#utility.yul\":11671:11680   */\n      0x00\n        /* \"#utility.yul\":11704:11755   */\n      tag_445\n        /* \"#utility.yul\":11722:11754   */\n      tag_446\n        /* \"#utility.yul\":11731:11753   */\n      tag_447\n        /* \"#utility.yul\":11747:11752   */\n      dup5\n        /* \"#utility.yul\":11731:11753   */\n      tag_274\n      jump\t// in\n    tag_447:\n        /* \"#utility.yul\":11722:11754   */\n      tag_298\n      jump\t// in\n    tag_446:\n        /* \"#utility.yul\":11704:11755   */\n      tag_270\n      jump\t// in\n    tag_445:\n        /* \"#utility.yul\":11691:11755   */\n      swap1\n      pop\n        /* \"#utility.yul\":11623:11761   */\n      swap2\n      swap1\n      pop\n      jump\t// out\n        /* \"#utility.yul\":11767:11902   */\n    tag_300:\n        /* \"#utility.yul\":11860:11895   */\n      tag_449\n        /* \"#utility.yul\":11889:11894   */\n      dup2\n        /* \"#utility.yul\":11860:11895   */\n      tag_299\n      jump\t// in\n    tag_449:\n        /* \"#utility.yul\":11855:11858   */\n      dup3\n        /* \"#utility.yul\":11848:11896   */\n      mstore\n        /* \"#utility.yul\":11767:11902   */\n      pop\n      pop\n      jump\t// out\n        /* \"#utility.yul\":11908:12370   */\n    tag_189:\n        /* \"#utility.yul\":12059:12063   */\n      0x00\n        /* \"#utility.yul\":12097:12099   */\n      0x60\n        /* \"#utility.yul\":12086:12095   */\n      dup3\n        /* \"#utility.yul\":12082:12100   */\n      add\n        /* \"#utility.yul\":12074:12100   */\n      swap1\n      pop\n        /* \"#utility.yul\":12110:12189   */\n      tag_451\n        /* \"#utility.yul\":12186:12187   */\n      0x00\n        /* \"#utility.yul\":12175:12184   */\n      dup4\n        /* \"#utility.yul\":12171:12188   */\n      add\n        /* \"#utility.yul\":12162:12168   */\n      dup7\n        /* \"#utility.yul\":12110:12189   */\n      tag_283\n      jump\t// in\n    tag_451:\n        /* \"#utility.yul\":12199:12277   */\n      tag_452\n        /* \"#utility.yul\":12273:12275   */\n      0x20\n        /* \"#utility.yul\":12262:12271   */\n      dup4\n        /* \"#utility.yul\":12258:12276   */\n      add\n        /* \"#utility.yul\":12249:12255   */\n      dup6\n        /* \"#utility.yul\":12199:12277   */\n      tag_300\n      jump\t// in\n    tag_452:\n        /* \"#utility.yul\":12287:12363   */\n      tag_453\n        /* \"#utility.yul\":12359:12361   */\n      0x40\n        /* \"#utility.yul\":12348:12357   */\n      dup4\n        /* \"#utility.yul\":12344:12362   */\n      add\n        /* \"#utility.yul\":12335:12341   */\n      dup5\n        /* \"#utility.yul\":12287:12363   */\n      tag_297\n      jump\t// in\n    tag_453:\n        /* \"#utility.yul\":11908:12370   */\n      swap5\n      swap4\n      pop\n      pop\n      pop\n      pop\n      jump\t// out\n        /* \"#utility.yul\":12376:12519   */\n    tag_301:\n        /* \"#utility.yul\":12433:12438   */\n      0x00\n        /* \"#utility.yul\":12464:12470   */\n      dup2\n        /* \"#utility.yul\":12458:12471   */\n      mload\n        /* \"#utility.yul\":12449:12471   */\n      swap1\n      pop\n        /* \"#utility.yul\":12480:12513   */\n      tag_455\n        /* \"#utility.yul\":12507:12512   */\n      dup2\n        /* \"#utility.yul\":12480:12513   */\n      tag_271\n      jump\t// in\n    tag_455:\n        /* \"#utility.yul\":12376:12519   */\n      swap3\n      swap2\n      pop\n      pop\n      jump\t// out\n        /* \"#utility.yul\":12525:12876   */\n    tag_193:\n        /* \"#utility.yul\":12595:12601   */\n      0x00\n        /* \"#utility.yul\":12644:12646   */\n      0x20\n        /* \"#utility.yul\":12632:12641   */\n      dup3\n        /* \"#utility.yul\":12623:12630   */\n      dup5\n        /* \"#utility.yul\":12619:12642   */\n      sub\n        /* \"#utility.yul\":12615:12647   */\n      slt\n        /* \"#utility.yul\":12612:12731   */\n      iszero\n      tag_457\n      jumpi\n        /* \"#utility.yul\":12650:12729   */\n      tag_458\n      tag_268\n      jump\t// in\n    tag_458:\n        /* \"#utility.yul\":12612:12731   */\n    tag_457:\n        /* \"#utility.yul\":12770:12771   */\n      0x00\n        /* \"#utility.yul\":12795:12859   */\n      tag_459\n        /* \"#utility.yul\":12851:12858   */\n      dup5\n        /* \"#utility.yul\":12842:12848   */\n      dup3\n        /* \"#utility.yul\":12831:12840   */\n      dup6\n        /* \"#utility.yul\":12827:12849   */\n      add\n        /* \"#utility.yul\":12795:12859   */\n      tag_301\n      jump\t// in\n    tag_459:\n        /* \"#utility.yul\":12785:12859   */\n      swap2\n      pop\n        /* \"#utility.yul\":12741:12869   */\n      pop\n        /* \"#utility.yul\":12525:12876   */\n      swap3\n      swap2\n      pop\n      pop\n      jump\t// out\n        /* \"#utility.yul\":12882:12967   */\n    tag_302:\n        /* \"#utility.yul\":12927:12934   */\n      0x00\n        /* \"#utility.yul\":12956:12961   */\n      dup2\n        /* \"#utility.yul\":12945:12961   */\n      swap1\n      pop\n        /* \"#utility.yul\":12882:12967   */\n      swap2\n      swap1\n      pop\n      jump\t// out\n        /* \"#utility.yul\":12973:13127   */\n    tag_303:\n        /* \"#utility.yul\":13029:13038   */\n      0x00\n        /* \"#utility.yul\":13062:13121   */\n      tag_462\n        /* \"#utility.yul\":13078:13120   */\n      tag_463\n        /* \"#utility.yul\":13087:13119   */\n      tag_464\n        /* \"#utility.yul\":13113:13118   */\n      dup5\n        /* \"#utility.yul\":13087:13119   */\n      tag_302\n      jump\t// in\n    tag_464:\n        /* \"#utility.yul\":13078:13120   */\n      tag_298\n      jump\t// in\n    tag_463:\n        /* \"#utility.yul\":13062:13121   */\n      tag_274\n      jump\t// in\n    tag_462:\n        /* \"#utility.yul\":13049:13121   */\n      swap1\n      pop\n        /* \"#utility.yul\":12973:13127   */\n      swap2\n      swap1\n      pop\n      jump\t// out\n        /* \"#utility.yul\":13133:13284   */\n    tag_304:\n        /* \"#utility.yul\":13234:13277   */\n      tag_466\n        /* \"#utility.yul\":13271:13276   */\n      dup2\n        /* \"#utility.yul\":13234:13277   */\n      tag_303\n      jump\t// in\n    tag_466:\n        /* \"#utility.yul\":13229:13232   */\n      dup3\n        /* \"#utility.yul\":13222:13278   */\n      mstore\n        /* \"#utility.yul\":13133:13284   */\n      pop\n      pop\n      jump\t// out\n        /* \"#utility.yul\":13290:13772   */\n    tag_195:\n        /* \"#utility.yul\":13451:13455   */\n      0x00\n        /* \"#utility.yul\":13489:13491   */\n      0x60\n        /* \"#utility.yul\":13478:13487   */\n      dup3\n        /* \"#utility.yul\":13474:13492   */\n      add\n        /* \"#utility.yul\":13466:13492   */\n      swap1\n      pop\n        /* \"#utility.yul\":13502:13581   */\n      tag_468\n        /* \"#utility.yul\":13578:13579   */\n      0x00\n        /* \"#utility.yul\":13567:13576   */\n      dup4\n        /* \"#utility.yul\":13563:13580   */\n      add\n        /* \"#utility.yul\":13554:13560   */\n      dup7\n        /* \"#utility.yul\":13502:13581   */\n      tag_283\n      jump\t// in\n    tag_468:\n        /* \"#utility.yul\":13591:13669   */\n      tag_469\n        /* \"#utility.yul\":13665:13667   */\n      0x20\n        /* \"#utility.yul\":13654:13663   */\n      dup4\n        /* \"#utility.yul\":13650:13668   */\n      add\n        /* \"#utility.yul\":13641:13647   */\n      dup6\n        /* \"#utility.yul\":13591:13669   */\n      tag_300\n      jump\t// in\n    tag_469:\n        /* \"#utility.yul\":13679:13765   */\n      tag_470\n        /* \"#utility.yul\":13761:13763   */\n      0x40\n        /* \"#utility.yul\":13750:13759   */\n      dup4\n        /* \"#utility.yul\":13746:13764   */\n      add\n        /* \"#utility.yul\":13737:13743   */\n      dup5\n        /* \"#utility.yul\":13679:13765   */\n      tag_304\n      jump\t// in\n    tag_470:\n        /* \"#utility.yul\":13290:13772   */\n      swap5\n      swap4\n      pop\n      pop\n      pop\n      pop\n      jump\t// out\n        /* \"#utility.yul\":13778:13945   */\n    tag_206:\n        /* \"#utility.yul\":13815:13818   */\n      0x00\n        /* \"#utility.yul\":13838:13860   */\n      tag_472\n        /* \"#utility.yul\":13854:13859   */\n      dup3\n        /* \"#utility.yul\":13838:13860   */\n      tag_274\n      jump\t// in\n    tag_472:\n        /* \"#utility.yul\":13829:13860   */\n      swap2\n      pop\n        /* \"#utility.yul\":13882:13886   */\n      0xff\n        /* \"#utility.yul\":13875:13880   */\n      dup3\n        /* \"#utility.yul\":13872:13887   */\n      sub\n        /* \"#utility.yul\":13869:13910   */\n      tag_473\n      jumpi\n        /* \"#utility.yul\":13890:13908   */\n      tag_474\n      tag_292\n      jump\t// in\n    tag_474:\n        /* \"#utility.yul\":13869:13910   */\n    tag_473:\n        /* \"#utility.yul\":13937:13938   */\n      0x01\n        /* \"#utility.yul\":13930:13935   */\n      dup3\n        /* \"#utility.yul\":13926:13939   */\n      add\n        /* \"#utility.yul\":13919:13939   */\n      swap1\n      pop\n        /* \"#utility.yul\":13778:13945   */\n      swap2\n      swap1\n      pop\n      jump\t// out\n        /* \"#utility.yul\":13951:14142   */\n    tag_212:\n        /* \"#utility.yul\":13989:13993   */\n      0x00\n        /* \"#utility.yul\":14009:14027   */\n      tag_476\n        /* \"#utility.yul\":14025:14026   */\n      dup3\n        /* \"#utility.yul\":14009:14027   */\n      tag_274\n      jump\t// in\n    tag_476:\n        /* \"#utility.yul\":14004:14027   */\n      swap2\n      pop\n        /* \"#utility.yul\":14041:14059   */\n      tag_477\n        /* \"#utility.yul\":14057:14058   */\n      dup4\n        /* \"#utility.yul\":14041:14059   */\n      tag_274\n      jump\t// in\n    tag_477:\n        /* \"#utility.yul\":14036:14059   */\n      swap3\n      pop\n        /* \"#utility.yul\":14083:14084   */\n      dup3\n        /* \"#utility.yul\":14080:14081   */\n      dup3\n        /* \"#utility.yul\":14076:14085   */\n      sub\n        /* \"#utility.yul\":14068:14085   */\n      swap1\n      pop\n        /* \"#utility.yul\":14107:14111   */\n      0xff\n        /* \"#utility.yul\":14101:14105   */\n      dup2\n        /* \"#utility.yul\":14098:14112   */\n      gt\n        /* \"#utility.yul\":14095:14135   */\n      iszero\n      tag_478\n      jumpi\n        /* \"#utility.yul\":14115:14133   */\n      tag_479\n      tag_292\n      jump\t// in\n    tag_479:\n        /* \"#utility.yul\":14095:14135   */\n    tag_478:\n        /* \"#utility.yul\":13951:14142   */\n      swap3\n      swap2\n      pop\n      pop\n      jump\t// out\n        /* \"#utility.yul\":14148:14271   */\n    tag_305:\n        /* \"#utility.yul\":14241:14264   */\n      tag_481\n        /* \"#utility.yul\":14258:14263   */\n      dup2\n        /* \"#utility.yul\":14241:14264   */\n      tag_293\n      jump\t// in\n    tag_481:\n        /* \"#utility.yul\":14236:14239   */\n      dup3\n        /* \"#utility.yul\":14229:14265   */\n      mstore\n        /* \"#utility.yul\":14148:14271   */\n      pop\n      pop\n      jump\t// out\n        /* \"#utility.yul\":14277:14629   */\n    tag_227:\n        /* \"#utility.yul\":14404:14408   */\n      0x00\n        /* \"#utility.yul\":14442:14444   */\n      0x40\n        /* \"#utility.yul\":14431:14440   */\n      dup3\n        /* \"#utility.yul\":14427:14445   */\n      add\n        /* \"#utility.yul\":14419:14445   */\n      swap1\n      pop\n        /* \"#utility.yul\":14455:14534   */\n      tag_483\n        /* \"#utility.yul\":14531:14532   */\n      0x00\n        /* \"#utility.yul\":14520:14529   */\n      dup4\n        /* \"#utility.yul\":14516:14533   */\n      add\n        /* \"#utility.yul\":14507:14513   */\n      dup6\n        /* \"#utility.yul\":14455:14534   */\n      tag_283\n      jump\t// in\n    tag_483:\n        /* \"#utility.yul\":14544:14622   */\n      tag_484\n        /* \"#utility.yul\":14618:14620   */\n      0x20\n        /* \"#utility.yul\":14607:14616   */\n      dup4\n        /* \"#utility.yul\":14603:14621   */\n      add\n        /* \"#utility.yul\":14594:14600   */\n      dup5\n        /* \"#utility.yul\":14544:14622   */\n      tag_305\n      jump\t// in\n    tag_484:\n        /* \"#utility.yul\":14277:14629   */\n      swap4\n      swap3\n      pop\n      pop\n      pop\n      jump\t// out\n        /* \"#utility.yul\":14635:15003   */\n    tag_232:\n        /* \"#utility.yul\":14770:14774   */\n      0x00\n        /* \"#utility.yul\":14808:14810   */\n      0x40\n        /* \"#utility.yul\":14797:14806   */\n      dup3\n        /* \"#utility.yul\":14793:14811   */\n      add\n        /* \"#utility.yul\":14785:14811   */\n      swap1\n      pop\n        /* \"#utility.yul\":14821:14900   */\n      tag_486\n        /* \"#utility.yul\":14897:14898   */\n      0x00\n        /* \"#utility.yul\":14886:14895   */\n      dup4\n        /* \"#utility.yul\":14882:14899   */\n      add\n        /* \"#utility.yul\":14873:14879   */\n      dup6\n        /* \"#utility.yul\":14821:14900   */\n      tag_283\n      jump\t// in\n    tag_486:\n        /* \"#utility.yul\":14910:14996   */\n      tag_487\n        /* \"#utility.yul\":14992:14994   */\n      0x20\n        /* \"#utility.yul\":14981:14990   */\n      dup4\n        /* \"#utility.yul\":14977:14995   */\n      add\n        /* \"#utility.yul\":14968:14974   */\n      dup5\n        /* \"#utility.yul\":14910:14996   */\n      tag_304\n      jump\t// in\n    tag_487:\n        /* \"#utility.yul\":14635:15003   */\n      swap4\n      swap3\n      pop\n      pop\n      pop\n      jump\t// out\n        /* \"#utility.yul\":15009:15234   */\n    tag_306:\n        /* \"#utility.yul\":15149:15183   */\n      0x4f776e61626c653a206e6577206f776e657220697320746865207a65726f2061\n        /* \"#utility.yul\":15145:15146   */\n      0x00\n        /* \"#utility.yul\":15137:15143   */\n      dup3\n        /* \"#utility.yul\":15133:15147   */\n      add\n        /* \"#utility.yul\":15126:15184   */\n      mstore\n        /* \"#utility.yul\":15218:15226   */\n      0x6464726573730000000000000000000000000000000000000000000000000000\n        /* \"#utility.yul\":15213:15215   */\n      0x20\n        /* \"#utility.yul\":15205:15211   */\n      dup3\n        /* \"#utility.yul\":15201:15216   */\n      add\n        /* \"#utility.yul\":15194:15227   */\n      mstore\n        /* \"#utility.yul\":15009:15234   */\n      pop\n      jump\t// out\n        /* \"#utility.yul\":15240:15606   */\n    tag_307:\n        /* \"#utility.yul\":15382:15385   */\n      0x00\n        /* \"#utility.yul\":15403:15470   */\n      tag_490\n        /* \"#utility.yul\":15467:15469   */\n      0x26\n        /* \"#utility.yul\":15462:15465   */\n      dup4\n        /* \"#utility.yul\":15403:15470   */\n      tag_285\n      jump\t// in\n    tag_490:\n        /* \"#utility.yul\":15396:15470   */\n      swap2\n      pop\n        /* \"#utility.yul\":15479:15572   */\n      tag_491\n        /* \"#utility.yul\":15568:15571   */\n      dup3\n        /* \"#utility.yul\":15479:15572   */\n      tag_306\n      jump\t// in\n    tag_491:\n        /* \"#utility.yul\":15597:15599   */\n      0x40\n        /* \"#utility.yul\":15592:15595   */\n      dup3\n        /* \"#utility.yul\":15588:15600   */\n      add\n        /* \"#utility.yul\":15581:15600   */\n      swap1\n      pop\n        /* \"#utility.yul\":15240:15606   */\n      swap2\n      swap1\n      pop\n      jump\t// out\n        /* \"#utility.yul\":15612:16031   */\n    tag_242:\n        /* \"#utility.yul\":15778:15782   */\n      0x00\n        /* \"#utility.yul\":15816:15818   */\n      0x20\n        /* \"#utility.yul\":15805:15814   */\n      dup3\n        /* \"#utility.yul\":15801:15819   */\n      add\n        /* \"#utility.yul\":15793:15819   */\n      swap1\n      pop\n        /* \"#utility.yul\":15865:15874   */\n      dup2\n        /* \"#utility.yul\":15859:15863   */\n      dup2\n        /* \"#utility.yul\":15855:15875   */\n      sub\n        /* \"#utility.yul\":15851:15852   */\n      0x00\n        /* \"#utility.yul\":15840:15849   */\n      dup4\n        /* \"#utility.yul\":15836:15853   */\n      add\n        /* \"#utility.yul\":15829:15876   */\n      mstore\n        /* \"#utility.yul\":15893:16024   */\n      tag_493\n        /* \"#utility.yul\":16019:16023   */\n      dup2\n        /* \"#utility.yul\":15893:16024   */\n      tag_307\n      jump\t// in\n    tag_493:\n        /* \"#utility.yul\":15885:16024   */\n      swap1\n      pop\n        /* \"#utility.yul\":15612:16031   */\n      swap2\n      swap1\n      pop\n      jump\t// out\n        /* \"#utility.yul\":16037:16219   */\n    tag_308:\n        /* \"#utility.yul\":16177:16211   */\n      0x4f776e61626c653a2063616c6c6572206973206e6f7420746865206f776e6572\n        /* \"#utility.yul\":16173:16174   */\n      0x00\n        /* \"#utility.yul\":16165:16171   */\n      dup3\n        /* \"#utility.yul\":16161:16175   */\n      add\n        /* \"#utility.yul\":16154:16212   */\n      mstore\n        /* \"#utility.yul\":16037:16219   */\n      pop\n      jump\t// out\n        /* \"#utility.yul\":16225:16591   */\n    tag_309:\n        /* \"#utility.yul\":16367:16370   */\n      0x00\n        /* \"#utility.yul\":16388:16455   */\n      tag_496\n        /* \"#utility.yul\":16452:16454   */\n      0x20\n        /* \"#utility.yul\":16447:16450   */\n      dup4\n        /* \"#utility.yul\":16388:16455   */\n      tag_285\n      jump\t// in\n    tag_496:\n        /* \"#utility.yul\":16381:16455   */\n      swap2\n      pop\n        /* \"#utility.yul\":16464:16557   */\n      tag_497\n        /* \"#utility.yul\":16553:16556   */\n      dup3\n        /* \"#utility.yul\":16464:16557   */\n      tag_308\n      jump\t// in\n    tag_497:\n        /* \"#utility.yul\":16582:16584   */\n      0x20\n        /* \"#utility.yul\":16577:16580   */\n      dup3\n        /* \"#utility.yul\":16573:16585   */\n      add\n        /* \"#utility.yul\":16566:16585   */\n      swap1\n      pop\n        /* \"#utility.yul\":16225:16591   */\n      swap2\n      swap1\n      pop\n      jump\t// out\n        /* \"#utility.yul\":16597:17016   */\n    tag_250:\n        /* \"#utility.yul\":16763:16767   */\n      0x00\n        /* \"#utility.yul\":16801:16803   */\n      0x20\n        /* \"#utility.yul\":16790:16799   */\n      dup3\n        /* \"#utility.yul\":16786:16804   */\n      add\n        /* \"#utility.yul\":16778:16804   */\n      swap1\n      pop\n        /* \"#utility.yul\":16850:16859   */\n      dup2\n        /* \"#utility.yul\":16844:16848   */\n      dup2\n        /* \"#utility.yul\":16840:16860   */\n      sub\n        /* \"#utility.yul\":16836:16837   */\n      0x00\n        /* \"#utility.yul\":16825:16834   */\n      dup4\n        /* \"#utility.yul\":16821:16838   */\n      add\n        /* \"#utility.yul\":16814:16861   */\n      mstore\n        /* \"#utility.yul\":16878:17009   */\n      tag_499\n        /* \"#utility.yul\":17004:17008   */\n      dup2\n        /* \"#utility.yul\":16878:17009   */\n      tag_309\n      jump\t// in\n    tag_499:\n        /* \"#utility.yul\":16870:17009   */\n      swap1\n      pop\n        /* \"#utility.yul\":16597:17016   */\n      swap2\n      swap1\n      pop\n      jump\t// out\n        /* \"#utility.yul\":17022:17216   */\n    tag_255:\n        /* \"#utility.yul\":17062:17066   */\n      0x00\n        /* \"#utility.yul\":17082:17102   */\n      tag_501\n        /* \"#utility.yul\":17100:17101   */\n      dup3\n        /* \"#utility.yul\":17082:17102   */\n      tag_270\n      jump\t// in\n    tag_501:\n        /* \"#utility.yul\":17077:17102   */\n      swap2\n      pop\n        /* \"#utility.yul\":17116:17136   */\n      tag_502\n        /* \"#utility.yul\":17134:17135   */\n      dup4\n        /* \"#utility.yul\":17116:17136   */\n      tag_270\n      jump\t// in\n    tag_502:\n        /* \"#utility.yul\":17111:17136   */\n      swap3\n      pop\n        /* \"#utility.yul\":17160:17161   */\n      dup3\n        /* \"#utility.yul\":17157:17158   */\n      dup3\n        /* \"#utility.yul\":17153:17162   */\n      sub\n        /* \"#utility.yul\":17145:17162   */\n      swap1\n      pop\n        /* \"#utility.yul\":17184:17185   */\n      dup2\n        /* \"#utility.yul\":17178:17182   */\n      dup2\n        /* \"#utility.yul\":17175:17186   */\n      gt\n        /* \"#utility.yul\":17172:17209   */\n      iszero\n      tag_503\n      jumpi\n        /* \"#utility.yul\":17189:17207   */\n      tag_504\n      tag_292\n      jump\t// in\n    tag_504:\n        /* \"#utility.yul\":17172:17209   */\n    tag_503:\n        /* \"#utility.yul\":17022:17216   */\n      swap3\n      swap2\n      pop\n      pop\n      jump\t// out\n        /* \"#utility.yul\":17222:17407   */\n    tag_258:\n        /* \"#utility.yul\":17262:17263   */\n      0x00\n        /* \"#utility.yul\":17279:17299   */\n      tag_506\n        /* \"#utility.yul\":17297:17298   */\n      dup3\n        /* \"#utility.yul\":17279:17299   */\n      tag_270\n      jump\t// in\n    tag_506:\n        /* \"#utility.yul\":17274:17299   */\n      swap2\n      pop\n        /* \"#utility.yul\":17313:17333   */\n      tag_507\n        /* \"#utility.yul\":17331:17332   */\n      dup4\n        /* \"#utility.yul\":17313:17333   */\n      tag_270\n      jump\t// in\n    tag_507:\n        /* \"#utility.yul\":17308:17333   */\n      swap3\n      pop\n        /* \"#utility.yul\":17352:17353   */\n      dup3\n        /* \"#utility.yul\":17342:17377   */\n      tag_508\n      jumpi\n        /* \"#utility.yul\":17357:17375   */\n      tag_509\n      tag_296\n      jump\t// in\n    tag_509:\n        /* \"#utility.yul\":17342:17377   */\n    tag_508:\n        /* \"#utility.yul\":17399:17400   */\n      dup3\n        /* \"#utility.yul\":17396:17397   */\n      dup3\n        /* \"#utility.yul\":17392:17401   */\n      div\n        /* \"#utility.yul\":17387:17401   */\n      swap1\n      pop\n        /* \"#utility.yul\":17222:17407   */\n      swap3\n      swap2\n      pop\n      pop\n      jump\t// out\n        /* \"#utility.yul\":17413:17810   */\n    tag_262:\n        /* \"#utility.yul\":17553:17556   */\n      0x00\n        /* \"#utility.yul\":17568:17643   */\n      tag_511\n        /* \"#utility.yul\":17639:17642   */\n      dup3\n        /* \"#utility.yul\":17630:17636   */\n      dup6\n        /* \"#utility.yul\":17568:17643   */\n      tag_289\n      jump\t// in\n    tag_511:\n        /* \"#utility.yul\":17668:17670   */\n      0x20\n        /* \"#utility.yul\":17663:17666   */\n      dup3\n        /* \"#utility.yul\":17659:17671   */\n      add\n        /* \"#utility.yul\":17652:17671   */\n      swap2\n      pop\n        /* \"#utility.yul\":17681:17756   */\n      tag_512\n        /* \"#utility.yul\":17752:17755   */\n      dup3\n        /* \"#utility.yul\":17743:17749   */\n      dup5\n        /* \"#utility.yul\":17681:17756   */\n      tag_289\n      jump\t// in\n    tag_512:\n        /* \"#utility.yul\":17781:17783   */\n      0x20\n        /* \"#utility.yul\":17776:17779   */\n      dup3\n        /* \"#utility.yul\":17772:17784   */\n      add\n        /* \"#utility.yul\":17765:17784   */\n      swap2\n      pop\n        /* \"#utility.yul\":17801:17804   */\n      dup2\n        /* \"#utility.yul\":17794:17804   */\n      swap1\n      pop\n        /* \"#utility.yul\":17413:17810   */\n      swap4\n      swap3\n      pop\n      pop\n      pop\n      jump\t// out\n        /* \"#utility.yul\":17816:17992   */\n    tag_264:\n        /* \"#utility.yul\":17848:17849   */\n      0x00\n        /* \"#utility.yul\":17865:17885   */\n      tag_514\n        /* \"#utility.yul\":17883:17884   */\n      dup3\n        /* \"#utility.yul\":17865:17885   */\n      tag_270\n      jump\t// in\n    tag_514:\n        /* \"#utility.yul\":17860:17885   */\n      swap2\n      pop\n        /* \"#utility.yul\":17899:17919   */\n      tag_515\n        /* \"#utility.yul\":17917:17918   */\n      dup4\n        /* \"#utility.yul\":17899:17919   */\n      tag_270\n      jump\t// in\n    tag_515:\n        /* \"#utility.yul\":17894:17919   */\n      swap3\n      pop\n        /* \"#utility.yul\":17938:17939   */\n      dup3\n        /* \"#utility.yul\":17928:17963   */\n      tag_516\n      jumpi\n        /* \"#utility.yul\":17943:17961   */\n      tag_517\n      tag_296\n      jump\t// in\n    tag_517:\n        /* \"#utility.yul\":17928:17963   */\n    tag_516:\n        /* \"#utility.yul\":17984:17985   */\n      dup3\n        /* \"#utility.yul\":17981:17982   */\n      dup3\n        /* \"#utility.yul\":17977:17986   */\n      mod\n        /* \"#utility.yul\":17972:17986   */\n      swap1\n      pop\n        /* \"#utility.yul\":17816:17992   */\n      swap3\n      swap2\n      pop\n      pop\n      jump\t// out\n\n    auxdata: 0xa26469706673582212205d83e62d14ba20c7ff90af51ced1149383f534b1c0e5e806df182f1ae9aed68764736f6c63430008120033\n}\n",
				"bytecode": {
					"linkReferences": {
						"contracts/common/GenesUtil.sol": {
							"GenesUtil": [
								{
									"length": 20,
									"start": 1437
								},
								{
									"length": 20,
									"start": 1644
								},
								{
									"length": 20,
									"start": 1987
								},
								{
									"length": 20,
									"start": 2107
								},
								{
									"length": 20,
									"start": 2488
								},
								{
									"length": 20,
									"start": 2617
								},
								{
									"length": 20,
									"start": 2743
								},
								{
									"length": 20,
									"start": 2869
								},
								{
									"length": 20,
									"start": 2996
								},
								{
									"length": 20,
									"start": 3159
								},
								{
									"length": 20,
									"start": 3202
								},
								{
									"length": 20,
									"start": 3428
								},
								{
									"length": 20,
									"start": 3471
								},
								{
									"length": 20,
									"start": 3697
								},
								{
									"length": 20,
									"start": 3821
								}
							]
						}
					},
					"object": "60806040526001600060146101000a81548160ff021916908360ff1602179055506001805560056002556001600355601e6004556001600555602460065534801561004957600080fd5b5061006661005b61006b60201b60201c565b61007360201b60201c565b610137565b600033905090565b60008060009054906101000a900473ffffffffffffffffffffffffffffffffffffffff169050816000806101000a81548173ffffffffffffffffffffffffffffffffffffffff021916908373ffffffffffffffffffffffffffffffffffffffff1602179055508173ffffffffffffffffffffffffffffffffffffffff168173ffffffffffffffffffffffffffffffffffffffff167f8be0079c531659141344cd1fd0a4f28419497f9722a3daafe3b4186f6b6457e060405160405180910390a35050565b611ad4806101466000396000f3fe608060405234801561001057600080fd5b50600436106101165760003560e01c80638da5cb5b116100a2578063e238b8c611610071578063e238b8c614610281578063e2e3a0db1461029f578063e4a13fb7146102bb578063eb4b0e51146102ed578063f2fde38b1461030b57610116565b80638da5cb5b1461020d57806391b667251461022b578063d477a71214610247578063de405b181461026557610116565b806332099cc4116100e957806332099cc41461018b578063615ebe28146101a9578063715018a6146101c7578063772121fe146101d1578063878cf3a6146101ef57610116565b806302aff3781461011b578063054fee6a1461013757806316bd8646146101535780631bb39f841461016f575b600080fd5b610135600480360381019061013091906110da565b610327565b005b610151600480360381019061014c91906110da565b610339565b005b61016d600480360381019061016891906110da565b61034b565b005b610189600480360381019061018491906110da565b61035d565b005b61019361036f565b6040516101a09190611116565b60405180910390f35b6101b1610379565b6040516101be9190611116565b60405180910390f35b6101cf610383565b005b6101d9610397565b6040516101e6919061114d565b60405180910390f35b6101f76103ad565b6040516102049190611116565b60405180910390f35b6102156103b7565b60405161022291906111a9565b60405180910390f35b610245600480360381019061024091906110da565b6103e0565b005b61024f6103f2565b60405161025c9190611116565b60405180910390f35b61027f600480360381019061027a91906111f0565b6103fc565b005b610289610422565b6040516102969190611116565b60405180910390f35b6102b960048036038101906102b491906110da565b61042c565b005b6102d560048036038101906102d0919061121d565b61043e565b6040516102e49392919061125d565b60405180910390f35b6102f5610e2d565b6040516103029190611116565b60405180910390f35b610325600480360381019061032091906112c0565b610e37565b005b61032f610eba565b8060018190555050565b610341610eba565b8060028190555050565b610353610eba565b8060068190555050565b610365610eba565b8060048190555050565b6000600354905090565b6000600454905090565b61038b610eba565b6103956000610f38565b565b60008060149054906101000a900460ff16905090565b6000600154905090565b60008060009054906101000a900473ffffffffffffffffffffffffffffffffffffffff16905090565b6103e8610eba565b8060038190555050565b6000600654905090565b610404610eba565b80600060146101000a81548160ff021916908360ff16021790555050565b6000600254905090565b610434610eba565b8060058190555050565b60008060008060149054906101000a900460ff1660ff1673__$bc34c519aa7d1b67b54ee96cd6fbdfb8db$__630317f435876040518263ffffffff1660e01b815260040161048c91906112fc565b602060405180830381865af41580156104a9573d6000803e3d6000fd5b505050506040513d601f19601f820116820180604052508101906104cd919061132c565b60ff161015610511576040517f08c379a0000000000000000000000000000000000000000000000000000000008152600401610508906113b6565b60405180910390fd5b600060149054906101000a900460ff1660ff1673__$bc34c519aa7d1b67b54ee96cd6fbdfb8db$__630317f435866040518263ffffffff1660e01b815260040161055b91906112fc565b602060405180830381865af4158015610578573d6000803e3d6000fd5b505050506040513d601f19601f8201168201806040525081019061059c919061132c565b60ff1610156105e0576040517f08c379a00000000000000000000000000000000000000000000000000000000081526004016105d7906113b6565b60405180910390fd5b600042434488886001546040516020016105ff969594939291906113f7565b6040516020818303038152906040528051906020012060001c90506000810361065d576040517f08c379a0000000000000000000000000000000000000000000000000000000008152600401610654906114b3565b60405180910390fd5b6001600081548092919061067090611502565b919050555060006001600273__$bc34c519aa7d1b67b54ee96cd6fbdfb8db$__6356e3df97896040518263ffffffff1660e01b81526004016106b291906112fc565b602060405180830381865af41580156106cf573d6000803e3d6000fd5b505050506040513d601f19601f820116820180604052508101906106f39190611586565b73__$bc34c519aa7d1b67b54ee96cd6fbdfb8db$__6356e3df978b6040518263ffffffff1660e01b815260040161072a91906112fc565b602060405180830381865af4158015610747573d6000803e3d6000fd5b505050506040513d601f19601f8201168201806040525081019061076b9190611586565b61077591906115b3565b61077f919061161a565b61078991906115b3565b9050600060099050600080945060005b828160ff161015610b0e5760006107bd8563ffffffff166003546004546064610ffc565b905060006107ea60015485806107d290611502565b9650600060646004546107e5919061164b565b61103b565b8210159050600060019050610811600154868061080690611502565b97506000606461103b565b6002541061084d5760ff610845600154878061082c90611502565b98506005546001600654610840919061168d565b61103b565b16905061096f565b603261086b600154878061086090611502565b98506000606461103b565b106108f15773__$bc34c519aa7d1b67b54ee96cd6fbdfb8db$__635d2029f18d866040518363ffffffff1660e01b81526004016108a99291906116d0565b602060405180830381865af41580156108c6573d6000803e3d6000fd5b505050506040513d601f19601f820116820180604052508101906108ea919061132c565b905061096e565b73__$bc34c519aa7d1b67b54ee96cd6fbdfb8db$__635d2029f18e866040518363ffffffff1660e01b815260040161092a9291906116d0565b602060405180830381865af4158015610947573d6000803e3d6000fd5b505050506040513d601f19601f8201168201806040525081019061096b919061132c565b90505b5b73__$bc34c519aa7d1b67b54ee96cd6fbdfb8db$__6334a51d0f8a86846040518463ffffffff1660e01b81526004016109aa93929190611734565b602060405180830381865af41580156109c7573d6000803e3d6000fd5b505050506040513d601f19601f820116820180604052508101906109eb9190611780565b985073__$bc34c519aa7d1b67b54ee96cd6fbdfb8db$__63e1b30ab78a8660016040518463ffffffff1660e01b8152600401610a29939291906117e8565b602060405180830381865af4158015610a46573d6000803e3d6000fd5b505050506040513d601f19601f82011682018060405250810190610a6a9190611780565b985073__$bc34c519aa7d1b67b54ee96cd6fbdfb8db$__6355d6ed438a8685610a94576000610a97565b60015b6040518463ffffffff1660e01b8152600401610ab593929190611734565b602060405180830381865af4158015610ad2573d6000803e3d6000fd5b505050506040513d601f19601f82011682018060405250810190610af69190611780565b98505050508080610b069061181f565b915050610799565b5073__$bc34c519aa7d1b67b54ee96cd6fbdfb8db$__63b52b66598a600060149054906101000a900460ff1673__$bc34c519aa7d1b67b54ee96cd6fbdfb8db$__630317f4358e6040518263ffffffff1660e01b8152600401610b7191906112fc565b602060405180830381865af4158015610b8e573d6000803e3d6000fd5b505050506040513d601f19601f82011682018060405250810190610bb2919061132c565b610bbc9190611848565b6040518363ffffffff1660e01b8152600401610bd99291906116d0565b602060405180830381865af4158015610bf6573d6000803e3d6000fd5b505050506040513d601f19601f82011682018060405250810190610c1a9190611780565b965073__$bc34c519aa7d1b67b54ee96cd6fbdfb8db$__63b52b665989600060149054906101000a900460ff1673__$bc34c519aa7d1b67b54ee96cd6fbdfb8db$__630317f4358d6040518263ffffffff1660e01b8152600401610c7e91906112fc565b602060405180830381865af4158015610c9b573d6000803e3d6000fd5b505050506040513d601f19601f82011682018060405250810190610cbf919061132c565b610cc99190611848565b6040518363ffffffff1660e01b8152600401610ce69291906116d0565b602060405180830381865af4158015610d03573d6000803e3d6000fd5b505050506040513d601f19601f82011682018060405250810190610d279190611780565b955073__$bc34c519aa7d1b67b54ee96cd6fbdfb8db$__638de97f4f86856040518363ffffffff1660e01b8152600401610d6292919061188c565b602060405180830381865af4158015610d7f573d6000803e3d6000fd5b505050506040513d601f19601f82011682018060405250810190610da39190611780565b945073__$bc34c519aa7d1b67b54ee96cd6fbdfb8db$__63b52b66598660016040518363ffffffff1660e01b8152600401610ddf9291906118b5565b602060405180830381865af4158015610dfc573d6000803e3d6000fd5b505050506040513d601f19601f82011682018060405250810190610e209190611780565b9450505050509250925092565b6000600554905090565b610e3f610eba565b600073ffffffffffffffffffffffffffffffffffffffff168173ffffffffffffffffffffffffffffffffffffffff1603610eae576040517f08c379a0000000000000000000000000000000000000000000000000000000008152600401610ea590611950565b60405180910390fd5b610eb781610f38565b50565b610ec2611097565b73ffffffffffffffffffffffffffffffffffffffff16610ee06103b7565b73ffffffffffffffffffffffffffffffffffffffff1614610f36576040517f08c379a0000000000000000000000000000000000000000000000000000000008152600401610f2d906119bc565b60405180910390fd5b565b60008060009054906101000a900473ffffffffffffffffffffffffffffffffffffffff169050816000806101000a81548173ffffffffffffffffffffffffffffffffffffffff021916908373ffffffffffffffffffffffffffffffffffffffff1602179055508173ffffffffffffffffffffffffffffffffffffffff168173ffffffffffffffffffffffffffffffffffffffff167f8be0079c531659141344cd1fd0a4f28419497f9722a3daafe3b4186f6b6457e060405160405180910390a35050565b600083851161100e5760009050611033565b8282858761101c91906119dc565b611026919061164b565b6110309190611a10565b90505b949350505050565b6000828261104991906119dc565b858560405160200161105c929190611a41565b6040516020818303038152906040528051906020012060001c61107f9190611a6d565b9050808361108d919061168d565b9050949350505050565b600033905090565b600080fd5b6000819050919050565b6110b7816110a4565b81146110c257600080fd5b50565b6000813590506110d4816110ae565b92915050565b6000602082840312156110f0576110ef61109f565b5b60006110fe848285016110c5565b91505092915050565b611110816110a4565b82525050565b600060208201905061112b6000830184611107565b92915050565b600060ff82169050919050565b61114781611131565b82525050565b6000602082019050611162600083018461113e565b92915050565b600073ffffffffffffffffffffffffffffffffffffffff82169050919050565b600061119382611168565b9050919050565b6111a381611188565b82525050565b60006020820190506111be600083018461119a565b92915050565b6111cd81611131565b81146111d857600080fd5b50565b6000813590506111ea816111c4565b92915050565b6000602082840312156112065761120561109f565b5b6000611214848285016111db565b91505092915050565b600080604083850312156112345761123361109f565b5b6000611242858286016110c5565b9250506020611253858286016110c5565b9150509250929050565b60006060820190506112726000830186611107565b61127f6020830185611107565b61128c6040830184611107565b949350505050565b61129d81611188565b81146112a857600080fd5b50565b6000813590506112ba81611294565b92915050565b6000602082840312156112d6576112d561109f565b5b60006112e4848285016112ab565b91505092915050565b6112f6816110a4565b82525050565b600060208201905061131160008301846112ed565b92915050565b600081519050611326816111c4565b92915050565b6000602082840312156113425761134161109f565b5b600061135084828501611317565b91505092915050565b600082825260208201905092915050565b7f696e73756666696369656e742063686172676500000000000000000000000000600082015250565b60006113a0601383611359565b91506113ab8261136a565b602082019050919050565b600060208201905081810360008301526113cf81611393565b9050919050565b6000819050919050565b6113f16113ec826110a4565b6113d6565b82525050565b600061140382896113e0565b60208201915061141382886113e0565b60208201915061142382876113e0565b60208201915061143382866113e0565b60208201915061144382856113e0565b60208201915061145382846113e0565b602082019150819050979650505050505050565b7f72616e646f6d536565642063616e277420626520300000000000000000000000600082015250565b600061149d601583611359565b91506114a882611467565b602082019050919050565b600060208201905081810360008301526114cc81611490565b9050919050565b7f4e487b7100000000000000000000000000000000000000000000000000000000600052601160045260246000fd5b600061150d826110a4565b91507fffffffffffffffffffffffffffffffffffffffffffffffffffffffffffffffff820361153f5761153e6114d3565b5b600182019050919050565b600063ffffffff82169050919050565b6115638161154a565b811461156e57600080fd5b50565b6000815190506115808161155a565b92915050565b60006020828403121561159c5761159b61109f565b5b60006115aa84828501611571565b91505092915050565b60006115be8261154a565b91506115c98361154a565b9250828201905063ffffffff8111156115e5576115e46114d3565b5b92915050565b7f4e487b7100000000000000000000000000000000000000000000000000000000600052601260045260246000fd5b60006116258261154a565b91506116308361154a565b9250826116405761163f6115eb565b5b828204905092915050565b6000611656826110a4565b9150611661836110a4565b925082820261166f816110a4565b91508282048414831517611686576116856114d3565b5b5092915050565b6000611698826110a4565b91506116a3836110a4565b92508282019050808211156116bb576116ba6114d3565b5b92915050565b6116ca81611131565b82525050565b60006040820190506116e560008301856112ed565b6116f260208301846116c1565b9392505050565b6000819050919050565b600061171e61171961171484611131565b6116f9565b6110a4565b9050919050565b61172e81611703565b82525050565b600060608201905061174960008301866112ed565b6117566020830185611725565b61176360408301846116c1565b949350505050565b60008151905061177a816110ae565b92915050565b6000602082840312156117965761179561109f565b5b60006117a48482850161176b565b91505092915050565b6000819050919050565b60006117d26117cd6117c8846117ad565b6116f9565b611131565b9050919050565b6117e2816117b7565b82525050565b60006060820190506117fd60008301866112ed565b61180a6020830185611725565b61181760408301846117d9565b949350505050565b600061182a82611131565b915060ff820361183d5761183c6114d3565b5b600182019050919050565b600061185382611131565b915061185e83611131565b9250828203905060ff811115611877576118766114d3565b5b92915050565b6118868161154a565b82525050565b60006040820190506118a160008301856112ed565b6118ae602083018461187d565b9392505050565b60006040820190506118ca60008301856112ed565b6118d760208301846117d9565b9392505050565b7f4f776e61626c653a206e6577206f776e657220697320746865207a65726f206160008201527f6464726573730000000000000000000000000000000000000000000000000000602082015250565b600061193a602683611359565b9150611945826118de565b604082019050919050565b600060208201905081810360008301526119698161192d565b9050919050565b7f4f776e61626c653a2063616c6c6572206973206e6f7420746865206f776e6572600082015250565b60006119a6602083611359565b91506119b182611970565b602082019050919050565b600060208201905081810360008301526119d581611999565b9050919050565b60006119e7826110a4565b91506119f2836110a4565b9250828203905081811115611a0a57611a096114d3565b5b92915050565b6000611a1b826110a4565b9150611a26836110a4565b925082611a3657611a356115eb565b5b828204905092915050565b6000611a4d82856113e0565b602082019150611a5d82846113e0565b6020820191508190509392505050565b6000611a78826110a4565b9150611a83836110a4565b925082611a9357611a926115eb565b5b82820690509291505056fea26469706673582212205d83e62d14ba20c7ff90af51ced1149383f534b1c0e5e806df182f1ae9aed68764736f6c63430008120033",
					"opcodes": "PUSH1 0x80 PUSH1 0x40 MSTORE PUSH1 0x1 PUSH1 0x0 PUSH1 0x14 PUSH2 0x100 EXP DUP2 SLOAD DUP2 PUSH1 0xFF MUL NOT AND SWAP1 DUP4 PUSH1 0xFF AND MUL OR SWAP1 SSTORE POP PUSH1 0x1 DUP1 SSTORE PUSH1 0x5 PUSH1 0x2 SSTORE PUSH1 0x1 PUSH1 0x3 SSTORE PUSH1 0x1E PUSH1 0x4 SSTORE PUSH1 0x1 PUSH1 0x5 SSTORE PUSH1 0x24 PUSH1 0x6 SSTORE CALLVALUE DUP1 ISZERO PUSH2 0x49 JUMPI PUSH1 0x0 DUP1 REVERT JUMPDEST POP PUSH2 0x66 PUSH2 0x5B PUSH2 0x6B PUSH1 0x20 SHL PUSH1 0x20 SHR JUMP JUMPDEST PUSH2 0x73 PUSH1 0x20 SHL PUSH1 0x20 SHR JUMP JUMPDEST PUSH2 0x137 JUMP JUMPDEST PUSH1 0x0 CALLER SWAP1 POP SWAP1 JUMP JUMPDEST PUSH1 0x0 DUP1 PUSH1 0x0 SWAP1 SLOAD SWAP1 PUSH2 0x100 EXP SWAP1 DIV PUSH20 0xFFFFFFFFFFFFFFFFFFFFFFFFFFFFFFFFFFFFFFFF AND SWAP1 POP DUP2 PUSH1 0x0 DUP1 PUSH2 0x100 EXP DUP2 SLOAD DUP2 PUSH20 0xFFFFFFFFFFFFFFFFFFFFFFFFFFFFFFFFFFFFFFFF MUL NOT AND SWAP1 DUP4 PUSH20 0xFFFFFFFFFFFFFFFFFFFFFFFFFFFFFFFFFFFFFFFF AND MUL OR SWAP1 SSTORE POP DUP2 PUSH20 0xFFFFFFFFFFFFFFFFFFFFFFFFFFFFFFFFFFFFFFFF AND DUP2 PUSH20 0xFFFFFFFFFFFFFFFFFFFFFFFFFFFFFFFFFFFFFFFF AND PUSH32 0x8BE0079C531659141344CD1FD0A4F28419497F9722A3DAAFE3B4186F6B6457E0 PUSH1 0x40 MLOAD PUSH1 0x40 MLOAD DUP1 SWAP2 SUB SWAP1 LOG3 POP POP JUMP JUMPDEST PUSH2 0x1AD4 DUP1 PUSH2 0x146 PUSH1 0x0 CODECOPY PUSH1 0x0 RETURN INVALID PUSH1 0x80 PUSH1 0x40 MSTORE CALLVALUE DUP1 ISZERO PUSH2 0x10 JUMPI PUSH1 0x0 DUP1 REVERT JUMPDEST POP PUSH1 0x4 CALLDATASIZE LT PUSH2 0x116 JUMPI PUSH1 0x0 CALLDATALOAD PUSH1 0xE0 SHR DUP1 PUSH4 0x8DA5CB5B GT PUSH2 0xA2 JUMPI DUP1 PUSH4 0xE238B8C6 GT PUSH2 0x71 JUMPI DUP1 PUSH4 0xE238B8C6 EQ PUSH2 0x281 JUMPI DUP1 PUSH4 0xE2E3A0DB EQ PUSH2 0x29F JUMPI DUP1 PUSH4 0xE4A13FB7 EQ PUSH2 0x2BB JUMPI DUP1 PUSH4 0xEB4B0E51 EQ PUSH2 0x2ED JUMPI DUP1 PUSH4 0xF2FDE38B EQ PUSH2 0x30B JUMPI PUSH2 0x116 JUMP JUMPDEST DUP1 PUSH4 0x8DA5CB5B EQ PUSH2 0x20D JUMPI DUP1 PUSH4 0x91B66725 EQ PUSH2 0x22B JUMPI DUP1 PUSH4 0xD477A712 EQ PUSH2 0x247 JUMPI DUP1 PUSH4 0xDE405B18 EQ PUSH2 0x265 JUMPI PUSH2 0x116 JUMP JUMPDEST DUP1 PUSH4 0x32099CC4 GT PUSH2 0xE9 JUMPI DUP1 PUSH4 0x32099CC4 EQ PUSH2 0x18B JUMPI DUP1 PUSH4 0x615EBE28 EQ PUSH2 0x1A9 JUMPI DUP1 PUSH4 0x715018A6 EQ PUSH2 0x1C7 JUMPI DUP1 PUSH4 0x772121FE EQ PUSH2 0x1D1 JUMPI DUP1 PUSH4 0x878CF3A6 EQ PUSH2 0x1EF JUMPI PUSH2 0x116 JUMP JUMPDEST DUP1 PUSH4 0x2AFF378 EQ PUSH2 0x11B JUMPI DUP1 PUSH4 0x54FEE6A EQ PUSH2 0x137 JUMPI DUP1 PUSH4 0x16BD8646 EQ PUSH2 0x153 JUMPI DUP1 PUSH4 0x1BB39F84 EQ PUSH2 0x16F JUMPI JUMPDEST PUSH1 0x0 DUP1 REVERT JUMPDEST PUSH2 0x135 PUSH1 0x4 DUP1 CALLDATASIZE SUB DUP2 ADD SWAP1 PUSH2 0x130 SWAP2 SWAP1 PUSH2 0x10DA JUMP JUMPDEST PUSH2 0x327 JUMP JUMPDEST STOP JUMPDEST PUSH2 0x151 PUSH1 0x4 DUP1 CALLDATASIZE SUB DUP2 ADD SWAP1 PUSH2 0x14C SWAP2 SWAP1 PUSH2 0x10DA JUMP JUMPDEST PUSH2 0x339 JUMP JUMPDEST STOP JUMPDEST PUSH2 0x16D PUSH1 0x4 DUP1 CALLDATASIZE SUB DUP2 ADD SWAP1 PUSH2 0x168 SWAP2 SWAP1 PUSH2 0x10DA JUMP JUMPDEST PUSH2 0x34B JUMP JUMPDEST STOP JUMPDEST PUSH2 0x189 PUSH1 0x4 DUP1 CALLDATASIZE SUB DUP2 ADD SWAP1 PUSH2 0x184 SWAP2 SWAP1 PUSH2 0x10DA JUMP JUMPDEST PUSH2 0x35D JUMP JUMPDEST STOP JUMPDEST PUSH2 0x193 PUSH2 0x36F JUMP JUMPDEST PUSH1 0x40 MLOAD PUSH2 0x1A0 SWAP2 SWAP1 PUSH2 0x1116 JUMP JUMPDEST PUSH1 0x40 MLOAD DUP1 SWAP2 SUB SWAP1 RETURN JUMPDEST PUSH2 0x1B1 PUSH2 0x379 JUMP JUMPDEST PUSH1 0x40 MLOAD PUSH2 0x1BE SWAP2 SWAP1 PUSH2 0x1116 JUMP JUMPDEST PUSH1 0x40 MLOAD DUP1 SWAP2 SUB SWAP1 RETURN JUMPDEST PUSH2 0x1CF PUSH2 0x383 JUMP JUMPDEST STOP JUMPDEST PUSH2 0x1D9 PUSH2 0x397 JUMP JUMPDEST PUSH1 0x40 MLOAD PUSH2 0x1E6 SWAP2 SWAP1 PUSH2 0x114D JUMP JUMPDEST PUSH1 0x40 MLOAD DUP1 SWAP2 SUB SWAP1 RETURN JUMPDEST PUSH2 0x1F7 PUSH2 0x3AD JUMP JUMPDEST PUSH1 0x40 MLOAD PUSH2 0x204 SWAP2 SWAP1 PUSH2 0x1116 JUMP JUMPDEST PUSH1 0x40 MLOAD DUP1 SWAP2 SUB SWAP1 RETURN JUMPDEST PUSH2 0x215 PUSH2 0x3B7 JUMP JUMPDEST PUSH1 0x40 MLOAD PUSH2 0x222 SWAP2 SWAP1 PUSH2 0x11A9 JUMP JUMPDEST PUSH1 0x40 MLOAD DUP1 SWAP2 SUB SWAP1 RETURN JUMPDEST PUSH2 0x245 PUSH1 0x4 DUP1 CALLDATASIZE SUB DUP2 ADD SWAP1 PUSH2 0x240 SWAP2 SWAP1 PUSH2 0x10DA JUMP JUMPDEST PUSH2 0x3E0 JUMP JUMPDEST STOP JUMPDEST PUSH2 0x24F PUSH2 0x3F2 JUMP JUMPDEST PUSH1 0x40 MLOAD PUSH2 0x25C SWAP2 SWAP1 PUSH2 0x1116 JUMP JUMPDEST PUSH1 0x40 MLOAD DUP1 SWAP2 SUB SWAP1 RETURN JUMPDEST PUSH2 0x27F PUSH1 0x4 DUP1 CALLDATASIZE SUB DUP2 ADD SWAP1 PUSH2 0x27A SWAP2 SWAP1 PUSH2 0x11F0 JUMP JUMPDEST PUSH2 0x3FC JUMP JUMPDEST STOP JUMPDEST PUSH2 0x289 PUSH2 0x422 JUMP JUMPDEST PUSH1 0x40 MLOAD PUSH2 0x296 SWAP2 SWAP1 PUSH2 0x1116 JUMP JUMPDEST PUSH1 0x40 MLOAD DUP1 SWAP2 SUB SWAP1 RETURN JUMPDEST PUSH2 0x2B9 PUSH1 0x4 DUP1 CALLDATASIZE SUB DUP2 ADD SWAP1 PUSH2 0x2B4 SWAP2 SWAP1 PUSH2 0x10DA JUMP JUMPDEST PUSH2 0x42C JUMP JUMPDEST STOP JUMPDEST PUSH2 0x2D5 PUSH1 0x4 DUP1 CALLDATASIZE SUB DUP2 ADD SWAP1 PUSH2 0x2D0 SWAP2 SWAP1 PUSH2 0x121D JUMP JUMPDEST PUSH2 0x43E JUMP JUMPDEST PUSH1 0x40 MLOAD PUSH2 0x2E4 SWAP4 SWAP3 SWAP2 SWAP1 PUSH2 0x125D JUMP JUMPDEST PUSH1 0x40 MLOAD DUP1 SWAP2 SUB SWAP1 RETURN JUMPDEST PUSH2 0x2F5 PUSH2 0xE2D JUMP JUMPDEST PUSH1 0x40 MLOAD PUSH2 0x302 SWAP2 SWAP1 PUSH2 0x1116 JUMP JUMPDEST PUSH1 0x40 MLOAD DUP1 SWAP2 SUB SWAP1 RETURN JUMPDEST PUSH2 0x325 PUSH1 0x4 DUP1 CALLDATASIZE SUB DUP2 ADD SWAP1 PUSH2 0x320 SWAP2 SWAP1 PUSH2 0x12C0 JUMP JUMPDEST PUSH2 0xE37 JUMP JUMPDEST STOP JUMPDEST PUSH2 0x32F PUSH2 0xEBA JUMP JUMPDEST DUP1 PUSH1 0x1 DUP2 SWAP1 SSTORE POP POP JUMP JUMPDEST PUSH2 0x341 PUSH2 0xEBA JUMP JUMPDEST DUP1 PUSH1 0x2 DUP2 SWAP1 SSTORE POP POP JUMP JUMPDEST PUSH2 0x353 PUSH2 0xEBA JUMP JUMPDEST DUP1 PUSH1 0x6 DUP2 SWAP1 SSTORE POP POP JUMP JUMPDEST PUSH2 0x365 PUSH2 0xEBA JUMP JUMPDEST DUP1 PUSH1 0x4 DUP2 SWAP1 SSTORE POP POP JUMP JUMPDEST PUSH1 0x0 PUSH1 0x3 SLOAD SWAP1 POP SWAP1 JUMP JUMPDEST PUSH1 0x0 PUSH1 0x4 SLOAD SWAP1 POP SWAP1 JUMP JUMPDEST PUSH2 0x38B PUSH2 0xEBA JUMP JUMPDEST PUSH2 0x395 PUSH1 0x0 PUSH2 0xF38 JUMP JUMPDEST JUMP JUMPDEST PUSH1 0x0 DUP1 PUSH1 0x14 SWAP1 SLOAD SWAP1 PUSH2 0x100 EXP SWAP1 DIV PUSH1 0xFF AND SWAP1 POP SWAP1 JUMP JUMPDEST PUSH1 0x0 PUSH1 0x1 SLOAD SWAP1 POP SWAP1 JUMP JUMPDEST PUSH1 0x0 DUP1 PUSH1 0x0 SWAP1 SLOAD SWAP1 PUSH2 0x100 EXP SWAP1 DIV PUSH20 0xFFFFFFFFFFFFFFFFFFFFFFFFFFFFFFFFFFFFFFFF AND SWAP1 POP SWAP1 JUMP JUMPDEST PUSH2 0x3E8 PUSH2 0xEBA JUMP JUMPDEST DUP1 PUSH1 0x3 DUP2 SWAP1 SSTORE POP POP JUMP JUMPDEST PUSH1 0x0 PUSH1 0x6 SLOAD SWAP1 POP SWAP1 JUMP JUMPDEST PUSH2 0x404 PUSH2 0xEBA JUMP JUMPDEST DUP1 PUSH1 0x0 PUSH1 0x14 PUSH2 0x100 EXP DUP2 SLOAD DUP2 PUSH1 0xFF MUL NOT AND SWAP1 DUP4 PUSH1 0xFF AND MUL OR SWAP1 SSTORE POP POP JUMP JUMPDEST PUSH1 0x0 PUSH1 0x2 SLOAD SWAP1 POP SWAP1 JUMP JUMPDEST PUSH2 0x434 PUSH2 0xEBA JUMP JUMPDEST DUP1 PUSH1 0x5 DUP2 SWAP1 SSTORE POP POP JUMP JUMPDEST PUSH1 0x0 DUP1 PUSH1 0x0 DUP1 PUSH1 0x14 SWAP1 SLOAD SWAP1 PUSH2 0x100 EXP SWAP1 DIV PUSH1 0xFF AND PUSH1 0xFF AND PUSH20 0x0 PUSH4 0x317F435 DUP8 PUSH1 0x40 MLOAD DUP3 PUSH4 0xFFFFFFFF AND PUSH1 0xE0 SHL DUP2 MSTORE PUSH1 0x4 ADD PUSH2 0x48C SWAP2 SWAP1 PUSH2 0x12FC JUMP JUMPDEST PUSH1 0x20 PUSH1 0x40 MLOAD DUP1 DUP4 SUB DUP2 DUP7 GAS DELEGATECALL ISZERO DUP1 ISZERO PUSH2 0x4A9 JUMPI RETURNDATASIZE PUSH1 0x0 DUP1 RETURNDATACOPY RETURNDATASIZE PUSH1 0x0 REVERT JUMPDEST POP POP POP POP PUSH1 0x40 MLOAD RETURNDATASIZE PUSH1 0x1F NOT PUSH1 0x1F DUP3 ADD AND DUP3 ADD DUP1 PUSH1 0x40 MSTORE POP DUP2 ADD SWAP1 PUSH2 0x4CD SWAP2 SWAP1 PUSH2 0x132C JUMP JUMPDEST PUSH1 0xFF AND LT ISZERO PUSH2 0x511 JUMPI PUSH1 0x40 MLOAD PUSH32 0x8C379A000000000000000000000000000000000000000000000000000000000 DUP2 MSTORE PUSH1 0x4 ADD PUSH2 0x508 SWAP1 PUSH2 0x13B6 JUMP JUMPDEST PUSH1 0x40 MLOAD DUP1 SWAP2 SUB SWAP1 REVERT JUMPDEST PUSH1 0x0 PUSH1 0x14 SWAP1 SLOAD SWAP1 PUSH2 0x100 EXP SWAP1 DIV PUSH1 0xFF AND PUSH1 0xFF AND PUSH20 0x0 PUSH4 0x317F435 DUP7 PUSH1 0x40 MLOAD DUP3 PUSH4 0xFFFFFFFF AND PUSH1 0xE0 SHL DUP2 MSTORE PUSH1 0x4 ADD PUSH2 0x55B SWAP2 SWAP1 PUSH2 0x12FC JUMP JUMPDEST PUSH1 0x20 PUSH1 0x40 MLOAD DUP1 DUP4 SUB DUP2 DUP7 GAS DELEGATECALL ISZERO DUP1 ISZERO PUSH2 0x578 JUMPI RETURNDATASIZE PUSH1 0x0 DUP1 RETURNDATACOPY RETURNDATASIZE PUSH1 0x0 REVERT JUMPDEST POP POP POP POP PUSH1 0x40 MLOAD RETURNDATASIZE PUSH1 0x1F NOT PUSH1 0x1F DUP3 ADD AND DUP3 ADD DUP1 PUSH1 0x40 MSTORE POP DUP2 ADD SWAP1 PUSH2 0x59C SWAP2 SWAP1 PUSH2 0x132C JUMP JUMPDEST PUSH1 0xFF AND LT ISZERO PUSH2 0x5E0 JUMPI PUSH1 0x40 MLOAD PUSH32 0x8C379A000000000000000000000000000000000000000000000000000000000 DUP2 MSTORE PUSH1 0x4 ADD PUSH2 0x5D7 SWAP1 PUSH2 0x13B6 JUMP JUMPDEST PUSH1 0x40 MLOAD DUP1 SWAP2 SUB SWAP1 REVERT JUMPDEST PUSH1 0x0 TIMESTAMP NUMBER PREVRANDAO DUP9 DUP9 PUSH1 0x1 SLOAD PUSH1 0x40 MLOAD PUSH1 0x20 ADD PUSH2 0x5FF SWAP7 SWAP6 SWAP5 SWAP4 SWAP3 SWAP2 SWAP1 PUSH2 0x13F7 JUMP JUMPDEST PUSH1 0x40 MLOAD PUSH1 0x20 DUP2 DUP4 SUB SUB DUP2 MSTORE SWAP1 PUSH1 0x40 MSTORE DUP1 MLOAD SWAP1 PUSH1 0x20 ADD KECCAK256 PUSH1 0x0 SHR SWAP1 POP PUSH1 0x0 DUP2 SUB PUSH2 0x65D JUMPI PUSH1 0x40 MLOAD PUSH32 0x8C379A000000000000000000000000000000000000000000000000000000000 DUP2 MSTORE PUSH1 0x4 ADD PUSH2 0x654 SWAP1 PUSH2 0x14B3 JUMP JUMPDEST PUSH1 0x40 MLOAD DUP1 SWAP2 SUB SWAP1 REVERT JUMPDEST PUSH1 0x1 PUSH1 0x0 DUP2 SLOAD DUP1 SWAP3 SWAP2 SWAP1 PUSH2 0x670 SWAP1 PUSH2 0x1502 JUMP JUMPDEST SWAP2 SWAP1 POP SSTORE POP PUSH1 0x0 PUSH1 0x1 PUSH1 0x2 PUSH20 0x0 PUSH4 0x56E3DF97 DUP10 PUSH1 0x40 MLOAD DUP3 PUSH4 0xFFFFFFFF AND PUSH1 0xE0 SHL DUP2 MSTORE PUSH1 0x4 ADD PUSH2 0x6B2 SWAP2 SWAP1 PUSH2 0x12FC JUMP JUMPDEST PUSH1 0x20 PUSH1 0x40 MLOAD DUP1 DUP4 SUB DUP2 DUP7 GAS DELEGATECALL ISZERO DUP1 ISZERO PUSH2 0x6CF JUMPI RETURNDATASIZE PUSH1 0x0 DUP1 RETURNDATACOPY RETURNDATASIZE PUSH1 0x0 REVERT JUMPDEST POP POP POP POP PUSH1 0x40 MLOAD RETURNDATASIZE PUSH1 0x1F NOT PUSH1 0x1F DUP3 ADD AND DUP3 ADD DUP1 PUSH1 0x40 MSTORE POP DUP2 ADD SWAP1 PUSH2 0x6F3 SWAP2 SWAP1 PUSH2 0x1586 JUMP JUMPDEST PUSH20 0x0 PUSH4 0x56E3DF97 DUP12 PUSH1 0x40 MLOAD DUP3 PUSH4 0xFFFFFFFF AND PUSH1 0xE0 SHL DUP2 MSTORE PUSH1 0x4 ADD PUSH2 0x72A SWAP2 SWAP1 PUSH2 0x12FC JUMP JUMPDEST PUSH1 0x20 PUSH1 0x40 MLOAD DUP1 DUP4 SUB DUP2 DUP7 GAS DELEGATECALL ISZERO DUP1 ISZERO PUSH2 0x747 JUMPI RETURNDATASIZE PUSH1 0x0 DUP1 RETURNDATACOPY RETURNDATASIZE PUSH1 0x0 REVERT JUMPDEST POP POP POP POP PUSH1 0x40 MLOAD RETURNDATASIZE PUSH1 0x1F NOT PUSH1 0x1F DUP3 ADD AND DUP3 ADD DUP1 PUSH1 0x40 MSTORE POP DUP2 ADD SWAP1 PUSH2 0x76B SWAP2 SWAP1 PUSH2 0x1586 JUMP JUMPDEST PUSH2 0x775 SWAP2 SWAP1 PUSH2 0x15B3 JUMP JUMPDEST PUSH2 0x77F SWAP2 SWAP1 PUSH2 0x161A JUMP JUMPDEST PUSH2 0x789 SWAP2 SWAP1 PUSH2 0x15B3 JUMP JUMPDEST SWAP1 POP PUSH1 0x0 PUSH1 0x9 SWAP1 POP PUSH1 0x0 DUP1 SWAP5 POP PUSH1 0x0 JUMPDEST DUP3 DUP2 PUSH1 0xFF AND LT ISZERO PUSH2 0xB0E JUMPI PUSH1 0x0 PUSH2 0x7BD DUP6 PUSH4 0xFFFFFFFF AND PUSH1 0x3 SLOAD PUSH1 0x4 SLOAD PUSH1 0x64 PUSH2 0xFFC JUMP JUMPDEST SWAP1 POP PUSH1 0x0 PUSH2 0x7EA PUSH1 0x1 SLOAD DUP6 DUP1 PUSH2 0x7D2 SWAP1 PUSH2 0x1502 JUMP JUMPDEST SWAP7 POP PUSH1 0x0 PUSH1 0x64 PUSH1 0x4 SLOAD PUSH2 0x7E5 SWAP2 SWAP1 PUSH2 0x164B JUMP JUMPDEST PUSH2 0x103B JUMP JUMPDEST DUP3 LT ISZERO SWAP1 POP PUSH1 0x0 PUSH1 0x1 SWAP1 POP PUSH2 0x811 PUSH1 0x1 SLOAD DUP7 DUP1 PUSH2 0x806 SWAP1 PUSH2 0x1502 JUMP JUMPDEST SWAP8 POP PUSH1 0x0 PUSH1 0x64 PUSH2 0x103B JUMP JUMPDEST PUSH1 0x2 SLOAD LT PUSH2 0x84D JUMPI PUSH1 0xFF PUSH2 0x845 PUSH1 0x1 SLOAD DUP8 DUP1 PUSH2 0x82C SWAP1 PUSH2 0x1502 JUMP JUMPDEST SWAP9 POP PUSH1 0x5 SLOAD PUSH1 0x1 PUSH1 0x6 SLOAD PUSH2 0x840 SWAP2 SWAP1 PUSH2 0x168D JUMP JUMPDEST PUSH2 0x103B JUMP JUMPDEST AND SWAP1 POP PUSH2 0x96F JUMP JUMPDEST PUSH1 0x32 PUSH2 0x86B PUSH1 0x1 SLOAD DUP8 DUP1 PUSH2 0x860 SWAP1 PUSH2 0x1502 JUMP JUMPDEST SWAP9 POP PUSH1 0x0 PUSH1 0x64 PUSH2 0x103B JUMP JUMPDEST LT PUSH2 0x8F1 JUMPI PUSH20 0x0 PUSH4 0x5D2029F1 DUP14 DUP7 PUSH1 0x40 MLOAD DUP4 PUSH4 0xFFFFFFFF AND PUSH1 0xE0 SHL DUP2 MSTORE PUSH1 0x4 ADD PUSH2 0x8A9 SWAP3 SWAP2 SWAP1 PUSH2 0x16D0 JUMP JUMPDEST PUSH1 0x20 PUSH1 0x40 MLOAD DUP1 DUP4 SUB DUP2 DUP7 GAS DELEGATECALL ISZERO DUP1 ISZERO PUSH2 0x8C6 JUMPI RETURNDATASIZE PUSH1 0x0 DUP1 RETURNDATACOPY RETURNDATASIZE PUSH1 0x0 REVERT JUMPDEST POP POP POP POP PUSH1 0x40 MLOAD RETURNDATASIZE PUSH1 0x1F NOT PUSH1 0x1F DUP3 ADD AND DUP3 ADD DUP1 PUSH1 0x40 MSTORE POP DUP2 ADD SWAP1 PUSH2 0x8EA SWAP2 SWAP1 PUSH2 0x132C JUMP JUMPDEST SWAP1 POP PUSH2 0x96E JUMP JUMPDEST PUSH20 0x0 PUSH4 0x5D2029F1 DUP15 DUP7 PUSH1 0x40 MLOAD DUP4 PUSH4 0xFFFFFFFF AND PUSH1 0xE0 SHL DUP2 MSTORE PUSH1 0x4 ADD PUSH2 0x92A SWAP3 SWAP2 SWAP1 PUSH2 0x16D0 JUMP JUMPDEST PUSH1 0x20 PUSH1 0x40 MLOAD DUP1 DUP4 SUB DUP2 DUP7 GAS DELEGATECALL ISZERO DUP1 ISZERO PUSH2 0x947 JUMPI RETURNDATASIZE PUSH1 0x0 DUP1 RETURNDATACOPY RETURNDATASIZE PUSH1 0x0 REVERT JUMPDEST POP POP POP POP PUSH1 0x40 MLOAD RETURNDATASIZE PUSH1 0x1F NOT PUSH1 0x1F DUP3 ADD AND DUP3 ADD DUP1 PUSH1 0x40 MSTORE POP DUP2 ADD SWAP1 PUSH2 0x96B SWAP2 SWAP1 PUSH2 0x132C JUMP JUMPDEST SWAP1 POP JUMPDEST JUMPDEST PUSH20 0x0 PUSH4 0x34A51D0F DUP11 DUP7 DUP5 PUSH1 0x40 MLOAD DUP5 PUSH4 0xFFFFFFFF AND PUSH1 0xE0 SHL DUP2 MSTORE PUSH1 0x4 ADD PUSH2 0x9AA SWAP4 SWAP3 SWAP2 SWAP1 PUSH2 0x1734 JUMP JUMPDEST PUSH1 0x20 PUSH1 0x40 MLOAD DUP1 DUP4 SUB DUP2 DUP7 GAS DELEGATECALL ISZERO DUP1 ISZERO PUSH2 0x9C7 JUMPI RETURNDATASIZE PUSH1 0x0 DUP1 RETURNDATACOPY RETURNDATASIZE PUSH1 0x0 REVERT JUMPDEST POP POP POP POP PUSH1 0x40 MLOAD RETURNDATASIZE PUSH1 0x1F NOT PUSH1 0x1F DUP3 ADD AND DUP3 ADD DUP1 PUSH1 0x40 MSTORE POP DUP2 ADD SWAP1 PUSH2 0x9EB SWAP2 SWAP1 PUSH2 0x1780 JUMP JUMPDEST SWAP9 POP PUSH20 0x0 PUSH4 0xE1B30AB7 DUP11 DUP7 PUSH1 0x1 PUSH1 0x40 MLOAD DUP5 PUSH4 0xFFFFFFFF AND PUSH1 0xE0 SHL DUP2 MSTORE PUSH1 0x4 ADD PUSH2 0xA29 SWAP4 SWAP3 SWAP2 SWAP1 PUSH2 0x17E8 JUMP JUMPDEST PUSH1 0x20 PUSH1 0x40 MLOAD DUP1 DUP4 SUB DUP2 DUP7 GAS DELEGATECALL ISZERO DUP1 ISZERO PUSH2 0xA46 JUMPI RETURNDATASIZE PUSH1 0x0 DUP1 RETURNDATACOPY RETURNDATASIZE PUSH1 0x0 REVERT JUMPDEST POP POP POP POP PUSH1 0x40 MLOAD RETURNDATASIZE PUSH1 0x1F NOT PUSH1 0x1F DUP3 ADD AND DUP3 ADD DUP1 PUSH1 0x40 MSTORE POP DUP2 ADD SWAP1 PUSH2 0xA6A SWAP2 SWAP1 PUSH2 0x1780 JUMP JUMPDEST SWAP9 POP PUSH20 0x0 PUSH4 0x55D6ED43 DUP11 DUP7 DUP6 PUSH2 0xA94 JUMPI PUSH1 0x0 PUSH2 0xA97 JUMP JUMPDEST PUSH1 0x1 JUMPDEST PUSH1 0x40 MLOAD DUP5 PUSH4 0xFFFFFFFF AND PUSH1 0xE0 SHL DUP2 MSTORE PUSH1 0x4 ADD PUSH2 0xAB5 SWAP4 SWAP3 SWAP2 SWAP1 PUSH2 0x1734 JUMP JUMPDEST PUSH1 0x20 PUSH1 0x40 MLOAD DUP1 DUP4 SUB DUP2 DUP7 GAS DELEGATECALL ISZERO DUP1 ISZERO PUSH2 0xAD2 JUMPI RETURNDATASIZE PUSH1 0x0 DUP1 RETURNDATACOPY RETURNDATASIZE PUSH1 0x0 REVERT JUMPDEST POP POP POP POP PUSH1 0x40 MLOAD RETURNDATASIZE PUSH1 0x1F NOT PUSH1 0x1F DUP3 ADD AND DUP3 ADD DUP1 PUSH1 0x40 MSTORE POP DUP2 ADD SWAP1 PUSH2 0xAF6 SWAP2 SWAP1 PUSH2 0x1780 JUMP JUMPDEST SWAP9 POP POP POP POP DUP1 DUP1 PUSH2 0xB06 SWAP1 PUSH2 0x181F JUMP JUMPDEST SWAP2 POP POP PUSH2 0x799 JUMP JUMPDEST POP PUSH20 0x0 PUSH4 0xB52B6659 DUP11 PUSH1 0x0 PUSH1 0x14 SWAP1 SLOAD SWAP1 PUSH2 0x100 EXP SWAP1 DIV PUSH1 0xFF AND PUSH20 0x0 PUSH4 0x317F435 DUP15 PUSH1 0x40 MLOAD DUP3 PUSH4 0xFFFFFFFF AND PUSH1 0xE0 SHL DUP2 MSTORE PUSH1 0x4 ADD PUSH2 0xB71 SWAP2 SWAP1 PUSH2 0x12FC JUMP JUMPDEST PUSH1 0x20 PUSH1 0x40 MLOAD DUP1 DUP4 SUB DUP2 DUP7 GAS DELEGATECALL ISZERO DUP1 ISZERO PUSH2 0xB8E JUMPI RETURNDATASIZE PUSH1 0x0 DUP1 RETURNDATACOPY RETURNDATASIZE PUSH1 0x0 REVERT JUMPDEST POP POP POP POP PUSH1 0x40 MLOAD RETURNDATASIZE PUSH1 0x1F NOT PUSH1 0x1F DUP3 ADD AND DUP3 ADD DUP1 PUSH1 0x40 MSTORE POP DUP2 ADD SWAP1 PUSH2 0xBB2 SWAP2 SWAP1 PUSH2 0x132C JUMP JUMPDEST PUSH2 0xBBC SWAP2 SWAP1 PUSH2 0x1848 JUMP JUMPDEST PUSH1 0x40 MLOAD DUP4 PUSH4 0xFFFFFFFF AND PUSH1 0xE0 SHL DUP2 MSTORE PUSH1 0x4 ADD PUSH2 0xBD9 SWAP3 SWAP2 SWAP1 PUSH2 0x16D0 JUMP JUMPDEST PUSH1 0x20 PUSH1 0x40 MLOAD DUP1 DUP4 SUB DUP2 DUP7 GAS DELEGATECALL ISZERO DUP1 ISZERO PUSH2 0xBF6 JUMPI RETURNDATASIZE PUSH1 0x0 DUP1 RETURNDATACOPY RETURNDATASIZE PUSH1 0x0 REVERT JUMPDEST POP POP POP POP PUSH1 0x40 MLOAD RETURNDATASIZE PUSH1 0x1F NOT PUSH1 0x1F DUP3 ADD AND DUP3 ADD DUP1 PUSH1 0x40 MSTORE POP DUP2 ADD SWAP1 PUSH2 0xC1A SWAP2 SWAP1 PUSH2 0x1780 JUMP JUMPDEST SWAP7 POP PUSH20 0x0 PUSH4 0xB52B6659 DUP10 PUSH1 0x0 PUSH1 0x14 SWAP1 SLOAD SWAP1 PUSH2 0x100 EXP SWAP1 DIV PUSH1 0xFF AND PUSH20 0x0 PUSH4 0x317F435 DUP14 PUSH1 0x40 MLOAD DUP3 PUSH4 0xFFFFFFFF AND PUSH1 0xE0 SHL DUP2 MSTORE PUSH1 0x4 ADD PUSH2 0xC7E SWAP2 SWAP1 PUSH2 0x12FC JUMP JUMPDEST PUSH1 0x20 PUSH1 0x40 MLOAD DUP1 DUP4 SUB DUP2 DUP7 GAS DELEGATECALL ISZERO DUP1 ISZERO PUSH2 0xC9B JUMPI RETURNDATASIZE PUSH1 0x0 DUP1 RETURNDATACOPY RETURNDATASIZE PUSH1 0x0 REVERT JUMPDEST POP POP POP POP PUSH1 0x40 MLOAD RETURNDATASIZE PUSH1 0x1F NOT PUSH1 0x1F DUP3 ADD AND DUP3 ADD DUP1 PUSH1 0x40 MSTORE POP DUP2 ADD SWAP1 PUSH2 0xCBF SWAP2 SWAP1 PUSH2 0x132C JUMP JUMPDEST PUSH2 0xCC9 SWAP2 SWAP1 PUSH2 0x1848 JUMP JUMPDEST PUSH1 0x40 MLOAD DUP4 PUSH4 0xFFFFFFFF AND PUSH1 0xE0 SHL DUP2 MSTORE PUSH1 0x4 ADD PUSH2 0xCE6 SWAP3 SWAP2 SWAP1 PUSH2 0x16D0 JUMP JUMPDEST PUSH1 0x20 PUSH1 0x40 MLOAD DUP1 DUP4 SUB DUP2 DUP7 GAS DELEGATECALL ISZERO DUP1 ISZERO PUSH2 0xD03 JUMPI RETURNDATASIZE PUSH1 0x0 DUP1 RETURNDATACOPY RETURNDATASIZE PUSH1 0x0 REVERT JUMPDEST POP POP POP POP PUSH1 0x40 MLOAD RETURNDATASIZE PUSH1 0x1F NOT PUSH1 0x1F DUP3 ADD AND DUP3 ADD DUP1 PUSH1 0x40 MSTORE POP DUP2 ADD SWAP1 PUSH2 0xD27 SWAP2 SWAP1 PUSH2 0x1780 JUMP JUMPDEST SWAP6 POP PUSH20 0x0 PUSH4 0x8DE97F4F DUP7 DUP6 PUSH1 0x40 MLOAD DUP4 PUSH4 0xFFFFFFFF AND PUSH1 0xE0 SHL DUP2 MSTORE PUSH1 0x4 ADD PUSH2 0xD62 SWAP3 SWAP2 SWAP1 PUSH2 0x188C JUMP JUMPDEST PUSH1 0x20 PUSH1 0x40 MLOAD DUP1 DUP4 SUB DUP2 DUP7 GAS DELEGATECALL ISZERO DUP1 ISZERO PUSH2 0xD7F JUMPI RETURNDATASIZE PUSH1 0x0 DUP1 RETURNDATACOPY RETURNDATASIZE PUSH1 0x0 REVERT JUMPDEST POP POP POP POP PUSH1 0x40 MLOAD RETURNDATASIZE PUSH1 0x1F NOT PUSH1 0x1F DUP3 ADD AND DUP3 ADD DUP1 PUSH1 0x40 MSTORE POP DUP2 ADD SWAP1 PUSH2 0xDA3 SWAP2 SWAP1 PUSH2 0x1780 JUMP JUMPDEST SWAP5 POP PUSH20 0x0 PUSH4 0xB52B6659 DUP7 PUSH1 0x1 PUSH1 0x40 MLOAD DUP4 PUSH4 0xFFFFFFFF AND PUSH1 0xE0 SHL DUP2 MSTORE PUSH1 0x4 ADD PUSH2 0xDDF SWAP3 SWAP2 SWAP1 PUSH2 0x18B5 JUMP JUMPDEST PUSH1 0x20 PUSH1 0x40 MLOAD DUP1 DUP4 SUB DUP2 DUP7 GAS DELEGATECALL ISZERO DUP1 ISZERO PUSH2 0xDFC JUMPI RETURNDATASIZE PUSH1 0x0 DUP1 RETURNDATACOPY RETURNDATASIZE PUSH1 0x0 REVERT JUMPDEST POP POP POP POP PUSH1 0x40 MLOAD RETURNDATASIZE PUSH1 0x1F NOT PUSH1 0x1F DUP3 ADD AND DUP3 ADD DUP1 PUSH1 0x40 MSTORE POP DUP2 ADD SWAP1 PUSH2 0xE20 SWAP2 SWAP1 PUSH2 0x1780 JUMP JUMPDEST SWAP5 POP POP POP POP POP SWAP3 POP SWAP3 POP SWAP3 JUMP JUMPDEST PUSH1 0x0 PUSH1 0x5 SLOAD SWAP1 POP SWAP1 JUMP JUMPDEST PUSH2 0xE3F PUSH2 0xEBA JUMP JUMPDEST PUSH1 0x0 PUSH20 0xFFFFFFFFFFFFFFFFFFFFFFFFFFFFFFFFFFFFFFFF AND DUP2 PUSH20 0xFFFFFFFFFFFFFFFFFFFFFFFFFFFFFFFFFFFFFFFF AND SUB PUSH2 0xEAE JUMPI PUSH1 0x40 MLOAD PUSH32 0x8C379A000000000000000000000000000000000000000000000000000000000 DUP2 MSTORE PUSH1 0x4 ADD PUSH2 0xEA5 SWAP1 PUSH2 0x1950 JUMP JUMPDEST PUSH1 0x40 MLOAD DUP1 SWAP2 SUB SWAP1 REVERT JUMPDEST PUSH2 0xEB7 DUP2 PUSH2 0xF38 JUMP JUMPDEST POP JUMP JUMPDEST PUSH2 0xEC2 PUSH2 0x1097 JUMP JUMPDEST PUSH20 0xFFFFFFFFFFFFFFFFFFFFFFFFFFFFFFFFFFFFFFFF AND PUSH2 0xEE0 PUSH2 0x3B7 JUMP JUMPDEST PUSH20 0xFFFFFFFFFFFFFFFFFFFFFFFFFFFFFFFFFFFFFFFF AND EQ PUSH2 0xF36 JUMPI PUSH1 0x40 MLOAD PUSH32 0x8C379A000000000000000000000000000000000000000000000000000000000 DUP2 MSTORE PUSH1 0x4 ADD PUSH2 0xF2D SWAP1 PUSH2 0x19BC JUMP JUMPDEST PUSH1 0x40 MLOAD DUP1 SWAP2 SUB SWAP1 REVERT JUMPDEST JUMP JUMPDEST PUSH1 0x0 DUP1 PUSH1 0x0 SWAP1 SLOAD SWAP1 PUSH2 0x100 EXP SWAP1 DIV PUSH20 0xFFFFFFFFFFFFFFFFFFFFFFFFFFFFFFFFFFFFFFFF AND SWAP1 POP DUP2 PUSH1 0x0 DUP1 PUSH2 0x100 EXP DUP2 SLOAD DUP2 PUSH20 0xFFFFFFFFFFFFFFFFFFFFFFFFFFFFFFFFFFFFFFFF MUL NOT AND SWAP1 DUP4 PUSH20 0xFFFFFFFFFFFFFFFFFFFFFFFFFFFFFFFFFFFFFFFF AND MUL OR SWAP1 SSTORE POP DUP2 PUSH20 0xFFFFFFFFFFFFFFFFFFFFFFFFFFFFFFFFFFFFFFFF AND DUP2 PUSH20 0xFFFFFFFFFFFFFFFFFFFFFFFFFFFFFFFFFFFFFFFF AND PUSH32 0x8BE0079C531659141344CD1FD0A4F28419497F9722A3DAAFE3B4186F6B6457E0 PUSH1 0x40 MLOAD PUSH1 0x40 MLOAD DUP1 SWAP2 SUB SWAP1 LOG3 POP POP JUMP JUMPDEST PUSH1 0x0 DUP4 DUP6 GT PUSH2 0x100E JUMPI PUSH1 0x0 SWAP1 POP PUSH2 0x1033 JUMP JUMPDEST DUP3 DUP3 DUP6 DUP8 PUSH2 0x101C SWAP2 SWAP1 PUSH2 0x19DC JUMP JUMPDEST PUSH2 0x1026 SWAP2 SWAP1 PUSH2 0x164B JUMP JUMPDEST PUSH2 0x1030 SWAP2 SWAP1 PUSH2 0x1A10 JUMP JUMPDEST SWAP1 POP JUMPDEST SWAP5 SWAP4 POP POP POP POP JUMP JUMPDEST PUSH1 0x0 DUP3 DUP3 PUSH2 0x1049 SWAP2 SWAP1 PUSH2 0x19DC JUMP JUMPDEST DUP6 DUP6 PUSH1 0x40 MLOAD PUSH1 0x20 ADD PUSH2 0x105C SWAP3 SWAP2 SWAP1 PUSH2 0x1A41 JUMP JUMPDEST PUSH1 0x40 MLOAD PUSH1 0x20 DUP2 DUP4 SUB SUB DUP2 MSTORE SWAP1 PUSH1 0x40 MSTORE DUP1 MLOAD SWAP1 PUSH1 0x20 ADD KECCAK256 PUSH1 0x0 SHR PUSH2 0x107F SWAP2 SWAP1 PUSH2 0x1A6D JUMP JUMPDEST SWAP1 POP DUP1 DUP4 PUSH2 0x108D SWAP2 SWAP1 PUSH2 0x168D JUMP JUMPDEST SWAP1 POP SWAP5 SWAP4 POP POP POP POP JUMP JUMPDEST PUSH1 0x0 CALLER SWAP1 POP SWAP1 JUMP JUMPDEST PUSH1 0x0 DUP1 REVERT JUMPDEST PUSH1 0x0 DUP2 SWAP1 POP SWAP2 SWAP1 POP JUMP JUMPDEST PUSH2 0x10B7 DUP2 PUSH2 0x10A4 JUMP JUMPDEST DUP2 EQ PUSH2 0x10C2 JUMPI PUSH1 0x0 DUP1 REVERT JUMPDEST POP JUMP JUMPDEST PUSH1 0x0 DUP2 CALLDATALOAD SWAP1 POP PUSH2 0x10D4 DUP2 PUSH2 0x10AE JUMP JUMPDEST SWAP3 SWAP2 POP POP JUMP JUMPDEST PUSH1 0x0 PUSH1 0x20 DUP3 DUP5 SUB SLT ISZERO PUSH2 0x10F0 JUMPI PUSH2 0x10EF PUSH2 0x109F JUMP JUMPDEST JUMPDEST PUSH1 0x0 PUSH2 0x10FE DUP5 DUP3 DUP6 ADD PUSH2 0x10C5 JUMP JUMPDEST SWAP2 POP POP SWAP3 SWAP2 POP POP JUMP JUMPDEST PUSH2 0x1110 DUP2 PUSH2 0x10A4 JUMP JUMPDEST DUP3 MSTORE POP POP JUMP JUMPDEST PUSH1 0x0 PUSH1 0x20 DUP3 ADD SWAP1 POP PUSH2 0x112B PUSH1 0x0 DUP4 ADD DUP5 PUSH2 0x1107 JUMP JUMPDEST SWAP3 SWAP2 POP POP JUMP JUMPDEST PUSH1 0x0 PUSH1 0xFF DUP3 AND SWAP1 POP SWAP2 SWAP1 POP JUMP JUMPDEST PUSH2 0x1147 DUP2 PUSH2 0x1131 JUMP JUMPDEST DUP3 MSTORE POP POP JUMP JUMPDEST PUSH1 0x0 PUSH1 0x20 DUP3 ADD SWAP1 POP PUSH2 0x1162 PUSH1 0x0 DUP4 ADD DUP5 PUSH2 0x113E JUMP JUMPDEST SWAP3 SWAP2 POP POP JUMP JUMPDEST PUSH1 0x0 PUSH20 0xFFFFFFFFFFFFFFFFFFFFFFFFFFFFFFFFFFFFFFFF DUP3 AND SWAP1 POP SWAP2 SWAP1 POP JUMP JUMPDEST PUSH1 0x0 PUSH2 0x1193 DUP3 PUSH2 0x1168 JUMP JUMPDEST SWAP1 POP SWAP2 SWAP1 POP JUMP JUMPDEST PUSH2 0x11A3 DUP2 PUSH2 0x1188 JUMP JUMPDEST DUP3 MSTORE POP POP JUMP JUMPDEST PUSH1 0x0 PUSH1 0x20 DUP3 ADD SWAP1 POP PUSH2 0x11BE PUSH1 0x0 DUP4 ADD DUP5 PUSH2 0x119A JUMP JUMPDEST SWAP3 SWAP2 POP POP JUMP JUMPDEST PUSH2 0x11CD DUP2 PUSH2 0x1131 JUMP JUMPDEST DUP2 EQ PUSH2 0x11D8 JUMPI PUSH1 0x0 DUP1 REVERT JUMPDEST POP JUMP JUMPDEST PUSH1 0x0 DUP2 CALLDATALOAD SWAP1 POP PUSH2 0x11EA DUP2 PUSH2 0x11C4 JUMP JUMPDEST SWAP3 SWAP2 POP POP JUMP JUMPDEST PUSH1 0x0 PUSH1 0x20 DUP3 DUP5 SUB SLT ISZERO PUSH2 0x1206 JUMPI PUSH2 0x1205 PUSH2 0x109F JUMP JUMPDEST JUMPDEST PUSH1 0x0 PUSH2 0x1214 DUP5 DUP3 DUP6 ADD PUSH2 0x11DB JUMP JUMPDEST SWAP2 POP POP SWAP3 SWAP2 POP POP JUMP JUMPDEST PUSH1 0x0 DUP1 PUSH1 0x40 DUP4 DUP6 SUB SLT ISZERO PUSH2 0x1234 JUMPI PUSH2 0x1233 PUSH2 0x109F JUMP JUMPDEST JUMPDEST PUSH1 0x0 PUSH2 0x1242 DUP6 DUP3 DUP7 ADD PUSH2 0x10C5 JUMP JUMPDEST SWAP3 POP POP PUSH1 0x20 PUSH2 0x1253 DUP6 DUP3 DUP7 ADD PUSH2 0x10C5 JUMP JUMPDEST SWAP2 POP POP SWAP3 POP SWAP3 SWAP1 POP JUMP JUMPDEST PUSH1 0x0 PUSH1 0x60 DUP3 ADD SWAP1 POP PUSH2 0x1272 PUSH1 0x0 DUP4 ADD DUP7 PUSH2 0x1107 JUMP JUMPDEST PUSH2 0x127F PUSH1 0x20 DUP4 ADD DUP6 PUSH2 0x1107 JUMP JUMPDEST PUSH2 0x128C PUSH1 0x40 DUP4 ADD DUP5 PUSH2 0x1107 JUMP JUMPDEST SWAP5 SWAP4 POP POP POP POP JUMP JUMPDEST PUSH2 0x129D DUP2 PUSH2 0x1188 JUMP JUMPDEST DUP2 EQ PUSH2 0x12A8 JUMPI PUSH1 0x0 DUP1 REVERT JUMPDEST POP JUMP JUMPDEST PUSH1 0x0 DUP2 CALLDATALOAD SWAP1 POP PUSH2 0x12BA DUP2 PUSH2 0x1294 JUMP JUMPDEST SWAP3 SWAP2 POP POP JUMP JUMPDEST PUSH1 0x0 PUSH1 0x20 DUP3 DUP5 SUB SLT ISZERO PUSH2 0x12D6 JUMPI PUSH2 0x12D5 PUSH2 0x109F JUMP JUMPDEST JUMPDEST PUSH1 0x0 PUSH2 0x12E4 DUP5 DUP3 DUP6 ADD PUSH2 0x12AB JUMP JUMPDEST SWAP2 POP POP SWAP3 SWAP2 POP POP JUMP JUMPDEST PUSH2 0x12F6 DUP2 PUSH2 0x10A4 JUMP JUMPDEST DUP3 MSTORE POP POP JUMP JUMPDEST PUSH1 0x0 PUSH1 0x20 DUP3 ADD SWAP1 POP PUSH2 0x1311 PUSH1 0x0 DUP4 ADD DUP5 PUSH2 0x12ED JUMP JUMPDEST SWAP3 SWAP2 POP POP JUMP JUMPDEST PUSH1 0x0 DUP2 MLOAD SWAP1 POP PUSH2 0x1326 DUP2 PUSH2 0x11C4 JUMP JUMPDEST SWAP3 SWAP2 POP POP JUMP JUMPDEST PUSH1 0x0 PUSH1 0x20 DUP3 DUP5 SUB SLT ISZERO PUSH2 0x1342 JUMPI PUSH2 0x1341 PUSH2 0x109F JUMP JUMPDEST JUMPDEST PUSH1 0x0 PUSH2 0x1350 DUP5 DUP3 DUP6 ADD PUSH2 0x1317 JUMP JUMPDEST SWAP2 POP POP SWAP3 SWAP2 POP POP JUMP JUMPDEST PUSH1 0x0 DUP3 DUP3 MSTORE PUSH1 0x20 DUP3 ADD SWAP1 POP SWAP3 SWAP2 POP POP JUMP JUMPDEST PUSH32 0x696E73756666696369656E742063686172676500000000000000000000000000 PUSH1 0x0 DUP3 ADD MSTORE POP JUMP JUMPDEST PUSH1 0x0 PUSH2 0x13A0 PUSH1 0x13 DUP4 PUSH2 0x1359 JUMP JUMPDEST SWAP2 POP PUSH2 0x13AB DUP3 PUSH2 0x136A JUMP JUMPDEST PUSH1 0x20 DUP3 ADD SWAP1 POP SWAP2 SWAP1 POP JUMP JUMPDEST PUSH1 0x0 PUSH1 0x20 DUP3 ADD SWAP1 POP DUP2 DUP2 SUB PUSH1 0x0 DUP4 ADD MSTORE PUSH2 0x13CF DUP2 PUSH2 0x1393 JUMP JUMPDEST SWAP1 POP SWAP2 SWAP1 POP JUMP JUMPDEST PUSH1 0x0 DUP2 SWAP1 POP SWAP2 SWAP1 POP JUMP JUMPDEST PUSH2 0x13F1 PUSH2 0x13EC DUP3 PUSH2 0x10A4 JUMP JUMPDEST PUSH2 0x13D6 JUMP JUMPDEST DUP3 MSTORE POP POP JUMP JUMPDEST PUSH1 0x0 PUSH2 0x1403 DUP3 DUP10 PUSH2 0x13E0 JUMP JUMPDEST PUSH1 0x20 DUP3 ADD SWAP2 POP PUSH2 0x1413 DUP3 DUP9 PUSH2 0x13E0 JUMP JUMPDEST PUSH1 0x20 DUP3 ADD SWAP2 POP PUSH2 0x1423 DUP3 DUP8 PUSH2 0x13E0 JUMP JUMPDEST PUSH1 0x20 DUP3 ADD SWAP2 POP PUSH2 0x1433 DUP3 DUP7 PUSH2 0x13E0 JUMP JUMPDEST PUSH1 0x20 DUP3 ADD SWAP2 POP PUSH2 0x1443 DUP3 DUP6 PUSH2 0x13E0 JUMP JUMPDEST PUSH1 0x20 DUP3 ADD SWAP2 POP PUSH2 0x1453 DUP3 DUP5 PUSH2 0x13E0 JUMP JUMPDEST PUSH1 0x20 DUP3 ADD SWAP2 POP DUP2 SWAP1 POP SWAP8 SWAP7 POP POP POP POP POP POP POP JUMP JUMPDEST PUSH32 0x72616E646F6D536565642063616E277420626520300000000000000000000000 PUSH1 0x0 DUP3 ADD MSTORE POP JUMP JUMPDEST PUSH1 0x0 PUSH2 0x149D PUSH1 0x15 DUP4 PUSH2 0x1359 JUMP JUMPDEST SWAP2 POP PUSH2 0x14A8 DUP3 PUSH2 0x1467 JUMP JUMPDEST PUSH1 0x20 DUP3 ADD SWAP1 POP SWAP2 SWAP1 POP JUMP JUMPDEST PUSH1 0x0 PUSH1 0x20 DUP3 ADD SWAP1 POP DUP2 DUP2 SUB PUSH1 0x0 DUP4 ADD MSTORE PUSH2 0x14CC DUP2 PUSH2 0x1490 JUMP JUMPDEST SWAP1 POP SWAP2 SWAP1 POP JUMP JUMPDEST PUSH32 0x4E487B7100000000000000000000000000000000000000000000000000000000 PUSH1 0x0 MSTORE PUSH1 0x11 PUSH1 0x4 MSTORE PUSH1 0x24 PUSH1 0x0 REVERT JUMPDEST PUSH1 0x0 PUSH2 0x150D DUP3 PUSH2 0x10A4 JUMP JUMPDEST SWAP2 POP PUSH32 0xFFFFFFFFFFFFFFFFFFFFFFFFFFFFFFFFFFFFFFFFFFFFFFFFFFFFFFFFFFFFFFFF DUP3 SUB PUSH2 0x153F JUMPI PUSH2 0x153E PUSH2 0x14D3 JUMP JUMPDEST JUMPDEST PUSH1 0x1 DUP3 ADD SWAP1 POP SWAP2 SWAP1 POP JUMP JUMPDEST PUSH1 0x0 PUSH4 0xFFFFFFFF DUP3 AND SWAP1 POP SWAP2 SWAP1 POP JUMP JUMPDEST PUSH2 0x1563 DUP2 PUSH2 0x154A JUMP JUMPDEST DUP2 EQ PUSH2 0x156E JUMPI PUSH1 0x0 DUP1 REVERT JUMPDEST POP JUMP JUMPDEST PUSH1 0x0 DUP2 MLOAD SWAP1 POP PUSH2 0x1580 DUP2 PUSH2 0x155A JUMP JUMPDEST SWAP3 SWAP2 POP POP JUMP JUMPDEST PUSH1 0x0 PUSH1 0x20 DUP3 DUP5 SUB SLT ISZERO PUSH2 0x159C JUMPI PUSH2 0x159B PUSH2 0x109F JUMP JUMPDEST JUMPDEST PUSH1 0x0 PUSH2 0x15AA DUP5 DUP3 DUP6 ADD PUSH2 0x1571 JUMP JUMPDEST SWAP2 POP POP SWAP3 SWAP2 POP POP JUMP JUMPDEST PUSH1 0x0 PUSH2 0x15BE DUP3 PUSH2 0x154A JUMP JUMPDEST SWAP2 POP PUSH2 0x15C9 DUP4 PUSH2 0x154A JUMP JUMPDEST SWAP3 POP DUP3 DUP3 ADD SWAP1 POP PUSH4 0xFFFFFFFF DUP2 GT ISZERO PUSH2 0x15E5 JUMPI PUSH2 0x15E4 PUSH2 0x14D3 JUMP JUMPDEST JUMPDEST SWAP3 SWAP2 POP POP JUMP JUMPDEST PUSH32 0x4E487B7100000000000000000000000000000000000000000000000000000000 PUSH1 0x0 MSTORE PUSH1 0x12 PUSH1 0x4 MSTORE PUSH1 0x24 PUSH1 0x0 REVERT JUMPDEST PUSH1 0x0 PUSH2 0x1625 DUP3 PUSH2 0x154A JUMP JUMPDEST SWAP2 POP PUSH2 0x1630 DUP4 PUSH2 0x154A JUMP JUMPDEST SWAP3 POP DUP3 PUSH2 0x1640 JUMPI PUSH2 0x163F PUSH2 0x15EB JUMP JUMPDEST JUMPDEST DUP3 DUP3 DIV SWAP1 POP SWAP3 SWAP2 POP POP JUMP JUMPDEST PUSH1 0x0 PUSH2 0x1656 DUP3 PUSH2 0x10A4 JUMP JUMPDEST SWAP2 POP PUSH2 0x1661 DUP4 PUSH2 0x10A4 JUMP JUMPDEST SWAP3 POP DUP3 DUP3 MUL PUSH2 0x166F DUP2 PUSH2 0x10A4 JUMP JUMPDEST SWAP2 POP DUP3 DUP3 DIV DUP5 EQ DUP4 ISZERO OR PUSH2 0x1686 JUMPI PUSH2 0x1685 PUSH2 0x14D3 JUMP JUMPDEST JUMPDEST POP SWAP3 SWAP2 POP POP JUMP JUMPDEST PUSH1 0x0 PUSH2 0x1698 DUP3 PUSH2 0x10A4 JUMP JUMPDEST SWAP2 POP PUSH2 0x16A3 DUP4 PUSH2 0x10A4 JUMP JUMPDEST SWAP3 POP DUP3 DUP3 ADD SWAP1 POP DUP1 DUP3 GT ISZERO PUSH2 0x16BB JUMPI PUSH2 0x16BA PUSH2 0x14D3 JUMP JUMPDEST JUMPDEST SWAP3 SWAP2 POP POP JUMP JUMPDEST PUSH2 0x16CA DUP2 PUSH2 0x1131 JUMP JUMPDEST DUP3 MSTORE POP POP JUMP JUMPDEST PUSH1 0x0 PUSH1 0x40 DUP3 ADD SWAP1 POP PUSH2 0x16E5 PUSH1 0x0 DUP4 ADD DUP6 PUSH2 0x12ED JUMP JUMPDEST PUSH2 0x16F2 PUSH1 0x20 DUP4 ADD DUP5 PUSH2 0x16C1 JUMP JUMPDEST SWAP4 SWAP3 POP POP POP JUMP JUMPDEST PUSH1 0x0 DUP2 SWAP1 POP SWAP2 SWAP1 POP JUMP JUMPDEST PUSH1 0x0 PUSH2 0x171E PUSH2 0x1719 PUSH2 0x1714 DUP5 PUSH2 0x1131 JUMP JUMPDEST PUSH2 0x16F9 JUMP JUMPDEST PUSH2 0x10A4 JUMP JUMPDEST SWAP1 POP SWAP2 SWAP1 POP JUMP JUMPDEST PUSH2 0x172E DUP2 PUSH2 0x1703 JUMP JUMPDEST DUP3 MSTORE POP POP JUMP JUMPDEST PUSH1 0x0 PUSH1 0x60 DUP3 ADD SWAP1 POP PUSH2 0x1749 PUSH1 0x0 DUP4 ADD DUP7 PUSH2 0x12ED JUMP JUMPDEST PUSH2 0x1756 PUSH1 0x20 DUP4 ADD DUP6 PUSH2 0x1725 JUMP JUMPDEST PUSH2 0x1763 PUSH1 0x40 DUP4 ADD DUP5 PUSH2 0x16C1 JUMP JUMPDEST SWAP5 SWAP4 POP POP POP POP JUMP JUMPDEST PUSH1 0x0 DUP2 MLOAD SWAP1 POP PUSH2 0x177A DUP2 PUSH2 0x10AE JUMP JUMPDEST SWAP3 SWAP2 POP POP JUMP JUMPDEST PUSH1 0x0 PUSH1 0x20 DUP3 DUP5 SUB SLT ISZERO PUSH2 0x1796 JUMPI PUSH2 0x1795 PUSH2 0x109F JUMP JUMPDEST JUMPDEST PUSH1 0x0 PUSH2 0x17A4 DUP5 DUP3 DUP6 ADD PUSH2 0x176B JUMP JUMPDEST SWAP2 POP POP SWAP3 SWAP2 POP POP JUMP JUMPDEST PUSH1 0x0 DUP2 SWAP1 POP SWAP2 SWAP1 POP JUMP JUMPDEST PUSH1 0x0 PUSH2 0x17D2 PUSH2 0x17CD PUSH2 0x17C8 DUP5 PUSH2 0x17AD JUMP JUMPDEST PUSH2 0x16F9 JUMP JUMPDEST PUSH2 0x1131 JUMP JUMPDEST SWAP1 POP SWAP2 SWAP1 POP JUMP JUMPDEST PUSH2 0x17E2 DUP2 PUSH2 0x17B7 JUMP JUMPDEST DUP3 MSTORE POP POP JUMP JUMPDEST PUSH1 0x0 PUSH1 0x60 DUP3 ADD SWAP1 POP PUSH2 0x17FD PUSH1 0x0 DUP4 ADD DUP7 PUSH2 0x12ED JUMP JUMPDEST PUSH2 0x180A PUSH1 0x20 DUP4 ADD DUP6 PUSH2 0x1725 JUMP JUMPDEST PUSH2 0x1817 PUSH1 0x40 DUP4 ADD DUP5 PUSH2 0x17D9 JUMP JUMPDEST SWAP5 SWAP4 POP POP POP POP JUMP JUMPDEST PUSH1 0x0 PUSH2 0x182A DUP3 PUSH2 0x1131 JUMP JUMPDEST SWAP2 POP PUSH1 0xFF DUP3 SUB PUSH2 0x183D JUMPI PUSH2 0x183C PUSH2 0x14D3 JUMP JUMPDEST JUMPDEST PUSH1 0x1 DUP3 ADD SWAP1 POP SWAP2 SWAP1 POP JUMP JUMPDEST PUSH1 0x0 PUSH2 0x1853 DUP3 PUSH2 0x1131 JUMP JUMPDEST SWAP2 POP PUSH2 0x185E DUP4 PUSH2 0x1131 JUMP JUMPDEST SWAP3 POP DUP3 DUP3 SUB SWAP1 POP PUSH1 0xFF DUP2 GT ISZERO PUSH2 0x1877 JUMPI PUSH2 0x1876 PUSH2 0x14D3 JUMP JUMPDEST JUMPDEST SWAP3 SWAP2 POP POP JUMP JUMPDEST PUSH2 0x1886 DUP2 PUSH2 0x154A JUMP JUMPDEST DUP3 MSTORE POP POP JUMP JUMPDEST PUSH1 0x0 PUSH1 0x40 DUP3 ADD SWAP1 POP PUSH2 0x18A1 PUSH1 0x0 DUP4 ADD DUP6 PUSH2 0x12ED JUMP JUMPDEST PUSH2 0x18AE PUSH1 0x20 DUP4 ADD DUP5 PUSH2 0x187D JUMP JUMPDEST SWAP4 SWAP3 POP POP POP JUMP JUMPDEST PUSH1 0x0 PUSH1 0x40 DUP3 ADD SWAP1 POP PUSH2 0x18CA PUSH1 0x0 DUP4 ADD DUP6 PUSH2 0x12ED JUMP JUMPDEST PUSH2 0x18D7 PUSH1 0x20 DUP4 ADD DUP5 PUSH2 0x17D9 JUMP JUMPDEST SWAP4 SWAP3 POP POP POP JUMP JUMPDEST PUSH32 0x4F776E61626C653A206E6577206F776E657220697320746865207A65726F2061 PUSH1 0x0 DUP3 ADD MSTORE PUSH32 0x6464726573730000000000000000000000000000000000000000000000000000 PUSH1 0x20 DUP3 ADD MSTORE POP JUMP JUMPDEST PUSH1 0x0 PUSH2 0x193A PUSH1 0x26 DUP4 PUSH2 0x1359 JUMP JUMPDEST SWAP2 POP PUSH2 0x1945 DUP3 PUSH2 0x18DE JUMP JUMPDEST PUSH1 0x40 DUP3 ADD SWAP1 POP SWAP2 SWAP1 POP JUMP JUMPDEST PUSH1 0x0 PUSH1 0x20 DUP3 ADD SWAP1 POP DUP2 DUP2 SUB PUSH1 0x0 DUP4 ADD MSTORE PUSH2 0x1969 DUP2 PUSH2 0x192D JUMP JUMPDEST SWAP1 POP SWAP2 SWAP1 POP JUMP JUMPDEST PUSH32 0x4F776E61626C653A2063616C6C6572206973206E6F7420746865206F776E6572 PUSH1 0x0 DUP3 ADD MSTORE POP JUMP JUMPDEST PUSH1 0x0 PUSH2 0x19A6 PUSH1 0x20 DUP4 PUSH2 0x1359 JUMP JUMPDEST SWAP2 POP PUSH2 0x19B1 DUP3 PUSH2 0x1970 JUMP JUMPDEST PUSH1 0x20 DUP3 ADD SWAP1 POP SWAP2 SWAP1 POP JUMP JUMPDEST PUSH1 0x0 PUSH1 0x20 DUP3 ADD SWAP1 POP DUP2 DUP2 SUB PUSH1 0x0 DUP4 ADD MSTORE PUSH2 0x19D5 DUP2 PUSH2 0x1999 JUMP JUMPDEST SWAP1 POP SWAP2 SWAP1 POP JUMP JUMPDEST PUSH1 0x0 PUSH2 0x19E7 DUP3 PUSH2 0x10A4 JUMP JUMPDEST SWAP2 POP PUSH2 0x19F2 DUP4 PUSH2 0x10A4 JUMP JUMPDEST SWAP3 POP DUP3 DUP3 SUB SWAP1 POP DUP2 DUP2 GT ISZERO PUSH2 0x1A0A JUMPI PUSH2 0x1A09 PUSH2 0x14D3 JUMP JUMPDEST JUMPDEST SWAP3 SWAP2 POP POP JUMP JUMPDEST PUSH1 0x0 PUSH2 0x1A1B DUP3 PUSH2 0x10A4 JUMP JUMPDEST SWAP2 POP PUSH2 0x1A26 DUP4 PUSH2 0x10A4 JUMP JUMPDEST SWAP3 POP DUP3 PUSH2 0x1A36 JUMPI PUSH2 0x1A35 PUSH2 0x15EB JUMP JUMPDEST JUMPDEST DUP3 DUP3 DIV SWAP1 POP SWAP3 SWAP2 POP POP JUMP JUMPDEST PUSH1 0x0 PUSH2 0x1A4D DUP3 DUP6 PUSH2 0x13E0 JUMP JUMPDEST PUSH1 0x20 DUP3 ADD SWAP2 POP PUSH2 0x1A5D DUP3 DUP5 PUSH2 0x13E0 JUMP JUMPDEST PUSH1 0x20 DUP3 ADD SWAP2 POP DUP2 SWAP1 POP SWAP4 SWAP3 POP POP POP JUMP JUMPDEST PUSH1 0x0 PUSH2 0x1A78 DUP3 PUSH2 0x10A4 JUMP JUMPDEST SWAP2 POP PUSH2 0x1A83 DUP4 PUSH2 0x10A4 JUMP JUMPDEST SWAP3 POP DUP3 PUSH2 0x1A93 JUMPI PUSH2 0x1A92 PUSH2 0x15EB JUMP JUMPDEST JUMPDEST DUP3 DUP3 MOD SWAP1 POP SWAP3 SWAP2 POP POP JUMP INVALID LOG2 PUSH5 0x6970667358 0x22 SLT KECCAK256 0x5D DUP4 0xE6 0x2D EQ 0xBA KECCAK256 0xC7 SELFDESTRUCT SWAP1 0xAF MLOAD 0xCE 0xD1 EQ SWAP4 DUP4 CREATE2 CALLVALUE 0xB1 0xC0 0xE5 0xE8 MOD 0xDF XOR 0x2F BYTE 0xE9 0xAE 0xD6 DUP8 PUSH5 0x736F6C6343 STOP ADDMOD SLT STOP CALLER "
				},
				"gasEstimates": {
					"creation": {
						"codeDepositCost": "1373600",
						"executionCost": "infinite",
						"totalCost": "infinite"
					},
					"external": {
						"breading(uint256,uint256)": "infinite",
						"getBreedingPrice()": "2618",
						"getGlobalSeed()": "2548",
						"getMaxArcane()": "2482",
						"getMaxId()": "2504",
						"getMinArcane()": "2460",
						"getMinId()": "2525",
						"getRandomPercent()": "2459",
						"owner()": "2545",
						"renounceOwnership()": "30465",
						"setBreedingPrice(uint8)": "27082",
						"setGlobalSeed(uint256)": "24808",
						"setMaxArcane(uint256)": "24874",
						"setMaxId(uint256)": "24852",
						"setMinArcane(uint256)": "24829",
						"setMinId(uint256)": "24828",
						"setRandomPercent(uint256)": "24830",
						"transferOwnership(address)": "30854"
					},
					"internal": {
						"getArcanePercent(uint256,uint256,uint256,uint256)": "infinite",
						"random(uint256,uint256,uint256,uint256)": "infinite"
					}
				},
				"methodIdentifiers": {
					"breading(uint256,uint256)": "e4a13fb7",
					"getBreedingPrice()": "772121fe",
					"getGlobalSeed()": "878cf3a6",
					"getMaxArcane()": "615ebe28",
					"getMaxId()": "d477a712",
					"getMinArcane()": "32099cc4",
					"getMinId()": "eb4b0e51",
					"getRandomPercent()": "e238b8c6",
					"owner()": "8da5cb5b",
					"renounceOwnership()": "715018a6",
					"setBreedingPrice(uint8)": "de405b18",
					"setGlobalSeed(uint256)": "02aff378",
					"setMaxArcane(uint256)": "1bb39f84",
					"setMaxId(uint256)": "16bd8646",
					"setMinArcane(uint256)": "91b66725",
					"setMinId(uint256)": "e2e3a0db",
					"setRandomPercent(uint256)": "054fee6a",
					"transferOwnership(address)": "f2fde38b"
				}
			},
			"storageLayout": {
				"storage": [
					{
						"astId": 7,
						"contract": "contracts/breedings/Breeding.sol:Breading",
						"label": "_owner",
						"offset": 0,
						"slot": "0",
						"type": "t_address"
					},
					{
						"astId": 149,
						"contract": "contracts/breedings/Breeding.sol:Breading",
						"label": "_breedingChargePrice",
						"offset": 20,
						"slot": "0",
						"type": "t_uint8"
					},
					{
						"astId": 152,
						"contract": "contracts/breedings/Breeding.sol:Breading",
						"label": "_globalSeed",
						"offset": 0,
						"slot": "1",
						"type": "t_uint256"
					},
					{
						"astId": 155,
						"contract": "contracts/breedings/Breeding.sol:Breading",
						"label": "_randomPercent",
						"offset": 0,
						"slot": "2",
						"type": "t_uint256"
					},
					{
						"astId": 158,
						"contract": "contracts/breedings/Breeding.sol:Breading",
						"label": "_minArcane",
						"offset": 0,
						"slot": "3",
						"type": "t_uint256"
					},
					{
						"astId": 161,
						"contract": "contracts/breedings/Breeding.sol:Breading",
						"label": "_maxArcane",
						"offset": 0,
						"slot": "4",
						"type": "t_uint256"
					},
					{
						"astId": 164,
						"contract": "contracts/breedings/Breeding.sol:Breading",
						"label": "_minId",
						"offset": 0,
						"slot": "5",
						"type": "t_uint256"
					},
					{
						"astId": 167,
						"contract": "contracts/breedings/Breeding.sol:Breading",
						"label": "_maxId",
						"offset": 0,
						"slot": "6",
						"type": "t_uint256"
					}
				],
				"types": {
					"t_address": {
						"encoding": "inplace",
						"label": "address",
						"numberOfBytes": "20"
					},
					"t_uint256": {
						"encoding": "inplace",
						"label": "uint256",
						"numberOfBytes": "32"
					},
					"t_uint8": {
						"encoding": "inplace",
						"label": "uint8",
						"numberOfBytes": "1"
					}
				}
			},
			"userdoc": {
				"kind": "user",
				"methods": {},
				"version": 1
			}
		}
	}
}