{
	"contracts/breedings/Breeding.sol": {
		"Breeding": {
			"abi": [
				{
					"anonymous": false,
					"inputs": [
						{
							"indexed": true,
							"internalType": "address",
							"name": "previousOwner",
							"type": "address"
						},
						{
							"indexed": true,
							"internalType": "address",
							"name": "newOwner",
							"type": "address"
						}
					],
					"name": "OwnershipTransferred",
					"type": "event"
				},
				{
					"inputs": [
						{
							"internalType": "uint256",
							"name": "momIn",
							"type": "uint256"
						},
						{
							"internalType": "uint256",
							"name": "dadIn",
							"type": "uint256"
						}
					],
					"name": "breading",
					"outputs": [
						{
							"internalType": "uint256",
							"name": "momOut",
							"type": "uint256"
						},
						{
							"internalType": "uint256",
							"name": "dadOut",
							"type": "uint256"
						},
						{
							"internalType": "uint256",
							"name": "genes",
							"type": "uint256"
						}
					],
					"stateMutability": "nonpayable",
					"type": "function"
				},
				{
					"inputs": [],
					"name": "getBreedingChargePrice",
					"outputs": [
						{
							"internalType": "uint8",
							"name": "",
							"type": "uint8"
						}
					],
					"stateMutability": "view",
					"type": "function"
				},
				{
					"inputs": [],
					"name": "getGlobalSeed",
					"outputs": [
						{
							"internalType": "uint256",
							"name": "",
							"type": "uint256"
						}
					],
					"stateMutability": "view",
					"type": "function"
				},
				{
					"inputs": [],
					"name": "getMaxArcane",
					"outputs": [
						{
							"internalType": "uint256",
							"name": "",
							"type": "uint256"
						}
					],
					"stateMutability": "view",
					"type": "function"
				},
				{
					"inputs": [],
					"name": "getMaxId",
					"outputs": [
						{
							"internalType": "uint256",
							"name": "",
							"type": "uint256"
						}
					],
					"stateMutability": "view",
					"type": "function"
				},
				{
					"inputs": [],
					"name": "getMinArcane",
					"outputs": [
						{
							"internalType": "uint256",
							"name": "",
							"type": "uint256"
						}
					],
					"stateMutability": "view",
					"type": "function"
				},
				{
					"inputs": [],
					"name": "getMinId",
					"outputs": [
						{
							"internalType": "uint256",
							"name": "",
							"type": "uint256"
						}
					],
					"stateMutability": "view",
					"type": "function"
				},
				{
					"inputs": [],
					"name": "getRandomPercent",
					"outputs": [
						{
							"internalType": "uint256",
							"name": "",
							"type": "uint256"
						}
					],
					"stateMutability": "view",
					"type": "function"
				},
				{
					"inputs": [],
					"name": "owner",
					"outputs": [
						{
							"internalType": "address",
							"name": "",
							"type": "address"
						}
					],
					"stateMutability": "view",
					"type": "function"
				},
				{
					"inputs": [],
					"name": "renounceOwnership",
					"outputs": [],
					"stateMutability": "nonpayable",
					"type": "function"
				},
				{
					"inputs": [
						{
							"internalType": "uint8",
							"name": "price",
							"type": "uint8"
						}
					],
					"name": "setBreedingChargePrice",
					"outputs": [],
					"stateMutability": "nonpayable",
					"type": "function"
				},
				{
					"inputs": [
						{
							"internalType": "uint256",
							"name": "value",
							"type": "uint256"
						}
					],
					"name": "setGlobalSeed",
					"outputs": [],
					"stateMutability": "nonpayable",
					"type": "function"
				},
				{
					"inputs": [
						{
							"internalType": "uint256",
							"name": "value",
							"type": "uint256"
						}
					],
					"name": "setMaxArcane",
					"outputs": [],
					"stateMutability": "nonpayable",
					"type": "function"
				},
				{
					"inputs": [
						{
							"internalType": "uint256",
							"name": "value",
							"type": "uint256"
						}
					],
					"name": "setMaxId",
					"outputs": [],
					"stateMutability": "nonpayable",
					"type": "function"
				},
				{
					"inputs": [
						{
							"internalType": "uint256",
							"name": "value",
							"type": "uint256"
						}
					],
					"name": "setMinArcane",
					"outputs": [],
					"stateMutability": "nonpayable",
					"type": "function"
				},
				{
					"inputs": [
						{
							"internalType": "uint256",
							"name": "value",
							"type": "uint256"
						}
					],
					"name": "setMinId",
					"outputs": [],
					"stateMutability": "nonpayable",
					"type": "function"
				},
				{
					"inputs": [
						{
							"internalType": "uint256",
							"name": "value",
							"type": "uint256"
						}
					],
					"name": "setRandomPercent",
					"outputs": [],
					"stateMutability": "nonpayable",
					"type": "function"
				},
				{
					"inputs": [
						{
							"internalType": "address",
							"name": "newOwner",
							"type": "address"
						}
					],
					"name": "transferOwnership",
					"outputs": [],
					"stateMutability": "nonpayable",
					"type": "function"
				}
			],
			"devdoc": {
				"kind": "dev",
				"methods": {
					"breading(uint256,uint256)": {
						"details": "given genes of token 1 & 2, return a genetic combination - may have a random factor",
						"params": {
							"dadIn": "genes of dad",
							"momIn": "genes of mom"
						},
						"returns": {
							"dadOut": "modify dad genes",
							"genes": "the genes that are supposed to be passed down the child",
							"momOut": "modify mom genes"
						}
					},
					"owner()": {
						"details": "Returns the address of the current owner."
					},
					"renounceOwnership()": {
						"details": "Leaves the contract without owner. It will not be possible to call `onlyOwner` functions anymore. Can only be called by the current owner. NOTE: Renouncing ownership will leave the contract without an owner, thereby removing any functionality that is only available to the owner."
					},
					"transferOwnership(address)": {
						"details": "Transfers ownership of the contract to a new account (`newOwner`). Can only be called by the current owner."
					}
				},
				"version": 1
			},
			"evm": {
				"assembly": "    /* \"contracts/breedings/Breeding.sol\":194:6890  contract Breeding is Ownable, IBreeding {... */\n  mstore(0x40, 0x80)\n    /* \"contracts/breedings/Breeding.sol\":546:547  0 */\n  0x00\n    /* \"contracts/breedings/Breeding.sol\":509:547  uint8 private _breedingChargePrice = 0 */\n  0x00\n  exp(0x0100, 0x14)\n  dup2\n  sload\n  dup2\n  0xff\n  mul\n  not\n  and\n  swap1\n  dup4\n  0xff\n  and\n  mul\n  or\n  swap1\n  sstore\n  pop\n    /* \"contracts/breedings/Breeding.sol\":583:584  1 */\n  0x01\n    /* \"contracts/breedings/Breeding.sol\":553:584  uint256 private _globalSeed = 1 */\n  dup1\n  sstore\n    /* \"contracts/breedings/Breeding.sol\":623:624  5 */\n  0x05\n    /* \"contracts/breedings/Breeding.sol\":590:624  uint256 private _randomPercent = 5 */\n  0x02\n  sstore\n    /* \"contracts/breedings/Breeding.sol\":659:660  1 */\n  0x01\n    /* \"contracts/breedings/Breeding.sol\":630:660  uint256 private _minArcane = 1 */\n  0x03\n  sstore\n    /* \"contracts/breedings/Breeding.sol\":695:697  30 */\n  0x1e\n    /* \"contracts/breedings/Breeding.sol\":666:697  uint256 private _maxArcane = 30 */\n  0x04\n  sstore\n    /* \"contracts/breedings/Breeding.sol\":728:729  1 */\n  0x01\n    /* \"contracts/breedings/Breeding.sol\":703:729  uint256 private _minId = 1 */\n  0x05\n  sstore\n    /* \"contracts/breedings/Breeding.sol\":760:762  36 */\n  0x24\n    /* \"contracts/breedings/Breeding.sol\":735:762  uint256 private _maxId = 36 */\n  0x06\n  sstore\n    /* \"contracts/breedings/Breeding.sol\":194:6890  contract Breeding is Ownable, IBreeding {... */\n  callvalue\n  dup1\n  iszero\n  tag_1\n  jumpi\n  revert(0x00, 0x00)\ntag_1:\n  pop\n    /* \"@openzeppelin/contracts/access/Ownable.sol\":936:968  _transferOwnership(_msgSender()) */\n  tag_4\n    /* \"@openzeppelin/contracts/access/Ownable.sol\":955:967  _msgSender() */\n  tag_5\n    /* \"@openzeppelin/contracts/access/Ownable.sol\":955:965  _msgSender */\n  shl(0x20, tag_6)\n    /* \"@openzeppelin/contracts/access/Ownable.sol\":955:967  _msgSender() */\n  0x20\n  shr\n  jump\t// in\ntag_5:\n    /* \"@openzeppelin/contracts/access/Ownable.sol\":936:954  _transferOwnership */\n  shl(0x20, tag_7)\n    /* \"@openzeppelin/contracts/access/Ownable.sol\":936:968  _transferOwnership(_msgSender()) */\n  0x20\n  shr\n  jump\t// in\ntag_4:\n    /* \"contracts/breedings/Breeding.sol\":194:6890  contract Breeding is Ownable, IBreeding {... */\n  jump(tag_8)\n    /* \"@openzeppelin/contracts/utils/Context.sol\":640:736  function _msgSender() internal view virtual returns (address) {... */\ntag_6:\n    /* \"@openzeppelin/contracts/utils/Context.sol\":693:700  address */\n  0x00\n    /* \"@openzeppelin/contracts/utils/Context.sol\":719:729  msg.sender */\n  caller\n    /* \"@openzeppelin/contracts/utils/Context.sol\":712:729  return msg.sender */\n  swap1\n  pop\n    /* \"@openzeppelin/contracts/utils/Context.sol\":640:736  function _msgSender() internal view virtual returns (address) {... */\n  swap1\n  jump\t// out\n    /* \"@openzeppelin/contracts/access/Ownable.sol\":2433:2620  function _transferOwnership(address newOwner) internal virtual {... */\ntag_7:\n    /* \"@openzeppelin/contracts/access/Ownable.sol\":2506:2522  address oldOwner */\n  0x00\n    /* \"@openzeppelin/contracts/access/Ownable.sol\":2525:2531  _owner */\n  0x00\n  0x00\n  swap1\n  sload\n  swap1\n  0x0100\n  exp\n  swap1\n  div\n  0xffffffffffffffffffffffffffffffffffffffff\n  and\n    /* \"@openzeppelin/contracts/access/Ownable.sol\":2506:2531  address oldOwner = _owner */\n  swap1\n  pop\n    /* \"@openzeppelin/contracts/access/Ownable.sol\":2550:2558  newOwner */\n  dup2\n    /* \"@openzeppelin/contracts/access/Ownable.sol\":2541:2547  _owner */\n  0x00\n  0x00\n    /* \"@openzeppelin/contracts/access/Ownable.sol\":2541:2558  _owner = newOwner */\n  0x0100\n  exp\n  dup2\n  sload\n  dup2\n  0xffffffffffffffffffffffffffffffffffffffff\n  mul\n  not\n  and\n  swap1\n  dup4\n  0xffffffffffffffffffffffffffffffffffffffff\n  and\n  mul\n  or\n  swap1\n  sstore\n  pop\n    /* \"@openzeppelin/contracts/access/Ownable.sol\":2604:2612  newOwner */\n  dup2\n    /* \"@openzeppelin/contracts/access/Ownable.sol\":2573:2613  OwnershipTransferred(oldOwner, newOwner) */\n  0xffffffffffffffffffffffffffffffffffffffff\n  and\n    /* \"@openzeppelin/contracts/access/Ownable.sol\":2594:2602  oldOwner */\n  dup2\n    /* \"@openzeppelin/contracts/access/Ownable.sol\":2573:2613  OwnershipTransferred(oldOwner, newOwner) */\n  0xffffffffffffffffffffffffffffffffffffffff\n  and\n  0x8be0079c531659141344cd1fd0a4f28419497f9722a3daafe3b4186f6b6457e0\n  mload(0x40)\n  mload(0x40)\n  dup1\n  swap2\n  sub\n  swap1\n  log3\n    /* \"@openzeppelin/contracts/access/Ownable.sol\":2496:2620  {... */\n  pop\n    /* \"@openzeppelin/contracts/access/Ownable.sol\":2433:2620  function _transferOwnership(address newOwner) internal virtual {... */\n  pop\n  jump\t// out\n    /* \"contracts/breedings/Breeding.sol\":194:6890  contract Breeding is Ownable, IBreeding {... */\ntag_8:\n  dataSize(sub_0)\n  dup1\n  dataOffset(sub_0)\n  0x00\n  codecopy\n  0x00\n  return\nstop\n\nsub_0: assembly {\n        /* \"contracts/breedings/Breeding.sol\":194:6890  contract Breeding is Ownable, IBreeding {... */\n      mstore(0x40, 0x80)\n      callvalue\n      dup1\n      iszero\n      tag_1\n      jumpi\n      revert(0x00, 0x00)\n    tag_1:\n      pop\n      jumpi(tag_2, lt(calldatasize, 0x04))\n      shr(0xe0, calldataload(0x00))\n      dup1\n      0x8da5cb5b\n      gt\n      tag_21\n      jumpi\n      dup1\n      0xe238b8c6\n      gt\n      tag_22\n      jumpi\n      dup1\n      0xe238b8c6\n      eq\n      tag_16\n      jumpi\n      dup1\n      0xe2e3a0db\n      eq\n      tag_17\n      jumpi\n      dup1\n      0xe4a13fb7\n      eq\n      tag_18\n      jumpi\n      dup1\n      0xeb4b0e51\n      eq\n      tag_19\n      jumpi\n      dup1\n      0xf2fde38b\n      eq\n      tag_20\n      jumpi\n      jump(tag_2)\n    tag_22:\n      dup1\n      0x8da5cb5b\n      eq\n      tag_12\n      jumpi\n      dup1\n      0x91b66725\n      eq\n      tag_13\n      jumpi\n      dup1\n      0xd477a712\n      eq\n      tag_14\n      jumpi\n      dup1\n      0xd6412cfd\n      eq\n      tag_15\n      jumpi\n      jump(tag_2)\n    tag_21:\n      dup1\n      0x32099cc4\n      gt\n      tag_23\n      jumpi\n      dup1\n      0x32099cc4\n      eq\n      tag_7\n      jumpi\n      dup1\n      0x43aed9dc\n      eq\n      tag_8\n      jumpi\n      dup1\n      0x615ebe28\n      eq\n      tag_9\n      jumpi\n      dup1\n      0x715018a6\n      eq\n      tag_10\n      jumpi\n      dup1\n      0x878cf3a6\n      eq\n      tag_11\n      jumpi\n      jump(tag_2)\n    tag_23:\n      dup1\n      0x02aff378\n      eq\n      tag_3\n      jumpi\n      dup1\n      0x054fee6a\n      eq\n      tag_4\n      jumpi\n      dup1\n      0x16bd8646\n      eq\n      tag_5\n      jumpi\n      dup1\n      0x1bb39f84\n      eq\n      tag_6\n      jumpi\n    tag_2:\n      revert(0x00, 0x00)\n        /* \"contracts/breedings/Breeding.sol\":4217:4308  function setGlobalSeed(uint256 value) public onlyOwner {... */\n    tag_3:\n      tag_24\n      0x04\n      dup1\n      calldatasize\n      sub\n      dup2\n      add\n      swap1\n      tag_25\n      swap2\n      swap1\n      tag_26\n      jump\t// in\n    tag_25:\n      tag_27\n      jump\t// in\n    tag_24:\n      stop\n        /* \"contracts/breedings/Breeding.sol\":5025:5122  function setRandomPercent(uint256 value) public onlyOwner {... */\n    tag_4:\n      tag_28\n      0x04\n      dup1\n      calldatasize\n      sub\n      dup2\n      add\n      swap1\n      tag_29\n      swap2\n      swap1\n      tag_26\n      jump\t// in\n    tag_29:\n      tag_30\n      jump\t// in\n    tag_28:\n      stop\n        /* \"contracts/breedings/Breeding.sol\":5541:5622  function setMaxId(uint256 value) public onlyOwner {... */\n    tag_5:\n      tag_31\n      0x04\n      dup1\n      calldatasize\n      sub\n      dup2\n      add\n      swap1\n      tag_32\n      swap2\n      swap1\n      tag_26\n      jump\t// in\n    tag_32:\n      tag_33\n      jump\t// in\n    tag_31:\n      stop\n        /* \"contracts/breedings/Breeding.sol\":4751:4840  function setMaxArcane(uint256 value) public onlyOwner {... */\n    tag_6:\n      tag_34\n      0x04\n      dup1\n      calldatasize\n      sub\n      dup2\n      add\n      swap1\n      tag_35\n      swap2\n      swap1\n      tag_26\n      jump\t// in\n    tag_35:\n      tag_36\n      jump\t// in\n    tag_34:\n      stop\n        /* \"contracts/breedings/Breeding.sol\":4391:4479  function getMinArcane() public view returns (uint256) {... */\n    tag_7:\n      tag_37\n      tag_38\n      jump\t// in\n    tag_37:\n      mload(0x40)\n      tag_39\n      swap2\n      swap1\n      tag_40\n      jump\t// in\n    tag_39:\n      mload(0x40)\n      dup1\n      swap2\n      sub\n      swap1\n      return\n        /* \"contracts/breedings/Breeding.sol\":5705:5811  function getBreedingChargePrice() public view returns (uint8) {... */\n    tag_8:\n      tag_41\n      tag_42\n      jump\t// in\n    tag_41:\n      mload(0x40)\n      tag_43\n      swap2\n      swap1\n      tag_44\n      jump\t// in\n    tag_43:\n      mload(0x40)\n      dup1\n      swap2\n      sub\n      swap1\n      return\n        /* \"contracts/breedings/Breeding.sol\":4657:4745  function getMaxArcane() public view returns (uint256) {... */\n    tag_9:\n      tag_45\n      tag_46\n      jump\t// in\n    tag_45:\n      mload(0x40)\n      tag_47\n      swap2\n      swap1\n      tag_40\n      jump\t// in\n    tag_47:\n      mload(0x40)\n      dup1\n      swap2\n      sub\n      swap1\n      return\n        /* \"@openzeppelin/contracts/access/Ownable.sol\":1831:1932  function renounceOwnership() public virtual onlyOwner {... */\n    tag_10:\n      tag_48\n      tag_49\n      jump\t// in\n    tag_48:\n      stop\n        /* \"contracts/breedings/Breeding.sol\":4121:4211  function getGlobalSeed() public view returns (uint256) {... */\n    tag_11:\n      tag_50\n      tag_51\n      jump\t// in\n    tag_50:\n      mload(0x40)\n      tag_52\n      swap2\n      swap1\n      tag_40\n      jump\t// in\n    tag_52:\n      mload(0x40)\n      dup1\n      swap2\n      sub\n      swap1\n      return\n        /* \"@openzeppelin/contracts/access/Ownable.sol\":1201:1286  function owner() public view virtual returns (address) {... */\n    tag_12:\n      tag_53\n      tag_54\n      jump\t// in\n    tag_53:\n      mload(0x40)\n      tag_55\n      swap2\n      swap1\n      tag_56\n      jump\t// in\n    tag_55:\n      mload(0x40)\n      dup1\n      swap2\n      sub\n      swap1\n      return\n        /* \"contracts/breedings/Breeding.sol\":4485:4574  function setMinArcane(uint256 value) public onlyOwner {... */\n    tag_13:\n      tag_57\n      0x04\n      dup1\n      calldatasize\n      sub\n      dup2\n      add\n      swap1\n      tag_58\n      swap2\n      swap1\n      tag_26\n      jump\t// in\n    tag_58:\n      tag_59\n      jump\t// in\n    tag_57:\n      stop\n        /* \"contracts/breedings/Breeding.sol\":5455:5535  function getMaxId() public view returns (uint256) {... */\n    tag_14:\n      tag_60\n      tag_61\n      jump\t// in\n    tag_60:\n      mload(0x40)\n      tag_62\n      swap2\n      swap1\n      tag_40\n      jump\t// in\n    tag_62:\n      mload(0x40)\n      dup1\n      swap2\n      sub\n      swap1\n      return\n        /* \"contracts/breedings/Breeding.sol\":5817:5924  function setBreedingChargePrice(uint8 price) public onlyOwner {... */\n    tag_15:\n      tag_63\n      0x04\n      dup1\n      calldatasize\n      sub\n      dup2\n      add\n      swap1\n      tag_64\n      swap2\n      swap1\n      tag_65\n      jump\t// in\n    tag_64:\n      tag_66\n      jump\t// in\n    tag_63:\n      stop\n        /* \"contracts/breedings/Breeding.sol\":4923:5019  function getRandomPercent() public view returns (uint256) {... */\n    tag_16:\n      tag_67\n      tag_68\n      jump\t// in\n    tag_67:\n      mload(0x40)\n      tag_69\n      swap2\n      swap1\n      tag_40\n      jump\t// in\n    tag_69:\n      mload(0x40)\n      dup1\n      swap2\n      sub\n      swap1\n      return\n        /* \"contracts/breedings/Breeding.sol\":5291:5372  function setMinId(uint256 value) public onlyOwner {... */\n    tag_17:\n      tag_70\n      0x04\n      dup1\n      calldatasize\n      sub\n      dup2\n      add\n      swap1\n      tag_71\n      swap2\n      swap1\n      tag_26\n      jump\t// in\n    tag_71:\n      tag_72\n      jump\t// in\n    tag_70:\n      stop\n        /* \"contracts/breedings/Breeding.sol\":769:3945  function breading(uint256 momIn, uint256 dadIn)... */\n    tag_18:\n      tag_73\n      0x04\n      dup1\n      calldatasize\n      sub\n      dup2\n      add\n      swap1\n      tag_74\n      swap2\n      swap1\n      tag_75\n      jump\t// in\n    tag_74:\n      tag_76\n      jump\t// in\n    tag_73:\n      mload(0x40)\n      tag_77\n      swap4\n      swap3\n      swap2\n      swap1\n      tag_78\n      jump\t// in\n    tag_77:\n      mload(0x40)\n      dup1\n      swap2\n      sub\n      swap1\n      return\n        /* \"contracts/breedings/Breeding.sol\":5205:5285  function getMinId() public view returns (uint256) {... */\n    tag_19:\n      tag_79\n      tag_80\n      jump\t// in\n    tag_79:\n      mload(0x40)\n      tag_81\n      swap2\n      swap1\n      tag_40\n      jump\t// in\n    tag_81:\n      mload(0x40)\n      dup1\n      swap2\n      sub\n      swap1\n      return\n        /* \"@openzeppelin/contracts/access/Ownable.sol\":2081:2279  function transferOwnership(address newOwner) public virtual onlyOwner {... */\n    tag_20:\n      tag_82\n      0x04\n      dup1\n      calldatasize\n      sub\n      dup2\n      add\n      swap1\n      tag_83\n      swap2\n      swap1\n      tag_84\n      jump\t// in\n    tag_83:\n      tag_85\n      jump\t// in\n    tag_82:\n      stop\n        /* \"contracts/breedings/Breeding.sol\":4217:4308  function setGlobalSeed(uint256 value) public onlyOwner {... */\n    tag_27:\n        /* \"@openzeppelin/contracts/access/Ownable.sol\":1094:1107  _checkOwner() */\n      tag_87\n        /* \"@openzeppelin/contracts/access/Ownable.sol\":1094:1105  _checkOwner */\n      tag_88\n        /* \"@openzeppelin/contracts/access/Ownable.sol\":1094:1107  _checkOwner() */\n      jump\t// in\n    tag_87:\n        /* \"contracts/breedings/Breeding.sol\":4296:4301  value */\n      dup1\n        /* \"contracts/breedings/Breeding.sol\":4282:4293  _globalSeed */\n      0x01\n        /* \"contracts/breedings/Breeding.sol\":4282:4301  _globalSeed = value */\n      dup2\n      swap1\n      sstore\n      pop\n        /* \"contracts/breedings/Breeding.sol\":4217:4308  function setGlobalSeed(uint256 value) public onlyOwner {... */\n      pop\n      jump\t// out\n        /* \"contracts/breedings/Breeding.sol\":5025:5122  function setRandomPercent(uint256 value) public onlyOwner {... */\n    tag_30:\n        /* \"@openzeppelin/contracts/access/Ownable.sol\":1094:1107  _checkOwner() */\n      tag_91\n        /* \"@openzeppelin/contracts/access/Ownable.sol\":1094:1105  _checkOwner */\n      tag_88\n        /* \"@openzeppelin/contracts/access/Ownable.sol\":1094:1107  _checkOwner() */\n      jump\t// in\n    tag_91:\n        /* \"contracts/breedings/Breeding.sol\":5110:5115  value */\n      dup1\n        /* \"contracts/breedings/Breeding.sol\":5093:5107  _randomPercent */\n      0x02\n        /* \"contracts/breedings/Breeding.sol\":5093:5115  _randomPercent = value */\n      dup2\n      swap1\n      sstore\n      pop\n        /* \"contracts/breedings/Breeding.sol\":5025:5122  function setRandomPercent(uint256 value) public onlyOwner {... */\n      pop\n      jump\t// out\n        /* \"contracts/breedings/Breeding.sol\":5541:5622  function setMaxId(uint256 value) public onlyOwner {... */\n    tag_33:\n        /* \"@openzeppelin/contracts/access/Ownable.sol\":1094:1107  _checkOwner() */\n      tag_94\n        /* \"@openzeppelin/contracts/access/Ownable.sol\":1094:1105  _checkOwner */\n      tag_88\n        /* \"@openzeppelin/contracts/access/Ownable.sol\":1094:1107  _checkOwner() */\n      jump\t// in\n    tag_94:\n        /* \"contracts/breedings/Breeding.sol\":5610:5615  value */\n      dup1\n        /* \"contracts/breedings/Breeding.sol\":5601:5607  _maxId */\n      0x06\n        /* \"contracts/breedings/Breeding.sol\":5601:5615  _maxId = value */\n      dup2\n      swap1\n      sstore\n      pop\n        /* \"contracts/breedings/Breeding.sol\":5541:5622  function setMaxId(uint256 value) public onlyOwner {... */\n      pop\n      jump\t// out\n        /* \"contracts/breedings/Breeding.sol\":4751:4840  function setMaxArcane(uint256 value) public onlyOwner {... */\n    tag_36:\n        /* \"@openzeppelin/contracts/access/Ownable.sol\":1094:1107  _checkOwner() */\n      tag_97\n        /* \"@openzeppelin/contracts/access/Ownable.sol\":1094:1105  _checkOwner */\n      tag_88\n        /* \"@openzeppelin/contracts/access/Ownable.sol\":1094:1107  _checkOwner() */\n      jump\t// in\n    tag_97:\n        /* \"contracts/breedings/Breeding.sol\":4828:4833  value */\n      dup1\n        /* \"contracts/breedings/Breeding.sol\":4815:4825  _maxArcane */\n      0x04\n        /* \"contracts/breedings/Breeding.sol\":4815:4833  _maxArcane = value */\n      dup2\n      swap1\n      sstore\n      pop\n        /* \"contracts/breedings/Breeding.sol\":4751:4840  function setMaxArcane(uint256 value) public onlyOwner {... */\n      pop\n      jump\t// out\n        /* \"contracts/breedings/Breeding.sol\":4391:4479  function getMinArcane() public view returns (uint256) {... */\n    tag_38:\n        /* \"contracts/breedings/Breeding.sol\":4436:4443  uint256 */\n      0x00\n        /* \"contracts/breedings/Breeding.sol\":4462:4472  _minArcane */\n      sload(0x03)\n        /* \"contracts/breedings/Breeding.sol\":4455:4472  return _minArcane */\n      swap1\n      pop\n        /* \"contracts/breedings/Breeding.sol\":4391:4479  function getMinArcane() public view returns (uint256) {... */\n      swap1\n      jump\t// out\n        /* \"contracts/breedings/Breeding.sol\":5705:5811  function getBreedingChargePrice() public view returns (uint8) {... */\n    tag_42:\n        /* \"contracts/breedings/Breeding.sol\":5760:5765  uint8 */\n      0x00\n        /* \"contracts/breedings/Breeding.sol\":5784:5804  _breedingChargePrice */\n      0x00\n      0x14\n      swap1\n      sload\n      swap1\n      0x0100\n      exp\n      swap1\n      div\n      0xff\n      and\n        /* \"contracts/breedings/Breeding.sol\":5777:5804  return _breedingChargePrice */\n      swap1\n      pop\n        /* \"contracts/breedings/Breeding.sol\":5705:5811  function getBreedingChargePrice() public view returns (uint8) {... */\n      swap1\n      jump\t// out\n        /* \"contracts/breedings/Breeding.sol\":4657:4745  function getMaxArcane() public view returns (uint256) {... */\n    tag_46:\n        /* \"contracts/breedings/Breeding.sol\":4702:4709  uint256 */\n      0x00\n        /* \"contracts/breedings/Breeding.sol\":4728:4738  _maxArcane */\n      sload(0x04)\n        /* \"contracts/breedings/Breeding.sol\":4721:4738  return _maxArcane */\n      swap1\n      pop\n        /* \"contracts/breedings/Breeding.sol\":4657:4745  function getMaxArcane() public view returns (uint256) {... */\n      swap1\n      jump\t// out\n        /* \"@openzeppelin/contracts/access/Ownable.sol\":1831:1932  function renounceOwnership() public virtual onlyOwner {... */\n    tag_49:\n        /* \"@openzeppelin/contracts/access/Ownable.sol\":1094:1107  _checkOwner() */\n      tag_103\n        /* \"@openzeppelin/contracts/access/Ownable.sol\":1094:1105  _checkOwner */\n      tag_88\n        /* \"@openzeppelin/contracts/access/Ownable.sol\":1094:1107  _checkOwner() */\n      jump\t// in\n    tag_103:\n        /* \"@openzeppelin/contracts/access/Ownable.sol\":1895:1925  _transferOwnership(address(0)) */\n      tag_105\n        /* \"@openzeppelin/contracts/access/Ownable.sol\":1922:1923  0 */\n      0x00\n        /* \"@openzeppelin/contracts/access/Ownable.sol\":1895:1913  _transferOwnership */\n      tag_106\n        /* \"@openzeppelin/contracts/access/Ownable.sol\":1895:1925  _transferOwnership(address(0)) */\n      jump\t// in\n    tag_105:\n        /* \"@openzeppelin/contracts/access/Ownable.sol\":1831:1932  function renounceOwnership() public virtual onlyOwner {... */\n      jump\t// out\n        /* \"contracts/breedings/Breeding.sol\":4121:4211  function getGlobalSeed() public view returns (uint256) {... */\n    tag_51:\n        /* \"contracts/breedings/Breeding.sol\":4167:4174  uint256 */\n      0x00\n        /* \"contracts/breedings/Breeding.sol\":4193:4204  _globalSeed */\n      sload(0x01)\n        /* \"contracts/breedings/Breeding.sol\":4186:4204  return _globalSeed */\n      swap1\n      pop\n        /* \"contracts/breedings/Breeding.sol\":4121:4211  function getGlobalSeed() public view returns (uint256) {... */\n      swap1\n      jump\t// out\n        /* \"@openzeppelin/contracts/access/Ownable.sol\":1201:1286  function owner() public view virtual returns (address) {... */\n    tag_54:\n        /* \"@openzeppelin/contracts/access/Ownable.sol\":1247:1254  address */\n      0x00\n        /* \"@openzeppelin/contracts/access/Ownable.sol\":1273:1279  _owner */\n      0x00\n      0x00\n      swap1\n      sload\n      swap1\n      0x0100\n      exp\n      swap1\n      div\n      0xffffffffffffffffffffffffffffffffffffffff\n      and\n        /* \"@openzeppelin/contracts/access/Ownable.sol\":1266:1279  return _owner */\n      swap1\n      pop\n        /* \"@openzeppelin/contracts/access/Ownable.sol\":1201:1286  function owner() public view virtual returns (address) {... */\n      swap1\n      jump\t// out\n        /* \"contracts/breedings/Breeding.sol\":4485:4574  function setMinArcane(uint256 value) public onlyOwner {... */\n    tag_59:\n        /* \"@openzeppelin/contracts/access/Ownable.sol\":1094:1107  _checkOwner() */\n      tag_110\n        /* \"@openzeppelin/contracts/access/Ownable.sol\":1094:1105  _checkOwner */\n      tag_88\n        /* \"@openzeppelin/contracts/access/Ownable.sol\":1094:1107  _checkOwner() */\n      jump\t// in\n    tag_110:\n        /* \"contracts/breedings/Breeding.sol\":4562:4567  value */\n      dup1\n        /* \"contracts/breedings/Breeding.sol\":4549:4559  _minArcane */\n      0x03\n        /* \"contracts/breedings/Breeding.sol\":4549:4567  _minArcane = value */\n      dup2\n      swap1\n      sstore\n      pop\n        /* \"contracts/breedings/Breeding.sol\":4485:4574  function setMinArcane(uint256 value) public onlyOwner {... */\n      pop\n      jump\t// out\n        /* \"contracts/breedings/Breeding.sol\":5455:5535  function getMaxId() public view returns (uint256) {... */\n    tag_61:\n        /* \"contracts/breedings/Breeding.sol\":5496:5503  uint256 */\n      0x00\n        /* \"contracts/breedings/Breeding.sol\":5522:5528  _maxId */\n      sload(0x06)\n        /* \"contracts/breedings/Breeding.sol\":5515:5528  return _maxId */\n      swap1\n      pop\n        /* \"contracts/breedings/Breeding.sol\":5455:5535  function getMaxId() public view returns (uint256) {... */\n      swap1\n      jump\t// out\n        /* \"contracts/breedings/Breeding.sol\":5817:5924  function setBreedingChargePrice(uint8 price) public onlyOwner {... */\n    tag_66:\n        /* \"@openzeppelin/contracts/access/Ownable.sol\":1094:1107  _checkOwner() */\n      tag_114\n        /* \"@openzeppelin/contracts/access/Ownable.sol\":1094:1105  _checkOwner */\n      tag_88\n        /* \"@openzeppelin/contracts/access/Ownable.sol\":1094:1107  _checkOwner() */\n      jump\t// in\n    tag_114:\n        /* \"contracts/breedings/Breeding.sol\":5912:5917  price */\n      dup1\n        /* \"contracts/breedings/Breeding.sol\":5889:5909  _breedingChargePrice */\n      0x00\n      0x14\n        /* \"contracts/breedings/Breeding.sol\":5889:5917  _breedingChargePrice = price */\n      0x0100\n      exp\n      dup2\n      sload\n      dup2\n      0xff\n      mul\n      not\n      and\n      swap1\n      dup4\n      0xff\n      and\n      mul\n      or\n      swap1\n      sstore\n      pop\n        /* \"contracts/breedings/Breeding.sol\":5817:5924  function setBreedingChargePrice(uint8 price) public onlyOwner {... */\n      pop\n      jump\t// out\n        /* \"contracts/breedings/Breeding.sol\":4923:5019  function getRandomPercent() public view returns (uint256) {... */\n    tag_68:\n        /* \"contracts/breedings/Breeding.sol\":4972:4979  uint256 */\n      0x00\n        /* \"contracts/breedings/Breeding.sol\":4998:5012  _randomPercent */\n      sload(0x02)\n        /* \"contracts/breedings/Breeding.sol\":4991:5012  return _randomPercent */\n      swap1\n      pop\n        /* \"contracts/breedings/Breeding.sol\":4923:5019  function getRandomPercent() public view returns (uint256) {... */\n      swap1\n      jump\t// out\n        /* \"contracts/breedings/Breeding.sol\":5291:5372  function setMinId(uint256 value) public onlyOwner {... */\n    tag_72:\n        /* \"@openzeppelin/contracts/access/Ownable.sol\":1094:1107  _checkOwner() */\n      tag_118\n        /* \"@openzeppelin/contracts/access/Ownable.sol\":1094:1105  _checkOwner */\n      tag_88\n        /* \"@openzeppelin/contracts/access/Ownable.sol\":1094:1107  _checkOwner() */\n      jump\t// in\n    tag_118:\n        /* \"contracts/breedings/Breeding.sol\":5360:5365  value */\n      dup1\n        /* \"contracts/breedings/Breeding.sol\":5351:5357  _minId */\n      0x05\n        /* \"contracts/breedings/Breeding.sol\":5351:5365  _minId = value */\n      dup2\n      swap1\n      sstore\n      pop\n        /* \"contracts/breedings/Breeding.sol\":5291:5372  function setMinId(uint256 value) public onlyOwner {... */\n      pop\n      jump\t// out\n        /* \"contracts/breedings/Breeding.sol\":769:3945  function breading(uint256 momIn, uint256 dadIn)... */\n    tag_76:\n        /* \"contracts/breedings/Breeding.sol\":882:896  uint256 momOut */\n      0x00\n        /* \"contracts/breedings/Breeding.sol\":910:924  uint256 dadOut */\n      0x00\n        /* \"contracts/breedings/Breeding.sol\":938:951  uint256 genes */\n      0x00\n        /* \"contracts/breedings/Breeding.sol\":1004:1005  0 */\n      0x00\n        /* \"contracts/breedings/Breeding.sol\":980:1000  _breedingChargePrice */\n      0x00\n      0x14\n      swap1\n      sload\n      swap1\n      0x0100\n      exp\n      swap1\n      div\n      0xff\n      and\n        /* \"contracts/breedings/Breeding.sol\":980:1005  _breedingChargePrice != 0 */\n      0xff\n      and\n      eq\n        /* \"contracts/breedings/Breeding.sol\":976:1304  if (_breedingChargePrice != 0) {... */\n      tag_121\n      jumpi\n        /* \"contracts/breedings/Breeding.sol\":1077:1097  _breedingChargePrice */\n      0x00\n      0x14\n      swap1\n      sload\n      swap1\n      0x0100\n      exp\n      swap1\n      div\n      0xff\n      and\n        /* \"contracts/breedings/Breeding.sol\":1046:1097  GenesUtil.getCharges(momIn) >= _breedingChargePrice */\n      0xff\n      and\n        /* \"contracts/breedings/Breeding.sol\":1046:1073  GenesUtil.getCharges(momIn) */\n      tag_122\n        /* \"contracts/breedings/Breeding.sol\":1067:1072  momIn */\n      dup7\n        /* \"contracts/breedings/Breeding.sol\":1046:1066  GenesUtil.getCharges */\n      tag_123\n        /* \"contracts/breedings/Breeding.sol\":1046:1073  GenesUtil.getCharges(momIn) */\n      jump\t// in\n    tag_122:\n        /* \"contracts/breedings/Breeding.sol\":1046:1097  GenesUtil.getCharges(momIn) >= _breedingChargePrice */\n      0xff\n      and\n      lt\n      iszero\n        /* \"contracts/breedings/Breeding.sol\":1021:1150  require(... */\n      tag_124\n      jumpi\n      mload(0x40)\n      0x08c379a000000000000000000000000000000000000000000000000000000000\n      dup2\n      mstore\n      0x04\n      add\n      tag_125\n      swap1\n      tag_126\n      jump\t// in\n    tag_125:\n      mload(0x40)\n      dup1\n      swap2\n      sub\n      swap1\n      revert\n    tag_124:\n        /* \"contracts/breedings/Breeding.sol\":1220:1240  _breedingChargePrice */\n      0x00\n      0x14\n      swap1\n      sload\n      swap1\n      0x0100\n      exp\n      swap1\n      div\n      0xff\n      and\n        /* \"contracts/breedings/Breeding.sol\":1189:1240  GenesUtil.getCharges(dadIn) >= _breedingChargePrice */\n      0xff\n      and\n        /* \"contracts/breedings/Breeding.sol\":1189:1216  GenesUtil.getCharges(dadIn) */\n      tag_127\n        /* \"contracts/breedings/Breeding.sol\":1210:1215  dadIn */\n      dup6\n        /* \"contracts/breedings/Breeding.sol\":1189:1209  GenesUtil.getCharges */\n      tag_123\n        /* \"contracts/breedings/Breeding.sol\":1189:1216  GenesUtil.getCharges(dadIn) */\n      jump\t// in\n    tag_127:\n        /* \"contracts/breedings/Breeding.sol\":1189:1240  GenesUtil.getCharges(dadIn) >= _breedingChargePrice */\n      0xff\n      and\n      lt\n      iszero\n        /* \"contracts/breedings/Breeding.sol\":1164:1293  require(... */\n      tag_128\n      jumpi\n      mload(0x40)\n      0x08c379a000000000000000000000000000000000000000000000000000000000\n      dup2\n      mstore\n      0x04\n      add\n      tag_129\n      swap1\n      tag_126\n      jump\t// in\n    tag_129:\n      mload(0x40)\n      dup1\n      swap2\n      sub\n      swap1\n      revert\n    tag_128:\n        /* \"contracts/breedings/Breeding.sol\":976:1304  if (_breedingChargePrice != 0) {... */\n    tag_121:\n        /* \"contracts/breedings/Breeding.sol\":1314:1332  uint256 randomSeed */\n      0x00\n        /* \"contracts/breedings/Breeding.sol\":1421:1436  block.timestamp */\n      timestamp\n        /* \"contracts/breedings/Breeding.sol\":1458:1470  block.number */\n      number\n        /* \"contracts/breedings/Breeding.sol\":1492:1508  block.difficulty */\n      prevrandao\n        /* \"contracts/breedings/Breeding.sol\":1530:1535  momIn */\n      dup9\n        /* \"contracts/breedings/Breeding.sol\":1557:1562  dadIn */\n      dup9\n        /* \"contracts/breedings/Breeding.sol\":1584:1595  _globalSeed */\n      sload(0x01)\n        /* \"contracts/breedings/Breeding.sol\":1383:1613  abi.encodePacked(... */\n      add(0x20, mload(0x40))\n      tag_130\n      swap7\n      swap6\n      swap5\n      swap4\n      swap3\n      swap2\n      swap1\n      tag_131\n      jump\t// in\n    tag_130:\n      mload(0x40)\n      0x20\n      dup2\n      dup4\n      sub\n      sub\n      dup2\n      mstore\n      swap1\n      0x40\n      mstore\n        /* \"contracts/breedings/Breeding.sol\":1356:1627  keccak256(... */\n      dup1\n      mload\n      swap1\n      0x20\n      add\n      keccak256\n        /* \"contracts/breedings/Breeding.sol\":1335:1637  uint256(... */\n      0x00\n      shr\n        /* \"contracts/breedings/Breeding.sol\":1314:1637  uint256 randomSeed = uint256(... */\n      swap1\n      pop\n        /* \"contracts/breedings/Breeding.sol\":1670:1671  0 */\n      0x00\n        /* \"contracts/breedings/Breeding.sol\":1656:1666  randomSeed */\n      dup2\n        /* \"contracts/breedings/Breeding.sol\":1656:1671  randomSeed != 0 */\n      sub\n        /* \"contracts/breedings/Breeding.sol\":1648:1697  require(randomSeed != 0, \"randomSeed can't be 0\") */\n      tag_132\n      jumpi\n      mload(0x40)\n      0x08c379a000000000000000000000000000000000000000000000000000000000\n      dup2\n      mstore\n      0x04\n      add\n      tag_133\n      swap1\n      tag_134\n      jump\t// in\n    tag_133:\n      mload(0x40)\n      dup1\n      swap2\n      sub\n      swap1\n      revert\n    tag_132:\n        /* \"contracts/breedings/Breeding.sol\":1708:1719  _globalSeed */\n      0x01\n      0x00\n        /* \"contracts/breedings/Breeding.sol\":1708:1721  _globalSeed++ */\n      dup2\n      sload\n      dup1\n      swap3\n      swap2\n      swap1\n      tag_135\n      swap1\n      tag_136\n      jump\t// in\n    tag_135:\n      swap2\n      swap1\n      pop\n      sstore\n      pop\n        /* \"contracts/breedings/Breeding.sol\":1732:1749  uint32 generation */\n      0x00\n        /* \"contracts/breedings/Breeding.sol\":1860:1861  1 */\n      0x01\n        /* \"contracts/breedings/Breeding.sol\":1844:1845  2 */\n      0x02\n        /* \"contracts/breedings/Breeding.sol\":1798:1828  GenesUtil.getGeneration(dadIn) */\n      tag_137\n        /* \"contracts/breedings/Breeding.sol\":1822:1827  dadIn */\n      dup9\n        /* \"contracts/breedings/Breeding.sol\":1798:1821  GenesUtil.getGeneration */\n      tag_138\n        /* \"contracts/breedings/Breeding.sol\":1798:1828  GenesUtil.getGeneration(dadIn) */\n      jump\t// in\n    tag_137:\n        /* \"contracts/breedings/Breeding.sol\":1753:1783  GenesUtil.getGeneration(momIn) */\n      tag_139\n        /* \"contracts/breedings/Breeding.sol\":1777:1782  momIn */\n      dup11\n        /* \"contracts/breedings/Breeding.sol\":1753:1776  GenesUtil.getGeneration */\n      tag_138\n        /* \"contracts/breedings/Breeding.sol\":1753:1783  GenesUtil.getGeneration(momIn) */\n      jump\t// in\n    tag_139:\n        /* \"contracts/breedings/Breeding.sol\":1753:1828  GenesUtil.getGeneration(momIn) +... */\n      tag_140\n      swap2\n      swap1\n      tag_141\n      jump\t// in\n    tag_140:\n        /* \"contracts/breedings/Breeding.sol\":1752:1845  (GenesUtil.getGeneration(momIn) +... */\n      tag_142\n      swap2\n      swap1\n      tag_143\n      jump\t// in\n    tag_142:\n        /* \"contracts/breedings/Breeding.sol\":1752:1861  (GenesUtil.getGeneration(momIn) +... */\n      tag_144\n      swap2\n      swap1\n      tag_141\n      jump\t// in\n    tag_144:\n        /* \"contracts/breedings/Breeding.sol\":1732:1861  uint32 generation = (GenesUtil.getGeneration(momIn) +... */\n      swap1\n      pop\n        /* \"contracts/breedings/Breeding.sol\":1872:1894  uint256 bodyPartsCount */\n      0x00\n        /* \"contracts/breedings/Breeding.sol\":1897:1898  9 */\n      0x09\n        /* \"contracts/breedings/Breeding.sol\":1872:1898  uint256 bodyPartsCount = 9 */\n      swap1\n      pop\n        /* \"contracts/breedings/Breeding.sol\":1908:1927  uint256 randomIndex */\n      0x00\n        /* \"contracts/breedings/Breeding.sol\":1930:1931  0 */\n      0x00\n        /* \"contracts/breedings/Breeding.sol\":1908:1931  uint256 randomIndex = 0 */\n      swap1\n      pop\n        /* \"contracts/breedings/Breeding.sol\":1950:1951  0 */\n      0x00\n        /* \"contracts/breedings/Breeding.sol\":1942:1951  genes = 0 */\n      swap5\n      pop\n        /* \"contracts/breedings/Breeding.sol\":1970:1975  momIn */\n      dup9\n        /* \"contracts/breedings/Breeding.sol\":1961:1975  momOut = momIn */\n      swap7\n      pop\n        /* \"contracts/breedings/Breeding.sol\":1994:1999  dadIn */\n      dup8\n        /* \"contracts/breedings/Breeding.sol\":1985:1999  dadOut = dadIn */\n      swap6\n      pop\n        /* \"contracts/breedings/Breeding.sol\":2050:2069  uint8 bodyPartIndex */\n      0x00\n        /* \"contracts/breedings/Breeding.sol\":2072:2073  0 */\n      0x00\n        /* \"contracts/breedings/Breeding.sol\":2050:2073  uint8 bodyPartIndex = 0 */\n      swap1\n      pop\n        /* \"contracts/breedings/Breeding.sol\":2032:3336  for (... */\n    tag_145:\n        /* \"contracts/breedings/Breeding.sol\":2103:2117  bodyPartsCount */\n      dup3\n        /* \"contracts/breedings/Breeding.sol\":2087:2100  bodyPartIndex */\n      dup2\n        /* \"contracts/breedings/Breeding.sol\":2087:2117  bodyPartIndex < bodyPartsCount */\n      0xff\n      and\n      lt\n        /* \"contracts/breedings/Breeding.sol\":2032:3336  for (... */\n      iszero\n      tag_146\n      jumpi\n        /* \"contracts/breedings/Breeding.sol\":2171:2192  uint256 arcanePercent */\n      0x00\n        /* \"contracts/breedings/Breeding.sol\":2195:2331  getArcanePercent(... */\n      tag_148\n        /* \"contracts/breedings/Breeding.sol\":2229:2239  generation */\n      dup6\n        /* \"contracts/breedings/Breeding.sol\":2195:2331  getArcanePercent(... */\n      0xffffffff\n      and\n        /* \"contracts/breedings/Breeding.sol\":2257:2267  _minArcane */\n      sload(0x03)\n        /* \"contracts/breedings/Breeding.sol\":2285:2295  _maxArcane */\n      sload(0x04)\n        /* \"contracts/breedings/Breeding.sol\":2313:2317  1000 */\n      0x03e8\n        /* \"contracts/breedings/Breeding.sol\":2195:2211  getArcanePercent */\n      tag_149\n        /* \"contracts/breedings/Breeding.sol\":2195:2331  getArcanePercent(... */\n      jump\t// in\n    tag_148:\n        /* \"contracts/breedings/Breeding.sol\":2171:2331  uint256 arcanePercent = getArcanePercent(... */\n      swap1\n      pop\n        /* \"contracts/breedings/Breeding.sol\":2345:2355  bool isArc */\n      0x00\n        /* \"contracts/breedings/Breeding.sol\":2391:2476  random(randomSeed, randomIndex++, 0, ((_maxArcane - _minArcane) * 1000) / _maxArcane) */\n      tag_150\n        /* \"contracts/breedings/Breeding.sol\":2398:2408  randomSeed */\n      dup8\n        /* \"contracts/breedings/Breeding.sol\":2410:2423  randomIndex++ */\n      dup6\n      dup1\n      tag_151\n      swap1\n      tag_136\n      jump\t// in\n    tag_151:\n      swap7\n      pop\n        /* \"contracts/breedings/Breeding.sol\":2425:2426  0 */\n      0x00\n        /* \"contracts/breedings/Breeding.sol\":2465:2475  _maxArcane */\n      sload(0x04)\n        /* \"contracts/breedings/Breeding.sol\":2457:2461  1000 */\n      0x03e8\n        /* \"contracts/breedings/Breeding.sol\":2443:2453  _minArcane */\n      sload(0x03)\n        /* \"contracts/breedings/Breeding.sol\":2430:2440  _maxArcane */\n      sload(0x04)\n        /* \"contracts/breedings/Breeding.sol\":2430:2453  _maxArcane - _minArcane */\n      tag_152\n      swap2\n      swap1\n      tag_153\n      jump\t// in\n    tag_152:\n        /* \"contracts/breedings/Breeding.sol\":2429:2461  (_maxArcane - _minArcane) * 1000 */\n      tag_154\n      swap2\n      swap1\n      tag_155\n      jump\t// in\n    tag_154:\n        /* \"contracts/breedings/Breeding.sol\":2428:2475  ((_maxArcane - _minArcane) * 1000) / _maxArcane */\n      tag_156\n      swap2\n      swap1\n      tag_157\n      jump\t// in\n    tag_156:\n        /* \"contracts/breedings/Breeding.sol\":2391:2397  random */\n      tag_158\n        /* \"contracts/breedings/Breeding.sol\":2391:2476  random(randomSeed, randomIndex++, 0, ((_maxArcane - _minArcane) * 1000) / _maxArcane) */\n      jump\t// in\n    tag_150:\n        /* \"contracts/breedings/Breeding.sol\":2358:2371  arcanePercent */\n      dup3\n        /* \"contracts/breedings/Breeding.sol\":2358:2476  arcanePercent >=... */\n      lt\n      iszero\n        /* \"contracts/breedings/Breeding.sol\":2345:2476  bool isArc = arcanePercent >=... */\n      swap1\n      pop\n        /* \"contracts/breedings/Breeding.sol\":2491:2499  uint8 id */\n      0x00\n        /* \"contracts/breedings/Breeding.sol\":2502:2503  1 */\n      0x01\n        /* \"contracts/breedings/Breeding.sol\":2491:2503  uint8 id = 1 */\n      swap1\n      pop\n        /* \"contracts/breedings/Breeding.sol\":2546:2588  random(randomSeed, randomIndex++, 0, 1000) */\n      tag_159\n        /* \"contracts/breedings/Breeding.sol\":2553:2563  randomSeed */\n      dup9\n        /* \"contracts/breedings/Breeding.sol\":2565:2578  randomIndex++ */\n      dup7\n      dup1\n      tag_160\n      swap1\n      tag_136\n      jump\t// in\n    tag_160:\n      swap8\n      pop\n        /* \"contracts/breedings/Breeding.sol\":2580:2581  0 */\n      0x00\n        /* \"contracts/breedings/Breeding.sol\":2583:2587  1000 */\n      0x03e8\n        /* \"contracts/breedings/Breeding.sol\":2546:2552  random */\n      tag_158\n        /* \"contracts/breedings/Breeding.sol\":2546:2588  random(randomSeed, randomIndex++, 0, 1000) */\n      jump\t// in\n    tag_159:\n        /* \"contracts/breedings/Breeding.sol\":2539:2541  10 */\n      0x0a\n        /* \"contracts/breedings/Breeding.sol\":2522:2536  _randomPercent */\n      sload(0x02)\n        /* \"contracts/breedings/Breeding.sol\":2522:2541  _randomPercent * 10 */\n      tag_161\n      swap2\n      swap1\n      tag_155\n      jump\t// in\n    tag_161:\n        /* \"contracts/breedings/Breeding.sol\":2521:2588  (_randomPercent * 10) >= random(randomSeed, randomIndex++, 0, 1000) */\n      lt\n        /* \"contracts/breedings/Breeding.sol\":2517:3022  if ((_randomPercent * 10) >= random(randomSeed, randomIndex++, 0, 1000)) {... */\n      tag_162\n      jumpi\n        /* \"contracts/breedings/Breeding.sol\":2720:2724  0xFF */\n      0xff\n        /* \"contracts/breedings/Breeding.sol\":2640:2693  random(randomSeed, randomIndex++, _minId, _maxId + 1) */\n      tag_163\n        /* \"contracts/breedings/Breeding.sol\":2647:2657  randomSeed */\n      dup10\n        /* \"contracts/breedings/Breeding.sol\":2659:2672  randomIndex++ */\n      dup8\n      dup1\n      tag_164\n      swap1\n      tag_136\n      jump\t// in\n    tag_164:\n      swap9\n      pop\n        /* \"contracts/breedings/Breeding.sol\":2674:2680  _minId */\n      sload(0x05)\n        /* \"contracts/breedings/Breeding.sol\":2691:2692  1 */\n      0x01\n        /* \"contracts/breedings/Breeding.sol\":2682:2688  _maxId */\n      sload(0x06)\n        /* \"contracts/breedings/Breeding.sol\":2682:2692  _maxId + 1 */\n      tag_165\n      swap2\n      swap1\n      tag_166\n      jump\t// in\n    tag_165:\n        /* \"contracts/breedings/Breeding.sol\":2640:2646  random */\n      tag_158\n        /* \"contracts/breedings/Breeding.sol\":2640:2693  random(randomSeed, randomIndex++, _minId, _maxId + 1) */\n      jump\t// in\n    tag_163:\n        /* \"contracts/breedings/Breeding.sol\":2640:2724  random(randomSeed, randomIndex++, _minId, _maxId + 1) &... */\n      and\n        /* \"contracts/breedings/Breeding.sol\":2608:2742  id = uint8(... */\n      swap1\n      pop\n        /* \"contracts/breedings/Breeding.sol\":2517:3022  if ((_randomPercent * 10) >= random(randomSeed, randomIndex++, 0, 1000)) {... */\n      jump(tag_167)\n    tag_162:\n        /* \"contracts/breedings/Breeding.sol\":2831:2834  500 */\n      0x01f4\n        /* \"contracts/breedings/Breeding.sol\":2785:2827  random(randomSeed, randomIndex++, 0, 1000) */\n      tag_168\n        /* \"contracts/breedings/Breeding.sol\":2792:2802  randomSeed */\n      dup10\n        /* \"contracts/breedings/Breeding.sol\":2804:2817  randomIndex++ */\n      dup8\n      dup1\n      tag_169\n      swap1\n      tag_136\n      jump\t// in\n    tag_169:\n      swap9\n      pop\n        /* \"contracts/breedings/Breeding.sol\":2819:2820  0 */\n      0x00\n        /* \"contracts/breedings/Breeding.sol\":2822:2826  1000 */\n      0x03e8\n        /* \"contracts/breedings/Breeding.sol\":2785:2791  random */\n      tag_158\n        /* \"contracts/breedings/Breeding.sol\":2785:2827  random(randomSeed, randomIndex++, 0, 1000) */\n      jump\t// in\n    tag_168:\n        /* \"contracts/breedings/Breeding.sol\":2785:2834  random(randomSeed, randomIndex++, 0, 1000) >= 500 */\n      lt\n        /* \"contracts/breedings/Breeding.sol\":2781:3008  if (random(randomSeed, randomIndex++, 0, 1000) >= 500) {... */\n      tag_170\n      jumpi\n        /* \"contracts/breedings/Breeding.sol\":2863:2900  GenesUtil.getId(dadIn, bodyPartIndex) */\n      tag_171\n        /* \"contracts/breedings/Breeding.sol\":2879:2884  dadIn */\n      dup13\n        /* \"contracts/breedings/Breeding.sol\":2886:2899  bodyPartIndex */\n      dup6\n        /* \"contracts/breedings/Breeding.sol\":2863:2878  GenesUtil.getId */\n      tag_172\n        /* \"contracts/breedings/Breeding.sol\":2863:2900  GenesUtil.getId(dadIn, bodyPartIndex) */\n      jump\t// in\n    tag_171:\n        /* \"contracts/breedings/Breeding.sol\":2858:2900  id = GenesUtil.getId(dadIn, bodyPartIndex) */\n      swap1\n      pop\n        /* \"contracts/breedings/Breeding.sol\":2781:3008  if (random(randomSeed, randomIndex++, 0, 1000) >= 500) {... */\n      jump(tag_173)\n    tag_170:\n        /* \"contracts/breedings/Breeding.sol\":2952:2989  GenesUtil.getId(momIn, bodyPartIndex) */\n      tag_174\n        /* \"contracts/breedings/Breeding.sol\":2968:2973  momIn */\n      dup14\n        /* \"contracts/breedings/Breeding.sol\":2975:2988  bodyPartIndex */\n      dup6\n        /* \"contracts/breedings/Breeding.sol\":2952:2967  GenesUtil.getId */\n      tag_172\n        /* \"contracts/breedings/Breeding.sol\":2952:2989  GenesUtil.getId(momIn, bodyPartIndex) */\n      jump\t// in\n    tag_174:\n        /* \"contracts/breedings/Breeding.sol\":2947:2989  id = GenesUtil.getId(momIn, bodyPartIndex) */\n      swap1\n      pop\n        /* \"contracts/breedings/Breeding.sol\":2781:3008  if (random(randomSeed, randomIndex++, 0, 1000) >= 500) {... */\n    tag_173:\n        /* \"contracts/breedings/Breeding.sol\":2517:3022  if ((_randomPercent * 10) >= random(randomSeed, randomIndex++, 0, 1000)) {... */\n    tag_167:\n        /* \"contracts/breedings/Breeding.sol\":3050:3056  _minId */\n      sload(0x05)\n        /* \"contracts/breedings/Breeding.sol\":3044:3046  id */\n      dup2\n        /* \"contracts/breedings/Breeding.sol\":3044:3056  id >= _minId */\n      0xff\n      and\n      lt\n      iszero\n        /* \"contracts/breedings/Breeding.sol\":3044:3072  id >= _minId && id <= _maxId */\n      dup1\n      iszero\n      tag_175\n      jumpi\n      pop\n        /* \"contracts/breedings/Breeding.sol\":3066:3072  _maxId */\n      sload(0x06)\n        /* \"contracts/breedings/Breeding.sol\":3060:3062  id */\n      dup2\n        /* \"contracts/breedings/Breeding.sol\":3060:3072  id <= _maxId */\n      0xff\n      and\n      gt\n      iszero\n        /* \"contracts/breedings/Breeding.sol\":3044:3072  id >= _minId && id <= _maxId */\n    tag_175:\n        /* \"contracts/breedings/Breeding.sol\":3036:3118  require(id >= _minId && id <= _maxId, \"error, breading, part id must be in range\") */\n      tag_176\n      jumpi\n      mload(0x40)\n      0x08c379a000000000000000000000000000000000000000000000000000000000\n      dup2\n      mstore\n      0x04\n      add\n      tag_177\n      swap1\n      tag_178\n      jump\t// in\n    tag_177:\n      mload(0x40)\n      dup1\n      swap2\n      sub\n      swap1\n      revert\n    tag_176:\n        /* \"contracts/breedings/Breeding.sol\":3141:3182  GenesUtil.setId(genes, bodyPartIndex, id) */\n      tag_179\n        /* \"contracts/breedings/Breeding.sol\":3157:3162  genes */\n      dup10\n        /* \"contracts/breedings/Breeding.sol\":3164:3177  bodyPartIndex */\n      dup6\n        /* \"contracts/breedings/Breeding.sol\":3141:3182  GenesUtil.setId(genes, bodyPartIndex, id) */\n      0xff\n      and\n        /* \"contracts/breedings/Breeding.sol\":3179:3181  id */\n      dup4\n        /* \"contracts/breedings/Breeding.sol\":3141:3156  GenesUtil.setId */\n      tag_180\n        /* \"contracts/breedings/Breeding.sol\":3141:3182  GenesUtil.setId(genes, bodyPartIndex, id) */\n      jump\t// in\n    tag_179:\n        /* \"contracts/breedings/Breeding.sol\":3133:3182  genes = GenesUtil.setId(genes, bodyPartIndex, id) */\n      swap9\n      pop\n        /* \"contracts/breedings/Breeding.sol\":3204:3247  GenesUtil.setLevel(genes, bodyPartIndex, 1) */\n      tag_181\n        /* \"contracts/breedings/Breeding.sol\":3223:3228  genes */\n      dup10\n        /* \"contracts/breedings/Breeding.sol\":3230:3243  bodyPartIndex */\n      dup6\n        /* \"contracts/breedings/Breeding.sol\":3204:3247  GenesUtil.setLevel(genes, bodyPartIndex, 1) */\n      0xff\n      and\n        /* \"contracts/breedings/Breeding.sol\":3245:3246  1 */\n      0x01\n        /* \"contracts/breedings/Breeding.sol\":3204:3222  GenesUtil.setLevel */\n      tag_182\n        /* \"contracts/breedings/Breeding.sol\":3204:3247  GenesUtil.setLevel(genes, bodyPartIndex, 1) */\n      jump\t// in\n    tag_181:\n        /* \"contracts/breedings/Breeding.sol\":3196:3247  genes = GenesUtil.setLevel(genes, bodyPartIndex, 1) */\n      swap9\n      pop\n        /* \"contracts/breedings/Breeding.sol\":3269:3325  GenesUtil.setArcane(genes, bodyPartIndex, isArc ? 1 : 0) */\n      tag_183\n        /* \"contracts/breedings/Breeding.sol\":3289:3294  genes */\n      dup10\n        /* \"contracts/breedings/Breeding.sol\":3296:3309  bodyPartIndex */\n      dup6\n        /* \"contracts/breedings/Breeding.sol\":3269:3325  GenesUtil.setArcane(genes, bodyPartIndex, isArc ? 1 : 0) */\n      0xff\n      and\n        /* \"contracts/breedings/Breeding.sol\":3311:3316  isArc */\n      dup5\n        /* \"contracts/breedings/Breeding.sol\":3311:3324  isArc ? 1 : 0 */\n      tag_184\n      jumpi\n        /* \"contracts/breedings/Breeding.sol\":3323:3324  0 */\n      0x00\n        /* \"contracts/breedings/Breeding.sol\":3311:3324  isArc ? 1 : 0 */\n      jump(tag_185)\n    tag_184:\n        /* \"contracts/breedings/Breeding.sol\":3319:3320  1 */\n      0x01\n        /* \"contracts/breedings/Breeding.sol\":3311:3324  isArc ? 1 : 0 */\n    tag_185:\n        /* \"contracts/breedings/Breeding.sol\":3269:3288  GenesUtil.setArcane */\n      tag_186\n        /* \"contracts/breedings/Breeding.sol\":3269:3325  GenesUtil.setArcane(genes, bodyPartIndex, isArc ? 1 : 0) */\n      jump\t// in\n    tag_183:\n        /* \"contracts/breedings/Breeding.sol\":3261:3325  genes = GenesUtil.setArcane(genes, bodyPartIndex, isArc ? 1 : 0) */\n      swap9\n      pop\n        /* \"contracts/breedings/Breeding.sol\":2157:3336  {... */\n      pop\n      pop\n      pop\n        /* \"contracts/breedings/Breeding.sol\":2131:2146  bodyPartIndex++ */\n      dup1\n      dup1\n      tag_187\n      swap1\n      tag_188\n      jump\t// in\n    tag_187:\n      swap2\n      pop\n      pop\n        /* \"contracts/breedings/Breeding.sol\":2032:3336  for (... */\n      jump(tag_145)\n    tag_146:\n      pop\n        /* \"contracts/breedings/Breeding.sol\":3374:3375  0 */\n      0x00\n        /* \"contracts/breedings/Breeding.sol\":3350:3370  _breedingChargePrice */\n      0x00\n      0x14\n      swap1\n      sload\n      swap1\n      0x0100\n      exp\n      swap1\n      div\n      0xff\n      and\n        /* \"contracts/breedings/Breeding.sol\":3350:3375  _breedingChargePrice != 0 */\n      0xff\n      and\n      eq\n        /* \"contracts/breedings/Breeding.sol\":3346:3739  if (_breedingChargePrice != 0) {... */\n      tag_189\n      jumpi\n        /* \"contracts/breedings/Breeding.sol\":3427:3552  GenesUtil.setCharges(... */\n      tag_190\n        /* \"contracts/breedings/Breeding.sol\":3465:3470  momIn */\n      dup10\n        /* \"contracts/breedings/Breeding.sol\":3518:3538  _breedingChargePrice */\n      0x00\n      0x14\n      swap1\n      sload\n      swap1\n      0x0100\n      exp\n      swap1\n      div\n      0xff\n      and\n        /* \"contracts/breedings/Breeding.sol\":3488:3515  GenesUtil.getCharges(momIn) */\n      tag_191\n        /* \"contracts/breedings/Breeding.sol\":3509:3514  momIn */\n      dup13\n        /* \"contracts/breedings/Breeding.sol\":3488:3508  GenesUtil.getCharges */\n      tag_123\n        /* \"contracts/breedings/Breeding.sol\":3488:3515  GenesUtil.getCharges(momIn) */\n      jump\t// in\n    tag_191:\n        /* \"contracts/breedings/Breeding.sol\":3488:3538  GenesUtil.getCharges(momIn) - _breedingChargePrice */\n      tag_192\n      swap2\n      swap1\n      tag_193\n      jump\t// in\n    tag_192:\n        /* \"contracts/breedings/Breeding.sol\":3427:3447  GenesUtil.setCharges */\n      tag_194\n        /* \"contracts/breedings/Breeding.sol\":3427:3552  GenesUtil.setCharges(... */\n      jump\t// in\n    tag_190:\n        /* \"contracts/breedings/Breeding.sol\":3418:3552  momOut = GenesUtil.setCharges(... */\n      swap7\n      pop\n        /* \"contracts/breedings/Breeding.sol\":3603:3728  GenesUtil.setCharges(... */\n      tag_195\n        /* \"contracts/breedings/Breeding.sol\":3641:3646  dadIn */\n      dup9\n        /* \"contracts/breedings/Breeding.sol\":3694:3714  _breedingChargePrice */\n      0x00\n      0x14\n      swap1\n      sload\n      swap1\n      0x0100\n      exp\n      swap1\n      div\n      0xff\n      and\n        /* \"contracts/breedings/Breeding.sol\":3664:3691  GenesUtil.getCharges(dadIn) */\n      tag_196\n        /* \"contracts/breedings/Breeding.sol\":3685:3690  dadIn */\n      dup12\n        /* \"contracts/breedings/Breeding.sol\":3664:3684  GenesUtil.getCharges */\n      tag_123\n        /* \"contracts/breedings/Breeding.sol\":3664:3691  GenesUtil.getCharges(dadIn) */\n      jump\t// in\n    tag_196:\n        /* \"contracts/breedings/Breeding.sol\":3664:3714  GenesUtil.getCharges(dadIn) - _breedingChargePrice */\n      tag_197\n      swap2\n      swap1\n      tag_193\n      jump\t// in\n    tag_197:\n        /* \"contracts/breedings/Breeding.sol\":3603:3623  GenesUtil.setCharges */\n      tag_194\n        /* \"contracts/breedings/Breeding.sol\":3603:3728  GenesUtil.setCharges(... */\n      jump\t// in\n    tag_195:\n        /* \"contracts/breedings/Breeding.sol\":3594:3728  dadOut = GenesUtil.setCharges(... */\n      swap6\n      pop\n        /* \"contracts/breedings/Breeding.sol\":3346:3739  if (_breedingChargePrice != 0) {... */\n    tag_189:\n        /* \"contracts/breedings/Breeding.sol\":3783:3825  GenesUtil.setGeneration(genes, generation) */\n      tag_198\n        /* \"contracts/breedings/Breeding.sol\":3807:3812  genes */\n      dup6\n        /* \"contracts/breedings/Breeding.sol\":3814:3824  generation */\n      dup5\n        /* \"contracts/breedings/Breeding.sol\":3783:3806  GenesUtil.setGeneration */\n      tag_199\n        /* \"contracts/breedings/Breeding.sol\":3783:3825  GenesUtil.setGeneration(genes, generation) */\n      jump\t// in\n    tag_198:\n        /* \"contracts/breedings/Breeding.sol\":3775:3825  genes = GenesUtil.setGeneration(genes, generation) */\n      swap5\n      pop\n        /* \"contracts/breedings/Breeding.sol\":3867:3897  GenesUtil.setCharges(genes, 1) */\n      tag_200\n        /* \"contracts/breedings/Breeding.sol\":3888:3893  genes */\n      dup6\n        /* \"contracts/breedings/Breeding.sol\":3895:3896  1 */\n      0x01\n        /* \"contracts/breedings/Breeding.sol\":3867:3887  GenesUtil.setCharges */\n      tag_194\n        /* \"contracts/breedings/Breeding.sol\":3867:3897  GenesUtil.setCharges(genes, 1) */\n      jump\t// in\n    tag_200:\n        /* \"contracts/breedings/Breeding.sol\":3859:3897  genes = GenesUtil.setCharges(genes, 1) */\n      swap5\n      pop\n        /* \"contracts/breedings/Breeding.sol\":3908:3938  return (momOut, dadOut, genes) */\n      pop\n      pop\n      pop\n      pop\n        /* \"contracts/breedings/Breeding.sol\":769:3945  function breading(uint256 momIn, uint256 dadIn)... */\n      swap3\n      pop\n      swap3\n      pop\n      swap3\n      jump\t// out\n        /* \"contracts/breedings/Breeding.sol\":5205:5285  function getMinId() public view returns (uint256) {... */\n    tag_80:\n        /* \"contracts/breedings/Breeding.sol\":5246:5253  uint256 */\n      0x00\n        /* \"contracts/breedings/Breeding.sol\":5272:5278  _minId */\n      sload(0x05)\n        /* \"contracts/breedings/Breeding.sol\":5265:5278  return _minId */\n      swap1\n      pop\n        /* \"contracts/breedings/Breeding.sol\":5205:5285  function getMinId() public view returns (uint256) {... */\n      swap1\n      jump\t// out\n        /* \"@openzeppelin/contracts/access/Ownable.sol\":2081:2279  function transferOwnership(address newOwner) public virtual onlyOwner {... */\n    tag_85:\n        /* \"@openzeppelin/contracts/access/Ownable.sol\":1094:1107  _checkOwner() */\n      tag_203\n        /* \"@openzeppelin/contracts/access/Ownable.sol\":1094:1105  _checkOwner */\n      tag_88\n        /* \"@openzeppelin/contracts/access/Ownable.sol\":1094:1107  _checkOwner() */\n      jump\t// in\n    tag_203:\n        /* \"@openzeppelin/contracts/access/Ownable.sol\":2189:2190  0 */\n      0x00\n        /* \"@openzeppelin/contracts/access/Ownable.sol\":2169:2191  newOwner != address(0) */\n      0xffffffffffffffffffffffffffffffffffffffff\n      and\n        /* \"@openzeppelin/contracts/access/Ownable.sol\":2169:2177  newOwner */\n      dup2\n        /* \"@openzeppelin/contracts/access/Ownable.sol\":2169:2191  newOwner != address(0) */\n      0xffffffffffffffffffffffffffffffffffffffff\n      and\n      sub\n        /* \"@openzeppelin/contracts/access/Ownable.sol\":2161:2234  require(newOwner != address(0), \"Ownable: new owner is the zero address\") */\n      tag_205\n      jumpi\n      mload(0x40)\n      0x08c379a000000000000000000000000000000000000000000000000000000000\n      dup2\n      mstore\n      0x04\n      add\n      tag_206\n      swap1\n      tag_207\n      jump\t// in\n    tag_206:\n      mload(0x40)\n      dup1\n      swap2\n      sub\n      swap1\n      revert\n    tag_205:\n        /* \"@openzeppelin/contracts/access/Ownable.sol\":2244:2272  _transferOwnership(newOwner) */\n      tag_208\n        /* \"@openzeppelin/contracts/access/Ownable.sol\":2263:2271  newOwner */\n      dup2\n        /* \"@openzeppelin/contracts/access/Ownable.sol\":2244:2262  _transferOwnership */\n      tag_106\n        /* \"@openzeppelin/contracts/access/Ownable.sol\":2244:2272  _transferOwnership(newOwner) */\n      jump\t// in\n    tag_208:\n        /* \"@openzeppelin/contracts/access/Ownable.sol\":2081:2279  function transferOwnership(address newOwner) public virtual onlyOwner {... */\n      pop\n      jump\t// out\n        /* \"@openzeppelin/contracts/access/Ownable.sol\":1359:1489  function _checkOwner() internal view virtual {... */\n    tag_88:\n        /* \"@openzeppelin/contracts/access/Ownable.sol\":1433:1445  _msgSender() */\n      tag_210\n        /* \"@openzeppelin/contracts/access/Ownable.sol\":1433:1443  _msgSender */\n      tag_211\n        /* \"@openzeppelin/contracts/access/Ownable.sol\":1433:1445  _msgSender() */\n      jump\t// in\n    tag_210:\n        /* \"@openzeppelin/contracts/access/Ownable.sol\":1422:1445  owner() == _msgSender() */\n      0xffffffffffffffffffffffffffffffffffffffff\n      and\n        /* \"@openzeppelin/contracts/access/Ownable.sol\":1422:1429  owner() */\n      tag_212\n        /* \"@openzeppelin/contracts/access/Ownable.sol\":1422:1427  owner */\n      tag_54\n        /* \"@openzeppelin/contracts/access/Ownable.sol\":1422:1429  owner() */\n      jump\t// in\n    tag_212:\n        /* \"@openzeppelin/contracts/access/Ownable.sol\":1422:1445  owner() == _msgSender() */\n      0xffffffffffffffffffffffffffffffffffffffff\n      and\n      eq\n        /* \"@openzeppelin/contracts/access/Ownable.sol\":1414:1482  require(owner() == _msgSender(), \"Ownable: caller is not the owner\") */\n      tag_213\n      jumpi\n      mload(0x40)\n      0x08c379a000000000000000000000000000000000000000000000000000000000\n      dup2\n      mstore\n      0x04\n      add\n      tag_214\n      swap1\n      tag_215\n      jump\t// in\n    tag_214:\n      mload(0x40)\n      dup1\n      swap2\n      sub\n      swap1\n      revert\n    tag_213:\n        /* \"@openzeppelin/contracts/access/Ownable.sol\":1359:1489  function _checkOwner() internal view virtual {... */\n      jump\t// out\n        /* \"@openzeppelin/contracts/access/Ownable.sol\":2433:2620  function _transferOwnership(address newOwner) internal virtual {... */\n    tag_106:\n        /* \"@openzeppelin/contracts/access/Ownable.sol\":2506:2522  address oldOwner */\n      0x00\n        /* \"@openzeppelin/contracts/access/Ownable.sol\":2525:2531  _owner */\n      0x00\n      0x00\n      swap1\n      sload\n      swap1\n      0x0100\n      exp\n      swap1\n      div\n      0xffffffffffffffffffffffffffffffffffffffff\n      and\n        /* \"@openzeppelin/contracts/access/Ownable.sol\":2506:2531  address oldOwner = _owner */\n      swap1\n      pop\n        /* \"@openzeppelin/contracts/access/Ownable.sol\":2550:2558  newOwner */\n      dup2\n        /* \"@openzeppelin/contracts/access/Ownable.sol\":2541:2547  _owner */\n      0x00\n      0x00\n        /* \"@openzeppelin/contracts/access/Ownable.sol\":2541:2558  _owner = newOwner */\n      0x0100\n      exp\n      dup2\n      sload\n      dup2\n      0xffffffffffffffffffffffffffffffffffffffff\n      mul\n      not\n      and\n      swap1\n      dup4\n      0xffffffffffffffffffffffffffffffffffffffff\n      and\n      mul\n      or\n      swap1\n      sstore\n      pop\n        /* \"@openzeppelin/contracts/access/Ownable.sol\":2604:2612  newOwner */\n      dup2\n        /* \"@openzeppelin/contracts/access/Ownable.sol\":2573:2613  OwnershipTransferred(oldOwner, newOwner) */\n      0xffffffffffffffffffffffffffffffffffffffff\n      and\n        /* \"@openzeppelin/contracts/access/Ownable.sol\":2594:2602  oldOwner */\n      dup2\n        /* \"@openzeppelin/contracts/access/Ownable.sol\":2573:2613  OwnershipTransferred(oldOwner, newOwner) */\n      0xffffffffffffffffffffffffffffffffffffffff\n      and\n      0x8be0079c531659141344cd1fd0a4f28419497f9722a3daafe3b4186f6b6457e0\n      mload(0x40)\n      mload(0x40)\n      dup1\n      swap2\n      sub\n      swap1\n      log3\n        /* \"@openzeppelin/contracts/access/Ownable.sol\":2496:2620  {... */\n      pop\n        /* \"@openzeppelin/contracts/access/Ownable.sol\":2433:2620  function _transferOwnership(address newOwner) internal virtual {... */\n      pop\n      jump\t// out\n        /* \"contracts/common/GenesUtil.sol\":262:420  function getCharges(uint256 genes) internal pure returns (uint8) {... */\n    tag_123:\n        /* \"contracts/common/GenesUtil.sol\":320:325  uint8 */\n      0x00\n        /* \"contracts/common/GenesUtil.sol\":398:402  0xFF */\n      0xff\n        /* \"contracts/common/GenesUtil.sol\":387:393  31 * 8 */\n      0xf8\n        /* \"contracts/common/GenesUtil.sol\":377:382  genes */\n      dup4\n        /* \"contracts/common/GenesUtil.sol\":377:394  genes >> (31 * 8) */\n      swap1\n      shr\n        /* \"contracts/common/GenesUtil.sol\":376:402  (genes >> (31 * 8)) & 0xFF */\n      and\n        /* \"contracts/common/GenesUtil.sol\":361:403  return (uint8)((genes >> (31 * 8)) & 0xFF) */\n      swap1\n      pop\n        /* \"contracts/common/GenesUtil.sol\":262:420  function getCharges(uint256 genes) internal pure returns (uint8) {... */\n      swap2\n      swap1\n      pop\n      jump\t// out\n        /* \"contracts/common/GenesUtil.sol\":101:256  function getGeneration(uint256 genes) internal pure returns (uint32) {... */\n    tag_138:\n        /* \"contracts/common/GenesUtil.sol\":162:168  uint32 */\n      0x00\n        /* \"contracts/common/GenesUtil.sol\":228:238  0xFFFFFFFF */\n      0xffffffff\n        /* \"contracts/common/GenesUtil.sol\":220:225  genes */\n      dup3\n        /* \"contracts/common/GenesUtil.sol\":220:238  genes & 0xFFFFFFFF */\n      and\n        /* \"contracts/common/GenesUtil.sol\":204:239  return (uint32)(genes & 0xFFFFFFFF) */\n      swap1\n      pop\n        /* \"contracts/common/GenesUtil.sol\":101:256  function getGeneration(uint256 genes) internal pure returns (uint32) {... */\n      swap2\n      swap1\n      pop\n      jump\t// out\n        /* \"contracts/breedings/Breeding.sol\":6610:6888  function getArcanePercent(... */\n    tag_149:\n        /* \"contracts/breedings/Breeding.sol\":6757:6764  uint256 */\n      0x00\n        /* \"contracts/breedings/Breeding.sol\":6794:6797  min */\n      dup4\n        /* \"contracts/breedings/Breeding.sol\":6780:6790  generation */\n      dup6\n        /* \"contracts/breedings/Breeding.sol\":6780:6797  generation <= min */\n      gt\n        /* \"contracts/breedings/Breeding.sol\":6776:6832  if (generation <= min) {... */\n      tag_220\n      jumpi\n        /* \"contracts/breedings/Breeding.sol\":6820:6821  0 */\n      0x00\n        /* \"contracts/breedings/Breeding.sol\":6813:6821  return 0 */\n      swap1\n      pop\n      jump(tag_219)\n        /* \"contracts/breedings/Breeding.sol\":6776:6832  if (generation <= min) {... */\n    tag_220:\n        /* \"contracts/breedings/Breeding.sol\":6878:6881  max */\n      dup3\n        /* \"contracts/breedings/Breeding.sol\":6870:6874  mult */\n      dup3\n        /* \"contracts/breedings/Breeding.sol\":6863:6866  min */\n      dup6\n        /* \"contracts/breedings/Breeding.sol\":6850:6860  generation */\n      dup8\n        /* \"contracts/breedings/Breeding.sol\":6850:6866  generation - min */\n      tag_221\n      swap2\n      swap1\n      tag_153\n      jump\t// in\n    tag_221:\n        /* \"contracts/breedings/Breeding.sol\":6849:6874  (generation - min) * mult */\n      tag_222\n      swap2\n      swap1\n      tag_155\n      jump\t// in\n    tag_222:\n        /* \"contracts/breedings/Breeding.sol\":6848:6881  ((generation - min) * mult) / max */\n      tag_223\n      swap2\n      swap1\n      tag_157\n      jump\t// in\n    tag_223:\n        /* \"contracts/breedings/Breeding.sol\":6841:6881  return ((generation - min) * mult) / max */\n      swap1\n      pop\n        /* \"contracts/breedings/Breeding.sol\":6610:6888  function getArcanePercent(... */\n    tag_219:\n      swap5\n      swap4\n      pop\n      pop\n      pop\n      pop\n      jump\t// out\n        /* \"contracts/breedings/Breeding.sol\":6097:6437  function random(... */\n    tag_158:\n        /* \"contracts/breedings/Breeding.sol\":6241:6254  uint256 value */\n      0x00\n        /* \"contracts/breedings/Breeding.sol\":6363:6372  minNumber */\n      dup3\n        /* \"contracts/breedings/Breeding.sol\":6351:6360  maxNumber */\n      dup3\n        /* \"contracts/breedings/Breeding.sol\":6351:6372  maxNumber - minNumber */\n      tag_225\n      swap2\n      swap1\n      tag_153\n      jump\t// in\n    tag_225:\n        /* \"contracts/breedings/Breeding.sol\":6321:6325  seed */\n      dup6\n        /* \"contracts/breedings/Breeding.sol\":6327:6332  index */\n      dup6\n        /* \"contracts/breedings/Breeding.sol\":6304:6333  abi.encodePacked(seed, index) */\n      add(0x20, mload(0x40))\n      tag_226\n      swap3\n      swap2\n      swap1\n      tag_227\n      jump\t// in\n    tag_226:\n      mload(0x40)\n      0x20\n      dup2\n      dup4\n      sub\n      sub\n      dup2\n      mstore\n      swap1\n      0x40\n      mstore\n        /* \"contracts/breedings/Breeding.sol\":6294:6334  keccak256(abi.encodePacked(seed, index)) */\n      dup1\n      mload\n      swap1\n      0x20\n      add\n      keccak256\n        /* \"contracts/breedings/Breeding.sol\":6286:6335  uint256(keccak256(abi.encodePacked(seed, index))) */\n      0x00\n      shr\n        /* \"contracts/breedings/Breeding.sol\":6286:6373  uint256(keccak256(abi.encodePacked(seed, index))) %... */\n      tag_228\n      swap2\n      swap1\n      tag_229\n      jump\t// in\n    tag_228:\n        /* \"contracts/breedings/Breeding.sol\":6266:6373  value =... */\n      swap1\n      pop\n        /* \"contracts/breedings/Breeding.sol\":6403:6408  value */\n      dup1\n        /* \"contracts/breedings/Breeding.sol\":6391:6400  minNumber */\n      dup4\n        /* \"contracts/breedings/Breeding.sol\":6391:6408  minNumber + value */\n      tag_230\n      swap2\n      swap1\n      tag_166\n      jump\t// in\n    tag_230:\n        /* \"contracts/breedings/Breeding.sol\":6383:6408  value = minNumber + value */\n      swap1\n      pop\n        /* \"contracts/breedings/Breeding.sol\":6097:6437  function random(... */\n      swap5\n      swap4\n      pop\n      pop\n      pop\n      pop\n      jump\t// out\n        /* \"contracts/common/GenesUtil.sol\":797:1020  function getId(uint256 genes, uint8 partId) internal pure returns (uint8) {... */\n    tag_172:\n        /* \"contracts/common/GenesUtil.sol\":864:869  uint8 */\n      0x00\n        /* \"contracts/common/GenesUtil.sol\":881:899  uint256 startIndex */\n      0x00\n        /* \"contracts/common/GenesUtil.sol\":902:903  4 */\n      0x04\n        /* \"contracts/common/GenesUtil.sol\":881:903  uint256 startIndex = 4 */\n      swap1\n      pop\n        /* \"contracts/common/GenesUtil.sol\":913:926  uint256 index */\n      0x00\n        /* \"contracts/common/GenesUtil.sol\":938:939  3 */\n      0x03\n        /* \"contracts/common/GenesUtil.sol\":929:935  partId */\n      dup5\n        /* \"contracts/common/GenesUtil.sol\":929:939  partId * 3 */\n      tag_232\n      swap2\n      swap1\n      tag_233\n      jump\t// in\n    tag_232:\n        /* \"contracts/common/GenesUtil.sol\":913:939  uint256 index = partId * 3 */\n      0xff\n      and\n      swap1\n      pop\n        /* \"contracts/common/GenesUtil.sol\":1008:1012  0xFF */\n      0xff\n        /* \"contracts/common/GenesUtil.sol\":1002:1003  8 */\n      0x08\n        /* \"contracts/common/GenesUtil.sol\":997:998  0 */\n      0x00\n        /* \"contracts/common/GenesUtil.sol\":989:994  index */\n      dup4\n        /* \"contracts/common/GenesUtil.sol\":976:986  startIndex */\n      dup6\n        /* \"contracts/common/GenesUtil.sol\":976:994  startIndex + index */\n      tag_234\n      swap2\n      swap1\n      tag_166\n      jump\t// in\n    tag_234:\n        /* \"contracts/common/GenesUtil.sol\":976:998  startIndex + index + 0 */\n      tag_235\n      swap2\n      swap1\n      tag_166\n      jump\t// in\n    tag_235:\n        /* \"contracts/common/GenesUtil.sol\":975:1003  (startIndex + index + 0) * 8 */\n      tag_236\n      swap2\n      swap1\n      tag_155\n      jump\t// in\n    tag_236:\n        /* \"contracts/common/GenesUtil.sol\":965:970  genes */\n      dup7\n        /* \"contracts/common/GenesUtil.sol\":965:1004  genes >> ((startIndex + index + 0) * 8) */\n      swap1\n      shr\n        /* \"contracts/common/GenesUtil.sol\":964:1012  (genes >> ((startIndex + index + 0) * 8)) & 0xFF */\n      and\n        /* \"contracts/common/GenesUtil.sol\":949:1013  return (uint8)((genes >> ((startIndex + index + 0) * 8)) & 0xFF) */\n      swap3\n      pop\n      pop\n      pop\n        /* \"contracts/common/GenesUtil.sol\":797:1020  function getId(uint256 genes, uint8 partId) internal pure returns (uint8) {... */\n      swap3\n      swap2\n      pop\n      pop\n      jump\t// out\n        /* \"contracts/common/GenesUtil.sol\":1026:1400  function setId(... */\n    tag_180:\n        /* \"contracts/common/GenesUtil.sol\":1135:1142  uint256 */\n      0x00\n        /* \"contracts/common/GenesUtil.sol\":1154:1172  uint256 startIndex */\n      0x00\n        /* \"contracts/common/GenesUtil.sol\":1175:1176  4 */\n      0x04\n        /* \"contracts/common/GenesUtil.sol\":1154:1176  uint256 startIndex = 4 */\n      swap1\n      pop\n        /* \"contracts/common/GenesUtil.sol\":1186:1199  uint256 index */\n      0x00\n        /* \"contracts/common/GenesUtil.sol\":1211:1212  3 */\n      0x03\n        /* \"contracts/common/GenesUtil.sol\":1202:1208  partId */\n      dup6\n        /* \"contracts/common/GenesUtil.sol\":1202:1212  partId * 3 */\n      tag_238\n      swap2\n      swap1\n      tag_155\n      jump\t// in\n    tag_238:\n        /* \"contracts/common/GenesUtil.sol\":1186:1212  uint256 index = partId * 3 */\n      swap1\n      pop\n        /* \"contracts/common/GenesUtil.sol\":1222:1235  uint256 shift */\n      0x00\n        /* \"contracts/common/GenesUtil.sol\":1265:1266  8 */\n      0x08\n        /* \"contracts/common/GenesUtil.sol\":1260:1261  0 */\n      0x00\n        /* \"contracts/common/GenesUtil.sol\":1252:1257  index */\n      dup4\n        /* \"contracts/common/GenesUtil.sol\":1239:1249  startIndex */\n      dup6\n        /* \"contracts/common/GenesUtil.sol\":1239:1257  startIndex + index */\n      tag_239\n      swap2\n      swap1\n      tag_166\n      jump\t// in\n    tag_239:\n        /* \"contracts/common/GenesUtil.sol\":1239:1261  startIndex + index + 0 */\n      tag_240\n      swap2\n      swap1\n      tag_166\n      jump\t// in\n    tag_240:\n        /* \"contracts/common/GenesUtil.sol\":1238:1266  (startIndex + index + 0) * 8 */\n      tag_241\n      swap2\n      swap1\n      tag_155\n      jump\t// in\n    tag_241:\n        /* \"contracts/common/GenesUtil.sol\":1222:1266  uint256 shift = (startIndex + index + 0) * 8 */\n      swap1\n      pop\n        /* \"contracts/common/GenesUtil.sol\":1340:1345  shift */\n      dup1\n        /* \"contracts/common/GenesUtil.sol\":1332:1336  0xFF */\n      0xff\n        /* \"contracts/common/GenesUtil.sol\":1332:1345  0xFF << shift */\n      swap1\n      shl\n        /* \"contracts/common/GenesUtil.sol\":1330:1346  ~(0xFF << shift) */\n      not\n        /* \"contracts/common/GenesUtil.sol\":1322:1327  genes */\n      dup8\n        /* \"contracts/common/GenesUtil.sol\":1322:1346  genes & ~(0xFF << shift) */\n      and\n        /* \"contracts/common/GenesUtil.sol\":1314:1346  genes = genes & ~(0xFF << shift) */\n      swap7\n      pop\n        /* \"contracts/common/GenesUtil.sol\":1387:1392  shift */\n      dup1\n        /* \"contracts/common/GenesUtil.sol\":1380:1382  id */\n      dup6\n        /* \"contracts/common/GenesUtil.sol\":1372:1383  uint256(id) */\n      0xff\n      and\n        /* \"contracts/common/GenesUtil.sol\":1372:1392  uint256(id) << shift */\n      swap1\n      shl\n        /* \"contracts/common/GenesUtil.sol\":1363:1368  genes */\n      dup8\n        /* \"contracts/common/GenesUtil.sol\":1363:1393  genes | (uint256(id) << shift) */\n      or\n        /* \"contracts/common/GenesUtil.sol\":1356:1393  return genes | (uint256(id) << shift) */\n      swap4\n      pop\n      pop\n      pop\n      pop\n        /* \"contracts/common/GenesUtil.sol\":1026:1400  function setId(... */\n      swap4\n      swap3\n      pop\n      pop\n      pop\n      jump\t// out\n        /* \"contracts/common/GenesUtil.sol\":1638:2021  function setLevel(... */\n    tag_182:\n        /* \"contracts/common/GenesUtil.sol\":1753:1760  uint256 */\n      0x00\n        /* \"contracts/common/GenesUtil.sol\":1772:1790  uint256 startIndex */\n      0x00\n        /* \"contracts/common/GenesUtil.sol\":1793:1794  4 */\n      0x04\n        /* \"contracts/common/GenesUtil.sol\":1772:1794  uint256 startIndex = 4 */\n      swap1\n      pop\n        /* \"contracts/common/GenesUtil.sol\":1804:1817  uint256 index */\n      0x00\n        /* \"contracts/common/GenesUtil.sol\":1829:1830  3 */\n      0x03\n        /* \"contracts/common/GenesUtil.sol\":1820:1826  partId */\n      dup6\n        /* \"contracts/common/GenesUtil.sol\":1820:1830  partId * 3 */\n      tag_243\n      swap2\n      swap1\n      tag_155\n      jump\t// in\n    tag_243:\n        /* \"contracts/common/GenesUtil.sol\":1804:1830  uint256 index = partId * 3 */\n      swap1\n      pop\n        /* \"contracts/common/GenesUtil.sol\":1840:1853  uint256 shift */\n      0x00\n        /* \"contracts/common/GenesUtil.sol\":1883:1884  8 */\n      0x08\n        /* \"contracts/common/GenesUtil.sol\":1878:1879  1 */\n      0x01\n        /* \"contracts/common/GenesUtil.sol\":1870:1875  index */\n      dup4\n        /* \"contracts/common/GenesUtil.sol\":1857:1867  startIndex */\n      dup6\n        /* \"contracts/common/GenesUtil.sol\":1857:1875  startIndex + index */\n      tag_244\n      swap2\n      swap1\n      tag_166\n      jump\t// in\n    tag_244:\n        /* \"contracts/common/GenesUtil.sol\":1857:1879  startIndex + index + 1 */\n      tag_245\n      swap2\n      swap1\n      tag_166\n      jump\t// in\n    tag_245:\n        /* \"contracts/common/GenesUtil.sol\":1856:1884  (startIndex + index + 1) * 8 */\n      tag_246\n      swap2\n      swap1\n      tag_155\n      jump\t// in\n    tag_246:\n        /* \"contracts/common/GenesUtil.sol\":1840:1884  uint256 shift = (startIndex + index + 1) * 8 */\n      swap1\n      pop\n        /* \"contracts/common/GenesUtil.sol\":1958:1963  shift */\n      dup1\n        /* \"contracts/common/GenesUtil.sol\":1950:1954  0xFF */\n      0xff\n        /* \"contracts/common/GenesUtil.sol\":1950:1963  0xFF << shift */\n      swap1\n      shl\n        /* \"contracts/common/GenesUtil.sol\":1948:1964  ~(0xFF << shift) */\n      not\n        /* \"contracts/common/GenesUtil.sol\":1940:1945  genes */\n      dup8\n        /* \"contracts/common/GenesUtil.sol\":1940:1964  genes & ~(0xFF << shift) */\n      and\n        /* \"contracts/common/GenesUtil.sol\":1932:1964  genes = genes & ~(0xFF << shift) */\n      swap7\n      pop\n        /* \"contracts/common/GenesUtil.sol\":2008:2013  shift */\n      dup1\n        /* \"contracts/common/GenesUtil.sol\":1998:2003  level */\n      dup6\n        /* \"contracts/common/GenesUtil.sol\":1990:2004  uint256(level) */\n      0xff\n      and\n        /* \"contracts/common/GenesUtil.sol\":1990:2013  uint256(level) << shift */\n      swap1\n      shl\n        /* \"contracts/common/GenesUtil.sol\":1981:1986  genes */\n      dup8\n        /* \"contracts/common/GenesUtil.sol\":1981:2014  genes | (uint256(level) << shift) */\n      or\n        /* \"contracts/common/GenesUtil.sol\":1974:2014  return genes | (uint256(level) << shift) */\n      swap4\n      pop\n      pop\n      pop\n      pop\n        /* \"contracts/common/GenesUtil.sol\":1638:2021  function setLevel(... */\n      swap4\n      swap3\n      pop\n      pop\n      pop\n      jump\t// out\n        /* \"contracts/common/GenesUtil.sol\":2288:2674  function setArcane(... */\n    tag_186:\n        /* \"contracts/common/GenesUtil.sol\":2405:2412  uint256 */\n      0x00\n        /* \"contracts/common/GenesUtil.sol\":2424:2442  uint256 startIndex */\n      0x00\n        /* \"contracts/common/GenesUtil.sol\":2445:2446  4 */\n      0x04\n        /* \"contracts/common/GenesUtil.sol\":2424:2446  uint256 startIndex = 4 */\n      swap1\n      pop\n        /* \"contracts/common/GenesUtil.sol\":2456:2469  uint256 index */\n      0x00\n        /* \"contracts/common/GenesUtil.sol\":2481:2482  3 */\n      0x03\n        /* \"contracts/common/GenesUtil.sol\":2472:2478  partId */\n      dup6\n        /* \"contracts/common/GenesUtil.sol\":2472:2482  partId * 3 */\n      tag_248\n      swap2\n      swap1\n      tag_155\n      jump\t// in\n    tag_248:\n        /* \"contracts/common/GenesUtil.sol\":2456:2482  uint256 index = partId * 3 */\n      swap1\n      pop\n        /* \"contracts/common/GenesUtil.sol\":2492:2505  uint256 shift */\n      0x00\n        /* \"contracts/common/GenesUtil.sol\":2535:2536  8 */\n      0x08\n        /* \"contracts/common/GenesUtil.sol\":2530:2531  2 */\n      0x02\n        /* \"contracts/common/GenesUtil.sol\":2522:2527  index */\n      dup4\n        /* \"contracts/common/GenesUtil.sol\":2509:2519  startIndex */\n      dup6\n        /* \"contracts/common/GenesUtil.sol\":2509:2527  startIndex + index */\n      tag_249\n      swap2\n      swap1\n      tag_166\n      jump\t// in\n    tag_249:\n        /* \"contracts/common/GenesUtil.sol\":2509:2531  startIndex + index + 2 */\n      tag_250\n      swap2\n      swap1\n      tag_166\n      jump\t// in\n    tag_250:\n        /* \"contracts/common/GenesUtil.sol\":2508:2536  (startIndex + index + 2) * 8 */\n      tag_251\n      swap2\n      swap1\n      tag_155\n      jump\t// in\n    tag_251:\n        /* \"contracts/common/GenesUtil.sol\":2492:2536  uint256 shift = (startIndex + index + 2) * 8 */\n      swap1\n      pop\n        /* \"contracts/common/GenesUtil.sol\":2610:2615  shift */\n      dup1\n        /* \"contracts/common/GenesUtil.sol\":2602:2606  0xFF */\n      0xff\n        /* \"contracts/common/GenesUtil.sol\":2602:2615  0xFF << shift */\n      swap1\n      shl\n        /* \"contracts/common/GenesUtil.sol\":2600:2616  ~(0xFF << shift) */\n      not\n        /* \"contracts/common/GenesUtil.sol\":2592:2597  genes */\n      dup8\n        /* \"contracts/common/GenesUtil.sol\":2592:2616  genes & ~(0xFF << shift) */\n      and\n        /* \"contracts/common/GenesUtil.sol\":2584:2616  genes = genes & ~(0xFF << shift) */\n      swap7\n      pop\n        /* \"contracts/common/GenesUtil.sol\":2661:2666  shift */\n      dup1\n        /* \"contracts/common/GenesUtil.sol\":2650:2656  arcane */\n      dup6\n        /* \"contracts/common/GenesUtil.sol\":2642:2657  uint256(arcane) */\n      0xff\n      and\n        /* \"contracts/common/GenesUtil.sol\":2642:2666  uint256(arcane) << shift */\n      swap1\n      shl\n        /* \"contracts/common/GenesUtil.sol\":2633:2638  genes */\n      dup8\n        /* \"contracts/common/GenesUtil.sol\":2633:2667  genes | (uint256(arcane) << shift) */\n      or\n        /* \"contracts/common/GenesUtil.sol\":2626:2667  return genes | (uint256(arcane) << shift) */\n      swap4\n      pop\n      pop\n      pop\n      pop\n        /* \"contracts/common/GenesUtil.sol\":2288:2674  function setArcane(... */\n      swap4\n      swap3\n      pop\n      pop\n      pop\n      jump\t// out\n        /* \"contracts/common/GenesUtil.sol\":605:791  function setCharges(uint256 genes, uint8 charges)... */\n    tag_194:\n        /* \"contracts/common/GenesUtil.sol\":702:709  uint256 */\n      0x00\n        /* \"contracts/common/GenesUtil.sol\":776:782  31 * 8 */\n      0xf8\n        /* \"contracts/common/GenesUtil.sol\":763:770  charges */\n      dup3\n        /* \"contracts/common/GenesUtil.sol\":755:771  uint256(charges) */\n      0xff\n      and\n        /* \"contracts/common/GenesUtil.sol\":755:783  uint256(charges) << (31 * 8) */\n      swap1\n      shl\n        /* \"contracts/common/GenesUtil.sol\":749:750  8 */\n      0x08\n        /* \"contracts/common/GenesUtil.sol\":743:744  8 */\n      dup1\n        /* \"contracts/common/GenesUtil.sol\":734:739  genes */\n      dup6\n        /* \"contracts/common/GenesUtil.sol\":734:744  genes << 8 */\n      swap1\n      shl\n        /* \"contracts/common/GenesUtil.sol\":733:750  (genes << 8) >> 8 */\n      swap1\n      shr\n        /* \"contracts/common/GenesUtil.sol\":732:784  ((genes << 8) >> 8) | (uint256(charges) << (31 * 8)) */\n      or\n        /* \"contracts/common/GenesUtil.sol\":725:784  return ((genes << 8) >> 8) | (uint256(charges) << (31 * 8)) */\n      swap1\n      pop\n        /* \"contracts/common/GenesUtil.sol\":605:791  function setCharges(uint256 genes, uint8 charges)... */\n      swap3\n      swap2\n      pop\n      pop\n      jump\t// out\n        /* \"contracts/common/GenesUtil.sol\":426:599  function setGeneration(uint256 genes, uint32 generation)... */\n    tag_199:\n        /* \"contracts/common/GenesUtil.sol\":530:537  uint256 */\n      0x00\n        /* \"contracts/common/GenesUtil.sol\":582:592  generation */\n      dup2\n        /* \"contracts/common/GenesUtil.sol\":560:592  ((genes >> 4) << 4) | generation */\n      0xffffffff\n      and\n        /* \"contracts/common/GenesUtil.sol\":577:578  4 */\n      0x04\n        /* \"contracts/common/GenesUtil.sol\":571:572  4 */\n      dup1\n        /* \"contracts/common/GenesUtil.sol\":562:567  genes */\n      dup6\n        /* \"contracts/common/GenesUtil.sol\":562:572  genes >> 4 */\n      swap1\n      shr\n        /* \"contracts/common/GenesUtil.sol\":561:578  (genes >> 4) << 4 */\n      swap1\n      shl\n        /* \"contracts/common/GenesUtil.sol\":560:592  ((genes >> 4) << 4) | generation */\n      or\n        /* \"contracts/common/GenesUtil.sol\":553:592  return ((genes >> 4) << 4) | generation */\n      swap1\n      pop\n        /* \"contracts/common/GenesUtil.sol\":426:599  function setGeneration(uint256 genes, uint32 generation)... */\n      swap3\n      swap2\n      pop\n      pop\n      jump\t// out\n        /* \"@openzeppelin/contracts/utils/Context.sol\":640:736  function _msgSender() internal view virtual returns (address) {... */\n    tag_211:\n        /* \"@openzeppelin/contracts/utils/Context.sol\":693:700  address */\n      0x00\n        /* \"@openzeppelin/contracts/utils/Context.sol\":719:729  msg.sender */\n      caller\n        /* \"@openzeppelin/contracts/utils/Context.sol\":712:729  return msg.sender */\n      swap1\n      pop\n        /* \"@openzeppelin/contracts/utils/Context.sol\":640:736  function _msgSender() internal view virtual returns (address) {... */\n      swap1\n      jump\t// out\n        /* \"#utility.yul\":88:205   */\n    tag_256:\n        /* \"#utility.yul\":197:198   */\n      0x00\n        /* \"#utility.yul\":194:195   */\n      0x00\n        /* \"#utility.yul\":187:199   */\n      revert\n        /* \"#utility.yul\":334:411   */\n    tag_258:\n        /* \"#utility.yul\":371:378   */\n      0x00\n        /* \"#utility.yul\":400:405   */\n      dup2\n        /* \"#utility.yul\":389:405   */\n      swap1\n      pop\n        /* \"#utility.yul\":334:411   */\n      swap2\n      swap1\n      pop\n      jump\t// out\n        /* \"#utility.yul\":417:539   */\n    tag_259:\n        /* \"#utility.yul\":490:514   */\n      tag_293\n        /* \"#utility.yul\":508:513   */\n      dup2\n        /* \"#utility.yul\":490:514   */\n      tag_258\n      jump\t// in\n    tag_293:\n        /* \"#utility.yul\":483:488   */\n      dup2\n        /* \"#utility.yul\":480:515   */\n      eq\n        /* \"#utility.yul\":470:533   */\n      tag_294\n      jumpi\n        /* \"#utility.yul\":529:530   */\n      0x00\n        /* \"#utility.yul\":526:527   */\n      0x00\n        /* \"#utility.yul\":519:531   */\n      revert\n        /* \"#utility.yul\":470:533   */\n    tag_294:\n        /* \"#utility.yul\":417:539   */\n      pop\n      jump\t// out\n        /* \"#utility.yul\":545:684   */\n    tag_260:\n        /* \"#utility.yul\":591:596   */\n      0x00\n        /* \"#utility.yul\":629:635   */\n      dup2\n        /* \"#utility.yul\":616:636   */\n      calldataload\n        /* \"#utility.yul\":607:636   */\n      swap1\n      pop\n        /* \"#utility.yul\":645:678   */\n      tag_296\n        /* \"#utility.yul\":672:677   */\n      dup2\n        /* \"#utility.yul\":645:678   */\n      tag_259\n      jump\t// in\n    tag_296:\n        /* \"#utility.yul\":545:684   */\n      swap3\n      swap2\n      pop\n      pop\n      jump\t// out\n        /* \"#utility.yul\":690:1019   */\n    tag_26:\n        /* \"#utility.yul\":749:755   */\n      0x00\n        /* \"#utility.yul\":798:800   */\n      0x20\n        /* \"#utility.yul\":786:795   */\n      dup3\n        /* \"#utility.yul\":777:784   */\n      dup5\n        /* \"#utility.yul\":773:796   */\n      sub\n        /* \"#utility.yul\":769:801   */\n      slt\n        /* \"#utility.yul\":766:885   */\n      iszero\n      tag_298\n      jumpi\n        /* \"#utility.yul\":804:883   */\n      tag_299\n      tag_256\n      jump\t// in\n    tag_299:\n        /* \"#utility.yul\":766:885   */\n    tag_298:\n        /* \"#utility.yul\":924:925   */\n      0x00\n        /* \"#utility.yul\":949:1002   */\n      tag_300\n        /* \"#utility.yul\":994:1001   */\n      dup5\n        /* \"#utility.yul\":985:991   */\n      dup3\n        /* \"#utility.yul\":974:983   */\n      dup6\n        /* \"#utility.yul\":970:992   */\n      add\n        /* \"#utility.yul\":949:1002   */\n      tag_260\n      jump\t// in\n    tag_300:\n        /* \"#utility.yul\":939:1002   */\n      swap2\n      pop\n        /* \"#utility.yul\":895:1012   */\n      pop\n        /* \"#utility.yul\":690:1019   */\n      swap3\n      swap2\n      pop\n      pop\n      jump\t// out\n        /* \"#utility.yul\":1025:1143   */\n    tag_261:\n        /* \"#utility.yul\":1112:1136   */\n      tag_302\n        /* \"#utility.yul\":1130:1135   */\n      dup2\n        /* \"#utility.yul\":1112:1136   */\n      tag_258\n      jump\t// in\n    tag_302:\n        /* \"#utility.yul\":1107:1110   */\n      dup3\n        /* \"#utility.yul\":1100:1137   */\n      mstore\n        /* \"#utility.yul\":1025:1143   */\n      pop\n      pop\n      jump\t// out\n        /* \"#utility.yul\":1149:1371   */\n    tag_40:\n        /* \"#utility.yul\":1242:1246   */\n      0x00\n        /* \"#utility.yul\":1280:1282   */\n      0x20\n        /* \"#utility.yul\":1269:1278   */\n      dup3\n        /* \"#utility.yul\":1265:1283   */\n      add\n        /* \"#utility.yul\":1257:1283   */\n      swap1\n      pop\n        /* \"#utility.yul\":1293:1364   */\n      tag_304\n        /* \"#utility.yul\":1361:1362   */\n      0x00\n        /* \"#utility.yul\":1350:1359   */\n      dup4\n        /* \"#utility.yul\":1346:1363   */\n      add\n        /* \"#utility.yul\":1337:1343   */\n      dup5\n        /* \"#utility.yul\":1293:1364   */\n      tag_261\n      jump\t// in\n    tag_304:\n        /* \"#utility.yul\":1149:1371   */\n      swap3\n      swap2\n      pop\n      pop\n      jump\t// out\n        /* \"#utility.yul\":1377:1463   */\n    tag_262:\n        /* \"#utility.yul\":1412:1419   */\n      0x00\n        /* \"#utility.yul\":1452:1456   */\n      0xff\n        /* \"#utility.yul\":1445:1450   */\n      dup3\n        /* \"#utility.yul\":1441:1457   */\n      and\n        /* \"#utility.yul\":1430:1457   */\n      swap1\n      pop\n        /* \"#utility.yul\":1377:1463   */\n      swap2\n      swap1\n      pop\n      jump\t// out\n        /* \"#utility.yul\":1469:1581   */\n    tag_263:\n        /* \"#utility.yul\":1552:1574   */\n      tag_307\n        /* \"#utility.yul\":1568:1573   */\n      dup2\n        /* \"#utility.yul\":1552:1574   */\n      tag_262\n      jump\t// in\n    tag_307:\n        /* \"#utility.yul\":1547:1550   */\n      dup3\n        /* \"#utility.yul\":1540:1575   */\n      mstore\n        /* \"#utility.yul\":1469:1581   */\n      pop\n      pop\n      jump\t// out\n        /* \"#utility.yul\":1587:1801   */\n    tag_44:\n        /* \"#utility.yul\":1676:1680   */\n      0x00\n        /* \"#utility.yul\":1714:1716   */\n      0x20\n        /* \"#utility.yul\":1703:1712   */\n      dup3\n        /* \"#utility.yul\":1699:1717   */\n      add\n        /* \"#utility.yul\":1691:1717   */\n      swap1\n      pop\n        /* \"#utility.yul\":1727:1794   */\n      tag_309\n        /* \"#utility.yul\":1791:1792   */\n      0x00\n        /* \"#utility.yul\":1780:1789   */\n      dup4\n        /* \"#utility.yul\":1776:1793   */\n      add\n        /* \"#utility.yul\":1767:1773   */\n      dup5\n        /* \"#utility.yul\":1727:1794   */\n      tag_263\n      jump\t// in\n    tag_309:\n        /* \"#utility.yul\":1587:1801   */\n      swap3\n      swap2\n      pop\n      pop\n      jump\t// out\n        /* \"#utility.yul\":1807:1933   */\n    tag_264:\n        /* \"#utility.yul\":1844:1851   */\n      0x00\n        /* \"#utility.yul\":1884:1926   */\n      0xffffffffffffffffffffffffffffffffffffffff\n        /* \"#utility.yul\":1877:1882   */\n      dup3\n        /* \"#utility.yul\":1873:1927   */\n      and\n        /* \"#utility.yul\":1862:1927   */\n      swap1\n      pop\n        /* \"#utility.yul\":1807:1933   */\n      swap2\n      swap1\n      pop\n      jump\t// out\n        /* \"#utility.yul\":1939:2035   */\n    tag_265:\n        /* \"#utility.yul\":1976:1983   */\n      0x00\n        /* \"#utility.yul\":2005:2029   */\n      tag_312\n        /* \"#utility.yul\":2023:2028   */\n      dup3\n        /* \"#utility.yul\":2005:2029   */\n      tag_264\n      jump\t// in\n    tag_312:\n        /* \"#utility.yul\":1994:2029   */\n      swap1\n      pop\n        /* \"#utility.yul\":1939:2035   */\n      swap2\n      swap1\n      pop\n      jump\t// out\n        /* \"#utility.yul\":2041:2159   */\n    tag_266:\n        /* \"#utility.yul\":2128:2152   */\n      tag_314\n        /* \"#utility.yul\":2146:2151   */\n      dup2\n        /* \"#utility.yul\":2128:2152   */\n      tag_265\n      jump\t// in\n    tag_314:\n        /* \"#utility.yul\":2123:2126   */\n      dup3\n        /* \"#utility.yul\":2116:2153   */\n      mstore\n        /* \"#utility.yul\":2041:2159   */\n      pop\n      pop\n      jump\t// out\n        /* \"#utility.yul\":2165:2387   */\n    tag_56:\n        /* \"#utility.yul\":2258:2262   */\n      0x00\n        /* \"#utility.yul\":2296:2298   */\n      0x20\n        /* \"#utility.yul\":2285:2294   */\n      dup3\n        /* \"#utility.yul\":2281:2299   */\n      add\n        /* \"#utility.yul\":2273:2299   */\n      swap1\n      pop\n        /* \"#utility.yul\":2309:2380   */\n      tag_316\n        /* \"#utility.yul\":2377:2378   */\n      0x00\n        /* \"#utility.yul\":2366:2375   */\n      dup4\n        /* \"#utility.yul\":2362:2379   */\n      add\n        /* \"#utility.yul\":2353:2359   */\n      dup5\n        /* \"#utility.yul\":2309:2380   */\n      tag_266\n      jump\t// in\n    tag_316:\n        /* \"#utility.yul\":2165:2387   */\n      swap3\n      swap2\n      pop\n      pop\n      jump\t// out\n        /* \"#utility.yul\":2393:2511   */\n    tag_267:\n        /* \"#utility.yul\":2464:2486   */\n      tag_318\n        /* \"#utility.yul\":2480:2485   */\n      dup2\n        /* \"#utility.yul\":2464:2486   */\n      tag_262\n      jump\t// in\n    tag_318:\n        /* \"#utility.yul\":2457:2462   */\n      dup2\n        /* \"#utility.yul\":2454:2487   */\n      eq\n        /* \"#utility.yul\":2444:2505   */\n      tag_319\n      jumpi\n        /* \"#utility.yul\":2501:2502   */\n      0x00\n        /* \"#utility.yul\":2498:2499   */\n      0x00\n        /* \"#utility.yul\":2491:2503   */\n      revert\n        /* \"#utility.yul\":2444:2505   */\n    tag_319:\n        /* \"#utility.yul\":2393:2511   */\n      pop\n      jump\t// out\n        /* \"#utility.yul\":2517:2652   */\n    tag_268:\n        /* \"#utility.yul\":2561:2566   */\n      0x00\n        /* \"#utility.yul\":2599:2605   */\n      dup2\n        /* \"#utility.yul\":2586:2606   */\n      calldataload\n        /* \"#utility.yul\":2577:2606   */\n      swap1\n      pop\n        /* \"#utility.yul\":2615:2646   */\n      tag_321\n        /* \"#utility.yul\":2640:2645   */\n      dup2\n        /* \"#utility.yul\":2615:2646   */\n      tag_267\n      jump\t// in\n    tag_321:\n        /* \"#utility.yul\":2517:2652   */\n      swap3\n      swap2\n      pop\n      pop\n      jump\t// out\n        /* \"#utility.yul\":2658:2983   */\n    tag_65:\n        /* \"#utility.yul\":2715:2721   */\n      0x00\n        /* \"#utility.yul\":2764:2766   */\n      0x20\n        /* \"#utility.yul\":2752:2761   */\n      dup3\n        /* \"#utility.yul\":2743:2750   */\n      dup5\n        /* \"#utility.yul\":2739:2762   */\n      sub\n        /* \"#utility.yul\":2735:2767   */\n      slt\n        /* \"#utility.yul\":2732:2851   */\n      iszero\n      tag_323\n      jumpi\n        /* \"#utility.yul\":2770:2849   */\n      tag_324\n      tag_256\n      jump\t// in\n    tag_324:\n        /* \"#utility.yul\":2732:2851   */\n    tag_323:\n        /* \"#utility.yul\":2890:2891   */\n      0x00\n        /* \"#utility.yul\":2915:2966   */\n      tag_325\n        /* \"#utility.yul\":2958:2965   */\n      dup5\n        /* \"#utility.yul\":2949:2955   */\n      dup3\n        /* \"#utility.yul\":2938:2947   */\n      dup6\n        /* \"#utility.yul\":2934:2956   */\n      add\n        /* \"#utility.yul\":2915:2966   */\n      tag_268\n      jump\t// in\n    tag_325:\n        /* \"#utility.yul\":2905:2966   */\n      swap2\n      pop\n        /* \"#utility.yul\":2861:2976   */\n      pop\n        /* \"#utility.yul\":2658:2983   */\n      swap3\n      swap2\n      pop\n      pop\n      jump\t// out\n        /* \"#utility.yul\":2989:3463   */\n    tag_75:\n        /* \"#utility.yul\":3057:3063   */\n      0x00\n        /* \"#utility.yul\":3065:3071   */\n      0x00\n        /* \"#utility.yul\":3114:3116   */\n      0x40\n        /* \"#utility.yul\":3102:3111   */\n      dup4\n        /* \"#utility.yul\":3093:3100   */\n      dup6\n        /* \"#utility.yul\":3089:3112   */\n      sub\n        /* \"#utility.yul\":3085:3117   */\n      slt\n        /* \"#utility.yul\":3082:3201   */\n      iszero\n      tag_327\n      jumpi\n        /* \"#utility.yul\":3120:3199   */\n      tag_328\n      tag_256\n      jump\t// in\n    tag_328:\n        /* \"#utility.yul\":3082:3201   */\n    tag_327:\n        /* \"#utility.yul\":3240:3241   */\n      0x00\n        /* \"#utility.yul\":3265:3318   */\n      tag_329\n        /* \"#utility.yul\":3310:3317   */\n      dup6\n        /* \"#utility.yul\":3301:3307   */\n      dup3\n        /* \"#utility.yul\":3290:3299   */\n      dup7\n        /* \"#utility.yul\":3286:3308   */\n      add\n        /* \"#utility.yul\":3265:3318   */\n      tag_260\n      jump\t// in\n    tag_329:\n        /* \"#utility.yul\":3255:3318   */\n      swap3\n      pop\n        /* \"#utility.yul\":3211:3328   */\n      pop\n        /* \"#utility.yul\":3367:3369   */\n      0x20\n        /* \"#utility.yul\":3393:3446   */\n      tag_330\n        /* \"#utility.yul\":3438:3445   */\n      dup6\n        /* \"#utility.yul\":3429:3435   */\n      dup3\n        /* \"#utility.yul\":3418:3427   */\n      dup7\n        /* \"#utility.yul\":3414:3436   */\n      add\n        /* \"#utility.yul\":3393:3446   */\n      tag_260\n      jump\t// in\n    tag_330:\n        /* \"#utility.yul\":3383:3446   */\n      swap2\n      pop\n        /* \"#utility.yul\":3338:3456   */\n      pop\n        /* \"#utility.yul\":2989:3463   */\n      swap3\n      pop\n      swap3\n      swap1\n      pop\n      jump\t// out\n        /* \"#utility.yul\":3469:3911   */\n    tag_78:\n        /* \"#utility.yul\":3618:3622   */\n      0x00\n        /* \"#utility.yul\":3656:3658   */\n      0x60\n        /* \"#utility.yul\":3645:3654   */\n      dup3\n        /* \"#utility.yul\":3641:3659   */\n      add\n        /* \"#utility.yul\":3633:3659   */\n      swap1\n      pop\n        /* \"#utility.yul\":3669:3740   */\n      tag_332\n        /* \"#utility.yul\":3737:3738   */\n      0x00\n        /* \"#utility.yul\":3726:3735   */\n      dup4\n        /* \"#utility.yul\":3722:3739   */\n      add\n        /* \"#utility.yul\":3713:3719   */\n      dup7\n        /* \"#utility.yul\":3669:3740   */\n      tag_261\n      jump\t// in\n    tag_332:\n        /* \"#utility.yul\":3750:3822   */\n      tag_333\n        /* \"#utility.yul\":3818:3820   */\n      0x20\n        /* \"#utility.yul\":3807:3816   */\n      dup4\n        /* \"#utility.yul\":3803:3821   */\n      add\n        /* \"#utility.yul\":3794:3800   */\n      dup6\n        /* \"#utility.yul\":3750:3822   */\n      tag_261\n      jump\t// in\n    tag_333:\n        /* \"#utility.yul\":3832:3904   */\n      tag_334\n        /* \"#utility.yul\":3900:3902   */\n      0x40\n        /* \"#utility.yul\":3889:3898   */\n      dup4\n        /* \"#utility.yul\":3885:3903   */\n      add\n        /* \"#utility.yul\":3876:3882   */\n      dup5\n        /* \"#utility.yul\":3832:3904   */\n      tag_261\n      jump\t// in\n    tag_334:\n        /* \"#utility.yul\":3469:3911   */\n      swap5\n      swap4\n      pop\n      pop\n      pop\n      pop\n      jump\t// out\n        /* \"#utility.yul\":3917:4039   */\n    tag_269:\n        /* \"#utility.yul\":3990:4014   */\n      tag_336\n        /* \"#utility.yul\":4008:4013   */\n      dup2\n        /* \"#utility.yul\":3990:4014   */\n      tag_265\n      jump\t// in\n    tag_336:\n        /* \"#utility.yul\":3983:3988   */\n      dup2\n        /* \"#utility.yul\":3980:4015   */\n      eq\n        /* \"#utility.yul\":3970:4033   */\n      tag_337\n      jumpi\n        /* \"#utility.yul\":4029:4030   */\n      0x00\n        /* \"#utility.yul\":4026:4027   */\n      0x00\n        /* \"#utility.yul\":4019:4031   */\n      revert\n        /* \"#utility.yul\":3970:4033   */\n    tag_337:\n        /* \"#utility.yul\":3917:4039   */\n      pop\n      jump\t// out\n        /* \"#utility.yul\":4045:4184   */\n    tag_270:\n        /* \"#utility.yul\":4091:4096   */\n      0x00\n        /* \"#utility.yul\":4129:4135   */\n      dup2\n        /* \"#utility.yul\":4116:4136   */\n      calldataload\n        /* \"#utility.yul\":4107:4136   */\n      swap1\n      pop\n        /* \"#utility.yul\":4145:4178   */\n      tag_339\n        /* \"#utility.yul\":4172:4177   */\n      dup2\n        /* \"#utility.yul\":4145:4178   */\n      tag_269\n      jump\t// in\n    tag_339:\n        /* \"#utility.yul\":4045:4184   */\n      swap3\n      swap2\n      pop\n      pop\n      jump\t// out\n        /* \"#utility.yul\":4190:4519   */\n    tag_84:\n        /* \"#utility.yul\":4249:4255   */\n      0x00\n        /* \"#utility.yul\":4298:4300   */\n      0x20\n        /* \"#utility.yul\":4286:4295   */\n      dup3\n        /* \"#utility.yul\":4277:4284   */\n      dup5\n        /* \"#utility.yul\":4273:4296   */\n      sub\n        /* \"#utility.yul\":4269:4301   */\n      slt\n        /* \"#utility.yul\":4266:4385   */\n      iszero\n      tag_341\n      jumpi\n        /* \"#utility.yul\":4304:4383   */\n      tag_342\n      tag_256\n      jump\t// in\n    tag_342:\n        /* \"#utility.yul\":4266:4385   */\n    tag_341:\n        /* \"#utility.yul\":4424:4425   */\n      0x00\n        /* \"#utility.yul\":4449:4502   */\n      tag_343\n        /* \"#utility.yul\":4494:4501   */\n      dup5\n        /* \"#utility.yul\":4485:4491   */\n      dup3\n        /* \"#utility.yul\":4474:4483   */\n      dup6\n        /* \"#utility.yul\":4470:4492   */\n      add\n        /* \"#utility.yul\":4449:4502   */\n      tag_270\n      jump\t// in\n    tag_343:\n        /* \"#utility.yul\":4439:4502   */\n      swap2\n      pop\n        /* \"#utility.yul\":4395:4512   */\n      pop\n        /* \"#utility.yul\":4190:4519   */\n      swap3\n      swap2\n      pop\n      pop\n      jump\t// out\n        /* \"#utility.yul\":4525:4694   */\n    tag_271:\n        /* \"#utility.yul\":4609:4620   */\n      0x00\n        /* \"#utility.yul\":4643:4649   */\n      dup3\n        /* \"#utility.yul\":4638:4641   */\n      dup3\n        /* \"#utility.yul\":4631:4650   */\n      mstore\n        /* \"#utility.yul\":4683:4687   */\n      0x20\n        /* \"#utility.yul\":4678:4681   */\n      dup3\n        /* \"#utility.yul\":4674:4688   */\n      add\n        /* \"#utility.yul\":4659:4688   */\n      swap1\n      pop\n        /* \"#utility.yul\":4525:4694   */\n      swap3\n      swap2\n      pop\n      pop\n      jump\t// out\n        /* \"#utility.yul\":4700:4869   */\n    tag_272:\n        /* \"#utility.yul\":4840:4861   */\n      0x696e73756666696369656e742063686172676500000000000000000000000000\n        /* \"#utility.yul\":4836:4837   */\n      0x00\n        /* \"#utility.yul\":4828:4834   */\n      dup3\n        /* \"#utility.yul\":4824:4838   */\n      add\n        /* \"#utility.yul\":4817:4862   */\n      mstore\n        /* \"#utility.yul\":4700:4869   */\n      pop\n      jump\t// out\n        /* \"#utility.yul\":4875:5241   */\n    tag_273:\n        /* \"#utility.yul\":5017:5020   */\n      0x00\n        /* \"#utility.yul\":5038:5105   */\n      tag_347\n        /* \"#utility.yul\":5102:5104   */\n      0x13\n        /* \"#utility.yul\":5097:5100   */\n      dup4\n        /* \"#utility.yul\":5038:5105   */\n      tag_271\n      jump\t// in\n    tag_347:\n        /* \"#utility.yul\":5031:5105   */\n      swap2\n      pop\n        /* \"#utility.yul\":5114:5207   */\n      tag_348\n        /* \"#utility.yul\":5203:5206   */\n      dup3\n        /* \"#utility.yul\":5114:5207   */\n      tag_272\n      jump\t// in\n    tag_348:\n        /* \"#utility.yul\":5232:5234   */\n      0x20\n        /* \"#utility.yul\":5227:5230   */\n      dup3\n        /* \"#utility.yul\":5223:5235   */\n      add\n        /* \"#utility.yul\":5216:5235   */\n      swap1\n      pop\n        /* \"#utility.yul\":4875:5241   */\n      swap2\n      swap1\n      pop\n      jump\t// out\n        /* \"#utility.yul\":5247:5666   */\n    tag_126:\n        /* \"#utility.yul\":5413:5417   */\n      0x00\n        /* \"#utility.yul\":5451:5453   */\n      0x20\n        /* \"#utility.yul\":5440:5449   */\n      dup3\n        /* \"#utility.yul\":5436:5454   */\n      add\n        /* \"#utility.yul\":5428:5454   */\n      swap1\n      pop\n        /* \"#utility.yul\":5500:5509   */\n      dup2\n        /* \"#utility.yul\":5494:5498   */\n      dup2\n        /* \"#utility.yul\":5490:5510   */\n      sub\n        /* \"#utility.yul\":5486:5487   */\n      0x00\n        /* \"#utility.yul\":5475:5484   */\n      dup4\n        /* \"#utility.yul\":5471:5488   */\n      add\n        /* \"#utility.yul\":5464:5511   */\n      mstore\n        /* \"#utility.yul\":5528:5659   */\n      tag_350\n        /* \"#utility.yul\":5654:5658   */\n      dup2\n        /* \"#utility.yul\":5528:5659   */\n      tag_273\n      jump\t// in\n    tag_350:\n        /* \"#utility.yul\":5520:5659   */\n      swap1\n      pop\n        /* \"#utility.yul\":5247:5666   */\n      swap2\n      swap1\n      pop\n      jump\t// out\n        /* \"#utility.yul\":5672:5751   */\n    tag_274:\n        /* \"#utility.yul\":5711:5718   */\n      0x00\n        /* \"#utility.yul\":5740:5745   */\n      dup2\n        /* \"#utility.yul\":5729:5745   */\n      swap1\n      pop\n        /* \"#utility.yul\":5672:5751   */\n      swap2\n      swap1\n      pop\n      jump\t// out\n        /* \"#utility.yul\":5757:5914   */\n    tag_275:\n        /* \"#utility.yul\":5862:5907   */\n      tag_353\n        /* \"#utility.yul\":5882:5906   */\n      tag_354\n        /* \"#utility.yul\":5900:5905   */\n      dup3\n        /* \"#utility.yul\":5882:5906   */\n      tag_258\n      jump\t// in\n    tag_354:\n        /* \"#utility.yul\":5862:5907   */\n      tag_274\n      jump\t// in\n    tag_353:\n        /* \"#utility.yul\":5857:5860   */\n      dup3\n        /* \"#utility.yul\":5850:5908   */\n      mstore\n        /* \"#utility.yul\":5757:5914   */\n      pop\n      pop\n      jump\t// out\n        /* \"#utility.yul\":5920:6881   */\n    tag_131:\n        /* \"#utility.yul\":6172:6175   */\n      0x00\n        /* \"#utility.yul\":6187:6262   */\n      tag_356\n        /* \"#utility.yul\":6258:6261   */\n      dup3\n        /* \"#utility.yul\":6249:6255   */\n      dup10\n        /* \"#utility.yul\":6187:6262   */\n      tag_275\n      jump\t// in\n    tag_356:\n        /* \"#utility.yul\":6287:6289   */\n      0x20\n        /* \"#utility.yul\":6282:6285   */\n      dup3\n        /* \"#utility.yul\":6278:6290   */\n      add\n        /* \"#utility.yul\":6271:6290   */\n      swap2\n      pop\n        /* \"#utility.yul\":6300:6375   */\n      tag_357\n        /* \"#utility.yul\":6371:6374   */\n      dup3\n        /* \"#utility.yul\":6362:6368   */\n      dup9\n        /* \"#utility.yul\":6300:6375   */\n      tag_275\n      jump\t// in\n    tag_357:\n        /* \"#utility.yul\":6400:6402   */\n      0x20\n        /* \"#utility.yul\":6395:6398   */\n      dup3\n        /* \"#utility.yul\":6391:6403   */\n      add\n        /* \"#utility.yul\":6384:6403   */\n      swap2\n      pop\n        /* \"#utility.yul\":6413:6488   */\n      tag_358\n        /* \"#utility.yul\":6484:6487   */\n      dup3\n        /* \"#utility.yul\":6475:6481   */\n      dup8\n        /* \"#utility.yul\":6413:6488   */\n      tag_275\n      jump\t// in\n    tag_358:\n        /* \"#utility.yul\":6513:6515   */\n      0x20\n        /* \"#utility.yul\":6508:6511   */\n      dup3\n        /* \"#utility.yul\":6504:6516   */\n      add\n        /* \"#utility.yul\":6497:6516   */\n      swap2\n      pop\n        /* \"#utility.yul\":6526:6601   */\n      tag_359\n        /* \"#utility.yul\":6597:6600   */\n      dup3\n        /* \"#utility.yul\":6588:6594   */\n      dup7\n        /* \"#utility.yul\":6526:6601   */\n      tag_275\n      jump\t// in\n    tag_359:\n        /* \"#utility.yul\":6626:6628   */\n      0x20\n        /* \"#utility.yul\":6621:6624   */\n      dup3\n        /* \"#utility.yul\":6617:6629   */\n      add\n        /* \"#utility.yul\":6610:6629   */\n      swap2\n      pop\n        /* \"#utility.yul\":6639:6714   */\n      tag_360\n        /* \"#utility.yul\":6710:6713   */\n      dup3\n        /* \"#utility.yul\":6701:6707   */\n      dup6\n        /* \"#utility.yul\":6639:6714   */\n      tag_275\n      jump\t// in\n    tag_360:\n        /* \"#utility.yul\":6739:6741   */\n      0x20\n        /* \"#utility.yul\":6734:6737   */\n      dup3\n        /* \"#utility.yul\":6730:6742   */\n      add\n        /* \"#utility.yul\":6723:6742   */\n      swap2\n      pop\n        /* \"#utility.yul\":6752:6827   */\n      tag_361\n        /* \"#utility.yul\":6823:6826   */\n      dup3\n        /* \"#utility.yul\":6814:6820   */\n      dup5\n        /* \"#utility.yul\":6752:6827   */\n      tag_275\n      jump\t// in\n    tag_361:\n        /* \"#utility.yul\":6852:6854   */\n      0x20\n        /* \"#utility.yul\":6847:6850   */\n      dup3\n        /* \"#utility.yul\":6843:6855   */\n      add\n        /* \"#utility.yul\":6836:6855   */\n      swap2\n      pop\n        /* \"#utility.yul\":6872:6875   */\n      dup2\n        /* \"#utility.yul\":6865:6875   */\n      swap1\n      pop\n        /* \"#utility.yul\":5920:6881   */\n      swap8\n      swap7\n      pop\n      pop\n      pop\n      pop\n      pop\n      pop\n      pop\n      jump\t// out\n        /* \"#utility.yul\":6887:7058   */\n    tag_276:\n        /* \"#utility.yul\":7027:7050   */\n      0x72616e646f6d536565642063616e277420626520300000000000000000000000\n        /* \"#utility.yul\":7023:7024   */\n      0x00\n        /* \"#utility.yul\":7015:7021   */\n      dup3\n        /* \"#utility.yul\":7011:7025   */\n      add\n        /* \"#utility.yul\":7004:7051   */\n      mstore\n        /* \"#utility.yul\":6887:7058   */\n      pop\n      jump\t// out\n        /* \"#utility.yul\":7064:7430   */\n    tag_277:\n        /* \"#utility.yul\":7206:7209   */\n      0x00\n        /* \"#utility.yul\":7227:7294   */\n      tag_364\n        /* \"#utility.yul\":7291:7293   */\n      0x15\n        /* \"#utility.yul\":7286:7289   */\n      dup4\n        /* \"#utility.yul\":7227:7294   */\n      tag_271\n      jump\t// in\n    tag_364:\n        /* \"#utility.yul\":7220:7294   */\n      swap2\n      pop\n        /* \"#utility.yul\":7303:7396   */\n      tag_365\n        /* \"#utility.yul\":7392:7395   */\n      dup3\n        /* \"#utility.yul\":7303:7396   */\n      tag_276\n      jump\t// in\n    tag_365:\n        /* \"#utility.yul\":7421:7423   */\n      0x20\n        /* \"#utility.yul\":7416:7419   */\n      dup3\n        /* \"#utility.yul\":7412:7424   */\n      add\n        /* \"#utility.yul\":7405:7424   */\n      swap1\n      pop\n        /* \"#utility.yul\":7064:7430   */\n      swap2\n      swap1\n      pop\n      jump\t// out\n        /* \"#utility.yul\":7436:7855   */\n    tag_134:\n        /* \"#utility.yul\":7602:7606   */\n      0x00\n        /* \"#utility.yul\":7640:7642   */\n      0x20\n        /* \"#utility.yul\":7629:7638   */\n      dup3\n        /* \"#utility.yul\":7625:7643   */\n      add\n        /* \"#utility.yul\":7617:7643   */\n      swap1\n      pop\n        /* \"#utility.yul\":7689:7698   */\n      dup2\n        /* \"#utility.yul\":7683:7687   */\n      dup2\n        /* \"#utility.yul\":7679:7699   */\n      sub\n        /* \"#utility.yul\":7675:7676   */\n      0x00\n        /* \"#utility.yul\":7664:7673   */\n      dup4\n        /* \"#utility.yul\":7660:7677   */\n      add\n        /* \"#utility.yul\":7653:7700   */\n      mstore\n        /* \"#utility.yul\":7717:7848   */\n      tag_367\n        /* \"#utility.yul\":7843:7847   */\n      dup2\n        /* \"#utility.yul\":7717:7848   */\n      tag_277\n      jump\t// in\n    tag_367:\n        /* \"#utility.yul\":7709:7848   */\n      swap1\n      pop\n        /* \"#utility.yul\":7436:7855   */\n      swap2\n      swap1\n      pop\n      jump\t// out\n        /* \"#utility.yul\":7861:8041   */\n    tag_278:\n        /* \"#utility.yul\":7909:7986   */\n      0x4e487b7100000000000000000000000000000000000000000000000000000000\n        /* \"#utility.yul\":7906:7907   */\n      0x00\n        /* \"#utility.yul\":7899:7987   */\n      mstore\n        /* \"#utility.yul\":8006:8010   */\n      0x11\n        /* \"#utility.yul\":8003:8004   */\n      0x04\n        /* \"#utility.yul\":7996:8011   */\n      mstore\n        /* \"#utility.yul\":8030:8034   */\n      0x24\n        /* \"#utility.yul\":8027:8028   */\n      0x00\n        /* \"#utility.yul\":8020:8035   */\n      revert\n        /* \"#utility.yul\":8047:8280   */\n    tag_136:\n        /* \"#utility.yul\":8086:8089   */\n      0x00\n        /* \"#utility.yul\":8109:8133   */\n      tag_370\n        /* \"#utility.yul\":8127:8132   */\n      dup3\n        /* \"#utility.yul\":8109:8133   */\n      tag_258\n      jump\t// in\n    tag_370:\n        /* \"#utility.yul\":8100:8133   */\n      swap2\n      pop\n        /* \"#utility.yul\":8155:8221   */\n      0xffffffffffffffffffffffffffffffffffffffffffffffffffffffffffffffff\n        /* \"#utility.yul\":8148:8153   */\n      dup3\n        /* \"#utility.yul\":8145:8222   */\n      sub\n        /* \"#utility.yul\":8142:8245   */\n      tag_371\n      jumpi\n        /* \"#utility.yul\":8225:8243   */\n      tag_372\n      tag_278\n      jump\t// in\n    tag_372:\n        /* \"#utility.yul\":8142:8245   */\n    tag_371:\n        /* \"#utility.yul\":8272:8273   */\n      0x01\n        /* \"#utility.yul\":8265:8270   */\n      dup3\n        /* \"#utility.yul\":8261:8274   */\n      add\n        /* \"#utility.yul\":8254:8274   */\n      swap1\n      pop\n        /* \"#utility.yul\":8047:8280   */\n      swap2\n      swap1\n      pop\n      jump\t// out\n        /* \"#utility.yul\":8286:8379   */\n    tag_279:\n        /* \"#utility.yul\":8322:8329   */\n      0x00\n        /* \"#utility.yul\":8362:8372   */\n      0xffffffff\n        /* \"#utility.yul\":8355:8360   */\n      dup3\n        /* \"#utility.yul\":8351:8373   */\n      and\n        /* \"#utility.yul\":8340:8373   */\n      swap1\n      pop\n        /* \"#utility.yul\":8286:8379   */\n      swap2\n      swap1\n      pop\n      jump\t// out\n        /* \"#utility.yul\":8385:8582   */\n    tag_141:\n        /* \"#utility.yul\":8424:8427   */\n      0x00\n        /* \"#utility.yul\":8443:8462   */\n      tag_375\n        /* \"#utility.yul\":8460:8461   */\n      dup3\n        /* \"#utility.yul\":8443:8462   */\n      tag_279\n      jump\t// in\n    tag_375:\n        /* \"#utility.yul\":8438:8462   */\n      swap2\n      pop\n        /* \"#utility.yul\":8476:8495   */\n      tag_376\n        /* \"#utility.yul\":8493:8494   */\n      dup4\n        /* \"#utility.yul\":8476:8495   */\n      tag_279\n      jump\t// in\n    tag_376:\n        /* \"#utility.yul\":8471:8495   */\n      swap3\n      pop\n        /* \"#utility.yul\":8518:8519   */\n      dup3\n        /* \"#utility.yul\":8515:8516   */\n      dup3\n        /* \"#utility.yul\":8511:8520   */\n      add\n        /* \"#utility.yul\":8504:8520   */\n      swap1\n      pop\n        /* \"#utility.yul\":8541:8551   */\n      0xffffffff\n        /* \"#utility.yul\":8536:8539   */\n      dup2\n        /* \"#utility.yul\":8533:8552   */\n      gt\n        /* \"#utility.yul\":8530:8575   */\n      iszero\n      tag_377\n      jumpi\n        /* \"#utility.yul\":8555:8573   */\n      tag_378\n      tag_278\n      jump\t// in\n    tag_378:\n        /* \"#utility.yul\":8530:8575   */\n    tag_377:\n        /* \"#utility.yul\":8385:8582   */\n      swap3\n      swap2\n      pop\n      pop\n      jump\t// out\n        /* \"#utility.yul\":8588:8768   */\n    tag_280:\n        /* \"#utility.yul\":8636:8713   */\n      0x4e487b7100000000000000000000000000000000000000000000000000000000\n        /* \"#utility.yul\":8633:8634   */\n      0x00\n        /* \"#utility.yul\":8626:8714   */\n      mstore\n        /* \"#utility.yul\":8733:8737   */\n      0x12\n        /* \"#utility.yul\":8730:8731   */\n      0x04\n        /* \"#utility.yul\":8723:8738   */\n      mstore\n        /* \"#utility.yul\":8757:8761   */\n      0x24\n        /* \"#utility.yul\":8754:8755   */\n      0x00\n        /* \"#utility.yul\":8747:8762   */\n      revert\n        /* \"#utility.yul\":8774:8956   */\n    tag_143:\n        /* \"#utility.yul\":8813:8814   */\n      0x00\n        /* \"#utility.yul\":8830:8849   */\n      tag_381\n        /* \"#utility.yul\":8847:8848   */\n      dup3\n        /* \"#utility.yul\":8830:8849   */\n      tag_279\n      jump\t// in\n    tag_381:\n        /* \"#utility.yul\":8825:8849   */\n      swap2\n      pop\n        /* \"#utility.yul\":8863:8882   */\n      tag_382\n        /* \"#utility.yul\":8880:8881   */\n      dup4\n        /* \"#utility.yul\":8863:8882   */\n      tag_279\n      jump\t// in\n    tag_382:\n        /* \"#utility.yul\":8858:8882   */\n      swap3\n      pop\n        /* \"#utility.yul\":8901:8902   */\n      dup3\n        /* \"#utility.yul\":8891:8926   */\n      tag_383\n      jumpi\n        /* \"#utility.yul\":8906:8924   */\n      tag_384\n      tag_280\n      jump\t// in\n    tag_384:\n        /* \"#utility.yul\":8891:8926   */\n    tag_383:\n        /* \"#utility.yul\":8948:8949   */\n      dup3\n        /* \"#utility.yul\":8945:8946   */\n      dup3\n        /* \"#utility.yul\":8941:8950   */\n      div\n        /* \"#utility.yul\":8936:8950   */\n      swap1\n      pop\n        /* \"#utility.yul\":8774:8956   */\n      swap3\n      swap2\n      pop\n      pop\n      jump\t// out\n        /* \"#utility.yul\":8962:9156   */\n    tag_153:\n        /* \"#utility.yul\":9002:9006   */\n      0x00\n        /* \"#utility.yul\":9022:9042   */\n      tag_386\n        /* \"#utility.yul\":9040:9041   */\n      dup3\n        /* \"#utility.yul\":9022:9042   */\n      tag_258\n      jump\t// in\n    tag_386:\n        /* \"#utility.yul\":9017:9042   */\n      swap2\n      pop\n        /* \"#utility.yul\":9056:9076   */\n      tag_387\n        /* \"#utility.yul\":9074:9075   */\n      dup4\n        /* \"#utility.yul\":9056:9076   */\n      tag_258\n      jump\t// in\n    tag_387:\n        /* \"#utility.yul\":9051:9076   */\n      swap3\n      pop\n        /* \"#utility.yul\":9100:9101   */\n      dup3\n        /* \"#utility.yul\":9097:9098   */\n      dup3\n        /* \"#utility.yul\":9093:9102   */\n      sub\n        /* \"#utility.yul\":9085:9102   */\n      swap1\n      pop\n        /* \"#utility.yul\":9124:9125   */\n      dup2\n        /* \"#utility.yul\":9118:9122   */\n      dup2\n        /* \"#utility.yul\":9115:9126   */\n      gt\n        /* \"#utility.yul\":9112:9149   */\n      iszero\n      tag_388\n      jumpi\n        /* \"#utility.yul\":9129:9147   */\n      tag_389\n      tag_278\n      jump\t// in\n    tag_389:\n        /* \"#utility.yul\":9112:9149   */\n    tag_388:\n        /* \"#utility.yul\":8962:9156   */\n      swap3\n      swap2\n      pop\n      pop\n      jump\t// out\n        /* \"#utility.yul\":9162:9572   */\n    tag_155:\n        /* \"#utility.yul\":9202:9209   */\n      0x00\n        /* \"#utility.yul\":9225:9245   */\n      tag_391\n        /* \"#utility.yul\":9243:9244   */\n      dup3\n        /* \"#utility.yul\":9225:9245   */\n      tag_258\n      jump\t// in\n    tag_391:\n        /* \"#utility.yul\":9220:9245   */\n      swap2\n      pop\n        /* \"#utility.yul\":9259:9279   */\n      tag_392\n        /* \"#utility.yul\":9277:9278   */\n      dup4\n        /* \"#utility.yul\":9259:9279   */\n      tag_258\n      jump\t// in\n    tag_392:\n        /* \"#utility.yul\":9254:9279   */\n      swap3\n      pop\n        /* \"#utility.yul\":9314:9315   */\n      dup3\n        /* \"#utility.yul\":9311:9312   */\n      dup3\n        /* \"#utility.yul\":9307:9316   */\n      mul\n        /* \"#utility.yul\":9336:9366   */\n      tag_393\n        /* \"#utility.yul\":9354:9365   */\n      dup2\n        /* \"#utility.yul\":9336:9366   */\n      tag_258\n      jump\t// in\n    tag_393:\n        /* \"#utility.yul\":9325:9366   */\n      swap2\n      pop\n        /* \"#utility.yul\":9515:9516   */\n      dup3\n        /* \"#utility.yul\":9506:9513   */\n      dup3\n        /* \"#utility.yul\":9502:9517   */\n      div\n        /* \"#utility.yul\":9499:9500   */\n      dup5\n        /* \"#utility.yul\":9496:9518   */\n      eq\n        /* \"#utility.yul\":9476:9477   */\n      dup4\n        /* \"#utility.yul\":9469:9478   */\n      iszero\n        /* \"#utility.yul\":9449:9532   */\n      or\n        /* \"#utility.yul\":9426:9565   */\n      tag_394\n      jumpi\n        /* \"#utility.yul\":9545:9563   */\n      tag_395\n      tag_278\n      jump\t// in\n    tag_395:\n        /* \"#utility.yul\":9426:9565   */\n    tag_394:\n        /* \"#utility.yul\":9210:9572   */\n      pop\n        /* \"#utility.yul\":9162:9572   */\n      swap3\n      swap2\n      pop\n      pop\n      jump\t// out\n        /* \"#utility.yul\":9578:9763   */\n    tag_157:\n        /* \"#utility.yul\":9618:9619   */\n      0x00\n        /* \"#utility.yul\":9635:9655   */\n      tag_397\n        /* \"#utility.yul\":9653:9654   */\n      dup3\n        /* \"#utility.yul\":9635:9655   */\n      tag_258\n      jump\t// in\n    tag_397:\n        /* \"#utility.yul\":9630:9655   */\n      swap2\n      pop\n        /* \"#utility.yul\":9669:9689   */\n      tag_398\n        /* \"#utility.yul\":9687:9688   */\n      dup4\n        /* \"#utility.yul\":9669:9689   */\n      tag_258\n      jump\t// in\n    tag_398:\n        /* \"#utility.yul\":9664:9689   */\n      swap3\n      pop\n        /* \"#utility.yul\":9708:9709   */\n      dup3\n        /* \"#utility.yul\":9698:9733   */\n      tag_399\n      jumpi\n        /* \"#utility.yul\":9713:9731   */\n      tag_400\n      tag_280\n      jump\t// in\n    tag_400:\n        /* \"#utility.yul\":9698:9733   */\n    tag_399:\n        /* \"#utility.yul\":9755:9756   */\n      dup3\n        /* \"#utility.yul\":9752:9753   */\n      dup3\n        /* \"#utility.yul\":9748:9757   */\n      div\n        /* \"#utility.yul\":9743:9757   */\n      swap1\n      pop\n        /* \"#utility.yul\":9578:9763   */\n      swap3\n      swap2\n      pop\n      pop\n      jump\t// out\n        /* \"#utility.yul\":9769:9960   */\n    tag_166:\n        /* \"#utility.yul\":9809:9812   */\n      0x00\n        /* \"#utility.yul\":9828:9848   */\n      tag_402\n        /* \"#utility.yul\":9846:9847   */\n      dup3\n        /* \"#utility.yul\":9828:9848   */\n      tag_258\n      jump\t// in\n    tag_402:\n        /* \"#utility.yul\":9823:9848   */\n      swap2\n      pop\n        /* \"#utility.yul\":9862:9882   */\n      tag_403\n        /* \"#utility.yul\":9880:9881   */\n      dup4\n        /* \"#utility.yul\":9862:9882   */\n      tag_258\n      jump\t// in\n    tag_403:\n        /* \"#utility.yul\":9857:9882   */\n      swap3\n      pop\n        /* \"#utility.yul\":9905:9906   */\n      dup3\n        /* \"#utility.yul\":9902:9903   */\n      dup3\n        /* \"#utility.yul\":9898:9907   */\n      add\n        /* \"#utility.yul\":9891:9907   */\n      swap1\n      pop\n        /* \"#utility.yul\":9926:9929   */\n      dup1\n        /* \"#utility.yul\":9923:9924   */\n      dup3\n        /* \"#utility.yul\":9920:9930   */\n      gt\n        /* \"#utility.yul\":9917:9953   */\n      iszero\n      tag_404\n      jumpi\n        /* \"#utility.yul\":9933:9951   */\n      tag_405\n      tag_278\n      jump\t// in\n    tag_405:\n        /* \"#utility.yul\":9917:9953   */\n    tag_404:\n        /* \"#utility.yul\":9769:9960   */\n      swap3\n      swap2\n      pop\n      pop\n      jump\t// out\n        /* \"#utility.yul\":9966:10194   */\n    tag_281:\n        /* \"#utility.yul\":10106:10140   */\n      0x6572726f722c206272656164696e672c2070617274206964206d757374206265\n        /* \"#utility.yul\":10102:10103   */\n      0x00\n        /* \"#utility.yul\":10094:10100   */\n      dup3\n        /* \"#utility.yul\":10090:10104   */\n      add\n        /* \"#utility.yul\":10083:10141   */\n      mstore\n        /* \"#utility.yul\":10175:10186   */\n      0x20696e2072616e67650000000000000000000000000000000000000000000000\n        /* \"#utility.yul\":10170:10172   */\n      0x20\n        /* \"#utility.yul\":10162:10168   */\n      dup3\n        /* \"#utility.yul\":10158:10173   */\n      add\n        /* \"#utility.yul\":10151:10187   */\n      mstore\n        /* \"#utility.yul\":9966:10194   */\n      pop\n      jump\t// out\n        /* \"#utility.yul\":10200:10566   */\n    tag_282:\n        /* \"#utility.yul\":10342:10345   */\n      0x00\n        /* \"#utility.yul\":10363:10430   */\n      tag_408\n        /* \"#utility.yul\":10427:10429   */\n      0x29\n        /* \"#utility.yul\":10422:10425   */\n      dup4\n        /* \"#utility.yul\":10363:10430   */\n      tag_271\n      jump\t// in\n    tag_408:\n        /* \"#utility.yul\":10356:10430   */\n      swap2\n      pop\n        /* \"#utility.yul\":10439:10532   */\n      tag_409\n        /* \"#utility.yul\":10528:10531   */\n      dup3\n        /* \"#utility.yul\":10439:10532   */\n      tag_281\n      jump\t// in\n    tag_409:\n        /* \"#utility.yul\":10557:10559   */\n      0x40\n        /* \"#utility.yul\":10552:10555   */\n      dup3\n        /* \"#utility.yul\":10548:10560   */\n      add\n        /* \"#utility.yul\":10541:10560   */\n      swap1\n      pop\n        /* \"#utility.yul\":10200:10566   */\n      swap2\n      swap1\n      pop\n      jump\t// out\n        /* \"#utility.yul\":10572:10991   */\n    tag_178:\n        /* \"#utility.yul\":10738:10742   */\n      0x00\n        /* \"#utility.yul\":10776:10778   */\n      0x20\n        /* \"#utility.yul\":10765:10774   */\n      dup3\n        /* \"#utility.yul\":10761:10779   */\n      add\n        /* \"#utility.yul\":10753:10779   */\n      swap1\n      pop\n        /* \"#utility.yul\":10825:10834   */\n      dup2\n        /* \"#utility.yul\":10819:10823   */\n      dup2\n        /* \"#utility.yul\":10815:10835   */\n      sub\n        /* \"#utility.yul\":10811:10812   */\n      0x00\n        /* \"#utility.yul\":10800:10809   */\n      dup4\n        /* \"#utility.yul\":10796:10813   */\n      add\n        /* \"#utility.yul\":10789:10836   */\n      mstore\n        /* \"#utility.yul\":10853:10984   */\n      tag_411\n        /* \"#utility.yul\":10979:10983   */\n      dup2\n        /* \"#utility.yul\":10853:10984   */\n      tag_282\n      jump\t// in\n    tag_411:\n        /* \"#utility.yul\":10845:10984   */\n      swap1\n      pop\n        /* \"#utility.yul\":10572:10991   */\n      swap2\n      swap1\n      pop\n      jump\t// out\n        /* \"#utility.yul\":10997:11164   */\n    tag_188:\n        /* \"#utility.yul\":11034:11037   */\n      0x00\n        /* \"#utility.yul\":11057:11079   */\n      tag_413\n        /* \"#utility.yul\":11073:11078   */\n      dup3\n        /* \"#utility.yul\":11057:11079   */\n      tag_262\n      jump\t// in\n    tag_413:\n        /* \"#utility.yul\":11048:11079   */\n      swap2\n      pop\n        /* \"#utility.yul\":11101:11105   */\n      0xff\n        /* \"#utility.yul\":11094:11099   */\n      dup3\n        /* \"#utility.yul\":11091:11106   */\n      sub\n        /* \"#utility.yul\":11088:11129   */\n      tag_414\n      jumpi\n        /* \"#utility.yul\":11109:11127   */\n      tag_415\n      tag_278\n      jump\t// in\n    tag_415:\n        /* \"#utility.yul\":11088:11129   */\n    tag_414:\n        /* \"#utility.yul\":11156:11157   */\n      0x01\n        /* \"#utility.yul\":11149:11154   */\n      dup3\n        /* \"#utility.yul\":11145:11158   */\n      add\n        /* \"#utility.yul\":11138:11158   */\n      swap1\n      pop\n        /* \"#utility.yul\":10997:11164   */\n      swap2\n      swap1\n      pop\n      jump\t// out\n        /* \"#utility.yul\":11170:11361   */\n    tag_193:\n        /* \"#utility.yul\":11208:11212   */\n      0x00\n        /* \"#utility.yul\":11228:11246   */\n      tag_417\n        /* \"#utility.yul\":11244:11245   */\n      dup3\n        /* \"#utility.yul\":11228:11246   */\n      tag_262\n      jump\t// in\n    tag_417:\n        /* \"#utility.yul\":11223:11246   */\n      swap2\n      pop\n        /* \"#utility.yul\":11260:11278   */\n      tag_418\n        /* \"#utility.yul\":11276:11277   */\n      dup4\n        /* \"#utility.yul\":11260:11278   */\n      tag_262\n      jump\t// in\n    tag_418:\n        /* \"#utility.yul\":11255:11278   */\n      swap3\n      pop\n        /* \"#utility.yul\":11302:11303   */\n      dup3\n        /* \"#utility.yul\":11299:11300   */\n      dup3\n        /* \"#utility.yul\":11295:11304   */\n      sub\n        /* \"#utility.yul\":11287:11304   */\n      swap1\n      pop\n        /* \"#utility.yul\":11326:11330   */\n      0xff\n        /* \"#utility.yul\":11320:11324   */\n      dup2\n        /* \"#utility.yul\":11317:11331   */\n      gt\n        /* \"#utility.yul\":11314:11354   */\n      iszero\n      tag_419\n      jumpi\n        /* \"#utility.yul\":11334:11352   */\n      tag_420\n      tag_278\n      jump\t// in\n    tag_420:\n        /* \"#utility.yul\":11314:11354   */\n    tag_419:\n        /* \"#utility.yul\":11170:11361   */\n      swap3\n      swap2\n      pop\n      pop\n      jump\t// out\n        /* \"#utility.yul\":11367:11592   */\n    tag_283:\n        /* \"#utility.yul\":11507:11541   */\n      0x4f776e61626c653a206e6577206f776e657220697320746865207a65726f2061\n        /* \"#utility.yul\":11503:11504   */\n      0x00\n        /* \"#utility.yul\":11495:11501   */\n      dup3\n        /* \"#utility.yul\":11491:11505   */\n      add\n        /* \"#utility.yul\":11484:11542   */\n      mstore\n        /* \"#utility.yul\":11576:11584   */\n      0x6464726573730000000000000000000000000000000000000000000000000000\n        /* \"#utility.yul\":11571:11573   */\n      0x20\n        /* \"#utility.yul\":11563:11569   */\n      dup3\n        /* \"#utility.yul\":11559:11574   */\n      add\n        /* \"#utility.yul\":11552:11585   */\n      mstore\n        /* \"#utility.yul\":11367:11592   */\n      pop\n      jump\t// out\n        /* \"#utility.yul\":11598:11964   */\n    tag_284:\n        /* \"#utility.yul\":11740:11743   */\n      0x00\n        /* \"#utility.yul\":11761:11828   */\n      tag_423\n        /* \"#utility.yul\":11825:11827   */\n      0x26\n        /* \"#utility.yul\":11820:11823   */\n      dup4\n        /* \"#utility.yul\":11761:11828   */\n      tag_271\n      jump\t// in\n    tag_423:\n        /* \"#utility.yul\":11754:11828   */\n      swap2\n      pop\n        /* \"#utility.yul\":11837:11930   */\n      tag_424\n        /* \"#utility.yul\":11926:11929   */\n      dup3\n        /* \"#utility.yul\":11837:11930   */\n      tag_283\n      jump\t// in\n    tag_424:\n        /* \"#utility.yul\":11955:11957   */\n      0x40\n        /* \"#utility.yul\":11950:11953   */\n      dup3\n        /* \"#utility.yul\":11946:11958   */\n      add\n        /* \"#utility.yul\":11939:11958   */\n      swap1\n      pop\n        /* \"#utility.yul\":11598:11964   */\n      swap2\n      swap1\n      pop\n      jump\t// out\n        /* \"#utility.yul\":11970:12389   */\n    tag_207:\n        /* \"#utility.yul\":12136:12140   */\n      0x00\n        /* \"#utility.yul\":12174:12176   */\n      0x20\n        /* \"#utility.yul\":12163:12172   */\n      dup3\n        /* \"#utility.yul\":12159:12177   */\n      add\n        /* \"#utility.yul\":12151:12177   */\n      swap1\n      pop\n        /* \"#utility.yul\":12223:12232   */\n      dup2\n        /* \"#utility.yul\":12217:12221   */\n      dup2\n        /* \"#utility.yul\":12213:12233   */\n      sub\n        /* \"#utility.yul\":12209:12210   */\n      0x00\n        /* \"#utility.yul\":12198:12207   */\n      dup4\n        /* \"#utility.yul\":12194:12211   */\n      add\n        /* \"#utility.yul\":12187:12234   */\n      mstore\n        /* \"#utility.yul\":12251:12382   */\n      tag_426\n        /* \"#utility.yul\":12377:12381   */\n      dup2\n        /* \"#utility.yul\":12251:12382   */\n      tag_284\n      jump\t// in\n    tag_426:\n        /* \"#utility.yul\":12243:12382   */\n      swap1\n      pop\n        /* \"#utility.yul\":11970:12389   */\n      swap2\n      swap1\n      pop\n      jump\t// out\n        /* \"#utility.yul\":12395:12577   */\n    tag_285:\n        /* \"#utility.yul\":12535:12569   */\n      0x4f776e61626c653a2063616c6c6572206973206e6f7420746865206f776e6572\n        /* \"#utility.yul\":12531:12532   */\n      0x00\n        /* \"#utility.yul\":12523:12529   */\n      dup3\n        /* \"#utility.yul\":12519:12533   */\n      add\n        /* \"#utility.yul\":12512:12570   */\n      mstore\n        /* \"#utility.yul\":12395:12577   */\n      pop\n      jump\t// out\n        /* \"#utility.yul\":12583:12949   */\n    tag_286:\n        /* \"#utility.yul\":12725:12728   */\n      0x00\n        /* \"#utility.yul\":12746:12813   */\n      tag_429\n        /* \"#utility.yul\":12810:12812   */\n      0x20\n        /* \"#utility.yul\":12805:12808   */\n      dup4\n        /* \"#utility.yul\":12746:12813   */\n      tag_271\n      jump\t// in\n    tag_429:\n        /* \"#utility.yul\":12739:12813   */\n      swap2\n      pop\n        /* \"#utility.yul\":12822:12915   */\n      tag_430\n        /* \"#utility.yul\":12911:12914   */\n      dup3\n        /* \"#utility.yul\":12822:12915   */\n      tag_285\n      jump\t// in\n    tag_430:\n        /* \"#utility.yul\":12940:12942   */\n      0x20\n        /* \"#utility.yul\":12935:12938   */\n      dup3\n        /* \"#utility.yul\":12931:12943   */\n      add\n        /* \"#utility.yul\":12924:12943   */\n      swap1\n      pop\n        /* \"#utility.yul\":12583:12949   */\n      swap2\n      swap1\n      pop\n      jump\t// out\n        /* \"#utility.yul\":12955:13374   */\n    tag_215:\n        /* \"#utility.yul\":13121:13125   */\n      0x00\n        /* \"#utility.yul\":13159:13161   */\n      0x20\n        /* \"#utility.yul\":13148:13157   */\n      dup3\n        /* \"#utility.yul\":13144:13162   */\n      add\n        /* \"#utility.yul\":13136:13162   */\n      swap1\n      pop\n        /* \"#utility.yul\":13208:13217   */\n      dup2\n        /* \"#utility.yul\":13202:13206   */\n      dup2\n        /* \"#utility.yul\":13198:13218   */\n      sub\n        /* \"#utility.yul\":13194:13195   */\n      0x00\n        /* \"#utility.yul\":13183:13192   */\n      dup4\n        /* \"#utility.yul\":13179:13196   */\n      add\n        /* \"#utility.yul\":13172:13219   */\n      mstore\n        /* \"#utility.yul\":13236:13367   */\n      tag_432\n        /* \"#utility.yul\":13362:13366   */\n      dup2\n        /* \"#utility.yul\":13236:13367   */\n      tag_286\n      jump\t// in\n    tag_432:\n        /* \"#utility.yul\":13228:13367   */\n      swap1\n      pop\n        /* \"#utility.yul\":12955:13374   */\n      swap2\n      swap1\n      pop\n      jump\t// out\n        /* \"#utility.yul\":13380:13777   */\n    tag_227:\n        /* \"#utility.yul\":13520:13523   */\n      0x00\n        /* \"#utility.yul\":13535:13610   */\n      tag_434\n        /* \"#utility.yul\":13606:13609   */\n      dup3\n        /* \"#utility.yul\":13597:13603   */\n      dup6\n        /* \"#utility.yul\":13535:13610   */\n      tag_275\n      jump\t// in\n    tag_434:\n        /* \"#utility.yul\":13635:13637   */\n      0x20\n        /* \"#utility.yul\":13630:13633   */\n      dup3\n        /* \"#utility.yul\":13626:13638   */\n      add\n        /* \"#utility.yul\":13619:13638   */\n      swap2\n      pop\n        /* \"#utility.yul\":13648:13723   */\n      tag_435\n        /* \"#utility.yul\":13719:13722   */\n      dup3\n        /* \"#utility.yul\":13710:13716   */\n      dup5\n        /* \"#utility.yul\":13648:13723   */\n      tag_275\n      jump\t// in\n    tag_435:\n        /* \"#utility.yul\":13748:13750   */\n      0x20\n        /* \"#utility.yul\":13743:13746   */\n      dup3\n        /* \"#utility.yul\":13739:13751   */\n      add\n        /* \"#utility.yul\":13732:13751   */\n      swap2\n      pop\n        /* \"#utility.yul\":13768:13771   */\n      dup2\n        /* \"#utility.yul\":13761:13771   */\n      swap1\n      pop\n        /* \"#utility.yul\":13380:13777   */\n      swap4\n      swap3\n      pop\n      pop\n      pop\n      jump\t// out\n        /* \"#utility.yul\":13783:13959   */\n    tag_229:\n        /* \"#utility.yul\":13815:13816   */\n      0x00\n        /* \"#utility.yul\":13832:13852   */\n      tag_437\n        /* \"#utility.yul\":13850:13851   */\n      dup3\n        /* \"#utility.yul\":13832:13852   */\n      tag_258\n      jump\t// in\n    tag_437:\n        /* \"#utility.yul\":13827:13852   */\n      swap2\n      pop\n        /* \"#utility.yul\":13866:13886   */\n      tag_438\n        /* \"#utility.yul\":13884:13885   */\n      dup4\n        /* \"#utility.yul\":13866:13886   */\n      tag_258\n      jump\t// in\n    tag_438:\n        /* \"#utility.yul\":13861:13886   */\n      swap3\n      pop\n        /* \"#utility.yul\":13905:13906   */\n      dup3\n        /* \"#utility.yul\":13895:13930   */\n      tag_439\n      jumpi\n        /* \"#utility.yul\":13910:13928   */\n      tag_440\n      tag_280\n      jump\t// in\n    tag_440:\n        /* \"#utility.yul\":13895:13930   */\n    tag_439:\n        /* \"#utility.yul\":13951:13952   */\n      dup3\n        /* \"#utility.yul\":13948:13949   */\n      dup3\n        /* \"#utility.yul\":13944:13953   */\n      mod\n        /* \"#utility.yul\":13939:13953   */\n      swap1\n      pop\n        /* \"#utility.yul\":13783:13959   */\n      swap3\n      swap2\n      pop\n      pop\n      jump\t// out\n        /* \"#utility.yul\":13965:14236   */\n    tag_233:\n        /* \"#utility.yul\":14003:14010   */\n      0x00\n        /* \"#utility.yul\":14026:14044   */\n      tag_442\n        /* \"#utility.yul\":14042:14043   */\n      dup3\n        /* \"#utility.yul\":14026:14044   */\n      tag_262\n      jump\t// in\n    tag_442:\n        /* \"#utility.yul\":14021:14044   */\n      swap2\n      pop\n        /* \"#utility.yul\":14058:14076   */\n      tag_443\n        /* \"#utility.yul\":14074:14075   */\n      dup4\n        /* \"#utility.yul\":14058:14076   */\n      tag_262\n      jump\t// in\n    tag_443:\n        /* \"#utility.yul\":14053:14076   */\n      swap3\n      pop\n        /* \"#utility.yul\":14111:14112   */\n      dup3\n        /* \"#utility.yul\":14108:14109   */\n      dup3\n        /* \"#utility.yul\":14104:14113   */\n      mul\n        /* \"#utility.yul\":14133:14161   */\n      tag_444\n        /* \"#utility.yul\":14149:14160   */\n      dup2\n        /* \"#utility.yul\":14133:14161   */\n      tag_262\n      jump\t// in\n    tag_444:\n        /* \"#utility.yul\":14122:14161   */\n      swap2\n      pop\n        /* \"#utility.yul\":14193:14204   */\n      dup1\n        /* \"#utility.yul\":14184:14191   */\n      dup3\n        /* \"#utility.yul\":14181:14205   */\n      eq\n        /* \"#utility.yul\":14171:14229   */\n      tag_445\n      jumpi\n        /* \"#utility.yul\":14209:14227   */\n      tag_446\n      tag_278\n      jump\t// in\n    tag_446:\n        /* \"#utility.yul\":14171:14229   */\n    tag_445:\n        /* \"#utility.yul\":14011:14236   */\n      pop\n        /* \"#utility.yul\":13965:14236   */\n      swap3\n      swap2\n      pop\n      pop\n      jump\t// out\n\n    auxdata: 0xa2646970667358221220370ccacd55485624ca2310e7ee1c755de1e77ab7c47228a0f5c88af4ffa97f7964736f6c634300081e0033\n}\n",
				"bytecode": {
					"linkReferences": {},
					"object": "60806040525f5f60146101000a81548160ff021916908360ff1602179055506001805560056002556001600355601e60045560016005556024600655348015610046575f5ffd5b5061006361005861006860201b60201c565b61006f60201b60201c565b610130565b5f33905090565b5f5f5f9054906101000a900473ffffffffffffffffffffffffffffffffffffffff169050815f5f6101000a81548173ffffffffffffffffffffffffffffffffffffffff021916908373ffffffffffffffffffffffffffffffffffffffff1602179055508173ffffffffffffffffffffffffffffffffffffffff168173ffffffffffffffffffffffffffffffffffffffff167f8be0079c531659141344cd1fd0a4f28419497f9722a3daafe3b4186f6b6457e060405160405180910390a35050565b6114988061013d5f395ff3fe608060405234801561000f575f5ffd5b5060043610610114575f3560e01c80638da5cb5b116100a0578063e238b8c61161006f578063e238b8c61461027e578063e2e3a0db1461029c578063e4a13fb7146102b8578063eb4b0e51146102ea578063f2fde38b1461030857610114565b80638da5cb5b1461020a57806391b6672514610228578063d477a71214610244578063d6412cfd1461026257610114565b806332099cc4116100e757806332099cc41461018857806343aed9dc146101a6578063615ebe28146101c4578063715018a6146101e2578063878cf3a6146101ec57610114565b806302aff37814610118578063054fee6a1461013457806316bd8646146101505780631bb39f841461016c575b5f5ffd5b610132600480360381019061012d9190610c92565b610324565b005b61014e60048036038101906101499190610c92565b610336565b005b61016a60048036038101906101659190610c92565b610348565b005b61018660048036038101906101819190610c92565b61035a565b005b61019061036c565b60405161019d9190610ccc565b60405180910390f35b6101ae610375565b6040516101bb9190610d00565b60405180910390f35b6101cc61038a565b6040516101d99190610ccc565b60405180910390f35b6101ea610393565b005b6101f46103a6565b6040516102019190610ccc565b60405180910390f35b6102126103af565b60405161021f9190610d58565b60405180910390f35b610242600480360381019061023d9190610c92565b6103d6565b005b61024c6103e8565b6040516102599190610ccc565b60405180910390f35b61027c60048036038101906102779190610d9b565b6103f1565b005b610286610416565b6040516102939190610ccc565b60405180910390f35b6102b660048036038101906102b19190610c92565b61041f565b005b6102d260048036038101906102cd9190610dc6565b610431565b6040516102e193929190610e04565b60405180910390f35b6102f2610842565b6040516102ff9190610ccc565b60405180910390f35b610322600480360381019061031d9190610e63565b61084b565b005b61032c6108cd565b8060018190555050565b61033e6108cd565b8060028190555050565b6103506108cd565b8060068190555050565b6103626108cd565b8060048190555050565b5f600354905090565b5f5f60149054906101000a900460ff16905090565b5f600454905090565b61039b6108cd565b6103a45f61094b565b565b5f600154905090565b5f5f5f9054906101000a900473ffffffffffffffffffffffffffffffffffffffff16905090565b6103de6108cd565b8060038190555050565b5f600654905090565b6103f96108cd565b805f60146101000a81548160ff021916908360ff16021790555050565b5f600254905090565b6104276108cd565b8060058190555050565b5f5f5f5f5f60149054906101000a900460ff1660ff161461050b575f60149054906101000a900460ff1660ff1661046786610a0c565b60ff1610156104ab576040517f08c379a00000000000000000000000000000000000000000000000000000000081526004016104a290610ee8565b60405180910390fd5b5f60149054906101000a900460ff1660ff166104c685610a0c565b60ff16101561050a576040517f08c379a000000000000000000000000000000000000000000000000000000000815260040161050190610ee8565b60405180910390fd5b5b5f424344888860015460405160200161052996959493929190610f26565b604051602081830303815290604052805190602001205f1c90505f8103610585576040517f08c379a000000000000000000000000000000000000000000000000000000000815260040161057c90610fdf565b60405180910390fd5b60015f8154809291906105979061102a565b91905055505f600160026105aa88610a1c565b6105b38a610a1c565b6105bd9190611080565b6105c791906110e4565b6105d19190611080565b90505f600990505f5f90505f94508896508795505f5f90505b828160ff1610156107aa575f61060e8563ffffffff166003546004546103e8610a2b565b90505f6106528785806106209061102a565b96505f6004546103e86003546004546106399190611114565b6106439190611147565b61064d9190611188565b610a68565b82101590505f6001905061067688868061066b9061102a565b97505f6103e8610a68565b600a6002546106859190611147565b106106bc5760ff6106b489878061069b9061102a565b985060055460016006546106af91906111b8565b610a68565b1690506106fd565b6101f46106d98987806106ce9061102a565b98505f6103e8610a68565b106106ef576106e88c85610ac2565b90506106fc565b6106f98d85610ac2565b90505b5b6005548160ff161015801561071757506006548160ff1611155b610756576040517f08c379a000000000000000000000000000000000000000000000000000000000815260040161074d9061125b565b60405180910390fd5b610764898560ff1683610b0e565b9850610775898560ff166001610b69565b9850610792898560ff168461078a575f61078d565b60015b610bc5565b985050505080806107a290611279565b9150506105ea565b505f5f60149054906101000a900460ff1660ff161461081e576107ee895f60149054906101000a900460ff166107df8c610a0c565b6107e991906112a1565b610c21565b965061081b885f60149054906101000a900460ff1661080c8b610a0c565b61081691906112a1565b610c21565b95505b6108288584610c3b565b9450610835856001610c21565b9450505050509250925092565b5f600554905090565b6108536108cd565b5f73ffffffffffffffffffffffffffffffffffffffff168173ffffffffffffffffffffffffffffffffffffffff16036108c1576040517f08c379a00000000000000000000000000000000000000000000000000000000081526004016108b890611345565b60405180910390fd5b6108ca8161094b565b50565b6108d5610c54565b73ffffffffffffffffffffffffffffffffffffffff166108f36103af565b73ffffffffffffffffffffffffffffffffffffffff1614610949576040517f08c379a0000000000000000000000000000000000000000000000000000000008152600401610940906113ad565b60405180910390fd5b565b5f5f5f9054906101000a900473ffffffffffffffffffffffffffffffffffffffff169050815f5f6101000a81548173ffffffffffffffffffffffffffffffffffffffff021916908373ffffffffffffffffffffffffffffffffffffffff1602179055508173ffffffffffffffffffffffffffffffffffffffff168173ffffffffffffffffffffffffffffffffffffffff167f8be0079c531659141344cd1fd0a4f28419497f9722a3daafe3b4186f6b6457e060405160405180910390a35050565b5f60ff60f883901c169050919050565b5f63ffffffff82169050919050565b5f838511610a3b575f9050610a60565b82828587610a499190611114565b610a539190611147565b610a5d9190611188565b90505b949350505050565b5f8282610a759190611114565b8585604051602001610a889291906113cb565b604051602081830303815290604052805190602001205f1c610aaa91906113f6565b90508083610ab891906111b8565b9050949350505050565b5f5f600490505f600384610ad69190611426565b60ff16905060ff60085f8385610aec91906111b8565b610af691906111b8565b610b009190611147565b86901c169250505092915050565b5f5f600490505f600385610b229190611147565b90505f60085f8385610b3491906111b8565b610b3e91906111b8565b610b489190611147565b90508060ff901b1987169650808560ff16901b871793505050509392505050565b5f5f600490505f600385610b7d9190611147565b90505f600860018385610b9091906111b8565b610b9a91906111b8565b610ba49190611147565b90508060ff901b1987169650808560ff16901b871793505050509392505050565b5f5f600490505f600385610bd99190611147565b90505f600860028385610bec91906111b8565b610bf691906111b8565b610c009190611147565b90508060ff901b1987169650808560ff16901b871793505050509392505050565b5f60f88260ff16901b60088085901b901c17905092915050565b5f8163ffffffff1660048085901c901b17905092915050565b5f33905090565b5f5ffd5b5f819050919050565b610c7181610c5f565b8114610c7b575f5ffd5b50565b5f81359050610c8c81610c68565b92915050565b5f60208284031215610ca757610ca6610c5b565b5b5f610cb484828501610c7e565b91505092915050565b610cc681610c5f565b82525050565b5f602082019050610cdf5f830184610cbd565b92915050565b5f60ff82169050919050565b610cfa81610ce5565b82525050565b5f602082019050610d135f830184610cf1565b92915050565b5f73ffffffffffffffffffffffffffffffffffffffff82169050919050565b5f610d4282610d19565b9050919050565b610d5281610d38565b82525050565b5f602082019050610d6b5f830184610d49565b92915050565b610d7a81610ce5565b8114610d84575f5ffd5b50565b5f81359050610d9581610d71565b92915050565b5f60208284031215610db057610daf610c5b565b5b5f610dbd84828501610d87565b91505092915050565b5f5f60408385031215610ddc57610ddb610c5b565b5b5f610de985828601610c7e565b9250506020610dfa85828601610c7e565b9150509250929050565b5f606082019050610e175f830186610cbd565b610e246020830185610cbd565b610e316040830184610cbd565b949350505050565b610e4281610d38565b8114610e4c575f5ffd5b50565b5f81359050610e5d81610e39565b92915050565b5f60208284031215610e7857610e77610c5b565b5b5f610e8584828501610e4f565b91505092915050565b5f82825260208201905092915050565b7f696e73756666696369656e7420636861726765000000000000000000000000005f82015250565b5f610ed2601383610e8e565b9150610edd82610e9e565b602082019050919050565b5f6020820190508181035f830152610eff81610ec6565b9050919050565b5f819050919050565b610f20610f1b82610c5f565b610f06565b82525050565b5f610f318289610f0f565b602082019150610f418288610f0f565b602082019150610f518287610f0f565b602082019150610f618286610f0f565b602082019150610f718285610f0f565b602082019150610f818284610f0f565b602082019150819050979650505050505050565b7f72616e646f6d536565642063616e2774206265203000000000000000000000005f82015250565b5f610fc9601583610e8e565b9150610fd482610f95565b602082019050919050565b5f6020820190508181035f830152610ff681610fbd565b9050919050565b7f4e487b71000000000000000000000000000000000000000000000000000000005f52601160045260245ffd5b5f61103482610c5f565b91507fffffffffffffffffffffffffffffffffffffffffffffffffffffffffffffffff820361106657611065610ffd565b5b600182019050919050565b5f63ffffffff82169050919050565b5f61108a82611071565b915061109583611071565b9250828201905063ffffffff8111156110b1576110b0610ffd565b5b92915050565b7f4e487b71000000000000000000000000000000000000000000000000000000005f52601260045260245ffd5b5f6110ee82611071565b91506110f983611071565b925082611109576111086110b7565b5b828204905092915050565b5f61111e82610c5f565b915061112983610c5f565b925082820390508181111561114157611140610ffd565b5b92915050565b5f61115182610c5f565b915061115c83610c5f565b925082820261116a81610c5f565b9150828204841483151761118157611180610ffd565b5b5092915050565b5f61119282610c5f565b915061119d83610c5f565b9250826111ad576111ac6110b7565b5b828204905092915050565b5f6111c282610c5f565b91506111cd83610c5f565b92508282019050808211156111e5576111e4610ffd565b5b92915050565b7f6572726f722c206272656164696e672c2070617274206964206d7573742062655f8201527f20696e2072616e67650000000000000000000000000000000000000000000000602082015250565b5f611245602983610e8e565b9150611250826111eb565b604082019050919050565b5f6020820190508181035f83015261127281611239565b9050919050565b5f61128382610ce5565b915060ff820361129657611295610ffd565b5b600182019050919050565b5f6112ab82610ce5565b91506112b683610ce5565b9250828203905060ff8111156112cf576112ce610ffd565b5b92915050565b7f4f776e61626c653a206e6577206f776e657220697320746865207a65726f20615f8201527f6464726573730000000000000000000000000000000000000000000000000000602082015250565b5f61132f602683610e8e565b915061133a826112d5565b604082019050919050565b5f6020820190508181035f83015261135c81611323565b9050919050565b7f4f776e61626c653a2063616c6c6572206973206e6f7420746865206f776e65725f82015250565b5f611397602083610e8e565b91506113a282611363565b602082019050919050565b5f6020820190508181035f8301526113c48161138b565b9050919050565b5f6113d68285610f0f565b6020820191506113e68284610f0f565b6020820191508190509392505050565b5f61140082610c5f565b915061140b83610c5f565b92508261141b5761141a6110b7565b5b828206905092915050565b5f61143082610ce5565b915061143b83610ce5565b925082820261144981610ce5565b915080821461145b5761145a610ffd565b5b509291505056fea2646970667358221220370ccacd55485624ca2310e7ee1c755de1e77ab7c47228a0f5c88af4ffa97f7964736f6c634300081e0033",
					"opcodes": "PUSH1 0x80 PUSH1 0x40 MSTORE PUSH0 PUSH0 PUSH1 0x14 PUSH2 0x100 EXP DUP2 SLOAD DUP2 PUSH1 0xFF MUL NOT AND SWAP1 DUP4 PUSH1 0xFF AND MUL OR SWAP1 SSTORE POP PUSH1 0x1 DUP1 SSTORE PUSH1 0x5 PUSH1 0x2 SSTORE PUSH1 0x1 PUSH1 0x3 SSTORE PUSH1 0x1E PUSH1 0x4 SSTORE PUSH1 0x1 PUSH1 0x5 SSTORE PUSH1 0x24 PUSH1 0x6 SSTORE CALLVALUE DUP1 ISZERO PUSH2 0x46 JUMPI PUSH0 PUSH0 REVERT JUMPDEST POP PUSH2 0x63 PUSH2 0x58 PUSH2 0x68 PUSH1 0x20 SHL PUSH1 0x20 SHR JUMP JUMPDEST PUSH2 0x6F PUSH1 0x20 SHL PUSH1 0x20 SHR JUMP JUMPDEST PUSH2 0x130 JUMP JUMPDEST PUSH0 CALLER SWAP1 POP SWAP1 JUMP JUMPDEST PUSH0 PUSH0 PUSH0 SWAP1 SLOAD SWAP1 PUSH2 0x100 EXP SWAP1 DIV PUSH20 0xFFFFFFFFFFFFFFFFFFFFFFFFFFFFFFFFFFFFFFFF AND SWAP1 POP DUP2 PUSH0 PUSH0 PUSH2 0x100 EXP DUP2 SLOAD DUP2 PUSH20 0xFFFFFFFFFFFFFFFFFFFFFFFFFFFFFFFFFFFFFFFF MUL NOT AND SWAP1 DUP4 PUSH20 0xFFFFFFFFFFFFFFFFFFFFFFFFFFFFFFFFFFFFFFFF AND MUL OR SWAP1 SSTORE POP DUP2 PUSH20 0xFFFFFFFFFFFFFFFFFFFFFFFFFFFFFFFFFFFFFFFF AND DUP2 PUSH20 0xFFFFFFFFFFFFFFFFFFFFFFFFFFFFFFFFFFFFFFFF AND PUSH32 0x8BE0079C531659141344CD1FD0A4F28419497F9722A3DAAFE3B4186F6B6457E0 PUSH1 0x40 MLOAD PUSH1 0x40 MLOAD DUP1 SWAP2 SUB SWAP1 LOG3 POP POP JUMP JUMPDEST PUSH2 0x1498 DUP1 PUSH2 0x13D PUSH0 CODECOPY PUSH0 RETURN INVALID PUSH1 0x80 PUSH1 0x40 MSTORE CALLVALUE DUP1 ISZERO PUSH2 0xF JUMPI PUSH0 PUSH0 REVERT JUMPDEST POP PUSH1 0x4 CALLDATASIZE LT PUSH2 0x114 JUMPI PUSH0 CALLDATALOAD PUSH1 0xE0 SHR DUP1 PUSH4 0x8DA5CB5B GT PUSH2 0xA0 JUMPI DUP1 PUSH4 0xE238B8C6 GT PUSH2 0x6F JUMPI DUP1 PUSH4 0xE238B8C6 EQ PUSH2 0x27E JUMPI DUP1 PUSH4 0xE2E3A0DB EQ PUSH2 0x29C JUMPI DUP1 PUSH4 0xE4A13FB7 EQ PUSH2 0x2B8 JUMPI DUP1 PUSH4 0xEB4B0E51 EQ PUSH2 0x2EA JUMPI DUP1 PUSH4 0xF2FDE38B EQ PUSH2 0x308 JUMPI PUSH2 0x114 JUMP JUMPDEST DUP1 PUSH4 0x8DA5CB5B EQ PUSH2 0x20A JUMPI DUP1 PUSH4 0x91B66725 EQ PUSH2 0x228 JUMPI DUP1 PUSH4 0xD477A712 EQ PUSH2 0x244 JUMPI DUP1 PUSH4 0xD6412CFD EQ PUSH2 0x262 JUMPI PUSH2 0x114 JUMP JUMPDEST DUP1 PUSH4 0x32099CC4 GT PUSH2 0xE7 JUMPI DUP1 PUSH4 0x32099CC4 EQ PUSH2 0x188 JUMPI DUP1 PUSH4 0x43AED9DC EQ PUSH2 0x1A6 JUMPI DUP1 PUSH4 0x615EBE28 EQ PUSH2 0x1C4 JUMPI DUP1 PUSH4 0x715018A6 EQ PUSH2 0x1E2 JUMPI DUP1 PUSH4 0x878CF3A6 EQ PUSH2 0x1EC JUMPI PUSH2 0x114 JUMP JUMPDEST DUP1 PUSH4 0x2AFF378 EQ PUSH2 0x118 JUMPI DUP1 PUSH4 0x54FEE6A EQ PUSH2 0x134 JUMPI DUP1 PUSH4 0x16BD8646 EQ PUSH2 0x150 JUMPI DUP1 PUSH4 0x1BB39F84 EQ PUSH2 0x16C JUMPI JUMPDEST PUSH0 PUSH0 REVERT JUMPDEST PUSH2 0x132 PUSH1 0x4 DUP1 CALLDATASIZE SUB DUP2 ADD SWAP1 PUSH2 0x12D SWAP2 SWAP1 PUSH2 0xC92 JUMP JUMPDEST PUSH2 0x324 JUMP JUMPDEST STOP JUMPDEST PUSH2 0x14E PUSH1 0x4 DUP1 CALLDATASIZE SUB DUP2 ADD SWAP1 PUSH2 0x149 SWAP2 SWAP1 PUSH2 0xC92 JUMP JUMPDEST PUSH2 0x336 JUMP JUMPDEST STOP JUMPDEST PUSH2 0x16A PUSH1 0x4 DUP1 CALLDATASIZE SUB DUP2 ADD SWAP1 PUSH2 0x165 SWAP2 SWAP1 PUSH2 0xC92 JUMP JUMPDEST PUSH2 0x348 JUMP JUMPDEST STOP JUMPDEST PUSH2 0x186 PUSH1 0x4 DUP1 CALLDATASIZE SUB DUP2 ADD SWAP1 PUSH2 0x181 SWAP2 SWAP1 PUSH2 0xC92 JUMP JUMPDEST PUSH2 0x35A JUMP JUMPDEST STOP JUMPDEST PUSH2 0x190 PUSH2 0x36C JUMP JUMPDEST PUSH1 0x40 MLOAD PUSH2 0x19D SWAP2 SWAP1 PUSH2 0xCCC JUMP JUMPDEST PUSH1 0x40 MLOAD DUP1 SWAP2 SUB SWAP1 RETURN JUMPDEST PUSH2 0x1AE PUSH2 0x375 JUMP JUMPDEST PUSH1 0x40 MLOAD PUSH2 0x1BB SWAP2 SWAP1 PUSH2 0xD00 JUMP JUMPDEST PUSH1 0x40 MLOAD DUP1 SWAP2 SUB SWAP1 RETURN JUMPDEST PUSH2 0x1CC PUSH2 0x38A JUMP JUMPDEST PUSH1 0x40 MLOAD PUSH2 0x1D9 SWAP2 SWAP1 PUSH2 0xCCC JUMP JUMPDEST PUSH1 0x40 MLOAD DUP1 SWAP2 SUB SWAP1 RETURN JUMPDEST PUSH2 0x1EA PUSH2 0x393 JUMP JUMPDEST STOP JUMPDEST PUSH2 0x1F4 PUSH2 0x3A6 JUMP JUMPDEST PUSH1 0x40 MLOAD PUSH2 0x201 SWAP2 SWAP1 PUSH2 0xCCC JUMP JUMPDEST PUSH1 0x40 MLOAD DUP1 SWAP2 SUB SWAP1 RETURN JUMPDEST PUSH2 0x212 PUSH2 0x3AF JUMP JUMPDEST PUSH1 0x40 MLOAD PUSH2 0x21F SWAP2 SWAP1 PUSH2 0xD58 JUMP JUMPDEST PUSH1 0x40 MLOAD DUP1 SWAP2 SUB SWAP1 RETURN JUMPDEST PUSH2 0x242 PUSH1 0x4 DUP1 CALLDATASIZE SUB DUP2 ADD SWAP1 PUSH2 0x23D SWAP2 SWAP1 PUSH2 0xC92 JUMP JUMPDEST PUSH2 0x3D6 JUMP JUMPDEST STOP JUMPDEST PUSH2 0x24C PUSH2 0x3E8 JUMP JUMPDEST PUSH1 0x40 MLOAD PUSH2 0x259 SWAP2 SWAP1 PUSH2 0xCCC JUMP JUMPDEST PUSH1 0x40 MLOAD DUP1 SWAP2 SUB SWAP1 RETURN JUMPDEST PUSH2 0x27C PUSH1 0x4 DUP1 CALLDATASIZE SUB DUP2 ADD SWAP1 PUSH2 0x277 SWAP2 SWAP1 PUSH2 0xD9B JUMP JUMPDEST PUSH2 0x3F1 JUMP JUMPDEST STOP JUMPDEST PUSH2 0x286 PUSH2 0x416 JUMP JUMPDEST PUSH1 0x40 MLOAD PUSH2 0x293 SWAP2 SWAP1 PUSH2 0xCCC JUMP JUMPDEST PUSH1 0x40 MLOAD DUP1 SWAP2 SUB SWAP1 RETURN JUMPDEST PUSH2 0x2B6 PUSH1 0x4 DUP1 CALLDATASIZE SUB DUP2 ADD SWAP1 PUSH2 0x2B1 SWAP2 SWAP1 PUSH2 0xC92 JUMP JUMPDEST PUSH2 0x41F JUMP JUMPDEST STOP JUMPDEST PUSH2 0x2D2 PUSH1 0x4 DUP1 CALLDATASIZE SUB DUP2 ADD SWAP1 PUSH2 0x2CD SWAP2 SWAP1 PUSH2 0xDC6 JUMP JUMPDEST PUSH2 0x431 JUMP JUMPDEST PUSH1 0x40 MLOAD PUSH2 0x2E1 SWAP4 SWAP3 SWAP2 SWAP1 PUSH2 0xE04 JUMP JUMPDEST PUSH1 0x40 MLOAD DUP1 SWAP2 SUB SWAP1 RETURN JUMPDEST PUSH2 0x2F2 PUSH2 0x842 JUMP JUMPDEST PUSH1 0x40 MLOAD PUSH2 0x2FF SWAP2 SWAP1 PUSH2 0xCCC JUMP JUMPDEST PUSH1 0x40 MLOAD DUP1 SWAP2 SUB SWAP1 RETURN JUMPDEST PUSH2 0x322 PUSH1 0x4 DUP1 CALLDATASIZE SUB DUP2 ADD SWAP1 PUSH2 0x31D SWAP2 SWAP1 PUSH2 0xE63 JUMP JUMPDEST PUSH2 0x84B JUMP JUMPDEST STOP JUMPDEST PUSH2 0x32C PUSH2 0x8CD JUMP JUMPDEST DUP1 PUSH1 0x1 DUP2 SWAP1 SSTORE POP POP JUMP JUMPDEST PUSH2 0x33E PUSH2 0x8CD JUMP JUMPDEST DUP1 PUSH1 0x2 DUP2 SWAP1 SSTORE POP POP JUMP JUMPDEST PUSH2 0x350 PUSH2 0x8CD JUMP JUMPDEST DUP1 PUSH1 0x6 DUP2 SWAP1 SSTORE POP POP JUMP JUMPDEST PUSH2 0x362 PUSH2 0x8CD JUMP JUMPDEST DUP1 PUSH1 0x4 DUP2 SWAP1 SSTORE POP POP JUMP JUMPDEST PUSH0 PUSH1 0x3 SLOAD SWAP1 POP SWAP1 JUMP JUMPDEST PUSH0 PUSH0 PUSH1 0x14 SWAP1 SLOAD SWAP1 PUSH2 0x100 EXP SWAP1 DIV PUSH1 0xFF AND SWAP1 POP SWAP1 JUMP JUMPDEST PUSH0 PUSH1 0x4 SLOAD SWAP1 POP SWAP1 JUMP JUMPDEST PUSH2 0x39B PUSH2 0x8CD JUMP JUMPDEST PUSH2 0x3A4 PUSH0 PUSH2 0x94B JUMP JUMPDEST JUMP JUMPDEST PUSH0 PUSH1 0x1 SLOAD SWAP1 POP SWAP1 JUMP JUMPDEST PUSH0 PUSH0 PUSH0 SWAP1 SLOAD SWAP1 PUSH2 0x100 EXP SWAP1 DIV PUSH20 0xFFFFFFFFFFFFFFFFFFFFFFFFFFFFFFFFFFFFFFFF AND SWAP1 POP SWAP1 JUMP JUMPDEST PUSH2 0x3DE PUSH2 0x8CD JUMP JUMPDEST DUP1 PUSH1 0x3 DUP2 SWAP1 SSTORE POP POP JUMP JUMPDEST PUSH0 PUSH1 0x6 SLOAD SWAP1 POP SWAP1 JUMP JUMPDEST PUSH2 0x3F9 PUSH2 0x8CD JUMP JUMPDEST DUP1 PUSH0 PUSH1 0x14 PUSH2 0x100 EXP DUP2 SLOAD DUP2 PUSH1 0xFF MUL NOT AND SWAP1 DUP4 PUSH1 0xFF AND MUL OR SWAP1 SSTORE POP POP JUMP JUMPDEST PUSH0 PUSH1 0x2 SLOAD SWAP1 POP SWAP1 JUMP JUMPDEST PUSH2 0x427 PUSH2 0x8CD JUMP JUMPDEST DUP1 PUSH1 0x5 DUP2 SWAP1 SSTORE POP POP JUMP JUMPDEST PUSH0 PUSH0 PUSH0 PUSH0 PUSH0 PUSH1 0x14 SWAP1 SLOAD SWAP1 PUSH2 0x100 EXP SWAP1 DIV PUSH1 0xFF AND PUSH1 0xFF AND EQ PUSH2 0x50B JUMPI PUSH0 PUSH1 0x14 SWAP1 SLOAD SWAP1 PUSH2 0x100 EXP SWAP1 DIV PUSH1 0xFF AND PUSH1 0xFF AND PUSH2 0x467 DUP7 PUSH2 0xA0C JUMP JUMPDEST PUSH1 0xFF AND LT ISZERO PUSH2 0x4AB JUMPI PUSH1 0x40 MLOAD PUSH32 0x8C379A000000000000000000000000000000000000000000000000000000000 DUP2 MSTORE PUSH1 0x4 ADD PUSH2 0x4A2 SWAP1 PUSH2 0xEE8 JUMP JUMPDEST PUSH1 0x40 MLOAD DUP1 SWAP2 SUB SWAP1 REVERT JUMPDEST PUSH0 PUSH1 0x14 SWAP1 SLOAD SWAP1 PUSH2 0x100 EXP SWAP1 DIV PUSH1 0xFF AND PUSH1 0xFF AND PUSH2 0x4C6 DUP6 PUSH2 0xA0C JUMP JUMPDEST PUSH1 0xFF AND LT ISZERO PUSH2 0x50A JUMPI PUSH1 0x40 MLOAD PUSH32 0x8C379A000000000000000000000000000000000000000000000000000000000 DUP2 MSTORE PUSH1 0x4 ADD PUSH2 0x501 SWAP1 PUSH2 0xEE8 JUMP JUMPDEST PUSH1 0x40 MLOAD DUP1 SWAP2 SUB SWAP1 REVERT JUMPDEST JUMPDEST PUSH0 TIMESTAMP NUMBER PREVRANDAO DUP9 DUP9 PUSH1 0x1 SLOAD PUSH1 0x40 MLOAD PUSH1 0x20 ADD PUSH2 0x529 SWAP7 SWAP6 SWAP5 SWAP4 SWAP3 SWAP2 SWAP1 PUSH2 0xF26 JUMP JUMPDEST PUSH1 0x40 MLOAD PUSH1 0x20 DUP2 DUP4 SUB SUB DUP2 MSTORE SWAP1 PUSH1 0x40 MSTORE DUP1 MLOAD SWAP1 PUSH1 0x20 ADD KECCAK256 PUSH0 SHR SWAP1 POP PUSH0 DUP2 SUB PUSH2 0x585 JUMPI PUSH1 0x40 MLOAD PUSH32 0x8C379A000000000000000000000000000000000000000000000000000000000 DUP2 MSTORE PUSH1 0x4 ADD PUSH2 0x57C SWAP1 PUSH2 0xFDF JUMP JUMPDEST PUSH1 0x40 MLOAD DUP1 SWAP2 SUB SWAP1 REVERT JUMPDEST PUSH1 0x1 PUSH0 DUP2 SLOAD DUP1 SWAP3 SWAP2 SWAP1 PUSH2 0x597 SWAP1 PUSH2 0x102A JUMP JUMPDEST SWAP2 SWAP1 POP SSTORE POP PUSH0 PUSH1 0x1 PUSH1 0x2 PUSH2 0x5AA DUP9 PUSH2 0xA1C JUMP JUMPDEST PUSH2 0x5B3 DUP11 PUSH2 0xA1C JUMP JUMPDEST PUSH2 0x5BD SWAP2 SWAP1 PUSH2 0x1080 JUMP JUMPDEST PUSH2 0x5C7 SWAP2 SWAP1 PUSH2 0x10E4 JUMP JUMPDEST PUSH2 0x5D1 SWAP2 SWAP1 PUSH2 0x1080 JUMP JUMPDEST SWAP1 POP PUSH0 PUSH1 0x9 SWAP1 POP PUSH0 PUSH0 SWAP1 POP PUSH0 SWAP5 POP DUP9 SWAP7 POP DUP8 SWAP6 POP PUSH0 PUSH0 SWAP1 POP JUMPDEST DUP3 DUP2 PUSH1 0xFF AND LT ISZERO PUSH2 0x7AA JUMPI PUSH0 PUSH2 0x60E DUP6 PUSH4 0xFFFFFFFF AND PUSH1 0x3 SLOAD PUSH1 0x4 SLOAD PUSH2 0x3E8 PUSH2 0xA2B JUMP JUMPDEST SWAP1 POP PUSH0 PUSH2 0x652 DUP8 DUP6 DUP1 PUSH2 0x620 SWAP1 PUSH2 0x102A JUMP JUMPDEST SWAP7 POP PUSH0 PUSH1 0x4 SLOAD PUSH2 0x3E8 PUSH1 0x3 SLOAD PUSH1 0x4 SLOAD PUSH2 0x639 SWAP2 SWAP1 PUSH2 0x1114 JUMP JUMPDEST PUSH2 0x643 SWAP2 SWAP1 PUSH2 0x1147 JUMP JUMPDEST PUSH2 0x64D SWAP2 SWAP1 PUSH2 0x1188 JUMP JUMPDEST PUSH2 0xA68 JUMP JUMPDEST DUP3 LT ISZERO SWAP1 POP PUSH0 PUSH1 0x1 SWAP1 POP PUSH2 0x676 DUP9 DUP7 DUP1 PUSH2 0x66B SWAP1 PUSH2 0x102A JUMP JUMPDEST SWAP8 POP PUSH0 PUSH2 0x3E8 PUSH2 0xA68 JUMP JUMPDEST PUSH1 0xA PUSH1 0x2 SLOAD PUSH2 0x685 SWAP2 SWAP1 PUSH2 0x1147 JUMP JUMPDEST LT PUSH2 0x6BC JUMPI PUSH1 0xFF PUSH2 0x6B4 DUP10 DUP8 DUP1 PUSH2 0x69B SWAP1 PUSH2 0x102A JUMP JUMPDEST SWAP9 POP PUSH1 0x5 SLOAD PUSH1 0x1 PUSH1 0x6 SLOAD PUSH2 0x6AF SWAP2 SWAP1 PUSH2 0x11B8 JUMP JUMPDEST PUSH2 0xA68 JUMP JUMPDEST AND SWAP1 POP PUSH2 0x6FD JUMP JUMPDEST PUSH2 0x1F4 PUSH2 0x6D9 DUP10 DUP8 DUP1 PUSH2 0x6CE SWAP1 PUSH2 0x102A JUMP JUMPDEST SWAP9 POP PUSH0 PUSH2 0x3E8 PUSH2 0xA68 JUMP JUMPDEST LT PUSH2 0x6EF JUMPI PUSH2 0x6E8 DUP13 DUP6 PUSH2 0xAC2 JUMP JUMPDEST SWAP1 POP PUSH2 0x6FC JUMP JUMPDEST PUSH2 0x6F9 DUP14 DUP6 PUSH2 0xAC2 JUMP JUMPDEST SWAP1 POP JUMPDEST JUMPDEST PUSH1 0x5 SLOAD DUP2 PUSH1 0xFF AND LT ISZERO DUP1 ISZERO PUSH2 0x717 JUMPI POP PUSH1 0x6 SLOAD DUP2 PUSH1 0xFF AND GT ISZERO JUMPDEST PUSH2 0x756 JUMPI PUSH1 0x40 MLOAD PUSH32 0x8C379A000000000000000000000000000000000000000000000000000000000 DUP2 MSTORE PUSH1 0x4 ADD PUSH2 0x74D SWAP1 PUSH2 0x125B JUMP JUMPDEST PUSH1 0x40 MLOAD DUP1 SWAP2 SUB SWAP1 REVERT JUMPDEST PUSH2 0x764 DUP10 DUP6 PUSH1 0xFF AND DUP4 PUSH2 0xB0E JUMP JUMPDEST SWAP9 POP PUSH2 0x775 DUP10 DUP6 PUSH1 0xFF AND PUSH1 0x1 PUSH2 0xB69 JUMP JUMPDEST SWAP9 POP PUSH2 0x792 DUP10 DUP6 PUSH1 0xFF AND DUP5 PUSH2 0x78A JUMPI PUSH0 PUSH2 0x78D JUMP JUMPDEST PUSH1 0x1 JUMPDEST PUSH2 0xBC5 JUMP JUMPDEST SWAP9 POP POP POP POP DUP1 DUP1 PUSH2 0x7A2 SWAP1 PUSH2 0x1279 JUMP JUMPDEST SWAP2 POP POP PUSH2 0x5EA JUMP JUMPDEST POP PUSH0 PUSH0 PUSH1 0x14 SWAP1 SLOAD SWAP1 PUSH2 0x100 EXP SWAP1 DIV PUSH1 0xFF AND PUSH1 0xFF AND EQ PUSH2 0x81E JUMPI PUSH2 0x7EE DUP10 PUSH0 PUSH1 0x14 SWAP1 SLOAD SWAP1 PUSH2 0x100 EXP SWAP1 DIV PUSH1 0xFF AND PUSH2 0x7DF DUP13 PUSH2 0xA0C JUMP JUMPDEST PUSH2 0x7E9 SWAP2 SWAP1 PUSH2 0x12A1 JUMP JUMPDEST PUSH2 0xC21 JUMP JUMPDEST SWAP7 POP PUSH2 0x81B DUP9 PUSH0 PUSH1 0x14 SWAP1 SLOAD SWAP1 PUSH2 0x100 EXP SWAP1 DIV PUSH1 0xFF AND PUSH2 0x80C DUP12 PUSH2 0xA0C JUMP JUMPDEST PUSH2 0x816 SWAP2 SWAP1 PUSH2 0x12A1 JUMP JUMPDEST PUSH2 0xC21 JUMP JUMPDEST SWAP6 POP JUMPDEST PUSH2 0x828 DUP6 DUP5 PUSH2 0xC3B JUMP JUMPDEST SWAP5 POP PUSH2 0x835 DUP6 PUSH1 0x1 PUSH2 0xC21 JUMP JUMPDEST SWAP5 POP POP POP POP POP SWAP3 POP SWAP3 POP SWAP3 JUMP JUMPDEST PUSH0 PUSH1 0x5 SLOAD SWAP1 POP SWAP1 JUMP JUMPDEST PUSH2 0x853 PUSH2 0x8CD JUMP JUMPDEST PUSH0 PUSH20 0xFFFFFFFFFFFFFFFFFFFFFFFFFFFFFFFFFFFFFFFF AND DUP2 PUSH20 0xFFFFFFFFFFFFFFFFFFFFFFFFFFFFFFFFFFFFFFFF AND SUB PUSH2 0x8C1 JUMPI PUSH1 0x40 MLOAD PUSH32 0x8C379A000000000000000000000000000000000000000000000000000000000 DUP2 MSTORE PUSH1 0x4 ADD PUSH2 0x8B8 SWAP1 PUSH2 0x1345 JUMP JUMPDEST PUSH1 0x40 MLOAD DUP1 SWAP2 SUB SWAP1 REVERT JUMPDEST PUSH2 0x8CA DUP2 PUSH2 0x94B JUMP JUMPDEST POP JUMP JUMPDEST PUSH2 0x8D5 PUSH2 0xC54 JUMP JUMPDEST PUSH20 0xFFFFFFFFFFFFFFFFFFFFFFFFFFFFFFFFFFFFFFFF AND PUSH2 0x8F3 PUSH2 0x3AF JUMP JUMPDEST PUSH20 0xFFFFFFFFFFFFFFFFFFFFFFFFFFFFFFFFFFFFFFFF AND EQ PUSH2 0x949 JUMPI PUSH1 0x40 MLOAD PUSH32 0x8C379A000000000000000000000000000000000000000000000000000000000 DUP2 MSTORE PUSH1 0x4 ADD PUSH2 0x940 SWAP1 PUSH2 0x13AD JUMP JUMPDEST PUSH1 0x40 MLOAD DUP1 SWAP2 SUB SWAP1 REVERT JUMPDEST JUMP JUMPDEST PUSH0 PUSH0 PUSH0 SWAP1 SLOAD SWAP1 PUSH2 0x100 EXP SWAP1 DIV PUSH20 0xFFFFFFFFFFFFFFFFFFFFFFFFFFFFFFFFFFFFFFFF AND SWAP1 POP DUP2 PUSH0 PUSH0 PUSH2 0x100 EXP DUP2 SLOAD DUP2 PUSH20 0xFFFFFFFFFFFFFFFFFFFFFFFFFFFFFFFFFFFFFFFF MUL NOT AND SWAP1 DUP4 PUSH20 0xFFFFFFFFFFFFFFFFFFFFFFFFFFFFFFFFFFFFFFFF AND MUL OR SWAP1 SSTORE POP DUP2 PUSH20 0xFFFFFFFFFFFFFFFFFFFFFFFFFFFFFFFFFFFFFFFF AND DUP2 PUSH20 0xFFFFFFFFFFFFFFFFFFFFFFFFFFFFFFFFFFFFFFFF AND PUSH32 0x8BE0079C531659141344CD1FD0A4F28419497F9722A3DAAFE3B4186F6B6457E0 PUSH1 0x40 MLOAD PUSH1 0x40 MLOAD DUP1 SWAP2 SUB SWAP1 LOG3 POP POP JUMP JUMPDEST PUSH0 PUSH1 0xFF PUSH1 0xF8 DUP4 SWAP1 SHR AND SWAP1 POP SWAP2 SWAP1 POP JUMP JUMPDEST PUSH0 PUSH4 0xFFFFFFFF DUP3 AND SWAP1 POP SWAP2 SWAP1 POP JUMP JUMPDEST PUSH0 DUP4 DUP6 GT PUSH2 0xA3B JUMPI PUSH0 SWAP1 POP PUSH2 0xA60 JUMP JUMPDEST DUP3 DUP3 DUP6 DUP8 PUSH2 0xA49 SWAP2 SWAP1 PUSH2 0x1114 JUMP JUMPDEST PUSH2 0xA53 SWAP2 SWAP1 PUSH2 0x1147 JUMP JUMPDEST PUSH2 0xA5D SWAP2 SWAP1 PUSH2 0x1188 JUMP JUMPDEST SWAP1 POP JUMPDEST SWAP5 SWAP4 POP POP POP POP JUMP JUMPDEST PUSH0 DUP3 DUP3 PUSH2 0xA75 SWAP2 SWAP1 PUSH2 0x1114 JUMP JUMPDEST DUP6 DUP6 PUSH1 0x40 MLOAD PUSH1 0x20 ADD PUSH2 0xA88 SWAP3 SWAP2 SWAP1 PUSH2 0x13CB JUMP JUMPDEST PUSH1 0x40 MLOAD PUSH1 0x20 DUP2 DUP4 SUB SUB DUP2 MSTORE SWAP1 PUSH1 0x40 MSTORE DUP1 MLOAD SWAP1 PUSH1 0x20 ADD KECCAK256 PUSH0 SHR PUSH2 0xAAA SWAP2 SWAP1 PUSH2 0x13F6 JUMP JUMPDEST SWAP1 POP DUP1 DUP4 PUSH2 0xAB8 SWAP2 SWAP1 PUSH2 0x11B8 JUMP JUMPDEST SWAP1 POP SWAP5 SWAP4 POP POP POP POP JUMP JUMPDEST PUSH0 PUSH0 PUSH1 0x4 SWAP1 POP PUSH0 PUSH1 0x3 DUP5 PUSH2 0xAD6 SWAP2 SWAP1 PUSH2 0x1426 JUMP JUMPDEST PUSH1 0xFF AND SWAP1 POP PUSH1 0xFF PUSH1 0x8 PUSH0 DUP4 DUP6 PUSH2 0xAEC SWAP2 SWAP1 PUSH2 0x11B8 JUMP JUMPDEST PUSH2 0xAF6 SWAP2 SWAP1 PUSH2 0x11B8 JUMP JUMPDEST PUSH2 0xB00 SWAP2 SWAP1 PUSH2 0x1147 JUMP JUMPDEST DUP7 SWAP1 SHR AND SWAP3 POP POP POP SWAP3 SWAP2 POP POP JUMP JUMPDEST PUSH0 PUSH0 PUSH1 0x4 SWAP1 POP PUSH0 PUSH1 0x3 DUP6 PUSH2 0xB22 SWAP2 SWAP1 PUSH2 0x1147 JUMP JUMPDEST SWAP1 POP PUSH0 PUSH1 0x8 PUSH0 DUP4 DUP6 PUSH2 0xB34 SWAP2 SWAP1 PUSH2 0x11B8 JUMP JUMPDEST PUSH2 0xB3E SWAP2 SWAP1 PUSH2 0x11B8 JUMP JUMPDEST PUSH2 0xB48 SWAP2 SWAP1 PUSH2 0x1147 JUMP JUMPDEST SWAP1 POP DUP1 PUSH1 0xFF SWAP1 SHL NOT DUP8 AND SWAP7 POP DUP1 DUP6 PUSH1 0xFF AND SWAP1 SHL DUP8 OR SWAP4 POP POP POP POP SWAP4 SWAP3 POP POP POP JUMP JUMPDEST PUSH0 PUSH0 PUSH1 0x4 SWAP1 POP PUSH0 PUSH1 0x3 DUP6 PUSH2 0xB7D SWAP2 SWAP1 PUSH2 0x1147 JUMP JUMPDEST SWAP1 POP PUSH0 PUSH1 0x8 PUSH1 0x1 DUP4 DUP6 PUSH2 0xB90 SWAP2 SWAP1 PUSH2 0x11B8 JUMP JUMPDEST PUSH2 0xB9A SWAP2 SWAP1 PUSH2 0x11B8 JUMP JUMPDEST PUSH2 0xBA4 SWAP2 SWAP1 PUSH2 0x1147 JUMP JUMPDEST SWAP1 POP DUP1 PUSH1 0xFF SWAP1 SHL NOT DUP8 AND SWAP7 POP DUP1 DUP6 PUSH1 0xFF AND SWAP1 SHL DUP8 OR SWAP4 POP POP POP POP SWAP4 SWAP3 POP POP POP JUMP JUMPDEST PUSH0 PUSH0 PUSH1 0x4 SWAP1 POP PUSH0 PUSH1 0x3 DUP6 PUSH2 0xBD9 SWAP2 SWAP1 PUSH2 0x1147 JUMP JUMPDEST SWAP1 POP PUSH0 PUSH1 0x8 PUSH1 0x2 DUP4 DUP6 PUSH2 0xBEC SWAP2 SWAP1 PUSH2 0x11B8 JUMP JUMPDEST PUSH2 0xBF6 SWAP2 SWAP1 PUSH2 0x11B8 JUMP JUMPDEST PUSH2 0xC00 SWAP2 SWAP1 PUSH2 0x1147 JUMP JUMPDEST SWAP1 POP DUP1 PUSH1 0xFF SWAP1 SHL NOT DUP8 AND SWAP7 POP DUP1 DUP6 PUSH1 0xFF AND SWAP1 SHL DUP8 OR SWAP4 POP POP POP POP SWAP4 SWAP3 POP POP POP JUMP JUMPDEST PUSH0 PUSH1 0xF8 DUP3 PUSH1 0xFF AND SWAP1 SHL PUSH1 0x8 DUP1 DUP6 SWAP1 SHL SWAP1 SHR OR SWAP1 POP SWAP3 SWAP2 POP POP JUMP JUMPDEST PUSH0 DUP2 PUSH4 0xFFFFFFFF AND PUSH1 0x4 DUP1 DUP6 SWAP1 SHR SWAP1 SHL OR SWAP1 POP SWAP3 SWAP2 POP POP JUMP JUMPDEST PUSH0 CALLER SWAP1 POP SWAP1 JUMP JUMPDEST PUSH0 PUSH0 REVERT JUMPDEST PUSH0 DUP2 SWAP1 POP SWAP2 SWAP1 POP JUMP JUMPDEST PUSH2 0xC71 DUP2 PUSH2 0xC5F JUMP JUMPDEST DUP2 EQ PUSH2 0xC7B JUMPI PUSH0 PUSH0 REVERT JUMPDEST POP JUMP JUMPDEST PUSH0 DUP2 CALLDATALOAD SWAP1 POP PUSH2 0xC8C DUP2 PUSH2 0xC68 JUMP JUMPDEST SWAP3 SWAP2 POP POP JUMP JUMPDEST PUSH0 PUSH1 0x20 DUP3 DUP5 SUB SLT ISZERO PUSH2 0xCA7 JUMPI PUSH2 0xCA6 PUSH2 0xC5B JUMP JUMPDEST JUMPDEST PUSH0 PUSH2 0xCB4 DUP5 DUP3 DUP6 ADD PUSH2 0xC7E JUMP JUMPDEST SWAP2 POP POP SWAP3 SWAP2 POP POP JUMP JUMPDEST PUSH2 0xCC6 DUP2 PUSH2 0xC5F JUMP JUMPDEST DUP3 MSTORE POP POP JUMP JUMPDEST PUSH0 PUSH1 0x20 DUP3 ADD SWAP1 POP PUSH2 0xCDF PUSH0 DUP4 ADD DUP5 PUSH2 0xCBD JUMP JUMPDEST SWAP3 SWAP2 POP POP JUMP JUMPDEST PUSH0 PUSH1 0xFF DUP3 AND SWAP1 POP SWAP2 SWAP1 POP JUMP JUMPDEST PUSH2 0xCFA DUP2 PUSH2 0xCE5 JUMP JUMPDEST DUP3 MSTORE POP POP JUMP JUMPDEST PUSH0 PUSH1 0x20 DUP3 ADD SWAP1 POP PUSH2 0xD13 PUSH0 DUP4 ADD DUP5 PUSH2 0xCF1 JUMP JUMPDEST SWAP3 SWAP2 POP POP JUMP JUMPDEST PUSH0 PUSH20 0xFFFFFFFFFFFFFFFFFFFFFFFFFFFFFFFFFFFFFFFF DUP3 AND SWAP1 POP SWAP2 SWAP1 POP JUMP JUMPDEST PUSH0 PUSH2 0xD42 DUP3 PUSH2 0xD19 JUMP JUMPDEST SWAP1 POP SWAP2 SWAP1 POP JUMP JUMPDEST PUSH2 0xD52 DUP2 PUSH2 0xD38 JUMP JUMPDEST DUP3 MSTORE POP POP JUMP JUMPDEST PUSH0 PUSH1 0x20 DUP3 ADD SWAP1 POP PUSH2 0xD6B PUSH0 DUP4 ADD DUP5 PUSH2 0xD49 JUMP JUMPDEST SWAP3 SWAP2 POP POP JUMP JUMPDEST PUSH2 0xD7A DUP2 PUSH2 0xCE5 JUMP JUMPDEST DUP2 EQ PUSH2 0xD84 JUMPI PUSH0 PUSH0 REVERT JUMPDEST POP JUMP JUMPDEST PUSH0 DUP2 CALLDATALOAD SWAP1 POP PUSH2 0xD95 DUP2 PUSH2 0xD71 JUMP JUMPDEST SWAP3 SWAP2 POP POP JUMP JUMPDEST PUSH0 PUSH1 0x20 DUP3 DUP5 SUB SLT ISZERO PUSH2 0xDB0 JUMPI PUSH2 0xDAF PUSH2 0xC5B JUMP JUMPDEST JUMPDEST PUSH0 PUSH2 0xDBD DUP5 DUP3 DUP6 ADD PUSH2 0xD87 JUMP JUMPDEST SWAP2 POP POP SWAP3 SWAP2 POP POP JUMP JUMPDEST PUSH0 PUSH0 PUSH1 0x40 DUP4 DUP6 SUB SLT ISZERO PUSH2 0xDDC JUMPI PUSH2 0xDDB PUSH2 0xC5B JUMP JUMPDEST JUMPDEST PUSH0 PUSH2 0xDE9 DUP6 DUP3 DUP7 ADD PUSH2 0xC7E JUMP JUMPDEST SWAP3 POP POP PUSH1 0x20 PUSH2 0xDFA DUP6 DUP3 DUP7 ADD PUSH2 0xC7E JUMP JUMPDEST SWAP2 POP POP SWAP3 POP SWAP3 SWAP1 POP JUMP JUMPDEST PUSH0 PUSH1 0x60 DUP3 ADD SWAP1 POP PUSH2 0xE17 PUSH0 DUP4 ADD DUP7 PUSH2 0xCBD JUMP JUMPDEST PUSH2 0xE24 PUSH1 0x20 DUP4 ADD DUP6 PUSH2 0xCBD JUMP JUMPDEST PUSH2 0xE31 PUSH1 0x40 DUP4 ADD DUP5 PUSH2 0xCBD JUMP JUMPDEST SWAP5 SWAP4 POP POP POP POP JUMP JUMPDEST PUSH2 0xE42 DUP2 PUSH2 0xD38 JUMP JUMPDEST DUP2 EQ PUSH2 0xE4C JUMPI PUSH0 PUSH0 REVERT JUMPDEST POP JUMP JUMPDEST PUSH0 DUP2 CALLDATALOAD SWAP1 POP PUSH2 0xE5D DUP2 PUSH2 0xE39 JUMP JUMPDEST SWAP3 SWAP2 POP POP JUMP JUMPDEST PUSH0 PUSH1 0x20 DUP3 DUP5 SUB SLT ISZERO PUSH2 0xE78 JUMPI PUSH2 0xE77 PUSH2 0xC5B JUMP JUMPDEST JUMPDEST PUSH0 PUSH2 0xE85 DUP5 DUP3 DUP6 ADD PUSH2 0xE4F JUMP JUMPDEST SWAP2 POP POP SWAP3 SWAP2 POP POP JUMP JUMPDEST PUSH0 DUP3 DUP3 MSTORE PUSH1 0x20 DUP3 ADD SWAP1 POP SWAP3 SWAP2 POP POP JUMP JUMPDEST PUSH32 0x696E73756666696369656E742063686172676500000000000000000000000000 PUSH0 DUP3 ADD MSTORE POP JUMP JUMPDEST PUSH0 PUSH2 0xED2 PUSH1 0x13 DUP4 PUSH2 0xE8E JUMP JUMPDEST SWAP2 POP PUSH2 0xEDD DUP3 PUSH2 0xE9E JUMP JUMPDEST PUSH1 0x20 DUP3 ADD SWAP1 POP SWAP2 SWAP1 POP JUMP JUMPDEST PUSH0 PUSH1 0x20 DUP3 ADD SWAP1 POP DUP2 DUP2 SUB PUSH0 DUP4 ADD MSTORE PUSH2 0xEFF DUP2 PUSH2 0xEC6 JUMP JUMPDEST SWAP1 POP SWAP2 SWAP1 POP JUMP JUMPDEST PUSH0 DUP2 SWAP1 POP SWAP2 SWAP1 POP JUMP JUMPDEST PUSH2 0xF20 PUSH2 0xF1B DUP3 PUSH2 0xC5F JUMP JUMPDEST PUSH2 0xF06 JUMP JUMPDEST DUP3 MSTORE POP POP JUMP JUMPDEST PUSH0 PUSH2 0xF31 DUP3 DUP10 PUSH2 0xF0F JUMP JUMPDEST PUSH1 0x20 DUP3 ADD SWAP2 POP PUSH2 0xF41 DUP3 DUP9 PUSH2 0xF0F JUMP JUMPDEST PUSH1 0x20 DUP3 ADD SWAP2 POP PUSH2 0xF51 DUP3 DUP8 PUSH2 0xF0F JUMP JUMPDEST PUSH1 0x20 DUP3 ADD SWAP2 POP PUSH2 0xF61 DUP3 DUP7 PUSH2 0xF0F JUMP JUMPDEST PUSH1 0x20 DUP3 ADD SWAP2 POP PUSH2 0xF71 DUP3 DUP6 PUSH2 0xF0F JUMP JUMPDEST PUSH1 0x20 DUP3 ADD SWAP2 POP PUSH2 0xF81 DUP3 DUP5 PUSH2 0xF0F JUMP JUMPDEST PUSH1 0x20 DUP3 ADD SWAP2 POP DUP2 SWAP1 POP SWAP8 SWAP7 POP POP POP POP POP POP POP JUMP JUMPDEST PUSH32 0x72616E646F6D536565642063616E277420626520300000000000000000000000 PUSH0 DUP3 ADD MSTORE POP JUMP JUMPDEST PUSH0 PUSH2 0xFC9 PUSH1 0x15 DUP4 PUSH2 0xE8E JUMP JUMPDEST SWAP2 POP PUSH2 0xFD4 DUP3 PUSH2 0xF95 JUMP JUMPDEST PUSH1 0x20 DUP3 ADD SWAP1 POP SWAP2 SWAP1 POP JUMP JUMPDEST PUSH0 PUSH1 0x20 DUP3 ADD SWAP1 POP DUP2 DUP2 SUB PUSH0 DUP4 ADD MSTORE PUSH2 0xFF6 DUP2 PUSH2 0xFBD JUMP JUMPDEST SWAP1 POP SWAP2 SWAP1 POP JUMP JUMPDEST PUSH32 0x4E487B7100000000000000000000000000000000000000000000000000000000 PUSH0 MSTORE PUSH1 0x11 PUSH1 0x4 MSTORE PUSH1 0x24 PUSH0 REVERT JUMPDEST PUSH0 PUSH2 0x1034 DUP3 PUSH2 0xC5F JUMP JUMPDEST SWAP2 POP PUSH32 0xFFFFFFFFFFFFFFFFFFFFFFFFFFFFFFFFFFFFFFFFFFFFFFFFFFFFFFFFFFFFFFFF DUP3 SUB PUSH2 0x1066 JUMPI PUSH2 0x1065 PUSH2 0xFFD JUMP JUMPDEST JUMPDEST PUSH1 0x1 DUP3 ADD SWAP1 POP SWAP2 SWAP1 POP JUMP JUMPDEST PUSH0 PUSH4 0xFFFFFFFF DUP3 AND SWAP1 POP SWAP2 SWAP1 POP JUMP JUMPDEST PUSH0 PUSH2 0x108A DUP3 PUSH2 0x1071 JUMP JUMPDEST SWAP2 POP PUSH2 0x1095 DUP4 PUSH2 0x1071 JUMP JUMPDEST SWAP3 POP DUP3 DUP3 ADD SWAP1 POP PUSH4 0xFFFFFFFF DUP2 GT ISZERO PUSH2 0x10B1 JUMPI PUSH2 0x10B0 PUSH2 0xFFD JUMP JUMPDEST JUMPDEST SWAP3 SWAP2 POP POP JUMP JUMPDEST PUSH32 0x4E487B7100000000000000000000000000000000000000000000000000000000 PUSH0 MSTORE PUSH1 0x12 PUSH1 0x4 MSTORE PUSH1 0x24 PUSH0 REVERT JUMPDEST PUSH0 PUSH2 0x10EE DUP3 PUSH2 0x1071 JUMP JUMPDEST SWAP2 POP PUSH2 0x10F9 DUP4 PUSH2 0x1071 JUMP JUMPDEST SWAP3 POP DUP3 PUSH2 0x1109 JUMPI PUSH2 0x1108 PUSH2 0x10B7 JUMP JUMPDEST JUMPDEST DUP3 DUP3 DIV SWAP1 POP SWAP3 SWAP2 POP POP JUMP JUMPDEST PUSH0 PUSH2 0x111E DUP3 PUSH2 0xC5F JUMP JUMPDEST SWAP2 POP PUSH2 0x1129 DUP4 PUSH2 0xC5F JUMP JUMPDEST SWAP3 POP DUP3 DUP3 SUB SWAP1 POP DUP2 DUP2 GT ISZERO PUSH2 0x1141 JUMPI PUSH2 0x1140 PUSH2 0xFFD JUMP JUMPDEST JUMPDEST SWAP3 SWAP2 POP POP JUMP JUMPDEST PUSH0 PUSH2 0x1151 DUP3 PUSH2 0xC5F JUMP JUMPDEST SWAP2 POP PUSH2 0x115C DUP4 PUSH2 0xC5F JUMP JUMPDEST SWAP3 POP DUP3 DUP3 MUL PUSH2 0x116A DUP2 PUSH2 0xC5F JUMP JUMPDEST SWAP2 POP DUP3 DUP3 DIV DUP5 EQ DUP4 ISZERO OR PUSH2 0x1181 JUMPI PUSH2 0x1180 PUSH2 0xFFD JUMP JUMPDEST JUMPDEST POP SWAP3 SWAP2 POP POP JUMP JUMPDEST PUSH0 PUSH2 0x1192 DUP3 PUSH2 0xC5F JUMP JUMPDEST SWAP2 POP PUSH2 0x119D DUP4 PUSH2 0xC5F JUMP JUMPDEST SWAP3 POP DUP3 PUSH2 0x11AD JUMPI PUSH2 0x11AC PUSH2 0x10B7 JUMP JUMPDEST JUMPDEST DUP3 DUP3 DIV SWAP1 POP SWAP3 SWAP2 POP POP JUMP JUMPDEST PUSH0 PUSH2 0x11C2 DUP3 PUSH2 0xC5F JUMP JUMPDEST SWAP2 POP PUSH2 0x11CD DUP4 PUSH2 0xC5F JUMP JUMPDEST SWAP3 POP DUP3 DUP3 ADD SWAP1 POP DUP1 DUP3 GT ISZERO PUSH2 0x11E5 JUMPI PUSH2 0x11E4 PUSH2 0xFFD JUMP JUMPDEST JUMPDEST SWAP3 SWAP2 POP POP JUMP JUMPDEST PUSH32 0x6572726F722C206272656164696E672C2070617274206964206D757374206265 PUSH0 DUP3 ADD MSTORE PUSH32 0x20696E2072616E67650000000000000000000000000000000000000000000000 PUSH1 0x20 DUP3 ADD MSTORE POP JUMP JUMPDEST PUSH0 PUSH2 0x1245 PUSH1 0x29 DUP4 PUSH2 0xE8E JUMP JUMPDEST SWAP2 POP PUSH2 0x1250 DUP3 PUSH2 0x11EB JUMP JUMPDEST PUSH1 0x40 DUP3 ADD SWAP1 POP SWAP2 SWAP1 POP JUMP JUMPDEST PUSH0 PUSH1 0x20 DUP3 ADD SWAP1 POP DUP2 DUP2 SUB PUSH0 DUP4 ADD MSTORE PUSH2 0x1272 DUP2 PUSH2 0x1239 JUMP JUMPDEST SWAP1 POP SWAP2 SWAP1 POP JUMP JUMPDEST PUSH0 PUSH2 0x1283 DUP3 PUSH2 0xCE5 JUMP JUMPDEST SWAP2 POP PUSH1 0xFF DUP3 SUB PUSH2 0x1296 JUMPI PUSH2 0x1295 PUSH2 0xFFD JUMP JUMPDEST JUMPDEST PUSH1 0x1 DUP3 ADD SWAP1 POP SWAP2 SWAP1 POP JUMP JUMPDEST PUSH0 PUSH2 0x12AB DUP3 PUSH2 0xCE5 JUMP JUMPDEST SWAP2 POP PUSH2 0x12B6 DUP4 PUSH2 0xCE5 JUMP JUMPDEST SWAP3 POP DUP3 DUP3 SUB SWAP1 POP PUSH1 0xFF DUP2 GT ISZERO PUSH2 0x12CF JUMPI PUSH2 0x12CE PUSH2 0xFFD JUMP JUMPDEST JUMPDEST SWAP3 SWAP2 POP POP JUMP JUMPDEST PUSH32 0x4F776E61626C653A206E6577206F776E657220697320746865207A65726F2061 PUSH0 DUP3 ADD MSTORE PUSH32 0x6464726573730000000000000000000000000000000000000000000000000000 PUSH1 0x20 DUP3 ADD MSTORE POP JUMP JUMPDEST PUSH0 PUSH2 0x132F PUSH1 0x26 DUP4 PUSH2 0xE8E JUMP JUMPDEST SWAP2 POP PUSH2 0x133A DUP3 PUSH2 0x12D5 JUMP JUMPDEST PUSH1 0x40 DUP3 ADD SWAP1 POP SWAP2 SWAP1 POP JUMP JUMPDEST PUSH0 PUSH1 0x20 DUP3 ADD SWAP1 POP DUP2 DUP2 SUB PUSH0 DUP4 ADD MSTORE PUSH2 0x135C DUP2 PUSH2 0x1323 JUMP JUMPDEST SWAP1 POP SWAP2 SWAP1 POP JUMP JUMPDEST PUSH32 0x4F776E61626C653A2063616C6C6572206973206E6F7420746865206F776E6572 PUSH0 DUP3 ADD MSTORE POP JUMP JUMPDEST PUSH0 PUSH2 0x1397 PUSH1 0x20 DUP4 PUSH2 0xE8E JUMP JUMPDEST SWAP2 POP PUSH2 0x13A2 DUP3 PUSH2 0x1363 JUMP JUMPDEST PUSH1 0x20 DUP3 ADD SWAP1 POP SWAP2 SWAP1 POP JUMP JUMPDEST PUSH0 PUSH1 0x20 DUP3 ADD SWAP1 POP DUP2 DUP2 SUB PUSH0 DUP4 ADD MSTORE PUSH2 0x13C4 DUP2 PUSH2 0x138B JUMP JUMPDEST SWAP1 POP SWAP2 SWAP1 POP JUMP JUMPDEST PUSH0 PUSH2 0x13D6 DUP3 DUP6 PUSH2 0xF0F JUMP JUMPDEST PUSH1 0x20 DUP3 ADD SWAP2 POP PUSH2 0x13E6 DUP3 DUP5 PUSH2 0xF0F JUMP JUMPDEST PUSH1 0x20 DUP3 ADD SWAP2 POP DUP2 SWAP1 POP SWAP4 SWAP3 POP POP POP JUMP JUMPDEST PUSH0 PUSH2 0x1400 DUP3 PUSH2 0xC5F JUMP JUMPDEST SWAP2 POP PUSH2 0x140B DUP4 PUSH2 0xC5F JUMP JUMPDEST SWAP3 POP DUP3 PUSH2 0x141B JUMPI PUSH2 0x141A PUSH2 0x10B7 JUMP JUMPDEST JUMPDEST DUP3 DUP3 MOD SWAP1 POP SWAP3 SWAP2 POP POP JUMP JUMPDEST PUSH0 PUSH2 0x1430 DUP3 PUSH2 0xCE5 JUMP JUMPDEST SWAP2 POP PUSH2 0x143B DUP4 PUSH2 0xCE5 JUMP JUMPDEST SWAP3 POP DUP3 DUP3 MUL PUSH2 0x1449 DUP2 PUSH2 0xCE5 JUMP JUMPDEST SWAP2 POP DUP1 DUP3 EQ PUSH2 0x145B JUMPI PUSH2 0x145A PUSH2 0xFFD JUMP JUMPDEST JUMPDEST POP SWAP3 SWAP2 POP POP JUMP INVALID LOG2 PUSH5 0x6970667358 0x22 SLT KECCAK256 CALLDATACOPY 0xC 0xCA 0xCD SSTORE BASEFEE JUMP 0x24 0xCA 0x23 LT SWAPN 0xEE SHR PUSH22 0x5DE1E77AB7C47228A0F5C88AF4FFA97F7964736F6C63 NUMBER STOP ADDMOD 0x1E STOP CALLER "
				},
				"gasEstimates": {
					"creation": {
						"codeDepositCost": "1054400",
						"executionCost": "infinite",
						"totalCost": "infinite"
					},
					"external": {
						"breading(uint256,uint256)": "infinite",
						"getBreedingChargePrice()": "2568",
						"getGlobalSeed()": "2543",
						"getMaxArcane()": "2499",
						"getMaxId()": "2499",
						"getMinArcane()": "2455",
						"getMinId()": "2520",
						"getRandomPercent()": "2454",
						"owner()": "2537",
						"renounceOwnership()": "30476",
						"setBreedingChargePrice(uint8)": "27072",
						"setGlobalSeed(uint256)": "24799",
						"setMaxArcane(uint256)": "24865",
						"setMaxId(uint256)": "24843",
						"setMinArcane(uint256)": "24820",
						"setMinId(uint256)": "24819",
						"setRandomPercent(uint256)": "24821",
						"transferOwnership(address)": "30838"
					},
					"internal": {
						"getArcanePercent(uint256,uint256,uint256,uint256)": "infinite",
						"random(uint256,uint256,uint256,uint256)": "infinite"
					}
				},
				"methodIdentifiers": {
					"breading(uint256,uint256)": "e4a13fb7",
					"getBreedingChargePrice()": "43aed9dc",
					"getGlobalSeed()": "878cf3a6",
					"getMaxArcane()": "615ebe28",
					"getMaxId()": "d477a712",
					"getMinArcane()": "32099cc4",
					"getMinId()": "eb4b0e51",
					"getRandomPercent()": "e238b8c6",
					"owner()": "8da5cb5b",
					"renounceOwnership()": "715018a6",
					"setBreedingChargePrice(uint8)": "d6412cfd",
					"setGlobalSeed(uint256)": "02aff378",
					"setMaxArcane(uint256)": "1bb39f84",
					"setMaxId(uint256)": "16bd8646",
					"setMinArcane(uint256)": "91b66725",
					"setMinId(uint256)": "e2e3a0db",
					"setRandomPercent(uint256)": "054fee6a",
					"transferOwnership(address)": "f2fde38b"
				}
			},
			"storageLayout": {
				"storage": [
					{
						"astId": 7,
						"contract": "contracts/breedings/Breeding.sol:Breeding",
						"label": "_owner",
						"offset": 0,
						"slot": "0",
						"type": "t_address"
					},
					{
						"astId": 149,
						"contract": "contracts/breedings/Breeding.sol:Breeding",
						"label": "_breedingChargePrice",
						"offset": 20,
						"slot": "0",
						"type": "t_uint8"
					},
					{
						"astId": 152,
						"contract": "contracts/breedings/Breeding.sol:Breeding",
						"label": "_globalSeed",
						"offset": 0,
						"slot": "1",
						"type": "t_uint256"
					},
					{
						"astId": 155,
						"contract": "contracts/breedings/Breeding.sol:Breeding",
						"label": "_randomPercent",
						"offset": 0,
						"slot": "2",
						"type": "t_uint256"
					},
					{
						"astId": 158,
						"contract": "contracts/breedings/Breeding.sol:Breeding",
						"label": "_minArcane",
						"offset": 0,
						"slot": "3",
						"type": "t_uint256"
					},
					{
						"astId": 161,
						"contract": "contracts/breedings/Breeding.sol:Breeding",
						"label": "_maxArcane",
						"offset": 0,
						"slot": "4",
						"type": "t_uint256"
					},
					{
						"astId": 164,
						"contract": "contracts/breedings/Breeding.sol:Breeding",
						"label": "_minId",
						"offset": 0,
						"slot": "5",
						"type": "t_uint256"
					},
					{
						"astId": 167,
						"contract": "contracts/breedings/Breeding.sol:Breeding",
						"label": "_maxId",
						"offset": 0,
						"slot": "6",
						"type": "t_uint256"
					}
				],
				"types": {
					"t_address": {
						"encoding": "inplace",
						"label": "address",
						"numberOfBytes": "20"
					},
					"t_uint256": {
						"encoding": "inplace",
						"label": "uint256",
						"numberOfBytes": "32"
					},
					"t_uint8": {
						"encoding": "inplace",
						"label": "uint8",
						"numberOfBytes": "1"
					}
				}
			},
			"userdoc": {
				"kind": "user",
				"methods": {},
				"version": 1
			}
		}
	}
}