{
	"contracts/breedings/Breeding.sol": {
		"Breeding": {
			"abi": [
				{
					"inputs": [
						{
							"internalType": "uint256",
							"name": "genes1",
							"type": "uint256"
						},
						{
							"internalType": "uint256",
							"name": "genes2",
							"type": "uint256"
						},
						{
							"internalType": "uint256",
							"name": "generation",
							"type": "uint256"
						}
					],
					"name": "breading",
					"outputs": [
						{
							"internalType": "uint256",
							"name": "",
							"type": "uint256"
						}
					],
					"stateMutability": "nonpayable",
					"type": "function"
				},
				{
					"inputs": [
						{
							"internalType": "uint256",
							"name": "_genes",
							"type": "uint256"
						}
					],
					"name": "decode",
					"outputs": [
						{
							"internalType": "uint8[]",
							"name": "_traits",
							"type": "uint8[]"
						}
					],
					"stateMutability": "pure",
					"type": "function"
				},
				{
					"inputs": [
						{
							"internalType": "uint8[]",
							"name": "_traits",
							"type": "uint8[]"
						}
					],
					"name": "encode",
					"outputs": [
						{
							"internalType": "uint256",
							"name": "_genes",
							"type": "uint256"
						}
					],
					"stateMutability": "pure",
					"type": "function"
				}
			],
			"devdoc": {
				"kind": "dev",
				"methods": {
					"breading(uint256,uint256,uint256)": {
						"details": "given genes of token 1 & 2, return a genetic combination - may have a random factor",
						"params": {
							"genes1": "genes of mom",
							"genes2": "genes of dad"
						},
						"returns": {
							"_0": "the genes that are supposed to be passed down the child"
						}
					}
				},
				"version": 1
			},
			"evm": {
				"assembly": "    /* \"contracts/breedings/Breeding.sol\":101:5401  contract Breeding is IBreeding {... */\n  mstore(0x40, 0x80)\n    /* \"contracts/breedings/Breeding.sol\":167:168  1 */\n  0x01\n    /* \"contracts/breedings/Breeding.sol\":138:168  uint256 private GlobalSeed = 1 */\n  0x00\n  dup2\n  swap1\n  sstore\n    /* \"contracts/breedings/Breeding.sol\":209:211  50 */\n  0x32\n    /* \"contracts/breedings/Breeding.sol\":174:211  uint256 private randomSideWeight = 50 */\n  swap1\n  sstore\n    /* \"contracts/breedings/Breeding.sol\":250:252  10 */\n  0x0a\n    /* \"contracts/breedings/Breeding.sol\":217:252  uint256 private randomIdWeight = 10 */\n  0x02\n  sstore\n    /* \"contracts/breedings/Breeding.sol\":290:293  100 */\n  0x64\n    /* \"contracts/breedings/Breeding.sol\":258:293  uint256 private rarityPercent = 100 */\n  0x03\n  sstore\n    /* \"contracts/breedings/Breeding.sol\":328:358  uint8 private maxBodyParts = 9 */\n  0x04\n  dup1\n  sload\n  not(0xffff)\n    /* \"contracts/breedings/Breeding.sol\":436:460  uint8 private maxId = 37 */\n  and\n  0x2509\n  or\n  swap1\n  sstore\n    /* \"contracts/breedings/Breeding.sol\":101:5401  contract Breeding is IBreeding {... */\n  callvalue\n  dup1\n  iszero\n  tag_1\n  jumpi\n  0x00\n  dup1\n  revert\ntag_1:\n  pop\n  dataSize(sub_0)\n  dup1\n  dataOffset(sub_0)\n  0x00\n  codecopy\n  0x00\n  return\nstop\n\nsub_0: assembly {\n        /* \"contracts/breedings/Breeding.sol\":101:5401  contract Breeding is IBreeding {... */\n      mstore(0x40, 0x80)\n      callvalue\n      dup1\n      iszero\n      tag_1\n      jumpi\n      0x00\n      dup1\n      revert\n    tag_1:\n      pop\n      jumpi(tag_2, lt(calldatasize, 0x04))\n      shr(0xe0, calldataload(0x00))\n      dup1\n      0x1597ee44\n      eq\n      tag_3\n      jumpi\n      dup1\n      0x61a76900\n      eq\n      tag_4\n      jumpi\n      dup1\n      0xa7cc0f50\n      eq\n      tag_5\n      jumpi\n    tag_2:\n      0x00\n      dup1\n      revert\n        /* \"contracts/breedings/Breeding.sol\":487:850  function encode(uint8[] memory _traits)... */\n    tag_3:\n      tag_6\n      tag_7\n      calldatasize\n      0x04\n      tag_8\n      jump\t// in\n    tag_7:\n      tag_9\n      jump\t// in\n    tag_6:\n      mload(0x40)\n        /* \"#utility.yul\":1575:1600   */\n      swap1\n      dup2\n      mstore\n        /* \"#utility.yul\":1563:1565   */\n      0x20\n        /* \"#utility.yul\":1548:1566   */\n      add\n        /* \"contracts/breedings/Breeding.sol\":487:850  function encode(uint8[] memory _traits)... */\n    tag_10:\n      mload(0x40)\n      dup1\n      swap2\n      sub\n      swap1\n      return\n        /* \"contracts/breedings/Breeding.sol\":856:1140  function decode(uint256 _genes)... */\n    tag_4:\n      tag_12\n      tag_13\n      calldatasize\n      0x04\n      tag_14\n      jump\t// in\n    tag_13:\n      tag_15\n      jump\t// in\n    tag_12:\n      mload(0x40)\n      tag_10\n      swap2\n      swap1\n      tag_17\n      jump\t// in\n        /* \"contracts/breedings/Breeding.sol\":2056:3626  function breading(... */\n    tag_5:\n      tag_6\n      tag_19\n      calldatasize\n      0x04\n      tag_20\n      jump\t// in\n    tag_19:\n      tag_21\n      jump\t// in\n        /* \"contracts/breedings/Breeding.sol\":487:850  function encode(uint8[] memory _traits)... */\n    tag_9:\n        /* \"contracts/breedings/Breeding.sol\":572:586  uint256 _genes */\n      0x00\n        /* \"contracts/breedings/Breeding.sol\":628:637  uint256 i */\n      dup1\n        /* \"contracts/breedings/Breeding.sol\":623:820  for (uint256 i = 0; i < _traits.length; i++) {... */\n    tag_24:\n        /* \"contracts/breedings/Breeding.sol\":647:654  _traits */\n      dup3\n        /* \"contracts/breedings/Breeding.sol\":647:661  _traits.length */\n      mload\n        /* \"contracts/breedings/Breeding.sol\":643:644  i */\n      dup2\n        /* \"contracts/breedings/Breeding.sol\":643:661  i < _traits.length */\n      lt\n        /* \"contracts/breedings/Breeding.sol\":623:820  for (uint256 i = 0; i < _traits.length; i++) {... */\n      iszero\n      tag_25\n      jumpi\n        /* \"contracts/breedings/Breeding.sol\":701:702  8 */\n      0x08\n        /* \"contracts/breedings/Breeding.sol\":691:697  _genes */\n      dup3\n        /* \"contracts/breedings/Breeding.sol\":691:702  _genes << 8 */\n      swap1\n      shl\n        /* \"contracts/breedings/Breeding.sol\":682:702  _genes = _genes << 8 */\n      swap2\n      pop\n        /* \"contracts/breedings/Breeding.sol\":778:785  _traits */\n      dup3\n        /* \"contracts/breedings/Breeding.sol\":807:808  i */\n      dup2\n        /* \"contracts/breedings/Breeding.sol\":803:804  1 */\n      0x01\n        /* \"contracts/breedings/Breeding.sol\":786:793  _traits */\n      dup6\n        /* \"contracts/breedings/Breeding.sol\":786:800  _traits.length */\n      mload\n        /* \"contracts/breedings/Breeding.sol\":786:804  _traits.length - 1 */\n      tag_27\n      swap2\n      swap1\n      tag_28\n      jump\t// in\n    tag_27:\n        /* \"contracts/breedings/Breeding.sol\":786:808  _traits.length - 1 - i */\n      tag_29\n      swap2\n      swap1\n      tag_28\n      jump\t// in\n    tag_29:\n        /* \"contracts/breedings/Breeding.sol\":778:809  _traits[_traits.length - 1 - i] */\n      dup2\n      mload\n      dup2\n      lt\n      tag_31\n      jumpi\n      tag_31\n      tag_32\n      jump\t// in\n    tag_31:\n      0x20\n      mul\n      0x20\n      add\n      add\n      mload\n        /* \"contracts/breedings/Breeding.sol\":769:809  _genes | _traits[_traits.length - 1 - i] */\n      0xff\n      and\n        /* \"contracts/breedings/Breeding.sol\":769:775  _genes */\n      dup3\n        /* \"contracts/breedings/Breeding.sol\":769:809  _genes | _traits[_traits.length - 1 - i] */\n      or\n        /* \"contracts/breedings/Breeding.sol\":760:809  _genes = _genes | _traits[_traits.length - 1 - i] */\n      swap2\n      pop\n        /* \"contracts/breedings/Breeding.sol\":663:666  i++ */\n      dup1\n      dup1\n      tag_33\n      swap1\n      tag_34\n      jump\t// in\n    tag_33:\n      swap2\n      pop\n      pop\n        /* \"contracts/breedings/Breeding.sol\":623:820  for (uint256 i = 0; i < _traits.length; i++) {... */\n      jump(tag_24)\n    tag_25:\n      pop\n        /* \"contracts/breedings/Breeding.sol\":487:850  function encode(uint8[] memory _traits)... */\n      swap2\n      swap1\n      pop\n      jump\t// out\n        /* \"contracts/breedings/Breeding.sol\":856:1140  function decode(uint256 _genes)... */\n    tag_15:\n        /* \"contracts/breedings/Breeding.sol\":981:996  new uint8[](27) */\n      0x40\n      dup1\n      mload\n        /* \"contracts/breedings/Breeding.sol\":993:995  27 */\n      0x1b\n        /* \"contracts/breedings/Breeding.sol\":981:996  new uint8[](27) */\n      dup1\n      dup3\n      mstore\n      0x0380\n      dup3\n      add\n      swap1\n      swap3\n      mstore\n        /* \"contracts/breedings/Breeding.sol\":933:955  uint8[] memory _traits */\n      0x60\n      swap2\n        /* \"contracts/breedings/Breeding.sol\":981:996  new uint8[](27) */\n      0x20\n      dup3\n      add\n      0x0360\n      dup1\n      calldatasize\n      dup4\n      calldatacopy\n      add\n      swap1\n      pop\n      pop\n        /* \"contracts/breedings/Breeding.sol\":971:996  _traits = new uint8[](27) */\n      swap1\n      pop\n        /* \"contracts/breedings/Breeding.sol\":1012:1021  uint256 i */\n      0x00\n        /* \"contracts/breedings/Breeding.sol\":1007:1109  for (uint256 i = 0; i < _traits.length; i++) {... */\n    tag_40:\n        /* \"contracts/breedings/Breeding.sol\":1031:1038  _traits */\n      dup2\n        /* \"contracts/breedings/Breeding.sol\":1031:1045  _traits.length */\n      mload\n        /* \"contracts/breedings/Breeding.sol\":1027:1028  i */\n      dup2\n        /* \"contracts/breedings/Breeding.sol\":1027:1045  i < _traits.length */\n      lt\n        /* \"contracts/breedings/Breeding.sol\":1007:1109  for (uint256 i = 0; i < _traits.length; i++) {... */\n      iszero\n      tag_25\n      jumpi\n        /* \"contracts/breedings/Breeding.sol\":1079:1098  get8Bits(_genes, i) */\n      tag_43\n        /* \"contracts/breedings/Breeding.sol\":1088:1094  _genes */\n      dup4\n        /* \"contracts/breedings/Breeding.sol\":1096:1097  i */\n      dup3\n        /* \"contracts/breedings/Breeding.sol\":1079:1087  get8Bits */\n      tag_44\n        /* \"contracts/breedings/Breeding.sol\":1079:1098  get8Bits(_genes, i) */\n      jump\t// in\n    tag_43:\n        /* \"contracts/breedings/Breeding.sol\":1066:1073  _traits */\n      dup3\n        /* \"contracts/breedings/Breeding.sol\":1074:1075  i */\n      dup3\n        /* \"contracts/breedings/Breeding.sol\":1066:1076  _traits[i] */\n      dup2\n      mload\n      dup2\n      lt\n      tag_46\n      jumpi\n      tag_46\n      tag_32\n      jump\t// in\n    tag_46:\n        /* \"contracts/breedings/Breeding.sol\":1066:1098  _traits[i] = get8Bits(_genes, i) */\n      0xff\n      swap1\n      swap3\n      and\n        /* \"contracts/breedings/Breeding.sol\":1066:1076  _traits[i] */\n      0x20\n      swap3\n      dup4\n      mul\n      swap2\n      swap1\n      swap2\n      add\n      swap1\n      swap2\n      add\n        /* \"contracts/breedings/Breeding.sol\":1066:1098  _traits[i] = get8Bits(_genes, i) */\n      mstore\n        /* \"contracts/breedings/Breeding.sol\":1047:1050  i++ */\n      dup1\n      tag_47\n      dup2\n      tag_34\n      jump\t// in\n    tag_47:\n      swap2\n      pop\n      pop\n        /* \"contracts/breedings/Breeding.sol\":1007:1109  for (uint256 i = 0; i < _traits.length; i++) {... */\n      jump(tag_40)\n        /* \"contracts/breedings/Breeding.sol\":2056:3626  function breading(... */\n    tag_21:\n        /* \"contracts/breedings/Breeding.sol\":2172:2179  uint256 */\n      0x00\n        /* \"contracts/breedings/Breeding.sol\":2191:2214  uint8[] memory _traits1 */\n      dup1\n        /* \"contracts/breedings/Breeding.sol\":2217:2231  decode(genes1) */\n      tag_49\n        /* \"contracts/breedings/Breeding.sol\":2224:2230  genes1 */\n      dup6\n        /* \"contracts/breedings/Breeding.sol\":2217:2223  decode */\n      tag_15\n        /* \"contracts/breedings/Breeding.sol\":2217:2231  decode(genes1) */\n      jump\t// in\n    tag_49:\n        /* \"contracts/breedings/Breeding.sol\":2191:2231  uint8[] memory _traits1 = decode(genes1) */\n      swap1\n      pop\n        /* \"contracts/breedings/Breeding.sol\":2241:2264  uint8[] memory _traits2 */\n      0x00\n        /* \"contracts/breedings/Breeding.sol\":2267:2281  decode(genes2) */\n      tag_50\n        /* \"contracts/breedings/Breeding.sol\":2274:2280  genes2 */\n      dup6\n        /* \"contracts/breedings/Breeding.sol\":2267:2273  decode */\n      tag_15\n        /* \"contracts/breedings/Breeding.sol\":2267:2281  decode(genes2) */\n      jump\t// in\n    tag_50:\n        /* \"contracts/breedings/Breeding.sol\":2241:2281  uint8[] memory _traits2 = decode(genes2) */\n      swap1\n      pop\n        /* \"contracts/breedings/Breeding.sol\":2291:2316  uint8[] memory _newTraits */\n      0x00\n        /* \"contracts/breedings/Breeding.sol\":2331:2339  _traits1 */\n      dup3\n        /* \"contracts/breedings/Breeding.sol\":2331:2346  _traits1.length */\n      mload\n        /* \"contracts/breedings/Breeding.sol\":2319:2347  new uint8[](_traits1.length) */\n      0xffffffffffffffff\n      dup2\n      gt\n      iszero\n      tag_52\n      jumpi\n      tag_52\n      tag_38\n      jump\t// in\n    tag_52:\n      mload(0x40)\n      swap1\n      dup1\n      dup3\n      mstore\n      dup1\n      0x20\n      mul\n      0x20\n      add\n      dup3\n      add\n      0x40\n      mstore\n      dup1\n      iszero\n      tag_53\n      jumpi\n      dup2\n      0x20\n      add\n      0x20\n      dup3\n      mul\n      dup1\n      calldatasize\n      dup4\n      calldatacopy\n      add\n      swap1\n      pop\n    tag_53:\n      pop\n        /* \"contracts/breedings/Breeding.sol\":2369:2387  uint256 randomSeed */\n      0x00\n        /* \"contracts/breedings/Breeding.sol\":2641:2651  GlobalSeed */\n      dup1\n      sload\n        /* \"contracts/breedings/Breeding.sol\":2438:2669  abi.encodePacked(... */\n      0x40\n      dup1\n      mload\n        /* \"contracts/breedings/Breeding.sol\":2476:2491  block.timestamp */\n      timestamp\n        /* \"contracts/breedings/Breeding.sol\":2438:2669  abi.encodePacked(... */\n      0x20\n      dup1\n      dup4\n      add\n        /* \"#utility.yul\":3567:3586   */\n      swap2\n      swap1\n      swap2\n      mstore\n        /* \"contracts/breedings/Breeding.sol\":2513:2525  block.number */\n      number\n        /* \"#utility.yul\":3602:3614   */\n      dup3\n      dup5\n      add\n        /* \"#utility.yul\":3595:3623   */\n      mstore\n        /* \"contracts/breedings/Breeding.sol\":2547:2563  block.difficulty */\n      difficulty\n        /* \"#utility.yul\":3639:3651   */\n      0x60\n      dup4\n      add\n        /* \"#utility.yul\":3632:3660   */\n      mstore\n        /* \"#utility.yul\":3676:3688   */\n      0x80\n      dup3\n      add\n        /* \"#utility.yul\":3669:3697   */\n      dup14\n      swap1\n      mstore\n        /* \"#utility.yul\":3713:3726   */\n      0xa0\n      dup3\n      add\n        /* \"#utility.yul\":3706:3735   */\n      dup13\n      swap1\n      mstore\n        /* \"#utility.yul\":3751:3764   */\n      0xc0\n      dup1\n      dup4\n      add\n        /* \"#utility.yul\":3744:3773   */\n      swap5\n      swap1\n      swap5\n      mstore\n        /* \"contracts/breedings/Breeding.sol\":2438:2669  abi.encodePacked(... */\n      dup3\n      mload\n      dup1\n      dup4\n      sub\n      swap1\n      swap5\n      add\n      dup5\n      mstore\n        /* \"#utility.yul\":3789:3802   */\n      0xe0\n      swap1\n      swap2\n      add\n        /* \"contracts/breedings/Breeding.sol\":2438:2669  abi.encodePacked(... */\n      swap1\n      swap2\n      mstore\n        /* \"contracts/breedings/Breeding.sol\":2411:2683  keccak256(... */\n      dup2\n      mload\n      swap2\n      add\n      keccak256\n        /* \"contracts/breedings/Breeding.sol\":2291:2347  uint8[] memory _newTraits = new uint8[](_traits1.length) */\n      swap2\n      swap3\n      pop\n        /* \"contracts/breedings/Breeding.sol\":2711:2726  randomSeed != 0 */\n      dup2\n      swap1\n      sub\n        /* \"contracts/breedings/Breeding.sol\":2703:2745  require(randomSeed != 0, \"randomSeed = 0\") */\n      tag_56\n      jumpi\n      mload(0x40)\n      shl(0xe5, 0x461bcd)\n      dup2\n      mstore\n        /* \"#utility.yul\":4015:4017   */\n      0x20\n        /* \"contracts/breedings/Breeding.sol\":2703:2745  require(randomSeed != 0, \"randomSeed = 0\") */\n      0x04\n      dup3\n      add\n        /* \"#utility.yul\":3997:4018   */\n      mstore\n        /* \"#utility.yul\":4054:4056   */\n      0x0e\n        /* \"#utility.yul\":4034:4052   */\n      0x24\n      dup3\n      add\n        /* \"#utility.yul\":4027:4057   */\n      mstore\n      shl(0x94, 0x072616e646f6d53656564203d203)\n        /* \"#utility.yul\":4073:4091   */\n      0x44\n      dup3\n      add\n        /* \"#utility.yul\":4066:4110   */\n      mstore\n        /* \"#utility.yul\":4127:4145   */\n      0x64\n      add\n        /* \"contracts/breedings/Breeding.sol\":2703:2745  require(randomSeed != 0, \"randomSeed = 0\") */\n      mload(0x40)\n      dup1\n      swap2\n      sub\n      swap1\n      revert\n    tag_56:\n        /* \"contracts/breedings/Breeding.sol\":2755:2774  uint256 randomIndex */\n      0x00\n      dup1\n      dup1\n        /* \"contracts/breedings/Breeding.sol\":2824:3562  for (i = 0; i < _traits1.length; i++) {... */\n    tag_59:\n        /* \"contracts/breedings/Breeding.sol\":2840:2848  _traits1 */\n      dup7\n        /* \"contracts/breedings/Breeding.sol\":2840:2855  _traits1.length */\n      mload\n        /* \"contracts/breedings/Breeding.sol\":2836:2837  i */\n      dup2\n        /* \"contracts/breedings/Breeding.sol\":2836:2855  i < _traits1.length */\n      lt\n        /* \"contracts/breedings/Breeding.sol\":2824:3562  for (i = 0; i < _traits1.length; i++) {... */\n      iszero\n      tag_60\n      jumpi\n        /* \"contracts/breedings/Breeding.sol\":2876:2886  uint8 left */\n      0x00\n        /* \"contracts/breedings/Breeding.sol\":2889:2897  _traits1 */\n      dup8\n        /* \"contracts/breedings/Breeding.sol\":2898:2899  i */\n      dup3\n        /* \"contracts/breedings/Breeding.sol\":2889:2900  _traits1[i] */\n      dup2\n      mload\n      dup2\n      lt\n      tag_63\n      jumpi\n      tag_63\n      tag_32\n      jump\t// in\n    tag_63:\n      0x20\n      mul\n      0x20\n      add\n      add\n      mload\n        /* \"contracts/breedings/Breeding.sol\":2876:2900  uint8 left = _traits1[i] */\n      swap1\n      pop\n        /* \"contracts/breedings/Breeding.sol\":2914:2925  uint8 right */\n      0x00\n        /* \"contracts/breedings/Breeding.sol\":2928:2936  _traits2 */\n      dup8\n        /* \"contracts/breedings/Breeding.sol\":2937:2938  i */\n      dup4\n        /* \"contracts/breedings/Breeding.sol\":2928:2939  _traits2[i] */\n      dup2\n      mload\n      dup2\n      lt\n      tag_65\n      jumpi\n      tag_65\n      tag_32\n      jump\t// in\n    tag_65:\n      0x20\n      mul\n      0x20\n      add\n      add\n      mload\n        /* \"contracts/breedings/Breeding.sol\":2914:2939  uint8 right = _traits2[i] */\n      swap1\n      pop\n        /* \"contracts/breedings/Breeding.sol\":2976:2977  j */\n      dup4\n        /* \"contracts/breedings/Breeding.sol\":2976:2982  j == 0 */\n      0xff\n      and\n        /* \"contracts/breedings/Breeding.sol\":2981:2982  0 */\n      0x00\n        /* \"contracts/breedings/Breeding.sol\":2976:2982  j == 0 */\n      sub\n        /* \"contracts/breedings/Breeding.sol\":2972:3261  if (j == 0) {... */\n      tag_66\n      jumpi\n        /* \"contracts/breedings/Breeding.sol\":3018:3165  getRandomId(... */\n      tag_67\n        /* \"contracts/breedings/Breeding.sol\":3051:3061  randomSeed */\n      dup7\n        /* \"contracts/breedings/Breeding.sol\":3083:3094  randomIndex */\n      dup7\n        /* \"contracts/breedings/Breeding.sol\":3116:3120  left */\n      dup5\n        /* \"contracts/breedings/Breeding.sol\":3142:3147  right */\n      dup5\n        /* \"contracts/breedings/Breeding.sol\":3018:3029  getRandomId */\n      tag_68\n        /* \"contracts/breedings/Breeding.sol\":3018:3165  getRandomId(... */\n      jump\t// in\n    tag_67:\n        /* \"contracts/breedings/Breeding.sol\":3002:3012  _newTraits */\n      dup8\n        /* \"contracts/breedings/Breeding.sol\":3013:3014  i */\n      dup5\n        /* \"contracts/breedings/Breeding.sol\":3002:3015  _newTraits[i] */\n      dup2\n      mload\n      dup2\n      lt\n      tag_70\n      jumpi\n      tag_70\n      tag_32\n      jump\t// in\n    tag_70:\n        /* \"contracts/breedings/Breeding.sol\":3002:3165  _newTraits[i] = getRandomId(... */\n      0xff\n      swap1\n      swap3\n      and\n        /* \"contracts/breedings/Breeding.sol\":3002:3015  _newTraits[i] */\n      0x20\n      swap3\n      dup4\n      mul\n      swap2\n      swap1\n      swap2\n      add\n      swap1\n      swap2\n      add\n        /* \"contracts/breedings/Breeding.sol\":3002:3165  _newTraits[i] = getRandomId(... */\n      mstore\n        /* \"contracts/breedings/Breeding.sol\":3183:3186  j++ */\n      dup4\n      tag_71\n      dup2\n      tag_72\n      jump\t// in\n    tag_71:\n      swap5\n      pop\n        /* \"contracts/breedings/Breeding.sol\":3204:3220  randomIndex += 2 */\n      tag_73\n      swap1\n      pop\n        /* \"contracts/breedings/Breeding.sol\":3219:3220  2 */\n      0x02\n        /* \"contracts/breedings/Breeding.sol\":3204:3220  randomIndex += 2 */\n      dup7\n      tag_74\n      jump\t// in\n    tag_73:\n      swap5\n      pop\n        /* \"contracts/breedings/Breeding.sol\":3238:3246  continue */\n      pop\n      pop\n      jump(tag_61)\n        /* \"contracts/breedings/Breeding.sol\":2972:3261  if (j == 0) {... */\n    tag_66:\n        /* \"contracts/breedings/Breeding.sol\":3300:3301  j */\n      dup4\n        /* \"contracts/breedings/Breeding.sol\":3300:3306  j == 1 */\n      0xff\n      and\n        /* \"contracts/breedings/Breeding.sol\":3305:3306  1 */\n      0x01\n        /* \"contracts/breedings/Breeding.sol\":3300:3306  j == 1 */\n      sub\n        /* \"contracts/breedings/Breeding.sol\":3296:3405  if (j == 1) {... */\n      tag_75\n      jumpi\n        /* \"contracts/breedings/Breeding.sol\":3342:3343  1 */\n      0x01\n        /* \"contracts/breedings/Breeding.sol\":3326:3336  _newTraits */\n      dup8\n        /* \"contracts/breedings/Breeding.sol\":3337:3338  i */\n      dup5\n        /* \"contracts/breedings/Breeding.sol\":3326:3339  _newTraits[i] */\n      dup2\n      mload\n      dup2\n      lt\n      tag_77\n      jumpi\n      tag_77\n      tag_32\n      jump\t// in\n    tag_77:\n        /* \"contracts/breedings/Breeding.sol\":3326:3343  _newTraits[i] = 1 */\n      0xff\n      swap1\n      swap3\n      and\n        /* \"contracts/breedings/Breeding.sol\":3326:3339  _newTraits[i] */\n      0x20\n      swap3\n      dup4\n      mul\n      swap2\n      swap1\n      swap2\n      add\n      swap1\n      swap2\n      add\n        /* \"contracts/breedings/Breeding.sol\":3326:3343  _newTraits[i] = 1 */\n      mstore\n        /* \"contracts/breedings/Breeding.sol\":3361:3364  j++ */\n      dup4\n      tag_78\n      dup2\n      tag_72\n      jump\t// in\n    tag_78:\n      swap5\n      pop\n      pop\n        /* \"contracts/breedings/Breeding.sol\":3382:3390  continue */\n      pop\n      pop\n      jump(tag_61)\n        /* \"contracts/breedings/Breeding.sol\":3296:3405  if (j == 1) {... */\n    tag_75:\n        /* \"contracts/breedings/Breeding.sol\":3435:3483  getRarity(randomSeed, randomIndex++, generation) */\n      tag_79\n        /* \"contracts/breedings/Breeding.sol\":3445:3455  randomSeed */\n      dup7\n        /* \"contracts/breedings/Breeding.sol\":3457:3470  randomIndex++ */\n      dup7\n      tag_80\n      dup2\n      tag_34\n      jump\t// in\n    tag_80:\n      swap8\n      pop\n        /* \"contracts/breedings/Breeding.sol\":3472:3482  generation */\n      dup14\n        /* \"contracts/breedings/Breeding.sol\":3435:3444  getRarity */\n      tag_81\n        /* \"contracts/breedings/Breeding.sol\":3435:3483  getRarity(randomSeed, randomIndex++, generation) */\n      jump\t// in\n    tag_79:\n        /* \"contracts/breedings/Breeding.sol\":3419:3429  _newTraits */\n      dup8\n        /* \"contracts/breedings/Breeding.sol\":3430:3431  i */\n      dup5\n        /* \"contracts/breedings/Breeding.sol\":3419:3432  _newTraits[i] */\n      dup2\n      mload\n      dup2\n      lt\n      tag_83\n      jumpi\n      tag_83\n      tag_32\n      jump\t// in\n    tag_83:\n        /* \"contracts/breedings/Breeding.sol\":3419:3483  _newTraits[i] = getRarity(randomSeed, randomIndex++, generation) */\n      0xff\n      swap1\n      swap3\n      and\n        /* \"contracts/breedings/Breeding.sol\":3419:3432  _newTraits[i] */\n      0x20\n      swap3\n      dup4\n      mul\n      swap2\n      swap1\n      swap2\n      add\n      swap1\n      swap2\n      add\n        /* \"contracts/breedings/Breeding.sol\":3419:3483  _newTraits[i] = getRarity(randomSeed, randomIndex++, generation) */\n      mstore\n        /* \"contracts/breedings/Breeding.sol\":3501:3502  0 */\n      0x00\n      swap4\n      pop\n        /* \"contracts/breedings/Breeding.sol\":3516:3529  randomIndex++ */\n      dup5\n      tag_84\n      dup2\n      tag_34\n      jump\t// in\n    tag_84:\n      swap6\n      pop\n      pop\n        /* \"contracts/breedings/Breeding.sol\":3543:3551  continue */\n      pop\n      pop\n        /* \"contracts/breedings/Breeding.sol\":2824:3562  for (i = 0; i < _traits1.length; i++) {... */\n    tag_61:\n        /* \"contracts/breedings/Breeding.sol\":2857:2860  i++ */\n      dup1\n      tag_85\n      dup2\n      tag_34\n      jump\t// in\n    tag_85:\n      swap2\n      pop\n      pop\n        /* \"contracts/breedings/Breeding.sol\":2824:3562  for (i = 0; i < _traits1.length; i++) {... */\n      jump(tag_59)\n    tag_60:\n        /* \"contracts/breedings/Breeding.sol\":3572:3582  GlobalSeed */\n      0x00\n        /* \"contracts/breedings/Breeding.sol\":3572:3584  GlobalSeed++ */\n      dup1\n      sload\n      swap1\n        /* \"contracts/breedings/Breeding.sol\":3572:3582  GlobalSeed */\n      dup1\n        /* \"contracts/breedings/Breeding.sol\":3572:3584  GlobalSeed++ */\n      tag_86\n      dup4\n      tag_34\n      jump\t// in\n    tag_86:\n      swap2\n      swap1\n      pop\n      sstore\n      pop\n        /* \"contracts/breedings/Breeding.sol\":3601:3619  encode(_newTraits) */\n      tag_87\n        /* \"contracts/breedings/Breeding.sol\":3608:3618  _newTraits */\n      dup6\n        /* \"contracts/breedings/Breeding.sol\":3601:3607  encode */\n      tag_9\n        /* \"contracts/breedings/Breeding.sol\":3601:3619  encode(_newTraits) */\n      jump\t// in\n    tag_87:\n        /* \"contracts/breedings/Breeding.sol\":3594:3619  return encode(_newTraits) */\n      swap8\n      pop\n      pop\n      pop\n      pop\n      pop\n      pop\n      pop\n      pop\n        /* \"contracts/breedings/Breeding.sol\":2056:3626  function breading(... */\n    tag_48:\n      swap4\n      swap3\n      pop\n      pop\n      pop\n      jump\t// out\n        /* \"contracts/breedings/Breeding.sol\":1281:1461  function get8Bits(uint256 _input, uint256 _slot)... */\n    tag_44:\n        /* \"contracts/breedings/Breeding.sol\":1377:1382  uint8 */\n      0x00\n        /* \"contracts/breedings/Breeding.sol\":1411:1453  sliceNumber(_input, uint256(8), _slot * 8) */\n      tag_89\n        /* \"contracts/breedings/Breeding.sol\":1423:1429  _input */\n      dup4\n        /* \"contracts/breedings/Breeding.sol\":1439:1440  8 */\n      0x08\n        /* \"contracts/breedings/Breeding.sol\":1443:1452  _slot * 8 */\n      tag_90\n        /* \"contracts/breedings/Breeding.sol\":1443:1448  _slot */\n      dup6\n        /* \"contracts/breedings/Breeding.sol\":1439:1440  8 */\n      dup3\n        /* \"contracts/breedings/Breeding.sol\":1443:1452  _slot * 8 */\n      tag_91\n      jump\t// in\n    tag_90:\n        /* \"contracts/breedings/Breeding.sol\":1411:1422  sliceNumber */\n      tag_92\n        /* \"contracts/breedings/Breeding.sol\":1411:1453  sliceNumber(_input, uint256(8), _slot * 8) */\n      jump\t// in\n    tag_89:\n        /* \"contracts/breedings/Breeding.sol\":1398:1454  return uint8(sliceNumber(_input, uint256(8), _slot * 8)) */\n      swap1\n      pop\n        /* \"contracts/breedings/Breeding.sol\":1281:1461  function get8Bits(uint256 _input, uint256 _slot)... */\n    tag_88:\n      swap3\n      swap2\n      pop\n      pop\n      jump\t// out\n        /* \"contracts/breedings/Breeding.sol\":3632:4392  function getRandomId(... */\n    tag_68:\n        /* \"contracts/breedings/Breeding.sol\":3780:3785  uint8 */\n      0x00\n      dup1\n      dup1\n      dup1\n        /* \"contracts/breedings/Breeding.sol\":3882:3989  random(... */\n      tag_94\n        /* \"contracts/breedings/Breeding.sol\":3902:3912  randomSeed */\n      dup9\n        /* \"contracts/breedings/Breeding.sol\":3926:3937  randomIndex */\n      dup9\n        /* \"contracts/breedings/Breeding.sol\":3780:3785  uint8 */\n      dup4\n        /* \"contracts/breedings/Breeding.sol\":3966:3979  totalWeight() */\n      tag_95\n        /* \"contracts/breedings/Breeding.sol\":3966:3977  totalWeight */\n      tag_96\n        /* \"contracts/breedings/Breeding.sol\":3966:3979  totalWeight() */\n      jump\t// in\n    tag_95:\n        /* \"contracts/breedings/Breeding.sol\":3882:3888  random */\n      tag_97\n        /* \"contracts/breedings/Breeding.sol\":3882:3989  random(... */\n      jump\t// in\n    tag_94:\n        /* \"contracts/breedings/Breeding.sol\":3859:3989  uint256 randomWeight = random(... */\n      swap1\n      pop\n        /* \"contracts/breedings/Breeding.sol\":4037:4046  uint256 i */\n      0x00\n        /* \"contracts/breedings/Breeding.sol\":4032:4222  for (uint256 i = 0; i < 3; i++) {... */\n    tag_98:\n        /* \"contracts/breedings/Breeding.sol\":4056:4057  3 */\n      0x03\n        /* \"contracts/breedings/Breeding.sol\":4052:4053  i */\n      dup2\n        /* \"contracts/breedings/Breeding.sol\":4052:4057  i < 3 */\n      lt\n        /* \"contracts/breedings/Breeding.sol\":4032:4222  for (uint256 i = 0; i < 3; i++) {... */\n      iszero\n      tag_99\n      jumpi\n        /* \"contracts/breedings/Breeding.sol\":4089:4098  weight(i) */\n      tag_101\n        /* \"contracts/breedings/Breeding.sol\":4096:4097  i */\n      dup2\n        /* \"contracts/breedings/Breeding.sol\":4089:4095  weight */\n      tag_102\n        /* \"contracts/breedings/Breeding.sol\":4089:4098  weight(i) */\n      jump\t// in\n    tag_101:\n        /* \"contracts/breedings/Breeding.sol\":4078:4098  current += weight(i) */\n      tag_103\n      swap1\n      dup6\n      tag_74\n      jump\t// in\n    tag_103:\n      swap4\n      pop\n        /* \"contracts/breedings/Breeding.sol\":4127:4139  randomWeight */\n      dup2\n        /* \"contracts/breedings/Breeding.sol\":4116:4123  current */\n      dup5\n        /* \"contracts/breedings/Breeding.sol\":4116:4139  current >= randomWeight */\n      lt\n        /* \"contracts/breedings/Breeding.sol\":4112:4212  if (current >= randomWeight) {... */\n      tag_104\n      jumpi\n        /* \"contracts/breedings/Breeding.sol\":4173:4174  i */\n      dup1\n        /* \"contracts/breedings/Breeding.sol\":4159:4174  resultIndex = i */\n      swap3\n      pop\n        /* \"contracts/breedings/Breeding.sol\":4192:4197  break */\n      jump(tag_99)\n        /* \"contracts/breedings/Breeding.sol\":4112:4212  if (current >= randomWeight) {... */\n    tag_104:\n        /* \"contracts/breedings/Breeding.sol\":4059:4062  i++ */\n      dup1\n      tag_105\n      dup2\n      tag_34\n      jump\t// in\n    tag_105:\n      swap2\n      pop\n      pop\n        /* \"contracts/breedings/Breeding.sol\":4032:4222  for (uint256 i = 0; i < 3; i++) {... */\n      jump(tag_98)\n    tag_99:\n      pop\n        /* \"contracts/breedings/Breeding.sol\":4236:4247  resultIndex */\n      dup2\n        /* \"contracts/breedings/Breeding.sol\":4251:4252  0 */\n      0x00\n        /* \"contracts/breedings/Breeding.sol\":4236:4252  resultIndex == 0 */\n      sub\n        /* \"contracts/breedings/Breeding.sol\":4232:4265  if (resultIndex == 0) return left */\n      tag_106\n      jumpi\n        /* \"contracts/breedings/Breeding.sol\":4261:4265  left */\n      dup6\n        /* \"contracts/breedings/Breeding.sol\":4254:4265  return left */\n      swap4\n      pop\n      pop\n      pop\n      pop\n      jump(tag_93)\n        /* \"contracts/breedings/Breeding.sol\":4232:4265  if (resultIndex == 0) return left */\n    tag_106:\n        /* \"contracts/breedings/Breeding.sol\":4279:4290  resultIndex */\n      dup2\n        /* \"contracts/breedings/Breeding.sol\":4294:4295  1 */\n      0x01\n        /* \"contracts/breedings/Breeding.sol\":4279:4295  resultIndex == 1 */\n      sub\n        /* \"contracts/breedings/Breeding.sol\":4275:4309  if (resultIndex == 1) return right */\n      tag_107\n      jumpi\n        /* \"contracts/breedings/Breeding.sol\":4304:4309  right */\n      dup5\n        /* \"contracts/breedings/Breeding.sol\":4297:4309  return right */\n      swap4\n      pop\n      pop\n      pop\n      pop\n      jump(tag_93)\n        /* \"contracts/breedings/Breeding.sol\":4275:4309  if (resultIndex == 1) return right */\n    tag_107:\n        /* \"contracts/breedings/Breeding.sol\":4333:4376  random(randomSeed, ++randomIndex, 1, maxId) */\n      tag_108\n        /* \"contracts/breedings/Breeding.sol\":4340:4350  randomSeed */\n      dup9\n        /* \"contracts/breedings/Breeding.sol\":4352:4365  ++randomIndex */\n      tag_109\n      dup10\n      tag_34\n      jump\t// in\n    tag_109:\n        /* \"contracts/breedings/Breeding.sol\":4370:4375  maxId */\n      sload(0x04)\n        /* \"contracts/breedings/Breeding.sol\":4352:4365  ++randomIndex */\n      swap1\n      swap10\n      pop\n      dup10\n      swap1\n        /* \"contracts/breedings/Breeding.sol\":4367:4368  1 */\n      0x01\n      swap1\n        /* \"contracts/breedings/Breeding.sol\":4370:4375  maxId */\n      0x0100\n      swap1\n      div\n      0xff\n      and\n        /* \"contracts/breedings/Breeding.sol\":4333:4339  random */\n      tag_97\n        /* \"contracts/breedings/Breeding.sol\":4333:4376  random(randomSeed, ++randomIndex, 1, maxId) */\n      jump\t// in\n    tag_108:\n        /* \"contracts/breedings/Breeding.sol\":4320:4377  return uint8(random(randomSeed, ++randomIndex, 1, maxId)) */\n      swap4\n      pop\n      pop\n      pop\n      pop\n        /* \"contracts/breedings/Breeding.sol\":3632:4392  function getRandomId(... */\n    tag_93:\n      swap5\n      swap4\n      pop\n      pop\n      pop\n      pop\n      jump\t// out\n        /* \"contracts/breedings/Breeding.sol\":4398:4785  function getRarity(... */\n    tag_81:\n        /* \"contracts/breedings/Breeding.sol\":4531:4536  uint8 */\n      0x00\n        /* \"contracts/breedings/Breeding.sol\":4552:4562  generation */\n      dup2\n        /* \"contracts/breedings/Breeding.sol\":4566:4567  0 */\n      0x00\n        /* \"contracts/breedings/Breeding.sol\":4552:4567  generation == 0 */\n      sub\n        /* \"contracts/breedings/Breeding.sol\":4548:4577  if (generation == 0) return 0 */\n      tag_111\n      jumpi\n      pop\n        /* \"contracts/breedings/Breeding.sol\":4576:4577  0 */\n      0x00\n        /* \"contracts/breedings/Breeding.sol\":4569:4577  return 0 */\n      jump(tag_48)\n        /* \"contracts/breedings/Breeding.sol\":4548:4577  if (generation == 0) return 0 */\n    tag_111:\n        /* \"contracts/breedings/Breeding.sol\":4587:4600  uint256 value */\n      0x00\n        /* \"contracts/breedings/Breeding.sol\":4616:4629  rarityPercent */\n      sload(0x03)\n        /* \"contracts/breedings/Breeding.sol\":4603:4613  generation */\n      dup4\n        /* \"contracts/breedings/Breeding.sol\":4603:4629  generation / rarityPercent */\n      tag_112\n      swap2\n      swap1\n      tag_113\n      jump\t// in\n    tag_112:\n        /* \"contracts/breedings/Breeding.sol\":4587:4629  uint256 value = generation / rarityPercent */\n      swap1\n      pop\n        /* \"contracts/breedings/Breeding.sol\":4720:4725  value */\n      dup1\n        /* \"contracts/breedings/Breeding.sol\":4675:4716  random(randomSeed, randomIndex, 0, 10000) */\n      tag_114\n        /* \"contracts/breedings/Breeding.sol\":4682:4692  randomSeed */\n      dup7\n        /* \"contracts/breedings/Breeding.sol\":4694:4705  randomIndex */\n      dup7\n        /* \"contracts/breedings/Breeding.sol\":4707:4708  0 */\n      0x00\n        /* \"contracts/breedings/Breeding.sol\":4710:4715  10000 */\n      0x2710\n        /* \"contracts/breedings/Breeding.sol\":4675:4681  random */\n      tag_97\n        /* \"contracts/breedings/Breeding.sol\":4675:4716  random(randomSeed, randomIndex, 0, 10000) */\n      jump\t// in\n    tag_114:\n        /* \"contracts/breedings/Breeding.sol\":4675:4725  random(randomSeed, randomIndex, 0, 10000) <= value */\n      gt\n        /* \"contracts/breedings/Breeding.sol\":4671:4760  if (random(randomSeed, randomIndex, 0, 10000) <= value) {... */\n      tag_115\n      jumpi\n        /* \"contracts/breedings/Breeding.sol\":4748:4749  1 */\n      0x01\n        /* \"contracts/breedings/Breeding.sol\":4741:4749  return 1 */\n      swap2\n      pop\n      pop\n      jump(tag_48)\n        /* \"contracts/breedings/Breeding.sol\":4671:4760  if (random(randomSeed, randomIndex, 0, 10000) <= value) {... */\n    tag_115:\n      pop\n        /* \"contracts/breedings/Breeding.sol\":4777:4778  0 */\n      0x00\n      swap5\n        /* \"contracts/breedings/Breeding.sol\":4398:4785  function getRarity(... */\n      swap4\n      pop\n      pop\n      pop\n      pop\n      jump\t// out\n        /* \"contracts/breedings/Breeding.sol\":1682:2050  function sliceNumber(... */\n    tag_92:\n        /* \"contracts/breedings/Breeding.sol\":1800:1807  uint256 */\n      0x00\n      dup1\n        /* \"contracts/breedings/Breeding.sol\":1929:1936  _offset */\n      dup3\n        /* \"contracts/breedings/Breeding.sol\":1923:1924  1 */\n      0x01\n        /* \"contracts/breedings/Breeding.sol\":1910:1919  2**_nbits */\n      tag_117\n        /* \"contracts/breedings/Breeding.sol\":1913:1919  _nbits */\n      dup7\n        /* \"contracts/breedings/Breeding.sol\":1910:1911  2 */\n      0x02\n        /* \"contracts/breedings/Breeding.sol\":1910:1919  2**_nbits */\n      tag_118\n      jump\t// in\n    tag_117:\n        /* \"contracts/breedings/Breeding.sol\":1909:1924  (2**_nbits) - 1 */\n      tag_119\n      swap2\n      swap1\n      tag_28\n      jump\t// in\n    tag_119:\n        /* \"contracts/breedings/Breeding.sol\":1901:1936  uint256((2**_nbits) - 1) << _offset */\n      swap1\n      shl\n        /* \"contracts/breedings/Breeding.sol\":2021:2030  _n & mask */\n      dup6\n      and\n        /* \"contracts/breedings/Breeding.sol\":2020:2042  (_n & mask) >> _offset */\n      dup4\n      shr\n      swap2\n      pop\n      pop\n        /* \"contracts/breedings/Breeding.sol\":1682:2050  function sliceNumber(... */\n      swap4\n      swap3\n      pop\n      pop\n      pop\n      jump\t// out\n        /* \"contracts/breedings/Breeding.sol\":5137:5268  function totalWeight() internal view returns (uint256) {... */\n    tag_96:\n        /* \"contracts/breedings/Breeding.sol\":5183:5190  uint256 */\n      0x00\n        /* \"contracts/breedings/Breeding.sol\":5247:5261  randomIdWeight */\n      sload(0x02)\n        /* \"contracts/breedings/Breeding.sol\":5228:5244  randomSideWeight */\n      sload(0x01)\n        /* \"contracts/breedings/Breeding.sol\":5209:5225  randomSideWeight */\n      sload(0x01)\n        /* \"contracts/breedings/Breeding.sol\":5209:5244  randomSideWeight + randomSideWeight */\n      tag_121\n      swap2\n      swap1\n      tag_74\n      jump\t// in\n    tag_121:\n        /* \"contracts/breedings/Breeding.sol\":5209:5261  randomSideWeight + randomSideWeight + randomIdWeight */\n      tag_122\n      swap2\n      swap1\n      tag_74\n      jump\t// in\n    tag_122:\n        /* \"contracts/breedings/Breeding.sol\":5202:5261  return randomSideWeight + randomSideWeight + randomIdWeight */\n      swap1\n      pop\n        /* \"contracts/breedings/Breeding.sol\":5137:5268  function totalWeight() internal view returns (uint256) {... */\n      swap1\n      jump\t// out\n        /* \"contracts/breedings/Breeding.sol\":4791:5131  function random(... */\n    tag_97:\n        /* \"contracts/breedings/Breeding.sol\":4935:4948  uint256 value */\n      0x00\n        /* \"contracts/breedings/Breeding.sol\":5045:5066  maxNumber - minNumber */\n      tag_124\n        /* \"contracts/breedings/Breeding.sol\":5057:5066  minNumber */\n      dup4\n        /* \"contracts/breedings/Breeding.sol\":5045:5054  maxNumber */\n      dup4\n        /* \"contracts/breedings/Breeding.sol\":5045:5066  maxNumber - minNumber */\n      tag_28\n      jump\t// in\n    tag_124:\n        /* \"contracts/breedings/Breeding.sol\":4998:5027  abi.encodePacked(seed, index) */\n      0x40\n      dup1\n      mload\n      0x20\n      dup2\n      add\n        /* \"#utility.yul\":6427:6446   */\n      dup9\n      swap1\n      mstore\n        /* \"#utility.yul\":6462:6474   */\n      swap1\n      dup2\n      add\n        /* \"#utility.yul\":6455:6483   */\n      dup7\n      swap1\n      mstore\n        /* \"#utility.yul\":6499:6511   */\n      0x60\n      add\n        /* \"contracts/breedings/Breeding.sol\":4998:5027  abi.encodePacked(seed, index) */\n      mload(0x40)\n      0x20\n      dup2\n      dup4\n      sub\n      sub\n      dup2\n      mstore\n      swap1\n      0x40\n      mstore\n        /* \"contracts/breedings/Breeding.sol\":4988:5028  keccak256(abi.encodePacked(seed, index)) */\n      dup1\n      mload\n      swap1\n      0x20\n      add\n      keccak256\n        /* \"contracts/breedings/Breeding.sol\":4980:5029  uint256(keccak256(abi.encodePacked(seed, index))) */\n      0x00\n      shr\n        /* \"contracts/breedings/Breeding.sol\":4980:5067  uint256(keccak256(abi.encodePacked(seed, index))) %... */\n      tag_127\n      swap2\n      swap1\n      tag_128\n      jump\t// in\n    tag_127:\n        /* \"contracts/breedings/Breeding.sol\":4960:5067  value =... */\n      swap1\n      pop\n        /* \"contracts/breedings/Breeding.sol\":5085:5102  value + minNumber */\n      tag_129\n        /* \"contracts/breedings/Breeding.sol\":5093:5102  minNumber */\n      dup4\n        /* \"contracts/breedings/Breeding.sol\":4960:5067  value =... */\n      dup3\n        /* \"contracts/breedings/Breeding.sol\":5085:5102  value + minNumber */\n      tag_74\n      jump\t// in\n    tag_129:\n        /* \"contracts/breedings/Breeding.sol\":5077:5102  value = value + minNumber */\n      swap6\n        /* \"contracts/breedings/Breeding.sol\":4791:5131  function random(... */\n      swap5\n      pop\n      pop\n      pop\n      pop\n      pop\n      jump\t// out\n        /* \"contracts/breedings/Breeding.sol\":5274:5399  function weight(uint256 i) internal view returns (uint256) {... */\n    tag_102:\n        /* \"contracts/breedings/Breeding.sol\":5324:5331  uint256 */\n      0x00\n        /* \"contracts/breedings/Breeding.sol\":5350:5351  i */\n      dup2\n        /* \"contracts/breedings/Breeding.sol\":5355:5356  2 */\n      0x02\n        /* \"contracts/breedings/Breeding.sol\":5350:5356  i == 2 */\n      eq\n        /* \"contracts/breedings/Breeding.sol\":5350:5392  i == 2 ? randomIdWeight : randomSideWeight */\n      tag_131\n      jumpi\n        /* \"contracts/breedings/Breeding.sol\":5376:5392  randomSideWeight */\n      sload(0x01)\n        /* \"contracts/breedings/Breeding.sol\":5350:5392  i == 2 ? randomIdWeight : randomSideWeight */\n      jump(tag_88)\n    tag_131:\n      pop\n      pop\n        /* \"contracts/breedings/Breeding.sol\":5359:5373  randomIdWeight */\n      sload(0x02)\n      swap1\n        /* \"contracts/breedings/Breeding.sol\":5274:5399  function weight(uint256 i) internal view returns (uint256) {... */\n      jump\t// out\n        /* \"#utility.yul\":14:141   */\n    tag_38:\n        /* \"#utility.yul\":75:85   */\n      0x4e487b71\n        /* \"#utility.yul\":70:73   */\n      0xe0\n        /* \"#utility.yul\":66:86   */\n      shl\n        /* \"#utility.yul\":63:64   */\n      0x00\n        /* \"#utility.yul\":56:87   */\n      mstore\n        /* \"#utility.yul\":106:110   */\n      0x41\n        /* \"#utility.yul\":103:104   */\n      0x04\n        /* \"#utility.yul\":96:111   */\n      mstore\n        /* \"#utility.yul\":130:134   */\n      0x24\n        /* \"#utility.yul\":127:128   */\n      0x00\n        /* \"#utility.yul\":120:135   */\n      revert\n        /* \"#utility.yul\":146:302   */\n    tag_133:\n        /* \"#utility.yul\":212:232   */\n      dup1\n      calldataload\n        /* \"#utility.yul\":272:276   */\n      0xff\n        /* \"#utility.yul\":261:277   */\n      dup2\n      and\n        /* \"#utility.yul\":251:278   */\n      dup2\n      eq\n        /* \"#utility.yul\":241:296   */\n      tag_141\n      jumpi\n        /* \"#utility.yul\":292:293   */\n      0x00\n        /* \"#utility.yul\":289:290   */\n      dup1\n        /* \"#utility.yul\":282:294   */\n      revert\n        /* \"#utility.yul\":241:296   */\n    tag_141:\n        /* \"#utility.yul\":146:302   */\n      swap2\n      swap1\n      pop\n      jump\t// out\n        /* \"#utility.yul\":307:1424   */\n    tag_8:\n        /* \"#utility.yul\":389:395   */\n      0x00\n        /* \"#utility.yul\":420:422   */\n      0x20\n        /* \"#utility.yul\":463:465   */\n      dup1\n        /* \"#utility.yul\":451:460   */\n      dup4\n        /* \"#utility.yul\":442:449   */\n      dup6\n        /* \"#utility.yul\":438:461   */\n      sub\n        /* \"#utility.yul\":434:466   */\n      slt\n        /* \"#utility.yul\":431:483   */\n      iszero\n      tag_143\n      jumpi\n        /* \"#utility.yul\":479:480   */\n      0x00\n        /* \"#utility.yul\":476:477   */\n      dup1\n        /* \"#utility.yul\":469:481   */\n      revert\n        /* \"#utility.yul\":431:483   */\n    tag_143:\n        /* \"#utility.yul\":519:528   */\n      dup3\n        /* \"#utility.yul\":506:529   */\n      calldataload\n        /* \"#utility.yul\":548:566   */\n      0xffffffffffffffff\n        /* \"#utility.yul\":589:591   */\n      dup1\n        /* \"#utility.yul\":581:587   */\n      dup3\n        /* \"#utility.yul\":578:592   */\n      gt\n        /* \"#utility.yul\":575:609   */\n      iszero\n      tag_144\n      jumpi\n        /* \"#utility.yul\":605:606   */\n      0x00\n        /* \"#utility.yul\":602:603   */\n      dup1\n        /* \"#utility.yul\":595:607   */\n      revert\n        /* \"#utility.yul\":575:609   */\n    tag_144:\n        /* \"#utility.yul\":643:649   */\n      dup2\n        /* \"#utility.yul\":632:641   */\n      dup6\n        /* \"#utility.yul\":628:650   */\n      add\n        /* \"#utility.yul\":618:650   */\n      swap2\n      pop\n        /* \"#utility.yul\":688:695   */\n      dup6\n        /* \"#utility.yul\":681:685   */\n      0x1f\n        /* \"#utility.yul\":677:679   */\n      dup4\n        /* \"#utility.yul\":673:686   */\n      add\n        /* \"#utility.yul\":669:696   */\n      slt\n        /* \"#utility.yul\":659:714   */\n      tag_145\n      jumpi\n        /* \"#utility.yul\":710:711   */\n      0x00\n        /* \"#utility.yul\":707:708   */\n      dup1\n        /* \"#utility.yul\":700:712   */\n      revert\n        /* \"#utility.yul\":659:714   */\n    tag_145:\n        /* \"#utility.yul\":746:748   */\n      dup2\n        /* \"#utility.yul\":733:749   */\n      calldataload\n        /* \"#utility.yul\":768:770   */\n      dup2\n        /* \"#utility.yul\":764:766   */\n      dup2\n        /* \"#utility.yul\":761:771   */\n      gt\n        /* \"#utility.yul\":758:794   */\n      iszero\n      tag_147\n      jumpi\n        /* \"#utility.yul\":774:792   */\n      tag_147\n      tag_38\n      jump\t// in\n    tag_147:\n        /* \"#utility.yul\":820:822   */\n      dup1\n        /* \"#utility.yul\":817:818   */\n      0x05\n        /* \"#utility.yul\":813:823   */\n      shl\n        /* \"#utility.yul\":852:854   */\n      0x40\n        /* \"#utility.yul\":846:855   */\n      mload\n        /* \"#utility.yul\":915:917   */\n      0x1f\n        /* \"#utility.yul\":911:918   */\n      not\n        /* \"#utility.yul\":906:908   */\n      0x3f\n        /* \"#utility.yul\":902:904   */\n      dup4\n        /* \"#utility.yul\":898:909   */\n      add\n        /* \"#utility.yul\":894:919   */\n      and\n        /* \"#utility.yul\":886:892   */\n      dup2\n        /* \"#utility.yul\":882:920   */\n      add\n        /* \"#utility.yul\":970:976   */\n      dup2\n        /* \"#utility.yul\":958:968   */\n      dup2\n        /* \"#utility.yul\":955:977   */\n      lt\n        /* \"#utility.yul\":950:952   */\n      dup6\n        /* \"#utility.yul\":938:948   */\n      dup3\n        /* \"#utility.yul\":935:953   */\n      gt\n        /* \"#utility.yul\":932:978   */\n      or\n        /* \"#utility.yul\":929:1001   */\n      iszero\n      tag_149\n      jumpi\n        /* \"#utility.yul\":981:999   */\n      tag_149\n      tag_38\n      jump\t// in\n    tag_149:\n        /* \"#utility.yul\":1017:1019   */\n      0x40\n        /* \"#utility.yul\":1010:1032   */\n      mstore\n        /* \"#utility.yul\":1067:1085   */\n      swap2\n      dup3\n      mstore\n        /* \"#utility.yul\":1101:1116   */\n      dup5\n      dup3\n      add\n      swap3\n      pop\n        /* \"#utility.yul\":1143:1154   */\n      dup4\n      dup2\n      add\n        /* \"#utility.yul\":1139:1159   */\n      dup6\n      add\n      swap2\n        /* \"#utility.yul\":1171:1190   */\n      dup9\n      dup4\n      gt\n        /* \"#utility.yul\":1168:1207   */\n      iszero\n      tag_150\n      jumpi\n        /* \"#utility.yul\":1203:1204   */\n      0x00\n        /* \"#utility.yul\":1200:1201   */\n      dup1\n        /* \"#utility.yul\":1193:1205   */\n      revert\n        /* \"#utility.yul\":1168:1207   */\n    tag_150:\n        /* \"#utility.yul\":1227:1238   */\n      swap4\n      dup6\n      add\n      swap4\n        /* \"#utility.yul\":1247:1393   */\n    tag_151:\n        /* \"#utility.yul\":1263:1269   */\n      dup3\n        /* \"#utility.yul\":1258:1261   */\n      dup6\n        /* \"#utility.yul\":1255:1270   */\n      lt\n        /* \"#utility.yul\":1247:1393   */\n      iszero\n      tag_153\n      jumpi\n        /* \"#utility.yul\":1329:1350   */\n      tag_154\n        /* \"#utility.yul\":1346:1349   */\n      dup6\n        /* \"#utility.yul\":1329:1350   */\n      tag_133\n      jump\t// in\n    tag_154:\n        /* \"#utility.yul\":1317:1351   */\n      dup5\n      mstore\n        /* \"#utility.yul\":1280:1292   */\n      swap4\n      dup6\n      add\n      swap4\n        /* \"#utility.yul\":1371:1383   */\n      swap3\n      dup6\n      add\n      swap3\n        /* \"#utility.yul\":1247:1393   */\n      jump(tag_151)\n    tag_153:\n        /* \"#utility.yul\":1412:1418   */\n      swap9\n        /* \"#utility.yul\":307:1424   */\n      swap8\n      pop\n      pop\n      pop\n      pop\n      pop\n      pop\n      pop\n      pop\n      jump\t// out\n        /* \"#utility.yul\":1611:1791   */\n    tag_14:\n        /* \"#utility.yul\":1670:1676   */\n      0x00\n        /* \"#utility.yul\":1723:1725   */\n      0x20\n        /* \"#utility.yul\":1711:1720   */\n      dup3\n        /* \"#utility.yul\":1702:1709   */\n      dup5\n        /* \"#utility.yul\":1698:1721   */\n      sub\n        /* \"#utility.yul\":1694:1726   */\n      slt\n        /* \"#utility.yul\":1691:1743   */\n      iszero\n      tag_157\n      jumpi\n        /* \"#utility.yul\":1739:1740   */\n      0x00\n        /* \"#utility.yul\":1736:1737   */\n      dup1\n        /* \"#utility.yul\":1729:1741   */\n      revert\n        /* \"#utility.yul\":1691:1743   */\n    tag_157:\n      pop\n        /* \"#utility.yul\":1762:1785   */\n      calldataload\n      swap2\n        /* \"#utility.yul\":1611:1791   */\n      swap1\n      pop\n      jump\t// out\n        /* \"#utility.yul\":1796:2435   */\n    tag_17:\n        /* \"#utility.yul\":1963:1965   */\n      0x20\n        /* \"#utility.yul\":2015:2036   */\n      dup1\n      dup3\n      mstore\n        /* \"#utility.yul\":2085:2098   */\n      dup3\n      mload\n        /* \"#utility.yul\":1988:2006   */\n      dup3\n      dup3\n      add\n        /* \"#utility.yul\":2107:2129   */\n      dup2\n      swap1\n      mstore\n        /* \"#utility.yul\":1934:1938   */\n      0x00\n      swap2\n        /* \"#utility.yul\":1963:1965   */\n      swap1\n        /* \"#utility.yul\":2186:2201   */\n      dup5\n      dup3\n      add\n      swap1\n        /* \"#utility.yul\":2160:2162   */\n      0x40\n        /* \"#utility.yul\":2145:2163   */\n      dup6\n      add\n      swap1\n        /* \"#utility.yul\":1934:1938   */\n      dup5\n        /* \"#utility.yul\":2229:2409   */\n    tag_159:\n        /* \"#utility.yul\":2243:2249   */\n      dup2\n        /* \"#utility.yul\":2240:2241   */\n      dup2\n        /* \"#utility.yul\":2237:2250   */\n      lt\n        /* \"#utility.yul\":2229:2409   */\n      iszero\n      tag_161\n      jumpi\n        /* \"#utility.yul\":2308:2321   */\n      dup4\n      mload\n        /* \"#utility.yul\":2323:2327   */\n      0xff\n        /* \"#utility.yul\":2304:2328   */\n      and\n        /* \"#utility.yul\":2292:2329   */\n      dup4\n      mstore\n        /* \"#utility.yul\":2384:2399   */\n      swap3\n      dup5\n      add\n      swap3\n        /* \"#utility.yul\":2349:2361   */\n      swap2\n      dup5\n      add\n      swap2\n        /* \"#utility.yul\":2265:2266   */\n      0x01\n        /* \"#utility.yul\":2258:2267   */\n      add\n        /* \"#utility.yul\":2229:2409   */\n      jump(tag_159)\n    tag_161:\n      pop\n        /* \"#utility.yul\":2426:2429   */\n      swap1\n      swap7\n        /* \"#utility.yul\":1796:2435   */\n      swap6\n      pop\n      pop\n      pop\n      pop\n      pop\n      pop\n      jump\t// out\n        /* \"#utility.yul\":2440:2756   */\n    tag_20:\n        /* \"#utility.yul\":2517:2523   */\n      0x00\n        /* \"#utility.yul\":2525:2531   */\n      dup1\n        /* \"#utility.yul\":2533:2539   */\n      0x00\n        /* \"#utility.yul\":2586:2588   */\n      0x60\n        /* \"#utility.yul\":2574:2583   */\n      dup5\n        /* \"#utility.yul\":2565:2572   */\n      dup7\n        /* \"#utility.yul\":2561:2584   */\n      sub\n        /* \"#utility.yul\":2557:2589   */\n      slt\n        /* \"#utility.yul\":2554:2606   */\n      iszero\n      tag_163\n      jumpi\n        /* \"#utility.yul\":2602:2603   */\n      0x00\n        /* \"#utility.yul\":2599:2600   */\n      dup1\n        /* \"#utility.yul\":2592:2604   */\n      revert\n        /* \"#utility.yul\":2554:2606   */\n    tag_163:\n      pop\n      pop\n        /* \"#utility.yul\":2625:2648   */\n      dup2\n      calldataload\n      swap4\n        /* \"#utility.yul\":2695:2697   */\n      0x20\n        /* \"#utility.yul\":2680:2698   */\n      dup4\n      add\n        /* \"#utility.yul\":2667:2699   */\n      calldataload\n      swap4\n      pop\n        /* \"#utility.yul\":2746:2748   */\n      0x40\n        /* \"#utility.yul\":2731:2749   */\n      swap1\n      swap3\n      add\n        /* \"#utility.yul\":2718:2750   */\n      calldataload\n      swap2\n        /* \"#utility.yul\":2440:2756   */\n      swap1\n      pop\n      jump\t// out\n        /* \"#utility.yul\":2761:2888   */\n    tag_134:\n        /* \"#utility.yul\":2822:2832   */\n      0x4e487b71\n        /* \"#utility.yul\":2817:2820   */\n      0xe0\n        /* \"#utility.yul\":2813:2833   */\n      shl\n        /* \"#utility.yul\":2810:2811   */\n      0x00\n        /* \"#utility.yul\":2803:2834   */\n      mstore\n        /* \"#utility.yul\":2853:2857   */\n      0x11\n        /* \"#utility.yul\":2850:2851   */\n      0x04\n        /* \"#utility.yul\":2843:2858   */\n      mstore\n        /* \"#utility.yul\":2877:2881   */\n      0x24\n        /* \"#utility.yul\":2874:2875   */\n      0x00\n        /* \"#utility.yul\":2867:2882   */\n      revert\n        /* \"#utility.yul\":2893:3021   */\n    tag_28:\n        /* \"#utility.yul\":2960:2969   */\n      dup2\n      dup2\n      sub\n        /* \"#utility.yul\":2981:2992   */\n      dup2\n      dup2\n      gt\n        /* \"#utility.yul\":2978:3015   */\n      iszero\n      tag_88\n      jumpi\n        /* \"#utility.yul\":2995:3013   */\n      tag_88\n      tag_134\n      jump\t// in\n        /* \"#utility.yul\":3026:3153   */\n    tag_32:\n        /* \"#utility.yul\":3087:3097   */\n      0x4e487b71\n        /* \"#utility.yul\":3082:3085   */\n      0xe0\n        /* \"#utility.yul\":3078:3098   */\n      shl\n        /* \"#utility.yul\":3075:3076   */\n      0x00\n        /* \"#utility.yul\":3068:3099   */\n      mstore\n        /* \"#utility.yul\":3118:3122   */\n      0x32\n        /* \"#utility.yul\":3115:3116   */\n      0x04\n        /* \"#utility.yul\":3108:3123   */\n      mstore\n        /* \"#utility.yul\":3142:3146   */\n      0x24\n        /* \"#utility.yul\":3139:3140   */\n      0x00\n        /* \"#utility.yul\":3132:3147   */\n      revert\n        /* \"#utility.yul\":3158:3293   */\n    tag_34:\n        /* \"#utility.yul\":3197:3200   */\n      0x00\n        /* \"#utility.yul\":3218:3235   */\n      0x01\n      dup3\n      add\n        /* \"#utility.yul\":3215:3258   */\n      tag_171\n      jumpi\n        /* \"#utility.yul\":3238:3256   */\n      tag_171\n      tag_134\n      jump\t// in\n    tag_171:\n      pop\n        /* \"#utility.yul\":3285:3286   */\n      0x01\n        /* \"#utility.yul\":3274:3287   */\n      add\n      swap1\n        /* \"#utility.yul\":3158:3293   */\n      jump\t// out\n        /* \"#utility.yul\":4156:4331   */\n    tag_72:\n        /* \"#utility.yul\":4193:4196   */\n      0x00\n        /* \"#utility.yul\":4237:4241   */\n      0xff\n        /* \"#utility.yul\":4230:4235   */\n      dup3\n        /* \"#utility.yul\":4226:4242   */\n      and\n        /* \"#utility.yul\":4266:4270   */\n      0xff\n        /* \"#utility.yul\":4257:4264   */\n      dup2\n        /* \"#utility.yul\":4254:4271   */\n      sub\n        /* \"#utility.yul\":4251:4294   */\n      tag_176\n      jumpi\n        /* \"#utility.yul\":4274:4292   */\n      tag_176\n      tag_134\n      jump\t// in\n    tag_176:\n        /* \"#utility.yul\":4323:4324   */\n      0x01\n        /* \"#utility.yul\":4310:4325   */\n      add\n      swap3\n        /* \"#utility.yul\":4156:4331   */\n      swap2\n      pop\n      pop\n      jump\t// out\n        /* \"#utility.yul\":4336:4461   */\n    tag_74:\n        /* \"#utility.yul\":4401:4410   */\n      dup1\n      dup3\n      add\n        /* \"#utility.yul\":4422:4432   */\n      dup1\n      dup3\n      gt\n        /* \"#utility.yul\":4419:4455   */\n      iszero\n      tag_88\n      jumpi\n        /* \"#utility.yul\":4435:4453   */\n      tag_88\n      tag_134\n      jump\t// in\n        /* \"#utility.yul\":4466:4634   */\n    tag_91:\n        /* \"#utility.yul\":4539:4548   */\n      dup1\n      dup3\n      mul\n        /* \"#utility.yul\":4570:4579   */\n      dup2\n      iszero\n        /* \"#utility.yul\":4587:4602   */\n      dup3\n      dup3\n      div\n        /* \"#utility.yul\":4581:4603   */\n      dup5\n      eq\n        /* \"#utility.yul\":4567:4604   */\n      or\n        /* \"#utility.yul\":4557:4628   */\n      tag_88\n      jumpi\n        /* \"#utility.yul\":4608:4626   */\n      tag_88\n      tag_134\n      jump\t// in\n        /* \"#utility.yul\":4639:4766   */\n    tag_135:\n        /* \"#utility.yul\":4700:4710   */\n      0x4e487b71\n        /* \"#utility.yul\":4695:4698   */\n      0xe0\n        /* \"#utility.yul\":4691:4711   */\n      shl\n        /* \"#utility.yul\":4688:4689   */\n      0x00\n        /* \"#utility.yul\":4681:4712   */\n      mstore\n        /* \"#utility.yul\":4731:4735   */\n      0x12\n        /* \"#utility.yul\":4728:4729   */\n      0x04\n        /* \"#utility.yul\":4721:4736   */\n      mstore\n        /* \"#utility.yul\":4755:4759   */\n      0x24\n        /* \"#utility.yul\":4752:4753   */\n      0x00\n        /* \"#utility.yul\":4745:4760   */\n      revert\n        /* \"#utility.yul\":4771:4891   */\n    tag_113:\n        /* \"#utility.yul\":4811:4812   */\n      0x00\n        /* \"#utility.yul\":4837:4838   */\n      dup3\n        /* \"#utility.yul\":4827:4862   */\n      tag_186\n      jumpi\n        /* \"#utility.yul\":4842:4860   */\n      tag_186\n      tag_135\n      jump\t// in\n    tag_186:\n      pop\n        /* \"#utility.yul\":4876:4885   */\n      div\n      swap1\n        /* \"#utility.yul\":4771:4891   */\n      jump\t// out\n        /* \"#utility.yul\":4896:5318   */\n    tag_136:\n        /* \"#utility.yul\":4985:4986   */\n      0x01\n        /* \"#utility.yul\":5028:5033   */\n      dup2\n        /* \"#utility.yul\":4985:4986   */\n      dup2\n        /* \"#utility.yul\":5042:5312   */\n    tag_188:\n        /* \"#utility.yul\":5063:5070   */\n      dup1\n        /* \"#utility.yul\":5053:5061   */\n      dup6\n        /* \"#utility.yul\":5050:5071   */\n      gt\n        /* \"#utility.yul\":5042:5312   */\n      iszero\n      tag_190\n      jumpi\n        /* \"#utility.yul\":5122:5126   */\n      dup2\n        /* \"#utility.yul\":5118:5119   */\n      0x00\n        /* \"#utility.yul\":5114:5120   */\n      not\n        /* \"#utility.yul\":5110:5127   */\n      div\n        /* \"#utility.yul\":5104:5108   */\n      dup3\n        /* \"#utility.yul\":5101:5128   */\n      gt\n        /* \"#utility.yul\":5098:5151   */\n      iszero\n      tag_192\n      jumpi\n        /* \"#utility.yul\":5131:5149   */\n      tag_192\n      tag_134\n      jump\t// in\n    tag_192:\n        /* \"#utility.yul\":5181:5188   */\n      dup1\n        /* \"#utility.yul\":5171:5179   */\n      dup6\n        /* \"#utility.yul\":5167:5189   */\n      and\n        /* \"#utility.yul\":5164:5219   */\n      iszero\n      tag_193\n      jumpi\n        /* \"#utility.yul\":5201:5217   */\n      swap2\n      dup2\n      mul\n      swap2\n        /* \"#utility.yul\":5164:5219   */\n    tag_193:\n        /* \"#utility.yul\":5280:5302   */\n      swap4\n      dup5\n      shr\n      swap4\n        /* \"#utility.yul\":5240:5255   */\n      swap1\n      dup1\n      mul\n      swap1\n        /* \"#utility.yul\":5042:5312   */\n      jump(tag_188)\n    tag_190:\n        /* \"#utility.yul\":5046:5049   */\n      pop\n        /* \"#utility.yul\":4896:5318   */\n      swap3\n      pop\n      swap3\n      swap1\n      pop\n      jump\t// out\n        /* \"#utility.yul\":5323:6129   */\n    tag_137:\n        /* \"#utility.yul\":5372:5377   */\n      0x00\n        /* \"#utility.yul\":5402:5410   */\n      dup3\n        /* \"#utility.yul\":5392:5472   */\n      tag_195\n      jumpi\n      pop\n        /* \"#utility.yul\":5443:5444   */\n      0x01\n        /* \"#utility.yul\":5457:5462   */\n      jump(tag_88)\n        /* \"#utility.yul\":5392:5472   */\n    tag_195:\n        /* \"#utility.yul\":5491:5495   */\n      dup2\n        /* \"#utility.yul\":5481:5557   */\n      tag_196\n      jumpi\n      pop\n        /* \"#utility.yul\":5528:5529   */\n      0x00\n        /* \"#utility.yul\":5542:5547   */\n      jump(tag_88)\n        /* \"#utility.yul\":5481:5557   */\n    tag_196:\n        /* \"#utility.yul\":5573:5577   */\n      dup2\n        /* \"#utility.yul\":5591:5592   */\n      0x01\n        /* \"#utility.yul\":5586:5645   */\n      dup2\n      eq\n      tag_198\n      jumpi\n        /* \"#utility.yul\":5659:5660   */\n      0x02\n        /* \"#utility.yul\":5654:5784   */\n      dup2\n      eq\n      tag_199\n      jumpi\n        /* \"#utility.yul\":5566:5784   */\n      jump(tag_197)\n        /* \"#utility.yul\":5586:5645   */\n    tag_198:\n        /* \"#utility.yul\":5616:5617   */\n      0x01\n        /* \"#utility.yul\":5607:5617   */\n      swap2\n      pop\n        /* \"#utility.yul\":5630:5635   */\n      pop\n      jump(tag_88)\n        /* \"#utility.yul\":5654:5784   */\n    tag_199:\n        /* \"#utility.yul\":5691:5694   */\n      0xff\n        /* \"#utility.yul\":5681:5689   */\n      dup5\n        /* \"#utility.yul\":5678:5695   */\n      gt\n        /* \"#utility.yul\":5675:5718   */\n      iszero\n      tag_201\n      jumpi\n        /* \"#utility.yul\":5698:5716   */\n      tag_201\n      tag_134\n      jump\t// in\n    tag_201:\n      pop\n      pop\n        /* \"#utility.yul\":5754:5755   */\n      0x01\n        /* \"#utility.yul\":5740:5756   */\n      dup3\n      shl\n        /* \"#utility.yul\":5769:5774   */\n      jump(tag_88)\n        /* \"#utility.yul\":5566:5784   */\n    tag_197:\n      pop\n        /* \"#utility.yul\":5868:5870   */\n      0x20\n        /* \"#utility.yul\":5858:5866   */\n      dup4\n        /* \"#utility.yul\":5855:5871   */\n      lt\n        /* \"#utility.yul\":5849:5852   */\n      0x0133\n        /* \"#utility.yul\":5843:5847   */\n      dup4\n        /* \"#utility.yul\":5840:5853   */\n      lt\n        /* \"#utility.yul\":5836:5872   */\n      and\n        /* \"#utility.yul\":5830:5832   */\n      0x4e\n        /* \"#utility.yul\":5820:5828   */\n      dup5\n        /* \"#utility.yul\":5817:5833   */\n      lt\n        /* \"#utility.yul\":5812:5814   */\n      0x0b\n        /* \"#utility.yul\":5806:5810   */\n      dup5\n        /* \"#utility.yul\":5803:5815   */\n      lt\n        /* \"#utility.yul\":5799:5834   */\n      and\n        /* \"#utility.yul\":5796:5873   */\n      or\n        /* \"#utility.yul\":5793:5952   */\n      iszero\n      tag_202\n      jumpi\n      pop\n        /* \"#utility.yul\":5905:5924   */\n      dup2\n      dup2\n      exp\n        /* \"#utility.yul\":5937:5942   */\n      jump(tag_88)\n        /* \"#utility.yul\":5793:5952   */\n    tag_202:\n        /* \"#utility.yul\":5984:6018   */\n      tag_203\n        /* \"#utility.yul\":6009:6017   */\n      dup4\n        /* \"#utility.yul\":6003:6007   */\n      dup4\n        /* \"#utility.yul\":5984:6018   */\n      tag_136\n      jump\t// in\n    tag_203:\n        /* \"#utility.yul\":6054:6060   */\n      dup1\n        /* \"#utility.yul\":6050:6051   */\n      0x00\n        /* \"#utility.yul\":6046:6052   */\n      not\n        /* \"#utility.yul\":6042:6061   */\n      div\n        /* \"#utility.yul\":6033:6040   */\n      dup3\n        /* \"#utility.yul\":6030:6062   */\n      gt\n        /* \"#utility.yul\":6027:6085   */\n      iszero\n      tag_205\n      jumpi\n        /* \"#utility.yul\":6065:6083   */\n      tag_205\n      tag_134\n      jump\t// in\n    tag_205:\n        /* \"#utility.yul\":6103:6123   */\n      mul\n      swap4\n        /* \"#utility.yul\":5323:6129   */\n      swap3\n      pop\n      pop\n      pop\n      jump\t// out\n        /* \"#utility.yul\":6134:6265   */\n    tag_118:\n        /* \"#utility.yul\":6194:6199   */\n      0x00\n        /* \"#utility.yul\":6223:6259   */\n      tag_89\n        /* \"#utility.yul\":6250:6258   */\n      dup4\n        /* \"#utility.yul\":6244:6248   */\n      dup4\n        /* \"#utility.yul\":6223:6259   */\n      tag_137\n      jump\t// in\n        /* \"#utility.yul\":6522:6634   */\n    tag_128:\n        /* \"#utility.yul\":6554:6555   */\n      0x00\n        /* \"#utility.yul\":6580:6581   */\n      dup3\n        /* \"#utility.yul\":6570:6605   */\n      tag_211\n      jumpi\n        /* \"#utility.yul\":6585:6603   */\n      tag_211\n      tag_135\n      jump\t// in\n    tag_211:\n      pop\n        /* \"#utility.yul\":6619:6628   */\n      mod\n      swap1\n        /* \"#utility.yul\":6522:6634   */\n      jump\t// out\n\n    auxdata: 0xa264697066735822122007a409aa9ee7e3e7efae966a3bb032aac0660da0583432eeaf36fecd6a1adfd764736f6c63430008110033\n}\n",
				"bytecode": {
					"linkReferences": {},
					"object": "60806040526001600081905560329055600a60025560646003556004805461ffff191661250917905534801561003457600080fd5b5061094a806100446000396000f3fe608060405234801561001057600080fd5b50600436106100415760003560e01c80631597ee441461004657806361a769001461006c578063a7cc0f501461008c575b600080fd5b6100596100543660046105f4565b61009f565b6040519081526020015b60405180910390f35b61007f61007a3660046106b9565b610105565b60405161006391906106d2565b61005961009a366004610719565b610176565b6000805b82518110156100ff57600882901b91508281600185516100c3919061075b565b6100cd919061075b565b815181106100dd576100dd61076e565b602002602001015160ff168217915080806100f790610784565b9150506100a3565b50919050565b60408051601b8082526103808201909252606091602082016103608036833701905050905060005b81518110156100ff5761014083826103e3565b8282815181106101525761015261076e565b60ff909216602092830291909101909101528061016e81610784565b91505061012d565b60008061018285610105565b9050600061018f85610105565b90506000825167ffffffffffffffff8111156101ad576101ad6105c8565b6040519080825280602002602001820160405280156101d6578160200160208202803683370190505b506000805460408051426020808301919091524382840152446060830152608082018d905260a082018c905260c0808301949094528251808303909401845260e090910190915281519101209192508190036102695760405162461bcd60e51b815260206004820152600e60248201526d072616e646f6d53656564203d20360941b604482015260640160405180910390fd5b600080805b86518110156103b557600087828151811061028b5761028b61076e565b6020026020010151905060008783815181106102a9576102a961076e565b602002602001015190508360ff16600003610310576102ca86868484610403565b8784815181106102dc576102dc61076e565b60ff90921660209283029190910190910152836102f88161079d565b945061030790506002866107bc565b945050506103a3565b8360ff1660010361035557600187848151811061032f5761032f61076e565b60ff909216602092830291909101909101528361034b8161079d565b94505050506103a3565b61036b868661036381610784565b97508d6104b9565b87848151811061037d5761037d61076e565b60ff90921660209283029190910190910152600093508461039d81610784565b95505050505b806103ad81610784565b91505061026e565b6000805490806103c483610784565b91905055506103d28561009f565b9750505050505050505b9392505050565b60006103fa8360086103f585826107cf565b610507565b90505b92915050565b600080808061041b888883610416610532565b610556565b905060005b600381101561045f57610432816105ae565b61043c90856107bc565b935081841061044d5780925061045f565b8061045781610784565b915050610420565b5081600003610473578593505050506104b1565b81600103610486578493505050506104b1565b6104ab8861049389610784565b6004549099508990600190610100900460ff16610556565b93505050505b949350505050565b6000816000036104cb575060006103dc565b6000600354836104db91906107fc565b9050806104ed86866000612710610556565b116104fc5760019150506103dc565b506000949350505050565b6000808260016105188660026108f4565b610522919061075b565b901b8516831c9150509392505050565b600060025460015460015461054791906107bc565b61055191906107bc565b905090565b6000610562838361075b565b60408051602081018890529081018690526060016040516020818303038152906040528051906020012060001c6105999190610900565b90506105a583826107bc565b95945050505050565b6000816002146105c0576001546103fd565b505060025490565b634e487b7160e01b600052604160045260246000fd5b803560ff811681146105ef57600080fd5b919050565b6000602080838503121561060757600080fd5b823567ffffffffffffffff8082111561061f57600080fd5b818501915085601f83011261063357600080fd5b813581811115610645576106456105c8565b8060051b604051601f19603f8301168101818110858211171561066a5761066a6105c8565b60405291825284820192508381018501918883111561068857600080fd5b938501935b828510156106ad5761069e856105de565b8452938501939285019261068d565b98975050505050505050565b6000602082840312156106cb57600080fd5b5035919050565b6020808252825182820181905260009190848201906040850190845b8181101561070d57835160ff16835292840192918401916001016106ee565b50909695505050505050565b60008060006060848603121561072e57600080fd5b505081359360208301359350604090920135919050565b634e487b7160e01b600052601160045260246000fd5b818103818111156103fd576103fd610745565b634e487b7160e01b600052603260045260246000fd5b60006001820161079657610796610745565b5060010190565b600060ff821660ff81036107b3576107b3610745565b60010192915050565b808201808211156103fd576103fd610745565b80820281158282048414176103fd576103fd610745565b634e487b7160e01b600052601260045260246000fd5b60008261080b5761080b6107e6565b500490565b600181815b8085111561084b57816000190482111561083157610831610745565b8085161561083e57918102915b93841c9390800290610815565b509250929050565b600082610862575060016103fd565b8161086f575060006103fd565b8160018114610885576002811461088f576108ab565b60019150506103fd565b60ff8411156108a0576108a0610745565b50506001821b6103fd565b5060208310610133831016604e8410600b84101617156108ce575081810a6103fd565b6108d88383610810565b80600019048211156108ec576108ec610745565b029392505050565b60006103fa8383610853565b60008261090f5761090f6107e6565b50069056fea264697066735822122007a409aa9ee7e3e7efae966a3bb032aac0660da0583432eeaf36fecd6a1adfd764736f6c63430008110033",
					"opcodes": "PUSH1 0x80 PUSH1 0x40 MSTORE PUSH1 0x1 PUSH1 0x0 DUP2 SWAP1 SSTORE PUSH1 0x32 SWAP1 SSTORE PUSH1 0xA PUSH1 0x2 SSTORE PUSH1 0x64 PUSH1 0x3 SSTORE PUSH1 0x4 DUP1 SLOAD PUSH2 0xFFFF NOT AND PUSH2 0x2509 OR SWAP1 SSTORE CALLVALUE DUP1 ISZERO PUSH2 0x34 JUMPI PUSH1 0x0 DUP1 REVERT JUMPDEST POP PUSH2 0x94A DUP1 PUSH2 0x44 PUSH1 0x0 CODECOPY PUSH1 0x0 RETURN INVALID PUSH1 0x80 PUSH1 0x40 MSTORE CALLVALUE DUP1 ISZERO PUSH2 0x10 JUMPI PUSH1 0x0 DUP1 REVERT JUMPDEST POP PUSH1 0x4 CALLDATASIZE LT PUSH2 0x41 JUMPI PUSH1 0x0 CALLDATALOAD PUSH1 0xE0 SHR DUP1 PUSH4 0x1597EE44 EQ PUSH2 0x46 JUMPI DUP1 PUSH4 0x61A76900 EQ PUSH2 0x6C JUMPI DUP1 PUSH4 0xA7CC0F50 EQ PUSH2 0x8C JUMPI JUMPDEST PUSH1 0x0 DUP1 REVERT JUMPDEST PUSH2 0x59 PUSH2 0x54 CALLDATASIZE PUSH1 0x4 PUSH2 0x5F4 JUMP JUMPDEST PUSH2 0x9F JUMP JUMPDEST PUSH1 0x40 MLOAD SWAP1 DUP2 MSTORE PUSH1 0x20 ADD JUMPDEST PUSH1 0x40 MLOAD DUP1 SWAP2 SUB SWAP1 RETURN JUMPDEST PUSH2 0x7F PUSH2 0x7A CALLDATASIZE PUSH1 0x4 PUSH2 0x6B9 JUMP JUMPDEST PUSH2 0x105 JUMP JUMPDEST PUSH1 0x40 MLOAD PUSH2 0x63 SWAP2 SWAP1 PUSH2 0x6D2 JUMP JUMPDEST PUSH2 0x59 PUSH2 0x9A CALLDATASIZE PUSH1 0x4 PUSH2 0x719 JUMP JUMPDEST PUSH2 0x176 JUMP JUMPDEST PUSH1 0x0 DUP1 JUMPDEST DUP3 MLOAD DUP2 LT ISZERO PUSH2 0xFF JUMPI PUSH1 0x8 DUP3 SWAP1 SHL SWAP2 POP DUP3 DUP2 PUSH1 0x1 DUP6 MLOAD PUSH2 0xC3 SWAP2 SWAP1 PUSH2 0x75B JUMP JUMPDEST PUSH2 0xCD SWAP2 SWAP1 PUSH2 0x75B JUMP JUMPDEST DUP2 MLOAD DUP2 LT PUSH2 0xDD JUMPI PUSH2 0xDD PUSH2 0x76E JUMP JUMPDEST PUSH1 0x20 MUL PUSH1 0x20 ADD ADD MLOAD PUSH1 0xFF AND DUP3 OR SWAP2 POP DUP1 DUP1 PUSH2 0xF7 SWAP1 PUSH2 0x784 JUMP JUMPDEST SWAP2 POP POP PUSH2 0xA3 JUMP JUMPDEST POP SWAP2 SWAP1 POP JUMP JUMPDEST PUSH1 0x40 DUP1 MLOAD PUSH1 0x1B DUP1 DUP3 MSTORE PUSH2 0x380 DUP3 ADD SWAP1 SWAP3 MSTORE PUSH1 0x60 SWAP2 PUSH1 0x20 DUP3 ADD PUSH2 0x360 DUP1 CALLDATASIZE DUP4 CALLDATACOPY ADD SWAP1 POP POP SWAP1 POP PUSH1 0x0 JUMPDEST DUP2 MLOAD DUP2 LT ISZERO PUSH2 0xFF JUMPI PUSH2 0x140 DUP4 DUP3 PUSH2 0x3E3 JUMP JUMPDEST DUP3 DUP3 DUP2 MLOAD DUP2 LT PUSH2 0x152 JUMPI PUSH2 0x152 PUSH2 0x76E JUMP JUMPDEST PUSH1 0xFF SWAP1 SWAP3 AND PUSH1 0x20 SWAP3 DUP4 MUL SWAP2 SWAP1 SWAP2 ADD SWAP1 SWAP2 ADD MSTORE DUP1 PUSH2 0x16E DUP2 PUSH2 0x784 JUMP JUMPDEST SWAP2 POP POP PUSH2 0x12D JUMP JUMPDEST PUSH1 0x0 DUP1 PUSH2 0x182 DUP6 PUSH2 0x105 JUMP JUMPDEST SWAP1 POP PUSH1 0x0 PUSH2 0x18F DUP6 PUSH2 0x105 JUMP JUMPDEST SWAP1 POP PUSH1 0x0 DUP3 MLOAD PUSH8 0xFFFFFFFFFFFFFFFF DUP2 GT ISZERO PUSH2 0x1AD JUMPI PUSH2 0x1AD PUSH2 0x5C8 JUMP JUMPDEST PUSH1 0x40 MLOAD SWAP1 DUP1 DUP3 MSTORE DUP1 PUSH1 0x20 MUL PUSH1 0x20 ADD DUP3 ADD PUSH1 0x40 MSTORE DUP1 ISZERO PUSH2 0x1D6 JUMPI DUP2 PUSH1 0x20 ADD PUSH1 0x20 DUP3 MUL DUP1 CALLDATASIZE DUP4 CALLDATACOPY ADD SWAP1 POP JUMPDEST POP PUSH1 0x0 DUP1 SLOAD PUSH1 0x40 DUP1 MLOAD TIMESTAMP PUSH1 0x20 DUP1 DUP4 ADD SWAP2 SWAP1 SWAP2 MSTORE NUMBER DUP3 DUP5 ADD MSTORE DIFFICULTY PUSH1 0x60 DUP4 ADD MSTORE PUSH1 0x80 DUP3 ADD DUP14 SWAP1 MSTORE PUSH1 0xA0 DUP3 ADD DUP13 SWAP1 MSTORE PUSH1 0xC0 DUP1 DUP4 ADD SWAP5 SWAP1 SWAP5 MSTORE DUP3 MLOAD DUP1 DUP4 SUB SWAP1 SWAP5 ADD DUP5 MSTORE PUSH1 0xE0 SWAP1 SWAP2 ADD SWAP1 SWAP2 MSTORE DUP2 MLOAD SWAP2 ADD KECCAK256 SWAP2 SWAP3 POP DUP2 SWAP1 SUB PUSH2 0x269 JUMPI PUSH1 0x40 MLOAD PUSH3 0x461BCD PUSH1 0xE5 SHL DUP2 MSTORE PUSH1 0x20 PUSH1 0x4 DUP3 ADD MSTORE PUSH1 0xE PUSH1 0x24 DUP3 ADD MSTORE PUSH14 0x72616E646F6D53656564203D203 PUSH1 0x94 SHL PUSH1 0x44 DUP3 ADD MSTORE PUSH1 0x64 ADD PUSH1 0x40 MLOAD DUP1 SWAP2 SUB SWAP1 REVERT JUMPDEST PUSH1 0x0 DUP1 DUP1 JUMPDEST DUP7 MLOAD DUP2 LT ISZERO PUSH2 0x3B5 JUMPI PUSH1 0x0 DUP8 DUP3 DUP2 MLOAD DUP2 LT PUSH2 0x28B JUMPI PUSH2 0x28B PUSH2 0x76E JUMP JUMPDEST PUSH1 0x20 MUL PUSH1 0x20 ADD ADD MLOAD SWAP1 POP PUSH1 0x0 DUP8 DUP4 DUP2 MLOAD DUP2 LT PUSH2 0x2A9 JUMPI PUSH2 0x2A9 PUSH2 0x76E JUMP JUMPDEST PUSH1 0x20 MUL PUSH1 0x20 ADD ADD MLOAD SWAP1 POP DUP4 PUSH1 0xFF AND PUSH1 0x0 SUB PUSH2 0x310 JUMPI PUSH2 0x2CA DUP7 DUP7 DUP5 DUP5 PUSH2 0x403 JUMP JUMPDEST DUP8 DUP5 DUP2 MLOAD DUP2 LT PUSH2 0x2DC JUMPI PUSH2 0x2DC PUSH2 0x76E JUMP JUMPDEST PUSH1 0xFF SWAP1 SWAP3 AND PUSH1 0x20 SWAP3 DUP4 MUL SWAP2 SWAP1 SWAP2 ADD SWAP1 SWAP2 ADD MSTORE DUP4 PUSH2 0x2F8 DUP2 PUSH2 0x79D JUMP JUMPDEST SWAP5 POP PUSH2 0x307 SWAP1 POP PUSH1 0x2 DUP7 PUSH2 0x7BC JUMP JUMPDEST SWAP5 POP POP POP PUSH2 0x3A3 JUMP JUMPDEST DUP4 PUSH1 0xFF AND PUSH1 0x1 SUB PUSH2 0x355 JUMPI PUSH1 0x1 DUP8 DUP5 DUP2 MLOAD DUP2 LT PUSH2 0x32F JUMPI PUSH2 0x32F PUSH2 0x76E JUMP JUMPDEST PUSH1 0xFF SWAP1 SWAP3 AND PUSH1 0x20 SWAP3 DUP4 MUL SWAP2 SWAP1 SWAP2 ADD SWAP1 SWAP2 ADD MSTORE DUP4 PUSH2 0x34B DUP2 PUSH2 0x79D JUMP JUMPDEST SWAP5 POP POP POP POP PUSH2 0x3A3 JUMP JUMPDEST PUSH2 0x36B DUP7 DUP7 PUSH2 0x363 DUP2 PUSH2 0x784 JUMP JUMPDEST SWAP8 POP DUP14 PUSH2 0x4B9 JUMP JUMPDEST DUP8 DUP5 DUP2 MLOAD DUP2 LT PUSH2 0x37D JUMPI PUSH2 0x37D PUSH2 0x76E JUMP JUMPDEST PUSH1 0xFF SWAP1 SWAP3 AND PUSH1 0x20 SWAP3 DUP4 MUL SWAP2 SWAP1 SWAP2 ADD SWAP1 SWAP2 ADD MSTORE PUSH1 0x0 SWAP4 POP DUP5 PUSH2 0x39D DUP2 PUSH2 0x784 JUMP JUMPDEST SWAP6 POP POP POP POP JUMPDEST DUP1 PUSH2 0x3AD DUP2 PUSH2 0x784 JUMP JUMPDEST SWAP2 POP POP PUSH2 0x26E JUMP JUMPDEST PUSH1 0x0 DUP1 SLOAD SWAP1 DUP1 PUSH2 0x3C4 DUP4 PUSH2 0x784 JUMP JUMPDEST SWAP2 SWAP1 POP SSTORE POP PUSH2 0x3D2 DUP6 PUSH2 0x9F JUMP JUMPDEST SWAP8 POP POP POP POP POP POP POP POP JUMPDEST SWAP4 SWAP3 POP POP POP JUMP JUMPDEST PUSH1 0x0 PUSH2 0x3FA DUP4 PUSH1 0x8 PUSH2 0x3F5 DUP6 DUP3 PUSH2 0x7CF JUMP JUMPDEST PUSH2 0x507 JUMP JUMPDEST SWAP1 POP JUMPDEST SWAP3 SWAP2 POP POP JUMP JUMPDEST PUSH1 0x0 DUP1 DUP1 DUP1 PUSH2 0x41B DUP9 DUP9 DUP4 PUSH2 0x416 PUSH2 0x532 JUMP JUMPDEST PUSH2 0x556 JUMP JUMPDEST SWAP1 POP PUSH1 0x0 JUMPDEST PUSH1 0x3 DUP2 LT ISZERO PUSH2 0x45F JUMPI PUSH2 0x432 DUP2 PUSH2 0x5AE JUMP JUMPDEST PUSH2 0x43C SWAP1 DUP6 PUSH2 0x7BC JUMP JUMPDEST SWAP4 POP DUP2 DUP5 LT PUSH2 0x44D JUMPI DUP1 SWAP3 POP PUSH2 0x45F JUMP JUMPDEST DUP1 PUSH2 0x457 DUP2 PUSH2 0x784 JUMP JUMPDEST SWAP2 POP POP PUSH2 0x420 JUMP JUMPDEST POP DUP2 PUSH1 0x0 SUB PUSH2 0x473 JUMPI DUP6 SWAP4 POP POP POP POP PUSH2 0x4B1 JUMP JUMPDEST DUP2 PUSH1 0x1 SUB PUSH2 0x486 JUMPI DUP5 SWAP4 POP POP POP POP PUSH2 0x4B1 JUMP JUMPDEST PUSH2 0x4AB DUP9 PUSH2 0x493 DUP10 PUSH2 0x784 JUMP JUMPDEST PUSH1 0x4 SLOAD SWAP1 SWAP10 POP DUP10 SWAP1 PUSH1 0x1 SWAP1 PUSH2 0x100 SWAP1 DIV PUSH1 0xFF AND PUSH2 0x556 JUMP JUMPDEST SWAP4 POP POP POP POP JUMPDEST SWAP5 SWAP4 POP POP POP POP JUMP JUMPDEST PUSH1 0x0 DUP2 PUSH1 0x0 SUB PUSH2 0x4CB JUMPI POP PUSH1 0x0 PUSH2 0x3DC JUMP JUMPDEST PUSH1 0x0 PUSH1 0x3 SLOAD DUP4 PUSH2 0x4DB SWAP2 SWAP1 PUSH2 0x7FC JUMP JUMPDEST SWAP1 POP DUP1 PUSH2 0x4ED DUP7 DUP7 PUSH1 0x0 PUSH2 0x2710 PUSH2 0x556 JUMP JUMPDEST GT PUSH2 0x4FC JUMPI PUSH1 0x1 SWAP2 POP POP PUSH2 0x3DC JUMP JUMPDEST POP PUSH1 0x0 SWAP5 SWAP4 POP POP POP POP JUMP JUMPDEST PUSH1 0x0 DUP1 DUP3 PUSH1 0x1 PUSH2 0x518 DUP7 PUSH1 0x2 PUSH2 0x8F4 JUMP JUMPDEST PUSH2 0x522 SWAP2 SWAP1 PUSH2 0x75B JUMP JUMPDEST SWAP1 SHL DUP6 AND DUP4 SHR SWAP2 POP POP SWAP4 SWAP3 POP POP POP JUMP JUMPDEST PUSH1 0x0 PUSH1 0x2 SLOAD PUSH1 0x1 SLOAD PUSH1 0x1 SLOAD PUSH2 0x547 SWAP2 SWAP1 PUSH2 0x7BC JUMP JUMPDEST PUSH2 0x551 SWAP2 SWAP1 PUSH2 0x7BC JUMP JUMPDEST SWAP1 POP SWAP1 JUMP JUMPDEST PUSH1 0x0 PUSH2 0x562 DUP4 DUP4 PUSH2 0x75B JUMP JUMPDEST PUSH1 0x40 DUP1 MLOAD PUSH1 0x20 DUP2 ADD DUP9 SWAP1 MSTORE SWAP1 DUP2 ADD DUP7 SWAP1 MSTORE PUSH1 0x60 ADD PUSH1 0x40 MLOAD PUSH1 0x20 DUP2 DUP4 SUB SUB DUP2 MSTORE SWAP1 PUSH1 0x40 MSTORE DUP1 MLOAD SWAP1 PUSH1 0x20 ADD KECCAK256 PUSH1 0x0 SHR PUSH2 0x599 SWAP2 SWAP1 PUSH2 0x900 JUMP JUMPDEST SWAP1 POP PUSH2 0x5A5 DUP4 DUP3 PUSH2 0x7BC JUMP JUMPDEST SWAP6 SWAP5 POP POP POP POP POP JUMP JUMPDEST PUSH1 0x0 DUP2 PUSH1 0x2 EQ PUSH2 0x5C0 JUMPI PUSH1 0x1 SLOAD PUSH2 0x3FD JUMP JUMPDEST POP POP PUSH1 0x2 SLOAD SWAP1 JUMP JUMPDEST PUSH4 0x4E487B71 PUSH1 0xE0 SHL PUSH1 0x0 MSTORE PUSH1 0x41 PUSH1 0x4 MSTORE PUSH1 0x24 PUSH1 0x0 REVERT JUMPDEST DUP1 CALLDATALOAD PUSH1 0xFF DUP2 AND DUP2 EQ PUSH2 0x5EF JUMPI PUSH1 0x0 DUP1 REVERT JUMPDEST SWAP2 SWAP1 POP JUMP JUMPDEST PUSH1 0x0 PUSH1 0x20 DUP1 DUP4 DUP6 SUB SLT ISZERO PUSH2 0x607 JUMPI PUSH1 0x0 DUP1 REVERT JUMPDEST DUP3 CALLDATALOAD PUSH8 0xFFFFFFFFFFFFFFFF DUP1 DUP3 GT ISZERO PUSH2 0x61F JUMPI PUSH1 0x0 DUP1 REVERT JUMPDEST DUP2 DUP6 ADD SWAP2 POP DUP6 PUSH1 0x1F DUP4 ADD SLT PUSH2 0x633 JUMPI PUSH1 0x0 DUP1 REVERT JUMPDEST DUP2 CALLDATALOAD DUP2 DUP2 GT ISZERO PUSH2 0x645 JUMPI PUSH2 0x645 PUSH2 0x5C8 JUMP JUMPDEST DUP1 PUSH1 0x5 SHL PUSH1 0x40 MLOAD PUSH1 0x1F NOT PUSH1 0x3F DUP4 ADD AND DUP2 ADD DUP2 DUP2 LT DUP6 DUP3 GT OR ISZERO PUSH2 0x66A JUMPI PUSH2 0x66A PUSH2 0x5C8 JUMP JUMPDEST PUSH1 0x40 MSTORE SWAP2 DUP3 MSTORE DUP5 DUP3 ADD SWAP3 POP DUP4 DUP2 ADD DUP6 ADD SWAP2 DUP9 DUP4 GT ISZERO PUSH2 0x688 JUMPI PUSH1 0x0 DUP1 REVERT JUMPDEST SWAP4 DUP6 ADD SWAP4 JUMPDEST DUP3 DUP6 LT ISZERO PUSH2 0x6AD JUMPI PUSH2 0x69E DUP6 PUSH2 0x5DE JUMP JUMPDEST DUP5 MSTORE SWAP4 DUP6 ADD SWAP4 SWAP3 DUP6 ADD SWAP3 PUSH2 0x68D JUMP JUMPDEST SWAP9 SWAP8 POP POP POP POP POP POP POP POP JUMP JUMPDEST PUSH1 0x0 PUSH1 0x20 DUP3 DUP5 SUB SLT ISZERO PUSH2 0x6CB JUMPI PUSH1 0x0 DUP1 REVERT JUMPDEST POP CALLDATALOAD SWAP2 SWAP1 POP JUMP JUMPDEST PUSH1 0x20 DUP1 DUP3 MSTORE DUP3 MLOAD DUP3 DUP3 ADD DUP2 SWAP1 MSTORE PUSH1 0x0 SWAP2 SWAP1 DUP5 DUP3 ADD SWAP1 PUSH1 0x40 DUP6 ADD SWAP1 DUP5 JUMPDEST DUP2 DUP2 LT ISZERO PUSH2 0x70D JUMPI DUP4 MLOAD PUSH1 0xFF AND DUP4 MSTORE SWAP3 DUP5 ADD SWAP3 SWAP2 DUP5 ADD SWAP2 PUSH1 0x1 ADD PUSH2 0x6EE JUMP JUMPDEST POP SWAP1 SWAP7 SWAP6 POP POP POP POP POP POP JUMP JUMPDEST PUSH1 0x0 DUP1 PUSH1 0x0 PUSH1 0x60 DUP5 DUP7 SUB SLT ISZERO PUSH2 0x72E JUMPI PUSH1 0x0 DUP1 REVERT JUMPDEST POP POP DUP2 CALLDATALOAD SWAP4 PUSH1 0x20 DUP4 ADD CALLDATALOAD SWAP4 POP PUSH1 0x40 SWAP1 SWAP3 ADD CALLDATALOAD SWAP2 SWAP1 POP JUMP JUMPDEST PUSH4 0x4E487B71 PUSH1 0xE0 SHL PUSH1 0x0 MSTORE PUSH1 0x11 PUSH1 0x4 MSTORE PUSH1 0x24 PUSH1 0x0 REVERT JUMPDEST DUP2 DUP2 SUB DUP2 DUP2 GT ISZERO PUSH2 0x3FD JUMPI PUSH2 0x3FD PUSH2 0x745 JUMP JUMPDEST PUSH4 0x4E487B71 PUSH1 0xE0 SHL PUSH1 0x0 MSTORE PUSH1 0x32 PUSH1 0x4 MSTORE PUSH1 0x24 PUSH1 0x0 REVERT JUMPDEST PUSH1 0x0 PUSH1 0x1 DUP3 ADD PUSH2 0x796 JUMPI PUSH2 0x796 PUSH2 0x745 JUMP JUMPDEST POP PUSH1 0x1 ADD SWAP1 JUMP JUMPDEST PUSH1 0x0 PUSH1 0xFF DUP3 AND PUSH1 0xFF DUP2 SUB PUSH2 0x7B3 JUMPI PUSH2 0x7B3 PUSH2 0x745 JUMP JUMPDEST PUSH1 0x1 ADD SWAP3 SWAP2 POP POP JUMP JUMPDEST DUP1 DUP3 ADD DUP1 DUP3 GT ISZERO PUSH2 0x3FD JUMPI PUSH2 0x3FD PUSH2 0x745 JUMP JUMPDEST DUP1 DUP3 MUL DUP2 ISZERO DUP3 DUP3 DIV DUP5 EQ OR PUSH2 0x3FD JUMPI PUSH2 0x3FD PUSH2 0x745 JUMP JUMPDEST PUSH4 0x4E487B71 PUSH1 0xE0 SHL PUSH1 0x0 MSTORE PUSH1 0x12 PUSH1 0x4 MSTORE PUSH1 0x24 PUSH1 0x0 REVERT JUMPDEST PUSH1 0x0 DUP3 PUSH2 0x80B JUMPI PUSH2 0x80B PUSH2 0x7E6 JUMP JUMPDEST POP DIV SWAP1 JUMP JUMPDEST PUSH1 0x1 DUP2 DUP2 JUMPDEST DUP1 DUP6 GT ISZERO PUSH2 0x84B JUMPI DUP2 PUSH1 0x0 NOT DIV DUP3 GT ISZERO PUSH2 0x831 JUMPI PUSH2 0x831 PUSH2 0x745 JUMP JUMPDEST DUP1 DUP6 AND ISZERO PUSH2 0x83E JUMPI SWAP2 DUP2 MUL SWAP2 JUMPDEST SWAP4 DUP5 SHR SWAP4 SWAP1 DUP1 MUL SWAP1 PUSH2 0x815 JUMP JUMPDEST POP SWAP3 POP SWAP3 SWAP1 POP JUMP JUMPDEST PUSH1 0x0 DUP3 PUSH2 0x862 JUMPI POP PUSH1 0x1 PUSH2 0x3FD JUMP JUMPDEST DUP2 PUSH2 0x86F JUMPI POP PUSH1 0x0 PUSH2 0x3FD JUMP JUMPDEST DUP2 PUSH1 0x1 DUP2 EQ PUSH2 0x885 JUMPI PUSH1 0x2 DUP2 EQ PUSH2 0x88F JUMPI PUSH2 0x8AB JUMP JUMPDEST PUSH1 0x1 SWAP2 POP POP PUSH2 0x3FD JUMP JUMPDEST PUSH1 0xFF DUP5 GT ISZERO PUSH2 0x8A0 JUMPI PUSH2 0x8A0 PUSH2 0x745 JUMP JUMPDEST POP POP PUSH1 0x1 DUP3 SHL PUSH2 0x3FD JUMP JUMPDEST POP PUSH1 0x20 DUP4 LT PUSH2 0x133 DUP4 LT AND PUSH1 0x4E DUP5 LT PUSH1 0xB DUP5 LT AND OR ISZERO PUSH2 0x8CE JUMPI POP DUP2 DUP2 EXP PUSH2 0x3FD JUMP JUMPDEST PUSH2 0x8D8 DUP4 DUP4 PUSH2 0x810 JUMP JUMPDEST DUP1 PUSH1 0x0 NOT DIV DUP3 GT ISZERO PUSH2 0x8EC JUMPI PUSH2 0x8EC PUSH2 0x745 JUMP JUMPDEST MUL SWAP4 SWAP3 POP POP POP JUMP JUMPDEST PUSH1 0x0 PUSH2 0x3FA DUP4 DUP4 PUSH2 0x853 JUMP JUMPDEST PUSH1 0x0 DUP3 PUSH2 0x90F JUMPI PUSH2 0x90F PUSH2 0x7E6 JUMP JUMPDEST POP MOD SWAP1 JUMP INVALID LOG2 PUSH5 0x6970667358 0x22 SLT KECCAK256 SMOD LOG4 MULMOD 0xAA SWAP15 0xE7 0xE3 0xE7 0xEF 0xAE SWAP7 PUSH11 0x3BB032AAC0660DA0583432 0xEE 0xAF CALLDATASIZE INVALID 0xCD PUSH11 0x1ADFD764736F6C63430008 GT STOP CALLER "
				},
				"gasEstimates": {
					"creation": {
						"codeDepositCost": "475600",
						"executionCost": "113165",
						"totalCost": "588765"
					},
					"external": {
						"breading(uint256,uint256,uint256)": "infinite",
						"decode(uint256)": "infinite",
						"encode(uint8[])": "infinite"
					},
					"internal": {
						"get8Bits(uint256,uint256)": "infinite",
						"getRandomId(uint256,uint256,uint8,uint8)": "infinite",
						"getRarity(uint256,uint256,uint256)": "infinite",
						"random(uint256,uint256,uint256,uint256)": "infinite",
						"sliceNumber(uint256,uint256,uint256)": "infinite",
						"totalWeight()": "infinite",
						"weight(uint256)": "2159"
					}
				},
				"methodIdentifiers": {
					"breading(uint256,uint256,uint256)": "a7cc0f50",
					"decode(uint256)": "61a76900",
					"encode(uint8[])": "1597ee44"
				}
			},
			"storageLayout": {
				"storage": [
					{
						"astId": 7,
						"contract": "contracts/breedings/Breeding.sol:Breeding",
						"label": "GlobalSeed",
						"offset": 0,
						"slot": "0",
						"type": "t_uint256"
					},
					{
						"astId": 10,
						"contract": "contracts/breedings/Breeding.sol:Breeding",
						"label": "randomSideWeight",
						"offset": 0,
						"slot": "1",
						"type": "t_uint256"
					},
					{
						"astId": 13,
						"contract": "contracts/breedings/Breeding.sol:Breeding",
						"label": "randomIdWeight",
						"offset": 0,
						"slot": "2",
						"type": "t_uint256"
					},
					{
						"astId": 16,
						"contract": "contracts/breedings/Breeding.sol:Breeding",
						"label": "rarityPercent",
						"offset": 0,
						"slot": "3",
						"type": "t_uint256"
					},
					{
						"astId": 19,
						"contract": "contracts/breedings/Breeding.sol:Breeding",
						"label": "maxBodyParts",
						"offset": 0,
						"slot": "4",
						"type": "t_uint8"
					},
					{
						"astId": 22,
						"contract": "contracts/breedings/Breeding.sol:Breeding",
						"label": "maxId",
						"offset": 1,
						"slot": "4",
						"type": "t_uint8"
					}
				],
				"types": {
					"t_uint256": {
						"encoding": "inplace",
						"label": "uint256",
						"numberOfBytes": "32"
					},
					"t_uint8": {
						"encoding": "inplace",
						"label": "uint8",
						"numberOfBytes": "1"
					}
				}
			},
			"userdoc": {
				"kind": "user",
				"methods": {},
				"version": 1
			}
		}
	}
}