{
	"contracts/breedings/Breeding.sol": {
		"Breading": {
			"abi": [
				{
					"anonymous": false,
					"inputs": [
						{
							"indexed": true,
							"internalType": "address",
							"name": "previousOwner",
							"type": "address"
						},
						{
							"indexed": true,
							"internalType": "address",
							"name": "newOwner",
							"type": "address"
						}
					],
					"name": "OwnershipTransferred",
					"type": "event"
				},
				{
					"inputs": [
						{
							"internalType": "uint256",
							"name": "genes1",
							"type": "uint256"
						},
						{
							"internalType": "uint256",
							"name": "genes2",
							"type": "uint256"
						}
					],
					"name": "breading",
					"outputs": [
						{
							"internalType": "uint256",
							"name": "",
							"type": "uint256"
						}
					],
					"stateMutability": "nonpayable",
					"type": "function"
				},
				{
					"inputs": [],
					"name": "getGlobalSeed",
					"outputs": [
						{
							"internalType": "uint256",
							"name": "",
							"type": "uint256"
						}
					],
					"stateMutability": "view",
					"type": "function"
				},
				{
					"inputs": [],
					"name": "getMaxArcane",
					"outputs": [
						{
							"internalType": "uint256",
							"name": "",
							"type": "uint256"
						}
					],
					"stateMutability": "view",
					"type": "function"
				},
				{
					"inputs": [],
					"name": "getMinArcane",
					"outputs": [
						{
							"internalType": "uint256",
							"name": "",
							"type": "uint256"
						}
					],
					"stateMutability": "view",
					"type": "function"
				},
				{
					"inputs": [],
					"name": "getRandomPercent",
					"outputs": [
						{
							"internalType": "uint256",
							"name": "",
							"type": "uint256"
						}
					],
					"stateMutability": "view",
					"type": "function"
				},
				{
					"inputs": [],
					"name": "owner",
					"outputs": [
						{
							"internalType": "address",
							"name": "",
							"type": "address"
						}
					],
					"stateMutability": "view",
					"type": "function"
				},
				{
					"inputs": [],
					"name": "renounceOwnership",
					"outputs": [],
					"stateMutability": "nonpayable",
					"type": "function"
				},
				{
					"inputs": [
						{
							"internalType": "uint256",
							"name": "value",
							"type": "uint256"
						}
					],
					"name": "setGlobalSeed",
					"outputs": [],
					"stateMutability": "nonpayable",
					"type": "function"
				},
				{
					"inputs": [
						{
							"internalType": "uint256",
							"name": "value",
							"type": "uint256"
						}
					],
					"name": "setMaxArcane",
					"outputs": [],
					"stateMutability": "nonpayable",
					"type": "function"
				},
				{
					"inputs": [
						{
							"internalType": "uint256",
							"name": "value",
							"type": "uint256"
						}
					],
					"name": "setMinArcane",
					"outputs": [],
					"stateMutability": "nonpayable",
					"type": "function"
				},
				{
					"inputs": [
						{
							"internalType": "uint256",
							"name": "value",
							"type": "uint256"
						}
					],
					"name": "setRandomPercent",
					"outputs": [],
					"stateMutability": "nonpayable",
					"type": "function"
				},
				{
					"inputs": [
						{
							"internalType": "address",
							"name": "newOwner",
							"type": "address"
						}
					],
					"name": "transferOwnership",
					"outputs": [],
					"stateMutability": "nonpayable",
					"type": "function"
				}
			],
			"devdoc": {
				"kind": "dev",
				"methods": {
					"breading(uint256,uint256)": {
						"details": "given genes of token 1 & 2, return a genetic combination - may have a random factor",
						"params": {
							"genes1": "genes of mom",
							"genes2": "genes of dad"
						},
						"returns": {
							"_0": "the genes that are supposed to be passed down the child"
						}
					},
					"owner()": {
						"details": "Returns the address of the current owner."
					},
					"renounceOwnership()": {
						"details": "Leaves the contract without owner. It will not be possible to call `onlyOwner` functions anymore. Can only be called by the current owner. NOTE: Renouncing ownership will leave the contract without an owner, thereby removing any functionality that is only available to the owner."
					},
					"transferOwnership(address)": {
						"details": "Transfers ownership of the contract to a new account (`newOwner`). Can only be called by the current owner."
					}
				},
				"version": 1
			},
			"evm": {
				"assembly": "    /* \"contracts/breedings/Breeding.sol\":195:4772  contract Breading is Ownable, IBreeding {... */\n  mstore(0x40, 0x80)\n    /* \"contracts/breedings/Breeding.sol\":495:496  1 */\n  0x01\n    /* \"contracts/breedings/Breeding.sol\":465:496  uint256 private _globalSeed = 1 */\n  dup1\n  sstore\n    /* \"contracts/breedings/Breeding.sol\":535:537  10 */\n  0x0a\n    /* \"contracts/breedings/Breeding.sol\":502:537  uint256 private _randomPercent = 10 */\n  0x02\n  sstore\n    /* \"contracts/breedings/Breeding.sol\":572:573  5 */\n  0x05\n    /* \"contracts/breedings/Breeding.sol\":543:573  uint256 private _minArcane = 5 */\n  0x03\n  sstore\n    /* \"contracts/breedings/Breeding.sol\":608:610  10 */\n  0x0a\n    /* \"contracts/breedings/Breeding.sol\":579:610  uint256 private _maxArcane = 10 */\n  0x04\n  sstore\n    /* \"contracts/breedings/Breeding.sol\":195:4772  contract Breading is Ownable, IBreeding {... */\n  callvalue\n  dup1\n  iszero\n  tag_1\n  jumpi\n  0x00\n  dup1\n  revert\ntag_1:\n  pop\n    /* \"@openzeppelin/contracts/access/Ownable.sol\":936:968  _transferOwnership(_msgSender()) */\n  tag_4\n    /* \"@openzeppelin/contracts/access/Ownable.sol\":955:967  _msgSender() */\n  tag_5\n    /* \"@openzeppelin/contracts/access/Ownable.sol\":955:965  _msgSender */\n  shl(0x20, tag_6)\n    /* \"@openzeppelin/contracts/access/Ownable.sol\":955:967  _msgSender() */\n  0x20\n  shr\n  jump\t// in\ntag_5:\n    /* \"@openzeppelin/contracts/access/Ownable.sol\":936:954  _transferOwnership */\n  shl(0x20, tag_7)\n    /* \"@openzeppelin/contracts/access/Ownable.sol\":936:968  _transferOwnership(_msgSender()) */\n  0x20\n  shr\n  jump\t// in\ntag_4:\n    /* \"contracts/breedings/Breeding.sol\":195:4772  contract Breading is Ownable, IBreeding {... */\n  jump(tag_8)\n    /* \"@openzeppelin/contracts/utils/Context.sol\":640:736  function _msgSender() internal view virtual returns (address) {... */\ntag_6:\n    /* \"@openzeppelin/contracts/utils/Context.sol\":693:700  address */\n  0x00\n    /* \"@openzeppelin/contracts/utils/Context.sol\":719:729  msg.sender */\n  caller\n    /* \"@openzeppelin/contracts/utils/Context.sol\":712:729  return msg.sender */\n  swap1\n  pop\n    /* \"@openzeppelin/contracts/utils/Context.sol\":640:736  function _msgSender() internal view virtual returns (address) {... */\n  swap1\n  jump\t// out\n    /* \"@openzeppelin/contracts/access/Ownable.sol\":2433:2620  function _transferOwnership(address newOwner) internal virtual {... */\ntag_7:\n    /* \"@openzeppelin/contracts/access/Ownable.sol\":2506:2522  address oldOwner */\n  0x00\n    /* \"@openzeppelin/contracts/access/Ownable.sol\":2525:2531  _owner */\n  dup1\n  0x00\n  swap1\n  sload\n  swap1\n  0x0100\n  exp\n  swap1\n  div\n  0xffffffffffffffffffffffffffffffffffffffff\n  and\n    /* \"@openzeppelin/contracts/access/Ownable.sol\":2506:2531  address oldOwner = _owner */\n  swap1\n  pop\n    /* \"@openzeppelin/contracts/access/Ownable.sol\":2550:2558  newOwner */\n  dup2\n    /* \"@openzeppelin/contracts/access/Ownable.sol\":2541:2547  _owner */\n  0x00\n  dup1\n    /* \"@openzeppelin/contracts/access/Ownable.sol\":2541:2558  _owner = newOwner */\n  0x0100\n  exp\n  dup2\n  sload\n  dup2\n  0xffffffffffffffffffffffffffffffffffffffff\n  mul\n  not\n  and\n  swap1\n  dup4\n  0xffffffffffffffffffffffffffffffffffffffff\n  and\n  mul\n  or\n  swap1\n  sstore\n  pop\n    /* \"@openzeppelin/contracts/access/Ownable.sol\":2604:2612  newOwner */\n  dup2\n    /* \"@openzeppelin/contracts/access/Ownable.sol\":2573:2613  OwnershipTransferred(oldOwner, newOwner) */\n  0xffffffffffffffffffffffffffffffffffffffff\n  and\n    /* \"@openzeppelin/contracts/access/Ownable.sol\":2594:2602  oldOwner */\n  dup2\n    /* \"@openzeppelin/contracts/access/Ownable.sol\":2573:2613  OwnershipTransferred(oldOwner, newOwner) */\n  0xffffffffffffffffffffffffffffffffffffffff\n  and\n  0x8be0079c531659141344cd1fd0a4f28419497f9722a3daafe3b4186f6b6457e0\n  mload(0x40)\n  mload(0x40)\n  dup1\n  swap2\n  sub\n  swap1\n  log3\n    /* \"@openzeppelin/contracts/access/Ownable.sol\":2496:2620  {... */\n  pop\n    /* \"@openzeppelin/contracts/access/Ownable.sol\":2433:2620  function _transferOwnership(address newOwner) internal virtual {... */\n  pop\n  jump\t// out\n    /* \"contracts/breedings/Breeding.sol\":195:4772  contract Breading is Ownable, IBreeding {... */\ntag_8:\n  dataSize(sub_0)\n  dup1\n  dataOffset(sub_0)\n  0x00\n  codecopy\n  0x00\n  return\nstop\n\nsub_0: assembly {\n        /* \"contracts/breedings/Breeding.sol\":195:4772  contract Breading is Ownable, IBreeding {... */\n      mstore(0x40, 0x80)\n      callvalue\n      dup1\n      iszero\n      tag_1\n      jumpi\n      0x00\n      dup1\n      revert\n    tag_1:\n      pop\n      jumpi(tag_2, lt(calldatasize, 0x04))\n      shr(0xe0, calldataload(0x00))\n      dup1\n      0x878cf3a6\n      gt\n      tag_15\n      jumpi\n      dup1\n      0x878cf3a6\n      eq\n      tag_9\n      jumpi\n      dup1\n      0x8da5cb5b\n      eq\n      tag_10\n      jumpi\n      dup1\n      0x91b66725\n      eq\n      tag_11\n      jumpi\n      dup1\n      0xe238b8c6\n      eq\n      tag_12\n      jumpi\n      dup1\n      0xe4a13fb7\n      eq\n      tag_13\n      jumpi\n      dup1\n      0xf2fde38b\n      eq\n      tag_14\n      jumpi\n      jump(tag_2)\n    tag_15:\n      dup1\n      0x02aff378\n      eq\n      tag_3\n      jumpi\n      dup1\n      0x054fee6a\n      eq\n      tag_4\n      jumpi\n      dup1\n      0x1bb39f84\n      eq\n      tag_5\n      jumpi\n      dup1\n      0x32099cc4\n      eq\n      tag_6\n      jumpi\n      dup1\n      0x615ebe28\n      eq\n      tag_7\n      jumpi\n      dup1\n      0x715018a6\n      eq\n      tag_8\n      jumpi\n    tag_2:\n      0x00\n      dup1\n      revert\n        /* \"contracts/breedings/Breeding.sol\":2882:2973  function setGlobalSeed(uint256 value) public onlyOwner {... */\n    tag_3:\n      tag_16\n      0x04\n      dup1\n      calldatasize\n      sub\n      dup2\n      add\n      swap1\n      tag_17\n      swap2\n      swap1\n      tag_18\n      jump\t// in\n    tag_17:\n      tag_19\n      jump\t// in\n    tag_16:\n      stop\n        /* \"contracts/breedings/Breeding.sol\":3696:3793  function setRandomPercent(uint256 value) public onlyOwner {... */\n    tag_4:\n      tag_20\n      0x04\n      dup1\n      calldatasize\n      sub\n      dup2\n      add\n      swap1\n      tag_21\n      swap2\n      swap1\n      tag_18\n      jump\t// in\n    tag_21:\n      tag_22\n      jump\t// in\n    tag_20:\n      stop\n        /* \"contracts/breedings/Breeding.sol\":3420:3509  function setMaxArcane(uint256 value) public onlyOwner {... */\n    tag_5:\n      tag_23\n      0x04\n      dup1\n      calldatasize\n      sub\n      dup2\n      add\n      swap1\n      tag_24\n      swap2\n      swap1\n      tag_18\n      jump\t// in\n    tag_24:\n      tag_25\n      jump\t// in\n    tag_23:\n      stop\n        /* \"contracts/breedings/Breeding.sol\":3056:3146  function getMinArcane() external view returns (uint256) {... */\n    tag_6:\n      tag_26\n      tag_27\n      jump\t// in\n    tag_26:\n      mload(0x40)\n      tag_28\n      swap2\n      swap1\n      tag_29\n      jump\t// in\n    tag_28:\n      mload(0x40)\n      dup1\n      swap2\n      sub\n      swap1\n      return\n        /* \"contracts/breedings/Breeding.sol\":3324:3414  function getMaxArcane() external view returns (uint256) {... */\n    tag_7:\n      tag_30\n      tag_31\n      jump\t// in\n    tag_30:\n      mload(0x40)\n      tag_32\n      swap2\n      swap1\n      tag_29\n      jump\t// in\n    tag_32:\n      mload(0x40)\n      dup1\n      swap2\n      sub\n      swap1\n      return\n        /* \"@openzeppelin/contracts/access/Ownable.sol\":1831:1932  function renounceOwnership() public virtual onlyOwner {... */\n    tag_8:\n      tag_33\n      tag_34\n      jump\t// in\n    tag_33:\n      stop\n        /* \"contracts/breedings/Breeding.sol\":2784:2876  function getGlobalSeed() external view returns (uint256) {... */\n    tag_9:\n      tag_35\n      tag_36\n      jump\t// in\n    tag_35:\n      mload(0x40)\n      tag_37\n      swap2\n      swap1\n      tag_29\n      jump\t// in\n    tag_37:\n      mload(0x40)\n      dup1\n      swap2\n      sub\n      swap1\n      return\n        /* \"@openzeppelin/contracts/access/Ownable.sol\":1201:1286  function owner() public view virtual returns (address) {... */\n    tag_10:\n      tag_38\n      tag_39\n      jump\t// in\n    tag_38:\n      mload(0x40)\n      tag_40\n      swap2\n      swap1\n      tag_41\n      jump\t// in\n    tag_40:\n      mload(0x40)\n      dup1\n      swap2\n      sub\n      swap1\n      return\n        /* \"contracts/breedings/Breeding.sol\":3152:3241  function setMinArcane(uint256 value) public onlyOwner {... */\n    tag_11:\n      tag_42\n      0x04\n      dup1\n      calldatasize\n      sub\n      dup2\n      add\n      swap1\n      tag_43\n      swap2\n      swap1\n      tag_18\n      jump\t// in\n    tag_43:\n      tag_44\n      jump\t// in\n    tag_42:\n      stop\n        /* \"contracts/breedings/Breeding.sol\":3592:3690  function getRandomPercent() external view returns (uint256) {... */\n    tag_12:\n      tag_45\n      tag_46\n      jump\t// in\n    tag_45:\n      mload(0x40)\n      tag_47\n      swap2\n      swap1\n      tag_29\n      jump\t// in\n    tag_47:\n      mload(0x40)\n      dup1\n      swap2\n      sub\n      swap1\n      return\n        /* \"contracts/breedings/Breeding.sol\":617:2608  function breading(uint256 genes1, uint256 genes2)... */\n    tag_13:\n      tag_48\n      0x04\n      dup1\n      calldatasize\n      sub\n      dup2\n      add\n      swap1\n      tag_49\n      swap2\n      swap1\n      tag_50\n      jump\t// in\n    tag_49:\n      tag_51\n      jump\t// in\n    tag_48:\n      mload(0x40)\n      tag_52\n      swap2\n      swap1\n      tag_29\n      jump\t// in\n    tag_52:\n      mload(0x40)\n      dup1\n      swap2\n      sub\n      swap1\n      return\n        /* \"@openzeppelin/contracts/access/Ownable.sol\":2081:2279  function transferOwnership(address newOwner) public virtual onlyOwner {... */\n    tag_14:\n      tag_53\n      0x04\n      dup1\n      calldatasize\n      sub\n      dup2\n      add\n      swap1\n      tag_54\n      swap2\n      swap1\n      tag_55\n      jump\t// in\n    tag_54:\n      tag_56\n      jump\t// in\n    tag_53:\n      stop\n        /* \"contracts/breedings/Breeding.sol\":2882:2973  function setGlobalSeed(uint256 value) public onlyOwner {... */\n    tag_19:\n        /* \"@openzeppelin/contracts/access/Ownable.sol\":1094:1107  _checkOwner() */\n      tag_58\n        /* \"@openzeppelin/contracts/access/Ownable.sol\":1094:1105  _checkOwner */\n      tag_59\n        /* \"@openzeppelin/contracts/access/Ownable.sol\":1094:1107  _checkOwner() */\n      jump\t// in\n    tag_58:\n        /* \"contracts/breedings/Breeding.sol\":2961:2966  value */\n      dup1\n        /* \"contracts/breedings/Breeding.sol\":2947:2958  _globalSeed */\n      0x01\n        /* \"contracts/breedings/Breeding.sol\":2947:2966  _globalSeed = value */\n      dup2\n      swap1\n      sstore\n      pop\n        /* \"contracts/breedings/Breeding.sol\":2882:2973  function setGlobalSeed(uint256 value) public onlyOwner {... */\n      pop\n      jump\t// out\n        /* \"contracts/breedings/Breeding.sol\":3696:3793  function setRandomPercent(uint256 value) public onlyOwner {... */\n    tag_22:\n        /* \"@openzeppelin/contracts/access/Ownable.sol\":1094:1107  _checkOwner() */\n      tag_62\n        /* \"@openzeppelin/contracts/access/Ownable.sol\":1094:1105  _checkOwner */\n      tag_59\n        /* \"@openzeppelin/contracts/access/Ownable.sol\":1094:1107  _checkOwner() */\n      jump\t// in\n    tag_62:\n        /* \"contracts/breedings/Breeding.sol\":3781:3786  value */\n      dup1\n        /* \"contracts/breedings/Breeding.sol\":3764:3778  _randomPercent */\n      0x02\n        /* \"contracts/breedings/Breeding.sol\":3764:3786  _randomPercent = value */\n      dup2\n      swap1\n      sstore\n      pop\n        /* \"contracts/breedings/Breeding.sol\":3696:3793  function setRandomPercent(uint256 value) public onlyOwner {... */\n      pop\n      jump\t// out\n        /* \"contracts/breedings/Breeding.sol\":3420:3509  function setMaxArcane(uint256 value) public onlyOwner {... */\n    tag_25:\n        /* \"@openzeppelin/contracts/access/Ownable.sol\":1094:1107  _checkOwner() */\n      tag_65\n        /* \"@openzeppelin/contracts/access/Ownable.sol\":1094:1105  _checkOwner */\n      tag_59\n        /* \"@openzeppelin/contracts/access/Ownable.sol\":1094:1107  _checkOwner() */\n      jump\t// in\n    tag_65:\n        /* \"contracts/breedings/Breeding.sol\":3497:3502  value */\n      dup1\n        /* \"contracts/breedings/Breeding.sol\":3484:3494  _maxArcane */\n      0x04\n        /* \"contracts/breedings/Breeding.sol\":3484:3502  _maxArcane = value */\n      dup2\n      swap1\n      sstore\n      pop\n        /* \"contracts/breedings/Breeding.sol\":3420:3509  function setMaxArcane(uint256 value) public onlyOwner {... */\n      pop\n      jump\t// out\n        /* \"contracts/breedings/Breeding.sol\":3056:3146  function getMinArcane() external view returns (uint256) {... */\n    tag_27:\n        /* \"contracts/breedings/Breeding.sol\":3103:3110  uint256 */\n      0x00\n        /* \"contracts/breedings/Breeding.sol\":3129:3139  _minArcane */\n      sload(0x03)\n        /* \"contracts/breedings/Breeding.sol\":3122:3139  return _minArcane */\n      swap1\n      pop\n        /* \"contracts/breedings/Breeding.sol\":3056:3146  function getMinArcane() external view returns (uint256) {... */\n      swap1\n      jump\t// out\n        /* \"contracts/breedings/Breeding.sol\":3324:3414  function getMaxArcane() external view returns (uint256) {... */\n    tag_31:\n        /* \"contracts/breedings/Breeding.sol\":3371:3378  uint256 */\n      0x00\n        /* \"contracts/breedings/Breeding.sol\":3397:3407  _maxArcane */\n      sload(0x04)\n        /* \"contracts/breedings/Breeding.sol\":3390:3407  return _maxArcane */\n      swap1\n      pop\n        /* \"contracts/breedings/Breeding.sol\":3324:3414  function getMaxArcane() external view returns (uint256) {... */\n      swap1\n      jump\t// out\n        /* \"@openzeppelin/contracts/access/Ownable.sol\":1831:1932  function renounceOwnership() public virtual onlyOwner {... */\n    tag_34:\n        /* \"@openzeppelin/contracts/access/Ownable.sol\":1094:1107  _checkOwner() */\n      tag_70\n        /* \"@openzeppelin/contracts/access/Ownable.sol\":1094:1105  _checkOwner */\n      tag_59\n        /* \"@openzeppelin/contracts/access/Ownable.sol\":1094:1107  _checkOwner() */\n      jump\t// in\n    tag_70:\n        /* \"@openzeppelin/contracts/access/Ownable.sol\":1895:1925  _transferOwnership(address(0)) */\n      tag_72\n        /* \"@openzeppelin/contracts/access/Ownable.sol\":1922:1923  0 */\n      0x00\n        /* \"@openzeppelin/contracts/access/Ownable.sol\":1895:1913  _transferOwnership */\n      tag_73\n        /* \"@openzeppelin/contracts/access/Ownable.sol\":1895:1925  _transferOwnership(address(0)) */\n      jump\t// in\n    tag_72:\n        /* \"@openzeppelin/contracts/access/Ownable.sol\":1831:1932  function renounceOwnership() public virtual onlyOwner {... */\n      jump\t// out\n        /* \"contracts/breedings/Breeding.sol\":2784:2876  function getGlobalSeed() external view returns (uint256) {... */\n    tag_36:\n        /* \"contracts/breedings/Breeding.sol\":2832:2839  uint256 */\n      0x00\n        /* \"contracts/breedings/Breeding.sol\":2858:2869  _globalSeed */\n      sload(0x01)\n        /* \"contracts/breedings/Breeding.sol\":2851:2869  return _globalSeed */\n      swap1\n      pop\n        /* \"contracts/breedings/Breeding.sol\":2784:2876  function getGlobalSeed() external view returns (uint256) {... */\n      swap1\n      jump\t// out\n        /* \"@openzeppelin/contracts/access/Ownable.sol\":1201:1286  function owner() public view virtual returns (address) {... */\n    tag_39:\n        /* \"@openzeppelin/contracts/access/Ownable.sol\":1247:1254  address */\n      0x00\n        /* \"@openzeppelin/contracts/access/Ownable.sol\":1273:1279  _owner */\n      dup1\n      0x00\n      swap1\n      sload\n      swap1\n      0x0100\n      exp\n      swap1\n      div\n      0xffffffffffffffffffffffffffffffffffffffff\n      and\n        /* \"@openzeppelin/contracts/access/Ownable.sol\":1266:1279  return _owner */\n      swap1\n      pop\n        /* \"@openzeppelin/contracts/access/Ownable.sol\":1201:1286  function owner() public view virtual returns (address) {... */\n      swap1\n      jump\t// out\n        /* \"contracts/breedings/Breeding.sol\":3152:3241  function setMinArcane(uint256 value) public onlyOwner {... */\n    tag_44:\n        /* \"@openzeppelin/contracts/access/Ownable.sol\":1094:1107  _checkOwner() */\n      tag_77\n        /* \"@openzeppelin/contracts/access/Ownable.sol\":1094:1105  _checkOwner */\n      tag_59\n        /* \"@openzeppelin/contracts/access/Ownable.sol\":1094:1107  _checkOwner() */\n      jump\t// in\n    tag_77:\n        /* \"contracts/breedings/Breeding.sol\":3229:3234  value */\n      dup1\n        /* \"contracts/breedings/Breeding.sol\":3216:3226  _minArcane */\n      0x03\n        /* \"contracts/breedings/Breeding.sol\":3216:3234  _minArcane = value */\n      dup2\n      swap1\n      sstore\n      pop\n        /* \"contracts/breedings/Breeding.sol\":3152:3241  function setMinArcane(uint256 value) public onlyOwner {... */\n      pop\n      jump\t// out\n        /* \"contracts/breedings/Breeding.sol\":3592:3690  function getRandomPercent() external view returns (uint256) {... */\n    tag_46:\n        /* \"contracts/breedings/Breeding.sol\":3643:3650  uint256 */\n      0x00\n        /* \"contracts/breedings/Breeding.sol\":3669:3683  _randomPercent */\n      sload(0x02)\n        /* \"contracts/breedings/Breeding.sol\":3662:3683  return _randomPercent */\n      swap1\n      pop\n        /* \"contracts/breedings/Breeding.sol\":3592:3690  function getRandomPercent() external view returns (uint256) {... */\n      swap1\n      jump\t// out\n        /* \"contracts/breedings/Breeding.sol\":617:2608  function breading(uint256 genes1, uint256 genes2)... */\n    tag_51:\n        /* \"contracts/breedings/Breeding.sol\":701:708  uint256 */\n      0x00\n        /* \"contracts/breedings/Breeding.sol\":724:742  uint256 randomSeed */\n      dup1\n        /* \"contracts/breedings/Breeding.sol\":831:846  block.timestamp */\n      timestamp\n        /* \"contracts/breedings/Breeding.sol\":868:880  block.number */\n      number\n        /* \"contracts/breedings/Breeding.sol\":902:918  block.prevrandao */\n      prevrandao\n        /* \"contracts/breedings/Breeding.sol\":940:946  genes1 */\n      dup7\n        /* \"contracts/breedings/Breeding.sol\":968:974  genes2 */\n      dup7\n        /* \"contracts/breedings/Breeding.sol\":996:1007  _globalSeed */\n      sload(0x01)\n        /* \"contracts/breedings/Breeding.sol\":793:1025  abi.encodePacked(... */\n      add(0x20, mload(0x40))\n      tag_81\n      swap7\n      swap6\n      swap5\n      swap4\n      swap3\n      swap2\n      swap1\n      tag_82\n      jump\t// in\n    tag_81:\n      mload(0x40)\n      0x20\n      dup2\n      dup4\n      sub\n      sub\n      dup2\n      mstore\n      swap1\n      0x40\n      mstore\n        /* \"contracts/breedings/Breeding.sol\":766:1039  keccak256(... */\n      dup1\n      mload\n      swap1\n      0x20\n      add\n      keccak256\n        /* \"contracts/breedings/Breeding.sol\":745:1049  uint256(... */\n      0x00\n      shr\n        /* \"contracts/breedings/Breeding.sol\":724:1049  uint256 randomSeed = uint256(... */\n      swap1\n      pop\n        /* \"contracts/breedings/Breeding.sol\":1082:1083  0 */\n      0x00\n        /* \"contracts/breedings/Breeding.sol\":1068:1078  randomSeed */\n      dup2\n        /* \"contracts/breedings/Breeding.sol\":1068:1083  randomSeed != 0 */\n      sub\n        /* \"contracts/breedings/Breeding.sol\":1060:1109  require(randomSeed != 0, \"randomSeed can't be 0\") */\n      tag_83\n      jumpi\n      mload(0x40)\n      0x08c379a000000000000000000000000000000000000000000000000000000000\n      dup2\n      mstore\n      0x04\n      add\n      tag_84\n      swap1\n      tag_85\n      jump\t// in\n    tag_84:\n      mload(0x40)\n      dup1\n      swap2\n      sub\n      swap1\n      revert\n    tag_83:\n        /* \"contracts/breedings/Breeding.sol\":1120:1131  _globalSeed */\n      0x01\n      0x00\n        /* \"contracts/breedings/Breeding.sol\":1120:1133  _globalSeed++ */\n      dup2\n      sload\n      dup1\n      swap3\n      swap2\n      swap1\n      tag_86\n      swap1\n      tag_87\n      jump\t// in\n    tag_86:\n      swap2\n      swap1\n      pop\n      sstore\n      pop\n        /* \"contracts/breedings/Breeding.sol\":1144:1161  uint32 generation */\n      0x00\n        /* \"contracts/breedings/Breeding.sol\":1238:1239  1 */\n      0x01\n        /* \"contracts/breedings/Breeding.sol\":1234:1235  2 */\n      0x02\n        /* \"contracts/breedings/Breeding.sol\":1199:1208  GenesUtil */\n      linkerSymbol(\"bc34c519aa7d1b67b54ee96cd6fbdfb8db30b25488a806873ff83a6f9e643b6b\")\n        /* \"contracts/breedings/Breeding.sol\":1199:1222  GenesUtil.getGeneration */\n      0x56e3df97\n        /* \"contracts/breedings/Breeding.sol\":1223:1229  genes2 */\n      dup8\n        /* \"contracts/breedings/Breeding.sol\":1199:1230  GenesUtil.getGeneration(genes2) */\n      mload(0x40)\n      dup3\n      0xffffffff\n      and\n      0xe0\n      shl\n      dup2\n      mstore\n      0x04\n      add\n      tag_88\n      swap2\n      swap1\n      tag_89\n      jump\t// in\n    tag_88:\n      0x20\n      mload(0x40)\n      dup1\n      dup4\n      sub\n      dup2\n      dup7\n      gas\n      delegatecall\n      iszero\n      dup1\n      iszero\n      tag_91\n      jumpi\n      returndatasize\n      0x00\n      dup1\n      returndatacopy\n      revert(0x00, returndatasize)\n    tag_91:\n      pop\n      pop\n      pop\n      pop\n      mload(0x40)\n      returndatasize\n      not(0x1f)\n      0x1f\n      dup3\n      add\n      and\n      dup3\n      add\n      dup1\n      0x40\n      mstore\n      pop\n      dup2\n      add\n      swap1\n      tag_92\n      swap2\n      swap1\n      tag_93\n      jump\t// in\n    tag_92:\n        /* \"contracts/breedings/Breeding.sol\":1165:1174  GenesUtil */\n      linkerSymbol(\"bc34c519aa7d1b67b54ee96cd6fbdfb8db30b25488a806873ff83a6f9e643b6b\")\n        /* \"contracts/breedings/Breeding.sol\":1165:1188  GenesUtil.getGeneration */\n      0x56e3df97\n        /* \"contracts/breedings/Breeding.sol\":1189:1195  genes1 */\n      dup10\n        /* \"contracts/breedings/Breeding.sol\":1165:1196  GenesUtil.getGeneration(genes1) */\n      mload(0x40)\n      dup3\n      0xffffffff\n      and\n      0xe0\n      shl\n      dup2\n      mstore\n      0x04\n      add\n      tag_94\n      swap2\n      swap1\n      tag_89\n      jump\t// in\n    tag_94:\n      0x20\n      mload(0x40)\n      dup1\n      dup4\n      sub\n      dup2\n      dup7\n      gas\n      delegatecall\n      iszero\n      dup1\n      iszero\n      tag_96\n      jumpi\n      returndatasize\n      0x00\n      dup1\n      returndatacopy\n      revert(0x00, returndatasize)\n    tag_96:\n      pop\n      pop\n      pop\n      pop\n      mload(0x40)\n      returndatasize\n      not(0x1f)\n      0x1f\n      dup3\n      add\n      and\n      dup3\n      add\n      dup1\n      0x40\n      mstore\n      pop\n      dup2\n      add\n      swap1\n      tag_97\n      swap2\n      swap1\n      tag_93\n      jump\t// in\n    tag_97:\n        /* \"contracts/breedings/Breeding.sol\":1165:1230  GenesUtil.getGeneration(genes1) + GenesUtil.getGeneration(genes2) */\n      tag_98\n      swap2\n      swap1\n      tag_99\n      jump\t// in\n    tag_98:\n        /* \"contracts/breedings/Breeding.sol\":1164:1235  (GenesUtil.getGeneration(genes1) + GenesUtil.getGeneration(genes2)) / 2 */\n      tag_100\n      swap2\n      swap1\n      tag_101\n      jump\t// in\n    tag_100:\n        /* \"contracts/breedings/Breeding.sol\":1164:1239  (GenesUtil.getGeneration(genes1) + GenesUtil.getGeneration(genes2)) / 2 + 1 */\n      tag_102\n      swap2\n      swap1\n      tag_99\n      jump\t// in\n    tag_102:\n        /* \"contracts/breedings/Breeding.sol\":1144:1239  uint32 generation = (GenesUtil.getGeneration(genes1) + GenesUtil.getGeneration(genes2)) / 2 + 1 */\n      swap1\n      pop\n        /* \"contracts/breedings/Breeding.sol\":1250:1261  uint8 minId */\n      0x00\n        /* \"contracts/breedings/Breeding.sol\":1264:1265  1 */\n      0x01\n        /* \"contracts/breedings/Breeding.sol\":1250:1265  uint8 minId = 1 */\n      swap1\n      pop\n        /* \"contracts/breedings/Breeding.sol\":1275:1286  uint8 maxId */\n      0x00\n        /* \"contracts/breedings/Breeding.sol\":1289:1291  36 */\n      0x24\n        /* \"contracts/breedings/Breeding.sol\":1275:1291  uint8 maxId = 36 */\n      swap1\n      pop\n        /* \"contracts/breedings/Breeding.sol\":1301:1321  uint8 bodyPartsCount */\n      0x00\n        /* \"contracts/breedings/Breeding.sol\":1324:1325  9 */\n      0x09\n        /* \"contracts/breedings/Breeding.sol\":1301:1325  uint8 bodyPartsCount = 9 */\n      swap1\n      pop\n        /* \"contracts/breedings/Breeding.sol\":1335:1354  uint256 randomIndex */\n      0x00\n        /* \"contracts/breedings/Breeding.sol\":1369:1382  uint256 genes */\n      dup1\n        /* \"contracts/breedings/Breeding.sol\":1424:1431  uint8 i */\n      0x00\n        /* \"contracts/breedings/Breeding.sol\":1419:2420  for (uint8 i = 0; i < bodyPartsCount; i++) {... */\n    tag_103:\n        /* \"contracts/breedings/Breeding.sol\":1441:1455  bodyPartsCount */\n      dup4\n        /* \"contracts/breedings/Breeding.sol\":1437:1455  i < bodyPartsCount */\n      0xff\n      and\n        /* \"contracts/breedings/Breeding.sol\":1437:1438  i */\n      dup2\n        /* \"contracts/breedings/Breeding.sol\":1437:1455  i < bodyPartsCount */\n      0xff\n      and\n      lt\n        /* \"contracts/breedings/Breeding.sol\":1419:2420  for (uint8 i = 0; i < bodyPartsCount; i++) {... */\n      iszero\n      tag_104\n      jumpi\n        /* \"contracts/breedings/Breeding.sol\":1476:1497  uint256 arcanePercent */\n      0x00\n        /* \"contracts/breedings/Breeding.sol\":1500:1635  getArcanePercent(... */\n      tag_106\n        /* \"contracts/breedings/Breeding.sol\":1534:1544  generation */\n      dup9\n        /* \"contracts/breedings/Breeding.sol\":1500:1635  getArcanePercent(... */\n      0xffffffff\n      and\n        /* \"contracts/breedings/Breeding.sol\":1562:1572  _minArcane */\n      sload(0x03)\n        /* \"contracts/breedings/Breeding.sol\":1590:1600  _maxArcane */\n      sload(0x04)\n        /* \"contracts/breedings/Breeding.sol\":1618:1621  100 */\n      0x64\n        /* \"contracts/breedings/Breeding.sol\":1500:1516  getArcanePercent */\n      tag_107\n        /* \"contracts/breedings/Breeding.sol\":1500:1635  getArcanePercent(... */\n      jump\t// in\n    tag_106:\n        /* \"contracts/breedings/Breeding.sol\":1476:1635  uint256 arcanePercent = getArcanePercent(... */\n      swap1\n      pop\n        /* \"contracts/breedings/Breeding.sol\":1649:1659  bool isArc */\n      0x00\n        /* \"contracts/breedings/Breeding.sol\":1694:1749  random(_globalSeed, randomIndex++, 0, _maxArcane * 100) */\n      tag_108\n        /* \"contracts/breedings/Breeding.sol\":1701:1712  _globalSeed */\n      sload(0x01)\n        /* \"contracts/breedings/Breeding.sol\":1714:1727  randomIndex++ */\n      dup7\n      dup1\n      tag_109\n      swap1\n      tag_87\n      jump\t// in\n    tag_109:\n      swap8\n      pop\n        /* \"contracts/breedings/Breeding.sol\":1729:1730  0 */\n      0x00\n        /* \"contracts/breedings/Breeding.sol\":1745:1748  100 */\n      0x64\n        /* \"contracts/breedings/Breeding.sol\":1732:1742  _maxArcane */\n      sload(0x04)\n        /* \"contracts/breedings/Breeding.sol\":1732:1748  _maxArcane * 100 */\n      tag_110\n      swap2\n      swap1\n      tag_111\n      jump\t// in\n    tag_110:\n        /* \"contracts/breedings/Breeding.sol\":1694:1700  random */\n      tag_112\n        /* \"contracts/breedings/Breeding.sol\":1694:1749  random(_globalSeed, randomIndex++, 0, _maxArcane * 100) */\n      jump\t// in\n    tag_108:\n        /* \"contracts/breedings/Breeding.sol\":1662:1675  arcanePercent */\n      dup3\n        /* \"contracts/breedings/Breeding.sol\":1662:1749  arcanePercent <... */\n      lt\n        /* \"contracts/breedings/Breeding.sol\":1649:1749  bool isArc = arcanePercent <... */\n      swap1\n      pop\n        /* \"contracts/breedings/Breeding.sol\":1764:1772  uint8 id */\n      0x00\n        /* \"contracts/breedings/Breeding.sol\":1775:1776  1 */\n      0x01\n        /* \"contracts/breedings/Breeding.sol\":1764:1776  uint8 id = 1 */\n      swap1\n      pop\n        /* \"contracts/breedings/Breeding.sol\":1811:1853  random(_globalSeed, randomIndex++, 0, 100) */\n      tag_113\n        /* \"contracts/breedings/Breeding.sol\":1818:1829  _globalSeed */\n      sload(0x01)\n        /* \"contracts/breedings/Breeding.sol\":1831:1844  randomIndex++ */\n      dup8\n      dup1\n      tag_114\n      swap1\n      tag_87\n      jump\t// in\n    tag_114:\n      swap9\n      pop\n        /* \"contracts/breedings/Breeding.sol\":1846:1847  0 */\n      0x00\n        /* \"contracts/breedings/Breeding.sol\":1849:1852  100 */\n      0x64\n        /* \"contracts/breedings/Breeding.sol\":1811:1817  random */\n      tag_112\n        /* \"contracts/breedings/Breeding.sol\":1811:1853  random(_globalSeed, randomIndex++, 0, 100) */\n      jump\t// in\n    tag_113:\n        /* \"contracts/breedings/Breeding.sol\":1794:1808  _randomPercent */\n      sload(0x02)\n        /* \"contracts/breedings/Breeding.sol\":1794:1853  _randomPercent < random(_globalSeed, randomIndex++, 0, 100) */\n      lt\n        /* \"contracts/breedings/Breeding.sol\":1790:2239  if (_randomPercent < random(_globalSeed, randomIndex++, 0, 100)) {... */\n      iszero\n      tag_115\n      jumpi\n        /* \"contracts/breedings/Breeding.sol\":1960:1964  0xFF */\n      0xff\n        /* \"contracts/breedings/Breeding.sol\":1905:1957  random(_globalSeed, randomIndex++, minId, maxId + 1) */\n      tag_116\n        /* \"contracts/breedings/Breeding.sol\":1912:1923  _globalSeed */\n      sload(0x01)\n        /* \"contracts/breedings/Breeding.sol\":1925:1938  randomIndex++ */\n      dup9\n      dup1\n      tag_117\n      swap1\n      tag_87\n      jump\t// in\n    tag_117:\n      swap10\n      pop\n        /* \"contracts/breedings/Breeding.sol\":1940:1945  minId */\n      dup13\n        /* \"contracts/breedings/Breeding.sol\":1905:1957  random(_globalSeed, randomIndex++, minId, maxId + 1) */\n      0xff\n      and\n        /* \"contracts/breedings/Breeding.sol\":1955:1956  1 */\n      0x01\n        /* \"contracts/breedings/Breeding.sol\":1947:1952  maxId */\n      dup14\n        /* \"contracts/breedings/Breeding.sol\":1947:1956  maxId + 1 */\n      tag_118\n      swap2\n      swap1\n      tag_119\n      jump\t// in\n    tag_118:\n        /* \"contracts/breedings/Breeding.sol\":1905:1957  random(_globalSeed, randomIndex++, minId, maxId + 1) */\n      0xff\n      and\n        /* \"contracts/breedings/Breeding.sol\":1905:1911  random */\n      tag_112\n        /* \"contracts/breedings/Breeding.sol\":1905:1957  random(_globalSeed, randomIndex++, minId, maxId + 1) */\n      jump\t// in\n    tag_116:\n        /* \"contracts/breedings/Breeding.sol\":1905:1964  random(_globalSeed, randomIndex++, minId, maxId + 1) & 0xFF */\n      and\n        /* \"contracts/breedings/Breeding.sol\":1873:1982  id = uint8(... */\n      swap1\n      pop\n        /* \"contracts/breedings/Breeding.sol\":1790:2239  if (_randomPercent < random(_globalSeed, randomIndex++, 0, 100)) {... */\n      jump(tag_120)\n    tag_115:\n        /* \"contracts/breedings/Breeding.sol\":2071:2073  50 */\n      0x32\n        /* \"contracts/breedings/Breeding.sol\":2025:2067  random(_globalSeed, randomIndex++, 0, 100) */\n      tag_121\n        /* \"contracts/breedings/Breeding.sol\":2032:2043  _globalSeed */\n      sload(0x01)\n        /* \"contracts/breedings/Breeding.sol\":2045:2058  randomIndex++ */\n      dup9\n      dup1\n      tag_122\n      swap1\n      tag_87\n      jump\t// in\n    tag_122:\n      swap10\n      pop\n        /* \"contracts/breedings/Breeding.sol\":2060:2061  0 */\n      0x00\n        /* \"contracts/breedings/Breeding.sol\":2063:2066  100 */\n      0x64\n        /* \"contracts/breedings/Breeding.sol\":2025:2031  random */\n      tag_112\n        /* \"contracts/breedings/Breeding.sol\":2025:2067  random(_globalSeed, randomIndex++, 0, 100) */\n      jump\t// in\n    tag_121:\n        /* \"contracts/breedings/Breeding.sol\":2025:2073  random(_globalSeed, randomIndex++, 0, 100) >= 50 */\n      lt\n        /* \"contracts/breedings/Breeding.sol\":2021:2225  if (random(_globalSeed, randomIndex++, 0, 100) >= 50) {... */\n      tag_123\n      jumpi\n        /* \"contracts/breedings/Breeding.sol\":2102:2111  GenesUtil */\n      linkerSymbol(\"bc34c519aa7d1b67b54ee96cd6fbdfb8db30b25488a806873ff83a6f9e643b6b\")\n        /* \"contracts/breedings/Breeding.sol\":2102:2117  GenesUtil.getId */\n      0x5d2029f1\n        /* \"contracts/breedings/Breeding.sol\":2118:2124  genes2 */\n      dup15\n        /* \"contracts/breedings/Breeding.sol\":2126:2127  i */\n      dup7\n        /* \"contracts/breedings/Breeding.sol\":2102:2128  GenesUtil.getId(genes2, i) */\n      mload(0x40)\n      dup4\n      0xffffffff\n      and\n      0xe0\n      shl\n      dup2\n      mstore\n      0x04\n      add\n      tag_124\n      swap3\n      swap2\n      swap1\n      tag_125\n      jump\t// in\n    tag_124:\n      0x20\n      mload(0x40)\n      dup1\n      dup4\n      sub\n      dup2\n      dup7\n      gas\n      delegatecall\n      iszero\n      dup1\n      iszero\n      tag_127\n      jumpi\n      returndatasize\n      0x00\n      dup1\n      returndatacopy\n      revert(0x00, returndatasize)\n    tag_127:\n      pop\n      pop\n      pop\n      pop\n      mload(0x40)\n      returndatasize\n      not(0x1f)\n      0x1f\n      dup3\n      add\n      and\n      dup3\n      add\n      dup1\n      0x40\n      mstore\n      pop\n      dup2\n      add\n      swap1\n      tag_128\n      swap2\n      swap1\n      tag_129\n      jump\t// in\n    tag_128:\n        /* \"contracts/breedings/Breeding.sol\":2097:2128  id = GenesUtil.getId(genes2, i) */\n      swap1\n      pop\n        /* \"contracts/breedings/Breeding.sol\":2021:2225  if (random(_globalSeed, randomIndex++, 0, 100) >= 50) {... */\n      jump(tag_130)\n    tag_123:\n        /* \"contracts/breedings/Breeding.sol\":2180:2189  GenesUtil */\n      linkerSymbol(\"bc34c519aa7d1b67b54ee96cd6fbdfb8db30b25488a806873ff83a6f9e643b6b\")\n        /* \"contracts/breedings/Breeding.sol\":2180:2195  GenesUtil.getId */\n      0x5d2029f1\n        /* \"contracts/breedings/Breeding.sol\":2196:2202  genes1 */\n      dup16\n        /* \"contracts/breedings/Breeding.sol\":2204:2205  i */\n      dup7\n        /* \"contracts/breedings/Breeding.sol\":2180:2206  GenesUtil.getId(genes1, i) */\n      mload(0x40)\n      dup4\n      0xffffffff\n      and\n      0xe0\n      shl\n      dup2\n      mstore\n      0x04\n      add\n      tag_131\n      swap3\n      swap2\n      swap1\n      tag_125\n      jump\t// in\n    tag_131:\n      0x20\n      mload(0x40)\n      dup1\n      dup4\n      sub\n      dup2\n      dup7\n      gas\n      delegatecall\n      iszero\n      dup1\n      iszero\n      tag_133\n      jumpi\n      returndatasize\n      0x00\n      dup1\n      returndatacopy\n      revert(0x00, returndatasize)\n    tag_133:\n      pop\n      pop\n      pop\n      pop\n      mload(0x40)\n      returndatasize\n      not(0x1f)\n      0x1f\n      dup3\n      add\n      and\n      dup3\n      add\n      dup1\n      0x40\n      mstore\n      pop\n      dup2\n      add\n      swap1\n      tag_134\n      swap2\n      swap1\n      tag_129\n      jump\t// in\n    tag_134:\n        /* \"contracts/breedings/Breeding.sol\":2175:2206  id = GenesUtil.getId(genes1, i) */\n      swap1\n      pop\n        /* \"contracts/breedings/Breeding.sol\":2021:2225  if (random(_globalSeed, randomIndex++, 0, 100) >= 50) {... */\n    tag_130:\n        /* \"contracts/breedings/Breeding.sol\":1790:2239  if (_randomPercent < random(_globalSeed, randomIndex++, 0, 100)) {... */\n    tag_120:\n        /* \"contracts/breedings/Breeding.sol\":2261:2270  GenesUtil */\n      linkerSymbol(\"bc34c519aa7d1b67b54ee96cd6fbdfb8db30b25488a806873ff83a6f9e643b6b\")\n        /* \"contracts/breedings/Breeding.sol\":2261:2276  GenesUtil.setId */\n      0x34a51d0f\n        /* \"contracts/breedings/Breeding.sol\":2277:2282  genes */\n      dup7\n        /* \"contracts/breedings/Breeding.sol\":2284:2285  i */\n      dup7\n        /* \"contracts/breedings/Breeding.sol\":2287:2289  id */\n      dup5\n        /* \"contracts/breedings/Breeding.sol\":2261:2290  GenesUtil.setId(genes, i, id) */\n      mload(0x40)\n      dup5\n      0xffffffff\n      and\n      0xe0\n      shl\n      dup2\n      mstore\n      0x04\n      add\n      tag_135\n      swap4\n      swap3\n      swap2\n      swap1\n      tag_136\n      jump\t// in\n    tag_135:\n      0x20\n      mload(0x40)\n      dup1\n      dup4\n      sub\n      dup2\n      dup7\n      gas\n      delegatecall\n      iszero\n      dup1\n      iszero\n      tag_138\n      jumpi\n      returndatasize\n      0x00\n      dup1\n      returndatacopy\n      revert(0x00, returndatasize)\n    tag_138:\n      pop\n      pop\n      pop\n      pop\n      mload(0x40)\n      returndatasize\n      not(0x1f)\n      0x1f\n      dup3\n      add\n      and\n      dup3\n      add\n      dup1\n      0x40\n      mstore\n      pop\n      dup2\n      add\n      swap1\n      tag_139\n      swap2\n      swap1\n      tag_140\n      jump\t// in\n    tag_139:\n        /* \"contracts/breedings/Breeding.sol\":2253:2290  genes = GenesUtil.setId(genes, i, id) */\n      swap5\n      pop\n        /* \"contracts/breedings/Breeding.sol\":2312:2321  GenesUtil */\n      linkerSymbol(\"bc34c519aa7d1b67b54ee96cd6fbdfb8db30b25488a806873ff83a6f9e643b6b\")\n        /* \"contracts/breedings/Breeding.sol\":2312:2330  GenesUtil.setLevel */\n      0xe1b30ab7\n        /* \"contracts/breedings/Breeding.sol\":2331:2336  genes */\n      dup7\n        /* \"contracts/breedings/Breeding.sol\":2338:2339  i */\n      dup7\n        /* \"contracts/breedings/Breeding.sol\":2341:2342  1 */\n      0x01\n        /* \"contracts/breedings/Breeding.sol\":2312:2343  GenesUtil.setLevel(genes, i, 1) */\n      mload(0x40)\n      dup5\n      0xffffffff\n      and\n      0xe0\n      shl\n      dup2\n      mstore\n      0x04\n      add\n      tag_141\n      swap4\n      swap3\n      swap2\n      swap1\n      tag_142\n      jump\t// in\n    tag_141:\n      0x20\n      mload(0x40)\n      dup1\n      dup4\n      sub\n      dup2\n      dup7\n      gas\n      delegatecall\n      iszero\n      dup1\n      iszero\n      tag_144\n      jumpi\n      returndatasize\n      0x00\n      dup1\n      returndatacopy\n      revert(0x00, returndatasize)\n    tag_144:\n      pop\n      pop\n      pop\n      pop\n      mload(0x40)\n      returndatasize\n      not(0x1f)\n      0x1f\n      dup3\n      add\n      and\n      dup3\n      add\n      dup1\n      0x40\n      mstore\n      pop\n      dup2\n      add\n      swap1\n      tag_145\n      swap2\n      swap1\n      tag_140\n      jump\t// in\n    tag_145:\n        /* \"contracts/breedings/Breeding.sol\":2304:2343  genes = GenesUtil.setLevel(genes, i, 1) */\n      swap5\n      pop\n        /* \"contracts/breedings/Breeding.sol\":2365:2374  GenesUtil */\n      linkerSymbol(\"bc34c519aa7d1b67b54ee96cd6fbdfb8db30b25488a806873ff83a6f9e643b6b\")\n        /* \"contracts/breedings/Breeding.sol\":2365:2384  GenesUtil.setArcane */\n      0x55d6ed43\n        /* \"contracts/breedings/Breeding.sol\":2385:2390  genes */\n      dup7\n        /* \"contracts/breedings/Breeding.sol\":2392:2393  i */\n      dup7\n        /* \"contracts/breedings/Breeding.sol\":2395:2400  isArc */\n      dup6\n        /* \"contracts/breedings/Breeding.sol\":2395:2408  isArc ? 1 : 0 */\n      tag_146\n      jumpi\n        /* \"contracts/breedings/Breeding.sol\":2407:2408  0 */\n      0x00\n        /* \"contracts/breedings/Breeding.sol\":2395:2408  isArc ? 1 : 0 */\n      jump(tag_147)\n    tag_146:\n        /* \"contracts/breedings/Breeding.sol\":2403:2404  1 */\n      0x01\n        /* \"contracts/breedings/Breeding.sol\":2395:2408  isArc ? 1 : 0 */\n    tag_147:\n        /* \"contracts/breedings/Breeding.sol\":2365:2409  GenesUtil.setArcane(genes, i, isArc ? 1 : 0) */\n      mload(0x40)\n      dup5\n      0xffffffff\n      and\n      0xe0\n      shl\n      dup2\n      mstore\n      0x04\n      add\n      tag_148\n      swap4\n      swap3\n      swap2\n      swap1\n      tag_136\n      jump\t// in\n    tag_148:\n      0x20\n      mload(0x40)\n      dup1\n      dup4\n      sub\n      dup2\n      dup7\n      gas\n      delegatecall\n      iszero\n      dup1\n      iszero\n      tag_150\n      jumpi\n      returndatasize\n      0x00\n      dup1\n      returndatacopy\n      revert(0x00, returndatasize)\n    tag_150:\n      pop\n      pop\n      pop\n      pop\n      mload(0x40)\n      returndatasize\n      not(0x1f)\n      0x1f\n      dup3\n      add\n      and\n      dup3\n      add\n      dup1\n      0x40\n      mstore\n      pop\n      dup2\n      add\n      swap1\n      tag_151\n      swap2\n      swap1\n      tag_140\n      jump\t// in\n    tag_151:\n        /* \"contracts/breedings/Breeding.sol\":2357:2409  genes = GenesUtil.setArcane(genes, i, isArc ? 1 : 0) */\n      swap5\n      pop\n        /* \"contracts/breedings/Breeding.sol\":1462:2420  {... */\n      pop\n      pop\n      pop\n        /* \"contracts/breedings/Breeding.sol\":1457:1460  i++ */\n      dup1\n      dup1\n      tag_152\n      swap1\n      tag_153\n      jump\t// in\n    tag_152:\n      swap2\n      pop\n      pop\n        /* \"contracts/breedings/Breeding.sol\":1419:2420  for (uint8 i = 0; i < bodyPartsCount; i++) {... */\n      jump(tag_103)\n    tag_104:\n      pop\n        /* \"contracts/breedings/Breeding.sol\":2464:2473  GenesUtil */\n      linkerSymbol(\"bc34c519aa7d1b67b54ee96cd6fbdfb8db30b25488a806873ff83a6f9e643b6b\")\n        /* \"contracts/breedings/Breeding.sol\":2464:2487  GenesUtil.setGeneration */\n      0x8de97f4f\n        /* \"contracts/breedings/Breeding.sol\":2488:2493  genes */\n      dup3\n        /* \"contracts/breedings/Breeding.sol\":2495:2505  generation */\n      dup9\n        /* \"contracts/breedings/Breeding.sol\":2464:2506  GenesUtil.setGeneration(genes, generation) */\n      mload(0x40)\n      dup4\n      0xffffffff\n      and\n      0xe0\n      shl\n      dup2\n      mstore\n      0x04\n      add\n      tag_154\n      swap3\n      swap2\n      swap1\n      tag_155\n      jump\t// in\n    tag_154:\n      0x20\n      mload(0x40)\n      dup1\n      dup4\n      sub\n      dup2\n      dup7\n      gas\n      delegatecall\n      iszero\n      dup1\n      iszero\n      tag_157\n      jumpi\n      returndatasize\n      0x00\n      dup1\n      returndatacopy\n      revert(0x00, returndatasize)\n    tag_157:\n      pop\n      pop\n      pop\n      pop\n      mload(0x40)\n      returndatasize\n      not(0x1f)\n      0x1f\n      dup3\n      add\n      and\n      dup3\n      add\n      dup1\n      0x40\n      mstore\n      pop\n      dup2\n      add\n      swap1\n      tag_158\n      swap2\n      swap1\n      tag_140\n      jump\t// in\n    tag_158:\n        /* \"contracts/breedings/Breeding.sol\":2456:2506  genes = GenesUtil.setGeneration(genes, generation) */\n      swap1\n      pop\n        /* \"contracts/breedings/Breeding.sol\":2548:2557  GenesUtil */\n      linkerSymbol(\"bc34c519aa7d1b67b54ee96cd6fbdfb8db30b25488a806873ff83a6f9e643b6b\")\n        /* \"contracts/breedings/Breeding.sol\":2548:2568  GenesUtil.setCharges */\n      0xb52b6659\n        /* \"contracts/breedings/Breeding.sol\":2569:2574  genes */\n      dup3\n        /* \"contracts/breedings/Breeding.sol\":2576:2577  1 */\n      0x01\n        /* \"contracts/breedings/Breeding.sol\":2548:2578  GenesUtil.setCharges(genes, 1) */\n      mload(0x40)\n      dup4\n      0xffffffff\n      and\n      0xe0\n      shl\n      dup2\n      mstore\n      0x04\n      add\n      tag_159\n      swap3\n      swap2\n      swap1\n      tag_160\n      jump\t// in\n    tag_159:\n      0x20\n      mload(0x40)\n      dup1\n      dup4\n      sub\n      dup2\n      dup7\n      gas\n      delegatecall\n      iszero\n      dup1\n      iszero\n      tag_162\n      jumpi\n      returndatasize\n      0x00\n      dup1\n      returndatacopy\n      revert(0x00, returndatasize)\n    tag_162:\n      pop\n      pop\n      pop\n      pop\n      mload(0x40)\n      returndatasize\n      not(0x1f)\n      0x1f\n      dup3\n      add\n      and\n      dup3\n      add\n      dup1\n      0x40\n      mstore\n      pop\n      dup2\n      add\n      swap1\n      tag_163\n      swap2\n      swap1\n      tag_140\n      jump\t// in\n    tag_163:\n        /* \"contracts/breedings/Breeding.sol\":2540:2578  genes = GenesUtil.setCharges(genes, 1) */\n      swap1\n      pop\n        /* \"contracts/breedings/Breeding.sol\":2596:2601  genes */\n      dup1\n        /* \"contracts/breedings/Breeding.sol\":2589:2601  return genes */\n      swap8\n      pop\n      pop\n      pop\n      pop\n      pop\n      pop\n      pop\n      pop\n        /* \"contracts/breedings/Breeding.sol\":617:2608  function breading(uint256 genes1, uint256 genes2)... */\n      swap3\n      swap2\n      pop\n      pop\n      jump\t// out\n        /* \"@openzeppelin/contracts/access/Ownable.sol\":2081:2279  function transferOwnership(address newOwner) public virtual onlyOwner {... */\n    tag_56:\n        /* \"@openzeppelin/contracts/access/Ownable.sol\":1094:1107  _checkOwner() */\n      tag_165\n        /* \"@openzeppelin/contracts/access/Ownable.sol\":1094:1105  _checkOwner */\n      tag_59\n        /* \"@openzeppelin/contracts/access/Ownable.sol\":1094:1107  _checkOwner() */\n      jump\t// in\n    tag_165:\n        /* \"@openzeppelin/contracts/access/Ownable.sol\":2189:2190  0 */\n      0x00\n        /* \"@openzeppelin/contracts/access/Ownable.sol\":2169:2191  newOwner != address(0) */\n      0xffffffffffffffffffffffffffffffffffffffff\n      and\n        /* \"@openzeppelin/contracts/access/Ownable.sol\":2169:2177  newOwner */\n      dup2\n        /* \"@openzeppelin/contracts/access/Ownable.sol\":2169:2191  newOwner != address(0) */\n      0xffffffffffffffffffffffffffffffffffffffff\n      and\n      sub\n        /* \"@openzeppelin/contracts/access/Ownable.sol\":2161:2234  require(newOwner != address(0), \"Ownable: new owner is the zero address\") */\n      tag_167\n      jumpi\n      mload(0x40)\n      0x08c379a000000000000000000000000000000000000000000000000000000000\n      dup2\n      mstore\n      0x04\n      add\n      tag_168\n      swap1\n      tag_169\n      jump\t// in\n    tag_168:\n      mload(0x40)\n      dup1\n      swap2\n      sub\n      swap1\n      revert\n    tag_167:\n        /* \"@openzeppelin/contracts/access/Ownable.sol\":2244:2272  _transferOwnership(newOwner) */\n      tag_170\n        /* \"@openzeppelin/contracts/access/Ownable.sol\":2263:2271  newOwner */\n      dup2\n        /* \"@openzeppelin/contracts/access/Ownable.sol\":2244:2262  _transferOwnership */\n      tag_73\n        /* \"@openzeppelin/contracts/access/Ownable.sol\":2244:2272  _transferOwnership(newOwner) */\n      jump\t// in\n    tag_170:\n        /* \"@openzeppelin/contracts/access/Ownable.sol\":2081:2279  function transferOwnership(address newOwner) public virtual onlyOwner {... */\n      pop\n      jump\t// out\n        /* \"@openzeppelin/contracts/access/Ownable.sol\":1359:1489  function _checkOwner() internal view virtual {... */\n    tag_59:\n        /* \"@openzeppelin/contracts/access/Ownable.sol\":1433:1445  _msgSender() */\n      tag_172\n        /* \"@openzeppelin/contracts/access/Ownable.sol\":1433:1443  _msgSender */\n      tag_173\n        /* \"@openzeppelin/contracts/access/Ownable.sol\":1433:1445  _msgSender() */\n      jump\t// in\n    tag_172:\n        /* \"@openzeppelin/contracts/access/Ownable.sol\":1422:1445  owner() == _msgSender() */\n      0xffffffffffffffffffffffffffffffffffffffff\n      and\n        /* \"@openzeppelin/contracts/access/Ownable.sol\":1422:1429  owner() */\n      tag_174\n        /* \"@openzeppelin/contracts/access/Ownable.sol\":1422:1427  owner */\n      tag_39\n        /* \"@openzeppelin/contracts/access/Ownable.sol\":1422:1429  owner() */\n      jump\t// in\n    tag_174:\n        /* \"@openzeppelin/contracts/access/Ownable.sol\":1422:1445  owner() == _msgSender() */\n      0xffffffffffffffffffffffffffffffffffffffff\n      and\n      eq\n        /* \"@openzeppelin/contracts/access/Ownable.sol\":1414:1482  require(owner() == _msgSender(), \"Ownable: caller is not the owner\") */\n      tag_175\n      jumpi\n      mload(0x40)\n      0x08c379a000000000000000000000000000000000000000000000000000000000\n      dup2\n      mstore\n      0x04\n      add\n      tag_176\n      swap1\n      tag_177\n      jump\t// in\n    tag_176:\n      mload(0x40)\n      dup1\n      swap2\n      sub\n      swap1\n      revert\n    tag_175:\n        /* \"@openzeppelin/contracts/access/Ownable.sol\":1359:1489  function _checkOwner() internal view virtual {... */\n      jump\t// out\n        /* \"@openzeppelin/contracts/access/Ownable.sol\":2433:2620  function _transferOwnership(address newOwner) internal virtual {... */\n    tag_73:\n        /* \"@openzeppelin/contracts/access/Ownable.sol\":2506:2522  address oldOwner */\n      0x00\n        /* \"@openzeppelin/contracts/access/Ownable.sol\":2525:2531  _owner */\n      dup1\n      0x00\n      swap1\n      sload\n      swap1\n      0x0100\n      exp\n      swap1\n      div\n      0xffffffffffffffffffffffffffffffffffffffff\n      and\n        /* \"@openzeppelin/contracts/access/Ownable.sol\":2506:2531  address oldOwner = _owner */\n      swap1\n      pop\n        /* \"@openzeppelin/contracts/access/Ownable.sol\":2550:2558  newOwner */\n      dup2\n        /* \"@openzeppelin/contracts/access/Ownable.sol\":2541:2547  _owner */\n      0x00\n      dup1\n        /* \"@openzeppelin/contracts/access/Ownable.sol\":2541:2558  _owner = newOwner */\n      0x0100\n      exp\n      dup2\n      sload\n      dup2\n      0xffffffffffffffffffffffffffffffffffffffff\n      mul\n      not\n      and\n      swap1\n      dup4\n      0xffffffffffffffffffffffffffffffffffffffff\n      and\n      mul\n      or\n      swap1\n      sstore\n      pop\n        /* \"@openzeppelin/contracts/access/Ownable.sol\":2604:2612  newOwner */\n      dup2\n        /* \"@openzeppelin/contracts/access/Ownable.sol\":2573:2613  OwnershipTransferred(oldOwner, newOwner) */\n      0xffffffffffffffffffffffffffffffffffffffff\n      and\n        /* \"@openzeppelin/contracts/access/Ownable.sol\":2594:2602  oldOwner */\n      dup2\n        /* \"@openzeppelin/contracts/access/Ownable.sol\":2573:2613  OwnershipTransferred(oldOwner, newOwner) */\n      0xffffffffffffffffffffffffffffffffffffffff\n      and\n      0x8be0079c531659141344cd1fd0a4f28419497f9722a3daafe3b4186f6b6457e0\n      mload(0x40)\n      mload(0x40)\n      dup1\n      swap2\n      sub\n      swap1\n      log3\n        /* \"@openzeppelin/contracts/access/Ownable.sol\":2496:2620  {... */\n      pop\n        /* \"@openzeppelin/contracts/access/Ownable.sol\":2433:2620  function _transferOwnership(address newOwner) internal virtual {... */\n      pop\n      jump\t// out\n        /* \"contracts/breedings/Breeding.sol\":4479:4770  function getArcanePercent(... */\n    tag_107:\n        /* \"contracts/breedings/Breeding.sol\":4626:4633  uint256 */\n      0x00\n        /* \"contracts/breedings/Breeding.sol\":4663:4666  min */\n      dup4\n        /* \"contracts/breedings/Breeding.sol\":4649:4659  generation */\n      dup6\n        /* \"contracts/breedings/Breeding.sol\":4649:4666  generation <= min */\n      gt\n        /* \"contracts/breedings/Breeding.sol\":4645:4701  if (generation <= min) {... */\n      tag_180\n      jumpi\n        /* \"contracts/breedings/Breeding.sol\":4689:4690  0 */\n      0x00\n        /* \"contracts/breedings/Breeding.sol\":4682:4690  return 0 */\n      swap1\n      pop\n      jump(tag_179)\n        /* \"contracts/breedings/Breeding.sol\":4645:4701  if (generation <= min) {... */\n    tag_180:\n        /* \"contracts/breedings/Breeding.sol\":4759:4762  max */\n      dup3\n        /* \"contracts/breedings/Breeding.sol\":4749:4753  mult */\n      dup3\n        /* \"contracts/breedings/Breeding.sol\":4743:4746  min */\n      dup6\n        /* \"contracts/breedings/Breeding.sol\":4743:4753  min * mult */\n      tag_181\n      swap2\n      swap1\n      tag_111\n      jump\t// in\n    tag_181:\n        /* \"contracts/breedings/Breeding.sol\":4736:4740  mult */\n      dup4\n        /* \"contracts/breedings/Breeding.sol\":4723:4733  generation */\n      dup8\n        /* \"contracts/breedings/Breeding.sol\":4723:4740  generation * mult */\n      tag_182\n      swap2\n      swap1\n      tag_111\n      jump\t// in\n    tag_182:\n        /* \"contracts/breedings/Breeding.sol\":4723:4753  generation * mult - min * mult */\n      tag_183\n      swap2\n      swap1\n      tag_184\n      jump\t// in\n    tag_183:\n        /* \"contracts/breedings/Breeding.sol\":4718:4719  1 */\n      0x01\n        /* \"contracts/breedings/Breeding.sol\":4718:4754  1 * (generation * mult - min * mult) */\n      tag_185\n      swap2\n      swap1\n      tag_111\n      jump\t// in\n    tag_185:\n        /* \"contracts/breedings/Breeding.sol\":4717:4763  (1 * (generation * mult - min * mult)) / (max) */\n      tag_186\n      swap2\n      swap1\n      tag_187\n      jump\t// in\n    tag_186:\n        /* \"contracts/breedings/Breeding.sol\":4710:4763  return (1 * (generation * mult - min * mult)) / (max) */\n      swap1\n      pop\n        /* \"contracts/breedings/Breeding.sol\":4479:4770  function getArcanePercent(... */\n    tag_179:\n      swap5\n      swap4\n      pop\n      pop\n      pop\n      pop\n      jump\t// out\n        /* \"contracts/breedings/Breeding.sol\":3966:4306  function random(... */\n    tag_112:\n        /* \"contracts/breedings/Breeding.sol\":4110:4123  uint256 value */\n      0x00\n        /* \"contracts/breedings/Breeding.sol\":4232:4241  minNumber */\n      dup3\n        /* \"contracts/breedings/Breeding.sol\":4220:4229  maxNumber */\n      dup3\n        /* \"contracts/breedings/Breeding.sol\":4220:4241  maxNumber - minNumber */\n      tag_189\n      swap2\n      swap1\n      tag_184\n      jump\t// in\n    tag_189:\n        /* \"contracts/breedings/Breeding.sol\":4190:4194  seed */\n      dup6\n        /* \"contracts/breedings/Breeding.sol\":4196:4201  index */\n      dup6\n        /* \"contracts/breedings/Breeding.sol\":4173:4202  abi.encodePacked(seed, index) */\n      add(0x20, mload(0x40))\n      tag_190\n      swap3\n      swap2\n      swap1\n      tag_191\n      jump\t// in\n    tag_190:\n      mload(0x40)\n      0x20\n      dup2\n      dup4\n      sub\n      sub\n      dup2\n      mstore\n      swap1\n      0x40\n      mstore\n        /* \"contracts/breedings/Breeding.sol\":4163:4203  keccak256(abi.encodePacked(seed, index)) */\n      dup1\n      mload\n      swap1\n      0x20\n      add\n      keccak256\n        /* \"contracts/breedings/Breeding.sol\":4155:4204  uint256(keccak256(abi.encodePacked(seed, index))) */\n      0x00\n      shr\n        /* \"contracts/breedings/Breeding.sol\":4155:4242  uint256(keccak256(abi.encodePacked(seed, index))) %... */\n      tag_192\n      swap2\n      swap1\n      tag_193\n      jump\t// in\n    tag_192:\n        /* \"contracts/breedings/Breeding.sol\":4135:4242  value =... */\n      swap1\n      pop\n        /* \"contracts/breedings/Breeding.sol\":4272:4277  value */\n      dup1\n        /* \"contracts/breedings/Breeding.sol\":4260:4269  minNumber */\n      dup4\n        /* \"contracts/breedings/Breeding.sol\":4260:4277  minNumber + value */\n      tag_194\n      swap2\n      swap1\n      tag_195\n      jump\t// in\n    tag_194:\n        /* \"contracts/breedings/Breeding.sol\":4252:4277  value = minNumber + value */\n      swap1\n      pop\n        /* \"contracts/breedings/Breeding.sol\":3966:4306  function random(... */\n      swap5\n      swap4\n      pop\n      pop\n      pop\n      pop\n      jump\t// out\n        /* \"@openzeppelin/contracts/utils/Context.sol\":640:736  function _msgSender() internal view virtual returns (address) {... */\n    tag_173:\n        /* \"@openzeppelin/contracts/utils/Context.sol\":693:700  address */\n      0x00\n        /* \"@openzeppelin/contracts/utils/Context.sol\":719:729  msg.sender */\n      caller\n        /* \"@openzeppelin/contracts/utils/Context.sol\":712:729  return msg.sender */\n      swap1\n      pop\n        /* \"@openzeppelin/contracts/utils/Context.sol\":640:736  function _msgSender() internal view virtual returns (address) {... */\n      swap1\n      jump\t// out\n        /* \"#utility.yul\":88:205   */\n    tag_198:\n        /* \"#utility.yul\":197:198   */\n      0x00\n        /* \"#utility.yul\":194:195   */\n      dup1\n        /* \"#utility.yul\":187:199   */\n      revert\n        /* \"#utility.yul\":334:411   */\n    tag_200:\n        /* \"#utility.yul\":371:378   */\n      0x00\n        /* \"#utility.yul\":400:405   */\n      dup2\n        /* \"#utility.yul\":389:405   */\n      swap1\n      pop\n        /* \"#utility.yul\":334:411   */\n      swap2\n      swap1\n      pop\n      jump\t// out\n        /* \"#utility.yul\":417:539   */\n    tag_201:\n        /* \"#utility.yul\":490:514   */\n      tag_242\n        /* \"#utility.yul\":508:513   */\n      dup2\n        /* \"#utility.yul\":490:514   */\n      tag_200\n      jump\t// in\n    tag_242:\n        /* \"#utility.yul\":483:488   */\n      dup2\n        /* \"#utility.yul\":480:515   */\n      eq\n        /* \"#utility.yul\":470:533   */\n      tag_243\n      jumpi\n        /* \"#utility.yul\":529:530   */\n      0x00\n        /* \"#utility.yul\":526:527   */\n      dup1\n        /* \"#utility.yul\":519:531   */\n      revert\n        /* \"#utility.yul\":470:533   */\n    tag_243:\n        /* \"#utility.yul\":417:539   */\n      pop\n      jump\t// out\n        /* \"#utility.yul\":545:684   */\n    tag_202:\n        /* \"#utility.yul\":591:596   */\n      0x00\n        /* \"#utility.yul\":629:635   */\n      dup2\n        /* \"#utility.yul\":616:636   */\n      calldataload\n        /* \"#utility.yul\":607:636   */\n      swap1\n      pop\n        /* \"#utility.yul\":645:678   */\n      tag_245\n        /* \"#utility.yul\":672:677   */\n      dup2\n        /* \"#utility.yul\":645:678   */\n      tag_201\n      jump\t// in\n    tag_245:\n        /* \"#utility.yul\":545:684   */\n      swap3\n      swap2\n      pop\n      pop\n      jump\t// out\n        /* \"#utility.yul\":690:1019   */\n    tag_18:\n        /* \"#utility.yul\":749:755   */\n      0x00\n        /* \"#utility.yul\":798:800   */\n      0x20\n        /* \"#utility.yul\":786:795   */\n      dup3\n        /* \"#utility.yul\":777:784   */\n      dup5\n        /* \"#utility.yul\":773:796   */\n      sub\n        /* \"#utility.yul\":769:801   */\n      slt\n        /* \"#utility.yul\":766:885   */\n      iszero\n      tag_247\n      jumpi\n        /* \"#utility.yul\":804:883   */\n      tag_248\n      tag_198\n      jump\t// in\n    tag_248:\n        /* \"#utility.yul\":766:885   */\n    tag_247:\n        /* \"#utility.yul\":924:925   */\n      0x00\n        /* \"#utility.yul\":949:1002   */\n      tag_249\n        /* \"#utility.yul\":994:1001   */\n      dup5\n        /* \"#utility.yul\":985:991   */\n      dup3\n        /* \"#utility.yul\":974:983   */\n      dup6\n        /* \"#utility.yul\":970:992   */\n      add\n        /* \"#utility.yul\":949:1002   */\n      tag_202\n      jump\t// in\n    tag_249:\n        /* \"#utility.yul\":939:1002   */\n      swap2\n      pop\n        /* \"#utility.yul\":895:1012   */\n      pop\n        /* \"#utility.yul\":690:1019   */\n      swap3\n      swap2\n      pop\n      pop\n      jump\t// out\n        /* \"#utility.yul\":1025:1143   */\n    tag_203:\n        /* \"#utility.yul\":1112:1136   */\n      tag_251\n        /* \"#utility.yul\":1130:1135   */\n      dup2\n        /* \"#utility.yul\":1112:1136   */\n      tag_200\n      jump\t// in\n    tag_251:\n        /* \"#utility.yul\":1107:1110   */\n      dup3\n        /* \"#utility.yul\":1100:1137   */\n      mstore\n        /* \"#utility.yul\":1025:1143   */\n      pop\n      pop\n      jump\t// out\n        /* \"#utility.yul\":1149:1371   */\n    tag_29:\n        /* \"#utility.yul\":1242:1246   */\n      0x00\n        /* \"#utility.yul\":1280:1282   */\n      0x20\n        /* \"#utility.yul\":1269:1278   */\n      dup3\n        /* \"#utility.yul\":1265:1283   */\n      add\n        /* \"#utility.yul\":1257:1283   */\n      swap1\n      pop\n        /* \"#utility.yul\":1293:1364   */\n      tag_253\n        /* \"#utility.yul\":1361:1362   */\n      0x00\n        /* \"#utility.yul\":1350:1359   */\n      dup4\n        /* \"#utility.yul\":1346:1363   */\n      add\n        /* \"#utility.yul\":1337:1343   */\n      dup5\n        /* \"#utility.yul\":1293:1364   */\n      tag_203\n      jump\t// in\n    tag_253:\n        /* \"#utility.yul\":1149:1371   */\n      swap3\n      swap2\n      pop\n      pop\n      jump\t// out\n        /* \"#utility.yul\":1377:1503   */\n    tag_204:\n        /* \"#utility.yul\":1414:1421   */\n      0x00\n        /* \"#utility.yul\":1454:1496   */\n      0xffffffffffffffffffffffffffffffffffffffff\n        /* \"#utility.yul\":1447:1452   */\n      dup3\n        /* \"#utility.yul\":1443:1497   */\n      and\n        /* \"#utility.yul\":1432:1497   */\n      swap1\n      pop\n        /* \"#utility.yul\":1377:1503   */\n      swap2\n      swap1\n      pop\n      jump\t// out\n        /* \"#utility.yul\":1509:1605   */\n    tag_205:\n        /* \"#utility.yul\":1546:1553   */\n      0x00\n        /* \"#utility.yul\":1575:1599   */\n      tag_256\n        /* \"#utility.yul\":1593:1598   */\n      dup3\n        /* \"#utility.yul\":1575:1599   */\n      tag_204\n      jump\t// in\n    tag_256:\n        /* \"#utility.yul\":1564:1599   */\n      swap1\n      pop\n        /* \"#utility.yul\":1509:1605   */\n      swap2\n      swap1\n      pop\n      jump\t// out\n        /* \"#utility.yul\":1611:1729   */\n    tag_206:\n        /* \"#utility.yul\":1698:1722   */\n      tag_258\n        /* \"#utility.yul\":1716:1721   */\n      dup2\n        /* \"#utility.yul\":1698:1722   */\n      tag_205\n      jump\t// in\n    tag_258:\n        /* \"#utility.yul\":1693:1696   */\n      dup3\n        /* \"#utility.yul\":1686:1723   */\n      mstore\n        /* \"#utility.yul\":1611:1729   */\n      pop\n      pop\n      jump\t// out\n        /* \"#utility.yul\":1735:1957   */\n    tag_41:\n        /* \"#utility.yul\":1828:1832   */\n      0x00\n        /* \"#utility.yul\":1866:1868   */\n      0x20\n        /* \"#utility.yul\":1855:1864   */\n      dup3\n        /* \"#utility.yul\":1851:1869   */\n      add\n        /* \"#utility.yul\":1843:1869   */\n      swap1\n      pop\n        /* \"#utility.yul\":1879:1950   */\n      tag_260\n        /* \"#utility.yul\":1947:1948   */\n      0x00\n        /* \"#utility.yul\":1936:1945   */\n      dup4\n        /* \"#utility.yul\":1932:1949   */\n      add\n        /* \"#utility.yul\":1923:1929   */\n      dup5\n        /* \"#utility.yul\":1879:1950   */\n      tag_206\n      jump\t// in\n    tag_260:\n        /* \"#utility.yul\":1735:1957   */\n      swap3\n      swap2\n      pop\n      pop\n      jump\t// out\n        /* \"#utility.yul\":1963:2437   */\n    tag_50:\n        /* \"#utility.yul\":2031:2037   */\n      0x00\n        /* \"#utility.yul\":2039:2045   */\n      dup1\n        /* \"#utility.yul\":2088:2090   */\n      0x40\n        /* \"#utility.yul\":2076:2085   */\n      dup4\n        /* \"#utility.yul\":2067:2074   */\n      dup6\n        /* \"#utility.yul\":2063:2086   */\n      sub\n        /* \"#utility.yul\":2059:2091   */\n      slt\n        /* \"#utility.yul\":2056:2175   */\n      iszero\n      tag_262\n      jumpi\n        /* \"#utility.yul\":2094:2173   */\n      tag_263\n      tag_198\n      jump\t// in\n    tag_263:\n        /* \"#utility.yul\":2056:2175   */\n    tag_262:\n        /* \"#utility.yul\":2214:2215   */\n      0x00\n        /* \"#utility.yul\":2239:2292   */\n      tag_264\n        /* \"#utility.yul\":2284:2291   */\n      dup6\n        /* \"#utility.yul\":2275:2281   */\n      dup3\n        /* \"#utility.yul\":2264:2273   */\n      dup7\n        /* \"#utility.yul\":2260:2282   */\n      add\n        /* \"#utility.yul\":2239:2292   */\n      tag_202\n      jump\t// in\n    tag_264:\n        /* \"#utility.yul\":2229:2292   */\n      swap3\n      pop\n        /* \"#utility.yul\":2185:2302   */\n      pop\n        /* \"#utility.yul\":2341:2343   */\n      0x20\n        /* \"#utility.yul\":2367:2420   */\n      tag_265\n        /* \"#utility.yul\":2412:2419   */\n      dup6\n        /* \"#utility.yul\":2403:2409   */\n      dup3\n        /* \"#utility.yul\":2392:2401   */\n      dup7\n        /* \"#utility.yul\":2388:2410   */\n      add\n        /* \"#utility.yul\":2367:2420   */\n      tag_202\n      jump\t// in\n    tag_265:\n        /* \"#utility.yul\":2357:2420   */\n      swap2\n      pop\n        /* \"#utility.yul\":2312:2430   */\n      pop\n        /* \"#utility.yul\":1963:2437   */\n      swap3\n      pop\n      swap3\n      swap1\n      pop\n      jump\t// out\n        /* \"#utility.yul\":2443:2565   */\n    tag_207:\n        /* \"#utility.yul\":2516:2540   */\n      tag_267\n        /* \"#utility.yul\":2534:2539   */\n      dup2\n        /* \"#utility.yul\":2516:2540   */\n      tag_205\n      jump\t// in\n    tag_267:\n        /* \"#utility.yul\":2509:2514   */\n      dup2\n        /* \"#utility.yul\":2506:2541   */\n      eq\n        /* \"#utility.yul\":2496:2559   */\n      tag_268\n      jumpi\n        /* \"#utility.yul\":2555:2556   */\n      0x00\n        /* \"#utility.yul\":2552:2553   */\n      dup1\n        /* \"#utility.yul\":2545:2557   */\n      revert\n        /* \"#utility.yul\":2496:2559   */\n    tag_268:\n        /* \"#utility.yul\":2443:2565   */\n      pop\n      jump\t// out\n        /* \"#utility.yul\":2571:2710   */\n    tag_208:\n        /* \"#utility.yul\":2617:2622   */\n      0x00\n        /* \"#utility.yul\":2655:2661   */\n      dup2\n        /* \"#utility.yul\":2642:2662   */\n      calldataload\n        /* \"#utility.yul\":2633:2662   */\n      swap1\n      pop\n        /* \"#utility.yul\":2671:2704   */\n      tag_270\n        /* \"#utility.yul\":2698:2703   */\n      dup2\n        /* \"#utility.yul\":2671:2704   */\n      tag_207\n      jump\t// in\n    tag_270:\n        /* \"#utility.yul\":2571:2710   */\n      swap3\n      swap2\n      pop\n      pop\n      jump\t// out\n        /* \"#utility.yul\":2716:3045   */\n    tag_55:\n        /* \"#utility.yul\":2775:2781   */\n      0x00\n        /* \"#utility.yul\":2824:2826   */\n      0x20\n        /* \"#utility.yul\":2812:2821   */\n      dup3\n        /* \"#utility.yul\":2803:2810   */\n      dup5\n        /* \"#utility.yul\":2799:2822   */\n      sub\n        /* \"#utility.yul\":2795:2827   */\n      slt\n        /* \"#utility.yul\":2792:2911   */\n      iszero\n      tag_272\n      jumpi\n        /* \"#utility.yul\":2830:2909   */\n      tag_273\n      tag_198\n      jump\t// in\n    tag_273:\n        /* \"#utility.yul\":2792:2911   */\n    tag_272:\n        /* \"#utility.yul\":2950:2951   */\n      0x00\n        /* \"#utility.yul\":2975:3028   */\n      tag_274\n        /* \"#utility.yul\":3020:3027   */\n      dup5\n        /* \"#utility.yul\":3011:3017   */\n      dup3\n        /* \"#utility.yul\":3000:3009   */\n      dup6\n        /* \"#utility.yul\":2996:3018   */\n      add\n        /* \"#utility.yul\":2975:3028   */\n      tag_208\n      jump\t// in\n    tag_274:\n        /* \"#utility.yul\":2965:3028   */\n      swap2\n      pop\n        /* \"#utility.yul\":2921:3038   */\n      pop\n        /* \"#utility.yul\":2716:3045   */\n      swap3\n      swap2\n      pop\n      pop\n      jump\t// out\n        /* \"#utility.yul\":3051:3130   */\n    tag_209:\n        /* \"#utility.yul\":3090:3097   */\n      0x00\n        /* \"#utility.yul\":3119:3124   */\n      dup2\n        /* \"#utility.yul\":3108:3124   */\n      swap1\n      pop\n        /* \"#utility.yul\":3051:3130   */\n      swap2\n      swap1\n      pop\n      jump\t// out\n        /* \"#utility.yul\":3136:3293   */\n    tag_210:\n        /* \"#utility.yul\":3241:3286   */\n      tag_277\n        /* \"#utility.yul\":3261:3285   */\n      tag_278\n        /* \"#utility.yul\":3279:3284   */\n      dup3\n        /* \"#utility.yul\":3261:3285   */\n      tag_200\n      jump\t// in\n    tag_278:\n        /* \"#utility.yul\":3241:3286   */\n      tag_209\n      jump\t// in\n    tag_277:\n        /* \"#utility.yul\":3236:3239   */\n      dup3\n        /* \"#utility.yul\":3229:3287   */\n      mstore\n        /* \"#utility.yul\":3136:3293   */\n      pop\n      pop\n      jump\t// out\n        /* \"#utility.yul\":3299:4260   */\n    tag_82:\n        /* \"#utility.yul\":3551:3554   */\n      0x00\n        /* \"#utility.yul\":3566:3641   */\n      tag_280\n        /* \"#utility.yul\":3637:3640   */\n      dup3\n        /* \"#utility.yul\":3628:3634   */\n      dup10\n        /* \"#utility.yul\":3566:3641   */\n      tag_210\n      jump\t// in\n    tag_280:\n        /* \"#utility.yul\":3666:3668   */\n      0x20\n        /* \"#utility.yul\":3661:3664   */\n      dup3\n        /* \"#utility.yul\":3657:3669   */\n      add\n        /* \"#utility.yul\":3650:3669   */\n      swap2\n      pop\n        /* \"#utility.yul\":3679:3754   */\n      tag_281\n        /* \"#utility.yul\":3750:3753   */\n      dup3\n        /* \"#utility.yul\":3741:3747   */\n      dup9\n        /* \"#utility.yul\":3679:3754   */\n      tag_210\n      jump\t// in\n    tag_281:\n        /* \"#utility.yul\":3779:3781   */\n      0x20\n        /* \"#utility.yul\":3774:3777   */\n      dup3\n        /* \"#utility.yul\":3770:3782   */\n      add\n        /* \"#utility.yul\":3763:3782   */\n      swap2\n      pop\n        /* \"#utility.yul\":3792:3867   */\n      tag_282\n        /* \"#utility.yul\":3863:3866   */\n      dup3\n        /* \"#utility.yul\":3854:3860   */\n      dup8\n        /* \"#utility.yul\":3792:3867   */\n      tag_210\n      jump\t// in\n    tag_282:\n        /* \"#utility.yul\":3892:3894   */\n      0x20\n        /* \"#utility.yul\":3887:3890   */\n      dup3\n        /* \"#utility.yul\":3883:3895   */\n      add\n        /* \"#utility.yul\":3876:3895   */\n      swap2\n      pop\n        /* \"#utility.yul\":3905:3980   */\n      tag_283\n        /* \"#utility.yul\":3976:3979   */\n      dup3\n        /* \"#utility.yul\":3967:3973   */\n      dup7\n        /* \"#utility.yul\":3905:3980   */\n      tag_210\n      jump\t// in\n    tag_283:\n        /* \"#utility.yul\":4005:4007   */\n      0x20\n        /* \"#utility.yul\":4000:4003   */\n      dup3\n        /* \"#utility.yul\":3996:4008   */\n      add\n        /* \"#utility.yul\":3989:4008   */\n      swap2\n      pop\n        /* \"#utility.yul\":4018:4093   */\n      tag_284\n        /* \"#utility.yul\":4089:4092   */\n      dup3\n        /* \"#utility.yul\":4080:4086   */\n      dup6\n        /* \"#utility.yul\":4018:4093   */\n      tag_210\n      jump\t// in\n    tag_284:\n        /* \"#utility.yul\":4118:4120   */\n      0x20\n        /* \"#utility.yul\":4113:4116   */\n      dup3\n        /* \"#utility.yul\":4109:4121   */\n      add\n        /* \"#utility.yul\":4102:4121   */\n      swap2\n      pop\n        /* \"#utility.yul\":4131:4206   */\n      tag_285\n        /* \"#utility.yul\":4202:4205   */\n      dup3\n        /* \"#utility.yul\":4193:4199   */\n      dup5\n        /* \"#utility.yul\":4131:4206   */\n      tag_210\n      jump\t// in\n    tag_285:\n        /* \"#utility.yul\":4231:4233   */\n      0x20\n        /* \"#utility.yul\":4226:4229   */\n      dup3\n        /* \"#utility.yul\":4222:4234   */\n      add\n        /* \"#utility.yul\":4215:4234   */\n      swap2\n      pop\n        /* \"#utility.yul\":4251:4254   */\n      dup2\n        /* \"#utility.yul\":4244:4254   */\n      swap1\n      pop\n        /* \"#utility.yul\":3299:4260   */\n      swap8\n      swap7\n      pop\n      pop\n      pop\n      pop\n      pop\n      pop\n      pop\n      jump\t// out\n        /* \"#utility.yul\":4266:4435   */\n    tag_211:\n        /* \"#utility.yul\":4350:4361   */\n      0x00\n        /* \"#utility.yul\":4384:4390   */\n      dup3\n        /* \"#utility.yul\":4379:4382   */\n      dup3\n        /* \"#utility.yul\":4372:4391   */\n      mstore\n        /* \"#utility.yul\":4424:4428   */\n      0x20\n        /* \"#utility.yul\":4419:4422   */\n      dup3\n        /* \"#utility.yul\":4415:4429   */\n      add\n        /* \"#utility.yul\":4400:4429   */\n      swap1\n      pop\n        /* \"#utility.yul\":4266:4435   */\n      swap3\n      swap2\n      pop\n      pop\n      jump\t// out\n        /* \"#utility.yul\":4441:4612   */\n    tag_212:\n        /* \"#utility.yul\":4581:4604   */\n      0x72616e646f6d536565642063616e277420626520300000000000000000000000\n        /* \"#utility.yul\":4577:4578   */\n      0x00\n        /* \"#utility.yul\":4569:4575   */\n      dup3\n        /* \"#utility.yul\":4565:4579   */\n      add\n        /* \"#utility.yul\":4558:4605   */\n      mstore\n        /* \"#utility.yul\":4441:4612   */\n      pop\n      jump\t// out\n        /* \"#utility.yul\":4618:4984   */\n    tag_213:\n        /* \"#utility.yul\":4760:4763   */\n      0x00\n        /* \"#utility.yul\":4781:4848   */\n      tag_289\n        /* \"#utility.yul\":4845:4847   */\n      0x15\n        /* \"#utility.yul\":4840:4843   */\n      dup4\n        /* \"#utility.yul\":4781:4848   */\n      tag_211\n      jump\t// in\n    tag_289:\n        /* \"#utility.yul\":4774:4848   */\n      swap2\n      pop\n        /* \"#utility.yul\":4857:4950   */\n      tag_290\n        /* \"#utility.yul\":4946:4949   */\n      dup3\n        /* \"#utility.yul\":4857:4950   */\n      tag_212\n      jump\t// in\n    tag_290:\n        /* \"#utility.yul\":4975:4977   */\n      0x20\n        /* \"#utility.yul\":4970:4973   */\n      dup3\n        /* \"#utility.yul\":4966:4978   */\n      add\n        /* \"#utility.yul\":4959:4978   */\n      swap1\n      pop\n        /* \"#utility.yul\":4618:4984   */\n      swap2\n      swap1\n      pop\n      jump\t// out\n        /* \"#utility.yul\":4990:5409   */\n    tag_85:\n        /* \"#utility.yul\":5156:5160   */\n      0x00\n        /* \"#utility.yul\":5194:5196   */\n      0x20\n        /* \"#utility.yul\":5183:5192   */\n      dup3\n        /* \"#utility.yul\":5179:5197   */\n      add\n        /* \"#utility.yul\":5171:5197   */\n      swap1\n      pop\n        /* \"#utility.yul\":5243:5252   */\n      dup2\n        /* \"#utility.yul\":5237:5241   */\n      dup2\n        /* \"#utility.yul\":5233:5253   */\n      sub\n        /* \"#utility.yul\":5229:5230   */\n      0x00\n        /* \"#utility.yul\":5218:5227   */\n      dup4\n        /* \"#utility.yul\":5214:5231   */\n      add\n        /* \"#utility.yul\":5207:5254   */\n      mstore\n        /* \"#utility.yul\":5271:5402   */\n      tag_292\n        /* \"#utility.yul\":5397:5401   */\n      dup2\n        /* \"#utility.yul\":5271:5402   */\n      tag_213\n      jump\t// in\n    tag_292:\n        /* \"#utility.yul\":5263:5402   */\n      swap1\n      pop\n        /* \"#utility.yul\":4990:5409   */\n      swap2\n      swap1\n      pop\n      jump\t// out\n        /* \"#utility.yul\":5415:5595   */\n    tag_214:\n        /* \"#utility.yul\":5463:5540   */\n      0x4e487b7100000000000000000000000000000000000000000000000000000000\n        /* \"#utility.yul\":5460:5461   */\n      0x00\n        /* \"#utility.yul\":5453:5541   */\n      mstore\n        /* \"#utility.yul\":5560:5564   */\n      0x11\n        /* \"#utility.yul\":5557:5558   */\n      0x04\n        /* \"#utility.yul\":5550:5565   */\n      mstore\n        /* \"#utility.yul\":5584:5588   */\n      0x24\n        /* \"#utility.yul\":5581:5582   */\n      0x00\n        /* \"#utility.yul\":5574:5589   */\n      revert\n        /* \"#utility.yul\":5601:5834   */\n    tag_87:\n        /* \"#utility.yul\":5640:5643   */\n      0x00\n        /* \"#utility.yul\":5663:5687   */\n      tag_295\n        /* \"#utility.yul\":5681:5686   */\n      dup3\n        /* \"#utility.yul\":5663:5687   */\n      tag_200\n      jump\t// in\n    tag_295:\n        /* \"#utility.yul\":5654:5687   */\n      swap2\n      pop\n        /* \"#utility.yul\":5709:5775   */\n      0xffffffffffffffffffffffffffffffffffffffffffffffffffffffffffffffff\n        /* \"#utility.yul\":5702:5707   */\n      dup3\n        /* \"#utility.yul\":5699:5776   */\n      sub\n        /* \"#utility.yul\":5696:5799   */\n      tag_296\n      jumpi\n        /* \"#utility.yul\":5779:5797   */\n      tag_297\n      tag_214\n      jump\t// in\n    tag_297:\n        /* \"#utility.yul\":5696:5799   */\n    tag_296:\n        /* \"#utility.yul\":5826:5827   */\n      0x01\n        /* \"#utility.yul\":5819:5824   */\n      dup3\n        /* \"#utility.yul\":5815:5828   */\n      add\n        /* \"#utility.yul\":5808:5828   */\n      swap1\n      pop\n        /* \"#utility.yul\":5601:5834   */\n      swap2\n      swap1\n      pop\n      jump\t// out\n        /* \"#utility.yul\":5840:5966   */\n    tag_215:\n        /* \"#utility.yul\":5935:5959   */\n      tag_299\n        /* \"#utility.yul\":5953:5958   */\n      dup2\n        /* \"#utility.yul\":5935:5959   */\n      tag_200\n      jump\t// in\n    tag_299:\n        /* \"#utility.yul\":5930:5933   */\n      dup3\n        /* \"#utility.yul\":5923:5960   */\n      mstore\n        /* \"#utility.yul\":5840:5966   */\n      pop\n      pop\n      jump\t// out\n        /* \"#utility.yul\":5972:6210   */\n    tag_89:\n        /* \"#utility.yul\":6073:6077   */\n      0x00\n        /* \"#utility.yul\":6111:6113   */\n      0x20\n        /* \"#utility.yul\":6100:6109   */\n      dup3\n        /* \"#utility.yul\":6096:6114   */\n      add\n        /* \"#utility.yul\":6088:6114   */\n      swap1\n      pop\n        /* \"#utility.yul\":6124:6203   */\n      tag_301\n        /* \"#utility.yul\":6200:6201   */\n      0x00\n        /* \"#utility.yul\":6189:6198   */\n      dup4\n        /* \"#utility.yul\":6185:6202   */\n      add\n        /* \"#utility.yul\":6176:6182   */\n      dup5\n        /* \"#utility.yul\":6124:6203   */\n      tag_215\n      jump\t// in\n    tag_301:\n        /* \"#utility.yul\":5972:6210   */\n      swap3\n      swap2\n      pop\n      pop\n      jump\t// out\n        /* \"#utility.yul\":6216:6309   */\n    tag_216:\n        /* \"#utility.yul\":6252:6259   */\n      0x00\n        /* \"#utility.yul\":6292:6302   */\n      0xffffffff\n        /* \"#utility.yul\":6285:6290   */\n      dup3\n        /* \"#utility.yul\":6281:6303   */\n      and\n        /* \"#utility.yul\":6270:6303   */\n      swap1\n      pop\n        /* \"#utility.yul\":6216:6309   */\n      swap2\n      swap1\n      pop\n      jump\t// out\n        /* \"#utility.yul\":6315:6435   */\n    tag_217:\n        /* \"#utility.yul\":6387:6410   */\n      tag_304\n        /* \"#utility.yul\":6404:6409   */\n      dup2\n        /* \"#utility.yul\":6387:6410   */\n      tag_216\n      jump\t// in\n    tag_304:\n        /* \"#utility.yul\":6380:6385   */\n      dup2\n        /* \"#utility.yul\":6377:6411   */\n      eq\n        /* \"#utility.yul\":6367:6429   */\n      tag_305\n      jumpi\n        /* \"#utility.yul\":6425:6426   */\n      0x00\n        /* \"#utility.yul\":6422:6423   */\n      dup1\n        /* \"#utility.yul\":6415:6427   */\n      revert\n        /* \"#utility.yul\":6367:6429   */\n    tag_305:\n        /* \"#utility.yul\":6315:6435   */\n      pop\n      jump\t// out\n        /* \"#utility.yul\":6441:6582   */\n    tag_218:\n        /* \"#utility.yul\":6497:6502   */\n      0x00\n        /* \"#utility.yul\":6528:6534   */\n      dup2\n        /* \"#utility.yul\":6522:6535   */\n      mload\n        /* \"#utility.yul\":6513:6535   */\n      swap1\n      pop\n        /* \"#utility.yul\":6544:6576   */\n      tag_307\n        /* \"#utility.yul\":6570:6575   */\n      dup2\n        /* \"#utility.yul\":6544:6576   */\n      tag_217\n      jump\t// in\n    tag_307:\n        /* \"#utility.yul\":6441:6582   */\n      swap3\n      swap2\n      pop\n      pop\n      jump\t// out\n        /* \"#utility.yul\":6588:6937   */\n    tag_93:\n        /* \"#utility.yul\":6657:6663   */\n      0x00\n        /* \"#utility.yul\":6706:6708   */\n      0x20\n        /* \"#utility.yul\":6694:6703   */\n      dup3\n        /* \"#utility.yul\":6685:6692   */\n      dup5\n        /* \"#utility.yul\":6681:6704   */\n      sub\n        /* \"#utility.yul\":6677:6709   */\n      slt\n        /* \"#utility.yul\":6674:6793   */\n      iszero\n      tag_309\n      jumpi\n        /* \"#utility.yul\":6712:6791   */\n      tag_310\n      tag_198\n      jump\t// in\n    tag_310:\n        /* \"#utility.yul\":6674:6793   */\n    tag_309:\n        /* \"#utility.yul\":6832:6833   */\n      0x00\n        /* \"#utility.yul\":6857:6920   */\n      tag_311\n        /* \"#utility.yul\":6912:6919   */\n      dup5\n        /* \"#utility.yul\":6903:6909   */\n      dup3\n        /* \"#utility.yul\":6892:6901   */\n      dup6\n        /* \"#utility.yul\":6888:6910   */\n      add\n        /* \"#utility.yul\":6857:6920   */\n      tag_218\n      jump\t// in\n    tag_311:\n        /* \"#utility.yul\":6847:6920   */\n      swap2\n      pop\n        /* \"#utility.yul\":6803:6930   */\n      pop\n        /* \"#utility.yul\":6588:6937   */\n      swap3\n      swap2\n      pop\n      pop\n      jump\t// out\n        /* \"#utility.yul\":6943:7140   */\n    tag_99:\n        /* \"#utility.yul\":6982:6985   */\n      0x00\n        /* \"#utility.yul\":7001:7020   */\n      tag_313\n        /* \"#utility.yul\":7018:7019   */\n      dup3\n        /* \"#utility.yul\":7001:7020   */\n      tag_216\n      jump\t// in\n    tag_313:\n        /* \"#utility.yul\":6996:7020   */\n      swap2\n      pop\n        /* \"#utility.yul\":7034:7053   */\n      tag_314\n        /* \"#utility.yul\":7051:7052   */\n      dup4\n        /* \"#utility.yul\":7034:7053   */\n      tag_216\n      jump\t// in\n    tag_314:\n        /* \"#utility.yul\":7029:7053   */\n      swap3\n      pop\n        /* \"#utility.yul\":7076:7077   */\n      dup3\n        /* \"#utility.yul\":7073:7074   */\n      dup3\n        /* \"#utility.yul\":7069:7078   */\n      add\n        /* \"#utility.yul\":7062:7078   */\n      swap1\n      pop\n        /* \"#utility.yul\":7099:7109   */\n      0xffffffff\n        /* \"#utility.yul\":7094:7097   */\n      dup2\n        /* \"#utility.yul\":7091:7110   */\n      gt\n        /* \"#utility.yul\":7088:7133   */\n      iszero\n      tag_315\n      jumpi\n        /* \"#utility.yul\":7113:7131   */\n      tag_316\n      tag_214\n      jump\t// in\n    tag_316:\n        /* \"#utility.yul\":7088:7133   */\n    tag_315:\n        /* \"#utility.yul\":6943:7140   */\n      swap3\n      swap2\n      pop\n      pop\n      jump\t// out\n        /* \"#utility.yul\":7146:7326   */\n    tag_219:\n        /* \"#utility.yul\":7194:7271   */\n      0x4e487b7100000000000000000000000000000000000000000000000000000000\n        /* \"#utility.yul\":7191:7192   */\n      0x00\n        /* \"#utility.yul\":7184:7272   */\n      mstore\n        /* \"#utility.yul\":7291:7295   */\n      0x12\n        /* \"#utility.yul\":7288:7289   */\n      0x04\n        /* \"#utility.yul\":7281:7296   */\n      mstore\n        /* \"#utility.yul\":7315:7319   */\n      0x24\n        /* \"#utility.yul\":7312:7313   */\n      0x00\n        /* \"#utility.yul\":7305:7320   */\n      revert\n        /* \"#utility.yul\":7332:7514   */\n    tag_101:\n        /* \"#utility.yul\":7371:7372   */\n      0x00\n        /* \"#utility.yul\":7388:7407   */\n      tag_319\n        /* \"#utility.yul\":7405:7406   */\n      dup3\n        /* \"#utility.yul\":7388:7407   */\n      tag_216\n      jump\t// in\n    tag_319:\n        /* \"#utility.yul\":7383:7407   */\n      swap2\n      pop\n        /* \"#utility.yul\":7421:7440   */\n      tag_320\n        /* \"#utility.yul\":7438:7439   */\n      dup4\n        /* \"#utility.yul\":7421:7440   */\n      tag_216\n      jump\t// in\n    tag_320:\n        /* \"#utility.yul\":7416:7440   */\n      swap3\n      pop\n        /* \"#utility.yul\":7459:7460   */\n      dup3\n        /* \"#utility.yul\":7449:7484   */\n      tag_321\n      jumpi\n        /* \"#utility.yul\":7464:7482   */\n      tag_322\n      tag_219\n      jump\t// in\n    tag_322:\n        /* \"#utility.yul\":7449:7484   */\n    tag_321:\n        /* \"#utility.yul\":7506:7507   */\n      dup3\n        /* \"#utility.yul\":7503:7504   */\n      dup3\n        /* \"#utility.yul\":7499:7508   */\n      div\n        /* \"#utility.yul\":7494:7508   */\n      swap1\n      pop\n        /* \"#utility.yul\":7332:7514   */\n      swap3\n      swap2\n      pop\n      pop\n      jump\t// out\n        /* \"#utility.yul\":7520:7930   */\n    tag_111:\n        /* \"#utility.yul\":7560:7567   */\n      0x00\n        /* \"#utility.yul\":7583:7603   */\n      tag_324\n        /* \"#utility.yul\":7601:7602   */\n      dup3\n        /* \"#utility.yul\":7583:7603   */\n      tag_200\n      jump\t// in\n    tag_324:\n        /* \"#utility.yul\":7578:7603   */\n      swap2\n      pop\n        /* \"#utility.yul\":7617:7637   */\n      tag_325\n        /* \"#utility.yul\":7635:7636   */\n      dup4\n        /* \"#utility.yul\":7617:7637   */\n      tag_200\n      jump\t// in\n    tag_325:\n        /* \"#utility.yul\":7612:7637   */\n      swap3\n      pop\n        /* \"#utility.yul\":7672:7673   */\n      dup3\n        /* \"#utility.yul\":7669:7670   */\n      dup3\n        /* \"#utility.yul\":7665:7674   */\n      mul\n        /* \"#utility.yul\":7694:7724   */\n      tag_326\n        /* \"#utility.yul\":7712:7723   */\n      dup2\n        /* \"#utility.yul\":7694:7724   */\n      tag_200\n      jump\t// in\n    tag_326:\n        /* \"#utility.yul\":7683:7724   */\n      swap2\n      pop\n        /* \"#utility.yul\":7873:7874   */\n      dup3\n        /* \"#utility.yul\":7864:7871   */\n      dup3\n        /* \"#utility.yul\":7860:7875   */\n      div\n        /* \"#utility.yul\":7857:7858   */\n      dup5\n        /* \"#utility.yul\":7854:7876   */\n      eq\n        /* \"#utility.yul\":7834:7835   */\n      dup4\n        /* \"#utility.yul\":7827:7836   */\n      iszero\n        /* \"#utility.yul\":7807:7890   */\n      or\n        /* \"#utility.yul\":7784:7923   */\n      tag_327\n      jumpi\n        /* \"#utility.yul\":7903:7921   */\n      tag_328\n      tag_214\n      jump\t// in\n    tag_328:\n        /* \"#utility.yul\":7784:7923   */\n    tag_327:\n        /* \"#utility.yul\":7568:7930   */\n      pop\n        /* \"#utility.yul\":7520:7930   */\n      swap3\n      swap2\n      pop\n      pop\n      jump\t// out\n        /* \"#utility.yul\":7936:8022   */\n    tag_220:\n        /* \"#utility.yul\":7971:7978   */\n      0x00\n        /* \"#utility.yul\":8011:8015   */\n      0xff\n        /* \"#utility.yul\":8004:8009   */\n      dup3\n        /* \"#utility.yul\":8000:8016   */\n      and\n        /* \"#utility.yul\":7989:8016   */\n      swap1\n      pop\n        /* \"#utility.yul\":7936:8022   */\n      swap2\n      swap1\n      pop\n      jump\t// out\n        /* \"#utility.yul\":8028:8216   */\n    tag_119:\n        /* \"#utility.yul\":8066:8069   */\n      0x00\n        /* \"#utility.yul\":8085:8103   */\n      tag_331\n        /* \"#utility.yul\":8101:8102   */\n      dup3\n        /* \"#utility.yul\":8085:8103   */\n      tag_220\n      jump\t// in\n    tag_331:\n        /* \"#utility.yul\":8080:8103   */\n      swap2\n      pop\n        /* \"#utility.yul\":8117:8135   */\n      tag_332\n        /* \"#utility.yul\":8133:8134   */\n      dup4\n        /* \"#utility.yul\":8117:8135   */\n      tag_220\n      jump\t// in\n    tag_332:\n        /* \"#utility.yul\":8112:8135   */\n      swap3\n      pop\n        /* \"#utility.yul\":8158:8159   */\n      dup3\n        /* \"#utility.yul\":8155:8156   */\n      dup3\n        /* \"#utility.yul\":8151:8160   */\n      add\n        /* \"#utility.yul\":8144:8160   */\n      swap1\n      pop\n        /* \"#utility.yul\":8181:8185   */\n      0xff\n        /* \"#utility.yul\":8176:8179   */\n      dup2\n        /* \"#utility.yul\":8173:8186   */\n      gt\n        /* \"#utility.yul\":8170:8209   */\n      iszero\n      tag_333\n      jumpi\n        /* \"#utility.yul\":8189:8207   */\n      tag_334\n      tag_214\n      jump\t// in\n    tag_334:\n        /* \"#utility.yul\":8170:8209   */\n    tag_333:\n        /* \"#utility.yul\":8028:8216   */\n      swap3\n      swap2\n      pop\n      pop\n      jump\t// out\n        /* \"#utility.yul\":8222:8342   */\n    tag_221:\n        /* \"#utility.yul\":8313:8335   */\n      tag_336\n        /* \"#utility.yul\":8329:8334   */\n      dup2\n        /* \"#utility.yul\":8313:8335   */\n      tag_220\n      jump\t// in\n    tag_336:\n        /* \"#utility.yul\":8308:8311   */\n      dup3\n        /* \"#utility.yul\":8301:8336   */\n      mstore\n        /* \"#utility.yul\":8222:8342   */\n      pop\n      pop\n      jump\t// out\n        /* \"#utility.yul\":8348:8696   */\n    tag_125:\n        /* \"#utility.yul\":8473:8477   */\n      0x00\n        /* \"#utility.yul\":8511:8513   */\n      0x40\n        /* \"#utility.yul\":8500:8509   */\n      dup3\n        /* \"#utility.yul\":8496:8514   */\n      add\n        /* \"#utility.yul\":8488:8514   */\n      swap1\n      pop\n        /* \"#utility.yul\":8524:8603   */\n      tag_338\n        /* \"#utility.yul\":8600:8601   */\n      0x00\n        /* \"#utility.yul\":8589:8598   */\n      dup4\n        /* \"#utility.yul\":8585:8602   */\n      add\n        /* \"#utility.yul\":8576:8582   */\n      dup6\n        /* \"#utility.yul\":8524:8603   */\n      tag_215\n      jump\t// in\n    tag_338:\n        /* \"#utility.yul\":8613:8689   */\n      tag_339\n        /* \"#utility.yul\":8685:8687   */\n      0x20\n        /* \"#utility.yul\":8674:8683   */\n      dup4\n        /* \"#utility.yul\":8670:8688   */\n      add\n        /* \"#utility.yul\":8661:8667   */\n      dup5\n        /* \"#utility.yul\":8613:8689   */\n      tag_221\n      jump\t// in\n    tag_339:\n        /* \"#utility.yul\":8348:8696   */\n      swap4\n      swap3\n      pop\n      pop\n      pop\n      jump\t// out\n        /* \"#utility.yul\":8702:8820   */\n    tag_222:\n        /* \"#utility.yul\":8773:8795   */\n      tag_341\n        /* \"#utility.yul\":8789:8794   */\n      dup2\n        /* \"#utility.yul\":8773:8795   */\n      tag_220\n      jump\t// in\n    tag_341:\n        /* \"#utility.yul\":8766:8771   */\n      dup2\n        /* \"#utility.yul\":8763:8796   */\n      eq\n        /* \"#utility.yul\":8753:8814   */\n      tag_342\n      jumpi\n        /* \"#utility.yul\":8810:8811   */\n      0x00\n        /* \"#utility.yul\":8807:8808   */\n      dup1\n        /* \"#utility.yul\":8800:8812   */\n      revert\n        /* \"#utility.yul\":8753:8814   */\n    tag_342:\n        /* \"#utility.yul\":8702:8820   */\n      pop\n      jump\t// out\n        /* \"#utility.yul\":8826:8965   */\n    tag_223:\n        /* \"#utility.yul\":8881:8886   */\n      0x00\n        /* \"#utility.yul\":8912:8918   */\n      dup2\n        /* \"#utility.yul\":8906:8919   */\n      mload\n        /* \"#utility.yul\":8897:8919   */\n      swap1\n      pop\n        /* \"#utility.yul\":8928:8959   */\n      tag_344\n        /* \"#utility.yul\":8953:8958   */\n      dup2\n        /* \"#utility.yul\":8928:8959   */\n      tag_222\n      jump\t// in\n    tag_344:\n        /* \"#utility.yul\":8826:8965   */\n      swap3\n      swap2\n      pop\n      pop\n      jump\t// out\n        /* \"#utility.yul\":8971:9318   */\n    tag_129:\n        /* \"#utility.yul\":9039:9045   */\n      0x00\n        /* \"#utility.yul\":9088:9090   */\n      0x20\n        /* \"#utility.yul\":9076:9085   */\n      dup3\n        /* \"#utility.yul\":9067:9074   */\n      dup5\n        /* \"#utility.yul\":9063:9086   */\n      sub\n        /* \"#utility.yul\":9059:9091   */\n      slt\n        /* \"#utility.yul\":9056:9175   */\n      iszero\n      tag_346\n      jumpi\n        /* \"#utility.yul\":9094:9173   */\n      tag_347\n      tag_198\n      jump\t// in\n    tag_347:\n        /* \"#utility.yul\":9056:9175   */\n    tag_346:\n        /* \"#utility.yul\":9214:9215   */\n      0x00\n        /* \"#utility.yul\":9239:9301   */\n      tag_348\n        /* \"#utility.yul\":9293:9300   */\n      dup5\n        /* \"#utility.yul\":9284:9290   */\n      dup3\n        /* \"#utility.yul\":9273:9282   */\n      dup6\n        /* \"#utility.yul\":9269:9291   */\n      add\n        /* \"#utility.yul\":9239:9301   */\n      tag_223\n      jump\t// in\n    tag_348:\n        /* \"#utility.yul\":9229:9301   */\n      swap2\n      pop\n        /* \"#utility.yul\":9185:9311   */\n      pop\n        /* \"#utility.yul\":8971:9318   */\n      swap3\n      swap2\n      pop\n      pop\n      jump\t// out\n        /* \"#utility.yul\":9324:9384   */\n    tag_224:\n        /* \"#utility.yul\":9352:9355   */\n      0x00\n        /* \"#utility.yul\":9373:9378   */\n      dup2\n        /* \"#utility.yul\":9366:9378   */\n      swap1\n      pop\n        /* \"#utility.yul\":9324:9384   */\n      swap2\n      swap1\n      pop\n      jump\t// out\n        /* \"#utility.yul\":9390:9528   */\n    tag_225:\n        /* \"#utility.yul\":9438:9447   */\n      0x00\n        /* \"#utility.yul\":9471:9522   */\n      tag_351\n        /* \"#utility.yul\":9489:9521   */\n      tag_352\n        /* \"#utility.yul\":9498:9520   */\n      tag_353\n        /* \"#utility.yul\":9514:9519   */\n      dup5\n        /* \"#utility.yul\":9498:9520   */\n      tag_220\n      jump\t// in\n    tag_353:\n        /* \"#utility.yul\":9489:9521   */\n      tag_224\n      jump\t// in\n    tag_352:\n        /* \"#utility.yul\":9471:9522   */\n      tag_200\n      jump\t// in\n    tag_351:\n        /* \"#utility.yul\":9458:9522   */\n      swap1\n      pop\n        /* \"#utility.yul\":9390:9528   */\n      swap2\n      swap1\n      pop\n      jump\t// out\n        /* \"#utility.yul\":9534:9669   */\n    tag_226:\n        /* \"#utility.yul\":9627:9662   */\n      tag_355\n        /* \"#utility.yul\":9656:9661   */\n      dup2\n        /* \"#utility.yul\":9627:9662   */\n      tag_225\n      jump\t// in\n    tag_355:\n        /* \"#utility.yul\":9622:9625   */\n      dup3\n        /* \"#utility.yul\":9615:9663   */\n      mstore\n        /* \"#utility.yul\":9534:9669   */\n      pop\n      pop\n      jump\t// out\n        /* \"#utility.yul\":9675:10137   */\n    tag_136:\n        /* \"#utility.yul\":9826:9830   */\n      0x00\n        /* \"#utility.yul\":9864:9866   */\n      0x60\n        /* \"#utility.yul\":9853:9862   */\n      dup3\n        /* \"#utility.yul\":9849:9867   */\n      add\n        /* \"#utility.yul\":9841:9867   */\n      swap1\n      pop\n        /* \"#utility.yul\":9877:9956   */\n      tag_357\n        /* \"#utility.yul\":9953:9954   */\n      0x00\n        /* \"#utility.yul\":9942:9951   */\n      dup4\n        /* \"#utility.yul\":9938:9955   */\n      add\n        /* \"#utility.yul\":9929:9935   */\n      dup7\n        /* \"#utility.yul\":9877:9956   */\n      tag_215\n      jump\t// in\n    tag_357:\n        /* \"#utility.yul\":9966:10044   */\n      tag_358\n        /* \"#utility.yul\":10040:10042   */\n      0x20\n        /* \"#utility.yul\":10029:10038   */\n      dup4\n        /* \"#utility.yul\":10025:10043   */\n      add\n        /* \"#utility.yul\":10016:10022   */\n      dup6\n        /* \"#utility.yul\":9966:10044   */\n      tag_226\n      jump\t// in\n    tag_358:\n        /* \"#utility.yul\":10054:10130   */\n      tag_359\n        /* \"#utility.yul\":10126:10128   */\n      0x40\n        /* \"#utility.yul\":10115:10124   */\n      dup4\n        /* \"#utility.yul\":10111:10129   */\n      add\n        /* \"#utility.yul\":10102:10108   */\n      dup5\n        /* \"#utility.yul\":10054:10130   */\n      tag_221\n      jump\t// in\n    tag_359:\n        /* \"#utility.yul\":9675:10137   */\n      swap5\n      swap4\n      pop\n      pop\n      pop\n      pop\n      jump\t// out\n        /* \"#utility.yul\":10143:10286   */\n    tag_227:\n        /* \"#utility.yul\":10200:10205   */\n      0x00\n        /* \"#utility.yul\":10231:10237   */\n      dup2\n        /* \"#utility.yul\":10225:10238   */\n      mload\n        /* \"#utility.yul\":10216:10238   */\n      swap1\n      pop\n        /* \"#utility.yul\":10247:10280   */\n      tag_361\n        /* \"#utility.yul\":10274:10279   */\n      dup2\n        /* \"#utility.yul\":10247:10280   */\n      tag_201\n      jump\t// in\n    tag_361:\n        /* \"#utility.yul\":10143:10286   */\n      swap3\n      swap2\n      pop\n      pop\n      jump\t// out\n        /* \"#utility.yul\":10292:10643   */\n    tag_140:\n        /* \"#utility.yul\":10362:10368   */\n      0x00\n        /* \"#utility.yul\":10411:10413   */\n      0x20\n        /* \"#utility.yul\":10399:10408   */\n      dup3\n        /* \"#utility.yul\":10390:10397   */\n      dup5\n        /* \"#utility.yul\":10386:10409   */\n      sub\n        /* \"#utility.yul\":10382:10414   */\n      slt\n        /* \"#utility.yul\":10379:10498   */\n      iszero\n      tag_363\n      jumpi\n        /* \"#utility.yul\":10417:10496   */\n      tag_364\n      tag_198\n      jump\t// in\n    tag_364:\n        /* \"#utility.yul\":10379:10498   */\n    tag_363:\n        /* \"#utility.yul\":10537:10538   */\n      0x00\n        /* \"#utility.yul\":10562:10626   */\n      tag_365\n        /* \"#utility.yul\":10618:10625   */\n      dup5\n        /* \"#utility.yul\":10609:10615   */\n      dup3\n        /* \"#utility.yul\":10598:10607   */\n      dup6\n        /* \"#utility.yul\":10594:10616   */\n      add\n        /* \"#utility.yul\":10562:10626   */\n      tag_227\n      jump\t// in\n    tag_365:\n        /* \"#utility.yul\":10552:10626   */\n      swap2\n      pop\n        /* \"#utility.yul\":10508:10636   */\n      pop\n        /* \"#utility.yul\":10292:10643   */\n      swap3\n      swap2\n      pop\n      pop\n      jump\t// out\n        /* \"#utility.yul\":10649:10734   */\n    tag_228:\n        /* \"#utility.yul\":10694:10701   */\n      0x00\n        /* \"#utility.yul\":10723:10728   */\n      dup2\n        /* \"#utility.yul\":10712:10728   */\n      swap1\n      pop\n        /* \"#utility.yul\":10649:10734   */\n      swap2\n      swap1\n      pop\n      jump\t// out\n        /* \"#utility.yul\":10740:10894   */\n    tag_229:\n        /* \"#utility.yul\":10796:10805   */\n      0x00\n        /* \"#utility.yul\":10829:10888   */\n      tag_368\n        /* \"#utility.yul\":10845:10887   */\n      tag_369\n        /* \"#utility.yul\":10854:10886   */\n      tag_370\n        /* \"#utility.yul\":10880:10885   */\n      dup5\n        /* \"#utility.yul\":10854:10886   */\n      tag_228\n      jump\t// in\n    tag_370:\n        /* \"#utility.yul\":10845:10887   */\n      tag_224\n      jump\t// in\n    tag_369:\n        /* \"#utility.yul\":10829:10888   */\n      tag_220\n      jump\t// in\n    tag_368:\n        /* \"#utility.yul\":10816:10888   */\n      swap1\n      pop\n        /* \"#utility.yul\":10740:10894   */\n      swap2\n      swap1\n      pop\n      jump\t// out\n        /* \"#utility.yul\":10900:11051   */\n    tag_230:\n        /* \"#utility.yul\":11001:11044   */\n      tag_372\n        /* \"#utility.yul\":11038:11043   */\n      dup2\n        /* \"#utility.yul\":11001:11044   */\n      tag_229\n      jump\t// in\n    tag_372:\n        /* \"#utility.yul\":10996:10999   */\n      dup3\n        /* \"#utility.yul\":10989:11045   */\n      mstore\n        /* \"#utility.yul\":10900:11051   */\n      pop\n      pop\n      jump\t// out\n        /* \"#utility.yul\":11057:11539   */\n    tag_142:\n        /* \"#utility.yul\":11218:11222   */\n      0x00\n        /* \"#utility.yul\":11256:11258   */\n      0x60\n        /* \"#utility.yul\":11245:11254   */\n      dup3\n        /* \"#utility.yul\":11241:11259   */\n      add\n        /* \"#utility.yul\":11233:11259   */\n      swap1\n      pop\n        /* \"#utility.yul\":11269:11348   */\n      tag_374\n        /* \"#utility.yul\":11345:11346   */\n      0x00\n        /* \"#utility.yul\":11334:11343   */\n      dup4\n        /* \"#utility.yul\":11330:11347   */\n      add\n        /* \"#utility.yul\":11321:11327   */\n      dup7\n        /* \"#utility.yul\":11269:11348   */\n      tag_215\n      jump\t// in\n    tag_374:\n        /* \"#utility.yul\":11358:11436   */\n      tag_375\n        /* \"#utility.yul\":11432:11434   */\n      0x20\n        /* \"#utility.yul\":11421:11430   */\n      dup4\n        /* \"#utility.yul\":11417:11435   */\n      add\n        /* \"#utility.yul\":11408:11414   */\n      dup6\n        /* \"#utility.yul\":11358:11436   */\n      tag_226\n      jump\t// in\n    tag_375:\n        /* \"#utility.yul\":11446:11532   */\n      tag_376\n        /* \"#utility.yul\":11528:11530   */\n      0x40\n        /* \"#utility.yul\":11517:11526   */\n      dup4\n        /* \"#utility.yul\":11513:11531   */\n      add\n        /* \"#utility.yul\":11504:11510   */\n      dup5\n        /* \"#utility.yul\":11446:11532   */\n      tag_230\n      jump\t// in\n    tag_376:\n        /* \"#utility.yul\":11057:11539   */\n      swap5\n      swap4\n      pop\n      pop\n      pop\n      pop\n      jump\t// out\n        /* \"#utility.yul\":11545:11712   */\n    tag_153:\n        /* \"#utility.yul\":11582:11585   */\n      0x00\n        /* \"#utility.yul\":11605:11627   */\n      tag_378\n        /* \"#utility.yul\":11621:11626   */\n      dup3\n        /* \"#utility.yul\":11605:11627   */\n      tag_220\n      jump\t// in\n    tag_378:\n        /* \"#utility.yul\":11596:11627   */\n      swap2\n      pop\n        /* \"#utility.yul\":11649:11653   */\n      0xff\n        /* \"#utility.yul\":11642:11647   */\n      dup3\n        /* \"#utility.yul\":11639:11654   */\n      sub\n        /* \"#utility.yul\":11636:11677   */\n      tag_379\n      jumpi\n        /* \"#utility.yul\":11657:11675   */\n      tag_380\n      tag_214\n      jump\t// in\n    tag_380:\n        /* \"#utility.yul\":11636:11677   */\n    tag_379:\n        /* \"#utility.yul\":11704:11705   */\n      0x01\n        /* \"#utility.yul\":11697:11702   */\n      dup3\n        /* \"#utility.yul\":11693:11706   */\n      add\n        /* \"#utility.yul\":11686:11706   */\n      swap1\n      pop\n        /* \"#utility.yul\":11545:11712   */\n      swap2\n      swap1\n      pop\n      jump\t// out\n        /* \"#utility.yul\":11718:11841   */\n    tag_231:\n        /* \"#utility.yul\":11811:11834   */\n      tag_382\n        /* \"#utility.yul\":11828:11833   */\n      dup2\n        /* \"#utility.yul\":11811:11834   */\n      tag_216\n      jump\t// in\n    tag_382:\n        /* \"#utility.yul\":11806:11809   */\n      dup3\n        /* \"#utility.yul\":11799:11835   */\n      mstore\n        /* \"#utility.yul\":11718:11841   */\n      pop\n      pop\n      jump\t// out\n        /* \"#utility.yul\":11847:12199   */\n    tag_155:\n        /* \"#utility.yul\":11974:11978   */\n      0x00\n        /* \"#utility.yul\":12012:12014   */\n      0x40\n        /* \"#utility.yul\":12001:12010   */\n      dup3\n        /* \"#utility.yul\":11997:12015   */\n      add\n        /* \"#utility.yul\":11989:12015   */\n      swap1\n      pop\n        /* \"#utility.yul\":12025:12104   */\n      tag_384\n        /* \"#utility.yul\":12101:12102   */\n      0x00\n        /* \"#utility.yul\":12090:12099   */\n      dup4\n        /* \"#utility.yul\":12086:12103   */\n      add\n        /* \"#utility.yul\":12077:12083   */\n      dup6\n        /* \"#utility.yul\":12025:12104   */\n      tag_215\n      jump\t// in\n    tag_384:\n        /* \"#utility.yul\":12114:12192   */\n      tag_385\n        /* \"#utility.yul\":12188:12190   */\n      0x20\n        /* \"#utility.yul\":12177:12186   */\n      dup4\n        /* \"#utility.yul\":12173:12191   */\n      add\n        /* \"#utility.yul\":12164:12170   */\n      dup5\n        /* \"#utility.yul\":12114:12192   */\n      tag_231\n      jump\t// in\n    tag_385:\n        /* \"#utility.yul\":11847:12199   */\n      swap4\n      swap3\n      pop\n      pop\n      pop\n      jump\t// out\n        /* \"#utility.yul\":12205:12573   */\n    tag_160:\n        /* \"#utility.yul\":12340:12344   */\n      0x00\n        /* \"#utility.yul\":12378:12380   */\n      0x40\n        /* \"#utility.yul\":12367:12376   */\n      dup3\n        /* \"#utility.yul\":12363:12381   */\n      add\n        /* \"#utility.yul\":12355:12381   */\n      swap1\n      pop\n        /* \"#utility.yul\":12391:12470   */\n      tag_387\n        /* \"#utility.yul\":12467:12468   */\n      0x00\n        /* \"#utility.yul\":12456:12465   */\n      dup4\n        /* \"#utility.yul\":12452:12469   */\n      add\n        /* \"#utility.yul\":12443:12449   */\n      dup6\n        /* \"#utility.yul\":12391:12470   */\n      tag_215\n      jump\t// in\n    tag_387:\n        /* \"#utility.yul\":12480:12566   */\n      tag_388\n        /* \"#utility.yul\":12562:12564   */\n      0x20\n        /* \"#utility.yul\":12551:12560   */\n      dup4\n        /* \"#utility.yul\":12547:12565   */\n      add\n        /* \"#utility.yul\":12538:12544   */\n      dup5\n        /* \"#utility.yul\":12480:12566   */\n      tag_230\n      jump\t// in\n    tag_388:\n        /* \"#utility.yul\":12205:12573   */\n      swap4\n      swap3\n      pop\n      pop\n      pop\n      jump\t// out\n        /* \"#utility.yul\":12579:12804   */\n    tag_232:\n        /* \"#utility.yul\":12719:12753   */\n      0x4f776e61626c653a206e6577206f776e657220697320746865207a65726f2061\n        /* \"#utility.yul\":12715:12716   */\n      0x00\n        /* \"#utility.yul\":12707:12713   */\n      dup3\n        /* \"#utility.yul\":12703:12717   */\n      add\n        /* \"#utility.yul\":12696:12754   */\n      mstore\n        /* \"#utility.yul\":12788:12796   */\n      0x6464726573730000000000000000000000000000000000000000000000000000\n        /* \"#utility.yul\":12783:12785   */\n      0x20\n        /* \"#utility.yul\":12775:12781   */\n      dup3\n        /* \"#utility.yul\":12771:12786   */\n      add\n        /* \"#utility.yul\":12764:12797   */\n      mstore\n        /* \"#utility.yul\":12579:12804   */\n      pop\n      jump\t// out\n        /* \"#utility.yul\":12810:13176   */\n    tag_233:\n        /* \"#utility.yul\":12952:12955   */\n      0x00\n        /* \"#utility.yul\":12973:13040   */\n      tag_391\n        /* \"#utility.yul\":13037:13039   */\n      0x26\n        /* \"#utility.yul\":13032:13035   */\n      dup4\n        /* \"#utility.yul\":12973:13040   */\n      tag_211\n      jump\t// in\n    tag_391:\n        /* \"#utility.yul\":12966:13040   */\n      swap2\n      pop\n        /* \"#utility.yul\":13049:13142   */\n      tag_392\n        /* \"#utility.yul\":13138:13141   */\n      dup3\n        /* \"#utility.yul\":13049:13142   */\n      tag_232\n      jump\t// in\n    tag_392:\n        /* \"#utility.yul\":13167:13169   */\n      0x40\n        /* \"#utility.yul\":13162:13165   */\n      dup3\n        /* \"#utility.yul\":13158:13170   */\n      add\n        /* \"#utility.yul\":13151:13170   */\n      swap1\n      pop\n        /* \"#utility.yul\":12810:13176   */\n      swap2\n      swap1\n      pop\n      jump\t// out\n        /* \"#utility.yul\":13182:13601   */\n    tag_169:\n        /* \"#utility.yul\":13348:13352   */\n      0x00\n        /* \"#utility.yul\":13386:13388   */\n      0x20\n        /* \"#utility.yul\":13375:13384   */\n      dup3\n        /* \"#utility.yul\":13371:13389   */\n      add\n        /* \"#utility.yul\":13363:13389   */\n      swap1\n      pop\n        /* \"#utility.yul\":13435:13444   */\n      dup2\n        /* \"#utility.yul\":13429:13433   */\n      dup2\n        /* \"#utility.yul\":13425:13445   */\n      sub\n        /* \"#utility.yul\":13421:13422   */\n      0x00\n        /* \"#utility.yul\":13410:13419   */\n      dup4\n        /* \"#utility.yul\":13406:13423   */\n      add\n        /* \"#utility.yul\":13399:13446   */\n      mstore\n        /* \"#utility.yul\":13463:13594   */\n      tag_394\n        /* \"#utility.yul\":13589:13593   */\n      dup2\n        /* \"#utility.yul\":13463:13594   */\n      tag_233\n      jump\t// in\n    tag_394:\n        /* \"#utility.yul\":13455:13594   */\n      swap1\n      pop\n        /* \"#utility.yul\":13182:13601   */\n      swap2\n      swap1\n      pop\n      jump\t// out\n        /* \"#utility.yul\":13607:13789   */\n    tag_234:\n        /* \"#utility.yul\":13747:13781   */\n      0x4f776e61626c653a2063616c6c6572206973206e6f7420746865206f776e6572\n        /* \"#utility.yul\":13743:13744   */\n      0x00\n        /* \"#utility.yul\":13735:13741   */\n      dup3\n        /* \"#utility.yul\":13731:13745   */\n      add\n        /* \"#utility.yul\":13724:13782   */\n      mstore\n        /* \"#utility.yul\":13607:13789   */\n      pop\n      jump\t// out\n        /* \"#utility.yul\":13795:14161   */\n    tag_235:\n        /* \"#utility.yul\":13937:13940   */\n      0x00\n        /* \"#utility.yul\":13958:14025   */\n      tag_397\n        /* \"#utility.yul\":14022:14024   */\n      0x20\n        /* \"#utility.yul\":14017:14020   */\n      dup4\n        /* \"#utility.yul\":13958:14025   */\n      tag_211\n      jump\t// in\n    tag_397:\n        /* \"#utility.yul\":13951:14025   */\n      swap2\n      pop\n        /* \"#utility.yul\":14034:14127   */\n      tag_398\n        /* \"#utility.yul\":14123:14126   */\n      dup3\n        /* \"#utility.yul\":14034:14127   */\n      tag_234\n      jump\t// in\n    tag_398:\n        /* \"#utility.yul\":14152:14154   */\n      0x20\n        /* \"#utility.yul\":14147:14150   */\n      dup3\n        /* \"#utility.yul\":14143:14155   */\n      add\n        /* \"#utility.yul\":14136:14155   */\n      swap1\n      pop\n        /* \"#utility.yul\":13795:14161   */\n      swap2\n      swap1\n      pop\n      jump\t// out\n        /* \"#utility.yul\":14167:14586   */\n    tag_177:\n        /* \"#utility.yul\":14333:14337   */\n      0x00\n        /* \"#utility.yul\":14371:14373   */\n      0x20\n        /* \"#utility.yul\":14360:14369   */\n      dup3\n        /* \"#utility.yul\":14356:14374   */\n      add\n        /* \"#utility.yul\":14348:14374   */\n      swap1\n      pop\n        /* \"#utility.yul\":14420:14429   */\n      dup2\n        /* \"#utility.yul\":14414:14418   */\n      dup2\n        /* \"#utility.yul\":14410:14430   */\n      sub\n        /* \"#utility.yul\":14406:14407   */\n      0x00\n        /* \"#utility.yul\":14395:14404   */\n      dup4\n        /* \"#utility.yul\":14391:14408   */\n      add\n        /* \"#utility.yul\":14384:14431   */\n      mstore\n        /* \"#utility.yul\":14448:14579   */\n      tag_400\n        /* \"#utility.yul\":14574:14578   */\n      dup2\n        /* \"#utility.yul\":14448:14579   */\n      tag_235\n      jump\t// in\n    tag_400:\n        /* \"#utility.yul\":14440:14579   */\n      swap1\n      pop\n        /* \"#utility.yul\":14167:14586   */\n      swap2\n      swap1\n      pop\n      jump\t// out\n        /* \"#utility.yul\":14592:14786   */\n    tag_184:\n        /* \"#utility.yul\":14632:14636   */\n      0x00\n        /* \"#utility.yul\":14652:14672   */\n      tag_402\n        /* \"#utility.yul\":14670:14671   */\n      dup3\n        /* \"#utility.yul\":14652:14672   */\n      tag_200\n      jump\t// in\n    tag_402:\n        /* \"#utility.yul\":14647:14672   */\n      swap2\n      pop\n        /* \"#utility.yul\":14686:14706   */\n      tag_403\n        /* \"#utility.yul\":14704:14705   */\n      dup4\n        /* \"#utility.yul\":14686:14706   */\n      tag_200\n      jump\t// in\n    tag_403:\n        /* \"#utility.yul\":14681:14706   */\n      swap3\n      pop\n        /* \"#utility.yul\":14730:14731   */\n      dup3\n        /* \"#utility.yul\":14727:14728   */\n      dup3\n        /* \"#utility.yul\":14723:14732   */\n      sub\n        /* \"#utility.yul\":14715:14732   */\n      swap1\n      pop\n        /* \"#utility.yul\":14754:14755   */\n      dup2\n        /* \"#utility.yul\":14748:14752   */\n      dup2\n        /* \"#utility.yul\":14745:14756   */\n      gt\n        /* \"#utility.yul\":14742:14779   */\n      iszero\n      tag_404\n      jumpi\n        /* \"#utility.yul\":14759:14777   */\n      tag_405\n      tag_214\n      jump\t// in\n    tag_405:\n        /* \"#utility.yul\":14742:14779   */\n    tag_404:\n        /* \"#utility.yul\":14592:14786   */\n      swap3\n      swap2\n      pop\n      pop\n      jump\t// out\n        /* \"#utility.yul\":14792:14977   */\n    tag_187:\n        /* \"#utility.yul\":14832:14833   */\n      0x00\n        /* \"#utility.yul\":14849:14869   */\n      tag_407\n        /* \"#utility.yul\":14867:14868   */\n      dup3\n        /* \"#utility.yul\":14849:14869   */\n      tag_200\n      jump\t// in\n    tag_407:\n        /* \"#utility.yul\":14844:14869   */\n      swap2\n      pop\n        /* \"#utility.yul\":14883:14903   */\n      tag_408\n        /* \"#utility.yul\":14901:14902   */\n      dup4\n        /* \"#utility.yul\":14883:14903   */\n      tag_200\n      jump\t// in\n    tag_408:\n        /* \"#utility.yul\":14878:14903   */\n      swap3\n      pop\n        /* \"#utility.yul\":14922:14923   */\n      dup3\n        /* \"#utility.yul\":14912:14947   */\n      tag_409\n      jumpi\n        /* \"#utility.yul\":14927:14945   */\n      tag_410\n      tag_219\n      jump\t// in\n    tag_410:\n        /* \"#utility.yul\":14912:14947   */\n    tag_409:\n        /* \"#utility.yul\":14969:14970   */\n      dup3\n        /* \"#utility.yul\":14966:14967   */\n      dup3\n        /* \"#utility.yul\":14962:14971   */\n      div\n        /* \"#utility.yul\":14957:14971   */\n      swap1\n      pop\n        /* \"#utility.yul\":14792:14977   */\n      swap3\n      swap2\n      pop\n      pop\n      jump\t// out\n        /* \"#utility.yul\":14983:15380   */\n    tag_191:\n        /* \"#utility.yul\":15123:15126   */\n      0x00\n        /* \"#utility.yul\":15138:15213   */\n      tag_412\n        /* \"#utility.yul\":15209:15212   */\n      dup3\n        /* \"#utility.yul\":15200:15206   */\n      dup6\n        /* \"#utility.yul\":15138:15213   */\n      tag_210\n      jump\t// in\n    tag_412:\n        /* \"#utility.yul\":15238:15240   */\n      0x20\n        /* \"#utility.yul\":15233:15236   */\n      dup3\n        /* \"#utility.yul\":15229:15241   */\n      add\n        /* \"#utility.yul\":15222:15241   */\n      swap2\n      pop\n        /* \"#utility.yul\":15251:15326   */\n      tag_413\n        /* \"#utility.yul\":15322:15325   */\n      dup3\n        /* \"#utility.yul\":15313:15319   */\n      dup5\n        /* \"#utility.yul\":15251:15326   */\n      tag_210\n      jump\t// in\n    tag_413:\n        /* \"#utility.yul\":15351:15353   */\n      0x20\n        /* \"#utility.yul\":15346:15349   */\n      dup3\n        /* \"#utility.yul\":15342:15354   */\n      add\n        /* \"#utility.yul\":15335:15354   */\n      swap2\n      pop\n        /* \"#utility.yul\":15371:15374   */\n      dup2\n        /* \"#utility.yul\":15364:15374   */\n      swap1\n      pop\n        /* \"#utility.yul\":14983:15380   */\n      swap4\n      swap3\n      pop\n      pop\n      pop\n      jump\t// out\n        /* \"#utility.yul\":15386:15562   */\n    tag_193:\n        /* \"#utility.yul\":15418:15419   */\n      0x00\n        /* \"#utility.yul\":15435:15455   */\n      tag_415\n        /* \"#utility.yul\":15453:15454   */\n      dup3\n        /* \"#utility.yul\":15435:15455   */\n      tag_200\n      jump\t// in\n    tag_415:\n        /* \"#utility.yul\":15430:15455   */\n      swap2\n      pop\n        /* \"#utility.yul\":15469:15489   */\n      tag_416\n        /* \"#utility.yul\":15487:15488   */\n      dup4\n        /* \"#utility.yul\":15469:15489   */\n      tag_200\n      jump\t// in\n    tag_416:\n        /* \"#utility.yul\":15464:15489   */\n      swap3\n      pop\n        /* \"#utility.yul\":15508:15509   */\n      dup3\n        /* \"#utility.yul\":15498:15533   */\n      tag_417\n      jumpi\n        /* \"#utility.yul\":15513:15531   */\n      tag_418\n      tag_219\n      jump\t// in\n    tag_418:\n        /* \"#utility.yul\":15498:15533   */\n    tag_417:\n        /* \"#utility.yul\":15554:15555   */\n      dup3\n        /* \"#utility.yul\":15551:15552   */\n      dup3\n        /* \"#utility.yul\":15547:15556   */\n      mod\n        /* \"#utility.yul\":15542:15556   */\n      swap1\n      pop\n        /* \"#utility.yul\":15386:15562   */\n      swap3\n      swap2\n      pop\n      pop\n      jump\t// out\n        /* \"#utility.yul\":15568:15759   */\n    tag_195:\n        /* \"#utility.yul\":15608:15611   */\n      0x00\n        /* \"#utility.yul\":15627:15647   */\n      tag_420\n        /* \"#utility.yul\":15645:15646   */\n      dup3\n        /* \"#utility.yul\":15627:15647   */\n      tag_200\n      jump\t// in\n    tag_420:\n        /* \"#utility.yul\":15622:15647   */\n      swap2\n      pop\n        /* \"#utility.yul\":15661:15681   */\n      tag_421\n        /* \"#utility.yul\":15679:15680   */\n      dup4\n        /* \"#utility.yul\":15661:15681   */\n      tag_200\n      jump\t// in\n    tag_421:\n        /* \"#utility.yul\":15656:15681   */\n      swap3\n      pop\n        /* \"#utility.yul\":15704:15705   */\n      dup3\n        /* \"#utility.yul\":15701:15702   */\n      dup3\n        /* \"#utility.yul\":15697:15706   */\n      add\n        /* \"#utility.yul\":15690:15706   */\n      swap1\n      pop\n        /* \"#utility.yul\":15725:15728   */\n      dup1\n        /* \"#utility.yul\":15722:15723   */\n      dup3\n        /* \"#utility.yul\":15719:15729   */\n      gt\n        /* \"#utility.yul\":15716:15752   */\n      iszero\n      tag_422\n      jumpi\n        /* \"#utility.yul\":15732:15750   */\n      tag_423\n      tag_214\n      jump\t// in\n    tag_423:\n        /* \"#utility.yul\":15716:15752   */\n    tag_422:\n        /* \"#utility.yul\":15568:15759   */\n      swap3\n      swap2\n      pop\n      pop\n      jump\t// out\n\n    auxdata: 0xa2646970667358221220ace367f8c57830af43c632726d3f5ee2070eb0fcb3c254fbfc1aba79ee485c9c64736f6c63430008120033\n}\n",
				"bytecode": {
					"linkReferences": {
						"contracts/common/GenesUtil.sol": {
							"GenesUtil": [
								{
									"length": 20,
									"start": 1152
								},
								{
									"length": 20,
									"start": 1272
								},
								{
									"length": 20,
									"start": 1668
								},
								{
									"length": 20,
									"start": 1797
								},
								{
									"length": 20,
									"start": 1923
								},
								{
									"length": 20,
									"start": 2049
								},
								{
									"length": 20,
									"start": 2176
								},
								{
									"length": 20,
									"start": 2339
								},
								{
									"length": 20,
									"start": 2463
								}
							]
						}
					},
					"object": "608060405260018055600a6002556005600355600a60045534801561002357600080fd5b5061004061003561004560201b60201c565b61004d60201b60201c565b610111565b600033905090565b60008060009054906101000a900473ffffffffffffffffffffffffffffffffffffffff169050816000806101000a81548173ffffffffffffffffffffffffffffffffffffffff021916908373ffffffffffffffffffffffffffffffffffffffff1602179055508173ffffffffffffffffffffffffffffffffffffffff168173ffffffffffffffffffffffffffffffffffffffff167f8be0079c531659141344cd1fd0a4f28419497f9722a3daafe3b4186f6b6457e060405160405180910390a35050565b6114af806101206000396000f3fe608060405234801561001057600080fd5b50600436106100b45760003560e01c8063878cf3a611610071578063878cf3a6146101535780638da5cb5b1461017157806391b667251461018f578063e238b8c6146101ab578063e4a13fb7146101c9578063f2fde38b146101f9576100b4565b806302aff378146100b9578063054fee6a146100d55780631bb39f84146100f157806332099cc41461010d578063615ebe281461012b578063715018a614610149575b600080fd5b6100d360048036038101906100ce9190610bc4565b610215565b005b6100ef60048036038101906100ea9190610bc4565b610227565b005b61010b60048036038101906101069190610bc4565b610239565b005b61011561024b565b6040516101229190610c00565b60405180910390f35b610133610255565b6040516101409190610c00565b60405180910390f35b61015161025f565b005b61015b610273565b6040516101689190610c00565b60405180910390f35b61017961027d565b6040516101869190610c5c565b60405180910390f35b6101a960048036038101906101a49190610bc4565b6102a6565b005b6101b36102b8565b6040516101c09190610c00565b60405180910390f35b6101e360048036038101906101de9190610c77565b6102c2565b6040516101f09190610c00565b60405180910390f35b610213600480360381019061020e9190610ce3565b61090a565b005b61021d61098d565b8060018190555050565b61022f61098d565b8060028190555050565b61024161098d565b8060048190555050565b6000600354905090565b6000600454905090565b61026761098d565b6102716000610a0b565b565b6000600154905090565b60008060009054906101000a900473ffffffffffffffffffffffffffffffffffffffff16905090565b6102ae61098d565b8060038190555050565b6000600254905090565b60008042434486866001546040516020016102e296959493929190610d31565b6040516020818303038152906040528051906020012060001c905060008103610340576040517f08c379a000000000000000000000000000000000000000000000000000000000815260040161033790610dfe565b60405180910390fd5b6001600081548092919061035390610e4d565b919050555060006001600273__$bc34c519aa7d1b67b54ee96cd6fbdfb8db$__6356e3df97876040518263ffffffff1660e01b81526004016103959190610ea4565b602060405180830381865af41580156103b2573d6000803e3d6000fd5b505050506040513d601f19601f820116820180604052508101906103d69190610efb565b73__$bc34c519aa7d1b67b54ee96cd6fbdfb8db$__6356e3df97896040518263ffffffff1660e01b815260040161040d9190610ea4565b602060405180830381865af415801561042a573d6000803e3d6000fd5b505050506040513d601f19601f8201168201806040525081019061044e9190610efb565b6104589190610f28565b6104629190610f8f565b61046c9190610f28565b905060006001905060006024905060006009905060008060005b8360ff168160ff1610156108005760006104ad8863ffffffff166003546004546064610acf565b905060006104da60015486806104c290610e4d565b9750600060646004546104d59190610fc0565b610b25565b8210905060006001905061050060015487806104f590610e4d565b985060006064610b25565b600254101561053f5760ff610537600154888061051c90610e4d565b99508c60ff1660018d61052f919061100f565b60ff16610b25565b169050610661565b603261055d600154888061055290610e4d565b995060006064610b25565b106105e35773__$bc34c519aa7d1b67b54ee96cd6fbdfb8db$__635d2029f18e866040518363ffffffff1660e01b815260040161059b929190611053565b602060405180830381865af41580156105b8573d6000803e3d6000fd5b505050506040513d601f19601f820116820180604052508101906105dc91906110a8565b9050610660565b73__$bc34c519aa7d1b67b54ee96cd6fbdfb8db$__635d2029f18f866040518363ffffffff1660e01b815260040161061c929190611053565b602060405180830381865af4158015610639573d6000803e3d6000fd5b505050506040513d601f19601f8201168201806040525081019061065d91906110a8565b90505b5b73__$bc34c519aa7d1b67b54ee96cd6fbdfb8db$__6334a51d0f8686846040518463ffffffff1660e01b815260040161069c93929190611110565b602060405180830381865af41580156106b9573d6000803e3d6000fd5b505050506040513d601f19601f820116820180604052508101906106dd919061115c565b945073__$bc34c519aa7d1b67b54ee96cd6fbdfb8db$__63e1b30ab7868660016040518463ffffffff1660e01b815260040161071b939291906111c4565b602060405180830381865af4158015610738573d6000803e3d6000fd5b505050506040513d601f19601f8201168201806040525081019061075c919061115c565b945073__$bc34c519aa7d1b67b54ee96cd6fbdfb8db$__6355d6ed43868685610786576000610789565b60015b6040518463ffffffff1660e01b81526004016107a793929190611110565b602060405180830381865af41580156107c4573d6000803e3d6000fd5b505050506040513d601f19601f820116820180604052508101906107e8919061115c565b945050505080806107f8906111fb565b915050610486565b5073__$bc34c519aa7d1b67b54ee96cd6fbdfb8db$__638de97f4f82886040518363ffffffff1660e01b815260040161083a929190611233565b602060405180830381865af4158015610857573d6000803e3d6000fd5b505050506040513d601f19601f8201168201806040525081019061087b919061115c565b905073__$bc34c519aa7d1b67b54ee96cd6fbdfb8db$__63b52b66598260016040518363ffffffff1660e01b81526004016108b792919061125c565b602060405180830381865af41580156108d4573d6000803e3d6000fd5b505050506040513d601f19601f820116820180604052508101906108f8919061115c565b90508097505050505050505092915050565b61091261098d565b600073ffffffffffffffffffffffffffffffffffffffff168173ffffffffffffffffffffffffffffffffffffffff1603610981576040517f08c379a0000000000000000000000000000000000000000000000000000000008152600401610978906112f7565b60405180910390fd5b61098a81610a0b565b50565b610995610b81565b73ffffffffffffffffffffffffffffffffffffffff166109b361027d565b73ffffffffffffffffffffffffffffffffffffffff1614610a09576040517f08c379a0000000000000000000000000000000000000000000000000000000008152600401610a0090611363565b60405180910390fd5b565b60008060009054906101000a900473ffffffffffffffffffffffffffffffffffffffff169050816000806101000a81548173ffffffffffffffffffffffffffffffffffffffff021916908373ffffffffffffffffffffffffffffffffffffffff1602179055508173ffffffffffffffffffffffffffffffffffffffff168173ffffffffffffffffffffffffffffffffffffffff167f8be0079c531659141344cd1fd0a4f28419497f9722a3daafe3b4186f6b6457e060405160405180910390a35050565b6000838511610ae15760009050610b1d565b828285610aee9190610fc0565b8387610afa9190610fc0565b610b049190611383565b6001610b109190610fc0565b610b1a91906113b7565b90505b949350505050565b60008282610b339190611383565b8585604051602001610b469291906113e8565b6040516020818303038152906040528051906020012060001c610b699190611414565b90508083610b779190611445565b9050949350505050565b600033905090565b600080fd5b6000819050919050565b610ba181610b8e565b8114610bac57600080fd5b50565b600081359050610bbe81610b98565b92915050565b600060208284031215610bda57610bd9610b89565b5b6000610be884828501610baf565b91505092915050565b610bfa81610b8e565b82525050565b6000602082019050610c156000830184610bf1565b92915050565b600073ffffffffffffffffffffffffffffffffffffffff82169050919050565b6000610c4682610c1b565b9050919050565b610c5681610c3b565b82525050565b6000602082019050610c716000830184610c4d565b92915050565b60008060408385031215610c8e57610c8d610b89565b5b6000610c9c85828601610baf565b9250506020610cad85828601610baf565b9150509250929050565b610cc081610c3b565b8114610ccb57600080fd5b50565b600081359050610cdd81610cb7565b92915050565b600060208284031215610cf957610cf8610b89565b5b6000610d0784828501610cce565b91505092915050565b6000819050919050565b610d2b610d2682610b8e565b610d10565b82525050565b6000610d3d8289610d1a565b602082019150610d4d8288610d1a565b602082019150610d5d8287610d1a565b602082019150610d6d8286610d1a565b602082019150610d7d8285610d1a565b602082019150610d8d8284610d1a565b602082019150819050979650505050505050565b600082825260208201905092915050565b7f72616e646f6d536565642063616e277420626520300000000000000000000000600082015250565b6000610de8601583610da1565b9150610df382610db2565b602082019050919050565b60006020820190508181036000830152610e1781610ddb565b9050919050565b7f4e487b7100000000000000000000000000000000000000000000000000000000600052601160045260246000fd5b6000610e5882610b8e565b91507fffffffffffffffffffffffffffffffffffffffffffffffffffffffffffffffff8203610e8a57610e89610e1e565b5b600182019050919050565b610e9e81610b8e565b82525050565b6000602082019050610eb96000830184610e95565b92915050565b600063ffffffff82169050919050565b610ed881610ebf565b8114610ee357600080fd5b50565b600081519050610ef581610ecf565b92915050565b600060208284031215610f1157610f10610b89565b5b6000610f1f84828501610ee6565b91505092915050565b6000610f3382610ebf565b9150610f3e83610ebf565b9250828201905063ffffffff811115610f5a57610f59610e1e565b5b92915050565b7f4e487b7100000000000000000000000000000000000000000000000000000000600052601260045260246000fd5b6000610f9a82610ebf565b9150610fa583610ebf565b925082610fb557610fb4610f60565b5b828204905092915050565b6000610fcb82610b8e565b9150610fd683610b8e565b9250828202610fe481610b8e565b91508282048414831517610ffb57610ffa610e1e565b5b5092915050565b600060ff82169050919050565b600061101a82611002565b915061102583611002565b9250828201905060ff81111561103e5761103d610e1e565b5b92915050565b61104d81611002565b82525050565b60006040820190506110686000830185610e95565b6110756020830184611044565b9392505050565b61108581611002565b811461109057600080fd5b50565b6000815190506110a28161107c565b92915050565b6000602082840312156110be576110bd610b89565b5b60006110cc84828501611093565b91505092915050565b6000819050919050565b60006110fa6110f56110f084611002565b6110d5565b610b8e565b9050919050565b61110a816110df565b82525050565b60006060820190506111256000830186610e95565b6111326020830185611101565b61113f6040830184611044565b949350505050565b60008151905061115681610b98565b92915050565b60006020828403121561117257611171610b89565b5b600061118084828501611147565b91505092915050565b6000819050919050565b60006111ae6111a96111a484611189565b6110d5565b611002565b9050919050565b6111be81611193565b82525050565b60006060820190506111d96000830186610e95565b6111e66020830185611101565b6111f360408301846111b5565b949350505050565b600061120682611002565b915060ff820361121957611218610e1e565b5b600182019050919050565b61122d81610ebf565b82525050565b60006040820190506112486000830185610e95565b6112556020830184611224565b9392505050565b60006040820190506112716000830185610e95565b61127e60208301846111b5565b9392505050565b7f4f776e61626c653a206e6577206f776e657220697320746865207a65726f206160008201527f6464726573730000000000000000000000000000000000000000000000000000602082015250565b60006112e1602683610da1565b91506112ec82611285565b604082019050919050565b60006020820190508181036000830152611310816112d4565b9050919050565b7f4f776e61626c653a2063616c6c6572206973206e6f7420746865206f776e6572600082015250565b600061134d602083610da1565b915061135882611317565b602082019050919050565b6000602082019050818103600083015261137c81611340565b9050919050565b600061138e82610b8e565b915061139983610b8e565b92508282039050818111156113b1576113b0610e1e565b5b92915050565b60006113c282610b8e565b91506113cd83610b8e565b9250826113dd576113dc610f60565b5b828204905092915050565b60006113f48285610d1a565b6020820191506114048284610d1a565b6020820191508190509392505050565b600061141f82610b8e565b915061142a83610b8e565b92508261143a57611439610f60565b5b828206905092915050565b600061145082610b8e565b915061145b83610b8e565b925082820190508082111561147357611472610e1e565b5b9291505056fea2646970667358221220ace367f8c57830af43c632726d3f5ee2070eb0fcb3c254fbfc1aba79ee485c9c64736f6c63430008120033",
					"opcodes": "PUSH1 0x80 PUSH1 0x40 MSTORE PUSH1 0x1 DUP1 SSTORE PUSH1 0xA PUSH1 0x2 SSTORE PUSH1 0x5 PUSH1 0x3 SSTORE PUSH1 0xA PUSH1 0x4 SSTORE CALLVALUE DUP1 ISZERO PUSH2 0x23 JUMPI PUSH1 0x0 DUP1 REVERT JUMPDEST POP PUSH2 0x40 PUSH2 0x35 PUSH2 0x45 PUSH1 0x20 SHL PUSH1 0x20 SHR JUMP JUMPDEST PUSH2 0x4D PUSH1 0x20 SHL PUSH1 0x20 SHR JUMP JUMPDEST PUSH2 0x111 JUMP JUMPDEST PUSH1 0x0 CALLER SWAP1 POP SWAP1 JUMP JUMPDEST PUSH1 0x0 DUP1 PUSH1 0x0 SWAP1 SLOAD SWAP1 PUSH2 0x100 EXP SWAP1 DIV PUSH20 0xFFFFFFFFFFFFFFFFFFFFFFFFFFFFFFFFFFFFFFFF AND SWAP1 POP DUP2 PUSH1 0x0 DUP1 PUSH2 0x100 EXP DUP2 SLOAD DUP2 PUSH20 0xFFFFFFFFFFFFFFFFFFFFFFFFFFFFFFFFFFFFFFFF MUL NOT AND SWAP1 DUP4 PUSH20 0xFFFFFFFFFFFFFFFFFFFFFFFFFFFFFFFFFFFFFFFF AND MUL OR SWAP1 SSTORE POP DUP2 PUSH20 0xFFFFFFFFFFFFFFFFFFFFFFFFFFFFFFFFFFFFFFFF AND DUP2 PUSH20 0xFFFFFFFFFFFFFFFFFFFFFFFFFFFFFFFFFFFFFFFF AND PUSH32 0x8BE0079C531659141344CD1FD0A4F28419497F9722A3DAAFE3B4186F6B6457E0 PUSH1 0x40 MLOAD PUSH1 0x40 MLOAD DUP1 SWAP2 SUB SWAP1 LOG3 POP POP JUMP JUMPDEST PUSH2 0x14AF DUP1 PUSH2 0x120 PUSH1 0x0 CODECOPY PUSH1 0x0 RETURN INVALID PUSH1 0x80 PUSH1 0x40 MSTORE CALLVALUE DUP1 ISZERO PUSH2 0x10 JUMPI PUSH1 0x0 DUP1 REVERT JUMPDEST POP PUSH1 0x4 CALLDATASIZE LT PUSH2 0xB4 JUMPI PUSH1 0x0 CALLDATALOAD PUSH1 0xE0 SHR DUP1 PUSH4 0x878CF3A6 GT PUSH2 0x71 JUMPI DUP1 PUSH4 0x878CF3A6 EQ PUSH2 0x153 JUMPI DUP1 PUSH4 0x8DA5CB5B EQ PUSH2 0x171 JUMPI DUP1 PUSH4 0x91B66725 EQ PUSH2 0x18F JUMPI DUP1 PUSH4 0xE238B8C6 EQ PUSH2 0x1AB JUMPI DUP1 PUSH4 0xE4A13FB7 EQ PUSH2 0x1C9 JUMPI DUP1 PUSH4 0xF2FDE38B EQ PUSH2 0x1F9 JUMPI PUSH2 0xB4 JUMP JUMPDEST DUP1 PUSH4 0x2AFF378 EQ PUSH2 0xB9 JUMPI DUP1 PUSH4 0x54FEE6A EQ PUSH2 0xD5 JUMPI DUP1 PUSH4 0x1BB39F84 EQ PUSH2 0xF1 JUMPI DUP1 PUSH4 0x32099CC4 EQ PUSH2 0x10D JUMPI DUP1 PUSH4 0x615EBE28 EQ PUSH2 0x12B JUMPI DUP1 PUSH4 0x715018A6 EQ PUSH2 0x149 JUMPI JUMPDEST PUSH1 0x0 DUP1 REVERT JUMPDEST PUSH2 0xD3 PUSH1 0x4 DUP1 CALLDATASIZE SUB DUP2 ADD SWAP1 PUSH2 0xCE SWAP2 SWAP1 PUSH2 0xBC4 JUMP JUMPDEST PUSH2 0x215 JUMP JUMPDEST STOP JUMPDEST PUSH2 0xEF PUSH1 0x4 DUP1 CALLDATASIZE SUB DUP2 ADD SWAP1 PUSH2 0xEA SWAP2 SWAP1 PUSH2 0xBC4 JUMP JUMPDEST PUSH2 0x227 JUMP JUMPDEST STOP JUMPDEST PUSH2 0x10B PUSH1 0x4 DUP1 CALLDATASIZE SUB DUP2 ADD SWAP1 PUSH2 0x106 SWAP2 SWAP1 PUSH2 0xBC4 JUMP JUMPDEST PUSH2 0x239 JUMP JUMPDEST STOP JUMPDEST PUSH2 0x115 PUSH2 0x24B JUMP JUMPDEST PUSH1 0x40 MLOAD PUSH2 0x122 SWAP2 SWAP1 PUSH2 0xC00 JUMP JUMPDEST PUSH1 0x40 MLOAD DUP1 SWAP2 SUB SWAP1 RETURN JUMPDEST PUSH2 0x133 PUSH2 0x255 JUMP JUMPDEST PUSH1 0x40 MLOAD PUSH2 0x140 SWAP2 SWAP1 PUSH2 0xC00 JUMP JUMPDEST PUSH1 0x40 MLOAD DUP1 SWAP2 SUB SWAP1 RETURN JUMPDEST PUSH2 0x151 PUSH2 0x25F JUMP JUMPDEST STOP JUMPDEST PUSH2 0x15B PUSH2 0x273 JUMP JUMPDEST PUSH1 0x40 MLOAD PUSH2 0x168 SWAP2 SWAP1 PUSH2 0xC00 JUMP JUMPDEST PUSH1 0x40 MLOAD DUP1 SWAP2 SUB SWAP1 RETURN JUMPDEST PUSH2 0x179 PUSH2 0x27D JUMP JUMPDEST PUSH1 0x40 MLOAD PUSH2 0x186 SWAP2 SWAP1 PUSH2 0xC5C JUMP JUMPDEST PUSH1 0x40 MLOAD DUP1 SWAP2 SUB SWAP1 RETURN JUMPDEST PUSH2 0x1A9 PUSH1 0x4 DUP1 CALLDATASIZE SUB DUP2 ADD SWAP1 PUSH2 0x1A4 SWAP2 SWAP1 PUSH2 0xBC4 JUMP JUMPDEST PUSH2 0x2A6 JUMP JUMPDEST STOP JUMPDEST PUSH2 0x1B3 PUSH2 0x2B8 JUMP JUMPDEST PUSH1 0x40 MLOAD PUSH2 0x1C0 SWAP2 SWAP1 PUSH2 0xC00 JUMP JUMPDEST PUSH1 0x40 MLOAD DUP1 SWAP2 SUB SWAP1 RETURN JUMPDEST PUSH2 0x1E3 PUSH1 0x4 DUP1 CALLDATASIZE SUB DUP2 ADD SWAP1 PUSH2 0x1DE SWAP2 SWAP1 PUSH2 0xC77 JUMP JUMPDEST PUSH2 0x2C2 JUMP JUMPDEST PUSH1 0x40 MLOAD PUSH2 0x1F0 SWAP2 SWAP1 PUSH2 0xC00 JUMP JUMPDEST PUSH1 0x40 MLOAD DUP1 SWAP2 SUB SWAP1 RETURN JUMPDEST PUSH2 0x213 PUSH1 0x4 DUP1 CALLDATASIZE SUB DUP2 ADD SWAP1 PUSH2 0x20E SWAP2 SWAP1 PUSH2 0xCE3 JUMP JUMPDEST PUSH2 0x90A JUMP JUMPDEST STOP JUMPDEST PUSH2 0x21D PUSH2 0x98D JUMP JUMPDEST DUP1 PUSH1 0x1 DUP2 SWAP1 SSTORE POP POP JUMP JUMPDEST PUSH2 0x22F PUSH2 0x98D JUMP JUMPDEST DUP1 PUSH1 0x2 DUP2 SWAP1 SSTORE POP POP JUMP JUMPDEST PUSH2 0x241 PUSH2 0x98D JUMP JUMPDEST DUP1 PUSH1 0x4 DUP2 SWAP1 SSTORE POP POP JUMP JUMPDEST PUSH1 0x0 PUSH1 0x3 SLOAD SWAP1 POP SWAP1 JUMP JUMPDEST PUSH1 0x0 PUSH1 0x4 SLOAD SWAP1 POP SWAP1 JUMP JUMPDEST PUSH2 0x267 PUSH2 0x98D JUMP JUMPDEST PUSH2 0x271 PUSH1 0x0 PUSH2 0xA0B JUMP JUMPDEST JUMP JUMPDEST PUSH1 0x0 PUSH1 0x1 SLOAD SWAP1 POP SWAP1 JUMP JUMPDEST PUSH1 0x0 DUP1 PUSH1 0x0 SWAP1 SLOAD SWAP1 PUSH2 0x100 EXP SWAP1 DIV PUSH20 0xFFFFFFFFFFFFFFFFFFFFFFFFFFFFFFFFFFFFFFFF AND SWAP1 POP SWAP1 JUMP JUMPDEST PUSH2 0x2AE PUSH2 0x98D JUMP JUMPDEST DUP1 PUSH1 0x3 DUP2 SWAP1 SSTORE POP POP JUMP JUMPDEST PUSH1 0x0 PUSH1 0x2 SLOAD SWAP1 POP SWAP1 JUMP JUMPDEST PUSH1 0x0 DUP1 TIMESTAMP NUMBER PREVRANDAO DUP7 DUP7 PUSH1 0x1 SLOAD PUSH1 0x40 MLOAD PUSH1 0x20 ADD PUSH2 0x2E2 SWAP7 SWAP6 SWAP5 SWAP4 SWAP3 SWAP2 SWAP1 PUSH2 0xD31 JUMP JUMPDEST PUSH1 0x40 MLOAD PUSH1 0x20 DUP2 DUP4 SUB SUB DUP2 MSTORE SWAP1 PUSH1 0x40 MSTORE DUP1 MLOAD SWAP1 PUSH1 0x20 ADD KECCAK256 PUSH1 0x0 SHR SWAP1 POP PUSH1 0x0 DUP2 SUB PUSH2 0x340 JUMPI PUSH1 0x40 MLOAD PUSH32 0x8C379A000000000000000000000000000000000000000000000000000000000 DUP2 MSTORE PUSH1 0x4 ADD PUSH2 0x337 SWAP1 PUSH2 0xDFE JUMP JUMPDEST PUSH1 0x40 MLOAD DUP1 SWAP2 SUB SWAP1 REVERT JUMPDEST PUSH1 0x1 PUSH1 0x0 DUP2 SLOAD DUP1 SWAP3 SWAP2 SWAP1 PUSH2 0x353 SWAP1 PUSH2 0xE4D JUMP JUMPDEST SWAP2 SWAP1 POP SSTORE POP PUSH1 0x0 PUSH1 0x1 PUSH1 0x2 PUSH20 0x0 PUSH4 0x56E3DF97 DUP8 PUSH1 0x40 MLOAD DUP3 PUSH4 0xFFFFFFFF AND PUSH1 0xE0 SHL DUP2 MSTORE PUSH1 0x4 ADD PUSH2 0x395 SWAP2 SWAP1 PUSH2 0xEA4 JUMP JUMPDEST PUSH1 0x20 PUSH1 0x40 MLOAD DUP1 DUP4 SUB DUP2 DUP7 GAS DELEGATECALL ISZERO DUP1 ISZERO PUSH2 0x3B2 JUMPI RETURNDATASIZE PUSH1 0x0 DUP1 RETURNDATACOPY RETURNDATASIZE PUSH1 0x0 REVERT JUMPDEST POP POP POP POP PUSH1 0x40 MLOAD RETURNDATASIZE PUSH1 0x1F NOT PUSH1 0x1F DUP3 ADD AND DUP3 ADD DUP1 PUSH1 0x40 MSTORE POP DUP2 ADD SWAP1 PUSH2 0x3D6 SWAP2 SWAP1 PUSH2 0xEFB JUMP JUMPDEST PUSH20 0x0 PUSH4 0x56E3DF97 DUP10 PUSH1 0x40 MLOAD DUP3 PUSH4 0xFFFFFFFF AND PUSH1 0xE0 SHL DUP2 MSTORE PUSH1 0x4 ADD PUSH2 0x40D SWAP2 SWAP1 PUSH2 0xEA4 JUMP JUMPDEST PUSH1 0x20 PUSH1 0x40 MLOAD DUP1 DUP4 SUB DUP2 DUP7 GAS DELEGATECALL ISZERO DUP1 ISZERO PUSH2 0x42A JUMPI RETURNDATASIZE PUSH1 0x0 DUP1 RETURNDATACOPY RETURNDATASIZE PUSH1 0x0 REVERT JUMPDEST POP POP POP POP PUSH1 0x40 MLOAD RETURNDATASIZE PUSH1 0x1F NOT PUSH1 0x1F DUP3 ADD AND DUP3 ADD DUP1 PUSH1 0x40 MSTORE POP DUP2 ADD SWAP1 PUSH2 0x44E SWAP2 SWAP1 PUSH2 0xEFB JUMP JUMPDEST PUSH2 0x458 SWAP2 SWAP1 PUSH2 0xF28 JUMP JUMPDEST PUSH2 0x462 SWAP2 SWAP1 PUSH2 0xF8F JUMP JUMPDEST PUSH2 0x46C SWAP2 SWAP1 PUSH2 0xF28 JUMP JUMPDEST SWAP1 POP PUSH1 0x0 PUSH1 0x1 SWAP1 POP PUSH1 0x0 PUSH1 0x24 SWAP1 POP PUSH1 0x0 PUSH1 0x9 SWAP1 POP PUSH1 0x0 DUP1 PUSH1 0x0 JUMPDEST DUP4 PUSH1 0xFF AND DUP2 PUSH1 0xFF AND LT ISZERO PUSH2 0x800 JUMPI PUSH1 0x0 PUSH2 0x4AD DUP9 PUSH4 0xFFFFFFFF AND PUSH1 0x3 SLOAD PUSH1 0x4 SLOAD PUSH1 0x64 PUSH2 0xACF JUMP JUMPDEST SWAP1 POP PUSH1 0x0 PUSH2 0x4DA PUSH1 0x1 SLOAD DUP7 DUP1 PUSH2 0x4C2 SWAP1 PUSH2 0xE4D JUMP JUMPDEST SWAP8 POP PUSH1 0x0 PUSH1 0x64 PUSH1 0x4 SLOAD PUSH2 0x4D5 SWAP2 SWAP1 PUSH2 0xFC0 JUMP JUMPDEST PUSH2 0xB25 JUMP JUMPDEST DUP3 LT SWAP1 POP PUSH1 0x0 PUSH1 0x1 SWAP1 POP PUSH2 0x500 PUSH1 0x1 SLOAD DUP8 DUP1 PUSH2 0x4F5 SWAP1 PUSH2 0xE4D JUMP JUMPDEST SWAP9 POP PUSH1 0x0 PUSH1 0x64 PUSH2 0xB25 JUMP JUMPDEST PUSH1 0x2 SLOAD LT ISZERO PUSH2 0x53F JUMPI PUSH1 0xFF PUSH2 0x537 PUSH1 0x1 SLOAD DUP9 DUP1 PUSH2 0x51C SWAP1 PUSH2 0xE4D JUMP JUMPDEST SWAP10 POP DUP13 PUSH1 0xFF AND PUSH1 0x1 DUP14 PUSH2 0x52F SWAP2 SWAP1 PUSH2 0x100F JUMP JUMPDEST PUSH1 0xFF AND PUSH2 0xB25 JUMP JUMPDEST AND SWAP1 POP PUSH2 0x661 JUMP JUMPDEST PUSH1 0x32 PUSH2 0x55D PUSH1 0x1 SLOAD DUP9 DUP1 PUSH2 0x552 SWAP1 PUSH2 0xE4D JUMP JUMPDEST SWAP10 POP PUSH1 0x0 PUSH1 0x64 PUSH2 0xB25 JUMP JUMPDEST LT PUSH2 0x5E3 JUMPI PUSH20 0x0 PUSH4 0x5D2029F1 DUP15 DUP7 PUSH1 0x40 MLOAD DUP4 PUSH4 0xFFFFFFFF AND PUSH1 0xE0 SHL DUP2 MSTORE PUSH1 0x4 ADD PUSH2 0x59B SWAP3 SWAP2 SWAP1 PUSH2 0x1053 JUMP JUMPDEST PUSH1 0x20 PUSH1 0x40 MLOAD DUP1 DUP4 SUB DUP2 DUP7 GAS DELEGATECALL ISZERO DUP1 ISZERO PUSH2 0x5B8 JUMPI RETURNDATASIZE PUSH1 0x0 DUP1 RETURNDATACOPY RETURNDATASIZE PUSH1 0x0 REVERT JUMPDEST POP POP POP POP PUSH1 0x40 MLOAD RETURNDATASIZE PUSH1 0x1F NOT PUSH1 0x1F DUP3 ADD AND DUP3 ADD DUP1 PUSH1 0x40 MSTORE POP DUP2 ADD SWAP1 PUSH2 0x5DC SWAP2 SWAP1 PUSH2 0x10A8 JUMP JUMPDEST SWAP1 POP PUSH2 0x660 JUMP JUMPDEST PUSH20 0x0 PUSH4 0x5D2029F1 DUP16 DUP7 PUSH1 0x40 MLOAD DUP4 PUSH4 0xFFFFFFFF AND PUSH1 0xE0 SHL DUP2 MSTORE PUSH1 0x4 ADD PUSH2 0x61C SWAP3 SWAP2 SWAP1 PUSH2 0x1053 JUMP JUMPDEST PUSH1 0x20 PUSH1 0x40 MLOAD DUP1 DUP4 SUB DUP2 DUP7 GAS DELEGATECALL ISZERO DUP1 ISZERO PUSH2 0x639 JUMPI RETURNDATASIZE PUSH1 0x0 DUP1 RETURNDATACOPY RETURNDATASIZE PUSH1 0x0 REVERT JUMPDEST POP POP POP POP PUSH1 0x40 MLOAD RETURNDATASIZE PUSH1 0x1F NOT PUSH1 0x1F DUP3 ADD AND DUP3 ADD DUP1 PUSH1 0x40 MSTORE POP DUP2 ADD SWAP1 PUSH2 0x65D SWAP2 SWAP1 PUSH2 0x10A8 JUMP JUMPDEST SWAP1 POP JUMPDEST JUMPDEST PUSH20 0x0 PUSH4 0x34A51D0F DUP7 DUP7 DUP5 PUSH1 0x40 MLOAD DUP5 PUSH4 0xFFFFFFFF AND PUSH1 0xE0 SHL DUP2 MSTORE PUSH1 0x4 ADD PUSH2 0x69C SWAP4 SWAP3 SWAP2 SWAP1 PUSH2 0x1110 JUMP JUMPDEST PUSH1 0x20 PUSH1 0x40 MLOAD DUP1 DUP4 SUB DUP2 DUP7 GAS DELEGATECALL ISZERO DUP1 ISZERO PUSH2 0x6B9 JUMPI RETURNDATASIZE PUSH1 0x0 DUP1 RETURNDATACOPY RETURNDATASIZE PUSH1 0x0 REVERT JUMPDEST POP POP POP POP PUSH1 0x40 MLOAD RETURNDATASIZE PUSH1 0x1F NOT PUSH1 0x1F DUP3 ADD AND DUP3 ADD DUP1 PUSH1 0x40 MSTORE POP DUP2 ADD SWAP1 PUSH2 0x6DD SWAP2 SWAP1 PUSH2 0x115C JUMP JUMPDEST SWAP5 POP PUSH20 0x0 PUSH4 0xE1B30AB7 DUP7 DUP7 PUSH1 0x1 PUSH1 0x40 MLOAD DUP5 PUSH4 0xFFFFFFFF AND PUSH1 0xE0 SHL DUP2 MSTORE PUSH1 0x4 ADD PUSH2 0x71B SWAP4 SWAP3 SWAP2 SWAP1 PUSH2 0x11C4 JUMP JUMPDEST PUSH1 0x20 PUSH1 0x40 MLOAD DUP1 DUP4 SUB DUP2 DUP7 GAS DELEGATECALL ISZERO DUP1 ISZERO PUSH2 0x738 JUMPI RETURNDATASIZE PUSH1 0x0 DUP1 RETURNDATACOPY RETURNDATASIZE PUSH1 0x0 REVERT JUMPDEST POP POP POP POP PUSH1 0x40 MLOAD RETURNDATASIZE PUSH1 0x1F NOT PUSH1 0x1F DUP3 ADD AND DUP3 ADD DUP1 PUSH1 0x40 MSTORE POP DUP2 ADD SWAP1 PUSH2 0x75C SWAP2 SWAP1 PUSH2 0x115C JUMP JUMPDEST SWAP5 POP PUSH20 0x0 PUSH4 0x55D6ED43 DUP7 DUP7 DUP6 PUSH2 0x786 JUMPI PUSH1 0x0 PUSH2 0x789 JUMP JUMPDEST PUSH1 0x1 JUMPDEST PUSH1 0x40 MLOAD DUP5 PUSH4 0xFFFFFFFF AND PUSH1 0xE0 SHL DUP2 MSTORE PUSH1 0x4 ADD PUSH2 0x7A7 SWAP4 SWAP3 SWAP2 SWAP1 PUSH2 0x1110 JUMP JUMPDEST PUSH1 0x20 PUSH1 0x40 MLOAD DUP1 DUP4 SUB DUP2 DUP7 GAS DELEGATECALL ISZERO DUP1 ISZERO PUSH2 0x7C4 JUMPI RETURNDATASIZE PUSH1 0x0 DUP1 RETURNDATACOPY RETURNDATASIZE PUSH1 0x0 REVERT JUMPDEST POP POP POP POP PUSH1 0x40 MLOAD RETURNDATASIZE PUSH1 0x1F NOT PUSH1 0x1F DUP3 ADD AND DUP3 ADD DUP1 PUSH1 0x40 MSTORE POP DUP2 ADD SWAP1 PUSH2 0x7E8 SWAP2 SWAP1 PUSH2 0x115C JUMP JUMPDEST SWAP5 POP POP POP POP DUP1 DUP1 PUSH2 0x7F8 SWAP1 PUSH2 0x11FB JUMP JUMPDEST SWAP2 POP POP PUSH2 0x486 JUMP JUMPDEST POP PUSH20 0x0 PUSH4 0x8DE97F4F DUP3 DUP9 PUSH1 0x40 MLOAD DUP4 PUSH4 0xFFFFFFFF AND PUSH1 0xE0 SHL DUP2 MSTORE PUSH1 0x4 ADD PUSH2 0x83A SWAP3 SWAP2 SWAP1 PUSH2 0x1233 JUMP JUMPDEST PUSH1 0x20 PUSH1 0x40 MLOAD DUP1 DUP4 SUB DUP2 DUP7 GAS DELEGATECALL ISZERO DUP1 ISZERO PUSH2 0x857 JUMPI RETURNDATASIZE PUSH1 0x0 DUP1 RETURNDATACOPY RETURNDATASIZE PUSH1 0x0 REVERT JUMPDEST POP POP POP POP PUSH1 0x40 MLOAD RETURNDATASIZE PUSH1 0x1F NOT PUSH1 0x1F DUP3 ADD AND DUP3 ADD DUP1 PUSH1 0x40 MSTORE POP DUP2 ADD SWAP1 PUSH2 0x87B SWAP2 SWAP1 PUSH2 0x115C JUMP JUMPDEST SWAP1 POP PUSH20 0x0 PUSH4 0xB52B6659 DUP3 PUSH1 0x1 PUSH1 0x40 MLOAD DUP4 PUSH4 0xFFFFFFFF AND PUSH1 0xE0 SHL DUP2 MSTORE PUSH1 0x4 ADD PUSH2 0x8B7 SWAP3 SWAP2 SWAP1 PUSH2 0x125C JUMP JUMPDEST PUSH1 0x20 PUSH1 0x40 MLOAD DUP1 DUP4 SUB DUP2 DUP7 GAS DELEGATECALL ISZERO DUP1 ISZERO PUSH2 0x8D4 JUMPI RETURNDATASIZE PUSH1 0x0 DUP1 RETURNDATACOPY RETURNDATASIZE PUSH1 0x0 REVERT JUMPDEST POP POP POP POP PUSH1 0x40 MLOAD RETURNDATASIZE PUSH1 0x1F NOT PUSH1 0x1F DUP3 ADD AND DUP3 ADD DUP1 PUSH1 0x40 MSTORE POP DUP2 ADD SWAP1 PUSH2 0x8F8 SWAP2 SWAP1 PUSH2 0x115C JUMP JUMPDEST SWAP1 POP DUP1 SWAP8 POP POP POP POP POP POP POP POP SWAP3 SWAP2 POP POP JUMP JUMPDEST PUSH2 0x912 PUSH2 0x98D JUMP JUMPDEST PUSH1 0x0 PUSH20 0xFFFFFFFFFFFFFFFFFFFFFFFFFFFFFFFFFFFFFFFF AND DUP2 PUSH20 0xFFFFFFFFFFFFFFFFFFFFFFFFFFFFFFFFFFFFFFFF AND SUB PUSH2 0x981 JUMPI PUSH1 0x40 MLOAD PUSH32 0x8C379A000000000000000000000000000000000000000000000000000000000 DUP2 MSTORE PUSH1 0x4 ADD PUSH2 0x978 SWAP1 PUSH2 0x12F7 JUMP JUMPDEST PUSH1 0x40 MLOAD DUP1 SWAP2 SUB SWAP1 REVERT JUMPDEST PUSH2 0x98A DUP2 PUSH2 0xA0B JUMP JUMPDEST POP JUMP JUMPDEST PUSH2 0x995 PUSH2 0xB81 JUMP JUMPDEST PUSH20 0xFFFFFFFFFFFFFFFFFFFFFFFFFFFFFFFFFFFFFFFF AND PUSH2 0x9B3 PUSH2 0x27D JUMP JUMPDEST PUSH20 0xFFFFFFFFFFFFFFFFFFFFFFFFFFFFFFFFFFFFFFFF AND EQ PUSH2 0xA09 JUMPI PUSH1 0x40 MLOAD PUSH32 0x8C379A000000000000000000000000000000000000000000000000000000000 DUP2 MSTORE PUSH1 0x4 ADD PUSH2 0xA00 SWAP1 PUSH2 0x1363 JUMP JUMPDEST PUSH1 0x40 MLOAD DUP1 SWAP2 SUB SWAP1 REVERT JUMPDEST JUMP JUMPDEST PUSH1 0x0 DUP1 PUSH1 0x0 SWAP1 SLOAD SWAP1 PUSH2 0x100 EXP SWAP1 DIV PUSH20 0xFFFFFFFFFFFFFFFFFFFFFFFFFFFFFFFFFFFFFFFF AND SWAP1 POP DUP2 PUSH1 0x0 DUP1 PUSH2 0x100 EXP DUP2 SLOAD DUP2 PUSH20 0xFFFFFFFFFFFFFFFFFFFFFFFFFFFFFFFFFFFFFFFF MUL NOT AND SWAP1 DUP4 PUSH20 0xFFFFFFFFFFFFFFFFFFFFFFFFFFFFFFFFFFFFFFFF AND MUL OR SWAP1 SSTORE POP DUP2 PUSH20 0xFFFFFFFFFFFFFFFFFFFFFFFFFFFFFFFFFFFFFFFF AND DUP2 PUSH20 0xFFFFFFFFFFFFFFFFFFFFFFFFFFFFFFFFFFFFFFFF AND PUSH32 0x8BE0079C531659141344CD1FD0A4F28419497F9722A3DAAFE3B4186F6B6457E0 PUSH1 0x40 MLOAD PUSH1 0x40 MLOAD DUP1 SWAP2 SUB SWAP1 LOG3 POP POP JUMP JUMPDEST PUSH1 0x0 DUP4 DUP6 GT PUSH2 0xAE1 JUMPI PUSH1 0x0 SWAP1 POP PUSH2 0xB1D JUMP JUMPDEST DUP3 DUP3 DUP6 PUSH2 0xAEE SWAP2 SWAP1 PUSH2 0xFC0 JUMP JUMPDEST DUP4 DUP8 PUSH2 0xAFA SWAP2 SWAP1 PUSH2 0xFC0 JUMP JUMPDEST PUSH2 0xB04 SWAP2 SWAP1 PUSH2 0x1383 JUMP JUMPDEST PUSH1 0x1 PUSH2 0xB10 SWAP2 SWAP1 PUSH2 0xFC0 JUMP JUMPDEST PUSH2 0xB1A SWAP2 SWAP1 PUSH2 0x13B7 JUMP JUMPDEST SWAP1 POP JUMPDEST SWAP5 SWAP4 POP POP POP POP JUMP JUMPDEST PUSH1 0x0 DUP3 DUP3 PUSH2 0xB33 SWAP2 SWAP1 PUSH2 0x1383 JUMP JUMPDEST DUP6 DUP6 PUSH1 0x40 MLOAD PUSH1 0x20 ADD PUSH2 0xB46 SWAP3 SWAP2 SWAP1 PUSH2 0x13E8 JUMP JUMPDEST PUSH1 0x40 MLOAD PUSH1 0x20 DUP2 DUP4 SUB SUB DUP2 MSTORE SWAP1 PUSH1 0x40 MSTORE DUP1 MLOAD SWAP1 PUSH1 0x20 ADD KECCAK256 PUSH1 0x0 SHR PUSH2 0xB69 SWAP2 SWAP1 PUSH2 0x1414 JUMP JUMPDEST SWAP1 POP DUP1 DUP4 PUSH2 0xB77 SWAP2 SWAP1 PUSH2 0x1445 JUMP JUMPDEST SWAP1 POP SWAP5 SWAP4 POP POP POP POP JUMP JUMPDEST PUSH1 0x0 CALLER SWAP1 POP SWAP1 JUMP JUMPDEST PUSH1 0x0 DUP1 REVERT JUMPDEST PUSH1 0x0 DUP2 SWAP1 POP SWAP2 SWAP1 POP JUMP JUMPDEST PUSH2 0xBA1 DUP2 PUSH2 0xB8E JUMP JUMPDEST DUP2 EQ PUSH2 0xBAC JUMPI PUSH1 0x0 DUP1 REVERT JUMPDEST POP JUMP JUMPDEST PUSH1 0x0 DUP2 CALLDATALOAD SWAP1 POP PUSH2 0xBBE DUP2 PUSH2 0xB98 JUMP JUMPDEST SWAP3 SWAP2 POP POP JUMP JUMPDEST PUSH1 0x0 PUSH1 0x20 DUP3 DUP5 SUB SLT ISZERO PUSH2 0xBDA JUMPI PUSH2 0xBD9 PUSH2 0xB89 JUMP JUMPDEST JUMPDEST PUSH1 0x0 PUSH2 0xBE8 DUP5 DUP3 DUP6 ADD PUSH2 0xBAF JUMP JUMPDEST SWAP2 POP POP SWAP3 SWAP2 POP POP JUMP JUMPDEST PUSH2 0xBFA DUP2 PUSH2 0xB8E JUMP JUMPDEST DUP3 MSTORE POP POP JUMP JUMPDEST PUSH1 0x0 PUSH1 0x20 DUP3 ADD SWAP1 POP PUSH2 0xC15 PUSH1 0x0 DUP4 ADD DUP5 PUSH2 0xBF1 JUMP JUMPDEST SWAP3 SWAP2 POP POP JUMP JUMPDEST PUSH1 0x0 PUSH20 0xFFFFFFFFFFFFFFFFFFFFFFFFFFFFFFFFFFFFFFFF DUP3 AND SWAP1 POP SWAP2 SWAP1 POP JUMP JUMPDEST PUSH1 0x0 PUSH2 0xC46 DUP3 PUSH2 0xC1B JUMP JUMPDEST SWAP1 POP SWAP2 SWAP1 POP JUMP JUMPDEST PUSH2 0xC56 DUP2 PUSH2 0xC3B JUMP JUMPDEST DUP3 MSTORE POP POP JUMP JUMPDEST PUSH1 0x0 PUSH1 0x20 DUP3 ADD SWAP1 POP PUSH2 0xC71 PUSH1 0x0 DUP4 ADD DUP5 PUSH2 0xC4D JUMP JUMPDEST SWAP3 SWAP2 POP POP JUMP JUMPDEST PUSH1 0x0 DUP1 PUSH1 0x40 DUP4 DUP6 SUB SLT ISZERO PUSH2 0xC8E JUMPI PUSH2 0xC8D PUSH2 0xB89 JUMP JUMPDEST JUMPDEST PUSH1 0x0 PUSH2 0xC9C DUP6 DUP3 DUP7 ADD PUSH2 0xBAF JUMP JUMPDEST SWAP3 POP POP PUSH1 0x20 PUSH2 0xCAD DUP6 DUP3 DUP7 ADD PUSH2 0xBAF JUMP JUMPDEST SWAP2 POP POP SWAP3 POP SWAP3 SWAP1 POP JUMP JUMPDEST PUSH2 0xCC0 DUP2 PUSH2 0xC3B JUMP JUMPDEST DUP2 EQ PUSH2 0xCCB JUMPI PUSH1 0x0 DUP1 REVERT JUMPDEST POP JUMP JUMPDEST PUSH1 0x0 DUP2 CALLDATALOAD SWAP1 POP PUSH2 0xCDD DUP2 PUSH2 0xCB7 JUMP JUMPDEST SWAP3 SWAP2 POP POP JUMP JUMPDEST PUSH1 0x0 PUSH1 0x20 DUP3 DUP5 SUB SLT ISZERO PUSH2 0xCF9 JUMPI PUSH2 0xCF8 PUSH2 0xB89 JUMP JUMPDEST JUMPDEST PUSH1 0x0 PUSH2 0xD07 DUP5 DUP3 DUP6 ADD PUSH2 0xCCE JUMP JUMPDEST SWAP2 POP POP SWAP3 SWAP2 POP POP JUMP JUMPDEST PUSH1 0x0 DUP2 SWAP1 POP SWAP2 SWAP1 POP JUMP JUMPDEST PUSH2 0xD2B PUSH2 0xD26 DUP3 PUSH2 0xB8E JUMP JUMPDEST PUSH2 0xD10 JUMP JUMPDEST DUP3 MSTORE POP POP JUMP JUMPDEST PUSH1 0x0 PUSH2 0xD3D DUP3 DUP10 PUSH2 0xD1A JUMP JUMPDEST PUSH1 0x20 DUP3 ADD SWAP2 POP PUSH2 0xD4D DUP3 DUP9 PUSH2 0xD1A JUMP JUMPDEST PUSH1 0x20 DUP3 ADD SWAP2 POP PUSH2 0xD5D DUP3 DUP8 PUSH2 0xD1A JUMP JUMPDEST PUSH1 0x20 DUP3 ADD SWAP2 POP PUSH2 0xD6D DUP3 DUP7 PUSH2 0xD1A JUMP JUMPDEST PUSH1 0x20 DUP3 ADD SWAP2 POP PUSH2 0xD7D DUP3 DUP6 PUSH2 0xD1A JUMP JUMPDEST PUSH1 0x20 DUP3 ADD SWAP2 POP PUSH2 0xD8D DUP3 DUP5 PUSH2 0xD1A JUMP JUMPDEST PUSH1 0x20 DUP3 ADD SWAP2 POP DUP2 SWAP1 POP SWAP8 SWAP7 POP POP POP POP POP POP POP JUMP JUMPDEST PUSH1 0x0 DUP3 DUP3 MSTORE PUSH1 0x20 DUP3 ADD SWAP1 POP SWAP3 SWAP2 POP POP JUMP JUMPDEST PUSH32 0x72616E646F6D536565642063616E277420626520300000000000000000000000 PUSH1 0x0 DUP3 ADD MSTORE POP JUMP JUMPDEST PUSH1 0x0 PUSH2 0xDE8 PUSH1 0x15 DUP4 PUSH2 0xDA1 JUMP JUMPDEST SWAP2 POP PUSH2 0xDF3 DUP3 PUSH2 0xDB2 JUMP JUMPDEST PUSH1 0x20 DUP3 ADD SWAP1 POP SWAP2 SWAP1 POP JUMP JUMPDEST PUSH1 0x0 PUSH1 0x20 DUP3 ADD SWAP1 POP DUP2 DUP2 SUB PUSH1 0x0 DUP4 ADD MSTORE PUSH2 0xE17 DUP2 PUSH2 0xDDB JUMP JUMPDEST SWAP1 POP SWAP2 SWAP1 POP JUMP JUMPDEST PUSH32 0x4E487B7100000000000000000000000000000000000000000000000000000000 PUSH1 0x0 MSTORE PUSH1 0x11 PUSH1 0x4 MSTORE PUSH1 0x24 PUSH1 0x0 REVERT JUMPDEST PUSH1 0x0 PUSH2 0xE58 DUP3 PUSH2 0xB8E JUMP JUMPDEST SWAP2 POP PUSH32 0xFFFFFFFFFFFFFFFFFFFFFFFFFFFFFFFFFFFFFFFFFFFFFFFFFFFFFFFFFFFFFFFF DUP3 SUB PUSH2 0xE8A JUMPI PUSH2 0xE89 PUSH2 0xE1E JUMP JUMPDEST JUMPDEST PUSH1 0x1 DUP3 ADD SWAP1 POP SWAP2 SWAP1 POP JUMP JUMPDEST PUSH2 0xE9E DUP2 PUSH2 0xB8E JUMP JUMPDEST DUP3 MSTORE POP POP JUMP JUMPDEST PUSH1 0x0 PUSH1 0x20 DUP3 ADD SWAP1 POP PUSH2 0xEB9 PUSH1 0x0 DUP4 ADD DUP5 PUSH2 0xE95 JUMP JUMPDEST SWAP3 SWAP2 POP POP JUMP JUMPDEST PUSH1 0x0 PUSH4 0xFFFFFFFF DUP3 AND SWAP1 POP SWAP2 SWAP1 POP JUMP JUMPDEST PUSH2 0xED8 DUP2 PUSH2 0xEBF JUMP JUMPDEST DUP2 EQ PUSH2 0xEE3 JUMPI PUSH1 0x0 DUP1 REVERT JUMPDEST POP JUMP JUMPDEST PUSH1 0x0 DUP2 MLOAD SWAP1 POP PUSH2 0xEF5 DUP2 PUSH2 0xECF JUMP JUMPDEST SWAP3 SWAP2 POP POP JUMP JUMPDEST PUSH1 0x0 PUSH1 0x20 DUP3 DUP5 SUB SLT ISZERO PUSH2 0xF11 JUMPI PUSH2 0xF10 PUSH2 0xB89 JUMP JUMPDEST JUMPDEST PUSH1 0x0 PUSH2 0xF1F DUP5 DUP3 DUP6 ADD PUSH2 0xEE6 JUMP JUMPDEST SWAP2 POP POP SWAP3 SWAP2 POP POP JUMP JUMPDEST PUSH1 0x0 PUSH2 0xF33 DUP3 PUSH2 0xEBF JUMP JUMPDEST SWAP2 POP PUSH2 0xF3E DUP4 PUSH2 0xEBF JUMP JUMPDEST SWAP3 POP DUP3 DUP3 ADD SWAP1 POP PUSH4 0xFFFFFFFF DUP2 GT ISZERO PUSH2 0xF5A JUMPI PUSH2 0xF59 PUSH2 0xE1E JUMP JUMPDEST JUMPDEST SWAP3 SWAP2 POP POP JUMP JUMPDEST PUSH32 0x4E487B7100000000000000000000000000000000000000000000000000000000 PUSH1 0x0 MSTORE PUSH1 0x12 PUSH1 0x4 MSTORE PUSH1 0x24 PUSH1 0x0 REVERT JUMPDEST PUSH1 0x0 PUSH2 0xF9A DUP3 PUSH2 0xEBF JUMP JUMPDEST SWAP2 POP PUSH2 0xFA5 DUP4 PUSH2 0xEBF JUMP JUMPDEST SWAP3 POP DUP3 PUSH2 0xFB5 JUMPI PUSH2 0xFB4 PUSH2 0xF60 JUMP JUMPDEST JUMPDEST DUP3 DUP3 DIV SWAP1 POP SWAP3 SWAP2 POP POP JUMP JUMPDEST PUSH1 0x0 PUSH2 0xFCB DUP3 PUSH2 0xB8E JUMP JUMPDEST SWAP2 POP PUSH2 0xFD6 DUP4 PUSH2 0xB8E JUMP JUMPDEST SWAP3 POP DUP3 DUP3 MUL PUSH2 0xFE4 DUP2 PUSH2 0xB8E JUMP JUMPDEST SWAP2 POP DUP3 DUP3 DIV DUP5 EQ DUP4 ISZERO OR PUSH2 0xFFB JUMPI PUSH2 0xFFA PUSH2 0xE1E JUMP JUMPDEST JUMPDEST POP SWAP3 SWAP2 POP POP JUMP JUMPDEST PUSH1 0x0 PUSH1 0xFF DUP3 AND SWAP1 POP SWAP2 SWAP1 POP JUMP JUMPDEST PUSH1 0x0 PUSH2 0x101A DUP3 PUSH2 0x1002 JUMP JUMPDEST SWAP2 POP PUSH2 0x1025 DUP4 PUSH2 0x1002 JUMP JUMPDEST SWAP3 POP DUP3 DUP3 ADD SWAP1 POP PUSH1 0xFF DUP2 GT ISZERO PUSH2 0x103E JUMPI PUSH2 0x103D PUSH2 0xE1E JUMP JUMPDEST JUMPDEST SWAP3 SWAP2 POP POP JUMP JUMPDEST PUSH2 0x104D DUP2 PUSH2 0x1002 JUMP JUMPDEST DUP3 MSTORE POP POP JUMP JUMPDEST PUSH1 0x0 PUSH1 0x40 DUP3 ADD SWAP1 POP PUSH2 0x1068 PUSH1 0x0 DUP4 ADD DUP6 PUSH2 0xE95 JUMP JUMPDEST PUSH2 0x1075 PUSH1 0x20 DUP4 ADD DUP5 PUSH2 0x1044 JUMP JUMPDEST SWAP4 SWAP3 POP POP POP JUMP JUMPDEST PUSH2 0x1085 DUP2 PUSH2 0x1002 JUMP JUMPDEST DUP2 EQ PUSH2 0x1090 JUMPI PUSH1 0x0 DUP1 REVERT JUMPDEST POP JUMP JUMPDEST PUSH1 0x0 DUP2 MLOAD SWAP1 POP PUSH2 0x10A2 DUP2 PUSH2 0x107C JUMP JUMPDEST SWAP3 SWAP2 POP POP JUMP JUMPDEST PUSH1 0x0 PUSH1 0x20 DUP3 DUP5 SUB SLT ISZERO PUSH2 0x10BE JUMPI PUSH2 0x10BD PUSH2 0xB89 JUMP JUMPDEST JUMPDEST PUSH1 0x0 PUSH2 0x10CC DUP5 DUP3 DUP6 ADD PUSH2 0x1093 JUMP JUMPDEST SWAP2 POP POP SWAP3 SWAP2 POP POP JUMP JUMPDEST PUSH1 0x0 DUP2 SWAP1 POP SWAP2 SWAP1 POP JUMP JUMPDEST PUSH1 0x0 PUSH2 0x10FA PUSH2 0x10F5 PUSH2 0x10F0 DUP5 PUSH2 0x1002 JUMP JUMPDEST PUSH2 0x10D5 JUMP JUMPDEST PUSH2 0xB8E JUMP JUMPDEST SWAP1 POP SWAP2 SWAP1 POP JUMP JUMPDEST PUSH2 0x110A DUP2 PUSH2 0x10DF JUMP JUMPDEST DUP3 MSTORE POP POP JUMP JUMPDEST PUSH1 0x0 PUSH1 0x60 DUP3 ADD SWAP1 POP PUSH2 0x1125 PUSH1 0x0 DUP4 ADD DUP7 PUSH2 0xE95 JUMP JUMPDEST PUSH2 0x1132 PUSH1 0x20 DUP4 ADD DUP6 PUSH2 0x1101 JUMP JUMPDEST PUSH2 0x113F PUSH1 0x40 DUP4 ADD DUP5 PUSH2 0x1044 JUMP JUMPDEST SWAP5 SWAP4 POP POP POP POP JUMP JUMPDEST PUSH1 0x0 DUP2 MLOAD SWAP1 POP PUSH2 0x1156 DUP2 PUSH2 0xB98 JUMP JUMPDEST SWAP3 SWAP2 POP POP JUMP JUMPDEST PUSH1 0x0 PUSH1 0x20 DUP3 DUP5 SUB SLT ISZERO PUSH2 0x1172 JUMPI PUSH2 0x1171 PUSH2 0xB89 JUMP JUMPDEST JUMPDEST PUSH1 0x0 PUSH2 0x1180 DUP5 DUP3 DUP6 ADD PUSH2 0x1147 JUMP JUMPDEST SWAP2 POP POP SWAP3 SWAP2 POP POP JUMP JUMPDEST PUSH1 0x0 DUP2 SWAP1 POP SWAP2 SWAP1 POP JUMP JUMPDEST PUSH1 0x0 PUSH2 0x11AE PUSH2 0x11A9 PUSH2 0x11A4 DUP5 PUSH2 0x1189 JUMP JUMPDEST PUSH2 0x10D5 JUMP JUMPDEST PUSH2 0x1002 JUMP JUMPDEST SWAP1 POP SWAP2 SWAP1 POP JUMP JUMPDEST PUSH2 0x11BE DUP2 PUSH2 0x1193 JUMP JUMPDEST DUP3 MSTORE POP POP JUMP JUMPDEST PUSH1 0x0 PUSH1 0x60 DUP3 ADD SWAP1 POP PUSH2 0x11D9 PUSH1 0x0 DUP4 ADD DUP7 PUSH2 0xE95 JUMP JUMPDEST PUSH2 0x11E6 PUSH1 0x20 DUP4 ADD DUP6 PUSH2 0x1101 JUMP JUMPDEST PUSH2 0x11F3 PUSH1 0x40 DUP4 ADD DUP5 PUSH2 0x11B5 JUMP JUMPDEST SWAP5 SWAP4 POP POP POP POP JUMP JUMPDEST PUSH1 0x0 PUSH2 0x1206 DUP3 PUSH2 0x1002 JUMP JUMPDEST SWAP2 POP PUSH1 0xFF DUP3 SUB PUSH2 0x1219 JUMPI PUSH2 0x1218 PUSH2 0xE1E JUMP JUMPDEST JUMPDEST PUSH1 0x1 DUP3 ADD SWAP1 POP SWAP2 SWAP1 POP JUMP JUMPDEST PUSH2 0x122D DUP2 PUSH2 0xEBF JUMP JUMPDEST DUP3 MSTORE POP POP JUMP JUMPDEST PUSH1 0x0 PUSH1 0x40 DUP3 ADD SWAP1 POP PUSH2 0x1248 PUSH1 0x0 DUP4 ADD DUP6 PUSH2 0xE95 JUMP JUMPDEST PUSH2 0x1255 PUSH1 0x20 DUP4 ADD DUP5 PUSH2 0x1224 JUMP JUMPDEST SWAP4 SWAP3 POP POP POP JUMP JUMPDEST PUSH1 0x0 PUSH1 0x40 DUP3 ADD SWAP1 POP PUSH2 0x1271 PUSH1 0x0 DUP4 ADD DUP6 PUSH2 0xE95 JUMP JUMPDEST PUSH2 0x127E PUSH1 0x20 DUP4 ADD DUP5 PUSH2 0x11B5 JUMP JUMPDEST SWAP4 SWAP3 POP POP POP JUMP JUMPDEST PUSH32 0x4F776E61626C653A206E6577206F776E657220697320746865207A65726F2061 PUSH1 0x0 DUP3 ADD MSTORE PUSH32 0x6464726573730000000000000000000000000000000000000000000000000000 PUSH1 0x20 DUP3 ADD MSTORE POP JUMP JUMPDEST PUSH1 0x0 PUSH2 0x12E1 PUSH1 0x26 DUP4 PUSH2 0xDA1 JUMP JUMPDEST SWAP2 POP PUSH2 0x12EC DUP3 PUSH2 0x1285 JUMP JUMPDEST PUSH1 0x40 DUP3 ADD SWAP1 POP SWAP2 SWAP1 POP JUMP JUMPDEST PUSH1 0x0 PUSH1 0x20 DUP3 ADD SWAP1 POP DUP2 DUP2 SUB PUSH1 0x0 DUP4 ADD MSTORE PUSH2 0x1310 DUP2 PUSH2 0x12D4 JUMP JUMPDEST SWAP1 POP SWAP2 SWAP1 POP JUMP JUMPDEST PUSH32 0x4F776E61626C653A2063616C6C6572206973206E6F7420746865206F776E6572 PUSH1 0x0 DUP3 ADD MSTORE POP JUMP JUMPDEST PUSH1 0x0 PUSH2 0x134D PUSH1 0x20 DUP4 PUSH2 0xDA1 JUMP JUMPDEST SWAP2 POP PUSH2 0x1358 DUP3 PUSH2 0x1317 JUMP JUMPDEST PUSH1 0x20 DUP3 ADD SWAP1 POP SWAP2 SWAP1 POP JUMP JUMPDEST PUSH1 0x0 PUSH1 0x20 DUP3 ADD SWAP1 POP DUP2 DUP2 SUB PUSH1 0x0 DUP4 ADD MSTORE PUSH2 0x137C DUP2 PUSH2 0x1340 JUMP JUMPDEST SWAP1 POP SWAP2 SWAP1 POP JUMP JUMPDEST PUSH1 0x0 PUSH2 0x138E DUP3 PUSH2 0xB8E JUMP JUMPDEST SWAP2 POP PUSH2 0x1399 DUP4 PUSH2 0xB8E JUMP JUMPDEST SWAP3 POP DUP3 DUP3 SUB SWAP1 POP DUP2 DUP2 GT ISZERO PUSH2 0x13B1 JUMPI PUSH2 0x13B0 PUSH2 0xE1E JUMP JUMPDEST JUMPDEST SWAP3 SWAP2 POP POP JUMP JUMPDEST PUSH1 0x0 PUSH2 0x13C2 DUP3 PUSH2 0xB8E JUMP JUMPDEST SWAP2 POP PUSH2 0x13CD DUP4 PUSH2 0xB8E JUMP JUMPDEST SWAP3 POP DUP3 PUSH2 0x13DD JUMPI PUSH2 0x13DC PUSH2 0xF60 JUMP JUMPDEST JUMPDEST DUP3 DUP3 DIV SWAP1 POP SWAP3 SWAP2 POP POP JUMP JUMPDEST PUSH1 0x0 PUSH2 0x13F4 DUP3 DUP6 PUSH2 0xD1A JUMP JUMPDEST PUSH1 0x20 DUP3 ADD SWAP2 POP PUSH2 0x1404 DUP3 DUP5 PUSH2 0xD1A JUMP JUMPDEST PUSH1 0x20 DUP3 ADD SWAP2 POP DUP2 SWAP1 POP SWAP4 SWAP3 POP POP POP JUMP JUMPDEST PUSH1 0x0 PUSH2 0x141F DUP3 PUSH2 0xB8E JUMP JUMPDEST SWAP2 POP PUSH2 0x142A DUP4 PUSH2 0xB8E JUMP JUMPDEST SWAP3 POP DUP3 PUSH2 0x143A JUMPI PUSH2 0x1439 PUSH2 0xF60 JUMP JUMPDEST JUMPDEST DUP3 DUP3 MOD SWAP1 POP SWAP3 SWAP2 POP POP JUMP JUMPDEST PUSH1 0x0 PUSH2 0x1450 DUP3 PUSH2 0xB8E JUMP JUMPDEST SWAP2 POP PUSH2 0x145B DUP4 PUSH2 0xB8E JUMP JUMPDEST SWAP3 POP DUP3 DUP3 ADD SWAP1 POP DUP1 DUP3 GT ISZERO PUSH2 0x1473 JUMPI PUSH2 0x1472 PUSH2 0xE1E JUMP JUMPDEST JUMPDEST SWAP3 SWAP2 POP POP JUMP INVALID LOG2 PUSH5 0x6970667358 0x22 SLT KECCAK256 0xAC 0xE3 PUSH8 0xF8C57830AF43C632 PUSH19 0x6D3F5EE2070EB0FCB3C254FBFC1ABA79EE485C SWAP13 PUSH5 0x736F6C6343 STOP ADDMOD SLT STOP CALLER "
				},
				"gasEstimates": {
					"creation": {
						"codeDepositCost": "1059000",
						"executionCost": "infinite",
						"totalCost": "infinite"
					},
					"external": {
						"breading(uint256,uint256)": "infinite",
						"getGlobalSeed()": "2437",
						"getMaxArcane()": "2526",
						"getMinArcane()": "2504",
						"getRandomPercent()": "2503",
						"owner()": "2544",
						"renounceOwnership()": "30509",
						"setGlobalSeed(uint256)": "24785",
						"setMaxArcane(uint256)": "24829",
						"setMinArcane(uint256)": "24828",
						"setRandomPercent(uint256)": "24807",
						"transferOwnership(address)": "30854"
					},
					"internal": {
						"getArcanePercent(uint256,uint256,uint256,uint256)": "infinite",
						"random(uint256,uint256,uint256,uint256)": "infinite"
					}
				},
				"methodIdentifiers": {
					"breading(uint256,uint256)": "e4a13fb7",
					"getGlobalSeed()": "878cf3a6",
					"getMaxArcane()": "615ebe28",
					"getMinArcane()": "32099cc4",
					"getRandomPercent()": "e238b8c6",
					"owner()": "8da5cb5b",
					"renounceOwnership()": "715018a6",
					"setGlobalSeed(uint256)": "02aff378",
					"setMaxArcane(uint256)": "1bb39f84",
					"setMinArcane(uint256)": "91b66725",
					"setRandomPercent(uint256)": "054fee6a",
					"transferOwnership(address)": "f2fde38b"
				}
			},
			"storageLayout": {
				"storage": [
					{
						"astId": 7,
						"contract": "contracts/breedings/Breeding.sol:Breading",
						"label": "_owner",
						"offset": 0,
						"slot": "0",
						"type": "t_address"
					},
					{
						"astId": 149,
						"contract": "contracts/breedings/Breeding.sol:Breading",
						"label": "_globalSeed",
						"offset": 0,
						"slot": "1",
						"type": "t_uint256"
					},
					{
						"astId": 152,
						"contract": "contracts/breedings/Breeding.sol:Breading",
						"label": "_randomPercent",
						"offset": 0,
						"slot": "2",
						"type": "t_uint256"
					},
					{
						"astId": 155,
						"contract": "contracts/breedings/Breeding.sol:Breading",
						"label": "_minArcane",
						"offset": 0,
						"slot": "3",
						"type": "t_uint256"
					},
					{
						"astId": 158,
						"contract": "contracts/breedings/Breeding.sol:Breading",
						"label": "_maxArcane",
						"offset": 0,
						"slot": "4",
						"type": "t_uint256"
					}
				],
				"types": {
					"t_address": {
						"encoding": "inplace",
						"label": "address",
						"numberOfBytes": "20"
					},
					"t_uint256": {
						"encoding": "inplace",
						"label": "uint256",
						"numberOfBytes": "32"
					}
				}
			},
			"userdoc": {
				"kind": "user",
				"methods": {},
				"version": 1
			}
		}
	}
}