{
	"contracts/common/GenesUtil.sol": {
		"GenesUtil": {
			"abi": [
				{
					"inputs": [
						{
							"internalType": "uint256",
							"name": "genes",
							"type": "uint256"
						},
						{
							"internalType": "uint8",
							"name": "partId",
							"type": "uint8"
						}
					],
					"name": "getArcane",
					"outputs": [
						{
							"internalType": "uint8",
							"name": "",
							"type": "uint8"
						}
					],
					"stateMutability": "pure",
					"type": "function"
				},
				{
					"inputs": [
						{
							"internalType": "uint256",
							"name": "genes",
							"type": "uint256"
						}
					],
					"name": "getCharges",
					"outputs": [
						{
							"internalType": "uint8",
							"name": "",
							"type": "uint8"
						}
					],
					"stateMutability": "pure",
					"type": "function"
				},
				{
					"inputs": [
						{
							"internalType": "uint256",
							"name": "genes",
							"type": "uint256"
						}
					],
					"name": "getGeneration",
					"outputs": [
						{
							"internalType": "uint32",
							"name": "",
							"type": "uint32"
						}
					],
					"stateMutability": "pure",
					"type": "function"
				},
				{
					"inputs": [
						{
							"internalType": "uint256",
							"name": "genes",
							"type": "uint256"
						},
						{
							"internalType": "uint8",
							"name": "partId",
							"type": "uint8"
						}
					],
					"name": "getId",
					"outputs": [
						{
							"internalType": "uint8",
							"name": "",
							"type": "uint8"
						}
					],
					"stateMutability": "pure",
					"type": "function"
				},
				{
					"inputs": [
						{
							"internalType": "uint256",
							"name": "genes",
							"type": "uint256"
						},
						{
							"internalType": "uint8",
							"name": "partId",
							"type": "uint8"
						}
					],
					"name": "getLevel",
					"outputs": [
						{
							"internalType": "uint8",
							"name": "",
							"type": "uint8"
						}
					],
					"stateMutability": "pure",
					"type": "function"
				},
				{
					"inputs": [
						{
							"internalType": "uint256",
							"name": "genes",
							"type": "uint256"
						},
						{
							"internalType": "uint256",
							"name": "partId",
							"type": "uint256"
						},
						{
							"internalType": "uint8",
							"name": "arcane",
							"type": "uint8"
						}
					],
					"name": "setArcane",
					"outputs": [
						{
							"internalType": "uint256",
							"name": "",
							"type": "uint256"
						}
					],
					"stateMutability": "pure",
					"type": "function"
				},
				{
					"inputs": [
						{
							"internalType": "uint256",
							"name": "genes",
							"type": "uint256"
						},
						{
							"internalType": "uint8",
							"name": "charges",
							"type": "uint8"
						}
					],
					"name": "setCharges",
					"outputs": [
						{
							"internalType": "uint256",
							"name": "",
							"type": "uint256"
						}
					],
					"stateMutability": "pure",
					"type": "function"
				},
				{
					"inputs": [
						{
							"internalType": "uint256",
							"name": "genes",
							"type": "uint256"
						},
						{
							"internalType": "uint32",
							"name": "generation",
							"type": "uint32"
						}
					],
					"name": "setGeneration",
					"outputs": [
						{
							"internalType": "uint256",
							"name": "",
							"type": "uint256"
						}
					],
					"stateMutability": "pure",
					"type": "function"
				},
				{
					"inputs": [
						{
							"internalType": "uint256",
							"name": "genes",
							"type": "uint256"
						},
						{
							"internalType": "uint256",
							"name": "partId",
							"type": "uint256"
						},
						{
							"internalType": "uint8",
							"name": "id",
							"type": "uint8"
						}
					],
					"name": "setId",
					"outputs": [
						{
							"internalType": "uint256",
							"name": "",
							"type": "uint256"
						}
					],
					"stateMutability": "pure",
					"type": "function"
				},
				{
					"inputs": [
						{
							"internalType": "uint256",
							"name": "genes",
							"type": "uint256"
						},
						{
							"internalType": "uint256",
							"name": "partId",
							"type": "uint256"
						},
						{
							"internalType": "uint8",
							"name": "level",
							"type": "uint8"
						}
					],
					"name": "setLevel",
					"outputs": [
						{
							"internalType": "uint256",
							"name": "",
							"type": "uint256"
						}
					],
					"stateMutability": "pure",
					"type": "function"
				}
			],
			"devdoc": {
				"kind": "dev",
				"methods": {},
				"version": 1
			},
			"evm": {
				"assembly": "    /* \"contracts/common/GenesUtil.sol\":78:2657  library GenesUtil {... */\n  dataSize(sub_0)\n  dataOffset(sub_0)\n  0x0b\n  dup3\n  dup3\n  dup3\n  codecopy\n  dup1\n  mload\n  0x00\n  byte\n  0x73\n  eq\n  tag_1\n  jumpi\n  mstore(0x00, 0x4e487b7100000000000000000000000000000000000000000000000000000000)\n  mstore(0x04, 0x00)\n  revert(0x00, 0x24)\ntag_1:\n  mstore(0x00, address)\n  0x73\n  dup2\n  mstore8\n  dup3\n  dup2\n  return\nstop\n\nsub_0: assembly {\n        /* \"contracts/common/GenesUtil.sol\":78:2657  library GenesUtil {... */\n      eq(address, deployTimeAddress())\n      mstore(0x40, 0x80)\n      jumpi(tag_1, lt(calldatasize, 0x04))\n      shr(0xe0, calldataload(0x00))\n      dup1\n      0x5d2029f1\n      gt\n      tag_12\n      jumpi\n      dup1\n      0x5d2029f1\n      eq\n      tag_7\n      jumpi\n      dup1\n      0x8de97f4f\n      eq\n      tag_8\n      jumpi\n      dup1\n      0xa5858693\n      eq\n      tag_9\n      jumpi\n      dup1\n      0xb52b6659\n      eq\n      tag_10\n      jumpi\n      dup1\n      0xe1b30ab7\n      eq\n      tag_11\n      jumpi\n      jump(tag_1)\n    tag_12:\n      dup1\n      0x0317f435\n      eq\n      tag_2\n      jumpi\n      dup1\n      0x3499a7ea\n      eq\n      tag_3\n      jumpi\n      dup1\n      0x34a51d0f\n      eq\n      tag_4\n      jumpi\n      dup1\n      0x55d6ed43\n      eq\n      tag_5\n      jumpi\n      dup1\n      0x56e3df97\n      eq\n      tag_6\n      jumpi\n    tag_1:\n      0x00\n      dup1\n      revert\n        /* \"contracts/common/GenesUtil.sol\":261:417  function getCharges(uint256 genes) public pure returns (uint8) {... */\n    tag_2:\n      tag_13\n      0x04\n      dup1\n      calldatasize\n      sub\n      dup2\n      add\n      swap1\n      tag_14\n      swap2\n      swap1\n      tag_15\n      jump\t// in\n    tag_14:\n      tag_16\n      jump\t// in\n    tag_13:\n      mload(0x40)\n      tag_17\n      swap2\n      swap1\n      tag_18\n      jump\t// in\n    tag_17:\n      mload(0x40)\n      dup1\n      swap2\n      sub\n      swap1\n      return\n        /* \"contracts/common/GenesUtil.sol\":1395:1619  function getLevel(uint256 genes, uint8 partId) public pure returns (uint8) {... */\n    tag_3:\n      tag_19\n      0x04\n      dup1\n      calldatasize\n      sub\n      dup2\n      add\n      swap1\n      tag_20\n      swap2\n      swap1\n      tag_21\n      jump\t// in\n    tag_20:\n      tag_22\n      jump\t// in\n    tag_19:\n      mload(0x40)\n      tag_23\n      swap2\n      swap1\n      tag_18\n      jump\t// in\n    tag_23:\n      mload(0x40)\n      dup1\n      swap2\n      sub\n      swap1\n      return\n        /* \"contracts/common/GenesUtil.sol\":1017:1389  function setId(... */\n    tag_4:\n      tag_24\n      0x04\n      dup1\n      calldatasize\n      sub\n      dup2\n      add\n      swap1\n      tag_25\n      swap2\n      swap1\n      tag_26\n      jump\t// in\n    tag_25:\n      tag_27\n      jump\t// in\n    tag_24:\n      mload(0x40)\n      tag_28\n      swap2\n      swap1\n      tag_29\n      jump\t// in\n    tag_28:\n      mload(0x40)\n      dup1\n      swap2\n      sub\n      swap1\n      return\n        /* \"contracts/common/GenesUtil.sol\":2271:2655  function setArcane(... */\n    tag_5:\n      tag_30\n      0x04\n      dup1\n      calldatasize\n      sub\n      dup2\n      add\n      swap1\n      tag_31\n      swap2\n      swap1\n      tag_26\n      jump\t// in\n    tag_31:\n      tag_32\n      jump\t// in\n    tag_30:\n      mload(0x40)\n      tag_33\n      swap2\n      swap1\n      tag_29\n      jump\t// in\n    tag_33:\n      mload(0x40)\n      dup1\n      swap2\n      sub\n      swap1\n      return\n        /* \"contracts/common/GenesUtil.sol\":102:255  function getGeneration(uint256 genes) public pure returns (uint32) {... */\n    tag_6:\n      tag_34\n      0x04\n      dup1\n      calldatasize\n      sub\n      dup2\n      add\n      swap1\n      tag_35\n      swap2\n      swap1\n      tag_15\n      jump\t// in\n    tag_35:\n      tag_36\n      jump\t// in\n    tag_34:\n      mload(0x40)\n      tag_37\n      swap2\n      swap1\n      tag_38\n      jump\t// in\n    tag_37:\n      mload(0x40)\n      dup1\n      swap2\n      sub\n      swap1\n      return\n        /* \"contracts/common/GenesUtil.sol\":790:1011  function getId(uint256 genes, uint8 partId) public pure returns (uint8) {... */\n    tag_7:\n      tag_39\n      0x04\n      dup1\n      calldatasize\n      sub\n      dup2\n      add\n      swap1\n      tag_40\n      swap2\n      swap1\n      tag_21\n      jump\t// in\n    tag_40:\n      tag_41\n      jump\t// in\n    tag_39:\n      mload(0x40)\n      tag_42\n      swap2\n      swap1\n      tag_18\n      jump\t// in\n    tag_42:\n      mload(0x40)\n      dup1\n      swap2\n      sub\n      swap1\n      return\n        /* \"contracts/common/GenesUtil.sol\":423:594  function setGeneration(uint256 genes, uint32 generation)... */\n    tag_8:\n      tag_43\n      0x04\n      dup1\n      calldatasize\n      sub\n      dup2\n      add\n      swap1\n      tag_44\n      swap2\n      swap1\n      tag_45\n      jump\t// in\n    tag_44:\n      tag_46\n      jump\t// in\n    tag_43:\n      mload(0x40)\n      tag_47\n      swap2\n      swap1\n      tag_29\n      jump\t// in\n    tag_47:\n      mload(0x40)\n      dup1\n      swap2\n      sub\n      swap1\n      return\n        /* \"contracts/common/GenesUtil.sol\":2012:2265  function getArcane(uint256 genes, uint8 partId)... */\n    tag_9:\n      tag_48\n      0x04\n      dup1\n      calldatasize\n      sub\n      dup2\n      add\n      swap1\n      tag_49\n      swap2\n      swap1\n      tag_21\n      jump\t// in\n    tag_49:\n      tag_50\n      jump\t// in\n    tag_48:\n      mload(0x40)\n      tag_51\n      swap2\n      swap1\n      tag_18\n      jump\t// in\n    tag_51:\n      mload(0x40)\n      dup1\n      swap2\n      sub\n      swap1\n      return\n        /* \"contracts/common/GenesUtil.sol\":600:784  function setCharges(uint256 genes, uint8 charges)... */\n    tag_10:\n      tag_52\n      0x04\n      dup1\n      calldatasize\n      sub\n      dup2\n      add\n      swap1\n      tag_53\n      swap2\n      swap1\n      tag_21\n      jump\t// in\n    tag_53:\n      tag_54\n      jump\t// in\n    tag_52:\n      mload(0x40)\n      tag_55\n      swap2\n      swap1\n      tag_29\n      jump\t// in\n    tag_55:\n      mload(0x40)\n      dup1\n      swap2\n      sub\n      swap1\n      return\n        /* \"contracts/common/GenesUtil.sol\":1625:2006  function setLevel(... */\n    tag_11:\n      tag_56\n      0x04\n      dup1\n      calldatasize\n      sub\n      dup2\n      add\n      swap1\n      tag_57\n      swap2\n      swap1\n      tag_26\n      jump\t// in\n    tag_57:\n      tag_58\n      jump\t// in\n    tag_56:\n      mload(0x40)\n      tag_59\n      swap2\n      swap1\n      tag_29\n      jump\t// in\n    tag_59:\n      mload(0x40)\n      dup1\n      swap2\n      sub\n      swap1\n      return\n        /* \"contracts/common/GenesUtil.sol\":261:417  function getCharges(uint256 genes) public pure returns (uint8) {... */\n    tag_16:\n        /* \"contracts/common/GenesUtil.sol\":317:322  uint8 */\n      0x00\n        /* \"contracts/common/GenesUtil.sol\":395:399  0xFF */\n      0xff\n        /* \"contracts/common/GenesUtil.sol\":384:390  31 * 8 */\n      0xf8\n        /* \"contracts/common/GenesUtil.sol\":374:379  genes */\n      dup4\n        /* \"contracts/common/GenesUtil.sol\":374:391  genes >> (31 * 8) */\n      swap1\n      shr\n        /* \"contracts/common/GenesUtil.sol\":373:399  (genes >> (31 * 8)) & 0xFF */\n      and\n        /* \"contracts/common/GenesUtil.sol\":358:400  return (uint8)((genes >> (31 * 8)) & 0xFF) */\n      swap1\n      pop\n        /* \"contracts/common/GenesUtil.sol\":261:417  function getCharges(uint256 genes) public pure returns (uint8) {... */\n      swap2\n      swap1\n      pop\n      jump\t// out\n        /* \"contracts/common/GenesUtil.sol\":1395:1619  function getLevel(uint256 genes, uint8 partId) public pure returns (uint8) {... */\n    tag_22:\n        /* \"contracts/common/GenesUtil.sol\":1463:1468  uint8 */\n      0x00\n        /* \"contracts/common/GenesUtil.sol\":1480:1498  uint256 startIndex */\n      dup1\n        /* \"contracts/common/GenesUtil.sol\":1501:1502  4 */\n      0x04\n        /* \"contracts/common/GenesUtil.sol\":1480:1502  uint256 startIndex = 4 */\n      swap1\n      pop\n        /* \"contracts/common/GenesUtil.sol\":1512:1525  uint256 index */\n      0x00\n        /* \"contracts/common/GenesUtil.sol\":1537:1538  3 */\n      0x03\n        /* \"contracts/common/GenesUtil.sol\":1528:1534  partId */\n      dup5\n        /* \"contracts/common/GenesUtil.sol\":1528:1538  partId * 3 */\n      tag_62\n      swap2\n      swap1\n      tag_63\n      jump\t// in\n    tag_62:\n        /* \"contracts/common/GenesUtil.sol\":1512:1538  uint256 index = partId * 3 */\n      0xff\n      and\n      swap1\n      pop\n        /* \"contracts/common/GenesUtil.sol\":1607:1611  0xFF */\n      0xff\n        /* \"contracts/common/GenesUtil.sol\":1601:1602  8 */\n      0x08\n        /* \"contracts/common/GenesUtil.sol\":1596:1597  1 */\n      0x01\n        /* \"contracts/common/GenesUtil.sol\":1588:1593  index */\n      dup4\n        /* \"contracts/common/GenesUtil.sol\":1575:1585  startIndex */\n      dup6\n        /* \"contracts/common/GenesUtil.sol\":1575:1593  startIndex + index */\n      tag_64\n      swap2\n      swap1\n      tag_65\n      jump\t// in\n    tag_64:\n        /* \"contracts/common/GenesUtil.sol\":1575:1597  startIndex + index + 1 */\n      tag_66\n      swap2\n      swap1\n      tag_65\n      jump\t// in\n    tag_66:\n        /* \"contracts/common/GenesUtil.sol\":1574:1602  (startIndex + index + 1) * 8 */\n      tag_67\n      swap2\n      swap1\n      tag_68\n      jump\t// in\n    tag_67:\n        /* \"contracts/common/GenesUtil.sol\":1564:1569  genes */\n      dup7\n        /* \"contracts/common/GenesUtil.sol\":1564:1603  genes >> ((startIndex + index + 1) * 8) */\n      swap1\n      shr\n        /* \"contracts/common/GenesUtil.sol\":1563:1611  (genes >> ((startIndex + index + 1) * 8)) & 0xFF */\n      and\n        /* \"contracts/common/GenesUtil.sol\":1548:1612  return (uint8)((genes >> ((startIndex + index + 1) * 8)) & 0xFF) */\n      swap3\n      pop\n      pop\n      pop\n        /* \"contracts/common/GenesUtil.sol\":1395:1619  function getLevel(uint256 genes, uint8 partId) public pure returns (uint8) {... */\n      swap3\n      swap2\n      pop\n      pop\n      jump\t// out\n        /* \"contracts/common/GenesUtil.sol\":1017:1389  function setId(... */\n    tag_27:\n        /* \"contracts/common/GenesUtil.sol\":1124:1131  uint256 */\n      0x00\n        /* \"contracts/common/GenesUtil.sol\":1143:1161  uint256 startIndex */\n      dup1\n        /* \"contracts/common/GenesUtil.sol\":1164:1165  4 */\n      0x04\n        /* \"contracts/common/GenesUtil.sol\":1143:1165  uint256 startIndex = 4 */\n      swap1\n      pop\n        /* \"contracts/common/GenesUtil.sol\":1175:1188  uint256 index */\n      0x00\n        /* \"contracts/common/GenesUtil.sol\":1200:1201  3 */\n      0x03\n        /* \"contracts/common/GenesUtil.sol\":1191:1197  partId */\n      dup6\n        /* \"contracts/common/GenesUtil.sol\":1191:1201  partId * 3 */\n      tag_70\n      swap2\n      swap1\n      tag_68\n      jump\t// in\n    tag_70:\n        /* \"contracts/common/GenesUtil.sol\":1175:1201  uint256 index = partId * 3 */\n      swap1\n      pop\n        /* \"contracts/common/GenesUtil.sol\":1211:1224  uint256 shift */\n      0x00\n        /* \"contracts/common/GenesUtil.sol\":1254:1255  8 */\n      0x08\n        /* \"contracts/common/GenesUtil.sol\":1249:1250  0 */\n      0x00\n        /* \"contracts/common/GenesUtil.sol\":1241:1246  index */\n      dup4\n        /* \"contracts/common/GenesUtil.sol\":1228:1238  startIndex */\n      dup6\n        /* \"contracts/common/GenesUtil.sol\":1228:1246  startIndex + index */\n      tag_71\n      swap2\n      swap1\n      tag_65\n      jump\t// in\n    tag_71:\n        /* \"contracts/common/GenesUtil.sol\":1228:1250  startIndex + index + 0 */\n      tag_72\n      swap2\n      swap1\n      tag_65\n      jump\t// in\n    tag_72:\n        /* \"contracts/common/GenesUtil.sol\":1227:1255  (startIndex + index + 0) * 8 */\n      tag_73\n      swap2\n      swap1\n      tag_68\n      jump\t// in\n    tag_73:\n        /* \"contracts/common/GenesUtil.sol\":1211:1255  uint256 shift = (startIndex + index + 0) * 8 */\n      swap1\n      pop\n        /* \"contracts/common/GenesUtil.sol\":1329:1334  shift */\n      dup1\n        /* \"contracts/common/GenesUtil.sol\":1321:1325  0xFF */\n      0xff\n        /* \"contracts/common/GenesUtil.sol\":1321:1334  0xFF << shift */\n      swap1\n      shl\n        /* \"contracts/common/GenesUtil.sol\":1319:1335  ~(0xFF << shift) */\n      not\n        /* \"contracts/common/GenesUtil.sol\":1311:1316  genes */\n      dup8\n        /* \"contracts/common/GenesUtil.sol\":1311:1335  genes & ~(0xFF << shift) */\n      and\n        /* \"contracts/common/GenesUtil.sol\":1303:1335  genes = genes & ~(0xFF << shift) */\n      swap7\n      pop\n        /* \"contracts/common/GenesUtil.sol\":1376:1381  shift */\n      dup1\n        /* \"contracts/common/GenesUtil.sol\":1369:1371  id */\n      dup6\n        /* \"contracts/common/GenesUtil.sol\":1361:1372  uint256(id) */\n      0xff\n      and\n        /* \"contracts/common/GenesUtil.sol\":1361:1381  uint256(id) << shift */\n      swap1\n      shl\n        /* \"contracts/common/GenesUtil.sol\":1352:1357  genes */\n      dup8\n        /* \"contracts/common/GenesUtil.sol\":1352:1382  genes | (uint256(id) << shift) */\n      or\n        /* \"contracts/common/GenesUtil.sol\":1345:1382  return genes | (uint256(id) << shift) */\n      swap4\n      pop\n      pop\n      pop\n      pop\n        /* \"contracts/common/GenesUtil.sol\":1017:1389  function setId(... */\n      swap4\n      swap3\n      pop\n      pop\n      pop\n      jump\t// out\n        /* \"contracts/common/GenesUtil.sol\":2271:2655  function setArcane(... */\n    tag_32:\n        /* \"contracts/common/GenesUtil.sol\":2386:2393  uint256 */\n      0x00\n        /* \"contracts/common/GenesUtil.sol\":2405:2423  uint256 startIndex */\n      dup1\n        /* \"contracts/common/GenesUtil.sol\":2426:2427  4 */\n      0x04\n        /* \"contracts/common/GenesUtil.sol\":2405:2427  uint256 startIndex = 4 */\n      swap1\n      pop\n        /* \"contracts/common/GenesUtil.sol\":2437:2450  uint256 index */\n      0x00\n        /* \"contracts/common/GenesUtil.sol\":2462:2463  3 */\n      0x03\n        /* \"contracts/common/GenesUtil.sol\":2453:2459  partId */\n      dup6\n        /* \"contracts/common/GenesUtil.sol\":2453:2463  partId * 3 */\n      tag_75\n      swap2\n      swap1\n      tag_68\n      jump\t// in\n    tag_75:\n        /* \"contracts/common/GenesUtil.sol\":2437:2463  uint256 index = partId * 3 */\n      swap1\n      pop\n        /* \"contracts/common/GenesUtil.sol\":2473:2486  uint256 shift */\n      0x00\n        /* \"contracts/common/GenesUtil.sol\":2516:2517  8 */\n      0x08\n        /* \"contracts/common/GenesUtil.sol\":2511:2512  2 */\n      0x02\n        /* \"contracts/common/GenesUtil.sol\":2503:2508  index */\n      dup4\n        /* \"contracts/common/GenesUtil.sol\":2490:2500  startIndex */\n      dup6\n        /* \"contracts/common/GenesUtil.sol\":2490:2508  startIndex + index */\n      tag_76\n      swap2\n      swap1\n      tag_65\n      jump\t// in\n    tag_76:\n        /* \"contracts/common/GenesUtil.sol\":2490:2512  startIndex + index + 2 */\n      tag_77\n      swap2\n      swap1\n      tag_65\n      jump\t// in\n    tag_77:\n        /* \"contracts/common/GenesUtil.sol\":2489:2517  (startIndex + index + 2) * 8 */\n      tag_78\n      swap2\n      swap1\n      tag_68\n      jump\t// in\n    tag_78:\n        /* \"contracts/common/GenesUtil.sol\":2473:2517  uint256 shift = (startIndex + index + 2) * 8 */\n      swap1\n      pop\n        /* \"contracts/common/GenesUtil.sol\":2591:2596  shift */\n      dup1\n        /* \"contracts/common/GenesUtil.sol\":2583:2587  0xFF */\n      0xff\n        /* \"contracts/common/GenesUtil.sol\":2583:2596  0xFF << shift */\n      swap1\n      shl\n        /* \"contracts/common/GenesUtil.sol\":2581:2597  ~(0xFF << shift) */\n      not\n        /* \"contracts/common/GenesUtil.sol\":2573:2578  genes */\n      dup8\n        /* \"contracts/common/GenesUtil.sol\":2573:2597  genes & ~(0xFF << shift) */\n      and\n        /* \"contracts/common/GenesUtil.sol\":2565:2597  genes = genes & ~(0xFF << shift) */\n      swap7\n      pop\n        /* \"contracts/common/GenesUtil.sol\":2642:2647  shift */\n      dup1\n        /* \"contracts/common/GenesUtil.sol\":2631:2637  arcane */\n      dup6\n        /* \"contracts/common/GenesUtil.sol\":2623:2638  uint256(arcane) */\n      0xff\n      and\n        /* \"contracts/common/GenesUtil.sol\":2623:2647  uint256(arcane) << shift */\n      swap1\n      shl\n        /* \"contracts/common/GenesUtil.sol\":2614:2619  genes */\n      dup8\n        /* \"contracts/common/GenesUtil.sol\":2614:2648  genes | (uint256(arcane) << shift) */\n      or\n        /* \"contracts/common/GenesUtil.sol\":2607:2648  return genes | (uint256(arcane) << shift) */\n      swap4\n      pop\n      pop\n      pop\n      pop\n        /* \"contracts/common/GenesUtil.sol\":2271:2655  function setArcane(... */\n      swap4\n      swap3\n      pop\n      pop\n      pop\n      jump\t// out\n        /* \"contracts/common/GenesUtil.sol\":102:255  function getGeneration(uint256 genes) public pure returns (uint32) {... */\n    tag_36:\n        /* \"contracts/common/GenesUtil.sol\":161:167  uint32 */\n      0x00\n        /* \"contracts/common/GenesUtil.sol\":227:237  0xFFFFFFFF */\n      0xffffffff\n        /* \"contracts/common/GenesUtil.sol\":219:224  genes */\n      dup3\n        /* \"contracts/common/GenesUtil.sol\":219:237  genes & 0xFFFFFFFF */\n      and\n        /* \"contracts/common/GenesUtil.sol\":203:238  return (uint32)(genes & 0xFFFFFFFF) */\n      swap1\n      pop\n        /* \"contracts/common/GenesUtil.sol\":102:255  function getGeneration(uint256 genes) public pure returns (uint32) {... */\n      swap2\n      swap1\n      pop\n      jump\t// out\n        /* \"contracts/common/GenesUtil.sol\":790:1011  function getId(uint256 genes, uint8 partId) public pure returns (uint8) {... */\n    tag_41:\n        /* \"contracts/common/GenesUtil.sol\":855:860  uint8 */\n      0x00\n        /* \"contracts/common/GenesUtil.sol\":872:890  uint256 startIndex */\n      dup1\n        /* \"contracts/common/GenesUtil.sol\":893:894  4 */\n      0x04\n        /* \"contracts/common/GenesUtil.sol\":872:894  uint256 startIndex = 4 */\n      swap1\n      pop\n        /* \"contracts/common/GenesUtil.sol\":904:917  uint256 index */\n      0x00\n        /* \"contracts/common/GenesUtil.sol\":929:930  3 */\n      0x03\n        /* \"contracts/common/GenesUtil.sol\":920:926  partId */\n      dup5\n        /* \"contracts/common/GenesUtil.sol\":920:930  partId * 3 */\n      tag_81\n      swap2\n      swap1\n      tag_63\n      jump\t// in\n    tag_81:\n        /* \"contracts/common/GenesUtil.sol\":904:930  uint256 index = partId * 3 */\n      0xff\n      and\n      swap1\n      pop\n        /* \"contracts/common/GenesUtil.sol\":999:1003  0xFF */\n      0xff\n        /* \"contracts/common/GenesUtil.sol\":993:994  8 */\n      0x08\n        /* \"contracts/common/GenesUtil.sol\":988:989  0 */\n      0x00\n        /* \"contracts/common/GenesUtil.sol\":980:985  index */\n      dup4\n        /* \"contracts/common/GenesUtil.sol\":967:977  startIndex */\n      dup6\n        /* \"contracts/common/GenesUtil.sol\":967:985  startIndex + index */\n      tag_82\n      swap2\n      swap1\n      tag_65\n      jump\t// in\n    tag_82:\n        /* \"contracts/common/GenesUtil.sol\":967:989  startIndex + index + 0 */\n      tag_83\n      swap2\n      swap1\n      tag_65\n      jump\t// in\n    tag_83:\n        /* \"contracts/common/GenesUtil.sol\":966:994  (startIndex + index + 0) * 8 */\n      tag_84\n      swap2\n      swap1\n      tag_68\n      jump\t// in\n    tag_84:\n        /* \"contracts/common/GenesUtil.sol\":956:961  genes */\n      dup7\n        /* \"contracts/common/GenesUtil.sol\":956:995  genes >> ((startIndex + index + 0) * 8) */\n      swap1\n      shr\n        /* \"contracts/common/GenesUtil.sol\":955:1003  (genes >> ((startIndex + index + 0) * 8)) & 0xFF */\n      and\n        /* \"contracts/common/GenesUtil.sol\":940:1004  return (uint8)((genes >> ((startIndex + index + 0) * 8)) & 0xFF) */\n      swap3\n      pop\n      pop\n      pop\n        /* \"contracts/common/GenesUtil.sol\":790:1011  function getId(uint256 genes, uint8 partId) public pure returns (uint8) {... */\n      swap3\n      swap2\n      pop\n      pop\n      jump\t// out\n        /* \"contracts/common/GenesUtil.sol\":423:594  function setGeneration(uint256 genes, uint32 generation)... */\n    tag_46:\n        /* \"contracts/common/GenesUtil.sol\":525:532  uint256 */\n      0x00\n        /* \"contracts/common/GenesUtil.sol\":577:587  generation */\n      dup2\n        /* \"contracts/common/GenesUtil.sol\":555:587  ((genes >> 4) << 4) | generation */\n      0xffffffff\n      and\n        /* \"contracts/common/GenesUtil.sol\":572:573  4 */\n      0x04\n        /* \"contracts/common/GenesUtil.sol\":566:567  4 */\n      dup1\n        /* \"contracts/common/GenesUtil.sol\":557:562  genes */\n      dup6\n        /* \"contracts/common/GenesUtil.sol\":557:567  genes >> 4 */\n      swap1\n      shr\n        /* \"contracts/common/GenesUtil.sol\":556:573  (genes >> 4) << 4 */\n      swap1\n      shl\n        /* \"contracts/common/GenesUtil.sol\":555:587  ((genes >> 4) << 4) | generation */\n      or\n        /* \"contracts/common/GenesUtil.sol\":548:587  return ((genes >> 4) << 4) | generation */\n      swap1\n      pop\n        /* \"contracts/common/GenesUtil.sol\":423:594  function setGeneration(uint256 genes, uint32 generation)... */\n      swap3\n      swap2\n      pop\n      pop\n      jump\t// out\n        /* \"contracts/common/GenesUtil.sol\":2012:2265  function getArcane(uint256 genes, uint8 partId)... */\n    tag_50:\n        /* \"contracts/common/GenesUtil.sol\":2105:2110  uint8 */\n      0x00\n        /* \"contracts/common/GenesUtil.sol\":2126:2144  uint256 startIndex */\n      dup1\n        /* \"contracts/common/GenesUtil.sol\":2147:2148  4 */\n      0x04\n        /* \"contracts/common/GenesUtil.sol\":2126:2148  uint256 startIndex = 4 */\n      swap1\n      pop\n        /* \"contracts/common/GenesUtil.sol\":2158:2171  uint256 index */\n      0x00\n        /* \"contracts/common/GenesUtil.sol\":2183:2184  3 */\n      0x03\n        /* \"contracts/common/GenesUtil.sol\":2174:2180  partId */\n      dup5\n        /* \"contracts/common/GenesUtil.sol\":2174:2184  partId * 3 */\n      tag_87\n      swap2\n      swap1\n      tag_63\n      jump\t// in\n    tag_87:\n        /* \"contracts/common/GenesUtil.sol\":2158:2184  uint256 index = partId * 3 */\n      0xff\n      and\n      swap1\n      pop\n        /* \"contracts/common/GenesUtil.sol\":2253:2257  0xFF */\n      0xff\n        /* \"contracts/common/GenesUtil.sol\":2247:2248  8 */\n      0x08\n        /* \"contracts/common/GenesUtil.sol\":2242:2243  2 */\n      0x02\n        /* \"contracts/common/GenesUtil.sol\":2234:2239  index */\n      dup4\n        /* \"contracts/common/GenesUtil.sol\":2221:2231  startIndex */\n      dup6\n        /* \"contracts/common/GenesUtil.sol\":2221:2239  startIndex + index */\n      tag_88\n      swap2\n      swap1\n      tag_65\n      jump\t// in\n    tag_88:\n        /* \"contracts/common/GenesUtil.sol\":2221:2243  startIndex + index + 2 */\n      tag_89\n      swap2\n      swap1\n      tag_65\n      jump\t// in\n    tag_89:\n        /* \"contracts/common/GenesUtil.sol\":2220:2248  (startIndex + index + 2) * 8 */\n      tag_90\n      swap2\n      swap1\n      tag_68\n      jump\t// in\n    tag_90:\n        /* \"contracts/common/GenesUtil.sol\":2210:2215  genes */\n      dup7\n        /* \"contracts/common/GenesUtil.sol\":2210:2249  genes >> ((startIndex + index + 2) * 8) */\n      swap1\n      shr\n        /* \"contracts/common/GenesUtil.sol\":2209:2257  (genes >> ((startIndex + index + 2) * 8)) & 0xFF */\n      and\n        /* \"contracts/common/GenesUtil.sol\":2194:2258  return (uint8)((genes >> ((startIndex + index + 2) * 8)) & 0xFF) */\n      swap3\n      pop\n      pop\n      pop\n        /* \"contracts/common/GenesUtil.sol\":2012:2265  function getArcane(uint256 genes, uint8 partId)... */\n      swap3\n      swap2\n      pop\n      pop\n      jump\t// out\n        /* \"contracts/common/GenesUtil.sol\":600:784  function setCharges(uint256 genes, uint8 charges)... */\n    tag_54:\n        /* \"contracts/common/GenesUtil.sol\":695:702  uint256 */\n      0x00\n        /* \"contracts/common/GenesUtil.sol\":769:775  31 * 8 */\n      0xf8\n        /* \"contracts/common/GenesUtil.sol\":756:763  charges */\n      dup3\n        /* \"contracts/common/GenesUtil.sol\":748:764  uint256(charges) */\n      0xff\n      and\n        /* \"contracts/common/GenesUtil.sol\":748:776  uint256(charges) << (31 * 8) */\n      swap1\n      shl\n        /* \"contracts/common/GenesUtil.sol\":742:743  8 */\n      0x08\n        /* \"contracts/common/GenesUtil.sol\":736:737  8 */\n      dup1\n        /* \"contracts/common/GenesUtil.sol\":727:732  genes */\n      dup6\n        /* \"contracts/common/GenesUtil.sol\":727:737  genes << 8 */\n      swap1\n      shl\n        /* \"contracts/common/GenesUtil.sol\":726:743  (genes << 8) >> 8 */\n      swap1\n      shr\n        /* \"contracts/common/GenesUtil.sol\":725:777  ((genes << 8) >> 8) | (uint256(charges) << (31 * 8)) */\n      or\n        /* \"contracts/common/GenesUtil.sol\":718:777  return ((genes << 8) >> 8) | (uint256(charges) << (31 * 8)) */\n      swap1\n      pop\n        /* \"contracts/common/GenesUtil.sol\":600:784  function setCharges(uint256 genes, uint8 charges)... */\n      swap3\n      swap2\n      pop\n      pop\n      jump\t// out\n        /* \"contracts/common/GenesUtil.sol\":1625:2006  function setLevel(... */\n    tag_58:\n        /* \"contracts/common/GenesUtil.sol\":1738:1745  uint256 */\n      0x00\n        /* \"contracts/common/GenesUtil.sol\":1757:1775  uint256 startIndex */\n      dup1\n        /* \"contracts/common/GenesUtil.sol\":1778:1779  4 */\n      0x04\n        /* \"contracts/common/GenesUtil.sol\":1757:1779  uint256 startIndex = 4 */\n      swap1\n      pop\n        /* \"contracts/common/GenesUtil.sol\":1789:1802  uint256 index */\n      0x00\n        /* \"contracts/common/GenesUtil.sol\":1814:1815  3 */\n      0x03\n        /* \"contracts/common/GenesUtil.sol\":1805:1811  partId */\n      dup6\n        /* \"contracts/common/GenesUtil.sol\":1805:1815  partId * 3 */\n      tag_93\n      swap2\n      swap1\n      tag_68\n      jump\t// in\n    tag_93:\n        /* \"contracts/common/GenesUtil.sol\":1789:1815  uint256 index = partId * 3 */\n      swap1\n      pop\n        /* \"contracts/common/GenesUtil.sol\":1825:1838  uint256 shift */\n      0x00\n        /* \"contracts/common/GenesUtil.sol\":1868:1869  8 */\n      0x08\n        /* \"contracts/common/GenesUtil.sol\":1863:1864  1 */\n      0x01\n        /* \"contracts/common/GenesUtil.sol\":1855:1860  index */\n      dup4\n        /* \"contracts/common/GenesUtil.sol\":1842:1852  startIndex */\n      dup6\n        /* \"contracts/common/GenesUtil.sol\":1842:1860  startIndex + index */\n      tag_94\n      swap2\n      swap1\n      tag_65\n      jump\t// in\n    tag_94:\n        /* \"contracts/common/GenesUtil.sol\":1842:1864  startIndex + index + 1 */\n      tag_95\n      swap2\n      swap1\n      tag_65\n      jump\t// in\n    tag_95:\n        /* \"contracts/common/GenesUtil.sol\":1841:1869  (startIndex + index + 1) * 8 */\n      tag_96\n      swap2\n      swap1\n      tag_68\n      jump\t// in\n    tag_96:\n        /* \"contracts/common/GenesUtil.sol\":1825:1869  uint256 shift = (startIndex + index + 1) * 8 */\n      swap1\n      pop\n        /* \"contracts/common/GenesUtil.sol\":1943:1948  shift */\n      dup1\n        /* \"contracts/common/GenesUtil.sol\":1935:1939  0xFF */\n      0xff\n        /* \"contracts/common/GenesUtil.sol\":1935:1948  0xFF << shift */\n      swap1\n      shl\n        /* \"contracts/common/GenesUtil.sol\":1933:1949  ~(0xFF << shift) */\n      not\n        /* \"contracts/common/GenesUtil.sol\":1925:1930  genes */\n      dup8\n        /* \"contracts/common/GenesUtil.sol\":1925:1949  genes & ~(0xFF << shift) */\n      and\n        /* \"contracts/common/GenesUtil.sol\":1917:1949  genes = genes & ~(0xFF << shift) */\n      swap7\n      pop\n        /* \"contracts/common/GenesUtil.sol\":1993:1998  shift */\n      dup1\n        /* \"contracts/common/GenesUtil.sol\":1983:1988  level */\n      dup6\n        /* \"contracts/common/GenesUtil.sol\":1975:1989  uint256(level) */\n      0xff\n      and\n        /* \"contracts/common/GenesUtil.sol\":1975:1998  uint256(level) << shift */\n      swap1\n      shl\n        /* \"contracts/common/GenesUtil.sol\":1966:1971  genes */\n      dup8\n        /* \"contracts/common/GenesUtil.sol\":1966:1999  genes | (uint256(level) << shift) */\n      or\n        /* \"contracts/common/GenesUtil.sol\":1959:1999  return genes | (uint256(level) << shift) */\n      swap4\n      pop\n      pop\n      pop\n      pop\n        /* \"contracts/common/GenesUtil.sol\":1625:2006  function setLevel(... */\n      swap4\n      swap3\n      pop\n      pop\n      pop\n      jump\t// out\n        /* \"#utility.yul\":88:205   */\n    tag_98:\n        /* \"#utility.yul\":197:198   */\n      0x00\n        /* \"#utility.yul\":194:195   */\n      dup1\n        /* \"#utility.yul\":187:199   */\n      revert\n        /* \"#utility.yul\":334:411   */\n    tag_100:\n        /* \"#utility.yul\":371:378   */\n      0x00\n        /* \"#utility.yul\":400:405   */\n      dup2\n        /* \"#utility.yul\":389:405   */\n      swap1\n      pop\n        /* \"#utility.yul\":334:411   */\n      swap2\n      swap1\n      pop\n      jump\t// out\n        /* \"#utility.yul\":417:539   */\n    tag_101:\n        /* \"#utility.yul\":490:514   */\n      tag_119\n        /* \"#utility.yul\":508:513   */\n      dup2\n        /* \"#utility.yul\":490:514   */\n      tag_100\n      jump\t// in\n    tag_119:\n        /* \"#utility.yul\":483:488   */\n      dup2\n        /* \"#utility.yul\":480:515   */\n      eq\n        /* \"#utility.yul\":470:533   */\n      tag_120\n      jumpi\n        /* \"#utility.yul\":529:530   */\n      0x00\n        /* \"#utility.yul\":526:527   */\n      dup1\n        /* \"#utility.yul\":519:531   */\n      revert\n        /* \"#utility.yul\":470:533   */\n    tag_120:\n        /* \"#utility.yul\":417:539   */\n      pop\n      jump\t// out\n        /* \"#utility.yul\":545:684   */\n    tag_102:\n        /* \"#utility.yul\":591:596   */\n      0x00\n        /* \"#utility.yul\":629:635   */\n      dup2\n        /* \"#utility.yul\":616:636   */\n      calldataload\n        /* \"#utility.yul\":607:636   */\n      swap1\n      pop\n        /* \"#utility.yul\":645:678   */\n      tag_122\n        /* \"#utility.yul\":672:677   */\n      dup2\n        /* \"#utility.yul\":645:678   */\n      tag_101\n      jump\t// in\n    tag_122:\n        /* \"#utility.yul\":545:684   */\n      swap3\n      swap2\n      pop\n      pop\n      jump\t// out\n        /* \"#utility.yul\":690:1019   */\n    tag_15:\n        /* \"#utility.yul\":749:755   */\n      0x00\n        /* \"#utility.yul\":798:800   */\n      0x20\n        /* \"#utility.yul\":786:795   */\n      dup3\n        /* \"#utility.yul\":777:784   */\n      dup5\n        /* \"#utility.yul\":773:796   */\n      sub\n        /* \"#utility.yul\":769:801   */\n      slt\n        /* \"#utility.yul\":766:885   */\n      iszero\n      tag_124\n      jumpi\n        /* \"#utility.yul\":804:883   */\n      tag_125\n      tag_98\n      jump\t// in\n    tag_125:\n        /* \"#utility.yul\":766:885   */\n    tag_124:\n        /* \"#utility.yul\":924:925   */\n      0x00\n        /* \"#utility.yul\":949:1002   */\n      tag_126\n        /* \"#utility.yul\":994:1001   */\n      dup5\n        /* \"#utility.yul\":985:991   */\n      dup3\n        /* \"#utility.yul\":974:983   */\n      dup6\n        /* \"#utility.yul\":970:992   */\n      add\n        /* \"#utility.yul\":949:1002   */\n      tag_102\n      jump\t// in\n    tag_126:\n        /* \"#utility.yul\":939:1002   */\n      swap2\n      pop\n        /* \"#utility.yul\":895:1012   */\n      pop\n        /* \"#utility.yul\":690:1019   */\n      swap3\n      swap2\n      pop\n      pop\n      jump\t// out\n        /* \"#utility.yul\":1025:1111   */\n    tag_103:\n        /* \"#utility.yul\":1060:1067   */\n      0x00\n        /* \"#utility.yul\":1100:1104   */\n      0xff\n        /* \"#utility.yul\":1093:1098   */\n      dup3\n        /* \"#utility.yul\":1089:1105   */\n      and\n        /* \"#utility.yul\":1078:1105   */\n      swap1\n      pop\n        /* \"#utility.yul\":1025:1111   */\n      swap2\n      swap1\n      pop\n      jump\t// out\n        /* \"#utility.yul\":1117:1237   */\n    tag_104:\n        /* \"#utility.yul\":1208:1230   */\n      tag_129\n        /* \"#utility.yul\":1224:1229   */\n      dup2\n        /* \"#utility.yul\":1208:1230   */\n      tag_103\n      jump\t// in\n    tag_129:\n        /* \"#utility.yul\":1203:1206   */\n      dup3\n        /* \"#utility.yul\":1196:1231   */\n      mstore\n        /* \"#utility.yul\":1117:1237   */\n      pop\n      pop\n      jump\t// out\n        /* \"#utility.yul\":1243:1473   */\n    tag_18:\n        /* \"#utility.yul\":1340:1344   */\n      0x00\n        /* \"#utility.yul\":1378:1380   */\n      0x20\n        /* \"#utility.yul\":1367:1376   */\n      dup3\n        /* \"#utility.yul\":1363:1381   */\n      add\n        /* \"#utility.yul\":1355:1381   */\n      swap1\n      pop\n        /* \"#utility.yul\":1391:1466   */\n      tag_131\n        /* \"#utility.yul\":1463:1464   */\n      0x00\n        /* \"#utility.yul\":1452:1461   */\n      dup4\n        /* \"#utility.yul\":1448:1465   */\n      add\n        /* \"#utility.yul\":1439:1445   */\n      dup5\n        /* \"#utility.yul\":1391:1466   */\n      tag_104\n      jump\t// in\n    tag_131:\n        /* \"#utility.yul\":1243:1473   */\n      swap3\n      swap2\n      pop\n      pop\n      jump\t// out\n        /* \"#utility.yul\":1479:1597   */\n    tag_105:\n        /* \"#utility.yul\":1550:1572   */\n      tag_133\n        /* \"#utility.yul\":1566:1571   */\n      dup2\n        /* \"#utility.yul\":1550:1572   */\n      tag_103\n      jump\t// in\n    tag_133:\n        /* \"#utility.yul\":1543:1548   */\n      dup2\n        /* \"#utility.yul\":1540:1573   */\n      eq\n        /* \"#utility.yul\":1530:1591   */\n      tag_134\n      jumpi\n        /* \"#utility.yul\":1587:1588   */\n      0x00\n        /* \"#utility.yul\":1584:1585   */\n      dup1\n        /* \"#utility.yul\":1577:1589   */\n      revert\n        /* \"#utility.yul\":1530:1591   */\n    tag_134:\n        /* \"#utility.yul\":1479:1597   */\n      pop\n      jump\t// out\n        /* \"#utility.yul\":1603:1738   */\n    tag_106:\n        /* \"#utility.yul\":1647:1652   */\n      0x00\n        /* \"#utility.yul\":1685:1691   */\n      dup2\n        /* \"#utility.yul\":1672:1692   */\n      calldataload\n        /* \"#utility.yul\":1663:1692   */\n      swap1\n      pop\n        /* \"#utility.yul\":1701:1732   */\n      tag_136\n        /* \"#utility.yul\":1726:1731   */\n      dup2\n        /* \"#utility.yul\":1701:1732   */\n      tag_105\n      jump\t// in\n    tag_136:\n        /* \"#utility.yul\":1603:1738   */\n      swap3\n      swap2\n      pop\n      pop\n      jump\t// out\n        /* \"#utility.yul\":1744:2214   */\n    tag_21:\n        /* \"#utility.yul\":1810:1816   */\n      0x00\n        /* \"#utility.yul\":1818:1824   */\n      dup1\n        /* \"#utility.yul\":1867:1869   */\n      0x40\n        /* \"#utility.yul\":1855:1864   */\n      dup4\n        /* \"#utility.yul\":1846:1853   */\n      dup6\n        /* \"#utility.yul\":1842:1865   */\n      sub\n        /* \"#utility.yul\":1838:1870   */\n      slt\n        /* \"#utility.yul\":1835:1954   */\n      iszero\n      tag_138\n      jumpi\n        /* \"#utility.yul\":1873:1952   */\n      tag_139\n      tag_98\n      jump\t// in\n    tag_139:\n        /* \"#utility.yul\":1835:1954   */\n    tag_138:\n        /* \"#utility.yul\":1993:1994   */\n      0x00\n        /* \"#utility.yul\":2018:2071   */\n      tag_140\n        /* \"#utility.yul\":2063:2070   */\n      dup6\n        /* \"#utility.yul\":2054:2060   */\n      dup3\n        /* \"#utility.yul\":2043:2052   */\n      dup7\n        /* \"#utility.yul\":2039:2061   */\n      add\n        /* \"#utility.yul\":2018:2071   */\n      tag_102\n      jump\t// in\n    tag_140:\n        /* \"#utility.yul\":2008:2071   */\n      swap3\n      pop\n        /* \"#utility.yul\":1964:2081   */\n      pop\n        /* \"#utility.yul\":2120:2122   */\n      0x20\n        /* \"#utility.yul\":2146:2197   */\n      tag_141\n        /* \"#utility.yul\":2189:2196   */\n      dup6\n        /* \"#utility.yul\":2180:2186   */\n      dup3\n        /* \"#utility.yul\":2169:2178   */\n      dup7\n        /* \"#utility.yul\":2165:2187   */\n      add\n        /* \"#utility.yul\":2146:2197   */\n      tag_106\n      jump\t// in\n    tag_141:\n        /* \"#utility.yul\":2136:2197   */\n      swap2\n      pop\n        /* \"#utility.yul\":2091:2207   */\n      pop\n        /* \"#utility.yul\":1744:2214   */\n      swap3\n      pop\n      swap3\n      swap1\n      pop\n      jump\t// out\n        /* \"#utility.yul\":2220:2835   */\n    tag_26:\n        /* \"#utility.yul\":2295:2301   */\n      0x00\n        /* \"#utility.yul\":2303:2309   */\n      dup1\n        /* \"#utility.yul\":2311:2317   */\n      0x00\n        /* \"#utility.yul\":2360:2362   */\n      0x60\n        /* \"#utility.yul\":2348:2357   */\n      dup5\n        /* \"#utility.yul\":2339:2346   */\n      dup7\n        /* \"#utility.yul\":2335:2358   */\n      sub\n        /* \"#utility.yul\":2331:2363   */\n      slt\n        /* \"#utility.yul\":2328:2447   */\n      iszero\n      tag_143\n      jumpi\n        /* \"#utility.yul\":2366:2445   */\n      tag_144\n      tag_98\n      jump\t// in\n    tag_144:\n        /* \"#utility.yul\":2328:2447   */\n    tag_143:\n        /* \"#utility.yul\":2486:2487   */\n      0x00\n        /* \"#utility.yul\":2511:2564   */\n      tag_145\n        /* \"#utility.yul\":2556:2563   */\n      dup7\n        /* \"#utility.yul\":2547:2553   */\n      dup3\n        /* \"#utility.yul\":2536:2545   */\n      dup8\n        /* \"#utility.yul\":2532:2554   */\n      add\n        /* \"#utility.yul\":2511:2564   */\n      tag_102\n      jump\t// in\n    tag_145:\n        /* \"#utility.yul\":2501:2564   */\n      swap4\n      pop\n        /* \"#utility.yul\":2457:2574   */\n      pop\n        /* \"#utility.yul\":2613:2615   */\n      0x20\n        /* \"#utility.yul\":2639:2692   */\n      tag_146\n        /* \"#utility.yul\":2684:2691   */\n      dup7\n        /* \"#utility.yul\":2675:2681   */\n      dup3\n        /* \"#utility.yul\":2664:2673   */\n      dup8\n        /* \"#utility.yul\":2660:2682   */\n      add\n        /* \"#utility.yul\":2639:2692   */\n      tag_102\n      jump\t// in\n    tag_146:\n        /* \"#utility.yul\":2629:2692   */\n      swap3\n      pop\n        /* \"#utility.yul\":2584:2702   */\n      pop\n        /* \"#utility.yul\":2741:2743   */\n      0x40\n        /* \"#utility.yul\":2767:2818   */\n      tag_147\n        /* \"#utility.yul\":2810:2817   */\n      dup7\n        /* \"#utility.yul\":2801:2807   */\n      dup3\n        /* \"#utility.yul\":2790:2799   */\n      dup8\n        /* \"#utility.yul\":2786:2808   */\n      add\n        /* \"#utility.yul\":2767:2818   */\n      tag_106\n      jump\t// in\n    tag_147:\n        /* \"#utility.yul\":2757:2818   */\n      swap2\n      pop\n        /* \"#utility.yul\":2712:2828   */\n      pop\n        /* \"#utility.yul\":2220:2835   */\n      swap3\n      pop\n      swap3\n      pop\n      swap3\n      jump\t// out\n        /* \"#utility.yul\":2841:2967   */\n    tag_107:\n        /* \"#utility.yul\":2936:2960   */\n      tag_149\n        /* \"#utility.yul\":2954:2959   */\n      dup2\n        /* \"#utility.yul\":2936:2960   */\n      tag_100\n      jump\t// in\n    tag_149:\n        /* \"#utility.yul\":2931:2934   */\n      dup3\n        /* \"#utility.yul\":2924:2961   */\n      mstore\n        /* \"#utility.yul\":2841:2967   */\n      pop\n      pop\n      jump\t// out\n        /* \"#utility.yul\":2973:3211   */\n    tag_29:\n        /* \"#utility.yul\":3074:3078   */\n      0x00\n        /* \"#utility.yul\":3112:3114   */\n      0x20\n        /* \"#utility.yul\":3101:3110   */\n      dup3\n        /* \"#utility.yul\":3097:3115   */\n      add\n        /* \"#utility.yul\":3089:3115   */\n      swap1\n      pop\n        /* \"#utility.yul\":3125:3204   */\n      tag_151\n        /* \"#utility.yul\":3201:3202   */\n      0x00\n        /* \"#utility.yul\":3190:3199   */\n      dup4\n        /* \"#utility.yul\":3186:3203   */\n      add\n        /* \"#utility.yul\":3177:3183   */\n      dup5\n        /* \"#utility.yul\":3125:3204   */\n      tag_107\n      jump\t// in\n    tag_151:\n        /* \"#utility.yul\":2973:3211   */\n      swap3\n      swap2\n      pop\n      pop\n      jump\t// out\n        /* \"#utility.yul\":3217:3310   */\n    tag_108:\n        /* \"#utility.yul\":3253:3260   */\n      0x00\n        /* \"#utility.yul\":3293:3303   */\n      0xffffffff\n        /* \"#utility.yul\":3286:3291   */\n      dup3\n        /* \"#utility.yul\":3282:3304   */\n      and\n        /* \"#utility.yul\":3271:3304   */\n      swap1\n      pop\n        /* \"#utility.yul\":3217:3310   */\n      swap2\n      swap1\n      pop\n      jump\t// out\n        /* \"#utility.yul\":3316:3439   */\n    tag_109:\n        /* \"#utility.yul\":3409:3432   */\n      tag_154\n        /* \"#utility.yul\":3426:3431   */\n      dup2\n        /* \"#utility.yul\":3409:3432   */\n      tag_108\n      jump\t// in\n    tag_154:\n        /* \"#utility.yul\":3404:3407   */\n      dup3\n        /* \"#utility.yul\":3397:3433   */\n      mstore\n        /* \"#utility.yul\":3316:3439   */\n      pop\n      pop\n      jump\t// out\n        /* \"#utility.yul\":3445:3679   */\n    tag_38:\n        /* \"#utility.yul\":3544:3548   */\n      0x00\n        /* \"#utility.yul\":3582:3584   */\n      0x20\n        /* \"#utility.yul\":3571:3580   */\n      dup3\n        /* \"#utility.yul\":3567:3585   */\n      add\n        /* \"#utility.yul\":3559:3585   */\n      swap1\n      pop\n        /* \"#utility.yul\":3595:3672   */\n      tag_156\n        /* \"#utility.yul\":3669:3670   */\n      0x00\n        /* \"#utility.yul\":3658:3667   */\n      dup4\n        /* \"#utility.yul\":3654:3671   */\n      add\n        /* \"#utility.yul\":3645:3651   */\n      dup5\n        /* \"#utility.yul\":3595:3672   */\n      tag_109\n      jump\t// in\n    tag_156:\n        /* \"#utility.yul\":3445:3679   */\n      swap3\n      swap2\n      pop\n      pop\n      jump\t// out\n        /* \"#utility.yul\":3685:3805   */\n    tag_110:\n        /* \"#utility.yul\":3757:3780   */\n      tag_158\n        /* \"#utility.yul\":3774:3779   */\n      dup2\n        /* \"#utility.yul\":3757:3780   */\n      tag_108\n      jump\t// in\n    tag_158:\n        /* \"#utility.yul\":3750:3755   */\n      dup2\n        /* \"#utility.yul\":3747:3781   */\n      eq\n        /* \"#utility.yul\":3737:3799   */\n      tag_159\n      jumpi\n        /* \"#utility.yul\":3795:3796   */\n      0x00\n        /* \"#utility.yul\":3792:3793   */\n      dup1\n        /* \"#utility.yul\":3785:3797   */\n      revert\n        /* \"#utility.yul\":3737:3799   */\n    tag_159:\n        /* \"#utility.yul\":3685:3805   */\n      pop\n      jump\t// out\n        /* \"#utility.yul\":3811:3948   */\n    tag_111:\n        /* \"#utility.yul\":3856:3861   */\n      0x00\n        /* \"#utility.yul\":3894:3900   */\n      dup2\n        /* \"#utility.yul\":3881:3901   */\n      calldataload\n        /* \"#utility.yul\":3872:3901   */\n      swap1\n      pop\n        /* \"#utility.yul\":3910:3942   */\n      tag_161\n        /* \"#utility.yul\":3936:3941   */\n      dup2\n        /* \"#utility.yul\":3910:3942   */\n      tag_110\n      jump\t// in\n    tag_161:\n        /* \"#utility.yul\":3811:3948   */\n      swap3\n      swap2\n      pop\n      pop\n      jump\t// out\n        /* \"#utility.yul\":3954:4426   */\n    tag_45:\n        /* \"#utility.yul\":4021:4027   */\n      0x00\n        /* \"#utility.yul\":4029:4035   */\n      dup1\n        /* \"#utility.yul\":4078:4080   */\n      0x40\n        /* \"#utility.yul\":4066:4075   */\n      dup4\n        /* \"#utility.yul\":4057:4064   */\n      dup6\n        /* \"#utility.yul\":4053:4076   */\n      sub\n        /* \"#utility.yul\":4049:4081   */\n      slt\n        /* \"#utility.yul\":4046:4165   */\n      iszero\n      tag_163\n      jumpi\n        /* \"#utility.yul\":4084:4163   */\n      tag_164\n      tag_98\n      jump\t// in\n    tag_164:\n        /* \"#utility.yul\":4046:4165   */\n    tag_163:\n        /* \"#utility.yul\":4204:4205   */\n      0x00\n        /* \"#utility.yul\":4229:4282   */\n      tag_165\n        /* \"#utility.yul\":4274:4281   */\n      dup6\n        /* \"#utility.yul\":4265:4271   */\n      dup3\n        /* \"#utility.yul\":4254:4263   */\n      dup7\n        /* \"#utility.yul\":4250:4272   */\n      add\n        /* \"#utility.yul\":4229:4282   */\n      tag_102\n      jump\t// in\n    tag_165:\n        /* \"#utility.yul\":4219:4282   */\n      swap3\n      pop\n        /* \"#utility.yul\":4175:4292   */\n      pop\n        /* \"#utility.yul\":4331:4333   */\n      0x20\n        /* \"#utility.yul\":4357:4409   */\n      tag_166\n        /* \"#utility.yul\":4401:4408   */\n      dup6\n        /* \"#utility.yul\":4392:4398   */\n      dup3\n        /* \"#utility.yul\":4381:4390   */\n      dup7\n        /* \"#utility.yul\":4377:4399   */\n      add\n        /* \"#utility.yul\":4357:4409   */\n      tag_111\n      jump\t// in\n    tag_166:\n        /* \"#utility.yul\":4347:4409   */\n      swap2\n      pop\n        /* \"#utility.yul\":4302:4419   */\n      pop\n        /* \"#utility.yul\":3954:4426   */\n      swap3\n      pop\n      swap3\n      swap1\n      pop\n      jump\t// out\n        /* \"#utility.yul\":4432:4612   */\n    tag_112:\n        /* \"#utility.yul\":4480:4557   */\n      0x4e487b7100000000000000000000000000000000000000000000000000000000\n        /* \"#utility.yul\":4477:4478   */\n      0x00\n        /* \"#utility.yul\":4470:4558   */\n      mstore\n        /* \"#utility.yul\":4577:4581   */\n      0x11\n        /* \"#utility.yul\":4574:4575   */\n      0x04\n        /* \"#utility.yul\":4567:4582   */\n      mstore\n        /* \"#utility.yul\":4601:4605   */\n      0x24\n        /* \"#utility.yul\":4598:4599   */\n      0x00\n        /* \"#utility.yul\":4591:4606   */\n      revert\n        /* \"#utility.yul\":4618:4889   */\n    tag_63:\n        /* \"#utility.yul\":4656:4663   */\n      0x00\n        /* \"#utility.yul\":4679:4697   */\n      tag_169\n        /* \"#utility.yul\":4695:4696   */\n      dup3\n        /* \"#utility.yul\":4679:4697   */\n      tag_103\n      jump\t// in\n    tag_169:\n        /* \"#utility.yul\":4674:4697   */\n      swap2\n      pop\n        /* \"#utility.yul\":4711:4729   */\n      tag_170\n        /* \"#utility.yul\":4727:4728   */\n      dup4\n        /* \"#utility.yul\":4711:4729   */\n      tag_103\n      jump\t// in\n    tag_170:\n        /* \"#utility.yul\":4706:4729   */\n      swap3\n      pop\n        /* \"#utility.yul\":4764:4765   */\n      dup3\n        /* \"#utility.yul\":4761:4762   */\n      dup3\n        /* \"#utility.yul\":4757:4766   */\n      mul\n        /* \"#utility.yul\":4786:4814   */\n      tag_171\n        /* \"#utility.yul\":4802:4813   */\n      dup2\n        /* \"#utility.yul\":4786:4814   */\n      tag_103\n      jump\t// in\n    tag_171:\n        /* \"#utility.yul\":4775:4814   */\n      swap2\n      pop\n        /* \"#utility.yul\":4846:4857   */\n      dup1\n        /* \"#utility.yul\":4837:4844   */\n      dup3\n        /* \"#utility.yul\":4834:4858   */\n      eq\n        /* \"#utility.yul\":4824:4882   */\n      tag_172\n      jumpi\n        /* \"#utility.yul\":4862:4880   */\n      tag_173\n      tag_112\n      jump\t// in\n    tag_173:\n        /* \"#utility.yul\":4824:4882   */\n    tag_172:\n        /* \"#utility.yul\":4664:4889   */\n      pop\n        /* \"#utility.yul\":4618:4889   */\n      swap3\n      swap2\n      pop\n      pop\n      jump\t// out\n        /* \"#utility.yul\":4895:5086   */\n    tag_65:\n        /* \"#utility.yul\":4935:4938   */\n      0x00\n        /* \"#utility.yul\":4954:4974   */\n      tag_175\n        /* \"#utility.yul\":4972:4973   */\n      dup3\n        /* \"#utility.yul\":4954:4974   */\n      tag_100\n      jump\t// in\n    tag_175:\n        /* \"#utility.yul\":4949:4974   */\n      swap2\n      pop\n        /* \"#utility.yul\":4988:5008   */\n      tag_176\n        /* \"#utility.yul\":5006:5007   */\n      dup4\n        /* \"#utility.yul\":4988:5008   */\n      tag_100\n      jump\t// in\n    tag_176:\n        /* \"#utility.yul\":4983:5008   */\n      swap3\n      pop\n        /* \"#utility.yul\":5031:5032   */\n      dup3\n        /* \"#utility.yul\":5028:5029   */\n      dup3\n        /* \"#utility.yul\":5024:5033   */\n      add\n        /* \"#utility.yul\":5017:5033   */\n      swap1\n      pop\n        /* \"#utility.yul\":5052:5055   */\n      dup1\n        /* \"#utility.yul\":5049:5050   */\n      dup3\n        /* \"#utility.yul\":5046:5056   */\n      gt\n        /* \"#utility.yul\":5043:5079   */\n      iszero\n      tag_177\n      jumpi\n        /* \"#utility.yul\":5059:5077   */\n      tag_178\n      tag_112\n      jump\t// in\n    tag_178:\n        /* \"#utility.yul\":5043:5079   */\n    tag_177:\n        /* \"#utility.yul\":4895:5086   */\n      swap3\n      swap2\n      pop\n      pop\n      jump\t// out\n        /* \"#utility.yul\":5092:5502   */\n    tag_68:\n        /* \"#utility.yul\":5132:5139   */\n      0x00\n        /* \"#utility.yul\":5155:5175   */\n      tag_180\n        /* \"#utility.yul\":5173:5174   */\n      dup3\n        /* \"#utility.yul\":5155:5175   */\n      tag_100\n      jump\t// in\n    tag_180:\n        /* \"#utility.yul\":5150:5175   */\n      swap2\n      pop\n        /* \"#utility.yul\":5189:5209   */\n      tag_181\n        /* \"#utility.yul\":5207:5208   */\n      dup4\n        /* \"#utility.yul\":5189:5209   */\n      tag_100\n      jump\t// in\n    tag_181:\n        /* \"#utility.yul\":5184:5209   */\n      swap3\n      pop\n        /* \"#utility.yul\":5244:5245   */\n      dup3\n        /* \"#utility.yul\":5241:5242   */\n      dup3\n        /* \"#utility.yul\":5237:5246   */\n      mul\n        /* \"#utility.yul\":5266:5296   */\n      tag_182\n        /* \"#utility.yul\":5284:5295   */\n      dup2\n        /* \"#utility.yul\":5266:5296   */\n      tag_100\n      jump\t// in\n    tag_182:\n        /* \"#utility.yul\":5255:5296   */\n      swap2\n      pop\n        /* \"#utility.yul\":5445:5446   */\n      dup3\n        /* \"#utility.yul\":5436:5443   */\n      dup3\n        /* \"#utility.yul\":5432:5447   */\n      div\n        /* \"#utility.yul\":5429:5430   */\n      dup5\n        /* \"#utility.yul\":5426:5448   */\n      eq\n        /* \"#utility.yul\":5406:5407   */\n      dup4\n        /* \"#utility.yul\":5399:5408   */\n      iszero\n        /* \"#utility.yul\":5379:5462   */\n      or\n        /* \"#utility.yul\":5356:5495   */\n      tag_183\n      jumpi\n        /* \"#utility.yul\":5475:5493   */\n      tag_184\n      tag_112\n      jump\t// in\n    tag_184:\n        /* \"#utility.yul\":5356:5495   */\n    tag_183:\n        /* \"#utility.yul\":5140:5502   */\n      pop\n        /* \"#utility.yul\":5092:5502   */\n      swap3\n      swap2\n      pop\n      pop\n      jump\t// out\n\n    auxdata: 0xa2646970667358221220b10dbe12de7043ddd791ae311664d8ff64084ec03774c8ebd89f225331a77b9a64736f6c63430008120033\n}\n",
				"bytecode": {
					"linkReferences": {},
					"object": "610833610053600b82828239805160001a607314610046577f4e487b7100000000000000000000000000000000000000000000000000000000600052600060045260246000fd5b30600052607381538281f3fe73000000000000000000000000000000000000000030146080604052600436106100a85760003560e01c80635d2029f1116100705780635d2029f11461019d5780638de97f4f146101cd578063a5858693146101fd578063b52b66591461022d578063e1b30ab71461025d576100a8565b80630317f435146100ad5780633499a7ea146100dd57806334a51d0f1461010d57806355d6ed431461013d57806356e3df971461016d575b600080fd5b6100c760048036038101906100c29190610528565b61028d565b6040516100d49190610571565b60405180910390f35b6100f760048036038101906100f291906105b8565b61029e565b6040516101049190610571565b60405180910390f35b610127600480360381019061012291906105f8565b6102ed565b604051610134919061065a565b60405180910390f35b610157600480360381019061015291906105f8565b61034c565b604051610164919061065a565b60405180910390f35b61018760048036038101906101829190610528565b6103ab565b6040516101949190610694565b60405180910390f35b6101b760048036038101906101b291906105b8565b6103bb565b6040516101c49190610571565b60405180910390f35b6101e760048036038101906101e291906106db565b61040a565b6040516101f4919061065a565b60405180910390f35b610217600480360381019061021291906105b8565b610424565b6040516102249190610571565b60405180910390f35b610247600480360381019061024291906105b8565b610473565b604051610254919061065a565b60405180910390f35b610277600480360381019061027291906105f8565b61048e565b604051610284919061065a565b60405180910390f35b600060ff60f883901c169050919050565b6000806004905060006003846102b4919061074a565b60ff16905060ff6008600183856102cb9190610787565b6102d59190610787565b6102df91906107bb565b86901c169250505092915050565b60008060049050600060038561030391906107bb565b905060006008600083856103179190610787565b6103219190610787565b61032b91906107bb565b90508060ff901b1987169650808560ff16901b871793505050509392505050565b60008060049050600060038561036291906107bb565b905060006008600283856103769190610787565b6103809190610787565b61038a91906107bb565b90508060ff901b1987169650808560ff16901b871793505050509392505050565b600063ffffffff82169050919050565b6000806004905060006003846103d1919061074a565b60ff16905060ff6008600083856103e89190610787565b6103f29190610787565b6103fc91906107bb565b86901c169250505092915050565b60008163ffffffff1660048085901c901b17905092915050565b60008060049050600060038461043a919061074a565b60ff16905060ff6008600283856104519190610787565b61045b9190610787565b61046591906107bb565b86901c169250505092915050565b600060f88260ff16901b60088085901b901c17905092915050565b6000806004905060006003856104a491906107bb565b905060006008600183856104b89190610787565b6104c29190610787565b6104cc91906107bb565b90508060ff901b1987169650808560ff16901b871793505050509392505050565b600080fd5b6000819050919050565b610505816104f2565b811461051057600080fd5b50565b600081359050610522816104fc565b92915050565b60006020828403121561053e5761053d6104ed565b5b600061054c84828501610513565b91505092915050565b600060ff82169050919050565b61056b81610555565b82525050565b60006020820190506105866000830184610562565b92915050565b61059581610555565b81146105a057600080fd5b50565b6000813590506105b28161058c565b92915050565b600080604083850312156105cf576105ce6104ed565b5b60006105dd85828601610513565b92505060206105ee858286016105a3565b9150509250929050565b600080600060608486031215610611576106106104ed565b5b600061061f86828701610513565b935050602061063086828701610513565b9250506040610641868287016105a3565b9150509250925092565b610654816104f2565b82525050565b600060208201905061066f600083018461064b565b92915050565b600063ffffffff82169050919050565b61068e81610675565b82525050565b60006020820190506106a96000830184610685565b92915050565b6106b881610675565b81146106c357600080fd5b50565b6000813590506106d5816106af565b92915050565b600080604083850312156106f2576106f16104ed565b5b600061070085828601610513565b9250506020610711858286016106c6565b9150509250929050565b7f4e487b7100000000000000000000000000000000000000000000000000000000600052601160045260246000fd5b600061075582610555565b915061076083610555565b925082820261076e81610555565b91508082146107805761077f61071b565b5b5092915050565b6000610792826104f2565b915061079d836104f2565b92508282019050808211156107b5576107b461071b565b5b92915050565b60006107c6826104f2565b91506107d1836104f2565b92508282026107df816104f2565b915082820484148315176107f6576107f561071b565b5b509291505056fea2646970667358221220b10dbe12de7043ddd791ae311664d8ff64084ec03774c8ebd89f225331a77b9a64736f6c63430008120033",
					"opcodes": "PUSH2 0x833 PUSH2 0x53 PUSH1 0xB DUP3 DUP3 DUP3 CODECOPY DUP1 MLOAD PUSH1 0x0 BYTE PUSH1 0x73 EQ PUSH2 0x46 JUMPI PUSH32 0x4E487B7100000000000000000000000000000000000000000000000000000000 PUSH1 0x0 MSTORE PUSH1 0x0 PUSH1 0x4 MSTORE PUSH1 0x24 PUSH1 0x0 REVERT JUMPDEST ADDRESS PUSH1 0x0 MSTORE PUSH1 0x73 DUP2 MSTORE8 DUP3 DUP2 RETURN INVALID PUSH20 0x0 ADDRESS EQ PUSH1 0x80 PUSH1 0x40 MSTORE PUSH1 0x4 CALLDATASIZE LT PUSH2 0xA8 JUMPI PUSH1 0x0 CALLDATALOAD PUSH1 0xE0 SHR DUP1 PUSH4 0x5D2029F1 GT PUSH2 0x70 JUMPI DUP1 PUSH4 0x5D2029F1 EQ PUSH2 0x19D JUMPI DUP1 PUSH4 0x8DE97F4F EQ PUSH2 0x1CD JUMPI DUP1 PUSH4 0xA5858693 EQ PUSH2 0x1FD JUMPI DUP1 PUSH4 0xB52B6659 EQ PUSH2 0x22D JUMPI DUP1 PUSH4 0xE1B30AB7 EQ PUSH2 0x25D JUMPI PUSH2 0xA8 JUMP JUMPDEST DUP1 PUSH4 0x317F435 EQ PUSH2 0xAD JUMPI DUP1 PUSH4 0x3499A7EA EQ PUSH2 0xDD JUMPI DUP1 PUSH4 0x34A51D0F EQ PUSH2 0x10D JUMPI DUP1 PUSH4 0x55D6ED43 EQ PUSH2 0x13D JUMPI DUP1 PUSH4 0x56E3DF97 EQ PUSH2 0x16D JUMPI JUMPDEST PUSH1 0x0 DUP1 REVERT JUMPDEST PUSH2 0xC7 PUSH1 0x4 DUP1 CALLDATASIZE SUB DUP2 ADD SWAP1 PUSH2 0xC2 SWAP2 SWAP1 PUSH2 0x528 JUMP JUMPDEST PUSH2 0x28D JUMP JUMPDEST PUSH1 0x40 MLOAD PUSH2 0xD4 SWAP2 SWAP1 PUSH2 0x571 JUMP JUMPDEST PUSH1 0x40 MLOAD DUP1 SWAP2 SUB SWAP1 RETURN JUMPDEST PUSH2 0xF7 PUSH1 0x4 DUP1 CALLDATASIZE SUB DUP2 ADD SWAP1 PUSH2 0xF2 SWAP2 SWAP1 PUSH2 0x5B8 JUMP JUMPDEST PUSH2 0x29E JUMP JUMPDEST PUSH1 0x40 MLOAD PUSH2 0x104 SWAP2 SWAP1 PUSH2 0x571 JUMP JUMPDEST PUSH1 0x40 MLOAD DUP1 SWAP2 SUB SWAP1 RETURN JUMPDEST PUSH2 0x127 PUSH1 0x4 DUP1 CALLDATASIZE SUB DUP2 ADD SWAP1 PUSH2 0x122 SWAP2 SWAP1 PUSH2 0x5F8 JUMP JUMPDEST PUSH2 0x2ED JUMP JUMPDEST PUSH1 0x40 MLOAD PUSH2 0x134 SWAP2 SWAP1 PUSH2 0x65A JUMP JUMPDEST PUSH1 0x40 MLOAD DUP1 SWAP2 SUB SWAP1 RETURN JUMPDEST PUSH2 0x157 PUSH1 0x4 DUP1 CALLDATASIZE SUB DUP2 ADD SWAP1 PUSH2 0x152 SWAP2 SWAP1 PUSH2 0x5F8 JUMP JUMPDEST PUSH2 0x34C JUMP JUMPDEST PUSH1 0x40 MLOAD PUSH2 0x164 SWAP2 SWAP1 PUSH2 0x65A JUMP JUMPDEST PUSH1 0x40 MLOAD DUP1 SWAP2 SUB SWAP1 RETURN JUMPDEST PUSH2 0x187 PUSH1 0x4 DUP1 CALLDATASIZE SUB DUP2 ADD SWAP1 PUSH2 0x182 SWAP2 SWAP1 PUSH2 0x528 JUMP JUMPDEST PUSH2 0x3AB JUMP JUMPDEST PUSH1 0x40 MLOAD PUSH2 0x194 SWAP2 SWAP1 PUSH2 0x694 JUMP JUMPDEST PUSH1 0x40 MLOAD DUP1 SWAP2 SUB SWAP1 RETURN JUMPDEST PUSH2 0x1B7 PUSH1 0x4 DUP1 CALLDATASIZE SUB DUP2 ADD SWAP1 PUSH2 0x1B2 SWAP2 SWAP1 PUSH2 0x5B8 JUMP JUMPDEST PUSH2 0x3BB JUMP JUMPDEST PUSH1 0x40 MLOAD PUSH2 0x1C4 SWAP2 SWAP1 PUSH2 0x571 JUMP JUMPDEST PUSH1 0x40 MLOAD DUP1 SWAP2 SUB SWAP1 RETURN JUMPDEST PUSH2 0x1E7 PUSH1 0x4 DUP1 CALLDATASIZE SUB DUP2 ADD SWAP1 PUSH2 0x1E2 SWAP2 SWAP1 PUSH2 0x6DB JUMP JUMPDEST PUSH2 0x40A JUMP JUMPDEST PUSH1 0x40 MLOAD PUSH2 0x1F4 SWAP2 SWAP1 PUSH2 0x65A JUMP JUMPDEST PUSH1 0x40 MLOAD DUP1 SWAP2 SUB SWAP1 RETURN JUMPDEST PUSH2 0x217 PUSH1 0x4 DUP1 CALLDATASIZE SUB DUP2 ADD SWAP1 PUSH2 0x212 SWAP2 SWAP1 PUSH2 0x5B8 JUMP JUMPDEST PUSH2 0x424 JUMP JUMPDEST PUSH1 0x40 MLOAD PUSH2 0x224 SWAP2 SWAP1 PUSH2 0x571 JUMP JUMPDEST PUSH1 0x40 MLOAD DUP1 SWAP2 SUB SWAP1 RETURN JUMPDEST PUSH2 0x247 PUSH1 0x4 DUP1 CALLDATASIZE SUB DUP2 ADD SWAP1 PUSH2 0x242 SWAP2 SWAP1 PUSH2 0x5B8 JUMP JUMPDEST PUSH2 0x473 JUMP JUMPDEST PUSH1 0x40 MLOAD PUSH2 0x254 SWAP2 SWAP1 PUSH2 0x65A JUMP JUMPDEST PUSH1 0x40 MLOAD DUP1 SWAP2 SUB SWAP1 RETURN JUMPDEST PUSH2 0x277 PUSH1 0x4 DUP1 CALLDATASIZE SUB DUP2 ADD SWAP1 PUSH2 0x272 SWAP2 SWAP1 PUSH2 0x5F8 JUMP JUMPDEST PUSH2 0x48E JUMP JUMPDEST PUSH1 0x40 MLOAD PUSH2 0x284 SWAP2 SWAP1 PUSH2 0x65A JUMP JUMPDEST PUSH1 0x40 MLOAD DUP1 SWAP2 SUB SWAP1 RETURN JUMPDEST PUSH1 0x0 PUSH1 0xFF PUSH1 0xF8 DUP4 SWAP1 SHR AND SWAP1 POP SWAP2 SWAP1 POP JUMP JUMPDEST PUSH1 0x0 DUP1 PUSH1 0x4 SWAP1 POP PUSH1 0x0 PUSH1 0x3 DUP5 PUSH2 0x2B4 SWAP2 SWAP1 PUSH2 0x74A JUMP JUMPDEST PUSH1 0xFF AND SWAP1 POP PUSH1 0xFF PUSH1 0x8 PUSH1 0x1 DUP4 DUP6 PUSH2 0x2CB SWAP2 SWAP1 PUSH2 0x787 JUMP JUMPDEST PUSH2 0x2D5 SWAP2 SWAP1 PUSH2 0x787 JUMP JUMPDEST PUSH2 0x2DF SWAP2 SWAP1 PUSH2 0x7BB JUMP JUMPDEST DUP7 SWAP1 SHR AND SWAP3 POP POP POP SWAP3 SWAP2 POP POP JUMP JUMPDEST PUSH1 0x0 DUP1 PUSH1 0x4 SWAP1 POP PUSH1 0x0 PUSH1 0x3 DUP6 PUSH2 0x303 SWAP2 SWAP1 PUSH2 0x7BB JUMP JUMPDEST SWAP1 POP PUSH1 0x0 PUSH1 0x8 PUSH1 0x0 DUP4 DUP6 PUSH2 0x317 SWAP2 SWAP1 PUSH2 0x787 JUMP JUMPDEST PUSH2 0x321 SWAP2 SWAP1 PUSH2 0x787 JUMP JUMPDEST PUSH2 0x32B SWAP2 SWAP1 PUSH2 0x7BB JUMP JUMPDEST SWAP1 POP DUP1 PUSH1 0xFF SWAP1 SHL NOT DUP8 AND SWAP7 POP DUP1 DUP6 PUSH1 0xFF AND SWAP1 SHL DUP8 OR SWAP4 POP POP POP POP SWAP4 SWAP3 POP POP POP JUMP JUMPDEST PUSH1 0x0 DUP1 PUSH1 0x4 SWAP1 POP PUSH1 0x0 PUSH1 0x3 DUP6 PUSH2 0x362 SWAP2 SWAP1 PUSH2 0x7BB JUMP JUMPDEST SWAP1 POP PUSH1 0x0 PUSH1 0x8 PUSH1 0x2 DUP4 DUP6 PUSH2 0x376 SWAP2 SWAP1 PUSH2 0x787 JUMP JUMPDEST PUSH2 0x380 SWAP2 SWAP1 PUSH2 0x787 JUMP JUMPDEST PUSH2 0x38A SWAP2 SWAP1 PUSH2 0x7BB JUMP JUMPDEST SWAP1 POP DUP1 PUSH1 0xFF SWAP1 SHL NOT DUP8 AND SWAP7 POP DUP1 DUP6 PUSH1 0xFF AND SWAP1 SHL DUP8 OR SWAP4 POP POP POP POP SWAP4 SWAP3 POP POP POP JUMP JUMPDEST PUSH1 0x0 PUSH4 0xFFFFFFFF DUP3 AND SWAP1 POP SWAP2 SWAP1 POP JUMP JUMPDEST PUSH1 0x0 DUP1 PUSH1 0x4 SWAP1 POP PUSH1 0x0 PUSH1 0x3 DUP5 PUSH2 0x3D1 SWAP2 SWAP1 PUSH2 0x74A JUMP JUMPDEST PUSH1 0xFF AND SWAP1 POP PUSH1 0xFF PUSH1 0x8 PUSH1 0x0 DUP4 DUP6 PUSH2 0x3E8 SWAP2 SWAP1 PUSH2 0x787 JUMP JUMPDEST PUSH2 0x3F2 SWAP2 SWAP1 PUSH2 0x787 JUMP JUMPDEST PUSH2 0x3FC SWAP2 SWAP1 PUSH2 0x7BB JUMP JUMPDEST DUP7 SWAP1 SHR AND SWAP3 POP POP POP SWAP3 SWAP2 POP POP JUMP JUMPDEST PUSH1 0x0 DUP2 PUSH4 0xFFFFFFFF AND PUSH1 0x4 DUP1 DUP6 SWAP1 SHR SWAP1 SHL OR SWAP1 POP SWAP3 SWAP2 POP POP JUMP JUMPDEST PUSH1 0x0 DUP1 PUSH1 0x4 SWAP1 POP PUSH1 0x0 PUSH1 0x3 DUP5 PUSH2 0x43A SWAP2 SWAP1 PUSH2 0x74A JUMP JUMPDEST PUSH1 0xFF AND SWAP1 POP PUSH1 0xFF PUSH1 0x8 PUSH1 0x2 DUP4 DUP6 PUSH2 0x451 SWAP2 SWAP1 PUSH2 0x787 JUMP JUMPDEST PUSH2 0x45B SWAP2 SWAP1 PUSH2 0x787 JUMP JUMPDEST PUSH2 0x465 SWAP2 SWAP1 PUSH2 0x7BB JUMP JUMPDEST DUP7 SWAP1 SHR AND SWAP3 POP POP POP SWAP3 SWAP2 POP POP JUMP JUMPDEST PUSH1 0x0 PUSH1 0xF8 DUP3 PUSH1 0xFF AND SWAP1 SHL PUSH1 0x8 DUP1 DUP6 SWAP1 SHL SWAP1 SHR OR SWAP1 POP SWAP3 SWAP2 POP POP JUMP JUMPDEST PUSH1 0x0 DUP1 PUSH1 0x4 SWAP1 POP PUSH1 0x0 PUSH1 0x3 DUP6 PUSH2 0x4A4 SWAP2 SWAP1 PUSH2 0x7BB JUMP JUMPDEST SWAP1 POP PUSH1 0x0 PUSH1 0x8 PUSH1 0x1 DUP4 DUP6 PUSH2 0x4B8 SWAP2 SWAP1 PUSH2 0x787 JUMP JUMPDEST PUSH2 0x4C2 SWAP2 SWAP1 PUSH2 0x787 JUMP JUMPDEST PUSH2 0x4CC SWAP2 SWAP1 PUSH2 0x7BB JUMP JUMPDEST SWAP1 POP DUP1 PUSH1 0xFF SWAP1 SHL NOT DUP8 AND SWAP7 POP DUP1 DUP6 PUSH1 0xFF AND SWAP1 SHL DUP8 OR SWAP4 POP POP POP POP SWAP4 SWAP3 POP POP POP JUMP JUMPDEST PUSH1 0x0 DUP1 REVERT JUMPDEST PUSH1 0x0 DUP2 SWAP1 POP SWAP2 SWAP1 POP JUMP JUMPDEST PUSH2 0x505 DUP2 PUSH2 0x4F2 JUMP JUMPDEST DUP2 EQ PUSH2 0x510 JUMPI PUSH1 0x0 DUP1 REVERT JUMPDEST POP JUMP JUMPDEST PUSH1 0x0 DUP2 CALLDATALOAD SWAP1 POP PUSH2 0x522 DUP2 PUSH2 0x4FC JUMP JUMPDEST SWAP3 SWAP2 POP POP JUMP JUMPDEST PUSH1 0x0 PUSH1 0x20 DUP3 DUP5 SUB SLT ISZERO PUSH2 0x53E JUMPI PUSH2 0x53D PUSH2 0x4ED JUMP JUMPDEST JUMPDEST PUSH1 0x0 PUSH2 0x54C DUP5 DUP3 DUP6 ADD PUSH2 0x513 JUMP JUMPDEST SWAP2 POP POP SWAP3 SWAP2 POP POP JUMP JUMPDEST PUSH1 0x0 PUSH1 0xFF DUP3 AND SWAP1 POP SWAP2 SWAP1 POP JUMP JUMPDEST PUSH2 0x56B DUP2 PUSH2 0x555 JUMP JUMPDEST DUP3 MSTORE POP POP JUMP JUMPDEST PUSH1 0x0 PUSH1 0x20 DUP3 ADD SWAP1 POP PUSH2 0x586 PUSH1 0x0 DUP4 ADD DUP5 PUSH2 0x562 JUMP JUMPDEST SWAP3 SWAP2 POP POP JUMP JUMPDEST PUSH2 0x595 DUP2 PUSH2 0x555 JUMP JUMPDEST DUP2 EQ PUSH2 0x5A0 JUMPI PUSH1 0x0 DUP1 REVERT JUMPDEST POP JUMP JUMPDEST PUSH1 0x0 DUP2 CALLDATALOAD SWAP1 POP PUSH2 0x5B2 DUP2 PUSH2 0x58C JUMP JUMPDEST SWAP3 SWAP2 POP POP JUMP JUMPDEST PUSH1 0x0 DUP1 PUSH1 0x40 DUP4 DUP6 SUB SLT ISZERO PUSH2 0x5CF JUMPI PUSH2 0x5CE PUSH2 0x4ED JUMP JUMPDEST JUMPDEST PUSH1 0x0 PUSH2 0x5DD DUP6 DUP3 DUP7 ADD PUSH2 0x513 JUMP JUMPDEST SWAP3 POP POP PUSH1 0x20 PUSH2 0x5EE DUP6 DUP3 DUP7 ADD PUSH2 0x5A3 JUMP JUMPDEST SWAP2 POP POP SWAP3 POP SWAP3 SWAP1 POP JUMP JUMPDEST PUSH1 0x0 DUP1 PUSH1 0x0 PUSH1 0x60 DUP5 DUP7 SUB SLT ISZERO PUSH2 0x611 JUMPI PUSH2 0x610 PUSH2 0x4ED JUMP JUMPDEST JUMPDEST PUSH1 0x0 PUSH2 0x61F DUP7 DUP3 DUP8 ADD PUSH2 0x513 JUMP JUMPDEST SWAP4 POP POP PUSH1 0x20 PUSH2 0x630 DUP7 DUP3 DUP8 ADD PUSH2 0x513 JUMP JUMPDEST SWAP3 POP POP PUSH1 0x40 PUSH2 0x641 DUP7 DUP3 DUP8 ADD PUSH2 0x5A3 JUMP JUMPDEST SWAP2 POP POP SWAP3 POP SWAP3 POP SWAP3 JUMP JUMPDEST PUSH2 0x654 DUP2 PUSH2 0x4F2 JUMP JUMPDEST DUP3 MSTORE POP POP JUMP JUMPDEST PUSH1 0x0 PUSH1 0x20 DUP3 ADD SWAP1 POP PUSH2 0x66F PUSH1 0x0 DUP4 ADD DUP5 PUSH2 0x64B JUMP JUMPDEST SWAP3 SWAP2 POP POP JUMP JUMPDEST PUSH1 0x0 PUSH4 0xFFFFFFFF DUP3 AND SWAP1 POP SWAP2 SWAP1 POP JUMP JUMPDEST PUSH2 0x68E DUP2 PUSH2 0x675 JUMP JUMPDEST DUP3 MSTORE POP POP JUMP JUMPDEST PUSH1 0x0 PUSH1 0x20 DUP3 ADD SWAP1 POP PUSH2 0x6A9 PUSH1 0x0 DUP4 ADD DUP5 PUSH2 0x685 JUMP JUMPDEST SWAP3 SWAP2 POP POP JUMP JUMPDEST PUSH2 0x6B8 DUP2 PUSH2 0x675 JUMP JUMPDEST DUP2 EQ PUSH2 0x6C3 JUMPI PUSH1 0x0 DUP1 REVERT JUMPDEST POP JUMP JUMPDEST PUSH1 0x0 DUP2 CALLDATALOAD SWAP1 POP PUSH2 0x6D5 DUP2 PUSH2 0x6AF JUMP JUMPDEST SWAP3 SWAP2 POP POP JUMP JUMPDEST PUSH1 0x0 DUP1 PUSH1 0x40 DUP4 DUP6 SUB SLT ISZERO PUSH2 0x6F2 JUMPI PUSH2 0x6F1 PUSH2 0x4ED JUMP JUMPDEST JUMPDEST PUSH1 0x0 PUSH2 0x700 DUP6 DUP3 DUP7 ADD PUSH2 0x513 JUMP JUMPDEST SWAP3 POP POP PUSH1 0x20 PUSH2 0x711 DUP6 DUP3 DUP7 ADD PUSH2 0x6C6 JUMP JUMPDEST SWAP2 POP POP SWAP3 POP SWAP3 SWAP1 POP JUMP JUMPDEST PUSH32 0x4E487B7100000000000000000000000000000000000000000000000000000000 PUSH1 0x0 MSTORE PUSH1 0x11 PUSH1 0x4 MSTORE PUSH1 0x24 PUSH1 0x0 REVERT JUMPDEST PUSH1 0x0 PUSH2 0x755 DUP3 PUSH2 0x555 JUMP JUMPDEST SWAP2 POP PUSH2 0x760 DUP4 PUSH2 0x555 JUMP JUMPDEST SWAP3 POP DUP3 DUP3 MUL PUSH2 0x76E DUP2 PUSH2 0x555 JUMP JUMPDEST SWAP2 POP DUP1 DUP3 EQ PUSH2 0x780 JUMPI PUSH2 0x77F PUSH2 0x71B JUMP JUMPDEST JUMPDEST POP SWAP3 SWAP2 POP POP JUMP JUMPDEST PUSH1 0x0 PUSH2 0x792 DUP3 PUSH2 0x4F2 JUMP JUMPDEST SWAP2 POP PUSH2 0x79D DUP4 PUSH2 0x4F2 JUMP JUMPDEST SWAP3 POP DUP3 DUP3 ADD SWAP1 POP DUP1 DUP3 GT ISZERO PUSH2 0x7B5 JUMPI PUSH2 0x7B4 PUSH2 0x71B JUMP JUMPDEST JUMPDEST SWAP3 SWAP2 POP POP JUMP JUMPDEST PUSH1 0x0 PUSH2 0x7C6 DUP3 PUSH2 0x4F2 JUMP JUMPDEST SWAP2 POP PUSH2 0x7D1 DUP4 PUSH2 0x4F2 JUMP JUMPDEST SWAP3 POP DUP3 DUP3 MUL PUSH2 0x7DF DUP2 PUSH2 0x4F2 JUMP JUMPDEST SWAP2 POP DUP3 DUP3 DIV DUP5 EQ DUP4 ISZERO OR PUSH2 0x7F6 JUMPI PUSH2 0x7F5 PUSH2 0x71B JUMP JUMPDEST JUMPDEST POP SWAP3 SWAP2 POP POP JUMP INVALID LOG2 PUSH5 0x6970667358 0x22 SLT KECCAK256 0xB1 0xD 0xBE SLT 0xDE PUSH17 0x43DDD791AE311664D8FF64084EC03774C8 0xEB 0xD8 SWAP16 0x22 MSTORE8 BALANCE 0xA7 PUSH28 0x9A64736F6C6343000812003300000000000000000000000000000000 "
				},
				"gasEstimates": {
					"creation": {
						"codeDepositCost": "419800",
						"executionCost": "480",
						"totalCost": "420280"
					},
					"external": {
						"getArcane(uint256,uint8)": "infinite",
						"getCharges(uint256)": "608",
						"getGeneration(uint256)": "687",
						"getId(uint256,uint8)": "infinite",
						"getLevel(uint256,uint8)": "infinite",
						"setArcane(uint256,uint256,uint8)": "infinite",
						"setCharges(uint256,uint8)": "infinite",
						"setGeneration(uint256,uint32)": "infinite",
						"setId(uint256,uint256,uint8)": "infinite",
						"setLevel(uint256,uint256,uint8)": "infinite"
					}
				},
				"methodIdentifiers": {
					"getArcane(uint256,uint8)": "a5858693",
					"getCharges(uint256)": "0317f435",
					"getGeneration(uint256)": "56e3df97",
					"getId(uint256,uint8)": "5d2029f1",
					"getLevel(uint256,uint8)": "3499a7ea",
					"setArcane(uint256,uint256,uint8)": "55d6ed43",
					"setCharges(uint256,uint8)": "b52b6659",
					"setGeneration(uint256,uint32)": "8de97f4f",
					"setId(uint256,uint256,uint8)": "34a51d0f",
					"setLevel(uint256,uint256,uint8)": "e1b30ab7"
				}
			},
			"storageLayout": {
				"storage": [],
				"types": null
			},
			"userdoc": {
				"kind": "user",
				"methods": {},
				"version": 1
			}
		}
	}
}