{
	"contracts/breedings/Breeding.sol": {
		"Breeding": {
			"abi": [
				{
					"inputs": [
						{
							"internalType": "uint256",
							"name": "genes1",
							"type": "uint256"
						},
						{
							"internalType": "uint256",
							"name": "genes2",
							"type": "uint256"
						},
						{
							"internalType": "uint256",
							"name": "generation",
							"type": "uint256"
						}
					],
					"name": "breading",
					"outputs": [
						{
							"internalType": "uint256",
							"name": "",
							"type": "uint256"
						}
					],
					"stateMutability": "nonpayable",
					"type": "function"
				},
				{
					"inputs": [
						{
							"internalType": "uint256",
							"name": "_genes",
							"type": "uint256"
						}
					],
					"name": "decode",
					"outputs": [
						{
							"internalType": "uint8[]",
							"name": "_traits",
							"type": "uint8[]"
						}
					],
					"stateMutability": "pure",
					"type": "function"
				},
				{
					"inputs": [
						{
							"internalType": "uint8[]",
							"name": "_traits",
							"type": "uint8[]"
						}
					],
					"name": "encode",
					"outputs": [
						{
							"internalType": "uint256",
							"name": "_genes",
							"type": "uint256"
						}
					],
					"stateMutability": "pure",
					"type": "function"
				}
			],
			"devdoc": {
				"kind": "dev",
				"methods": {
					"breading(uint256,uint256,uint256)": {
						"details": "given genes of token 1 & 2, return a genetic combination - may have a random factor",
						"params": {
							"genes1": "genes of mom",
							"genes2": "genes of dad"
						},
						"returns": {
							"_0": "the genes that are supposed to be passed down the child"
						}
					}
				},
				"version": 1
			},
			"evm": {
				"assembly": "    /* \"contracts/breedings/Breeding.sol\":101:5401  contract Breeding is IBreeding {... */\n  mstore(0x40, 0x80)\n    /* \"contracts/breedings/Breeding.sol\":167:168  1 */\n  0x01\n    /* \"contracts/breedings/Breeding.sol\":138:168  uint256 private GlobalSeed = 1 */\n  0x00\n  sstore\n    /* \"contracts/breedings/Breeding.sol\":209:211  50 */\n  0x32\n    /* \"contracts/breedings/Breeding.sol\":174:211  uint256 private randomSideWeight = 50 */\n  0x01\n  sstore\n    /* \"contracts/breedings/Breeding.sol\":250:252  10 */\n  0x0a\n    /* \"contracts/breedings/Breeding.sol\":217:252  uint256 private randomIdWeight = 10 */\n  0x02\n  sstore\n    /* \"contracts/breedings/Breeding.sol\":290:293  100 */\n  0x64\n    /* \"contracts/breedings/Breeding.sol\":258:293  uint256 private rarityPercent = 100 */\n  0x03\n  sstore\n    /* \"contracts/breedings/Breeding.sol\":357:358  9 */\n  0x09\n    /* \"contracts/breedings/Breeding.sol\":328:358  uint8 private maxBodyParts = 9 */\n  0x04\n  exp(0x0100, 0x00)\n  dup2\n  sload\n  dup2\n  0xff\n  mul\n  not\n  and\n  swap1\n  dup4\n  0xff\n  and\n  mul\n  or\n  swap1\n  sstore\n  pop\n    /* \"contracts/breedings/Breeding.sol\":458:460  37 */\n  0x25\n    /* \"contracts/breedings/Breeding.sol\":436:460  uint8 private maxId = 37 */\n  0x04\n  exp(0x0100, 0x01)\n  dup2\n  sload\n  dup2\n  0xff\n  mul\n  not\n  and\n  swap1\n  dup4\n  0xff\n  and\n  mul\n  or\n  swap1\n  sstore\n  pop\n    /* \"contracts/breedings/Breeding.sol\":101:5401  contract Breeding is IBreeding {... */\n  callvalue\n  dup1\n  iszero\n  tag_1\n  jumpi\n  0x00\n  dup1\n  revert\ntag_1:\n  pop\n  dataSize(sub_0)\n  dup1\n  dataOffset(sub_0)\n  0x00\n  codecopy\n  0x00\n  return\nstop\n\nsub_0: assembly {\n        /* \"contracts/breedings/Breeding.sol\":101:5401  contract Breeding is IBreeding {... */\n      mstore(0x40, 0x80)\n      callvalue\n      dup1\n      iszero\n      tag_1\n      jumpi\n      0x00\n      dup1\n      revert\n    tag_1:\n      pop\n      jumpi(tag_2, lt(calldatasize, 0x04))\n      shr(0xe0, calldataload(0x00))\n      dup1\n      0x1597ee44\n      eq\n      tag_3\n      jumpi\n      dup1\n      0x61a76900\n      eq\n      tag_4\n      jumpi\n      dup1\n      0xa7cc0f50\n      eq\n      tag_5\n      jumpi\n    tag_2:\n      0x00\n      dup1\n      revert\n        /* \"contracts/breedings/Breeding.sol\":487:850  function encode(uint8[] memory _traits)... */\n    tag_3:\n      tag_6\n      0x04\n      dup1\n      calldatasize\n      sub\n      dup2\n      add\n      swap1\n      tag_7\n      swap2\n      swap1\n      tag_8\n      jump\t// in\n    tag_7:\n      tag_9\n      jump\t// in\n    tag_6:\n      mload(0x40)\n      tag_10\n      swap2\n      swap1\n      tag_11\n      jump\t// in\n    tag_10:\n      mload(0x40)\n      dup1\n      swap2\n      sub\n      swap1\n      return\n        /* \"contracts/breedings/Breeding.sol\":856:1140  function decode(uint256 _genes)... */\n    tag_4:\n      tag_12\n      0x04\n      dup1\n      calldatasize\n      sub\n      dup2\n      add\n      swap1\n      tag_13\n      swap2\n      swap1\n      tag_14\n      jump\t// in\n    tag_13:\n      tag_15\n      jump\t// in\n    tag_12:\n      mload(0x40)\n      tag_16\n      swap2\n      swap1\n      tag_17\n      jump\t// in\n    tag_16:\n      mload(0x40)\n      dup1\n      swap2\n      sub\n      swap1\n      return\n        /* \"contracts/breedings/Breeding.sol\":2056:3626  function breading(... */\n    tag_5:\n      tag_18\n      0x04\n      dup1\n      calldatasize\n      sub\n      dup2\n      add\n      swap1\n      tag_19\n      swap2\n      swap1\n      tag_20\n      jump\t// in\n    tag_19:\n      tag_21\n      jump\t// in\n    tag_18:\n      mload(0x40)\n      tag_22\n      swap2\n      swap1\n      tag_11\n      jump\t// in\n    tag_22:\n      mload(0x40)\n      dup1\n      swap2\n      sub\n      swap1\n      return\n        /* \"contracts/breedings/Breeding.sol\":487:850  function encode(uint8[] memory _traits)... */\n    tag_9:\n        /* \"contracts/breedings/Breeding.sol\":572:586  uint256 _genes */\n      0x00\n        /* \"contracts/breedings/Breeding.sol\":628:637  uint256 i */\n      dup1\n        /* \"contracts/breedings/Breeding.sol\":623:820  for (uint256 i = 0; i < _traits.length; i++) {... */\n    tag_24:\n        /* \"contracts/breedings/Breeding.sol\":647:654  _traits */\n      dup3\n        /* \"contracts/breedings/Breeding.sol\":647:661  _traits.length */\n      mload\n        /* \"contracts/breedings/Breeding.sol\":643:644  i */\n      dup2\n        /* \"contracts/breedings/Breeding.sol\":643:661  i < _traits.length */\n      lt\n        /* \"contracts/breedings/Breeding.sol\":623:820  for (uint256 i = 0; i < _traits.length; i++) {... */\n      iszero\n      tag_25\n      jumpi\n        /* \"contracts/breedings/Breeding.sol\":701:702  8 */\n      0x08\n        /* \"contracts/breedings/Breeding.sol\":691:697  _genes */\n      dup3\n        /* \"contracts/breedings/Breeding.sol\":691:702  _genes << 8 */\n      swap1\n      shl\n        /* \"contracts/breedings/Breeding.sol\":682:702  _genes = _genes << 8 */\n      swap2\n      pop\n        /* \"contracts/breedings/Breeding.sol\":778:785  _traits */\n      dup3\n        /* \"contracts/breedings/Breeding.sol\":807:808  i */\n      dup2\n        /* \"contracts/breedings/Breeding.sol\":803:804  1 */\n      0x01\n        /* \"contracts/breedings/Breeding.sol\":786:793  _traits */\n      dup6\n        /* \"contracts/breedings/Breeding.sol\":786:800  _traits.length */\n      mload\n        /* \"contracts/breedings/Breeding.sol\":786:804  _traits.length - 1 */\n      tag_27\n      swap2\n      swap1\n      tag_28\n      jump\t// in\n    tag_27:\n        /* \"contracts/breedings/Breeding.sol\":786:808  _traits.length - 1 - i */\n      tag_29\n      swap2\n      swap1\n      tag_28\n      jump\t// in\n    tag_29:\n        /* \"contracts/breedings/Breeding.sol\":778:809  _traits[_traits.length - 1 - i] */\n      dup2\n      mload\n      dup2\n      lt\n      tag_30\n      jumpi\n      tag_31\n      tag_32\n      jump\t// in\n    tag_31:\n    tag_30:\n      0x20\n      mul\n      0x20\n      add\n      add\n      mload\n        /* \"contracts/breedings/Breeding.sol\":769:809  _genes | _traits[_traits.length - 1 - i] */\n      0xff\n      and\n        /* \"contracts/breedings/Breeding.sol\":769:775  _genes */\n      dup3\n        /* \"contracts/breedings/Breeding.sol\":769:809  _genes | _traits[_traits.length - 1 - i] */\n      or\n        /* \"contracts/breedings/Breeding.sol\":760:809  _genes = _genes | _traits[_traits.length - 1 - i] */\n      swap2\n      pop\n        /* \"contracts/breedings/Breeding.sol\":663:666  i++ */\n      dup1\n      dup1\n      tag_33\n      swap1\n      tag_34\n      jump\t// in\n    tag_33:\n      swap2\n      pop\n      pop\n        /* \"contracts/breedings/Breeding.sol\":623:820  for (uint256 i = 0; i < _traits.length; i++) {... */\n      jump(tag_24)\n    tag_25:\n      pop\n        /* \"contracts/breedings/Breeding.sol\":487:850  function encode(uint8[] memory _traits)... */\n      swap2\n      swap1\n      pop\n      jump\t// out\n        /* \"contracts/breedings/Breeding.sol\":856:1140  function decode(uint256 _genes)... */\n    tag_15:\n        /* \"contracts/breedings/Breeding.sol\":933:955  uint8[] memory _traits */\n      0x60\n        /* \"contracts/breedings/Breeding.sol\":993:995  27 */\n      0x1b\n        /* \"contracts/breedings/Breeding.sol\":981:996  new uint8[](27) */\n      0xffffffffffffffff\n      dup2\n      gt\n      iszero\n      tag_36\n      jumpi\n      tag_37\n      tag_38\n      jump\t// in\n    tag_37:\n    tag_36:\n      mload(0x40)\n      swap1\n      dup1\n      dup3\n      mstore\n      dup1\n      0x20\n      mul\n      0x20\n      add\n      dup3\n      add\n      0x40\n      mstore\n      dup1\n      iszero\n      tag_39\n      jumpi\n      dup2\n      0x20\n      add\n      0x20\n      dup3\n      mul\n      dup1\n      calldatasize\n      dup4\n      calldatacopy\n      dup1\n      dup3\n      add\n      swap2\n      pop\n      pop\n      swap1\n      pop\n    tag_39:\n      pop\n        /* \"contracts/breedings/Breeding.sol\":971:996  _traits = new uint8[](27) */\n      swap1\n      pop\n        /* \"contracts/breedings/Breeding.sol\":1012:1021  uint256 i */\n      0x00\n        /* \"contracts/breedings/Breeding.sol\":1007:1109  for (uint256 i = 0; i < _traits.length; i++) {... */\n    tag_40:\n        /* \"contracts/breedings/Breeding.sol\":1031:1038  _traits */\n      dup2\n        /* \"contracts/breedings/Breeding.sol\":1031:1045  _traits.length */\n      mload\n        /* \"contracts/breedings/Breeding.sol\":1027:1028  i */\n      dup2\n        /* \"contracts/breedings/Breeding.sol\":1027:1045  i < _traits.length */\n      lt\n        /* \"contracts/breedings/Breeding.sol\":1007:1109  for (uint256 i = 0; i < _traits.length; i++) {... */\n      iszero\n      tag_41\n      jumpi\n        /* \"contracts/breedings/Breeding.sol\":1079:1098  get8Bits(_genes, i) */\n      tag_43\n        /* \"contracts/breedings/Breeding.sol\":1088:1094  _genes */\n      dup4\n        /* \"contracts/breedings/Breeding.sol\":1096:1097  i */\n      dup3\n        /* \"contracts/breedings/Breeding.sol\":1079:1087  get8Bits */\n      tag_44\n        /* \"contracts/breedings/Breeding.sol\":1079:1098  get8Bits(_genes, i) */\n      jump\t// in\n    tag_43:\n        /* \"contracts/breedings/Breeding.sol\":1066:1073  _traits */\n      dup3\n        /* \"contracts/breedings/Breeding.sol\":1074:1075  i */\n      dup3\n        /* \"contracts/breedings/Breeding.sol\":1066:1076  _traits[i] */\n      dup2\n      mload\n      dup2\n      lt\n      tag_45\n      jumpi\n      tag_46\n      tag_32\n      jump\t// in\n    tag_46:\n    tag_45:\n      0x20\n      mul\n      0x20\n      add\n      add\n        /* \"contracts/breedings/Breeding.sol\":1066:1098  _traits[i] = get8Bits(_genes, i) */\n      swap1\n      0xff\n      and\n      swap1\n      dup2\n      0xff\n      and\n      dup2\n      mstore\n      pop\n      pop\n        /* \"contracts/breedings/Breeding.sol\":1047:1050  i++ */\n      dup1\n      dup1\n      tag_47\n      swap1\n      tag_34\n      jump\t// in\n    tag_47:\n      swap2\n      pop\n      pop\n        /* \"contracts/breedings/Breeding.sol\":1007:1109  for (uint256 i = 0; i < _traits.length; i++) {... */\n      jump(tag_40)\n    tag_41:\n      pop\n        /* \"contracts/breedings/Breeding.sol\":856:1140  function decode(uint256 _genes)... */\n      swap2\n      swap1\n      pop\n      jump\t// out\n        /* \"contracts/breedings/Breeding.sol\":2056:3626  function breading(... */\n    tag_21:\n        /* \"contracts/breedings/Breeding.sol\":2172:2179  uint256 */\n      0x00\n        /* \"contracts/breedings/Breeding.sol\":2191:2214  uint8[] memory _traits1 */\n      dup1\n        /* \"contracts/breedings/Breeding.sol\":2217:2231  decode(genes1) */\n      tag_49\n        /* \"contracts/breedings/Breeding.sol\":2224:2230  genes1 */\n      dup6\n        /* \"contracts/breedings/Breeding.sol\":2217:2223  decode */\n      tag_15\n        /* \"contracts/breedings/Breeding.sol\":2217:2231  decode(genes1) */\n      jump\t// in\n    tag_49:\n        /* \"contracts/breedings/Breeding.sol\":2191:2231  uint8[] memory _traits1 = decode(genes1) */\n      swap1\n      pop\n        /* \"contracts/breedings/Breeding.sol\":2241:2264  uint8[] memory _traits2 */\n      0x00\n        /* \"contracts/breedings/Breeding.sol\":2267:2281  decode(genes2) */\n      tag_50\n        /* \"contracts/breedings/Breeding.sol\":2274:2280  genes2 */\n      dup6\n        /* \"contracts/breedings/Breeding.sol\":2267:2273  decode */\n      tag_15\n        /* \"contracts/breedings/Breeding.sol\":2267:2281  decode(genes2) */\n      jump\t// in\n    tag_50:\n        /* \"contracts/breedings/Breeding.sol\":2241:2281  uint8[] memory _traits2 = decode(genes2) */\n      swap1\n      pop\n        /* \"contracts/breedings/Breeding.sol\":2291:2316  uint8[] memory _newTraits */\n      0x00\n        /* \"contracts/breedings/Breeding.sol\":2331:2339  _traits1 */\n      dup3\n        /* \"contracts/breedings/Breeding.sol\":2331:2346  _traits1.length */\n      mload\n        /* \"contracts/breedings/Breeding.sol\":2319:2347  new uint8[](_traits1.length) */\n      0xffffffffffffffff\n      dup2\n      gt\n      iszero\n      tag_51\n      jumpi\n      tag_52\n      tag_38\n      jump\t// in\n    tag_52:\n    tag_51:\n      mload(0x40)\n      swap1\n      dup1\n      dup3\n      mstore\n      dup1\n      0x20\n      mul\n      0x20\n      add\n      dup3\n      add\n      0x40\n      mstore\n      dup1\n      iszero\n      tag_53\n      jumpi\n      dup2\n      0x20\n      add\n      0x20\n      dup3\n      mul\n      dup1\n      calldatasize\n      dup4\n      calldatacopy\n      dup1\n      dup3\n      add\n      swap2\n      pop\n      pop\n      swap1\n      pop\n    tag_53:\n      pop\n        /* \"contracts/breedings/Breeding.sol\":2291:2347  uint8[] memory _newTraits = new uint8[](_traits1.length) */\n      swap1\n      pop\n        /* \"contracts/breedings/Breeding.sol\":2369:2387  uint256 randomSeed */\n      0x00\n        /* \"contracts/breedings/Breeding.sol\":2476:2491  block.timestamp */\n      timestamp\n        /* \"contracts/breedings/Breeding.sol\":2513:2525  block.number */\n      number\n        /* \"contracts/breedings/Breeding.sol\":2547:2563  block.difficulty */\n      difficulty\n        /* \"contracts/breedings/Breeding.sol\":2585:2591  genes1 */\n      dup11\n        /* \"contracts/breedings/Breeding.sol\":2613:2619  genes2 */\n      dup11\n        /* \"contracts/breedings/Breeding.sol\":2641:2651  GlobalSeed */\n      sload(0x00)\n        /* \"contracts/breedings/Breeding.sol\":2438:2669  abi.encodePacked(... */\n      add(0x20, mload(0x40))\n      tag_54\n      swap7\n      swap6\n      swap5\n      swap4\n      swap3\n      swap2\n      swap1\n      tag_55\n      jump\t// in\n    tag_54:\n      mload(0x40)\n      0x20\n      dup2\n      dup4\n      sub\n      sub\n      dup2\n      mstore\n      swap1\n      0x40\n      mstore\n        /* \"contracts/breedings/Breeding.sol\":2411:2683  keccak256(... */\n      dup1\n      mload\n      swap1\n      0x20\n      add\n      keccak256\n        /* \"contracts/breedings/Breeding.sol\":2390:2693  uint256(... */\n      0x00\n      shr\n        /* \"contracts/breedings/Breeding.sol\":2369:2693  uint256 randomSeed = uint256(... */\n      swap1\n      pop\n        /* \"contracts/breedings/Breeding.sol\":2725:2726  0 */\n      0x00\n        /* \"contracts/breedings/Breeding.sol\":2711:2721  randomSeed */\n      dup2\n        /* \"contracts/breedings/Breeding.sol\":2711:2726  randomSeed != 0 */\n      sub\n        /* \"contracts/breedings/Breeding.sol\":2703:2745  require(randomSeed != 0, \"randomSeed = 0\") */\n      tag_56\n      jumpi\n      mload(0x40)\n      0x08c379a000000000000000000000000000000000000000000000000000000000\n      dup2\n      mstore\n      0x04\n      add\n      tag_57\n      swap1\n      tag_58\n      jump\t// in\n    tag_57:\n      mload(0x40)\n      dup1\n      swap2\n      sub\n      swap1\n      revert\n    tag_56:\n        /* \"contracts/breedings/Breeding.sol\":2755:2774  uint256 randomIndex */\n      0x00\n        /* \"contracts/breedings/Breeding.sol\":2784:2791  uint8 j */\n      dup1\n        /* \"contracts/breedings/Breeding.sol\":2794:2795  0 */\n      0x00\n        /* \"contracts/breedings/Breeding.sol\":2784:2795  uint8 j = 0 */\n      swap1\n      pop\n        /* \"contracts/breedings/Breeding.sol\":2805:2814  uint256 i */\n      0x00\n        /* \"contracts/breedings/Breeding.sol\":2824:3562  for (i = 0; i < _traits1.length; i++) {... */\n    tag_59:\n        /* \"contracts/breedings/Breeding.sol\":2840:2848  _traits1 */\n      dup7\n        /* \"contracts/breedings/Breeding.sol\":2840:2855  _traits1.length */\n      mload\n        /* \"contracts/breedings/Breeding.sol\":2836:2837  i */\n      dup2\n        /* \"contracts/breedings/Breeding.sol\":2836:2855  i < _traits1.length */\n      lt\n        /* \"contracts/breedings/Breeding.sol\":2824:3562  for (i = 0; i < _traits1.length; i++) {... */\n      iszero\n      tag_60\n      jumpi\n        /* \"contracts/breedings/Breeding.sol\":2876:2886  uint8 left */\n      0x00\n        /* \"contracts/breedings/Breeding.sol\":2889:2897  _traits1 */\n      dup8\n        /* \"contracts/breedings/Breeding.sol\":2898:2899  i */\n      dup3\n        /* \"contracts/breedings/Breeding.sol\":2889:2900  _traits1[i] */\n      dup2\n      mload\n      dup2\n      lt\n      tag_62\n      jumpi\n      tag_63\n      tag_32\n      jump\t// in\n    tag_63:\n    tag_62:\n      0x20\n      mul\n      0x20\n      add\n      add\n      mload\n        /* \"contracts/breedings/Breeding.sol\":2876:2900  uint8 left = _traits1[i] */\n      swap1\n      pop\n        /* \"contracts/breedings/Breeding.sol\":2914:2925  uint8 right */\n      0x00\n        /* \"contracts/breedings/Breeding.sol\":2928:2936  _traits2 */\n      dup8\n        /* \"contracts/breedings/Breeding.sol\":2937:2938  i */\n      dup4\n        /* \"contracts/breedings/Breeding.sol\":2928:2939  _traits2[i] */\n      dup2\n      mload\n      dup2\n      lt\n      tag_64\n      jumpi\n      tag_65\n      tag_32\n      jump\t// in\n    tag_65:\n    tag_64:\n      0x20\n      mul\n      0x20\n      add\n      add\n      mload\n        /* \"contracts/breedings/Breeding.sol\":2914:2939  uint8 right = _traits2[i] */\n      swap1\n      pop\n        /* \"contracts/breedings/Breeding.sol\":2981:2982  0 */\n      0x00\n        /* \"contracts/breedings/Breeding.sol\":2976:2977  j */\n      dup5\n        /* \"contracts/breedings/Breeding.sol\":2976:2982  j == 0 */\n      0xff\n      and\n      sub\n        /* \"contracts/breedings/Breeding.sol\":2972:3261  if (j == 0) {... */\n      tag_66\n      jumpi\n        /* \"contracts/breedings/Breeding.sol\":3018:3165  getRandomId(... */\n      tag_67\n        /* \"contracts/breedings/Breeding.sol\":3051:3061  randomSeed */\n      dup7\n        /* \"contracts/breedings/Breeding.sol\":3083:3094  randomIndex */\n      dup7\n        /* \"contracts/breedings/Breeding.sol\":3116:3120  left */\n      dup5\n        /* \"contracts/breedings/Breeding.sol\":3142:3147  right */\n      dup5\n        /* \"contracts/breedings/Breeding.sol\":3018:3029  getRandomId */\n      tag_68\n        /* \"contracts/breedings/Breeding.sol\":3018:3165  getRandomId(... */\n      jump\t// in\n    tag_67:\n        /* \"contracts/breedings/Breeding.sol\":3002:3012  _newTraits */\n      dup8\n        /* \"contracts/breedings/Breeding.sol\":3013:3014  i */\n      dup5\n        /* \"contracts/breedings/Breeding.sol\":3002:3015  _newTraits[i] */\n      dup2\n      mload\n      dup2\n      lt\n      tag_69\n      jumpi\n      tag_70\n      tag_32\n      jump\t// in\n    tag_70:\n    tag_69:\n      0x20\n      mul\n      0x20\n      add\n      add\n        /* \"contracts/breedings/Breeding.sol\":3002:3165  _newTraits[i] = getRandomId(... */\n      swap1\n      0xff\n      and\n      swap1\n      dup2\n      0xff\n      and\n      dup2\n      mstore\n      pop\n      pop\n        /* \"contracts/breedings/Breeding.sol\":3183:3186  j++ */\n      dup4\n      dup1\n      tag_71\n      swap1\n      tag_72\n      jump\t// in\n    tag_71:\n      swap5\n      pop\n      pop\n        /* \"contracts/breedings/Breeding.sol\":3219:3220  2 */\n      0x02\n        /* \"contracts/breedings/Breeding.sol\":3204:3220  randomIndex += 2 */\n      dup6\n      tag_73\n      swap2\n      swap1\n      tag_74\n      jump\t// in\n    tag_73:\n      swap5\n      pop\n        /* \"contracts/breedings/Breeding.sol\":3238:3246  continue */\n      pop\n      pop\n      jump(tag_61)\n        /* \"contracts/breedings/Breeding.sol\":2972:3261  if (j == 0) {... */\n    tag_66:\n        /* \"contracts/breedings/Breeding.sol\":3305:3306  1 */\n      0x01\n        /* \"contracts/breedings/Breeding.sol\":3300:3301  j */\n      dup5\n        /* \"contracts/breedings/Breeding.sol\":3300:3306  j == 1 */\n      0xff\n      and\n      sub\n        /* \"contracts/breedings/Breeding.sol\":3296:3405  if (j == 1) {... */\n      tag_75\n      jumpi\n        /* \"contracts/breedings/Breeding.sol\":3342:3343  1 */\n      0x01\n        /* \"contracts/breedings/Breeding.sol\":3326:3336  _newTraits */\n      dup8\n        /* \"contracts/breedings/Breeding.sol\":3337:3338  i */\n      dup5\n        /* \"contracts/breedings/Breeding.sol\":3326:3339  _newTraits[i] */\n      dup2\n      mload\n      dup2\n      lt\n      tag_76\n      jumpi\n      tag_77\n      tag_32\n      jump\t// in\n    tag_77:\n    tag_76:\n      0x20\n      mul\n      0x20\n      add\n      add\n        /* \"contracts/breedings/Breeding.sol\":3326:3343  _newTraits[i] = 1 */\n      swap1\n      0xff\n      and\n      swap1\n      dup2\n      0xff\n      and\n      dup2\n      mstore\n      pop\n      pop\n        /* \"contracts/breedings/Breeding.sol\":3361:3364  j++ */\n      dup4\n      dup1\n      tag_78\n      swap1\n      tag_72\n      jump\t// in\n    tag_78:\n      swap5\n      pop\n      pop\n        /* \"contracts/breedings/Breeding.sol\":3382:3390  continue */\n      pop\n      pop\n      jump(tag_61)\n        /* \"contracts/breedings/Breeding.sol\":3296:3405  if (j == 1) {... */\n    tag_75:\n        /* \"contracts/breedings/Breeding.sol\":3435:3483  getRarity(randomSeed, randomIndex++, generation) */\n      tag_79\n        /* \"contracts/breedings/Breeding.sol\":3445:3455  randomSeed */\n      dup7\n        /* \"contracts/breedings/Breeding.sol\":3457:3470  randomIndex++ */\n      dup7\n      dup1\n      tag_80\n      swap1\n      tag_34\n      jump\t// in\n    tag_80:\n      swap8\n      pop\n        /* \"contracts/breedings/Breeding.sol\":3472:3482  generation */\n      dup14\n        /* \"contracts/breedings/Breeding.sol\":3435:3444  getRarity */\n      tag_81\n        /* \"contracts/breedings/Breeding.sol\":3435:3483  getRarity(randomSeed, randomIndex++, generation) */\n      jump\t// in\n    tag_79:\n        /* \"contracts/breedings/Breeding.sol\":3419:3429  _newTraits */\n      dup8\n        /* \"contracts/breedings/Breeding.sol\":3430:3431  i */\n      dup5\n        /* \"contracts/breedings/Breeding.sol\":3419:3432  _newTraits[i] */\n      dup2\n      mload\n      dup2\n      lt\n      tag_82\n      jumpi\n      tag_83\n      tag_32\n      jump\t// in\n    tag_83:\n    tag_82:\n      0x20\n      mul\n      0x20\n      add\n      add\n        /* \"contracts/breedings/Breeding.sol\":3419:3483  _newTraits[i] = getRarity(randomSeed, randomIndex++, generation) */\n      swap1\n      0xff\n      and\n      swap1\n      dup2\n      0xff\n      and\n      dup2\n      mstore\n      pop\n      pop\n        /* \"contracts/breedings/Breeding.sol\":3501:3502  0 */\n      0x00\n        /* \"contracts/breedings/Breeding.sol\":3497:3502  j = 0 */\n      swap4\n      pop\n        /* \"contracts/breedings/Breeding.sol\":3516:3529  randomIndex++ */\n      dup5\n      dup1\n      tag_84\n      swap1\n      tag_34\n      jump\t// in\n    tag_84:\n      swap6\n      pop\n      pop\n        /* \"contracts/breedings/Breeding.sol\":3543:3551  continue */\n      pop\n      pop\n        /* \"contracts/breedings/Breeding.sol\":2824:3562  for (i = 0; i < _traits1.length; i++) {... */\n    tag_61:\n        /* \"contracts/breedings/Breeding.sol\":2857:2860  i++ */\n      dup1\n      dup1\n      tag_85\n      swap1\n      tag_34\n      jump\t// in\n    tag_85:\n      swap2\n      pop\n      pop\n        /* \"contracts/breedings/Breeding.sol\":2824:3562  for (i = 0; i < _traits1.length; i++) {... */\n      jump(tag_59)\n    tag_60:\n        /* \"contracts/breedings/Breeding.sol\":3572:3582  GlobalSeed */\n      0x00\n      dup1\n        /* \"contracts/breedings/Breeding.sol\":3572:3584  GlobalSeed++ */\n      dup2\n      sload\n      dup1\n      swap3\n      swap2\n      swap1\n      tag_86\n      swap1\n      tag_34\n      jump\t// in\n    tag_86:\n      swap2\n      swap1\n      pop\n      sstore\n      pop\n        /* \"contracts/breedings/Breeding.sol\":3601:3619  encode(_newTraits) */\n      tag_87\n        /* \"contracts/breedings/Breeding.sol\":3608:3618  _newTraits */\n      dup6\n        /* \"contracts/breedings/Breeding.sol\":3601:3607  encode */\n      tag_9\n        /* \"contracts/breedings/Breeding.sol\":3601:3619  encode(_newTraits) */\n      jump\t// in\n    tag_87:\n        /* \"contracts/breedings/Breeding.sol\":3594:3619  return encode(_newTraits) */\n      swap8\n      pop\n      pop\n      pop\n      pop\n      pop\n      pop\n      pop\n      pop\n        /* \"contracts/breedings/Breeding.sol\":2056:3626  function breading(... */\n      swap4\n      swap3\n      pop\n      pop\n      pop\n      jump\t// out\n        /* \"contracts/breedings/Breeding.sol\":1281:1461  function get8Bits(uint256 _input, uint256 _slot)... */\n    tag_44:\n        /* \"contracts/breedings/Breeding.sol\":1377:1382  uint8 */\n      0x00\n        /* \"contracts/breedings/Breeding.sol\":1411:1453  sliceNumber(_input, uint256(8), _slot * 8) */\n      tag_89\n        /* \"contracts/breedings/Breeding.sol\":1423:1429  _input */\n      dup4\n        /* \"contracts/breedings/Breeding.sol\":1439:1440  8 */\n      0x08\n        /* \"contracts/breedings/Breeding.sol\":1451:1452  8 */\n      dup1\n        /* \"contracts/breedings/Breeding.sol\":1443:1448  _slot */\n      dup6\n        /* \"contracts/breedings/Breeding.sol\":1443:1452  _slot * 8 */\n      tag_90\n      swap2\n      swap1\n      tag_91\n      jump\t// in\n    tag_90:\n        /* \"contracts/breedings/Breeding.sol\":1411:1422  sliceNumber */\n      tag_92\n        /* \"contracts/breedings/Breeding.sol\":1411:1453  sliceNumber(_input, uint256(8), _slot * 8) */\n      jump\t// in\n    tag_89:\n        /* \"contracts/breedings/Breeding.sol\":1398:1454  return uint8(sliceNumber(_input, uint256(8), _slot * 8)) */\n      swap1\n      pop\n        /* \"contracts/breedings/Breeding.sol\":1281:1461  function get8Bits(uint256 _input, uint256 _slot)... */\n      swap3\n      swap2\n      pop\n      pop\n      jump\t// out\n        /* \"contracts/breedings/Breeding.sol\":3632:4392  function getRandomId(... */\n    tag_68:\n        /* \"contracts/breedings/Breeding.sol\":3780:3785  uint8 */\n      0x00\n        /* \"contracts/breedings/Breeding.sol\":3797:3812  uint256 current */\n      dup1\n        /* \"contracts/breedings/Breeding.sol\":3815:3816  0 */\n      0x00\n        /* \"contracts/breedings/Breeding.sol\":3797:3816  uint256 current = 0 */\n      swap1\n      pop\n        /* \"contracts/breedings/Breeding.sol\":3826:3845  uint256 resultIndex */\n      0x00\n        /* \"contracts/breedings/Breeding.sol\":3859:3879  uint256 randomWeight */\n      dup1\n        /* \"contracts/breedings/Breeding.sol\":3882:3989  random(... */\n      tag_94\n        /* \"contracts/breedings/Breeding.sol\":3902:3912  randomSeed */\n      dup9\n        /* \"contracts/breedings/Breeding.sol\":3926:3937  randomIndex */\n      dup9\n        /* \"contracts/breedings/Breeding.sol\":3951:3952  0 */\n      0x00\n        /* \"contracts/breedings/Breeding.sol\":3966:3979  totalWeight() */\n      tag_95\n        /* \"contracts/breedings/Breeding.sol\":3966:3977  totalWeight */\n      tag_96\n        /* \"contracts/breedings/Breeding.sol\":3966:3979  totalWeight() */\n      jump\t// in\n    tag_95:\n        /* \"contracts/breedings/Breeding.sol\":3882:3888  random */\n      tag_97\n        /* \"contracts/breedings/Breeding.sol\":3882:3989  random(... */\n      jump\t// in\n    tag_94:\n        /* \"contracts/breedings/Breeding.sol\":3859:3989  uint256 randomWeight = random(... */\n      swap1\n      pop\n        /* \"contracts/breedings/Breeding.sol\":4037:4046  uint256 i */\n      0x00\n        /* \"contracts/breedings/Breeding.sol\":4032:4222  for (uint256 i = 0; i < 3; i++) {... */\n    tag_98:\n        /* \"contracts/breedings/Breeding.sol\":4056:4057  3 */\n      0x03\n        /* \"contracts/breedings/Breeding.sol\":4052:4053  i */\n      dup2\n        /* \"contracts/breedings/Breeding.sol\":4052:4057  i < 3 */\n      lt\n        /* \"contracts/breedings/Breeding.sol\":4032:4222  for (uint256 i = 0; i < 3; i++) {... */\n      iszero\n      tag_99\n      jumpi\n        /* \"contracts/breedings/Breeding.sol\":4089:4098  weight(i) */\n      tag_101\n        /* \"contracts/breedings/Breeding.sol\":4096:4097  i */\n      dup2\n        /* \"contracts/breedings/Breeding.sol\":4089:4095  weight */\n      tag_102\n        /* \"contracts/breedings/Breeding.sol\":4089:4098  weight(i) */\n      jump\t// in\n    tag_101:\n        /* \"contracts/breedings/Breeding.sol\":4078:4098  current += weight(i) */\n      dup5\n      tag_103\n      swap2\n      swap1\n      tag_74\n      jump\t// in\n    tag_103:\n      swap4\n      pop\n        /* \"contracts/breedings/Breeding.sol\":4127:4139  randomWeight */\n      dup2\n        /* \"contracts/breedings/Breeding.sol\":4116:4123  current */\n      dup5\n        /* \"contracts/breedings/Breeding.sol\":4116:4139  current >= randomWeight */\n      lt\n        /* \"contracts/breedings/Breeding.sol\":4112:4212  if (current >= randomWeight) {... */\n      tag_104\n      jumpi\n        /* \"contracts/breedings/Breeding.sol\":4173:4174  i */\n      dup1\n        /* \"contracts/breedings/Breeding.sol\":4159:4174  resultIndex = i */\n      swap3\n      pop\n        /* \"contracts/breedings/Breeding.sol\":4192:4197  break */\n      jump(tag_99)\n        /* \"contracts/breedings/Breeding.sol\":4112:4212  if (current >= randomWeight) {... */\n    tag_104:\n        /* \"contracts/breedings/Breeding.sol\":4059:4062  i++ */\n      dup1\n      dup1\n      tag_105\n      swap1\n      tag_34\n      jump\t// in\n    tag_105:\n      swap2\n      pop\n      pop\n        /* \"contracts/breedings/Breeding.sol\":4032:4222  for (uint256 i = 0; i < 3; i++) {... */\n      jump(tag_98)\n    tag_99:\n      pop\n        /* \"contracts/breedings/Breeding.sol\":4251:4252  0 */\n      0x00\n        /* \"contracts/breedings/Breeding.sol\":4236:4247  resultIndex */\n      dup3\n        /* \"contracts/breedings/Breeding.sol\":4236:4252  resultIndex == 0 */\n      sub\n        /* \"contracts/breedings/Breeding.sol\":4232:4265  if (resultIndex == 0) return left */\n      tag_106\n      jumpi\n        /* \"contracts/breedings/Breeding.sol\":4261:4265  left */\n      dup6\n        /* \"contracts/breedings/Breeding.sol\":4254:4265  return left */\n      swap4\n      pop\n      pop\n      pop\n      pop\n      jump(tag_93)\n        /* \"contracts/breedings/Breeding.sol\":4232:4265  if (resultIndex == 0) return left */\n    tag_106:\n        /* \"contracts/breedings/Breeding.sol\":4294:4295  1 */\n      0x01\n        /* \"contracts/breedings/Breeding.sol\":4279:4290  resultIndex */\n      dup3\n        /* \"contracts/breedings/Breeding.sol\":4279:4295  resultIndex == 1 */\n      sub\n        /* \"contracts/breedings/Breeding.sol\":4275:4309  if (resultIndex == 1) return right */\n      tag_107\n      jumpi\n        /* \"contracts/breedings/Breeding.sol\":4304:4309  right */\n      dup5\n        /* \"contracts/breedings/Breeding.sol\":4297:4309  return right */\n      swap4\n      pop\n      pop\n      pop\n      pop\n      jump(tag_93)\n        /* \"contracts/breedings/Breeding.sol\":4275:4309  if (resultIndex == 1) return right */\n    tag_107:\n        /* \"contracts/breedings/Breeding.sol\":4333:4376  random(randomSeed, ++randomIndex, 1, maxId) */\n      tag_108\n        /* \"contracts/breedings/Breeding.sol\":4340:4350  randomSeed */\n      dup9\n        /* \"contracts/breedings/Breeding.sol\":4352:4365  ++randomIndex */\n      dup9\n      tag_109\n      swap1\n      tag_34\n      jump\t// in\n    tag_109:\n      swap9\n      pop\n      dup9\n        /* \"contracts/breedings/Breeding.sol\":4367:4368  1 */\n      0x01\n        /* \"contracts/breedings/Breeding.sol\":4370:4375  maxId */\n      0x04\n      0x01\n      swap1\n      sload\n      swap1\n      0x0100\n      exp\n      swap1\n      div\n      0xff\n      and\n        /* \"contracts/breedings/Breeding.sol\":4333:4376  random(randomSeed, ++randomIndex, 1, maxId) */\n      0xff\n      and\n        /* \"contracts/breedings/Breeding.sol\":4333:4339  random */\n      tag_97\n        /* \"contracts/breedings/Breeding.sol\":4333:4376  random(randomSeed, ++randomIndex, 1, maxId) */\n      jump\t// in\n    tag_108:\n        /* \"contracts/breedings/Breeding.sol\":4320:4377  return uint8(random(randomSeed, ++randomIndex, 1, maxId)) */\n      swap4\n      pop\n      pop\n      pop\n      pop\n        /* \"contracts/breedings/Breeding.sol\":3632:4392  function getRandomId(... */\n    tag_93:\n      swap5\n      swap4\n      pop\n      pop\n      pop\n      pop\n      jump\t// out\n        /* \"contracts/breedings/Breeding.sol\":4398:4785  function getRarity(... */\n    tag_81:\n        /* \"contracts/breedings/Breeding.sol\":4531:4536  uint8 */\n      0x00\n        /* \"contracts/breedings/Breeding.sol\":4566:4567  0 */\n      dup1\n        /* \"contracts/breedings/Breeding.sol\":4552:4562  generation */\n      dup3\n        /* \"contracts/breedings/Breeding.sol\":4552:4567  generation == 0 */\n      sub\n        /* \"contracts/breedings/Breeding.sol\":4548:4577  if (generation == 0) return 0 */\n      tag_111\n      jumpi\n        /* \"contracts/breedings/Breeding.sol\":4576:4577  0 */\n      0x00\n        /* \"contracts/breedings/Breeding.sol\":4569:4577  return 0 */\n      swap1\n      pop\n      jump(tag_110)\n        /* \"contracts/breedings/Breeding.sol\":4548:4577  if (generation == 0) return 0 */\n    tag_111:\n        /* \"contracts/breedings/Breeding.sol\":4587:4600  uint256 value */\n      0x00\n        /* \"contracts/breedings/Breeding.sol\":4616:4629  rarityPercent */\n      sload(0x03)\n        /* \"contracts/breedings/Breeding.sol\":4603:4613  generation */\n      dup4\n        /* \"contracts/breedings/Breeding.sol\":4603:4629  generation / rarityPercent */\n      tag_112\n      swap2\n      swap1\n      tag_113\n      jump\t// in\n    tag_112:\n        /* \"contracts/breedings/Breeding.sol\":4587:4629  uint256 value = generation / rarityPercent */\n      swap1\n      pop\n        /* \"contracts/breedings/Breeding.sol\":4720:4725  value */\n      dup1\n        /* \"contracts/breedings/Breeding.sol\":4675:4716  random(randomSeed, randomIndex, 0, 10000) */\n      tag_114\n        /* \"contracts/breedings/Breeding.sol\":4682:4692  randomSeed */\n      dup7\n        /* \"contracts/breedings/Breeding.sol\":4694:4705  randomIndex */\n      dup7\n        /* \"contracts/breedings/Breeding.sol\":4707:4708  0 */\n      0x00\n        /* \"contracts/breedings/Breeding.sol\":4710:4715  10000 */\n      0x2710\n        /* \"contracts/breedings/Breeding.sol\":4675:4681  random */\n      tag_97\n        /* \"contracts/breedings/Breeding.sol\":4675:4716  random(randomSeed, randomIndex, 0, 10000) */\n      jump\t// in\n    tag_114:\n        /* \"contracts/breedings/Breeding.sol\":4675:4725  random(randomSeed, randomIndex, 0, 10000) <= value */\n      gt\n        /* \"contracts/breedings/Breeding.sol\":4671:4760  if (random(randomSeed, randomIndex, 0, 10000) <= value) {... */\n      tag_115\n      jumpi\n        /* \"contracts/breedings/Breeding.sol\":4748:4749  1 */\n      0x01\n        /* \"contracts/breedings/Breeding.sol\":4741:4749  return 1 */\n      swap2\n      pop\n      pop\n      jump(tag_110)\n        /* \"contracts/breedings/Breeding.sol\":4671:4760  if (random(randomSeed, randomIndex, 0, 10000) <= value) {... */\n    tag_115:\n        /* \"contracts/breedings/Breeding.sol\":4777:4778  0 */\n      0x00\n        /* \"contracts/breedings/Breeding.sol\":4770:4778  return 0 */\n      swap2\n      pop\n      pop\n        /* \"contracts/breedings/Breeding.sol\":4398:4785  function getRarity(... */\n    tag_110:\n      swap4\n      swap3\n      pop\n      pop\n      pop\n      jump\t// out\n        /* \"contracts/breedings/Breeding.sol\":1682:2050  function sliceNumber(... */\n    tag_92:\n        /* \"contracts/breedings/Breeding.sol\":1800:1807  uint256 */\n      0x00\n        /* \"contracts/breedings/Breeding.sol\":1886:1898  uint256 mask */\n      dup1\n        /* \"contracts/breedings/Breeding.sol\":1929:1936  _offset */\n      dup3\n        /* \"contracts/breedings/Breeding.sol\":1923:1924  1 */\n      0x01\n        /* \"contracts/breedings/Breeding.sol\":1913:1919  _nbits */\n      dup6\n        /* \"contracts/breedings/Breeding.sol\":1910:1911  2 */\n      0x02\n        /* \"contracts/breedings/Breeding.sol\":1910:1919  2**_nbits */\n      tag_117\n      swap2\n      swap1\n      tag_118\n      jump\t// in\n    tag_117:\n        /* \"contracts/breedings/Breeding.sol\":1909:1924  (2**_nbits) - 1 */\n      tag_119\n      swap2\n      swap1\n      tag_28\n      jump\t// in\n    tag_119:\n        /* \"contracts/breedings/Breeding.sol\":1901:1936  uint256((2**_nbits) - 1) << _offset */\n      swap1\n      shl\n        /* \"contracts/breedings/Breeding.sol\":1886:1936  uint256 mask = uint256((2**_nbits) - 1) << _offset */\n      swap1\n      pop\n        /* \"contracts/breedings/Breeding.sol\":2035:2042  _offset */\n      dup3\n        /* \"contracts/breedings/Breeding.sol\":2026:2030  mask */\n      dup2\n        /* \"contracts/breedings/Breeding.sol\":2021:2023  _n */\n      dup7\n        /* \"contracts/breedings/Breeding.sol\":2021:2030  _n & mask */\n      and\n        /* \"contracts/breedings/Breeding.sol\":2020:2042  (_n & mask) >> _offset */\n      swap1\n      shr\n        /* \"contracts/breedings/Breeding.sol\":2005:2043  return uint256((_n & mask) >> _offset) */\n      swap2\n      pop\n      pop\n        /* \"contracts/breedings/Breeding.sol\":1682:2050  function sliceNumber(... */\n      swap4\n      swap3\n      pop\n      pop\n      pop\n      jump\t// out\n        /* \"contracts/breedings/Breeding.sol\":5137:5268  function totalWeight() internal view returns (uint256) {... */\n    tag_96:\n        /* \"contracts/breedings/Breeding.sol\":5183:5190  uint256 */\n      0x00\n        /* \"contracts/breedings/Breeding.sol\":5247:5261  randomIdWeight */\n      sload(0x02)\n        /* \"contracts/breedings/Breeding.sol\":5228:5244  randomSideWeight */\n      sload(0x01)\n        /* \"contracts/breedings/Breeding.sol\":5209:5225  randomSideWeight */\n      sload(0x01)\n        /* \"contracts/breedings/Breeding.sol\":5209:5244  randomSideWeight + randomSideWeight */\n      tag_121\n      swap2\n      swap1\n      tag_74\n      jump\t// in\n    tag_121:\n        /* \"contracts/breedings/Breeding.sol\":5209:5261  randomSideWeight + randomSideWeight + randomIdWeight */\n      tag_122\n      swap2\n      swap1\n      tag_74\n      jump\t// in\n    tag_122:\n        /* \"contracts/breedings/Breeding.sol\":5202:5261  return randomSideWeight + randomSideWeight + randomIdWeight */\n      swap1\n      pop\n        /* \"contracts/breedings/Breeding.sol\":5137:5268  function totalWeight() internal view returns (uint256) {... */\n      swap1\n      jump\t// out\n        /* \"contracts/breedings/Breeding.sol\":4791:5131  function random(... */\n    tag_97:\n        /* \"contracts/breedings/Breeding.sol\":4935:4948  uint256 value */\n      0x00\n        /* \"contracts/breedings/Breeding.sol\":5057:5066  minNumber */\n      dup3\n        /* \"contracts/breedings/Breeding.sol\":5045:5054  maxNumber */\n      dup3\n        /* \"contracts/breedings/Breeding.sol\":5045:5066  maxNumber - minNumber */\n      tag_124\n      swap2\n      swap1\n      tag_28\n      jump\t// in\n    tag_124:\n        /* \"contracts/breedings/Breeding.sol\":5015:5019  seed */\n      dup6\n        /* \"contracts/breedings/Breeding.sol\":5021:5026  index */\n      dup6\n        /* \"contracts/breedings/Breeding.sol\":4998:5027  abi.encodePacked(seed, index) */\n      add(0x20, mload(0x40))\n      tag_125\n      swap3\n      swap2\n      swap1\n      tag_126\n      jump\t// in\n    tag_125:\n      mload(0x40)\n      0x20\n      dup2\n      dup4\n      sub\n      sub\n      dup2\n      mstore\n      swap1\n      0x40\n      mstore\n        /* \"contracts/breedings/Breeding.sol\":4988:5028  keccak256(abi.encodePacked(seed, index)) */\n      dup1\n      mload\n      swap1\n      0x20\n      add\n      keccak256\n        /* \"contracts/breedings/Breeding.sol\":4980:5029  uint256(keccak256(abi.encodePacked(seed, index))) */\n      0x00\n      shr\n        /* \"contracts/breedings/Breeding.sol\":4980:5067  uint256(keccak256(abi.encodePacked(seed, index))) %... */\n      tag_127\n      swap2\n      swap1\n      tag_128\n      jump\t// in\n    tag_127:\n        /* \"contracts/breedings/Breeding.sol\":4960:5067  value =... */\n      swap1\n      pop\n        /* \"contracts/breedings/Breeding.sol\":5093:5102  minNumber */\n      dup3\n        /* \"contracts/breedings/Breeding.sol\":5085:5090  value */\n      dup2\n        /* \"contracts/breedings/Breeding.sol\":5085:5102  value + minNumber */\n      tag_129\n      swap2\n      swap1\n      tag_74\n      jump\t// in\n    tag_129:\n        /* \"contracts/breedings/Breeding.sol\":5077:5102  value = value + minNumber */\n      swap1\n      pop\n        /* \"contracts/breedings/Breeding.sol\":4791:5131  function random(... */\n      swap5\n      swap4\n      pop\n      pop\n      pop\n      pop\n      jump\t// out\n        /* \"contracts/breedings/Breeding.sol\":5274:5399  function weight(uint256 i) internal view returns (uint256) {... */\n    tag_102:\n        /* \"contracts/breedings/Breeding.sol\":5324:5331  uint256 */\n      0x00\n        /* \"contracts/breedings/Breeding.sol\":5355:5356  2 */\n      0x02\n        /* \"contracts/breedings/Breeding.sol\":5350:5351  i */\n      dup3\n        /* \"contracts/breedings/Breeding.sol\":5350:5356  i == 2 */\n      eq\n        /* \"contracts/breedings/Breeding.sol\":5350:5392  i == 2 ? randomIdWeight : randomSideWeight */\n      tag_131\n      jumpi\n        /* \"contracts/breedings/Breeding.sol\":5376:5392  randomSideWeight */\n      sload(0x01)\n        /* \"contracts/breedings/Breeding.sol\":5350:5392  i == 2 ? randomIdWeight : randomSideWeight */\n      jump(tag_132)\n    tag_131:\n        /* \"contracts/breedings/Breeding.sol\":5359:5373  randomIdWeight */\n      sload(0x02)\n        /* \"contracts/breedings/Breeding.sol\":5350:5392  i == 2 ? randomIdWeight : randomSideWeight */\n    tag_132:\n        /* \"contracts/breedings/Breeding.sol\":5343:5392  return i == 2 ? randomIdWeight : randomSideWeight */\n      swap1\n      pop\n        /* \"contracts/breedings/Breeding.sol\":5274:5399  function weight(uint256 i) internal view returns (uint256) {... */\n      swap2\n      swap1\n      pop\n      jump\t// out\n        /* \"#utility.yul\":7:82   */\n    tag_133:\n        /* \"#utility.yul\":40:46   */\n      0x00\n        /* \"#utility.yul\":73:75   */\n      0x40\n        /* \"#utility.yul\":67:76   */\n      mload\n        /* \"#utility.yul\":57:76   */\n      swap1\n      pop\n        /* \"#utility.yul\":7:82   */\n      swap1\n      jump\t// out\n        /* \"#utility.yul\":88:205   */\n    tag_134:\n        /* \"#utility.yul\":197:198   */\n      0x00\n        /* \"#utility.yul\":194:195   */\n      dup1\n        /* \"#utility.yul\":187:199   */\n      revert\n        /* \"#utility.yul\":211:328   */\n    tag_135:\n        /* \"#utility.yul\":320:321   */\n      0x00\n        /* \"#utility.yul\":317:318   */\n      dup1\n        /* \"#utility.yul\":310:322   */\n      revert\n        /* \"#utility.yul\":334:451   */\n    tag_136:\n        /* \"#utility.yul\":443:444   */\n      0x00\n        /* \"#utility.yul\":440:441   */\n      dup1\n        /* \"#utility.yul\":433:445   */\n      revert\n        /* \"#utility.yul\":457:559   */\n    tag_137:\n        /* \"#utility.yul\":498:504   */\n      0x00\n        /* \"#utility.yul\":549:551   */\n      0x1f\n        /* \"#utility.yul\":545:552   */\n      not\n        /* \"#utility.yul\":540:542   */\n      0x1f\n        /* \"#utility.yul\":533:538   */\n      dup4\n        /* \"#utility.yul\":529:543   */\n      add\n        /* \"#utility.yul\":525:553   */\n      and\n        /* \"#utility.yul\":515:553   */\n      swap1\n      pop\n        /* \"#utility.yul\":457:559   */\n      swap2\n      swap1\n      pop\n      jump\t// out\n        /* \"#utility.yul\":565:745   */\n    tag_38:\n        /* \"#utility.yul\":613:690   */\n      0x4e487b7100000000000000000000000000000000000000000000000000000000\n        /* \"#utility.yul\":610:611   */\n      0x00\n        /* \"#utility.yul\":603:691   */\n      mstore\n        /* \"#utility.yul\":710:714   */\n      0x41\n        /* \"#utility.yul\":707:708   */\n      0x04\n        /* \"#utility.yul\":700:715   */\n      mstore\n        /* \"#utility.yul\":734:738   */\n      0x24\n        /* \"#utility.yul\":731:732   */\n      0x00\n        /* \"#utility.yul\":724:739   */\n      revert\n        /* \"#utility.yul\":751:1032   */\n    tag_138:\n        /* \"#utility.yul\":834:861   */\n      tag_176\n        /* \"#utility.yul\":856:860   */\n      dup3\n        /* \"#utility.yul\":834:861   */\n      tag_137\n      jump\t// in\n    tag_176:\n        /* \"#utility.yul\":826:832   */\n      dup2\n        /* \"#utility.yul\":822:862   */\n      add\n        /* \"#utility.yul\":964:970   */\n      dup2\n        /* \"#utility.yul\":952:962   */\n      dup2\n        /* \"#utility.yul\":949:971   */\n      lt\n        /* \"#utility.yul\":928:946   */\n      0xffffffffffffffff\n        /* \"#utility.yul\":916:926   */\n      dup3\n        /* \"#utility.yul\":913:947   */\n      gt\n        /* \"#utility.yul\":910:972   */\n      or\n        /* \"#utility.yul\":907:995   */\n      iszero\n      tag_177\n      jumpi\n        /* \"#utility.yul\":975:993   */\n      tag_178\n      tag_38\n      jump\t// in\n    tag_178:\n        /* \"#utility.yul\":907:995   */\n    tag_177:\n        /* \"#utility.yul\":1015:1025   */\n      dup1\n        /* \"#utility.yul\":1011:1013   */\n      0x40\n        /* \"#utility.yul\":1004:1026   */\n      mstore\n        /* \"#utility.yul\":794:1032   */\n      pop\n        /* \"#utility.yul\":751:1032   */\n      pop\n      pop\n      jump\t// out\n        /* \"#utility.yul\":1038:1167   */\n    tag_139:\n        /* \"#utility.yul\":1072:1078   */\n      0x00\n        /* \"#utility.yul\":1099:1119   */\n      tag_180\n      tag_133\n      jump\t// in\n    tag_180:\n        /* \"#utility.yul\":1089:1119   */\n      swap1\n      pop\n        /* \"#utility.yul\":1128:1161   */\n      tag_181\n        /* \"#utility.yul\":1156:1160   */\n      dup3\n        /* \"#utility.yul\":1148:1154   */\n      dup3\n        /* \"#utility.yul\":1128:1161   */\n      tag_138\n      jump\t// in\n    tag_181:\n        /* \"#utility.yul\":1038:1167   */\n      swap2\n      swap1\n      pop\n      jump\t// out\n        /* \"#utility.yul\":1173:1482   */\n    tag_140:\n        /* \"#utility.yul\":1248:1252   */\n      0x00\n        /* \"#utility.yul\":1338:1356   */\n      0xffffffffffffffff\n        /* \"#utility.yul\":1330:1336   */\n      dup3\n        /* \"#utility.yul\":1327:1357   */\n      gt\n        /* \"#utility.yul\":1324:1380   */\n      iszero\n      tag_183\n      jumpi\n        /* \"#utility.yul\":1360:1378   */\n      tag_184\n      tag_38\n      jump\t// in\n    tag_184:\n        /* \"#utility.yul\":1324:1380   */\n    tag_183:\n        /* \"#utility.yul\":1410:1414   */\n      0x20\n        /* \"#utility.yul\":1402:1408   */\n      dup3\n        /* \"#utility.yul\":1398:1415   */\n      mul\n        /* \"#utility.yul\":1390:1415   */\n      swap1\n      pop\n        /* \"#utility.yul\":1470:1474   */\n      0x20\n        /* \"#utility.yul\":1464:1468   */\n      dup2\n        /* \"#utility.yul\":1460:1475   */\n      add\n        /* \"#utility.yul\":1452:1475   */\n      swap1\n      pop\n        /* \"#utility.yul\":1173:1482   */\n      swap2\n      swap1\n      pop\n      jump\t// out\n        /* \"#utility.yul\":1488:1605   */\n    tag_141:\n        /* \"#utility.yul\":1597:1598   */\n      0x00\n        /* \"#utility.yul\":1594:1595   */\n      dup1\n        /* \"#utility.yul\":1587:1599   */\n      revert\n        /* \"#utility.yul\":1611:1697   */\n    tag_142:\n        /* \"#utility.yul\":1646:1653   */\n      0x00\n        /* \"#utility.yul\":1686:1690   */\n      0xff\n        /* \"#utility.yul\":1679:1684   */\n      dup3\n        /* \"#utility.yul\":1675:1691   */\n      and\n        /* \"#utility.yul\":1664:1691   */\n      swap1\n      pop\n        /* \"#utility.yul\":1611:1697   */\n      swap2\n      swap1\n      pop\n      jump\t// out\n        /* \"#utility.yul\":1703:1821   */\n    tag_143:\n        /* \"#utility.yul\":1774:1796   */\n      tag_188\n        /* \"#utility.yul\":1790:1795   */\n      dup2\n        /* \"#utility.yul\":1774:1796   */\n      tag_142\n      jump\t// in\n    tag_188:\n        /* \"#utility.yul\":1767:1772   */\n      dup2\n        /* \"#utility.yul\":1764:1797   */\n      eq\n        /* \"#utility.yul\":1754:1815   */\n      tag_189\n      jumpi\n        /* \"#utility.yul\":1811:1812   */\n      0x00\n        /* \"#utility.yul\":1808:1809   */\n      dup1\n        /* \"#utility.yul\":1801:1813   */\n      revert\n        /* \"#utility.yul\":1754:1815   */\n    tag_189:\n        /* \"#utility.yul\":1703:1821   */\n      pop\n      jump\t// out\n        /* \"#utility.yul\":1827:1962   */\n    tag_144:\n        /* \"#utility.yul\":1871:1876   */\n      0x00\n        /* \"#utility.yul\":1909:1915   */\n      dup2\n        /* \"#utility.yul\":1896:1916   */\n      calldataload\n        /* \"#utility.yul\":1887:1916   */\n      swap1\n      pop\n        /* \"#utility.yul\":1925:1956   */\n      tag_191\n        /* \"#utility.yul\":1950:1955   */\n      dup2\n        /* \"#utility.yul\":1925:1956   */\n      tag_143\n      jump\t// in\n    tag_191:\n        /* \"#utility.yul\":1827:1962   */\n      swap3\n      swap2\n      pop\n      pop\n      jump\t// out\n        /* \"#utility.yul\":1983:2687   */\n    tag_145:\n        /* \"#utility.yul\":2077:2082   */\n      0x00\n        /* \"#utility.yul\":2102:2181   */\n      tag_193\n        /* \"#utility.yul\":2118:2180   */\n      tag_194\n        /* \"#utility.yul\":2173:2179   */\n      dup5\n        /* \"#utility.yul\":2118:2180   */\n      tag_140\n      jump\t// in\n    tag_194:\n        /* \"#utility.yul\":2102:2181   */\n      tag_139\n      jump\t// in\n    tag_193:\n        /* \"#utility.yul\":2093:2181   */\n      swap1\n      pop\n        /* \"#utility.yul\":2201:2206   */\n      dup1\n        /* \"#utility.yul\":2230:2236   */\n      dup4\n        /* \"#utility.yul\":2223:2228   */\n      dup3\n        /* \"#utility.yul\":2216:2237   */\n      mstore\n        /* \"#utility.yul\":2264:2268   */\n      0x20\n        /* \"#utility.yul\":2257:2262   */\n      dup3\n        /* \"#utility.yul\":2253:2269   */\n      add\n        /* \"#utility.yul\":2246:2269   */\n      swap1\n      pop\n        /* \"#utility.yul\":2317:2321   */\n      0x20\n        /* \"#utility.yul\":2309:2315   */\n      dup5\n        /* \"#utility.yul\":2305:2322   */\n      mul\n        /* \"#utility.yul\":2297:2303   */\n      dup4\n        /* \"#utility.yul\":2293:2323   */\n      add\n        /* \"#utility.yul\":2346:2349   */\n      dup6\n        /* \"#utility.yul\":2338:2344   */\n      dup2\n        /* \"#utility.yul\":2335:2350   */\n      gt\n        /* \"#utility.yul\":2332:2454   */\n      iszero\n      tag_195\n      jumpi\n        /* \"#utility.yul\":2365:2444   */\n      tag_196\n      tag_141\n      jump\t// in\n    tag_196:\n        /* \"#utility.yul\":2332:2454   */\n    tag_195:\n        /* \"#utility.yul\":2480:2486   */\n      dup4\n        /* \"#utility.yul\":2463:2681   */\n    tag_197:\n        /* \"#utility.yul\":2497:2503   */\n      dup2\n        /* \"#utility.yul\":2492:2495   */\n      dup2\n        /* \"#utility.yul\":2489:2504   */\n      lt\n        /* \"#utility.yul\":2463:2681   */\n      iszero\n      tag_199\n      jumpi\n        /* \"#utility.yul\":2572:2575   */\n      dup1\n        /* \"#utility.yul\":2601:2636   */\n      tag_200\n        /* \"#utility.yul\":2632:2635   */\n      dup9\n        /* \"#utility.yul\":2620:2630   */\n      dup3\n        /* \"#utility.yul\":2601:2636   */\n      tag_144\n      jump\t// in\n    tag_200:\n        /* \"#utility.yul\":2596:2599   */\n      dup5\n        /* \"#utility.yul\":2589:2637   */\n      mstore\n        /* \"#utility.yul\":2666:2670   */\n      0x20\n        /* \"#utility.yul\":2661:2664   */\n      dup5\n        /* \"#utility.yul\":2657:2671   */\n      add\n        /* \"#utility.yul\":2650:2671   */\n      swap4\n      pop\n        /* \"#utility.yul\":2539:2681   */\n      pop\n        /* \"#utility.yul\":2523:2527   */\n      0x20\n        /* \"#utility.yul\":2518:2521   */\n      dup2\n        /* \"#utility.yul\":2514:2528   */\n      add\n        /* \"#utility.yul\":2507:2528   */\n      swap1\n      pop\n        /* \"#utility.yul\":2463:2681   */\n      jump(tag_197)\n    tag_199:\n        /* \"#utility.yul\":2467:2488   */\n      pop\n        /* \"#utility.yul\":2083:2687   */\n      pop\n      pop\n        /* \"#utility.yul\":1983:2687   */\n      swap4\n      swap3\n      pop\n      pop\n      pop\n      jump\t// out\n        /* \"#utility.yul\":2708:3074   */\n    tag_146:\n        /* \"#utility.yul\":2777:2782   */\n      0x00\n        /* \"#utility.yul\":2826:2829   */\n      dup3\n        /* \"#utility.yul\":2819:2823   */\n      0x1f\n        /* \"#utility.yul\":2811:2817   */\n      dup4\n        /* \"#utility.yul\":2807:2824   */\n      add\n        /* \"#utility.yul\":2803:2830   */\n      slt\n        /* \"#utility.yul\":2793:2915   */\n      tag_202\n      jumpi\n        /* \"#utility.yul\":2834:2913   */\n      tag_203\n      tag_136\n      jump\t// in\n    tag_203:\n        /* \"#utility.yul\":2793:2915   */\n    tag_202:\n        /* \"#utility.yul\":2951:2957   */\n      dup2\n        /* \"#utility.yul\":2938:2958   */\n      calldataload\n        /* \"#utility.yul\":2976:3068   */\n      tag_204\n        /* \"#utility.yul\":3064:3067   */\n      dup5\n        /* \"#utility.yul\":3056:3062   */\n      dup3\n        /* \"#utility.yul\":3049:3053   */\n      0x20\n        /* \"#utility.yul\":3041:3047   */\n      dup7\n        /* \"#utility.yul\":3037:3054   */\n      add\n        /* \"#utility.yul\":2976:3068   */\n      tag_145\n      jump\t// in\n    tag_204:\n        /* \"#utility.yul\":2967:3068   */\n      swap2\n      pop\n        /* \"#utility.yul\":2783:3074   */\n      pop\n        /* \"#utility.yul\":2708:3074   */\n      swap3\n      swap2\n      pop\n      pop\n      jump\t// out\n        /* \"#utility.yul\":3080:3615   */\n    tag_8:\n        /* \"#utility.yul\":3162:3168   */\n      0x00\n        /* \"#utility.yul\":3211:3213   */\n      0x20\n        /* \"#utility.yul\":3199:3208   */\n      dup3\n        /* \"#utility.yul\":3190:3197   */\n      dup5\n        /* \"#utility.yul\":3186:3209   */\n      sub\n        /* \"#utility.yul\":3182:3214   */\n      slt\n        /* \"#utility.yul\":3179:3298   */\n      iszero\n      tag_206\n      jumpi\n        /* \"#utility.yul\":3217:3296   */\n      tag_207\n      tag_134\n      jump\t// in\n    tag_207:\n        /* \"#utility.yul\":3179:3298   */\n    tag_206:\n        /* \"#utility.yul\":3365:3366   */\n      0x00\n        /* \"#utility.yul\":3354:3363   */\n      dup3\n        /* \"#utility.yul\":3350:3367   */\n      add\n        /* \"#utility.yul\":3337:3368   */\n      calldataload\n        /* \"#utility.yul\":3395:3413   */\n      0xffffffffffffffff\n        /* \"#utility.yul\":3387:3393   */\n      dup2\n        /* \"#utility.yul\":3384:3414   */\n      gt\n        /* \"#utility.yul\":3381:3498   */\n      iszero\n      tag_208\n      jumpi\n        /* \"#utility.yul\":3417:3496   */\n      tag_209\n      tag_135\n      jump\t// in\n    tag_209:\n        /* \"#utility.yul\":3381:3498   */\n    tag_208:\n        /* \"#utility.yul\":3522:3598   */\n      tag_210\n        /* \"#utility.yul\":3590:3597   */\n      dup5\n        /* \"#utility.yul\":3581:3587   */\n      dup3\n        /* \"#utility.yul\":3570:3579   */\n      dup6\n        /* \"#utility.yul\":3566:3588   */\n      add\n        /* \"#utility.yul\":3522:3598   */\n      tag_146\n      jump\t// in\n    tag_210:\n        /* \"#utility.yul\":3512:3598   */\n      swap2\n      pop\n        /* \"#utility.yul\":3308:3608   */\n      pop\n        /* \"#utility.yul\":3080:3615   */\n      swap3\n      swap2\n      pop\n      pop\n      jump\t// out\n        /* \"#utility.yul\":3621:3698   */\n    tag_147:\n        /* \"#utility.yul\":3658:3665   */\n      0x00\n        /* \"#utility.yul\":3687:3692   */\n      dup2\n        /* \"#utility.yul\":3676:3692   */\n      swap1\n      pop\n        /* \"#utility.yul\":3621:3698   */\n      swap2\n      swap1\n      pop\n      jump\t// out\n        /* \"#utility.yul\":3704:3822   */\n    tag_148:\n        /* \"#utility.yul\":3791:3815   */\n      tag_213\n        /* \"#utility.yul\":3809:3814   */\n      dup2\n        /* \"#utility.yul\":3791:3815   */\n      tag_147\n      jump\t// in\n    tag_213:\n        /* \"#utility.yul\":3786:3789   */\n      dup3\n        /* \"#utility.yul\":3779:3816   */\n      mstore\n        /* \"#utility.yul\":3704:3822   */\n      pop\n      pop\n      jump\t// out\n        /* \"#utility.yul\":3828:4050   */\n    tag_11:\n        /* \"#utility.yul\":3921:3925   */\n      0x00\n        /* \"#utility.yul\":3959:3961   */\n      0x20\n        /* \"#utility.yul\":3948:3957   */\n      dup3\n        /* \"#utility.yul\":3944:3962   */\n      add\n        /* \"#utility.yul\":3936:3962   */\n      swap1\n      pop\n        /* \"#utility.yul\":3972:4043   */\n      tag_215\n        /* \"#utility.yul\":4040:4041   */\n      0x00\n        /* \"#utility.yul\":4029:4038   */\n      dup4\n        /* \"#utility.yul\":4025:4042   */\n      add\n        /* \"#utility.yul\":4016:4022   */\n      dup5\n        /* \"#utility.yul\":3972:4043   */\n      tag_148\n      jump\t// in\n    tag_215:\n        /* \"#utility.yul\":3828:4050   */\n      swap3\n      swap2\n      pop\n      pop\n      jump\t// out\n        /* \"#utility.yul\":4056:4178   */\n    tag_149:\n        /* \"#utility.yul\":4129:4153   */\n      tag_217\n        /* \"#utility.yul\":4147:4152   */\n      dup2\n        /* \"#utility.yul\":4129:4153   */\n      tag_147\n      jump\t// in\n    tag_217:\n        /* \"#utility.yul\":4122:4127   */\n      dup2\n        /* \"#utility.yul\":4119:4154   */\n      eq\n        /* \"#utility.yul\":4109:4172   */\n      tag_218\n      jumpi\n        /* \"#utility.yul\":4168:4169   */\n      0x00\n        /* \"#utility.yul\":4165:4166   */\n      dup1\n        /* \"#utility.yul\":4158:4170   */\n      revert\n        /* \"#utility.yul\":4109:4172   */\n    tag_218:\n        /* \"#utility.yul\":4056:4178   */\n      pop\n      jump\t// out\n        /* \"#utility.yul\":4184:4323   */\n    tag_150:\n        /* \"#utility.yul\":4230:4235   */\n      0x00\n        /* \"#utility.yul\":4268:4274   */\n      dup2\n        /* \"#utility.yul\":4255:4275   */\n      calldataload\n        /* \"#utility.yul\":4246:4275   */\n      swap1\n      pop\n        /* \"#utility.yul\":4284:4317   */\n      tag_220\n        /* \"#utility.yul\":4311:4316   */\n      dup2\n        /* \"#utility.yul\":4284:4317   */\n      tag_149\n      jump\t// in\n    tag_220:\n        /* \"#utility.yul\":4184:4323   */\n      swap3\n      swap2\n      pop\n      pop\n      jump\t// out\n        /* \"#utility.yul\":4329:4658   */\n    tag_14:\n        /* \"#utility.yul\":4388:4394   */\n      0x00\n        /* \"#utility.yul\":4437:4439   */\n      0x20\n        /* \"#utility.yul\":4425:4434   */\n      dup3\n        /* \"#utility.yul\":4416:4423   */\n      dup5\n        /* \"#utility.yul\":4412:4435   */\n      sub\n        /* \"#utility.yul\":4408:4440   */\n      slt\n        /* \"#utility.yul\":4405:4524   */\n      iszero\n      tag_222\n      jumpi\n        /* \"#utility.yul\":4443:4522   */\n      tag_223\n      tag_134\n      jump\t// in\n    tag_223:\n        /* \"#utility.yul\":4405:4524   */\n    tag_222:\n        /* \"#utility.yul\":4563:4564   */\n      0x00\n        /* \"#utility.yul\":4588:4641   */\n      tag_224\n        /* \"#utility.yul\":4633:4640   */\n      dup5\n        /* \"#utility.yul\":4624:4630   */\n      dup3\n        /* \"#utility.yul\":4613:4622   */\n      dup6\n        /* \"#utility.yul\":4609:4631   */\n      add\n        /* \"#utility.yul\":4588:4641   */\n      tag_150\n      jump\t// in\n    tag_224:\n        /* \"#utility.yul\":4578:4641   */\n      swap2\n      pop\n        /* \"#utility.yul\":4534:4651   */\n      pop\n        /* \"#utility.yul\":4329:4658   */\n      swap3\n      swap2\n      pop\n      pop\n      jump\t// out\n        /* \"#utility.yul\":4664:4776   */\n    tag_151:\n        /* \"#utility.yul\":4729:4735   */\n      0x00\n        /* \"#utility.yul\":4763:4768   */\n      dup2\n        /* \"#utility.yul\":4757:4769   */\n      mload\n        /* \"#utility.yul\":4747:4769   */\n      swap1\n      pop\n        /* \"#utility.yul\":4664:4776   */\n      swap2\n      swap1\n      pop\n      jump\t// out\n        /* \"#utility.yul\":4782:4964   */\n    tag_152:\n        /* \"#utility.yul\":4879:4890   */\n      0x00\n        /* \"#utility.yul\":4913:4919   */\n      dup3\n        /* \"#utility.yul\":4908:4911   */\n      dup3\n        /* \"#utility.yul\":4901:4920   */\n      mstore\n        /* \"#utility.yul\":4953:4957   */\n      0x20\n        /* \"#utility.yul\":4948:4951   */\n      dup3\n        /* \"#utility.yul\":4944:4958   */\n      add\n        /* \"#utility.yul\":4929:4958   */\n      swap1\n      pop\n        /* \"#utility.yul\":4782:4964   */\n      swap3\n      swap2\n      pop\n      pop\n      jump\t// out\n        /* \"#utility.yul\":4970:5100   */\n    tag_153:\n        /* \"#utility.yul\":5035:5039   */\n      0x00\n        /* \"#utility.yul\":5058:5061   */\n      dup2\n        /* \"#utility.yul\":5050:5061   */\n      swap1\n      pop\n        /* \"#utility.yul\":5088:5092   */\n      0x20\n        /* \"#utility.yul\":5083:5086   */\n      dup3\n        /* \"#utility.yul\":5079:5093   */\n      add\n        /* \"#utility.yul\":5071:5093   */\n      swap1\n      pop\n        /* \"#utility.yul\":4970:5100   */\n      swap2\n      swap1\n      pop\n      jump\t// out\n        /* \"#utility.yul\":5106:5208   */\n    tag_154:\n        /* \"#utility.yul\":5179:5201   */\n      tag_229\n        /* \"#utility.yul\":5195:5200   */\n      dup2\n        /* \"#utility.yul\":5179:5201   */\n      tag_142\n      jump\t// in\n    tag_229:\n        /* \"#utility.yul\":5174:5177   */\n      dup3\n        /* \"#utility.yul\":5167:5202   */\n      mstore\n        /* \"#utility.yul\":5106:5208   */\n      pop\n      pop\n      jump\t// out\n        /* \"#utility.yul\":5214:5385   */\n    tag_155:\n        /* \"#utility.yul\":5279:5289   */\n      0x00\n        /* \"#utility.yul\":5300:5342   */\n      tag_231\n        /* \"#utility.yul\":5338:5341   */\n      dup4\n        /* \"#utility.yul\":5330:5336   */\n      dup4\n        /* \"#utility.yul\":5300:5342   */\n      tag_154\n      jump\t// in\n    tag_231:\n        /* \"#utility.yul\":5374:5378   */\n      0x20\n        /* \"#utility.yul\":5369:5372   */\n      dup4\n        /* \"#utility.yul\":5365:5379   */\n      add\n        /* \"#utility.yul\":5351:5379   */\n      swap1\n      pop\n        /* \"#utility.yul\":5214:5385   */\n      swap3\n      swap2\n      pop\n      pop\n      jump\t// out\n        /* \"#utility.yul\":5391:5502   */\n    tag_156:\n        /* \"#utility.yul\":5459:5463   */\n      0x00\n        /* \"#utility.yul\":5491:5495   */\n      0x20\n        /* \"#utility.yul\":5486:5489   */\n      dup3\n        /* \"#utility.yul\":5482:5496   */\n      add\n        /* \"#utility.yul\":5474:5496   */\n      swap1\n      pop\n        /* \"#utility.yul\":5391:5502   */\n      swap2\n      swap1\n      pop\n      jump\t// out\n        /* \"#utility.yul\":5534:6250   */\n    tag_157:\n        /* \"#utility.yul\":5649:5652   */\n      0x00\n        /* \"#utility.yul\":5678:5730   */\n      tag_234\n        /* \"#utility.yul\":5724:5729   */\n      dup3\n        /* \"#utility.yul\":5678:5730   */\n      tag_151\n      jump\t// in\n    tag_234:\n        /* \"#utility.yul\":5746:5830   */\n      tag_235\n        /* \"#utility.yul\":5823:5829   */\n      dup2\n        /* \"#utility.yul\":5818:5821   */\n      dup6\n        /* \"#utility.yul\":5746:5830   */\n      tag_152\n      jump\t// in\n    tag_235:\n        /* \"#utility.yul\":5739:5830   */\n      swap4\n      pop\n        /* \"#utility.yul\":5854:5908   */\n      tag_236\n        /* \"#utility.yul\":5902:5907   */\n      dup4\n        /* \"#utility.yul\":5854:5908   */\n      tag_153\n      jump\t// in\n    tag_236:\n        /* \"#utility.yul\":5931:5938   */\n      dup1\n        /* \"#utility.yul\":5962:5963   */\n      0x00\n        /* \"#utility.yul\":5947:6225   */\n    tag_237:\n        /* \"#utility.yul\":5972:5978   */\n      dup4\n        /* \"#utility.yul\":5969:5970   */\n      dup2\n        /* \"#utility.yul\":5966:5979   */\n      lt\n        /* \"#utility.yul\":5947:6225   */\n      iszero\n      tag_239\n      jumpi\n        /* \"#utility.yul\":6048:6054   */\n      dup2\n        /* \"#utility.yul\":6042:6055   */\n      mload\n        /* \"#utility.yul\":6075:6134   */\n      tag_240\n        /* \"#utility.yul\":6130:6133   */\n      dup9\n        /* \"#utility.yul\":6115:6128   */\n      dup3\n        /* \"#utility.yul\":6075:6134   */\n      tag_155\n      jump\t// in\n    tag_240:\n        /* \"#utility.yul\":6068:6134   */\n      swap8\n      pop\n        /* \"#utility.yul\":6157:6215   */\n      tag_241\n        /* \"#utility.yul\":6208:6214   */\n      dup4\n        /* \"#utility.yul\":6157:6215   */\n      tag_156\n      jump\t// in\n    tag_241:\n        /* \"#utility.yul\":6147:6215   */\n      swap3\n      pop\n        /* \"#utility.yul\":6007:6225   */\n      pop\n        /* \"#utility.yul\":5994:5995   */\n      0x01\n        /* \"#utility.yul\":5991:5992   */\n      dup2\n        /* \"#utility.yul\":5987:5996   */\n      add\n        /* \"#utility.yul\":5982:5996   */\n      swap1\n      pop\n        /* \"#utility.yul\":5947:6225   */\n      jump(tag_237)\n    tag_239:\n        /* \"#utility.yul\":5951:5965   */\n      pop\n        /* \"#utility.yul\":6241:6244   */\n      dup6\n        /* \"#utility.yul\":6234:6244   */\n      swap4\n      pop\n        /* \"#utility.yul\":5654:6250   */\n      pop\n      pop\n      pop\n        /* \"#utility.yul\":5534:6250   */\n      swap3\n      swap2\n      pop\n      pop\n      jump\t// out\n        /* \"#utility.yul\":6256:6621   */\n    tag_17:\n        /* \"#utility.yul\":6395:6399   */\n      0x00\n        /* \"#utility.yul\":6433:6435   */\n      0x20\n        /* \"#utility.yul\":6422:6431   */\n      dup3\n        /* \"#utility.yul\":6418:6436   */\n      add\n        /* \"#utility.yul\":6410:6436   */\n      swap1\n      pop\n        /* \"#utility.yul\":6482:6491   */\n      dup2\n        /* \"#utility.yul\":6476:6480   */\n      dup2\n        /* \"#utility.yul\":6472:6492   */\n      sub\n        /* \"#utility.yul\":6468:6469   */\n      0x00\n        /* \"#utility.yul\":6457:6466   */\n      dup4\n        /* \"#utility.yul\":6453:6470   */\n      add\n        /* \"#utility.yul\":6446:6493   */\n      mstore\n        /* \"#utility.yul\":6510:6614   */\n      tag_243\n        /* \"#utility.yul\":6609:6613   */\n      dup2\n        /* \"#utility.yul\":6600:6606   */\n      dup5\n        /* \"#utility.yul\":6510:6614   */\n      tag_157\n      jump\t// in\n    tag_243:\n        /* \"#utility.yul\":6502:6614   */\n      swap1\n      pop\n        /* \"#utility.yul\":6256:6621   */\n      swap3\n      swap2\n      pop\n      pop\n      jump\t// out\n        /* \"#utility.yul\":6627:7246   */\n    tag_20:\n        /* \"#utility.yul\":6704:6710   */\n      0x00\n        /* \"#utility.yul\":6712:6718   */\n      dup1\n        /* \"#utility.yul\":6720:6726   */\n      0x00\n        /* \"#utility.yul\":6769:6771   */\n      0x60\n        /* \"#utility.yul\":6757:6766   */\n      dup5\n        /* \"#utility.yul\":6748:6755   */\n      dup7\n        /* \"#utility.yul\":6744:6767   */\n      sub\n        /* \"#utility.yul\":6740:6772   */\n      slt\n        /* \"#utility.yul\":6737:6856   */\n      iszero\n      tag_245\n      jumpi\n        /* \"#utility.yul\":6775:6854   */\n      tag_246\n      tag_134\n      jump\t// in\n    tag_246:\n        /* \"#utility.yul\":6737:6856   */\n    tag_245:\n        /* \"#utility.yul\":6895:6896   */\n      0x00\n        /* \"#utility.yul\":6920:6973   */\n      tag_247\n        /* \"#utility.yul\":6965:6972   */\n      dup7\n        /* \"#utility.yul\":6956:6962   */\n      dup3\n        /* \"#utility.yul\":6945:6954   */\n      dup8\n        /* \"#utility.yul\":6941:6963   */\n      add\n        /* \"#utility.yul\":6920:6973   */\n      tag_150\n      jump\t// in\n    tag_247:\n        /* \"#utility.yul\":6910:6973   */\n      swap4\n      pop\n        /* \"#utility.yul\":6866:6983   */\n      pop\n        /* \"#utility.yul\":7022:7024   */\n      0x20\n        /* \"#utility.yul\":7048:7101   */\n      tag_248\n        /* \"#utility.yul\":7093:7100   */\n      dup7\n        /* \"#utility.yul\":7084:7090   */\n      dup3\n        /* \"#utility.yul\":7073:7082   */\n      dup8\n        /* \"#utility.yul\":7069:7091   */\n      add\n        /* \"#utility.yul\":7048:7101   */\n      tag_150\n      jump\t// in\n    tag_248:\n        /* \"#utility.yul\":7038:7101   */\n      swap3\n      pop\n        /* \"#utility.yul\":6993:7111   */\n      pop\n        /* \"#utility.yul\":7150:7152   */\n      0x40\n        /* \"#utility.yul\":7176:7229   */\n      tag_249\n        /* \"#utility.yul\":7221:7228   */\n      dup7\n        /* \"#utility.yul\":7212:7218   */\n      dup3\n        /* \"#utility.yul\":7201:7210   */\n      dup8\n        /* \"#utility.yul\":7197:7219   */\n      add\n        /* \"#utility.yul\":7176:7229   */\n      tag_150\n      jump\t// in\n    tag_249:\n        /* \"#utility.yul\":7166:7229   */\n      swap2\n      pop\n        /* \"#utility.yul\":7121:7239   */\n      pop\n        /* \"#utility.yul\":6627:7246   */\n      swap3\n      pop\n      swap3\n      pop\n      swap3\n      jump\t// out\n        /* \"#utility.yul\":7252:7432   */\n    tag_158:\n        /* \"#utility.yul\":7300:7377   */\n      0x4e487b7100000000000000000000000000000000000000000000000000000000\n        /* \"#utility.yul\":7297:7298   */\n      0x00\n        /* \"#utility.yul\":7290:7378   */\n      mstore\n        /* \"#utility.yul\":7397:7401   */\n      0x11\n        /* \"#utility.yul\":7394:7395   */\n      0x04\n        /* \"#utility.yul\":7387:7402   */\n      mstore\n        /* \"#utility.yul\":7421:7425   */\n      0x24\n        /* \"#utility.yul\":7418:7419   */\n      0x00\n        /* \"#utility.yul\":7411:7426   */\n      revert\n        /* \"#utility.yul\":7438:7632   */\n    tag_28:\n        /* \"#utility.yul\":7478:7482   */\n      0x00\n        /* \"#utility.yul\":7498:7518   */\n      tag_252\n        /* \"#utility.yul\":7516:7517   */\n      dup3\n        /* \"#utility.yul\":7498:7518   */\n      tag_147\n      jump\t// in\n    tag_252:\n        /* \"#utility.yul\":7493:7518   */\n      swap2\n      pop\n        /* \"#utility.yul\":7532:7552   */\n      tag_253\n        /* \"#utility.yul\":7550:7551   */\n      dup4\n        /* \"#utility.yul\":7532:7552   */\n      tag_147\n      jump\t// in\n    tag_253:\n        /* \"#utility.yul\":7527:7552   */\n      swap3\n      pop\n        /* \"#utility.yul\":7576:7577   */\n      dup3\n        /* \"#utility.yul\":7573:7574   */\n      dup3\n        /* \"#utility.yul\":7569:7578   */\n      sub\n        /* \"#utility.yul\":7561:7578   */\n      swap1\n      pop\n        /* \"#utility.yul\":7600:7601   */\n      dup2\n        /* \"#utility.yul\":7594:7598   */\n      dup2\n        /* \"#utility.yul\":7591:7602   */\n      gt\n        /* \"#utility.yul\":7588:7625   */\n      iszero\n      tag_254\n      jumpi\n        /* \"#utility.yul\":7605:7623   */\n      tag_255\n      tag_158\n      jump\t// in\n    tag_255:\n        /* \"#utility.yul\":7588:7625   */\n    tag_254:\n        /* \"#utility.yul\":7438:7632   */\n      swap3\n      swap2\n      pop\n      pop\n      jump\t// out\n        /* \"#utility.yul\":7638:7818   */\n    tag_32:\n        /* \"#utility.yul\":7686:7763   */\n      0x4e487b7100000000000000000000000000000000000000000000000000000000\n        /* \"#utility.yul\":7683:7684   */\n      0x00\n        /* \"#utility.yul\":7676:7764   */\n      mstore\n        /* \"#utility.yul\":7783:7787   */\n      0x32\n        /* \"#utility.yul\":7780:7781   */\n      0x04\n        /* \"#utility.yul\":7773:7788   */\n      mstore\n        /* \"#utility.yul\":7807:7811   */\n      0x24\n        /* \"#utility.yul\":7804:7805   */\n      0x00\n        /* \"#utility.yul\":7797:7812   */\n      revert\n        /* \"#utility.yul\":7824:8057   */\n    tag_34:\n        /* \"#utility.yul\":7863:7866   */\n      0x00\n        /* \"#utility.yul\":7886:7910   */\n      tag_258\n        /* \"#utility.yul\":7904:7909   */\n      dup3\n        /* \"#utility.yul\":7886:7910   */\n      tag_147\n      jump\t// in\n    tag_258:\n        /* \"#utility.yul\":7877:7910   */\n      swap2\n      pop\n        /* \"#utility.yul\":7932:7998   */\n      0xffffffffffffffffffffffffffffffffffffffffffffffffffffffffffffffff\n        /* \"#utility.yul\":7925:7930   */\n      dup3\n        /* \"#utility.yul\":7922:7999   */\n      sub\n        /* \"#utility.yul\":7919:8022   */\n      tag_259\n      jumpi\n        /* \"#utility.yul\":8002:8020   */\n      tag_260\n      tag_158\n      jump\t// in\n    tag_260:\n        /* \"#utility.yul\":7919:8022   */\n    tag_259:\n        /* \"#utility.yul\":8049:8050   */\n      0x01\n        /* \"#utility.yul\":8042:8047   */\n      dup3\n        /* \"#utility.yul\":8038:8051   */\n      add\n        /* \"#utility.yul\":8031:8051   */\n      swap1\n      pop\n        /* \"#utility.yul\":7824:8057   */\n      swap2\n      swap1\n      pop\n      jump\t// out\n        /* \"#utility.yul\":8063:8142   */\n    tag_159:\n        /* \"#utility.yul\":8102:8109   */\n      0x00\n        /* \"#utility.yul\":8131:8136   */\n      dup2\n        /* \"#utility.yul\":8120:8136   */\n      swap1\n      pop\n        /* \"#utility.yul\":8063:8142   */\n      swap2\n      swap1\n      pop\n      jump\t// out\n        /* \"#utility.yul\":8148:8305   */\n    tag_160:\n        /* \"#utility.yul\":8253:8298   */\n      tag_263\n        /* \"#utility.yul\":8273:8297   */\n      tag_264\n        /* \"#utility.yul\":8291:8296   */\n      dup3\n        /* \"#utility.yul\":8273:8297   */\n      tag_147\n      jump\t// in\n    tag_264:\n        /* \"#utility.yul\":8253:8298   */\n      tag_159\n      jump\t// in\n    tag_263:\n        /* \"#utility.yul\":8248:8251   */\n      dup3\n        /* \"#utility.yul\":8241:8299   */\n      mstore\n        /* \"#utility.yul\":8148:8305   */\n      pop\n      pop\n      jump\t// out\n        /* \"#utility.yul\":8311:9272   */\n    tag_55:\n        /* \"#utility.yul\":8563:8566   */\n      0x00\n        /* \"#utility.yul\":8578:8653   */\n      tag_266\n        /* \"#utility.yul\":8649:8652   */\n      dup3\n        /* \"#utility.yul\":8640:8646   */\n      dup10\n        /* \"#utility.yul\":8578:8653   */\n      tag_160\n      jump\t// in\n    tag_266:\n        /* \"#utility.yul\":8678:8680   */\n      0x20\n        /* \"#utility.yul\":8673:8676   */\n      dup3\n        /* \"#utility.yul\":8669:8681   */\n      add\n        /* \"#utility.yul\":8662:8681   */\n      swap2\n      pop\n        /* \"#utility.yul\":8691:8766   */\n      tag_267\n        /* \"#utility.yul\":8762:8765   */\n      dup3\n        /* \"#utility.yul\":8753:8759   */\n      dup9\n        /* \"#utility.yul\":8691:8766   */\n      tag_160\n      jump\t// in\n    tag_267:\n        /* \"#utility.yul\":8791:8793   */\n      0x20\n        /* \"#utility.yul\":8786:8789   */\n      dup3\n        /* \"#utility.yul\":8782:8794   */\n      add\n        /* \"#utility.yul\":8775:8794   */\n      swap2\n      pop\n        /* \"#utility.yul\":8804:8879   */\n      tag_268\n        /* \"#utility.yul\":8875:8878   */\n      dup3\n        /* \"#utility.yul\":8866:8872   */\n      dup8\n        /* \"#utility.yul\":8804:8879   */\n      tag_160\n      jump\t// in\n    tag_268:\n        /* \"#utility.yul\":8904:8906   */\n      0x20\n        /* \"#utility.yul\":8899:8902   */\n      dup3\n        /* \"#utility.yul\":8895:8907   */\n      add\n        /* \"#utility.yul\":8888:8907   */\n      swap2\n      pop\n        /* \"#utility.yul\":8917:8992   */\n      tag_269\n        /* \"#utility.yul\":8988:8991   */\n      dup3\n        /* \"#utility.yul\":8979:8985   */\n      dup7\n        /* \"#utility.yul\":8917:8992   */\n      tag_160\n      jump\t// in\n    tag_269:\n        /* \"#utility.yul\":9017:9019   */\n      0x20\n        /* \"#utility.yul\":9012:9015   */\n      dup3\n        /* \"#utility.yul\":9008:9020   */\n      add\n        /* \"#utility.yul\":9001:9020   */\n      swap2\n      pop\n        /* \"#utility.yul\":9030:9105   */\n      tag_270\n        /* \"#utility.yul\":9101:9104   */\n      dup3\n        /* \"#utility.yul\":9092:9098   */\n      dup6\n        /* \"#utility.yul\":9030:9105   */\n      tag_160\n      jump\t// in\n    tag_270:\n        /* \"#utility.yul\":9130:9132   */\n      0x20\n        /* \"#utility.yul\":9125:9128   */\n      dup3\n        /* \"#utility.yul\":9121:9133   */\n      add\n        /* \"#utility.yul\":9114:9133   */\n      swap2\n      pop\n        /* \"#utility.yul\":9143:9218   */\n      tag_271\n        /* \"#utility.yul\":9214:9217   */\n      dup3\n        /* \"#utility.yul\":9205:9211   */\n      dup5\n        /* \"#utility.yul\":9143:9218   */\n      tag_160\n      jump\t// in\n    tag_271:\n        /* \"#utility.yul\":9243:9245   */\n      0x20\n        /* \"#utility.yul\":9238:9241   */\n      dup3\n        /* \"#utility.yul\":9234:9246   */\n      add\n        /* \"#utility.yul\":9227:9246   */\n      swap2\n      pop\n        /* \"#utility.yul\":9263:9266   */\n      dup2\n        /* \"#utility.yul\":9256:9266   */\n      swap1\n      pop\n        /* \"#utility.yul\":8311:9272   */\n      swap8\n      swap7\n      pop\n      pop\n      pop\n      pop\n      pop\n      pop\n      pop\n      jump\t// out\n        /* \"#utility.yul\":9278:9447   */\n    tag_161:\n        /* \"#utility.yul\":9362:9373   */\n      0x00\n        /* \"#utility.yul\":9396:9402   */\n      dup3\n        /* \"#utility.yul\":9391:9394   */\n      dup3\n        /* \"#utility.yul\":9384:9403   */\n      mstore\n        /* \"#utility.yul\":9436:9440   */\n      0x20\n        /* \"#utility.yul\":9431:9434   */\n      dup3\n        /* \"#utility.yul\":9427:9441   */\n      add\n        /* \"#utility.yul\":9412:9441   */\n      swap1\n      pop\n        /* \"#utility.yul\":9278:9447   */\n      swap3\n      swap2\n      pop\n      pop\n      jump\t// out\n        /* \"#utility.yul\":9453:9617   */\n    tag_162:\n        /* \"#utility.yul\":9593:9609   */\n      0x72616e646f6d53656564203d2030000000000000000000000000000000000000\n        /* \"#utility.yul\":9589:9590   */\n      0x00\n        /* \"#utility.yul\":9581:9587   */\n      dup3\n        /* \"#utility.yul\":9577:9591   */\n      add\n        /* \"#utility.yul\":9570:9610   */\n      mstore\n        /* \"#utility.yul\":9453:9617   */\n      pop\n      jump\t// out\n        /* \"#utility.yul\":9623:9989   */\n    tag_163:\n        /* \"#utility.yul\":9765:9768   */\n      0x00\n        /* \"#utility.yul\":9786:9853   */\n      tag_275\n        /* \"#utility.yul\":9850:9852   */\n      0x0e\n        /* \"#utility.yul\":9845:9848   */\n      dup4\n        /* \"#utility.yul\":9786:9853   */\n      tag_161\n      jump\t// in\n    tag_275:\n        /* \"#utility.yul\":9779:9853   */\n      swap2\n      pop\n        /* \"#utility.yul\":9862:9955   */\n      tag_276\n        /* \"#utility.yul\":9951:9954   */\n      dup3\n        /* \"#utility.yul\":9862:9955   */\n      tag_162\n      jump\t// in\n    tag_276:\n        /* \"#utility.yul\":9980:9982   */\n      0x20\n        /* \"#utility.yul\":9975:9978   */\n      dup3\n        /* \"#utility.yul\":9971:9983   */\n      add\n        /* \"#utility.yul\":9964:9983   */\n      swap1\n      pop\n        /* \"#utility.yul\":9623:9989   */\n      swap2\n      swap1\n      pop\n      jump\t// out\n        /* \"#utility.yul\":9995:10414   */\n    tag_58:\n        /* \"#utility.yul\":10161:10165   */\n      0x00\n        /* \"#utility.yul\":10199:10201   */\n      0x20\n        /* \"#utility.yul\":10188:10197   */\n      dup3\n        /* \"#utility.yul\":10184:10202   */\n      add\n        /* \"#utility.yul\":10176:10202   */\n      swap1\n      pop\n        /* \"#utility.yul\":10248:10257   */\n      dup2\n        /* \"#utility.yul\":10242:10246   */\n      dup2\n        /* \"#utility.yul\":10238:10258   */\n      sub\n        /* \"#utility.yul\":10234:10235   */\n      0x00\n        /* \"#utility.yul\":10223:10232   */\n      dup4\n        /* \"#utility.yul\":10219:10236   */\n      add\n        /* \"#utility.yul\":10212:10259   */\n      mstore\n        /* \"#utility.yul\":10276:10407   */\n      tag_278\n        /* \"#utility.yul\":10402:10406   */\n      dup2\n        /* \"#utility.yul\":10276:10407   */\n      tag_163\n      jump\t// in\n    tag_278:\n        /* \"#utility.yul\":10268:10407   */\n      swap1\n      pop\n        /* \"#utility.yul\":9995:10414   */\n      swap2\n      swap1\n      pop\n      jump\t// out\n        /* \"#utility.yul\":10420:10587   */\n    tag_72:\n        /* \"#utility.yul\":10457:10460   */\n      0x00\n        /* \"#utility.yul\":10480:10502   */\n      tag_280\n        /* \"#utility.yul\":10496:10501   */\n      dup3\n        /* \"#utility.yul\":10480:10502   */\n      tag_142\n      jump\t// in\n    tag_280:\n        /* \"#utility.yul\":10471:10502   */\n      swap2\n      pop\n        /* \"#utility.yul\":10524:10528   */\n      0xff\n        /* \"#utility.yul\":10517:10522   */\n      dup3\n        /* \"#utility.yul\":10514:10529   */\n      sub\n        /* \"#utility.yul\":10511:10552   */\n      tag_281\n      jumpi\n        /* \"#utility.yul\":10532:10550   */\n      tag_282\n      tag_158\n      jump\t// in\n    tag_282:\n        /* \"#utility.yul\":10511:10552   */\n    tag_281:\n        /* \"#utility.yul\":10579:10580   */\n      0x01\n        /* \"#utility.yul\":10572:10577   */\n      dup3\n        /* \"#utility.yul\":10568:10581   */\n      add\n        /* \"#utility.yul\":10561:10581   */\n      swap1\n      pop\n        /* \"#utility.yul\":10420:10587   */\n      swap2\n      swap1\n      pop\n      jump\t// out\n        /* \"#utility.yul\":10593:10784   */\n    tag_74:\n        /* \"#utility.yul\":10633:10636   */\n      0x00\n        /* \"#utility.yul\":10652:10672   */\n      tag_284\n        /* \"#utility.yul\":10670:10671   */\n      dup3\n        /* \"#utility.yul\":10652:10672   */\n      tag_147\n      jump\t// in\n    tag_284:\n        /* \"#utility.yul\":10647:10672   */\n      swap2\n      pop\n        /* \"#utility.yul\":10686:10706   */\n      tag_285\n        /* \"#utility.yul\":10704:10705   */\n      dup4\n        /* \"#utility.yul\":10686:10706   */\n      tag_147\n      jump\t// in\n    tag_285:\n        /* \"#utility.yul\":10681:10706   */\n      swap3\n      pop\n        /* \"#utility.yul\":10729:10730   */\n      dup3\n        /* \"#utility.yul\":10726:10727   */\n      dup3\n        /* \"#utility.yul\":10722:10731   */\n      add\n        /* \"#utility.yul\":10715:10731   */\n      swap1\n      pop\n        /* \"#utility.yul\":10750:10753   */\n      dup1\n        /* \"#utility.yul\":10747:10748   */\n      dup3\n        /* \"#utility.yul\":10744:10754   */\n      gt\n        /* \"#utility.yul\":10741:10777   */\n      iszero\n      tag_286\n      jumpi\n        /* \"#utility.yul\":10757:10775   */\n      tag_287\n      tag_158\n      jump\t// in\n    tag_287:\n        /* \"#utility.yul\":10741:10777   */\n    tag_286:\n        /* \"#utility.yul\":10593:10784   */\n      swap3\n      swap2\n      pop\n      pop\n      jump\t// out\n        /* \"#utility.yul\":10790:11200   */\n    tag_91:\n        /* \"#utility.yul\":10830:10837   */\n      0x00\n        /* \"#utility.yul\":10853:10873   */\n      tag_289\n        /* \"#utility.yul\":10871:10872   */\n      dup3\n        /* \"#utility.yul\":10853:10873   */\n      tag_147\n      jump\t// in\n    tag_289:\n        /* \"#utility.yul\":10848:10873   */\n      swap2\n      pop\n        /* \"#utility.yul\":10887:10907   */\n      tag_290\n        /* \"#utility.yul\":10905:10906   */\n      dup4\n        /* \"#utility.yul\":10887:10907   */\n      tag_147\n      jump\t// in\n    tag_290:\n        /* \"#utility.yul\":10882:10907   */\n      swap3\n      pop\n        /* \"#utility.yul\":10942:10943   */\n      dup3\n        /* \"#utility.yul\":10939:10940   */\n      dup3\n        /* \"#utility.yul\":10935:10944   */\n      mul\n        /* \"#utility.yul\":10964:10994   */\n      tag_291\n        /* \"#utility.yul\":10982:10993   */\n      dup2\n        /* \"#utility.yul\":10964:10994   */\n      tag_147\n      jump\t// in\n    tag_291:\n        /* \"#utility.yul\":10953:10994   */\n      swap2\n      pop\n        /* \"#utility.yul\":11143:11144   */\n      dup3\n        /* \"#utility.yul\":11134:11141   */\n      dup3\n        /* \"#utility.yul\":11130:11145   */\n      div\n        /* \"#utility.yul\":11127:11128   */\n      dup5\n        /* \"#utility.yul\":11124:11146   */\n      eq\n        /* \"#utility.yul\":11104:11105   */\n      dup4\n        /* \"#utility.yul\":11097:11106   */\n      iszero\n        /* \"#utility.yul\":11077:11160   */\n      or\n        /* \"#utility.yul\":11054:11193   */\n      tag_292\n      jumpi\n        /* \"#utility.yul\":11173:11191   */\n      tag_293\n      tag_158\n      jump\t// in\n    tag_293:\n        /* \"#utility.yul\":11054:11193   */\n    tag_292:\n        /* \"#utility.yul\":10838:11200   */\n      pop\n        /* \"#utility.yul\":10790:11200   */\n      swap3\n      swap2\n      pop\n      pop\n      jump\t// out\n        /* \"#utility.yul\":11206:11386   */\n    tag_164:\n        /* \"#utility.yul\":11254:11331   */\n      0x4e487b7100000000000000000000000000000000000000000000000000000000\n        /* \"#utility.yul\":11251:11252   */\n      0x00\n        /* \"#utility.yul\":11244:11332   */\n      mstore\n        /* \"#utility.yul\":11351:11355   */\n      0x12\n        /* \"#utility.yul\":11348:11349   */\n      0x04\n        /* \"#utility.yul\":11341:11356   */\n      mstore\n        /* \"#utility.yul\":11375:11379   */\n      0x24\n        /* \"#utility.yul\":11372:11373   */\n      0x00\n        /* \"#utility.yul\":11365:11380   */\n      revert\n        /* \"#utility.yul\":11392:11577   */\n    tag_113:\n        /* \"#utility.yul\":11432:11433   */\n      0x00\n        /* \"#utility.yul\":11449:11469   */\n      tag_296\n        /* \"#utility.yul\":11467:11468   */\n      dup3\n        /* \"#utility.yul\":11449:11469   */\n      tag_147\n      jump\t// in\n    tag_296:\n        /* \"#utility.yul\":11444:11469   */\n      swap2\n      pop\n        /* \"#utility.yul\":11483:11503   */\n      tag_297\n        /* \"#utility.yul\":11501:11502   */\n      dup4\n        /* \"#utility.yul\":11483:11503   */\n      tag_147\n      jump\t// in\n    tag_297:\n        /* \"#utility.yul\":11478:11503   */\n      swap3\n      pop\n        /* \"#utility.yul\":11522:11523   */\n      dup3\n        /* \"#utility.yul\":11512:11547   */\n      tag_298\n      jumpi\n        /* \"#utility.yul\":11527:11545   */\n      tag_299\n      tag_164\n      jump\t// in\n    tag_299:\n        /* \"#utility.yul\":11512:11547   */\n    tag_298:\n        /* \"#utility.yul\":11569:11570   */\n      dup3\n        /* \"#utility.yul\":11566:11567   */\n      dup3\n        /* \"#utility.yul\":11562:11571   */\n      div\n        /* \"#utility.yul\":11557:11571   */\n      swap1\n      pop\n        /* \"#utility.yul\":11392:11577   */\n      swap3\n      swap2\n      pop\n      pop\n      jump\t// out\n        /* \"#utility.yul\":11583:11685   */\n    tag_165:\n        /* \"#utility.yul\":11625:11633   */\n      0x00\n        /* \"#utility.yul\":11672:11677   */\n      dup2\n        /* \"#utility.yul\":11669:11670   */\n      0x01\n        /* \"#utility.yul\":11665:11678   */\n      shr\n        /* \"#utility.yul\":11644:11678   */\n      swap1\n      pop\n        /* \"#utility.yul\":11583:11685   */\n      swap2\n      swap1\n      pop\n      jump\t// out\n        /* \"#utility.yul\":11691:12539   */\n    tag_166:\n        /* \"#utility.yul\":11752:11757   */\n      0x00\n        /* \"#utility.yul\":11759:11763   */\n      dup1\n        /* \"#utility.yul\":11783:11789   */\n      dup3\n        /* \"#utility.yul\":11774:11789   */\n      swap2\n      pop\n        /* \"#utility.yul\":11807:11812   */\n      dup4\n        /* \"#utility.yul\":11798:11812   */\n      swap1\n      pop\n        /* \"#utility.yul\":11821:12533   */\n    tag_302:\n        /* \"#utility.yul\":11842:11843   */\n      0x01\n        /* \"#utility.yul\":11832:11840   */\n      dup6\n        /* \"#utility.yul\":11829:11844   */\n      gt\n        /* \"#utility.yul\":11821:12533   */\n      iszero\n      tag_304\n      jumpi\n        /* \"#utility.yul\":11937:11941   */\n      dup1\n        /* \"#utility.yul\":11932:11935   */\n      dup7\n        /* \"#utility.yul\":11928:11942   */\n      div\n        /* \"#utility.yul\":11922:11926   */\n      dup2\n        /* \"#utility.yul\":11919:11943   */\n      gt\n        /* \"#utility.yul\":11916:11966   */\n      iszero\n      tag_305\n      jumpi\n        /* \"#utility.yul\":11946:11964   */\n      tag_306\n      tag_158\n      jump\t// in\n    tag_306:\n        /* \"#utility.yul\":11916:11966   */\n    tag_305:\n        /* \"#utility.yul\":11996:11997   */\n      0x01\n        /* \"#utility.yul\":11986:11994   */\n      dup6\n        /* \"#utility.yul\":11982:11998   */\n      and\n        /* \"#utility.yul\":11979:12430   */\n      iszero\n      tag_307\n      jumpi\n        /* \"#utility.yul\":12411:12415   */\n      dup1\n        /* \"#utility.yul\":12404:12409   */\n      dup3\n        /* \"#utility.yul\":12400:12416   */\n      mul\n        /* \"#utility.yul\":12391:12416   */\n      swap2\n      pop\n        /* \"#utility.yul\":11979:12430   */\n    tag_307:\n        /* \"#utility.yul\":12461:12465   */\n      dup1\n        /* \"#utility.yul\":12455:12459   */\n      dup2\n        /* \"#utility.yul\":12451:12466   */\n      mul\n        /* \"#utility.yul\":12443:12466   */\n      swap1\n      pop\n        /* \"#utility.yul\":12491:12523   */\n      tag_308\n        /* \"#utility.yul\":12514:12522   */\n      dup6\n        /* \"#utility.yul\":12491:12523   */\n      tag_165\n      jump\t// in\n    tag_308:\n        /* \"#utility.yul\":12479:12523   */\n      swap5\n      pop\n        /* \"#utility.yul\":11821:12533   */\n      jump(tag_302)\n    tag_304:\n        /* \"#utility.yul\":11691:12539   */\n      swap5\n      pop\n      swap5\n      swap3\n      pop\n      pop\n      pop\n      jump\t// out\n        /* \"#utility.yul\":12545:13618   */\n    tag_167:\n        /* \"#utility.yul\":12599:12604   */\n      0x00\n        /* \"#utility.yul\":12790:12798   */\n      dup3\n        /* \"#utility.yul\":12780:12820   */\n      tag_310\n      jumpi\n        /* \"#utility.yul\":12811:12812   */\n      0x01\n        /* \"#utility.yul\":12802:12812   */\n      swap1\n      pop\n        /* \"#utility.yul\":12813:12818   */\n      jump(tag_309)\n        /* \"#utility.yul\":12780:12820   */\n    tag_310:\n        /* \"#utility.yul\":12839:12843   */\n      dup2\n        /* \"#utility.yul\":12829:12865   */\n      tag_311\n      jumpi\n        /* \"#utility.yul\":12856:12857   */\n      0x00\n        /* \"#utility.yul\":12847:12857   */\n      swap1\n      pop\n        /* \"#utility.yul\":12858:12863   */\n      jump(tag_309)\n        /* \"#utility.yul\":12829:12865   */\n    tag_311:\n        /* \"#utility.yul\":12925:12929   */\n      dup2\n        /* \"#utility.yul\":12973:12974   */\n      0x01\n        /* \"#utility.yul\":12968:12995   */\n      dup2\n      eq\n      tag_313\n      jumpi\n        /* \"#utility.yul\":13009:13010   */\n      0x02\n        /* \"#utility.yul\":13004:13195   */\n      dup2\n      eq\n      tag_314\n      jumpi\n        /* \"#utility.yul\":12918:13195   */\n      jump(tag_312)\n        /* \"#utility.yul\":12968:12995   */\n    tag_313:\n        /* \"#utility.yul\":12986:12987   */\n      0x01\n        /* \"#utility.yul\":12977:12987   */\n      swap2\n      pop\n        /* \"#utility.yul\":12988:12993   */\n      pop\n      jump(tag_309)\n        /* \"#utility.yul\":13004:13195   */\n    tag_314:\n        /* \"#utility.yul\":13049:13052   */\n      0xff\n        /* \"#utility.yul\":13039:13047   */\n      dup5\n        /* \"#utility.yul\":13036:13053   */\n      gt\n        /* \"#utility.yul\":13033:13076   */\n      iszero\n      tag_315\n      jumpi\n        /* \"#utility.yul\":13056:13074   */\n      tag_316\n      tag_158\n      jump\t// in\n    tag_316:\n        /* \"#utility.yul\":13033:13076   */\n    tag_315:\n        /* \"#utility.yul\":13105:13113   */\n      dup4\n        /* \"#utility.yul\":13102:13103   */\n      0x02\n        /* \"#utility.yul\":13098:13114   */\n      exp\n        /* \"#utility.yul\":13089:13114   */\n      swap2\n      pop\n        /* \"#utility.yul\":13140:13143   */\n      dup5\n        /* \"#utility.yul\":13133:13138   */\n      dup3\n        /* \"#utility.yul\":13130:13144   */\n      gt\n        /* \"#utility.yul\":13127:13167   */\n      iszero\n      tag_317\n      jumpi\n        /* \"#utility.yul\":13147:13165   */\n      tag_318\n      tag_158\n      jump\t// in\n    tag_318:\n        /* \"#utility.yul\":13127:13167   */\n    tag_317:\n        /* \"#utility.yul\":13180:13185   */\n      pop\n      jump(tag_309)\n        /* \"#utility.yul\":12918:13195   */\n    tag_312:\n      pop\n        /* \"#utility.yul\":13304:13306   */\n      0x20\n        /* \"#utility.yul\":13294:13302   */\n      dup4\n        /* \"#utility.yul\":13291:13307   */\n      lt\n        /* \"#utility.yul\":13285:13288   */\n      0x0133\n        /* \"#utility.yul\":13279:13283   */\n      dup4\n        /* \"#utility.yul\":13276:13289   */\n      lt\n        /* \"#utility.yul\":13272:13308   */\n      and\n        /* \"#utility.yul\":13254:13256   */\n      0x4e\n        /* \"#utility.yul\":13244:13252   */\n      dup5\n        /* \"#utility.yul\":13241:13257   */\n      lt\n        /* \"#utility.yul\":13236:13238   */\n      0x0b\n        /* \"#utility.yul\":13230:13234   */\n      dup5\n        /* \"#utility.yul\":13227:13239   */\n      lt\n        /* \"#utility.yul\":13223:13258   */\n      and\n        /* \"#utility.yul\":13207:13318   */\n      or\n        /* \"#utility.yul\":13204:13450   */\n      iszero\n      tag_319\n      jumpi\n        /* \"#utility.yul\":13360:13368   */\n      dup3\n        /* \"#utility.yul\":13354:13358   */\n      dup3\n        /* \"#utility.yul\":13350:13369   */\n      exp\n        /* \"#utility.yul\":13341:13369   */\n      swap1\n      pop\n        /* \"#utility.yul\":13395:13398   */\n      dup4\n        /* \"#utility.yul\":13388:13393   */\n      dup2\n        /* \"#utility.yul\":13385:13399   */\n      gt\n        /* \"#utility.yul\":13382:13422   */\n      iszero\n      tag_320\n      jumpi\n        /* \"#utility.yul\":13402:13420   */\n      tag_321\n      tag_158\n      jump\t// in\n    tag_321:\n        /* \"#utility.yul\":13382:13422   */\n    tag_320:\n        /* \"#utility.yul\":13435:13440   */\n      jump(tag_309)\n        /* \"#utility.yul\":13204:13450   */\n    tag_319:\n        /* \"#utility.yul\":13475:13517   */\n      tag_322\n        /* \"#utility.yul\":13513:13516   */\n      dup5\n        /* \"#utility.yul\":13503:13511   */\n      dup5\n        /* \"#utility.yul\":13497:13501   */\n      dup5\n        /* \"#utility.yul\":13494:13495   */\n      0x01\n        /* \"#utility.yul\":13475:13517   */\n      tag_166\n      jump\t// in\n    tag_322:\n        /* \"#utility.yul\":13460:13517   */\n      swap3\n      pop\n      swap1\n      pop\n        /* \"#utility.yul\":13549:13553   */\n      dup2\n        /* \"#utility.yul\":13544:13547   */\n      dup5\n        /* \"#utility.yul\":13540:13554   */\n      div\n        /* \"#utility.yul\":13533:13538   */\n      dup2\n        /* \"#utility.yul\":13530:13555   */\n      gt\n        /* \"#utility.yul\":13527:13578   */\n      iszero\n      tag_323\n      jumpi\n        /* \"#utility.yul\":13558:13576   */\n      tag_324\n      tag_158\n      jump\t// in\n    tag_324:\n        /* \"#utility.yul\":13527:13578   */\n    tag_323:\n        /* \"#utility.yul\":13607:13611   */\n      dup2\n        /* \"#utility.yul\":13600:13605   */\n      dup2\n        /* \"#utility.yul\":13596:13612   */\n      mul\n        /* \"#utility.yul\":13587:13612   */\n      swap1\n      pop\n        /* \"#utility.yul\":12545:13618   */\n    tag_309:\n      swap4\n      swap3\n      pop\n      pop\n      pop\n      jump\t// out\n        /* \"#utility.yul\":13624:13909   */\n    tag_118:\n        /* \"#utility.yul\":13684:13689   */\n      0x00\n        /* \"#utility.yul\":13708:13731   */\n      tag_326\n        /* \"#utility.yul\":13726:13730   */\n      dup3\n        /* \"#utility.yul\":13708:13731   */\n      tag_147\n      jump\t// in\n    tag_326:\n        /* \"#utility.yul\":13700:13731   */\n      swap2\n      pop\n        /* \"#utility.yul\":13752:13779   */\n      tag_327\n        /* \"#utility.yul\":13770:13778   */\n      dup4\n        /* \"#utility.yul\":13752:13779   */\n      tag_147\n      jump\t// in\n    tag_327:\n        /* \"#utility.yul\":13740:13779   */\n      swap3\n      pop\n        /* \"#utility.yul\":13798:13902   */\n      tag_328\n        /* \"#utility.yul\":13835:13901   */\n      0xffffffffffffffffffffffffffffffffffffffffffffffffffffffffffffffff\n        /* \"#utility.yul\":13825:13833   */\n      dup5\n        /* \"#utility.yul\":13819:13823   */\n      dup5\n        /* \"#utility.yul\":13798:13902   */\n      tag_167\n      jump\t// in\n    tag_328:\n        /* \"#utility.yul\":13789:13902   */\n      swap1\n      pop\n        /* \"#utility.yul\":13624:13909   */\n      swap3\n      swap2\n      pop\n      pop\n      jump\t// out\n        /* \"#utility.yul\":13915:14312   */\n    tag_126:\n        /* \"#utility.yul\":14055:14058   */\n      0x00\n        /* \"#utility.yul\":14070:14145   */\n      tag_330\n        /* \"#utility.yul\":14141:14144   */\n      dup3\n        /* \"#utility.yul\":14132:14138   */\n      dup6\n        /* \"#utility.yul\":14070:14145   */\n      tag_160\n      jump\t// in\n    tag_330:\n        /* \"#utility.yul\":14170:14172   */\n      0x20\n        /* \"#utility.yul\":14165:14168   */\n      dup3\n        /* \"#utility.yul\":14161:14173   */\n      add\n        /* \"#utility.yul\":14154:14173   */\n      swap2\n      pop\n        /* \"#utility.yul\":14183:14258   */\n      tag_331\n        /* \"#utility.yul\":14254:14257   */\n      dup3\n        /* \"#utility.yul\":14245:14251   */\n      dup5\n        /* \"#utility.yul\":14183:14258   */\n      tag_160\n      jump\t// in\n    tag_331:\n        /* \"#utility.yul\":14283:14285   */\n      0x20\n        /* \"#utility.yul\":14278:14281   */\n      dup3\n        /* \"#utility.yul\":14274:14286   */\n      add\n        /* \"#utility.yul\":14267:14286   */\n      swap2\n      pop\n        /* \"#utility.yul\":14303:14306   */\n      dup2\n        /* \"#utility.yul\":14296:14306   */\n      swap1\n      pop\n        /* \"#utility.yul\":13915:14312   */\n      swap4\n      swap3\n      pop\n      pop\n      pop\n      jump\t// out\n        /* \"#utility.yul\":14318:14494   */\n    tag_128:\n        /* \"#utility.yul\":14350:14351   */\n      0x00\n        /* \"#utility.yul\":14367:14387   */\n      tag_333\n        /* \"#utility.yul\":14385:14386   */\n      dup3\n        /* \"#utility.yul\":14367:14387   */\n      tag_147\n      jump\t// in\n    tag_333:\n        /* \"#utility.yul\":14362:14387   */\n      swap2\n      pop\n        /* \"#utility.yul\":14401:14421   */\n      tag_334\n        /* \"#utility.yul\":14419:14420   */\n      dup4\n        /* \"#utility.yul\":14401:14421   */\n      tag_147\n      jump\t// in\n    tag_334:\n        /* \"#utility.yul\":14396:14421   */\n      swap3\n      pop\n        /* \"#utility.yul\":14440:14441   */\n      dup3\n        /* \"#utility.yul\":14430:14465   */\n      tag_335\n      jumpi\n        /* \"#utility.yul\":14445:14463   */\n      tag_336\n      tag_164\n      jump\t// in\n    tag_336:\n        /* \"#utility.yul\":14430:14465   */\n    tag_335:\n        /* \"#utility.yul\":14486:14487   */\n      dup3\n        /* \"#utility.yul\":14483:14484   */\n      dup3\n        /* \"#utility.yul\":14479:14488   */\n      mod\n        /* \"#utility.yul\":14474:14488   */\n      swap1\n      pop\n        /* \"#utility.yul\":14318:14494   */\n      swap3\n      swap2\n      pop\n      pop\n      jump\t// out\n\n    auxdata: 0xa2646970667358221220f53cc3e5d304ca6147d21234259fe098578066d83ff7bb11db54bbe068afb91d64736f6c63430008110033\n}\n",
				"bytecode": {
					"linkReferences": {},
					"object": "608060405260016000556032600155600a60025560646003556009600460006101000a81548160ff021916908360ff1602179055506025600460016101000a81548160ff021916908360ff16021790555034801561005c57600080fd5b50610f038061006c6000396000f3fe608060405234801561001057600080fd5b50600436106100415760003560e01c80631597ee441461004657806361a7690014610076578063a7cc0f50146100a6575b600080fd5b610060600480360381019061005b9190610802565b6100d6565b60405161006d9190610864565b60405180910390f35b610090600480360381019061008b91906108ab565b61013d565b60405161009d9190610996565b60405180910390f35b6100c060048036038101906100bb91906109b8565b6101e1565b6040516100cd9190610864565b60405180910390f35b6000805b825181101561013757600882901b91508281600185516100fa9190610a3a565b6101049190610a3a565b8151811061011557610114610a6e565b5b602002602001015160ff1682179150808061012f90610a9d565b9150506100da565b50919050565b6060601b67ffffffffffffffff81111561015a57610159610686565b5b6040519080825280602002602001820160405280156101885781602001602082028036833780820191505090505b50905060005b81518110156101db576101a18382610459565b8282815181106101b4576101b3610a6e565b5b602002602001019060ff16908160ff168152505080806101d390610a9d565b91505061018e565b50919050565b6000806101ed8561013d565b905060006101fa8561013d565b90506000825167ffffffffffffffff81111561021957610218610686565b5b6040519080825280602002602001820160405280156102475781602001602082028036833780820191505090505b50905060004243448a8a60005460405160200161026996959493929190610b06565b6040516020818303038152906040528051906020012060001c9050600081036102c7576040517f08c379a00000000000000000000000000000000000000000000000000000000081526004016102be90610bd3565b60405180910390fd5b6000806000905060005b86518110156104295760008782815181106102ef576102ee610a6e565b5b60200260200101519050600087838151811061030e5761030d610a6e565b5b6020026020010151905060008460ff160361037a5761032f8686848461047a565b87848151811061034257610341610a6e565b5b602002602001019060ff16908160ff1681525050838061036190610bf3565b9450506002856103719190610c1c565b94505050610416565b60018460ff16036103c357600187848151811061039a57610399610a6e565b5b602002602001019060ff16908160ff168152505083806103b990610bf3565b9450505050610416565b6103da8686806103d290610a9d565b97508d61053e565b8784815181106103ed576103ec610a6e565b5b602002602001019060ff16908160ff168152505060009350848061041090610a9d565b95505050505b808061042190610a9d565b9150506102d1565b60008081548092919061043b90610a9d565b9190505550610449856100d6565b9750505050505050509392505050565b6000610472836008808561046d9190610c50565b61058e565b905092915050565b60008060009050600080610498888860006104936105bf565b6105e3565b905060005b60038110156104de576104af8161063f565b846104ba9190610c1c565b93508184106104cb578092506104de565b80806104d690610a9d565b91505061049d565b50600082036104f257859350505050610536565b6001820361050557849350505050610536565b610530888861051390610a9d565b9850886001600460019054906101000a900460ff1660ff166105e3565b93505050505b949350505050565b60008082036105505760009050610587565b6000600354836105609190610cc1565b905080610572868660006127106105e3565b11610581576001915050610587565b60009150505b9392505050565b6000808260018560026105a19190610e25565b6105ab9190610a3a565b901b905082818616901c9150509392505050565b60006002546001546001546105d49190610c1c565b6105de9190610c1c565b905090565b600082826105f19190610a3a565b8585604051602001610604929190610e70565b6040516020818303038152906040528051906020012060001c6106279190610e9c565b905082816106359190610c1c565b9050949350505050565b60006002821461065157600154610655565b6002545b9050919050565b6000604051905090565b600080fd5b600080fd5b600080fd5b6000601f19601f8301169050919050565b7f4e487b7100000000000000000000000000000000000000000000000000000000600052604160045260246000fd5b6106be82610675565b810181811067ffffffffffffffff821117156106dd576106dc610686565b5b80604052505050565b60006106f061065c565b90506106fc82826106b5565b919050565b600067ffffffffffffffff82111561071c5761071b610686565b5b602082029050602081019050919050565b600080fd5b600060ff82169050919050565b61074881610732565b811461075357600080fd5b50565b6000813590506107658161073f565b92915050565b600061077e61077984610701565b6106e6565b905080838252602082019050602084028301858111156107a1576107a061072d565b5b835b818110156107ca57806107b68882610756565b8452602084019350506020810190506107a3565b5050509392505050565b600082601f8301126107e9576107e8610670565b5b81356107f984826020860161076b565b91505092915050565b60006020828403121561081857610817610666565b5b600082013567ffffffffffffffff8111156108365761083561066b565b5b610842848285016107d4565b91505092915050565b6000819050919050565b61085e8161084b565b82525050565b60006020820190506108796000830184610855565b92915050565b6108888161084b565b811461089357600080fd5b50565b6000813590506108a58161087f565b92915050565b6000602082840312156108c1576108c0610666565b5b60006108cf84828501610896565b91505092915050565b600081519050919050565b600082825260208201905092915050565b6000819050602082019050919050565b61090d81610732565b82525050565b600061091f8383610904565b60208301905092915050565b6000602082019050919050565b6000610943826108d8565b61094d81856108e3565b9350610958836108f4565b8060005b838110156109895781516109708882610913565b975061097b8361092b565b92505060018101905061095c565b5085935050505092915050565b600060208201905081810360008301526109b08184610938565b905092915050565b6000806000606084860312156109d1576109d0610666565b5b60006109df86828701610896565b93505060206109f086828701610896565b9250506040610a0186828701610896565b9150509250925092565b7f4e487b7100000000000000000000000000000000000000000000000000000000600052601160045260246000fd5b6000610a458261084b565b9150610a508361084b565b9250828203905081811115610a6857610a67610a0b565b5b92915050565b7f4e487b7100000000000000000000000000000000000000000000000000000000600052603260045260246000fd5b6000610aa88261084b565b91507fffffffffffffffffffffffffffffffffffffffffffffffffffffffffffffffff8203610ada57610ad9610a0b565b5b600182019050919050565b6000819050919050565b610b00610afb8261084b565b610ae5565b82525050565b6000610b128289610aef565b602082019150610b228288610aef565b602082019150610b328287610aef565b602082019150610b428286610aef565b602082019150610b528285610aef565b602082019150610b628284610aef565b602082019150819050979650505050505050565b600082825260208201905092915050565b7f72616e646f6d53656564203d2030000000000000000000000000000000000000600082015250565b6000610bbd600e83610b76565b9150610bc882610b87565b602082019050919050565b60006020820190508181036000830152610bec81610bb0565b9050919050565b6000610bfe82610732565b915060ff8203610c1157610c10610a0b565b5b600182019050919050565b6000610c278261084b565b9150610c328361084b565b9250828201905080821115610c4a57610c49610a0b565b5b92915050565b6000610c5b8261084b565b9150610c668361084b565b9250828202610c748161084b565b91508282048414831517610c8b57610c8a610a0b565b5b5092915050565b7f4e487b7100000000000000000000000000000000000000000000000000000000600052601260045260246000fd5b6000610ccc8261084b565b9150610cd78361084b565b925082610ce757610ce6610c92565b5b828204905092915050565b60008160011c9050919050565b6000808291508390505b6001851115610d4957808604811115610d2557610d24610a0b565b5b6001851615610d345780820291505b8081029050610d4285610cf2565b9450610d09565b94509492505050565b600082610d625760019050610e1e565b81610d705760009050610e1e565b8160018114610d865760028114610d9057610dbf565b6001915050610e1e565b60ff841115610da257610da1610a0b565b5b8360020a915084821115610db957610db8610a0b565b5b50610e1e565b5060208310610133831016604e8410600b8410161715610df45782820a905083811115610def57610dee610a0b565b5b610e1e565b610e018484846001610cff565b92509050818404811115610e1857610e17610a0b565b5b81810290505b9392505050565b6000610e308261084b565b9150610e3b8361084b565b9250610e687fffffffffffffffffffffffffffffffffffffffffffffffffffffffffffffffff8484610d52565b905092915050565b6000610e7c8285610aef565b602082019150610e8c8284610aef565b6020820191508190509392505050565b6000610ea78261084b565b9150610eb28361084b565b925082610ec257610ec1610c92565b5b82820690509291505056fea2646970667358221220f53cc3e5d304ca6147d21234259fe098578066d83ff7bb11db54bbe068afb91d64736f6c63430008110033",
					"opcodes": "PUSH1 0x80 PUSH1 0x40 MSTORE PUSH1 0x1 PUSH1 0x0 SSTORE PUSH1 0x32 PUSH1 0x1 SSTORE PUSH1 0xA PUSH1 0x2 SSTORE PUSH1 0x64 PUSH1 0x3 SSTORE PUSH1 0x9 PUSH1 0x4 PUSH1 0x0 PUSH2 0x100 EXP DUP2 SLOAD DUP2 PUSH1 0xFF MUL NOT AND SWAP1 DUP4 PUSH1 0xFF AND MUL OR SWAP1 SSTORE POP PUSH1 0x25 PUSH1 0x4 PUSH1 0x1 PUSH2 0x100 EXP DUP2 SLOAD DUP2 PUSH1 0xFF MUL NOT AND SWAP1 DUP4 PUSH1 0xFF AND MUL OR SWAP1 SSTORE POP CALLVALUE DUP1 ISZERO PUSH2 0x5C JUMPI PUSH1 0x0 DUP1 REVERT JUMPDEST POP PUSH2 0xF03 DUP1 PUSH2 0x6C PUSH1 0x0 CODECOPY PUSH1 0x0 RETURN INVALID PUSH1 0x80 PUSH1 0x40 MSTORE CALLVALUE DUP1 ISZERO PUSH2 0x10 JUMPI PUSH1 0x0 DUP1 REVERT JUMPDEST POP PUSH1 0x4 CALLDATASIZE LT PUSH2 0x41 JUMPI PUSH1 0x0 CALLDATALOAD PUSH1 0xE0 SHR DUP1 PUSH4 0x1597EE44 EQ PUSH2 0x46 JUMPI DUP1 PUSH4 0x61A76900 EQ PUSH2 0x76 JUMPI DUP1 PUSH4 0xA7CC0F50 EQ PUSH2 0xA6 JUMPI JUMPDEST PUSH1 0x0 DUP1 REVERT JUMPDEST PUSH2 0x60 PUSH1 0x4 DUP1 CALLDATASIZE SUB DUP2 ADD SWAP1 PUSH2 0x5B SWAP2 SWAP1 PUSH2 0x802 JUMP JUMPDEST PUSH2 0xD6 JUMP JUMPDEST PUSH1 0x40 MLOAD PUSH2 0x6D SWAP2 SWAP1 PUSH2 0x864 JUMP JUMPDEST PUSH1 0x40 MLOAD DUP1 SWAP2 SUB SWAP1 RETURN JUMPDEST PUSH2 0x90 PUSH1 0x4 DUP1 CALLDATASIZE SUB DUP2 ADD SWAP1 PUSH2 0x8B SWAP2 SWAP1 PUSH2 0x8AB JUMP JUMPDEST PUSH2 0x13D JUMP JUMPDEST PUSH1 0x40 MLOAD PUSH2 0x9D SWAP2 SWAP1 PUSH2 0x996 JUMP JUMPDEST PUSH1 0x40 MLOAD DUP1 SWAP2 SUB SWAP1 RETURN JUMPDEST PUSH2 0xC0 PUSH1 0x4 DUP1 CALLDATASIZE SUB DUP2 ADD SWAP1 PUSH2 0xBB SWAP2 SWAP1 PUSH2 0x9B8 JUMP JUMPDEST PUSH2 0x1E1 JUMP JUMPDEST PUSH1 0x40 MLOAD PUSH2 0xCD SWAP2 SWAP1 PUSH2 0x864 JUMP JUMPDEST PUSH1 0x40 MLOAD DUP1 SWAP2 SUB SWAP1 RETURN JUMPDEST PUSH1 0x0 DUP1 JUMPDEST DUP3 MLOAD DUP2 LT ISZERO PUSH2 0x137 JUMPI PUSH1 0x8 DUP3 SWAP1 SHL SWAP2 POP DUP3 DUP2 PUSH1 0x1 DUP6 MLOAD PUSH2 0xFA SWAP2 SWAP1 PUSH2 0xA3A JUMP JUMPDEST PUSH2 0x104 SWAP2 SWAP1 PUSH2 0xA3A JUMP JUMPDEST DUP2 MLOAD DUP2 LT PUSH2 0x115 JUMPI PUSH2 0x114 PUSH2 0xA6E JUMP JUMPDEST JUMPDEST PUSH1 0x20 MUL PUSH1 0x20 ADD ADD MLOAD PUSH1 0xFF AND DUP3 OR SWAP2 POP DUP1 DUP1 PUSH2 0x12F SWAP1 PUSH2 0xA9D JUMP JUMPDEST SWAP2 POP POP PUSH2 0xDA JUMP JUMPDEST POP SWAP2 SWAP1 POP JUMP JUMPDEST PUSH1 0x60 PUSH1 0x1B PUSH8 0xFFFFFFFFFFFFFFFF DUP2 GT ISZERO PUSH2 0x15A JUMPI PUSH2 0x159 PUSH2 0x686 JUMP JUMPDEST JUMPDEST PUSH1 0x40 MLOAD SWAP1 DUP1 DUP3 MSTORE DUP1 PUSH1 0x20 MUL PUSH1 0x20 ADD DUP3 ADD PUSH1 0x40 MSTORE DUP1 ISZERO PUSH2 0x188 JUMPI DUP2 PUSH1 0x20 ADD PUSH1 0x20 DUP3 MUL DUP1 CALLDATASIZE DUP4 CALLDATACOPY DUP1 DUP3 ADD SWAP2 POP POP SWAP1 POP JUMPDEST POP SWAP1 POP PUSH1 0x0 JUMPDEST DUP2 MLOAD DUP2 LT ISZERO PUSH2 0x1DB JUMPI PUSH2 0x1A1 DUP4 DUP3 PUSH2 0x459 JUMP JUMPDEST DUP3 DUP3 DUP2 MLOAD DUP2 LT PUSH2 0x1B4 JUMPI PUSH2 0x1B3 PUSH2 0xA6E JUMP JUMPDEST JUMPDEST PUSH1 0x20 MUL PUSH1 0x20 ADD ADD SWAP1 PUSH1 0xFF AND SWAP1 DUP2 PUSH1 0xFF AND DUP2 MSTORE POP POP DUP1 DUP1 PUSH2 0x1D3 SWAP1 PUSH2 0xA9D JUMP JUMPDEST SWAP2 POP POP PUSH2 0x18E JUMP JUMPDEST POP SWAP2 SWAP1 POP JUMP JUMPDEST PUSH1 0x0 DUP1 PUSH2 0x1ED DUP6 PUSH2 0x13D JUMP JUMPDEST SWAP1 POP PUSH1 0x0 PUSH2 0x1FA DUP6 PUSH2 0x13D JUMP JUMPDEST SWAP1 POP PUSH1 0x0 DUP3 MLOAD PUSH8 0xFFFFFFFFFFFFFFFF DUP2 GT ISZERO PUSH2 0x219 JUMPI PUSH2 0x218 PUSH2 0x686 JUMP JUMPDEST JUMPDEST PUSH1 0x40 MLOAD SWAP1 DUP1 DUP3 MSTORE DUP1 PUSH1 0x20 MUL PUSH1 0x20 ADD DUP3 ADD PUSH1 0x40 MSTORE DUP1 ISZERO PUSH2 0x247 JUMPI DUP2 PUSH1 0x20 ADD PUSH1 0x20 DUP3 MUL DUP1 CALLDATASIZE DUP4 CALLDATACOPY DUP1 DUP3 ADD SWAP2 POP POP SWAP1 POP JUMPDEST POP SWAP1 POP PUSH1 0x0 TIMESTAMP NUMBER DIFFICULTY DUP11 DUP11 PUSH1 0x0 SLOAD PUSH1 0x40 MLOAD PUSH1 0x20 ADD PUSH2 0x269 SWAP7 SWAP6 SWAP5 SWAP4 SWAP3 SWAP2 SWAP1 PUSH2 0xB06 JUMP JUMPDEST PUSH1 0x40 MLOAD PUSH1 0x20 DUP2 DUP4 SUB SUB DUP2 MSTORE SWAP1 PUSH1 0x40 MSTORE DUP1 MLOAD SWAP1 PUSH1 0x20 ADD KECCAK256 PUSH1 0x0 SHR SWAP1 POP PUSH1 0x0 DUP2 SUB PUSH2 0x2C7 JUMPI PUSH1 0x40 MLOAD PUSH32 0x8C379A000000000000000000000000000000000000000000000000000000000 DUP2 MSTORE PUSH1 0x4 ADD PUSH2 0x2BE SWAP1 PUSH2 0xBD3 JUMP JUMPDEST PUSH1 0x40 MLOAD DUP1 SWAP2 SUB SWAP1 REVERT JUMPDEST PUSH1 0x0 DUP1 PUSH1 0x0 SWAP1 POP PUSH1 0x0 JUMPDEST DUP7 MLOAD DUP2 LT ISZERO PUSH2 0x429 JUMPI PUSH1 0x0 DUP8 DUP3 DUP2 MLOAD DUP2 LT PUSH2 0x2EF JUMPI PUSH2 0x2EE PUSH2 0xA6E JUMP JUMPDEST JUMPDEST PUSH1 0x20 MUL PUSH1 0x20 ADD ADD MLOAD SWAP1 POP PUSH1 0x0 DUP8 DUP4 DUP2 MLOAD DUP2 LT PUSH2 0x30E JUMPI PUSH2 0x30D PUSH2 0xA6E JUMP JUMPDEST JUMPDEST PUSH1 0x20 MUL PUSH1 0x20 ADD ADD MLOAD SWAP1 POP PUSH1 0x0 DUP5 PUSH1 0xFF AND SUB PUSH2 0x37A JUMPI PUSH2 0x32F DUP7 DUP7 DUP5 DUP5 PUSH2 0x47A JUMP JUMPDEST DUP8 DUP5 DUP2 MLOAD DUP2 LT PUSH2 0x342 JUMPI PUSH2 0x341 PUSH2 0xA6E JUMP JUMPDEST JUMPDEST PUSH1 0x20 MUL PUSH1 0x20 ADD ADD SWAP1 PUSH1 0xFF AND SWAP1 DUP2 PUSH1 0xFF AND DUP2 MSTORE POP POP DUP4 DUP1 PUSH2 0x361 SWAP1 PUSH2 0xBF3 JUMP JUMPDEST SWAP5 POP POP PUSH1 0x2 DUP6 PUSH2 0x371 SWAP2 SWAP1 PUSH2 0xC1C JUMP JUMPDEST SWAP5 POP POP POP PUSH2 0x416 JUMP JUMPDEST PUSH1 0x1 DUP5 PUSH1 0xFF AND SUB PUSH2 0x3C3 JUMPI PUSH1 0x1 DUP8 DUP5 DUP2 MLOAD DUP2 LT PUSH2 0x39A JUMPI PUSH2 0x399 PUSH2 0xA6E JUMP JUMPDEST JUMPDEST PUSH1 0x20 MUL PUSH1 0x20 ADD ADD SWAP1 PUSH1 0xFF AND SWAP1 DUP2 PUSH1 0xFF AND DUP2 MSTORE POP POP DUP4 DUP1 PUSH2 0x3B9 SWAP1 PUSH2 0xBF3 JUMP JUMPDEST SWAP5 POP POP POP POP PUSH2 0x416 JUMP JUMPDEST PUSH2 0x3DA DUP7 DUP7 DUP1 PUSH2 0x3D2 SWAP1 PUSH2 0xA9D JUMP JUMPDEST SWAP8 POP DUP14 PUSH2 0x53E JUMP JUMPDEST DUP8 DUP5 DUP2 MLOAD DUP2 LT PUSH2 0x3ED JUMPI PUSH2 0x3EC PUSH2 0xA6E JUMP JUMPDEST JUMPDEST PUSH1 0x20 MUL PUSH1 0x20 ADD ADD SWAP1 PUSH1 0xFF AND SWAP1 DUP2 PUSH1 0xFF AND DUP2 MSTORE POP POP PUSH1 0x0 SWAP4 POP DUP5 DUP1 PUSH2 0x410 SWAP1 PUSH2 0xA9D JUMP JUMPDEST SWAP6 POP POP POP POP JUMPDEST DUP1 DUP1 PUSH2 0x421 SWAP1 PUSH2 0xA9D JUMP JUMPDEST SWAP2 POP POP PUSH2 0x2D1 JUMP JUMPDEST PUSH1 0x0 DUP1 DUP2 SLOAD DUP1 SWAP3 SWAP2 SWAP1 PUSH2 0x43B SWAP1 PUSH2 0xA9D JUMP JUMPDEST SWAP2 SWAP1 POP SSTORE POP PUSH2 0x449 DUP6 PUSH2 0xD6 JUMP JUMPDEST SWAP8 POP POP POP POP POP POP POP POP SWAP4 SWAP3 POP POP POP JUMP JUMPDEST PUSH1 0x0 PUSH2 0x472 DUP4 PUSH1 0x8 DUP1 DUP6 PUSH2 0x46D SWAP2 SWAP1 PUSH2 0xC50 JUMP JUMPDEST PUSH2 0x58E JUMP JUMPDEST SWAP1 POP SWAP3 SWAP2 POP POP JUMP JUMPDEST PUSH1 0x0 DUP1 PUSH1 0x0 SWAP1 POP PUSH1 0x0 DUP1 PUSH2 0x498 DUP9 DUP9 PUSH1 0x0 PUSH2 0x493 PUSH2 0x5BF JUMP JUMPDEST PUSH2 0x5E3 JUMP JUMPDEST SWAP1 POP PUSH1 0x0 JUMPDEST PUSH1 0x3 DUP2 LT ISZERO PUSH2 0x4DE JUMPI PUSH2 0x4AF DUP2 PUSH2 0x63F JUMP JUMPDEST DUP5 PUSH2 0x4BA SWAP2 SWAP1 PUSH2 0xC1C JUMP JUMPDEST SWAP4 POP DUP2 DUP5 LT PUSH2 0x4CB JUMPI DUP1 SWAP3 POP PUSH2 0x4DE JUMP JUMPDEST DUP1 DUP1 PUSH2 0x4D6 SWAP1 PUSH2 0xA9D JUMP JUMPDEST SWAP2 POP POP PUSH2 0x49D JUMP JUMPDEST POP PUSH1 0x0 DUP3 SUB PUSH2 0x4F2 JUMPI DUP6 SWAP4 POP POP POP POP PUSH2 0x536 JUMP JUMPDEST PUSH1 0x1 DUP3 SUB PUSH2 0x505 JUMPI DUP5 SWAP4 POP POP POP POP PUSH2 0x536 JUMP JUMPDEST PUSH2 0x530 DUP9 DUP9 PUSH2 0x513 SWAP1 PUSH2 0xA9D JUMP JUMPDEST SWAP9 POP DUP9 PUSH1 0x1 PUSH1 0x4 PUSH1 0x1 SWAP1 SLOAD SWAP1 PUSH2 0x100 EXP SWAP1 DIV PUSH1 0xFF AND PUSH1 0xFF AND PUSH2 0x5E3 JUMP JUMPDEST SWAP4 POP POP POP POP JUMPDEST SWAP5 SWAP4 POP POP POP POP JUMP JUMPDEST PUSH1 0x0 DUP1 DUP3 SUB PUSH2 0x550 JUMPI PUSH1 0x0 SWAP1 POP PUSH2 0x587 JUMP JUMPDEST PUSH1 0x0 PUSH1 0x3 SLOAD DUP4 PUSH2 0x560 SWAP2 SWAP1 PUSH2 0xCC1 JUMP JUMPDEST SWAP1 POP DUP1 PUSH2 0x572 DUP7 DUP7 PUSH1 0x0 PUSH2 0x2710 PUSH2 0x5E3 JUMP JUMPDEST GT PUSH2 0x581 JUMPI PUSH1 0x1 SWAP2 POP POP PUSH2 0x587 JUMP JUMPDEST PUSH1 0x0 SWAP2 POP POP JUMPDEST SWAP4 SWAP3 POP POP POP JUMP JUMPDEST PUSH1 0x0 DUP1 DUP3 PUSH1 0x1 DUP6 PUSH1 0x2 PUSH2 0x5A1 SWAP2 SWAP1 PUSH2 0xE25 JUMP JUMPDEST PUSH2 0x5AB SWAP2 SWAP1 PUSH2 0xA3A JUMP JUMPDEST SWAP1 SHL SWAP1 POP DUP3 DUP2 DUP7 AND SWAP1 SHR SWAP2 POP POP SWAP4 SWAP3 POP POP POP JUMP JUMPDEST PUSH1 0x0 PUSH1 0x2 SLOAD PUSH1 0x1 SLOAD PUSH1 0x1 SLOAD PUSH2 0x5D4 SWAP2 SWAP1 PUSH2 0xC1C JUMP JUMPDEST PUSH2 0x5DE SWAP2 SWAP1 PUSH2 0xC1C JUMP JUMPDEST SWAP1 POP SWAP1 JUMP JUMPDEST PUSH1 0x0 DUP3 DUP3 PUSH2 0x5F1 SWAP2 SWAP1 PUSH2 0xA3A JUMP JUMPDEST DUP6 DUP6 PUSH1 0x40 MLOAD PUSH1 0x20 ADD PUSH2 0x604 SWAP3 SWAP2 SWAP1 PUSH2 0xE70 JUMP JUMPDEST PUSH1 0x40 MLOAD PUSH1 0x20 DUP2 DUP4 SUB SUB DUP2 MSTORE SWAP1 PUSH1 0x40 MSTORE DUP1 MLOAD SWAP1 PUSH1 0x20 ADD KECCAK256 PUSH1 0x0 SHR PUSH2 0x627 SWAP2 SWAP1 PUSH2 0xE9C JUMP JUMPDEST SWAP1 POP DUP3 DUP2 PUSH2 0x635 SWAP2 SWAP1 PUSH2 0xC1C JUMP JUMPDEST SWAP1 POP SWAP5 SWAP4 POP POP POP POP JUMP JUMPDEST PUSH1 0x0 PUSH1 0x2 DUP3 EQ PUSH2 0x651 JUMPI PUSH1 0x1 SLOAD PUSH2 0x655 JUMP JUMPDEST PUSH1 0x2 SLOAD JUMPDEST SWAP1 POP SWAP2 SWAP1 POP JUMP JUMPDEST PUSH1 0x0 PUSH1 0x40 MLOAD SWAP1 POP SWAP1 JUMP JUMPDEST PUSH1 0x0 DUP1 REVERT JUMPDEST PUSH1 0x0 DUP1 REVERT JUMPDEST PUSH1 0x0 DUP1 REVERT JUMPDEST PUSH1 0x0 PUSH1 0x1F NOT PUSH1 0x1F DUP4 ADD AND SWAP1 POP SWAP2 SWAP1 POP JUMP JUMPDEST PUSH32 0x4E487B7100000000000000000000000000000000000000000000000000000000 PUSH1 0x0 MSTORE PUSH1 0x41 PUSH1 0x4 MSTORE PUSH1 0x24 PUSH1 0x0 REVERT JUMPDEST PUSH2 0x6BE DUP3 PUSH2 0x675 JUMP JUMPDEST DUP2 ADD DUP2 DUP2 LT PUSH8 0xFFFFFFFFFFFFFFFF DUP3 GT OR ISZERO PUSH2 0x6DD JUMPI PUSH2 0x6DC PUSH2 0x686 JUMP JUMPDEST JUMPDEST DUP1 PUSH1 0x40 MSTORE POP POP POP JUMP JUMPDEST PUSH1 0x0 PUSH2 0x6F0 PUSH2 0x65C JUMP JUMPDEST SWAP1 POP PUSH2 0x6FC DUP3 DUP3 PUSH2 0x6B5 JUMP JUMPDEST SWAP2 SWAP1 POP JUMP JUMPDEST PUSH1 0x0 PUSH8 0xFFFFFFFFFFFFFFFF DUP3 GT ISZERO PUSH2 0x71C JUMPI PUSH2 0x71B PUSH2 0x686 JUMP JUMPDEST JUMPDEST PUSH1 0x20 DUP3 MUL SWAP1 POP PUSH1 0x20 DUP2 ADD SWAP1 POP SWAP2 SWAP1 POP JUMP JUMPDEST PUSH1 0x0 DUP1 REVERT JUMPDEST PUSH1 0x0 PUSH1 0xFF DUP3 AND SWAP1 POP SWAP2 SWAP1 POP JUMP JUMPDEST PUSH2 0x748 DUP2 PUSH2 0x732 JUMP JUMPDEST DUP2 EQ PUSH2 0x753 JUMPI PUSH1 0x0 DUP1 REVERT JUMPDEST POP JUMP JUMPDEST PUSH1 0x0 DUP2 CALLDATALOAD SWAP1 POP PUSH2 0x765 DUP2 PUSH2 0x73F JUMP JUMPDEST SWAP3 SWAP2 POP POP JUMP JUMPDEST PUSH1 0x0 PUSH2 0x77E PUSH2 0x779 DUP5 PUSH2 0x701 JUMP JUMPDEST PUSH2 0x6E6 JUMP JUMPDEST SWAP1 POP DUP1 DUP4 DUP3 MSTORE PUSH1 0x20 DUP3 ADD SWAP1 POP PUSH1 0x20 DUP5 MUL DUP4 ADD DUP6 DUP2 GT ISZERO PUSH2 0x7A1 JUMPI PUSH2 0x7A0 PUSH2 0x72D JUMP JUMPDEST JUMPDEST DUP4 JUMPDEST DUP2 DUP2 LT ISZERO PUSH2 0x7CA JUMPI DUP1 PUSH2 0x7B6 DUP9 DUP3 PUSH2 0x756 JUMP JUMPDEST DUP5 MSTORE PUSH1 0x20 DUP5 ADD SWAP4 POP POP PUSH1 0x20 DUP2 ADD SWAP1 POP PUSH2 0x7A3 JUMP JUMPDEST POP POP POP SWAP4 SWAP3 POP POP POP JUMP JUMPDEST PUSH1 0x0 DUP3 PUSH1 0x1F DUP4 ADD SLT PUSH2 0x7E9 JUMPI PUSH2 0x7E8 PUSH2 0x670 JUMP JUMPDEST JUMPDEST DUP2 CALLDATALOAD PUSH2 0x7F9 DUP5 DUP3 PUSH1 0x20 DUP7 ADD PUSH2 0x76B JUMP JUMPDEST SWAP2 POP POP SWAP3 SWAP2 POP POP JUMP JUMPDEST PUSH1 0x0 PUSH1 0x20 DUP3 DUP5 SUB SLT ISZERO PUSH2 0x818 JUMPI PUSH2 0x817 PUSH2 0x666 JUMP JUMPDEST JUMPDEST PUSH1 0x0 DUP3 ADD CALLDATALOAD PUSH8 0xFFFFFFFFFFFFFFFF DUP2 GT ISZERO PUSH2 0x836 JUMPI PUSH2 0x835 PUSH2 0x66B JUMP JUMPDEST JUMPDEST PUSH2 0x842 DUP5 DUP3 DUP6 ADD PUSH2 0x7D4 JUMP JUMPDEST SWAP2 POP POP SWAP3 SWAP2 POP POP JUMP JUMPDEST PUSH1 0x0 DUP2 SWAP1 POP SWAP2 SWAP1 POP JUMP JUMPDEST PUSH2 0x85E DUP2 PUSH2 0x84B JUMP JUMPDEST DUP3 MSTORE POP POP JUMP JUMPDEST PUSH1 0x0 PUSH1 0x20 DUP3 ADD SWAP1 POP PUSH2 0x879 PUSH1 0x0 DUP4 ADD DUP5 PUSH2 0x855 JUMP JUMPDEST SWAP3 SWAP2 POP POP JUMP JUMPDEST PUSH2 0x888 DUP2 PUSH2 0x84B JUMP JUMPDEST DUP2 EQ PUSH2 0x893 JUMPI PUSH1 0x0 DUP1 REVERT JUMPDEST POP JUMP JUMPDEST PUSH1 0x0 DUP2 CALLDATALOAD SWAP1 POP PUSH2 0x8A5 DUP2 PUSH2 0x87F JUMP JUMPDEST SWAP3 SWAP2 POP POP JUMP JUMPDEST PUSH1 0x0 PUSH1 0x20 DUP3 DUP5 SUB SLT ISZERO PUSH2 0x8C1 JUMPI PUSH2 0x8C0 PUSH2 0x666 JUMP JUMPDEST JUMPDEST PUSH1 0x0 PUSH2 0x8CF DUP5 DUP3 DUP6 ADD PUSH2 0x896 JUMP JUMPDEST SWAP2 POP POP SWAP3 SWAP2 POP POP JUMP JUMPDEST PUSH1 0x0 DUP2 MLOAD SWAP1 POP SWAP2 SWAP1 POP JUMP JUMPDEST PUSH1 0x0 DUP3 DUP3 MSTORE PUSH1 0x20 DUP3 ADD SWAP1 POP SWAP3 SWAP2 POP POP JUMP JUMPDEST PUSH1 0x0 DUP2 SWAP1 POP PUSH1 0x20 DUP3 ADD SWAP1 POP SWAP2 SWAP1 POP JUMP JUMPDEST PUSH2 0x90D DUP2 PUSH2 0x732 JUMP JUMPDEST DUP3 MSTORE POP POP JUMP JUMPDEST PUSH1 0x0 PUSH2 0x91F DUP4 DUP4 PUSH2 0x904 JUMP JUMPDEST PUSH1 0x20 DUP4 ADD SWAP1 POP SWAP3 SWAP2 POP POP JUMP JUMPDEST PUSH1 0x0 PUSH1 0x20 DUP3 ADD SWAP1 POP SWAP2 SWAP1 POP JUMP JUMPDEST PUSH1 0x0 PUSH2 0x943 DUP3 PUSH2 0x8D8 JUMP JUMPDEST PUSH2 0x94D DUP2 DUP6 PUSH2 0x8E3 JUMP JUMPDEST SWAP4 POP PUSH2 0x958 DUP4 PUSH2 0x8F4 JUMP JUMPDEST DUP1 PUSH1 0x0 JUMPDEST DUP4 DUP2 LT ISZERO PUSH2 0x989 JUMPI DUP2 MLOAD PUSH2 0x970 DUP9 DUP3 PUSH2 0x913 JUMP JUMPDEST SWAP8 POP PUSH2 0x97B DUP4 PUSH2 0x92B JUMP JUMPDEST SWAP3 POP POP PUSH1 0x1 DUP2 ADD SWAP1 POP PUSH2 0x95C JUMP JUMPDEST POP DUP6 SWAP4 POP POP POP POP SWAP3 SWAP2 POP POP JUMP JUMPDEST PUSH1 0x0 PUSH1 0x20 DUP3 ADD SWAP1 POP DUP2 DUP2 SUB PUSH1 0x0 DUP4 ADD MSTORE PUSH2 0x9B0 DUP2 DUP5 PUSH2 0x938 JUMP JUMPDEST SWAP1 POP SWAP3 SWAP2 POP POP JUMP JUMPDEST PUSH1 0x0 DUP1 PUSH1 0x0 PUSH1 0x60 DUP5 DUP7 SUB SLT ISZERO PUSH2 0x9D1 JUMPI PUSH2 0x9D0 PUSH2 0x666 JUMP JUMPDEST JUMPDEST PUSH1 0x0 PUSH2 0x9DF DUP7 DUP3 DUP8 ADD PUSH2 0x896 JUMP JUMPDEST SWAP4 POP POP PUSH1 0x20 PUSH2 0x9F0 DUP7 DUP3 DUP8 ADD PUSH2 0x896 JUMP JUMPDEST SWAP3 POP POP PUSH1 0x40 PUSH2 0xA01 DUP7 DUP3 DUP8 ADD PUSH2 0x896 JUMP JUMPDEST SWAP2 POP POP SWAP3 POP SWAP3 POP SWAP3 JUMP JUMPDEST PUSH32 0x4E487B7100000000000000000000000000000000000000000000000000000000 PUSH1 0x0 MSTORE PUSH1 0x11 PUSH1 0x4 MSTORE PUSH1 0x24 PUSH1 0x0 REVERT JUMPDEST PUSH1 0x0 PUSH2 0xA45 DUP3 PUSH2 0x84B JUMP JUMPDEST SWAP2 POP PUSH2 0xA50 DUP4 PUSH2 0x84B JUMP JUMPDEST SWAP3 POP DUP3 DUP3 SUB SWAP1 POP DUP2 DUP2 GT ISZERO PUSH2 0xA68 JUMPI PUSH2 0xA67 PUSH2 0xA0B JUMP JUMPDEST JUMPDEST SWAP3 SWAP2 POP POP JUMP JUMPDEST PUSH32 0x4E487B7100000000000000000000000000000000000000000000000000000000 PUSH1 0x0 MSTORE PUSH1 0x32 PUSH1 0x4 MSTORE PUSH1 0x24 PUSH1 0x0 REVERT JUMPDEST PUSH1 0x0 PUSH2 0xAA8 DUP3 PUSH2 0x84B JUMP JUMPDEST SWAP2 POP PUSH32 0xFFFFFFFFFFFFFFFFFFFFFFFFFFFFFFFFFFFFFFFFFFFFFFFFFFFFFFFFFFFFFFFF DUP3 SUB PUSH2 0xADA JUMPI PUSH2 0xAD9 PUSH2 0xA0B JUMP JUMPDEST JUMPDEST PUSH1 0x1 DUP3 ADD SWAP1 POP SWAP2 SWAP1 POP JUMP JUMPDEST PUSH1 0x0 DUP2 SWAP1 POP SWAP2 SWAP1 POP JUMP JUMPDEST PUSH2 0xB00 PUSH2 0xAFB DUP3 PUSH2 0x84B JUMP JUMPDEST PUSH2 0xAE5 JUMP JUMPDEST DUP3 MSTORE POP POP JUMP JUMPDEST PUSH1 0x0 PUSH2 0xB12 DUP3 DUP10 PUSH2 0xAEF JUMP JUMPDEST PUSH1 0x20 DUP3 ADD SWAP2 POP PUSH2 0xB22 DUP3 DUP9 PUSH2 0xAEF JUMP JUMPDEST PUSH1 0x20 DUP3 ADD SWAP2 POP PUSH2 0xB32 DUP3 DUP8 PUSH2 0xAEF JUMP JUMPDEST PUSH1 0x20 DUP3 ADD SWAP2 POP PUSH2 0xB42 DUP3 DUP7 PUSH2 0xAEF JUMP JUMPDEST PUSH1 0x20 DUP3 ADD SWAP2 POP PUSH2 0xB52 DUP3 DUP6 PUSH2 0xAEF JUMP JUMPDEST PUSH1 0x20 DUP3 ADD SWAP2 POP PUSH2 0xB62 DUP3 DUP5 PUSH2 0xAEF JUMP JUMPDEST PUSH1 0x20 DUP3 ADD SWAP2 POP DUP2 SWAP1 POP SWAP8 SWAP7 POP POP POP POP POP POP POP JUMP JUMPDEST PUSH1 0x0 DUP3 DUP3 MSTORE PUSH1 0x20 DUP3 ADD SWAP1 POP SWAP3 SWAP2 POP POP JUMP JUMPDEST PUSH32 0x72616E646F6D53656564203D2030000000000000000000000000000000000000 PUSH1 0x0 DUP3 ADD MSTORE POP JUMP JUMPDEST PUSH1 0x0 PUSH2 0xBBD PUSH1 0xE DUP4 PUSH2 0xB76 JUMP JUMPDEST SWAP2 POP PUSH2 0xBC8 DUP3 PUSH2 0xB87 JUMP JUMPDEST PUSH1 0x20 DUP3 ADD SWAP1 POP SWAP2 SWAP1 POP JUMP JUMPDEST PUSH1 0x0 PUSH1 0x20 DUP3 ADD SWAP1 POP DUP2 DUP2 SUB PUSH1 0x0 DUP4 ADD MSTORE PUSH2 0xBEC DUP2 PUSH2 0xBB0 JUMP JUMPDEST SWAP1 POP SWAP2 SWAP1 POP JUMP JUMPDEST PUSH1 0x0 PUSH2 0xBFE DUP3 PUSH2 0x732 JUMP JUMPDEST SWAP2 POP PUSH1 0xFF DUP3 SUB PUSH2 0xC11 JUMPI PUSH2 0xC10 PUSH2 0xA0B JUMP JUMPDEST JUMPDEST PUSH1 0x1 DUP3 ADD SWAP1 POP SWAP2 SWAP1 POP JUMP JUMPDEST PUSH1 0x0 PUSH2 0xC27 DUP3 PUSH2 0x84B JUMP JUMPDEST SWAP2 POP PUSH2 0xC32 DUP4 PUSH2 0x84B JUMP JUMPDEST SWAP3 POP DUP3 DUP3 ADD SWAP1 POP DUP1 DUP3 GT ISZERO PUSH2 0xC4A JUMPI PUSH2 0xC49 PUSH2 0xA0B JUMP JUMPDEST JUMPDEST SWAP3 SWAP2 POP POP JUMP JUMPDEST PUSH1 0x0 PUSH2 0xC5B DUP3 PUSH2 0x84B JUMP JUMPDEST SWAP2 POP PUSH2 0xC66 DUP4 PUSH2 0x84B JUMP JUMPDEST SWAP3 POP DUP3 DUP3 MUL PUSH2 0xC74 DUP2 PUSH2 0x84B JUMP JUMPDEST SWAP2 POP DUP3 DUP3 DIV DUP5 EQ DUP4 ISZERO OR PUSH2 0xC8B JUMPI PUSH2 0xC8A PUSH2 0xA0B JUMP JUMPDEST JUMPDEST POP SWAP3 SWAP2 POP POP JUMP JUMPDEST PUSH32 0x4E487B7100000000000000000000000000000000000000000000000000000000 PUSH1 0x0 MSTORE PUSH1 0x12 PUSH1 0x4 MSTORE PUSH1 0x24 PUSH1 0x0 REVERT JUMPDEST PUSH1 0x0 PUSH2 0xCCC DUP3 PUSH2 0x84B JUMP JUMPDEST SWAP2 POP PUSH2 0xCD7 DUP4 PUSH2 0x84B JUMP JUMPDEST SWAP3 POP DUP3 PUSH2 0xCE7 JUMPI PUSH2 0xCE6 PUSH2 0xC92 JUMP JUMPDEST JUMPDEST DUP3 DUP3 DIV SWAP1 POP SWAP3 SWAP2 POP POP JUMP JUMPDEST PUSH1 0x0 DUP2 PUSH1 0x1 SHR SWAP1 POP SWAP2 SWAP1 POP JUMP JUMPDEST PUSH1 0x0 DUP1 DUP3 SWAP2 POP DUP4 SWAP1 POP JUMPDEST PUSH1 0x1 DUP6 GT ISZERO PUSH2 0xD49 JUMPI DUP1 DUP7 DIV DUP2 GT ISZERO PUSH2 0xD25 JUMPI PUSH2 0xD24 PUSH2 0xA0B JUMP JUMPDEST JUMPDEST PUSH1 0x1 DUP6 AND ISZERO PUSH2 0xD34 JUMPI DUP1 DUP3 MUL SWAP2 POP JUMPDEST DUP1 DUP2 MUL SWAP1 POP PUSH2 0xD42 DUP6 PUSH2 0xCF2 JUMP JUMPDEST SWAP5 POP PUSH2 0xD09 JUMP JUMPDEST SWAP5 POP SWAP5 SWAP3 POP POP POP JUMP JUMPDEST PUSH1 0x0 DUP3 PUSH2 0xD62 JUMPI PUSH1 0x1 SWAP1 POP PUSH2 0xE1E JUMP JUMPDEST DUP2 PUSH2 0xD70 JUMPI PUSH1 0x0 SWAP1 POP PUSH2 0xE1E JUMP JUMPDEST DUP2 PUSH1 0x1 DUP2 EQ PUSH2 0xD86 JUMPI PUSH1 0x2 DUP2 EQ PUSH2 0xD90 JUMPI PUSH2 0xDBF JUMP JUMPDEST PUSH1 0x1 SWAP2 POP POP PUSH2 0xE1E JUMP JUMPDEST PUSH1 0xFF DUP5 GT ISZERO PUSH2 0xDA2 JUMPI PUSH2 0xDA1 PUSH2 0xA0B JUMP JUMPDEST JUMPDEST DUP4 PUSH1 0x2 EXP SWAP2 POP DUP5 DUP3 GT ISZERO PUSH2 0xDB9 JUMPI PUSH2 0xDB8 PUSH2 0xA0B JUMP JUMPDEST JUMPDEST POP PUSH2 0xE1E JUMP JUMPDEST POP PUSH1 0x20 DUP4 LT PUSH2 0x133 DUP4 LT AND PUSH1 0x4E DUP5 LT PUSH1 0xB DUP5 LT AND OR ISZERO PUSH2 0xDF4 JUMPI DUP3 DUP3 EXP SWAP1 POP DUP4 DUP2 GT ISZERO PUSH2 0xDEF JUMPI PUSH2 0xDEE PUSH2 0xA0B JUMP JUMPDEST JUMPDEST PUSH2 0xE1E JUMP JUMPDEST PUSH2 0xE01 DUP5 DUP5 DUP5 PUSH1 0x1 PUSH2 0xCFF JUMP JUMPDEST SWAP3 POP SWAP1 POP DUP2 DUP5 DIV DUP2 GT ISZERO PUSH2 0xE18 JUMPI PUSH2 0xE17 PUSH2 0xA0B JUMP JUMPDEST JUMPDEST DUP2 DUP2 MUL SWAP1 POP JUMPDEST SWAP4 SWAP3 POP POP POP JUMP JUMPDEST PUSH1 0x0 PUSH2 0xE30 DUP3 PUSH2 0x84B JUMP JUMPDEST SWAP2 POP PUSH2 0xE3B DUP4 PUSH2 0x84B JUMP JUMPDEST SWAP3 POP PUSH2 0xE68 PUSH32 0xFFFFFFFFFFFFFFFFFFFFFFFFFFFFFFFFFFFFFFFFFFFFFFFFFFFFFFFFFFFFFFFF DUP5 DUP5 PUSH2 0xD52 JUMP JUMPDEST SWAP1 POP SWAP3 SWAP2 POP POP JUMP JUMPDEST PUSH1 0x0 PUSH2 0xE7C DUP3 DUP6 PUSH2 0xAEF JUMP JUMPDEST PUSH1 0x20 DUP3 ADD SWAP2 POP PUSH2 0xE8C DUP3 DUP5 PUSH2 0xAEF JUMP JUMPDEST PUSH1 0x20 DUP3 ADD SWAP2 POP DUP2 SWAP1 POP SWAP4 SWAP3 POP POP POP JUMP JUMPDEST PUSH1 0x0 PUSH2 0xEA7 DUP3 PUSH2 0x84B JUMP JUMPDEST SWAP2 POP PUSH2 0xEB2 DUP4 PUSH2 0x84B JUMP JUMPDEST SWAP3 POP DUP3 PUSH2 0xEC2 JUMPI PUSH2 0xEC1 PUSH2 0xC92 JUMP JUMPDEST JUMPDEST DUP3 DUP3 MOD SWAP1 POP SWAP3 SWAP2 POP POP JUMP INVALID LOG2 PUSH5 0x6970667358 0x22 SLT KECCAK256 CREATE2 EXTCODECOPY 0xC3 0xE5 0xD3 DIV 0xCA PUSH2 0x47D2 SLT CALLVALUE 0x25 SWAP16 0xE0 SWAP9 JUMPI DUP1 PUSH7 0xD83FF7BB11DB54 0xBB 0xE0 PUSH9 0xAFB91D64736F6C6343 STOP ADDMOD GT STOP CALLER "
				},
				"gasEstimates": {
					"creation": {
						"codeDepositCost": "768600",
						"executionCost": "137813",
						"totalCost": "906413"
					},
					"external": {
						"breading(uint256,uint256,uint256)": "infinite",
						"decode(uint256)": "infinite",
						"encode(uint8[])": "infinite"
					},
					"internal": {
						"get8Bits(uint256,uint256)": "infinite",
						"getRandomId(uint256,uint256,uint8,uint8)": "infinite",
						"getRarity(uint256,uint256,uint256)": "infinite",
						"random(uint256,uint256,uint256,uint256)": "infinite",
						"sliceNumber(uint256,uint256,uint256)": "infinite",
						"totalWeight()": "infinite",
						"weight(uint256)": "2162"
					}
				},
				"methodIdentifiers": {
					"breading(uint256,uint256,uint256)": "a7cc0f50",
					"decode(uint256)": "61a76900",
					"encode(uint8[])": "1597ee44"
				}
			},
			"storageLayout": {
				"storage": [
					{
						"astId": 7,
						"contract": "contracts/breedings/Breeding.sol:Breeding",
						"label": "GlobalSeed",
						"offset": 0,
						"slot": "0",
						"type": "t_uint256"
					},
					{
						"astId": 10,
						"contract": "contracts/breedings/Breeding.sol:Breeding",
						"label": "randomSideWeight",
						"offset": 0,
						"slot": "1",
						"type": "t_uint256"
					},
					{
						"astId": 13,
						"contract": "contracts/breedings/Breeding.sol:Breeding",
						"label": "randomIdWeight",
						"offset": 0,
						"slot": "2",
						"type": "t_uint256"
					},
					{
						"astId": 16,
						"contract": "contracts/breedings/Breeding.sol:Breeding",
						"label": "rarityPercent",
						"offset": 0,
						"slot": "3",
						"type": "t_uint256"
					},
					{
						"astId": 19,
						"contract": "contracts/breedings/Breeding.sol:Breeding",
						"label": "maxBodyParts",
						"offset": 0,
						"slot": "4",
						"type": "t_uint8"
					},
					{
						"astId": 22,
						"contract": "contracts/breedings/Breeding.sol:Breeding",
						"label": "maxId",
						"offset": 1,
						"slot": "4",
						"type": "t_uint8"
					}
				],
				"types": {
					"t_uint256": {
						"encoding": "inplace",
						"label": "uint256",
						"numberOfBytes": "32"
					},
					"t_uint8": {
						"encoding": "inplace",
						"label": "uint8",
						"numberOfBytes": "1"
					}
				}
			},
			"userdoc": {
				"kind": "user",
				"methods": {},
				"version": 1
			}
		}
	}
}