{
	"contracts/breedings/Breeding.sol": {
		"Breading": {
			"abi": [
				{
					"anonymous": false,
					"inputs": [
						{
							"indexed": true,
							"internalType": "address",
							"name": "previousOwner",
							"type": "address"
						},
						{
							"indexed": true,
							"internalType": "address",
							"name": "newOwner",
							"type": "address"
						}
					],
					"name": "OwnershipTransferred",
					"type": "event"
				},
				{
					"inputs": [
						{
							"internalType": "uint256",
							"name": "genes1",
							"type": "uint256"
						},
						{
							"internalType": "uint256",
							"name": "genes2",
							"type": "uint256"
						}
					],
					"name": "breading",
					"outputs": [
						{
							"internalType": "uint256",
							"name": "",
							"type": "uint256"
						}
					],
					"stateMutability": "nonpayable",
					"type": "function"
				},
				{
					"inputs": [],
					"name": "getGlobalSeed",
					"outputs": [
						{
							"internalType": "uint256",
							"name": "",
							"type": "uint256"
						}
					],
					"stateMutability": "view",
					"type": "function"
				},
				{
					"inputs": [],
					"name": "getMaxArcane",
					"outputs": [
						{
							"internalType": "uint256",
							"name": "",
							"type": "uint256"
						}
					],
					"stateMutability": "view",
					"type": "function"
				},
				{
					"inputs": [],
					"name": "getMaxId",
					"outputs": [
						{
							"internalType": "uint256",
							"name": "",
							"type": "uint256"
						}
					],
					"stateMutability": "view",
					"type": "function"
				},
				{
					"inputs": [],
					"name": "getMinArcane",
					"outputs": [
						{
							"internalType": "uint256",
							"name": "",
							"type": "uint256"
						}
					],
					"stateMutability": "view",
					"type": "function"
				},
				{
					"inputs": [],
					"name": "getMinId",
					"outputs": [
						{
							"internalType": "uint256",
							"name": "",
							"type": "uint256"
						}
					],
					"stateMutability": "view",
					"type": "function"
				},
				{
					"inputs": [],
					"name": "getRandomPercent",
					"outputs": [
						{
							"internalType": "uint256",
							"name": "",
							"type": "uint256"
						}
					],
					"stateMutability": "view",
					"type": "function"
				},
				{
					"inputs": [],
					"name": "owner",
					"outputs": [
						{
							"internalType": "address",
							"name": "",
							"type": "address"
						}
					],
					"stateMutability": "view",
					"type": "function"
				},
				{
					"inputs": [],
					"name": "renounceOwnership",
					"outputs": [],
					"stateMutability": "nonpayable",
					"type": "function"
				},
				{
					"inputs": [
						{
							"internalType": "uint256",
							"name": "value",
							"type": "uint256"
						}
					],
					"name": "setGlobalSeed",
					"outputs": [],
					"stateMutability": "nonpayable",
					"type": "function"
				},
				{
					"inputs": [
						{
							"internalType": "uint256",
							"name": "value",
							"type": "uint256"
						}
					],
					"name": "setMaxArcane",
					"outputs": [],
					"stateMutability": "nonpayable",
					"type": "function"
				},
				{
					"inputs": [
						{
							"internalType": "uint256",
							"name": "value",
							"type": "uint256"
						}
					],
					"name": "setMaxId",
					"outputs": [],
					"stateMutability": "nonpayable",
					"type": "function"
				},
				{
					"inputs": [
						{
							"internalType": "uint256",
							"name": "value",
							"type": "uint256"
						}
					],
					"name": "setMinArcane",
					"outputs": [],
					"stateMutability": "nonpayable",
					"type": "function"
				},
				{
					"inputs": [
						{
							"internalType": "uint256",
							"name": "value",
							"type": "uint256"
						}
					],
					"name": "setMinId",
					"outputs": [],
					"stateMutability": "nonpayable",
					"type": "function"
				},
				{
					"inputs": [
						{
							"internalType": "uint256",
							"name": "value",
							"type": "uint256"
						}
					],
					"name": "setRandomPercent",
					"outputs": [],
					"stateMutability": "nonpayable",
					"type": "function"
				},
				{
					"inputs": [
						{
							"internalType": "address",
							"name": "newOwner",
							"type": "address"
						}
					],
					"name": "transferOwnership",
					"outputs": [],
					"stateMutability": "nonpayable",
					"type": "function"
				}
			],
			"devdoc": {
				"kind": "dev",
				"methods": {
					"breading(uint256,uint256)": {
						"details": "given genes of token 1 & 2, return a genetic combination - may have a random factor",
						"params": {
							"genes1": "genes of mom",
							"genes2": "genes of dad"
						},
						"returns": {
							"_0": "the genes that are supposed to be passed down the child"
						}
					},
					"owner()": {
						"details": "Returns the address of the current owner."
					},
					"renounceOwnership()": {
						"details": "Leaves the contract without owner. It will not be possible to call `onlyOwner` functions anymore. Can only be called by the current owner. NOTE: Renouncing ownership will leave the contract without an owner, thereby removing any functionality that is only available to the owner."
					},
					"transferOwnership(address)": {
						"details": "Transfers ownership of the contract to a new account (`newOwner`). Can only be called by the current owner."
					}
				},
				"version": 1
			},
			"evm": {
				"assembly": "    /* \"contracts/breedings/Breeding.sol\":195:5458  contract Breading is Ownable, IBreeding {... */\n  mstore(0x40, 0x80)\n    /* \"contracts/breedings/Breeding.sol\":495:496  1 */\n  0x01\n    /* \"contracts/breedings/Breeding.sol\":465:496  uint256 private _globalSeed = 1 */\n  dup1\n  sstore\n    /* \"contracts/breedings/Breeding.sol\":535:536  5 */\n  0x05\n    /* \"contracts/breedings/Breeding.sol\":502:536  uint256 private _randomPercent = 5 */\n  0x02\n  sstore\n    /* \"contracts/breedings/Breeding.sol\":571:572  1 */\n  0x01\n    /* \"contracts/breedings/Breeding.sol\":542:572  uint256 private _minArcane = 1 */\n  0x03\n  sstore\n    /* \"contracts/breedings/Breeding.sol\":607:609  30 */\n  0x1e\n    /* \"contracts/breedings/Breeding.sol\":578:609  uint256 private _maxArcane = 30 */\n  0x04\n  sstore\n    /* \"contracts/breedings/Breeding.sol\":640:641  1 */\n  0x01\n    /* \"contracts/breedings/Breeding.sol\":615:641  uint256 private _minId = 1 */\n  0x05\n  sstore\n    /* \"contracts/breedings/Breeding.sol\":672:674  36 */\n  0x24\n    /* \"contracts/breedings/Breeding.sol\":647:674  uint256 private _maxId = 36 */\n  0x06\n  sstore\n    /* \"contracts/breedings/Breeding.sol\":195:5458  contract Breading is Ownable, IBreeding {... */\n  callvalue\n  dup1\n  iszero\n  tag_1\n  jumpi\n  0x00\n  dup1\n  revert\ntag_1:\n  pop\n    /* \"@openzeppelin/contracts/access/Ownable.sol\":936:968  _transferOwnership(_msgSender()) */\n  tag_4\n    /* \"@openzeppelin/contracts/utils/Context.sol\":719:729  msg.sender */\n  caller\n    /* \"@openzeppelin/contracts/access/Ownable.sol\":936:954  _transferOwnership */\n  tag_7\n    /* \"@openzeppelin/contracts/access/Ownable.sol\":936:968  _transferOwnership(_msgSender()) */\n  jump\t// in\ntag_4:\n    /* \"contracts/breedings/Breeding.sol\":195:5458  contract Breading is Ownable, IBreeding {... */\n  jump(tag_8)\n    /* \"@openzeppelin/contracts/access/Ownable.sol\":2433:2620  function _transferOwnership(address newOwner) internal virtual {... */\ntag_7:\n    /* \"@openzeppelin/contracts/access/Ownable.sol\":2506:2522  address oldOwner */\n  0x00\n    /* \"@openzeppelin/contracts/access/Ownable.sol\":2525:2531  _owner */\n  dup1\n  sload\n  sub(shl(0xa0, 0x01), 0x01)\n    /* \"@openzeppelin/contracts/access/Ownable.sol\":2541:2558  _owner = newOwner */\n  dup4\n  dup2\n  and\n  not(sub(shl(0xa0, 0x01), 0x01))\n  dup4\n  and\n  dup2\n  or\n  dup5\n  sstore\n    /* \"@openzeppelin/contracts/access/Ownable.sol\":2573:2613  OwnershipTransferred(oldOwner, newOwner) */\n  mload(0x40)\n    /* \"@openzeppelin/contracts/access/Ownable.sol\":2525:2531  _owner */\n  swap2\n  swap1\n  swap3\n  and\n  swap3\n  dup4\n  swap2\n    /* \"@openzeppelin/contracts/access/Ownable.sol\":2573:2613  OwnershipTransferred(oldOwner, newOwner) */\n  0x8be0079c531659141344cd1fd0a4f28419497f9722a3daafe3b4186f6b6457e0\n  swap2\n    /* \"@openzeppelin/contracts/access/Ownable.sol\":2506:2522  address oldOwner */\n  swap1\n    /* \"@openzeppelin/contracts/access/Ownable.sol\":2573:2613  OwnershipTransferred(oldOwner, newOwner) */\n  log3\n    /* \"@openzeppelin/contracts/access/Ownable.sol\":2496:2620  {... */\n  pop\n    /* \"@openzeppelin/contracts/access/Ownable.sol\":2433:2620  function _transferOwnership(address newOwner) internal virtual {... */\n  pop\n  jump\t// out\n    /* \"contracts/breedings/Breeding.sol\":195:5458  contract Breading is Ownable, IBreeding {... */\ntag_8:\n  dataSize(sub_0)\n  dup1\n  dataOffset(sub_0)\n  0x00\n  codecopy\n  0x00\n  return\nstop\n\nsub_0: assembly {\n        /* \"contracts/breedings/Breeding.sol\":195:5458  contract Breading is Ownable, IBreeding {... */\n      mstore(0x40, 0x80)\n      callvalue\n      dup1\n      iszero\n      tag_1\n      jumpi\n      0x00\n      dup1\n      revert\n    tag_1:\n      pop\n      jumpi(tag_2, lt(calldatasize, 0x04))\n      shr(0xe0, calldataload(0x00))\n      dup1\n      0x8da5cb5b\n      gt\n      tag_19\n      jumpi\n      dup1\n      0xe2e3a0db\n      gt\n      tag_20\n      jumpi\n      dup1\n      0xe2e3a0db\n      eq\n      tag_15\n      jumpi\n      dup1\n      0xe4a13fb7\n      eq\n      tag_16\n      jumpi\n      dup1\n      0xeb4b0e51\n      eq\n      tag_17\n      jumpi\n      dup1\n      0xf2fde38b\n      eq\n      tag_18\n      jumpi\n      0x00\n      dup1\n      revert\n    tag_20:\n      dup1\n      0x8da5cb5b\n      eq\n      tag_11\n      jumpi\n      dup1\n      0x91b66725\n      eq\n      tag_12\n      jumpi\n      dup1\n      0xd477a712\n      eq\n      tag_13\n      jumpi\n      dup1\n      0xe238b8c6\n      eq\n      tag_14\n      jumpi\n      0x00\n      dup1\n      revert\n    tag_19:\n      dup1\n      0x32099cc4\n      gt\n      tag_21\n      jumpi\n      dup1\n      0x32099cc4\n      eq\n      tag_7\n      jumpi\n      dup1\n      0x615ebe28\n      eq\n      tag_8\n      jumpi\n      dup1\n      0x715018a6\n      eq\n      tag_9\n      jumpi\n      dup1\n      0x878cf3a6\n      eq\n      tag_10\n      jumpi\n      0x00\n      dup1\n      revert\n    tag_21:\n      dup1\n      0x02aff378\n      eq\n      tag_3\n      jumpi\n      dup1\n      0x054fee6a\n      eq\n      tag_4\n      jumpi\n      dup1\n      0x16bd8646\n      eq\n      tag_5\n      jumpi\n      dup1\n      0x1bb39f84\n      eq\n      tag_6\n      jumpi\n    tag_2:\n      0x00\n      dup1\n      revert\n        /* \"contracts/breedings/Breeding.sol\":3077:3168  function setGlobalSeed(uint256 value) public onlyOwner {... */\n    tag_3:\n      tag_22\n      tag_23\n      calldatasize\n      0x04\n      tag_24\n      jump\t// in\n    tag_23:\n      tag_25\n      jump\t// in\n    tag_22:\n      stop\n        /* \"contracts/breedings/Breeding.sol\":3891:3988  function setRandomPercent(uint256 value) public onlyOwner {... */\n    tag_4:\n      tag_22\n      tag_27\n      calldatasize\n      0x04\n      tag_24\n      jump\t// in\n    tag_27:\n      tag_28\n      jump\t// in\n        /* \"contracts/breedings/Breeding.sol\":4411:4492  function setMaxId(uint256 value) public onlyOwner {... */\n    tag_5:\n      tag_22\n      tag_30\n      calldatasize\n      0x04\n      tag_24\n      jump\t// in\n    tag_30:\n      tag_31\n      jump\t// in\n        /* \"contracts/breedings/Breeding.sol\":3615:3704  function setMaxArcane(uint256 value) public onlyOwner {... */\n    tag_6:\n      tag_22\n      tag_33\n      calldatasize\n      0x04\n      tag_24\n      jump\t// in\n    tag_33:\n      tag_34\n      jump\t// in\n        /* \"contracts/breedings/Breeding.sol\":3251:3341  function getMinArcane() external view returns (uint256) {... */\n    tag_7:\n        /* \"contracts/breedings/Breeding.sol\":3324:3334  _minArcane */\n      sload(0x03)\n        /* \"contracts/breedings/Breeding.sol\":3251:3341  function getMinArcane() external view returns (uint256) {... */\n    tag_35:\n      mload(0x40)\n        /* \"#utility.yul\":345:370   */\n      swap1\n      dup2\n      mstore\n        /* \"#utility.yul\":333:335   */\n      0x20\n        /* \"#utility.yul\":318:336   */\n      add\n        /* \"contracts/breedings/Breeding.sol\":3251:3341  function getMinArcane() external view returns (uint256) {... */\n    tag_37:\n      mload(0x40)\n      dup1\n      swap2\n      sub\n      swap1\n      return\n        /* \"contracts/breedings/Breeding.sol\":3519:3609  function getMaxArcane() external view returns (uint256) {... */\n    tag_8:\n        /* \"contracts/breedings/Breeding.sol\":3592:3602  _maxArcane */\n      sload(0x04)\n        /* \"contracts/breedings/Breeding.sol\":3519:3609  function getMaxArcane() external view returns (uint256) {... */\n      jump(tag_35)\n        /* \"@openzeppelin/contracts/access/Ownable.sol\":1831:1932  function renounceOwnership() public virtual onlyOwner {... */\n    tag_9:\n      tag_22\n      tag_43\n      jump\t// in\n        /* \"contracts/breedings/Breeding.sol\":2979:3071  function getGlobalSeed() external view returns (uint256) {... */\n    tag_10:\n        /* \"contracts/breedings/Breeding.sol\":3053:3064  _globalSeed */\n      sload(0x01)\n        /* \"contracts/breedings/Breeding.sol\":2979:3071  function getGlobalSeed() external view returns (uint256) {... */\n      jump(tag_35)\n        /* \"@openzeppelin/contracts/access/Ownable.sol\":1201:1286  function owner() public view virtual returns (address) {... */\n    tag_11:\n        /* \"@openzeppelin/contracts/access/Ownable.sol\":1247:1254  address */\n      0x00\n        /* \"@openzeppelin/contracts/access/Ownable.sol\":1273:1279  _owner */\n      sload\n        /* \"@openzeppelin/contracts/access/Ownable.sol\":1201:1286  function owner() public view virtual returns (address) {... */\n      mload(0x40)\n      sub(shl(0xa0, 0x01), 0x01)\n        /* \"@openzeppelin/contracts/access/Ownable.sol\":1273:1279  _owner */\n      swap1\n      swap2\n      and\n        /* \"#utility.yul\":527:578   */\n      dup2\n      mstore\n        /* \"#utility.yul\":515:517   */\n      0x20\n        /* \"#utility.yul\":500:518   */\n      add\n        /* \"@openzeppelin/contracts/access/Ownable.sol\":1201:1286  function owner() public view virtual returns (address) {... */\n      tag_37\n        /* \"#utility.yul\":381:584   */\n      jump\n        /* \"contracts/breedings/Breeding.sol\":3347:3436  function setMinArcane(uint256 value) public onlyOwner {... */\n    tag_12:\n      tag_22\n      tag_52\n      calldatasize\n      0x04\n      tag_24\n      jump\t// in\n    tag_52:\n      tag_53\n      jump\t// in\n        /* \"contracts/breedings/Breeding.sol\":4323:4405  function getMaxId() external view returns (uint256) {... */\n    tag_13:\n        /* \"contracts/breedings/Breeding.sol\":4392:4398  _maxId */\n      sload(0x06)\n        /* \"contracts/breedings/Breeding.sol\":4323:4405  function getMaxId() external view returns (uint256) {... */\n      jump(tag_35)\n        /* \"contracts/breedings/Breeding.sol\":3787:3885  function getRandomPercent() external view returns (uint256) {... */\n    tag_14:\n        /* \"contracts/breedings/Breeding.sol\":3864:3878  _randomPercent */\n      sload(0x02)\n        /* \"contracts/breedings/Breeding.sol\":3787:3885  function getRandomPercent() external view returns (uint256) {... */\n      jump(tag_35)\n        /* \"contracts/breedings/Breeding.sol\":4159:4240  function setMinId(uint256 value) public onlyOwner {... */\n    tag_15:\n      tag_22\n      tag_61\n      calldatasize\n      0x04\n      tag_24\n      jump\t// in\n    tag_61:\n      tag_62\n      jump\t// in\n        /* \"contracts/breedings/Breeding.sol\":681:2803  function breading(uint256 genes1, uint256 genes2)... */\n    tag_16:\n      tag_35\n      tag_64\n      calldatasize\n      0x04\n      tag_65\n      jump\t// in\n    tag_64:\n      tag_66\n      jump\t// in\n        /* \"contracts/breedings/Breeding.sol\":4071:4153  function getMinId() external view returns (uint256) {... */\n    tag_17:\n        /* \"contracts/breedings/Breeding.sol\":4140:4146  _minId */\n      sload(0x05)\n        /* \"contracts/breedings/Breeding.sol\":4071:4153  function getMinId() external view returns (uint256) {... */\n      jump(tag_35)\n        /* \"@openzeppelin/contracts/access/Ownable.sol\":2081:2279  function transferOwnership(address newOwner) public virtual onlyOwner {... */\n    tag_18:\n      tag_22\n      tag_72\n      calldatasize\n      0x04\n      tag_73\n      jump\t// in\n    tag_72:\n      tag_74\n      jump\t// in\n        /* \"contracts/breedings/Breeding.sol\":3077:3168  function setGlobalSeed(uint256 value) public onlyOwner {... */\n    tag_25:\n        /* \"@openzeppelin/contracts/access/Ownable.sol\":1094:1107  _checkOwner() */\n      tag_76\n        /* \"@openzeppelin/contracts/access/Ownable.sol\":1094:1105  _checkOwner */\n      tag_77\n        /* \"@openzeppelin/contracts/access/Ownable.sol\":1094:1107  _checkOwner() */\n      jump\t// in\n    tag_76:\n        /* \"contracts/breedings/Breeding.sol\":3142:3153  _globalSeed */\n      0x01\n        /* \"contracts/breedings/Breeding.sol\":3142:3161  _globalSeed = value */\n      sstore\n        /* \"contracts/breedings/Breeding.sol\":3077:3168  function setGlobalSeed(uint256 value) public onlyOwner {... */\n      jump\t// out\n        /* \"contracts/breedings/Breeding.sol\":3891:3988  function setRandomPercent(uint256 value) public onlyOwner {... */\n    tag_28:\n        /* \"@openzeppelin/contracts/access/Ownable.sol\":1094:1107  _checkOwner() */\n      tag_80\n        /* \"@openzeppelin/contracts/access/Ownable.sol\":1094:1105  _checkOwner */\n      tag_77\n        /* \"@openzeppelin/contracts/access/Ownable.sol\":1094:1107  _checkOwner() */\n      jump\t// in\n    tag_80:\n        /* \"contracts/breedings/Breeding.sol\":3959:3973  _randomPercent */\n      0x02\n        /* \"contracts/breedings/Breeding.sol\":3959:3981  _randomPercent = value */\n      sstore\n        /* \"contracts/breedings/Breeding.sol\":3891:3988  function setRandomPercent(uint256 value) public onlyOwner {... */\n      jump\t// out\n        /* \"contracts/breedings/Breeding.sol\":4411:4492  function setMaxId(uint256 value) public onlyOwner {... */\n    tag_31:\n        /* \"@openzeppelin/contracts/access/Ownable.sol\":1094:1107  _checkOwner() */\n      tag_83\n        /* \"@openzeppelin/contracts/access/Ownable.sol\":1094:1105  _checkOwner */\n      tag_77\n        /* \"@openzeppelin/contracts/access/Ownable.sol\":1094:1107  _checkOwner() */\n      jump\t// in\n    tag_83:\n        /* \"contracts/breedings/Breeding.sol\":4471:4477  _maxId */\n      0x06\n        /* \"contracts/breedings/Breeding.sol\":4471:4485  _maxId = value */\n      sstore\n        /* \"contracts/breedings/Breeding.sol\":4411:4492  function setMaxId(uint256 value) public onlyOwner {... */\n      jump\t// out\n        /* \"contracts/breedings/Breeding.sol\":3615:3704  function setMaxArcane(uint256 value) public onlyOwner {... */\n    tag_34:\n        /* \"@openzeppelin/contracts/access/Ownable.sol\":1094:1107  _checkOwner() */\n      tag_86\n        /* \"@openzeppelin/contracts/access/Ownable.sol\":1094:1105  _checkOwner */\n      tag_77\n        /* \"@openzeppelin/contracts/access/Ownable.sol\":1094:1107  _checkOwner() */\n      jump\t// in\n    tag_86:\n        /* \"contracts/breedings/Breeding.sol\":3679:3689  _maxArcane */\n      0x04\n        /* \"contracts/breedings/Breeding.sol\":3679:3697  _maxArcane = value */\n      sstore\n        /* \"contracts/breedings/Breeding.sol\":3615:3704  function setMaxArcane(uint256 value) public onlyOwner {... */\n      jump\t// out\n        /* \"@openzeppelin/contracts/access/Ownable.sol\":1831:1932  function renounceOwnership() public virtual onlyOwner {... */\n    tag_43:\n        /* \"@openzeppelin/contracts/access/Ownable.sol\":1094:1107  _checkOwner() */\n      tag_91\n        /* \"@openzeppelin/contracts/access/Ownable.sol\":1094:1105  _checkOwner */\n      tag_77\n        /* \"@openzeppelin/contracts/access/Ownable.sol\":1094:1107  _checkOwner() */\n      jump\t// in\n    tag_91:\n        /* \"@openzeppelin/contracts/access/Ownable.sol\":1895:1925  _transferOwnership(address(0)) */\n      tag_93\n        /* \"@openzeppelin/contracts/access/Ownable.sol\":1922:1923  0 */\n      0x00\n        /* \"@openzeppelin/contracts/access/Ownable.sol\":1895:1913  _transferOwnership */\n      tag_94\n        /* \"@openzeppelin/contracts/access/Ownable.sol\":1895:1925  _transferOwnership(address(0)) */\n      jump\t// in\n    tag_93:\n        /* \"@openzeppelin/contracts/access/Ownable.sol\":1831:1932  function renounceOwnership() public virtual onlyOwner {... */\n      jump\t// out\n        /* \"contracts/breedings/Breeding.sol\":3347:3436  function setMinArcane(uint256 value) public onlyOwner {... */\n    tag_53:\n        /* \"@openzeppelin/contracts/access/Ownable.sol\":1094:1107  _checkOwner() */\n      tag_98\n        /* \"@openzeppelin/contracts/access/Ownable.sol\":1094:1105  _checkOwner */\n      tag_77\n        /* \"@openzeppelin/contracts/access/Ownable.sol\":1094:1107  _checkOwner() */\n      jump\t// in\n    tag_98:\n        /* \"contracts/breedings/Breeding.sol\":3411:3421  _minArcane */\n      0x03\n        /* \"contracts/breedings/Breeding.sol\":3411:3429  _minArcane = value */\n      sstore\n        /* \"contracts/breedings/Breeding.sol\":3347:3436  function setMinArcane(uint256 value) public onlyOwner {... */\n      jump\t// out\n        /* \"contracts/breedings/Breeding.sol\":4159:4240  function setMinId(uint256 value) public onlyOwner {... */\n    tag_62:\n        /* \"@openzeppelin/contracts/access/Ownable.sol\":1094:1107  _checkOwner() */\n      tag_103\n        /* \"@openzeppelin/contracts/access/Ownable.sol\":1094:1105  _checkOwner */\n      tag_77\n        /* \"@openzeppelin/contracts/access/Ownable.sol\":1094:1107  _checkOwner() */\n      jump\t// in\n    tag_103:\n        /* \"contracts/breedings/Breeding.sol\":4219:4225  _minId */\n      0x05\n        /* \"contracts/breedings/Breeding.sol\":4219:4233  _minId = value */\n      sstore\n        /* \"contracts/breedings/Breeding.sol\":4159:4240  function setMinId(uint256 value) public onlyOwner {... */\n      jump\t// out\n        /* \"contracts/breedings/Breeding.sol\":681:2803  function breading(uint256 genes1, uint256 genes2)... */\n    tag_66:\n        /* \"contracts/breedings/Breeding.sol\":1060:1071  _globalSeed */\n      sload(0x01)\n        /* \"contracts/breedings/Breeding.sol\":857:1089  abi.encodePacked(... */\n      0x40\n      dup1\n      mload\n        /* \"contracts/breedings/Breeding.sol\":895:910  block.timestamp */\n      timestamp\n        /* \"contracts/breedings/Breeding.sol\":857:1089  abi.encodePacked(... */\n      0x20\n      dup1\n      dup4\n      add\n        /* \"#utility.yul\":1402:1421   */\n      swap2\n      swap1\n      swap2\n      mstore\n        /* \"contracts/breedings/Breeding.sol\":932:944  block.number */\n      number\n        /* \"#utility.yul\":1437:1449   */\n      dup3\n      dup5\n      add\n        /* \"#utility.yul\":1430:1458   */\n      mstore\n        /* \"contracts/breedings/Breeding.sol\":966:982  block.prevrandao */\n      prevrandao\n        /* \"#utility.yul\":1474:1486   */\n      0x60\n      dup4\n      add\n        /* \"#utility.yul\":1467:1495   */\n      mstore\n        /* \"#utility.yul\":1511:1523   */\n      0x80\n      dup3\n      add\n        /* \"#utility.yul\":1504:1532   */\n      dup7\n      swap1\n      mstore\n        /* \"#utility.yul\":1548:1561   */\n      0xa0\n      dup3\n      add\n        /* \"#utility.yul\":1541:1570   */\n      dup6\n      swap1\n      mstore\n        /* \"#utility.yul\":1586:1599   */\n      0xc0\n      dup1\n      dup4\n      add\n        /* \"#utility.yul\":1579:1608   */\n      swap5\n      swap1\n      swap5\n      mstore\n        /* \"contracts/breedings/Breeding.sol\":857:1089  abi.encodePacked(... */\n      dup3\n      mload\n      dup1\n      dup4\n      sub\n      swap1\n      swap5\n      add\n      dup5\n      mstore\n        /* \"#utility.yul\":1624:1637   */\n      0xe0\n      swap1\n      swap2\n      add\n        /* \"contracts/breedings/Breeding.sol\":857:1089  abi.encodePacked(... */\n      swap1\n      swap2\n      mstore\n        /* \"contracts/breedings/Breeding.sol\":830:1103  keccak256(... */\n      dup2\n      mload\n      swap2\n      add\n      keccak256\n      0x00\n      swap1\n        /* \"contracts/breedings/Breeding.sol\":1132:1147  randomSeed != 0 */\n      dup1\n      dup3\n      sub\n        /* \"contracts/breedings/Breeding.sol\":1124:1173  require(randomSeed != 0, \"randomSeed can't be 0\") */\n      tag_108\n      jumpi\n      mload(0x40)\n      shl(0xe5, 0x461bcd)\n      dup2\n      mstore\n        /* \"#utility.yul\":1850:1852   */\n      0x20\n        /* \"contracts/breedings/Breeding.sol\":1124:1173  require(randomSeed != 0, \"randomSeed can't be 0\") */\n      0x04\n      dup3\n      add\n        /* \"#utility.yul\":1832:1853   */\n      mstore\n        /* \"#utility.yul\":1889:1891   */\n      0x15\n        /* \"#utility.yul\":1869:1887   */\n      0x24\n      dup3\n      add\n        /* \"#utility.yul\":1862:1892   */\n      mstore\n      shl(0x5c, 0x072616e646f6d536565642063616e2774206265203)\n        /* \"#utility.yul\":1908:1926   */\n      0x44\n      dup3\n      add\n        /* \"#utility.yul\":1901:1952   */\n      mstore\n        /* \"#utility.yul\":1969:1987   */\n      0x64\n      add\n        /* \"contracts/breedings/Breeding.sol\":1124:1173  require(randomSeed != 0, \"randomSeed can't be 0\") */\n    tag_109:\n      mload(0x40)\n      dup1\n      swap2\n      sub\n      swap1\n      revert\n    tag_108:\n        /* \"contracts/breedings/Breeding.sol\":1184:1195  _globalSeed */\n      0x01\n        /* \"contracts/breedings/Breeding.sol\":1184:1197  _globalSeed++ */\n      dup1\n      sload\n      swap1\n        /* \"contracts/breedings/Breeding.sol\":1184:1195  _globalSeed */\n      0x00\n        /* \"contracts/breedings/Breeding.sol\":1184:1197  _globalSeed++ */\n      tag_111\n      dup4\n      tag_112\n      jump\t// in\n    tag_111:\n      swap1\n      swap2\n      sstore\n      pop\n      pop\n        /* \"contracts/breedings/Breeding.sol\":1275:1306  GenesUtil.getGeneration(genes2) */\n      mload(0x40)\n      shl(0xe0, 0x56e3df97)\n      dup2\n      mstore\n      0x04\n      dup2\n      add\n        /* \"#utility.yul\":345:370   */\n      dup5\n      swap1\n      mstore\n        /* \"contracts/breedings/Breeding.sol\":1208:1225  uint32 generation */\n      0x00\n      swap1\n        /* \"contracts/breedings/Breeding.sol\":1322:1323  2 */\n      0x02\n      swap1\n        /* \"contracts/breedings/Breeding.sol\":1275:1284  GenesUtil */\n      linkerSymbol(\"bc34c519aa7d1b67b54ee96cd6fbdfb8db30b25488a806873ff83a6f9e643b6b\")\n      swap1\n        /* \"contracts/breedings/Breeding.sol\":1275:1298  GenesUtil.getGeneration */\n      0x56e3df97\n      swap1\n        /* \"#utility.yul\":318:336   */\n      0x24\n      add\n        /* \"contracts/breedings/Breeding.sol\":1275:1306  GenesUtil.getGeneration(genes2) */\n      0x20\n      mload(0x40)\n      dup1\n      dup4\n      sub\n      dup2\n      dup7\n      gas\n      delegatecall\n      iszero\n      dup1\n      iszero\n      tag_116\n      jumpi\n      returndatasize\n      0x00\n      dup1\n      returndatacopy\n      revert(0x00, returndatasize)\n    tag_116:\n      pop\n      pop\n      pop\n      pop\n      mload(0x40)\n      returndatasize\n      not(0x1f)\n      0x1f\n      dup3\n      add\n      and\n      dup3\n      add\n      dup1\n      0x40\n      mstore\n      pop\n      dup2\n      add\n      swap1\n      tag_117\n      swap2\n      swap1\n      tag_118\n      jump\t// in\n    tag_117:\n        /* \"contracts/breedings/Breeding.sol\":1229:1260  GenesUtil.getGeneration(genes1) */\n      mload(0x40)\n      shl(0xe0, 0x56e3df97)\n      dup2\n      mstore\n      0x04\n      dup2\n      add\n        /* \"#utility.yul\":345:370   */\n      dup9\n      swap1\n      mstore\n        /* \"contracts/breedings/Breeding.sol\":1229:1238  GenesUtil */\n      linkerSymbol(\"bc34c519aa7d1b67b54ee96cd6fbdfb8db30b25488a806873ff83a6f9e643b6b\")\n      swap1\n        /* \"contracts/breedings/Breeding.sol\":1229:1252  GenesUtil.getGeneration */\n      0x56e3df97\n      swap1\n        /* \"#utility.yul\":318:336   */\n      0x24\n      add\n        /* \"contracts/breedings/Breeding.sol\":1229:1260  GenesUtil.getGeneration(genes1) */\n      0x20\n      mload(0x40)\n      dup1\n      dup4\n      sub\n      dup2\n      dup7\n      gas\n      delegatecall\n      iszero\n      dup1\n      iszero\n      tag_121\n      jumpi\n      returndatasize\n      0x00\n      dup1\n      returndatacopy\n      revert(0x00, returndatasize)\n    tag_121:\n      pop\n      pop\n      pop\n      pop\n      mload(0x40)\n      returndatasize\n      not(0x1f)\n      0x1f\n      dup3\n      add\n      and\n      dup3\n      add\n      dup1\n      0x40\n      mstore\n      pop\n      dup2\n      add\n      swap1\n      tag_122\n      swap2\n      swap1\n      tag_118\n      jump\t// in\n    tag_122:\n        /* \"contracts/breedings/Breeding.sol\":1229:1306  GenesUtil.getGeneration(genes1) +... */\n      tag_123\n      swap2\n      swap1\n      tag_124\n      jump\t// in\n    tag_123:\n        /* \"contracts/breedings/Breeding.sol\":1228:1323  (GenesUtil.getGeneration(genes1) +... */\n      tag_125\n      swap2\n      swap1\n      tag_126\n      jump\t// in\n    tag_125:\n        /* \"contracts/breedings/Breeding.sol\":1228:1339  (GenesUtil.getGeneration(genes1) +... */\n      tag_127\n      swap1\n        /* \"contracts/breedings/Breeding.sol\":1338:1339  1 */\n      0x01\n        /* \"contracts/breedings/Breeding.sol\":1228:1339  (GenesUtil.getGeneration(genes1) +... */\n      tag_124\n      jump\t// in\n    tag_127:\n        /* \"contracts/breedings/Breeding.sol\":1208:1339  uint32 generation = (GenesUtil.getGeneration(genes1) +... */\n      swap1\n      pop\n        /* \"contracts/breedings/Breeding.sol\":1373:1374  9 */\n      0x09\n        /* \"contracts/breedings/Breeding.sol\":1350:1370  uint8 bodyPartsCount */\n      0x00\n      dup1\n      dup1\n        /* \"contracts/breedings/Breeding.sol\":1468:2615  for (... */\n    tag_128:\n        /* \"contracts/breedings/Breeding.sol\":1539:1553  bodyPartsCount */\n      dup4\n        /* \"contracts/breedings/Breeding.sol\":1523:1553  bodyPartIndex < bodyPartsCount */\n      0xff\n      and\n        /* \"contracts/breedings/Breeding.sol\":1523:1536  bodyPartIndex */\n      dup2\n        /* \"contracts/breedings/Breeding.sol\":1523:1553  bodyPartIndex < bodyPartsCount */\n      0xff\n      and\n      lt\n        /* \"contracts/breedings/Breeding.sol\":1468:2615  for (... */\n      iszero\n      tag_129\n      jumpi\n        /* \"contracts/breedings/Breeding.sol\":1607:1628  uint256 arcanePercent */\n      0x00\n        /* \"contracts/breedings/Breeding.sol\":1631:1766  getArcanePercent(... */\n      tag_131\n        /* \"contracts/breedings/Breeding.sol\":1665:1675  generation */\n      dup7\n        /* \"contracts/breedings/Breeding.sol\":1631:1766  getArcanePercent(... */\n      0xffffffff\n      and\n        /* \"contracts/breedings/Breeding.sol\":1693:1703  _minArcane */\n      sload(0x03)\n        /* \"contracts/breedings/Breeding.sol\":1721:1731  _maxArcane */\n      sload(0x04)\n        /* \"contracts/breedings/Breeding.sol\":1749:1752  100 */\n      0x64\n        /* \"contracts/breedings/Breeding.sol\":1631:1647  getArcanePercent */\n      tag_132\n        /* \"contracts/breedings/Breeding.sol\":1631:1766  getArcanePercent(... */\n      jump\t// in\n    tag_131:\n        /* \"contracts/breedings/Breeding.sol\":1607:1766  uint256 arcanePercent = getArcanePercent(... */\n      swap1\n      pop\n        /* \"contracts/breedings/Breeding.sol\":1780:1790  bool isArc */\n      0x00\n        /* \"contracts/breedings/Breeding.sol\":1826:1881  random(_globalSeed, randomIndex++, 0, _maxArcane * 100) */\n      tag_133\n        /* \"contracts/breedings/Breeding.sol\":1833:1844  _globalSeed */\n      sload(0x01)\n        /* \"contracts/breedings/Breeding.sol\":1846:1859  randomIndex++ */\n      dup7\n      dup1\n      tag_134\n      swap1\n      tag_112\n      jump\t// in\n    tag_134:\n      swap8\n      pop\n        /* \"contracts/breedings/Breeding.sol\":1861:1862  0 */\n      0x00\n        /* \"contracts/breedings/Breeding.sol\":1864:1874  _maxArcane */\n      sload(0x04)\n        /* \"contracts/breedings/Breeding.sol\":1877:1880  100 */\n      0x64\n        /* \"contracts/breedings/Breeding.sol\":1864:1880  _maxArcane * 100 */\n      tag_135\n      swap2\n      swap1\n      tag_136\n      jump\t// in\n    tag_135:\n        /* \"contracts/breedings/Breeding.sol\":1826:1832  random */\n      tag_137\n        /* \"contracts/breedings/Breeding.sol\":1826:1881  random(_globalSeed, randomIndex++, 0, _maxArcane * 100) */\n      jump\t// in\n    tag_133:\n        /* \"contracts/breedings/Breeding.sol\":1907:1908  1 */\n      0x01\n        /* \"contracts/breedings/Breeding.sol\":1951:1962  _globalSeed */\n      dup1\n      sload\n        /* \"contracts/breedings/Breeding.sol\":1793:1881  arcanePercent >=... */\n      swap2\n      dup5\n      lt\n      iszero\n      swap3\n      pop\n        /* \"contracts/breedings/Breeding.sol\":1907:1908  1 */\n      swap1\n        /* \"contracts/breedings/Breeding.sol\":1944:1986  random(_globalSeed, randomIndex++, 0, 100) */\n      tag_138\n      swap1\n        /* \"contracts/breedings/Breeding.sol\":1964:1977  randomIndex++ */\n      dup8\n      tag_139\n      dup2\n      tag_112\n      jump\t// in\n    tag_139:\n      swap9\n      pop\n        /* \"contracts/breedings/Breeding.sol\":1979:1980  0 */\n      0x00\n        /* \"contracts/breedings/Breeding.sol\":1982:1985  100 */\n      0x64\n        /* \"contracts/breedings/Breeding.sol\":1944:1950  random */\n      tag_137\n        /* \"contracts/breedings/Breeding.sol\":1944:1986  random(_globalSeed, randomIndex++, 0, 100) */\n      jump\t// in\n    tag_138:\n        /* \"contracts/breedings/Breeding.sol\":1926:1940  _randomPercent */\n      sload(0x02)\n        /* \"contracts/breedings/Breeding.sol\":1926:1986  _randomPercent >= random(_globalSeed, randomIndex++, 0, 100) */\n      lt\n        /* \"contracts/breedings/Breeding.sol\":1922:2398  if (_randomPercent >= random(_globalSeed, randomIndex++, 0, 100)) {... */\n      tag_140\n      jumpi\n        /* \"contracts/breedings/Breeding.sol\":2038:2092  random(_globalSeed, randomIndex++, _minId, _maxId + 1) */\n      tag_141\n        /* \"contracts/breedings/Breeding.sol\":2045:2056  _globalSeed */\n      sload(0x01)\n        /* \"contracts/breedings/Breeding.sol\":2058:2071  randomIndex++ */\n      dup8\n      dup1\n      tag_142\n      swap1\n      tag_112\n      jump\t// in\n    tag_142:\n      swap9\n      pop\n        /* \"contracts/breedings/Breeding.sol\":2073:2079  _minId */\n      sload(0x05)\n        /* \"contracts/breedings/Breeding.sol\":2081:2087  _maxId */\n      sload(0x06)\n        /* \"contracts/breedings/Breeding.sol\":2090:2091  1 */\n      0x01\n        /* \"contracts/breedings/Breeding.sol\":2081:2091  _maxId + 1 */\n      tag_135\n      swap2\n      swap1\n      tag_144\n      jump\t// in\n        /* \"contracts/breedings/Breeding.sol\":2038:2092  random(_globalSeed, randomIndex++, _minId, _maxId + 1) */\n    tag_141:\n        /* \"contracts/breedings/Breeding.sol\":2095:2099  0xFF */\n      0xff\n        /* \"contracts/breedings/Breeding.sol\":2038:2099  random(_globalSeed, randomIndex++, _minId, _maxId + 1) & 0xFF */\n      and\n        /* \"contracts/breedings/Breeding.sol\":2006:2117  id = uint8(... */\n      swap1\n      pop\n        /* \"contracts/breedings/Breeding.sol\":1922:2398  if (_randomPercent >= random(_globalSeed, randomIndex++, 0, 100)) {... */\n      jump(tag_155)\n    tag_140:\n        /* \"contracts/breedings/Breeding.sol\":2206:2208  50 */\n      0x32\n        /* \"contracts/breedings/Breeding.sol\":2160:2202  random(_globalSeed, randomIndex++, 0, 100) */\n      tag_146\n        /* \"contracts/breedings/Breeding.sol\":2167:2178  _globalSeed */\n      sload(0x01)\n        /* \"contracts/breedings/Breeding.sol\":2180:2193  randomIndex++ */\n      dup9\n      dup1\n      tag_147\n      swap1\n      tag_112\n      jump\t// in\n    tag_147:\n      swap10\n      pop\n        /* \"contracts/breedings/Breeding.sol\":2195:2196  0 */\n      0x00\n        /* \"contracts/breedings/Breeding.sol\":2198:2201  100 */\n      0x64\n        /* \"contracts/breedings/Breeding.sol\":2160:2166  random */\n      tag_137\n        /* \"contracts/breedings/Breeding.sol\":2160:2202  random(_globalSeed, randomIndex++, 0, 100) */\n      jump\t// in\n    tag_146:\n        /* \"contracts/breedings/Breeding.sol\":2160:2208  random(_globalSeed, randomIndex++, 0, 100) >= 50 */\n      lt\n        /* \"contracts/breedings/Breeding.sol\":2156:2384  if (random(_globalSeed, randomIndex++, 0, 100) >= 50) {... */\n      tag_148\n      jumpi\n        /* \"contracts/breedings/Breeding.sol\":2237:2275  GenesUtil.getId(genes2, bodyPartIndex) */\n      mload(0x40)\n      shl(0xe0, 0x5d2029f1)\n      dup2\n      mstore\n      0x04\n      dup2\n      add\n        /* \"#utility.yul\":3731:3756   */\n      dup13\n      swap1\n      mstore\n        /* \"#utility.yul\":3804:3808   */\n      0xff\n        /* \"#utility.yul\":3792:3809   */\n      dup6\n      and\n        /* \"#utility.yul\":3772:3790   */\n      0x24\n      dup3\n      add\n        /* \"#utility.yul\":3765:3810   */\n      mstore\n        /* \"contracts/breedings/Breeding.sol\":2237:2246  GenesUtil */\n      linkerSymbol(\"bc34c519aa7d1b67b54ee96cd6fbdfb8db30b25488a806873ff83a6f9e643b6b\")\n      swap1\n        /* \"contracts/breedings/Breeding.sol\":2237:2252  GenesUtil.getId */\n      0x5d2029f1\n      swap1\n        /* \"#utility.yul\":3704:3722   */\n      0x44\n      add\n        /* \"contracts/breedings/Breeding.sol\":2237:2275  GenesUtil.getId(genes2, bodyPartIndex) */\n      0x20\n      mload(0x40)\n      dup1\n      dup4\n      sub\n      dup2\n      dup7\n      gas\n      delegatecall\n      iszero\n      dup1\n      iszero\n      tag_152\n      jumpi\n      returndatasize\n      0x00\n      dup1\n      returndatacopy\n      revert(0x00, returndatasize)\n    tag_152:\n      pop\n      pop\n      pop\n      pop\n      mload(0x40)\n      returndatasize\n      not(0x1f)\n      0x1f\n      dup3\n      add\n      and\n      dup3\n      add\n      dup1\n      0x40\n      mstore\n      pop\n      dup2\n      add\n      swap1\n      tag_153\n      swap2\n      swap1\n      tag_154\n      jump\t// in\n    tag_153:\n        /* \"contracts/breedings/Breeding.sol\":2232:2275  id = GenesUtil.getId(genes2, bodyPartIndex) */\n      swap1\n      pop\n        /* \"contracts/breedings/Breeding.sol\":2156:2384  if (random(_globalSeed, randomIndex++, 0, 100) >= 50) {... */\n      jump(tag_155)\n    tag_148:\n        /* \"contracts/breedings/Breeding.sol\":2327:2365  GenesUtil.getId(genes1, bodyPartIndex) */\n      mload(0x40)\n      shl(0xe0, 0x5d2029f1)\n      dup2\n      mstore\n      0x04\n      dup2\n      add\n        /* \"#utility.yul\":3731:3756   */\n      dup14\n      swap1\n      mstore\n        /* \"#utility.yul\":3804:3808   */\n      0xff\n        /* \"#utility.yul\":3792:3809   */\n      dup6\n      and\n        /* \"#utility.yul\":3772:3790   */\n      0x24\n      dup3\n      add\n        /* \"#utility.yul\":3765:3810   */\n      mstore\n        /* \"contracts/breedings/Breeding.sol\":2327:2336  GenesUtil */\n      linkerSymbol(\"bc34c519aa7d1b67b54ee96cd6fbdfb8db30b25488a806873ff83a6f9e643b6b\")\n      swap1\n        /* \"contracts/breedings/Breeding.sol\":2327:2342  GenesUtil.getId */\n      0x5d2029f1\n      swap1\n        /* \"#utility.yul\":3704:3722   */\n      0x44\n      add\n        /* \"contracts/breedings/Breeding.sol\":2327:2365  GenesUtil.getId(genes1, bodyPartIndex) */\n      0x20\n      mload(0x40)\n      dup1\n      dup4\n      sub\n      dup2\n      dup7\n      gas\n      delegatecall\n      iszero\n      dup1\n      iszero\n      tag_158\n      jumpi\n      returndatasize\n      0x00\n      dup1\n      returndatacopy\n      revert(0x00, returndatasize)\n    tag_158:\n      pop\n      pop\n      pop\n      pop\n      mload(0x40)\n      returndatasize\n      not(0x1f)\n      0x1f\n      dup3\n      add\n      and\n      dup3\n      add\n      dup1\n      0x40\n      mstore\n      pop\n      dup2\n      add\n      swap1\n      tag_159\n      swap2\n      swap1\n      tag_154\n      jump\t// in\n    tag_159:\n        /* \"contracts/breedings/Breeding.sol\":2322:2365  id = GenesUtil.getId(genes1, bodyPartIndex) */\n      swap1\n      pop\n        /* \"contracts/breedings/Breeding.sol\":2156:2384  if (random(_globalSeed, randomIndex++, 0, 100) >= 50) {... */\n    tag_155:\n        /* \"contracts/breedings/Breeding.sol\":2420:2461  GenesUtil.setId(genes, bodyPartIndex, id) */\n      mload(0x40)\n      shl(0xe0, 0x34a51d0f)\n      dup2\n      mstore\n      0x04\n      dup2\n      add\n        /* \"#utility.yul\":4303:4328   */\n      dup7\n      swap1\n      mstore\n        /* \"#utility.yul\":4376:4380   */\n      0xff\n        /* \"#utility.yul\":4364:4381   */\n      dup1\n      dup7\n      and\n        /* \"#utility.yul\":4344:4362   */\n      0x24\n      dup4\n      add\n        /* \"#utility.yul\":4337:4382   */\n      mstore\n        /* \"#utility.yul\":4418:4435   */\n      dup3\n      and\n        /* \"#utility.yul\":4398:4416   */\n      0x44\n      dup3\n      add\n        /* \"#utility.yul\":4391:4436   */\n      mstore\n        /* \"contracts/breedings/Breeding.sol\":2420:2429  GenesUtil */\n      linkerSymbol(\"bc34c519aa7d1b67b54ee96cd6fbdfb8db30b25488a806873ff83a6f9e643b6b\")\n      swap1\n        /* \"contracts/breedings/Breeding.sol\":2420:2435  GenesUtil.setId */\n      0x34a51d0f\n      swap1\n        /* \"#utility.yul\":4276:4294   */\n      0x64\n      add\n        /* \"contracts/breedings/Breeding.sol\":2420:2461  GenesUtil.setId(genes, bodyPartIndex, id) */\n      0x20\n      mload(0x40)\n      dup1\n      dup4\n      sub\n      dup2\n      dup7\n      gas\n      delegatecall\n      iszero\n      dup1\n      iszero\n      tag_163\n      jumpi\n      returndatasize\n      0x00\n      dup1\n      returndatacopy\n      revert(0x00, returndatasize)\n    tag_163:\n      pop\n      pop\n      pop\n      pop\n      mload(0x40)\n      returndatasize\n      not(0x1f)\n      0x1f\n      dup3\n      add\n      and\n      dup3\n      add\n      dup1\n      0x40\n      mstore\n      pop\n      dup2\n      add\n      swap1\n      tag_164\n      swap2\n      swap1\n      tag_165\n      jump\t// in\n    tag_164:\n        /* \"contracts/breedings/Breeding.sol\":2483:2526  GenesUtil.setLevel(genes, bodyPartIndex, 1) */\n      mload(0x40)\n      shl(0xe0, 0xe1b30ab7)\n      dup2\n      mstore\n      0x04\n      dup2\n      add\n        /* \"#utility.yul\":4303:4328   */\n      dup3\n      swap1\n      mstore\n        /* \"#utility.yul\":4376:4380   */\n      0xff\n        /* \"#utility.yul\":4364:4381   */\n      dup7\n      and\n        /* \"#utility.yul\":4344:4362   */\n      0x24\n      dup3\n      add\n        /* \"#utility.yul\":4337:4382   */\n      mstore\n        /* \"contracts/breedings/Breeding.sol\":2524:2525  1 */\n      0x01\n        /* \"#utility.yul\":4398:4416   */\n      0x44\n      dup3\n      add\n        /* \"#utility.yul\":4391:4436   */\n      mstore\n        /* \"contracts/breedings/Breeding.sol\":2412:2461  genes = GenesUtil.setId(genes, bodyPartIndex, id) */\n      swap1\n      swap6\n      pop\n        /* \"contracts/breedings/Breeding.sol\":2483:2492  GenesUtil */\n      linkerSymbol(\"bc34c519aa7d1b67b54ee96cd6fbdfb8db30b25488a806873ff83a6f9e643b6b\")\n      swap1\n        /* \"contracts/breedings/Breeding.sol\":2483:2501  GenesUtil.setLevel */\n      0xe1b30ab7\n      swap1\n        /* \"#utility.yul\":4276:4294   */\n      0x64\n      add\n        /* \"contracts/breedings/Breeding.sol\":2483:2526  GenesUtil.setLevel(genes, bodyPartIndex, 1) */\n      0x20\n      mload(0x40)\n      dup1\n      dup4\n      sub\n      dup2\n      dup7\n      gas\n      delegatecall\n      iszero\n      dup1\n      iszero\n      tag_169\n      jumpi\n      returndatasize\n      0x00\n      dup1\n      returndatacopy\n      revert(0x00, returndatasize)\n    tag_169:\n      pop\n      pop\n      pop\n      pop\n      mload(0x40)\n      returndatasize\n      not(0x1f)\n      0x1f\n      dup3\n      add\n      and\n      dup3\n      add\n      dup1\n      0x40\n      mstore\n      pop\n      dup2\n      add\n      swap1\n      tag_170\n      swap2\n      swap1\n      tag_165\n      jump\t// in\n    tag_170:\n        /* \"contracts/breedings/Breeding.sol\":2475:2526  genes = GenesUtil.setLevel(genes, bodyPartIndex, 1) */\n      swap5\n      pop\n        /* \"contracts/breedings/Breeding.sol\":2548:2557  GenesUtil */\n      linkerSymbol(\"bc34c519aa7d1b67b54ee96cd6fbdfb8db30b25488a806873ff83a6f9e643b6b\")\n        /* \"contracts/breedings/Breeding.sol\":2548:2567  GenesUtil.setArcane */\n      0x55d6ed43\n        /* \"contracts/breedings/Breeding.sol\":2568:2573  genes */\n      dup7\n        /* \"contracts/breedings/Breeding.sol\":2575:2588  bodyPartIndex */\n      dup7\n        /* \"contracts/breedings/Breeding.sol\":2590:2595  isArc */\n      dup6\n        /* \"contracts/breedings/Breeding.sol\":2590:2603  isArc ? 1 : 0 */\n      tag_171\n      jumpi\n        /* \"contracts/breedings/Breeding.sol\":2602:2603  0 */\n      0x00\n        /* \"contracts/breedings/Breeding.sol\":2590:2603  isArc ? 1 : 0 */\n      jump(tag_172)\n    tag_171:\n        /* \"contracts/breedings/Breeding.sol\":2598:2599  1 */\n      0x01\n        /* \"contracts/breedings/Breeding.sol\":2590:2603  isArc ? 1 : 0 */\n    tag_172:\n        /* \"contracts/breedings/Breeding.sol\":2548:2604  GenesUtil.setArcane(genes, bodyPartIndex, isArc ? 1 : 0) */\n      mload(0x40)\n      not(sub(shl(0xe0, 0x01), 0x01))\n      0xe0\n      dup7\n      swap1\n      shl\n      and\n      dup2\n      mstore\n      0x04\n      dup2\n      add\n        /* \"#utility.yul\":4303:4328   */\n      swap4\n      swap1\n      swap4\n      mstore\n        /* \"#utility.yul\":4376:4380   */\n      0xff\n        /* \"#utility.yul\":4364:4381   */\n      swap2\n      dup3\n      and\n        /* \"#utility.yul\":4344:4362   */\n      0x24\n      dup5\n      add\n        /* \"#utility.yul\":4337:4382   */\n      mstore\n        /* \"#utility.yul\":4418:4435   */\n      and\n        /* \"#utility.yul\":4398:4416   */\n      0x44\n      dup3\n      add\n        /* \"#utility.yul\":4391:4436   */\n      mstore\n        /* \"#utility.yul\":4276:4294   */\n      0x64\n      add\n        /* \"contracts/breedings/Breeding.sol\":2548:2604  GenesUtil.setArcane(genes, bodyPartIndex, isArc ? 1 : 0) */\n      0x20\n      mload(0x40)\n      dup1\n      dup4\n      sub\n      dup2\n      dup7\n      gas\n      delegatecall\n      iszero\n      dup1\n      iszero\n      tag_175\n      jumpi\n      returndatasize\n      0x00\n      dup1\n      returndatacopy\n      revert(0x00, returndatasize)\n    tag_175:\n      pop\n      pop\n      pop\n      pop\n      mload(0x40)\n      returndatasize\n      not(0x1f)\n      0x1f\n      dup3\n      add\n      and\n      dup3\n      add\n      dup1\n      0x40\n      mstore\n      pop\n      dup2\n      add\n      swap1\n      tag_176\n      swap2\n      swap1\n      tag_165\n      jump\t// in\n    tag_176:\n        /* \"contracts/breedings/Breeding.sol\":2540:2604  genes = GenesUtil.setArcane(genes, bodyPartIndex, isArc ? 1 : 0) */\n      swap5\n      pop\n        /* \"contracts/breedings/Breeding.sol\":1593:2615  {... */\n      pop\n      pop\n      pop\n        /* \"contracts/breedings/Breeding.sol\":1567:1582  bodyPartIndex++ */\n      dup1\n      dup1\n      tag_177\n      swap1\n      tag_178\n      jump\t// in\n    tag_177:\n      swap2\n      pop\n      pop\n        /* \"contracts/breedings/Breeding.sol\":1468:2615  for (... */\n      jump(tag_128)\n    tag_129:\n      pop\n        /* \"contracts/breedings/Breeding.sol\":2659:2701  GenesUtil.setGeneration(genes, generation) */\n      mload(0x40)\n      shl(0xe0, 0x8de97f4f)\n      dup2\n      mstore\n      0x04\n      dup2\n      add\n        /* \"#utility.yul\":5354:5379   */\n      dup3\n      swap1\n      mstore\n        /* \"#utility.yul\":5427:5437   */\n      0xffffffff\n        /* \"#utility.yul\":5415:5438   */\n      dup6\n      and\n        /* \"#utility.yul\":5395:5413   */\n      0x24\n      dup3\n      add\n        /* \"#utility.yul\":5388:5439   */\n      mstore\n        /* \"contracts/breedings/Breeding.sol\":2659:2668  GenesUtil */\n      linkerSymbol(\"bc34c519aa7d1b67b54ee96cd6fbdfb8db30b25488a806873ff83a6f9e643b6b\")\n      swap1\n        /* \"contracts/breedings/Breeding.sol\":2659:2682  GenesUtil.setGeneration */\n      0x8de97f4f\n      swap1\n        /* \"#utility.yul\":5327:5345   */\n      0x44\n      add\n        /* \"contracts/breedings/Breeding.sol\":2659:2701  GenesUtil.setGeneration(genes, generation) */\n      0x20\n      mload(0x40)\n      dup1\n      dup4\n      sub\n      dup2\n      dup7\n      gas\n      delegatecall\n      iszero\n      dup1\n      iszero\n      tag_182\n      jumpi\n      returndatasize\n      0x00\n      dup1\n      returndatacopy\n      revert(0x00, returndatasize)\n    tag_182:\n      pop\n      pop\n      pop\n      pop\n      mload(0x40)\n      returndatasize\n      not(0x1f)\n      0x1f\n      dup3\n      add\n      and\n      dup3\n      add\n      dup1\n      0x40\n      mstore\n      pop\n      dup2\n      add\n      swap1\n      tag_183\n      swap2\n      swap1\n      tag_165\n      jump\t// in\n    tag_183:\n        /* \"contracts/breedings/Breeding.sol\":2743:2773  GenesUtil.setCharges(genes, 1) */\n      mload(0x40)\n      shl(0xe0, 0xb52b6659)\n      dup2\n      mstore\n      0x04\n      dup2\n      add\n        /* \"#utility.yul\":3731:3756   */\n      dup3\n      swap1\n      mstore\n        /* \"contracts/breedings/Breeding.sol\":2771:2772  1 */\n      0x01\n        /* \"#utility.yul\":3772:3790   */\n      0x24\n      dup3\n      add\n        /* \"#utility.yul\":3765:3810   */\n      mstore\n        /* \"contracts/breedings/Breeding.sol\":2651:2701  genes = GenesUtil.setGeneration(genes, generation) */\n      swap1\n      swap2\n      pop\n        /* \"contracts/breedings/Breeding.sol\":2743:2752  GenesUtil */\n      linkerSymbol(\"bc34c519aa7d1b67b54ee96cd6fbdfb8db30b25488a806873ff83a6f9e643b6b\")\n      swap1\n        /* \"contracts/breedings/Breeding.sol\":2743:2763  GenesUtil.setCharges */\n      0xb52b6659\n      swap1\n        /* \"#utility.yul\":3704:3722   */\n      0x44\n      add\n        /* \"contracts/breedings/Breeding.sol\":2743:2773  GenesUtil.setCharges(genes, 1) */\n      0x20\n      mload(0x40)\n      dup1\n      dup4\n      sub\n      dup2\n      dup7\n      gas\n      delegatecall\n      iszero\n      dup1\n      iszero\n      tag_187\n      jumpi\n      returndatasize\n      0x00\n      dup1\n      returndatacopy\n      revert(0x00, returndatasize)\n    tag_187:\n      pop\n      pop\n      pop\n      pop\n      mload(0x40)\n      returndatasize\n      not(0x1f)\n      0x1f\n      dup3\n      add\n      and\n      dup3\n      add\n      dup1\n      0x40\n      mstore\n      pop\n      dup2\n      add\n      swap1\n      tag_188\n      swap2\n      swap1\n      tag_165\n      jump\t// in\n    tag_188:\n        /* \"contracts/breedings/Breeding.sol\":2735:2773  genes = GenesUtil.setCharges(genes, 1) */\n      swap6\n      pop\n      pop\n      pop\n      pop\n      pop\n      pop\n        /* \"contracts/breedings/Breeding.sol\":681:2803  function breading(uint256 genes1, uint256 genes2)... */\n    tag_105:\n      swap3\n      swap2\n      pop\n      pop\n      jump\t// out\n        /* \"@openzeppelin/contracts/access/Ownable.sol\":2081:2279  function transferOwnership(address newOwner) public virtual onlyOwner {... */\n    tag_74:\n        /* \"@openzeppelin/contracts/access/Ownable.sol\":1094:1107  _checkOwner() */\n      tag_191\n        /* \"@openzeppelin/contracts/access/Ownable.sol\":1094:1105  _checkOwner */\n      tag_77\n        /* \"@openzeppelin/contracts/access/Ownable.sol\":1094:1107  _checkOwner() */\n      jump\t// in\n    tag_191:\n      sub(shl(0xa0, 0x01), 0x01)\n        /* \"@openzeppelin/contracts/access/Ownable.sol\":2169:2191  newOwner != address(0) */\n      dup2\n      and\n        /* \"@openzeppelin/contracts/access/Ownable.sol\":2161:2234  require(newOwner != address(0), \"Ownable: new owner is the zero address\") */\n      tag_193\n      jumpi\n      mload(0x40)\n      shl(0xe5, 0x461bcd)\n      dup2\n      mstore\n        /* \"#utility.yul\":5930:5932   */\n      0x20\n        /* \"@openzeppelin/contracts/access/Ownable.sol\":2161:2234  require(newOwner != address(0), \"Ownable: new owner is the zero address\") */\n      0x04\n      dup3\n      add\n        /* \"#utility.yul\":5912:5933   */\n      mstore\n        /* \"#utility.yul\":5969:5971   */\n      0x26\n        /* \"#utility.yul\":5949:5967   */\n      0x24\n      dup3\n      add\n        /* \"#utility.yul\":5942:5972   */\n      mstore\n        /* \"#utility.yul\":6008:6042   */\n      0x4f776e61626c653a206e6577206f776e657220697320746865207a65726f2061\n        /* \"#utility.yul\":5988:6006   */\n      0x44\n      dup3\n      add\n        /* \"#utility.yul\":5981:6043   */\n      mstore\n      shl(0xd0, 0x646472657373)\n        /* \"#utility.yul\":6059:6077   */\n      0x64\n      dup3\n      add\n        /* \"#utility.yul\":6052:6088   */\n      mstore\n        /* \"#utility.yul\":6105:6124   */\n      0x84\n      add\n        /* \"@openzeppelin/contracts/access/Ownable.sol\":2161:2234  require(newOwner != address(0), \"Ownable: new owner is the zero address\") */\n      tag_109\n        /* \"#utility.yul\":5728:6130   */\n      jump\n        /* \"@openzeppelin/contracts/access/Ownable.sol\":2161:2234  require(newOwner != address(0), \"Ownable: new owner is the zero address\") */\n    tag_193:\n        /* \"@openzeppelin/contracts/access/Ownable.sol\":2244:2272  _transferOwnership(newOwner) */\n      tag_196\n        /* \"@openzeppelin/contracts/access/Ownable.sol\":2263:2271  newOwner */\n      dup2\n        /* \"@openzeppelin/contracts/access/Ownable.sol\":2244:2262  _transferOwnership */\n      tag_94\n        /* \"@openzeppelin/contracts/access/Ownable.sol\":2244:2272  _transferOwnership(newOwner) */\n      jump\t// in\n    tag_196:\n        /* \"@openzeppelin/contracts/access/Ownable.sol\":2081:2279  function transferOwnership(address newOwner) public virtual onlyOwner {... */\n      pop\n      jump\t// out\n        /* \"@openzeppelin/contracts/access/Ownable.sol\":1359:1489  function _checkOwner() internal view virtual {... */\n    tag_77:\n        /* \"@openzeppelin/contracts/access/Ownable.sol\":1247:1254  address */\n      0x00\n        /* \"@openzeppelin/contracts/access/Ownable.sol\":1273:1279  _owner */\n      sload\n      sub(shl(0xa0, 0x01), 0x01)\n      and\n        /* \"@openzeppelin/contracts/utils/Context.sol\":719:729  msg.sender */\n      caller\n        /* \"@openzeppelin/contracts/access/Ownable.sol\":1422:1445  owner() == _msgSender() */\n      eq\n        /* \"@openzeppelin/contracts/access/Ownable.sol\":1414:1482  require(owner() == _msgSender(), \"Ownable: caller is not the owner\") */\n      tag_93\n      jumpi\n      mload(0x40)\n      shl(0xe5, 0x461bcd)\n      dup2\n      mstore\n        /* \"#utility.yul\":6337:6339   */\n      0x20\n        /* \"@openzeppelin/contracts/access/Ownable.sol\":1414:1482  require(owner() == _msgSender(), \"Ownable: caller is not the owner\") */\n      0x04\n      dup3\n      add\n        /* \"#utility.yul\":6319:6340   */\n      dup2\n      swap1\n      mstore\n        /* \"#utility.yul\":6356:6374   */\n      0x24\n      dup3\n      add\n        /* \"#utility.yul\":6349:6379   */\n      mstore\n        /* \"#utility.yul\":6415:6449   */\n      0x4f776e61626c653a2063616c6c6572206973206e6f7420746865206f776e6572\n        /* \"#utility.yul\":6395:6413   */\n      0x44\n      dup3\n      add\n        /* \"#utility.yul\":6388:6450   */\n      mstore\n        /* \"#utility.yul\":6467:6485   */\n      0x64\n      add\n        /* \"@openzeppelin/contracts/access/Ownable.sol\":1414:1482  require(owner() == _msgSender(), \"Ownable: caller is not the owner\") */\n      tag_109\n        /* \"#utility.yul\":6135:6491   */\n      jump\n        /* \"@openzeppelin/contracts/access/Ownable.sol\":2433:2620  function _transferOwnership(address newOwner) internal virtual {... */\n    tag_94:\n        /* \"@openzeppelin/contracts/access/Ownable.sol\":2506:2522  address oldOwner */\n      0x00\n        /* \"@openzeppelin/contracts/access/Ownable.sol\":2525:2531  _owner */\n      dup1\n      sload\n      sub(shl(0xa0, 0x01), 0x01)\n        /* \"@openzeppelin/contracts/access/Ownable.sol\":2541:2558  _owner = newOwner */\n      dup4\n      dup2\n      and\n      not(sub(shl(0xa0, 0x01), 0x01))\n      dup4\n      and\n      dup2\n      or\n      dup5\n      sstore\n        /* \"@openzeppelin/contracts/access/Ownable.sol\":2573:2613  OwnershipTransferred(oldOwner, newOwner) */\n      mload(0x40)\n        /* \"@openzeppelin/contracts/access/Ownable.sol\":2525:2531  _owner */\n      swap2\n      swap1\n      swap3\n      and\n      swap3\n      dup4\n      swap2\n        /* \"@openzeppelin/contracts/access/Ownable.sol\":2573:2613  OwnershipTransferred(oldOwner, newOwner) */\n      0x8be0079c531659141344cd1fd0a4f28419497f9722a3daafe3b4186f6b6457e0\n      swap2\n        /* \"@openzeppelin/contracts/access/Ownable.sol\":2506:2522  address oldOwner */\n      swap1\n        /* \"@openzeppelin/contracts/access/Ownable.sol\":2573:2613  OwnershipTransferred(oldOwner, newOwner) */\n      log3\n        /* \"@openzeppelin/contracts/access/Ownable.sol\":2496:2620  {... */\n      pop\n        /* \"@openzeppelin/contracts/access/Ownable.sol\":2433:2620  function _transferOwnership(address newOwner) internal virtual {... */\n      pop\n      jump\t// out\n        /* \"contracts/breedings/Breeding.sol\":5178:5456  function getArcanePercent(... */\n    tag_132:\n        /* \"contracts/breedings/Breeding.sol\":5325:5332  uint256 */\n      0x00\n        /* \"contracts/breedings/Breeding.sol\":5362:5365  min */\n      dup4\n        /* \"contracts/breedings/Breeding.sol\":5348:5358  generation */\n      dup6\n        /* \"contracts/breedings/Breeding.sol\":5348:5365  generation <= min */\n      gt\n        /* \"contracts/breedings/Breeding.sol\":5344:5400  if (generation <= min) {... */\n      tag_206\n      jumpi\n      pop\n        /* \"contracts/breedings/Breeding.sol\":5388:5389  0 */\n      0x00\n        /* \"contracts/breedings/Breeding.sol\":5381:5389  return 0 */\n      jump(tag_205)\n        /* \"contracts/breedings/Breeding.sol\":5344:5400  if (generation <= min) {... */\n    tag_206:\n        /* \"contracts/breedings/Breeding.sol\":5446:5449  max */\n      dup3\n        /* \"contracts/breedings/Breeding.sol\":5438:5442  mult */\n      dup3\n        /* \"contracts/breedings/Breeding.sol\":5418:5434  generation - min */\n      tag_207\n        /* \"contracts/breedings/Breeding.sol\":5431:5434  min */\n      dup7\n        /* \"contracts/breedings/Breeding.sol\":5418:5428  generation */\n      dup9\n        /* \"contracts/breedings/Breeding.sol\":5418:5434  generation - min */\n      tag_208\n      jump\t// in\n    tag_207:\n        /* \"contracts/breedings/Breeding.sol\":5417:5442  (generation - min) * mult */\n      tag_209\n      swap2\n      swap1\n      tag_136\n      jump\t// in\n    tag_209:\n        /* \"contracts/breedings/Breeding.sol\":5416:5449  ((generation - min) * mult) / max */\n      tag_210\n      swap2\n      swap1\n      tag_211\n      jump\t// in\n    tag_210:\n        /* \"contracts/breedings/Breeding.sol\":5409:5449  return ((generation - min) * mult) / max */\n      swap1\n      pop\n        /* \"contracts/breedings/Breeding.sol\":5178:5456  function getArcanePercent(... */\n    tag_205:\n      swap5\n      swap4\n      pop\n      pop\n      pop\n      pop\n      jump\t// out\n        /* \"contracts/breedings/Breeding.sol\":4665:5005  function random(... */\n    tag_137:\n        /* \"contracts/breedings/Breeding.sol\":4809:4822  uint256 value */\n      0x00\n        /* \"contracts/breedings/Breeding.sol\":4919:4940  maxNumber - minNumber */\n      tag_213\n        /* \"contracts/breedings/Breeding.sol\":4931:4940  minNumber */\n      dup4\n        /* \"contracts/breedings/Breeding.sol\":4919:4928  maxNumber */\n      dup4\n        /* \"contracts/breedings/Breeding.sol\":4919:4940  maxNumber - minNumber */\n      tag_208\n      jump\t// in\n    tag_213:\n        /* \"contracts/breedings/Breeding.sol\":4872:4901  abi.encodePacked(seed, index) */\n      0x40\n      dup1\n      mload\n      0x20\n      dup2\n      add\n        /* \"#utility.yul\":6911:6930   */\n      dup9\n      swap1\n      mstore\n        /* \"#utility.yul\":6946:6958   */\n      swap1\n      dup2\n      add\n        /* \"#utility.yul\":6939:6967   */\n      dup7\n      swap1\n      mstore\n        /* \"#utility.yul\":6983:6995   */\n      0x60\n      add\n        /* \"contracts/breedings/Breeding.sol\":4872:4901  abi.encodePacked(seed, index) */\n      mload(0x40)\n      0x20\n      dup2\n      dup4\n      sub\n      sub\n      dup2\n      mstore\n      swap1\n      0x40\n      mstore\n        /* \"contracts/breedings/Breeding.sol\":4862:4902  keccak256(abi.encodePacked(seed, index)) */\n      dup1\n      mload\n      swap1\n      0x20\n      add\n      keccak256\n        /* \"contracts/breedings/Breeding.sol\":4854:4903  uint256(keccak256(abi.encodePacked(seed, index))) */\n      0x00\n      shr\n        /* \"contracts/breedings/Breeding.sol\":4854:4941  uint256(keccak256(abi.encodePacked(seed, index))) %... */\n      tag_216\n      swap2\n      swap1\n      tag_217\n      jump\t// in\n    tag_216:\n        /* \"contracts/breedings/Breeding.sol\":4834:4941  value =... */\n      swap1\n      pop\n        /* \"contracts/breedings/Breeding.sol\":4959:4976  minNumber + value */\n      tag_210\n        /* \"contracts/breedings/Breeding.sol\":4834:4941  value =... */\n      dup2\n        /* \"contracts/breedings/Breeding.sol\":4959:4968  minNumber */\n      dup5\n        /* \"contracts/breedings/Breeding.sol\":4959:4976  minNumber + value */\n      tag_144\n      jump\t// in\n        /* \"#utility.yul\":14:194   */\n    tag_24:\n        /* \"#utility.yul\":73:79   */\n      0x00\n        /* \"#utility.yul\":126:128   */\n      0x20\n        /* \"#utility.yul\":114:123   */\n      dup3\n        /* \"#utility.yul\":105:112   */\n      dup5\n        /* \"#utility.yul\":101:124   */\n      sub\n        /* \"#utility.yul\":97:129   */\n      slt\n        /* \"#utility.yul\":94:146   */\n      iszero\n      tag_224\n      jumpi\n        /* \"#utility.yul\":142:143   */\n      0x00\n        /* \"#utility.yul\":139:140   */\n      dup1\n        /* \"#utility.yul\":132:144   */\n      revert\n        /* \"#utility.yul\":94:146   */\n    tag_224:\n      pop\n        /* \"#utility.yul\":165:188   */\n      calldataload\n      swap2\n        /* \"#utility.yul\":14:194   */\n      swap1\n      pop\n      jump\t// out\n        /* \"#utility.yul\":589:837   */\n    tag_65:\n        /* \"#utility.yul\":657:663   */\n      0x00\n        /* \"#utility.yul\":665:671   */\n      dup1\n        /* \"#utility.yul\":718:720   */\n      0x40\n        /* \"#utility.yul\":706:715   */\n      dup4\n        /* \"#utility.yul\":697:704   */\n      dup6\n        /* \"#utility.yul\":693:716   */\n      sub\n        /* \"#utility.yul\":689:721   */\n      slt\n        /* \"#utility.yul\":686:738   */\n      iszero\n      tag_228\n      jumpi\n        /* \"#utility.yul\":734:735   */\n      0x00\n        /* \"#utility.yul\":731:732   */\n      dup1\n        /* \"#utility.yul\":724:736   */\n      revert\n        /* \"#utility.yul\":686:738   */\n    tag_228:\n      pop\n      pop\n        /* \"#utility.yul\":757:780   */\n      dup1\n      calldataload\n      swap3\n        /* \"#utility.yul\":827:829   */\n      0x20\n        /* \"#utility.yul\":812:830   */\n      swap1\n      swap2\n      add\n        /* \"#utility.yul\":799:831   */\n      calldataload\n      swap2\n      pop\n        /* \"#utility.yul\":589:837   */\n      jump\t// out\n        /* \"#utility.yul\":842:1128   */\n    tag_73:\n        /* \"#utility.yul\":901:907   */\n      0x00\n        /* \"#utility.yul\":954:956   */\n      0x20\n        /* \"#utility.yul\":942:951   */\n      dup3\n        /* \"#utility.yul\":933:940   */\n      dup5\n        /* \"#utility.yul\":929:952   */\n      sub\n        /* \"#utility.yul\":925:957   */\n      slt\n        /* \"#utility.yul\":922:974   */\n      iszero\n      tag_230\n      jumpi\n        /* \"#utility.yul\":970:971   */\n      0x00\n        /* \"#utility.yul\":967:968   */\n      dup1\n        /* \"#utility.yul\":960:972   */\n      revert\n        /* \"#utility.yul\":922:974   */\n    tag_230:\n        /* \"#utility.yul\":996:1019   */\n      dup2\n      calldataload\n      sub(shl(0xa0, 0x01), 0x01)\n        /* \"#utility.yul\":1048:1079   */\n      dup2\n      and\n        /* \"#utility.yul\":1038:1080   */\n      dup2\n      eq\n        /* \"#utility.yul\":1028:1098   */\n      tag_231\n      jumpi\n        /* \"#utility.yul\":1094:1095   */\n      0x00\n        /* \"#utility.yul\":1091:1092   */\n      dup1\n        /* \"#utility.yul\":1084:1096   */\n      revert\n        /* \"#utility.yul\":1028:1098   */\n    tag_231:\n        /* \"#utility.yul\":1117:1122   */\n      swap4\n        /* \"#utility.yul\":842:1128   */\n      swap3\n      pop\n      pop\n      pop\n      jump\t// out\n        /* \"#utility.yul\":1998:2125   */\n    tag_220:\n        /* \"#utility.yul\":2059:2069   */\n      0x4e487b71\n        /* \"#utility.yul\":2054:2057   */\n      0xe0\n        /* \"#utility.yul\":2050:2070   */\n      shl\n        /* \"#utility.yul\":2047:2048   */\n      0x00\n        /* \"#utility.yul\":2040:2071   */\n      mstore\n        /* \"#utility.yul\":2090:2094   */\n      0x11\n        /* \"#utility.yul\":2087:2088   */\n      0x04\n        /* \"#utility.yul\":2080:2095   */\n      mstore\n        /* \"#utility.yul\":2114:2118   */\n      0x24\n        /* \"#utility.yul\":2111:2112   */\n      0x00\n        /* \"#utility.yul\":2104:2119   */\n      revert\n        /* \"#utility.yul\":2130:2265   */\n    tag_112:\n        /* \"#utility.yul\":2169:2172   */\n      0x00\n        /* \"#utility.yul\":2190:2207   */\n      0x01\n      dup3\n      add\n        /* \"#utility.yul\":2187:2230   */\n      tag_237\n      jumpi\n        /* \"#utility.yul\":2210:2228   */\n      tag_237\n      tag_220\n      jump\t// in\n    tag_237:\n      pop\n        /* \"#utility.yul\":2257:2258   */\n      0x01\n        /* \"#utility.yul\":2246:2259   */\n      add\n      swap1\n        /* \"#utility.yul\":2130:2265   */\n      jump\t// out\n        /* \"#utility.yul\":2460:2740   */\n    tag_118:\n        /* \"#utility.yul\":2529:2535   */\n      0x00\n        /* \"#utility.yul\":2582:2584   */\n      0x20\n        /* \"#utility.yul\":2570:2579   */\n      dup3\n        /* \"#utility.yul\":2561:2568   */\n      dup5\n        /* \"#utility.yul\":2557:2580   */\n      sub\n        /* \"#utility.yul\":2553:2585   */\n      slt\n        /* \"#utility.yul\":2550:2602   */\n      iszero\n      tag_240\n      jumpi\n        /* \"#utility.yul\":2598:2599   */\n      0x00\n        /* \"#utility.yul\":2595:2596   */\n      dup1\n        /* \"#utility.yul\":2588:2600   */\n      revert\n        /* \"#utility.yul\":2550:2602   */\n    tag_240:\n        /* \"#utility.yul\":2630:2639   */\n      dup2\n        /* \"#utility.yul\":2624:2640   */\n      mload\n        /* \"#utility.yul\":2680:2690   */\n      0xffffffff\n        /* \"#utility.yul\":2673:2678   */\n      dup2\n        /* \"#utility.yul\":2669:2691   */\n      and\n        /* \"#utility.yul\":2662:2667   */\n      dup2\n        /* \"#utility.yul\":2659:2692   */\n      eq\n        /* \"#utility.yul\":2649:2710   */\n      tag_231\n      jumpi\n        /* \"#utility.yul\":2706:2707   */\n      0x00\n        /* \"#utility.yul\":2703:2704   */\n      dup1\n        /* \"#utility.yul\":2696:2708   */\n      revert\n        /* \"#utility.yul\":2745:2917   */\n    tag_124:\n        /* \"#utility.yul\":2812:2822   */\n      0xffffffff\n        /* \"#utility.yul\":2842:2852   */\n      dup2\n      dup2\n      and\n        /* \"#utility.yul\":2854:2864   */\n      dup4\n      dup3\n      and\n        /* \"#utility.yul\":2838:2865   */\n      add\n      swap1\n        /* \"#utility.yul\":2877:2888   */\n      dup1\n      dup3\n      gt\n        /* \"#utility.yul\":2874:2911   */\n      iszero\n      tag_244\n      jumpi\n        /* \"#utility.yul\":2891:2909   */\n      tag_244\n      tag_220\n      jump\t// in\n    tag_244:\n        /* \"#utility.yul\":2874:2911   */\n      pop\n        /* \"#utility.yul\":2745:2917   */\n      swap3\n      swap2\n      pop\n      pop\n      jump\t// out\n        /* \"#utility.yul\":2922:3049   */\n    tag_221:\n        /* \"#utility.yul\":2983:2993   */\n      0x4e487b71\n        /* \"#utility.yul\":2978:2981   */\n      0xe0\n        /* \"#utility.yul\":2974:2994   */\n      shl\n        /* \"#utility.yul\":2971:2972   */\n      0x00\n        /* \"#utility.yul\":2964:2995   */\n      mstore\n        /* \"#utility.yul\":3014:3018   */\n      0x12\n        /* \"#utility.yul\":3011:3012   */\n      0x04\n        /* \"#utility.yul\":3004:3019   */\n      mstore\n        /* \"#utility.yul\":3038:3042   */\n      0x24\n        /* \"#utility.yul\":3035:3036   */\n      0x00\n        /* \"#utility.yul\":3028:3043   */\n      revert\n        /* \"#utility.yul\":3054:3245   */\n    tag_126:\n        /* \"#utility.yul\":3093:3094   */\n      0x00\n        /* \"#utility.yul\":3119:3129   */\n      0xffffffff\n        /* \"#utility.yul\":3156:3158   */\n      dup1\n        /* \"#utility.yul\":3153:3154   */\n      dup5\n        /* \"#utility.yul\":3149:3159   */\n      and\n        /* \"#utility.yul\":3178:3181   */\n      dup1\n        /* \"#utility.yul\":3168:3205   */\n      tag_248\n      jumpi\n        /* \"#utility.yul\":3185:3203   */\n      tag_248\n      tag_221\n      jump\t// in\n    tag_248:\n        /* \"#utility.yul\":3223:3233   */\n      swap3\n      and\n        /* \"#utility.yul\":3219:3239   */\n      swap2\n      swap1\n      swap2\n      div\n      swap3\n        /* \"#utility.yul\":3054:3245   */\n      swap2\n      pop\n      pop\n      jump\t// out\n        /* \"#utility.yul\":3250:3418   */\n    tag_136:\n        /* \"#utility.yul\":3323:3332   */\n      dup1\n      dup3\n      mul\n        /* \"#utility.yul\":3354:3363   */\n      dup2\n      iszero\n        /* \"#utility.yul\":3371:3386   */\n      dup3\n      dup3\n      div\n        /* \"#utility.yul\":3365:3387   */\n      dup5\n      eq\n        /* \"#utility.yul\":3351:3388   */\n      or\n        /* \"#utility.yul\":3341:3412   */\n      tag_105\n      jumpi\n        /* \"#utility.yul\":3392:3410   */\n      tag_105\n      tag_220\n      jump\t// in\n        /* \"#utility.yul\":3423:3548   */\n    tag_144:\n        /* \"#utility.yul\":3488:3497   */\n      dup1\n      dup3\n      add\n        /* \"#utility.yul\":3509:3519   */\n      dup1\n      dup3\n      gt\n        /* \"#utility.yul\":3506:3542   */\n      iszero\n      tag_105\n      jumpi\n        /* \"#utility.yul\":3522:3540   */\n      tag_105\n      tag_220\n      jump\t// in\n        /* \"#utility.yul\":3821:4094   */\n    tag_154:\n        /* \"#utility.yul\":3889:3895   */\n      0x00\n        /* \"#utility.yul\":3942:3944   */\n      0x20\n        /* \"#utility.yul\":3930:3939   */\n      dup3\n        /* \"#utility.yul\":3921:3928   */\n      dup5\n        /* \"#utility.yul\":3917:3940   */\n      sub\n        /* \"#utility.yul\":3913:3945   */\n      slt\n        /* \"#utility.yul\":3910:3962   */\n      iszero\n      tag_257\n      jumpi\n        /* \"#utility.yul\":3958:3959   */\n      0x00\n        /* \"#utility.yul\":3955:3956   */\n      dup1\n        /* \"#utility.yul\":3948:3960   */\n      revert\n        /* \"#utility.yul\":3910:3962   */\n    tag_257:\n        /* \"#utility.yul\":3990:3999   */\n      dup2\n        /* \"#utility.yul\":3984:4000   */\n      mload\n        /* \"#utility.yul\":4040:4044   */\n      0xff\n        /* \"#utility.yul\":4033:4038   */\n      dup2\n        /* \"#utility.yul\":4029:4045   */\n      and\n        /* \"#utility.yul\":4022:4027   */\n      dup2\n        /* \"#utility.yul\":4019:4046   */\n      eq\n        /* \"#utility.yul\":4009:4064   */\n      tag_231\n      jumpi\n        /* \"#utility.yul\":4060:4061   */\n      0x00\n        /* \"#utility.yul\":4057:4058   */\n      dup1\n        /* \"#utility.yul\":4050:4062   */\n      revert\n        /* \"#utility.yul\":4447:4631   */\n    tag_165:\n        /* \"#utility.yul\":4517:4523   */\n      0x00\n        /* \"#utility.yul\":4570:4572   */\n      0x20\n        /* \"#utility.yul\":4558:4567   */\n      dup3\n        /* \"#utility.yul\":4549:4556   */\n      dup5\n        /* \"#utility.yul\":4545:4568   */\n      sub\n        /* \"#utility.yul\":4541:4573   */\n      slt\n        /* \"#utility.yul\":4538:4590   */\n      iszero\n      tag_261\n      jumpi\n        /* \"#utility.yul\":4586:4587   */\n      0x00\n        /* \"#utility.yul\":4583:4584   */\n      dup1\n        /* \"#utility.yul\":4576:4588   */\n      revert\n        /* \"#utility.yul\":4538:4590   */\n    tag_261:\n      pop\n        /* \"#utility.yul\":4609:4625   */\n      mload\n      swap2\n        /* \"#utility.yul\":4447:4631   */\n      swap1\n      pop\n      jump\t// out\n        /* \"#utility.yul\":4994:5169   */\n    tag_178:\n        /* \"#utility.yul\":5031:5034   */\n      0x00\n        /* \"#utility.yul\":5075:5079   */\n      0xff\n        /* \"#utility.yul\":5068:5073   */\n      dup3\n        /* \"#utility.yul\":5064:5080   */\n      and\n        /* \"#utility.yul\":5104:5108   */\n      0xff\n        /* \"#utility.yul\":5095:5102   */\n      dup2\n        /* \"#utility.yul\":5092:5109   */\n      sub\n        /* \"#utility.yul\":5089:5132   */\n      tag_265\n      jumpi\n        /* \"#utility.yul\":5112:5130   */\n      tag_265\n      tag_220\n      jump\t// in\n    tag_265:\n        /* \"#utility.yul\":5161:5162   */\n      0x01\n        /* \"#utility.yul\":5148:5163   */\n      add\n      swap3\n        /* \"#utility.yul\":4994:5169   */\n      swap2\n      pop\n      pop\n      jump\t// out\n        /* \"#utility.yul\":6496:6624   */\n    tag_208:\n        /* \"#utility.yul\":6563:6572   */\n      dup2\n      dup2\n      sub\n        /* \"#utility.yul\":6584:6595   */\n      dup2\n      dup2\n      gt\n        /* \"#utility.yul\":6581:6618   */\n      iszero\n      tag_105\n      jumpi\n        /* \"#utility.yul\":6598:6616   */\n      tag_105\n      tag_220\n      jump\t// in\n        /* \"#utility.yul\":6629:6749   */\n    tag_211:\n        /* \"#utility.yul\":6669:6670   */\n      0x00\n        /* \"#utility.yul\":6695:6696   */\n      dup3\n        /* \"#utility.yul\":6685:6720   */\n      tag_275\n      jumpi\n        /* \"#utility.yul\":6700:6718   */\n      tag_275\n      tag_221\n      jump\t// in\n    tag_275:\n      pop\n        /* \"#utility.yul\":6734:6743   */\n      div\n      swap1\n        /* \"#utility.yul\":6629:6749   */\n      jump\t// out\n        /* \"#utility.yul\":7006:7118   */\n    tag_217:\n        /* \"#utility.yul\":7038:7039   */\n      0x00\n        /* \"#utility.yul\":7064:7065   */\n      dup3\n        /* \"#utility.yul\":7054:7089   */\n      tag_279\n      jumpi\n        /* \"#utility.yul\":7069:7087   */\n      tag_279\n      tag_221\n      jump\t// in\n    tag_279:\n      pop\n        /* \"#utility.yul\":7103:7112   */\n      mod\n      swap1\n        /* \"#utility.yul\":7006:7118   */\n      jump\t// out\n\n    auxdata: 0xa2646970667358221220c0f304bfe4ca8b5a7559f1d213c19c1238c65ededfd4c033b4d8cc1d60bbe89864736f6c63430008120033\n}\n",
				"bytecode": {
					"linkReferences": {
						"contracts/common/GenesUtil.sol": {
							"GenesUtil": [
								{
									"length": 20,
									"start": 968
								},
								{
									"length": 20,
									"start": 1084
								},
								{
									"length": 20,
									"start": 1459
								},
								{
									"length": 20,
									"start": 1591
								},
								{
									"length": 20,
									"start": 1727
								},
								{
									"length": 20,
									"start": 1862
								},
								{
									"length": 20,
									"start": 1960
								},
								{
									"length": 20,
									"start": 2172
								},
								{
									"length": 20,
									"start": 2298
								}
							]
						}
					},
					"object": "60806040526001805560056002556001600355601e6004556001600555602460065534801561002d57600080fd5b506100373361003c565b61008c565b600080546001600160a01b038381166001600160a01b0319831681178455604051919092169283917f8be0079c531659141344cd1fd0a4f28419497f9722a3daafe3b4186f6b6457e09190a35050565b610c8c8061009b6000396000f3fe608060405234801561001057600080fd5b50600436106101005760003560e01c80638da5cb5b11610097578063e2e3a0db11610066578063e2e3a0db146101c0578063e4a13fb7146101d3578063eb4b0e51146101e6578063f2fde38b146101ee57600080fd5b80638da5cb5b1461018257806391b667251461019d578063d477a712146101b0578063e238b8c6146101b857600080fd5b806332099cc4116100d357806332099cc414610153578063615ebe281461016a578063715018a614610172578063878cf3a61461017a57600080fd5b806302aff37814610105578063054fee6a1461011a57806316bd86461461012d5780631bb39f8414610140575b600080fd5b610118610113366004610a79565b610201565b005b610118610128366004610a79565b61020e565b61011861013b366004610a79565b61021b565b61011861014e366004610a79565b610228565b6003545b6040519081526020015b60405180910390f35b600454610157565b610118610235565b600154610157565b6000546040516001600160a01b039091168152602001610161565b6101186101ab366004610a79565b610249565b600654610157565b600254610157565b6101186101ce366004610a79565b610256565b6101576101e1366004610a92565b610263565b600554610157565b6101186101fc366004610ab4565b6108cb565b610209610944565b600155565b610216610944565b600255565b610223610944565b600655565b610230610944565b600455565b61023d610944565b610247600061099e565b565b610251610944565b600355565b61025e610944565b600555565b600154604080514260208083019190915243828401524460608301526080820186905260a0820185905260c0808301949094528251808303909401845260e090910190915281519101206000908082036102fc5760405162461bcd60e51b8152602060048201526015602482015274072616e646f6d536565642063616e2774206265203605c1b60448201526064015b60405180910390fd5b6001805490600061030c83610afa565b90915550506040516356e3df9760e01b81526004810184905260009060029073__$bc34c519aa7d1b67b54ee96cd6fbdfb8db$__906356e3df9790602401602060405180830381865af4158015610367573d6000803e3d6000fd5b505050506040513d601f19601f8201168201806040525081019061038b9190610b13565b6040516356e3df9760e01b81526004810188905273__$bc34c519aa7d1b67b54ee96cd6fbdfb8db$__906356e3df9790602401602060405180830381865af41580156103db573d6000803e3d6000fd5b505050506040513d601f19601f820116820180604052508101906103ff9190610b13565b6104099190610b39565b6104139190610b73565b61041e906001610b39565b90506009600080805b8360ff168160ff1610156107be57600061044e8663ffffffff1660035460045460646109ee565b9050600061047b600154868061046390610afa565b9750600060045460646104769190610b96565b610a2a565b600180549184101592509061049f908761049481610afa565b985060006064610a2a565b600254106104d6576104cc60015487806104b890610afa565b985060055460065460016104769190610bad565b60ff1690506105fd565b60326104f460015488806104e990610afa565b995060006064610a2a565b1061057d57604051635d2029f160e01b8152600481018c905260ff8516602482015273__$bc34c519aa7d1b67b54ee96cd6fbdfb8db$__90635d2029f190604401602060405180830381865af4158015610552573d6000803e3d6000fd5b505050506040513d601f19601f820116820180604052508101906105769190610bc0565b90506105fd565b604051635d2029f160e01b8152600481018d905260ff8516602482015273__$bc34c519aa7d1b67b54ee96cd6fbdfb8db$__90635d2029f190604401602060405180830381865af41580156105d6573d6000803e3d6000fd5b505050506040513d601f19601f820116820180604052508101906105fa9190610bc0565b90505b6040516334a51d0f60e01b81526004810186905260ff80861660248301528216604482015273__$bc34c519aa7d1b67b54ee96cd6fbdfb8db$__906334a51d0f90606401602060405180830381865af415801561065e573d6000803e3d6000fd5b505050506040513d601f19601f820116820180604052508101906106829190610be3565b60405163e1b30ab760e01b81526004810182905260ff861660248201526001604482015290955073__$bc34c519aa7d1b67b54ee96cd6fbdfb8db$__9063e1b30ab790606401602060405180830381865af41580156106e5573d6000803e3d6000fd5b505050506040513d601f19601f820116820180604052508101906107099190610be3565b945073__$bc34c519aa7d1b67b54ee96cd6fbdfb8db$__6355d6ed43868685610733576000610736565b60015b6040516001600160e01b031960e086901b168152600481019390935260ff9182166024840152166044820152606401602060405180830381865af4158015610782573d6000803e3d6000fd5b505050506040513d601f19601f820116820180604052508101906107a69190610be3565b945050505080806107b690610bfc565b915050610427565b50604051638de97f4f60e01b81526004810182905263ffffffff8516602482015273__$bc34c519aa7d1b67b54ee96cd6fbdfb8db$__90638de97f4f90604401602060405180830381865af415801561081b573d6000803e3d6000fd5b505050506040513d601f19601f8201168201806040525081019061083f9190610be3565b60405163b52b665960e01b8152600481018290526001602482015290915073__$bc34c519aa7d1b67b54ee96cd6fbdfb8db$__9063b52b665990604401602060405180830381865af4158015610899573d6000803e3d6000fd5b505050506040513d601f19601f820116820180604052508101906108bd9190610be3565b955050505050505b92915050565b6108d3610944565b6001600160a01b0381166109385760405162461bcd60e51b815260206004820152602660248201527f4f776e61626c653a206e6577206f776e657220697320746865207a65726f206160448201526564647265737360d01b60648201526084016102f3565b6109418161099e565b50565b6000546001600160a01b031633146102475760405162461bcd60e51b815260206004820181905260248201527f4f776e61626c653a2063616c6c6572206973206e6f7420746865206f776e657260448201526064016102f3565b600080546001600160a01b038381166001600160a01b0319831681178455604051919092169283917f8be0079c531659141344cd1fd0a4f28419497f9722a3daafe3b4186f6b6457e09190a35050565b60008385116109ff57506000610a22565b8282610a0b8688610c1b565b610a159190610b96565b610a1f9190610c2e565b90505b949350505050565b6000610a368383610c1b565b60408051602081018890529081018690526060016040516020818303038152906040528051906020012060001c610a6d9190610c42565b9050610a1f8184610bad565b600060208284031215610a8b57600080fd5b5035919050565b60008060408385031215610aa557600080fd5b50508035926020909101359150565b600060208284031215610ac657600080fd5b81356001600160a01b0381168114610add57600080fd5b9392505050565b634e487b7160e01b600052601160045260246000fd5b600060018201610b0c57610b0c610ae4565b5060010190565b600060208284031215610b2557600080fd5b815163ffffffff81168114610add57600080fd5b63ffffffff818116838216019080821115610b5657610b56610ae4565b5092915050565b634e487b7160e01b600052601260045260246000fd5b600063ffffffff80841680610b8a57610b8a610b5d565b92169190910492915050565b80820281158282048414176108c5576108c5610ae4565b808201808211156108c5576108c5610ae4565b600060208284031215610bd257600080fd5b815160ff81168114610add57600080fd5b600060208284031215610bf557600080fd5b5051919050565b600060ff821660ff8103610c1257610c12610ae4565b60010192915050565b818103818111156108c5576108c5610ae4565b600082610c3d57610c3d610b5d565b500490565b600082610c5157610c51610b5d565b50069056fea2646970667358221220c0f304bfe4ca8b5a7559f1d213c19c1238c65ededfd4c033b4d8cc1d60bbe89864736f6c63430008120033",
					"opcodes": "PUSH1 0x80 PUSH1 0x40 MSTORE PUSH1 0x1 DUP1 SSTORE PUSH1 0x5 PUSH1 0x2 SSTORE PUSH1 0x1 PUSH1 0x3 SSTORE PUSH1 0x1E PUSH1 0x4 SSTORE PUSH1 0x1 PUSH1 0x5 SSTORE PUSH1 0x24 PUSH1 0x6 SSTORE CALLVALUE DUP1 ISZERO PUSH2 0x2D JUMPI PUSH1 0x0 DUP1 REVERT JUMPDEST POP PUSH2 0x37 CALLER PUSH2 0x3C JUMP JUMPDEST PUSH2 0x8C JUMP JUMPDEST PUSH1 0x0 DUP1 SLOAD PUSH1 0x1 PUSH1 0x1 PUSH1 0xA0 SHL SUB DUP4 DUP2 AND PUSH1 0x1 PUSH1 0x1 PUSH1 0xA0 SHL SUB NOT DUP4 AND DUP2 OR DUP5 SSTORE PUSH1 0x40 MLOAD SWAP2 SWAP1 SWAP3 AND SWAP3 DUP4 SWAP2 PUSH32 0x8BE0079C531659141344CD1FD0A4F28419497F9722A3DAAFE3B4186F6B6457E0 SWAP2 SWAP1 LOG3 POP POP JUMP JUMPDEST PUSH2 0xC8C DUP1 PUSH2 0x9B PUSH1 0x0 CODECOPY PUSH1 0x0 RETURN INVALID PUSH1 0x80 PUSH1 0x40 MSTORE CALLVALUE DUP1 ISZERO PUSH2 0x10 JUMPI PUSH1 0x0 DUP1 REVERT JUMPDEST POP PUSH1 0x4 CALLDATASIZE LT PUSH2 0x100 JUMPI PUSH1 0x0 CALLDATALOAD PUSH1 0xE0 SHR DUP1 PUSH4 0x8DA5CB5B GT PUSH2 0x97 JUMPI DUP1 PUSH4 0xE2E3A0DB GT PUSH2 0x66 JUMPI DUP1 PUSH4 0xE2E3A0DB EQ PUSH2 0x1C0 JUMPI DUP1 PUSH4 0xE4A13FB7 EQ PUSH2 0x1D3 JUMPI DUP1 PUSH4 0xEB4B0E51 EQ PUSH2 0x1E6 JUMPI DUP1 PUSH4 0xF2FDE38B EQ PUSH2 0x1EE JUMPI PUSH1 0x0 DUP1 REVERT JUMPDEST DUP1 PUSH4 0x8DA5CB5B EQ PUSH2 0x182 JUMPI DUP1 PUSH4 0x91B66725 EQ PUSH2 0x19D JUMPI DUP1 PUSH4 0xD477A712 EQ PUSH2 0x1B0 JUMPI DUP1 PUSH4 0xE238B8C6 EQ PUSH2 0x1B8 JUMPI PUSH1 0x0 DUP1 REVERT JUMPDEST DUP1 PUSH4 0x32099CC4 GT PUSH2 0xD3 JUMPI DUP1 PUSH4 0x32099CC4 EQ PUSH2 0x153 JUMPI DUP1 PUSH4 0x615EBE28 EQ PUSH2 0x16A JUMPI DUP1 PUSH4 0x715018A6 EQ PUSH2 0x172 JUMPI DUP1 PUSH4 0x878CF3A6 EQ PUSH2 0x17A JUMPI PUSH1 0x0 DUP1 REVERT JUMPDEST DUP1 PUSH4 0x2AFF378 EQ PUSH2 0x105 JUMPI DUP1 PUSH4 0x54FEE6A EQ PUSH2 0x11A JUMPI DUP1 PUSH4 0x16BD8646 EQ PUSH2 0x12D JUMPI DUP1 PUSH4 0x1BB39F84 EQ PUSH2 0x140 JUMPI JUMPDEST PUSH1 0x0 DUP1 REVERT JUMPDEST PUSH2 0x118 PUSH2 0x113 CALLDATASIZE PUSH1 0x4 PUSH2 0xA79 JUMP JUMPDEST PUSH2 0x201 JUMP JUMPDEST STOP JUMPDEST PUSH2 0x118 PUSH2 0x128 CALLDATASIZE PUSH1 0x4 PUSH2 0xA79 JUMP JUMPDEST PUSH2 0x20E JUMP JUMPDEST PUSH2 0x118 PUSH2 0x13B CALLDATASIZE PUSH1 0x4 PUSH2 0xA79 JUMP JUMPDEST PUSH2 0x21B JUMP JUMPDEST PUSH2 0x118 PUSH2 0x14E CALLDATASIZE PUSH1 0x4 PUSH2 0xA79 JUMP JUMPDEST PUSH2 0x228 JUMP JUMPDEST PUSH1 0x3 SLOAD JUMPDEST PUSH1 0x40 MLOAD SWAP1 DUP2 MSTORE PUSH1 0x20 ADD JUMPDEST PUSH1 0x40 MLOAD DUP1 SWAP2 SUB SWAP1 RETURN JUMPDEST PUSH1 0x4 SLOAD PUSH2 0x157 JUMP JUMPDEST PUSH2 0x118 PUSH2 0x235 JUMP JUMPDEST PUSH1 0x1 SLOAD PUSH2 0x157 JUMP JUMPDEST PUSH1 0x0 SLOAD PUSH1 0x40 MLOAD PUSH1 0x1 PUSH1 0x1 PUSH1 0xA0 SHL SUB SWAP1 SWAP2 AND DUP2 MSTORE PUSH1 0x20 ADD PUSH2 0x161 JUMP JUMPDEST PUSH2 0x118 PUSH2 0x1AB CALLDATASIZE PUSH1 0x4 PUSH2 0xA79 JUMP JUMPDEST PUSH2 0x249 JUMP JUMPDEST PUSH1 0x6 SLOAD PUSH2 0x157 JUMP JUMPDEST PUSH1 0x2 SLOAD PUSH2 0x157 JUMP JUMPDEST PUSH2 0x118 PUSH2 0x1CE CALLDATASIZE PUSH1 0x4 PUSH2 0xA79 JUMP JUMPDEST PUSH2 0x256 JUMP JUMPDEST PUSH2 0x157 PUSH2 0x1E1 CALLDATASIZE PUSH1 0x4 PUSH2 0xA92 JUMP JUMPDEST PUSH2 0x263 JUMP JUMPDEST PUSH1 0x5 SLOAD PUSH2 0x157 JUMP JUMPDEST PUSH2 0x118 PUSH2 0x1FC CALLDATASIZE PUSH1 0x4 PUSH2 0xAB4 JUMP JUMPDEST PUSH2 0x8CB JUMP JUMPDEST PUSH2 0x209 PUSH2 0x944 JUMP JUMPDEST PUSH1 0x1 SSTORE JUMP JUMPDEST PUSH2 0x216 PUSH2 0x944 JUMP JUMPDEST PUSH1 0x2 SSTORE JUMP JUMPDEST PUSH2 0x223 PUSH2 0x944 JUMP JUMPDEST PUSH1 0x6 SSTORE JUMP JUMPDEST PUSH2 0x230 PUSH2 0x944 JUMP JUMPDEST PUSH1 0x4 SSTORE JUMP JUMPDEST PUSH2 0x23D PUSH2 0x944 JUMP JUMPDEST PUSH2 0x247 PUSH1 0x0 PUSH2 0x99E JUMP JUMPDEST JUMP JUMPDEST PUSH2 0x251 PUSH2 0x944 JUMP JUMPDEST PUSH1 0x3 SSTORE JUMP JUMPDEST PUSH2 0x25E PUSH2 0x944 JUMP JUMPDEST PUSH1 0x5 SSTORE JUMP JUMPDEST PUSH1 0x1 SLOAD PUSH1 0x40 DUP1 MLOAD TIMESTAMP PUSH1 0x20 DUP1 DUP4 ADD SWAP2 SWAP1 SWAP2 MSTORE NUMBER DUP3 DUP5 ADD MSTORE PREVRANDAO PUSH1 0x60 DUP4 ADD MSTORE PUSH1 0x80 DUP3 ADD DUP7 SWAP1 MSTORE PUSH1 0xA0 DUP3 ADD DUP6 SWAP1 MSTORE PUSH1 0xC0 DUP1 DUP4 ADD SWAP5 SWAP1 SWAP5 MSTORE DUP3 MLOAD DUP1 DUP4 SUB SWAP1 SWAP5 ADD DUP5 MSTORE PUSH1 0xE0 SWAP1 SWAP2 ADD SWAP1 SWAP2 MSTORE DUP2 MLOAD SWAP2 ADD KECCAK256 PUSH1 0x0 SWAP1 DUP1 DUP3 SUB PUSH2 0x2FC JUMPI PUSH1 0x40 MLOAD PUSH3 0x461BCD PUSH1 0xE5 SHL DUP2 MSTORE PUSH1 0x20 PUSH1 0x4 DUP3 ADD MSTORE PUSH1 0x15 PUSH1 0x24 DUP3 ADD MSTORE PUSH21 0x72616E646F6D536565642063616E2774206265203 PUSH1 0x5C SHL PUSH1 0x44 DUP3 ADD MSTORE PUSH1 0x64 ADD JUMPDEST PUSH1 0x40 MLOAD DUP1 SWAP2 SUB SWAP1 REVERT JUMPDEST PUSH1 0x1 DUP1 SLOAD SWAP1 PUSH1 0x0 PUSH2 0x30C DUP4 PUSH2 0xAFA JUMP JUMPDEST SWAP1 SWAP2 SSTORE POP POP PUSH1 0x40 MLOAD PUSH4 0x56E3DF97 PUSH1 0xE0 SHL DUP2 MSTORE PUSH1 0x4 DUP2 ADD DUP5 SWAP1 MSTORE PUSH1 0x0 SWAP1 PUSH1 0x2 SWAP1 PUSH20 0x0 SWAP1 PUSH4 0x56E3DF97 SWAP1 PUSH1 0x24 ADD PUSH1 0x20 PUSH1 0x40 MLOAD DUP1 DUP4 SUB DUP2 DUP7 GAS DELEGATECALL ISZERO DUP1 ISZERO PUSH2 0x367 JUMPI RETURNDATASIZE PUSH1 0x0 DUP1 RETURNDATACOPY RETURNDATASIZE PUSH1 0x0 REVERT JUMPDEST POP POP POP POP PUSH1 0x40 MLOAD RETURNDATASIZE PUSH1 0x1F NOT PUSH1 0x1F DUP3 ADD AND DUP3 ADD DUP1 PUSH1 0x40 MSTORE POP DUP2 ADD SWAP1 PUSH2 0x38B SWAP2 SWAP1 PUSH2 0xB13 JUMP JUMPDEST PUSH1 0x40 MLOAD PUSH4 0x56E3DF97 PUSH1 0xE0 SHL DUP2 MSTORE PUSH1 0x4 DUP2 ADD DUP9 SWAP1 MSTORE PUSH20 0x0 SWAP1 PUSH4 0x56E3DF97 SWAP1 PUSH1 0x24 ADD PUSH1 0x20 PUSH1 0x40 MLOAD DUP1 DUP4 SUB DUP2 DUP7 GAS DELEGATECALL ISZERO DUP1 ISZERO PUSH2 0x3DB JUMPI RETURNDATASIZE PUSH1 0x0 DUP1 RETURNDATACOPY RETURNDATASIZE PUSH1 0x0 REVERT JUMPDEST POP POP POP POP PUSH1 0x40 MLOAD RETURNDATASIZE PUSH1 0x1F NOT PUSH1 0x1F DUP3 ADD AND DUP3 ADD DUP1 PUSH1 0x40 MSTORE POP DUP2 ADD SWAP1 PUSH2 0x3FF SWAP2 SWAP1 PUSH2 0xB13 JUMP JUMPDEST PUSH2 0x409 SWAP2 SWAP1 PUSH2 0xB39 JUMP JUMPDEST PUSH2 0x413 SWAP2 SWAP1 PUSH2 0xB73 JUMP JUMPDEST PUSH2 0x41E SWAP1 PUSH1 0x1 PUSH2 0xB39 JUMP JUMPDEST SWAP1 POP PUSH1 0x9 PUSH1 0x0 DUP1 DUP1 JUMPDEST DUP4 PUSH1 0xFF AND DUP2 PUSH1 0xFF AND LT ISZERO PUSH2 0x7BE JUMPI PUSH1 0x0 PUSH2 0x44E DUP7 PUSH4 0xFFFFFFFF AND PUSH1 0x3 SLOAD PUSH1 0x4 SLOAD PUSH1 0x64 PUSH2 0x9EE JUMP JUMPDEST SWAP1 POP PUSH1 0x0 PUSH2 0x47B PUSH1 0x1 SLOAD DUP7 DUP1 PUSH2 0x463 SWAP1 PUSH2 0xAFA JUMP JUMPDEST SWAP8 POP PUSH1 0x0 PUSH1 0x4 SLOAD PUSH1 0x64 PUSH2 0x476 SWAP2 SWAP1 PUSH2 0xB96 JUMP JUMPDEST PUSH2 0xA2A JUMP JUMPDEST PUSH1 0x1 DUP1 SLOAD SWAP2 DUP5 LT ISZERO SWAP3 POP SWAP1 PUSH2 0x49F SWAP1 DUP8 PUSH2 0x494 DUP2 PUSH2 0xAFA JUMP JUMPDEST SWAP9 POP PUSH1 0x0 PUSH1 0x64 PUSH2 0xA2A JUMP JUMPDEST PUSH1 0x2 SLOAD LT PUSH2 0x4D6 JUMPI PUSH2 0x4CC PUSH1 0x1 SLOAD DUP8 DUP1 PUSH2 0x4B8 SWAP1 PUSH2 0xAFA JUMP JUMPDEST SWAP9 POP PUSH1 0x5 SLOAD PUSH1 0x6 SLOAD PUSH1 0x1 PUSH2 0x476 SWAP2 SWAP1 PUSH2 0xBAD JUMP JUMPDEST PUSH1 0xFF AND SWAP1 POP PUSH2 0x5FD JUMP JUMPDEST PUSH1 0x32 PUSH2 0x4F4 PUSH1 0x1 SLOAD DUP9 DUP1 PUSH2 0x4E9 SWAP1 PUSH2 0xAFA JUMP JUMPDEST SWAP10 POP PUSH1 0x0 PUSH1 0x64 PUSH2 0xA2A JUMP JUMPDEST LT PUSH2 0x57D JUMPI PUSH1 0x40 MLOAD PUSH4 0x5D2029F1 PUSH1 0xE0 SHL DUP2 MSTORE PUSH1 0x4 DUP2 ADD DUP13 SWAP1 MSTORE PUSH1 0xFF DUP6 AND PUSH1 0x24 DUP3 ADD MSTORE PUSH20 0x0 SWAP1 PUSH4 0x5D2029F1 SWAP1 PUSH1 0x44 ADD PUSH1 0x20 PUSH1 0x40 MLOAD DUP1 DUP4 SUB DUP2 DUP7 GAS DELEGATECALL ISZERO DUP1 ISZERO PUSH2 0x552 JUMPI RETURNDATASIZE PUSH1 0x0 DUP1 RETURNDATACOPY RETURNDATASIZE PUSH1 0x0 REVERT JUMPDEST POP POP POP POP PUSH1 0x40 MLOAD RETURNDATASIZE PUSH1 0x1F NOT PUSH1 0x1F DUP3 ADD AND DUP3 ADD DUP1 PUSH1 0x40 MSTORE POP DUP2 ADD SWAP1 PUSH2 0x576 SWAP2 SWAP1 PUSH2 0xBC0 JUMP JUMPDEST SWAP1 POP PUSH2 0x5FD JUMP JUMPDEST PUSH1 0x40 MLOAD PUSH4 0x5D2029F1 PUSH1 0xE0 SHL DUP2 MSTORE PUSH1 0x4 DUP2 ADD DUP14 SWAP1 MSTORE PUSH1 0xFF DUP6 AND PUSH1 0x24 DUP3 ADD MSTORE PUSH20 0x0 SWAP1 PUSH4 0x5D2029F1 SWAP1 PUSH1 0x44 ADD PUSH1 0x20 PUSH1 0x40 MLOAD DUP1 DUP4 SUB DUP2 DUP7 GAS DELEGATECALL ISZERO DUP1 ISZERO PUSH2 0x5D6 JUMPI RETURNDATASIZE PUSH1 0x0 DUP1 RETURNDATACOPY RETURNDATASIZE PUSH1 0x0 REVERT JUMPDEST POP POP POP POP PUSH1 0x40 MLOAD RETURNDATASIZE PUSH1 0x1F NOT PUSH1 0x1F DUP3 ADD AND DUP3 ADD DUP1 PUSH1 0x40 MSTORE POP DUP2 ADD SWAP1 PUSH2 0x5FA SWAP2 SWAP1 PUSH2 0xBC0 JUMP JUMPDEST SWAP1 POP JUMPDEST PUSH1 0x40 MLOAD PUSH4 0x34A51D0F PUSH1 0xE0 SHL DUP2 MSTORE PUSH1 0x4 DUP2 ADD DUP7 SWAP1 MSTORE PUSH1 0xFF DUP1 DUP7 AND PUSH1 0x24 DUP4 ADD MSTORE DUP3 AND PUSH1 0x44 DUP3 ADD MSTORE PUSH20 0x0 SWAP1 PUSH4 0x34A51D0F SWAP1 PUSH1 0x64 ADD PUSH1 0x20 PUSH1 0x40 MLOAD DUP1 DUP4 SUB DUP2 DUP7 GAS DELEGATECALL ISZERO DUP1 ISZERO PUSH2 0x65E JUMPI RETURNDATASIZE PUSH1 0x0 DUP1 RETURNDATACOPY RETURNDATASIZE PUSH1 0x0 REVERT JUMPDEST POP POP POP POP PUSH1 0x40 MLOAD RETURNDATASIZE PUSH1 0x1F NOT PUSH1 0x1F DUP3 ADD AND DUP3 ADD DUP1 PUSH1 0x40 MSTORE POP DUP2 ADD SWAP1 PUSH2 0x682 SWAP2 SWAP1 PUSH2 0xBE3 JUMP JUMPDEST PUSH1 0x40 MLOAD PUSH4 0xE1B30AB7 PUSH1 0xE0 SHL DUP2 MSTORE PUSH1 0x4 DUP2 ADD DUP3 SWAP1 MSTORE PUSH1 0xFF DUP7 AND PUSH1 0x24 DUP3 ADD MSTORE PUSH1 0x1 PUSH1 0x44 DUP3 ADD MSTORE SWAP1 SWAP6 POP PUSH20 0x0 SWAP1 PUSH4 0xE1B30AB7 SWAP1 PUSH1 0x64 ADD PUSH1 0x20 PUSH1 0x40 MLOAD DUP1 DUP4 SUB DUP2 DUP7 GAS DELEGATECALL ISZERO DUP1 ISZERO PUSH2 0x6E5 JUMPI RETURNDATASIZE PUSH1 0x0 DUP1 RETURNDATACOPY RETURNDATASIZE PUSH1 0x0 REVERT JUMPDEST POP POP POP POP PUSH1 0x40 MLOAD RETURNDATASIZE PUSH1 0x1F NOT PUSH1 0x1F DUP3 ADD AND DUP3 ADD DUP1 PUSH1 0x40 MSTORE POP DUP2 ADD SWAP1 PUSH2 0x709 SWAP2 SWAP1 PUSH2 0xBE3 JUMP JUMPDEST SWAP5 POP PUSH20 0x0 PUSH4 0x55D6ED43 DUP7 DUP7 DUP6 PUSH2 0x733 JUMPI PUSH1 0x0 PUSH2 0x736 JUMP JUMPDEST PUSH1 0x1 JUMPDEST PUSH1 0x40 MLOAD PUSH1 0x1 PUSH1 0x1 PUSH1 0xE0 SHL SUB NOT PUSH1 0xE0 DUP7 SWAP1 SHL AND DUP2 MSTORE PUSH1 0x4 DUP2 ADD SWAP4 SWAP1 SWAP4 MSTORE PUSH1 0xFF SWAP2 DUP3 AND PUSH1 0x24 DUP5 ADD MSTORE AND PUSH1 0x44 DUP3 ADD MSTORE PUSH1 0x64 ADD PUSH1 0x20 PUSH1 0x40 MLOAD DUP1 DUP4 SUB DUP2 DUP7 GAS DELEGATECALL ISZERO DUP1 ISZERO PUSH2 0x782 JUMPI RETURNDATASIZE PUSH1 0x0 DUP1 RETURNDATACOPY RETURNDATASIZE PUSH1 0x0 REVERT JUMPDEST POP POP POP POP PUSH1 0x40 MLOAD RETURNDATASIZE PUSH1 0x1F NOT PUSH1 0x1F DUP3 ADD AND DUP3 ADD DUP1 PUSH1 0x40 MSTORE POP DUP2 ADD SWAP1 PUSH2 0x7A6 SWAP2 SWAP1 PUSH2 0xBE3 JUMP JUMPDEST SWAP5 POP POP POP POP DUP1 DUP1 PUSH2 0x7B6 SWAP1 PUSH2 0xBFC JUMP JUMPDEST SWAP2 POP POP PUSH2 0x427 JUMP JUMPDEST POP PUSH1 0x40 MLOAD PUSH4 0x8DE97F4F PUSH1 0xE0 SHL DUP2 MSTORE PUSH1 0x4 DUP2 ADD DUP3 SWAP1 MSTORE PUSH4 0xFFFFFFFF DUP6 AND PUSH1 0x24 DUP3 ADD MSTORE PUSH20 0x0 SWAP1 PUSH4 0x8DE97F4F SWAP1 PUSH1 0x44 ADD PUSH1 0x20 PUSH1 0x40 MLOAD DUP1 DUP4 SUB DUP2 DUP7 GAS DELEGATECALL ISZERO DUP1 ISZERO PUSH2 0x81B JUMPI RETURNDATASIZE PUSH1 0x0 DUP1 RETURNDATACOPY RETURNDATASIZE PUSH1 0x0 REVERT JUMPDEST POP POP POP POP PUSH1 0x40 MLOAD RETURNDATASIZE PUSH1 0x1F NOT PUSH1 0x1F DUP3 ADD AND DUP3 ADD DUP1 PUSH1 0x40 MSTORE POP DUP2 ADD SWAP1 PUSH2 0x83F SWAP2 SWAP1 PUSH2 0xBE3 JUMP JUMPDEST PUSH1 0x40 MLOAD PUSH4 0xB52B6659 PUSH1 0xE0 SHL DUP2 MSTORE PUSH1 0x4 DUP2 ADD DUP3 SWAP1 MSTORE PUSH1 0x1 PUSH1 0x24 DUP3 ADD MSTORE SWAP1 SWAP2 POP PUSH20 0x0 SWAP1 PUSH4 0xB52B6659 SWAP1 PUSH1 0x44 ADD PUSH1 0x20 PUSH1 0x40 MLOAD DUP1 DUP4 SUB DUP2 DUP7 GAS DELEGATECALL ISZERO DUP1 ISZERO PUSH2 0x899 JUMPI RETURNDATASIZE PUSH1 0x0 DUP1 RETURNDATACOPY RETURNDATASIZE PUSH1 0x0 REVERT JUMPDEST POP POP POP POP PUSH1 0x40 MLOAD RETURNDATASIZE PUSH1 0x1F NOT PUSH1 0x1F DUP3 ADD AND DUP3 ADD DUP1 PUSH1 0x40 MSTORE POP DUP2 ADD SWAP1 PUSH2 0x8BD SWAP2 SWAP1 PUSH2 0xBE3 JUMP JUMPDEST SWAP6 POP POP POP POP POP POP JUMPDEST SWAP3 SWAP2 POP POP JUMP JUMPDEST PUSH2 0x8D3 PUSH2 0x944 JUMP JUMPDEST PUSH1 0x1 PUSH1 0x1 PUSH1 0xA0 SHL SUB DUP2 AND PUSH2 0x938 JUMPI PUSH1 0x40 MLOAD PUSH3 0x461BCD PUSH1 0xE5 SHL DUP2 MSTORE PUSH1 0x20 PUSH1 0x4 DUP3 ADD MSTORE PUSH1 0x26 PUSH1 0x24 DUP3 ADD MSTORE PUSH32 0x4F776E61626C653A206E6577206F776E657220697320746865207A65726F2061 PUSH1 0x44 DUP3 ADD MSTORE PUSH6 0x646472657373 PUSH1 0xD0 SHL PUSH1 0x64 DUP3 ADD MSTORE PUSH1 0x84 ADD PUSH2 0x2F3 JUMP JUMPDEST PUSH2 0x941 DUP2 PUSH2 0x99E JUMP JUMPDEST POP JUMP JUMPDEST PUSH1 0x0 SLOAD PUSH1 0x1 PUSH1 0x1 PUSH1 0xA0 SHL SUB AND CALLER EQ PUSH2 0x247 JUMPI PUSH1 0x40 MLOAD PUSH3 0x461BCD PUSH1 0xE5 SHL DUP2 MSTORE PUSH1 0x20 PUSH1 0x4 DUP3 ADD DUP2 SWAP1 MSTORE PUSH1 0x24 DUP3 ADD MSTORE PUSH32 0x4F776E61626C653A2063616C6C6572206973206E6F7420746865206F776E6572 PUSH1 0x44 DUP3 ADD MSTORE PUSH1 0x64 ADD PUSH2 0x2F3 JUMP JUMPDEST PUSH1 0x0 DUP1 SLOAD PUSH1 0x1 PUSH1 0x1 PUSH1 0xA0 SHL SUB DUP4 DUP2 AND PUSH1 0x1 PUSH1 0x1 PUSH1 0xA0 SHL SUB NOT DUP4 AND DUP2 OR DUP5 SSTORE PUSH1 0x40 MLOAD SWAP2 SWAP1 SWAP3 AND SWAP3 DUP4 SWAP2 PUSH32 0x8BE0079C531659141344CD1FD0A4F28419497F9722A3DAAFE3B4186F6B6457E0 SWAP2 SWAP1 LOG3 POP POP JUMP JUMPDEST PUSH1 0x0 DUP4 DUP6 GT PUSH2 0x9FF JUMPI POP PUSH1 0x0 PUSH2 0xA22 JUMP JUMPDEST DUP3 DUP3 PUSH2 0xA0B DUP7 DUP9 PUSH2 0xC1B JUMP JUMPDEST PUSH2 0xA15 SWAP2 SWAP1 PUSH2 0xB96 JUMP JUMPDEST PUSH2 0xA1F SWAP2 SWAP1 PUSH2 0xC2E JUMP JUMPDEST SWAP1 POP JUMPDEST SWAP5 SWAP4 POP POP POP POP JUMP JUMPDEST PUSH1 0x0 PUSH2 0xA36 DUP4 DUP4 PUSH2 0xC1B JUMP JUMPDEST PUSH1 0x40 DUP1 MLOAD PUSH1 0x20 DUP2 ADD DUP9 SWAP1 MSTORE SWAP1 DUP2 ADD DUP7 SWAP1 MSTORE PUSH1 0x60 ADD PUSH1 0x40 MLOAD PUSH1 0x20 DUP2 DUP4 SUB SUB DUP2 MSTORE SWAP1 PUSH1 0x40 MSTORE DUP1 MLOAD SWAP1 PUSH1 0x20 ADD KECCAK256 PUSH1 0x0 SHR PUSH2 0xA6D SWAP2 SWAP1 PUSH2 0xC42 JUMP JUMPDEST SWAP1 POP PUSH2 0xA1F DUP2 DUP5 PUSH2 0xBAD JUMP JUMPDEST PUSH1 0x0 PUSH1 0x20 DUP3 DUP5 SUB SLT ISZERO PUSH2 0xA8B JUMPI PUSH1 0x0 DUP1 REVERT JUMPDEST POP CALLDATALOAD SWAP2 SWAP1 POP JUMP JUMPDEST PUSH1 0x0 DUP1 PUSH1 0x40 DUP4 DUP6 SUB SLT ISZERO PUSH2 0xAA5 JUMPI PUSH1 0x0 DUP1 REVERT JUMPDEST POP POP DUP1 CALLDATALOAD SWAP3 PUSH1 0x20 SWAP1 SWAP2 ADD CALLDATALOAD SWAP2 POP JUMP JUMPDEST PUSH1 0x0 PUSH1 0x20 DUP3 DUP5 SUB SLT ISZERO PUSH2 0xAC6 JUMPI PUSH1 0x0 DUP1 REVERT JUMPDEST DUP2 CALLDATALOAD PUSH1 0x1 PUSH1 0x1 PUSH1 0xA0 SHL SUB DUP2 AND DUP2 EQ PUSH2 0xADD JUMPI PUSH1 0x0 DUP1 REVERT JUMPDEST SWAP4 SWAP3 POP POP POP JUMP JUMPDEST PUSH4 0x4E487B71 PUSH1 0xE0 SHL PUSH1 0x0 MSTORE PUSH1 0x11 PUSH1 0x4 MSTORE PUSH1 0x24 PUSH1 0x0 REVERT JUMPDEST PUSH1 0x0 PUSH1 0x1 DUP3 ADD PUSH2 0xB0C JUMPI PUSH2 0xB0C PUSH2 0xAE4 JUMP JUMPDEST POP PUSH1 0x1 ADD SWAP1 JUMP JUMPDEST PUSH1 0x0 PUSH1 0x20 DUP3 DUP5 SUB SLT ISZERO PUSH2 0xB25 JUMPI PUSH1 0x0 DUP1 REVERT JUMPDEST DUP2 MLOAD PUSH4 0xFFFFFFFF DUP2 AND DUP2 EQ PUSH2 0xADD JUMPI PUSH1 0x0 DUP1 REVERT JUMPDEST PUSH4 0xFFFFFFFF DUP2 DUP2 AND DUP4 DUP3 AND ADD SWAP1 DUP1 DUP3 GT ISZERO PUSH2 0xB56 JUMPI PUSH2 0xB56 PUSH2 0xAE4 JUMP JUMPDEST POP SWAP3 SWAP2 POP POP JUMP JUMPDEST PUSH4 0x4E487B71 PUSH1 0xE0 SHL PUSH1 0x0 MSTORE PUSH1 0x12 PUSH1 0x4 MSTORE PUSH1 0x24 PUSH1 0x0 REVERT JUMPDEST PUSH1 0x0 PUSH4 0xFFFFFFFF DUP1 DUP5 AND DUP1 PUSH2 0xB8A JUMPI PUSH2 0xB8A PUSH2 0xB5D JUMP JUMPDEST SWAP3 AND SWAP2 SWAP1 SWAP2 DIV SWAP3 SWAP2 POP POP JUMP JUMPDEST DUP1 DUP3 MUL DUP2 ISZERO DUP3 DUP3 DIV DUP5 EQ OR PUSH2 0x8C5 JUMPI PUSH2 0x8C5 PUSH2 0xAE4 JUMP JUMPDEST DUP1 DUP3 ADD DUP1 DUP3 GT ISZERO PUSH2 0x8C5 JUMPI PUSH2 0x8C5 PUSH2 0xAE4 JUMP JUMPDEST PUSH1 0x0 PUSH1 0x20 DUP3 DUP5 SUB SLT ISZERO PUSH2 0xBD2 JUMPI PUSH1 0x0 DUP1 REVERT JUMPDEST DUP2 MLOAD PUSH1 0xFF DUP2 AND DUP2 EQ PUSH2 0xADD JUMPI PUSH1 0x0 DUP1 REVERT JUMPDEST PUSH1 0x0 PUSH1 0x20 DUP3 DUP5 SUB SLT ISZERO PUSH2 0xBF5 JUMPI PUSH1 0x0 DUP1 REVERT JUMPDEST POP MLOAD SWAP2 SWAP1 POP JUMP JUMPDEST PUSH1 0x0 PUSH1 0xFF DUP3 AND PUSH1 0xFF DUP2 SUB PUSH2 0xC12 JUMPI PUSH2 0xC12 PUSH2 0xAE4 JUMP JUMPDEST PUSH1 0x1 ADD SWAP3 SWAP2 POP POP JUMP JUMPDEST DUP2 DUP2 SUB DUP2 DUP2 GT ISZERO PUSH2 0x8C5 JUMPI PUSH2 0x8C5 PUSH2 0xAE4 JUMP JUMPDEST PUSH1 0x0 DUP3 PUSH2 0xC3D JUMPI PUSH2 0xC3D PUSH2 0xB5D JUMP JUMPDEST POP DIV SWAP1 JUMP JUMPDEST PUSH1 0x0 DUP3 PUSH2 0xC51 JUMPI PUSH2 0xC51 PUSH2 0xB5D JUMP JUMPDEST POP MOD SWAP1 JUMP INVALID LOG2 PUSH5 0x6970667358 0x22 SLT KECCAK256 0xC0 RETURN DIV 0xBF 0xE4 0xCA DUP12 GAS PUSH22 0x59F1D213C19C1238C65EDEDFD4C033B4D8CC1D60BBE8 SWAP9 PUSH5 0x736F6C6343 STOP ADDMOD SLT STOP CALLER "
				},
				"gasEstimates": {
					"creation": {
						"codeDepositCost": "642400",
						"executionCost": "159153",
						"totalCost": "801553"
					},
					"external": {
						"breading(uint256,uint256)": "infinite",
						"getGlobalSeed()": "2370",
						"getMaxArcane()": "2326",
						"getMaxId()": "2348",
						"getMinArcane()": "2293",
						"getMinId()": "2347",
						"getRandomPercent()": "2370",
						"owner()": "2324",
						"renounceOwnership()": "infinite",
						"setGlobalSeed(uint256)": "24512",
						"setMaxArcane(uint256)": "24578",
						"setMaxId(uint256)": "24556",
						"setMinArcane(uint256)": "24533",
						"setMinId(uint256)": "24510",
						"setRandomPercent(uint256)": "24534",
						"transferOwnership(address)": "28386"
					},
					"internal": {
						"getArcanePercent(uint256,uint256,uint256,uint256)": "infinite",
						"random(uint256,uint256,uint256,uint256)": "infinite"
					}
				},
				"methodIdentifiers": {
					"breading(uint256,uint256)": "e4a13fb7",
					"getGlobalSeed()": "878cf3a6",
					"getMaxArcane()": "615ebe28",
					"getMaxId()": "d477a712",
					"getMinArcane()": "32099cc4",
					"getMinId()": "eb4b0e51",
					"getRandomPercent()": "e238b8c6",
					"owner()": "8da5cb5b",
					"renounceOwnership()": "715018a6",
					"setGlobalSeed(uint256)": "02aff378",
					"setMaxArcane(uint256)": "1bb39f84",
					"setMaxId(uint256)": "16bd8646",
					"setMinArcane(uint256)": "91b66725",
					"setMinId(uint256)": "e2e3a0db",
					"setRandomPercent(uint256)": "054fee6a",
					"transferOwnership(address)": "f2fde38b"
				}
			},
			"storageLayout": {
				"storage": [
					{
						"astId": 7,
						"contract": "contracts/breedings/Breeding.sol:Breading",
						"label": "_owner",
						"offset": 0,
						"slot": "0",
						"type": "t_address"
					},
					{
						"astId": 149,
						"contract": "contracts/breedings/Breeding.sol:Breading",
						"label": "_globalSeed",
						"offset": 0,
						"slot": "1",
						"type": "t_uint256"
					},
					{
						"astId": 152,
						"contract": "contracts/breedings/Breeding.sol:Breading",
						"label": "_randomPercent",
						"offset": 0,
						"slot": "2",
						"type": "t_uint256"
					},
					{
						"astId": 155,
						"contract": "contracts/breedings/Breeding.sol:Breading",
						"label": "_minArcane",
						"offset": 0,
						"slot": "3",
						"type": "t_uint256"
					},
					{
						"astId": 158,
						"contract": "contracts/breedings/Breeding.sol:Breading",
						"label": "_maxArcane",
						"offset": 0,
						"slot": "4",
						"type": "t_uint256"
					},
					{
						"astId": 161,
						"contract": "contracts/breedings/Breeding.sol:Breading",
						"label": "_minId",
						"offset": 0,
						"slot": "5",
						"type": "t_uint256"
					},
					{
						"astId": 164,
						"contract": "contracts/breedings/Breeding.sol:Breading",
						"label": "_maxId",
						"offset": 0,
						"slot": "6",
						"type": "t_uint256"
					}
				],
				"types": {
					"t_address": {
						"encoding": "inplace",
						"label": "address",
						"numberOfBytes": "20"
					},
					"t_uint256": {
						"encoding": "inplace",
						"label": "uint256",
						"numberOfBytes": "32"
					}
				}
			},
			"userdoc": {
				"kind": "user",
				"methods": {},
				"version": 1
			}
		}
	}
}