{
	"contracts/tests/TestGenes.sol": {
		"TestGenes": {
			"abi": [
				{
					"inputs": [],
					"name": "genes",
					"outputs": [
						{
							"internalType": "uint256",
							"name": "",
							"type": "uint256"
						}
					],
					"stateMutability": "view",
					"type": "function"
				},
				{
					"inputs": [],
					"name": "getCharges",
					"outputs": [
						{
							"internalType": "uint8",
							"name": "",
							"type": "uint8"
						}
					],
					"stateMutability": "view",
					"type": "function"
				},
				{
					"inputs": [],
					"name": "getGeneration",
					"outputs": [
						{
							"internalType": "uint32",
							"name": "",
							"type": "uint32"
						}
					],
					"stateMutability": "view",
					"type": "function"
				},
				{
					"inputs": [],
					"name": "getGenes",
					"outputs": [
						{
							"internalType": "uint256",
							"name": "",
							"type": "uint256"
						}
					],
					"stateMutability": "view",
					"type": "function"
				},
				{
					"inputs": [
						{
							"internalType": "uint8",
							"name": "value",
							"type": "uint8"
						}
					],
					"name": "setCharges",
					"outputs": [],
					"stateMutability": "nonpayable",
					"type": "function"
				},
				{
					"inputs": [
						{
							"internalType": "uint32",
							"name": "value",
							"type": "uint32"
						}
					],
					"name": "setGeneration",
					"outputs": [],
					"stateMutability": "nonpayable",
					"type": "function"
				},
				{
					"inputs": [
						{
							"internalType": "uint256",
							"name": "value",
							"type": "uint256"
						}
					],
					"name": "setGenes",
					"outputs": [],
					"stateMutability": "nonpayable",
					"type": "function"
				}
			],
			"devdoc": {
				"kind": "dev",
				"methods": {},
				"version": 1
			},
			"evm": {
				"assembly": "    /* \"contracts/tests/TestGenes.sol\":101:782  contract TestGenes {... */\n  mstore(0x40, 0x80)\n  callvalue\n  dup1\n  iszero\n  tag_1\n  jumpi\n  0x00\n  dup1\n  revert\ntag_1:\n  pop\n  dataSize(sub_0)\n  dup1\n  dataOffset(sub_0)\n  0x00\n  codecopy\n  0x00\n  return\nstop\n\nsub_0: assembly {\n        /* \"contracts/tests/TestGenes.sol\":101:782  contract TestGenes {... */\n      mstore(0x40, 0x80)\n      callvalue\n      dup1\n      iszero\n      tag_1\n      jumpi\n      0x00\n      dup1\n      revert\n    tag_1:\n      pop\n      jumpi(tag_2, lt(calldatasize, 0x04))\n      shr(0xe0, calldataload(0x00))\n      dup1\n      0x451b1c96\n      gt\n      tag_10\n      jumpi\n      dup1\n      0x451b1c96\n      eq\n      tag_6\n      jumpi\n      dup1\n      0x48e058c0\n      eq\n      tag_7\n      jumpi\n      dup1\n      0x5f16ec52\n      eq\n      tag_8\n      jumpi\n      dup1\n      0x694db4e3\n      eq\n      tag_9\n      jumpi\n      jump(tag_2)\n    tag_10:\n      dup1\n      0x09b15797\n      eq\n      tag_3\n      jumpi\n      dup1\n      0x26eba009\n      eq\n      tag_4\n      jumpi\n      dup1\n      0x30b15418\n      eq\n      tag_5\n      jumpi\n    tag_2:\n      0x00\n      dup1\n      revert\n        /* \"contracts/tests/TestGenes.sol\":263:342  function getGenes() public view returns (uint256) {... */\n    tag_3:\n      tag_11\n      tag_12\n      jump\t// in\n    tag_11:\n      mload(0x40)\n      tag_13\n      swap2\n      swap1\n      tag_14\n      jump\t// in\n    tag_13:\n      mload(0x40)\n      dup1\n      swap2\n      sub\n      swap1\n      return\n        /* \"contracts/tests/TestGenes.sol\":348:447  function setCharges(uint8 value) public {... */\n    tag_4:\n      tag_15\n      0x04\n      dup1\n      calldatasize\n      sub\n      dup2\n      add\n      swap1\n      tag_16\n      swap2\n      swap1\n      tag_17\n      jump\t// in\n    tag_16:\n      tag_18\n      jump\t// in\n    tag_15:\n      stop\n        /* \"contracts/tests/TestGenes.sol\":560:666  function setGeneration(uint32 value) public {... */\n    tag_5:\n      tag_19\n      0x04\n      dup1\n      calldatasize\n      sub\n      dup2\n      add\n      swap1\n      tag_20\n      swap2\n      swap1\n      tag_21\n      jump\t// in\n    tag_20:\n      tag_22\n      jump\t// in\n    tag_19:\n      stop\n        /* \"contracts/tests/TestGenes.sol\":453:554  function getCharges() public view returns (uint8) {... */\n    tag_6:\n      tag_23\n      tag_24\n      jump\t// in\n    tag_23:\n      mload(0x40)\n      tag_25\n      swap2\n      swap1\n      tag_26\n      jump\t// in\n    tag_25:\n      mload(0x40)\n      dup1\n      swap2\n      sub\n      swap1\n      return\n        /* \"contracts/tests/TestGenes.sol\":187:257  function setGenes(uint256 value) public {... */\n    tag_7:\n      tag_27\n      0x04\n      dup1\n      calldatasize\n      sub\n      dup2\n      add\n      swap1\n      tag_28\n      swap2\n      swap1\n      tag_29\n      jump\t// in\n    tag_28:\n      tag_30\n      jump\t// in\n    tag_27:\n      stop\n        /* \"contracts/tests/TestGenes.sol\":160:180  uint256 public genes */\n    tag_8:\n      tag_31\n      tag_32\n      jump\t// in\n    tag_31:\n      mload(0x40)\n      tag_33\n      swap2\n      swap1\n      tag_14\n      jump\t// in\n    tag_33:\n      mload(0x40)\n      dup1\n      swap2\n      sub\n      swap1\n      return\n        /* \"contracts/tests/TestGenes.sol\":672:780  function getGeneration() public view returns (uint32) {... */\n    tag_9:\n      tag_34\n      tag_35\n      jump\t// in\n    tag_34:\n      mload(0x40)\n      tag_36\n      swap2\n      swap1\n      tag_37\n      jump\t// in\n    tag_36:\n      mload(0x40)\n      dup1\n      swap2\n      sub\n      swap1\n      return\n        /* \"contracts/tests/TestGenes.sol\":263:342  function getGenes() public view returns (uint256) {... */\n    tag_12:\n        /* \"contracts/tests/TestGenes.sol\":304:311  uint256 */\n      0x00\n        /* \"contracts/tests/TestGenes.sol\":330:335  genes */\n      dup1\n      sload\n        /* \"contracts/tests/TestGenes.sol\":323:335  return genes */\n      swap1\n      pop\n        /* \"contracts/tests/TestGenes.sol\":263:342  function getGenes() public view returns (uint256) {... */\n      swap1\n      jump\t// out\n        /* \"contracts/tests/TestGenes.sol\":348:447  function setCharges(uint8 value) public {... */\n    tag_18:\n        /* \"contracts/tests/TestGenes.sol\":406:415  GenesUtil */\n      linkerSymbol(\"bc34c519aa7d1b67b54ee96cd6fbdfb8db30b25488a806873ff83a6f9e643b6b\")\n        /* \"contracts/tests/TestGenes.sol\":406:426  GenesUtil.setCharges */\n      0xb52b6659\n        /* \"contracts/tests/TestGenes.sol\":427:432  genes */\n      sload(0x00)\n        /* \"contracts/tests/TestGenes.sol\":434:439  value */\n      dup4\n        /* \"contracts/tests/TestGenes.sol\":406:440  GenesUtil.setCharges(genes, value) */\n      mload(0x40)\n      dup4\n      0xffffffff\n      and\n      0xe0\n      shl\n      dup2\n      mstore\n      0x04\n      add\n      tag_40\n      swap3\n      swap2\n      swap1\n      tag_41\n      jump\t// in\n    tag_40:\n      0x20\n      mload(0x40)\n      dup1\n      dup4\n      sub\n      dup2\n      dup7\n      gas\n      delegatecall\n      iszero\n      dup1\n      iszero\n      tag_43\n      jumpi\n      returndatasize\n      0x00\n      dup1\n      returndatacopy\n      revert(0x00, returndatasize)\n    tag_43:\n      pop\n      pop\n      pop\n      pop\n      mload(0x40)\n      returndatasize\n      not(0x1f)\n      0x1f\n      dup3\n      add\n      and\n      dup3\n      add\n      dup1\n      0x40\n      mstore\n      pop\n      dup2\n      add\n      swap1\n      tag_44\n      swap2\n      swap1\n      tag_45\n      jump\t// in\n    tag_44:\n        /* \"contracts/tests/TestGenes.sol\":398:403  genes */\n      0x00\n        /* \"contracts/tests/TestGenes.sol\":398:440  genes = GenesUtil.setCharges(genes, value) */\n      dup2\n      swap1\n      sstore\n      pop\n        /* \"contracts/tests/TestGenes.sol\":348:447  function setCharges(uint8 value) public {... */\n      pop\n      jump\t// out\n        /* \"contracts/tests/TestGenes.sol\":560:666  function setGeneration(uint32 value) public {... */\n    tag_22:\n        /* \"contracts/tests/TestGenes.sol\":622:631  GenesUtil */\n      linkerSymbol(\"bc34c519aa7d1b67b54ee96cd6fbdfb8db30b25488a806873ff83a6f9e643b6b\")\n        /* \"contracts/tests/TestGenes.sol\":622:645  GenesUtil.setGeneration */\n      0x8de97f4f\n        /* \"contracts/tests/TestGenes.sol\":646:651  genes */\n      sload(0x00)\n        /* \"contracts/tests/TestGenes.sol\":653:658  value */\n      dup4\n        /* \"contracts/tests/TestGenes.sol\":622:659  GenesUtil.setGeneration(genes, value) */\n      mload(0x40)\n      dup4\n      0xffffffff\n      and\n      0xe0\n      shl\n      dup2\n      mstore\n      0x04\n      add\n      tag_47\n      swap3\n      swap2\n      swap1\n      tag_48\n      jump\t// in\n    tag_47:\n      0x20\n      mload(0x40)\n      dup1\n      dup4\n      sub\n      dup2\n      dup7\n      gas\n      delegatecall\n      iszero\n      dup1\n      iszero\n      tag_50\n      jumpi\n      returndatasize\n      0x00\n      dup1\n      returndatacopy\n      revert(0x00, returndatasize)\n    tag_50:\n      pop\n      pop\n      pop\n      pop\n      mload(0x40)\n      returndatasize\n      not(0x1f)\n      0x1f\n      dup3\n      add\n      and\n      dup3\n      add\n      dup1\n      0x40\n      mstore\n      pop\n      dup2\n      add\n      swap1\n      tag_51\n      swap2\n      swap1\n      tag_45\n      jump\t// in\n    tag_51:\n        /* \"contracts/tests/TestGenes.sol\":614:619  genes */\n      0x00\n        /* \"contracts/tests/TestGenes.sol\":614:659  genes = GenesUtil.setGeneration(genes, value) */\n      dup2\n      swap1\n      sstore\n      pop\n        /* \"contracts/tests/TestGenes.sol\":560:666  function setGeneration(uint32 value) public {... */\n      pop\n      jump\t// out\n        /* \"contracts/tests/TestGenes.sol\":453:554  function getCharges() public view returns (uint8) {... */\n    tag_24:\n        /* \"contracts/tests/TestGenes.sol\":496:501  uint8 */\n      0x00\n        /* \"contracts/tests/TestGenes.sol\":520:529  GenesUtil */\n      linkerSymbol(\"bc34c519aa7d1b67b54ee96cd6fbdfb8db30b25488a806873ff83a6f9e643b6b\")\n        /* \"contracts/tests/TestGenes.sol\":520:540  GenesUtil.getCharges */\n      0x0317f435\n        /* \"contracts/tests/TestGenes.sol\":541:546  genes */\n      sload(0x00)\n        /* \"contracts/tests/TestGenes.sol\":520:547  GenesUtil.getCharges(genes) */\n      mload(0x40)\n      dup3\n      0xffffffff\n      and\n      0xe0\n      shl\n      dup2\n      mstore\n      0x04\n      add\n      tag_53\n      swap2\n      swap1\n      tag_54\n      jump\t// in\n    tag_53:\n      0x20\n      mload(0x40)\n      dup1\n      dup4\n      sub\n      dup2\n      dup7\n      gas\n      delegatecall\n      iszero\n      dup1\n      iszero\n      tag_56\n      jumpi\n      returndatasize\n      0x00\n      dup1\n      returndatacopy\n      revert(0x00, returndatasize)\n    tag_56:\n      pop\n      pop\n      pop\n      pop\n      mload(0x40)\n      returndatasize\n      not(0x1f)\n      0x1f\n      dup3\n      add\n      and\n      dup3\n      add\n      dup1\n      0x40\n      mstore\n      pop\n      dup2\n      add\n      swap1\n      tag_57\n      swap2\n      swap1\n      tag_58\n      jump\t// in\n    tag_57:\n        /* \"contracts/tests/TestGenes.sol\":513:547  return GenesUtil.getCharges(genes) */\n      swap1\n      pop\n        /* \"contracts/tests/TestGenes.sol\":453:554  function getCharges() public view returns (uint8) {... */\n      swap1\n      jump\t// out\n        /* \"contracts/tests/TestGenes.sol\":187:257  function setGenes(uint256 value) public {... */\n    tag_30:\n        /* \"contracts/tests/TestGenes.sol\":245:250  value */\n      dup1\n        /* \"contracts/tests/TestGenes.sol\":237:242  genes */\n      0x00\n        /* \"contracts/tests/TestGenes.sol\":237:250  genes = value */\n      dup2\n      swap1\n      sstore\n      pop\n        /* \"contracts/tests/TestGenes.sol\":187:257  function setGenes(uint256 value) public {... */\n      pop\n      jump\t// out\n        /* \"contracts/tests/TestGenes.sol\":160:180  uint256 public genes */\n    tag_32:\n      sload(0x00)\n      dup2\n      jump\t// out\n        /* \"contracts/tests/TestGenes.sol\":672:780  function getGeneration() public view returns (uint32) {... */\n    tag_35:\n        /* \"contracts/tests/TestGenes.sol\":718:724  uint32 */\n      0x00\n        /* \"contracts/tests/TestGenes.sol\":743:752  GenesUtil */\n      linkerSymbol(\"bc34c519aa7d1b67b54ee96cd6fbdfb8db30b25488a806873ff83a6f9e643b6b\")\n        /* \"contracts/tests/TestGenes.sol\":743:766  GenesUtil.getGeneration */\n      0x56e3df97\n        /* \"contracts/tests/TestGenes.sol\":767:772  genes */\n      sload(0x00)\n        /* \"contracts/tests/TestGenes.sol\":743:773  GenesUtil.getGeneration(genes) */\n      mload(0x40)\n      dup3\n      0xffffffff\n      and\n      0xe0\n      shl\n      dup2\n      mstore\n      0x04\n      add\n      tag_61\n      swap2\n      swap1\n      tag_54\n      jump\t// in\n    tag_61:\n      0x20\n      mload(0x40)\n      dup1\n      dup4\n      sub\n      dup2\n      dup7\n      gas\n      delegatecall\n      iszero\n      dup1\n      iszero\n      tag_63\n      jumpi\n      returndatasize\n      0x00\n      dup1\n      returndatacopy\n      revert(0x00, returndatasize)\n    tag_63:\n      pop\n      pop\n      pop\n      pop\n      mload(0x40)\n      returndatasize\n      not(0x1f)\n      0x1f\n      dup3\n      add\n      and\n      dup3\n      add\n      dup1\n      0x40\n      mstore\n      pop\n      dup2\n      add\n      swap1\n      tag_64\n      swap2\n      swap1\n      tag_65\n      jump\t// in\n    tag_64:\n        /* \"contracts/tests/TestGenes.sol\":736:773  return GenesUtil.getGeneration(genes) */\n      swap1\n      pop\n        /* \"contracts/tests/TestGenes.sol\":672:780  function getGeneration() public view returns (uint32) {... */\n      swap1\n      jump\t// out\n        /* \"#utility.yul\":7:84   */\n    tag_66:\n        /* \"#utility.yul\":44:51   */\n      0x00\n        /* \"#utility.yul\":73:78   */\n      dup2\n        /* \"#utility.yul\":62:78   */\n      swap1\n      pop\n        /* \"#utility.yul\":7:84   */\n      swap2\n      swap1\n      pop\n      jump\t// out\n        /* \"#utility.yul\":90:208   */\n    tag_67:\n        /* \"#utility.yul\":177:201   */\n      tag_90\n        /* \"#utility.yul\":195:200   */\n      dup2\n        /* \"#utility.yul\":177:201   */\n      tag_66\n      jump\t// in\n    tag_90:\n        /* \"#utility.yul\":172:175   */\n      dup3\n        /* \"#utility.yul\":165:202   */\n      mstore\n        /* \"#utility.yul\":90:208   */\n      pop\n      pop\n      jump\t// out\n        /* \"#utility.yul\":214:436   */\n    tag_14:\n        /* \"#utility.yul\":307:311   */\n      0x00\n        /* \"#utility.yul\":345:347   */\n      0x20\n        /* \"#utility.yul\":334:343   */\n      dup3\n        /* \"#utility.yul\":330:348   */\n      add\n        /* \"#utility.yul\":322:348   */\n      swap1\n      pop\n        /* \"#utility.yul\":358:429   */\n      tag_92\n        /* \"#utility.yul\":426:427   */\n      0x00\n        /* \"#utility.yul\":415:424   */\n      dup4\n        /* \"#utility.yul\":411:428   */\n      add\n        /* \"#utility.yul\":402:408   */\n      dup5\n        /* \"#utility.yul\":358:429   */\n      tag_67\n      jump\t// in\n    tag_92:\n        /* \"#utility.yul\":214:436   */\n      swap3\n      swap2\n      pop\n      pop\n      jump\t// out\n        /* \"#utility.yul\":523:640   */\n    tag_69:\n        /* \"#utility.yul\":632:633   */\n      0x00\n        /* \"#utility.yul\":629:630   */\n      dup1\n        /* \"#utility.yul\":622:634   */\n      revert\n        /* \"#utility.yul\":769:855   */\n    tag_71:\n        /* \"#utility.yul\":804:811   */\n      0x00\n        /* \"#utility.yul\":844:848   */\n      0xff\n        /* \"#utility.yul\":837:842   */\n      dup3\n        /* \"#utility.yul\":833:849   */\n      and\n        /* \"#utility.yul\":822:849   */\n      swap1\n      pop\n        /* \"#utility.yul\":769:855   */\n      swap2\n      swap1\n      pop\n      jump\t// out\n        /* \"#utility.yul\":861:979   */\n    tag_72:\n        /* \"#utility.yul\":932:954   */\n      tag_98\n        /* \"#utility.yul\":948:953   */\n      dup2\n        /* \"#utility.yul\":932:954   */\n      tag_71\n      jump\t// in\n    tag_98:\n        /* \"#utility.yul\":925:930   */\n      dup2\n        /* \"#utility.yul\":922:955   */\n      eq\n        /* \"#utility.yul\":912:973   */\n      tag_99\n      jumpi\n        /* \"#utility.yul\":969:970   */\n      0x00\n        /* \"#utility.yul\":966:967   */\n      dup1\n        /* \"#utility.yul\":959:971   */\n      revert\n        /* \"#utility.yul\":912:973   */\n    tag_99:\n        /* \"#utility.yul\":861:979   */\n      pop\n      jump\t// out\n        /* \"#utility.yul\":985:1120   */\n    tag_73:\n        /* \"#utility.yul\":1029:1034   */\n      0x00\n        /* \"#utility.yul\":1067:1073   */\n      dup2\n        /* \"#utility.yul\":1054:1074   */\n      calldataload\n        /* \"#utility.yul\":1045:1074   */\n      swap1\n      pop\n        /* \"#utility.yul\":1083:1114   */\n      tag_101\n        /* \"#utility.yul\":1108:1113   */\n      dup2\n        /* \"#utility.yul\":1083:1114   */\n      tag_72\n      jump\t// in\n    tag_101:\n        /* \"#utility.yul\":985:1120   */\n      swap3\n      swap2\n      pop\n      pop\n      jump\t// out\n        /* \"#utility.yul\":1126:1451   */\n    tag_17:\n        /* \"#utility.yul\":1183:1189   */\n      0x00\n        /* \"#utility.yul\":1232:1234   */\n      0x20\n        /* \"#utility.yul\":1220:1229   */\n      dup3\n        /* \"#utility.yul\":1211:1218   */\n      dup5\n        /* \"#utility.yul\":1207:1230   */\n      sub\n        /* \"#utility.yul\":1203:1235   */\n      slt\n        /* \"#utility.yul\":1200:1319   */\n      iszero\n      tag_103\n      jumpi\n        /* \"#utility.yul\":1238:1317   */\n      tag_104\n      tag_69\n      jump\t// in\n    tag_104:\n        /* \"#utility.yul\":1200:1319   */\n    tag_103:\n        /* \"#utility.yul\":1358:1359   */\n      0x00\n        /* \"#utility.yul\":1383:1434   */\n      tag_105\n        /* \"#utility.yul\":1426:1433   */\n      dup5\n        /* \"#utility.yul\":1417:1423   */\n      dup3\n        /* \"#utility.yul\":1406:1415   */\n      dup6\n        /* \"#utility.yul\":1402:1424   */\n      add\n        /* \"#utility.yul\":1383:1434   */\n      tag_73\n      jump\t// in\n    tag_105:\n        /* \"#utility.yul\":1373:1434   */\n      swap2\n      pop\n        /* \"#utility.yul\":1329:1444   */\n      pop\n        /* \"#utility.yul\":1126:1451   */\n      swap3\n      swap2\n      pop\n      pop\n      jump\t// out\n        /* \"#utility.yul\":1457:1550   */\n    tag_74:\n        /* \"#utility.yul\":1493:1500   */\n      0x00\n        /* \"#utility.yul\":1533:1543   */\n      0xffffffff\n        /* \"#utility.yul\":1526:1531   */\n      dup3\n        /* \"#utility.yul\":1522:1544   */\n      and\n        /* \"#utility.yul\":1511:1544   */\n      swap1\n      pop\n        /* \"#utility.yul\":1457:1550   */\n      swap2\n      swap1\n      pop\n      jump\t// out\n        /* \"#utility.yul\":1556:1676   */\n    tag_75:\n        /* \"#utility.yul\":1628:1651   */\n      tag_108\n        /* \"#utility.yul\":1645:1650   */\n      dup2\n        /* \"#utility.yul\":1628:1651   */\n      tag_74\n      jump\t// in\n    tag_108:\n        /* \"#utility.yul\":1621:1626   */\n      dup2\n        /* \"#utility.yul\":1618:1652   */\n      eq\n        /* \"#utility.yul\":1608:1670   */\n      tag_109\n      jumpi\n        /* \"#utility.yul\":1666:1667   */\n      0x00\n        /* \"#utility.yul\":1663:1664   */\n      dup1\n        /* \"#utility.yul\":1656:1668   */\n      revert\n        /* \"#utility.yul\":1608:1670   */\n    tag_109:\n        /* \"#utility.yul\":1556:1676   */\n      pop\n      jump\t// out\n        /* \"#utility.yul\":1682:1819   */\n    tag_76:\n        /* \"#utility.yul\":1727:1732   */\n      0x00\n        /* \"#utility.yul\":1765:1771   */\n      dup2\n        /* \"#utility.yul\":1752:1772   */\n      calldataload\n        /* \"#utility.yul\":1743:1772   */\n      swap1\n      pop\n        /* \"#utility.yul\":1781:1813   */\n      tag_111\n        /* \"#utility.yul\":1807:1812   */\n      dup2\n        /* \"#utility.yul\":1781:1813   */\n      tag_75\n      jump\t// in\n    tag_111:\n        /* \"#utility.yul\":1682:1819   */\n      swap3\n      swap2\n      pop\n      pop\n      jump\t// out\n        /* \"#utility.yul\":1825:2152   */\n    tag_21:\n        /* \"#utility.yul\":1883:1889   */\n      0x00\n        /* \"#utility.yul\":1932:1934   */\n      0x20\n        /* \"#utility.yul\":1920:1929   */\n      dup3\n        /* \"#utility.yul\":1911:1918   */\n      dup5\n        /* \"#utility.yul\":1907:1930   */\n      sub\n        /* \"#utility.yul\":1903:1935   */\n      slt\n        /* \"#utility.yul\":1900:2019   */\n      iszero\n      tag_113\n      jumpi\n        /* \"#utility.yul\":1938:2017   */\n      tag_114\n      tag_69\n      jump\t// in\n    tag_114:\n        /* \"#utility.yul\":1900:2019   */\n    tag_113:\n        /* \"#utility.yul\":2058:2059   */\n      0x00\n        /* \"#utility.yul\":2083:2135   */\n      tag_115\n        /* \"#utility.yul\":2127:2134   */\n      dup5\n        /* \"#utility.yul\":2118:2124   */\n      dup3\n        /* \"#utility.yul\":2107:2116   */\n      dup6\n        /* \"#utility.yul\":2103:2125   */\n      add\n        /* \"#utility.yul\":2083:2135   */\n      tag_76\n      jump\t// in\n    tag_115:\n        /* \"#utility.yul\":2073:2135   */\n      swap2\n      pop\n        /* \"#utility.yul\":2029:2145   */\n      pop\n        /* \"#utility.yul\":1825:2152   */\n      swap3\n      swap2\n      pop\n      pop\n      jump\t// out\n        /* \"#utility.yul\":2158:2270   */\n    tag_77:\n        /* \"#utility.yul\":2241:2263   */\n      tag_117\n        /* \"#utility.yul\":2257:2262   */\n      dup2\n        /* \"#utility.yul\":2241:2263   */\n      tag_71\n      jump\t// in\n    tag_117:\n        /* \"#utility.yul\":2236:2239   */\n      dup3\n        /* \"#utility.yul\":2229:2264   */\n      mstore\n        /* \"#utility.yul\":2158:2270   */\n      pop\n      pop\n      jump\t// out\n        /* \"#utility.yul\":2276:2490   */\n    tag_26:\n        /* \"#utility.yul\":2365:2369   */\n      0x00\n        /* \"#utility.yul\":2403:2405   */\n      0x20\n        /* \"#utility.yul\":2392:2401   */\n      dup3\n        /* \"#utility.yul\":2388:2406   */\n      add\n        /* \"#utility.yul\":2380:2406   */\n      swap1\n      pop\n        /* \"#utility.yul\":2416:2483   */\n      tag_119\n        /* \"#utility.yul\":2480:2481   */\n      0x00\n        /* \"#utility.yul\":2469:2478   */\n      dup4\n        /* \"#utility.yul\":2465:2482   */\n      add\n        /* \"#utility.yul\":2456:2462   */\n      dup5\n        /* \"#utility.yul\":2416:2483   */\n      tag_77\n      jump\t// in\n    tag_119:\n        /* \"#utility.yul\":2276:2490   */\n      swap3\n      swap2\n      pop\n      pop\n      jump\t// out\n        /* \"#utility.yul\":2496:2618   */\n    tag_78:\n        /* \"#utility.yul\":2569:2593   */\n      tag_121\n        /* \"#utility.yul\":2587:2592   */\n      dup2\n        /* \"#utility.yul\":2569:2593   */\n      tag_66\n      jump\t// in\n    tag_121:\n        /* \"#utility.yul\":2562:2567   */\n      dup2\n        /* \"#utility.yul\":2559:2594   */\n      eq\n        /* \"#utility.yul\":2549:2612   */\n      tag_122\n      jumpi\n        /* \"#utility.yul\":2608:2609   */\n      0x00\n        /* \"#utility.yul\":2605:2606   */\n      dup1\n        /* \"#utility.yul\":2598:2610   */\n      revert\n        /* \"#utility.yul\":2549:2612   */\n    tag_122:\n        /* \"#utility.yul\":2496:2618   */\n      pop\n      jump\t// out\n        /* \"#utility.yul\":2624:2763   */\n    tag_79:\n        /* \"#utility.yul\":2670:2675   */\n      0x00\n        /* \"#utility.yul\":2708:2714   */\n      dup2\n        /* \"#utility.yul\":2695:2715   */\n      calldataload\n        /* \"#utility.yul\":2686:2715   */\n      swap1\n      pop\n        /* \"#utility.yul\":2724:2757   */\n      tag_124\n        /* \"#utility.yul\":2751:2756   */\n      dup2\n        /* \"#utility.yul\":2724:2757   */\n      tag_78\n      jump\t// in\n    tag_124:\n        /* \"#utility.yul\":2624:2763   */\n      swap3\n      swap2\n      pop\n      pop\n      jump\t// out\n        /* \"#utility.yul\":2769:3098   */\n    tag_29:\n        /* \"#utility.yul\":2828:2834   */\n      0x00\n        /* \"#utility.yul\":2877:2879   */\n      0x20\n        /* \"#utility.yul\":2865:2874   */\n      dup3\n        /* \"#utility.yul\":2856:2863   */\n      dup5\n        /* \"#utility.yul\":2852:2875   */\n      sub\n        /* \"#utility.yul\":2848:2880   */\n      slt\n        /* \"#utility.yul\":2845:2964   */\n      iszero\n      tag_126\n      jumpi\n        /* \"#utility.yul\":2883:2962   */\n      tag_127\n      tag_69\n      jump\t// in\n    tag_127:\n        /* \"#utility.yul\":2845:2964   */\n    tag_126:\n        /* \"#utility.yul\":3003:3004   */\n      0x00\n        /* \"#utility.yul\":3028:3081   */\n      tag_128\n        /* \"#utility.yul\":3073:3080   */\n      dup5\n        /* \"#utility.yul\":3064:3070   */\n      dup3\n        /* \"#utility.yul\":3053:3062   */\n      dup6\n        /* \"#utility.yul\":3049:3071   */\n      add\n        /* \"#utility.yul\":3028:3081   */\n      tag_79\n      jump\t// in\n    tag_128:\n        /* \"#utility.yul\":3018:3081   */\n      swap2\n      pop\n        /* \"#utility.yul\":2974:3091   */\n      pop\n        /* \"#utility.yul\":2769:3098   */\n      swap3\n      swap2\n      pop\n      pop\n      jump\t// out\n        /* \"#utility.yul\":3104:3219   */\n    tag_80:\n        /* \"#utility.yul\":3189:3212   */\n      tag_130\n        /* \"#utility.yul\":3206:3211   */\n      dup2\n        /* \"#utility.yul\":3189:3212   */\n      tag_74\n      jump\t// in\n    tag_130:\n        /* \"#utility.yul\":3184:3187   */\n      dup3\n        /* \"#utility.yul\":3177:3213   */\n      mstore\n        /* \"#utility.yul\":3104:3219   */\n      pop\n      pop\n      jump\t// out\n        /* \"#utility.yul\":3225:3443   */\n    tag_37:\n        /* \"#utility.yul\":3316:3320   */\n      0x00\n        /* \"#utility.yul\":3354:3356   */\n      0x20\n        /* \"#utility.yul\":3343:3352   */\n      dup3\n        /* \"#utility.yul\":3339:3357   */\n      add\n        /* \"#utility.yul\":3331:3357   */\n      swap1\n      pop\n        /* \"#utility.yul\":3367:3436   */\n      tag_132\n        /* \"#utility.yul\":3433:3434   */\n      0x00\n        /* \"#utility.yul\":3422:3431   */\n      dup4\n        /* \"#utility.yul\":3418:3435   */\n      add\n        /* \"#utility.yul\":3409:3415   */\n      dup5\n        /* \"#utility.yul\":3367:3436   */\n      tag_80\n      jump\t// in\n    tag_132:\n        /* \"#utility.yul\":3225:3443   */\n      swap3\n      swap2\n      pop\n      pop\n      jump\t// out\n        /* \"#utility.yul\":3449:3575   */\n    tag_81:\n        /* \"#utility.yul\":3544:3568   */\n      tag_134\n        /* \"#utility.yul\":3562:3567   */\n      dup2\n        /* \"#utility.yul\":3544:3568   */\n      tag_66\n      jump\t// in\n    tag_134:\n        /* \"#utility.yul\":3539:3542   */\n      dup3\n        /* \"#utility.yul\":3532:3569   */\n      mstore\n        /* \"#utility.yul\":3449:3575   */\n      pop\n      pop\n      jump\t// out\n        /* \"#utility.yul\":3581:3701   */\n    tag_82:\n        /* \"#utility.yul\":3672:3694   */\n      tag_136\n        /* \"#utility.yul\":3688:3693   */\n      dup2\n        /* \"#utility.yul\":3672:3694   */\n      tag_71\n      jump\t// in\n    tag_136:\n        /* \"#utility.yul\":3667:3670   */\n      dup3\n        /* \"#utility.yul\":3660:3695   */\n      mstore\n        /* \"#utility.yul\":3581:3701   */\n      pop\n      pop\n      jump\t// out\n        /* \"#utility.yul\":3707:4055   */\n    tag_41:\n        /* \"#utility.yul\":3832:3836   */\n      0x00\n        /* \"#utility.yul\":3870:3872   */\n      0x40\n        /* \"#utility.yul\":3859:3868   */\n      dup3\n        /* \"#utility.yul\":3855:3873   */\n      add\n        /* \"#utility.yul\":3847:3873   */\n      swap1\n      pop\n        /* \"#utility.yul\":3883:3962   */\n      tag_138\n        /* \"#utility.yul\":3959:3960   */\n      0x00\n        /* \"#utility.yul\":3948:3957   */\n      dup4\n        /* \"#utility.yul\":3944:3961   */\n      add\n        /* \"#utility.yul\":3935:3941   */\n      dup6\n        /* \"#utility.yul\":3883:3962   */\n      tag_81\n      jump\t// in\n    tag_138:\n        /* \"#utility.yul\":3972:4048   */\n      tag_139\n        /* \"#utility.yul\":4044:4046   */\n      0x20\n        /* \"#utility.yul\":4033:4042   */\n      dup4\n        /* \"#utility.yul\":4029:4047   */\n      add\n        /* \"#utility.yul\":4020:4026   */\n      dup5\n        /* \"#utility.yul\":3972:4048   */\n      tag_82\n      jump\t// in\n    tag_139:\n        /* \"#utility.yul\":3707:4055   */\n      swap4\n      swap3\n      pop\n      pop\n      pop\n      jump\t// out\n        /* \"#utility.yul\":4061:4204   */\n    tag_83:\n        /* \"#utility.yul\":4118:4123   */\n      0x00\n        /* \"#utility.yul\":4149:4155   */\n      dup2\n        /* \"#utility.yul\":4143:4156   */\n      mload\n        /* \"#utility.yul\":4134:4156   */\n      swap1\n      pop\n        /* \"#utility.yul\":4165:4198   */\n      tag_141\n        /* \"#utility.yul\":4192:4197   */\n      dup2\n        /* \"#utility.yul\":4165:4198   */\n      tag_78\n      jump\t// in\n    tag_141:\n        /* \"#utility.yul\":4061:4204   */\n      swap3\n      swap2\n      pop\n      pop\n      jump\t// out\n        /* \"#utility.yul\":4210:4561   */\n    tag_45:\n        /* \"#utility.yul\":4280:4286   */\n      0x00\n        /* \"#utility.yul\":4329:4331   */\n      0x20\n        /* \"#utility.yul\":4317:4326   */\n      dup3\n        /* \"#utility.yul\":4308:4315   */\n      dup5\n        /* \"#utility.yul\":4304:4327   */\n      sub\n        /* \"#utility.yul\":4300:4332   */\n      slt\n        /* \"#utility.yul\":4297:4416   */\n      iszero\n      tag_143\n      jumpi\n        /* \"#utility.yul\":4335:4414   */\n      tag_144\n      tag_69\n      jump\t// in\n    tag_144:\n        /* \"#utility.yul\":4297:4416   */\n    tag_143:\n        /* \"#utility.yul\":4455:4456   */\n      0x00\n        /* \"#utility.yul\":4480:4544   */\n      tag_145\n        /* \"#utility.yul\":4536:4543   */\n      dup5\n        /* \"#utility.yul\":4527:4533   */\n      dup3\n        /* \"#utility.yul\":4516:4525   */\n      dup6\n        /* \"#utility.yul\":4512:4534   */\n      add\n        /* \"#utility.yul\":4480:4544   */\n      tag_83\n      jump\t// in\n    tag_145:\n        /* \"#utility.yul\":4470:4544   */\n      swap2\n      pop\n        /* \"#utility.yul\":4426:4554   */\n      pop\n        /* \"#utility.yul\":4210:4561   */\n      swap3\n      swap2\n      pop\n      pop\n      jump\t// out\n        /* \"#utility.yul\":4567:4690   */\n    tag_84:\n        /* \"#utility.yul\":4660:4683   */\n      tag_147\n        /* \"#utility.yul\":4677:4682   */\n      dup2\n        /* \"#utility.yul\":4660:4683   */\n      tag_74\n      jump\t// in\n    tag_147:\n        /* \"#utility.yul\":4655:4658   */\n      dup3\n        /* \"#utility.yul\":4648:4684   */\n      mstore\n        /* \"#utility.yul\":4567:4690   */\n      pop\n      pop\n      jump\t// out\n        /* \"#utility.yul\":4696:5048   */\n    tag_48:\n        /* \"#utility.yul\":4823:4827   */\n      0x00\n        /* \"#utility.yul\":4861:4863   */\n      0x40\n        /* \"#utility.yul\":4850:4859   */\n      dup3\n        /* \"#utility.yul\":4846:4864   */\n      add\n        /* \"#utility.yul\":4838:4864   */\n      swap1\n      pop\n        /* \"#utility.yul\":4874:4953   */\n      tag_149\n        /* \"#utility.yul\":4950:4951   */\n      0x00\n        /* \"#utility.yul\":4939:4948   */\n      dup4\n        /* \"#utility.yul\":4935:4952   */\n      add\n        /* \"#utility.yul\":4926:4932   */\n      dup6\n        /* \"#utility.yul\":4874:4953   */\n      tag_81\n      jump\t// in\n    tag_149:\n        /* \"#utility.yul\":4963:5041   */\n      tag_150\n        /* \"#utility.yul\":5037:5039   */\n      0x20\n        /* \"#utility.yul\":5026:5035   */\n      dup4\n        /* \"#utility.yul\":5022:5040   */\n      add\n        /* \"#utility.yul\":5013:5019   */\n      dup5\n        /* \"#utility.yul\":4963:5041   */\n      tag_84\n      jump\t// in\n    tag_150:\n        /* \"#utility.yul\":4696:5048   */\n      swap4\n      swap3\n      pop\n      pop\n      pop\n      jump\t// out\n        /* \"#utility.yul\":5054:5292   */\n    tag_54:\n        /* \"#utility.yul\":5155:5159   */\n      0x00\n        /* \"#utility.yul\":5193:5195   */\n      0x20\n        /* \"#utility.yul\":5182:5191   */\n      dup3\n        /* \"#utility.yul\":5178:5196   */\n      add\n        /* \"#utility.yul\":5170:5196   */\n      swap1\n      pop\n        /* \"#utility.yul\":5206:5285   */\n      tag_152\n        /* \"#utility.yul\":5282:5283   */\n      0x00\n        /* \"#utility.yul\":5271:5280   */\n      dup4\n        /* \"#utility.yul\":5267:5284   */\n      add\n        /* \"#utility.yul\":5258:5264   */\n      dup5\n        /* \"#utility.yul\":5206:5285   */\n      tag_81\n      jump\t// in\n    tag_152:\n        /* \"#utility.yul\":5054:5292   */\n      swap3\n      swap2\n      pop\n      pop\n      jump\t// out\n        /* \"#utility.yul\":5298:5437   */\n    tag_85:\n        /* \"#utility.yul\":5353:5358   */\n      0x00\n        /* \"#utility.yul\":5384:5390   */\n      dup2\n        /* \"#utility.yul\":5378:5391   */\n      mload\n        /* \"#utility.yul\":5369:5391   */\n      swap1\n      pop\n        /* \"#utility.yul\":5400:5431   */\n      tag_154\n        /* \"#utility.yul\":5425:5430   */\n      dup2\n        /* \"#utility.yul\":5400:5431   */\n      tag_72\n      jump\t// in\n    tag_154:\n        /* \"#utility.yul\":5298:5437   */\n      swap3\n      swap2\n      pop\n      pop\n      jump\t// out\n        /* \"#utility.yul\":5443:5790   */\n    tag_58:\n        /* \"#utility.yul\":5511:5517   */\n      0x00\n        /* \"#utility.yul\":5560:5562   */\n      0x20\n        /* \"#utility.yul\":5548:5557   */\n      dup3\n        /* \"#utility.yul\":5539:5546   */\n      dup5\n        /* \"#utility.yul\":5535:5558   */\n      sub\n        /* \"#utility.yul\":5531:5563   */\n      slt\n        /* \"#utility.yul\":5528:5647   */\n      iszero\n      tag_156\n      jumpi\n        /* \"#utility.yul\":5566:5645   */\n      tag_157\n      tag_69\n      jump\t// in\n    tag_157:\n        /* \"#utility.yul\":5528:5647   */\n    tag_156:\n        /* \"#utility.yul\":5686:5687   */\n      0x00\n        /* \"#utility.yul\":5711:5773   */\n      tag_158\n        /* \"#utility.yul\":5765:5772   */\n      dup5\n        /* \"#utility.yul\":5756:5762   */\n      dup3\n        /* \"#utility.yul\":5745:5754   */\n      dup6\n        /* \"#utility.yul\":5741:5763   */\n      add\n        /* \"#utility.yul\":5711:5773   */\n      tag_85\n      jump\t// in\n    tag_158:\n        /* \"#utility.yul\":5701:5773   */\n      swap2\n      pop\n        /* \"#utility.yul\":5657:5783   */\n      pop\n        /* \"#utility.yul\":5443:5790   */\n      swap3\n      swap2\n      pop\n      pop\n      jump\t// out\n        /* \"#utility.yul\":5796:5937   */\n    tag_86:\n        /* \"#utility.yul\":5852:5857   */\n      0x00\n        /* \"#utility.yul\":5883:5889   */\n      dup2\n        /* \"#utility.yul\":5877:5890   */\n      mload\n        /* \"#utility.yul\":5868:5890   */\n      swap1\n      pop\n        /* \"#utility.yul\":5899:5931   */\n      tag_160\n        /* \"#utility.yul\":5925:5930   */\n      dup2\n        /* \"#utility.yul\":5899:5931   */\n      tag_75\n      jump\t// in\n    tag_160:\n        /* \"#utility.yul\":5796:5937   */\n      swap3\n      swap2\n      pop\n      pop\n      jump\t// out\n        /* \"#utility.yul\":5943:6292   */\n    tag_65:\n        /* \"#utility.yul\":6012:6018   */\n      0x00\n        /* \"#utility.yul\":6061:6063   */\n      0x20\n        /* \"#utility.yul\":6049:6058   */\n      dup3\n        /* \"#utility.yul\":6040:6047   */\n      dup5\n        /* \"#utility.yul\":6036:6059   */\n      sub\n        /* \"#utility.yul\":6032:6064   */\n      slt\n        /* \"#utility.yul\":6029:6148   */\n      iszero\n      tag_162\n      jumpi\n        /* \"#utility.yul\":6067:6146   */\n      tag_163\n      tag_69\n      jump\t// in\n    tag_163:\n        /* \"#utility.yul\":6029:6148   */\n    tag_162:\n        /* \"#utility.yul\":6187:6188   */\n      0x00\n        /* \"#utility.yul\":6212:6275   */\n      tag_164\n        /* \"#utility.yul\":6267:6274   */\n      dup5\n        /* \"#utility.yul\":6258:6264   */\n      dup3\n        /* \"#utility.yul\":6247:6256   */\n      dup6\n        /* \"#utility.yul\":6243:6265   */\n      add\n        /* \"#utility.yul\":6212:6275   */\n      tag_86\n      jump\t// in\n    tag_164:\n        /* \"#utility.yul\":6202:6275   */\n      swap2\n      pop\n        /* \"#utility.yul\":6158:6285   */\n      pop\n        /* \"#utility.yul\":5943:6292   */\n      swap3\n      swap2\n      pop\n      pop\n      jump\t// out\n\n    auxdata: 0xa26469706673582212209c590a8805acebfd4659e914cdfe0546c79c42cbc827b2367dbb2ebd950d085e64736f6c63430008120033\n}\n",
				"bytecode": {
					"linkReferences": {
						"contracts/common/GenesUtil.sol": {
							"GenesUtil": [
								{
									"length": 20,
									"start": 377
								},
								{
									"length": 20,
									"start": 510
								},
								{
									"length": 20,
									"start": 645
								},
								{
									"length": 20,
									"start": 790
								}
							]
						}
					},
					"object": "608060405234801561001057600080fd5b506106be806100206000396000f3fe608060405234801561001057600080fd5b506004361061007d5760003560e01c8063451b1c961161005b578063451b1c96146100d857806348e058c0146100f65780635f16ec5214610112578063694db4e3146101305761007d565b806309b157971461008257806326eba009146100a057806330b15418146100bc575b600080fd5b61008a61014e565b604051610097919061038c565b60405180910390f35b6100ba60048036038101906100b591906103e5565b610157565b005b6100d660048036038101906100d1919061044e565b6101dc565b005b6100e0610261565b6040516100ed919061048a565b60405180910390f35b610110600480360381019061010b91906104d1565b6102e2565b005b61011a6102ec565b604051610127919061038c565b60405180910390f35b6101386102f2565b604051610145919061050d565b60405180910390f35b60008054905090565b73__$bc34c519aa7d1b67b54ee96cd6fbdfb8db$__63b52b6659600054836040518363ffffffff1660e01b8152600401610192929190610546565b602060405180830381865af41580156101af573d6000803e3d6000fd5b505050506040513d601f19601f820116820180604052508101906101d39190610584565b60008190555050565b73__$bc34c519aa7d1b67b54ee96cd6fbdfb8db$__638de97f4f600054836040518363ffffffff1660e01b81526004016102179291906105c0565b602060405180830381865af4158015610234573d6000803e3d6000fd5b505050506040513d601f19601f820116820180604052508101906102589190610584565b60008190555050565b600073__$bc34c519aa7d1b67b54ee96cd6fbdfb8db$__630317f4356000546040518263ffffffff1660e01b815260040161029c91906105e9565b602060405180830381865af41580156102b9573d6000803e3d6000fd5b505050506040513d601f19601f820116820180604052508101906102dd9190610619565b905090565b8060008190555050565b60005481565b600073__$bc34c519aa7d1b67b54ee96cd6fbdfb8db$__6356e3df976000546040518263ffffffff1660e01b815260040161032d91906105e9565b602060405180830381865af415801561034a573d6000803e3d6000fd5b505050506040513d601f19601f8201168201806040525081019061036e919061065b565b905090565b6000819050919050565b61038681610373565b82525050565b60006020820190506103a1600083018461037d565b92915050565b600080fd5b600060ff82169050919050565b6103c2816103ac565b81146103cd57600080fd5b50565b6000813590506103df816103b9565b92915050565b6000602082840312156103fb576103fa6103a7565b5b6000610409848285016103d0565b91505092915050565b600063ffffffff82169050919050565b61042b81610412565b811461043657600080fd5b50565b60008135905061044881610422565b92915050565b600060208284031215610464576104636103a7565b5b600061047284828501610439565b91505092915050565b610484816103ac565b82525050565b600060208201905061049f600083018461047b565b92915050565b6104ae81610373565b81146104b957600080fd5b50565b6000813590506104cb816104a5565b92915050565b6000602082840312156104e7576104e66103a7565b5b60006104f5848285016104bc565b91505092915050565b61050781610412565b82525050565b600060208201905061052260008301846104fe565b92915050565b61053181610373565b82525050565b610540816103ac565b82525050565b600060408201905061055b6000830185610528565b6105686020830184610537565b9392505050565b60008151905061057e816104a5565b92915050565b60006020828403121561059a576105996103a7565b5b60006105a88482850161056f565b91505092915050565b6105ba81610412565b82525050565b60006040820190506105d56000830185610528565b6105e260208301846105b1565b9392505050565b60006020820190506105fe6000830184610528565b92915050565b600081519050610613816103b9565b92915050565b60006020828403121561062f5761062e6103a7565b5b600061063d84828501610604565b91505092915050565b60008151905061065581610422565b92915050565b600060208284031215610671576106706103a7565b5b600061067f84828501610646565b9150509291505056fea26469706673582212209c590a8805acebfd4659e914cdfe0546c79c42cbc827b2367dbb2ebd950d085e64736f6c63430008120033",
					"opcodes": "PUSH1 0x80 PUSH1 0x40 MSTORE CALLVALUE DUP1 ISZERO PUSH2 0x10 JUMPI PUSH1 0x0 DUP1 REVERT JUMPDEST POP PUSH2 0x6BE DUP1 PUSH2 0x20 PUSH1 0x0 CODECOPY PUSH1 0x0 RETURN INVALID PUSH1 0x80 PUSH1 0x40 MSTORE CALLVALUE DUP1 ISZERO PUSH2 0x10 JUMPI PUSH1 0x0 DUP1 REVERT JUMPDEST POP PUSH1 0x4 CALLDATASIZE LT PUSH2 0x7D JUMPI PUSH1 0x0 CALLDATALOAD PUSH1 0xE0 SHR DUP1 PUSH4 0x451B1C96 GT PUSH2 0x5B JUMPI DUP1 PUSH4 0x451B1C96 EQ PUSH2 0xD8 JUMPI DUP1 PUSH4 0x48E058C0 EQ PUSH2 0xF6 JUMPI DUP1 PUSH4 0x5F16EC52 EQ PUSH2 0x112 JUMPI DUP1 PUSH4 0x694DB4E3 EQ PUSH2 0x130 JUMPI PUSH2 0x7D JUMP JUMPDEST DUP1 PUSH4 0x9B15797 EQ PUSH2 0x82 JUMPI DUP1 PUSH4 0x26EBA009 EQ PUSH2 0xA0 JUMPI DUP1 PUSH4 0x30B15418 EQ PUSH2 0xBC JUMPI JUMPDEST PUSH1 0x0 DUP1 REVERT JUMPDEST PUSH2 0x8A PUSH2 0x14E JUMP JUMPDEST PUSH1 0x40 MLOAD PUSH2 0x97 SWAP2 SWAP1 PUSH2 0x38C JUMP JUMPDEST PUSH1 0x40 MLOAD DUP1 SWAP2 SUB SWAP1 RETURN JUMPDEST PUSH2 0xBA PUSH1 0x4 DUP1 CALLDATASIZE SUB DUP2 ADD SWAP1 PUSH2 0xB5 SWAP2 SWAP1 PUSH2 0x3E5 JUMP JUMPDEST PUSH2 0x157 JUMP JUMPDEST STOP JUMPDEST PUSH2 0xD6 PUSH1 0x4 DUP1 CALLDATASIZE SUB DUP2 ADD SWAP1 PUSH2 0xD1 SWAP2 SWAP1 PUSH2 0x44E JUMP JUMPDEST PUSH2 0x1DC JUMP JUMPDEST STOP JUMPDEST PUSH2 0xE0 PUSH2 0x261 JUMP JUMPDEST PUSH1 0x40 MLOAD PUSH2 0xED SWAP2 SWAP1 PUSH2 0x48A JUMP JUMPDEST PUSH1 0x40 MLOAD DUP1 SWAP2 SUB SWAP1 RETURN JUMPDEST PUSH2 0x110 PUSH1 0x4 DUP1 CALLDATASIZE SUB DUP2 ADD SWAP1 PUSH2 0x10B SWAP2 SWAP1 PUSH2 0x4D1 JUMP JUMPDEST PUSH2 0x2E2 JUMP JUMPDEST STOP JUMPDEST PUSH2 0x11A PUSH2 0x2EC JUMP JUMPDEST PUSH1 0x40 MLOAD PUSH2 0x127 SWAP2 SWAP1 PUSH2 0x38C JUMP JUMPDEST PUSH1 0x40 MLOAD DUP1 SWAP2 SUB SWAP1 RETURN JUMPDEST PUSH2 0x138 PUSH2 0x2F2 JUMP JUMPDEST PUSH1 0x40 MLOAD PUSH2 0x145 SWAP2 SWAP1 PUSH2 0x50D JUMP JUMPDEST PUSH1 0x40 MLOAD DUP1 SWAP2 SUB SWAP1 RETURN JUMPDEST PUSH1 0x0 DUP1 SLOAD SWAP1 POP SWAP1 JUMP JUMPDEST PUSH20 0x0 PUSH4 0xB52B6659 PUSH1 0x0 SLOAD DUP4 PUSH1 0x40 MLOAD DUP4 PUSH4 0xFFFFFFFF AND PUSH1 0xE0 SHL DUP2 MSTORE PUSH1 0x4 ADD PUSH2 0x192 SWAP3 SWAP2 SWAP1 PUSH2 0x546 JUMP JUMPDEST PUSH1 0x20 PUSH1 0x40 MLOAD DUP1 DUP4 SUB DUP2 DUP7 GAS DELEGATECALL ISZERO DUP1 ISZERO PUSH2 0x1AF JUMPI RETURNDATASIZE PUSH1 0x0 DUP1 RETURNDATACOPY RETURNDATASIZE PUSH1 0x0 REVERT JUMPDEST POP POP POP POP PUSH1 0x40 MLOAD RETURNDATASIZE PUSH1 0x1F NOT PUSH1 0x1F DUP3 ADD AND DUP3 ADD DUP1 PUSH1 0x40 MSTORE POP DUP2 ADD SWAP1 PUSH2 0x1D3 SWAP2 SWAP1 PUSH2 0x584 JUMP JUMPDEST PUSH1 0x0 DUP2 SWAP1 SSTORE POP POP JUMP JUMPDEST PUSH20 0x0 PUSH4 0x8DE97F4F PUSH1 0x0 SLOAD DUP4 PUSH1 0x40 MLOAD DUP4 PUSH4 0xFFFFFFFF AND PUSH1 0xE0 SHL DUP2 MSTORE PUSH1 0x4 ADD PUSH2 0x217 SWAP3 SWAP2 SWAP1 PUSH2 0x5C0 JUMP JUMPDEST PUSH1 0x20 PUSH1 0x40 MLOAD DUP1 DUP4 SUB DUP2 DUP7 GAS DELEGATECALL ISZERO DUP1 ISZERO PUSH2 0x234 JUMPI RETURNDATASIZE PUSH1 0x0 DUP1 RETURNDATACOPY RETURNDATASIZE PUSH1 0x0 REVERT JUMPDEST POP POP POP POP PUSH1 0x40 MLOAD RETURNDATASIZE PUSH1 0x1F NOT PUSH1 0x1F DUP3 ADD AND DUP3 ADD DUP1 PUSH1 0x40 MSTORE POP DUP2 ADD SWAP1 PUSH2 0x258 SWAP2 SWAP1 PUSH2 0x584 JUMP JUMPDEST PUSH1 0x0 DUP2 SWAP1 SSTORE POP POP JUMP JUMPDEST PUSH1 0x0 PUSH20 0x0 PUSH4 0x317F435 PUSH1 0x0 SLOAD PUSH1 0x40 MLOAD DUP3 PUSH4 0xFFFFFFFF AND PUSH1 0xE0 SHL DUP2 MSTORE PUSH1 0x4 ADD PUSH2 0x29C SWAP2 SWAP1 PUSH2 0x5E9 JUMP JUMPDEST PUSH1 0x20 PUSH1 0x40 MLOAD DUP1 DUP4 SUB DUP2 DUP7 GAS DELEGATECALL ISZERO DUP1 ISZERO PUSH2 0x2B9 JUMPI RETURNDATASIZE PUSH1 0x0 DUP1 RETURNDATACOPY RETURNDATASIZE PUSH1 0x0 REVERT JUMPDEST POP POP POP POP PUSH1 0x40 MLOAD RETURNDATASIZE PUSH1 0x1F NOT PUSH1 0x1F DUP3 ADD AND DUP3 ADD DUP1 PUSH1 0x40 MSTORE POP DUP2 ADD SWAP1 PUSH2 0x2DD SWAP2 SWAP1 PUSH2 0x619 JUMP JUMPDEST SWAP1 POP SWAP1 JUMP JUMPDEST DUP1 PUSH1 0x0 DUP2 SWAP1 SSTORE POP POP JUMP JUMPDEST PUSH1 0x0 SLOAD DUP2 JUMP JUMPDEST PUSH1 0x0 PUSH20 0x0 PUSH4 0x56E3DF97 PUSH1 0x0 SLOAD PUSH1 0x40 MLOAD DUP3 PUSH4 0xFFFFFFFF AND PUSH1 0xE0 SHL DUP2 MSTORE PUSH1 0x4 ADD PUSH2 0x32D SWAP2 SWAP1 PUSH2 0x5E9 JUMP JUMPDEST PUSH1 0x20 PUSH1 0x40 MLOAD DUP1 DUP4 SUB DUP2 DUP7 GAS DELEGATECALL ISZERO DUP1 ISZERO PUSH2 0x34A JUMPI RETURNDATASIZE PUSH1 0x0 DUP1 RETURNDATACOPY RETURNDATASIZE PUSH1 0x0 REVERT JUMPDEST POP POP POP POP PUSH1 0x40 MLOAD RETURNDATASIZE PUSH1 0x1F NOT PUSH1 0x1F DUP3 ADD AND DUP3 ADD DUP1 PUSH1 0x40 MSTORE POP DUP2 ADD SWAP1 PUSH2 0x36E SWAP2 SWAP1 PUSH2 0x65B JUMP JUMPDEST SWAP1 POP SWAP1 JUMP JUMPDEST PUSH1 0x0 DUP2 SWAP1 POP SWAP2 SWAP1 POP JUMP JUMPDEST PUSH2 0x386 DUP2 PUSH2 0x373 JUMP JUMPDEST DUP3 MSTORE POP POP JUMP JUMPDEST PUSH1 0x0 PUSH1 0x20 DUP3 ADD SWAP1 POP PUSH2 0x3A1 PUSH1 0x0 DUP4 ADD DUP5 PUSH2 0x37D JUMP JUMPDEST SWAP3 SWAP2 POP POP JUMP JUMPDEST PUSH1 0x0 DUP1 REVERT JUMPDEST PUSH1 0x0 PUSH1 0xFF DUP3 AND SWAP1 POP SWAP2 SWAP1 POP JUMP JUMPDEST PUSH2 0x3C2 DUP2 PUSH2 0x3AC JUMP JUMPDEST DUP2 EQ PUSH2 0x3CD JUMPI PUSH1 0x0 DUP1 REVERT JUMPDEST POP JUMP JUMPDEST PUSH1 0x0 DUP2 CALLDATALOAD SWAP1 POP PUSH2 0x3DF DUP2 PUSH2 0x3B9 JUMP JUMPDEST SWAP3 SWAP2 POP POP JUMP JUMPDEST PUSH1 0x0 PUSH1 0x20 DUP3 DUP5 SUB SLT ISZERO PUSH2 0x3FB JUMPI PUSH2 0x3FA PUSH2 0x3A7 JUMP JUMPDEST JUMPDEST PUSH1 0x0 PUSH2 0x409 DUP5 DUP3 DUP6 ADD PUSH2 0x3D0 JUMP JUMPDEST SWAP2 POP POP SWAP3 SWAP2 POP POP JUMP JUMPDEST PUSH1 0x0 PUSH4 0xFFFFFFFF DUP3 AND SWAP1 POP SWAP2 SWAP1 POP JUMP JUMPDEST PUSH2 0x42B DUP2 PUSH2 0x412 JUMP JUMPDEST DUP2 EQ PUSH2 0x436 JUMPI PUSH1 0x0 DUP1 REVERT JUMPDEST POP JUMP JUMPDEST PUSH1 0x0 DUP2 CALLDATALOAD SWAP1 POP PUSH2 0x448 DUP2 PUSH2 0x422 JUMP JUMPDEST SWAP3 SWAP2 POP POP JUMP JUMPDEST PUSH1 0x0 PUSH1 0x20 DUP3 DUP5 SUB SLT ISZERO PUSH2 0x464 JUMPI PUSH2 0x463 PUSH2 0x3A7 JUMP JUMPDEST JUMPDEST PUSH1 0x0 PUSH2 0x472 DUP5 DUP3 DUP6 ADD PUSH2 0x439 JUMP JUMPDEST SWAP2 POP POP SWAP3 SWAP2 POP POP JUMP JUMPDEST PUSH2 0x484 DUP2 PUSH2 0x3AC JUMP JUMPDEST DUP3 MSTORE POP POP JUMP JUMPDEST PUSH1 0x0 PUSH1 0x20 DUP3 ADD SWAP1 POP PUSH2 0x49F PUSH1 0x0 DUP4 ADD DUP5 PUSH2 0x47B JUMP JUMPDEST SWAP3 SWAP2 POP POP JUMP JUMPDEST PUSH2 0x4AE DUP2 PUSH2 0x373 JUMP JUMPDEST DUP2 EQ PUSH2 0x4B9 JUMPI PUSH1 0x0 DUP1 REVERT JUMPDEST POP JUMP JUMPDEST PUSH1 0x0 DUP2 CALLDATALOAD SWAP1 POP PUSH2 0x4CB DUP2 PUSH2 0x4A5 JUMP JUMPDEST SWAP3 SWAP2 POP POP JUMP JUMPDEST PUSH1 0x0 PUSH1 0x20 DUP3 DUP5 SUB SLT ISZERO PUSH2 0x4E7 JUMPI PUSH2 0x4E6 PUSH2 0x3A7 JUMP JUMPDEST JUMPDEST PUSH1 0x0 PUSH2 0x4F5 DUP5 DUP3 DUP6 ADD PUSH2 0x4BC JUMP JUMPDEST SWAP2 POP POP SWAP3 SWAP2 POP POP JUMP JUMPDEST PUSH2 0x507 DUP2 PUSH2 0x412 JUMP JUMPDEST DUP3 MSTORE POP POP JUMP JUMPDEST PUSH1 0x0 PUSH1 0x20 DUP3 ADD SWAP1 POP PUSH2 0x522 PUSH1 0x0 DUP4 ADD DUP5 PUSH2 0x4FE JUMP JUMPDEST SWAP3 SWAP2 POP POP JUMP JUMPDEST PUSH2 0x531 DUP2 PUSH2 0x373 JUMP JUMPDEST DUP3 MSTORE POP POP JUMP JUMPDEST PUSH2 0x540 DUP2 PUSH2 0x3AC JUMP JUMPDEST DUP3 MSTORE POP POP JUMP JUMPDEST PUSH1 0x0 PUSH1 0x40 DUP3 ADD SWAP1 POP PUSH2 0x55B PUSH1 0x0 DUP4 ADD DUP6 PUSH2 0x528 JUMP JUMPDEST PUSH2 0x568 PUSH1 0x20 DUP4 ADD DUP5 PUSH2 0x537 JUMP JUMPDEST SWAP4 SWAP3 POP POP POP JUMP JUMPDEST PUSH1 0x0 DUP2 MLOAD SWAP1 POP PUSH2 0x57E DUP2 PUSH2 0x4A5 JUMP JUMPDEST SWAP3 SWAP2 POP POP JUMP JUMPDEST PUSH1 0x0 PUSH1 0x20 DUP3 DUP5 SUB SLT ISZERO PUSH2 0x59A JUMPI PUSH2 0x599 PUSH2 0x3A7 JUMP JUMPDEST JUMPDEST PUSH1 0x0 PUSH2 0x5A8 DUP5 DUP3 DUP6 ADD PUSH2 0x56F JUMP JUMPDEST SWAP2 POP POP SWAP3 SWAP2 POP POP JUMP JUMPDEST PUSH2 0x5BA DUP2 PUSH2 0x412 JUMP JUMPDEST DUP3 MSTORE POP POP JUMP JUMPDEST PUSH1 0x0 PUSH1 0x40 DUP3 ADD SWAP1 POP PUSH2 0x5D5 PUSH1 0x0 DUP4 ADD DUP6 PUSH2 0x528 JUMP JUMPDEST PUSH2 0x5E2 PUSH1 0x20 DUP4 ADD DUP5 PUSH2 0x5B1 JUMP JUMPDEST SWAP4 SWAP3 POP POP POP JUMP JUMPDEST PUSH1 0x0 PUSH1 0x20 DUP3 ADD SWAP1 POP PUSH2 0x5FE PUSH1 0x0 DUP4 ADD DUP5 PUSH2 0x528 JUMP JUMPDEST SWAP3 SWAP2 POP POP JUMP JUMPDEST PUSH1 0x0 DUP2 MLOAD SWAP1 POP PUSH2 0x613 DUP2 PUSH2 0x3B9 JUMP JUMPDEST SWAP3 SWAP2 POP POP JUMP JUMPDEST PUSH1 0x0 PUSH1 0x20 DUP3 DUP5 SUB SLT ISZERO PUSH2 0x62F JUMPI PUSH2 0x62E PUSH2 0x3A7 JUMP JUMPDEST JUMPDEST PUSH1 0x0 PUSH2 0x63D DUP5 DUP3 DUP6 ADD PUSH2 0x604 JUMP JUMPDEST SWAP2 POP POP SWAP3 SWAP2 POP POP JUMP JUMPDEST PUSH1 0x0 DUP2 MLOAD SWAP1 POP PUSH2 0x655 DUP2 PUSH2 0x422 JUMP JUMPDEST SWAP3 SWAP2 POP POP JUMP JUMPDEST PUSH1 0x0 PUSH1 0x20 DUP3 DUP5 SUB SLT ISZERO PUSH2 0x671 JUMPI PUSH2 0x670 PUSH2 0x3A7 JUMP JUMPDEST JUMPDEST PUSH1 0x0 PUSH2 0x67F DUP5 DUP3 DUP6 ADD PUSH2 0x646 JUMP JUMPDEST SWAP2 POP POP SWAP3 SWAP2 POP POP JUMP INVALID LOG2 PUSH5 0x6970667358 0x22 SLT KECCAK256 SWAP13 MSIZE EXP DUP9 SDIV 0xAC 0xEB REVERT CHAINID MSIZE 0xE9 EQ 0xCD INVALID SDIV CHAINID 0xC7 SWAP13 TIMESTAMP 0xCB 0xC8 0x27 0xB2 CALLDATASIZE PUSH30 0xBB2EBD950D085E64736F6C63430008120033000000000000000000000000 "
				},
				"gasEstimates": {
					"creation": {
						"codeDepositCost": "345200",
						"executionCost": "380",
						"totalCost": "345580"
					},
					"external": {
						"genes()": "2473",
						"getCharges()": "infinite",
						"getGeneration()": "infinite",
						"getGenes()": "2438",
						"setCharges(uint8)": "infinite",
						"setGeneration(uint32)": "infinite",
						"setGenes(uint256)": "22542"
					}
				},
				"methodIdentifiers": {
					"genes()": "5f16ec52",
					"getCharges()": "451b1c96",
					"getGeneration()": "694db4e3",
					"getGenes()": "09b15797",
					"setCharges(uint8)": "26eba009",
					"setGeneration(uint32)": "30b15418",
					"setGenes(uint256)": "48e058c0"
				}
			},
			"storageLayout": {
				"storage": [
					{
						"astId": 375,
						"contract": "contracts/tests/TestGenes.sol:TestGenes",
						"label": "genes",
						"offset": 0,
						"slot": "0",
						"type": "t_uint256"
					}
				],
				"types": {
					"t_uint256": {
						"encoding": "inplace",
						"label": "uint256",
						"numberOfBytes": "32"
					}
				}
			},
			"userdoc": {
				"kind": "user",
				"methods": {},
				"version": 1
			}
		}
	}
}