{
	"data": {
		"bytecode": {
			"linkReferences": {},
			"object": "61046c61003a600b82828239805160001a60731461002d57634e487b7160e01b600052600060045260246000fd5b30600052607381538281f3fe73000000000000000000000000000000000000000030146080604052600436106100a85760003560e01c80635d2029f1116100705780635d2029f11461014b5780638de97f4f1461015e578063a58586931461017d578063b52b665914610190578063e1b30ab7146101bb57600080fd5b80630317f435146100ad5780633499a7ea146100d857806334a51d0f146100eb57806355d6ed431461010c57806356e3df971461011f575b600080fd5b6100c16100bb36600461030a565b60f81c90565b60405160ff90911681526020015b60405180910390f35b6100c16100e6366004610339565b6101ce565b6100fe6100f9366004610365565b610214565b6040519081526020016100cf565b6100fe61011a366004610365565b610264565b61013661012d36600461030a565b63ffffffff1690565b60405163ffffffff90911681526020016100cf565b6100c1610159366004610339565b61028d565b6100fe61016c36600461039a565b63ffffffff16600f19919091161790565b6100c161018b366004610339565b6102b7565b6100fe61019e366004610339565b60f81b6001600160f81b0319166001600160f81b03919091161790565b6100fe6101c9366004610365565b6102e1565b60006004816101de8460036103e9565b60ff1690506101ed818361040c565b6101f890600161040c565b61020390600861041f565b85901c60ff16925050505b92915050565b600060048161022485600361041f565b90506000610232828461040c565b61023d90600061040c565b61024890600861041f565b60ff958616811b95901b19969096169390931795945050505050565b600060048161027485600361041f565b90506000610282828461040c565b61023d90600261040c565b600060048161029d8460036103e9565b60ff1690506102ac818361040c565b6101f890600061040c565b60006004816102c78460036103e9565b60ff1690506102d6818361040c565b6101f890600261040c565b60006004816102f185600361041f565b905060006102ff828461040c565b61023d90600161040c565b60006020828403121561031c57600080fd5b5035919050565b803560ff8116811461033457600080fd5b919050565b6000806040838503121561034c57600080fd5b8235915061035c60208401610323565b90509250929050565b60008060006060848603121561037a57600080fd5b833592506020840135915061039160408501610323565b90509250925092565b600080604083850312156103ad57600080fd5b82359150602083013563ffffffff811681146103c857600080fd5b809150509250929050565b634e487b7160e01b600052601160045260246000fd5b60ff8181168382160290811690818114610405576104056103d3565b5092915050565b8082018082111561020e5761020e6103d3565b808202811582820484141761020e5761020e6103d356fea264697066735822122063dae4464fb5b6fad35672f7557d6da45024f06d21325cbd39a34847bb0d8ea364736f6c63430008120033",
			"opcodes": "PUSH2 0x46C PUSH2 0x3A PUSH1 0xB DUP3 DUP3 DUP3 CODECOPY DUP1 MLOAD PUSH1 0x0 BYTE PUSH1 0x73 EQ PUSH2 0x2D JUMPI PUSH4 0x4E487B71 PUSH1 0xE0 SHL PUSH1 0x0 MSTORE PUSH1 0x0 PUSH1 0x4 MSTORE PUSH1 0x24 PUSH1 0x0 REVERT JUMPDEST ADDRESS PUSH1 0x0 MSTORE PUSH1 0x73 DUP2 MSTORE8 DUP3 DUP2 RETURN INVALID PUSH20 0x0 ADDRESS EQ PUSH1 0x80 PUSH1 0x40 MSTORE PUSH1 0x4 CALLDATASIZE LT PUSH2 0xA8 JUMPI PUSH1 0x0 CALLDATALOAD PUSH1 0xE0 SHR DUP1 PUSH4 0x5D2029F1 GT PUSH2 0x70 JUMPI DUP1 PUSH4 0x5D2029F1 EQ PUSH2 0x14B JUMPI DUP1 PUSH4 0x8DE97F4F EQ PUSH2 0x15E JUMPI DUP1 PUSH4 0xA5858693 EQ PUSH2 0x17D JUMPI DUP1 PUSH4 0xB52B6659 EQ PUSH2 0x190 JUMPI DUP1 PUSH4 0xE1B30AB7 EQ PUSH2 0x1BB JUMPI PUSH1 0x0 DUP1 REVERT JUMPDEST DUP1 PUSH4 0x317F435 EQ PUSH2 0xAD JUMPI DUP1 PUSH4 0x3499A7EA EQ PUSH2 0xD8 JUMPI DUP1 PUSH4 0x34A51D0F EQ PUSH2 0xEB JUMPI DUP1 PUSH4 0x55D6ED43 EQ PUSH2 0x10C JUMPI DUP1 PUSH4 0x56E3DF97 EQ PUSH2 0x11F JUMPI JUMPDEST PUSH1 0x0 DUP1 REVERT JUMPDEST PUSH2 0xC1 PUSH2 0xBB CALLDATASIZE PUSH1 0x4 PUSH2 0x30A JUMP JUMPDEST PUSH1 0xF8 SHR SWAP1 JUMP JUMPDEST PUSH1 0x40 MLOAD PUSH1 0xFF SWAP1 SWAP2 AND DUP2 MSTORE PUSH1 0x20 ADD JUMPDEST PUSH1 0x40 MLOAD DUP1 SWAP2 SUB SWAP1 RETURN JUMPDEST PUSH2 0xC1 PUSH2 0xE6 CALLDATASIZE PUSH1 0x4 PUSH2 0x339 JUMP JUMPDEST PUSH2 0x1CE JUMP JUMPDEST PUSH2 0xFE PUSH2 0xF9 CALLDATASIZE PUSH1 0x4 PUSH2 0x365 JUMP JUMPDEST PUSH2 0x214 JUMP JUMPDEST PUSH1 0x40 MLOAD SWAP1 DUP2 MSTORE PUSH1 0x20 ADD PUSH2 0xCF JUMP JUMPDEST PUSH2 0xFE PUSH2 0x11A CALLDATASIZE PUSH1 0x4 PUSH2 0x365 JUMP JUMPDEST PUSH2 0x264 JUMP JUMPDEST PUSH2 0x136 PUSH2 0x12D CALLDATASIZE PUSH1 0x4 PUSH2 0x30A JUMP JUMPDEST PUSH4 0xFFFFFFFF AND SWAP1 JUMP JUMPDEST PUSH1 0x40 MLOAD PUSH4 0xFFFFFFFF SWAP1 SWAP2 AND DUP2 MSTORE PUSH1 0x20 ADD PUSH2 0xCF JUMP JUMPDEST PUSH2 0xC1 PUSH2 0x159 CALLDATASIZE PUSH1 0x4 PUSH2 0x339 JUMP JUMPDEST PUSH2 0x28D JUMP JUMPDEST PUSH2 0xFE PUSH2 0x16C CALLDATASIZE PUSH1 0x4 PUSH2 0x39A JUMP JUMPDEST PUSH4 0xFFFFFFFF AND PUSH1 0xF NOT SWAP2 SWAP1 SWAP2 AND OR SWAP1 JUMP JUMPDEST PUSH2 0xC1 PUSH2 0x18B CALLDATASIZE PUSH1 0x4 PUSH2 0x339 JUMP JUMPDEST PUSH2 0x2B7 JUMP JUMPDEST PUSH2 0xFE PUSH2 0x19E CALLDATASIZE PUSH1 0x4 PUSH2 0x339 JUMP JUMPDEST PUSH1 0xF8 SHL PUSH1 0x1 PUSH1 0x1 PUSH1 0xF8 SHL SUB NOT AND PUSH1 0x1 PUSH1 0x1 PUSH1 0xF8 SHL SUB SWAP2 SWAP1 SWAP2 AND OR SWAP1 JUMP JUMPDEST PUSH2 0xFE PUSH2 0x1C9 CALLDATASIZE PUSH1 0x4 PUSH2 0x365 JUMP JUMPDEST PUSH2 0x2E1 JUMP JUMPDEST PUSH1 0x0 PUSH1 0x4 DUP2 PUSH2 0x1DE DUP5 PUSH1 0x3 PUSH2 0x3E9 JUMP JUMPDEST PUSH1 0xFF AND SWAP1 POP PUSH2 0x1ED DUP2 DUP4 PUSH2 0x40C JUMP JUMPDEST PUSH2 0x1F8 SWAP1 PUSH1 0x1 PUSH2 0x40C JUMP JUMPDEST PUSH2 0x203 SWAP1 PUSH1 0x8 PUSH2 0x41F JUMP JUMPDEST DUP6 SWAP1 SHR PUSH1 0xFF AND SWAP3 POP POP POP JUMPDEST SWAP3 SWAP2 POP POP JUMP JUMPDEST PUSH1 0x0 PUSH1 0x4 DUP2 PUSH2 0x224 DUP6 PUSH1 0x3 PUSH2 0x41F JUMP JUMPDEST SWAP1 POP PUSH1 0x0 PUSH2 0x232 DUP3 DUP5 PUSH2 0x40C JUMP JUMPDEST PUSH2 0x23D SWAP1 PUSH1 0x0 PUSH2 0x40C JUMP JUMPDEST PUSH2 0x248 SWAP1 PUSH1 0x8 PUSH2 0x41F JUMP JUMPDEST PUSH1 0xFF SWAP6 DUP7 AND DUP2 SHL SWAP6 SWAP1 SHL NOT SWAP7 SWAP1 SWAP7 AND SWAP4 SWAP1 SWAP4 OR SWAP6 SWAP5 POP POP POP POP POP JUMP JUMPDEST PUSH1 0x0 PUSH1 0x4 DUP2 PUSH2 0x274 DUP6 PUSH1 0x3 PUSH2 0x41F JUMP JUMPDEST SWAP1 POP PUSH1 0x0 PUSH2 0x282 DUP3 DUP5 PUSH2 0x40C JUMP JUMPDEST PUSH2 0x23D SWAP1 PUSH1 0x2 PUSH2 0x40C JUMP JUMPDEST PUSH1 0x0 PUSH1 0x4 DUP2 PUSH2 0x29D DUP5 PUSH1 0x3 PUSH2 0x3E9 JUMP JUMPDEST PUSH1 0xFF AND SWAP1 POP PUSH2 0x2AC DUP2 DUP4 PUSH2 0x40C JUMP JUMPDEST PUSH2 0x1F8 SWAP1 PUSH1 0x0 PUSH2 0x40C JUMP JUMPDEST PUSH1 0x0 PUSH1 0x4 DUP2 PUSH2 0x2C7 DUP5 PUSH1 0x3 PUSH2 0x3E9 JUMP JUMPDEST PUSH1 0xFF AND SWAP1 POP PUSH2 0x2D6 DUP2 DUP4 PUSH2 0x40C JUMP JUMPDEST PUSH2 0x1F8 SWAP1 PUSH1 0x2 PUSH2 0x40C JUMP JUMPDEST PUSH1 0x0 PUSH1 0x4 DUP2 PUSH2 0x2F1 DUP6 PUSH1 0x3 PUSH2 0x41F JUMP JUMPDEST SWAP1 POP PUSH1 0x0 PUSH2 0x2FF DUP3 DUP5 PUSH2 0x40C JUMP JUMPDEST PUSH2 0x23D SWAP1 PUSH1 0x1 PUSH2 0x40C JUMP JUMPDEST PUSH1 0x0 PUSH1 0x20 DUP3 DUP5 SUB SLT ISZERO PUSH2 0x31C JUMPI PUSH1 0x0 DUP1 REVERT JUMPDEST POP CALLDATALOAD SWAP2 SWAP1 POP JUMP JUMPDEST DUP1 CALLDATALOAD PUSH1 0xFF DUP2 AND DUP2 EQ PUSH2 0x334 JUMPI PUSH1 0x0 DUP1 REVERT JUMPDEST SWAP2 SWAP1 POP JUMP JUMPDEST PUSH1 0x0 DUP1 PUSH1 0x40 DUP4 DUP6 SUB SLT ISZERO PUSH2 0x34C JUMPI PUSH1 0x0 DUP1 REVERT JUMPDEST DUP3 CALLDATALOAD SWAP2 POP PUSH2 0x35C PUSH1 0x20 DUP5 ADD PUSH2 0x323 JUMP JUMPDEST SWAP1 POP SWAP3 POP SWAP3 SWAP1 POP JUMP JUMPDEST PUSH1 0x0 DUP1 PUSH1 0x0 PUSH1 0x60 DUP5 DUP7 SUB SLT ISZERO PUSH2 0x37A JUMPI PUSH1 0x0 DUP1 REVERT JUMPDEST DUP4 CALLDATALOAD SWAP3 POP PUSH1 0x20 DUP5 ADD CALLDATALOAD SWAP2 POP PUSH2 0x391 PUSH1 0x40 DUP6 ADD PUSH2 0x323 JUMP JUMPDEST SWAP1 POP SWAP3 POP SWAP3 POP SWAP3 JUMP JUMPDEST PUSH1 0x0 DUP1 PUSH1 0x40 DUP4 DUP6 SUB SLT ISZERO PUSH2 0x3AD JUMPI PUSH1 0x0 DUP1 REVERT JUMPDEST DUP3 CALLDATALOAD SWAP2 POP PUSH1 0x20 DUP4 ADD CALLDATALOAD PUSH4 0xFFFFFFFF DUP2 AND DUP2 EQ PUSH2 0x3C8 JUMPI PUSH1 0x0 DUP1 REVERT JUMPDEST DUP1 SWAP2 POP POP SWAP3 POP SWAP3 SWAP1 POP JUMP JUMPDEST PUSH4 0x4E487B71 PUSH1 0xE0 SHL PUSH1 0x0 MSTORE PUSH1 0x11 PUSH1 0x4 MSTORE PUSH1 0x24 PUSH1 0x0 REVERT JUMPDEST PUSH1 0xFF DUP2 DUP2 AND DUP4 DUP3 AND MUL SWAP1 DUP2 AND SWAP1 DUP2 DUP2 EQ PUSH2 0x405 JUMPI PUSH2 0x405 PUSH2 0x3D3 JUMP JUMPDEST POP SWAP3 SWAP2 POP POP JUMP JUMPDEST DUP1 DUP3 ADD DUP1 DUP3 GT ISZERO PUSH2 0x20E JUMPI PUSH2 0x20E PUSH2 0x3D3 JUMP JUMPDEST DUP1 DUP3 MUL DUP2 ISZERO DUP3 DUP3 DIV DUP5 EQ OR PUSH2 0x20E JUMPI PUSH2 0x20E PUSH2 0x3D3 JUMP INVALID LOG2 PUSH5 0x6970667358 0x22 SLT KECCAK256 PUSH4 0xDAE4464F 0xB5 0xB6 STATICCALL 0xD3 JUMP PUSH19 0xF7557D6DA45024F06D21325CBD39A34847BB0D DUP15 LOG3 PUSH5 0x736F6C6343 STOP ADDMOD SLT STOP CALLER "
		},
		"gasEstimates": {
			"creation": {
				"codeDepositCost": "226400",
				"executionCost": "300",
				"totalCost": "226700"
			},
			"external": {
				"getArcane(uint256,uint8)": "infinite",
				"getCharges(uint256)": "258",
				"getGeneration(uint256)": "357",
				"getId(uint256,uint8)": "infinite",
				"getLevel(uint256,uint8)": "infinite",
				"setArcane(uint256,uint256,uint8)": "infinite",
				"setCharges(uint256,uint8)": "471",
				"setGeneration(uint256,uint32)": "367",
				"setId(uint256,uint256,uint8)": "infinite",
				"setLevel(uint256,uint256,uint8)": "infinite"
			}
		},
		"methodIdentifiers": {
			"getArcane(uint256,uint8)": "a5858693",
			"getCharges(uint256)": "0317f435",
			"getGeneration(uint256)": "56e3df97",
			"getId(uint256,uint8)": "5d2029f1",
			"getLevel(uint256,uint8)": "3499a7ea",
			"setArcane(uint256,uint256,uint8)": "55d6ed43",
			"setCharges(uint256,uint8)": "b52b6659",
			"setGeneration(uint256,uint32)": "8de97f4f",
			"setId(uint256,uint256,uint8)": "34a51d0f",
			"setLevel(uint256,uint256,uint8)": "e1b30ab7"
		}
	},
	"abi": [
		{
			"inputs": [
				{
					"internalType": "uint256",
					"name": "genes",
					"type": "uint256"
				},
				{
					"internalType": "uint8",
					"name": "partId",
					"type": "uint8"
				}
			],
			"name": "getArcane",
			"outputs": [
				{
					"internalType": "uint8",
					"name": "",
					"type": "uint8"
				}
			],
			"stateMutability": "pure",
			"type": "function"
		},
		{
			"inputs": [
				{
					"internalType": "uint256",
					"name": "genes",
					"type": "uint256"
				}
			],
			"name": "getCharges",
			"outputs": [
				{
					"internalType": "uint8",
					"name": "",
					"type": "uint8"
				}
			],
			"stateMutability": "pure",
			"type": "function"
		},
		{
			"inputs": [
				{
					"internalType": "uint256",
					"name": "genes",
					"type": "uint256"
				}
			],
			"name": "getGeneration",
			"outputs": [
				{
					"internalType": "uint32",
					"name": "",
					"type": "uint32"
				}
			],
			"stateMutability": "pure",
			"type": "function"
		},
		{
			"inputs": [
				{
					"internalType": "uint256",
					"name": "genes",
					"type": "uint256"
				},
				{
					"internalType": "uint8",
					"name": "partId",
					"type": "uint8"
				}
			],
			"name": "getId",
			"outputs": [
				{
					"internalType": "uint8",
					"name": "",
					"type": "uint8"
				}
			],
			"stateMutability": "pure",
			"type": "function"
		},
		{
			"inputs": [
				{
					"internalType": "uint256",
					"name": "genes",
					"type": "uint256"
				},
				{
					"internalType": "uint8",
					"name": "partId",
					"type": "uint8"
				}
			],
			"name": "getLevel",
			"outputs": [
				{
					"internalType": "uint8",
					"name": "",
					"type": "uint8"
				}
			],
			"stateMutability": "pure",
			"type": "function"
		},
		{
			"inputs": [
				{
					"internalType": "uint256",
					"name": "genes",
					"type": "uint256"
				},
				{
					"internalType": "uint256",
					"name": "partId",
					"type": "uint256"
				},
				{
					"internalType": "uint8",
					"name": "arcane",
					"type": "uint8"
				}
			],
			"name": "setArcane",
			"outputs": [
				{
					"internalType": "uint256",
					"name": "",
					"type": "uint256"
				}
			],
			"stateMutability": "pure",
			"type": "function"
		},
		{
			"inputs": [
				{
					"internalType": "uint256",
					"name": "genes",
					"type": "uint256"
				},
				{
					"internalType": "uint8",
					"name": "charges",
					"type": "uint8"
				}
			],
			"name": "setCharges",
			"outputs": [
				{
					"internalType": "uint256",
					"name": "",
					"type": "uint256"
				}
			],
			"stateMutability": "pure",
			"type": "function"
		},
		{
			"inputs": [
				{
					"internalType": "uint256",
					"name": "genes",
					"type": "uint256"
				},
				{
					"internalType": "uint32",
					"name": "generation",
					"type": "uint32"
				}
			],
			"name": "setGeneration",
			"outputs": [
				{
					"internalType": "uint256",
					"name": "",
					"type": "uint256"
				}
			],
			"stateMutability": "pure",
			"type": "function"
		},
		{
			"inputs": [
				{
					"internalType": "uint256",
					"name": "genes",
					"type": "uint256"
				},
				{
					"internalType": "uint256",
					"name": "partId",
					"type": "uint256"
				},
				{
					"internalType": "uint8",
					"name": "id",
					"type": "uint8"
				}
			],
			"name": "setId",
			"outputs": [
				{
					"internalType": "uint256",
					"name": "",
					"type": "uint256"
				}
			],
			"stateMutability": "pure",
			"type": "function"
		},
		{
			"inputs": [
				{
					"internalType": "uint256",
					"name": "genes",
					"type": "uint256"
				},
				{
					"internalType": "uint256",
					"name": "partId",
					"type": "uint256"
				},
				{
					"internalType": "uint8",
					"name": "level",
					"type": "uint8"
				}
			],
			"name": "setLevel",
			"outputs": [
				{
					"internalType": "uint256",
					"name": "",
					"type": "uint256"
				}
			],
			"stateMutability": "pure",
			"type": "function"
		}
	]
}