{
	"data": {
		"bytecode": {
			"linkReferences": {},
			"object": "610833610053600b82828239805160001a607314610046577f4e487b7100000000000000000000000000000000000000000000000000000000600052600060045260246000fd5b30600052607381538281f3fe73000000000000000000000000000000000000000030146080604052600436106100a85760003560e01c80635d2029f1116100705780635d2029f11461019d5780638de97f4f146101cd578063a5858693146101fd578063b52b66591461022d578063e1b30ab71461025d576100a8565b80630317f435146100ad5780633499a7ea146100dd57806334a51d0f1461010d57806355d6ed431461013d57806356e3df971461016d575b600080fd5b6100c760048036038101906100c29190610528565b61028d565b6040516100d49190610571565b60405180910390f35b6100f760048036038101906100f291906105b8565b61029e565b6040516101049190610571565b60405180910390f35b610127600480360381019061012291906105f8565b6102ed565b604051610134919061065a565b60405180910390f35b610157600480360381019061015291906105f8565b61034c565b604051610164919061065a565b60405180910390f35b61018760048036038101906101829190610528565b6103ab565b6040516101949190610694565b60405180910390f35b6101b760048036038101906101b291906105b8565b6103bb565b6040516101c49190610571565b60405180910390f35b6101e760048036038101906101e291906106db565b61040a565b6040516101f4919061065a565b60405180910390f35b610217600480360381019061021291906105b8565b610424565b6040516102249190610571565b60405180910390f35b610247600480360381019061024291906105b8565b610473565b604051610254919061065a565b60405180910390f35b610277600480360381019061027291906105f8565b61048e565b604051610284919061065a565b60405180910390f35b600060ff60f883901c169050919050565b6000806004905060006003846102b4919061074a565b60ff16905060ff6008600183856102cb9190610787565b6102d59190610787565b6102df91906107bb565b86901c169250505092915050565b60008060049050600060038561030391906107bb565b905060006008600083856103179190610787565b6103219190610787565b61032b91906107bb565b90508060ff901b1987169650808560ff16901b871793505050509392505050565b60008060049050600060038561036291906107bb565b905060006008600283856103769190610787565b6103809190610787565b61038a91906107bb565b90508060ff901b1987169650808560ff16901b871793505050509392505050565b600063ffffffff82169050919050565b6000806004905060006003846103d1919061074a565b60ff16905060ff6008600083856103e89190610787565b6103f29190610787565b6103fc91906107bb565b86901c169250505092915050565b60008163ffffffff1660048085901c901b17905092915050565b60008060049050600060038461043a919061074a565b60ff16905060ff6008600283856104519190610787565b61045b9190610787565b61046591906107bb565b86901c169250505092915050565b600060f88260ff16901b60088085901b901c17905092915050565b6000806004905060006003856104a491906107bb565b905060006008600183856104b89190610787565b6104c29190610787565b6104cc91906107bb565b90508060ff901b1987169650808560ff16901b871793505050509392505050565b600080fd5b6000819050919050565b610505816104f2565b811461051057600080fd5b50565b600081359050610522816104fc565b92915050565b60006020828403121561053e5761053d6104ed565b5b600061054c84828501610513565b91505092915050565b600060ff82169050919050565b61056b81610555565b82525050565b60006020820190506105866000830184610562565b92915050565b61059581610555565b81146105a057600080fd5b50565b6000813590506105b28161058c565b92915050565b600080604083850312156105cf576105ce6104ed565b5b60006105dd85828601610513565b92505060206105ee858286016105a3565b9150509250929050565b600080600060608486031215610611576106106104ed565b5b600061061f86828701610513565b935050602061063086828701610513565b9250506040610641868287016105a3565b9150509250925092565b610654816104f2565b82525050565b600060208201905061066f600083018461064b565b92915050565b600063ffffffff82169050919050565b61068e81610675565b82525050565b60006020820190506106a96000830184610685565b92915050565b6106b881610675565b81146106c357600080fd5b50565b6000813590506106d5816106af565b92915050565b600080604083850312156106f2576106f16104ed565b5b600061070085828601610513565b9250506020610711858286016106c6565b9150509250929050565b7f4e487b7100000000000000000000000000000000000000000000000000000000600052601160045260246000fd5b600061075582610555565b915061076083610555565b925082820261076e81610555565b91508082146107805761077f61071b565b5b5092915050565b6000610792826104f2565b915061079d836104f2565b92508282019050808211156107b5576107b461071b565b5b92915050565b60006107c6826104f2565b91506107d1836104f2565b92508282026107df816104f2565b915082820484148315176107f6576107f561071b565b5b509291505056fea2646970667358221220b10dbe12de7043ddd791ae311664d8ff64084ec03774c8ebd89f225331a77b9a64736f6c63430008120033",
			"opcodes": "PUSH2 0x833 PUSH2 0x53 PUSH1 0xB DUP3 DUP3 DUP3 CODECOPY DUP1 MLOAD PUSH1 0x0 BYTE PUSH1 0x73 EQ PUSH2 0x46 JUMPI PUSH32 0x4E487B7100000000000000000000000000000000000000000000000000000000 PUSH1 0x0 MSTORE PUSH1 0x0 PUSH1 0x4 MSTORE PUSH1 0x24 PUSH1 0x0 REVERT JUMPDEST ADDRESS PUSH1 0x0 MSTORE PUSH1 0x73 DUP2 MSTORE8 DUP3 DUP2 RETURN INVALID PUSH20 0x0 ADDRESS EQ PUSH1 0x80 PUSH1 0x40 MSTORE PUSH1 0x4 CALLDATASIZE LT PUSH2 0xA8 JUMPI PUSH1 0x0 CALLDATALOAD PUSH1 0xE0 SHR DUP1 PUSH4 0x5D2029F1 GT PUSH2 0x70 JUMPI DUP1 PUSH4 0x5D2029F1 EQ PUSH2 0x19D JUMPI DUP1 PUSH4 0x8DE97F4F EQ PUSH2 0x1CD JUMPI DUP1 PUSH4 0xA5858693 EQ PUSH2 0x1FD JUMPI DUP1 PUSH4 0xB52B6659 EQ PUSH2 0x22D JUMPI DUP1 PUSH4 0xE1B30AB7 EQ PUSH2 0x25D JUMPI PUSH2 0xA8 JUMP JUMPDEST DUP1 PUSH4 0x317F435 EQ PUSH2 0xAD JUMPI DUP1 PUSH4 0x3499A7EA EQ PUSH2 0xDD JUMPI DUP1 PUSH4 0x34A51D0F EQ PUSH2 0x10D JUMPI DUP1 PUSH4 0x55D6ED43 EQ PUSH2 0x13D JUMPI DUP1 PUSH4 0x56E3DF97 EQ PUSH2 0x16D JUMPI JUMPDEST PUSH1 0x0 DUP1 REVERT JUMPDEST PUSH2 0xC7 PUSH1 0x4 DUP1 CALLDATASIZE SUB DUP2 ADD SWAP1 PUSH2 0xC2 SWAP2 SWAP1 PUSH2 0x528 JUMP JUMPDEST PUSH2 0x28D JUMP JUMPDEST PUSH1 0x40 MLOAD PUSH2 0xD4 SWAP2 SWAP1 PUSH2 0x571 JUMP JUMPDEST PUSH1 0x40 MLOAD DUP1 SWAP2 SUB SWAP1 RETURN JUMPDEST PUSH2 0xF7 PUSH1 0x4 DUP1 CALLDATASIZE SUB DUP2 ADD SWAP1 PUSH2 0xF2 SWAP2 SWAP1 PUSH2 0x5B8 JUMP JUMPDEST PUSH2 0x29E JUMP JUMPDEST PUSH1 0x40 MLOAD PUSH2 0x104 SWAP2 SWAP1 PUSH2 0x571 JUMP JUMPDEST PUSH1 0x40 MLOAD DUP1 SWAP2 SUB SWAP1 RETURN JUMPDEST PUSH2 0x127 PUSH1 0x4 DUP1 CALLDATASIZE SUB DUP2 ADD SWAP1 PUSH2 0x122 SWAP2 SWAP1 PUSH2 0x5F8 JUMP JUMPDEST PUSH2 0x2ED JUMP JUMPDEST PUSH1 0x40 MLOAD PUSH2 0x134 SWAP2 SWAP1 PUSH2 0x65A JUMP JUMPDEST PUSH1 0x40 MLOAD DUP1 SWAP2 SUB SWAP1 RETURN JUMPDEST PUSH2 0x157 PUSH1 0x4 DUP1 CALLDATASIZE SUB DUP2 ADD SWAP1 PUSH2 0x152 SWAP2 SWAP1 PUSH2 0x5F8 JUMP JUMPDEST PUSH2 0x34C JUMP JUMPDEST PUSH1 0x40 MLOAD PUSH2 0x164 SWAP2 SWAP1 PUSH2 0x65A JUMP JUMPDEST PUSH1 0x40 MLOAD DUP1 SWAP2 SUB SWAP1 RETURN JUMPDEST PUSH2 0x187 PUSH1 0x4 DUP1 CALLDATASIZE SUB DUP2 ADD SWAP1 PUSH2 0x182 SWAP2 SWAP1 PUSH2 0x528 JUMP JUMPDEST PUSH2 0x3AB JUMP JUMPDEST PUSH1 0x40 MLOAD PUSH2 0x194 SWAP2 SWAP1 PUSH2 0x694 JUMP JUMPDEST PUSH1 0x40 MLOAD DUP1 SWAP2 SUB SWAP1 RETURN JUMPDEST PUSH2 0x1B7 PUSH1 0x4 DUP1 CALLDATASIZE SUB DUP2 ADD SWAP1 PUSH2 0x1B2 SWAP2 SWAP1 PUSH2 0x5B8 JUMP JUMPDEST PUSH2 0x3BB JUMP JUMPDEST PUSH1 0x40 MLOAD PUSH2 0x1C4 SWAP2 SWAP1 PUSH2 0x571 JUMP JUMPDEST PUSH1 0x40 MLOAD DUP1 SWAP2 SUB SWAP1 RETURN JUMPDEST PUSH2 0x1E7 PUSH1 0x4 DUP1 CALLDATASIZE SUB DUP2 ADD SWAP1 PUSH2 0x1E2 SWAP2 SWAP1 PUSH2 0x6DB JUMP JUMPDEST PUSH2 0x40A JUMP JUMPDEST PUSH1 0x40 MLOAD PUSH2 0x1F4 SWAP2 SWAP1 PUSH2 0x65A JUMP JUMPDEST PUSH1 0x40 MLOAD DUP1 SWAP2 SUB SWAP1 RETURN JUMPDEST PUSH2 0x217 PUSH1 0x4 DUP1 CALLDATASIZE SUB DUP2 ADD SWAP1 PUSH2 0x212 SWAP2 SWAP1 PUSH2 0x5B8 JUMP JUMPDEST PUSH2 0x424 JUMP JUMPDEST PUSH1 0x40 MLOAD PUSH2 0x224 SWAP2 SWAP1 PUSH2 0x571 JUMP JUMPDEST PUSH1 0x40 MLOAD DUP1 SWAP2 SUB SWAP1 RETURN JUMPDEST PUSH2 0x247 PUSH1 0x4 DUP1 CALLDATASIZE SUB DUP2 ADD SWAP1 PUSH2 0x242 SWAP2 SWAP1 PUSH2 0x5B8 JUMP JUMPDEST PUSH2 0x473 JUMP JUMPDEST PUSH1 0x40 MLOAD PUSH2 0x254 SWAP2 SWAP1 PUSH2 0x65A JUMP JUMPDEST PUSH1 0x40 MLOAD DUP1 SWAP2 SUB SWAP1 RETURN JUMPDEST PUSH2 0x277 PUSH1 0x4 DUP1 CALLDATASIZE SUB DUP2 ADD SWAP1 PUSH2 0x272 SWAP2 SWAP1 PUSH2 0x5F8 JUMP JUMPDEST PUSH2 0x48E JUMP JUMPDEST PUSH1 0x40 MLOAD PUSH2 0x284 SWAP2 SWAP1 PUSH2 0x65A JUMP JUMPDEST PUSH1 0x40 MLOAD DUP1 SWAP2 SUB SWAP1 RETURN JUMPDEST PUSH1 0x0 PUSH1 0xFF PUSH1 0xF8 DUP4 SWAP1 SHR AND SWAP1 POP SWAP2 SWAP1 POP JUMP JUMPDEST PUSH1 0x0 DUP1 PUSH1 0x4 SWAP1 POP PUSH1 0x0 PUSH1 0x3 DUP5 PUSH2 0x2B4 SWAP2 SWAP1 PUSH2 0x74A JUMP JUMPDEST PUSH1 0xFF AND SWAP1 POP PUSH1 0xFF PUSH1 0x8 PUSH1 0x1 DUP4 DUP6 PUSH2 0x2CB SWAP2 SWAP1 PUSH2 0x787 JUMP JUMPDEST PUSH2 0x2D5 SWAP2 SWAP1 PUSH2 0x787 JUMP JUMPDEST PUSH2 0x2DF SWAP2 SWAP1 PUSH2 0x7BB JUMP JUMPDEST DUP7 SWAP1 SHR AND SWAP3 POP POP POP SWAP3 SWAP2 POP POP JUMP JUMPDEST PUSH1 0x0 DUP1 PUSH1 0x4 SWAP1 POP PUSH1 0x0 PUSH1 0x3 DUP6 PUSH2 0x303 SWAP2 SWAP1 PUSH2 0x7BB JUMP JUMPDEST SWAP1 POP PUSH1 0x0 PUSH1 0x8 PUSH1 0x0 DUP4 DUP6 PUSH2 0x317 SWAP2 SWAP1 PUSH2 0x787 JUMP JUMPDEST PUSH2 0x321 SWAP2 SWAP1 PUSH2 0x787 JUMP JUMPDEST PUSH2 0x32B SWAP2 SWAP1 PUSH2 0x7BB JUMP JUMPDEST SWAP1 POP DUP1 PUSH1 0xFF SWAP1 SHL NOT DUP8 AND SWAP7 POP DUP1 DUP6 PUSH1 0xFF AND SWAP1 SHL DUP8 OR SWAP4 POP POP POP POP SWAP4 SWAP3 POP POP POP JUMP JUMPDEST PUSH1 0x0 DUP1 PUSH1 0x4 SWAP1 POP PUSH1 0x0 PUSH1 0x3 DUP6 PUSH2 0x362 SWAP2 SWAP1 PUSH2 0x7BB JUMP JUMPDEST SWAP1 POP PUSH1 0x0 PUSH1 0x8 PUSH1 0x2 DUP4 DUP6 PUSH2 0x376 SWAP2 SWAP1 PUSH2 0x787 JUMP JUMPDEST PUSH2 0x380 SWAP2 SWAP1 PUSH2 0x787 JUMP JUMPDEST PUSH2 0x38A SWAP2 SWAP1 PUSH2 0x7BB JUMP JUMPDEST SWAP1 POP DUP1 PUSH1 0xFF SWAP1 SHL NOT DUP8 AND SWAP7 POP DUP1 DUP6 PUSH1 0xFF AND SWAP1 SHL DUP8 OR SWAP4 POP POP POP POP SWAP4 SWAP3 POP POP POP JUMP JUMPDEST PUSH1 0x0 PUSH4 0xFFFFFFFF DUP3 AND SWAP1 POP SWAP2 SWAP1 POP JUMP JUMPDEST PUSH1 0x0 DUP1 PUSH1 0x4 SWAP1 POP PUSH1 0x0 PUSH1 0x3 DUP5 PUSH2 0x3D1 SWAP2 SWAP1 PUSH2 0x74A JUMP JUMPDEST PUSH1 0xFF AND SWAP1 POP PUSH1 0xFF PUSH1 0x8 PUSH1 0x0 DUP4 DUP6 PUSH2 0x3E8 SWAP2 SWAP1 PUSH2 0x787 JUMP JUMPDEST PUSH2 0x3F2 SWAP2 SWAP1 PUSH2 0x787 JUMP JUMPDEST PUSH2 0x3FC SWAP2 SWAP1 PUSH2 0x7BB JUMP JUMPDEST DUP7 SWAP1 SHR AND SWAP3 POP POP POP SWAP3 SWAP2 POP POP JUMP JUMPDEST PUSH1 0x0 DUP2 PUSH4 0xFFFFFFFF AND PUSH1 0x4 DUP1 DUP6 SWAP1 SHR SWAP1 SHL OR SWAP1 POP SWAP3 SWAP2 POP POP JUMP JUMPDEST PUSH1 0x0 DUP1 PUSH1 0x4 SWAP1 POP PUSH1 0x0 PUSH1 0x3 DUP5 PUSH2 0x43A SWAP2 SWAP1 PUSH2 0x74A JUMP JUMPDEST PUSH1 0xFF AND SWAP1 POP PUSH1 0xFF PUSH1 0x8 PUSH1 0x2 DUP4 DUP6 PUSH2 0x451 SWAP2 SWAP1 PUSH2 0x787 JUMP JUMPDEST PUSH2 0x45B SWAP2 SWAP1 PUSH2 0x787 JUMP JUMPDEST PUSH2 0x465 SWAP2 SWAP1 PUSH2 0x7BB JUMP JUMPDEST DUP7 SWAP1 SHR AND SWAP3 POP POP POP SWAP3 SWAP2 POP POP JUMP JUMPDEST PUSH1 0x0 PUSH1 0xF8 DUP3 PUSH1 0xFF AND SWAP1 SHL PUSH1 0x8 DUP1 DUP6 SWAP1 SHL SWAP1 SHR OR SWAP1 POP SWAP3 SWAP2 POP POP JUMP JUMPDEST PUSH1 0x0 DUP1 PUSH1 0x4 SWAP1 POP PUSH1 0x0 PUSH1 0x3 DUP6 PUSH2 0x4A4 SWAP2 SWAP1 PUSH2 0x7BB JUMP JUMPDEST SWAP1 POP PUSH1 0x0 PUSH1 0x8 PUSH1 0x1 DUP4 DUP6 PUSH2 0x4B8 SWAP2 SWAP1 PUSH2 0x787 JUMP JUMPDEST PUSH2 0x4C2 SWAP2 SWAP1 PUSH2 0x787 JUMP JUMPDEST PUSH2 0x4CC SWAP2 SWAP1 PUSH2 0x7BB JUMP JUMPDEST SWAP1 POP DUP1 PUSH1 0xFF SWAP1 SHL NOT DUP8 AND SWAP7 POP DUP1 DUP6 PUSH1 0xFF AND SWAP1 SHL DUP8 OR SWAP4 POP POP POP POP SWAP4 SWAP3 POP POP POP JUMP JUMPDEST PUSH1 0x0 DUP1 REVERT JUMPDEST PUSH1 0x0 DUP2 SWAP1 POP SWAP2 SWAP1 POP JUMP JUMPDEST PUSH2 0x505 DUP2 PUSH2 0x4F2 JUMP JUMPDEST DUP2 EQ PUSH2 0x510 JUMPI PUSH1 0x0 DUP1 REVERT JUMPDEST POP JUMP JUMPDEST PUSH1 0x0 DUP2 CALLDATALOAD SWAP1 POP PUSH2 0x522 DUP2 PUSH2 0x4FC JUMP JUMPDEST SWAP3 SWAP2 POP POP JUMP JUMPDEST PUSH1 0x0 PUSH1 0x20 DUP3 DUP5 SUB SLT ISZERO PUSH2 0x53E JUMPI PUSH2 0x53D PUSH2 0x4ED JUMP JUMPDEST JUMPDEST PUSH1 0x0 PUSH2 0x54C DUP5 DUP3 DUP6 ADD PUSH2 0x513 JUMP JUMPDEST SWAP2 POP POP SWAP3 SWAP2 POP POP JUMP JUMPDEST PUSH1 0x0 PUSH1 0xFF DUP3 AND SWAP1 POP SWAP2 SWAP1 POP JUMP JUMPDEST PUSH2 0x56B DUP2 PUSH2 0x555 JUMP JUMPDEST DUP3 MSTORE POP POP JUMP JUMPDEST PUSH1 0x0 PUSH1 0x20 DUP3 ADD SWAP1 POP PUSH2 0x586 PUSH1 0x0 DUP4 ADD DUP5 PUSH2 0x562 JUMP JUMPDEST SWAP3 SWAP2 POP POP JUMP JUMPDEST PUSH2 0x595 DUP2 PUSH2 0x555 JUMP JUMPDEST DUP2 EQ PUSH2 0x5A0 JUMPI PUSH1 0x0 DUP1 REVERT JUMPDEST POP JUMP JUMPDEST PUSH1 0x0 DUP2 CALLDATALOAD SWAP1 POP PUSH2 0x5B2 DUP2 PUSH2 0x58C JUMP JUMPDEST SWAP3 SWAP2 POP POP JUMP JUMPDEST PUSH1 0x0 DUP1 PUSH1 0x40 DUP4 DUP6 SUB SLT ISZERO PUSH2 0x5CF JUMPI PUSH2 0x5CE PUSH2 0x4ED JUMP JUMPDEST JUMPDEST PUSH1 0x0 PUSH2 0x5DD DUP6 DUP3 DUP7 ADD PUSH2 0x513 JUMP JUMPDEST SWAP3 POP POP PUSH1 0x20 PUSH2 0x5EE DUP6 DUP3 DUP7 ADD PUSH2 0x5A3 JUMP JUMPDEST SWAP2 POP POP SWAP3 POP SWAP3 SWAP1 POP JUMP JUMPDEST PUSH1 0x0 DUP1 PUSH1 0x0 PUSH1 0x60 DUP5 DUP7 SUB SLT ISZERO PUSH2 0x611 JUMPI PUSH2 0x610 PUSH2 0x4ED JUMP JUMPDEST JUMPDEST PUSH1 0x0 PUSH2 0x61F DUP7 DUP3 DUP8 ADD PUSH2 0x513 JUMP JUMPDEST SWAP4 POP POP PUSH1 0x20 PUSH2 0x630 DUP7 DUP3 DUP8 ADD PUSH2 0x513 JUMP JUMPDEST SWAP3 POP POP PUSH1 0x40 PUSH2 0x641 DUP7 DUP3 DUP8 ADD PUSH2 0x5A3 JUMP JUMPDEST SWAP2 POP POP SWAP3 POP SWAP3 POP SWAP3 JUMP JUMPDEST PUSH2 0x654 DUP2 PUSH2 0x4F2 JUMP JUMPDEST DUP3 MSTORE POP POP JUMP JUMPDEST PUSH1 0x0 PUSH1 0x20 DUP3 ADD SWAP1 POP PUSH2 0x66F PUSH1 0x0 DUP4 ADD DUP5 PUSH2 0x64B JUMP JUMPDEST SWAP3 SWAP2 POP POP JUMP JUMPDEST PUSH1 0x0 PUSH4 0xFFFFFFFF DUP3 AND SWAP1 POP SWAP2 SWAP1 POP JUMP JUMPDEST PUSH2 0x68E DUP2 PUSH2 0x675 JUMP JUMPDEST DUP3 MSTORE POP POP JUMP JUMPDEST PUSH1 0x0 PUSH1 0x20 DUP3 ADD SWAP1 POP PUSH2 0x6A9 PUSH1 0x0 DUP4 ADD DUP5 PUSH2 0x685 JUMP JUMPDEST SWAP3 SWAP2 POP POP JUMP JUMPDEST PUSH2 0x6B8 DUP2 PUSH2 0x675 JUMP JUMPDEST DUP2 EQ PUSH2 0x6C3 JUMPI PUSH1 0x0 DUP1 REVERT JUMPDEST POP JUMP JUMPDEST PUSH1 0x0 DUP2 CALLDATALOAD SWAP1 POP PUSH2 0x6D5 DUP2 PUSH2 0x6AF JUMP JUMPDEST SWAP3 SWAP2 POP POP JUMP JUMPDEST PUSH1 0x0 DUP1 PUSH1 0x40 DUP4 DUP6 SUB SLT ISZERO PUSH2 0x6F2 JUMPI PUSH2 0x6F1 PUSH2 0x4ED JUMP JUMPDEST JUMPDEST PUSH1 0x0 PUSH2 0x700 DUP6 DUP3 DUP7 ADD PUSH2 0x513 JUMP JUMPDEST SWAP3 POP POP PUSH1 0x20 PUSH2 0x711 DUP6 DUP3 DUP7 ADD PUSH2 0x6C6 JUMP JUMPDEST SWAP2 POP POP SWAP3 POP SWAP3 SWAP1 POP JUMP JUMPDEST PUSH32 0x4E487B7100000000000000000000000000000000000000000000000000000000 PUSH1 0x0 MSTORE PUSH1 0x11 PUSH1 0x4 MSTORE PUSH1 0x24 PUSH1 0x0 REVERT JUMPDEST PUSH1 0x0 PUSH2 0x755 DUP3 PUSH2 0x555 JUMP JUMPDEST SWAP2 POP PUSH2 0x760 DUP4 PUSH2 0x555 JUMP JUMPDEST SWAP3 POP DUP3 DUP3 MUL PUSH2 0x76E DUP2 PUSH2 0x555 JUMP JUMPDEST SWAP2 POP DUP1 DUP3 EQ PUSH2 0x780 JUMPI PUSH2 0x77F PUSH2 0x71B JUMP JUMPDEST JUMPDEST POP SWAP3 SWAP2 POP POP JUMP JUMPDEST PUSH1 0x0 PUSH2 0x792 DUP3 PUSH2 0x4F2 JUMP JUMPDEST SWAP2 POP PUSH2 0x79D DUP4 PUSH2 0x4F2 JUMP JUMPDEST SWAP3 POP DUP3 DUP3 ADD SWAP1 POP DUP1 DUP3 GT ISZERO PUSH2 0x7B5 JUMPI PUSH2 0x7B4 PUSH2 0x71B JUMP JUMPDEST JUMPDEST SWAP3 SWAP2 POP POP JUMP JUMPDEST PUSH1 0x0 PUSH2 0x7C6 DUP3 PUSH2 0x4F2 JUMP JUMPDEST SWAP2 POP PUSH2 0x7D1 DUP4 PUSH2 0x4F2 JUMP JUMPDEST SWAP3 POP DUP3 DUP3 MUL PUSH2 0x7DF DUP2 PUSH2 0x4F2 JUMP JUMPDEST SWAP2 POP DUP3 DUP3 DIV DUP5 EQ DUP4 ISZERO OR PUSH2 0x7F6 JUMPI PUSH2 0x7F5 PUSH2 0x71B JUMP JUMPDEST JUMPDEST POP SWAP3 SWAP2 POP POP JUMP INVALID LOG2 PUSH5 0x6970667358 0x22 SLT KECCAK256 0xB1 0xD 0xBE SLT 0xDE PUSH17 0x43DDD791AE311664D8FF64084EC03774C8 0xEB 0xD8 SWAP16 0x22 MSTORE8 BALANCE 0xA7 PUSH28 0x9A64736F6C6343000812003300000000000000000000000000000000 "
		},
		"gasEstimates": {
			"creation": {
				"codeDepositCost": "419800",
				"executionCost": "480",
				"totalCost": "420280"
			},
			"external": {
				"getArcane(uint256,uint8)": "infinite",
				"getCharges(uint256)": "608",
				"getGeneration(uint256)": "687",
				"getId(uint256,uint8)": "infinite",
				"getLevel(uint256,uint8)": "infinite",
				"setArcane(uint256,uint256,uint8)": "infinite",
				"setCharges(uint256,uint8)": "infinite",
				"setGeneration(uint256,uint32)": "infinite",
				"setId(uint256,uint256,uint8)": "infinite",
				"setLevel(uint256,uint256,uint8)": "infinite"
			}
		},
		"methodIdentifiers": {
			"getArcane(uint256,uint8)": "a5858693",
			"getCharges(uint256)": "0317f435",
			"getGeneration(uint256)": "56e3df97",
			"getId(uint256,uint8)": "5d2029f1",
			"getLevel(uint256,uint8)": "3499a7ea",
			"setArcane(uint256,uint256,uint8)": "55d6ed43",
			"setCharges(uint256,uint8)": "b52b6659",
			"setGeneration(uint256,uint32)": "8de97f4f",
			"setId(uint256,uint256,uint8)": "34a51d0f",
			"setLevel(uint256,uint256,uint8)": "e1b30ab7"
		}
	},
	"abi": [
		{
			"inputs": [
				{
					"internalType": "uint256",
					"name": "genes",
					"type": "uint256"
				},
				{
					"internalType": "uint8",
					"name": "partId",
					"type": "uint8"
				}
			],
			"name": "getArcane",
			"outputs": [
				{
					"internalType": "uint8",
					"name": "",
					"type": "uint8"
				}
			],
			"stateMutability": "pure",
			"type": "function"
		},
		{
			"inputs": [
				{
					"internalType": "uint256",
					"name": "genes",
					"type": "uint256"
				}
			],
			"name": "getCharges",
			"outputs": [
				{
					"internalType": "uint8",
					"name": "",
					"type": "uint8"
				}
			],
			"stateMutability": "pure",
			"type": "function"
		},
		{
			"inputs": [
				{
					"internalType": "uint256",
					"name": "genes",
					"type": "uint256"
				}
			],
			"name": "getGeneration",
			"outputs": [
				{
					"internalType": "uint32",
					"name": "",
					"type": "uint32"
				}
			],
			"stateMutability": "pure",
			"type": "function"
		},
		{
			"inputs": [
				{
					"internalType": "uint256",
					"name": "genes",
					"type": "uint256"
				},
				{
					"internalType": "uint8",
					"name": "partId",
					"type": "uint8"
				}
			],
			"name": "getId",
			"outputs": [
				{
					"internalType": "uint8",
					"name": "",
					"type": "uint8"
				}
			],
			"stateMutability": "pure",
			"type": "function"
		},
		{
			"inputs": [
				{
					"internalType": "uint256",
					"name": "genes",
					"type": "uint256"
				},
				{
					"internalType": "uint8",
					"name": "partId",
					"type": "uint8"
				}
			],
			"name": "getLevel",
			"outputs": [
				{
					"internalType": "uint8",
					"name": "",
					"type": "uint8"
				}
			],
			"stateMutability": "pure",
			"type": "function"
		},
		{
			"inputs": [
				{
					"internalType": "uint256",
					"name": "genes",
					"type": "uint256"
				},
				{
					"internalType": "uint256",
					"name": "partId",
					"type": "uint256"
				},
				{
					"internalType": "uint8",
					"name": "arcane",
					"type": "uint8"
				}
			],
			"name": "setArcane",
			"outputs": [
				{
					"internalType": "uint256",
					"name": "",
					"type": "uint256"
				}
			],
			"stateMutability": "pure",
			"type": "function"
		},
		{
			"inputs": [
				{
					"internalType": "uint256",
					"name": "genes",
					"type": "uint256"
				},
				{
					"internalType": "uint8",
					"name": "charges",
					"type": "uint8"
				}
			],
			"name": "setCharges",
			"outputs": [
				{
					"internalType": "uint256",
					"name": "",
					"type": "uint256"
				}
			],
			"stateMutability": "pure",
			"type": "function"
		},
		{
			"inputs": [
				{
					"internalType": "uint256",
					"name": "genes",
					"type": "uint256"
				},
				{
					"internalType": "uint32",
					"name": "generation",
					"type": "uint32"
				}
			],
			"name": "setGeneration",
			"outputs": [
				{
					"internalType": "uint256",
					"name": "",
					"type": "uint256"
				}
			],
			"stateMutability": "pure",
			"type": "function"
		},
		{
			"inputs": [
				{
					"internalType": "uint256",
					"name": "genes",
					"type": "uint256"
				},
				{
					"internalType": "uint256",
					"name": "partId",
					"type": "uint256"
				},
				{
					"internalType": "uint8",
					"name": "id",
					"type": "uint8"
				}
			],
			"name": "setId",
			"outputs": [
				{
					"internalType": "uint256",
					"name": "",
					"type": "uint256"
				}
			],
			"stateMutability": "pure",
			"type": "function"
		},
		{
			"inputs": [
				{
					"internalType": "uint256",
					"name": "genes",
					"type": "uint256"
				},
				{
					"internalType": "uint256",
					"name": "partId",
					"type": "uint256"
				},
				{
					"internalType": "uint8",
					"name": "level",
					"type": "uint8"
				}
			],
			"name": "setLevel",
			"outputs": [
				{
					"internalType": "uint256",
					"name": "",
					"type": "uint256"
				}
			],
			"stateMutability": "pure",
			"type": "function"
		}
	]
}