{
	"data": {
		"bytecode": {
			"linkReferences": {
				"contracts/common/GenesUtil.sol": {
					"GenesUtil": [
						{
							"length": 20,
							"start": 968
						},
						{
							"length": 20,
							"start": 1084
						},
						{
							"length": 20,
							"start": 1459
						},
						{
							"length": 20,
							"start": 1591
						},
						{
							"length": 20,
							"start": 1727
						},
						{
							"length": 20,
							"start": 1862
						},
						{
							"length": 20,
							"start": 1960
						},
						{
							"length": 20,
							"start": 2172
						},
						{
							"length": 20,
							"start": 2298
						}
					]
				}
			},
			"object": "60806040526001805560056002556001600355601e6004556001600555602460065534801561002d57600080fd5b506100373361003c565b61008c565b600080546001600160a01b038381166001600160a01b0319831681178455604051919092169283917f8be0079c531659141344cd1fd0a4f28419497f9722a3daafe3b4186f6b6457e09190a35050565b610c8c8061009b6000396000f3fe608060405234801561001057600080fd5b50600436106101005760003560e01c80638da5cb5b11610097578063e2e3a0db11610066578063e2e3a0db146101c0578063e4a13fb7146101d3578063eb4b0e51146101e6578063f2fde38b146101ee57600080fd5b80638da5cb5b1461018257806391b667251461019d578063d477a712146101b0578063e238b8c6146101b857600080fd5b806332099cc4116100d357806332099cc414610153578063615ebe281461016a578063715018a614610172578063878cf3a61461017a57600080fd5b806302aff37814610105578063054fee6a1461011a57806316bd86461461012d5780631bb39f8414610140575b600080fd5b610118610113366004610a79565b610201565b005b610118610128366004610a79565b61020e565b61011861013b366004610a79565b61021b565b61011861014e366004610a79565b610228565b6003545b6040519081526020015b60405180910390f35b600454610157565b610118610235565b600154610157565b6000546040516001600160a01b039091168152602001610161565b6101186101ab366004610a79565b610249565b600654610157565b600254610157565b6101186101ce366004610a79565b610256565b6101576101e1366004610a92565b610263565b600554610157565b6101186101fc366004610ab4565b6108cb565b610209610944565b600155565b610216610944565b600255565b610223610944565b600655565b610230610944565b600455565b61023d610944565b610247600061099e565b565b610251610944565b600355565b61025e610944565b600555565b600154604080514260208083019190915243828401524460608301526080820186905260a0820185905260c0808301949094528251808303909401845260e090910190915281519101206000908082036102fc5760405162461bcd60e51b8152602060048201526015602482015274072616e646f6d536565642063616e2774206265203605c1b60448201526064015b60405180910390fd5b6001805490600061030c83610afa565b90915550506040516356e3df9760e01b81526004810184905260009060029073__$bc34c519aa7d1b67b54ee96cd6fbdfb8db$__906356e3df9790602401602060405180830381865af4158015610367573d6000803e3d6000fd5b505050506040513d601f19601f8201168201806040525081019061038b9190610b13565b6040516356e3df9760e01b81526004810188905273__$bc34c519aa7d1b67b54ee96cd6fbdfb8db$__906356e3df9790602401602060405180830381865af41580156103db573d6000803e3d6000fd5b505050506040513d601f19601f820116820180604052508101906103ff9190610b13565b6104099190610b39565b6104139190610b73565b61041e906001610b39565b90506009600080805b8360ff168160ff1610156107be57600061044e8663ffffffff1660035460045460646109ee565b9050600061047b600154868061046390610afa565b9750600060045460646104769190610b96565b610a2a565b600180549184101592509061049f908761049481610afa565b985060006064610a2a565b600254106104d6576104cc60015487806104b890610afa565b985060055460065460016104769190610bad565b60ff1690506105fd565b60326104f460015488806104e990610afa565b995060006064610a2a565b1061057d57604051635d2029f160e01b8152600481018c905260ff8516602482015273__$bc34c519aa7d1b67b54ee96cd6fbdfb8db$__90635d2029f190604401602060405180830381865af4158015610552573d6000803e3d6000fd5b505050506040513d601f19601f820116820180604052508101906105769190610bc0565b90506105fd565b604051635d2029f160e01b8152600481018d905260ff8516602482015273__$bc34c519aa7d1b67b54ee96cd6fbdfb8db$__90635d2029f190604401602060405180830381865af41580156105d6573d6000803e3d6000fd5b505050506040513d601f19601f820116820180604052508101906105fa9190610bc0565b90505b6040516334a51d0f60e01b81526004810186905260ff80861660248301528216604482015273__$bc34c519aa7d1b67b54ee96cd6fbdfb8db$__906334a51d0f90606401602060405180830381865af415801561065e573d6000803e3d6000fd5b505050506040513d601f19601f820116820180604052508101906106829190610be3565b60405163e1b30ab760e01b81526004810182905260ff861660248201526001604482015290955073__$bc34c519aa7d1b67b54ee96cd6fbdfb8db$__9063e1b30ab790606401602060405180830381865af41580156106e5573d6000803e3d6000fd5b505050506040513d601f19601f820116820180604052508101906107099190610be3565b945073__$bc34c519aa7d1b67b54ee96cd6fbdfb8db$__6355d6ed43868685610733576000610736565b60015b6040516001600160e01b031960e086901b168152600481019390935260ff9182166024840152166044820152606401602060405180830381865af4158015610782573d6000803e3d6000fd5b505050506040513d601f19601f820116820180604052508101906107a69190610be3565b945050505080806107b690610bfc565b915050610427565b50604051638de97f4f60e01b81526004810182905263ffffffff8516602482015273__$bc34c519aa7d1b67b54ee96cd6fbdfb8db$__90638de97f4f90604401602060405180830381865af415801561081b573d6000803e3d6000fd5b505050506040513d601f19601f8201168201806040525081019061083f9190610be3565b60405163b52b665960e01b8152600481018290526001602482015290915073__$bc34c519aa7d1b67b54ee96cd6fbdfb8db$__9063b52b665990604401602060405180830381865af4158015610899573d6000803e3d6000fd5b505050506040513d601f19601f820116820180604052508101906108bd9190610be3565b955050505050505b92915050565b6108d3610944565b6001600160a01b0381166109385760405162461bcd60e51b815260206004820152602660248201527f4f776e61626c653a206e6577206f776e657220697320746865207a65726f206160448201526564647265737360d01b60648201526084016102f3565b6109418161099e565b50565b6000546001600160a01b031633146102475760405162461bcd60e51b815260206004820181905260248201527f4f776e61626c653a2063616c6c6572206973206e6f7420746865206f776e657260448201526064016102f3565b600080546001600160a01b038381166001600160a01b0319831681178455604051919092169283917f8be0079c531659141344cd1fd0a4f28419497f9722a3daafe3b4186f6b6457e09190a35050565b60008385116109ff57506000610a22565b8282610a0b8688610c1b565b610a159190610b96565b610a1f9190610c2e565b90505b949350505050565b6000610a368383610c1b565b60408051602081018890529081018690526060016040516020818303038152906040528051906020012060001c610a6d9190610c42565b9050610a1f8184610bad565b600060208284031215610a8b57600080fd5b5035919050565b60008060408385031215610aa557600080fd5b50508035926020909101359150565b600060208284031215610ac657600080fd5b81356001600160a01b0381168114610add57600080fd5b9392505050565b634e487b7160e01b600052601160045260246000fd5b600060018201610b0c57610b0c610ae4565b5060010190565b600060208284031215610b2557600080fd5b815163ffffffff81168114610add57600080fd5b63ffffffff818116838216019080821115610b5657610b56610ae4565b5092915050565b634e487b7160e01b600052601260045260246000fd5b600063ffffffff80841680610b8a57610b8a610b5d565b92169190910492915050565b80820281158282048414176108c5576108c5610ae4565b808201808211156108c5576108c5610ae4565b600060208284031215610bd257600080fd5b815160ff81168114610add57600080fd5b600060208284031215610bf557600080fd5b5051919050565b600060ff821660ff8103610c1257610c12610ae4565b60010192915050565b818103818111156108c5576108c5610ae4565b600082610c3d57610c3d610b5d565b500490565b600082610c5157610c51610b5d565b50069056fea2646970667358221220c0f304bfe4ca8b5a7559f1d213c19c1238c65ededfd4c033b4d8cc1d60bbe89864736f6c63430008120033",
			"opcodes": "PUSH1 0x80 PUSH1 0x40 MSTORE PUSH1 0x1 DUP1 SSTORE PUSH1 0x5 PUSH1 0x2 SSTORE PUSH1 0x1 PUSH1 0x3 SSTORE PUSH1 0x1E PUSH1 0x4 SSTORE PUSH1 0x1 PUSH1 0x5 SSTORE PUSH1 0x24 PUSH1 0x6 SSTORE CALLVALUE DUP1 ISZERO PUSH2 0x2D JUMPI PUSH1 0x0 DUP1 REVERT JUMPDEST POP PUSH2 0x37 CALLER PUSH2 0x3C JUMP JUMPDEST PUSH2 0x8C JUMP JUMPDEST PUSH1 0x0 DUP1 SLOAD PUSH1 0x1 PUSH1 0x1 PUSH1 0xA0 SHL SUB DUP4 DUP2 AND PUSH1 0x1 PUSH1 0x1 PUSH1 0xA0 SHL SUB NOT DUP4 AND DUP2 OR DUP5 SSTORE PUSH1 0x40 MLOAD SWAP2 SWAP1 SWAP3 AND SWAP3 DUP4 SWAP2 PUSH32 0x8BE0079C531659141344CD1FD0A4F28419497F9722A3DAAFE3B4186F6B6457E0 SWAP2 SWAP1 LOG3 POP POP JUMP JUMPDEST PUSH2 0xC8C DUP1 PUSH2 0x9B PUSH1 0x0 CODECOPY PUSH1 0x0 RETURN INVALID PUSH1 0x80 PUSH1 0x40 MSTORE CALLVALUE DUP1 ISZERO PUSH2 0x10 JUMPI PUSH1 0x0 DUP1 REVERT JUMPDEST POP PUSH1 0x4 CALLDATASIZE LT PUSH2 0x100 JUMPI PUSH1 0x0 CALLDATALOAD PUSH1 0xE0 SHR DUP1 PUSH4 0x8DA5CB5B GT PUSH2 0x97 JUMPI DUP1 PUSH4 0xE2E3A0DB GT PUSH2 0x66 JUMPI DUP1 PUSH4 0xE2E3A0DB EQ PUSH2 0x1C0 JUMPI DUP1 PUSH4 0xE4A13FB7 EQ PUSH2 0x1D3 JUMPI DUP1 PUSH4 0xEB4B0E51 EQ PUSH2 0x1E6 JUMPI DUP1 PUSH4 0xF2FDE38B EQ PUSH2 0x1EE JUMPI PUSH1 0x0 DUP1 REVERT JUMPDEST DUP1 PUSH4 0x8DA5CB5B EQ PUSH2 0x182 JUMPI DUP1 PUSH4 0x91B66725 EQ PUSH2 0x19D JUMPI DUP1 PUSH4 0xD477A712 EQ PUSH2 0x1B0 JUMPI DUP1 PUSH4 0xE238B8C6 EQ PUSH2 0x1B8 JUMPI PUSH1 0x0 DUP1 REVERT JUMPDEST DUP1 PUSH4 0x32099CC4 GT PUSH2 0xD3 JUMPI DUP1 PUSH4 0x32099CC4 EQ PUSH2 0x153 JUMPI DUP1 PUSH4 0x615EBE28 EQ PUSH2 0x16A JUMPI DUP1 PUSH4 0x715018A6 EQ PUSH2 0x172 JUMPI DUP1 PUSH4 0x878CF3A6 EQ PUSH2 0x17A JUMPI PUSH1 0x0 DUP1 REVERT JUMPDEST DUP1 PUSH4 0x2AFF378 EQ PUSH2 0x105 JUMPI DUP1 PUSH4 0x54FEE6A EQ PUSH2 0x11A JUMPI DUP1 PUSH4 0x16BD8646 EQ PUSH2 0x12D JUMPI DUP1 PUSH4 0x1BB39F84 EQ PUSH2 0x140 JUMPI JUMPDEST PUSH1 0x0 DUP1 REVERT JUMPDEST PUSH2 0x118 PUSH2 0x113 CALLDATASIZE PUSH1 0x4 PUSH2 0xA79 JUMP JUMPDEST PUSH2 0x201 JUMP JUMPDEST STOP JUMPDEST PUSH2 0x118 PUSH2 0x128 CALLDATASIZE PUSH1 0x4 PUSH2 0xA79 JUMP JUMPDEST PUSH2 0x20E JUMP JUMPDEST PUSH2 0x118 PUSH2 0x13B CALLDATASIZE PUSH1 0x4 PUSH2 0xA79 JUMP JUMPDEST PUSH2 0x21B JUMP JUMPDEST PUSH2 0x118 PUSH2 0x14E CALLDATASIZE PUSH1 0x4 PUSH2 0xA79 JUMP JUMPDEST PUSH2 0x228 JUMP JUMPDEST PUSH1 0x3 SLOAD JUMPDEST PUSH1 0x40 MLOAD SWAP1 DUP2 MSTORE PUSH1 0x20 ADD JUMPDEST PUSH1 0x40 MLOAD DUP1 SWAP2 SUB SWAP1 RETURN JUMPDEST PUSH1 0x4 SLOAD PUSH2 0x157 JUMP JUMPDEST PUSH2 0x118 PUSH2 0x235 JUMP JUMPDEST PUSH1 0x1 SLOAD PUSH2 0x157 JUMP JUMPDEST PUSH1 0x0 SLOAD PUSH1 0x40 MLOAD PUSH1 0x1 PUSH1 0x1 PUSH1 0xA0 SHL SUB SWAP1 SWAP2 AND DUP2 MSTORE PUSH1 0x20 ADD PUSH2 0x161 JUMP JUMPDEST PUSH2 0x118 PUSH2 0x1AB CALLDATASIZE PUSH1 0x4 PUSH2 0xA79 JUMP JUMPDEST PUSH2 0x249 JUMP JUMPDEST PUSH1 0x6 SLOAD PUSH2 0x157 JUMP JUMPDEST PUSH1 0x2 SLOAD PUSH2 0x157 JUMP JUMPDEST PUSH2 0x118 PUSH2 0x1CE CALLDATASIZE PUSH1 0x4 PUSH2 0xA79 JUMP JUMPDEST PUSH2 0x256 JUMP JUMPDEST PUSH2 0x157 PUSH2 0x1E1 CALLDATASIZE PUSH1 0x4 PUSH2 0xA92 JUMP JUMPDEST PUSH2 0x263 JUMP JUMPDEST PUSH1 0x5 SLOAD PUSH2 0x157 JUMP JUMPDEST PUSH2 0x118 PUSH2 0x1FC CALLDATASIZE PUSH1 0x4 PUSH2 0xAB4 JUMP JUMPDEST PUSH2 0x8CB JUMP JUMPDEST PUSH2 0x209 PUSH2 0x944 JUMP JUMPDEST PUSH1 0x1 SSTORE JUMP JUMPDEST PUSH2 0x216 PUSH2 0x944 JUMP JUMPDEST PUSH1 0x2 SSTORE JUMP JUMPDEST PUSH2 0x223 PUSH2 0x944 JUMP JUMPDEST PUSH1 0x6 SSTORE JUMP JUMPDEST PUSH2 0x230 PUSH2 0x944 JUMP JUMPDEST PUSH1 0x4 SSTORE JUMP JUMPDEST PUSH2 0x23D PUSH2 0x944 JUMP JUMPDEST PUSH2 0x247 PUSH1 0x0 PUSH2 0x99E JUMP JUMPDEST JUMP JUMPDEST PUSH2 0x251 PUSH2 0x944 JUMP JUMPDEST PUSH1 0x3 SSTORE JUMP JUMPDEST PUSH2 0x25E PUSH2 0x944 JUMP JUMPDEST PUSH1 0x5 SSTORE JUMP JUMPDEST PUSH1 0x1 SLOAD PUSH1 0x40 DUP1 MLOAD TIMESTAMP PUSH1 0x20 DUP1 DUP4 ADD SWAP2 SWAP1 SWAP2 MSTORE NUMBER DUP3 DUP5 ADD MSTORE PREVRANDAO PUSH1 0x60 DUP4 ADD MSTORE PUSH1 0x80 DUP3 ADD DUP7 SWAP1 MSTORE PUSH1 0xA0 DUP3 ADD DUP6 SWAP1 MSTORE PUSH1 0xC0 DUP1 DUP4 ADD SWAP5 SWAP1 SWAP5 MSTORE DUP3 MLOAD DUP1 DUP4 SUB SWAP1 SWAP5 ADD DUP5 MSTORE PUSH1 0xE0 SWAP1 SWAP2 ADD SWAP1 SWAP2 MSTORE DUP2 MLOAD SWAP2 ADD KECCAK256 PUSH1 0x0 SWAP1 DUP1 DUP3 SUB PUSH2 0x2FC JUMPI PUSH1 0x40 MLOAD PUSH3 0x461BCD PUSH1 0xE5 SHL DUP2 MSTORE PUSH1 0x20 PUSH1 0x4 DUP3 ADD MSTORE PUSH1 0x15 PUSH1 0x24 DUP3 ADD MSTORE PUSH21 0x72616E646F6D536565642063616E2774206265203 PUSH1 0x5C SHL PUSH1 0x44 DUP3 ADD MSTORE PUSH1 0x64 ADD JUMPDEST PUSH1 0x40 MLOAD DUP1 SWAP2 SUB SWAP1 REVERT JUMPDEST PUSH1 0x1 DUP1 SLOAD SWAP1 PUSH1 0x0 PUSH2 0x30C DUP4 PUSH2 0xAFA JUMP JUMPDEST SWAP1 SWAP2 SSTORE POP POP PUSH1 0x40 MLOAD PUSH4 0x56E3DF97 PUSH1 0xE0 SHL DUP2 MSTORE PUSH1 0x4 DUP2 ADD DUP5 SWAP1 MSTORE PUSH1 0x0 SWAP1 PUSH1 0x2 SWAP1 PUSH20 0x0 SWAP1 PUSH4 0x56E3DF97 SWAP1 PUSH1 0x24 ADD PUSH1 0x20 PUSH1 0x40 MLOAD DUP1 DUP4 SUB DUP2 DUP7 GAS DELEGATECALL ISZERO DUP1 ISZERO PUSH2 0x367 JUMPI RETURNDATASIZE PUSH1 0x0 DUP1 RETURNDATACOPY RETURNDATASIZE PUSH1 0x0 REVERT JUMPDEST POP POP POP POP PUSH1 0x40 MLOAD RETURNDATASIZE PUSH1 0x1F NOT PUSH1 0x1F DUP3 ADD AND DUP3 ADD DUP1 PUSH1 0x40 MSTORE POP DUP2 ADD SWAP1 PUSH2 0x38B SWAP2 SWAP1 PUSH2 0xB13 JUMP JUMPDEST PUSH1 0x40 MLOAD PUSH4 0x56E3DF97 PUSH1 0xE0 SHL DUP2 MSTORE PUSH1 0x4 DUP2 ADD DUP9 SWAP1 MSTORE PUSH20 0x0 SWAP1 PUSH4 0x56E3DF97 SWAP1 PUSH1 0x24 ADD PUSH1 0x20 PUSH1 0x40 MLOAD DUP1 DUP4 SUB DUP2 DUP7 GAS DELEGATECALL ISZERO DUP1 ISZERO PUSH2 0x3DB JUMPI RETURNDATASIZE PUSH1 0x0 DUP1 RETURNDATACOPY RETURNDATASIZE PUSH1 0x0 REVERT JUMPDEST POP POP POP POP PUSH1 0x40 MLOAD RETURNDATASIZE PUSH1 0x1F NOT PUSH1 0x1F DUP3 ADD AND DUP3 ADD DUP1 PUSH1 0x40 MSTORE POP DUP2 ADD SWAP1 PUSH2 0x3FF SWAP2 SWAP1 PUSH2 0xB13 JUMP JUMPDEST PUSH2 0x409 SWAP2 SWAP1 PUSH2 0xB39 JUMP JUMPDEST PUSH2 0x413 SWAP2 SWAP1 PUSH2 0xB73 JUMP JUMPDEST PUSH2 0x41E SWAP1 PUSH1 0x1 PUSH2 0xB39 JUMP JUMPDEST SWAP1 POP PUSH1 0x9 PUSH1 0x0 DUP1 DUP1 JUMPDEST DUP4 PUSH1 0xFF AND DUP2 PUSH1 0xFF AND LT ISZERO PUSH2 0x7BE JUMPI PUSH1 0x0 PUSH2 0x44E DUP7 PUSH4 0xFFFFFFFF AND PUSH1 0x3 SLOAD PUSH1 0x4 SLOAD PUSH1 0x64 PUSH2 0x9EE JUMP JUMPDEST SWAP1 POP PUSH1 0x0 PUSH2 0x47B PUSH1 0x1 SLOAD DUP7 DUP1 PUSH2 0x463 SWAP1 PUSH2 0xAFA JUMP JUMPDEST SWAP8 POP PUSH1 0x0 PUSH1 0x4 SLOAD PUSH1 0x64 PUSH2 0x476 SWAP2 SWAP1 PUSH2 0xB96 JUMP JUMPDEST PUSH2 0xA2A JUMP JUMPDEST PUSH1 0x1 DUP1 SLOAD SWAP2 DUP5 LT ISZERO SWAP3 POP SWAP1 PUSH2 0x49F SWAP1 DUP8 PUSH2 0x494 DUP2 PUSH2 0xAFA JUMP JUMPDEST SWAP9 POP PUSH1 0x0 PUSH1 0x64 PUSH2 0xA2A JUMP JUMPDEST PUSH1 0x2 SLOAD LT PUSH2 0x4D6 JUMPI PUSH2 0x4CC PUSH1 0x1 SLOAD DUP8 DUP1 PUSH2 0x4B8 SWAP1 PUSH2 0xAFA JUMP JUMPDEST SWAP9 POP PUSH1 0x5 SLOAD PUSH1 0x6 SLOAD PUSH1 0x1 PUSH2 0x476 SWAP2 SWAP1 PUSH2 0xBAD JUMP JUMPDEST PUSH1 0xFF AND SWAP1 POP PUSH2 0x5FD JUMP JUMPDEST PUSH1 0x32 PUSH2 0x4F4 PUSH1 0x1 SLOAD DUP9 DUP1 PUSH2 0x4E9 SWAP1 PUSH2 0xAFA JUMP JUMPDEST SWAP10 POP PUSH1 0x0 PUSH1 0x64 PUSH2 0xA2A JUMP JUMPDEST LT PUSH2 0x57D JUMPI PUSH1 0x40 MLOAD PUSH4 0x5D2029F1 PUSH1 0xE0 SHL DUP2 MSTORE PUSH1 0x4 DUP2 ADD DUP13 SWAP1 MSTORE PUSH1 0xFF DUP6 AND PUSH1 0x24 DUP3 ADD MSTORE PUSH20 0x0 SWAP1 PUSH4 0x5D2029F1 SWAP1 PUSH1 0x44 ADD PUSH1 0x20 PUSH1 0x40 MLOAD DUP1 DUP4 SUB DUP2 DUP7 GAS DELEGATECALL ISZERO DUP1 ISZERO PUSH2 0x552 JUMPI RETURNDATASIZE PUSH1 0x0 DUP1 RETURNDATACOPY RETURNDATASIZE PUSH1 0x0 REVERT JUMPDEST POP POP POP POP PUSH1 0x40 MLOAD RETURNDATASIZE PUSH1 0x1F NOT PUSH1 0x1F DUP3 ADD AND DUP3 ADD DUP1 PUSH1 0x40 MSTORE POP DUP2 ADD SWAP1 PUSH2 0x576 SWAP2 SWAP1 PUSH2 0xBC0 JUMP JUMPDEST SWAP1 POP PUSH2 0x5FD JUMP JUMPDEST PUSH1 0x40 MLOAD PUSH4 0x5D2029F1 PUSH1 0xE0 SHL DUP2 MSTORE PUSH1 0x4 DUP2 ADD DUP14 SWAP1 MSTORE PUSH1 0xFF DUP6 AND PUSH1 0x24 DUP3 ADD MSTORE PUSH20 0x0 SWAP1 PUSH4 0x5D2029F1 SWAP1 PUSH1 0x44 ADD PUSH1 0x20 PUSH1 0x40 MLOAD DUP1 DUP4 SUB DUP2 DUP7 GAS DELEGATECALL ISZERO DUP1 ISZERO PUSH2 0x5D6 JUMPI RETURNDATASIZE PUSH1 0x0 DUP1 RETURNDATACOPY RETURNDATASIZE PUSH1 0x0 REVERT JUMPDEST POP POP POP POP PUSH1 0x40 MLOAD RETURNDATASIZE PUSH1 0x1F NOT PUSH1 0x1F DUP3 ADD AND DUP3 ADD DUP1 PUSH1 0x40 MSTORE POP DUP2 ADD SWAP1 PUSH2 0x5FA SWAP2 SWAP1 PUSH2 0xBC0 JUMP JUMPDEST SWAP1 POP JUMPDEST PUSH1 0x40 MLOAD PUSH4 0x34A51D0F PUSH1 0xE0 SHL DUP2 MSTORE PUSH1 0x4 DUP2 ADD DUP7 SWAP1 MSTORE PUSH1 0xFF DUP1 DUP7 AND PUSH1 0x24 DUP4 ADD MSTORE DUP3 AND PUSH1 0x44 DUP3 ADD MSTORE PUSH20 0x0 SWAP1 PUSH4 0x34A51D0F SWAP1 PUSH1 0x64 ADD PUSH1 0x20 PUSH1 0x40 MLOAD DUP1 DUP4 SUB DUP2 DUP7 GAS DELEGATECALL ISZERO DUP1 ISZERO PUSH2 0x65E JUMPI RETURNDATASIZE PUSH1 0x0 DUP1 RETURNDATACOPY RETURNDATASIZE PUSH1 0x0 REVERT JUMPDEST POP POP POP POP PUSH1 0x40 MLOAD RETURNDATASIZE PUSH1 0x1F NOT PUSH1 0x1F DUP3 ADD AND DUP3 ADD DUP1 PUSH1 0x40 MSTORE POP DUP2 ADD SWAP1 PUSH2 0x682 SWAP2 SWAP1 PUSH2 0xBE3 JUMP JUMPDEST PUSH1 0x40 MLOAD PUSH4 0xE1B30AB7 PUSH1 0xE0 SHL DUP2 MSTORE PUSH1 0x4 DUP2 ADD DUP3 SWAP1 MSTORE PUSH1 0xFF DUP7 AND PUSH1 0x24 DUP3 ADD MSTORE PUSH1 0x1 PUSH1 0x44 DUP3 ADD MSTORE SWAP1 SWAP6 POP PUSH20 0x0 SWAP1 PUSH4 0xE1B30AB7 SWAP1 PUSH1 0x64 ADD PUSH1 0x20 PUSH1 0x40 MLOAD DUP1 DUP4 SUB DUP2 DUP7 GAS DELEGATECALL ISZERO DUP1 ISZERO PUSH2 0x6E5 JUMPI RETURNDATASIZE PUSH1 0x0 DUP1 RETURNDATACOPY RETURNDATASIZE PUSH1 0x0 REVERT JUMPDEST POP POP POP POP PUSH1 0x40 MLOAD RETURNDATASIZE PUSH1 0x1F NOT PUSH1 0x1F DUP3 ADD AND DUP3 ADD DUP1 PUSH1 0x40 MSTORE POP DUP2 ADD SWAP1 PUSH2 0x709 SWAP2 SWAP1 PUSH2 0xBE3 JUMP JUMPDEST SWAP5 POP PUSH20 0x0 PUSH4 0x55D6ED43 DUP7 DUP7 DUP6 PUSH2 0x733 JUMPI PUSH1 0x0 PUSH2 0x736 JUMP JUMPDEST PUSH1 0x1 JUMPDEST PUSH1 0x40 MLOAD PUSH1 0x1 PUSH1 0x1 PUSH1 0xE0 SHL SUB NOT PUSH1 0xE0 DUP7 SWAP1 SHL AND DUP2 MSTORE PUSH1 0x4 DUP2 ADD SWAP4 SWAP1 SWAP4 MSTORE PUSH1 0xFF SWAP2 DUP3 AND PUSH1 0x24 DUP5 ADD MSTORE AND PUSH1 0x44 DUP3 ADD MSTORE PUSH1 0x64 ADD PUSH1 0x20 PUSH1 0x40 MLOAD DUP1 DUP4 SUB DUP2 DUP7 GAS DELEGATECALL ISZERO DUP1 ISZERO PUSH2 0x782 JUMPI RETURNDATASIZE PUSH1 0x0 DUP1 RETURNDATACOPY RETURNDATASIZE PUSH1 0x0 REVERT JUMPDEST POP POP POP POP PUSH1 0x40 MLOAD RETURNDATASIZE PUSH1 0x1F NOT PUSH1 0x1F DUP3 ADD AND DUP3 ADD DUP1 PUSH1 0x40 MSTORE POP DUP2 ADD SWAP1 PUSH2 0x7A6 SWAP2 SWAP1 PUSH2 0xBE3 JUMP JUMPDEST SWAP5 POP POP POP POP DUP1 DUP1 PUSH2 0x7B6 SWAP1 PUSH2 0xBFC JUMP JUMPDEST SWAP2 POP POP PUSH2 0x427 JUMP JUMPDEST POP PUSH1 0x40 MLOAD PUSH4 0x8DE97F4F PUSH1 0xE0 SHL DUP2 MSTORE PUSH1 0x4 DUP2 ADD DUP3 SWAP1 MSTORE PUSH4 0xFFFFFFFF DUP6 AND PUSH1 0x24 DUP3 ADD MSTORE PUSH20 0x0 SWAP1 PUSH4 0x8DE97F4F SWAP1 PUSH1 0x44 ADD PUSH1 0x20 PUSH1 0x40 MLOAD DUP1 DUP4 SUB DUP2 DUP7 GAS DELEGATECALL ISZERO DUP1 ISZERO PUSH2 0x81B JUMPI RETURNDATASIZE PUSH1 0x0 DUP1 RETURNDATACOPY RETURNDATASIZE PUSH1 0x0 REVERT JUMPDEST POP POP POP POP PUSH1 0x40 MLOAD RETURNDATASIZE PUSH1 0x1F NOT PUSH1 0x1F DUP3 ADD AND DUP3 ADD DUP1 PUSH1 0x40 MSTORE POP DUP2 ADD SWAP1 PUSH2 0x83F SWAP2 SWAP1 PUSH2 0xBE3 JUMP JUMPDEST PUSH1 0x40 MLOAD PUSH4 0xB52B6659 PUSH1 0xE0 SHL DUP2 MSTORE PUSH1 0x4 DUP2 ADD DUP3 SWAP1 MSTORE PUSH1 0x1 PUSH1 0x24 DUP3 ADD MSTORE SWAP1 SWAP2 POP PUSH20 0x0 SWAP1 PUSH4 0xB52B6659 SWAP1 PUSH1 0x44 ADD PUSH1 0x20 PUSH1 0x40 MLOAD DUP1 DUP4 SUB DUP2 DUP7 GAS DELEGATECALL ISZERO DUP1 ISZERO PUSH2 0x899 JUMPI RETURNDATASIZE PUSH1 0x0 DUP1 RETURNDATACOPY RETURNDATASIZE PUSH1 0x0 REVERT JUMPDEST POP POP POP POP PUSH1 0x40 MLOAD RETURNDATASIZE PUSH1 0x1F NOT PUSH1 0x1F DUP3 ADD AND DUP3 ADD DUP1 PUSH1 0x40 MSTORE POP DUP2 ADD SWAP1 PUSH2 0x8BD SWAP2 SWAP1 PUSH2 0xBE3 JUMP JUMPDEST SWAP6 POP POP POP POP POP POP JUMPDEST SWAP3 SWAP2 POP POP JUMP JUMPDEST PUSH2 0x8D3 PUSH2 0x944 JUMP JUMPDEST PUSH1 0x1 PUSH1 0x1 PUSH1 0xA0 SHL SUB DUP2 AND PUSH2 0x938 JUMPI PUSH1 0x40 MLOAD PUSH3 0x461BCD PUSH1 0xE5 SHL DUP2 MSTORE PUSH1 0x20 PUSH1 0x4 DUP3 ADD MSTORE PUSH1 0x26 PUSH1 0x24 DUP3 ADD MSTORE PUSH32 0x4F776E61626C653A206E6577206F776E657220697320746865207A65726F2061 PUSH1 0x44 DUP3 ADD MSTORE PUSH6 0x646472657373 PUSH1 0xD0 SHL PUSH1 0x64 DUP3 ADD MSTORE PUSH1 0x84 ADD PUSH2 0x2F3 JUMP JUMPDEST PUSH2 0x941 DUP2 PUSH2 0x99E JUMP JUMPDEST POP JUMP JUMPDEST PUSH1 0x0 SLOAD PUSH1 0x1 PUSH1 0x1 PUSH1 0xA0 SHL SUB AND CALLER EQ PUSH2 0x247 JUMPI PUSH1 0x40 MLOAD PUSH3 0x461BCD PUSH1 0xE5 SHL DUP2 MSTORE PUSH1 0x20 PUSH1 0x4 DUP3 ADD DUP2 SWAP1 MSTORE PUSH1 0x24 DUP3 ADD MSTORE PUSH32 0x4F776E61626C653A2063616C6C6572206973206E6F7420746865206F776E6572 PUSH1 0x44 DUP3 ADD MSTORE PUSH1 0x64 ADD PUSH2 0x2F3 JUMP JUMPDEST PUSH1 0x0 DUP1 SLOAD PUSH1 0x1 PUSH1 0x1 PUSH1 0xA0 SHL SUB DUP4 DUP2 AND PUSH1 0x1 PUSH1 0x1 PUSH1 0xA0 SHL SUB NOT DUP4 AND DUP2 OR DUP5 SSTORE PUSH1 0x40 MLOAD SWAP2 SWAP1 SWAP3 AND SWAP3 DUP4 SWAP2 PUSH32 0x8BE0079C531659141344CD1FD0A4F28419497F9722A3DAAFE3B4186F6B6457E0 SWAP2 SWAP1 LOG3 POP POP JUMP JUMPDEST PUSH1 0x0 DUP4 DUP6 GT PUSH2 0x9FF JUMPI POP PUSH1 0x0 PUSH2 0xA22 JUMP JUMPDEST DUP3 DUP3 PUSH2 0xA0B DUP7 DUP9 PUSH2 0xC1B JUMP JUMPDEST PUSH2 0xA15 SWAP2 SWAP1 PUSH2 0xB96 JUMP JUMPDEST PUSH2 0xA1F SWAP2 SWAP1 PUSH2 0xC2E JUMP JUMPDEST SWAP1 POP JUMPDEST SWAP5 SWAP4 POP POP POP POP JUMP JUMPDEST PUSH1 0x0 PUSH2 0xA36 DUP4 DUP4 PUSH2 0xC1B JUMP JUMPDEST PUSH1 0x40 DUP1 MLOAD PUSH1 0x20 DUP2 ADD DUP9 SWAP1 MSTORE SWAP1 DUP2 ADD DUP7 SWAP1 MSTORE PUSH1 0x60 ADD PUSH1 0x40 MLOAD PUSH1 0x20 DUP2 DUP4 SUB SUB DUP2 MSTORE SWAP1 PUSH1 0x40 MSTORE DUP1 MLOAD SWAP1 PUSH1 0x20 ADD KECCAK256 PUSH1 0x0 SHR PUSH2 0xA6D SWAP2 SWAP1 PUSH2 0xC42 JUMP JUMPDEST SWAP1 POP PUSH2 0xA1F DUP2 DUP5 PUSH2 0xBAD JUMP JUMPDEST PUSH1 0x0 PUSH1 0x20 DUP3 DUP5 SUB SLT ISZERO PUSH2 0xA8B JUMPI PUSH1 0x0 DUP1 REVERT JUMPDEST POP CALLDATALOAD SWAP2 SWAP1 POP JUMP JUMPDEST PUSH1 0x0 DUP1 PUSH1 0x40 DUP4 DUP6 SUB SLT ISZERO PUSH2 0xAA5 JUMPI PUSH1 0x0 DUP1 REVERT JUMPDEST POP POP DUP1 CALLDATALOAD SWAP3 PUSH1 0x20 SWAP1 SWAP2 ADD CALLDATALOAD SWAP2 POP JUMP JUMPDEST PUSH1 0x0 PUSH1 0x20 DUP3 DUP5 SUB SLT ISZERO PUSH2 0xAC6 JUMPI PUSH1 0x0 DUP1 REVERT JUMPDEST DUP2 CALLDATALOAD PUSH1 0x1 PUSH1 0x1 PUSH1 0xA0 SHL SUB DUP2 AND DUP2 EQ PUSH2 0xADD JUMPI PUSH1 0x0 DUP1 REVERT JUMPDEST SWAP4 SWAP3 POP POP POP JUMP JUMPDEST PUSH4 0x4E487B71 PUSH1 0xE0 SHL PUSH1 0x0 MSTORE PUSH1 0x11 PUSH1 0x4 MSTORE PUSH1 0x24 PUSH1 0x0 REVERT JUMPDEST PUSH1 0x0 PUSH1 0x1 DUP3 ADD PUSH2 0xB0C JUMPI PUSH2 0xB0C PUSH2 0xAE4 JUMP JUMPDEST POP PUSH1 0x1 ADD SWAP1 JUMP JUMPDEST PUSH1 0x0 PUSH1 0x20 DUP3 DUP5 SUB SLT ISZERO PUSH2 0xB25 JUMPI PUSH1 0x0 DUP1 REVERT JUMPDEST DUP2 MLOAD PUSH4 0xFFFFFFFF DUP2 AND DUP2 EQ PUSH2 0xADD JUMPI PUSH1 0x0 DUP1 REVERT JUMPDEST PUSH4 0xFFFFFFFF DUP2 DUP2 AND DUP4 DUP3 AND ADD SWAP1 DUP1 DUP3 GT ISZERO PUSH2 0xB56 JUMPI PUSH2 0xB56 PUSH2 0xAE4 JUMP JUMPDEST POP SWAP3 SWAP2 POP POP JUMP JUMPDEST PUSH4 0x4E487B71 PUSH1 0xE0 SHL PUSH1 0x0 MSTORE PUSH1 0x12 PUSH1 0x4 MSTORE PUSH1 0x24 PUSH1 0x0 REVERT JUMPDEST PUSH1 0x0 PUSH4 0xFFFFFFFF DUP1 DUP5 AND DUP1 PUSH2 0xB8A JUMPI PUSH2 0xB8A PUSH2 0xB5D JUMP JUMPDEST SWAP3 AND SWAP2 SWAP1 SWAP2 DIV SWAP3 SWAP2 POP POP JUMP JUMPDEST DUP1 DUP3 MUL DUP2 ISZERO DUP3 DUP3 DIV DUP5 EQ OR PUSH2 0x8C5 JUMPI PUSH2 0x8C5 PUSH2 0xAE4 JUMP JUMPDEST DUP1 DUP3 ADD DUP1 DUP3 GT ISZERO PUSH2 0x8C5 JUMPI PUSH2 0x8C5 PUSH2 0xAE4 JUMP JUMPDEST PUSH1 0x0 PUSH1 0x20 DUP3 DUP5 SUB SLT ISZERO PUSH2 0xBD2 JUMPI PUSH1 0x0 DUP1 REVERT JUMPDEST DUP2 MLOAD PUSH1 0xFF DUP2 AND DUP2 EQ PUSH2 0xADD JUMPI PUSH1 0x0 DUP1 REVERT JUMPDEST PUSH1 0x0 PUSH1 0x20 DUP3 DUP5 SUB SLT ISZERO PUSH2 0xBF5 JUMPI PUSH1 0x0 DUP1 REVERT JUMPDEST POP MLOAD SWAP2 SWAP1 POP JUMP JUMPDEST PUSH1 0x0 PUSH1 0xFF DUP3 AND PUSH1 0xFF DUP2 SUB PUSH2 0xC12 JUMPI PUSH2 0xC12 PUSH2 0xAE4 JUMP JUMPDEST PUSH1 0x1 ADD SWAP3 SWAP2 POP POP JUMP JUMPDEST DUP2 DUP2 SUB DUP2 DUP2 GT ISZERO PUSH2 0x8C5 JUMPI PUSH2 0x8C5 PUSH2 0xAE4 JUMP JUMPDEST PUSH1 0x0 DUP3 PUSH2 0xC3D JUMPI PUSH2 0xC3D PUSH2 0xB5D JUMP JUMPDEST POP DIV SWAP1 JUMP JUMPDEST PUSH1 0x0 DUP3 PUSH2 0xC51 JUMPI PUSH2 0xC51 PUSH2 0xB5D JUMP JUMPDEST POP MOD SWAP1 JUMP INVALID LOG2 PUSH5 0x6970667358 0x22 SLT KECCAK256 0xC0 RETURN DIV 0xBF 0xE4 0xCA DUP12 GAS PUSH22 0x59F1D213C19C1238C65EDEDFD4C033B4D8CC1D60BBE8 SWAP9 PUSH5 0x736F6C6343 STOP ADDMOD SLT STOP CALLER "
		},
		"gasEstimates": {
			"creation": {
				"codeDepositCost": "642400",
				"executionCost": "159153",
				"totalCost": "801553"
			},
			"external": {
				"breading(uint256,uint256)": "infinite",
				"getGlobalSeed()": "2370",
				"getMaxArcane()": "2326",
				"getMaxId()": "2348",
				"getMinArcane()": "2293",
				"getMinId()": "2347",
				"getRandomPercent()": "2370",
				"owner()": "2324",
				"renounceOwnership()": "infinite",
				"setGlobalSeed(uint256)": "24512",
				"setMaxArcane(uint256)": "24578",
				"setMaxId(uint256)": "24556",
				"setMinArcane(uint256)": "24533",
				"setMinId(uint256)": "24510",
				"setRandomPercent(uint256)": "24534",
				"transferOwnership(address)": "28386"
			},
			"internal": {
				"getArcanePercent(uint256,uint256,uint256,uint256)": "infinite",
				"random(uint256,uint256,uint256,uint256)": "infinite"
			}
		},
		"methodIdentifiers": {
			"breading(uint256,uint256)": "e4a13fb7",
			"getGlobalSeed()": "878cf3a6",
			"getMaxArcane()": "615ebe28",
			"getMaxId()": "d477a712",
			"getMinArcane()": "32099cc4",
			"getMinId()": "eb4b0e51",
			"getRandomPercent()": "e238b8c6",
			"owner()": "8da5cb5b",
			"renounceOwnership()": "715018a6",
			"setGlobalSeed(uint256)": "02aff378",
			"setMaxArcane(uint256)": "1bb39f84",
			"setMaxId(uint256)": "16bd8646",
			"setMinArcane(uint256)": "91b66725",
			"setMinId(uint256)": "e2e3a0db",
			"setRandomPercent(uint256)": "054fee6a",
			"transferOwnership(address)": "f2fde38b"
		}
	},
	"abi": [
		{
			"anonymous": false,
			"inputs": [
				{
					"indexed": true,
					"internalType": "address",
					"name": "previousOwner",
					"type": "address"
				},
				{
					"indexed": true,
					"internalType": "address",
					"name": "newOwner",
					"type": "address"
				}
			],
			"name": "OwnershipTransferred",
			"type": "event"
		},
		{
			"inputs": [
				{
					"internalType": "uint256",
					"name": "genes1",
					"type": "uint256"
				},
				{
					"internalType": "uint256",
					"name": "genes2",
					"type": "uint256"
				}
			],
			"name": "breading",
			"outputs": [
				{
					"internalType": "uint256",
					"name": "",
					"type": "uint256"
				}
			],
			"stateMutability": "nonpayable",
			"type": "function"
		},
		{
			"inputs": [],
			"name": "getGlobalSeed",
			"outputs": [
				{
					"internalType": "uint256",
					"name": "",
					"type": "uint256"
				}
			],
			"stateMutability": "view",
			"type": "function"
		},
		{
			"inputs": [],
			"name": "getMaxArcane",
			"outputs": [
				{
					"internalType": "uint256",
					"name": "",
					"type": "uint256"
				}
			],
			"stateMutability": "view",
			"type": "function"
		},
		{
			"inputs": [],
			"name": "getMaxId",
			"outputs": [
				{
					"internalType": "uint256",
					"name": "",
					"type": "uint256"
				}
			],
			"stateMutability": "view",
			"type": "function"
		},
		{
			"inputs": [],
			"name": "getMinArcane",
			"outputs": [
				{
					"internalType": "uint256",
					"name": "",
					"type": "uint256"
				}
			],
			"stateMutability": "view",
			"type": "function"
		},
		{
			"inputs": [],
			"name": "getMinId",
			"outputs": [
				{
					"internalType": "uint256",
					"name": "",
					"type": "uint256"
				}
			],
			"stateMutability": "view",
			"type": "function"
		},
		{
			"inputs": [],
			"name": "getRandomPercent",
			"outputs": [
				{
					"internalType": "uint256",
					"name": "",
					"type": "uint256"
				}
			],
			"stateMutability": "view",
			"type": "function"
		},
		{
			"inputs": [],
			"name": "owner",
			"outputs": [
				{
					"internalType": "address",
					"name": "",
					"type": "address"
				}
			],
			"stateMutability": "view",
			"type": "function"
		},
		{
			"inputs": [],
			"name": "renounceOwnership",
			"outputs": [],
			"stateMutability": "nonpayable",
			"type": "function"
		},
		{
			"inputs": [
				{
					"internalType": "uint256",
					"name": "value",
					"type": "uint256"
				}
			],
			"name": "setGlobalSeed",
			"outputs": [],
			"stateMutability": "nonpayable",
			"type": "function"
		},
		{
			"inputs": [
				{
					"internalType": "uint256",
					"name": "value",
					"type": "uint256"
				}
			],
			"name": "setMaxArcane",
			"outputs": [],
			"stateMutability": "nonpayable",
			"type": "function"
		},
		{
			"inputs": [
				{
					"internalType": "uint256",
					"name": "value",
					"type": "uint256"
				}
			],
			"name": "setMaxId",
			"outputs": [],
			"stateMutability": "nonpayable",
			"type": "function"
		},
		{
			"inputs": [
				{
					"internalType": "uint256",
					"name": "value",
					"type": "uint256"
				}
			],
			"name": "setMinArcane",
			"outputs": [],
			"stateMutability": "nonpayable",
			"type": "function"
		},
		{
			"inputs": [
				{
					"internalType": "uint256",
					"name": "value",
					"type": "uint256"
				}
			],
			"name": "setMinId",
			"outputs": [],
			"stateMutability": "nonpayable",
			"type": "function"
		},
		{
			"inputs": [
				{
					"internalType": "uint256",
					"name": "value",
					"type": "uint256"
				}
			],
			"name": "setRandomPercent",
			"outputs": [],
			"stateMutability": "nonpayable",
			"type": "function"
		},
		{
			"inputs": [
				{
					"internalType": "address",
					"name": "newOwner",
					"type": "address"
				}
			],
			"name": "transferOwnership",
			"outputs": [],
			"stateMutability": "nonpayable",
			"type": "function"
		}
	]
}