{
	"data": {
		"bytecode": {
			"linkReferences": {
				"contracts/common/GenesUtil.sol": {
					"GenesUtil": [
						{
							"length": 20,
							"start": 1437
						},
						{
							"length": 20,
							"start": 1644
						},
						{
							"length": 20,
							"start": 1987
						},
						{
							"length": 20,
							"start": 2107
						},
						{
							"length": 20,
							"start": 2488
						},
						{
							"length": 20,
							"start": 2617
						},
						{
							"length": 20,
							"start": 2743
						},
						{
							"length": 20,
							"start": 2869
						},
						{
							"length": 20,
							"start": 2996
						},
						{
							"length": 20,
							"start": 3159
						},
						{
							"length": 20,
							"start": 3202
						},
						{
							"length": 20,
							"start": 3428
						},
						{
							"length": 20,
							"start": 3471
						},
						{
							"length": 20,
							"start": 3697
						},
						{
							"length": 20,
							"start": 3821
						}
					]
				}
			},
			"object": "60806040526001600060146101000a81548160ff021916908360ff1602179055506001805560056002556001600355601e6004556001600555602460065534801561004957600080fd5b5061006661005b61006b60201b60201c565b61007360201b60201c565b610137565b600033905090565b60008060009054906101000a900473ffffffffffffffffffffffffffffffffffffffff169050816000806101000a81548173ffffffffffffffffffffffffffffffffffffffff021916908373ffffffffffffffffffffffffffffffffffffffff1602179055508173ffffffffffffffffffffffffffffffffffffffff168173ffffffffffffffffffffffffffffffffffffffff167f8be0079c531659141344cd1fd0a4f28419497f9722a3daafe3b4186f6b6457e060405160405180910390a35050565b611ad4806101466000396000f3fe608060405234801561001057600080fd5b50600436106101165760003560e01c80638da5cb5b116100a2578063e238b8c611610071578063e238b8c614610281578063e2e3a0db1461029f578063e4a13fb7146102bb578063eb4b0e51146102ed578063f2fde38b1461030b57610116565b80638da5cb5b1461020d57806391b667251461022b578063d477a71214610247578063de405b181461026557610116565b806332099cc4116100e957806332099cc41461018b578063615ebe28146101a9578063715018a6146101c7578063772121fe146101d1578063878cf3a6146101ef57610116565b806302aff3781461011b578063054fee6a1461013757806316bd8646146101535780631bb39f841461016f575b600080fd5b610135600480360381019061013091906110da565b610327565b005b610151600480360381019061014c91906110da565b610339565b005b61016d600480360381019061016891906110da565b61034b565b005b610189600480360381019061018491906110da565b61035d565b005b61019361036f565b6040516101a09190611116565b60405180910390f35b6101b1610379565b6040516101be9190611116565b60405180910390f35b6101cf610383565b005b6101d9610397565b6040516101e6919061114d565b60405180910390f35b6101f76103ad565b6040516102049190611116565b60405180910390f35b6102156103b7565b60405161022291906111a9565b60405180910390f35b610245600480360381019061024091906110da565b6103e0565b005b61024f6103f2565b60405161025c9190611116565b60405180910390f35b61027f600480360381019061027a91906111f0565b6103fc565b005b610289610422565b6040516102969190611116565b60405180910390f35b6102b960048036038101906102b491906110da565b61042c565b005b6102d560048036038101906102d0919061121d565b61043e565b6040516102e49392919061125d565b60405180910390f35b6102f5610e2d565b6040516103029190611116565b60405180910390f35b610325600480360381019061032091906112c0565b610e37565b005b61032f610eba565b8060018190555050565b610341610eba565b8060028190555050565b610353610eba565b8060068190555050565b610365610eba565b8060048190555050565b6000600354905090565b6000600454905090565b61038b610eba565b6103956000610f38565b565b60008060149054906101000a900460ff16905090565b6000600154905090565b60008060009054906101000a900473ffffffffffffffffffffffffffffffffffffffff16905090565b6103e8610eba565b8060038190555050565b6000600654905090565b610404610eba565b80600060146101000a81548160ff021916908360ff16021790555050565b6000600254905090565b610434610eba565b8060058190555050565b60008060008060149054906101000a900460ff1660ff1673__$bc34c519aa7d1b67b54ee96cd6fbdfb8db$__630317f435876040518263ffffffff1660e01b815260040161048c91906112fc565b602060405180830381865af41580156104a9573d6000803e3d6000fd5b505050506040513d601f19601f820116820180604052508101906104cd919061132c565b60ff161015610511576040517f08c379a0000000000000000000000000000000000000000000000000000000008152600401610508906113b6565b60405180910390fd5b600060149054906101000a900460ff1660ff1673__$bc34c519aa7d1b67b54ee96cd6fbdfb8db$__630317f435866040518263ffffffff1660e01b815260040161055b91906112fc565b602060405180830381865af4158015610578573d6000803e3d6000fd5b505050506040513d601f19601f8201168201806040525081019061059c919061132c565b60ff1610156105e0576040517f08c379a00000000000000000000000000000000000000000000000000000000081526004016105d7906113b6565b60405180910390fd5b600042434488886001546040516020016105ff969594939291906113f7565b6040516020818303038152906040528051906020012060001c90506000810361065d576040517f08c379a0000000000000000000000000000000000000000000000000000000008152600401610654906114b3565b60405180910390fd5b6001600081548092919061067090611502565b919050555060006001600273__$bc34c519aa7d1b67b54ee96cd6fbdfb8db$__6356e3df97896040518263ffffffff1660e01b81526004016106b291906112fc565b602060405180830381865af41580156106cf573d6000803e3d6000fd5b505050506040513d601f19601f820116820180604052508101906106f39190611586565b73__$bc34c519aa7d1b67b54ee96cd6fbdfb8db$__6356e3df978b6040518263ffffffff1660e01b815260040161072a91906112fc565b602060405180830381865af4158015610747573d6000803e3d6000fd5b505050506040513d601f19601f8201168201806040525081019061076b9190611586565b61077591906115b3565b61077f919061161a565b61078991906115b3565b9050600060099050600080945060005b828160ff161015610b0e5760006107bd8563ffffffff166003546004546064610ffc565b905060006107ea60015485806107d290611502565b9650600060646004546107e5919061164b565b61103b565b8210159050600060019050610811600154868061080690611502565b97506000606461103b565b6002541061084d5760ff610845600154878061082c90611502565b98506005546001600654610840919061168d565b61103b565b16905061096f565b603261086b600154878061086090611502565b98506000606461103b565b106108f15773__$bc34c519aa7d1b67b54ee96cd6fbdfb8db$__635d2029f18d866040518363ffffffff1660e01b81526004016108a99291906116d0565b602060405180830381865af41580156108c6573d6000803e3d6000fd5b505050506040513d601f19601f820116820180604052508101906108ea919061132c565b905061096e565b73__$bc34c519aa7d1b67b54ee96cd6fbdfb8db$__635d2029f18e866040518363ffffffff1660e01b815260040161092a9291906116d0565b602060405180830381865af4158015610947573d6000803e3d6000fd5b505050506040513d601f19601f8201168201806040525081019061096b919061132c565b90505b5b73__$bc34c519aa7d1b67b54ee96cd6fbdfb8db$__6334a51d0f8a86846040518463ffffffff1660e01b81526004016109aa93929190611734565b602060405180830381865af41580156109c7573d6000803e3d6000fd5b505050506040513d601f19601f820116820180604052508101906109eb9190611780565b985073__$bc34c519aa7d1b67b54ee96cd6fbdfb8db$__63e1b30ab78a8660016040518463ffffffff1660e01b8152600401610a29939291906117e8565b602060405180830381865af4158015610a46573d6000803e3d6000fd5b505050506040513d601f19601f82011682018060405250810190610a6a9190611780565b985073__$bc34c519aa7d1b67b54ee96cd6fbdfb8db$__6355d6ed438a8685610a94576000610a97565b60015b6040518463ffffffff1660e01b8152600401610ab593929190611734565b602060405180830381865af4158015610ad2573d6000803e3d6000fd5b505050506040513d601f19601f82011682018060405250810190610af69190611780565b98505050508080610b069061181f565b915050610799565b5073__$bc34c519aa7d1b67b54ee96cd6fbdfb8db$__63b52b66598a600060149054906101000a900460ff1673__$bc34c519aa7d1b67b54ee96cd6fbdfb8db$__630317f4358e6040518263ffffffff1660e01b8152600401610b7191906112fc565b602060405180830381865af4158015610b8e573d6000803e3d6000fd5b505050506040513d601f19601f82011682018060405250810190610bb2919061132c565b610bbc9190611848565b6040518363ffffffff1660e01b8152600401610bd99291906116d0565b602060405180830381865af4158015610bf6573d6000803e3d6000fd5b505050506040513d601f19601f82011682018060405250810190610c1a9190611780565b965073__$bc34c519aa7d1b67b54ee96cd6fbdfb8db$__63b52b665989600060149054906101000a900460ff1673__$bc34c519aa7d1b67b54ee96cd6fbdfb8db$__630317f4358d6040518263ffffffff1660e01b8152600401610c7e91906112fc565b602060405180830381865af4158015610c9b573d6000803e3d6000fd5b505050506040513d601f19601f82011682018060405250810190610cbf919061132c565b610cc99190611848565b6040518363ffffffff1660e01b8152600401610ce69291906116d0565b602060405180830381865af4158015610d03573d6000803e3d6000fd5b505050506040513d601f19601f82011682018060405250810190610d279190611780565b955073__$bc34c519aa7d1b67b54ee96cd6fbdfb8db$__638de97f4f86856040518363ffffffff1660e01b8152600401610d6292919061188c565b602060405180830381865af4158015610d7f573d6000803e3d6000fd5b505050506040513d601f19601f82011682018060405250810190610da39190611780565b945073__$bc34c519aa7d1b67b54ee96cd6fbdfb8db$__63b52b66598660016040518363ffffffff1660e01b8152600401610ddf9291906118b5565b602060405180830381865af4158015610dfc573d6000803e3d6000fd5b505050506040513d601f19601f82011682018060405250810190610e209190611780565b9450505050509250925092565b6000600554905090565b610e3f610eba565b600073ffffffffffffffffffffffffffffffffffffffff168173ffffffffffffffffffffffffffffffffffffffff1603610eae576040517f08c379a0000000000000000000000000000000000000000000000000000000008152600401610ea590611950565b60405180910390fd5b610eb781610f38565b50565b610ec2611097565b73ffffffffffffffffffffffffffffffffffffffff16610ee06103b7565b73ffffffffffffffffffffffffffffffffffffffff1614610f36576040517f08c379a0000000000000000000000000000000000000000000000000000000008152600401610f2d906119bc565b60405180910390fd5b565b60008060009054906101000a900473ffffffffffffffffffffffffffffffffffffffff169050816000806101000a81548173ffffffffffffffffffffffffffffffffffffffff021916908373ffffffffffffffffffffffffffffffffffffffff1602179055508173ffffffffffffffffffffffffffffffffffffffff168173ffffffffffffffffffffffffffffffffffffffff167f8be0079c531659141344cd1fd0a4f28419497f9722a3daafe3b4186f6b6457e060405160405180910390a35050565b600083851161100e5760009050611033565b8282858761101c91906119dc565b611026919061164b565b6110309190611a10565b90505b949350505050565b6000828261104991906119dc565b858560405160200161105c929190611a41565b6040516020818303038152906040528051906020012060001c61107f9190611a6d565b9050808361108d919061168d565b9050949350505050565b600033905090565b600080fd5b6000819050919050565b6110b7816110a4565b81146110c257600080fd5b50565b6000813590506110d4816110ae565b92915050565b6000602082840312156110f0576110ef61109f565b5b60006110fe848285016110c5565b91505092915050565b611110816110a4565b82525050565b600060208201905061112b6000830184611107565b92915050565b600060ff82169050919050565b61114781611131565b82525050565b6000602082019050611162600083018461113e565b92915050565b600073ffffffffffffffffffffffffffffffffffffffff82169050919050565b600061119382611168565b9050919050565b6111a381611188565b82525050565b60006020820190506111be600083018461119a565b92915050565b6111cd81611131565b81146111d857600080fd5b50565b6000813590506111ea816111c4565b92915050565b6000602082840312156112065761120561109f565b5b6000611214848285016111db565b91505092915050565b600080604083850312156112345761123361109f565b5b6000611242858286016110c5565b9250506020611253858286016110c5565b9150509250929050565b60006060820190506112726000830186611107565b61127f6020830185611107565b61128c6040830184611107565b949350505050565b61129d81611188565b81146112a857600080fd5b50565b6000813590506112ba81611294565b92915050565b6000602082840312156112d6576112d561109f565b5b60006112e4848285016112ab565b91505092915050565b6112f6816110a4565b82525050565b600060208201905061131160008301846112ed565b92915050565b600081519050611326816111c4565b92915050565b6000602082840312156113425761134161109f565b5b600061135084828501611317565b91505092915050565b600082825260208201905092915050565b7f696e73756666696369656e742063686172676500000000000000000000000000600082015250565b60006113a0601383611359565b91506113ab8261136a565b602082019050919050565b600060208201905081810360008301526113cf81611393565b9050919050565b6000819050919050565b6113f16113ec826110a4565b6113d6565b82525050565b600061140382896113e0565b60208201915061141382886113e0565b60208201915061142382876113e0565b60208201915061143382866113e0565b60208201915061144382856113e0565b60208201915061145382846113e0565b602082019150819050979650505050505050565b7f72616e646f6d536565642063616e277420626520300000000000000000000000600082015250565b600061149d601583611359565b91506114a882611467565b602082019050919050565b600060208201905081810360008301526114cc81611490565b9050919050565b7f4e487b7100000000000000000000000000000000000000000000000000000000600052601160045260246000fd5b600061150d826110a4565b91507fffffffffffffffffffffffffffffffffffffffffffffffffffffffffffffffff820361153f5761153e6114d3565b5b600182019050919050565b600063ffffffff82169050919050565b6115638161154a565b811461156e57600080fd5b50565b6000815190506115808161155a565b92915050565b60006020828403121561159c5761159b61109f565b5b60006115aa84828501611571565b91505092915050565b60006115be8261154a565b91506115c98361154a565b9250828201905063ffffffff8111156115e5576115e46114d3565b5b92915050565b7f4e487b7100000000000000000000000000000000000000000000000000000000600052601260045260246000fd5b60006116258261154a565b91506116308361154a565b9250826116405761163f6115eb565b5b828204905092915050565b6000611656826110a4565b9150611661836110a4565b925082820261166f816110a4565b91508282048414831517611686576116856114d3565b5b5092915050565b6000611698826110a4565b91506116a3836110a4565b92508282019050808211156116bb576116ba6114d3565b5b92915050565b6116ca81611131565b82525050565b60006040820190506116e560008301856112ed565b6116f260208301846116c1565b9392505050565b6000819050919050565b600061171e61171961171484611131565b6116f9565b6110a4565b9050919050565b61172e81611703565b82525050565b600060608201905061174960008301866112ed565b6117566020830185611725565b61176360408301846116c1565b949350505050565b60008151905061177a816110ae565b92915050565b6000602082840312156117965761179561109f565b5b60006117a48482850161176b565b91505092915050565b6000819050919050565b60006117d26117cd6117c8846117ad565b6116f9565b611131565b9050919050565b6117e2816117b7565b82525050565b60006060820190506117fd60008301866112ed565b61180a6020830185611725565b61181760408301846117d9565b949350505050565b600061182a82611131565b915060ff820361183d5761183c6114d3565b5b600182019050919050565b600061185382611131565b915061185e83611131565b9250828203905060ff811115611877576118766114d3565b5b92915050565b6118868161154a565b82525050565b60006040820190506118a160008301856112ed565b6118ae602083018461187d565b9392505050565b60006040820190506118ca60008301856112ed565b6118d760208301846117d9565b9392505050565b7f4f776e61626c653a206e6577206f776e657220697320746865207a65726f206160008201527f6464726573730000000000000000000000000000000000000000000000000000602082015250565b600061193a602683611359565b9150611945826118de565b604082019050919050565b600060208201905081810360008301526119698161192d565b9050919050565b7f4f776e61626c653a2063616c6c6572206973206e6f7420746865206f776e6572600082015250565b60006119a6602083611359565b91506119b182611970565b602082019050919050565b600060208201905081810360008301526119d581611999565b9050919050565b60006119e7826110a4565b91506119f2836110a4565b9250828203905081811115611a0a57611a096114d3565b5b92915050565b6000611a1b826110a4565b9150611a26836110a4565b925082611a3657611a356115eb565b5b828204905092915050565b6000611a4d82856113e0565b602082019150611a5d82846113e0565b6020820191508190509392505050565b6000611a78826110a4565b9150611a83836110a4565b925082611a9357611a926115eb565b5b82820690509291505056fea26469706673582212205d83e62d14ba20c7ff90af51ced1149383f534b1c0e5e806df182f1ae9aed68764736f6c63430008120033",
			"opcodes": "PUSH1 0x80 PUSH1 0x40 MSTORE PUSH1 0x1 PUSH1 0x0 PUSH1 0x14 PUSH2 0x100 EXP DUP2 SLOAD DUP2 PUSH1 0xFF MUL NOT AND SWAP1 DUP4 PUSH1 0xFF AND MUL OR SWAP1 SSTORE POP PUSH1 0x1 DUP1 SSTORE PUSH1 0x5 PUSH1 0x2 SSTORE PUSH1 0x1 PUSH1 0x3 SSTORE PUSH1 0x1E PUSH1 0x4 SSTORE PUSH1 0x1 PUSH1 0x5 SSTORE PUSH1 0x24 PUSH1 0x6 SSTORE CALLVALUE DUP1 ISZERO PUSH2 0x49 JUMPI PUSH1 0x0 DUP1 REVERT JUMPDEST POP PUSH2 0x66 PUSH2 0x5B PUSH2 0x6B PUSH1 0x20 SHL PUSH1 0x20 SHR JUMP JUMPDEST PUSH2 0x73 PUSH1 0x20 SHL PUSH1 0x20 SHR JUMP JUMPDEST PUSH2 0x137 JUMP JUMPDEST PUSH1 0x0 CALLER SWAP1 POP SWAP1 JUMP JUMPDEST PUSH1 0x0 DUP1 PUSH1 0x0 SWAP1 SLOAD SWAP1 PUSH2 0x100 EXP SWAP1 DIV PUSH20 0xFFFFFFFFFFFFFFFFFFFFFFFFFFFFFFFFFFFFFFFF AND SWAP1 POP DUP2 PUSH1 0x0 DUP1 PUSH2 0x100 EXP DUP2 SLOAD DUP2 PUSH20 0xFFFFFFFFFFFFFFFFFFFFFFFFFFFFFFFFFFFFFFFF MUL NOT AND SWAP1 DUP4 PUSH20 0xFFFFFFFFFFFFFFFFFFFFFFFFFFFFFFFFFFFFFFFF AND MUL OR SWAP1 SSTORE POP DUP2 PUSH20 0xFFFFFFFFFFFFFFFFFFFFFFFFFFFFFFFFFFFFFFFF AND DUP2 PUSH20 0xFFFFFFFFFFFFFFFFFFFFFFFFFFFFFFFFFFFFFFFF AND PUSH32 0x8BE0079C531659141344CD1FD0A4F28419497F9722A3DAAFE3B4186F6B6457E0 PUSH1 0x40 MLOAD PUSH1 0x40 MLOAD DUP1 SWAP2 SUB SWAP1 LOG3 POP POP JUMP JUMPDEST PUSH2 0x1AD4 DUP1 PUSH2 0x146 PUSH1 0x0 CODECOPY PUSH1 0x0 RETURN INVALID PUSH1 0x80 PUSH1 0x40 MSTORE CALLVALUE DUP1 ISZERO PUSH2 0x10 JUMPI PUSH1 0x0 DUP1 REVERT JUMPDEST POP PUSH1 0x4 CALLDATASIZE LT PUSH2 0x116 JUMPI PUSH1 0x0 CALLDATALOAD PUSH1 0xE0 SHR DUP1 PUSH4 0x8DA5CB5B GT PUSH2 0xA2 JUMPI DUP1 PUSH4 0xE238B8C6 GT PUSH2 0x71 JUMPI DUP1 PUSH4 0xE238B8C6 EQ PUSH2 0x281 JUMPI DUP1 PUSH4 0xE2E3A0DB EQ PUSH2 0x29F JUMPI DUP1 PUSH4 0xE4A13FB7 EQ PUSH2 0x2BB JUMPI DUP1 PUSH4 0xEB4B0E51 EQ PUSH2 0x2ED JUMPI DUP1 PUSH4 0xF2FDE38B EQ PUSH2 0x30B JUMPI PUSH2 0x116 JUMP JUMPDEST DUP1 PUSH4 0x8DA5CB5B EQ PUSH2 0x20D JUMPI DUP1 PUSH4 0x91B66725 EQ PUSH2 0x22B JUMPI DUP1 PUSH4 0xD477A712 EQ PUSH2 0x247 JUMPI DUP1 PUSH4 0xDE405B18 EQ PUSH2 0x265 JUMPI PUSH2 0x116 JUMP JUMPDEST DUP1 PUSH4 0x32099CC4 GT PUSH2 0xE9 JUMPI DUP1 PUSH4 0x32099CC4 EQ PUSH2 0x18B JUMPI DUP1 PUSH4 0x615EBE28 EQ PUSH2 0x1A9 JUMPI DUP1 PUSH4 0x715018A6 EQ PUSH2 0x1C7 JUMPI DUP1 PUSH4 0x772121FE EQ PUSH2 0x1D1 JUMPI DUP1 PUSH4 0x878CF3A6 EQ PUSH2 0x1EF JUMPI PUSH2 0x116 JUMP JUMPDEST DUP1 PUSH4 0x2AFF378 EQ PUSH2 0x11B JUMPI DUP1 PUSH4 0x54FEE6A EQ PUSH2 0x137 JUMPI DUP1 PUSH4 0x16BD8646 EQ PUSH2 0x153 JUMPI DUP1 PUSH4 0x1BB39F84 EQ PUSH2 0x16F JUMPI JUMPDEST PUSH1 0x0 DUP1 REVERT JUMPDEST PUSH2 0x135 PUSH1 0x4 DUP1 CALLDATASIZE SUB DUP2 ADD SWAP1 PUSH2 0x130 SWAP2 SWAP1 PUSH2 0x10DA JUMP JUMPDEST PUSH2 0x327 JUMP JUMPDEST STOP JUMPDEST PUSH2 0x151 PUSH1 0x4 DUP1 CALLDATASIZE SUB DUP2 ADD SWAP1 PUSH2 0x14C SWAP2 SWAP1 PUSH2 0x10DA JUMP JUMPDEST PUSH2 0x339 JUMP JUMPDEST STOP JUMPDEST PUSH2 0x16D PUSH1 0x4 DUP1 CALLDATASIZE SUB DUP2 ADD SWAP1 PUSH2 0x168 SWAP2 SWAP1 PUSH2 0x10DA JUMP JUMPDEST PUSH2 0x34B JUMP JUMPDEST STOP JUMPDEST PUSH2 0x189 PUSH1 0x4 DUP1 CALLDATASIZE SUB DUP2 ADD SWAP1 PUSH2 0x184 SWAP2 SWAP1 PUSH2 0x10DA JUMP JUMPDEST PUSH2 0x35D JUMP JUMPDEST STOP JUMPDEST PUSH2 0x193 PUSH2 0x36F JUMP JUMPDEST PUSH1 0x40 MLOAD PUSH2 0x1A0 SWAP2 SWAP1 PUSH2 0x1116 JUMP JUMPDEST PUSH1 0x40 MLOAD DUP1 SWAP2 SUB SWAP1 RETURN JUMPDEST PUSH2 0x1B1 PUSH2 0x379 JUMP JUMPDEST PUSH1 0x40 MLOAD PUSH2 0x1BE SWAP2 SWAP1 PUSH2 0x1116 JUMP JUMPDEST PUSH1 0x40 MLOAD DUP1 SWAP2 SUB SWAP1 RETURN JUMPDEST PUSH2 0x1CF PUSH2 0x383 JUMP JUMPDEST STOP JUMPDEST PUSH2 0x1D9 PUSH2 0x397 JUMP JUMPDEST PUSH1 0x40 MLOAD PUSH2 0x1E6 SWAP2 SWAP1 PUSH2 0x114D JUMP JUMPDEST PUSH1 0x40 MLOAD DUP1 SWAP2 SUB SWAP1 RETURN JUMPDEST PUSH2 0x1F7 PUSH2 0x3AD JUMP JUMPDEST PUSH1 0x40 MLOAD PUSH2 0x204 SWAP2 SWAP1 PUSH2 0x1116 JUMP JUMPDEST PUSH1 0x40 MLOAD DUP1 SWAP2 SUB SWAP1 RETURN JUMPDEST PUSH2 0x215 PUSH2 0x3B7 JUMP JUMPDEST PUSH1 0x40 MLOAD PUSH2 0x222 SWAP2 SWAP1 PUSH2 0x11A9 JUMP JUMPDEST PUSH1 0x40 MLOAD DUP1 SWAP2 SUB SWAP1 RETURN JUMPDEST PUSH2 0x245 PUSH1 0x4 DUP1 CALLDATASIZE SUB DUP2 ADD SWAP1 PUSH2 0x240 SWAP2 SWAP1 PUSH2 0x10DA JUMP JUMPDEST PUSH2 0x3E0 JUMP JUMPDEST STOP JUMPDEST PUSH2 0x24F PUSH2 0x3F2 JUMP JUMPDEST PUSH1 0x40 MLOAD PUSH2 0x25C SWAP2 SWAP1 PUSH2 0x1116 JUMP JUMPDEST PUSH1 0x40 MLOAD DUP1 SWAP2 SUB SWAP1 RETURN JUMPDEST PUSH2 0x27F PUSH1 0x4 DUP1 CALLDATASIZE SUB DUP2 ADD SWAP1 PUSH2 0x27A SWAP2 SWAP1 PUSH2 0x11F0 JUMP JUMPDEST PUSH2 0x3FC JUMP JUMPDEST STOP JUMPDEST PUSH2 0x289 PUSH2 0x422 JUMP JUMPDEST PUSH1 0x40 MLOAD PUSH2 0x296 SWAP2 SWAP1 PUSH2 0x1116 JUMP JUMPDEST PUSH1 0x40 MLOAD DUP1 SWAP2 SUB SWAP1 RETURN JUMPDEST PUSH2 0x2B9 PUSH1 0x4 DUP1 CALLDATASIZE SUB DUP2 ADD SWAP1 PUSH2 0x2B4 SWAP2 SWAP1 PUSH2 0x10DA JUMP JUMPDEST PUSH2 0x42C JUMP JUMPDEST STOP JUMPDEST PUSH2 0x2D5 PUSH1 0x4 DUP1 CALLDATASIZE SUB DUP2 ADD SWAP1 PUSH2 0x2D0 SWAP2 SWAP1 PUSH2 0x121D JUMP JUMPDEST PUSH2 0x43E JUMP JUMPDEST PUSH1 0x40 MLOAD PUSH2 0x2E4 SWAP4 SWAP3 SWAP2 SWAP1 PUSH2 0x125D JUMP JUMPDEST PUSH1 0x40 MLOAD DUP1 SWAP2 SUB SWAP1 RETURN JUMPDEST PUSH2 0x2F5 PUSH2 0xE2D JUMP JUMPDEST PUSH1 0x40 MLOAD PUSH2 0x302 SWAP2 SWAP1 PUSH2 0x1116 JUMP JUMPDEST PUSH1 0x40 MLOAD DUP1 SWAP2 SUB SWAP1 RETURN JUMPDEST PUSH2 0x325 PUSH1 0x4 DUP1 CALLDATASIZE SUB DUP2 ADD SWAP1 PUSH2 0x320 SWAP2 SWAP1 PUSH2 0x12C0 JUMP JUMPDEST PUSH2 0xE37 JUMP JUMPDEST STOP JUMPDEST PUSH2 0x32F PUSH2 0xEBA JUMP JUMPDEST DUP1 PUSH1 0x1 DUP2 SWAP1 SSTORE POP POP JUMP JUMPDEST PUSH2 0x341 PUSH2 0xEBA JUMP JUMPDEST DUP1 PUSH1 0x2 DUP2 SWAP1 SSTORE POP POP JUMP JUMPDEST PUSH2 0x353 PUSH2 0xEBA JUMP JUMPDEST DUP1 PUSH1 0x6 DUP2 SWAP1 SSTORE POP POP JUMP JUMPDEST PUSH2 0x365 PUSH2 0xEBA JUMP JUMPDEST DUP1 PUSH1 0x4 DUP2 SWAP1 SSTORE POP POP JUMP JUMPDEST PUSH1 0x0 PUSH1 0x3 SLOAD SWAP1 POP SWAP1 JUMP JUMPDEST PUSH1 0x0 PUSH1 0x4 SLOAD SWAP1 POP SWAP1 JUMP JUMPDEST PUSH2 0x38B PUSH2 0xEBA JUMP JUMPDEST PUSH2 0x395 PUSH1 0x0 PUSH2 0xF38 JUMP JUMPDEST JUMP JUMPDEST PUSH1 0x0 DUP1 PUSH1 0x14 SWAP1 SLOAD SWAP1 PUSH2 0x100 EXP SWAP1 DIV PUSH1 0xFF AND SWAP1 POP SWAP1 JUMP JUMPDEST PUSH1 0x0 PUSH1 0x1 SLOAD SWAP1 POP SWAP1 JUMP JUMPDEST PUSH1 0x0 DUP1 PUSH1 0x0 SWAP1 SLOAD SWAP1 PUSH2 0x100 EXP SWAP1 DIV PUSH20 0xFFFFFFFFFFFFFFFFFFFFFFFFFFFFFFFFFFFFFFFF AND SWAP1 POP SWAP1 JUMP JUMPDEST PUSH2 0x3E8 PUSH2 0xEBA JUMP JUMPDEST DUP1 PUSH1 0x3 DUP2 SWAP1 SSTORE POP POP JUMP JUMPDEST PUSH1 0x0 PUSH1 0x6 SLOAD SWAP1 POP SWAP1 JUMP JUMPDEST PUSH2 0x404 PUSH2 0xEBA JUMP JUMPDEST DUP1 PUSH1 0x0 PUSH1 0x14 PUSH2 0x100 EXP DUP2 SLOAD DUP2 PUSH1 0xFF MUL NOT AND SWAP1 DUP4 PUSH1 0xFF AND MUL OR SWAP1 SSTORE POP POP JUMP JUMPDEST PUSH1 0x0 PUSH1 0x2 SLOAD SWAP1 POP SWAP1 JUMP JUMPDEST PUSH2 0x434 PUSH2 0xEBA JUMP JUMPDEST DUP1 PUSH1 0x5 DUP2 SWAP1 SSTORE POP POP JUMP JUMPDEST PUSH1 0x0 DUP1 PUSH1 0x0 DUP1 PUSH1 0x14 SWAP1 SLOAD SWAP1 PUSH2 0x100 EXP SWAP1 DIV PUSH1 0xFF AND PUSH1 0xFF AND PUSH20 0x0 PUSH4 0x317F435 DUP8 PUSH1 0x40 MLOAD DUP3 PUSH4 0xFFFFFFFF AND PUSH1 0xE0 SHL DUP2 MSTORE PUSH1 0x4 ADD PUSH2 0x48C SWAP2 SWAP1 PUSH2 0x12FC JUMP JUMPDEST PUSH1 0x20 PUSH1 0x40 MLOAD DUP1 DUP4 SUB DUP2 DUP7 GAS DELEGATECALL ISZERO DUP1 ISZERO PUSH2 0x4A9 JUMPI RETURNDATASIZE PUSH1 0x0 DUP1 RETURNDATACOPY RETURNDATASIZE PUSH1 0x0 REVERT JUMPDEST POP POP POP POP PUSH1 0x40 MLOAD RETURNDATASIZE PUSH1 0x1F NOT PUSH1 0x1F DUP3 ADD AND DUP3 ADD DUP1 PUSH1 0x40 MSTORE POP DUP2 ADD SWAP1 PUSH2 0x4CD SWAP2 SWAP1 PUSH2 0x132C JUMP JUMPDEST PUSH1 0xFF AND LT ISZERO PUSH2 0x511 JUMPI PUSH1 0x40 MLOAD PUSH32 0x8C379A000000000000000000000000000000000000000000000000000000000 DUP2 MSTORE PUSH1 0x4 ADD PUSH2 0x508 SWAP1 PUSH2 0x13B6 JUMP JUMPDEST PUSH1 0x40 MLOAD DUP1 SWAP2 SUB SWAP1 REVERT JUMPDEST PUSH1 0x0 PUSH1 0x14 SWAP1 SLOAD SWAP1 PUSH2 0x100 EXP SWAP1 DIV PUSH1 0xFF AND PUSH1 0xFF AND PUSH20 0x0 PUSH4 0x317F435 DUP7 PUSH1 0x40 MLOAD DUP3 PUSH4 0xFFFFFFFF AND PUSH1 0xE0 SHL DUP2 MSTORE PUSH1 0x4 ADD PUSH2 0x55B SWAP2 SWAP1 PUSH2 0x12FC JUMP JUMPDEST PUSH1 0x20 PUSH1 0x40 MLOAD DUP1 DUP4 SUB DUP2 DUP7 GAS DELEGATECALL ISZERO DUP1 ISZERO PUSH2 0x578 JUMPI RETURNDATASIZE PUSH1 0x0 DUP1 RETURNDATACOPY RETURNDATASIZE PUSH1 0x0 REVERT JUMPDEST POP POP POP POP PUSH1 0x40 MLOAD RETURNDATASIZE PUSH1 0x1F NOT PUSH1 0x1F DUP3 ADD AND DUP3 ADD DUP1 PUSH1 0x40 MSTORE POP DUP2 ADD SWAP1 PUSH2 0x59C SWAP2 SWAP1 PUSH2 0x132C JUMP JUMPDEST PUSH1 0xFF AND LT ISZERO PUSH2 0x5E0 JUMPI PUSH1 0x40 MLOAD PUSH32 0x8C379A000000000000000000000000000000000000000000000000000000000 DUP2 MSTORE PUSH1 0x4 ADD PUSH2 0x5D7 SWAP1 PUSH2 0x13B6 JUMP JUMPDEST PUSH1 0x40 MLOAD DUP1 SWAP2 SUB SWAP1 REVERT JUMPDEST PUSH1 0x0 TIMESTAMP NUMBER PREVRANDAO DUP9 DUP9 PUSH1 0x1 SLOAD PUSH1 0x40 MLOAD PUSH1 0x20 ADD PUSH2 0x5FF SWAP7 SWAP6 SWAP5 SWAP4 SWAP3 SWAP2 SWAP1 PUSH2 0x13F7 JUMP JUMPDEST PUSH1 0x40 MLOAD PUSH1 0x20 DUP2 DUP4 SUB SUB DUP2 MSTORE SWAP1 PUSH1 0x40 MSTORE DUP1 MLOAD SWAP1 PUSH1 0x20 ADD KECCAK256 PUSH1 0x0 SHR SWAP1 POP PUSH1 0x0 DUP2 SUB PUSH2 0x65D JUMPI PUSH1 0x40 MLOAD PUSH32 0x8C379A000000000000000000000000000000000000000000000000000000000 DUP2 MSTORE PUSH1 0x4 ADD PUSH2 0x654 SWAP1 PUSH2 0x14B3 JUMP JUMPDEST PUSH1 0x40 MLOAD DUP1 SWAP2 SUB SWAP1 REVERT JUMPDEST PUSH1 0x1 PUSH1 0x0 DUP2 SLOAD DUP1 SWAP3 SWAP2 SWAP1 PUSH2 0x670 SWAP1 PUSH2 0x1502 JUMP JUMPDEST SWAP2 SWAP1 POP SSTORE POP PUSH1 0x0 PUSH1 0x1 PUSH1 0x2 PUSH20 0x0 PUSH4 0x56E3DF97 DUP10 PUSH1 0x40 MLOAD DUP3 PUSH4 0xFFFFFFFF AND PUSH1 0xE0 SHL DUP2 MSTORE PUSH1 0x4 ADD PUSH2 0x6B2 SWAP2 SWAP1 PUSH2 0x12FC JUMP JUMPDEST PUSH1 0x20 PUSH1 0x40 MLOAD DUP1 DUP4 SUB DUP2 DUP7 GAS DELEGATECALL ISZERO DUP1 ISZERO PUSH2 0x6CF JUMPI RETURNDATASIZE PUSH1 0x0 DUP1 RETURNDATACOPY RETURNDATASIZE PUSH1 0x0 REVERT JUMPDEST POP POP POP POP PUSH1 0x40 MLOAD RETURNDATASIZE PUSH1 0x1F NOT PUSH1 0x1F DUP3 ADD AND DUP3 ADD DUP1 PUSH1 0x40 MSTORE POP DUP2 ADD SWAP1 PUSH2 0x6F3 SWAP2 SWAP1 PUSH2 0x1586 JUMP JUMPDEST PUSH20 0x0 PUSH4 0x56E3DF97 DUP12 PUSH1 0x40 MLOAD DUP3 PUSH4 0xFFFFFFFF AND PUSH1 0xE0 SHL DUP2 MSTORE PUSH1 0x4 ADD PUSH2 0x72A SWAP2 SWAP1 PUSH2 0x12FC JUMP JUMPDEST PUSH1 0x20 PUSH1 0x40 MLOAD DUP1 DUP4 SUB DUP2 DUP7 GAS DELEGATECALL ISZERO DUP1 ISZERO PUSH2 0x747 JUMPI RETURNDATASIZE PUSH1 0x0 DUP1 RETURNDATACOPY RETURNDATASIZE PUSH1 0x0 REVERT JUMPDEST POP POP POP POP PUSH1 0x40 MLOAD RETURNDATASIZE PUSH1 0x1F NOT PUSH1 0x1F DUP3 ADD AND DUP3 ADD DUP1 PUSH1 0x40 MSTORE POP DUP2 ADD SWAP1 PUSH2 0x76B SWAP2 SWAP1 PUSH2 0x1586 JUMP JUMPDEST PUSH2 0x775 SWAP2 SWAP1 PUSH2 0x15B3 JUMP JUMPDEST PUSH2 0x77F SWAP2 SWAP1 PUSH2 0x161A JUMP JUMPDEST PUSH2 0x789 SWAP2 SWAP1 PUSH2 0x15B3 JUMP JUMPDEST SWAP1 POP PUSH1 0x0 PUSH1 0x9 SWAP1 POP PUSH1 0x0 DUP1 SWAP5 POP PUSH1 0x0 JUMPDEST DUP3 DUP2 PUSH1 0xFF AND LT ISZERO PUSH2 0xB0E JUMPI PUSH1 0x0 PUSH2 0x7BD DUP6 PUSH4 0xFFFFFFFF AND PUSH1 0x3 SLOAD PUSH1 0x4 SLOAD PUSH1 0x64 PUSH2 0xFFC JUMP JUMPDEST SWAP1 POP PUSH1 0x0 PUSH2 0x7EA PUSH1 0x1 SLOAD DUP6 DUP1 PUSH2 0x7D2 SWAP1 PUSH2 0x1502 JUMP JUMPDEST SWAP7 POP PUSH1 0x0 PUSH1 0x64 PUSH1 0x4 SLOAD PUSH2 0x7E5 SWAP2 SWAP1 PUSH2 0x164B JUMP JUMPDEST PUSH2 0x103B JUMP JUMPDEST DUP3 LT ISZERO SWAP1 POP PUSH1 0x0 PUSH1 0x1 SWAP1 POP PUSH2 0x811 PUSH1 0x1 SLOAD DUP7 DUP1 PUSH2 0x806 SWAP1 PUSH2 0x1502 JUMP JUMPDEST SWAP8 POP PUSH1 0x0 PUSH1 0x64 PUSH2 0x103B JUMP JUMPDEST PUSH1 0x2 SLOAD LT PUSH2 0x84D JUMPI PUSH1 0xFF PUSH2 0x845 PUSH1 0x1 SLOAD DUP8 DUP1 PUSH2 0x82C SWAP1 PUSH2 0x1502 JUMP JUMPDEST SWAP9 POP PUSH1 0x5 SLOAD PUSH1 0x1 PUSH1 0x6 SLOAD PUSH2 0x840 SWAP2 SWAP1 PUSH2 0x168D JUMP JUMPDEST PUSH2 0x103B JUMP JUMPDEST AND SWAP1 POP PUSH2 0x96F JUMP JUMPDEST PUSH1 0x32 PUSH2 0x86B PUSH1 0x1 SLOAD DUP8 DUP1 PUSH2 0x860 SWAP1 PUSH2 0x1502 JUMP JUMPDEST SWAP9 POP PUSH1 0x0 PUSH1 0x64 PUSH2 0x103B JUMP JUMPDEST LT PUSH2 0x8F1 JUMPI PUSH20 0x0 PUSH4 0x5D2029F1 DUP14 DUP7 PUSH1 0x40 MLOAD DUP4 PUSH4 0xFFFFFFFF AND PUSH1 0xE0 SHL DUP2 MSTORE PUSH1 0x4 ADD PUSH2 0x8A9 SWAP3 SWAP2 SWAP1 PUSH2 0x16D0 JUMP JUMPDEST PUSH1 0x20 PUSH1 0x40 MLOAD DUP1 DUP4 SUB DUP2 DUP7 GAS DELEGATECALL ISZERO DUP1 ISZERO PUSH2 0x8C6 JUMPI RETURNDATASIZE PUSH1 0x0 DUP1 RETURNDATACOPY RETURNDATASIZE PUSH1 0x0 REVERT JUMPDEST POP POP POP POP PUSH1 0x40 MLOAD RETURNDATASIZE PUSH1 0x1F NOT PUSH1 0x1F DUP3 ADD AND DUP3 ADD DUP1 PUSH1 0x40 MSTORE POP DUP2 ADD SWAP1 PUSH2 0x8EA SWAP2 SWAP1 PUSH2 0x132C JUMP JUMPDEST SWAP1 POP PUSH2 0x96E JUMP JUMPDEST PUSH20 0x0 PUSH4 0x5D2029F1 DUP15 DUP7 PUSH1 0x40 MLOAD DUP4 PUSH4 0xFFFFFFFF AND PUSH1 0xE0 SHL DUP2 MSTORE PUSH1 0x4 ADD PUSH2 0x92A SWAP3 SWAP2 SWAP1 PUSH2 0x16D0 JUMP JUMPDEST PUSH1 0x20 PUSH1 0x40 MLOAD DUP1 DUP4 SUB DUP2 DUP7 GAS DELEGATECALL ISZERO DUP1 ISZERO PUSH2 0x947 JUMPI RETURNDATASIZE PUSH1 0x0 DUP1 RETURNDATACOPY RETURNDATASIZE PUSH1 0x0 REVERT JUMPDEST POP POP POP POP PUSH1 0x40 MLOAD RETURNDATASIZE PUSH1 0x1F NOT PUSH1 0x1F DUP3 ADD AND DUP3 ADD DUP1 PUSH1 0x40 MSTORE POP DUP2 ADD SWAP1 PUSH2 0x96B SWAP2 SWAP1 PUSH2 0x132C JUMP JUMPDEST SWAP1 POP JUMPDEST JUMPDEST PUSH20 0x0 PUSH4 0x34A51D0F DUP11 DUP7 DUP5 PUSH1 0x40 MLOAD DUP5 PUSH4 0xFFFFFFFF AND PUSH1 0xE0 SHL DUP2 MSTORE PUSH1 0x4 ADD PUSH2 0x9AA SWAP4 SWAP3 SWAP2 SWAP1 PUSH2 0x1734 JUMP JUMPDEST PUSH1 0x20 PUSH1 0x40 MLOAD DUP1 DUP4 SUB DUP2 DUP7 GAS DELEGATECALL ISZERO DUP1 ISZERO PUSH2 0x9C7 JUMPI RETURNDATASIZE PUSH1 0x0 DUP1 RETURNDATACOPY RETURNDATASIZE PUSH1 0x0 REVERT JUMPDEST POP POP POP POP PUSH1 0x40 MLOAD RETURNDATASIZE PUSH1 0x1F NOT PUSH1 0x1F DUP3 ADD AND DUP3 ADD DUP1 PUSH1 0x40 MSTORE POP DUP2 ADD SWAP1 PUSH2 0x9EB SWAP2 SWAP1 PUSH2 0x1780 JUMP JUMPDEST SWAP9 POP PUSH20 0x0 PUSH4 0xE1B30AB7 DUP11 DUP7 PUSH1 0x1 PUSH1 0x40 MLOAD DUP5 PUSH4 0xFFFFFFFF AND PUSH1 0xE0 SHL DUP2 MSTORE PUSH1 0x4 ADD PUSH2 0xA29 SWAP4 SWAP3 SWAP2 SWAP1 PUSH2 0x17E8 JUMP JUMPDEST PUSH1 0x20 PUSH1 0x40 MLOAD DUP1 DUP4 SUB DUP2 DUP7 GAS DELEGATECALL ISZERO DUP1 ISZERO PUSH2 0xA46 JUMPI RETURNDATASIZE PUSH1 0x0 DUP1 RETURNDATACOPY RETURNDATASIZE PUSH1 0x0 REVERT JUMPDEST POP POP POP POP PUSH1 0x40 MLOAD RETURNDATASIZE PUSH1 0x1F NOT PUSH1 0x1F DUP3 ADD AND DUP3 ADD DUP1 PUSH1 0x40 MSTORE POP DUP2 ADD SWAP1 PUSH2 0xA6A SWAP2 SWAP1 PUSH2 0x1780 JUMP JUMPDEST SWAP9 POP PUSH20 0x0 PUSH4 0x55D6ED43 DUP11 DUP7 DUP6 PUSH2 0xA94 JUMPI PUSH1 0x0 PUSH2 0xA97 JUMP JUMPDEST PUSH1 0x1 JUMPDEST PUSH1 0x40 MLOAD DUP5 PUSH4 0xFFFFFFFF AND PUSH1 0xE0 SHL DUP2 MSTORE PUSH1 0x4 ADD PUSH2 0xAB5 SWAP4 SWAP3 SWAP2 SWAP1 PUSH2 0x1734 JUMP JUMPDEST PUSH1 0x20 PUSH1 0x40 MLOAD DUP1 DUP4 SUB DUP2 DUP7 GAS DELEGATECALL ISZERO DUP1 ISZERO PUSH2 0xAD2 JUMPI RETURNDATASIZE PUSH1 0x0 DUP1 RETURNDATACOPY RETURNDATASIZE PUSH1 0x0 REVERT JUMPDEST POP POP POP POP PUSH1 0x40 MLOAD RETURNDATASIZE PUSH1 0x1F NOT PUSH1 0x1F DUP3 ADD AND DUP3 ADD DUP1 PUSH1 0x40 MSTORE POP DUP2 ADD SWAP1 PUSH2 0xAF6 SWAP2 SWAP1 PUSH2 0x1780 JUMP JUMPDEST SWAP9 POP POP POP POP DUP1 DUP1 PUSH2 0xB06 SWAP1 PUSH2 0x181F JUMP JUMPDEST SWAP2 POP POP PUSH2 0x799 JUMP JUMPDEST POP PUSH20 0x0 PUSH4 0xB52B6659 DUP11 PUSH1 0x0 PUSH1 0x14 SWAP1 SLOAD SWAP1 PUSH2 0x100 EXP SWAP1 DIV PUSH1 0xFF AND PUSH20 0x0 PUSH4 0x317F435 DUP15 PUSH1 0x40 MLOAD DUP3 PUSH4 0xFFFFFFFF AND PUSH1 0xE0 SHL DUP2 MSTORE PUSH1 0x4 ADD PUSH2 0xB71 SWAP2 SWAP1 PUSH2 0x12FC JUMP JUMPDEST PUSH1 0x20 PUSH1 0x40 MLOAD DUP1 DUP4 SUB DUP2 DUP7 GAS DELEGATECALL ISZERO DUP1 ISZERO PUSH2 0xB8E JUMPI RETURNDATASIZE PUSH1 0x0 DUP1 RETURNDATACOPY RETURNDATASIZE PUSH1 0x0 REVERT JUMPDEST POP POP POP POP PUSH1 0x40 MLOAD RETURNDATASIZE PUSH1 0x1F NOT PUSH1 0x1F DUP3 ADD AND DUP3 ADD DUP1 PUSH1 0x40 MSTORE POP DUP2 ADD SWAP1 PUSH2 0xBB2 SWAP2 SWAP1 PUSH2 0x132C JUMP JUMPDEST PUSH2 0xBBC SWAP2 SWAP1 PUSH2 0x1848 JUMP JUMPDEST PUSH1 0x40 MLOAD DUP4 PUSH4 0xFFFFFFFF AND PUSH1 0xE0 SHL DUP2 MSTORE PUSH1 0x4 ADD PUSH2 0xBD9 SWAP3 SWAP2 SWAP1 PUSH2 0x16D0 JUMP JUMPDEST PUSH1 0x20 PUSH1 0x40 MLOAD DUP1 DUP4 SUB DUP2 DUP7 GAS DELEGATECALL ISZERO DUP1 ISZERO PUSH2 0xBF6 JUMPI RETURNDATASIZE PUSH1 0x0 DUP1 RETURNDATACOPY RETURNDATASIZE PUSH1 0x0 REVERT JUMPDEST POP POP POP POP PUSH1 0x40 MLOAD RETURNDATASIZE PUSH1 0x1F NOT PUSH1 0x1F DUP3 ADD AND DUP3 ADD DUP1 PUSH1 0x40 MSTORE POP DUP2 ADD SWAP1 PUSH2 0xC1A SWAP2 SWAP1 PUSH2 0x1780 JUMP JUMPDEST SWAP7 POP PUSH20 0x0 PUSH4 0xB52B6659 DUP10 PUSH1 0x0 PUSH1 0x14 SWAP1 SLOAD SWAP1 PUSH2 0x100 EXP SWAP1 DIV PUSH1 0xFF AND PUSH20 0x0 PUSH4 0x317F435 DUP14 PUSH1 0x40 MLOAD DUP3 PUSH4 0xFFFFFFFF AND PUSH1 0xE0 SHL DUP2 MSTORE PUSH1 0x4 ADD PUSH2 0xC7E SWAP2 SWAP1 PUSH2 0x12FC JUMP JUMPDEST PUSH1 0x20 PUSH1 0x40 MLOAD DUP1 DUP4 SUB DUP2 DUP7 GAS DELEGATECALL ISZERO DUP1 ISZERO PUSH2 0xC9B JUMPI RETURNDATASIZE PUSH1 0x0 DUP1 RETURNDATACOPY RETURNDATASIZE PUSH1 0x0 REVERT JUMPDEST POP POP POP POP PUSH1 0x40 MLOAD RETURNDATASIZE PUSH1 0x1F NOT PUSH1 0x1F DUP3 ADD AND DUP3 ADD DUP1 PUSH1 0x40 MSTORE POP DUP2 ADD SWAP1 PUSH2 0xCBF SWAP2 SWAP1 PUSH2 0x132C JUMP JUMPDEST PUSH2 0xCC9 SWAP2 SWAP1 PUSH2 0x1848 JUMP JUMPDEST PUSH1 0x40 MLOAD DUP4 PUSH4 0xFFFFFFFF AND PUSH1 0xE0 SHL DUP2 MSTORE PUSH1 0x4 ADD PUSH2 0xCE6 SWAP3 SWAP2 SWAP1 PUSH2 0x16D0 JUMP JUMPDEST PUSH1 0x20 PUSH1 0x40 MLOAD DUP1 DUP4 SUB DUP2 DUP7 GAS DELEGATECALL ISZERO DUP1 ISZERO PUSH2 0xD03 JUMPI RETURNDATASIZE PUSH1 0x0 DUP1 RETURNDATACOPY RETURNDATASIZE PUSH1 0x0 REVERT JUMPDEST POP POP POP POP PUSH1 0x40 MLOAD RETURNDATASIZE PUSH1 0x1F NOT PUSH1 0x1F DUP3 ADD AND DUP3 ADD DUP1 PUSH1 0x40 MSTORE POP DUP2 ADD SWAP1 PUSH2 0xD27 SWAP2 SWAP1 PUSH2 0x1780 JUMP JUMPDEST SWAP6 POP PUSH20 0x0 PUSH4 0x8DE97F4F DUP7 DUP6 PUSH1 0x40 MLOAD DUP4 PUSH4 0xFFFFFFFF AND PUSH1 0xE0 SHL DUP2 MSTORE PUSH1 0x4 ADD PUSH2 0xD62 SWAP3 SWAP2 SWAP1 PUSH2 0x188C JUMP JUMPDEST PUSH1 0x20 PUSH1 0x40 MLOAD DUP1 DUP4 SUB DUP2 DUP7 GAS DELEGATECALL ISZERO DUP1 ISZERO PUSH2 0xD7F JUMPI RETURNDATASIZE PUSH1 0x0 DUP1 RETURNDATACOPY RETURNDATASIZE PUSH1 0x0 REVERT JUMPDEST POP POP POP POP PUSH1 0x40 MLOAD RETURNDATASIZE PUSH1 0x1F NOT PUSH1 0x1F DUP3 ADD AND DUP3 ADD DUP1 PUSH1 0x40 MSTORE POP DUP2 ADD SWAP1 PUSH2 0xDA3 SWAP2 SWAP1 PUSH2 0x1780 JUMP JUMPDEST SWAP5 POP PUSH20 0x0 PUSH4 0xB52B6659 DUP7 PUSH1 0x1 PUSH1 0x40 MLOAD DUP4 PUSH4 0xFFFFFFFF AND PUSH1 0xE0 SHL DUP2 MSTORE PUSH1 0x4 ADD PUSH2 0xDDF SWAP3 SWAP2 SWAP1 PUSH2 0x18B5 JUMP JUMPDEST PUSH1 0x20 PUSH1 0x40 MLOAD DUP1 DUP4 SUB DUP2 DUP7 GAS DELEGATECALL ISZERO DUP1 ISZERO PUSH2 0xDFC JUMPI RETURNDATASIZE PUSH1 0x0 DUP1 RETURNDATACOPY RETURNDATASIZE PUSH1 0x0 REVERT JUMPDEST POP POP POP POP PUSH1 0x40 MLOAD RETURNDATASIZE PUSH1 0x1F NOT PUSH1 0x1F DUP3 ADD AND DUP3 ADD DUP1 PUSH1 0x40 MSTORE POP DUP2 ADD SWAP1 PUSH2 0xE20 SWAP2 SWAP1 PUSH2 0x1780 JUMP JUMPDEST SWAP5 POP POP POP POP POP SWAP3 POP SWAP3 POP SWAP3 JUMP JUMPDEST PUSH1 0x0 PUSH1 0x5 SLOAD SWAP1 POP SWAP1 JUMP JUMPDEST PUSH2 0xE3F PUSH2 0xEBA JUMP JUMPDEST PUSH1 0x0 PUSH20 0xFFFFFFFFFFFFFFFFFFFFFFFFFFFFFFFFFFFFFFFF AND DUP2 PUSH20 0xFFFFFFFFFFFFFFFFFFFFFFFFFFFFFFFFFFFFFFFF AND SUB PUSH2 0xEAE JUMPI PUSH1 0x40 MLOAD PUSH32 0x8C379A000000000000000000000000000000000000000000000000000000000 DUP2 MSTORE PUSH1 0x4 ADD PUSH2 0xEA5 SWAP1 PUSH2 0x1950 JUMP JUMPDEST PUSH1 0x40 MLOAD DUP1 SWAP2 SUB SWAP1 REVERT JUMPDEST PUSH2 0xEB7 DUP2 PUSH2 0xF38 JUMP JUMPDEST POP JUMP JUMPDEST PUSH2 0xEC2 PUSH2 0x1097 JUMP JUMPDEST PUSH20 0xFFFFFFFFFFFFFFFFFFFFFFFFFFFFFFFFFFFFFFFF AND PUSH2 0xEE0 PUSH2 0x3B7 JUMP JUMPDEST PUSH20 0xFFFFFFFFFFFFFFFFFFFFFFFFFFFFFFFFFFFFFFFF AND EQ PUSH2 0xF36 JUMPI PUSH1 0x40 MLOAD PUSH32 0x8C379A000000000000000000000000000000000000000000000000000000000 DUP2 MSTORE PUSH1 0x4 ADD PUSH2 0xF2D SWAP1 PUSH2 0x19BC JUMP JUMPDEST PUSH1 0x40 MLOAD DUP1 SWAP2 SUB SWAP1 REVERT JUMPDEST JUMP JUMPDEST PUSH1 0x0 DUP1 PUSH1 0x0 SWAP1 SLOAD SWAP1 PUSH2 0x100 EXP SWAP1 DIV PUSH20 0xFFFFFFFFFFFFFFFFFFFFFFFFFFFFFFFFFFFFFFFF AND SWAP1 POP DUP2 PUSH1 0x0 DUP1 PUSH2 0x100 EXP DUP2 SLOAD DUP2 PUSH20 0xFFFFFFFFFFFFFFFFFFFFFFFFFFFFFFFFFFFFFFFF MUL NOT AND SWAP1 DUP4 PUSH20 0xFFFFFFFFFFFFFFFFFFFFFFFFFFFFFFFFFFFFFFFF AND MUL OR SWAP1 SSTORE POP DUP2 PUSH20 0xFFFFFFFFFFFFFFFFFFFFFFFFFFFFFFFFFFFFFFFF AND DUP2 PUSH20 0xFFFFFFFFFFFFFFFFFFFFFFFFFFFFFFFFFFFFFFFF AND PUSH32 0x8BE0079C531659141344CD1FD0A4F28419497F9722A3DAAFE3B4186F6B6457E0 PUSH1 0x40 MLOAD PUSH1 0x40 MLOAD DUP1 SWAP2 SUB SWAP1 LOG3 POP POP JUMP JUMPDEST PUSH1 0x0 DUP4 DUP6 GT PUSH2 0x100E JUMPI PUSH1 0x0 SWAP1 POP PUSH2 0x1033 JUMP JUMPDEST DUP3 DUP3 DUP6 DUP8 PUSH2 0x101C SWAP2 SWAP1 PUSH2 0x19DC JUMP JUMPDEST PUSH2 0x1026 SWAP2 SWAP1 PUSH2 0x164B JUMP JUMPDEST PUSH2 0x1030 SWAP2 SWAP1 PUSH2 0x1A10 JUMP JUMPDEST SWAP1 POP JUMPDEST SWAP5 SWAP4 POP POP POP POP JUMP JUMPDEST PUSH1 0x0 DUP3 DUP3 PUSH2 0x1049 SWAP2 SWAP1 PUSH2 0x19DC JUMP JUMPDEST DUP6 DUP6 PUSH1 0x40 MLOAD PUSH1 0x20 ADD PUSH2 0x105C SWAP3 SWAP2 SWAP1 PUSH2 0x1A41 JUMP JUMPDEST PUSH1 0x40 MLOAD PUSH1 0x20 DUP2 DUP4 SUB SUB DUP2 MSTORE SWAP1 PUSH1 0x40 MSTORE DUP1 MLOAD SWAP1 PUSH1 0x20 ADD KECCAK256 PUSH1 0x0 SHR PUSH2 0x107F SWAP2 SWAP1 PUSH2 0x1A6D JUMP JUMPDEST SWAP1 POP DUP1 DUP4 PUSH2 0x108D SWAP2 SWAP1 PUSH2 0x168D JUMP JUMPDEST SWAP1 POP SWAP5 SWAP4 POP POP POP POP JUMP JUMPDEST PUSH1 0x0 CALLER SWAP1 POP SWAP1 JUMP JUMPDEST PUSH1 0x0 DUP1 REVERT JUMPDEST PUSH1 0x0 DUP2 SWAP1 POP SWAP2 SWAP1 POP JUMP JUMPDEST PUSH2 0x10B7 DUP2 PUSH2 0x10A4 JUMP JUMPDEST DUP2 EQ PUSH2 0x10C2 JUMPI PUSH1 0x0 DUP1 REVERT JUMPDEST POP JUMP JUMPDEST PUSH1 0x0 DUP2 CALLDATALOAD SWAP1 POP PUSH2 0x10D4 DUP2 PUSH2 0x10AE JUMP JUMPDEST SWAP3 SWAP2 POP POP JUMP JUMPDEST PUSH1 0x0 PUSH1 0x20 DUP3 DUP5 SUB SLT ISZERO PUSH2 0x10F0 JUMPI PUSH2 0x10EF PUSH2 0x109F JUMP JUMPDEST JUMPDEST PUSH1 0x0 PUSH2 0x10FE DUP5 DUP3 DUP6 ADD PUSH2 0x10C5 JUMP JUMPDEST SWAP2 POP POP SWAP3 SWAP2 POP POP JUMP JUMPDEST PUSH2 0x1110 DUP2 PUSH2 0x10A4 JUMP JUMPDEST DUP3 MSTORE POP POP JUMP JUMPDEST PUSH1 0x0 PUSH1 0x20 DUP3 ADD SWAP1 POP PUSH2 0x112B PUSH1 0x0 DUP4 ADD DUP5 PUSH2 0x1107 JUMP JUMPDEST SWAP3 SWAP2 POP POP JUMP JUMPDEST PUSH1 0x0 PUSH1 0xFF DUP3 AND SWAP1 POP SWAP2 SWAP1 POP JUMP JUMPDEST PUSH2 0x1147 DUP2 PUSH2 0x1131 JUMP JUMPDEST DUP3 MSTORE POP POP JUMP JUMPDEST PUSH1 0x0 PUSH1 0x20 DUP3 ADD SWAP1 POP PUSH2 0x1162 PUSH1 0x0 DUP4 ADD DUP5 PUSH2 0x113E JUMP JUMPDEST SWAP3 SWAP2 POP POP JUMP JUMPDEST PUSH1 0x0 PUSH20 0xFFFFFFFFFFFFFFFFFFFFFFFFFFFFFFFFFFFFFFFF DUP3 AND SWAP1 POP SWAP2 SWAP1 POP JUMP JUMPDEST PUSH1 0x0 PUSH2 0x1193 DUP3 PUSH2 0x1168 JUMP JUMPDEST SWAP1 POP SWAP2 SWAP1 POP JUMP JUMPDEST PUSH2 0x11A3 DUP2 PUSH2 0x1188 JUMP JUMPDEST DUP3 MSTORE POP POP JUMP JUMPDEST PUSH1 0x0 PUSH1 0x20 DUP3 ADD SWAP1 POP PUSH2 0x11BE PUSH1 0x0 DUP4 ADD DUP5 PUSH2 0x119A JUMP JUMPDEST SWAP3 SWAP2 POP POP JUMP JUMPDEST PUSH2 0x11CD DUP2 PUSH2 0x1131 JUMP JUMPDEST DUP2 EQ PUSH2 0x11D8 JUMPI PUSH1 0x0 DUP1 REVERT JUMPDEST POP JUMP JUMPDEST PUSH1 0x0 DUP2 CALLDATALOAD SWAP1 POP PUSH2 0x11EA DUP2 PUSH2 0x11C4 JUMP JUMPDEST SWAP3 SWAP2 POP POP JUMP JUMPDEST PUSH1 0x0 PUSH1 0x20 DUP3 DUP5 SUB SLT ISZERO PUSH2 0x1206 JUMPI PUSH2 0x1205 PUSH2 0x109F JUMP JUMPDEST JUMPDEST PUSH1 0x0 PUSH2 0x1214 DUP5 DUP3 DUP6 ADD PUSH2 0x11DB JUMP JUMPDEST SWAP2 POP POP SWAP3 SWAP2 POP POP JUMP JUMPDEST PUSH1 0x0 DUP1 PUSH1 0x40 DUP4 DUP6 SUB SLT ISZERO PUSH2 0x1234 JUMPI PUSH2 0x1233 PUSH2 0x109F JUMP JUMPDEST JUMPDEST PUSH1 0x0 PUSH2 0x1242 DUP6 DUP3 DUP7 ADD PUSH2 0x10C5 JUMP JUMPDEST SWAP3 POP POP PUSH1 0x20 PUSH2 0x1253 DUP6 DUP3 DUP7 ADD PUSH2 0x10C5 JUMP JUMPDEST SWAP2 POP POP SWAP3 POP SWAP3 SWAP1 POP JUMP JUMPDEST PUSH1 0x0 PUSH1 0x60 DUP3 ADD SWAP1 POP PUSH2 0x1272 PUSH1 0x0 DUP4 ADD DUP7 PUSH2 0x1107 JUMP JUMPDEST PUSH2 0x127F PUSH1 0x20 DUP4 ADD DUP6 PUSH2 0x1107 JUMP JUMPDEST PUSH2 0x128C PUSH1 0x40 DUP4 ADD DUP5 PUSH2 0x1107 JUMP JUMPDEST SWAP5 SWAP4 POP POP POP POP JUMP JUMPDEST PUSH2 0x129D DUP2 PUSH2 0x1188 JUMP JUMPDEST DUP2 EQ PUSH2 0x12A8 JUMPI PUSH1 0x0 DUP1 REVERT JUMPDEST POP JUMP JUMPDEST PUSH1 0x0 DUP2 CALLDATALOAD SWAP1 POP PUSH2 0x12BA DUP2 PUSH2 0x1294 JUMP JUMPDEST SWAP3 SWAP2 POP POP JUMP JUMPDEST PUSH1 0x0 PUSH1 0x20 DUP3 DUP5 SUB SLT ISZERO PUSH2 0x12D6 JUMPI PUSH2 0x12D5 PUSH2 0x109F JUMP JUMPDEST JUMPDEST PUSH1 0x0 PUSH2 0x12E4 DUP5 DUP3 DUP6 ADD PUSH2 0x12AB JUMP JUMPDEST SWAP2 POP POP SWAP3 SWAP2 POP POP JUMP JUMPDEST PUSH2 0x12F6 DUP2 PUSH2 0x10A4 JUMP JUMPDEST DUP3 MSTORE POP POP JUMP JUMPDEST PUSH1 0x0 PUSH1 0x20 DUP3 ADD SWAP1 POP PUSH2 0x1311 PUSH1 0x0 DUP4 ADD DUP5 PUSH2 0x12ED JUMP JUMPDEST SWAP3 SWAP2 POP POP JUMP JUMPDEST PUSH1 0x0 DUP2 MLOAD SWAP1 POP PUSH2 0x1326 DUP2 PUSH2 0x11C4 JUMP JUMPDEST SWAP3 SWAP2 POP POP JUMP JUMPDEST PUSH1 0x0 PUSH1 0x20 DUP3 DUP5 SUB SLT ISZERO PUSH2 0x1342 JUMPI PUSH2 0x1341 PUSH2 0x109F JUMP JUMPDEST JUMPDEST PUSH1 0x0 PUSH2 0x1350 DUP5 DUP3 DUP6 ADD PUSH2 0x1317 JUMP JUMPDEST SWAP2 POP POP SWAP3 SWAP2 POP POP JUMP JUMPDEST PUSH1 0x0 DUP3 DUP3 MSTORE PUSH1 0x20 DUP3 ADD SWAP1 POP SWAP3 SWAP2 POP POP JUMP JUMPDEST PUSH32 0x696E73756666696369656E742063686172676500000000000000000000000000 PUSH1 0x0 DUP3 ADD MSTORE POP JUMP JUMPDEST PUSH1 0x0 PUSH2 0x13A0 PUSH1 0x13 DUP4 PUSH2 0x1359 JUMP JUMPDEST SWAP2 POP PUSH2 0x13AB DUP3 PUSH2 0x136A JUMP JUMPDEST PUSH1 0x20 DUP3 ADD SWAP1 POP SWAP2 SWAP1 POP JUMP JUMPDEST PUSH1 0x0 PUSH1 0x20 DUP3 ADD SWAP1 POP DUP2 DUP2 SUB PUSH1 0x0 DUP4 ADD MSTORE PUSH2 0x13CF DUP2 PUSH2 0x1393 JUMP JUMPDEST SWAP1 POP SWAP2 SWAP1 POP JUMP JUMPDEST PUSH1 0x0 DUP2 SWAP1 POP SWAP2 SWAP1 POP JUMP JUMPDEST PUSH2 0x13F1 PUSH2 0x13EC DUP3 PUSH2 0x10A4 JUMP JUMPDEST PUSH2 0x13D6 JUMP JUMPDEST DUP3 MSTORE POP POP JUMP JUMPDEST PUSH1 0x0 PUSH2 0x1403 DUP3 DUP10 PUSH2 0x13E0 JUMP JUMPDEST PUSH1 0x20 DUP3 ADD SWAP2 POP PUSH2 0x1413 DUP3 DUP9 PUSH2 0x13E0 JUMP JUMPDEST PUSH1 0x20 DUP3 ADD SWAP2 POP PUSH2 0x1423 DUP3 DUP8 PUSH2 0x13E0 JUMP JUMPDEST PUSH1 0x20 DUP3 ADD SWAP2 POP PUSH2 0x1433 DUP3 DUP7 PUSH2 0x13E0 JUMP JUMPDEST PUSH1 0x20 DUP3 ADD SWAP2 POP PUSH2 0x1443 DUP3 DUP6 PUSH2 0x13E0 JUMP JUMPDEST PUSH1 0x20 DUP3 ADD SWAP2 POP PUSH2 0x1453 DUP3 DUP5 PUSH2 0x13E0 JUMP JUMPDEST PUSH1 0x20 DUP3 ADD SWAP2 POP DUP2 SWAP1 POP SWAP8 SWAP7 POP POP POP POP POP POP POP JUMP JUMPDEST PUSH32 0x72616E646F6D536565642063616E277420626520300000000000000000000000 PUSH1 0x0 DUP3 ADD MSTORE POP JUMP JUMPDEST PUSH1 0x0 PUSH2 0x149D PUSH1 0x15 DUP4 PUSH2 0x1359 JUMP JUMPDEST SWAP2 POP PUSH2 0x14A8 DUP3 PUSH2 0x1467 JUMP JUMPDEST PUSH1 0x20 DUP3 ADD SWAP1 POP SWAP2 SWAP1 POP JUMP JUMPDEST PUSH1 0x0 PUSH1 0x20 DUP3 ADD SWAP1 POP DUP2 DUP2 SUB PUSH1 0x0 DUP4 ADD MSTORE PUSH2 0x14CC DUP2 PUSH2 0x1490 JUMP JUMPDEST SWAP1 POP SWAP2 SWAP1 POP JUMP JUMPDEST PUSH32 0x4E487B7100000000000000000000000000000000000000000000000000000000 PUSH1 0x0 MSTORE PUSH1 0x11 PUSH1 0x4 MSTORE PUSH1 0x24 PUSH1 0x0 REVERT JUMPDEST PUSH1 0x0 PUSH2 0x150D DUP3 PUSH2 0x10A4 JUMP JUMPDEST SWAP2 POP PUSH32 0xFFFFFFFFFFFFFFFFFFFFFFFFFFFFFFFFFFFFFFFFFFFFFFFFFFFFFFFFFFFFFFFF DUP3 SUB PUSH2 0x153F JUMPI PUSH2 0x153E PUSH2 0x14D3 JUMP JUMPDEST JUMPDEST PUSH1 0x1 DUP3 ADD SWAP1 POP SWAP2 SWAP1 POP JUMP JUMPDEST PUSH1 0x0 PUSH4 0xFFFFFFFF DUP3 AND SWAP1 POP SWAP2 SWAP1 POP JUMP JUMPDEST PUSH2 0x1563 DUP2 PUSH2 0x154A JUMP JUMPDEST DUP2 EQ PUSH2 0x156E JUMPI PUSH1 0x0 DUP1 REVERT JUMPDEST POP JUMP JUMPDEST PUSH1 0x0 DUP2 MLOAD SWAP1 POP PUSH2 0x1580 DUP2 PUSH2 0x155A JUMP JUMPDEST SWAP3 SWAP2 POP POP JUMP JUMPDEST PUSH1 0x0 PUSH1 0x20 DUP3 DUP5 SUB SLT ISZERO PUSH2 0x159C JUMPI PUSH2 0x159B PUSH2 0x109F JUMP JUMPDEST JUMPDEST PUSH1 0x0 PUSH2 0x15AA DUP5 DUP3 DUP6 ADD PUSH2 0x1571 JUMP JUMPDEST SWAP2 POP POP SWAP3 SWAP2 POP POP JUMP JUMPDEST PUSH1 0x0 PUSH2 0x15BE DUP3 PUSH2 0x154A JUMP JUMPDEST SWAP2 POP PUSH2 0x15C9 DUP4 PUSH2 0x154A JUMP JUMPDEST SWAP3 POP DUP3 DUP3 ADD SWAP1 POP PUSH4 0xFFFFFFFF DUP2 GT ISZERO PUSH2 0x15E5 JUMPI PUSH2 0x15E4 PUSH2 0x14D3 JUMP JUMPDEST JUMPDEST SWAP3 SWAP2 POP POP JUMP JUMPDEST PUSH32 0x4E487B7100000000000000000000000000000000000000000000000000000000 PUSH1 0x0 MSTORE PUSH1 0x12 PUSH1 0x4 MSTORE PUSH1 0x24 PUSH1 0x0 REVERT JUMPDEST PUSH1 0x0 PUSH2 0x1625 DUP3 PUSH2 0x154A JUMP JUMPDEST SWAP2 POP PUSH2 0x1630 DUP4 PUSH2 0x154A JUMP JUMPDEST SWAP3 POP DUP3 PUSH2 0x1640 JUMPI PUSH2 0x163F PUSH2 0x15EB JUMP JUMPDEST JUMPDEST DUP3 DUP3 DIV SWAP1 POP SWAP3 SWAP2 POP POP JUMP JUMPDEST PUSH1 0x0 PUSH2 0x1656 DUP3 PUSH2 0x10A4 JUMP JUMPDEST SWAP2 POP PUSH2 0x1661 DUP4 PUSH2 0x10A4 JUMP JUMPDEST SWAP3 POP DUP3 DUP3 MUL PUSH2 0x166F DUP2 PUSH2 0x10A4 JUMP JUMPDEST SWAP2 POP DUP3 DUP3 DIV DUP5 EQ DUP4 ISZERO OR PUSH2 0x1686 JUMPI PUSH2 0x1685 PUSH2 0x14D3 JUMP JUMPDEST JUMPDEST POP SWAP3 SWAP2 POP POP JUMP JUMPDEST PUSH1 0x0 PUSH2 0x1698 DUP3 PUSH2 0x10A4 JUMP JUMPDEST SWAP2 POP PUSH2 0x16A3 DUP4 PUSH2 0x10A4 JUMP JUMPDEST SWAP3 POP DUP3 DUP3 ADD SWAP1 POP DUP1 DUP3 GT ISZERO PUSH2 0x16BB JUMPI PUSH2 0x16BA PUSH2 0x14D3 JUMP JUMPDEST JUMPDEST SWAP3 SWAP2 POP POP JUMP JUMPDEST PUSH2 0x16CA DUP2 PUSH2 0x1131 JUMP JUMPDEST DUP3 MSTORE POP POP JUMP JUMPDEST PUSH1 0x0 PUSH1 0x40 DUP3 ADD SWAP1 POP PUSH2 0x16E5 PUSH1 0x0 DUP4 ADD DUP6 PUSH2 0x12ED JUMP JUMPDEST PUSH2 0x16F2 PUSH1 0x20 DUP4 ADD DUP5 PUSH2 0x16C1 JUMP JUMPDEST SWAP4 SWAP3 POP POP POP JUMP JUMPDEST PUSH1 0x0 DUP2 SWAP1 POP SWAP2 SWAP1 POP JUMP JUMPDEST PUSH1 0x0 PUSH2 0x171E PUSH2 0x1719 PUSH2 0x1714 DUP5 PUSH2 0x1131 JUMP JUMPDEST PUSH2 0x16F9 JUMP JUMPDEST PUSH2 0x10A4 JUMP JUMPDEST SWAP1 POP SWAP2 SWAP1 POP JUMP JUMPDEST PUSH2 0x172E DUP2 PUSH2 0x1703 JUMP JUMPDEST DUP3 MSTORE POP POP JUMP JUMPDEST PUSH1 0x0 PUSH1 0x60 DUP3 ADD SWAP1 POP PUSH2 0x1749 PUSH1 0x0 DUP4 ADD DUP7 PUSH2 0x12ED JUMP JUMPDEST PUSH2 0x1756 PUSH1 0x20 DUP4 ADD DUP6 PUSH2 0x1725 JUMP JUMPDEST PUSH2 0x1763 PUSH1 0x40 DUP4 ADD DUP5 PUSH2 0x16C1 JUMP JUMPDEST SWAP5 SWAP4 POP POP POP POP JUMP JUMPDEST PUSH1 0x0 DUP2 MLOAD SWAP1 POP PUSH2 0x177A DUP2 PUSH2 0x10AE JUMP JUMPDEST SWAP3 SWAP2 POP POP JUMP JUMPDEST PUSH1 0x0 PUSH1 0x20 DUP3 DUP5 SUB SLT ISZERO PUSH2 0x1796 JUMPI PUSH2 0x1795 PUSH2 0x109F JUMP JUMPDEST JUMPDEST PUSH1 0x0 PUSH2 0x17A4 DUP5 DUP3 DUP6 ADD PUSH2 0x176B JUMP JUMPDEST SWAP2 POP POP SWAP3 SWAP2 POP POP JUMP JUMPDEST PUSH1 0x0 DUP2 SWAP1 POP SWAP2 SWAP1 POP JUMP JUMPDEST PUSH1 0x0 PUSH2 0x17D2 PUSH2 0x17CD PUSH2 0x17C8 DUP5 PUSH2 0x17AD JUMP JUMPDEST PUSH2 0x16F9 JUMP JUMPDEST PUSH2 0x1131 JUMP JUMPDEST SWAP1 POP SWAP2 SWAP1 POP JUMP JUMPDEST PUSH2 0x17E2 DUP2 PUSH2 0x17B7 JUMP JUMPDEST DUP3 MSTORE POP POP JUMP JUMPDEST PUSH1 0x0 PUSH1 0x60 DUP3 ADD SWAP1 POP PUSH2 0x17FD PUSH1 0x0 DUP4 ADD DUP7 PUSH2 0x12ED JUMP JUMPDEST PUSH2 0x180A PUSH1 0x20 DUP4 ADD DUP6 PUSH2 0x1725 JUMP JUMPDEST PUSH2 0x1817 PUSH1 0x40 DUP4 ADD DUP5 PUSH2 0x17D9 JUMP JUMPDEST SWAP5 SWAP4 POP POP POP POP JUMP JUMPDEST PUSH1 0x0 PUSH2 0x182A DUP3 PUSH2 0x1131 JUMP JUMPDEST SWAP2 POP PUSH1 0xFF DUP3 SUB PUSH2 0x183D JUMPI PUSH2 0x183C PUSH2 0x14D3 JUMP JUMPDEST JUMPDEST PUSH1 0x1 DUP3 ADD SWAP1 POP SWAP2 SWAP1 POP JUMP JUMPDEST PUSH1 0x0 PUSH2 0x1853 DUP3 PUSH2 0x1131 JUMP JUMPDEST SWAP2 POP PUSH2 0x185E DUP4 PUSH2 0x1131 JUMP JUMPDEST SWAP3 POP DUP3 DUP3 SUB SWAP1 POP PUSH1 0xFF DUP2 GT ISZERO PUSH2 0x1877 JUMPI PUSH2 0x1876 PUSH2 0x14D3 JUMP JUMPDEST JUMPDEST SWAP3 SWAP2 POP POP JUMP JUMPDEST PUSH2 0x1886 DUP2 PUSH2 0x154A JUMP JUMPDEST DUP3 MSTORE POP POP JUMP JUMPDEST PUSH1 0x0 PUSH1 0x40 DUP3 ADD SWAP1 POP PUSH2 0x18A1 PUSH1 0x0 DUP4 ADD DUP6 PUSH2 0x12ED JUMP JUMPDEST PUSH2 0x18AE PUSH1 0x20 DUP4 ADD DUP5 PUSH2 0x187D JUMP JUMPDEST SWAP4 SWAP3 POP POP POP JUMP JUMPDEST PUSH1 0x0 PUSH1 0x40 DUP3 ADD SWAP1 POP PUSH2 0x18CA PUSH1 0x0 DUP4 ADD DUP6 PUSH2 0x12ED JUMP JUMPDEST PUSH2 0x18D7 PUSH1 0x20 DUP4 ADD DUP5 PUSH2 0x17D9 JUMP JUMPDEST SWAP4 SWAP3 POP POP POP JUMP JUMPDEST PUSH32 0x4F776E61626C653A206E6577206F776E657220697320746865207A65726F2061 PUSH1 0x0 DUP3 ADD MSTORE PUSH32 0x6464726573730000000000000000000000000000000000000000000000000000 PUSH1 0x20 DUP3 ADD MSTORE POP JUMP JUMPDEST PUSH1 0x0 PUSH2 0x193A PUSH1 0x26 DUP4 PUSH2 0x1359 JUMP JUMPDEST SWAP2 POP PUSH2 0x1945 DUP3 PUSH2 0x18DE JUMP JUMPDEST PUSH1 0x40 DUP3 ADD SWAP1 POP SWAP2 SWAP1 POP JUMP JUMPDEST PUSH1 0x0 PUSH1 0x20 DUP3 ADD SWAP1 POP DUP2 DUP2 SUB PUSH1 0x0 DUP4 ADD MSTORE PUSH2 0x1969 DUP2 PUSH2 0x192D JUMP JUMPDEST SWAP1 POP SWAP2 SWAP1 POP JUMP JUMPDEST PUSH32 0x4F776E61626C653A2063616C6C6572206973206E6F7420746865206F776E6572 PUSH1 0x0 DUP3 ADD MSTORE POP JUMP JUMPDEST PUSH1 0x0 PUSH2 0x19A6 PUSH1 0x20 DUP4 PUSH2 0x1359 JUMP JUMPDEST SWAP2 POP PUSH2 0x19B1 DUP3 PUSH2 0x1970 JUMP JUMPDEST PUSH1 0x20 DUP3 ADD SWAP1 POP SWAP2 SWAP1 POP JUMP JUMPDEST PUSH1 0x0 PUSH1 0x20 DUP3 ADD SWAP1 POP DUP2 DUP2 SUB PUSH1 0x0 DUP4 ADD MSTORE PUSH2 0x19D5 DUP2 PUSH2 0x1999 JUMP JUMPDEST SWAP1 POP SWAP2 SWAP1 POP JUMP JUMPDEST PUSH1 0x0 PUSH2 0x19E7 DUP3 PUSH2 0x10A4 JUMP JUMPDEST SWAP2 POP PUSH2 0x19F2 DUP4 PUSH2 0x10A4 JUMP JUMPDEST SWAP3 POP DUP3 DUP3 SUB SWAP1 POP DUP2 DUP2 GT ISZERO PUSH2 0x1A0A JUMPI PUSH2 0x1A09 PUSH2 0x14D3 JUMP JUMPDEST JUMPDEST SWAP3 SWAP2 POP POP JUMP JUMPDEST PUSH1 0x0 PUSH2 0x1A1B DUP3 PUSH2 0x10A4 JUMP JUMPDEST SWAP2 POP PUSH2 0x1A26 DUP4 PUSH2 0x10A4 JUMP JUMPDEST SWAP3 POP DUP3 PUSH2 0x1A36 JUMPI PUSH2 0x1A35 PUSH2 0x15EB JUMP JUMPDEST JUMPDEST DUP3 DUP3 DIV SWAP1 POP SWAP3 SWAP2 POP POP JUMP JUMPDEST PUSH1 0x0 PUSH2 0x1A4D DUP3 DUP6 PUSH2 0x13E0 JUMP JUMPDEST PUSH1 0x20 DUP3 ADD SWAP2 POP PUSH2 0x1A5D DUP3 DUP5 PUSH2 0x13E0 JUMP JUMPDEST PUSH1 0x20 DUP3 ADD SWAP2 POP DUP2 SWAP1 POP SWAP4 SWAP3 POP POP POP JUMP JUMPDEST PUSH1 0x0 PUSH2 0x1A78 DUP3 PUSH2 0x10A4 JUMP JUMPDEST SWAP2 POP PUSH2 0x1A83 DUP4 PUSH2 0x10A4 JUMP JUMPDEST SWAP3 POP DUP3 PUSH2 0x1A93 JUMPI PUSH2 0x1A92 PUSH2 0x15EB JUMP JUMPDEST JUMPDEST DUP3 DUP3 MOD SWAP1 POP SWAP3 SWAP2 POP POP JUMP INVALID LOG2 PUSH5 0x6970667358 0x22 SLT KECCAK256 0x5D DUP4 0xE6 0x2D EQ 0xBA KECCAK256 0xC7 SELFDESTRUCT SWAP1 0xAF MLOAD 0xCE 0xD1 EQ SWAP4 DUP4 CREATE2 CALLVALUE 0xB1 0xC0 0xE5 0xE8 MOD 0xDF XOR 0x2F BYTE 0xE9 0xAE 0xD6 DUP8 PUSH5 0x736F6C6343 STOP ADDMOD SLT STOP CALLER "
		},
		"gasEstimates": {
			"creation": {
				"codeDepositCost": "1373600",
				"executionCost": "infinite",
				"totalCost": "infinite"
			},
			"external": {
				"breading(uint256,uint256)": "infinite",
				"getBreedingPrice()": "2618",
				"getGlobalSeed()": "2548",
				"getMaxArcane()": "2482",
				"getMaxId()": "2504",
				"getMinArcane()": "2460",
				"getMinId()": "2525",
				"getRandomPercent()": "2459",
				"owner()": "2545",
				"renounceOwnership()": "30465",
				"setBreedingPrice(uint8)": "27082",
				"setGlobalSeed(uint256)": "24808",
				"setMaxArcane(uint256)": "24874",
				"setMaxId(uint256)": "24852",
				"setMinArcane(uint256)": "24829",
				"setMinId(uint256)": "24828",
				"setRandomPercent(uint256)": "24830",
				"transferOwnership(address)": "30854"
			},
			"internal": {
				"getArcanePercent(uint256,uint256,uint256,uint256)": "infinite",
				"random(uint256,uint256,uint256,uint256)": "infinite"
			}
		},
		"methodIdentifiers": {
			"breading(uint256,uint256)": "e4a13fb7",
			"getBreedingPrice()": "772121fe",
			"getGlobalSeed()": "878cf3a6",
			"getMaxArcane()": "615ebe28",
			"getMaxId()": "d477a712",
			"getMinArcane()": "32099cc4",
			"getMinId()": "eb4b0e51",
			"getRandomPercent()": "e238b8c6",
			"owner()": "8da5cb5b",
			"renounceOwnership()": "715018a6",
			"setBreedingPrice(uint8)": "de405b18",
			"setGlobalSeed(uint256)": "02aff378",
			"setMaxArcane(uint256)": "1bb39f84",
			"setMaxId(uint256)": "16bd8646",
			"setMinArcane(uint256)": "91b66725",
			"setMinId(uint256)": "e2e3a0db",
			"setRandomPercent(uint256)": "054fee6a",
			"transferOwnership(address)": "f2fde38b"
		}
	},
	"abi": [
		{
			"anonymous": false,
			"inputs": [
				{
					"indexed": true,
					"internalType": "address",
					"name": "previousOwner",
					"type": "address"
				},
				{
					"indexed": true,
					"internalType": "address",
					"name": "newOwner",
					"type": "address"
				}
			],
			"name": "OwnershipTransferred",
			"type": "event"
		},
		{
			"inputs": [
				{
					"internalType": "uint256",
					"name": "momIn",
					"type": "uint256"
				},
				{
					"internalType": "uint256",
					"name": "dadIn",
					"type": "uint256"
				}
			],
			"name": "breading",
			"outputs": [
				{
					"internalType": "uint256",
					"name": "momOut",
					"type": "uint256"
				},
				{
					"internalType": "uint256",
					"name": "dadOut",
					"type": "uint256"
				},
				{
					"internalType": "uint256",
					"name": "genes",
					"type": "uint256"
				}
			],
			"stateMutability": "nonpayable",
			"type": "function"
		},
		{
			"inputs": [],
			"name": "getBreedingPrice",
			"outputs": [
				{
					"internalType": "uint8",
					"name": "",
					"type": "uint8"
				}
			],
			"stateMutability": "view",
			"type": "function"
		},
		{
			"inputs": [],
			"name": "getGlobalSeed",
			"outputs": [
				{
					"internalType": "uint256",
					"name": "",
					"type": "uint256"
				}
			],
			"stateMutability": "view",
			"type": "function"
		},
		{
			"inputs": [],
			"name": "getMaxArcane",
			"outputs": [
				{
					"internalType": "uint256",
					"name": "",
					"type": "uint256"
				}
			],
			"stateMutability": "view",
			"type": "function"
		},
		{
			"inputs": [],
			"name": "getMaxId",
			"outputs": [
				{
					"internalType": "uint256",
					"name": "",
					"type": "uint256"
				}
			],
			"stateMutability": "view",
			"type": "function"
		},
		{
			"inputs": [],
			"name": "getMinArcane",
			"outputs": [
				{
					"internalType": "uint256",
					"name": "",
					"type": "uint256"
				}
			],
			"stateMutability": "view",
			"type": "function"
		},
		{
			"inputs": [],
			"name": "getMinId",
			"outputs": [
				{
					"internalType": "uint256",
					"name": "",
					"type": "uint256"
				}
			],
			"stateMutability": "view",
			"type": "function"
		},
		{
			"inputs": [],
			"name": "getRandomPercent",
			"outputs": [
				{
					"internalType": "uint256",
					"name": "",
					"type": "uint256"
				}
			],
			"stateMutability": "view",
			"type": "function"
		},
		{
			"inputs": [],
			"name": "owner",
			"outputs": [
				{
					"internalType": "address",
					"name": "",
					"type": "address"
				}
			],
			"stateMutability": "view",
			"type": "function"
		},
		{
			"inputs": [],
			"name": "renounceOwnership",
			"outputs": [],
			"stateMutability": "nonpayable",
			"type": "function"
		},
		{
			"inputs": [
				{
					"internalType": "uint8",
					"name": "price",
					"type": "uint8"
				}
			],
			"name": "setBreedingPrice",
			"outputs": [],
			"stateMutability": "nonpayable",
			"type": "function"
		},
		{
			"inputs": [
				{
					"internalType": "uint256",
					"name": "value",
					"type": "uint256"
				}
			],
			"name": "setGlobalSeed",
			"outputs": [],
			"stateMutability": "nonpayable",
			"type": "function"
		},
		{
			"inputs": [
				{
					"internalType": "uint256",
					"name": "value",
					"type": "uint256"
				}
			],
			"name": "setMaxArcane",
			"outputs": [],
			"stateMutability": "nonpayable",
			"type": "function"
		},
		{
			"inputs": [
				{
					"internalType": "uint256",
					"name": "value",
					"type": "uint256"
				}
			],
			"name": "setMaxId",
			"outputs": [],
			"stateMutability": "nonpayable",
			"type": "function"
		},
		{
			"inputs": [
				{
					"internalType": "uint256",
					"name": "value",
					"type": "uint256"
				}
			],
			"name": "setMinArcane",
			"outputs": [],
			"stateMutability": "nonpayable",
			"type": "function"
		},
		{
			"inputs": [
				{
					"internalType": "uint256",
					"name": "value",
					"type": "uint256"
				}
			],
			"name": "setMinId",
			"outputs": [],
			"stateMutability": "nonpayable",
			"type": "function"
		},
		{
			"inputs": [
				{
					"internalType": "uint256",
					"name": "value",
					"type": "uint256"
				}
			],
			"name": "setRandomPercent",
			"outputs": [],
			"stateMutability": "nonpayable",
			"type": "function"
		},
		{
			"inputs": [
				{
					"internalType": "address",
					"name": "newOwner",
					"type": "address"
				}
			],
			"name": "transferOwnership",
			"outputs": [],
			"stateMutability": "nonpayable",
			"type": "function"
		}
	]
}