{
	"data": {
		"bytecode": {
			"linkReferences": {},
			"object": "60806040526001600081905560329055600a60025560646003556004805461ffff191661250917905534801561003457600080fd5b5061094a806100446000396000f3fe608060405234801561001057600080fd5b50600436106100415760003560e01c80631597ee441461004657806361a769001461006c578063a7cc0f501461008c575b600080fd5b6100596100543660046105f4565b61009f565b6040519081526020015b60405180910390f35b61007f61007a3660046106b9565b610105565b60405161006391906106d2565b61005961009a366004610719565b610176565b6000805b82518110156100ff57600882901b91508281600185516100c3919061075b565b6100cd919061075b565b815181106100dd576100dd61076e565b602002602001015160ff168217915080806100f790610784565b9150506100a3565b50919050565b60408051601b8082526103808201909252606091602082016103608036833701905050905060005b81518110156100ff5761014083826103e3565b8282815181106101525761015261076e565b60ff909216602092830291909101909101528061016e81610784565b91505061012d565b60008061018285610105565b9050600061018f85610105565b90506000825167ffffffffffffffff8111156101ad576101ad6105c8565b6040519080825280602002602001820160405280156101d6578160200160208202803683370190505b506000805460408051426020808301919091524382840152446060830152608082018d905260a082018c905260c0808301949094528251808303909401845260e090910190915281519101209192508190036102695760405162461bcd60e51b815260206004820152600e60248201526d072616e646f6d53656564203d20360941b604482015260640160405180910390fd5b600080805b86518110156103b557600087828151811061028b5761028b61076e565b6020026020010151905060008783815181106102a9576102a961076e565b602002602001015190508360ff16600003610310576102ca86868484610403565b8784815181106102dc576102dc61076e565b60ff90921660209283029190910190910152836102f88161079d565b945061030790506002866107bc565b945050506103a3565b8360ff1660010361035557600187848151811061032f5761032f61076e565b60ff909216602092830291909101909101528361034b8161079d565b94505050506103a3565b61036b868661036381610784565b97508d6104b9565b87848151811061037d5761037d61076e565b60ff90921660209283029190910190910152600093508461039d81610784565b95505050505b806103ad81610784565b91505061026e565b6000805490806103c483610784565b91905055506103d28561009f565b9750505050505050505b9392505050565b60006103fa8360086103f585826107cf565b610507565b90505b92915050565b600080808061041b888883610416610532565b610556565b905060005b600381101561045f57610432816105ae565b61043c90856107bc565b935081841061044d5780925061045f565b8061045781610784565b915050610420565b5081600003610473578593505050506104b1565b81600103610486578493505050506104b1565b6104ab8861049389610784565b6004549099508990600190610100900460ff16610556565b93505050505b949350505050565b6000816000036104cb575060006103dc565b6000600354836104db91906107fc565b9050806104ed86866000612710610556565b116104fc5760019150506103dc565b506000949350505050565b6000808260016105188660026108f4565b610522919061075b565b901b8516831c9150509392505050565b600060025460015460015461054791906107bc565b61055191906107bc565b905090565b6000610562838361075b565b60408051602081018890529081018690526060016040516020818303038152906040528051906020012060001c6105999190610900565b90506105a583826107bc565b95945050505050565b6000816002146105c0576001546103fd565b505060025490565b634e487b7160e01b600052604160045260246000fd5b803560ff811681146105ef57600080fd5b919050565b6000602080838503121561060757600080fd5b823567ffffffffffffffff8082111561061f57600080fd5b818501915085601f83011261063357600080fd5b813581811115610645576106456105c8565b8060051b604051601f19603f8301168101818110858211171561066a5761066a6105c8565b60405291825284820192508381018501918883111561068857600080fd5b938501935b828510156106ad5761069e856105de565b8452938501939285019261068d565b98975050505050505050565b6000602082840312156106cb57600080fd5b5035919050565b6020808252825182820181905260009190848201906040850190845b8181101561070d57835160ff16835292840192918401916001016106ee565b50909695505050505050565b60008060006060848603121561072e57600080fd5b505081359360208301359350604090920135919050565b634e487b7160e01b600052601160045260246000fd5b818103818111156103fd576103fd610745565b634e487b7160e01b600052603260045260246000fd5b60006001820161079657610796610745565b5060010190565b600060ff821660ff81036107b3576107b3610745565b60010192915050565b808201808211156103fd576103fd610745565b80820281158282048414176103fd576103fd610745565b634e487b7160e01b600052601260045260246000fd5b60008261080b5761080b6107e6565b500490565b600181815b8085111561084b57816000190482111561083157610831610745565b8085161561083e57918102915b93841c9390800290610815565b509250929050565b600082610862575060016103fd565b8161086f575060006103fd565b8160018114610885576002811461088f576108ab565b60019150506103fd565b60ff8411156108a0576108a0610745565b50506001821b6103fd565b5060208310610133831016604e8410600b84101617156108ce575081810a6103fd565b6108d88383610810565b80600019048211156108ec576108ec610745565b029392505050565b60006103fa8383610853565b60008261090f5761090f6107e6565b50069056fea264697066735822122007a409aa9ee7e3e7efae966a3bb032aac0660da0583432eeaf36fecd6a1adfd764736f6c63430008110033",
			"opcodes": "PUSH1 0x80 PUSH1 0x40 MSTORE PUSH1 0x1 PUSH1 0x0 DUP2 SWAP1 SSTORE PUSH1 0x32 SWAP1 SSTORE PUSH1 0xA PUSH1 0x2 SSTORE PUSH1 0x64 PUSH1 0x3 SSTORE PUSH1 0x4 DUP1 SLOAD PUSH2 0xFFFF NOT AND PUSH2 0x2509 OR SWAP1 SSTORE CALLVALUE DUP1 ISZERO PUSH2 0x34 JUMPI PUSH1 0x0 DUP1 REVERT JUMPDEST POP PUSH2 0x94A DUP1 PUSH2 0x44 PUSH1 0x0 CODECOPY PUSH1 0x0 RETURN INVALID PUSH1 0x80 PUSH1 0x40 MSTORE CALLVALUE DUP1 ISZERO PUSH2 0x10 JUMPI PUSH1 0x0 DUP1 REVERT JUMPDEST POP PUSH1 0x4 CALLDATASIZE LT PUSH2 0x41 JUMPI PUSH1 0x0 CALLDATALOAD PUSH1 0xE0 SHR DUP1 PUSH4 0x1597EE44 EQ PUSH2 0x46 JUMPI DUP1 PUSH4 0x61A76900 EQ PUSH2 0x6C JUMPI DUP1 PUSH4 0xA7CC0F50 EQ PUSH2 0x8C JUMPI JUMPDEST PUSH1 0x0 DUP1 REVERT JUMPDEST PUSH2 0x59 PUSH2 0x54 CALLDATASIZE PUSH1 0x4 PUSH2 0x5F4 JUMP JUMPDEST PUSH2 0x9F JUMP JUMPDEST PUSH1 0x40 MLOAD SWAP1 DUP2 MSTORE PUSH1 0x20 ADD JUMPDEST PUSH1 0x40 MLOAD DUP1 SWAP2 SUB SWAP1 RETURN JUMPDEST PUSH2 0x7F PUSH2 0x7A CALLDATASIZE PUSH1 0x4 PUSH2 0x6B9 JUMP JUMPDEST PUSH2 0x105 JUMP JUMPDEST PUSH1 0x40 MLOAD PUSH2 0x63 SWAP2 SWAP1 PUSH2 0x6D2 JUMP JUMPDEST PUSH2 0x59 PUSH2 0x9A CALLDATASIZE PUSH1 0x4 PUSH2 0x719 JUMP JUMPDEST PUSH2 0x176 JUMP JUMPDEST PUSH1 0x0 DUP1 JUMPDEST DUP3 MLOAD DUP2 LT ISZERO PUSH2 0xFF JUMPI PUSH1 0x8 DUP3 SWAP1 SHL SWAP2 POP DUP3 DUP2 PUSH1 0x1 DUP6 MLOAD PUSH2 0xC3 SWAP2 SWAP1 PUSH2 0x75B JUMP JUMPDEST PUSH2 0xCD SWAP2 SWAP1 PUSH2 0x75B JUMP JUMPDEST DUP2 MLOAD DUP2 LT PUSH2 0xDD JUMPI PUSH2 0xDD PUSH2 0x76E JUMP JUMPDEST PUSH1 0x20 MUL PUSH1 0x20 ADD ADD MLOAD PUSH1 0xFF AND DUP3 OR SWAP2 POP DUP1 DUP1 PUSH2 0xF7 SWAP1 PUSH2 0x784 JUMP JUMPDEST SWAP2 POP POP PUSH2 0xA3 JUMP JUMPDEST POP SWAP2 SWAP1 POP JUMP JUMPDEST PUSH1 0x40 DUP1 MLOAD PUSH1 0x1B DUP1 DUP3 MSTORE PUSH2 0x380 DUP3 ADD SWAP1 SWAP3 MSTORE PUSH1 0x60 SWAP2 PUSH1 0x20 DUP3 ADD PUSH2 0x360 DUP1 CALLDATASIZE DUP4 CALLDATACOPY ADD SWAP1 POP POP SWAP1 POP PUSH1 0x0 JUMPDEST DUP2 MLOAD DUP2 LT ISZERO PUSH2 0xFF JUMPI PUSH2 0x140 DUP4 DUP3 PUSH2 0x3E3 JUMP JUMPDEST DUP3 DUP3 DUP2 MLOAD DUP2 LT PUSH2 0x152 JUMPI PUSH2 0x152 PUSH2 0x76E JUMP JUMPDEST PUSH1 0xFF SWAP1 SWAP3 AND PUSH1 0x20 SWAP3 DUP4 MUL SWAP2 SWAP1 SWAP2 ADD SWAP1 SWAP2 ADD MSTORE DUP1 PUSH2 0x16E DUP2 PUSH2 0x784 JUMP JUMPDEST SWAP2 POP POP PUSH2 0x12D JUMP JUMPDEST PUSH1 0x0 DUP1 PUSH2 0x182 DUP6 PUSH2 0x105 JUMP JUMPDEST SWAP1 POP PUSH1 0x0 PUSH2 0x18F DUP6 PUSH2 0x105 JUMP JUMPDEST SWAP1 POP PUSH1 0x0 DUP3 MLOAD PUSH8 0xFFFFFFFFFFFFFFFF DUP2 GT ISZERO PUSH2 0x1AD JUMPI PUSH2 0x1AD PUSH2 0x5C8 JUMP JUMPDEST PUSH1 0x40 MLOAD SWAP1 DUP1 DUP3 MSTORE DUP1 PUSH1 0x20 MUL PUSH1 0x20 ADD DUP3 ADD PUSH1 0x40 MSTORE DUP1 ISZERO PUSH2 0x1D6 JUMPI DUP2 PUSH1 0x20 ADD PUSH1 0x20 DUP3 MUL DUP1 CALLDATASIZE DUP4 CALLDATACOPY ADD SWAP1 POP JUMPDEST POP PUSH1 0x0 DUP1 SLOAD PUSH1 0x40 DUP1 MLOAD TIMESTAMP PUSH1 0x20 DUP1 DUP4 ADD SWAP2 SWAP1 SWAP2 MSTORE NUMBER DUP3 DUP5 ADD MSTORE DIFFICULTY PUSH1 0x60 DUP4 ADD MSTORE PUSH1 0x80 DUP3 ADD DUP14 SWAP1 MSTORE PUSH1 0xA0 DUP3 ADD DUP13 SWAP1 MSTORE PUSH1 0xC0 DUP1 DUP4 ADD SWAP5 SWAP1 SWAP5 MSTORE DUP3 MLOAD DUP1 DUP4 SUB SWAP1 SWAP5 ADD DUP5 MSTORE PUSH1 0xE0 SWAP1 SWAP2 ADD SWAP1 SWAP2 MSTORE DUP2 MLOAD SWAP2 ADD KECCAK256 SWAP2 SWAP3 POP DUP2 SWAP1 SUB PUSH2 0x269 JUMPI PUSH1 0x40 MLOAD PUSH3 0x461BCD PUSH1 0xE5 SHL DUP2 MSTORE PUSH1 0x20 PUSH1 0x4 DUP3 ADD MSTORE PUSH1 0xE PUSH1 0x24 DUP3 ADD MSTORE PUSH14 0x72616E646F6D53656564203D203 PUSH1 0x94 SHL PUSH1 0x44 DUP3 ADD MSTORE PUSH1 0x64 ADD PUSH1 0x40 MLOAD DUP1 SWAP2 SUB SWAP1 REVERT JUMPDEST PUSH1 0x0 DUP1 DUP1 JUMPDEST DUP7 MLOAD DUP2 LT ISZERO PUSH2 0x3B5 JUMPI PUSH1 0x0 DUP8 DUP3 DUP2 MLOAD DUP2 LT PUSH2 0x28B JUMPI PUSH2 0x28B PUSH2 0x76E JUMP JUMPDEST PUSH1 0x20 MUL PUSH1 0x20 ADD ADD MLOAD SWAP1 POP PUSH1 0x0 DUP8 DUP4 DUP2 MLOAD DUP2 LT PUSH2 0x2A9 JUMPI PUSH2 0x2A9 PUSH2 0x76E JUMP JUMPDEST PUSH1 0x20 MUL PUSH1 0x20 ADD ADD MLOAD SWAP1 POP DUP4 PUSH1 0xFF AND PUSH1 0x0 SUB PUSH2 0x310 JUMPI PUSH2 0x2CA DUP7 DUP7 DUP5 DUP5 PUSH2 0x403 JUMP JUMPDEST DUP8 DUP5 DUP2 MLOAD DUP2 LT PUSH2 0x2DC JUMPI PUSH2 0x2DC PUSH2 0x76E JUMP JUMPDEST PUSH1 0xFF SWAP1 SWAP3 AND PUSH1 0x20 SWAP3 DUP4 MUL SWAP2 SWAP1 SWAP2 ADD SWAP1 SWAP2 ADD MSTORE DUP4 PUSH2 0x2F8 DUP2 PUSH2 0x79D JUMP JUMPDEST SWAP5 POP PUSH2 0x307 SWAP1 POP PUSH1 0x2 DUP7 PUSH2 0x7BC JUMP JUMPDEST SWAP5 POP POP POP PUSH2 0x3A3 JUMP JUMPDEST DUP4 PUSH1 0xFF AND PUSH1 0x1 SUB PUSH2 0x355 JUMPI PUSH1 0x1 DUP8 DUP5 DUP2 MLOAD DUP2 LT PUSH2 0x32F JUMPI PUSH2 0x32F PUSH2 0x76E JUMP JUMPDEST PUSH1 0xFF SWAP1 SWAP3 AND PUSH1 0x20 SWAP3 DUP4 MUL SWAP2 SWAP1 SWAP2 ADD SWAP1 SWAP2 ADD MSTORE DUP4 PUSH2 0x34B DUP2 PUSH2 0x79D JUMP JUMPDEST SWAP5 POP POP POP POP PUSH2 0x3A3 JUMP JUMPDEST PUSH2 0x36B DUP7 DUP7 PUSH2 0x363 DUP2 PUSH2 0x784 JUMP JUMPDEST SWAP8 POP DUP14 PUSH2 0x4B9 JUMP JUMPDEST DUP8 DUP5 DUP2 MLOAD DUP2 LT PUSH2 0x37D JUMPI PUSH2 0x37D PUSH2 0x76E JUMP JUMPDEST PUSH1 0xFF SWAP1 SWAP3 AND PUSH1 0x20 SWAP3 DUP4 MUL SWAP2 SWAP1 SWAP2 ADD SWAP1 SWAP2 ADD MSTORE PUSH1 0x0 SWAP4 POP DUP5 PUSH2 0x39D DUP2 PUSH2 0x784 JUMP JUMPDEST SWAP6 POP POP POP POP JUMPDEST DUP1 PUSH2 0x3AD DUP2 PUSH2 0x784 JUMP JUMPDEST SWAP2 POP POP PUSH2 0x26E JUMP JUMPDEST PUSH1 0x0 DUP1 SLOAD SWAP1 DUP1 PUSH2 0x3C4 DUP4 PUSH2 0x784 JUMP JUMPDEST SWAP2 SWAP1 POP SSTORE POP PUSH2 0x3D2 DUP6 PUSH2 0x9F JUMP JUMPDEST SWAP8 POP POP POP POP POP POP POP POP JUMPDEST SWAP4 SWAP3 POP POP POP JUMP JUMPDEST PUSH1 0x0 PUSH2 0x3FA DUP4 PUSH1 0x8 PUSH2 0x3F5 DUP6 DUP3 PUSH2 0x7CF JUMP JUMPDEST PUSH2 0x507 JUMP JUMPDEST SWAP1 POP JUMPDEST SWAP3 SWAP2 POP POP JUMP JUMPDEST PUSH1 0x0 DUP1 DUP1 DUP1 PUSH2 0x41B DUP9 DUP9 DUP4 PUSH2 0x416 PUSH2 0x532 JUMP JUMPDEST PUSH2 0x556 JUMP JUMPDEST SWAP1 POP PUSH1 0x0 JUMPDEST PUSH1 0x3 DUP2 LT ISZERO PUSH2 0x45F JUMPI PUSH2 0x432 DUP2 PUSH2 0x5AE JUMP JUMPDEST PUSH2 0x43C SWAP1 DUP6 PUSH2 0x7BC JUMP JUMPDEST SWAP4 POP DUP2 DUP5 LT PUSH2 0x44D JUMPI DUP1 SWAP3 POP PUSH2 0x45F JUMP JUMPDEST DUP1 PUSH2 0x457 DUP2 PUSH2 0x784 JUMP JUMPDEST SWAP2 POP POP PUSH2 0x420 JUMP JUMPDEST POP DUP2 PUSH1 0x0 SUB PUSH2 0x473 JUMPI DUP6 SWAP4 POP POP POP POP PUSH2 0x4B1 JUMP JUMPDEST DUP2 PUSH1 0x1 SUB PUSH2 0x486 JUMPI DUP5 SWAP4 POP POP POP POP PUSH2 0x4B1 JUMP JUMPDEST PUSH2 0x4AB DUP9 PUSH2 0x493 DUP10 PUSH2 0x784 JUMP JUMPDEST PUSH1 0x4 SLOAD SWAP1 SWAP10 POP DUP10 SWAP1 PUSH1 0x1 SWAP1 PUSH2 0x100 SWAP1 DIV PUSH1 0xFF AND PUSH2 0x556 JUMP JUMPDEST SWAP4 POP POP POP POP JUMPDEST SWAP5 SWAP4 POP POP POP POP JUMP JUMPDEST PUSH1 0x0 DUP2 PUSH1 0x0 SUB PUSH2 0x4CB JUMPI POP PUSH1 0x0 PUSH2 0x3DC JUMP JUMPDEST PUSH1 0x0 PUSH1 0x3 SLOAD DUP4 PUSH2 0x4DB SWAP2 SWAP1 PUSH2 0x7FC JUMP JUMPDEST SWAP1 POP DUP1 PUSH2 0x4ED DUP7 DUP7 PUSH1 0x0 PUSH2 0x2710 PUSH2 0x556 JUMP JUMPDEST GT PUSH2 0x4FC JUMPI PUSH1 0x1 SWAP2 POP POP PUSH2 0x3DC JUMP JUMPDEST POP PUSH1 0x0 SWAP5 SWAP4 POP POP POP POP JUMP JUMPDEST PUSH1 0x0 DUP1 DUP3 PUSH1 0x1 PUSH2 0x518 DUP7 PUSH1 0x2 PUSH2 0x8F4 JUMP JUMPDEST PUSH2 0x522 SWAP2 SWAP1 PUSH2 0x75B JUMP JUMPDEST SWAP1 SHL DUP6 AND DUP4 SHR SWAP2 POP POP SWAP4 SWAP3 POP POP POP JUMP JUMPDEST PUSH1 0x0 PUSH1 0x2 SLOAD PUSH1 0x1 SLOAD PUSH1 0x1 SLOAD PUSH2 0x547 SWAP2 SWAP1 PUSH2 0x7BC JUMP JUMPDEST PUSH2 0x551 SWAP2 SWAP1 PUSH2 0x7BC JUMP JUMPDEST SWAP1 POP SWAP1 JUMP JUMPDEST PUSH1 0x0 PUSH2 0x562 DUP4 DUP4 PUSH2 0x75B JUMP JUMPDEST PUSH1 0x40 DUP1 MLOAD PUSH1 0x20 DUP2 ADD DUP9 SWAP1 MSTORE SWAP1 DUP2 ADD DUP7 SWAP1 MSTORE PUSH1 0x60 ADD PUSH1 0x40 MLOAD PUSH1 0x20 DUP2 DUP4 SUB SUB DUP2 MSTORE SWAP1 PUSH1 0x40 MSTORE DUP1 MLOAD SWAP1 PUSH1 0x20 ADD KECCAK256 PUSH1 0x0 SHR PUSH2 0x599 SWAP2 SWAP1 PUSH2 0x900 JUMP JUMPDEST SWAP1 POP PUSH2 0x5A5 DUP4 DUP3 PUSH2 0x7BC JUMP JUMPDEST SWAP6 SWAP5 POP POP POP POP POP JUMP JUMPDEST PUSH1 0x0 DUP2 PUSH1 0x2 EQ PUSH2 0x5C0 JUMPI PUSH1 0x1 SLOAD PUSH2 0x3FD JUMP JUMPDEST POP POP PUSH1 0x2 SLOAD SWAP1 JUMP JUMPDEST PUSH4 0x4E487B71 PUSH1 0xE0 SHL PUSH1 0x0 MSTORE PUSH1 0x41 PUSH1 0x4 MSTORE PUSH1 0x24 PUSH1 0x0 REVERT JUMPDEST DUP1 CALLDATALOAD PUSH1 0xFF DUP2 AND DUP2 EQ PUSH2 0x5EF JUMPI PUSH1 0x0 DUP1 REVERT JUMPDEST SWAP2 SWAP1 POP JUMP JUMPDEST PUSH1 0x0 PUSH1 0x20 DUP1 DUP4 DUP6 SUB SLT ISZERO PUSH2 0x607 JUMPI PUSH1 0x0 DUP1 REVERT JUMPDEST DUP3 CALLDATALOAD PUSH8 0xFFFFFFFFFFFFFFFF DUP1 DUP3 GT ISZERO PUSH2 0x61F JUMPI PUSH1 0x0 DUP1 REVERT JUMPDEST DUP2 DUP6 ADD SWAP2 POP DUP6 PUSH1 0x1F DUP4 ADD SLT PUSH2 0x633 JUMPI PUSH1 0x0 DUP1 REVERT JUMPDEST DUP2 CALLDATALOAD DUP2 DUP2 GT ISZERO PUSH2 0x645 JUMPI PUSH2 0x645 PUSH2 0x5C8 JUMP JUMPDEST DUP1 PUSH1 0x5 SHL PUSH1 0x40 MLOAD PUSH1 0x1F NOT PUSH1 0x3F DUP4 ADD AND DUP2 ADD DUP2 DUP2 LT DUP6 DUP3 GT OR ISZERO PUSH2 0x66A JUMPI PUSH2 0x66A PUSH2 0x5C8 JUMP JUMPDEST PUSH1 0x40 MSTORE SWAP2 DUP3 MSTORE DUP5 DUP3 ADD SWAP3 POP DUP4 DUP2 ADD DUP6 ADD SWAP2 DUP9 DUP4 GT ISZERO PUSH2 0x688 JUMPI PUSH1 0x0 DUP1 REVERT JUMPDEST SWAP4 DUP6 ADD SWAP4 JUMPDEST DUP3 DUP6 LT ISZERO PUSH2 0x6AD JUMPI PUSH2 0x69E DUP6 PUSH2 0x5DE JUMP JUMPDEST DUP5 MSTORE SWAP4 DUP6 ADD SWAP4 SWAP3 DUP6 ADD SWAP3 PUSH2 0x68D JUMP JUMPDEST SWAP9 SWAP8 POP POP POP POP POP POP POP POP JUMP JUMPDEST PUSH1 0x0 PUSH1 0x20 DUP3 DUP5 SUB SLT ISZERO PUSH2 0x6CB JUMPI PUSH1 0x0 DUP1 REVERT JUMPDEST POP CALLDATALOAD SWAP2 SWAP1 POP JUMP JUMPDEST PUSH1 0x20 DUP1 DUP3 MSTORE DUP3 MLOAD DUP3 DUP3 ADD DUP2 SWAP1 MSTORE PUSH1 0x0 SWAP2 SWAP1 DUP5 DUP3 ADD SWAP1 PUSH1 0x40 DUP6 ADD SWAP1 DUP5 JUMPDEST DUP2 DUP2 LT ISZERO PUSH2 0x70D JUMPI DUP4 MLOAD PUSH1 0xFF AND DUP4 MSTORE SWAP3 DUP5 ADD SWAP3 SWAP2 DUP5 ADD SWAP2 PUSH1 0x1 ADD PUSH2 0x6EE JUMP JUMPDEST POP SWAP1 SWAP7 SWAP6 POP POP POP POP POP POP JUMP JUMPDEST PUSH1 0x0 DUP1 PUSH1 0x0 PUSH1 0x60 DUP5 DUP7 SUB SLT ISZERO PUSH2 0x72E JUMPI PUSH1 0x0 DUP1 REVERT JUMPDEST POP POP DUP2 CALLDATALOAD SWAP4 PUSH1 0x20 DUP4 ADD CALLDATALOAD SWAP4 POP PUSH1 0x40 SWAP1 SWAP3 ADD CALLDATALOAD SWAP2 SWAP1 POP JUMP JUMPDEST PUSH4 0x4E487B71 PUSH1 0xE0 SHL PUSH1 0x0 MSTORE PUSH1 0x11 PUSH1 0x4 MSTORE PUSH1 0x24 PUSH1 0x0 REVERT JUMPDEST DUP2 DUP2 SUB DUP2 DUP2 GT ISZERO PUSH2 0x3FD JUMPI PUSH2 0x3FD PUSH2 0x745 JUMP JUMPDEST PUSH4 0x4E487B71 PUSH1 0xE0 SHL PUSH1 0x0 MSTORE PUSH1 0x32 PUSH1 0x4 MSTORE PUSH1 0x24 PUSH1 0x0 REVERT JUMPDEST PUSH1 0x0 PUSH1 0x1 DUP3 ADD PUSH2 0x796 JUMPI PUSH2 0x796 PUSH2 0x745 JUMP JUMPDEST POP PUSH1 0x1 ADD SWAP1 JUMP JUMPDEST PUSH1 0x0 PUSH1 0xFF DUP3 AND PUSH1 0xFF DUP2 SUB PUSH2 0x7B3 JUMPI PUSH2 0x7B3 PUSH2 0x745 JUMP JUMPDEST PUSH1 0x1 ADD SWAP3 SWAP2 POP POP JUMP JUMPDEST DUP1 DUP3 ADD DUP1 DUP3 GT ISZERO PUSH2 0x3FD JUMPI PUSH2 0x3FD PUSH2 0x745 JUMP JUMPDEST DUP1 DUP3 MUL DUP2 ISZERO DUP3 DUP3 DIV DUP5 EQ OR PUSH2 0x3FD JUMPI PUSH2 0x3FD PUSH2 0x745 JUMP JUMPDEST PUSH4 0x4E487B71 PUSH1 0xE0 SHL PUSH1 0x0 MSTORE PUSH1 0x12 PUSH1 0x4 MSTORE PUSH1 0x24 PUSH1 0x0 REVERT JUMPDEST PUSH1 0x0 DUP3 PUSH2 0x80B JUMPI PUSH2 0x80B PUSH2 0x7E6 JUMP JUMPDEST POP DIV SWAP1 JUMP JUMPDEST PUSH1 0x1 DUP2 DUP2 JUMPDEST DUP1 DUP6 GT ISZERO PUSH2 0x84B JUMPI DUP2 PUSH1 0x0 NOT DIV DUP3 GT ISZERO PUSH2 0x831 JUMPI PUSH2 0x831 PUSH2 0x745 JUMP JUMPDEST DUP1 DUP6 AND ISZERO PUSH2 0x83E JUMPI SWAP2 DUP2 MUL SWAP2 JUMPDEST SWAP4 DUP5 SHR SWAP4 SWAP1 DUP1 MUL SWAP1 PUSH2 0x815 JUMP JUMPDEST POP SWAP3 POP SWAP3 SWAP1 POP JUMP JUMPDEST PUSH1 0x0 DUP3 PUSH2 0x862 JUMPI POP PUSH1 0x1 PUSH2 0x3FD JUMP JUMPDEST DUP2 PUSH2 0x86F JUMPI POP PUSH1 0x0 PUSH2 0x3FD JUMP JUMPDEST DUP2 PUSH1 0x1 DUP2 EQ PUSH2 0x885 JUMPI PUSH1 0x2 DUP2 EQ PUSH2 0x88F JUMPI PUSH2 0x8AB JUMP JUMPDEST PUSH1 0x1 SWAP2 POP POP PUSH2 0x3FD JUMP JUMPDEST PUSH1 0xFF DUP5 GT ISZERO PUSH2 0x8A0 JUMPI PUSH2 0x8A0 PUSH2 0x745 JUMP JUMPDEST POP POP PUSH1 0x1 DUP3 SHL PUSH2 0x3FD JUMP JUMPDEST POP PUSH1 0x20 DUP4 LT PUSH2 0x133 DUP4 LT AND PUSH1 0x4E DUP5 LT PUSH1 0xB DUP5 LT AND OR ISZERO PUSH2 0x8CE JUMPI POP DUP2 DUP2 EXP PUSH2 0x3FD JUMP JUMPDEST PUSH2 0x8D8 DUP4 DUP4 PUSH2 0x810 JUMP JUMPDEST DUP1 PUSH1 0x0 NOT DIV DUP3 GT ISZERO PUSH2 0x8EC JUMPI PUSH2 0x8EC PUSH2 0x745 JUMP JUMPDEST MUL SWAP4 SWAP3 POP POP POP JUMP JUMPDEST PUSH1 0x0 PUSH2 0x3FA DUP4 DUP4 PUSH2 0x853 JUMP JUMPDEST PUSH1 0x0 DUP3 PUSH2 0x90F JUMPI PUSH2 0x90F PUSH2 0x7E6 JUMP JUMPDEST POP MOD SWAP1 JUMP INVALID LOG2 PUSH5 0x6970667358 0x22 SLT KECCAK256 SMOD LOG4 MULMOD 0xAA SWAP15 0xE7 0xE3 0xE7 0xEF 0xAE SWAP7 PUSH11 0x3BB032AAC0660DA0583432 0xEE 0xAF CALLDATASIZE INVALID 0xCD PUSH11 0x1ADFD764736F6C63430008 GT STOP CALLER "
		},
		"gasEstimates": {
			"creation": {
				"codeDepositCost": "475600",
				"executionCost": "113165",
				"totalCost": "588765"
			},
			"external": {
				"breading(uint256,uint256,uint256)": "infinite",
				"decode(uint256)": "infinite",
				"encode(uint8[])": "infinite"
			},
			"internal": {
				"get8Bits(uint256,uint256)": "infinite",
				"getRandomId(uint256,uint256,uint8,uint8)": "infinite",
				"getRarity(uint256,uint256,uint256)": "infinite",
				"random(uint256,uint256,uint256,uint256)": "infinite",
				"sliceNumber(uint256,uint256,uint256)": "infinite",
				"totalWeight()": "infinite",
				"weight(uint256)": "2159"
			}
		},
		"methodIdentifiers": {
			"breading(uint256,uint256,uint256)": "a7cc0f50",
			"decode(uint256)": "61a76900",
			"encode(uint8[])": "1597ee44"
		}
	},
	"abi": [
		{
			"inputs": [
				{
					"internalType": "uint256",
					"name": "genes1",
					"type": "uint256"
				},
				{
					"internalType": "uint256",
					"name": "genes2",
					"type": "uint256"
				},
				{
					"internalType": "uint256",
					"name": "generation",
					"type": "uint256"
				}
			],
			"name": "breading",
			"outputs": [
				{
					"internalType": "uint256",
					"name": "",
					"type": "uint256"
				}
			],
			"stateMutability": "nonpayable",
			"type": "function"
		},
		{
			"inputs": [
				{
					"internalType": "uint256",
					"name": "_genes",
					"type": "uint256"
				}
			],
			"name": "decode",
			"outputs": [
				{
					"internalType": "uint8[]",
					"name": "_traits",
					"type": "uint8[]"
				}
			],
			"stateMutability": "pure",
			"type": "function"
		},
		{
			"inputs": [
				{
					"internalType": "uint8[]",
					"name": "_traits",
					"type": "uint8[]"
				}
			],
			"name": "encode",
			"outputs": [
				{
					"internalType": "uint256",
					"name": "_genes",
					"type": "uint256"
				}
			],
			"stateMutability": "pure",
			"type": "function"
		}
	]
}