{
	"data": {
		"bytecode": {
			"linkReferences": {},
			"object": "608060405260016000556032600155600a60025560646003556009600460006101000a81548160ff021916908360ff1602179055506001600460016101000a81548160ff021916908360ff1602179055506024600460026101000a81548160ff021916908360ff16021790555034801561007857600080fd5b50610fc3806100886000396000f3fe608060405234801561001057600080fd5b50600436106100415760003560e01c80631597ee441461004657806361a7690014610076578063e4a13fb7146100a6575b600080fd5b610060600480360381019061005b919061085c565b6100d6565b60405161006d91906108be565b60405180910390f35b610090600480360381019061008b9190610905565b61013d565b60405161009d91906109f0565b60405180910390f35b6100c060048036038101906100bb9190610a12565b6101e1565b6040516100cd91906108be565b60405180910390f35b6000805b825181101561013757600882901b91508281600185516100fa9190610a81565b6101049190610a81565b8151811061011557610114610ab5565b5b602002602001015160ff1682179150808061012f90610ae4565b9150506100da565b50919050565b6060601b67ffffffffffffffff81111561015a576101596106e0565b5b6040519080825280602002602001820160405280156101885781602001602082028036833780820191505090505b50905060005b81518110156101db576101a183826104a3565b8282815181106101b4576101b3610ab5565b5b602002602001019060ff16908160ff168152505080806101d390610ae4565b91505061018e565b50919050565b6000806101ed846104c4565b905060006101fa846104c4565b9050600060016002838561020e9190610b3c565b6102189190610ba3565b6102229190610b3c565b9050600061022f8761013d565b9050600061023c8761013d565b90506000825167ffffffffffffffff81111561025b5761025a6106e0565b5b6040519080825280602002602001820160405280156102895781602001602082028036833780820191505090505b50905060004243448c8c6000546040516020016102ab96959493929190610bf5565b6040516020818303038152906040528051906020012060001c905060008103610309576040517f08c379a000000000000000000000000000000000000000000000000000000000815260040161030090610cc2565b60405180910390fd5b6000806000905060005b865181101561047157600087828151811061033157610330610ab5565b5b6020026020010151905060008783815181106103505761034f610ab5565b5b6020026020010151905060008460ff16036103bc57610371868684846104d4565b87848151811061038457610383610ab5565b5b602002602001019060ff16908160ff168152505083806103a390610ce2565b9450506002856103b39190610d0b565b9450505061045e565b60018460ff16036104055760018784815181106103dc576103db610ab5565b5b602002602001019060ff16908160ff168152505083806103fb90610ce2565b945050505061045e565b61042286868061041490610ae4565b97508c63ffffffff16610598565b87848151811061043557610434610ab5565b5b602002602001019060ff16908160ff168152505060009350848061045890610ae4565b95505050505b808061046990610ae4565b915050610313565b60008081548092919061048390610ae4565b9190505550610491856100d6565b9a505050505050505050505092915050565b60006104bc83600880856104b79190610d3f565b6105e8565b905092915050565b600063ffffffff82169050919050565b600080600090506000806104f2888860006104ed610619565b61063d565b905060005b60038110156105385761050981610699565b846105149190610d0b565b935081841061052557809250610538565b808061053090610ae4565b9150506104f7565b506000820361054c57859350505050610590565b6001820361055f57849350505050610590565b61058a888861056d90610ae4565b9850886001600460029054906101000a900460ff1660ff1661063d565b93505050505b949350505050565b60008082036105aa57600090506105e1565b6000600354836105ba9190610d81565b9050806105cc8686600061271061063d565b116105db5760019150506105e1565b60009150505b9392505050565b6000808260018560026105fb9190610ee5565b6106059190610a81565b901b905082818616901c9150509392505050565b600060025460015460015461062e9190610d0b565b6106389190610d0b565b905090565b6000828261064b9190610a81565b858560405160200161065e929190610f30565b6040516020818303038152906040528051906020012060001c6106819190610f5c565b9050828161068f9190610d0b565b9050949350505050565b6000600282146106ab576001546106af565b6002545b9050919050565b6000604051905090565b600080fd5b600080fd5b600080fd5b6000601f19601f8301169050919050565b7f4e487b7100000000000000000000000000000000000000000000000000000000600052604160045260246000fd5b610718826106cf565b810181811067ffffffffffffffff82111715610737576107366106e0565b5b80604052505050565b600061074a6106b6565b9050610756828261070f565b919050565b600067ffffffffffffffff821115610776576107756106e0565b5b602082029050602081019050919050565b600080fd5b600060ff82169050919050565b6107a28161078c565b81146107ad57600080fd5b50565b6000813590506107bf81610799565b92915050565b60006107d86107d38461075b565b610740565b905080838252602082019050602084028301858111156107fb576107fa610787565b5b835b81811015610824578061081088826107b0565b8452602084019350506020810190506107fd565b5050509392505050565b600082601f830112610843576108426106ca565b5b81356108538482602086016107c5565b91505092915050565b600060208284031215610872576108716106c0565b5b600082013567ffffffffffffffff8111156108905761088f6106c5565b5b61089c8482850161082e565b91505092915050565b6000819050919050565b6108b8816108a5565b82525050565b60006020820190506108d360008301846108af565b92915050565b6108e2816108a5565b81146108ed57600080fd5b50565b6000813590506108ff816108d9565b92915050565b60006020828403121561091b5761091a6106c0565b5b6000610929848285016108f0565b91505092915050565b600081519050919050565b600082825260208201905092915050565b6000819050602082019050919050565b6109678161078c565b82525050565b6000610979838361095e565b60208301905092915050565b6000602082019050919050565b600061099d82610932565b6109a7818561093d565b93506109b28361094e565b8060005b838110156109e35781516109ca888261096d565b97506109d583610985565b9250506001810190506109b6565b5085935050505092915050565b60006020820190508181036000830152610a0a8184610992565b905092915050565b60008060408385031215610a2957610a286106c0565b5b6000610a37858286016108f0565b9250506020610a48858286016108f0565b9150509250929050565b7f4e487b7100000000000000000000000000000000000000000000000000000000600052601160045260246000fd5b6000610a8c826108a5565b9150610a97836108a5565b9250828203905081811115610aaf57610aae610a52565b5b92915050565b7f4e487b7100000000000000000000000000000000000000000000000000000000600052603260045260246000fd5b6000610aef826108a5565b91507fffffffffffffffffffffffffffffffffffffffffffffffffffffffffffffffff8203610b2157610b20610a52565b5b600182019050919050565b600063ffffffff82169050919050565b6000610b4782610b2c565b9150610b5283610b2c565b9250828201905063ffffffff811115610b6e57610b6d610a52565b5b92915050565b7f4e487b7100000000000000000000000000000000000000000000000000000000600052601260045260246000fd5b6000610bae82610b2c565b9150610bb983610b2c565b925082610bc957610bc8610b74565b5b828204905092915050565b6000819050919050565b610bef610bea826108a5565b610bd4565b82525050565b6000610c018289610bde565b602082019150610c118288610bde565b602082019150610c218287610bde565b602082019150610c318286610bde565b602082019150610c418285610bde565b602082019150610c518284610bde565b602082019150819050979650505050505050565b600082825260208201905092915050565b7f72616e646f6d53656564203d2030000000000000000000000000000000000000600082015250565b6000610cac600e83610c65565b9150610cb782610c76565b602082019050919050565b60006020820190508181036000830152610cdb81610c9f565b9050919050565b6000610ced8261078c565b915060ff8203610d0057610cff610a52565b5b600182019050919050565b6000610d16826108a5565b9150610d21836108a5565b9250828201905080821115610d3957610d38610a52565b5b92915050565b6000610d4a826108a5565b9150610d55836108a5565b9250828202610d63816108a5565b91508282048414831517610d7a57610d79610a52565b5b5092915050565b6000610d8c826108a5565b9150610d97836108a5565b925082610da757610da6610b74565b5b828204905092915050565b60008160011c9050919050565b6000808291508390505b6001851115610e0957808604811115610de557610de4610a52565b5b6001851615610df45780820291505b8081029050610e0285610db2565b9450610dc9565b94509492505050565b600082610e225760019050610ede565b81610e305760009050610ede565b8160018114610e465760028114610e5057610e7f565b6001915050610ede565b60ff841115610e6257610e61610a52565b5b8360020a915084821115610e7957610e78610a52565b5b50610ede565b5060208310610133831016604e8410600b8410161715610eb45782820a905083811115610eaf57610eae610a52565b5b610ede565b610ec18484846001610dbf565b92509050818404811115610ed857610ed7610a52565b5b81810290505b9392505050565b6000610ef0826108a5565b9150610efb836108a5565b9250610f287fffffffffffffffffffffffffffffffffffffffffffffffffffffffffffffffff8484610e12565b905092915050565b6000610f3c8285610bde565b602082019150610f4c8284610bde565b6020820191508190509392505050565b6000610f67826108a5565b9150610f72836108a5565b925082610f8257610f81610b74565b5b82820690509291505056fea2646970667358221220e900067f85b7ed0dec2b095be3b844f4611e5dfbb0a933fe021b008528c29d9764736f6c63430008120033",
			"opcodes": "PUSH1 0x80 PUSH1 0x40 MSTORE PUSH1 0x1 PUSH1 0x0 SSTORE PUSH1 0x32 PUSH1 0x1 SSTORE PUSH1 0xA PUSH1 0x2 SSTORE PUSH1 0x64 PUSH1 0x3 SSTORE PUSH1 0x9 PUSH1 0x4 PUSH1 0x0 PUSH2 0x100 EXP DUP2 SLOAD DUP2 PUSH1 0xFF MUL NOT AND SWAP1 DUP4 PUSH1 0xFF AND MUL OR SWAP1 SSTORE POP PUSH1 0x1 PUSH1 0x4 PUSH1 0x1 PUSH2 0x100 EXP DUP2 SLOAD DUP2 PUSH1 0xFF MUL NOT AND SWAP1 DUP4 PUSH1 0xFF AND MUL OR SWAP1 SSTORE POP PUSH1 0x24 PUSH1 0x4 PUSH1 0x2 PUSH2 0x100 EXP DUP2 SLOAD DUP2 PUSH1 0xFF MUL NOT AND SWAP1 DUP4 PUSH1 0xFF AND MUL OR SWAP1 SSTORE POP CALLVALUE DUP1 ISZERO PUSH2 0x78 JUMPI PUSH1 0x0 DUP1 REVERT JUMPDEST POP PUSH2 0xFC3 DUP1 PUSH2 0x88 PUSH1 0x0 CODECOPY PUSH1 0x0 RETURN INVALID PUSH1 0x80 PUSH1 0x40 MSTORE CALLVALUE DUP1 ISZERO PUSH2 0x10 JUMPI PUSH1 0x0 DUP1 REVERT JUMPDEST POP PUSH1 0x4 CALLDATASIZE LT PUSH2 0x41 JUMPI PUSH1 0x0 CALLDATALOAD PUSH1 0xE0 SHR DUP1 PUSH4 0x1597EE44 EQ PUSH2 0x46 JUMPI DUP1 PUSH4 0x61A76900 EQ PUSH2 0x76 JUMPI DUP1 PUSH4 0xE4A13FB7 EQ PUSH2 0xA6 JUMPI JUMPDEST PUSH1 0x0 DUP1 REVERT JUMPDEST PUSH2 0x60 PUSH1 0x4 DUP1 CALLDATASIZE SUB DUP2 ADD SWAP1 PUSH2 0x5B SWAP2 SWAP1 PUSH2 0x85C JUMP JUMPDEST PUSH2 0xD6 JUMP JUMPDEST PUSH1 0x40 MLOAD PUSH2 0x6D SWAP2 SWAP1 PUSH2 0x8BE JUMP JUMPDEST PUSH1 0x40 MLOAD DUP1 SWAP2 SUB SWAP1 RETURN JUMPDEST PUSH2 0x90 PUSH1 0x4 DUP1 CALLDATASIZE SUB DUP2 ADD SWAP1 PUSH2 0x8B SWAP2 SWAP1 PUSH2 0x905 JUMP JUMPDEST PUSH2 0x13D JUMP JUMPDEST PUSH1 0x40 MLOAD PUSH2 0x9D SWAP2 SWAP1 PUSH2 0x9F0 JUMP JUMPDEST PUSH1 0x40 MLOAD DUP1 SWAP2 SUB SWAP1 RETURN JUMPDEST PUSH2 0xC0 PUSH1 0x4 DUP1 CALLDATASIZE SUB DUP2 ADD SWAP1 PUSH2 0xBB SWAP2 SWAP1 PUSH2 0xA12 JUMP JUMPDEST PUSH2 0x1E1 JUMP JUMPDEST PUSH1 0x40 MLOAD PUSH2 0xCD SWAP2 SWAP1 PUSH2 0x8BE JUMP JUMPDEST PUSH1 0x40 MLOAD DUP1 SWAP2 SUB SWAP1 RETURN JUMPDEST PUSH1 0x0 DUP1 JUMPDEST DUP3 MLOAD DUP2 LT ISZERO PUSH2 0x137 JUMPI PUSH1 0x8 DUP3 SWAP1 SHL SWAP2 POP DUP3 DUP2 PUSH1 0x1 DUP6 MLOAD PUSH2 0xFA SWAP2 SWAP1 PUSH2 0xA81 JUMP JUMPDEST PUSH2 0x104 SWAP2 SWAP1 PUSH2 0xA81 JUMP JUMPDEST DUP2 MLOAD DUP2 LT PUSH2 0x115 JUMPI PUSH2 0x114 PUSH2 0xAB5 JUMP JUMPDEST JUMPDEST PUSH1 0x20 MUL PUSH1 0x20 ADD ADD MLOAD PUSH1 0xFF AND DUP3 OR SWAP2 POP DUP1 DUP1 PUSH2 0x12F SWAP1 PUSH2 0xAE4 JUMP JUMPDEST SWAP2 POP POP PUSH2 0xDA JUMP JUMPDEST POP SWAP2 SWAP1 POP JUMP JUMPDEST PUSH1 0x60 PUSH1 0x1B PUSH8 0xFFFFFFFFFFFFFFFF DUP2 GT ISZERO PUSH2 0x15A JUMPI PUSH2 0x159 PUSH2 0x6E0 JUMP JUMPDEST JUMPDEST PUSH1 0x40 MLOAD SWAP1 DUP1 DUP3 MSTORE DUP1 PUSH1 0x20 MUL PUSH1 0x20 ADD DUP3 ADD PUSH1 0x40 MSTORE DUP1 ISZERO PUSH2 0x188 JUMPI DUP2 PUSH1 0x20 ADD PUSH1 0x20 DUP3 MUL DUP1 CALLDATASIZE DUP4 CALLDATACOPY DUP1 DUP3 ADD SWAP2 POP POP SWAP1 POP JUMPDEST POP SWAP1 POP PUSH1 0x0 JUMPDEST DUP2 MLOAD DUP2 LT ISZERO PUSH2 0x1DB JUMPI PUSH2 0x1A1 DUP4 DUP3 PUSH2 0x4A3 JUMP JUMPDEST DUP3 DUP3 DUP2 MLOAD DUP2 LT PUSH2 0x1B4 JUMPI PUSH2 0x1B3 PUSH2 0xAB5 JUMP JUMPDEST JUMPDEST PUSH1 0x20 MUL PUSH1 0x20 ADD ADD SWAP1 PUSH1 0xFF AND SWAP1 DUP2 PUSH1 0xFF AND DUP2 MSTORE POP POP DUP1 DUP1 PUSH2 0x1D3 SWAP1 PUSH2 0xAE4 JUMP JUMPDEST SWAP2 POP POP PUSH2 0x18E JUMP JUMPDEST POP SWAP2 SWAP1 POP JUMP JUMPDEST PUSH1 0x0 DUP1 PUSH2 0x1ED DUP5 PUSH2 0x4C4 JUMP JUMPDEST SWAP1 POP PUSH1 0x0 PUSH2 0x1FA DUP5 PUSH2 0x4C4 JUMP JUMPDEST SWAP1 POP PUSH1 0x0 PUSH1 0x1 PUSH1 0x2 DUP4 DUP6 PUSH2 0x20E SWAP2 SWAP1 PUSH2 0xB3C JUMP JUMPDEST PUSH2 0x218 SWAP2 SWAP1 PUSH2 0xBA3 JUMP JUMPDEST PUSH2 0x222 SWAP2 SWAP1 PUSH2 0xB3C JUMP JUMPDEST SWAP1 POP PUSH1 0x0 PUSH2 0x22F DUP8 PUSH2 0x13D JUMP JUMPDEST SWAP1 POP PUSH1 0x0 PUSH2 0x23C DUP8 PUSH2 0x13D JUMP JUMPDEST SWAP1 POP PUSH1 0x0 DUP3 MLOAD PUSH8 0xFFFFFFFFFFFFFFFF DUP2 GT ISZERO PUSH2 0x25B JUMPI PUSH2 0x25A PUSH2 0x6E0 JUMP JUMPDEST JUMPDEST PUSH1 0x40 MLOAD SWAP1 DUP1 DUP3 MSTORE DUP1 PUSH1 0x20 MUL PUSH1 0x20 ADD DUP3 ADD PUSH1 0x40 MSTORE DUP1 ISZERO PUSH2 0x289 JUMPI DUP2 PUSH1 0x20 ADD PUSH1 0x20 DUP3 MUL DUP1 CALLDATASIZE DUP4 CALLDATACOPY DUP1 DUP3 ADD SWAP2 POP POP SWAP1 POP JUMPDEST POP SWAP1 POP PUSH1 0x0 TIMESTAMP NUMBER PREVRANDAO DUP13 DUP13 PUSH1 0x0 SLOAD PUSH1 0x40 MLOAD PUSH1 0x20 ADD PUSH2 0x2AB SWAP7 SWAP6 SWAP5 SWAP4 SWAP3 SWAP2 SWAP1 PUSH2 0xBF5 JUMP JUMPDEST PUSH1 0x40 MLOAD PUSH1 0x20 DUP2 DUP4 SUB SUB DUP2 MSTORE SWAP1 PUSH1 0x40 MSTORE DUP1 MLOAD SWAP1 PUSH1 0x20 ADD KECCAK256 PUSH1 0x0 SHR SWAP1 POP PUSH1 0x0 DUP2 SUB PUSH2 0x309 JUMPI PUSH1 0x40 MLOAD PUSH32 0x8C379A000000000000000000000000000000000000000000000000000000000 DUP2 MSTORE PUSH1 0x4 ADD PUSH2 0x300 SWAP1 PUSH2 0xCC2 JUMP JUMPDEST PUSH1 0x40 MLOAD DUP1 SWAP2 SUB SWAP1 REVERT JUMPDEST PUSH1 0x0 DUP1 PUSH1 0x0 SWAP1 POP PUSH1 0x0 JUMPDEST DUP7 MLOAD DUP2 LT ISZERO PUSH2 0x471 JUMPI PUSH1 0x0 DUP8 DUP3 DUP2 MLOAD DUP2 LT PUSH2 0x331 JUMPI PUSH2 0x330 PUSH2 0xAB5 JUMP JUMPDEST JUMPDEST PUSH1 0x20 MUL PUSH1 0x20 ADD ADD MLOAD SWAP1 POP PUSH1 0x0 DUP8 DUP4 DUP2 MLOAD DUP2 LT PUSH2 0x350 JUMPI PUSH2 0x34F PUSH2 0xAB5 JUMP JUMPDEST JUMPDEST PUSH1 0x20 MUL PUSH1 0x20 ADD ADD MLOAD SWAP1 POP PUSH1 0x0 DUP5 PUSH1 0xFF AND SUB PUSH2 0x3BC JUMPI PUSH2 0x371 DUP7 DUP7 DUP5 DUP5 PUSH2 0x4D4 JUMP JUMPDEST DUP8 DUP5 DUP2 MLOAD DUP2 LT PUSH2 0x384 JUMPI PUSH2 0x383 PUSH2 0xAB5 JUMP JUMPDEST JUMPDEST PUSH1 0x20 MUL PUSH1 0x20 ADD ADD SWAP1 PUSH1 0xFF AND SWAP1 DUP2 PUSH1 0xFF AND DUP2 MSTORE POP POP DUP4 DUP1 PUSH2 0x3A3 SWAP1 PUSH2 0xCE2 JUMP JUMPDEST SWAP5 POP POP PUSH1 0x2 DUP6 PUSH2 0x3B3 SWAP2 SWAP1 PUSH2 0xD0B JUMP JUMPDEST SWAP5 POP POP POP PUSH2 0x45E JUMP JUMPDEST PUSH1 0x1 DUP5 PUSH1 0xFF AND SUB PUSH2 0x405 JUMPI PUSH1 0x1 DUP8 DUP5 DUP2 MLOAD DUP2 LT PUSH2 0x3DC JUMPI PUSH2 0x3DB PUSH2 0xAB5 JUMP JUMPDEST JUMPDEST PUSH1 0x20 MUL PUSH1 0x20 ADD ADD SWAP1 PUSH1 0xFF AND SWAP1 DUP2 PUSH1 0xFF AND DUP2 MSTORE POP POP DUP4 DUP1 PUSH2 0x3FB SWAP1 PUSH2 0xCE2 JUMP JUMPDEST SWAP5 POP POP POP POP PUSH2 0x45E JUMP JUMPDEST PUSH2 0x422 DUP7 DUP7 DUP1 PUSH2 0x414 SWAP1 PUSH2 0xAE4 JUMP JUMPDEST SWAP8 POP DUP13 PUSH4 0xFFFFFFFF AND PUSH2 0x598 JUMP JUMPDEST DUP8 DUP5 DUP2 MLOAD DUP2 LT PUSH2 0x435 JUMPI PUSH2 0x434 PUSH2 0xAB5 JUMP JUMPDEST JUMPDEST PUSH1 0x20 MUL PUSH1 0x20 ADD ADD SWAP1 PUSH1 0xFF AND SWAP1 DUP2 PUSH1 0xFF AND DUP2 MSTORE POP POP PUSH1 0x0 SWAP4 POP DUP5 DUP1 PUSH2 0x458 SWAP1 PUSH2 0xAE4 JUMP JUMPDEST SWAP6 POP POP POP POP JUMPDEST DUP1 DUP1 PUSH2 0x469 SWAP1 PUSH2 0xAE4 JUMP JUMPDEST SWAP2 POP POP PUSH2 0x313 JUMP JUMPDEST PUSH1 0x0 DUP1 DUP2 SLOAD DUP1 SWAP3 SWAP2 SWAP1 PUSH2 0x483 SWAP1 PUSH2 0xAE4 JUMP JUMPDEST SWAP2 SWAP1 POP SSTORE POP PUSH2 0x491 DUP6 PUSH2 0xD6 JUMP JUMPDEST SWAP11 POP POP POP POP POP POP POP POP POP POP POP SWAP3 SWAP2 POP POP JUMP JUMPDEST PUSH1 0x0 PUSH2 0x4BC DUP4 PUSH1 0x8 DUP1 DUP6 PUSH2 0x4B7 SWAP2 SWAP1 PUSH2 0xD3F JUMP JUMPDEST PUSH2 0x5E8 JUMP JUMPDEST SWAP1 POP SWAP3 SWAP2 POP POP JUMP JUMPDEST PUSH1 0x0 PUSH4 0xFFFFFFFF DUP3 AND SWAP1 POP SWAP2 SWAP1 POP JUMP JUMPDEST PUSH1 0x0 DUP1 PUSH1 0x0 SWAP1 POP PUSH1 0x0 DUP1 PUSH2 0x4F2 DUP9 DUP9 PUSH1 0x0 PUSH2 0x4ED PUSH2 0x619 JUMP JUMPDEST PUSH2 0x63D JUMP JUMPDEST SWAP1 POP PUSH1 0x0 JUMPDEST PUSH1 0x3 DUP2 LT ISZERO PUSH2 0x538 JUMPI PUSH2 0x509 DUP2 PUSH2 0x699 JUMP JUMPDEST DUP5 PUSH2 0x514 SWAP2 SWAP1 PUSH2 0xD0B JUMP JUMPDEST SWAP4 POP DUP2 DUP5 LT PUSH2 0x525 JUMPI DUP1 SWAP3 POP PUSH2 0x538 JUMP JUMPDEST DUP1 DUP1 PUSH2 0x530 SWAP1 PUSH2 0xAE4 JUMP JUMPDEST SWAP2 POP POP PUSH2 0x4F7 JUMP JUMPDEST POP PUSH1 0x0 DUP3 SUB PUSH2 0x54C JUMPI DUP6 SWAP4 POP POP POP POP PUSH2 0x590 JUMP JUMPDEST PUSH1 0x1 DUP3 SUB PUSH2 0x55F JUMPI DUP5 SWAP4 POP POP POP POP PUSH2 0x590 JUMP JUMPDEST PUSH2 0x58A DUP9 DUP9 PUSH2 0x56D SWAP1 PUSH2 0xAE4 JUMP JUMPDEST SWAP9 POP DUP9 PUSH1 0x1 PUSH1 0x4 PUSH1 0x2 SWAP1 SLOAD SWAP1 PUSH2 0x100 EXP SWAP1 DIV PUSH1 0xFF AND PUSH1 0xFF AND PUSH2 0x63D JUMP JUMPDEST SWAP4 POP POP POP POP JUMPDEST SWAP5 SWAP4 POP POP POP POP JUMP JUMPDEST PUSH1 0x0 DUP1 DUP3 SUB PUSH2 0x5AA JUMPI PUSH1 0x0 SWAP1 POP PUSH2 0x5E1 JUMP JUMPDEST PUSH1 0x0 PUSH1 0x3 SLOAD DUP4 PUSH2 0x5BA SWAP2 SWAP1 PUSH2 0xD81 JUMP JUMPDEST SWAP1 POP DUP1 PUSH2 0x5CC DUP7 DUP7 PUSH1 0x0 PUSH2 0x2710 PUSH2 0x63D JUMP JUMPDEST GT PUSH2 0x5DB JUMPI PUSH1 0x1 SWAP2 POP POP PUSH2 0x5E1 JUMP JUMPDEST PUSH1 0x0 SWAP2 POP POP JUMPDEST SWAP4 SWAP3 POP POP POP JUMP JUMPDEST PUSH1 0x0 DUP1 DUP3 PUSH1 0x1 DUP6 PUSH1 0x2 PUSH2 0x5FB SWAP2 SWAP1 PUSH2 0xEE5 JUMP JUMPDEST PUSH2 0x605 SWAP2 SWAP1 PUSH2 0xA81 JUMP JUMPDEST SWAP1 SHL SWAP1 POP DUP3 DUP2 DUP7 AND SWAP1 SHR SWAP2 POP POP SWAP4 SWAP3 POP POP POP JUMP JUMPDEST PUSH1 0x0 PUSH1 0x2 SLOAD PUSH1 0x1 SLOAD PUSH1 0x1 SLOAD PUSH2 0x62E SWAP2 SWAP1 PUSH2 0xD0B JUMP JUMPDEST PUSH2 0x638 SWAP2 SWAP1 PUSH2 0xD0B JUMP JUMPDEST SWAP1 POP SWAP1 JUMP JUMPDEST PUSH1 0x0 DUP3 DUP3 PUSH2 0x64B SWAP2 SWAP1 PUSH2 0xA81 JUMP JUMPDEST DUP6 DUP6 PUSH1 0x40 MLOAD PUSH1 0x20 ADD PUSH2 0x65E SWAP3 SWAP2 SWAP1 PUSH2 0xF30 JUMP JUMPDEST PUSH1 0x40 MLOAD PUSH1 0x20 DUP2 DUP4 SUB SUB DUP2 MSTORE SWAP1 PUSH1 0x40 MSTORE DUP1 MLOAD SWAP1 PUSH1 0x20 ADD KECCAK256 PUSH1 0x0 SHR PUSH2 0x681 SWAP2 SWAP1 PUSH2 0xF5C JUMP JUMPDEST SWAP1 POP DUP3 DUP2 PUSH2 0x68F SWAP2 SWAP1 PUSH2 0xD0B JUMP JUMPDEST SWAP1 POP SWAP5 SWAP4 POP POP POP POP JUMP JUMPDEST PUSH1 0x0 PUSH1 0x2 DUP3 EQ PUSH2 0x6AB JUMPI PUSH1 0x1 SLOAD PUSH2 0x6AF JUMP JUMPDEST PUSH1 0x2 SLOAD JUMPDEST SWAP1 POP SWAP2 SWAP1 POP JUMP JUMPDEST PUSH1 0x0 PUSH1 0x40 MLOAD SWAP1 POP SWAP1 JUMP JUMPDEST PUSH1 0x0 DUP1 REVERT JUMPDEST PUSH1 0x0 DUP1 REVERT JUMPDEST PUSH1 0x0 DUP1 REVERT JUMPDEST PUSH1 0x0 PUSH1 0x1F NOT PUSH1 0x1F DUP4 ADD AND SWAP1 POP SWAP2 SWAP1 POP JUMP JUMPDEST PUSH32 0x4E487B7100000000000000000000000000000000000000000000000000000000 PUSH1 0x0 MSTORE PUSH1 0x41 PUSH1 0x4 MSTORE PUSH1 0x24 PUSH1 0x0 REVERT JUMPDEST PUSH2 0x718 DUP3 PUSH2 0x6CF JUMP JUMPDEST DUP2 ADD DUP2 DUP2 LT PUSH8 0xFFFFFFFFFFFFFFFF DUP3 GT OR ISZERO PUSH2 0x737 JUMPI PUSH2 0x736 PUSH2 0x6E0 JUMP JUMPDEST JUMPDEST DUP1 PUSH1 0x40 MSTORE POP POP POP JUMP JUMPDEST PUSH1 0x0 PUSH2 0x74A PUSH2 0x6B6 JUMP JUMPDEST SWAP1 POP PUSH2 0x756 DUP3 DUP3 PUSH2 0x70F JUMP JUMPDEST SWAP2 SWAP1 POP JUMP JUMPDEST PUSH1 0x0 PUSH8 0xFFFFFFFFFFFFFFFF DUP3 GT ISZERO PUSH2 0x776 JUMPI PUSH2 0x775 PUSH2 0x6E0 JUMP JUMPDEST JUMPDEST PUSH1 0x20 DUP3 MUL SWAP1 POP PUSH1 0x20 DUP2 ADD SWAP1 POP SWAP2 SWAP1 POP JUMP JUMPDEST PUSH1 0x0 DUP1 REVERT JUMPDEST PUSH1 0x0 PUSH1 0xFF DUP3 AND SWAP1 POP SWAP2 SWAP1 POP JUMP JUMPDEST PUSH2 0x7A2 DUP2 PUSH2 0x78C JUMP JUMPDEST DUP2 EQ PUSH2 0x7AD JUMPI PUSH1 0x0 DUP1 REVERT JUMPDEST POP JUMP JUMPDEST PUSH1 0x0 DUP2 CALLDATALOAD SWAP1 POP PUSH2 0x7BF DUP2 PUSH2 0x799 JUMP JUMPDEST SWAP3 SWAP2 POP POP JUMP JUMPDEST PUSH1 0x0 PUSH2 0x7D8 PUSH2 0x7D3 DUP5 PUSH2 0x75B JUMP JUMPDEST PUSH2 0x740 JUMP JUMPDEST SWAP1 POP DUP1 DUP4 DUP3 MSTORE PUSH1 0x20 DUP3 ADD SWAP1 POP PUSH1 0x20 DUP5 MUL DUP4 ADD DUP6 DUP2 GT ISZERO PUSH2 0x7FB JUMPI PUSH2 0x7FA PUSH2 0x787 JUMP JUMPDEST JUMPDEST DUP4 JUMPDEST DUP2 DUP2 LT ISZERO PUSH2 0x824 JUMPI DUP1 PUSH2 0x810 DUP9 DUP3 PUSH2 0x7B0 JUMP JUMPDEST DUP5 MSTORE PUSH1 0x20 DUP5 ADD SWAP4 POP POP PUSH1 0x20 DUP2 ADD SWAP1 POP PUSH2 0x7FD JUMP JUMPDEST POP POP POP SWAP4 SWAP3 POP POP POP JUMP JUMPDEST PUSH1 0x0 DUP3 PUSH1 0x1F DUP4 ADD SLT PUSH2 0x843 JUMPI PUSH2 0x842 PUSH2 0x6CA JUMP JUMPDEST JUMPDEST DUP2 CALLDATALOAD PUSH2 0x853 DUP5 DUP3 PUSH1 0x20 DUP7 ADD PUSH2 0x7C5 JUMP JUMPDEST SWAP2 POP POP SWAP3 SWAP2 POP POP JUMP JUMPDEST PUSH1 0x0 PUSH1 0x20 DUP3 DUP5 SUB SLT ISZERO PUSH2 0x872 JUMPI PUSH2 0x871 PUSH2 0x6C0 JUMP JUMPDEST JUMPDEST PUSH1 0x0 DUP3 ADD CALLDATALOAD PUSH8 0xFFFFFFFFFFFFFFFF DUP2 GT ISZERO PUSH2 0x890 JUMPI PUSH2 0x88F PUSH2 0x6C5 JUMP JUMPDEST JUMPDEST PUSH2 0x89C DUP5 DUP3 DUP6 ADD PUSH2 0x82E JUMP JUMPDEST SWAP2 POP POP SWAP3 SWAP2 POP POP JUMP JUMPDEST PUSH1 0x0 DUP2 SWAP1 POP SWAP2 SWAP1 POP JUMP JUMPDEST PUSH2 0x8B8 DUP2 PUSH2 0x8A5 JUMP JUMPDEST DUP3 MSTORE POP POP JUMP JUMPDEST PUSH1 0x0 PUSH1 0x20 DUP3 ADD SWAP1 POP PUSH2 0x8D3 PUSH1 0x0 DUP4 ADD DUP5 PUSH2 0x8AF JUMP JUMPDEST SWAP3 SWAP2 POP POP JUMP JUMPDEST PUSH2 0x8E2 DUP2 PUSH2 0x8A5 JUMP JUMPDEST DUP2 EQ PUSH2 0x8ED JUMPI PUSH1 0x0 DUP1 REVERT JUMPDEST POP JUMP JUMPDEST PUSH1 0x0 DUP2 CALLDATALOAD SWAP1 POP PUSH2 0x8FF DUP2 PUSH2 0x8D9 JUMP JUMPDEST SWAP3 SWAP2 POP POP JUMP JUMPDEST PUSH1 0x0 PUSH1 0x20 DUP3 DUP5 SUB SLT ISZERO PUSH2 0x91B JUMPI PUSH2 0x91A PUSH2 0x6C0 JUMP JUMPDEST JUMPDEST PUSH1 0x0 PUSH2 0x929 DUP5 DUP3 DUP6 ADD PUSH2 0x8F0 JUMP JUMPDEST SWAP2 POP POP SWAP3 SWAP2 POP POP JUMP JUMPDEST PUSH1 0x0 DUP2 MLOAD SWAP1 POP SWAP2 SWAP1 POP JUMP JUMPDEST PUSH1 0x0 DUP3 DUP3 MSTORE PUSH1 0x20 DUP3 ADD SWAP1 POP SWAP3 SWAP2 POP POP JUMP JUMPDEST PUSH1 0x0 DUP2 SWAP1 POP PUSH1 0x20 DUP3 ADD SWAP1 POP SWAP2 SWAP1 POP JUMP JUMPDEST PUSH2 0x967 DUP2 PUSH2 0x78C JUMP JUMPDEST DUP3 MSTORE POP POP JUMP JUMPDEST PUSH1 0x0 PUSH2 0x979 DUP4 DUP4 PUSH2 0x95E JUMP JUMPDEST PUSH1 0x20 DUP4 ADD SWAP1 POP SWAP3 SWAP2 POP POP JUMP JUMPDEST PUSH1 0x0 PUSH1 0x20 DUP3 ADD SWAP1 POP SWAP2 SWAP1 POP JUMP JUMPDEST PUSH1 0x0 PUSH2 0x99D DUP3 PUSH2 0x932 JUMP JUMPDEST PUSH2 0x9A7 DUP2 DUP6 PUSH2 0x93D JUMP JUMPDEST SWAP4 POP PUSH2 0x9B2 DUP4 PUSH2 0x94E JUMP JUMPDEST DUP1 PUSH1 0x0 JUMPDEST DUP4 DUP2 LT ISZERO PUSH2 0x9E3 JUMPI DUP2 MLOAD PUSH2 0x9CA DUP9 DUP3 PUSH2 0x96D JUMP JUMPDEST SWAP8 POP PUSH2 0x9D5 DUP4 PUSH2 0x985 JUMP JUMPDEST SWAP3 POP POP PUSH1 0x1 DUP2 ADD SWAP1 POP PUSH2 0x9B6 JUMP JUMPDEST POP DUP6 SWAP4 POP POP POP POP SWAP3 SWAP2 POP POP JUMP JUMPDEST PUSH1 0x0 PUSH1 0x20 DUP3 ADD SWAP1 POP DUP2 DUP2 SUB PUSH1 0x0 DUP4 ADD MSTORE PUSH2 0xA0A DUP2 DUP5 PUSH2 0x992 JUMP JUMPDEST SWAP1 POP SWAP3 SWAP2 POP POP JUMP JUMPDEST PUSH1 0x0 DUP1 PUSH1 0x40 DUP4 DUP6 SUB SLT ISZERO PUSH2 0xA29 JUMPI PUSH2 0xA28 PUSH2 0x6C0 JUMP JUMPDEST JUMPDEST PUSH1 0x0 PUSH2 0xA37 DUP6 DUP3 DUP7 ADD PUSH2 0x8F0 JUMP JUMPDEST SWAP3 POP POP PUSH1 0x20 PUSH2 0xA48 DUP6 DUP3 DUP7 ADD PUSH2 0x8F0 JUMP JUMPDEST SWAP2 POP POP SWAP3 POP SWAP3 SWAP1 POP JUMP JUMPDEST PUSH32 0x4E487B7100000000000000000000000000000000000000000000000000000000 PUSH1 0x0 MSTORE PUSH1 0x11 PUSH1 0x4 MSTORE PUSH1 0x24 PUSH1 0x0 REVERT JUMPDEST PUSH1 0x0 PUSH2 0xA8C DUP3 PUSH2 0x8A5 JUMP JUMPDEST SWAP2 POP PUSH2 0xA97 DUP4 PUSH2 0x8A5 JUMP JUMPDEST SWAP3 POP DUP3 DUP3 SUB SWAP1 POP DUP2 DUP2 GT ISZERO PUSH2 0xAAF JUMPI PUSH2 0xAAE PUSH2 0xA52 JUMP JUMPDEST JUMPDEST SWAP3 SWAP2 POP POP JUMP JUMPDEST PUSH32 0x4E487B7100000000000000000000000000000000000000000000000000000000 PUSH1 0x0 MSTORE PUSH1 0x32 PUSH1 0x4 MSTORE PUSH1 0x24 PUSH1 0x0 REVERT JUMPDEST PUSH1 0x0 PUSH2 0xAEF DUP3 PUSH2 0x8A5 JUMP JUMPDEST SWAP2 POP PUSH32 0xFFFFFFFFFFFFFFFFFFFFFFFFFFFFFFFFFFFFFFFFFFFFFFFFFFFFFFFFFFFFFFFF DUP3 SUB PUSH2 0xB21 JUMPI PUSH2 0xB20 PUSH2 0xA52 JUMP JUMPDEST JUMPDEST PUSH1 0x1 DUP3 ADD SWAP1 POP SWAP2 SWAP1 POP JUMP JUMPDEST PUSH1 0x0 PUSH4 0xFFFFFFFF DUP3 AND SWAP1 POP SWAP2 SWAP1 POP JUMP JUMPDEST PUSH1 0x0 PUSH2 0xB47 DUP3 PUSH2 0xB2C JUMP JUMPDEST SWAP2 POP PUSH2 0xB52 DUP4 PUSH2 0xB2C JUMP JUMPDEST SWAP3 POP DUP3 DUP3 ADD SWAP1 POP PUSH4 0xFFFFFFFF DUP2 GT ISZERO PUSH2 0xB6E JUMPI PUSH2 0xB6D PUSH2 0xA52 JUMP JUMPDEST JUMPDEST SWAP3 SWAP2 POP POP JUMP JUMPDEST PUSH32 0x4E487B7100000000000000000000000000000000000000000000000000000000 PUSH1 0x0 MSTORE PUSH1 0x12 PUSH1 0x4 MSTORE PUSH1 0x24 PUSH1 0x0 REVERT JUMPDEST PUSH1 0x0 PUSH2 0xBAE DUP3 PUSH2 0xB2C JUMP JUMPDEST SWAP2 POP PUSH2 0xBB9 DUP4 PUSH2 0xB2C JUMP JUMPDEST SWAP3 POP DUP3 PUSH2 0xBC9 JUMPI PUSH2 0xBC8 PUSH2 0xB74 JUMP JUMPDEST JUMPDEST DUP3 DUP3 DIV SWAP1 POP SWAP3 SWAP2 POP POP JUMP JUMPDEST PUSH1 0x0 DUP2 SWAP1 POP SWAP2 SWAP1 POP JUMP JUMPDEST PUSH2 0xBEF PUSH2 0xBEA DUP3 PUSH2 0x8A5 JUMP JUMPDEST PUSH2 0xBD4 JUMP JUMPDEST DUP3 MSTORE POP POP JUMP JUMPDEST PUSH1 0x0 PUSH2 0xC01 DUP3 DUP10 PUSH2 0xBDE JUMP JUMPDEST PUSH1 0x20 DUP3 ADD SWAP2 POP PUSH2 0xC11 DUP3 DUP9 PUSH2 0xBDE JUMP JUMPDEST PUSH1 0x20 DUP3 ADD SWAP2 POP PUSH2 0xC21 DUP3 DUP8 PUSH2 0xBDE JUMP JUMPDEST PUSH1 0x20 DUP3 ADD SWAP2 POP PUSH2 0xC31 DUP3 DUP7 PUSH2 0xBDE JUMP JUMPDEST PUSH1 0x20 DUP3 ADD SWAP2 POP PUSH2 0xC41 DUP3 DUP6 PUSH2 0xBDE JUMP JUMPDEST PUSH1 0x20 DUP3 ADD SWAP2 POP PUSH2 0xC51 DUP3 DUP5 PUSH2 0xBDE JUMP JUMPDEST PUSH1 0x20 DUP3 ADD SWAP2 POP DUP2 SWAP1 POP SWAP8 SWAP7 POP POP POP POP POP POP POP JUMP JUMPDEST PUSH1 0x0 DUP3 DUP3 MSTORE PUSH1 0x20 DUP3 ADD SWAP1 POP SWAP3 SWAP2 POP POP JUMP JUMPDEST PUSH32 0x72616E646F6D53656564203D2030000000000000000000000000000000000000 PUSH1 0x0 DUP3 ADD MSTORE POP JUMP JUMPDEST PUSH1 0x0 PUSH2 0xCAC PUSH1 0xE DUP4 PUSH2 0xC65 JUMP JUMPDEST SWAP2 POP PUSH2 0xCB7 DUP3 PUSH2 0xC76 JUMP JUMPDEST PUSH1 0x20 DUP3 ADD SWAP1 POP SWAP2 SWAP1 POP JUMP JUMPDEST PUSH1 0x0 PUSH1 0x20 DUP3 ADD SWAP1 POP DUP2 DUP2 SUB PUSH1 0x0 DUP4 ADD MSTORE PUSH2 0xCDB DUP2 PUSH2 0xC9F JUMP JUMPDEST SWAP1 POP SWAP2 SWAP1 POP JUMP JUMPDEST PUSH1 0x0 PUSH2 0xCED DUP3 PUSH2 0x78C JUMP JUMPDEST SWAP2 POP PUSH1 0xFF DUP3 SUB PUSH2 0xD00 JUMPI PUSH2 0xCFF PUSH2 0xA52 JUMP JUMPDEST JUMPDEST PUSH1 0x1 DUP3 ADD SWAP1 POP SWAP2 SWAP1 POP JUMP JUMPDEST PUSH1 0x0 PUSH2 0xD16 DUP3 PUSH2 0x8A5 JUMP JUMPDEST SWAP2 POP PUSH2 0xD21 DUP4 PUSH2 0x8A5 JUMP JUMPDEST SWAP3 POP DUP3 DUP3 ADD SWAP1 POP DUP1 DUP3 GT ISZERO PUSH2 0xD39 JUMPI PUSH2 0xD38 PUSH2 0xA52 JUMP JUMPDEST JUMPDEST SWAP3 SWAP2 POP POP JUMP JUMPDEST PUSH1 0x0 PUSH2 0xD4A DUP3 PUSH2 0x8A5 JUMP JUMPDEST SWAP2 POP PUSH2 0xD55 DUP4 PUSH2 0x8A5 JUMP JUMPDEST SWAP3 POP DUP3 DUP3 MUL PUSH2 0xD63 DUP2 PUSH2 0x8A5 JUMP JUMPDEST SWAP2 POP DUP3 DUP3 DIV DUP5 EQ DUP4 ISZERO OR PUSH2 0xD7A JUMPI PUSH2 0xD79 PUSH2 0xA52 JUMP JUMPDEST JUMPDEST POP SWAP3 SWAP2 POP POP JUMP JUMPDEST PUSH1 0x0 PUSH2 0xD8C DUP3 PUSH2 0x8A5 JUMP JUMPDEST SWAP2 POP PUSH2 0xD97 DUP4 PUSH2 0x8A5 JUMP JUMPDEST SWAP3 POP DUP3 PUSH2 0xDA7 JUMPI PUSH2 0xDA6 PUSH2 0xB74 JUMP JUMPDEST JUMPDEST DUP3 DUP3 DIV SWAP1 POP SWAP3 SWAP2 POP POP JUMP JUMPDEST PUSH1 0x0 DUP2 PUSH1 0x1 SHR SWAP1 POP SWAP2 SWAP1 POP JUMP JUMPDEST PUSH1 0x0 DUP1 DUP3 SWAP2 POP DUP4 SWAP1 POP JUMPDEST PUSH1 0x1 DUP6 GT ISZERO PUSH2 0xE09 JUMPI DUP1 DUP7 DIV DUP2 GT ISZERO PUSH2 0xDE5 JUMPI PUSH2 0xDE4 PUSH2 0xA52 JUMP JUMPDEST JUMPDEST PUSH1 0x1 DUP6 AND ISZERO PUSH2 0xDF4 JUMPI DUP1 DUP3 MUL SWAP2 POP JUMPDEST DUP1 DUP2 MUL SWAP1 POP PUSH2 0xE02 DUP6 PUSH2 0xDB2 JUMP JUMPDEST SWAP5 POP PUSH2 0xDC9 JUMP JUMPDEST SWAP5 POP SWAP5 SWAP3 POP POP POP JUMP JUMPDEST PUSH1 0x0 DUP3 PUSH2 0xE22 JUMPI PUSH1 0x1 SWAP1 POP PUSH2 0xEDE JUMP JUMPDEST DUP2 PUSH2 0xE30 JUMPI PUSH1 0x0 SWAP1 POP PUSH2 0xEDE JUMP JUMPDEST DUP2 PUSH1 0x1 DUP2 EQ PUSH2 0xE46 JUMPI PUSH1 0x2 DUP2 EQ PUSH2 0xE50 JUMPI PUSH2 0xE7F JUMP JUMPDEST PUSH1 0x1 SWAP2 POP POP PUSH2 0xEDE JUMP JUMPDEST PUSH1 0xFF DUP5 GT ISZERO PUSH2 0xE62 JUMPI PUSH2 0xE61 PUSH2 0xA52 JUMP JUMPDEST JUMPDEST DUP4 PUSH1 0x2 EXP SWAP2 POP DUP5 DUP3 GT ISZERO PUSH2 0xE79 JUMPI PUSH2 0xE78 PUSH2 0xA52 JUMP JUMPDEST JUMPDEST POP PUSH2 0xEDE JUMP JUMPDEST POP PUSH1 0x20 DUP4 LT PUSH2 0x133 DUP4 LT AND PUSH1 0x4E DUP5 LT PUSH1 0xB DUP5 LT AND OR ISZERO PUSH2 0xEB4 JUMPI DUP3 DUP3 EXP SWAP1 POP DUP4 DUP2 GT ISZERO PUSH2 0xEAF JUMPI PUSH2 0xEAE PUSH2 0xA52 JUMP JUMPDEST JUMPDEST PUSH2 0xEDE JUMP JUMPDEST PUSH2 0xEC1 DUP5 DUP5 DUP5 PUSH1 0x1 PUSH2 0xDBF JUMP JUMPDEST SWAP3 POP SWAP1 POP DUP2 DUP5 DIV DUP2 GT ISZERO PUSH2 0xED8 JUMPI PUSH2 0xED7 PUSH2 0xA52 JUMP JUMPDEST JUMPDEST DUP2 DUP2 MUL SWAP1 POP JUMPDEST SWAP4 SWAP3 POP POP POP JUMP JUMPDEST PUSH1 0x0 PUSH2 0xEF0 DUP3 PUSH2 0x8A5 JUMP JUMPDEST SWAP2 POP PUSH2 0xEFB DUP4 PUSH2 0x8A5 JUMP JUMPDEST SWAP3 POP PUSH2 0xF28 PUSH32 0xFFFFFFFFFFFFFFFFFFFFFFFFFFFFFFFFFFFFFFFFFFFFFFFFFFFFFFFFFFFFFFFF DUP5 DUP5 PUSH2 0xE12 JUMP JUMPDEST SWAP1 POP SWAP3 SWAP2 POP POP JUMP JUMPDEST PUSH1 0x0 PUSH2 0xF3C DUP3 DUP6 PUSH2 0xBDE JUMP JUMPDEST PUSH1 0x20 DUP3 ADD SWAP2 POP PUSH2 0xF4C DUP3 DUP5 PUSH2 0xBDE JUMP JUMPDEST PUSH1 0x20 DUP3 ADD SWAP2 POP DUP2 SWAP1 POP SWAP4 SWAP3 POP POP POP JUMP JUMPDEST PUSH1 0x0 PUSH2 0xF67 DUP3 PUSH2 0x8A5 JUMP JUMPDEST SWAP2 POP PUSH2 0xF72 DUP4 PUSH2 0x8A5 JUMP JUMPDEST SWAP3 POP DUP3 PUSH2 0xF82 JUMPI PUSH2 0xF81 PUSH2 0xB74 JUMP JUMPDEST JUMPDEST DUP3 DUP3 MOD SWAP1 POP SWAP3 SWAP2 POP POP JUMP INVALID LOG2 PUSH5 0x6970667358 0x22 SLT KECCAK256 0xE9 STOP MOD PUSH32 0x85B7ED0DEC2B095BE3B844F4611E5DFBB0A933FE021B008528C29D9764736F6C PUSH4 0x43000812 STOP CALLER "
		},
		"gasEstimates": {
			"creation": {
				"codeDepositCost": "807000",
				"executionCost": "162169",
				"totalCost": "969169"
			},
			"external": {
				"breading(uint256,uint256)": "infinite",
				"decode(uint256)": "infinite",
				"encode(uint8[])": "infinite"
			},
			"internal": {
				"get8Bits(uint256,uint256)": "infinite",
				"getRandomId(uint256,uint256,uint8,uint8)": "infinite",
				"getRarity(uint256,uint256,uint256)": "infinite",
				"random(uint256,uint256,uint256,uint256)": "infinite",
				"sliceNumber(uint256,uint256,uint256)": "infinite",
				"totalWeight()": "infinite",
				"weight(uint256)": "2162"
			}
		},
		"methodIdentifiers": {
			"breading(uint256,uint256)": "e4a13fb7",
			"decode(uint256)": "61a76900",
			"encode(uint8[])": "1597ee44"
		}
	},
	"abi": [
		{
			"inputs": [
				{
					"internalType": "uint256",
					"name": "genes1",
					"type": "uint256"
				},
				{
					"internalType": "uint256",
					"name": "genes2",
					"type": "uint256"
				}
			],
			"name": "breading",
			"outputs": [
				{
					"internalType": "uint256",
					"name": "",
					"type": "uint256"
				}
			],
			"stateMutability": "nonpayable",
			"type": "function"
		},
		{
			"inputs": [
				{
					"internalType": "uint256",
					"name": "_genes",
					"type": "uint256"
				}
			],
			"name": "decode",
			"outputs": [
				{
					"internalType": "uint8[]",
					"name": "_traits",
					"type": "uint8[]"
				}
			],
			"stateMutability": "pure",
			"type": "function"
		},
		{
			"inputs": [
				{
					"internalType": "uint8[]",
					"name": "_traits",
					"type": "uint8[]"
				}
			],
			"name": "encode",
			"outputs": [
				{
					"internalType": "uint256",
					"name": "_genes",
					"type": "uint256"
				}
			],
			"stateMutability": "pure",
			"type": "function"
		}
	]
}