{
	"data": {
		"bytecode": {
			"linkReferences": {},
			"object": "608060405260016000556032600155600a60025560646003556009600460006101000a81548160ff021916908360ff1602179055506025600460016101000a81548160ff021916908360ff16021790555034801561005c57600080fd5b50610f038061006c6000396000f3fe608060405234801561001057600080fd5b50600436106100415760003560e01c80631597ee441461004657806361a7690014610076578063a7cc0f50146100a6575b600080fd5b610060600480360381019061005b9190610802565b6100d6565b60405161006d9190610864565b60405180910390f35b610090600480360381019061008b91906108ab565b61013d565b60405161009d9190610996565b60405180910390f35b6100c060048036038101906100bb91906109b8565b6101e1565b6040516100cd9190610864565b60405180910390f35b6000805b825181101561013757600882901b91508281600185516100fa9190610a3a565b6101049190610a3a565b8151811061011557610114610a6e565b5b602002602001015160ff1682179150808061012f90610a9d565b9150506100da565b50919050565b6060601b67ffffffffffffffff81111561015a57610159610686565b5b6040519080825280602002602001820160405280156101885781602001602082028036833780820191505090505b50905060005b81518110156101db576101a18382610459565b8282815181106101b4576101b3610a6e565b5b602002602001019060ff16908160ff168152505080806101d390610a9d565b91505061018e565b50919050565b6000806101ed8561013d565b905060006101fa8561013d565b90506000825167ffffffffffffffff81111561021957610218610686565b5b6040519080825280602002602001820160405280156102475781602001602082028036833780820191505090505b50905060004243448a8a60005460405160200161026996959493929190610b06565b6040516020818303038152906040528051906020012060001c9050600081036102c7576040517f08c379a00000000000000000000000000000000000000000000000000000000081526004016102be90610bd3565b60405180910390fd5b6000806000905060005b86518110156104295760008782815181106102ef576102ee610a6e565b5b60200260200101519050600087838151811061030e5761030d610a6e565b5b6020026020010151905060008460ff160361037a5761032f8686848461047a565b87848151811061034257610341610a6e565b5b602002602001019060ff16908160ff1681525050838061036190610bf3565b9450506002856103719190610c1c565b94505050610416565b60018460ff16036103c357600187848151811061039a57610399610a6e565b5b602002602001019060ff16908160ff168152505083806103b990610bf3565b9450505050610416565b6103da8686806103d290610a9d565b97508d61053e565b8784815181106103ed576103ec610a6e565b5b602002602001019060ff16908160ff168152505060009350848061041090610a9d565b95505050505b808061042190610a9d565b9150506102d1565b60008081548092919061043b90610a9d565b9190505550610449856100d6565b9750505050505050509392505050565b6000610472836008808561046d9190610c50565b61058e565b905092915050565b60008060009050600080610498888860006104936105bf565b6105e3565b905060005b60038110156104de576104af8161063f565b846104ba9190610c1c565b93508184106104cb578092506104de565b80806104d690610a9d565b91505061049d565b50600082036104f257859350505050610536565b6001820361050557849350505050610536565b610530888861051390610a9d565b9850886001600460019054906101000a900460ff1660ff166105e3565b93505050505b949350505050565b60008082036105505760009050610587565b6000600354836105609190610cc1565b905080610572868660006127106105e3565b11610581576001915050610587565b60009150505b9392505050565b6000808260018560026105a19190610e25565b6105ab9190610a3a565b901b905082818616901c9150509392505050565b60006002546001546001546105d49190610c1c565b6105de9190610c1c565b905090565b600082826105f19190610a3a565b8585604051602001610604929190610e70565b6040516020818303038152906040528051906020012060001c6106279190610e9c565b905082816106359190610c1c565b9050949350505050565b60006002821461065157600154610655565b6002545b9050919050565b6000604051905090565b600080fd5b600080fd5b600080fd5b6000601f19601f8301169050919050565b7f4e487b7100000000000000000000000000000000000000000000000000000000600052604160045260246000fd5b6106be82610675565b810181811067ffffffffffffffff821117156106dd576106dc610686565b5b80604052505050565b60006106f061065c565b90506106fc82826106b5565b919050565b600067ffffffffffffffff82111561071c5761071b610686565b5b602082029050602081019050919050565b600080fd5b600060ff82169050919050565b61074881610732565b811461075357600080fd5b50565b6000813590506107658161073f565b92915050565b600061077e61077984610701565b6106e6565b905080838252602082019050602084028301858111156107a1576107a061072d565b5b835b818110156107ca57806107b68882610756565b8452602084019350506020810190506107a3565b5050509392505050565b600082601f8301126107e9576107e8610670565b5b81356107f984826020860161076b565b91505092915050565b60006020828403121561081857610817610666565b5b600082013567ffffffffffffffff8111156108365761083561066b565b5b610842848285016107d4565b91505092915050565b6000819050919050565b61085e8161084b565b82525050565b60006020820190506108796000830184610855565b92915050565b6108888161084b565b811461089357600080fd5b50565b6000813590506108a58161087f565b92915050565b6000602082840312156108c1576108c0610666565b5b60006108cf84828501610896565b91505092915050565b600081519050919050565b600082825260208201905092915050565b6000819050602082019050919050565b61090d81610732565b82525050565b600061091f8383610904565b60208301905092915050565b6000602082019050919050565b6000610943826108d8565b61094d81856108e3565b9350610958836108f4565b8060005b838110156109895781516109708882610913565b975061097b8361092b565b92505060018101905061095c565b5085935050505092915050565b600060208201905081810360008301526109b08184610938565b905092915050565b6000806000606084860312156109d1576109d0610666565b5b60006109df86828701610896565b93505060206109f086828701610896565b9250506040610a0186828701610896565b9150509250925092565b7f4e487b7100000000000000000000000000000000000000000000000000000000600052601160045260246000fd5b6000610a458261084b565b9150610a508361084b565b9250828203905081811115610a6857610a67610a0b565b5b92915050565b7f4e487b7100000000000000000000000000000000000000000000000000000000600052603260045260246000fd5b6000610aa88261084b565b91507fffffffffffffffffffffffffffffffffffffffffffffffffffffffffffffffff8203610ada57610ad9610a0b565b5b600182019050919050565b6000819050919050565b610b00610afb8261084b565b610ae5565b82525050565b6000610b128289610aef565b602082019150610b228288610aef565b602082019150610b328287610aef565b602082019150610b428286610aef565b602082019150610b528285610aef565b602082019150610b628284610aef565b602082019150819050979650505050505050565b600082825260208201905092915050565b7f72616e646f6d53656564203d2030000000000000000000000000000000000000600082015250565b6000610bbd600e83610b76565b9150610bc882610b87565b602082019050919050565b60006020820190508181036000830152610bec81610bb0565b9050919050565b6000610bfe82610732565b915060ff8203610c1157610c10610a0b565b5b600182019050919050565b6000610c278261084b565b9150610c328361084b565b9250828201905080821115610c4a57610c49610a0b565b5b92915050565b6000610c5b8261084b565b9150610c668361084b565b9250828202610c748161084b565b91508282048414831517610c8b57610c8a610a0b565b5b5092915050565b7f4e487b7100000000000000000000000000000000000000000000000000000000600052601260045260246000fd5b6000610ccc8261084b565b9150610cd78361084b565b925082610ce757610ce6610c92565b5b828204905092915050565b60008160011c9050919050565b6000808291508390505b6001851115610d4957808604811115610d2557610d24610a0b565b5b6001851615610d345780820291505b8081029050610d4285610cf2565b9450610d09565b94509492505050565b600082610d625760019050610e1e565b81610d705760009050610e1e565b8160018114610d865760028114610d9057610dbf565b6001915050610e1e565b60ff841115610da257610da1610a0b565b5b8360020a915084821115610db957610db8610a0b565b5b50610e1e565b5060208310610133831016604e8410600b8410161715610df45782820a905083811115610def57610dee610a0b565b5b610e1e565b610e018484846001610cff565b92509050818404811115610e1857610e17610a0b565b5b81810290505b9392505050565b6000610e308261084b565b9150610e3b8361084b565b9250610e687fffffffffffffffffffffffffffffffffffffffffffffffffffffffffffffffff8484610d52565b905092915050565b6000610e7c8285610aef565b602082019150610e8c8284610aef565b6020820191508190509392505050565b6000610ea78261084b565b9150610eb28361084b565b925082610ec257610ec1610c92565b5b82820690509291505056fea2646970667358221220f53cc3e5d304ca6147d21234259fe098578066d83ff7bb11db54bbe068afb91d64736f6c63430008110033",
			"opcodes": "PUSH1 0x80 PUSH1 0x40 MSTORE PUSH1 0x1 PUSH1 0x0 SSTORE PUSH1 0x32 PUSH1 0x1 SSTORE PUSH1 0xA PUSH1 0x2 SSTORE PUSH1 0x64 PUSH1 0x3 SSTORE PUSH1 0x9 PUSH1 0x4 PUSH1 0x0 PUSH2 0x100 EXP DUP2 SLOAD DUP2 PUSH1 0xFF MUL NOT AND SWAP1 DUP4 PUSH1 0xFF AND MUL OR SWAP1 SSTORE POP PUSH1 0x25 PUSH1 0x4 PUSH1 0x1 PUSH2 0x100 EXP DUP2 SLOAD DUP2 PUSH1 0xFF MUL NOT AND SWAP1 DUP4 PUSH1 0xFF AND MUL OR SWAP1 SSTORE POP CALLVALUE DUP1 ISZERO PUSH2 0x5C JUMPI PUSH1 0x0 DUP1 REVERT JUMPDEST POP PUSH2 0xF03 DUP1 PUSH2 0x6C PUSH1 0x0 CODECOPY PUSH1 0x0 RETURN INVALID PUSH1 0x80 PUSH1 0x40 MSTORE CALLVALUE DUP1 ISZERO PUSH2 0x10 JUMPI PUSH1 0x0 DUP1 REVERT JUMPDEST POP PUSH1 0x4 CALLDATASIZE LT PUSH2 0x41 JUMPI PUSH1 0x0 CALLDATALOAD PUSH1 0xE0 SHR DUP1 PUSH4 0x1597EE44 EQ PUSH2 0x46 JUMPI DUP1 PUSH4 0x61A76900 EQ PUSH2 0x76 JUMPI DUP1 PUSH4 0xA7CC0F50 EQ PUSH2 0xA6 JUMPI JUMPDEST PUSH1 0x0 DUP1 REVERT JUMPDEST PUSH2 0x60 PUSH1 0x4 DUP1 CALLDATASIZE SUB DUP2 ADD SWAP1 PUSH2 0x5B SWAP2 SWAP1 PUSH2 0x802 JUMP JUMPDEST PUSH2 0xD6 JUMP JUMPDEST PUSH1 0x40 MLOAD PUSH2 0x6D SWAP2 SWAP1 PUSH2 0x864 JUMP JUMPDEST PUSH1 0x40 MLOAD DUP1 SWAP2 SUB SWAP1 RETURN JUMPDEST PUSH2 0x90 PUSH1 0x4 DUP1 CALLDATASIZE SUB DUP2 ADD SWAP1 PUSH2 0x8B SWAP2 SWAP1 PUSH2 0x8AB JUMP JUMPDEST PUSH2 0x13D JUMP JUMPDEST PUSH1 0x40 MLOAD PUSH2 0x9D SWAP2 SWAP1 PUSH2 0x996 JUMP JUMPDEST PUSH1 0x40 MLOAD DUP1 SWAP2 SUB SWAP1 RETURN JUMPDEST PUSH2 0xC0 PUSH1 0x4 DUP1 CALLDATASIZE SUB DUP2 ADD SWAP1 PUSH2 0xBB SWAP2 SWAP1 PUSH2 0x9B8 JUMP JUMPDEST PUSH2 0x1E1 JUMP JUMPDEST PUSH1 0x40 MLOAD PUSH2 0xCD SWAP2 SWAP1 PUSH2 0x864 JUMP JUMPDEST PUSH1 0x40 MLOAD DUP1 SWAP2 SUB SWAP1 RETURN JUMPDEST PUSH1 0x0 DUP1 JUMPDEST DUP3 MLOAD DUP2 LT ISZERO PUSH2 0x137 JUMPI PUSH1 0x8 DUP3 SWAP1 SHL SWAP2 POP DUP3 DUP2 PUSH1 0x1 DUP6 MLOAD PUSH2 0xFA SWAP2 SWAP1 PUSH2 0xA3A JUMP JUMPDEST PUSH2 0x104 SWAP2 SWAP1 PUSH2 0xA3A JUMP JUMPDEST DUP2 MLOAD DUP2 LT PUSH2 0x115 JUMPI PUSH2 0x114 PUSH2 0xA6E JUMP JUMPDEST JUMPDEST PUSH1 0x20 MUL PUSH1 0x20 ADD ADD MLOAD PUSH1 0xFF AND DUP3 OR SWAP2 POP DUP1 DUP1 PUSH2 0x12F SWAP1 PUSH2 0xA9D JUMP JUMPDEST SWAP2 POP POP PUSH2 0xDA JUMP JUMPDEST POP SWAP2 SWAP1 POP JUMP JUMPDEST PUSH1 0x60 PUSH1 0x1B PUSH8 0xFFFFFFFFFFFFFFFF DUP2 GT ISZERO PUSH2 0x15A JUMPI PUSH2 0x159 PUSH2 0x686 JUMP JUMPDEST JUMPDEST PUSH1 0x40 MLOAD SWAP1 DUP1 DUP3 MSTORE DUP1 PUSH1 0x20 MUL PUSH1 0x20 ADD DUP3 ADD PUSH1 0x40 MSTORE DUP1 ISZERO PUSH2 0x188 JUMPI DUP2 PUSH1 0x20 ADD PUSH1 0x20 DUP3 MUL DUP1 CALLDATASIZE DUP4 CALLDATACOPY DUP1 DUP3 ADD SWAP2 POP POP SWAP1 POP JUMPDEST POP SWAP1 POP PUSH1 0x0 JUMPDEST DUP2 MLOAD DUP2 LT ISZERO PUSH2 0x1DB JUMPI PUSH2 0x1A1 DUP4 DUP3 PUSH2 0x459 JUMP JUMPDEST DUP3 DUP3 DUP2 MLOAD DUP2 LT PUSH2 0x1B4 JUMPI PUSH2 0x1B3 PUSH2 0xA6E JUMP JUMPDEST JUMPDEST PUSH1 0x20 MUL PUSH1 0x20 ADD ADD SWAP1 PUSH1 0xFF AND SWAP1 DUP2 PUSH1 0xFF AND DUP2 MSTORE POP POP DUP1 DUP1 PUSH2 0x1D3 SWAP1 PUSH2 0xA9D JUMP JUMPDEST SWAP2 POP POP PUSH2 0x18E JUMP JUMPDEST POP SWAP2 SWAP1 POP JUMP JUMPDEST PUSH1 0x0 DUP1 PUSH2 0x1ED DUP6 PUSH2 0x13D JUMP JUMPDEST SWAP1 POP PUSH1 0x0 PUSH2 0x1FA DUP6 PUSH2 0x13D JUMP JUMPDEST SWAP1 POP PUSH1 0x0 DUP3 MLOAD PUSH8 0xFFFFFFFFFFFFFFFF DUP2 GT ISZERO PUSH2 0x219 JUMPI PUSH2 0x218 PUSH2 0x686 JUMP JUMPDEST JUMPDEST PUSH1 0x40 MLOAD SWAP1 DUP1 DUP3 MSTORE DUP1 PUSH1 0x20 MUL PUSH1 0x20 ADD DUP3 ADD PUSH1 0x40 MSTORE DUP1 ISZERO PUSH2 0x247 JUMPI DUP2 PUSH1 0x20 ADD PUSH1 0x20 DUP3 MUL DUP1 CALLDATASIZE DUP4 CALLDATACOPY DUP1 DUP3 ADD SWAP2 POP POP SWAP1 POP JUMPDEST POP SWAP1 POP PUSH1 0x0 TIMESTAMP NUMBER DIFFICULTY DUP11 DUP11 PUSH1 0x0 SLOAD PUSH1 0x40 MLOAD PUSH1 0x20 ADD PUSH2 0x269 SWAP7 SWAP6 SWAP5 SWAP4 SWAP3 SWAP2 SWAP1 PUSH2 0xB06 JUMP JUMPDEST PUSH1 0x40 MLOAD PUSH1 0x20 DUP2 DUP4 SUB SUB DUP2 MSTORE SWAP1 PUSH1 0x40 MSTORE DUP1 MLOAD SWAP1 PUSH1 0x20 ADD KECCAK256 PUSH1 0x0 SHR SWAP1 POP PUSH1 0x0 DUP2 SUB PUSH2 0x2C7 JUMPI PUSH1 0x40 MLOAD PUSH32 0x8C379A000000000000000000000000000000000000000000000000000000000 DUP2 MSTORE PUSH1 0x4 ADD PUSH2 0x2BE SWAP1 PUSH2 0xBD3 JUMP JUMPDEST PUSH1 0x40 MLOAD DUP1 SWAP2 SUB SWAP1 REVERT JUMPDEST PUSH1 0x0 DUP1 PUSH1 0x0 SWAP1 POP PUSH1 0x0 JUMPDEST DUP7 MLOAD DUP2 LT ISZERO PUSH2 0x429 JUMPI PUSH1 0x0 DUP8 DUP3 DUP2 MLOAD DUP2 LT PUSH2 0x2EF JUMPI PUSH2 0x2EE PUSH2 0xA6E JUMP JUMPDEST JUMPDEST PUSH1 0x20 MUL PUSH1 0x20 ADD ADD MLOAD SWAP1 POP PUSH1 0x0 DUP8 DUP4 DUP2 MLOAD DUP2 LT PUSH2 0x30E JUMPI PUSH2 0x30D PUSH2 0xA6E JUMP JUMPDEST JUMPDEST PUSH1 0x20 MUL PUSH1 0x20 ADD ADD MLOAD SWAP1 POP PUSH1 0x0 DUP5 PUSH1 0xFF AND SUB PUSH2 0x37A JUMPI PUSH2 0x32F DUP7 DUP7 DUP5 DUP5 PUSH2 0x47A JUMP JUMPDEST DUP8 DUP5 DUP2 MLOAD DUP2 LT PUSH2 0x342 JUMPI PUSH2 0x341 PUSH2 0xA6E JUMP JUMPDEST JUMPDEST PUSH1 0x20 MUL PUSH1 0x20 ADD ADD SWAP1 PUSH1 0xFF AND SWAP1 DUP2 PUSH1 0xFF AND DUP2 MSTORE POP POP DUP4 DUP1 PUSH2 0x361 SWAP1 PUSH2 0xBF3 JUMP JUMPDEST SWAP5 POP POP PUSH1 0x2 DUP6 PUSH2 0x371 SWAP2 SWAP1 PUSH2 0xC1C JUMP JUMPDEST SWAP5 POP POP POP PUSH2 0x416 JUMP JUMPDEST PUSH1 0x1 DUP5 PUSH1 0xFF AND SUB PUSH2 0x3C3 JUMPI PUSH1 0x1 DUP8 DUP5 DUP2 MLOAD DUP2 LT PUSH2 0x39A JUMPI PUSH2 0x399 PUSH2 0xA6E JUMP JUMPDEST JUMPDEST PUSH1 0x20 MUL PUSH1 0x20 ADD ADD SWAP1 PUSH1 0xFF AND SWAP1 DUP2 PUSH1 0xFF AND DUP2 MSTORE POP POP DUP4 DUP1 PUSH2 0x3B9 SWAP1 PUSH2 0xBF3 JUMP JUMPDEST SWAP5 POP POP POP POP PUSH2 0x416 JUMP JUMPDEST PUSH2 0x3DA DUP7 DUP7 DUP1 PUSH2 0x3D2 SWAP1 PUSH2 0xA9D JUMP JUMPDEST SWAP8 POP DUP14 PUSH2 0x53E JUMP JUMPDEST DUP8 DUP5 DUP2 MLOAD DUP2 LT PUSH2 0x3ED JUMPI PUSH2 0x3EC PUSH2 0xA6E JUMP JUMPDEST JUMPDEST PUSH1 0x20 MUL PUSH1 0x20 ADD ADD SWAP1 PUSH1 0xFF AND SWAP1 DUP2 PUSH1 0xFF AND DUP2 MSTORE POP POP PUSH1 0x0 SWAP4 POP DUP5 DUP1 PUSH2 0x410 SWAP1 PUSH2 0xA9D JUMP JUMPDEST SWAP6 POP POP POP POP JUMPDEST DUP1 DUP1 PUSH2 0x421 SWAP1 PUSH2 0xA9D JUMP JUMPDEST SWAP2 POP POP PUSH2 0x2D1 JUMP JUMPDEST PUSH1 0x0 DUP1 DUP2 SLOAD DUP1 SWAP3 SWAP2 SWAP1 PUSH2 0x43B SWAP1 PUSH2 0xA9D JUMP JUMPDEST SWAP2 SWAP1 POP SSTORE POP PUSH2 0x449 DUP6 PUSH2 0xD6 JUMP JUMPDEST SWAP8 POP POP POP POP POP POP POP POP SWAP4 SWAP3 POP POP POP JUMP JUMPDEST PUSH1 0x0 PUSH2 0x472 DUP4 PUSH1 0x8 DUP1 DUP6 PUSH2 0x46D SWAP2 SWAP1 PUSH2 0xC50 JUMP JUMPDEST PUSH2 0x58E JUMP JUMPDEST SWAP1 POP SWAP3 SWAP2 POP POP JUMP JUMPDEST PUSH1 0x0 DUP1 PUSH1 0x0 SWAP1 POP PUSH1 0x0 DUP1 PUSH2 0x498 DUP9 DUP9 PUSH1 0x0 PUSH2 0x493 PUSH2 0x5BF JUMP JUMPDEST PUSH2 0x5E3 JUMP JUMPDEST SWAP1 POP PUSH1 0x0 JUMPDEST PUSH1 0x3 DUP2 LT ISZERO PUSH2 0x4DE JUMPI PUSH2 0x4AF DUP2 PUSH2 0x63F JUMP JUMPDEST DUP5 PUSH2 0x4BA SWAP2 SWAP1 PUSH2 0xC1C JUMP JUMPDEST SWAP4 POP DUP2 DUP5 LT PUSH2 0x4CB JUMPI DUP1 SWAP3 POP PUSH2 0x4DE JUMP JUMPDEST DUP1 DUP1 PUSH2 0x4D6 SWAP1 PUSH2 0xA9D JUMP JUMPDEST SWAP2 POP POP PUSH2 0x49D JUMP JUMPDEST POP PUSH1 0x0 DUP3 SUB PUSH2 0x4F2 JUMPI DUP6 SWAP4 POP POP POP POP PUSH2 0x536 JUMP JUMPDEST PUSH1 0x1 DUP3 SUB PUSH2 0x505 JUMPI DUP5 SWAP4 POP POP POP POP PUSH2 0x536 JUMP JUMPDEST PUSH2 0x530 DUP9 DUP9 PUSH2 0x513 SWAP1 PUSH2 0xA9D JUMP JUMPDEST SWAP9 POP DUP9 PUSH1 0x1 PUSH1 0x4 PUSH1 0x1 SWAP1 SLOAD SWAP1 PUSH2 0x100 EXP SWAP1 DIV PUSH1 0xFF AND PUSH1 0xFF AND PUSH2 0x5E3 JUMP JUMPDEST SWAP4 POP POP POP POP JUMPDEST SWAP5 SWAP4 POP POP POP POP JUMP JUMPDEST PUSH1 0x0 DUP1 DUP3 SUB PUSH2 0x550 JUMPI PUSH1 0x0 SWAP1 POP PUSH2 0x587 JUMP JUMPDEST PUSH1 0x0 PUSH1 0x3 SLOAD DUP4 PUSH2 0x560 SWAP2 SWAP1 PUSH2 0xCC1 JUMP JUMPDEST SWAP1 POP DUP1 PUSH2 0x572 DUP7 DUP7 PUSH1 0x0 PUSH2 0x2710 PUSH2 0x5E3 JUMP JUMPDEST GT PUSH2 0x581 JUMPI PUSH1 0x1 SWAP2 POP POP PUSH2 0x587 JUMP JUMPDEST PUSH1 0x0 SWAP2 POP POP JUMPDEST SWAP4 SWAP3 POP POP POP JUMP JUMPDEST PUSH1 0x0 DUP1 DUP3 PUSH1 0x1 DUP6 PUSH1 0x2 PUSH2 0x5A1 SWAP2 SWAP1 PUSH2 0xE25 JUMP JUMPDEST PUSH2 0x5AB SWAP2 SWAP1 PUSH2 0xA3A JUMP JUMPDEST SWAP1 SHL SWAP1 POP DUP3 DUP2 DUP7 AND SWAP1 SHR SWAP2 POP POP SWAP4 SWAP3 POP POP POP JUMP JUMPDEST PUSH1 0x0 PUSH1 0x2 SLOAD PUSH1 0x1 SLOAD PUSH1 0x1 SLOAD PUSH2 0x5D4 SWAP2 SWAP1 PUSH2 0xC1C JUMP JUMPDEST PUSH2 0x5DE SWAP2 SWAP1 PUSH2 0xC1C JUMP JUMPDEST SWAP1 POP SWAP1 JUMP JUMPDEST PUSH1 0x0 DUP3 DUP3 PUSH2 0x5F1 SWAP2 SWAP1 PUSH2 0xA3A JUMP JUMPDEST DUP6 DUP6 PUSH1 0x40 MLOAD PUSH1 0x20 ADD PUSH2 0x604 SWAP3 SWAP2 SWAP1 PUSH2 0xE70 JUMP JUMPDEST PUSH1 0x40 MLOAD PUSH1 0x20 DUP2 DUP4 SUB SUB DUP2 MSTORE SWAP1 PUSH1 0x40 MSTORE DUP1 MLOAD SWAP1 PUSH1 0x20 ADD KECCAK256 PUSH1 0x0 SHR PUSH2 0x627 SWAP2 SWAP1 PUSH2 0xE9C JUMP JUMPDEST SWAP1 POP DUP3 DUP2 PUSH2 0x635 SWAP2 SWAP1 PUSH2 0xC1C JUMP JUMPDEST SWAP1 POP SWAP5 SWAP4 POP POP POP POP JUMP JUMPDEST PUSH1 0x0 PUSH1 0x2 DUP3 EQ PUSH2 0x651 JUMPI PUSH1 0x1 SLOAD PUSH2 0x655 JUMP JUMPDEST PUSH1 0x2 SLOAD JUMPDEST SWAP1 POP SWAP2 SWAP1 POP JUMP JUMPDEST PUSH1 0x0 PUSH1 0x40 MLOAD SWAP1 POP SWAP1 JUMP JUMPDEST PUSH1 0x0 DUP1 REVERT JUMPDEST PUSH1 0x0 DUP1 REVERT JUMPDEST PUSH1 0x0 DUP1 REVERT JUMPDEST PUSH1 0x0 PUSH1 0x1F NOT PUSH1 0x1F DUP4 ADD AND SWAP1 POP SWAP2 SWAP1 POP JUMP JUMPDEST PUSH32 0x4E487B7100000000000000000000000000000000000000000000000000000000 PUSH1 0x0 MSTORE PUSH1 0x41 PUSH1 0x4 MSTORE PUSH1 0x24 PUSH1 0x0 REVERT JUMPDEST PUSH2 0x6BE DUP3 PUSH2 0x675 JUMP JUMPDEST DUP2 ADD DUP2 DUP2 LT PUSH8 0xFFFFFFFFFFFFFFFF DUP3 GT OR ISZERO PUSH2 0x6DD JUMPI PUSH2 0x6DC PUSH2 0x686 JUMP JUMPDEST JUMPDEST DUP1 PUSH1 0x40 MSTORE POP POP POP JUMP JUMPDEST PUSH1 0x0 PUSH2 0x6F0 PUSH2 0x65C JUMP JUMPDEST SWAP1 POP PUSH2 0x6FC DUP3 DUP3 PUSH2 0x6B5 JUMP JUMPDEST SWAP2 SWAP1 POP JUMP JUMPDEST PUSH1 0x0 PUSH8 0xFFFFFFFFFFFFFFFF DUP3 GT ISZERO PUSH2 0x71C JUMPI PUSH2 0x71B PUSH2 0x686 JUMP JUMPDEST JUMPDEST PUSH1 0x20 DUP3 MUL SWAP1 POP PUSH1 0x20 DUP2 ADD SWAP1 POP SWAP2 SWAP1 POP JUMP JUMPDEST PUSH1 0x0 DUP1 REVERT JUMPDEST PUSH1 0x0 PUSH1 0xFF DUP3 AND SWAP1 POP SWAP2 SWAP1 POP JUMP JUMPDEST PUSH2 0x748 DUP2 PUSH2 0x732 JUMP JUMPDEST DUP2 EQ PUSH2 0x753 JUMPI PUSH1 0x0 DUP1 REVERT JUMPDEST POP JUMP JUMPDEST PUSH1 0x0 DUP2 CALLDATALOAD SWAP1 POP PUSH2 0x765 DUP2 PUSH2 0x73F JUMP JUMPDEST SWAP3 SWAP2 POP POP JUMP JUMPDEST PUSH1 0x0 PUSH2 0x77E PUSH2 0x779 DUP5 PUSH2 0x701 JUMP JUMPDEST PUSH2 0x6E6 JUMP JUMPDEST SWAP1 POP DUP1 DUP4 DUP3 MSTORE PUSH1 0x20 DUP3 ADD SWAP1 POP PUSH1 0x20 DUP5 MUL DUP4 ADD DUP6 DUP2 GT ISZERO PUSH2 0x7A1 JUMPI PUSH2 0x7A0 PUSH2 0x72D JUMP JUMPDEST JUMPDEST DUP4 JUMPDEST DUP2 DUP2 LT ISZERO PUSH2 0x7CA JUMPI DUP1 PUSH2 0x7B6 DUP9 DUP3 PUSH2 0x756 JUMP JUMPDEST DUP5 MSTORE PUSH1 0x20 DUP5 ADD SWAP4 POP POP PUSH1 0x20 DUP2 ADD SWAP1 POP PUSH2 0x7A3 JUMP JUMPDEST POP POP POP SWAP4 SWAP3 POP POP POP JUMP JUMPDEST PUSH1 0x0 DUP3 PUSH1 0x1F DUP4 ADD SLT PUSH2 0x7E9 JUMPI PUSH2 0x7E8 PUSH2 0x670 JUMP JUMPDEST JUMPDEST DUP2 CALLDATALOAD PUSH2 0x7F9 DUP5 DUP3 PUSH1 0x20 DUP7 ADD PUSH2 0x76B JUMP JUMPDEST SWAP2 POP POP SWAP3 SWAP2 POP POP JUMP JUMPDEST PUSH1 0x0 PUSH1 0x20 DUP3 DUP5 SUB SLT ISZERO PUSH2 0x818 JUMPI PUSH2 0x817 PUSH2 0x666 JUMP JUMPDEST JUMPDEST PUSH1 0x0 DUP3 ADD CALLDATALOAD PUSH8 0xFFFFFFFFFFFFFFFF DUP2 GT ISZERO PUSH2 0x836 JUMPI PUSH2 0x835 PUSH2 0x66B JUMP JUMPDEST JUMPDEST PUSH2 0x842 DUP5 DUP3 DUP6 ADD PUSH2 0x7D4 JUMP JUMPDEST SWAP2 POP POP SWAP3 SWAP2 POP POP JUMP JUMPDEST PUSH1 0x0 DUP2 SWAP1 POP SWAP2 SWAP1 POP JUMP JUMPDEST PUSH2 0x85E DUP2 PUSH2 0x84B JUMP JUMPDEST DUP3 MSTORE POP POP JUMP JUMPDEST PUSH1 0x0 PUSH1 0x20 DUP3 ADD SWAP1 POP PUSH2 0x879 PUSH1 0x0 DUP4 ADD DUP5 PUSH2 0x855 JUMP JUMPDEST SWAP3 SWAP2 POP POP JUMP JUMPDEST PUSH2 0x888 DUP2 PUSH2 0x84B JUMP JUMPDEST DUP2 EQ PUSH2 0x893 JUMPI PUSH1 0x0 DUP1 REVERT JUMPDEST POP JUMP JUMPDEST PUSH1 0x0 DUP2 CALLDATALOAD SWAP1 POP PUSH2 0x8A5 DUP2 PUSH2 0x87F JUMP JUMPDEST SWAP3 SWAP2 POP POP JUMP JUMPDEST PUSH1 0x0 PUSH1 0x20 DUP3 DUP5 SUB SLT ISZERO PUSH2 0x8C1 JUMPI PUSH2 0x8C0 PUSH2 0x666 JUMP JUMPDEST JUMPDEST PUSH1 0x0 PUSH2 0x8CF DUP5 DUP3 DUP6 ADD PUSH2 0x896 JUMP JUMPDEST SWAP2 POP POP SWAP3 SWAP2 POP POP JUMP JUMPDEST PUSH1 0x0 DUP2 MLOAD SWAP1 POP SWAP2 SWAP1 POP JUMP JUMPDEST PUSH1 0x0 DUP3 DUP3 MSTORE PUSH1 0x20 DUP3 ADD SWAP1 POP SWAP3 SWAP2 POP POP JUMP JUMPDEST PUSH1 0x0 DUP2 SWAP1 POP PUSH1 0x20 DUP3 ADD SWAP1 POP SWAP2 SWAP1 POP JUMP JUMPDEST PUSH2 0x90D DUP2 PUSH2 0x732 JUMP JUMPDEST DUP3 MSTORE POP POP JUMP JUMPDEST PUSH1 0x0 PUSH2 0x91F DUP4 DUP4 PUSH2 0x904 JUMP JUMPDEST PUSH1 0x20 DUP4 ADD SWAP1 POP SWAP3 SWAP2 POP POP JUMP JUMPDEST PUSH1 0x0 PUSH1 0x20 DUP3 ADD SWAP1 POP SWAP2 SWAP1 POP JUMP JUMPDEST PUSH1 0x0 PUSH2 0x943 DUP3 PUSH2 0x8D8 JUMP JUMPDEST PUSH2 0x94D DUP2 DUP6 PUSH2 0x8E3 JUMP JUMPDEST SWAP4 POP PUSH2 0x958 DUP4 PUSH2 0x8F4 JUMP JUMPDEST DUP1 PUSH1 0x0 JUMPDEST DUP4 DUP2 LT ISZERO PUSH2 0x989 JUMPI DUP2 MLOAD PUSH2 0x970 DUP9 DUP3 PUSH2 0x913 JUMP JUMPDEST SWAP8 POP PUSH2 0x97B DUP4 PUSH2 0x92B JUMP JUMPDEST SWAP3 POP POP PUSH1 0x1 DUP2 ADD SWAP1 POP PUSH2 0x95C JUMP JUMPDEST POP DUP6 SWAP4 POP POP POP POP SWAP3 SWAP2 POP POP JUMP JUMPDEST PUSH1 0x0 PUSH1 0x20 DUP3 ADD SWAP1 POP DUP2 DUP2 SUB PUSH1 0x0 DUP4 ADD MSTORE PUSH2 0x9B0 DUP2 DUP5 PUSH2 0x938 JUMP JUMPDEST SWAP1 POP SWAP3 SWAP2 POP POP JUMP JUMPDEST PUSH1 0x0 DUP1 PUSH1 0x0 PUSH1 0x60 DUP5 DUP7 SUB SLT ISZERO PUSH2 0x9D1 JUMPI PUSH2 0x9D0 PUSH2 0x666 JUMP JUMPDEST JUMPDEST PUSH1 0x0 PUSH2 0x9DF DUP7 DUP3 DUP8 ADD PUSH2 0x896 JUMP JUMPDEST SWAP4 POP POP PUSH1 0x20 PUSH2 0x9F0 DUP7 DUP3 DUP8 ADD PUSH2 0x896 JUMP JUMPDEST SWAP3 POP POP PUSH1 0x40 PUSH2 0xA01 DUP7 DUP3 DUP8 ADD PUSH2 0x896 JUMP JUMPDEST SWAP2 POP POP SWAP3 POP SWAP3 POP SWAP3 JUMP JUMPDEST PUSH32 0x4E487B7100000000000000000000000000000000000000000000000000000000 PUSH1 0x0 MSTORE PUSH1 0x11 PUSH1 0x4 MSTORE PUSH1 0x24 PUSH1 0x0 REVERT JUMPDEST PUSH1 0x0 PUSH2 0xA45 DUP3 PUSH2 0x84B JUMP JUMPDEST SWAP2 POP PUSH2 0xA50 DUP4 PUSH2 0x84B JUMP JUMPDEST SWAP3 POP DUP3 DUP3 SUB SWAP1 POP DUP2 DUP2 GT ISZERO PUSH2 0xA68 JUMPI PUSH2 0xA67 PUSH2 0xA0B JUMP JUMPDEST JUMPDEST SWAP3 SWAP2 POP POP JUMP JUMPDEST PUSH32 0x4E487B7100000000000000000000000000000000000000000000000000000000 PUSH1 0x0 MSTORE PUSH1 0x32 PUSH1 0x4 MSTORE PUSH1 0x24 PUSH1 0x0 REVERT JUMPDEST PUSH1 0x0 PUSH2 0xAA8 DUP3 PUSH2 0x84B JUMP JUMPDEST SWAP2 POP PUSH32 0xFFFFFFFFFFFFFFFFFFFFFFFFFFFFFFFFFFFFFFFFFFFFFFFFFFFFFFFFFFFFFFFF DUP3 SUB PUSH2 0xADA JUMPI PUSH2 0xAD9 PUSH2 0xA0B JUMP JUMPDEST JUMPDEST PUSH1 0x1 DUP3 ADD SWAP1 POP SWAP2 SWAP1 POP JUMP JUMPDEST PUSH1 0x0 DUP2 SWAP1 POP SWAP2 SWAP1 POP JUMP JUMPDEST PUSH2 0xB00 PUSH2 0xAFB DUP3 PUSH2 0x84B JUMP JUMPDEST PUSH2 0xAE5 JUMP JUMPDEST DUP3 MSTORE POP POP JUMP JUMPDEST PUSH1 0x0 PUSH2 0xB12 DUP3 DUP10 PUSH2 0xAEF JUMP JUMPDEST PUSH1 0x20 DUP3 ADD SWAP2 POP PUSH2 0xB22 DUP3 DUP9 PUSH2 0xAEF JUMP JUMPDEST PUSH1 0x20 DUP3 ADD SWAP2 POP PUSH2 0xB32 DUP3 DUP8 PUSH2 0xAEF JUMP JUMPDEST PUSH1 0x20 DUP3 ADD SWAP2 POP PUSH2 0xB42 DUP3 DUP7 PUSH2 0xAEF JUMP JUMPDEST PUSH1 0x20 DUP3 ADD SWAP2 POP PUSH2 0xB52 DUP3 DUP6 PUSH2 0xAEF JUMP JUMPDEST PUSH1 0x20 DUP3 ADD SWAP2 POP PUSH2 0xB62 DUP3 DUP5 PUSH2 0xAEF JUMP JUMPDEST PUSH1 0x20 DUP3 ADD SWAP2 POP DUP2 SWAP1 POP SWAP8 SWAP7 POP POP POP POP POP POP POP JUMP JUMPDEST PUSH1 0x0 DUP3 DUP3 MSTORE PUSH1 0x20 DUP3 ADD SWAP1 POP SWAP3 SWAP2 POP POP JUMP JUMPDEST PUSH32 0x72616E646F6D53656564203D2030000000000000000000000000000000000000 PUSH1 0x0 DUP3 ADD MSTORE POP JUMP JUMPDEST PUSH1 0x0 PUSH2 0xBBD PUSH1 0xE DUP4 PUSH2 0xB76 JUMP JUMPDEST SWAP2 POP PUSH2 0xBC8 DUP3 PUSH2 0xB87 JUMP JUMPDEST PUSH1 0x20 DUP3 ADD SWAP1 POP SWAP2 SWAP1 POP JUMP JUMPDEST PUSH1 0x0 PUSH1 0x20 DUP3 ADD SWAP1 POP DUP2 DUP2 SUB PUSH1 0x0 DUP4 ADD MSTORE PUSH2 0xBEC DUP2 PUSH2 0xBB0 JUMP JUMPDEST SWAP1 POP SWAP2 SWAP1 POP JUMP JUMPDEST PUSH1 0x0 PUSH2 0xBFE DUP3 PUSH2 0x732 JUMP JUMPDEST SWAP2 POP PUSH1 0xFF DUP3 SUB PUSH2 0xC11 JUMPI PUSH2 0xC10 PUSH2 0xA0B JUMP JUMPDEST JUMPDEST PUSH1 0x1 DUP3 ADD SWAP1 POP SWAP2 SWAP1 POP JUMP JUMPDEST PUSH1 0x0 PUSH2 0xC27 DUP3 PUSH2 0x84B JUMP JUMPDEST SWAP2 POP PUSH2 0xC32 DUP4 PUSH2 0x84B JUMP JUMPDEST SWAP3 POP DUP3 DUP3 ADD SWAP1 POP DUP1 DUP3 GT ISZERO PUSH2 0xC4A JUMPI PUSH2 0xC49 PUSH2 0xA0B JUMP JUMPDEST JUMPDEST SWAP3 SWAP2 POP POP JUMP JUMPDEST PUSH1 0x0 PUSH2 0xC5B DUP3 PUSH2 0x84B JUMP JUMPDEST SWAP2 POP PUSH2 0xC66 DUP4 PUSH2 0x84B JUMP JUMPDEST SWAP3 POP DUP3 DUP3 MUL PUSH2 0xC74 DUP2 PUSH2 0x84B JUMP JUMPDEST SWAP2 POP DUP3 DUP3 DIV DUP5 EQ DUP4 ISZERO OR PUSH2 0xC8B JUMPI PUSH2 0xC8A PUSH2 0xA0B JUMP JUMPDEST JUMPDEST POP SWAP3 SWAP2 POP POP JUMP JUMPDEST PUSH32 0x4E487B7100000000000000000000000000000000000000000000000000000000 PUSH1 0x0 MSTORE PUSH1 0x12 PUSH1 0x4 MSTORE PUSH1 0x24 PUSH1 0x0 REVERT JUMPDEST PUSH1 0x0 PUSH2 0xCCC DUP3 PUSH2 0x84B JUMP JUMPDEST SWAP2 POP PUSH2 0xCD7 DUP4 PUSH2 0x84B JUMP JUMPDEST SWAP3 POP DUP3 PUSH2 0xCE7 JUMPI PUSH2 0xCE6 PUSH2 0xC92 JUMP JUMPDEST JUMPDEST DUP3 DUP3 DIV SWAP1 POP SWAP3 SWAP2 POP POP JUMP JUMPDEST PUSH1 0x0 DUP2 PUSH1 0x1 SHR SWAP1 POP SWAP2 SWAP1 POP JUMP JUMPDEST PUSH1 0x0 DUP1 DUP3 SWAP2 POP DUP4 SWAP1 POP JUMPDEST PUSH1 0x1 DUP6 GT ISZERO PUSH2 0xD49 JUMPI DUP1 DUP7 DIV DUP2 GT ISZERO PUSH2 0xD25 JUMPI PUSH2 0xD24 PUSH2 0xA0B JUMP JUMPDEST JUMPDEST PUSH1 0x1 DUP6 AND ISZERO PUSH2 0xD34 JUMPI DUP1 DUP3 MUL SWAP2 POP JUMPDEST DUP1 DUP2 MUL SWAP1 POP PUSH2 0xD42 DUP6 PUSH2 0xCF2 JUMP JUMPDEST SWAP5 POP PUSH2 0xD09 JUMP JUMPDEST SWAP5 POP SWAP5 SWAP3 POP POP POP JUMP JUMPDEST PUSH1 0x0 DUP3 PUSH2 0xD62 JUMPI PUSH1 0x1 SWAP1 POP PUSH2 0xE1E JUMP JUMPDEST DUP2 PUSH2 0xD70 JUMPI PUSH1 0x0 SWAP1 POP PUSH2 0xE1E JUMP JUMPDEST DUP2 PUSH1 0x1 DUP2 EQ PUSH2 0xD86 JUMPI PUSH1 0x2 DUP2 EQ PUSH2 0xD90 JUMPI PUSH2 0xDBF JUMP JUMPDEST PUSH1 0x1 SWAP2 POP POP PUSH2 0xE1E JUMP JUMPDEST PUSH1 0xFF DUP5 GT ISZERO PUSH2 0xDA2 JUMPI PUSH2 0xDA1 PUSH2 0xA0B JUMP JUMPDEST JUMPDEST DUP4 PUSH1 0x2 EXP SWAP2 POP DUP5 DUP3 GT ISZERO PUSH2 0xDB9 JUMPI PUSH2 0xDB8 PUSH2 0xA0B JUMP JUMPDEST JUMPDEST POP PUSH2 0xE1E JUMP JUMPDEST POP PUSH1 0x20 DUP4 LT PUSH2 0x133 DUP4 LT AND PUSH1 0x4E DUP5 LT PUSH1 0xB DUP5 LT AND OR ISZERO PUSH2 0xDF4 JUMPI DUP3 DUP3 EXP SWAP1 POP DUP4 DUP2 GT ISZERO PUSH2 0xDEF JUMPI PUSH2 0xDEE PUSH2 0xA0B JUMP JUMPDEST JUMPDEST PUSH2 0xE1E JUMP JUMPDEST PUSH2 0xE01 DUP5 DUP5 DUP5 PUSH1 0x1 PUSH2 0xCFF JUMP JUMPDEST SWAP3 POP SWAP1 POP DUP2 DUP5 DIV DUP2 GT ISZERO PUSH2 0xE18 JUMPI PUSH2 0xE17 PUSH2 0xA0B JUMP JUMPDEST JUMPDEST DUP2 DUP2 MUL SWAP1 POP JUMPDEST SWAP4 SWAP3 POP POP POP JUMP JUMPDEST PUSH1 0x0 PUSH2 0xE30 DUP3 PUSH2 0x84B JUMP JUMPDEST SWAP2 POP PUSH2 0xE3B DUP4 PUSH2 0x84B JUMP JUMPDEST SWAP3 POP PUSH2 0xE68 PUSH32 0xFFFFFFFFFFFFFFFFFFFFFFFFFFFFFFFFFFFFFFFFFFFFFFFFFFFFFFFFFFFFFFFF DUP5 DUP5 PUSH2 0xD52 JUMP JUMPDEST SWAP1 POP SWAP3 SWAP2 POP POP JUMP JUMPDEST PUSH1 0x0 PUSH2 0xE7C DUP3 DUP6 PUSH2 0xAEF JUMP JUMPDEST PUSH1 0x20 DUP3 ADD SWAP2 POP PUSH2 0xE8C DUP3 DUP5 PUSH2 0xAEF JUMP JUMPDEST PUSH1 0x20 DUP3 ADD SWAP2 POP DUP2 SWAP1 POP SWAP4 SWAP3 POP POP POP JUMP JUMPDEST PUSH1 0x0 PUSH2 0xEA7 DUP3 PUSH2 0x84B JUMP JUMPDEST SWAP2 POP PUSH2 0xEB2 DUP4 PUSH2 0x84B JUMP JUMPDEST SWAP3 POP DUP3 PUSH2 0xEC2 JUMPI PUSH2 0xEC1 PUSH2 0xC92 JUMP JUMPDEST JUMPDEST DUP3 DUP3 MOD SWAP1 POP SWAP3 SWAP2 POP POP JUMP INVALID LOG2 PUSH5 0x6970667358 0x22 SLT KECCAK256 CREATE2 EXTCODECOPY 0xC3 0xE5 0xD3 DIV 0xCA PUSH2 0x47D2 SLT CALLVALUE 0x25 SWAP16 0xE0 SWAP9 JUMPI DUP1 PUSH7 0xD83FF7BB11DB54 0xBB 0xE0 PUSH9 0xAFB91D64736F6C6343 STOP ADDMOD GT STOP CALLER "
		},
		"gasEstimates": {
			"creation": {
				"codeDepositCost": "768600",
				"executionCost": "137813",
				"totalCost": "906413"
			},
			"external": {
				"breading(uint256,uint256,uint256)": "infinite",
				"decode(uint256)": "infinite",
				"encode(uint8[])": "infinite"
			},
			"internal": {
				"get8Bits(uint256,uint256)": "infinite",
				"getRandomId(uint256,uint256,uint8,uint8)": "infinite",
				"getRarity(uint256,uint256,uint256)": "infinite",
				"random(uint256,uint256,uint256,uint256)": "infinite",
				"sliceNumber(uint256,uint256,uint256)": "infinite",
				"totalWeight()": "infinite",
				"weight(uint256)": "2162"
			}
		},
		"methodIdentifiers": {
			"breading(uint256,uint256,uint256)": "a7cc0f50",
			"decode(uint256)": "61a76900",
			"encode(uint8[])": "1597ee44"
		}
	},
	"abi": [
		{
			"inputs": [
				{
					"internalType": "uint256",
					"name": "genes1",
					"type": "uint256"
				},
				{
					"internalType": "uint256",
					"name": "genes2",
					"type": "uint256"
				},
				{
					"internalType": "uint256",
					"name": "generation",
					"type": "uint256"
				}
			],
			"name": "breading",
			"outputs": [
				{
					"internalType": "uint256",
					"name": "",
					"type": "uint256"
				}
			],
			"stateMutability": "nonpayable",
			"type": "function"
		},
		{
			"inputs": [
				{
					"internalType": "uint256",
					"name": "_genes",
					"type": "uint256"
				}
			],
			"name": "decode",
			"outputs": [
				{
					"internalType": "uint8[]",
					"name": "_traits",
					"type": "uint8[]"
				}
			],
			"stateMutability": "pure",
			"type": "function"
		},
		{
			"inputs": [
				{
					"internalType": "uint8[]",
					"name": "_traits",
					"type": "uint8[]"
				}
			],
			"name": "encode",
			"outputs": [
				{
					"internalType": "uint256",
					"name": "_genes",
					"type": "uint256"
				}
			],
			"stateMutability": "pure",
			"type": "function"
		}
	]
}